{
	"contracts/PollBetContract.sol": {
		"PollBetContract": {
			"abi": [
				{
					"anonymous": false,
					"inputs": [
						{
							"indexed": true,
							"internalType": "uint256",
							"name": "pollId",
							"type": "uint256"
						},
						{
							"indexed": false,
							"internalType": "string",
							"name": "pollChoice",
							"type": "string"
						},
						{
							"indexed": true,
							"internalType": "address",
							"name": "user",
							"type": "address"
						},
						{
							"indexed": false,
							"internalType": "uint256",
							"name": "amount",
							"type": "uint256"
						}
					],
					"name": "BetPlaced",
					"type": "event"
				},
				{
					"anonymous": false,
					"inputs": [
						{
							"indexed": false,
							"internalType": "string",
							"name": "message",
							"type": "string"
						}
					],
					"name": "Log",
					"type": "event"
				},
				{
					"anonymous": false,
					"inputs": [
						{
							"indexed": true,
							"internalType": "uint256",
							"name": "id",
							"type": "uint256"
						},
						{
							"indexed": true,
							"internalType": "address",
							"name": "winner",
							"type": "address"
						}
					],
					"name": "PollClosed",
					"type": "event"
				},
				{
					"anonymous": false,
					"inputs": [
						{
							"indexed": true,
							"internalType": "uint256",
							"name": "id",
							"type": "uint256"
						},
						{
							"indexed": true,
							"internalType": "address",
							"name": "creator",
							"type": "address"
						},
						{
							"indexed": false,
							"internalType": "uint256",
							"name": "startTime",
							"type": "uint256"
						},
						{
							"indexed": false,
							"internalType": "uint256",
							"name": "endTime",
							"type": "uint256"
						},
						{
							"indexed": false,
							"internalType": "string[]",
							"name": "options",
							"type": "string[]"
						}
					],
					"name": "PollCreated",
					"type": "event"
				},
				{
					"anonymous": false,
					"inputs": [
						{
							"indexed": true,
							"internalType": "uint256",
							"name": "pollId",
							"type": "uint256"
						},
						{
							"indexed": false,
							"internalType": "address[]",
							"name": "winners",
							"type": "address[]"
						},
						{
							"indexed": false,
							"internalType": "uint256[]",
							"name": "rewards",
							"type": "uint256[]"
						}
					],
					"name": "RewardsDistributed",
					"type": "event"
				},
				{
					"anonymous": false,
					"inputs": [
						{
							"indexed": true,
							"internalType": "uint256",
							"name": "pollId",
							"type": "uint256"
						},
						{
							"indexed": true,
							"internalType": "address",
							"name": "voter",
							"type": "address"
						},
						{
							"indexed": false,
							"internalType": "uint256",
							"name": "choice",
							"type": "uint256"
						}
					],
					"name": "VoteCasted",
					"type": "event"
				},
				{
					"inputs": [
						{
							"internalType": "address",
							"name": "",
							"type": "address"
						}
					],
					"name": "balances",
					"outputs": [
						{
							"internalType": "uint256",
							"name": "",
							"type": "uint256"
						}
					],
					"stateMutability": "view",
					"type": "function"
				},
				{
					"inputs": [],
					"name": "betCount",
					"outputs": [
						{
							"internalType": "uint256",
							"name": "",
							"type": "uint256"
						}
					],
					"stateMutability": "view",
					"type": "function"
				},
				{
					"inputs": [
						{
							"internalType": "uint256",
							"name": "_pollId",
							"type": "uint256"
						},
						{
							"internalType": "uint256",
							"name": "_pollChoice",
							"type": "uint256"
						}
					],
					"name": "betOnPoll",
					"outputs": [],
					"stateMutability": "payable",
					"type": "function"
				},
				{
					"inputs": [],
					"name": "closePoll",
					"outputs": [],
					"stateMutability": "nonpayable",
					"type": "function"
				},
				{
					"inputs": [
						{
							"internalType": "uint256",
							"name": "_startTime",
							"type": "uint256"
						},
						{
							"internalType": "uint256",
							"name": "_endTime",
							"type": "uint256"
						},
						{
							"internalType": "string[]",
							"name": "_options",
							"type": "string[]"
						}
					],
					"name": "createPoll",
					"outputs": [],
					"stateMutability": "nonpayable",
					"type": "function"
				},
				{
					"inputs": [],
					"name": "distributeRewards",
					"outputs": [],
					"stateMutability": "nonpayable",
					"type": "function"
				},
				{
					"inputs": [
						{
							"internalType": "uint256",
							"name": "_pollId",
							"type": "uint256"
						}
					],
					"name": "getBetCount",
					"outputs": [
						{
							"internalType": "uint256",
							"name": "",
							"type": "uint256"
						}
					],
					"stateMutability": "view",
					"type": "function"
				},
				{
					"inputs": [
						{
							"internalType": "uint256",
							"name": "_pollId",
							"type": "uint256"
						},
						{
							"internalType": "string",
							"name": "_pollChoice",
							"type": "string"
						}
					],
					"name": "getOdds",
					"outputs": [
						{
							"internalType": "uint256",
							"name": "",
							"type": "uint256"
						}
					],
					"stateMutability": "view",
					"type": "function"
				},
				{
					"inputs": [
						{
							"internalType": "uint256",
							"name": "_pollId",
							"type": "uint256"
						}
					],
					"name": "getPollInfo",
					"outputs": [
						{
							"components": [
								{
									"internalType": "uint256",
									"name": "id",
									"type": "uint256"
								},
								{
									"internalType": "address",
									"name": "creator",
									"type": "address"
								},
								{
									"internalType": "uint256",
									"name": "startTime",
									"type": "uint256"
								},
								{
									"internalType": "uint256",
									"name": "endTime",
									"type": "uint256"
								},
								{
									"internalType": "string[]",
									"name": "choices",
									"type": "string[]"
								},
								{
									"internalType": "uint256[]",
									"name": "choiceCounts",
									"type": "uint256[]"
								},
								{
									"internalType": "bool",
									"name": "isOpen",
									"type": "bool"
								}
							],
							"internalType": "struct PollBetContract.Poll",
							"name": "",
							"type": "tuple"
						}
					],
					"stateMutability": "view",
					"type": "function"
				},
				{
					"inputs": [
						{
							"internalType": "uint256",
							"name": "_pollId",
							"type": "uint256"
						}
					],
					"name": "getPollVotersCount",
					"outputs": [
						{
							"internalType": "uint256",
							"name": "",
							"type": "uint256"
						}
					],
					"stateMutability": "view",
					"type": "function"
				},
				{
					"inputs": [
						{
							"internalType": "uint256",
							"name": "_pollId",
							"type": "uint256"
						}
					],
					"name": "getTotalBetAmount",
					"outputs": [
						{
							"internalType": "uint256",
							"name": "",
							"type": "uint256"
						}
					],
					"stateMutability": "view",
					"type": "function"
				},
				{
					"inputs": [
						{
							"internalType": "uint256",
							"name": "",
							"type": "uint256"
						},
						{
							"internalType": "address",
							"name": "",
							"type": "address"
						}
					],
					"name": "hasVoted",
					"outputs": [
						{
							"internalType": "bool",
							"name": "",
							"type": "bool"
						}
					],
					"stateMutability": "view",
					"type": "function"
				},
				{
					"inputs": [
						{
							"internalType": "uint256",
							"name": "",
							"type": "uint256"
						}
					],
					"name": "pollBetTotal",
					"outputs": [
						{
							"internalType": "uint256",
							"name": "",
							"type": "uint256"
						}
					],
					"stateMutability": "view",
					"type": "function"
				},
				{
					"inputs": [
						{
							"internalType": "uint256",
							"name": "",
							"type": "uint256"
						},
						{
							"internalType": "address",
							"name": "",
							"type": "address"
						}
					],
					"name": "pollBets",
					"outputs": [
						{
							"internalType": "uint256",
							"name": "",
							"type": "uint256"
						}
					],
					"stateMutability": "view",
					"type": "function"
				},
				{
					"inputs": [
						{
							"internalType": "uint256",
							"name": "",
							"type": "uint256"
						},
						{
							"internalType": "uint256",
							"name": "",
							"type": "uint256"
						}
					],
					"name": "pollBetsList",
					"outputs": [
						{
							"internalType": "uint256",
							"name": "pollId",
							"type": "uint256"
						},
						{
							"internalType": "string",
							"name": "pollChoice",
							"type": "string"
						},
						{
							"internalType": "address",
							"name": "user",
							"type": "address"
						},
						{
							"internalType": "uint256",
							"name": "amount",
							"type": "uint256"
						}
					],
					"stateMutability": "view",
					"type": "function"
				},
				{
					"inputs": [],
					"name": "pollCount",
					"outputs": [
						{
							"internalType": "uint256",
							"name": "",
							"type": "uint256"
						}
					],
					"stateMutability": "view",
					"type": "function"
				},
				{
					"inputs": [
						{
							"internalType": "uint256",
							"name": "",
							"type": "uint256"
						}
					],
					"name": "pollCounts",
					"outputs": [
						{
							"internalType": "uint256",
							"name": "",
							"type": "uint256"
						}
					],
					"stateMutability": "view",
					"type": "function"
				},
				{
					"inputs": [
						{
							"internalType": "uint256",
							"name": "",
							"type": "uint256"
						},
						{
							"internalType": "uint256",
							"name": "",
							"type": "uint256"
						}
					],
					"name": "pollWinners",
					"outputs": [
						{
							"internalType": "uint256",
							"name": "",
							"type": "uint256"
						}
					],
					"stateMutability": "view",
					"type": "function"
				},
				{
					"inputs": [
						{
							"internalType": "uint256",
							"name": "_pollId",
							"type": "uint256"
						},
						{
							"internalType": "uint256",
							"name": "_pollChoice",
							"type": "uint256"
						}
					],
					"name": "voteOnPoll",
					"outputs": [],
					"stateMutability": "nonpayable",
					"type": "function"
				},
				{
					"inputs": [
						{
							"internalType": "uint256",
							"name": "",
							"type": "uint256"
						},
						{
							"internalType": "address",
							"name": "",
							"type": "address"
						}
					],
					"name": "voters",
					"outputs": [
						{
							"internalType": "uint256",
							"name": "pollId",
							"type": "uint256"
						},
						{
							"internalType": "address",
							"name": "voterAddress",
							"type": "address"
						},
						{
							"internalType": "uint256",
							"name": "choice",
							"type": "uint256"
						}
					],
					"stateMutability": "view",
					"type": "function"
				}
			],
			"devdoc": {
				"kind": "dev",
				"methods": {},
				"version": 1
			},
			"evm": {
				"assembly": "    /* \"contracts/PollBetContract.sol\":156:7587  contract PollBetContract {... */\n  mstore(0x40, 0x80)\n  callvalue\n  dup1\n  iszero\n  tag_1\n  jumpi\n  0x00\n  dup1\n  revert\ntag_1:\n  pop\n  dataSize(sub_0)\n  dup1\n  dataOffset(sub_0)\n  0x00\n  codecopy\n  0x00\n  return\nstop\n\nsub_0: assembly {\n        /* \"contracts/PollBetContract.sol\":156:7587  contract PollBetContract {... */\n      mstore(0x40, 0x80)\n      jumpi(tag_1, lt(calldatasize, 0x04))\n      shr(0xe0, calldataload(0x00))\n      dup1\n      0x8761ad0c\n      gt\n      tag_22\n      jumpi\n      dup1\n      0xa9549f0a\n      gt\n      tag_23\n      jumpi\n      dup1\n      0xa9549f0a\n      eq\n      tag_17\n      jumpi\n      dup1\n      0xab0d4869\n      eq\n      tag_18\n      jumpi\n      dup1\n      0xcf094497\n      eq\n      tag_19\n      jumpi\n      dup1\n      0xd624d6fd\n      eq\n      tag_20\n      jumpi\n      dup1\n      0xed8c2aed\n      eq\n      tag_21\n      jumpi\n      jump(tag_1)\n    tag_23:\n      dup1\n      0x8761ad0c\n      eq\n      tag_12\n      jumpi\n      dup1\n      0x91cbfb41\n      eq\n      tag_13\n      jumpi\n      dup1\n      0x9207891d\n      eq\n      tag_14\n      jumpi\n      dup1\n      0x9e319063\n      eq\n      tag_15\n      jumpi\n      dup1\n      0xa32bde6f\n      eq\n      tag_16\n      jumpi\n      jump(tag_1)\n    tag_22:\n      dup1\n      0x43859632\n      gt\n      tag_24\n      jumpi\n      dup1\n      0x43859632\n      eq\n      tag_7\n      jumpi\n      dup1\n      0x46f86716\n      eq\n      tag_8\n      jumpi\n      dup1\n      0x4c3c234f\n      eq\n      tag_9\n      jumpi\n      dup1\n      0x6b7128ec\n      eq\n      tag_10\n      jumpi\n      dup1\n      0x6f4a2cd0\n      eq\n      tag_11\n      jumpi\n      jump(tag_1)\n    tag_24:\n      dup1\n      0x06455f5e\n      eq\n      tag_2\n      jumpi\n      dup1\n      0x0e89da56\n      eq\n      tag_3\n      jumpi\n      dup1\n      0x27e235e3\n      eq\n      tag_4\n      jumpi\n      dup1\n      0x29b8f44a\n      eq\n      tag_5\n      jumpi\n      dup1\n      0x420700f6\n      eq\n      tag_6\n      jumpi\n    tag_1:\n      0x00\n      dup1\n      revert\n        /* \"contracts/PollBetContract.sol\":1284:1341  mapping(uint => mapping(address => uint)) public pollBets */\n    tag_2:\n      callvalue\n      dup1\n      iszero\n      tag_25\n      jumpi\n      0x00\n      dup1\n      revert\n    tag_25:\n      pop\n      tag_26\n      0x04\n      dup1\n      calldatasize\n      sub\n      dup2\n      add\n      swap1\n      tag_27\n      swap2\n      swap1\n      tag_28\n      jump\t// in\n    tag_27:\n      tag_29\n      jump\t// in\n    tag_26:\n      mload(0x40)\n      tag_30\n      swap2\n      swap1\n      tag_31\n      jump\t// in\n    tag_30:\n      mload(0x40)\n      dup1\n      swap2\n      sub\n      swap1\n      return\n        /* \"contracts/PollBetContract.sol\":6157:6434  function getTotalBetAmount(uint _pollId) public view returns(uint) {... */\n    tag_3:\n      callvalue\n      dup1\n      iszero\n      tag_32\n      jumpi\n      0x00\n      dup1\n      revert\n    tag_32:\n      pop\n      tag_33\n      0x04\n      dup1\n      calldatasize\n      sub\n      dup2\n      add\n      swap1\n      tag_34\n      swap2\n      swap1\n      tag_35\n      jump\t// in\n    tag_34:\n      tag_36\n      jump\t// in\n    tag_33:\n      mload(0x40)\n      tag_37\n      swap2\n      swap1\n      tag_31\n      jump\t// in\n    tag_37:\n      mload(0x40)\n      dup1\n      swap2\n      sub\n      swap1\n      return\n        /* \"contracts/PollBetContract.sol\":1395:1435  mapping(address => uint) public balances */\n    tag_4:\n      callvalue\n      dup1\n      iszero\n      tag_38\n      jumpi\n      0x00\n      dup1\n      revert\n    tag_38:\n      pop\n      tag_39\n      0x04\n      dup1\n      calldatasize\n      sub\n      dup2\n      add\n      swap1\n      tag_40\n      swap2\n      swap1\n      tag_41\n      jump\t// in\n    tag_40:\n      tag_42\n      jump\t// in\n    tag_39:\n      mload(0x40)\n      tag_43\n      swap2\n      swap1\n      tag_31\n      jump\t// in\n    tag_43:\n      mload(0x40)\n      dup1\n      swap2\n      sub\n      swap1\n      return\n        /* \"contracts/PollBetContract.sol\":3657:3850  function getPollInfo(uint _pollId) public view returns (Poll memory) {... */\n    tag_5:\n      callvalue\n      dup1\n      iszero\n      tag_44\n      jumpi\n      0x00\n      dup1\n      revert\n    tag_44:\n      pop\n      tag_45\n      0x04\n      dup1\n      calldatasize\n      sub\n      dup2\n      add\n      swap1\n      tag_46\n      swap2\n      swap1\n      tag_35\n      jump\t// in\n    tag_46:\n      tag_47\n      jump\t// in\n    tag_45:\n      mload(0x40)\n      tag_48\n      swap2\n      swap1\n      tag_49\n      jump\t// in\n    tag_48:\n      mload(0x40)\n      dup1\n      swap2\n      sub\n      swap1\n      return\n        /* \"contracts/PollBetContract.sol\":1441:1483  mapping(uint => Bet[]) public pollBetsList */\n    tag_6:\n      callvalue\n      dup1\n      iszero\n      tag_50\n      jumpi\n      0x00\n      dup1\n      revert\n    tag_50:\n      pop\n      tag_51\n      0x04\n      dup1\n      calldatasize\n      sub\n      dup2\n      add\n      swap1\n      tag_52\n      swap2\n      swap1\n      tag_53\n      jump\t// in\n    tag_52:\n      tag_54\n      jump\t// in\n    tag_51:\n      mload(0x40)\n      tag_55\n      swap5\n      swap4\n      swap3\n      swap2\n      swap1\n      tag_56\n      jump\t// in\n    tag_55:\n      mload(0x40)\n      dup1\n      swap2\n      sub\n      swap1\n      return\n        /* \"contracts/PollBetContract.sol\":1489:1546  mapping(uint => mapping(address => bool)) public hasVoted */\n    tag_7:\n      callvalue\n      dup1\n      iszero\n      tag_57\n      jumpi\n      0x00\n      dup1\n      revert\n    tag_57:\n      pop\n      tag_58\n      0x04\n      dup1\n      calldatasize\n      sub\n      dup2\n      add\n      swap1\n      tag_59\n      swap2\n      swap1\n      tag_28\n      jump\t// in\n    tag_59:\n      tag_60\n      jump\t// in\n    tag_58:\n      mload(0x40)\n      tag_61\n      swap2\n      swap1\n      tag_62\n      jump\t// in\n    tag_61:\n      mload(0x40)\n      dup1\n      swap2\n      sub\n      swap1\n      return\n        /* \"contracts/PollBetContract.sol\":1237:1278  mapping(uint => uint) public pollBetTotal */\n    tag_8:\n      callvalue\n      dup1\n      iszero\n      tag_63\n      jumpi\n      0x00\n      dup1\n      revert\n    tag_63:\n      pop\n      tag_64\n      0x04\n      dup1\n      calldatasize\n      sub\n      dup2\n      add\n      swap1\n      tag_65\n      swap2\n      swap1\n      tag_35\n      jump\t// in\n    tag_65:\n      tag_66\n      jump\t// in\n    tag_64:\n      mload(0x40)\n      tag_67\n      swap2\n      swap1\n      tag_31\n      jump\t// in\n    tag_67:\n      mload(0x40)\n      dup1\n      swap2\n      sub\n      swap1\n      return\n        /* \"contracts/PollBetContract.sol\":3855:4758  function voteOnPoll(uint _pollId, uint _pollChoice) public {... */\n    tag_9:\n      callvalue\n      dup1\n      iszero\n      tag_68\n      jumpi\n      0x00\n      dup1\n      revert\n    tag_68:\n      pop\n      tag_69\n      0x04\n      dup1\n      calldatasize\n      sub\n      dup2\n      add\n      swap1\n      tag_70\n      swap2\n      swap1\n      tag_53\n      jump\t// in\n    tag_70:\n      tag_71\n      jump\t// in\n    tag_69:\n      stop\n        /* \"contracts/PollBetContract.sol\":6039:6152  function getBetCount(uint _pollId) public view returns(uint) {... */\n    tag_10:\n      callvalue\n      dup1\n      iszero\n      tag_72\n      jumpi\n      0x00\n      dup1\n      revert\n    tag_72:\n      pop\n      tag_73\n      0x04\n      dup1\n      calldatasize\n      sub\n      dup2\n      add\n      swap1\n      tag_74\n      swap2\n      swap1\n      tag_35\n      jump\t// in\n    tag_74:\n      tag_75\n      jump\t// in\n    tag_73:\n      mload(0x40)\n      tag_76\n      swap2\n      swap1\n      tag_31\n      jump\t// in\n    tag_76:\n      mload(0x40)\n      dup1\n      swap2\n      sub\n      swap1\n      return\n        /* \"contracts/PollBetContract.sol\":7040:7078  function distributeRewards() public {} */\n    tag_11:\n      callvalue\n      dup1\n      iszero\n      tag_77\n      jumpi\n      0x00\n      dup1\n      revert\n    tag_77:\n      pop\n      tag_78\n      tag_79\n      jump\t// in\n    tag_78:\n      stop\n        /* \"contracts/PollBetContract.sol\":3266:3652  function getPollVotersCount(uint _pollId) public view returns (uint) {... */\n    tag_12:\n      callvalue\n      dup1\n      iszero\n      tag_80\n      jumpi\n      0x00\n      dup1\n      revert\n    tag_80:\n      pop\n      tag_81\n      0x04\n      dup1\n      calldatasize\n      sub\n      dup2\n      add\n      swap1\n      tag_82\n      swap2\n      swap1\n      tag_35\n      jump\t// in\n    tag_82:\n      tag_83\n      jump\t// in\n    tag_81:\n      mload(0x40)\n      tag_84\n      swap2\n      swap1\n      tag_31\n      jump\t// in\n    tag_84:\n      mload(0x40)\n      dup1\n      swap2\n      sub\n      swap1\n      return\n        /* \"contracts/PollBetContract.sol\":1347:1389  mapping(uint => uint[]) public pollWinners */\n    tag_13:\n      callvalue\n      dup1\n      iszero\n      tag_85\n      jumpi\n      0x00\n      dup1\n      revert\n    tag_85:\n      pop\n      tag_86\n      0x04\n      dup1\n      calldatasize\n      sub\n      dup2\n      add\n      swap1\n      tag_87\n      swap2\n      swap1\n      tag_53\n      jump\t// in\n    tag_87:\n      tag_88\n      jump\t// in\n    tag_86:\n      mload(0x40)\n      tag_89\n      swap2\n      swap1\n      tag_31\n      jump\t// in\n    tag_89:\n      mload(0x40)\n      dup1\n      swap2\n      sub\n      swap1\n      return\n        /* \"contracts/PollBetContract.sol\":1139:1160  uint public pollCount */\n    tag_14:\n      callvalue\n      dup1\n      iszero\n      tag_90\n      jumpi\n      0x00\n      dup1\n      revert\n    tag_90:\n      pop\n      tag_91\n      tag_92\n      jump\t// in\n    tag_91:\n      mload(0x40)\n      tag_93\n      swap2\n      swap1\n      tag_31\n      jump\t// in\n    tag_93:\n      mload(0x40)\n      dup1\n      swap2\n      sub\n      swap1\n      return\n        /* \"contracts/PollBetContract.sol\":1552:1608  mapping(uint => mapping(address => Voter)) public voters */\n    tag_15:\n      callvalue\n      dup1\n      iszero\n      tag_94\n      jumpi\n      0x00\n      dup1\n      revert\n    tag_94:\n      pop\n      tag_95\n      0x04\n      dup1\n      calldatasize\n      sub\n      dup2\n      add\n      swap1\n      tag_96\n      swap2\n      swap1\n      tag_28\n      jump\t// in\n    tag_96:\n      tag_97\n      jump\t// in\n    tag_95:\n      mload(0x40)\n      tag_98\n      swap4\n      swap3\n      swap2\n      swap1\n      tag_99\n      jump\t// in\n    tag_98:\n      mload(0x40)\n      dup1\n      swap2\n      sub\n      swap1\n      return\n        /* \"contracts/PollBetContract.sol\":1768:1792  uint[] public pollCounts */\n    tag_16:\n      callvalue\n      dup1\n      iszero\n      tag_100\n      jumpi\n      0x00\n      dup1\n      revert\n    tag_100:\n      pop\n      tag_101\n      0x04\n      dup1\n      calldatasize\n      sub\n      dup2\n      add\n      swap1\n      tag_102\n      swap2\n      swap1\n      tag_35\n      jump\t// in\n    tag_102:\n      tag_103\n      jump\t// in\n    tag_101:\n      mload(0x40)\n      tag_104\n      swap2\n      swap1\n      tag_31\n      jump\t// in\n    tag_104:\n      mload(0x40)\n      dup1\n      swap2\n      sub\n      swap1\n      return\n        /* \"contracts/PollBetContract.sol\":6439:6968  function getOdds(uint _pollId, string calldata _pollChoice) public view returns(uint){... */\n    tag_17:\n      callvalue\n      dup1\n      iszero\n      tag_105\n      jumpi\n      0x00\n      dup1\n      revert\n    tag_105:\n      pop\n      tag_106\n      0x04\n      dup1\n      calldatasize\n      sub\n      dup2\n      add\n      swap1\n      tag_107\n      swap2\n      swap1\n      tag_108\n      jump\t// in\n    tag_107:\n      tag_109\n      jump\t// in\n    tag_106:\n      mload(0x40)\n      tag_110\n      swap2\n      swap1\n      tag_31\n      jump\t// in\n    tag_110:\n      mload(0x40)\n      dup1\n      swap2\n      sub\n      swap1\n      return\n        /* \"contracts/PollBetContract.sol\":4763:6034  function betOnPoll(uint _pollId, uint _pollChoice) public payable { // Data location must be \"memory\" or \"calldata\" for parameter in function, but none was given... */\n    tag_18:\n      tag_111\n      0x04\n      dup1\n      calldatasize\n      sub\n      dup2\n      add\n      swap1\n      tag_112\n      swap2\n      swap1\n      tag_53\n      jump\t// in\n    tag_112:\n      tag_113\n      jump\t// in\n    tag_111:\n      stop\n        /* \"contracts/PollBetContract.sol\":1166:1186  uint public betCount */\n    tag_19:\n      callvalue\n      dup1\n      iszero\n      tag_114\n      jumpi\n      0x00\n      dup1\n      revert\n    tag_114:\n      pop\n      tag_115\n      tag_116\n      jump\t// in\n    tag_115:\n      mload(0x40)\n      tag_117\n      swap2\n      swap1\n      tag_31\n      jump\t// in\n    tag_117:\n      mload(0x40)\n      dup1\n      swap2\n      sub\n      swap1\n      return\n        /* \"contracts/PollBetContract.sol\":1798:3261  function createPoll(uint _startTime, uint _endTime, string[] memory _options) public {... */\n    tag_20:\n      callvalue\n      dup1\n      iszero\n      tag_118\n      jumpi\n      0x00\n      dup1\n      revert\n    tag_118:\n      pop\n      tag_119\n      0x04\n      dup1\n      calldatasize\n      sub\n      dup2\n      add\n      swap1\n      tag_120\n      swap2\n      swap1\n      tag_121\n      jump\t// in\n    tag_120:\n      tag_122\n      jump\t// in\n    tag_119:\n      stop\n        /* \"contracts/PollBetContract.sol\":6973:7003  function closePoll() public {} */\n    tag_21:\n      callvalue\n      dup1\n      iszero\n      tag_123\n      jumpi\n      0x00\n      dup1\n      revert\n    tag_123:\n      pop\n      tag_124\n      tag_125\n      jump\t// in\n    tag_124:\n      stop\n        /* \"contracts/PollBetContract.sol\":1284:1341  mapping(uint => mapping(address => uint)) public pollBets */\n    tag_29:\n      mstore(0x20, 0x03)\n      dup2\n      0x00\n      mstore\n      mstore(0x20, keccak256(0x00, 0x40))\n      dup1\n      0x00\n      mstore\n      keccak256(0x00, 0x40)\n      0x00\n      swap2\n      pop\n      swap2\n      pop\n      pop\n      sload\n      dup2\n      jump\t// out\n        /* \"contracts/PollBetContract.sol\":6157:6434  function getTotalBetAmount(uint _pollId) public view returns(uint) {... */\n    tag_36:\n        /* \"contracts/PollBetContract.sol\":6218:6222  uint */\n      0x00\n        /* \"contracts/PollBetContract.sol\":6234:6253  uint totalBetAmount */\n      dup1\n        /* \"contracts/PollBetContract.sol\":6256:6257  0 */\n      0x00\n        /* \"contracts/PollBetContract.sol\":6234:6257  uint totalBetAmount = 0 */\n      swap1\n      pop\n        /* \"contracts/PollBetContract.sol\":6272:6278  uint i */\n      0x00\n        /* \"contracts/PollBetContract.sol\":6267:6397  for (uint i = 0; i < pollBetsList[_pollId].length; i++) {... */\n    tag_127:\n        /* \"contracts/PollBetContract.sol\":6288:6300  pollBetsList */\n      0x06\n        /* \"contracts/PollBetContract.sol\":6288:6309  pollBetsList[_pollId] */\n      0x00\n        /* \"contracts/PollBetContract.sol\":6301:6308  _pollId */\n      dup6\n        /* \"contracts/PollBetContract.sol\":6288:6309  pollBetsList[_pollId] */\n      dup2\n      mstore\n      0x20\n      add\n      swap1\n      dup2\n      mstore\n      0x20\n      add\n      0x00\n      keccak256\n        /* \"contracts/PollBetContract.sol\":6288:6316  pollBetsList[_pollId].length */\n      dup1\n      sload\n      swap1\n      pop\n        /* \"contracts/PollBetContract.sol\":6284:6285  i */\n      dup2\n        /* \"contracts/PollBetContract.sol\":6284:6316  i < pollBetsList[_pollId].length */\n      lt\n        /* \"contracts/PollBetContract.sol\":6267:6397  for (uint i = 0; i < pollBetsList[_pollId].length; i++) {... */\n      iszero\n      tag_128\n      jumpi\n        /* \"contracts/PollBetContract.sol\":6355:6367  pollBetsList */\n      0x06\n        /* \"contracts/PollBetContract.sol\":6355:6376  pollBetsList[_pollId] */\n      0x00\n        /* \"contracts/PollBetContract.sol\":6368:6375  _pollId */\n      dup6\n        /* \"contracts/PollBetContract.sol\":6355:6376  pollBetsList[_pollId] */\n      dup2\n      mstore\n      0x20\n      add\n      swap1\n      dup2\n      mstore\n      0x20\n      add\n      0x00\n      keccak256\n        /* \"contracts/PollBetContract.sol\":6377:6378  i */\n      dup2\n        /* \"contracts/PollBetContract.sol\":6355:6379  pollBetsList[_pollId][i] */\n      dup2\n      sload\n      dup2\n      lt\n      tag_130\n      jumpi\n      tag_131\n      tag_132\n      jump\t// in\n    tag_131:\n    tag_130:\n      swap1\n      0x00\n      mstore\n      keccak256(0x00, 0x20)\n      swap1\n      0x04\n      mul\n      add\n        /* \"contracts/PollBetContract.sol\":6355:6386  pollBetsList[_pollId][i].amount */\n      0x03\n      add\n      sload\n        /* \"contracts/PollBetContract.sol\":6337:6386  totalBetAmount += pollBetsList[_pollId][i].amount */\n      dup3\n      tag_134\n      swap2\n      swap1\n      tag_135\n      jump\t// in\n    tag_134:\n      swap2\n      pop\n        /* \"contracts/PollBetContract.sol\":6318:6321  i++ */\n      dup1\n      dup1\n      tag_136\n      swap1\n      tag_137\n      jump\t// in\n    tag_136:\n      swap2\n      pop\n      pop\n        /* \"contracts/PollBetContract.sol\":6267:6397  for (uint i = 0; i < pollBetsList[_pollId].length; i++) {... */\n      jump(tag_127)\n    tag_128:\n      pop\n        /* \"contracts/PollBetContract.sol\":6413:6427  totalBetAmount */\n      dup1\n        /* \"contracts/PollBetContract.sol\":6406:6427  return totalBetAmount */\n      swap2\n      pop\n      pop\n        /* \"contracts/PollBetContract.sol\":6157:6434  function getTotalBetAmount(uint _pollId) public view returns(uint) {... */\n      swap2\n      swap1\n      pop\n      jump\t// out\n        /* \"contracts/PollBetContract.sol\":1395:1435  mapping(address => uint) public balances */\n    tag_42:\n      mstore(0x20, 0x05)\n      dup1\n      0x00\n      mstore\n      keccak256(0x00, 0x40)\n      0x00\n      swap2\n      pop\n      swap1\n      pop\n      sload\n      dup2\n      jump\t// out\n        /* \"contracts/PollBetContract.sol\":3657:3850  function getPollInfo(uint _pollId) public view returns (Poll memory) {... */\n    tag_47:\n        /* \"contracts/PollBetContract.sol\":3713:3724  Poll memory */\n      tag_138\n      tag_139\n      jump\t// in\n    tag_138:\n        /* \"contracts/PollBetContract.sol\":3736:3753  Poll storage poll */\n      0x00\n        /* \"contracts/PollBetContract.sol\":3756:3761  polls */\n      0x0a\n        /* \"contracts/PollBetContract.sol\":3756:3770  polls[_pollId] */\n      0x00\n        /* \"contracts/PollBetContract.sol\":3762:3769  _pollId */\n      dup5\n        /* \"contracts/PollBetContract.sol\":3756:3770  polls[_pollId] */\n      dup2\n      mstore\n      0x20\n      add\n      swap1\n      dup2\n      mstore\n      0x20\n      add\n      0x00\n      keccak256\n        /* \"contracts/PollBetContract.sol\":3736:3770  Poll storage poll = polls[_pollId] */\n      swap1\n      pop\n        /* \"contracts/PollBetContract.sol\":3787:3791  poll */\n      dup1\n        /* \"contracts/PollBetContract.sol\":3780:3791  return poll */\n      mload(0x40)\n      dup1\n      0xe0\n      add\n      0x40\n      mstore\n      swap1\n      dup2\n      0x00\n      dup3\n      add\n      sload\n      dup2\n      mstore\n      0x20\n      add\n      0x01\n      dup3\n      add\n      0x00\n      swap1\n      sload\n      swap1\n      0x0100\n      exp\n      swap1\n      div\n      0xffffffffffffffffffffffffffffffffffffffff\n      and\n      0xffffffffffffffffffffffffffffffffffffffff\n      and\n      0xffffffffffffffffffffffffffffffffffffffff\n      and\n      dup2\n      mstore\n      0x20\n      add\n      0x02\n      dup3\n      add\n      sload\n      dup2\n      mstore\n      0x20\n      add\n      0x03\n      dup3\n      add\n      sload\n      dup2\n      mstore\n      0x20\n      add\n      0x04\n      dup3\n      add\n      dup1\n      sload\n      dup1\n      0x20\n      mul\n      0x20\n      add\n      mload(0x40)\n      swap1\n      dup2\n      add\n      0x40\n      mstore\n      dup1\n      swap3\n      swap2\n      swap1\n      dup2\n      dup2\n      mstore\n      0x20\n      add\n      0x00\n      swap1\n    tag_141:\n      dup3\n      dup3\n      lt\n      iszero\n      tag_142\n      jumpi\n      dup4\n      dup3\n      swap1\n      0x00\n      mstore\n      keccak256(0x00, 0x20)\n      add\n      dup1\n      sload\n      tag_144\n      swap1\n      tag_145\n      jump\t// in\n    tag_144:\n      dup1\n      0x1f\n      add\n      0x20\n      dup1\n      swap2\n      div\n      mul\n      0x20\n      add\n      mload(0x40)\n      swap1\n      dup2\n      add\n      0x40\n      mstore\n      dup1\n      swap3\n      swap2\n      swap1\n      dup2\n      dup2\n      mstore\n      0x20\n      add\n      dup3\n      dup1\n      sload\n      tag_146\n      swap1\n      tag_145\n      jump\t// in\n    tag_146:\n      dup1\n      iszero\n      tag_147\n      jumpi\n      dup1\n      0x1f\n      lt\n      tag_148\n      jumpi\n      0x0100\n      dup1\n      dup4\n      sload\n      div\n      mul\n      dup4\n      mstore\n      swap2\n      0x20\n      add\n      swap2\n      jump(tag_147)\n    tag_148:\n      dup3\n      add\n      swap2\n      swap1\n      0x00\n      mstore\n      keccak256(0x00, 0x20)\n      swap1\n    tag_149:\n      dup2\n      sload\n      dup2\n      mstore\n      swap1\n      0x01\n      add\n      swap1\n      0x20\n      add\n      dup1\n      dup4\n      gt\n      tag_149\n      jumpi\n      dup3\n      swap1\n      sub\n      0x1f\n      and\n      dup3\n      add\n      swap2\n    tag_147:\n      pop\n      pop\n      pop\n      pop\n      pop\n      dup2\n      mstore\n      0x20\n      add\n      swap1\n      0x01\n      add\n      swap1\n      jump(tag_141)\n    tag_142:\n      pop\n      pop\n      pop\n      pop\n      dup2\n      mstore\n      0x20\n      add\n      0x05\n      dup3\n      add\n      dup1\n      sload\n      dup1\n      0x20\n      mul\n      0x20\n      add\n      mload(0x40)\n      swap1\n      dup2\n      add\n      0x40\n      mstore\n      dup1\n      swap3\n      swap2\n      swap1\n      dup2\n      dup2\n      mstore\n      0x20\n      add\n      dup3\n      dup1\n      sload\n      dup1\n      iszero\n      tag_150\n      jumpi\n      0x20\n      mul\n      dup3\n      add\n      swap2\n      swap1\n      0x00\n      mstore\n      keccak256(0x00, 0x20)\n      swap1\n    tag_151:\n      dup2\n      sload\n      dup2\n      mstore\n      0x20\n      add\n      swap1\n      0x01\n      add\n      swap1\n      dup1\n      dup4\n      gt\n      tag_151\n      jumpi\n    tag_150:\n      pop\n      pop\n      pop\n      pop\n      pop\n      dup2\n      mstore\n      0x20\n      add\n      0x06\n      dup3\n      add\n      0x00\n      swap1\n      sload\n      swap1\n      0x0100\n      exp\n      swap1\n      div\n      0xff\n      and\n      iszero\n      iszero\n      iszero\n      iszero\n      dup2\n      mstore\n      pop\n      pop\n      swap2\n      pop\n      pop\n        /* \"contracts/PollBetContract.sol\":3657:3850  function getPollInfo(uint _pollId) public view returns (Poll memory) {... */\n      swap2\n      swap1\n      pop\n      jump\t// out\n        /* \"contracts/PollBetContract.sol\":1441:1483  mapping(uint => Bet[]) public pollBetsList */\n    tag_54:\n      mstore(0x20, 0x06)\n      dup2\n      0x00\n      mstore\n      keccak256(0x00, 0x40)\n      dup2\n      dup2\n      sload\n      dup2\n      lt\n      tag_152\n      jumpi\n      0x00\n      dup1\n      revert\n    tag_152:\n      swap1\n      0x00\n      mstore\n      keccak256(0x00, 0x20)\n      swap1\n      0x04\n      mul\n      add\n      0x00\n      swap2\n      pop\n      swap2\n      pop\n      pop\n      dup1\n      0x00\n      add\n      sload\n      swap1\n      dup1\n      0x01\n      add\n      dup1\n      sload\n      tag_154\n      swap1\n      tag_145\n      jump\t// in\n    tag_154:\n      dup1\n      0x1f\n      add\n      0x20\n      dup1\n      swap2\n      div\n      mul\n      0x20\n      add\n      mload(0x40)\n      swap1\n      dup2\n      add\n      0x40\n      mstore\n      dup1\n      swap3\n      swap2\n      swap1\n      dup2\n      dup2\n      mstore\n      0x20\n      add\n      dup3\n      dup1\n      sload\n      tag_155\n      swap1\n      tag_145\n      jump\t// in\n    tag_155:\n      dup1\n      iszero\n      tag_156\n      jumpi\n      dup1\n      0x1f\n      lt\n      tag_157\n      jumpi\n      0x0100\n      dup1\n      dup4\n      sload\n      div\n      mul\n      dup4\n      mstore\n      swap2\n      0x20\n      add\n      swap2\n      jump(tag_156)\n    tag_157:\n      dup3\n      add\n      swap2\n      swap1\n      0x00\n      mstore\n      keccak256(0x00, 0x20)\n      swap1\n    tag_158:\n      dup2\n      sload\n      dup2\n      mstore\n      swap1\n      0x01\n      add\n      swap1\n      0x20\n      add\n      dup1\n      dup4\n      gt\n      tag_158\n      jumpi\n      dup3\n      swap1\n      sub\n      0x1f\n      and\n      dup3\n      add\n      swap2\n    tag_156:\n      pop\n      pop\n      pop\n      pop\n      pop\n      swap1\n      dup1\n      0x02\n      add\n      0x00\n      swap1\n      sload\n      swap1\n      0x0100\n      exp\n      swap1\n      div\n      0xffffffffffffffffffffffffffffffffffffffff\n      and\n      swap1\n      dup1\n      0x03\n      add\n      sload\n      swap1\n      pop\n      dup5\n      jump\t// out\n        /* \"contracts/PollBetContract.sol\":1489:1546  mapping(uint => mapping(address => bool)) public hasVoted */\n    tag_60:\n      mstore(0x20, 0x07)\n      dup2\n      0x00\n      mstore\n      mstore(0x20, keccak256(0x00, 0x40))\n      dup1\n      0x00\n      mstore\n      keccak256(0x00, 0x40)\n      0x00\n      swap2\n      pop\n      swap2\n      pop\n      swap1\n      sload\n      swap1\n      0x0100\n      exp\n      swap1\n      div\n      0xff\n      and\n      dup2\n      jump\t// out\n        /* \"contracts/PollBetContract.sol\":1237:1278  mapping(uint => uint) public pollBetTotal */\n    tag_66:\n      mstore(0x20, 0x02)\n      dup1\n      0x00\n      mstore\n      keccak256(0x00, 0x40)\n      0x00\n      swap2\n      pop\n      swap1\n      pop\n      sload\n      dup2\n      jump\t// out\n        /* \"contracts/PollBetContract.sol\":3855:4758  function voteOnPoll(uint _pollId, uint _pollChoice) public {... */\n    tag_71:\n        /* \"contracts/PollBetContract.sol\":3924:3941  Poll storage poll */\n      0x00\n        /* \"contracts/PollBetContract.sol\":3944:3949  polls */\n      0x0a\n        /* \"contracts/PollBetContract.sol\":3944:3958  polls[_pollId] */\n      0x00\n        /* \"contracts/PollBetContract.sol\":3950:3957  _pollId */\n      dup5\n        /* \"contracts/PollBetContract.sol\":3944:3958  polls[_pollId] */\n      dup2\n      mstore\n      0x20\n      add\n      swap1\n      dup2\n      mstore\n      0x20\n      add\n      0x00\n      keccak256\n        /* \"contracts/PollBetContract.sol\":3924:3958  Poll storage poll = polls[_pollId] */\n      swap1\n      pop\n        /* \"contracts/PollBetContract.sol\":3986:3994  hasVoted */\n      0x07\n        /* \"contracts/PollBetContract.sol\":3986:4003  hasVoted[_pollId] */\n      0x00\n        /* \"contracts/PollBetContract.sol\":3995:4002  _pollId */\n      dup5\n        /* \"contracts/PollBetContract.sol\":3986:4003  hasVoted[_pollId] */\n      dup2\n      mstore\n      0x20\n      add\n      swap1\n      dup2\n      mstore\n      0x20\n      add\n      0x00\n      keccak256\n        /* \"contracts/PollBetContract.sol\":3986:4015  hasVoted[_pollId][msg.sender] */\n      0x00\n        /* \"contracts/PollBetContract.sol\":4004:4014  msg.sender */\n      caller\n        /* \"contracts/PollBetContract.sol\":3986:4015  hasVoted[_pollId][msg.sender] */\n      0xffffffffffffffffffffffffffffffffffffffff\n      and\n      0xffffffffffffffffffffffffffffffffffffffff\n      and\n      dup2\n      mstore\n      0x20\n      add\n      swap1\n      dup2\n      mstore\n      0x20\n      add\n      0x00\n      keccak256\n      0x00\n      swap1\n      sload\n      swap1\n      0x0100\n      exp\n      swap1\n      div\n      0xff\n      and\n        /* \"contracts/PollBetContract.sol\":3985:4015  !hasVoted[_pollId][msg.sender] */\n      iszero\n        /* \"contracts/PollBetContract.sol\":3977:4033  require(!hasVoted[_pollId][msg.sender], \"Already voted\") */\n      tag_160\n      jumpi\n      mload(0x40)\n      0x08c379a000000000000000000000000000000000000000000000000000000000\n      dup2\n      mstore\n      0x04\n      add\n      tag_161\n      swap1\n      tag_162\n      jump\t// in\n    tag_161:\n      mload(0x40)\n      dup1\n      swap2\n      sub\n      swap1\n      revert\n    tag_160:\n        /* \"contracts/PollBetContract.sol\":4051:4055  poll */\n      dup1\n        /* \"contracts/PollBetContract.sol\":4051:4062  poll.isOpen */\n      0x06\n      add\n      0x00\n      swap1\n      sload\n      swap1\n      0x0100\n      exp\n      swap1\n      div\n      0xff\n      and\n        /* \"contracts/PollBetContract.sol\":4043:4081  require(poll.isOpen, \"Poll is closed\") */\n      tag_163\n      jumpi\n      mload(0x40)\n      0x08c379a000000000000000000000000000000000000000000000000000000000\n      dup2\n      mstore\n      0x04\n      add\n      tag_164\n      swap1\n      tag_165\n      jump\t// in\n    tag_164:\n      mload(0x40)\n      dup1\n      swap2\n      sub\n      swap1\n      revert\n    tag_163:\n        /* \"contracts/PollBetContract.sol\":4118:4122  poll */\n      dup1\n        /* \"contracts/PollBetContract.sol\":4118:4132  poll.startTime */\n      0x02\n      add\n      sload\n        /* \"contracts/PollBetContract.sol\":4099:4114  block.timestamp */\n      timestamp\n        /* \"contracts/PollBetContract.sol\":4099:4132  block.timestamp >= poll.startTime */\n      lt\n      iszero\n        /* \"contracts/PollBetContract.sol\":4099:4167  block.timestamp >= poll.startTime && block.timestamp <= poll.endTime */\n      dup1\n      iszero\n      tag_166\n      jumpi\n      pop\n        /* \"contracts/PollBetContract.sol\":4155:4159  poll */\n      dup1\n        /* \"contracts/PollBetContract.sol\":4155:4167  poll.endTime */\n      0x03\n      add\n      sload\n        /* \"contracts/PollBetContract.sol\":4136:4151  block.timestamp */\n      timestamp\n        /* \"contracts/PollBetContract.sol\":4136:4167  block.timestamp <= poll.endTime */\n      gt\n      iszero\n        /* \"contracts/PollBetContract.sol\":4099:4167  block.timestamp >= poll.startTime && block.timestamp <= poll.endTime */\n    tag_166:\n        /* \"contracts/PollBetContract.sol\":4091:4190  require(block.timestamp >= poll.startTime && block.timestamp <= poll.endTime, \"Poll is not active\") */\n      tag_167\n      jumpi\n      mload(0x40)\n      0x08c379a000000000000000000000000000000000000000000000000000000000\n      dup2\n      mstore\n      0x04\n      add\n      tag_168\n      swap1\n      tag_169\n      jump\t// in\n    tag_168:\n      mload(0x40)\n      dup1\n      swap2\n      sub\n      swap1\n      revert\n    tag_167:\n        /* \"contracts/PollBetContract.sol\":4222:4223  0 */\n      0x00\n        /* \"contracts/PollBetContract.sol\":4208:4219  _pollChoice */\n      dup3\n        /* \"contracts/PollBetContract.sol\":4208:4223  _pollChoice > 0 */\n      gt\n        /* \"contracts/PollBetContract.sol\":4208:4260  _pollChoice > 0 && _pollChoice < poll.choices.length */\n      dup1\n      iszero\n      tag_170\n      jumpi\n      pop\n        /* \"contracts/PollBetContract.sol\":4241:4245  poll */\n      dup1\n        /* \"contracts/PollBetContract.sol\":4241:4253  poll.choices */\n      0x04\n      add\n        /* \"contracts/PollBetContract.sol\":4241:4260  poll.choices.length */\n      dup1\n      sload\n      swap1\n      pop\n        /* \"contracts/PollBetContract.sol\":4227:4238  _pollChoice */\n      dup3\n        /* \"contracts/PollBetContract.sol\":4227:4260  _pollChoice < poll.choices.length */\n      lt\n        /* \"contracts/PollBetContract.sol\":4208:4260  _pollChoice > 0 && _pollChoice < poll.choices.length */\n    tag_170:\n        /* \"contracts/PollBetContract.sol\":4200:4279  require(_pollChoice > 0 && _pollChoice < poll.choices.length, \"Invalid choice\") */\n      tag_171\n      jumpi\n      mload(0x40)\n      0x08c379a000000000000000000000000000000000000000000000000000000000\n      dup2\n      mstore\n      0x04\n      add\n      tag_172\n      swap1\n      tag_173\n      jump\t// in\n    tag_172:\n      mload(0x40)\n      dup1\n      swap2\n      sub\n      swap1\n      revert\n    tag_171:\n        /* \"contracts/PollBetContract.sol\":4321:4325  true */\n      0x01\n        /* \"contracts/PollBetContract.sol\":4289:4297  hasVoted */\n      0x07\n        /* \"contracts/PollBetContract.sol\":4289:4306  hasVoted[_pollId] */\n      0x00\n        /* \"contracts/PollBetContract.sol\":4298:4305  _pollId */\n      dup6\n        /* \"contracts/PollBetContract.sol\":4289:4306  hasVoted[_pollId] */\n      dup2\n      mstore\n      0x20\n      add\n      swap1\n      dup2\n      mstore\n      0x20\n      add\n      0x00\n      keccak256\n        /* \"contracts/PollBetContract.sol\":4289:4318  hasVoted[_pollId][msg.sender] */\n      0x00\n        /* \"contracts/PollBetContract.sol\":4307:4317  msg.sender */\n      caller\n        /* \"contracts/PollBetContract.sol\":4289:4318  hasVoted[_pollId][msg.sender] */\n      0xffffffffffffffffffffffffffffffffffffffff\n      and\n      0xffffffffffffffffffffffffffffffffffffffff\n      and\n      dup2\n      mstore\n      0x20\n      add\n      swap1\n      dup2\n      mstore\n      0x20\n      add\n      0x00\n      keccak256\n      0x00\n        /* \"contracts/PollBetContract.sol\":4289:4325  hasVoted[_pollId][msg.sender] = true */\n      0x0100\n      exp\n      dup2\n      sload\n      dup2\n      0xff\n      mul\n      not\n      and\n      swap1\n      dup4\n      iszero\n      iszero\n      mul\n      or\n      swap1\n      sstore\n      pop\n        /* \"contracts/PollBetContract.sol\":4335:4356  Voter memory newVoter */\n      0x00\n        /* \"contracts/PollBetContract.sol\":4359:4476  Voter({... */\n      mload(0x40)\n      dup1\n      0x60\n      add\n      0x40\n      mstore\n      dup1\n        /* \"contracts/PollBetContract.sol\":4387:4394  _pollId */\n      dup6\n        /* \"contracts/PollBetContract.sol\":4359:4476  Voter({... */\n      dup2\n      mstore\n      0x20\n      add\n        /* \"contracts/PollBetContract.sol\":4422:4432  msg.sender */\n      caller\n        /* \"contracts/PollBetContract.sol\":4359:4476  Voter({... */\n      0xffffffffffffffffffffffffffffffffffffffff\n      and\n      dup2\n      mstore\n      0x20\n      add\n        /* \"contracts/PollBetContract.sol\":4454:4465  _pollChoice */\n      dup5\n        /* \"contracts/PollBetContract.sol\":4359:4476  Voter({... */\n      dup2\n      mstore\n      pop\n        /* \"contracts/PollBetContract.sol\":4335:4476  Voter memory newVoter = Voter({... */\n      swap1\n      pop\n        /* \"contracts/PollBetContract.sol\":4516:4524  newVoter */\n      dup1\n        /* \"contracts/PollBetContract.sol\":4486:4492  voters */\n      0x08\n        /* \"contracts/PollBetContract.sol\":4486:4501  voters[_pollId] */\n      0x00\n        /* \"contracts/PollBetContract.sol\":4493:4500  _pollId */\n      dup7\n        /* \"contracts/PollBetContract.sol\":4486:4501  voters[_pollId] */\n      dup2\n      mstore\n      0x20\n      add\n      swap1\n      dup2\n      mstore\n      0x20\n      add\n      0x00\n      keccak256\n        /* \"contracts/PollBetContract.sol\":4486:4513  voters[_pollId][msg.sender] */\n      0x00\n        /* \"contracts/PollBetContract.sol\":4502:4512  msg.sender */\n      caller\n        /* \"contracts/PollBetContract.sol\":4486:4513  voters[_pollId][msg.sender] */\n      0xffffffffffffffffffffffffffffffffffffffff\n      and\n      0xffffffffffffffffffffffffffffffffffffffff\n      and\n      dup2\n      mstore\n      0x20\n      add\n      swap1\n      dup2\n      mstore\n      0x20\n      add\n      0x00\n      keccak256\n        /* \"contracts/PollBetContract.sol\":4486:4524  voters[_pollId][msg.sender] = newVoter */\n      0x00\n      dup3\n      add\n      mload\n      dup2\n      0x00\n      add\n      sstore\n      0x20\n      dup3\n      add\n      mload\n      dup2\n      0x01\n      add\n      exp(0x0100, 0x00)\n      dup2\n      sload\n      dup2\n      0xffffffffffffffffffffffffffffffffffffffff\n      mul\n      not\n      and\n      swap1\n      dup4\n      0xffffffffffffffffffffffffffffffffffffffff\n      and\n      mul\n      or\n      swap1\n      sstore\n      pop\n      0x40\n      dup3\n      add\n      mload\n      dup2\n      0x02\n      add\n      sstore\n      swap1\n      pop\n      pop\n        /* \"contracts/PollBetContract.sol\":4534:4572  addVoterAddressSet(_pollId,msg.sender) */\n      tag_174\n        /* \"contracts/PollBetContract.sol\":4553:4560  _pollId */\n      dup5\n        /* \"contracts/PollBetContract.sol\":4561:4571  msg.sender */\n      caller\n        /* \"contracts/PollBetContract.sol\":4534:4552  addVoterAddressSet */\n      tag_175\n        /* \"contracts/PollBetContract.sol\":4534:4572  addVoterAddressSet(_pollId,msg.sender) */\n      jump\t// in\n    tag_174:\n        /* \"contracts/PollBetContract.sol\":4660:4664  poll */\n      dup2\n        /* \"contracts/PollBetContract.sol\":4660:4677  poll.choiceCounts */\n      0x05\n      add\n        /* \"contracts/PollBetContract.sol\":4678:4689  _pollChoice */\n      dup4\n        /* \"contracts/PollBetContract.sol\":4660:4690  poll.choiceCounts[_pollChoice] */\n      dup2\n      sload\n      dup2\n      lt\n      tag_176\n      jumpi\n      tag_177\n      tag_132\n      jump\t// in\n    tag_177:\n    tag_176:\n      swap1\n      0x00\n      mstore\n      keccak256(0x00, 0x20)\n      add\n      0x00\n        /* \"contracts/PollBetContract.sol\":4660:4692  poll.choiceCounts[_pollChoice]++ */\n      dup2\n      sload\n      dup1\n      swap3\n      swap2\n      swap1\n      tag_179\n      swap1\n      tag_137\n      jump\t// in\n    tag_179:\n      swap2\n      swap1\n      pop\n      sstore\n      pop\n        /* \"contracts/PollBetContract.sol\":4727:4737  msg.sender */\n      caller\n        /* \"contracts/PollBetContract.sol\":4707:4751  VoteCasted(_pollId, msg.sender, _pollChoice) */\n      0xffffffffffffffffffffffffffffffffffffffff\n      and\n        /* \"contracts/PollBetContract.sol\":4718:4725  _pollId */\n      dup5\n        /* \"contracts/PollBetContract.sol\":4707:4751  VoteCasted(_pollId, msg.sender, _pollChoice) */\n      0xe7ee74ca1f4bb1b82b14f87794c45b3e59c39e372b862fb97a6316b43355b69e\n        /* \"contracts/PollBetContract.sol\":4739:4750  _pollChoice */\n      dup6\n        /* \"contracts/PollBetContract.sol\":4707:4751  VoteCasted(_pollId, msg.sender, _pollChoice) */\n      mload(0x40)\n      tag_180\n      swap2\n      swap1\n      tag_31\n      jump\t// in\n    tag_180:\n      mload(0x40)\n      dup1\n      swap2\n      sub\n      swap1\n      log3\n        /* \"contracts/PollBetContract.sol\":3914:4758  {... */\n      pop\n      pop\n        /* \"contracts/PollBetContract.sol\":3855:4758  function voteOnPoll(uint _pollId, uint _pollChoice) public {... */\n      pop\n      pop\n      jump\t// out\n        /* \"contracts/PollBetContract.sol\":6039:6152  function getBetCount(uint _pollId) public view returns(uint) {... */\n    tag_75:\n        /* \"contracts/PollBetContract.sol\":6094:6098  uint */\n      0x00\n        /* \"contracts/PollBetContract.sol\":6117:6129  pollBetsList */\n      0x06\n        /* \"contracts/PollBetContract.sol\":6117:6138  pollBetsList[_pollId] */\n      0x00\n        /* \"contracts/PollBetContract.sol\":6130:6137  _pollId */\n      dup4\n        /* \"contracts/PollBetContract.sol\":6117:6138  pollBetsList[_pollId] */\n      dup2\n      mstore\n      0x20\n      add\n      swap1\n      dup2\n      mstore\n      0x20\n      add\n      0x00\n      keccak256\n        /* \"contracts/PollBetContract.sol\":6117:6145  pollBetsList[_pollId].length */\n      dup1\n      sload\n      swap1\n      pop\n        /* \"contracts/PollBetContract.sol\":6110:6145  return pollBetsList[_pollId].length */\n      swap1\n      pop\n        /* \"contracts/PollBetContract.sol\":6039:6152  function getBetCount(uint _pollId) public view returns(uint) {... */\n      swap2\n      swap1\n      pop\n      jump\t// out\n        /* \"contracts/PollBetContract.sol\":7040:7078  function distributeRewards() public {} */\n    tag_79:\n      jump\t// out\n        /* \"contracts/PollBetContract.sol\":3266:3652  function getPollVotersCount(uint _pollId) public view returns (uint) {... */\n    tag_83:\n        /* \"contracts/PollBetContract.sol\":3329:3333  uint */\n      0x00\n        /* \"contracts/PollBetContract.sol\":3345:3355  uint count */\n      dup1\n        /* \"contracts/PollBetContract.sol\":3358:3359  0 */\n      0x00\n        /* \"contracts/PollBetContract.sol\":3345:3359  uint count = 0 */\n      swap1\n      pop\n        /* \"contracts/PollBetContract.sol\":3369:3416  EnumerableSet.AddressSet storage voterAddresses */\n      0x00\n        /* \"contracts/PollBetContract.sol\":3419:3435  voterAddressSets */\n      0x09\n        /* \"contracts/PollBetContract.sol\":3419:3444  voterAddressSets[_pollId] */\n      0x00\n        /* \"contracts/PollBetContract.sol\":3436:3443  _pollId */\n      dup6\n        /* \"contracts/PollBetContract.sol\":3419:3444  voterAddressSets[_pollId] */\n      dup2\n      mstore\n      0x20\n      add\n      swap1\n      dup2\n      mstore\n      0x20\n      add\n      0x00\n      keccak256\n        /* \"contracts/PollBetContract.sol\":3369:3444  EnumerableSet.AddressSet storage voterAddresses = voterAddressSets[_pollId] */\n      swap1\n      pop\n        /* \"contracts/PollBetContract.sol\":3459:3465  uint i */\n      0x00\n        /* \"contracts/PollBetContract.sol\":3454:3624  for (uint i = 0; i < EnumerableSet.length(voterAddresses); i++) {... */\n    tag_184:\n        /* \"contracts/PollBetContract.sol\":3475:3511  EnumerableSet.length(voterAddresses) */\n      tag_187\n        /* \"contracts/PollBetContract.sol\":3496:3510  voterAddresses */\n      dup3\n        /* \"contracts/PollBetContract.sol\":3475:3495  EnumerableSet.length */\n      tag_188\n        /* \"contracts/PollBetContract.sol\":3475:3511  EnumerableSet.length(voterAddresses) */\n      jump\t// in\n    tag_187:\n        /* \"contracts/PollBetContract.sol\":3471:3472  i */\n      dup2\n        /* \"contracts/PollBetContract.sol\":3471:3511  i < EnumerableSet.length(voterAddresses) */\n      lt\n        /* \"contracts/PollBetContract.sol\":3454:3624  for (uint i = 0; i < EnumerableSet.length(voterAddresses); i++) {... */\n      iszero\n      tag_185\n      jumpi\n        /* \"contracts/PollBetContract.sol\":3606:3613  count++ */\n      dup3\n      dup1\n      tag_189\n      swap1\n      tag_137\n      jump\t// in\n    tag_189:\n      swap4\n      pop\n      pop\n        /* \"contracts/PollBetContract.sol\":3513:3516  i++ */\n      dup1\n      dup1\n      tag_190\n      swap1\n      tag_137\n      jump\t// in\n    tag_190:\n      swap2\n      pop\n      pop\n        /* \"contracts/PollBetContract.sol\":3454:3624  for (uint i = 0; i < EnumerableSet.length(voterAddresses); i++) {... */\n      jump(tag_184)\n    tag_185:\n      pop\n        /* \"contracts/PollBetContract.sol\":3640:3645  count */\n      dup2\n        /* \"contracts/PollBetContract.sol\":3633:3645  return count */\n      swap3\n      pop\n      pop\n      pop\n        /* \"contracts/PollBetContract.sol\":3266:3652  function getPollVotersCount(uint _pollId) public view returns (uint) {... */\n      swap2\n      swap1\n      pop\n      jump\t// out\n        /* \"contracts/PollBetContract.sol\":1347:1389  mapping(uint => uint[]) public pollWinners */\n    tag_88:\n      mstore(0x20, 0x04)\n      dup2\n      0x00\n      mstore\n      keccak256(0x00, 0x40)\n      dup2\n      dup2\n      sload\n      dup2\n      lt\n      tag_191\n      jumpi\n      0x00\n      dup1\n      revert\n    tag_191:\n      swap1\n      0x00\n      mstore\n      keccak256(0x00, 0x20)\n      add\n      0x00\n      swap2\n      pop\n      swap2\n      pop\n      pop\n      sload\n      dup2\n      jump\t// out\n        /* \"contracts/PollBetContract.sol\":1139:1160  uint public pollCount */\n    tag_92:\n      sload(0x00)\n      dup2\n      jump\t// out\n        /* \"contracts/PollBetContract.sol\":1552:1608  mapping(uint => mapping(address => Voter)) public voters */\n    tag_97:\n      mstore(0x20, 0x08)\n      dup2\n      0x00\n      mstore\n      mstore(0x20, keccak256(0x00, 0x40))\n      dup1\n      0x00\n      mstore\n      keccak256(0x00, 0x40)\n      0x00\n      swap2\n      pop\n      swap2\n      pop\n      pop\n      dup1\n      0x00\n      add\n      sload\n      swap1\n      dup1\n      0x01\n      add\n      0x00\n      swap1\n      sload\n      swap1\n      0x0100\n      exp\n      swap1\n      div\n      0xffffffffffffffffffffffffffffffffffffffff\n      and\n      swap1\n      dup1\n      0x02\n      add\n      sload\n      swap1\n      pop\n      dup4\n      jump\t// out\n        /* \"contracts/PollBetContract.sol\":1768:1792  uint[] public pollCounts */\n    tag_103:\n      0x0b\n      dup2\n      dup2\n      sload\n      dup2\n      lt\n      tag_193\n      jumpi\n      0x00\n      dup1\n      revert\n    tag_193:\n      swap1\n      0x00\n      mstore\n      keccak256(0x00, 0x20)\n      add\n      0x00\n      swap2\n      pop\n      swap1\n      pop\n      sload\n      dup2\n      jump\t// out\n        /* \"contracts/PollBetContract.sol\":6439:6968  function getOdds(uint _pollId, string calldata _pollChoice) public view returns(uint){... */\n    tag_109:\n        /* \"contracts/PollBetContract.sol\":6519:6523  uint */\n      0x00\n        /* \"contracts/PollBetContract.sol\":6534:6556  uint totalChoiceAmount */\n      dup1\n        /* \"contracts/PollBetContract.sol\":6559:6560  0 */\n      0x00\n        /* \"contracts/PollBetContract.sol\":6534:6560  uint totalChoiceAmount = 0 */\n      swap1\n      pop\n        /* \"contracts/PollBetContract.sol\":6570:6588  Bet[] storage bets */\n      0x00\n        /* \"contracts/PollBetContract.sol\":6591:6603  pollBetsList */\n      0x06\n        /* \"contracts/PollBetContract.sol\":6591:6612  pollBetsList[_pollId] */\n      0x00\n        /* \"contracts/PollBetContract.sol\":6604:6611  _pollId */\n      dup8\n        /* \"contracts/PollBetContract.sol\":6591:6612  pollBetsList[_pollId] */\n      dup2\n      mstore\n      0x20\n      add\n      swap1\n      dup2\n      mstore\n      0x20\n      add\n      0x00\n      keccak256\n        /* \"contracts/PollBetContract.sol\":6570:6612  Bet[] storage bets = pollBetsList[_pollId] */\n      swap1\n      pop\n        /* \"contracts/PollBetContract.sol\":6627:6633  uint i */\n      0x00\n        /* \"contracts/PollBetContract.sol\":6622:6828  for (uint i = 0; i < bets.length; i++) {... */\n    tag_196:\n        /* \"contracts/PollBetContract.sol\":6643:6647  bets */\n      dup2\n        /* \"contracts/PollBetContract.sol\":6643:6654  bets.length */\n      dup1\n      sload\n      swap1\n      pop\n        /* \"contracts/PollBetContract.sol\":6639:6640  i */\n      dup2\n        /* \"contracts/PollBetContract.sol\":6639:6654  i < bets.length */\n      lt\n        /* \"contracts/PollBetContract.sol\":6622:6828  for (uint i = 0; i < bets.length; i++) {... */\n      iszero\n      tag_197\n      jumpi\n        /* \"contracts/PollBetContract.sol\":6735:6746  _pollChoice */\n      dup6\n      dup6\n        /* \"contracts/PollBetContract.sol\":6719:6748  keccak256(bytes(_pollChoice)) */\n      mload(0x40)\n      tag_199\n      swap3\n      swap2\n      swap1\n      tag_200\n      jump\t// in\n    tag_199:\n      mload(0x40)\n      dup1\n      swap2\n      sub\n      swap1\n      keccak256\n        /* \"contracts/PollBetContract.sol\":6695:6699  bets */\n      dup3\n        /* \"contracts/PollBetContract.sol\":6700:6701  i */\n      dup3\n        /* \"contracts/PollBetContract.sol\":6695:6702  bets[i] */\n      dup2\n      sload\n      dup2\n      lt\n      tag_201\n      jumpi\n      tag_202\n      tag_132\n      jump\t// in\n    tag_202:\n    tag_201:\n      swap1\n      0x00\n      mstore\n      keccak256(0x00, 0x20)\n      swap1\n      0x04\n      mul\n      add\n        /* \"contracts/PollBetContract.sol\":6695:6713  bets[i].pollChoice */\n      0x01\n      add\n        /* \"contracts/PollBetContract.sol\":6679:6715  keccak256(bytes(bets[i].pollChoice)) */\n      mload(0x40)\n      tag_204\n      swap2\n      swap1\n      tag_205\n      jump\t// in\n    tag_204:\n      mload(0x40)\n      dup1\n      swap2\n      sub\n      swap1\n      keccak256\n        /* \"contracts/PollBetContract.sol\":6679:6748  keccak256(bytes(bets[i].pollChoice)) == keccak256(bytes(_pollChoice)) */\n      sub\n        /* \"contracts/PollBetContract.sol\":6675:6818  if (keccak256(bytes(bets[i].pollChoice)) == keccak256(bytes(_pollChoice))) {... */\n      tag_206\n      jumpi\n        /* \"contracts/PollBetContract.sol\":6789:6793  bets */\n      dup2\n        /* \"contracts/PollBetContract.sol\":6794:6795  i */\n      dup2\n        /* \"contracts/PollBetContract.sol\":6789:6796  bets[i] */\n      dup2\n      sload\n      dup2\n      lt\n      tag_207\n      jumpi\n      tag_208\n      tag_132\n      jump\t// in\n    tag_208:\n    tag_207:\n      swap1\n      0x00\n      mstore\n      keccak256(0x00, 0x20)\n      swap1\n      0x04\n      mul\n      add\n        /* \"contracts/PollBetContract.sol\":6789:6803  bets[i].amount */\n      0x03\n      add\n      sload\n        /* \"contracts/PollBetContract.sol\":6768:6803  totalChoiceAmount += bets[i].amount */\n      dup4\n      tag_210\n      swap2\n      swap1\n      tag_135\n      jump\t// in\n    tag_210:\n      swap3\n      pop\n        /* \"contracts/PollBetContract.sol\":6675:6818  if (keccak256(bytes(bets[i].pollChoice)) == keccak256(bytes(_pollChoice))) {... */\n    tag_206:\n        /* \"contracts/PollBetContract.sol\":6656:6659  i++ */\n      dup1\n      dup1\n      tag_211\n      swap1\n      tag_137\n      jump\t// in\n    tag_211:\n      swap2\n      pop\n      pop\n        /* \"contracts/PollBetContract.sol\":6622:6828  for (uint i = 0; i < bets.length; i++) {... */\n      jump(tag_196)\n    tag_197:\n      pop\n        /* \"contracts/PollBetContract.sol\":6837:6856  uint totalBetAmount */\n      0x00\n        /* \"contracts/PollBetContract.sol\":6859:6885  getTotalBetAmount(_pollId) */\n      tag_212\n        /* \"contracts/PollBetContract.sol\":6877:6884  _pollId */\n      dup8\n        /* \"contracts/PollBetContract.sol\":6859:6876  getTotalBetAmount */\n      tag_36\n        /* \"contracts/PollBetContract.sol\":6859:6885  getTotalBetAmount(_pollId) */\n      jump\t// in\n    tag_212:\n        /* \"contracts/PollBetContract.sol\":6837:6885  uint totalBetAmount = getTotalBetAmount(_pollId) */\n      swap1\n      pop\n        /* \"contracts/PollBetContract.sol\":6919:6920  0 */\n      0x00\n        /* \"contracts/PollBetContract.sol\":6902:6916  totalBetAmount */\n      dup2\n        /* \"contracts/PollBetContract.sol\":6902:6920  totalBetAmount > 0 */\n      gt\n        /* \"contracts/PollBetContract.sol\":6902:6961  totalBetAmount > 0 ? totalChoiceAmount / totalBetAmount : 0 */\n      tag_213\n      jumpi\n        /* \"contracts/PollBetContract.sol\":6960:6961  0 */\n      0x00\n        /* \"contracts/PollBetContract.sol\":6902:6961  totalBetAmount > 0 ? totalChoiceAmount / totalBetAmount : 0 */\n      jump(tag_214)\n    tag_213:\n        /* \"contracts/PollBetContract.sol\":6943:6957  totalBetAmount */\n      dup1\n        /* \"contracts/PollBetContract.sol\":6923:6940  totalChoiceAmount */\n      dup4\n        /* \"contracts/PollBetContract.sol\":6923:6957  totalChoiceAmount / totalBetAmount */\n      tag_215\n      swap2\n      swap1\n      tag_216\n      jump\t// in\n    tag_215:\n        /* \"contracts/PollBetContract.sol\":6902:6961  totalBetAmount > 0 ? totalChoiceAmount / totalBetAmount : 0 */\n    tag_214:\n        /* \"contracts/PollBetContract.sol\":6895:6961  return totalBetAmount > 0 ? totalChoiceAmount / totalBetAmount : 0 */\n      swap4\n      pop\n      pop\n      pop\n      pop\n        /* \"contracts/PollBetContract.sol\":6439:6968  function getOdds(uint _pollId, string calldata _pollChoice) public view returns(uint){... */\n      swap4\n      swap3\n      pop\n      pop\n      pop\n      jump\t// out\n        /* \"contracts/PollBetContract.sol\":4763:6034  function betOnPoll(uint _pollId, uint _pollChoice) public payable { // Data location must be \"memory\" or \"calldata\" for parameter in function, but none was given... */\n    tag_113:\n        /* \"contracts/PollBetContract.sol\":4960:4965  polls */\n      0x0a\n        /* \"contracts/PollBetContract.sol\":4960:4974  polls[_pollId] */\n      0x00\n        /* \"contracts/PollBetContract.sol\":4966:4973  _pollId */\n      dup4\n        /* \"contracts/PollBetContract.sol\":4960:4974  polls[_pollId] */\n      dup2\n      mstore\n      0x20\n      add\n      swap1\n      dup2\n      mstore\n      0x20\n      add\n      0x00\n      keccak256\n        /* \"contracts/PollBetContract.sol\":4960:4984  polls[_pollId].startTime */\n      0x02\n      add\n      sload\n        /* \"contracts/PollBetContract.sol\":4941:4956  block.timestamp */\n      timestamp\n        /* \"contracts/PollBetContract.sol\":4941:4984  block.timestamp >= polls[_pollId].startTime */\n      lt\n      iszero\n        /* \"contracts/PollBetContract.sol\":4933:5035  require(block.timestamp >= polls[_pollId].startTime, \"Poll has not started yet, you cannot bet on it\") */\n      tag_218\n      jumpi\n      mload(0x40)\n      0x08c379a000000000000000000000000000000000000000000000000000000000\n      dup2\n      mstore\n      0x04\n      add\n      tag_219\n      swap1\n      tag_220\n      jump\t// in\n    tag_219:\n      mload(0x40)\n      dup1\n      swap2\n      sub\n      swap1\n      revert\n    tag_218:\n        /* \"contracts/PollBetContract.sol\":5071:5076  polls */\n      0x0a\n        /* \"contracts/PollBetContract.sol\":5071:5085  polls[_pollId] */\n      0x00\n        /* \"contracts/PollBetContract.sol\":5077:5084  _pollId */\n      dup4\n        /* \"contracts/PollBetContract.sol\":5071:5085  polls[_pollId] */\n      dup2\n      mstore\n      0x20\n      add\n      swap1\n      dup2\n      mstore\n      0x20\n      add\n      0x00\n      keccak256\n        /* \"contracts/PollBetContract.sol\":5071:5093  polls[_pollId].endTime */\n      0x03\n      add\n      sload\n        /* \"contracts/PollBetContract.sol\":5053:5068  block.timestamp */\n      timestamp\n        /* \"contracts/PollBetContract.sol\":5053:5093  block.timestamp < polls[_pollId].endTime */\n      lt\n        /* \"contracts/PollBetContract.sol\":5045:5142  require(block.timestamp < polls[_pollId].endTime, \"Poll has ended, you cannot bet on it anymore\") */\n      tag_221\n      jumpi\n      mload(0x40)\n      0x08c379a000000000000000000000000000000000000000000000000000000000\n      dup2\n      mstore\n      0x04\n      add\n      tag_222\n      swap1\n      tag_223\n      jump\t// in\n    tag_222:\n      mload(0x40)\n      dup1\n      swap2\n      sub\n      swap1\n      revert\n    tag_221:\n        /* \"contracts/PollBetContract.sol\":5172:5173  0 */\n      0x00\n        /* \"contracts/PollBetContract.sol\":5160:5169  msg.value */\n      callvalue\n        /* \"contracts/PollBetContract.sol\":5160:5173  msg.value > 0 */\n      gt\n        /* \"contracts/PollBetContract.sol\":5152:5208  require(msg.value > 0, \"Amount must be greater than 0!\") */\n      tag_224\n      jumpi\n      mload(0x40)\n      0x08c379a000000000000000000000000000000000000000000000000000000000\n      dup2\n      mstore\n      0x04\n      add\n      tag_225\n      swap1\n      tag_226\n      jump\t// in\n    tag_225:\n      mload(0x40)\n      dup1\n      swap2\n      sub\n      swap1\n      revert\n    tag_224:\n        /* \"contracts/PollBetContract.sol\":5540:5541  0 */\n      0x00\n        /* \"contracts/PollBetContract.sol\":5526:5537  _pollChoice */\n      dup2\n        /* \"contracts/PollBetContract.sol\":5526:5541  _pollChoice > 0 */\n      gt\n        /* \"contracts/PollBetContract.sol\":5518:5614  require(_pollChoice > 0, \"Invalid poll choice, please select one of the poll choices to bet on\") */\n      tag_227\n      jumpi\n      mload(0x40)\n      0x08c379a000000000000000000000000000000000000000000000000000000000\n      dup2\n      mstore\n      0x04\n      add\n      tag_228\n      swap1\n      tag_229\n      jump\t// in\n    tag_228:\n      mload(0x40)\n      dup1\n      swap2\n      sub\n      swap1\n      revert\n    tag_227:\n        /* \"contracts/PollBetContract.sol\":5649:5658  msg.value */\n      callvalue\n        /* \"contracts/PollBetContract.sol\":5624:5636  pollBetTotal */\n      0x02\n        /* \"contracts/PollBetContract.sol\":5624:5645  pollBetTotal[_pollId] */\n      0x00\n        /* \"contracts/PollBetContract.sol\":5637:5644  _pollId */\n      dup5\n        /* \"contracts/PollBetContract.sol\":5624:5645  pollBetTotal[_pollId] */\n      dup2\n      mstore\n      0x20\n      add\n      swap1\n      dup2\n      mstore\n      0x20\n      add\n      0x00\n      keccak256\n      0x00\n        /* \"contracts/PollBetContract.sol\":5624:5658  pollBetTotal[_pollId] += msg.value */\n      dup3\n      dup3\n      sload\n      tag_230\n      swap2\n      swap1\n      tag_135\n      jump\t// in\n    tag_230:\n      swap3\n      pop\n      pop\n      dup2\n      swap1\n      sstore\n      pop\n        /* \"contracts/PollBetContract.sol\":5701:5710  msg.value */\n      callvalue\n        /* \"contracts/PollBetContract.sol\":5668:5676  pollBets */\n      0x03\n        /* \"contracts/PollBetContract.sol\":5668:5685  pollBets[_pollId] */\n      0x00\n        /* \"contracts/PollBetContract.sol\":5677:5684  _pollId */\n      dup5\n        /* \"contracts/PollBetContract.sol\":5668:5685  pollBets[_pollId] */\n      dup2\n      mstore\n      0x20\n      add\n      swap1\n      dup2\n      mstore\n      0x20\n      add\n      0x00\n      keccak256\n        /* \"contracts/PollBetContract.sol\":5668:5697  pollBets[_pollId][msg.sender] */\n      0x00\n        /* \"contracts/PollBetContract.sol\":5686:5696  msg.sender */\n      caller\n        /* \"contracts/PollBetContract.sol\":5668:5697  pollBets[_pollId][msg.sender] */\n      0xffffffffffffffffffffffffffffffffffffffff\n      and\n      0xffffffffffffffffffffffffffffffffffffffff\n      and\n      dup2\n      mstore\n      0x20\n      add\n      swap1\n      dup2\n      mstore\n      0x20\n      add\n      0x00\n      keccak256\n      0x00\n        /* \"contracts/PollBetContract.sol\":5668:5710  pollBets[_pollId][msg.sender] += msg.value */\n      dup3\n      dup3\n      sload\n      tag_231\n      swap2\n      swap1\n      tag_135\n      jump\t// in\n    tag_231:\n      swap3\n      pop\n      pop\n      dup2\n      swap1\n      sstore\n      pop\n        /* \"contracts/PollBetContract.sol\":5720:5728  betCount */\n      0x01\n      0x00\n        /* \"contracts/PollBetContract.sol\":5720:5730  betCount++ */\n      dup2\n      sload\n      dup1\n      swap3\n      swap2\n      swap1\n      tag_232\n      swap1\n      tag_137\n      jump\t// in\n    tag_232:\n      swap2\n      swap1\n      pop\n      sstore\n      pop\n        /* \"contracts/PollBetContract.sol\":5740:5752  pollBetsList */\n      0x06\n        /* \"contracts/PollBetContract.sol\":5740:5761  pollBetsList[_pollId] */\n      0x00\n        /* \"contracts/PollBetContract.sol\":5753:5760  _pollId */\n      dup4\n        /* \"contracts/PollBetContract.sol\":5740:5761  pollBetsList[_pollId] */\n      dup2\n      mstore\n      0x20\n      add\n      swap1\n      dup2\n      mstore\n      0x20\n      add\n      0x00\n      keccak256\n        /* \"contracts/PollBetContract.sol\":5767:5933  Bet({... */\n      mload(0x40)\n      dup1\n      0x80\n      add\n      0x40\n      mstore\n      dup1\n        /* \"contracts/PollBetContract.sol\":5793:5800  _pollId */\n      dup5\n        /* \"contracts/PollBetContract.sol\":5767:5933  Bet({... */\n      dup2\n      mstore\n      0x20\n      add\n        /* \"contracts/PollBetContract.sol\":5826:5831  polls */\n      0x0a\n        /* \"contracts/PollBetContract.sol\":5826:5840  polls[_pollId] */\n      0x00\n        /* \"contracts/PollBetContract.sol\":5832:5839  _pollId */\n      dup7\n        /* \"contracts/PollBetContract.sol\":5826:5840  polls[_pollId] */\n      dup2\n      mstore\n      0x20\n      add\n      swap1\n      dup2\n      mstore\n      0x20\n      add\n      0x00\n      keccak256\n        /* \"contracts/PollBetContract.sol\":5826:5848  polls[_pollId].choices */\n      0x04\n      add\n        /* \"contracts/PollBetContract.sol\":5849:5860  _pollChoice */\n      dup5\n        /* \"contracts/PollBetContract.sol\":5826:5861  polls[_pollId].choices[_pollChoice] */\n      dup2\n      sload\n      dup2\n      lt\n      tag_233\n      jumpi\n      tag_234\n      tag_132\n      jump\t// in\n    tag_234:\n    tag_233:\n      swap1\n      0x00\n      mstore\n      keccak256(0x00, 0x20)\n      add\n        /* \"contracts/PollBetContract.sol\":5767:5933  Bet({... */\n      dup1\n      sload\n      tag_236\n      swap1\n      tag_145\n      jump\t// in\n    tag_236:\n      dup1\n      0x1f\n      add\n      0x20\n      dup1\n      swap2\n      div\n      mul\n      0x20\n      add\n      mload(0x40)\n      swap1\n      dup2\n      add\n      0x40\n      mstore\n      dup1\n      swap3\n      swap2\n      swap1\n      dup2\n      dup2\n      mstore\n      0x20\n      add\n      dup3\n      dup1\n      sload\n      tag_237\n      swap1\n      tag_145\n      jump\t// in\n    tag_237:\n      dup1\n      iszero\n      tag_238\n      jumpi\n      dup1\n      0x1f\n      lt\n      tag_239\n      jumpi\n      0x0100\n      dup1\n      dup4\n      sload\n      div\n      mul\n      dup4\n      mstore\n      swap2\n      0x20\n      add\n      swap2\n      jump(tag_238)\n    tag_239:\n      dup3\n      add\n      swap2\n      swap1\n      0x00\n      mstore\n      keccak256(0x00, 0x20)\n      swap1\n    tag_240:\n      dup2\n      sload\n      dup2\n      mstore\n      swap1\n      0x01\n      add\n      swap1\n      0x20\n      add\n      dup1\n      dup4\n      gt\n      tag_240\n      jumpi\n      dup3\n      swap1\n      sub\n      0x1f\n      and\n      dup3\n      add\n      swap2\n    tag_238:\n      pop\n      pop\n      pop\n      pop\n      pop\n      dup2\n      mstore\n      0x20\n      add\n        /* \"contracts/PollBetContract.sol\":5881:5891  msg.sender */\n      caller\n        /* \"contracts/PollBetContract.sol\":5767:5933  Bet({... */\n      0xffffffffffffffffffffffffffffffffffffffff\n      and\n      dup2\n      mstore\n      0x20\n      add\n        /* \"contracts/PollBetContract.sol\":5913:5922  msg.value */\n      callvalue\n        /* \"contracts/PollBetContract.sol\":5767:5933  Bet({... */\n      dup2\n      mstore\n      pop\n        /* \"contracts/PollBetContract.sol\":5740:5934  pollBetsList[_pollId].push(Bet({... */\n      swap1\n      dup1\n      0x01\n      dup2\n      sload\n      add\n      dup1\n      dup3\n      sstore\n      dup1\n      swap2\n      pop\n      pop\n      0x01\n      swap1\n      sub\n      swap1\n      0x00\n      mstore\n      keccak256(0x00, 0x20)\n      swap1\n      0x04\n      mul\n      add\n      0x00\n      swap1\n      swap2\n      swap1\n      swap2\n      swap1\n      swap2\n      pop\n      0x00\n      dup3\n      add\n      mload\n      dup2\n      0x00\n      add\n      sstore\n      0x20\n      dup3\n      add\n      mload\n      dup2\n      0x01\n      add\n      swap1\n      dup2\n      tag_242\n      swap2\n      swap1\n      tag_243\n      jump\t// in\n    tag_242:\n      pop\n      0x40\n      dup3\n      add\n      mload\n      dup2\n      0x02\n      add\n      exp(0x0100, 0x00)\n      dup2\n      sload\n      dup2\n      0xffffffffffffffffffffffffffffffffffffffff\n      mul\n      not\n      and\n      swap1\n      dup4\n      0xffffffffffffffffffffffffffffffffffffffff\n      and\n      mul\n      or\n      swap1\n      sstore\n      pop\n      0x60\n      dup3\n      add\n      mload\n      dup2\n      0x03\n      add\n      sstore\n      pop\n      pop\n        /* \"contracts/PollBetContract.sol\":6005:6015  msg.sender */\n      caller\n        /* \"contracts/PollBetContract.sol\":5949:6027  BetPlaced(_pollId, polls[_pollId].choices[_pollChoice], msg.sender, msg.value) */\n      0xffffffffffffffffffffffffffffffffffffffff\n      and\n        /* \"contracts/PollBetContract.sol\":5959:5966  _pollId */\n      dup3\n        /* \"contracts/PollBetContract.sol\":5949:6027  BetPlaced(_pollId, polls[_pollId].choices[_pollChoice], msg.sender, msg.value) */\n      0xfa643037cee917ec3049f1ba2bfb5d4df493f0b6db3ed68f3716d11233494e7d\n        /* \"contracts/PollBetContract.sol\":5968:5973  polls */\n      0x0a\n        /* \"contracts/PollBetContract.sol\":5968:5982  polls[_pollId] */\n      0x00\n        /* \"contracts/PollBetContract.sol\":5974:5981  _pollId */\n      dup7\n        /* \"contracts/PollBetContract.sol\":5968:5982  polls[_pollId] */\n      dup2\n      mstore\n      0x20\n      add\n      swap1\n      dup2\n      mstore\n      0x20\n      add\n      0x00\n      keccak256\n        /* \"contracts/PollBetContract.sol\":5968:5990  polls[_pollId].choices */\n      0x04\n      add\n        /* \"contracts/PollBetContract.sol\":5991:6002  _pollChoice */\n      dup5\n        /* \"contracts/PollBetContract.sol\":5968:6003  polls[_pollId].choices[_pollChoice] */\n      dup2\n      sload\n      dup2\n      lt\n      tag_244\n      jumpi\n      tag_245\n      tag_132\n      jump\t// in\n    tag_245:\n    tag_244:\n      swap1\n      0x00\n      mstore\n      keccak256(0x00, 0x20)\n      add\n        /* \"contracts/PollBetContract.sol\":6017:6026  msg.value */\n      callvalue\n        /* \"contracts/PollBetContract.sol\":5949:6027  BetPlaced(_pollId, polls[_pollId].choices[_pollChoice], msg.sender, msg.value) */\n      mload(0x40)\n      tag_247\n      swap3\n      swap2\n      swap1\n      tag_248\n      jump\t// in\n    tag_247:\n      mload(0x40)\n      dup1\n      swap2\n      sub\n      swap1\n      log3\n        /* \"contracts/PollBetContract.sol\":4763:6034  function betOnPoll(uint _pollId, uint _pollChoice) public payable { // Data location must be \"memory\" or \"calldata\" for parameter in function, but none was given... */\n      pop\n      pop\n      jump\t// out\n        /* \"contracts/PollBetContract.sol\":1166:1186  uint public betCount */\n    tag_116:\n      sload(0x01)\n      dup2\n      jump\t// out\n        /* \"contracts/PollBetContract.sol\":1798:3261  function createPoll(uint _startTime, uint _endTime, string[] memory _options) public {... */\n    tag_122:\n        /* \"contracts/PollBetContract.sol\":1906:1921  block.timestamp */\n      timestamp\n        /* \"contracts/PollBetContract.sol\":1893:1921  _startTime = block.timestamp */\n      swap3\n      pop\n        /* \"contracts/PollBetContract.sol\":1960:1965  86400 */\n      0x015180\n        /* \"contracts/PollBetContract.sol\":1942:1957  block.timestamp */\n      timestamp\n        /* \"contracts/PollBetContract.sol\":1942:1965  block.timestamp + 86400 */\n      tag_250\n      swap2\n      swap1\n      tag_135\n      jump\t// in\n    tag_250:\n        /* \"contracts/PollBetContract.sol\":1931:1965  _endTime = block.timestamp + 86400 */\n      swap2\n      pop\n        /* \"contracts/PollBetContract.sol\":2003:2013  _startTime */\n      dup3\n        /* \"contracts/PollBetContract.sol\":1992:2000  _endTime */\n      dup3\n        /* \"contracts/PollBetContract.sol\":1992:2013  _endTime > _startTime */\n      gt\n        /* \"contracts/PollBetContract.sol\":1984:2039  require(_endTime > _startTime, \"Invalid poll end time\") */\n      tag_251\n      jumpi\n      mload(0x40)\n      0x08c379a000000000000000000000000000000000000000000000000000000000\n      dup2\n      mstore\n      0x04\n      add\n      tag_252\n      swap1\n      tag_253\n      jump\t// in\n    tag_252:\n      mload(0x40)\n      dup1\n      swap2\n      sub\n      swap1\n      revert\n    tag_251:\n        /* \"contracts/PollBetContract.sol\":2075:2076  1 */\n      0x01\n        /* \"contracts/PollBetContract.sol\":2057:2065  _options */\n      dup2\n        /* \"contracts/PollBetContract.sol\":2057:2072  _options.length */\n      mload\n        /* \"contracts/PollBetContract.sol\":2057:2076  _options.length > 1 */\n      gt\n        /* \"contracts/PollBetContract.sol\":2049:2110  require(_options.length > 1, \"At least two options required\") */\n      tag_254\n      jumpi\n      mload(0x40)\n      0x08c379a000000000000000000000000000000000000000000000000000000000\n      dup2\n      mstore\n      0x04\n      add\n      tag_255\n      swap1\n      tag_256\n      jump\t// in\n    tag_255:\n      mload(0x40)\n      dup1\n      swap2\n      sub\n      swap1\n      revert\n    tag_254:\n        /* \"contracts/PollBetContract.sol\":2120:2135  uint numChoices */\n      0x00\n        /* \"contracts/PollBetContract.sol\":2159:2167  _options */\n      dup2\n        /* \"contracts/PollBetContract.sol\":2159:2174  _options.length */\n      mload\n        /* \"contracts/PollBetContract.sol\":2146:2174  numChoices = _options.length */\n      swap1\n      pop\n        /* \"contracts/PollBetContract.sol\":2237:2268  uint[] memory choiceCountsArray */\n      0x00\n        /* \"contracts/PollBetContract.sol\":2282:2292  numChoices */\n      dup2\n        /* \"contracts/PollBetContract.sol\":2271:2293  new uint[](numChoices) */\n      0xffffffffffffffff\n      dup2\n      gt\n      iszero\n      tag_257\n      jumpi\n      tag_258\n      tag_259\n      jump\t// in\n    tag_258:\n    tag_257:\n      mload(0x40)\n      swap1\n      dup1\n      dup3\n      mstore\n      dup1\n      0x20\n      mul\n      0x20\n      add\n      dup3\n      add\n      0x40\n      mstore\n      dup1\n      iszero\n      tag_260\n      jumpi\n      dup2\n      0x20\n      add\n      0x20\n      dup3\n      mul\n      dup1\n      calldatasize\n      dup4\n      calldatacopy\n      dup1\n      dup3\n      add\n      swap2\n      pop\n      pop\n      swap1\n      pop\n    tag_260:\n      pop\n        /* \"contracts/PollBetContract.sol\":2237:2293  uint[] memory choiceCountsArray = new uint[](numChoices) */\n      swap1\n      pop\n        /* \"contracts/PollBetContract.sol\":2406:2426  Poll storage newPoll */\n      0x00\n        /* \"contracts/PollBetContract.sol\":2429:2434  polls */\n      0x0a\n        /* \"contracts/PollBetContract.sol\":2429:2445  polls[pollCount] */\n      0x00\n        /* \"contracts/PollBetContract.sol\":2435:2444  pollCount */\n      dup1\n      sload\n        /* \"contracts/PollBetContract.sol\":2429:2445  polls[pollCount] */\n      dup2\n      mstore\n      0x20\n      add\n      swap1\n      dup2\n      mstore\n      0x20\n      add\n      0x00\n      keccak256\n        /* \"contracts/PollBetContract.sol\":2406:2445  Poll storage newPoll = polls[pollCount] */\n      swap1\n      pop\n        /* \"contracts/PollBetContract.sol\":2473:2483  msg.sender */\n      caller\n        /* \"contracts/PollBetContract.sol\":2455:2462  newPoll */\n      dup2\n        /* \"contracts/PollBetContract.sol\":2455:2470  newPoll.creator */\n      0x01\n      add\n      0x00\n        /* \"contracts/PollBetContract.sol\":2455:2483  newPoll.creator = msg.sender */\n      0x0100\n      exp\n      dup2\n      sload\n      dup2\n      0xffffffffffffffffffffffffffffffffffffffff\n      mul\n      not\n      and\n      swap1\n      dup4\n      0xffffffffffffffffffffffffffffffffffffffff\n      and\n      mul\n      or\n      swap1\n      sstore\n      pop\n        /* \"contracts/PollBetContract.sol\":2513:2528  block.timestamp */\n      timestamp\n        /* \"contracts/PollBetContract.sol\":2493:2500  newPoll */\n      dup2\n        /* \"contracts/PollBetContract.sol\":2493:2510  newPoll.startTime */\n      0x02\n      add\n        /* \"contracts/PollBetContract.sol\":2493:2528  newPoll.startTime = block.timestamp */\n      dup2\n      swap1\n      sstore\n      pop\n        /* \"contracts/PollBetContract.sol\":2574:2579  86400 */\n      0x015180\n        /* \"contracts/PollBetContract.sol\":2556:2571  block.timestamp */\n      timestamp\n        /* \"contracts/PollBetContract.sol\":2556:2579  block.timestamp + 86400 */\n      tag_261\n      swap2\n      swap1\n      tag_135\n      jump\t// in\n    tag_261:\n        /* \"contracts/PollBetContract.sol\":2538:2545  newPoll */\n      dup2\n        /* \"contracts/PollBetContract.sol\":2538:2553  newPoll.endTime */\n      0x03\n      add\n        /* \"contracts/PollBetContract.sol\":2538:2579  newPoll.endTime = block.timestamp + 86400 */\n      dup2\n      swap1\n      sstore\n      pop\n        /* \"contracts/PollBetContract.sol\":2607:2615  _options */\n      dup4\n        /* \"contracts/PollBetContract.sol\":2589:2596  newPoll */\n      dup2\n        /* \"contracts/PollBetContract.sol\":2589:2604  newPoll.choices */\n      0x04\n      add\n        /* \"contracts/PollBetContract.sol\":2589:2615  newPoll.choices = _options */\n      swap1\n      dup1\n      mload\n      swap1\n      0x20\n      add\n      swap1\n      tag_262\n      swap3\n      swap2\n      swap1\n      tag_263\n      jump\t// in\n    tag_262:\n      pop\n        /* \"contracts/PollBetContract.sol\":2648:2665  choiceCountsArray */\n      dup2\n        /* \"contracts/PollBetContract.sol\":2625:2632  newPoll */\n      dup2\n        /* \"contracts/PollBetContract.sol\":2625:2645  newPoll.choiceCounts */\n      0x05\n      add\n        /* \"contracts/PollBetContract.sol\":2625:2665  newPoll.choiceCounts = choiceCountsArray */\n      swap1\n      dup1\n      mload\n      swap1\n      0x20\n      add\n      swap1\n      tag_264\n      swap3\n      swap2\n      swap1\n      tag_265\n      jump\t// in\n    tag_264:\n      pop\n        /* \"contracts/PollBetContract.sol\":2692:2696  true */\n      0x01\n        /* \"contracts/PollBetContract.sol\":2675:2682  newPoll */\n      dup2\n        /* \"contracts/PollBetContract.sol\":2675:2689  newPoll.isOpen */\n      0x06\n      add\n      0x00\n        /* \"contracts/PollBetContract.sol\":2675:2696  newPoll.isOpen = true */\n      0x0100\n      exp\n      dup2\n      sload\n      dup2\n      0xff\n      mul\n      not\n      and\n      swap1\n      dup4\n      iszero\n      iszero\n      mul\n      or\n      swap1\n      sstore\n      pop\n        /* \"contracts/PollBetContract.sol\":2706:2716  pollCounts */\n      0x0b\n        /* \"contracts/PollBetContract.sol\":2722:2731  pollCount */\n      sload(0x00)\n        /* \"contracts/PollBetContract.sol\":2706:2732  pollCounts.push(pollCount) */\n      swap1\n      dup1\n      0x01\n      dup2\n      sload\n      add\n      dup1\n      dup3\n      sstore\n      dup1\n      swap2\n      pop\n      pop\n      0x01\n      swap1\n      sub\n      swap1\n      0x00\n      mstore\n      keccak256(0x00, 0x20)\n      add\n      0x00\n      swap1\n      swap2\n      swap1\n      swap2\n      swap1\n      swap2\n      pop\n      sstore\n        /* \"contracts/PollBetContract.sol\":2770:2780  msg.sender */\n      caller\n        /* \"contracts/PollBetContract.sol\":2747:2813  PollCreated(pollCount, msg.sender, _startTime, _endTime, _options) */\n      0xffffffffffffffffffffffffffffffffffffffff\n      and\n        /* \"contracts/PollBetContract.sol\":2759:2768  pollCount */\n      sload(0x00)\n        /* \"contracts/PollBetContract.sol\":2747:2813  PollCreated(pollCount, msg.sender, _startTime, _endTime, _options) */\n      0x58d87e181e9ac91f8ccda34caaf4c15db2a9fc345a86ea48e378d6e4359dfdb9\n        /* \"contracts/PollBetContract.sol\":2782:2792  _startTime */\n      dup9\n        /* \"contracts/PollBetContract.sol\":2794:2802  _endTime */\n      dup9\n        /* \"contracts/PollBetContract.sol\":2804:2812  _options */\n      dup9\n        /* \"contracts/PollBetContract.sol\":2747:2813  PollCreated(pollCount, msg.sender, _startTime, _endTime, _options) */\n      mload(0x40)\n      tag_267\n      swap4\n      swap3\n      swap2\n      swap1\n      tag_268\n      jump\t// in\n    tag_267:\n      mload(0x40)\n      dup1\n      swap2\n      sub\n      swap1\n      log3\n        /* \"contracts/PollBetContract.sol\":2823:2832  pollCount */\n      0x00\n      dup1\n        /* \"contracts/PollBetContract.sol\":2823:2834  pollCount++ */\n      dup2\n      sload\n      dup1\n      swap3\n      swap2\n      swap1\n      tag_269\n      swap1\n      tag_137\n      jump\t// in\n    tag_269:\n      swap2\n      swap1\n      pop\n      sstore\n      pop\n        /* \"contracts/PollBetContract.sol\":1883:3261  {... */\n      pop\n      pop\n      pop\n        /* \"contracts/PollBetContract.sol\":1798:3261  function createPoll(uint _startTime, uint _endTime, string[] memory _options) public {... */\n      pop\n      pop\n      pop\n      jump\t// out\n        /* \"contracts/PollBetContract.sol\":6973:7003  function closePoll() public {} */\n    tag_125:\n      jump\t// out\n        /* \"contracts/PollBetContract.sol\":7451:7585  function addVoterAddressSet(uint _pollId, address _voterAddress) private {... */\n    tag_175:\n        /* \"contracts/PollBetContract.sol\":7534:7578  voterAddressSets[_pollId].add(_voterAddress) */\n      tag_272\n        /* \"contracts/PollBetContract.sol\":7564:7577  _voterAddress */\n      dup2\n        /* \"contracts/PollBetContract.sol\":7534:7550  voterAddressSets */\n      0x09\n        /* \"contracts/PollBetContract.sol\":7534:7559  voterAddressSets[_pollId] */\n      0x00\n        /* \"contracts/PollBetContract.sol\":7551:7558  _pollId */\n      dup6\n        /* \"contracts/PollBetContract.sol\":7534:7559  voterAddressSets[_pollId] */\n      dup2\n      mstore\n      0x20\n      add\n      swap1\n      dup2\n      mstore\n      0x20\n      add\n      0x00\n      keccak256\n        /* \"contracts/PollBetContract.sol\":7534:7563  voterAddressSets[_pollId].add */\n      tag_273\n      swap1\n        /* \"contracts/PollBetContract.sol\":7534:7578  voterAddressSets[_pollId].add(_voterAddress) */\n      swap2\n      swap1\n      0xffffffff\n      and\n      jump\t// in\n    tag_272:\n      pop\n        /* \"contracts/PollBetContract.sol\":7451:7585  function addVoterAddressSet(uint _pollId, address _voterAddress) private {... */\n      pop\n      pop\n      jump\t// out\n        /* \"@openzeppelin/contracts/utils/structs/EnumerableSet.sol\":9098:9213  function length(AddressSet storage set) internal view returns (uint256) {... */\n    tag_188:\n        /* \"@openzeppelin/contracts/utils/structs/EnumerableSet.sol\":9161:9168  uint256 */\n      0x00\n        /* \"@openzeppelin/contracts/utils/structs/EnumerableSet.sol\":9187:9206  _length(set._inner) */\n      tag_275\n        /* \"@openzeppelin/contracts/utils/structs/EnumerableSet.sol\":9195:9198  set */\n      dup3\n        /* \"@openzeppelin/contracts/utils/structs/EnumerableSet.sol\":9195:9205  set._inner */\n      0x00\n      add\n        /* \"@openzeppelin/contracts/utils/structs/EnumerableSet.sol\":9187:9194  _length */\n      tag_276\n        /* \"@openzeppelin/contracts/utils/structs/EnumerableSet.sol\":9187:9206  _length(set._inner) */\n      jump\t// in\n    tag_275:\n        /* \"@openzeppelin/contracts/utils/structs/EnumerableSet.sol\":9180:9206  return _length(set._inner) */\n      swap1\n      pop\n        /* \"@openzeppelin/contracts/utils/structs/EnumerableSet.sol\":9098:9213  function length(AddressSet storage set) internal view returns (uint256) {... */\n      swap2\n      swap1\n      pop\n      jump\t// out\n        /* \"@openzeppelin/contracts/utils/structs/EnumerableSet.sol\":8297:8447  function add(AddressSet storage set, address value) internal returns (bool) {... */\n    tag_273:\n        /* \"@openzeppelin/contracts/utils/structs/EnumerableSet.sol\":8367:8371  bool */\n      0x00\n        /* \"@openzeppelin/contracts/utils/structs/EnumerableSet.sol\":8390:8440  _add(set._inner, bytes32(uint256(uint160(value)))) */\n      tag_278\n        /* \"@openzeppelin/contracts/utils/structs/EnumerableSet.sol\":8395:8398  set */\n      dup4\n        /* \"@openzeppelin/contracts/utils/structs/EnumerableSet.sol\":8395:8405  set._inner */\n      0x00\n      add\n        /* \"@openzeppelin/contracts/utils/structs/EnumerableSet.sol\":8431:8436  value */\n      dup4\n        /* \"@openzeppelin/contracts/utils/structs/EnumerableSet.sol\":8415:8438  uint256(uint160(value)) */\n      0xffffffffffffffffffffffffffffffffffffffff\n      and\n        /* \"@openzeppelin/contracts/utils/structs/EnumerableSet.sol\":8407:8439  bytes32(uint256(uint160(value))) */\n      0x00\n      shl\n        /* \"@openzeppelin/contracts/utils/structs/EnumerableSet.sol\":8390:8394  _add */\n      tag_279\n        /* \"@openzeppelin/contracts/utils/structs/EnumerableSet.sol\":8390:8440  _add(set._inner, bytes32(uint256(uint160(value)))) */\n      jump\t// in\n    tag_278:\n        /* \"@openzeppelin/contracts/utils/structs/EnumerableSet.sol\":8383:8440  return _add(set._inner, bytes32(uint256(uint160(value)))) */\n      swap1\n      pop\n        /* \"@openzeppelin/contracts/utils/structs/EnumerableSet.sol\":8297:8447  function add(AddressSet storage set, address value) internal returns (bool) {... */\n      swap3\n      swap2\n      pop\n      pop\n      jump\t// out\n        /* \"@openzeppelin/contracts/utils/structs/EnumerableSet.sol\":4455:4562  function _length(Set storage set) private view returns (uint256) {... */\n    tag_276:\n        /* \"@openzeppelin/contracts/utils/structs/EnumerableSet.sol\":4511:4518  uint256 */\n      0x00\n        /* \"@openzeppelin/contracts/utils/structs/EnumerableSet.sol\":4537:4540  set */\n      dup2\n        /* \"@openzeppelin/contracts/utils/structs/EnumerableSet.sol\":4537:4548  set._values */\n      0x00\n      add\n        /* \"@openzeppelin/contracts/utils/structs/EnumerableSet.sol\":4537:4555  set._values.length */\n      dup1\n      sload\n      swap1\n      pop\n        /* \"@openzeppelin/contracts/utils/structs/EnumerableSet.sol\":4530:4555  return set._values.length */\n      swap1\n      pop\n        /* \"@openzeppelin/contracts/utils/structs/EnumerableSet.sol\":4455:4562  function _length(Set storage set) private view returns (uint256) {... */\n      swap2\n      swap1\n      pop\n      jump\t// out\n        /* \"@openzeppelin/contracts/utils/structs/EnumerableSet.sol\":2206:2610  function _add(Set storage set, bytes32 value) private returns (bool) {... */\n    tag_279:\n        /* \"@openzeppelin/contracts/utils/structs/EnumerableSet.sol\":2269:2273  bool */\n      0x00\n        /* \"@openzeppelin/contracts/utils/structs/EnumerableSet.sol\":2290:2311  _contains(set, value) */\n      tag_282\n        /* \"@openzeppelin/contracts/utils/structs/EnumerableSet.sol\":2300:2303  set */\n      dup4\n        /* \"@openzeppelin/contracts/utils/structs/EnumerableSet.sol\":2305:2310  value */\n      dup4\n        /* \"@openzeppelin/contracts/utils/structs/EnumerableSet.sol\":2290:2299  _contains */\n      tag_283\n        /* \"@openzeppelin/contracts/utils/structs/EnumerableSet.sol\":2290:2311  _contains(set, value) */\n      jump\t// in\n    tag_282:\n        /* \"@openzeppelin/contracts/utils/structs/EnumerableSet.sol\":2285:2604  if (!_contains(set, value)) {... */\n      tag_284\n      jumpi\n        /* \"@openzeppelin/contracts/utils/structs/EnumerableSet.sol\":2327:2330  set */\n      dup3\n        /* \"@openzeppelin/contracts/utils/structs/EnumerableSet.sol\":2327:2338  set._values */\n      0x00\n      add\n        /* \"@openzeppelin/contracts/utils/structs/EnumerableSet.sol\":2344:2349  value */\n      dup3\n        /* \"@openzeppelin/contracts/utils/structs/EnumerableSet.sol\":2327:2350  set._values.push(value) */\n      swap1\n      dup1\n      0x01\n      dup2\n      sload\n      add\n      dup1\n      dup3\n      sstore\n      dup1\n      swap2\n      pop\n      pop\n      0x01\n      swap1\n      sub\n      swap1\n      0x00\n      mstore\n      keccak256(0x00, 0x20)\n      add\n      0x00\n      swap1\n      swap2\n      swap1\n      swap2\n      swap1\n      swap2\n      pop\n      sstore\n        /* \"@openzeppelin/contracts/utils/structs/EnumerableSet.sol\":2507:2510  set */\n      dup3\n        /* \"@openzeppelin/contracts/utils/structs/EnumerableSet.sol\":2507:2518  set._values */\n      0x00\n      add\n        /* \"@openzeppelin/contracts/utils/structs/EnumerableSet.sol\":2507:2525  set._values.length */\n      dup1\n      sload\n      swap1\n      pop\n        /* \"@openzeppelin/contracts/utils/structs/EnumerableSet.sol\":2485:2488  set */\n      dup4\n        /* \"@openzeppelin/contracts/utils/structs/EnumerableSet.sol\":2485:2497  set._indexes */\n      0x01\n      add\n        /* \"@openzeppelin/contracts/utils/structs/EnumerableSet.sol\":2485:2504  set._indexes[value] */\n      0x00\n        /* \"@openzeppelin/contracts/utils/structs/EnumerableSet.sol\":2498:2503  value */\n      dup5\n        /* \"@openzeppelin/contracts/utils/structs/EnumerableSet.sol\":2485:2504  set._indexes[value] */\n      dup2\n      mstore\n      0x20\n      add\n      swap1\n      dup2\n      mstore\n      0x20\n      add\n      0x00\n      keccak256\n        /* \"@openzeppelin/contracts/utils/structs/EnumerableSet.sol\":2485:2525  set._indexes[value] = set._values.length */\n      dup2\n      swap1\n      sstore\n      pop\n        /* \"@openzeppelin/contracts/utils/structs/EnumerableSet.sol\":2546:2550  true */\n      0x01\n        /* \"@openzeppelin/contracts/utils/structs/EnumerableSet.sol\":2539:2550  return true */\n      swap1\n      pop\n      jump(tag_281)\n        /* \"@openzeppelin/contracts/utils/structs/EnumerableSet.sol\":2285:2604  if (!_contains(set, value)) {... */\n    tag_284:\n        /* \"@openzeppelin/contracts/utils/structs/EnumerableSet.sol\":2588:2593  false */\n      0x00\n        /* \"@openzeppelin/contracts/utils/structs/EnumerableSet.sol\":2581:2593  return false */\n      swap1\n      pop\n        /* \"@openzeppelin/contracts/utils/structs/EnumerableSet.sol\":2206:2610  function _add(Set storage set, bytes32 value) private returns (bool) {... */\n    tag_281:\n      swap3\n      swap2\n      pop\n      pop\n      jump\t// out\n        /* \"@openzeppelin/contracts/utils/structs/EnumerableSet.sol\":4247:4374  function _contains(Set storage set, bytes32 value) private view returns (bool) {... */\n    tag_283:\n        /* \"@openzeppelin/contracts/utils/structs/EnumerableSet.sol\":4320:4324  bool */\n      0x00\n        /* \"@openzeppelin/contracts/utils/structs/EnumerableSet.sol\":4366:4367  0 */\n      dup1\n        /* \"@openzeppelin/contracts/utils/structs/EnumerableSet.sol\":4343:4346  set */\n      dup4\n        /* \"@openzeppelin/contracts/utils/structs/EnumerableSet.sol\":4343:4355  set._indexes */\n      0x01\n      add\n        /* \"@openzeppelin/contracts/utils/structs/EnumerableSet.sol\":4343:4362  set._indexes[value] */\n      0x00\n        /* \"@openzeppelin/contracts/utils/structs/EnumerableSet.sol\":4356:4361  value */\n      dup5\n        /* \"@openzeppelin/contracts/utils/structs/EnumerableSet.sol\":4343:4362  set._indexes[value] */\n      dup2\n      mstore\n      0x20\n      add\n      swap1\n      dup2\n      mstore\n      0x20\n      add\n      0x00\n      keccak256\n      sload\n        /* \"@openzeppelin/contracts/utils/structs/EnumerableSet.sol\":4343:4367  set._indexes[value] != 0 */\n      eq\n      iszero\n        /* \"@openzeppelin/contracts/utils/structs/EnumerableSet.sol\":4336:4367  return set._indexes[value] != 0 */\n      swap1\n      pop\n        /* \"@openzeppelin/contracts/utils/structs/EnumerableSet.sol\":4247:4374  function _contains(Set storage set, bytes32 value) private view returns (bool) {... */\n      swap3\n      swap2\n      pop\n      pop\n      jump\t// out\n    tag_139:\n      mload(0x40)\n      dup1\n      0xe0\n      add\n      0x40\n      mstore\n      dup1\n      0x00\n      dup2\n      mstore\n      0x20\n      add\n      and(0xffffffffffffffffffffffffffffffffffffffff, 0x00)\n      dup2\n      mstore\n      0x20\n      add\n      0x00\n      dup2\n      mstore\n      0x20\n      add\n      0x00\n      dup2\n      mstore\n      0x20\n      add\n      0x60\n      dup2\n      mstore\n      0x20\n      add\n      0x60\n      dup2\n      mstore\n      0x20\n      add\n      iszero(iszero(0x00))\n      dup2\n      mstore\n      pop\n      swap1\n      jump\t// out\n    tag_263:\n      dup3\n      dup1\n      sload\n      dup3\n      dup3\n      sstore\n      swap1\n      0x00\n      mstore\n      keccak256(0x00, 0x20)\n      swap1\n      dup2\n      add\n      swap3\n      dup3\n      iszero\n      tag_288\n      jumpi\n      swap2\n      0x20\n      mul\n      dup3\n      add\n    tag_289:\n      dup3\n      dup2\n      gt\n      iszero\n      tag_290\n      jumpi\n      dup3\n      mload\n      dup3\n      swap1\n      dup2\n      tag_291\n      swap2\n      swap1\n      tag_243\n      jump\t// in\n    tag_291:\n      pop\n      swap2\n      0x20\n      add\n      swap2\n      swap1\n      0x01\n      add\n      swap1\n      jump(tag_289)\n    tag_290:\n    tag_288:\n      pop\n      swap1\n      pop\n      tag_292\n      swap2\n      swap1\n      tag_293\n      jump\t// in\n    tag_292:\n      pop\n      swap1\n      jump\t// out\n    tag_265:\n      dup3\n      dup1\n      sload\n      dup3\n      dup3\n      sstore\n      swap1\n      0x00\n      mstore\n      keccak256(0x00, 0x20)\n      swap1\n      dup2\n      add\n      swap3\n      dup3\n      iszero\n      tag_294\n      jumpi\n      swap2\n      0x20\n      mul\n      dup3\n      add\n    tag_295:\n      dup3\n      dup2\n      gt\n      iszero\n      tag_296\n      jumpi\n      dup3\n      mload\n      dup3\n      sstore\n      swap2\n      0x20\n      add\n      swap2\n      swap1\n      0x01\n      add\n      swap1\n      jump(tag_295)\n    tag_296:\n    tag_294:\n      pop\n      swap1\n      pop\n      tag_297\n      swap2\n      swap1\n      tag_298\n      jump\t// in\n    tag_297:\n      pop\n      swap1\n      jump\t// out\n    tag_293:\n    tag_299:\n      dup1\n      dup3\n      gt\n      iszero\n      tag_300\n      jumpi\n      0x00\n      dup2\n      dup2\n      tag_301\n      swap2\n      swap1\n      tag_302\n      jump\t// in\n    tag_301:\n      pop\n      0x01\n      add\n      jump(tag_299)\n    tag_300:\n      pop\n      swap1\n      jump\t// out\n    tag_298:\n    tag_303:\n      dup1\n      dup3\n      gt\n      iszero\n      tag_304\n      jumpi\n      0x00\n      dup2\n      0x00\n      swap1\n      sstore\n      pop\n      0x01\n      add\n      jump(tag_303)\n    tag_304:\n      pop\n      swap1\n      jump\t// out\n    tag_302:\n      pop\n      dup1\n      sload\n      tag_305\n      swap1\n      tag_145\n      jump\t// in\n    tag_305:\n      0x00\n      dup3\n      sstore\n      dup1\n      0x1f\n      lt\n      tag_307\n      jumpi\n      pop\n      jump(tag_306)\n    tag_307:\n      0x1f\n      add\n      0x20\n      swap1\n      div\n      swap1\n      0x00\n      mstore\n      keccak256(0x00, 0x20)\n      swap1\n      dup2\n      add\n      swap1\n      tag_308\n      swap2\n      swap1\n      tag_298\n      jump\t// in\n    tag_308:\n    tag_306:\n      pop\n      jump\t// out\n        /* \"#utility.yul\":7:82   */\n    tag_309:\n        /* \"#utility.yul\":40:46   */\n      0x00\n        /* \"#utility.yul\":73:75   */\n      0x40\n        /* \"#utility.yul\":67:76   */\n      mload\n        /* \"#utility.yul\":57:76   */\n      swap1\n      pop\n        /* \"#utility.yul\":7:82   */\n      swap1\n      jump\t// out\n        /* \"#utility.yul\":88:205   */\n    tag_310:\n        /* \"#utility.yul\":197:198   */\n      0x00\n        /* \"#utility.yul\":194:195   */\n      dup1\n        /* \"#utility.yul\":187:199   */\n      revert\n        /* \"#utility.yul\":211:328   */\n    tag_311:\n        /* \"#utility.yul\":320:321   */\n      0x00\n        /* \"#utility.yul\":317:318   */\n      dup1\n        /* \"#utility.yul\":310:322   */\n      revert\n        /* \"#utility.yul\":334:411   */\n    tag_312:\n        /* \"#utility.yul\":371:378   */\n      0x00\n        /* \"#utility.yul\":400:405   */\n      dup2\n        /* \"#utility.yul\":389:405   */\n      swap1\n      pop\n        /* \"#utility.yul\":334:411   */\n      swap2\n      swap1\n      pop\n      jump\t// out\n        /* \"#utility.yul\":417:539   */\n    tag_313:\n        /* \"#utility.yul\":490:514   */\n      tag_411\n        /* \"#utility.yul\":508:513   */\n      dup2\n        /* \"#utility.yul\":490:514   */\n      tag_312\n      jump\t// in\n    tag_411:\n        /* \"#utility.yul\":483:488   */\n      dup2\n        /* \"#utility.yul\":480:515   */\n      eq\n        /* \"#utility.yul\":470:533   */\n      tag_412\n      jumpi\n        /* \"#utility.yul\":529:530   */\n      0x00\n        /* \"#utility.yul\":526:527   */\n      dup1\n        /* \"#utility.yul\":519:531   */\n      revert\n        /* \"#utility.yul\":470:533   */\n    tag_412:\n        /* \"#utility.yul\":417:539   */\n      pop\n      jump\t// out\n        /* \"#utility.yul\":545:684   */\n    tag_314:\n        /* \"#utility.yul\":591:596   */\n      0x00\n        /* \"#utility.yul\":629:635   */\n      dup2\n        /* \"#utility.yul\":616:636   */\n      calldataload\n        /* \"#utility.yul\":607:636   */\n      swap1\n      pop\n        /* \"#utility.yul\":645:678   */\n      tag_414\n        /* \"#utility.yul\":672:677   */\n      dup2\n        /* \"#utility.yul\":645:678   */\n      tag_313\n      jump\t// in\n    tag_414:\n        /* \"#utility.yul\":545:684   */\n      swap3\n      swap2\n      pop\n      pop\n      jump\t// out\n        /* \"#utility.yul\":690:816   */\n    tag_315:\n        /* \"#utility.yul\":727:734   */\n      0x00\n        /* \"#utility.yul\":767:809   */\n      0xffffffffffffffffffffffffffffffffffffffff\n        /* \"#utility.yul\":760:765   */\n      dup3\n        /* \"#utility.yul\":756:810   */\n      and\n        /* \"#utility.yul\":745:810   */\n      swap1\n      pop\n        /* \"#utility.yul\":690:816   */\n      swap2\n      swap1\n      pop\n      jump\t// out\n        /* \"#utility.yul\":822:918   */\n    tag_316:\n        /* \"#utility.yul\":859:866   */\n      0x00\n        /* \"#utility.yul\":888:912   */\n      tag_417\n        /* \"#utility.yul\":906:911   */\n      dup3\n        /* \"#utility.yul\":888:912   */\n      tag_315\n      jump\t// in\n    tag_417:\n        /* \"#utility.yul\":877:912   */\n      swap1\n      pop\n        /* \"#utility.yul\":822:918   */\n      swap2\n      swap1\n      pop\n      jump\t// out\n        /* \"#utility.yul\":924:1046   */\n    tag_317:\n        /* \"#utility.yul\":997:1021   */\n      tag_419\n        /* \"#utility.yul\":1015:1020   */\n      dup2\n        /* \"#utility.yul\":997:1021   */\n      tag_316\n      jump\t// in\n    tag_419:\n        /* \"#utility.yul\":990:995   */\n      dup2\n        /* \"#utility.yul\":987:1022   */\n      eq\n        /* \"#utility.yul\":977:1040   */\n      tag_420\n      jumpi\n        /* \"#utility.yul\":1036:1037   */\n      0x00\n        /* \"#utility.yul\":1033:1034   */\n      dup1\n        /* \"#utility.yul\":1026:1038   */\n      revert\n        /* \"#utility.yul\":977:1040   */\n    tag_420:\n        /* \"#utility.yul\":924:1046   */\n      pop\n      jump\t// out\n        /* \"#utility.yul\":1052:1191   */\n    tag_318:\n        /* \"#utility.yul\":1098:1103   */\n      0x00\n        /* \"#utility.yul\":1136:1142   */\n      dup2\n        /* \"#utility.yul\":1123:1143   */\n      calldataload\n        /* \"#utility.yul\":1114:1143   */\n      swap1\n      pop\n        /* \"#utility.yul\":1152:1185   */\n      tag_422\n        /* \"#utility.yul\":1179:1184   */\n      dup2\n        /* \"#utility.yul\":1152:1185   */\n      tag_317\n      jump\t// in\n    tag_422:\n        /* \"#utility.yul\":1052:1191   */\n      swap3\n      swap2\n      pop\n      pop\n      jump\t// out\n        /* \"#utility.yul\":1197:1671   */\n    tag_28:\n        /* \"#utility.yul\":1265:1271   */\n      0x00\n        /* \"#utility.yul\":1273:1279   */\n      dup1\n        /* \"#utility.yul\":1322:1324   */\n      0x40\n        /* \"#utility.yul\":1310:1319   */\n      dup4\n        /* \"#utility.yul\":1301:1308   */\n      dup6\n        /* \"#utility.yul\":1297:1320   */\n      sub\n        /* \"#utility.yul\":1293:1325   */\n      slt\n        /* \"#utility.yul\":1290:1409   */\n      iszero\n      tag_424\n      jumpi\n        /* \"#utility.yul\":1328:1407   */\n      tag_425\n      tag_310\n      jump\t// in\n    tag_425:\n        /* \"#utility.yul\":1290:1409   */\n    tag_424:\n        /* \"#utility.yul\":1448:1449   */\n      0x00\n        /* \"#utility.yul\":1473:1526   */\n      tag_426\n        /* \"#utility.yul\":1518:1525   */\n      dup6\n        /* \"#utility.yul\":1509:1515   */\n      dup3\n        /* \"#utility.yul\":1498:1507   */\n      dup7\n        /* \"#utility.yul\":1494:1516   */\n      add\n        /* \"#utility.yul\":1473:1526   */\n      tag_314\n      jump\t// in\n    tag_426:\n        /* \"#utility.yul\":1463:1526   */\n      swap3\n      pop\n        /* \"#utility.yul\":1419:1536   */\n      pop\n        /* \"#utility.yul\":1575:1577   */\n      0x20\n        /* \"#utility.yul\":1601:1654   */\n      tag_427\n        /* \"#utility.yul\":1646:1653   */\n      dup6\n        /* \"#utility.yul\":1637:1643   */\n      dup3\n        /* \"#utility.yul\":1626:1635   */\n      dup7\n        /* \"#utility.yul\":1622:1644   */\n      add\n        /* \"#utility.yul\":1601:1654   */\n      tag_318\n      jump\t// in\n    tag_427:\n        /* \"#utility.yul\":1591:1654   */\n      swap2\n      pop\n        /* \"#utility.yul\":1546:1664   */\n      pop\n        /* \"#utility.yul\":1197:1671   */\n      swap3\n      pop\n      swap3\n      swap1\n      pop\n      jump\t// out\n        /* \"#utility.yul\":1677:1795   */\n    tag_319:\n        /* \"#utility.yul\":1764:1788   */\n      tag_429\n        /* \"#utility.yul\":1782:1787   */\n      dup2\n        /* \"#utility.yul\":1764:1788   */\n      tag_312\n      jump\t// in\n    tag_429:\n        /* \"#utility.yul\":1759:1762   */\n      dup3\n        /* \"#utility.yul\":1752:1789   */\n      mstore\n        /* \"#utility.yul\":1677:1795   */\n      pop\n      pop\n      jump\t// out\n        /* \"#utility.yul\":1801:2023   */\n    tag_31:\n        /* \"#utility.yul\":1894:1898   */\n      0x00\n        /* \"#utility.yul\":1932:1934   */\n      0x20\n        /* \"#utility.yul\":1921:1930   */\n      dup3\n        /* \"#utility.yul\":1917:1935   */\n      add\n        /* \"#utility.yul\":1909:1935   */\n      swap1\n      pop\n        /* \"#utility.yul\":1945:2016   */\n      tag_431\n        /* \"#utility.yul\":2013:2014   */\n      0x00\n        /* \"#utility.yul\":2002:2011   */\n      dup4\n        /* \"#utility.yul\":1998:2015   */\n      add\n        /* \"#utility.yul\":1989:1995   */\n      dup5\n        /* \"#utility.yul\":1945:2016   */\n      tag_319\n      jump\t// in\n    tag_431:\n        /* \"#utility.yul\":1801:2023   */\n      swap3\n      swap2\n      pop\n      pop\n      jump\t// out\n        /* \"#utility.yul\":2029:2358   */\n    tag_35:\n        /* \"#utility.yul\":2088:2094   */\n      0x00\n        /* \"#utility.yul\":2137:2139   */\n      0x20\n        /* \"#utility.yul\":2125:2134   */\n      dup3\n        /* \"#utility.yul\":2116:2123   */\n      dup5\n        /* \"#utility.yul\":2112:2135   */\n      sub\n        /* \"#utility.yul\":2108:2140   */\n      slt\n        /* \"#utility.yul\":2105:2224   */\n      iszero\n      tag_433\n      jumpi\n        /* \"#utility.yul\":2143:2222   */\n      tag_434\n      tag_310\n      jump\t// in\n    tag_434:\n        /* \"#utility.yul\":2105:2224   */\n    tag_433:\n        /* \"#utility.yul\":2263:2264   */\n      0x00\n        /* \"#utility.yul\":2288:2341   */\n      tag_435\n        /* \"#utility.yul\":2333:2340   */\n      dup5\n        /* \"#utility.yul\":2324:2330   */\n      dup3\n        /* \"#utility.yul\":2313:2322   */\n      dup6\n        /* \"#utility.yul\":2309:2331   */\n      add\n        /* \"#utility.yul\":2288:2341   */\n      tag_314\n      jump\t// in\n    tag_435:\n        /* \"#utility.yul\":2278:2341   */\n      swap2\n      pop\n        /* \"#utility.yul\":2234:2351   */\n      pop\n        /* \"#utility.yul\":2029:2358   */\n      swap3\n      swap2\n      pop\n      pop\n      jump\t// out\n        /* \"#utility.yul\":2364:2693   */\n    tag_41:\n        /* \"#utility.yul\":2423:2429   */\n      0x00\n        /* \"#utility.yul\":2472:2474   */\n      0x20\n        /* \"#utility.yul\":2460:2469   */\n      dup3\n        /* \"#utility.yul\":2451:2458   */\n      dup5\n        /* \"#utility.yul\":2447:2470   */\n      sub\n        /* \"#utility.yul\":2443:2475   */\n      slt\n        /* \"#utility.yul\":2440:2559   */\n      iszero\n      tag_437\n      jumpi\n        /* \"#utility.yul\":2478:2557   */\n      tag_438\n      tag_310\n      jump\t// in\n    tag_438:\n        /* \"#utility.yul\":2440:2559   */\n    tag_437:\n        /* \"#utility.yul\":2598:2599   */\n      0x00\n        /* \"#utility.yul\":2623:2676   */\n      tag_439\n        /* \"#utility.yul\":2668:2675   */\n      dup5\n        /* \"#utility.yul\":2659:2665   */\n      dup3\n        /* \"#utility.yul\":2648:2657   */\n      dup6\n        /* \"#utility.yul\":2644:2666   */\n      add\n        /* \"#utility.yul\":2623:2676   */\n      tag_318\n      jump\t// in\n    tag_439:\n        /* \"#utility.yul\":2613:2676   */\n      swap2\n      pop\n        /* \"#utility.yul\":2569:2686   */\n      pop\n        /* \"#utility.yul\":2364:2693   */\n      swap3\n      swap2\n      pop\n      pop\n      jump\t// out\n        /* \"#utility.yul\":2699:2807   */\n    tag_320:\n        /* \"#utility.yul\":2776:2800   */\n      tag_441\n        /* \"#utility.yul\":2794:2799   */\n      dup2\n        /* \"#utility.yul\":2776:2800   */\n      tag_312\n      jump\t// in\n    tag_441:\n        /* \"#utility.yul\":2771:2774   */\n      dup3\n        /* \"#utility.yul\":2764:2801   */\n      mstore\n        /* \"#utility.yul\":2699:2807   */\n      pop\n      pop\n      jump\t// out\n        /* \"#utility.yul\":2813:2921   */\n    tag_321:\n        /* \"#utility.yul\":2890:2914   */\n      tag_443\n        /* \"#utility.yul\":2908:2913   */\n      dup2\n        /* \"#utility.yul\":2890:2914   */\n      tag_316\n      jump\t// in\n    tag_443:\n        /* \"#utility.yul\":2885:2888   */\n      dup3\n        /* \"#utility.yul\":2878:2915   */\n      mstore\n        /* \"#utility.yul\":2813:2921   */\n      pop\n      pop\n      jump\t// out\n        /* \"#utility.yul\":2927:3051   */\n    tag_322:\n        /* \"#utility.yul\":3004:3010   */\n      0x00\n        /* \"#utility.yul\":3038:3043   */\n      dup2\n        /* \"#utility.yul\":3032:3044   */\n      mload\n        /* \"#utility.yul\":3022:3044   */\n      swap1\n      pop\n        /* \"#utility.yul\":2927:3051   */\n      swap2\n      swap1\n      pop\n      jump\t// out\n        /* \"#utility.yul\":3057:3241   */\n    tag_323:\n        /* \"#utility.yul\":3156:3167   */\n      0x00\n        /* \"#utility.yul\":3190:3196   */\n      dup3\n        /* \"#utility.yul\":3185:3188   */\n      dup3\n        /* \"#utility.yul\":3178:3197   */\n      mstore\n        /* \"#utility.yul\":3230:3234   */\n      0x20\n        /* \"#utility.yul\":3225:3228   */\n      dup3\n        /* \"#utility.yul\":3221:3235   */\n      add\n        /* \"#utility.yul\":3206:3235   */\n      swap1\n      pop\n        /* \"#utility.yul\":3057:3241   */\n      swap3\n      swap2\n      pop\n      pop\n      jump\t// out\n        /* \"#utility.yul\":3247:3389   */\n    tag_324:\n        /* \"#utility.yul\":3324:3328   */\n      0x00\n        /* \"#utility.yul\":3347:3350   */\n      dup2\n        /* \"#utility.yul\":3339:3350   */\n      swap1\n      pop\n        /* \"#utility.yul\":3377:3381   */\n      0x20\n        /* \"#utility.yul\":3372:3375   */\n      dup3\n        /* \"#utility.yul\":3368:3382   */\n      add\n        /* \"#utility.yul\":3360:3382   */\n      swap1\n      pop\n        /* \"#utility.yul\":3247:3389   */\n      swap2\n      swap1\n      pop\n      jump\t// out\n        /* \"#utility.yul\":3395:3494   */\n    tag_325:\n        /* \"#utility.yul\":3447:3453   */\n      0x00\n        /* \"#utility.yul\":3481:3486   */\n      dup2\n        /* \"#utility.yul\":3475:3487   */\n      mload\n        /* \"#utility.yul\":3465:3487   */\n      swap1\n      pop\n        /* \"#utility.yul\":3395:3494   */\n      swap2\n      swap1\n      pop\n      jump\t// out\n        /* \"#utility.yul\":3500:3659   */\n    tag_326:\n        /* \"#utility.yul\":3574:3585   */\n      0x00\n        /* \"#utility.yul\":3608:3614   */\n      dup3\n        /* \"#utility.yul\":3603:3606   */\n      dup3\n        /* \"#utility.yul\":3596:3615   */\n      mstore\n        /* \"#utility.yul\":3648:3652   */\n      0x20\n        /* \"#utility.yul\":3643:3646   */\n      dup3\n        /* \"#utility.yul\":3639:3653   */\n      add\n        /* \"#utility.yul\":3624:3653   */\n      swap1\n      pop\n        /* \"#utility.yul\":3500:3659   */\n      swap3\n      swap2\n      pop\n      pop\n      jump\t// out\n        /* \"#utility.yul\":3665:3911   */\n    tag_327:\n        /* \"#utility.yul\":3746:3747   */\n      0x00\n        /* \"#utility.yul\":3756:3869   */\n    tag_450:\n        /* \"#utility.yul\":3770:3776   */\n      dup4\n        /* \"#utility.yul\":3767:3768   */\n      dup2\n        /* \"#utility.yul\":3764:3777   */\n      lt\n        /* \"#utility.yul\":3756:3869   */\n      iszero\n      tag_452\n      jumpi\n        /* \"#utility.yul\":3855:3856   */\n      dup1\n        /* \"#utility.yul\":3850:3853   */\n      dup3\n        /* \"#utility.yul\":3846:3857   */\n      add\n        /* \"#utility.yul\":3840:3858   */\n      mload\n        /* \"#utility.yul\":3836:3837   */\n      dup2\n        /* \"#utility.yul\":3831:3834   */\n      dup5\n        /* \"#utility.yul\":3827:3838   */\n      add\n        /* \"#utility.yul\":3820:3859   */\n      mstore\n        /* \"#utility.yul\":3792:3794   */\n      0x20\n        /* \"#utility.yul\":3789:3790   */\n      dup2\n        /* \"#utility.yul\":3785:3795   */\n      add\n        /* \"#utility.yul\":3780:3795   */\n      swap1\n      pop\n        /* \"#utility.yul\":3756:3869   */\n      jump(tag_450)\n    tag_452:\n        /* \"#utility.yul\":3903:3904   */\n      0x00\n        /* \"#utility.yul\":3894:3900   */\n      dup5\n        /* \"#utility.yul\":3889:3892   */\n      dup5\n        /* \"#utility.yul\":3885:3901   */\n      add\n        /* \"#utility.yul\":3878:3905   */\n      mstore\n        /* \"#utility.yul\":3727:3911   */\n      pop\n        /* \"#utility.yul\":3665:3911   */\n      pop\n      pop\n      pop\n      jump\t// out\n        /* \"#utility.yul\":3917:4019   */\n    tag_328:\n        /* \"#utility.yul\":3958:3964   */\n      0x00\n        /* \"#utility.yul\":4009:4011   */\n      0x1f\n        /* \"#utility.yul\":4005:4012   */\n      not\n        /* \"#utility.yul\":4000:4002   */\n      0x1f\n        /* \"#utility.yul\":3993:3998   */\n      dup4\n        /* \"#utility.yul\":3989:4003   */\n      add\n        /* \"#utility.yul\":3985:4013   */\n      and\n        /* \"#utility.yul\":3975:4013   */\n      swap1\n      pop\n        /* \"#utility.yul\":3917:4019   */\n      swap2\n      swap1\n      pop\n      jump\t// out\n        /* \"#utility.yul\":4025:4382   */\n    tag_329:\n        /* \"#utility.yul\":4103:4106   */\n      0x00\n        /* \"#utility.yul\":4131:4170   */\n      tag_455\n        /* \"#utility.yul\":4164:4169   */\n      dup3\n        /* \"#utility.yul\":4131:4170   */\n      tag_325\n      jump\t// in\n    tag_455:\n        /* \"#utility.yul\":4186:4247   */\n      tag_456\n        /* \"#utility.yul\":4240:4246   */\n      dup2\n        /* \"#utility.yul\":4235:4238   */\n      dup6\n        /* \"#utility.yul\":4186:4247   */\n      tag_326\n      jump\t// in\n    tag_456:\n        /* \"#utility.yul\":4179:4247   */\n      swap4\n      pop\n        /* \"#utility.yul\":4256:4321   */\n      tag_457\n        /* \"#utility.yul\":4314:4320   */\n      dup2\n        /* \"#utility.yul\":4309:4312   */\n      dup6\n        /* \"#utility.yul\":4302:4306   */\n      0x20\n        /* \"#utility.yul\":4295:4300   */\n      dup7\n        /* \"#utility.yul\":4291:4307   */\n      add\n        /* \"#utility.yul\":4256:4321   */\n      tag_327\n      jump\t// in\n    tag_457:\n        /* \"#utility.yul\":4346:4375   */\n      tag_458\n        /* \"#utility.yul\":4368:4374   */\n      dup2\n        /* \"#utility.yul\":4346:4375   */\n      tag_328\n      jump\t// in\n    tag_458:\n        /* \"#utility.yul\":4341:4344   */\n      dup5\n        /* \"#utility.yul\":4337:4376   */\n      add\n        /* \"#utility.yul\":4330:4376   */\n      swap2\n      pop\n        /* \"#utility.yul\":4107:4382   */\n      pop\n        /* \"#utility.yul\":4025:4382   */\n      swap3\n      swap2\n      pop\n      pop\n      jump\t// out\n        /* \"#utility.yul\":4388:4584   */\n    tag_330:\n        /* \"#utility.yul\":4477:4487   */\n      0x00\n        /* \"#utility.yul\":4512:4578   */\n      tag_460\n        /* \"#utility.yul\":4574:4577   */\n      dup4\n        /* \"#utility.yul\":4566:4572   */\n      dup4\n        /* \"#utility.yul\":4512:4578   */\n      tag_329\n      jump\t// in\n    tag_460:\n        /* \"#utility.yul\":4498:4578   */\n      swap1\n      pop\n        /* \"#utility.yul\":4388:4584   */\n      swap3\n      swap2\n      pop\n      pop\n      jump\t// out\n        /* \"#utility.yul\":4590:4713   */\n    tag_331:\n        /* \"#utility.yul\":4670:4674   */\n      0x00\n        /* \"#utility.yul\":4702:4706   */\n      0x20\n        /* \"#utility.yul\":4697:4700   */\n      dup3\n        /* \"#utility.yul\":4693:4707   */\n      add\n        /* \"#utility.yul\":4685:4707   */\n      swap1\n      pop\n        /* \"#utility.yul\":4590:4713   */\n      swap2\n      swap1\n      pop\n      jump\t// out\n        /* \"#utility.yul\":4747:5718   */\n    tag_332:\n        /* \"#utility.yul\":4876:4879   */\n      0x00\n        /* \"#utility.yul\":4905:4969   */\n      tag_463\n        /* \"#utility.yul\":4963:4968   */\n      dup3\n        /* \"#utility.yul\":4905:4969   */\n      tag_322\n      jump\t// in\n    tag_463:\n        /* \"#utility.yul\":4985:5071   */\n      tag_464\n        /* \"#utility.yul\":5064:5070   */\n      dup2\n        /* \"#utility.yul\":5059:5062   */\n      dup6\n        /* \"#utility.yul\":4985:5071   */\n      tag_323\n      jump\t// in\n    tag_464:\n        /* \"#utility.yul\":4978:5071   */\n      swap4\n      pop\n        /* \"#utility.yul\":5097:5100   */\n      dup4\n        /* \"#utility.yul\":5142:5146   */\n      0x20\n        /* \"#utility.yul\":5134:5140   */\n      dup3\n        /* \"#utility.yul\":5130:5147   */\n      mul\n        /* \"#utility.yul\":5125:5128   */\n      dup6\n        /* \"#utility.yul\":5121:5148   */\n      add\n        /* \"#utility.yul\":5172:5238   */\n      tag_465\n        /* \"#utility.yul\":5232:5237   */\n      dup6\n        /* \"#utility.yul\":5172:5238   */\n      tag_324\n      jump\t// in\n    tag_465:\n        /* \"#utility.yul\":5261:5268   */\n      dup1\n        /* \"#utility.yul\":5292:5293   */\n      0x00\n        /* \"#utility.yul\":5277:5673   */\n    tag_466:\n        /* \"#utility.yul\":5302:5308   */\n      dup6\n        /* \"#utility.yul\":5299:5300   */\n      dup2\n        /* \"#utility.yul\":5296:5309   */\n      lt\n        /* \"#utility.yul\":5277:5673   */\n      iszero\n      tag_468\n      jumpi\n        /* \"#utility.yul\":5373:5382   */\n      dup5\n        /* \"#utility.yul\":5367:5371   */\n      dup5\n        /* \"#utility.yul\":5363:5383   */\n      sub\n        /* \"#utility.yul\":5358:5361   */\n      dup10\n        /* \"#utility.yul\":5351:5384   */\n      mstore\n        /* \"#utility.yul\":5424:5430   */\n      dup2\n        /* \"#utility.yul\":5418:5431   */\n      mload\n        /* \"#utility.yul\":5452:5536   */\n      tag_469\n        /* \"#utility.yul\":5531:5535   */\n      dup6\n        /* \"#utility.yul\":5516:5529   */\n      dup3\n        /* \"#utility.yul\":5452:5536   */\n      tag_330\n      jump\t// in\n    tag_469:\n        /* \"#utility.yul\":5444:5536   */\n      swap5\n      pop\n        /* \"#utility.yul\":5559:5629   */\n      tag_470\n        /* \"#utility.yul\":5622:5628   */\n      dup4\n        /* \"#utility.yul\":5559:5629   */\n      tag_331\n      jump\t// in\n    tag_470:\n        /* \"#utility.yul\":5549:5629   */\n      swap3\n      pop\n        /* \"#utility.yul\":5658:5662   */\n      0x20\n        /* \"#utility.yul\":5653:5656   */\n      dup11\n        /* \"#utility.yul\":5649:5663   */\n      add\n        /* \"#utility.yul\":5642:5663   */\n      swap10\n      pop\n        /* \"#utility.yul\":5337:5673   */\n      pop\n        /* \"#utility.yul\":5324:5325   */\n      0x01\n        /* \"#utility.yul\":5321:5322   */\n      dup2\n        /* \"#utility.yul\":5317:5326   */\n      add\n        /* \"#utility.yul\":5312:5326   */\n      swap1\n      pop\n        /* \"#utility.yul\":5277:5673   */\n      jump(tag_466)\n    tag_468:\n        /* \"#utility.yul\":5281:5295   */\n      pop\n        /* \"#utility.yul\":5689:5693   */\n      dup3\n        /* \"#utility.yul\":5682:5693   */\n      swap8\n      pop\n        /* \"#utility.yul\":5709:5712   */\n      dup8\n        /* \"#utility.yul\":5702:5712   */\n      swap6\n      pop\n        /* \"#utility.yul\":4881:5718   */\n      pop\n      pop\n      pop\n      pop\n      pop\n        /* \"#utility.yul\":4747:5718   */\n      swap3\n      swap2\n      pop\n      pop\n      jump\t// out\n        /* \"#utility.yul\":5724:5838   */\n    tag_333:\n        /* \"#utility.yul\":5791:5797   */\n      0x00\n        /* \"#utility.yul\":5825:5830   */\n      dup2\n        /* \"#utility.yul\":5819:5831   */\n      mload\n        /* \"#utility.yul\":5809:5831   */\n      swap1\n      pop\n        /* \"#utility.yul\":5724:5838   */\n      swap2\n      swap1\n      pop\n      jump\t// out\n        /* \"#utility.yul\":5844:6018   */\n    tag_334:\n        /* \"#utility.yul\":5933:5944   */\n      0x00\n        /* \"#utility.yul\":5967:5973   */\n      dup3\n        /* \"#utility.yul\":5962:5965   */\n      dup3\n        /* \"#utility.yul\":5955:5974   */\n      mstore\n        /* \"#utility.yul\":6007:6011   */\n      0x20\n        /* \"#utility.yul\":6002:6005   */\n      dup3\n        /* \"#utility.yul\":5998:6012   */\n      add\n        /* \"#utility.yul\":5983:6012   */\n      swap1\n      pop\n        /* \"#utility.yul\":5844:6018   */\n      swap3\n      swap2\n      pop\n      pop\n      jump\t// out\n        /* \"#utility.yul\":6024:6156   */\n    tag_335:\n        /* \"#utility.yul\":6091:6095   */\n      0x00\n        /* \"#utility.yul\":6114:6117   */\n      dup2\n        /* \"#utility.yul\":6106:6117   */\n      swap1\n      pop\n        /* \"#utility.yul\":6144:6148   */\n      0x20\n        /* \"#utility.yul\":6139:6142   */\n      dup3\n        /* \"#utility.yul\":6135:6149   */\n      add\n        /* \"#utility.yul\":6127:6149   */\n      swap1\n      pop\n        /* \"#utility.yul\":6024:6156   */\n      swap2\n      swap1\n      pop\n      jump\t// out\n        /* \"#utility.yul\":6162:6341   */\n    tag_336:\n        /* \"#utility.yul\":6231:6241   */\n      0x00\n        /* \"#utility.yul\":6252:6298   */\n      tag_475\n        /* \"#utility.yul\":6294:6297   */\n      dup4\n        /* \"#utility.yul\":6286:6292   */\n      dup4\n        /* \"#utility.yul\":6252:6298   */\n      tag_320\n      jump\t// in\n    tag_475:\n        /* \"#utility.yul\":6330:6334   */\n      0x20\n        /* \"#utility.yul\":6325:6328   */\n      dup4\n        /* \"#utility.yul\":6321:6335   */\n      add\n        /* \"#utility.yul\":6307:6335   */\n      swap1\n      pop\n        /* \"#utility.yul\":6162:6341   */\n      swap3\n      swap2\n      pop\n      pop\n      jump\t// out\n        /* \"#utility.yul\":6347:6460   */\n    tag_337:\n        /* \"#utility.yul\":6417:6421   */\n      0x00\n        /* \"#utility.yul\":6449:6453   */\n      0x20\n        /* \"#utility.yul\":6444:6447   */\n      dup3\n        /* \"#utility.yul\":6440:6454   */\n      add\n        /* \"#utility.yul\":6432:6454   */\n      swap1\n      pop\n        /* \"#utility.yul\":6347:6460   */\n      swap2\n      swap1\n      pop\n      jump\t// out\n        /* \"#utility.yul\":6496:7208   */\n    tag_338:\n        /* \"#utility.yul\":6605:6608   */\n      0x00\n        /* \"#utility.yul\":6634:6688   */\n      tag_478\n        /* \"#utility.yul\":6682:6687   */\n      dup3\n        /* \"#utility.yul\":6634:6688   */\n      tag_333\n      jump\t// in\n    tag_478:\n        /* \"#utility.yul\":6704:6780   */\n      tag_479\n        /* \"#utility.yul\":6773:6779   */\n      dup2\n        /* \"#utility.yul\":6768:6771   */\n      dup6\n        /* \"#utility.yul\":6704:6780   */\n      tag_334\n      jump\t// in\n    tag_479:\n        /* \"#utility.yul\":6697:6780   */\n      swap4\n      pop\n        /* \"#utility.yul\":6804:6860   */\n      tag_480\n        /* \"#utility.yul\":6854:6859   */\n      dup4\n        /* \"#utility.yul\":6804:6860   */\n      tag_335\n      jump\t// in\n    tag_480:\n        /* \"#utility.yul\":6883:6890   */\n      dup1\n        /* \"#utility.yul\":6914:6915   */\n      0x00\n        /* \"#utility.yul\":6899:7183   */\n    tag_481:\n        /* \"#utility.yul\":6924:6930   */\n      dup4\n        /* \"#utility.yul\":6921:6922   */\n      dup2\n        /* \"#utility.yul\":6918:6931   */\n      lt\n        /* \"#utility.yul\":6899:7183   */\n      iszero\n      tag_483\n      jumpi\n        /* \"#utility.yul\":7000:7006   */\n      dup2\n        /* \"#utility.yul\":6994:7007   */\n      mload\n        /* \"#utility.yul\":7027:7090   */\n      tag_484\n        /* \"#utility.yul\":7086:7089   */\n      dup9\n        /* \"#utility.yul\":7071:7084   */\n      dup3\n        /* \"#utility.yul\":7027:7090   */\n      tag_336\n      jump\t// in\n    tag_484:\n        /* \"#utility.yul\":7020:7090   */\n      swap8\n      pop\n        /* \"#utility.yul\":7113:7173   */\n      tag_485\n        /* \"#utility.yul\":7166:7172   */\n      dup4\n        /* \"#utility.yul\":7113:7173   */\n      tag_337\n      jump\t// in\n    tag_485:\n        /* \"#utility.yul\":7103:7173   */\n      swap3\n      pop\n        /* \"#utility.yul\":6959:7183   */\n      pop\n        /* \"#utility.yul\":6946:6947   */\n      0x01\n        /* \"#utility.yul\":6943:6944   */\n      dup2\n        /* \"#utility.yul\":6939:6948   */\n      add\n        /* \"#utility.yul\":6934:6948   */\n      swap1\n      pop\n        /* \"#utility.yul\":6899:7183   */\n      jump(tag_481)\n    tag_483:\n        /* \"#utility.yul\":6903:6917   */\n      pop\n        /* \"#utility.yul\":7199:7202   */\n      dup6\n        /* \"#utility.yul\":7192:7202   */\n      swap4\n      pop\n        /* \"#utility.yul\":6610:7208   */\n      pop\n      pop\n      pop\n        /* \"#utility.yul\":6496:7208   */\n      swap3\n      swap2\n      pop\n      pop\n      jump\t// out\n        /* \"#utility.yul\":7214:7304   */\n    tag_339:\n        /* \"#utility.yul\":7248:7255   */\n      0x00\n        /* \"#utility.yul\":7291:7296   */\n      dup2\n        /* \"#utility.yul\":7284:7297   */\n      iszero\n        /* \"#utility.yul\":7277:7298   */\n      iszero\n        /* \"#utility.yul\":7266:7298   */\n      swap1\n      pop\n        /* \"#utility.yul\":7214:7304   */\n      swap2\n      swap1\n      pop\n      jump\t// out\n        /* \"#utility.yul\":7310:7409   */\n    tag_340:\n        /* \"#utility.yul\":7381:7402   */\n      tag_488\n        /* \"#utility.yul\":7396:7401   */\n      dup2\n        /* \"#utility.yul\":7381:7402   */\n      tag_339\n      jump\t// in\n    tag_488:\n        /* \"#utility.yul\":7376:7379   */\n      dup3\n        /* \"#utility.yul\":7369:7403   */\n      mstore\n        /* \"#utility.yul\":7310:7409   */\n      pop\n      pop\n      jump\t// out\n        /* \"#utility.yul\":7481:9116   */\n    tag_341:\n        /* \"#utility.yul\":7592:7595   */\n      0x00\n        /* \"#utility.yul\":7628:7632   */\n      0xe0\n        /* \"#utility.yul\":7623:7626   */\n      dup4\n        /* \"#utility.yul\":7619:7633   */\n      add\n        /* \"#utility.yul\":7713:7717   */\n      0x00\n        /* \"#utility.yul\":7706:7711   */\n      dup4\n        /* \"#utility.yul\":7702:7718   */\n      add\n        /* \"#utility.yul\":7696:7719   */\n      mload\n        /* \"#utility.yul\":7732:7795   */\n      tag_490\n        /* \"#utility.yul\":7789:7793   */\n      0x00\n        /* \"#utility.yul\":7784:7787   */\n      dup7\n        /* \"#utility.yul\":7780:7794   */\n      add\n        /* \"#utility.yul\":7766:7778   */\n      dup3\n        /* \"#utility.yul\":7732:7795   */\n      tag_320\n      jump\t// in\n    tag_490:\n        /* \"#utility.yul\":7643:7805   */\n      pop\n        /* \"#utility.yul\":7890:7894   */\n      0x20\n        /* \"#utility.yul\":7883:7888   */\n      dup4\n        /* \"#utility.yul\":7879:7895   */\n      add\n        /* \"#utility.yul\":7873:7896   */\n      mload\n        /* \"#utility.yul\":7909:7972   */\n      tag_491\n        /* \"#utility.yul\":7966:7970   */\n      0x20\n        /* \"#utility.yul\":7961:7964   */\n      dup7\n        /* \"#utility.yul\":7957:7971   */\n      add\n        /* \"#utility.yul\":7943:7955   */\n      dup3\n        /* \"#utility.yul\":7909:7972   */\n      tag_321\n      jump\t// in\n    tag_491:\n        /* \"#utility.yul\":7815:7982   */\n      pop\n        /* \"#utility.yul\":8069:8073   */\n      0x40\n        /* \"#utility.yul\":8062:8067   */\n      dup4\n        /* \"#utility.yul\":8058:8074   */\n      add\n        /* \"#utility.yul\":8052:8075   */\n      mload\n        /* \"#utility.yul\":8088:8151   */\n      tag_492\n        /* \"#utility.yul\":8145:8149   */\n      0x40\n        /* \"#utility.yul\":8140:8143   */\n      dup7\n        /* \"#utility.yul\":8136:8150   */\n      add\n        /* \"#utility.yul\":8122:8134   */\n      dup3\n        /* \"#utility.yul\":8088:8151   */\n      tag_320\n      jump\t// in\n    tag_492:\n        /* \"#utility.yul\":7992:8161   */\n      pop\n        /* \"#utility.yul\":8246:8250   */\n      0x60\n        /* \"#utility.yul\":8239:8244   */\n      dup4\n        /* \"#utility.yul\":8235:8251   */\n      add\n        /* \"#utility.yul\":8229:8252   */\n      mload\n        /* \"#utility.yul\":8265:8328   */\n      tag_493\n        /* \"#utility.yul\":8322:8326   */\n      0x60\n        /* \"#utility.yul\":8317:8320   */\n      dup7\n        /* \"#utility.yul\":8313:8327   */\n      add\n        /* \"#utility.yul\":8299:8311   */\n      dup3\n        /* \"#utility.yul\":8265:8328   */\n      tag_320\n      jump\t// in\n    tag_493:\n        /* \"#utility.yul\":8171:8338   */\n      pop\n        /* \"#utility.yul\":8423:8427   */\n      0x80\n        /* \"#utility.yul\":8416:8421   */\n      dup4\n        /* \"#utility.yul\":8412:8428   */\n      add\n        /* \"#utility.yul\":8406:8429   */\n      mload\n        /* \"#utility.yul\":8476:8479   */\n      dup5\n        /* \"#utility.yul\":8470:8474   */\n      dup3\n        /* \"#utility.yul\":8466:8480   */\n      sub\n        /* \"#utility.yul\":8459:8463   */\n      0x80\n        /* \"#utility.yul\":8454:8457   */\n      dup7\n        /* \"#utility.yul\":8450:8464   */\n      add\n        /* \"#utility.yul\":8443:8481   */\n      mstore\n        /* \"#utility.yul\":8502:8625   */\n      tag_494\n        /* \"#utility.yul\":8620:8624   */\n      dup3\n        /* \"#utility.yul\":8606:8618   */\n      dup3\n        /* \"#utility.yul\":8502:8625   */\n      tag_332\n      jump\t// in\n    tag_494:\n        /* \"#utility.yul\":8494:8625   */\n      swap2\n      pop\n        /* \"#utility.yul\":8348:8636   */\n      pop\n        /* \"#utility.yul\":8726:8730   */\n      0xa0\n        /* \"#utility.yul\":8719:8724   */\n      dup4\n        /* \"#utility.yul\":8715:8731   */\n      add\n        /* \"#utility.yul\":8709:8732   */\n      mload\n        /* \"#utility.yul\":8779:8782   */\n      dup5\n        /* \"#utility.yul\":8773:8777   */\n      dup3\n        /* \"#utility.yul\":8769:8783   */\n      sub\n        /* \"#utility.yul\":8762:8766   */\n      0xa0\n        /* \"#utility.yul\":8757:8760   */\n      dup7\n        /* \"#utility.yul\":8753:8767   */\n      add\n        /* \"#utility.yul\":8746:8784   */\n      mstore\n        /* \"#utility.yul\":8805:8908   */\n      tag_495\n        /* \"#utility.yul\":8903:8907   */\n      dup3\n        /* \"#utility.yul\":8889:8901   */\n      dup3\n        /* \"#utility.yul\":8805:8908   */\n      tag_338\n      jump\t// in\n    tag_495:\n        /* \"#utility.yul\":8797:8908   */\n      swap2\n      pop\n        /* \"#utility.yul\":8646:8919   */\n      pop\n        /* \"#utility.yul\":9003:9007   */\n      0xc0\n        /* \"#utility.yul\":8996:9001   */\n      dup4\n        /* \"#utility.yul\":8992:9008   */\n      add\n        /* \"#utility.yul\":8986:9009   */\n      mload\n        /* \"#utility.yul\":9022:9079   */\n      tag_496\n        /* \"#utility.yul\":9073:9077   */\n      0xc0\n        /* \"#utility.yul\":9068:9071   */\n      dup7\n        /* \"#utility.yul\":9064:9078   */\n      add\n        /* \"#utility.yul\":9050:9062   */\n      dup3\n        /* \"#utility.yul\":9022:9079   */\n      tag_340\n      jump\t// in\n    tag_496:\n        /* \"#utility.yul\":8929:9089   */\n      pop\n        /* \"#utility.yul\":9106:9110   */\n      dup1\n        /* \"#utility.yul\":9099:9110   */\n      swap2\n      pop\n        /* \"#utility.yul\":7597:9116   */\n      pop\n        /* \"#utility.yul\":7481:9116   */\n      swap3\n      swap2\n      pop\n      pop\n      jump\t// out\n        /* \"#utility.yul\":9122:9479   */\n    tag_49:\n        /* \"#utility.yul\":9257:9261   */\n      0x00\n        /* \"#utility.yul\":9295:9297   */\n      0x20\n        /* \"#utility.yul\":9284:9293   */\n      dup3\n        /* \"#utility.yul\":9280:9298   */\n      add\n        /* \"#utility.yul\":9272:9298   */\n      swap1\n      pop\n        /* \"#utility.yul\":9344:9353   */\n      dup2\n        /* \"#utility.yul\":9338:9342   */\n      dup2\n        /* \"#utility.yul\":9334:9354   */\n      sub\n        /* \"#utility.yul\":9330:9331   */\n      0x00\n        /* \"#utility.yul\":9319:9328   */\n      dup4\n        /* \"#utility.yul\":9315:9332   */\n      add\n        /* \"#utility.yul\":9308:9355   */\n      mstore\n        /* \"#utility.yul\":9372:9472   */\n      tag_498\n        /* \"#utility.yul\":9467:9471   */\n      dup2\n        /* \"#utility.yul\":9458:9464   */\n      dup5\n        /* \"#utility.yul\":9372:9472   */\n      tag_341\n      jump\t// in\n    tag_498:\n        /* \"#utility.yul\":9364:9472   */\n      swap1\n      pop\n        /* \"#utility.yul\":9122:9479   */\n      swap3\n      swap2\n      pop\n      pop\n      jump\t// out\n        /* \"#utility.yul\":9485:9959   */\n    tag_53:\n        /* \"#utility.yul\":9553:9559   */\n      0x00\n        /* \"#utility.yul\":9561:9567   */\n      dup1\n        /* \"#utility.yul\":9610:9612   */\n      0x40\n        /* \"#utility.yul\":9598:9607   */\n      dup4\n        /* \"#utility.yul\":9589:9596   */\n      dup6\n        /* \"#utility.yul\":9585:9608   */\n      sub\n        /* \"#utility.yul\":9581:9613   */\n      slt\n        /* \"#utility.yul\":9578:9697   */\n      iszero\n      tag_500\n      jumpi\n        /* \"#utility.yul\":9616:9695   */\n      tag_501\n      tag_310\n      jump\t// in\n    tag_501:\n        /* \"#utility.yul\":9578:9697   */\n    tag_500:\n        /* \"#utility.yul\":9736:9737   */\n      0x00\n        /* \"#utility.yul\":9761:9814   */\n      tag_502\n        /* \"#utility.yul\":9806:9813   */\n      dup6\n        /* \"#utility.yul\":9797:9803   */\n      dup3\n        /* \"#utility.yul\":9786:9795   */\n      dup7\n        /* \"#utility.yul\":9782:9804   */\n      add\n        /* \"#utility.yul\":9761:9814   */\n      tag_314\n      jump\t// in\n    tag_502:\n        /* \"#utility.yul\":9751:9814   */\n      swap3\n      pop\n        /* \"#utility.yul\":9707:9824   */\n      pop\n        /* \"#utility.yul\":9863:9865   */\n      0x20\n        /* \"#utility.yul\":9889:9942   */\n      tag_503\n        /* \"#utility.yul\":9934:9941   */\n      dup6\n        /* \"#utility.yul\":9925:9931   */\n      dup3\n        /* \"#utility.yul\":9914:9923   */\n      dup7\n        /* \"#utility.yul\":9910:9932   */\n      add\n        /* \"#utility.yul\":9889:9942   */\n      tag_314\n      jump\t// in\n    tag_503:\n        /* \"#utility.yul\":9879:9942   */\n      swap2\n      pop\n        /* \"#utility.yul\":9834:9952   */\n      pop\n        /* \"#utility.yul\":9485:9959   */\n      swap3\n      pop\n      swap3\n      swap1\n      pop\n      jump\t// out\n        /* \"#utility.yul\":9965:10134   */\n    tag_342:\n        /* \"#utility.yul\":10049:10060   */\n      0x00\n        /* \"#utility.yul\":10083:10089   */\n      dup3\n        /* \"#utility.yul\":10078:10081   */\n      dup3\n        /* \"#utility.yul\":10071:10090   */\n      mstore\n        /* \"#utility.yul\":10123:10127   */\n      0x20\n        /* \"#utility.yul\":10118:10121   */\n      dup3\n        /* \"#utility.yul\":10114:10128   */\n      add\n        /* \"#utility.yul\":10099:10128   */\n      swap1\n      pop\n        /* \"#utility.yul\":9965:10134   */\n      swap3\n      swap2\n      pop\n      pop\n      jump\t// out\n        /* \"#utility.yul\":10140:10517   */\n    tag_343:\n        /* \"#utility.yul\":10228:10231   */\n      0x00\n        /* \"#utility.yul\":10256:10295   */\n      tag_506\n        /* \"#utility.yul\":10289:10294   */\n      dup3\n        /* \"#utility.yul\":10256:10295   */\n      tag_325\n      jump\t// in\n    tag_506:\n        /* \"#utility.yul\":10311:10382   */\n      tag_507\n        /* \"#utility.yul\":10375:10381   */\n      dup2\n        /* \"#utility.yul\":10370:10373   */\n      dup6\n        /* \"#utility.yul\":10311:10382   */\n      tag_342\n      jump\t// in\n    tag_507:\n        /* \"#utility.yul\":10304:10382   */\n      swap4\n      pop\n        /* \"#utility.yul\":10391:10456   */\n      tag_508\n        /* \"#utility.yul\":10449:10455   */\n      dup2\n        /* \"#utility.yul\":10444:10447   */\n      dup6\n        /* \"#utility.yul\":10437:10441   */\n      0x20\n        /* \"#utility.yul\":10430:10435   */\n      dup7\n        /* \"#utility.yul\":10426:10442   */\n      add\n        /* \"#utility.yul\":10391:10456   */\n      tag_327\n      jump\t// in\n    tag_508:\n        /* \"#utility.yul\":10481:10510   */\n      tag_509\n        /* \"#utility.yul\":10503:10509   */\n      dup2\n        /* \"#utility.yul\":10481:10510   */\n      tag_328\n      jump\t// in\n    tag_509:\n        /* \"#utility.yul\":10476:10479   */\n      dup5\n        /* \"#utility.yul\":10472:10511   */\n      add\n        /* \"#utility.yul\":10465:10511   */\n      swap2\n      pop\n        /* \"#utility.yul\":10232:10517   */\n      pop\n        /* \"#utility.yul\":10140:10517   */\n      swap3\n      swap2\n      pop\n      pop\n      jump\t// out\n        /* \"#utility.yul\":10523:10641   */\n    tag_344:\n        /* \"#utility.yul\":10610:10634   */\n      tag_511\n        /* \"#utility.yul\":10628:10633   */\n      dup2\n        /* \"#utility.yul\":10610:10634   */\n      tag_316\n      jump\t// in\n    tag_511:\n        /* \"#utility.yul\":10605:10608   */\n      dup3\n        /* \"#utility.yul\":10598:10635   */\n      mstore\n        /* \"#utility.yul\":10523:10641   */\n      pop\n      pop\n      jump\t// out\n        /* \"#utility.yul\":10647:11291   */\n    tag_56:\n        /* \"#utility.yul\":10844:10848   */\n      0x00\n        /* \"#utility.yul\":10882:10885   */\n      0x80\n        /* \"#utility.yul\":10871:10880   */\n      dup3\n        /* \"#utility.yul\":10867:10886   */\n      add\n        /* \"#utility.yul\":10859:10886   */\n      swap1\n      pop\n        /* \"#utility.yul\":10896:10967   */\n      tag_513\n        /* \"#utility.yul\":10964:10965   */\n      0x00\n        /* \"#utility.yul\":10953:10962   */\n      dup4\n        /* \"#utility.yul\":10949:10966   */\n      add\n        /* \"#utility.yul\":10940:10946   */\n      dup8\n        /* \"#utility.yul\":10896:10967   */\n      tag_319\n      jump\t// in\n    tag_513:\n        /* \"#utility.yul\":11014:11023   */\n      dup2\n        /* \"#utility.yul\":11008:11012   */\n      dup2\n        /* \"#utility.yul\":11004:11024   */\n      sub\n        /* \"#utility.yul\":10999:11001   */\n      0x20\n        /* \"#utility.yul\":10988:10997   */\n      dup4\n        /* \"#utility.yul\":10984:11002   */\n      add\n        /* \"#utility.yul\":10977:11025   */\n      mstore\n        /* \"#utility.yul\":11042:11120   */\n      tag_514\n        /* \"#utility.yul\":11115:11119   */\n      dup2\n        /* \"#utility.yul\":11106:11112   */\n      dup7\n        /* \"#utility.yul\":11042:11120   */\n      tag_343\n      jump\t// in\n    tag_514:\n        /* \"#utility.yul\":11034:11120   */\n      swap1\n      pop\n        /* \"#utility.yul\":11130:11202   */\n      tag_515\n        /* \"#utility.yul\":11198:11200   */\n      0x40\n        /* \"#utility.yul\":11187:11196   */\n      dup4\n        /* \"#utility.yul\":11183:11201   */\n      add\n        /* \"#utility.yul\":11174:11180   */\n      dup6\n        /* \"#utility.yul\":11130:11202   */\n      tag_344\n      jump\t// in\n    tag_515:\n        /* \"#utility.yul\":11212:11284   */\n      tag_516\n        /* \"#utility.yul\":11280:11282   */\n      0x60\n        /* \"#utility.yul\":11269:11278   */\n      dup4\n        /* \"#utility.yul\":11265:11283   */\n      add\n        /* \"#utility.yul\":11256:11262   */\n      dup5\n        /* \"#utility.yul\":11212:11284   */\n      tag_319\n      jump\t// in\n    tag_516:\n        /* \"#utility.yul\":10647:11291   */\n      swap6\n      swap5\n      pop\n      pop\n      pop\n      pop\n      pop\n      jump\t// out\n        /* \"#utility.yul\":11297:11406   */\n    tag_345:\n        /* \"#utility.yul\":11378:11399   */\n      tag_518\n        /* \"#utility.yul\":11393:11398   */\n      dup2\n        /* \"#utility.yul\":11378:11399   */\n      tag_339\n      jump\t// in\n    tag_518:\n        /* \"#utility.yul\":11373:11376   */\n      dup3\n        /* \"#utility.yul\":11366:11400   */\n      mstore\n        /* \"#utility.yul\":11297:11406   */\n      pop\n      pop\n      jump\t// out\n        /* \"#utility.yul\":11412:11622   */\n    tag_62:\n        /* \"#utility.yul\":11499:11503   */\n      0x00\n        /* \"#utility.yul\":11537:11539   */\n      0x20\n        /* \"#utility.yul\":11526:11535   */\n      dup3\n        /* \"#utility.yul\":11522:11540   */\n      add\n        /* \"#utility.yul\":11514:11540   */\n      swap1\n      pop\n        /* \"#utility.yul\":11550:11615   */\n      tag_520\n        /* \"#utility.yul\":11612:11613   */\n      0x00\n        /* \"#utility.yul\":11601:11610   */\n      dup4\n        /* \"#utility.yul\":11597:11614   */\n      add\n        /* \"#utility.yul\":11588:11594   */\n      dup5\n        /* \"#utility.yul\":11550:11615   */\n      tag_345\n      jump\t// in\n    tag_520:\n        /* \"#utility.yul\":11412:11622   */\n      swap3\n      swap2\n      pop\n      pop\n      jump\t// out\n        /* \"#utility.yul\":11628:12070   */\n    tag_99:\n        /* \"#utility.yul\":11777:11781   */\n      0x00\n        /* \"#utility.yul\":11815:11817   */\n      0x60\n        /* \"#utility.yul\":11804:11813   */\n      dup3\n        /* \"#utility.yul\":11800:11818   */\n      add\n        /* \"#utility.yul\":11792:11818   */\n      swap1\n      pop\n        /* \"#utility.yul\":11828:11899   */\n      tag_522\n        /* \"#utility.yul\":11896:11897   */\n      0x00\n        /* \"#utility.yul\":11885:11894   */\n      dup4\n        /* \"#utility.yul\":11881:11898   */\n      add\n        /* \"#utility.yul\":11872:11878   */\n      dup7\n        /* \"#utility.yul\":11828:11899   */\n      tag_319\n      jump\t// in\n    tag_522:\n        /* \"#utility.yul\":11909:11981   */\n      tag_523\n        /* \"#utility.yul\":11977:11979   */\n      0x20\n        /* \"#utility.yul\":11966:11975   */\n      dup4\n        /* \"#utility.yul\":11962:11980   */\n      add\n        /* \"#utility.yul\":11953:11959   */\n      dup6\n        /* \"#utility.yul\":11909:11981   */\n      tag_344\n      jump\t// in\n    tag_523:\n        /* \"#utility.yul\":11991:12063   */\n      tag_524\n        /* \"#utility.yul\":12059:12061   */\n      0x40\n        /* \"#utility.yul\":12048:12057   */\n      dup4\n        /* \"#utility.yul\":12044:12062   */\n      add\n        /* \"#utility.yul\":12035:12041   */\n      dup5\n        /* \"#utility.yul\":11991:12063   */\n      tag_319\n      jump\t// in\n    tag_524:\n        /* \"#utility.yul\":11628:12070   */\n      swap5\n      swap4\n      pop\n      pop\n      pop\n      pop\n      jump\t// out\n        /* \"#utility.yul\":12076:12193   */\n    tag_346:\n        /* \"#utility.yul\":12185:12186   */\n      0x00\n        /* \"#utility.yul\":12182:12183   */\n      dup1\n        /* \"#utility.yul\":12175:12187   */\n      revert\n        /* \"#utility.yul\":12199:12316   */\n    tag_347:\n        /* \"#utility.yul\":12308:12309   */\n      0x00\n        /* \"#utility.yul\":12305:12306   */\n      dup1\n        /* \"#utility.yul\":12298:12310   */\n      revert\n        /* \"#utility.yul\":12322:12439   */\n    tag_348:\n        /* \"#utility.yul\":12431:12432   */\n      0x00\n        /* \"#utility.yul\":12428:12429   */\n      dup1\n        /* \"#utility.yul\":12421:12433   */\n      revert\n        /* \"#utility.yul\":12459:13012   */\n    tag_349:\n        /* \"#utility.yul\":12517:12525   */\n      0x00\n        /* \"#utility.yul\":12527:12533   */\n      dup1\n        /* \"#utility.yul\":12577:12580   */\n      dup4\n        /* \"#utility.yul\":12570:12574   */\n      0x1f\n        /* \"#utility.yul\":12562:12568   */\n      dup5\n        /* \"#utility.yul\":12558:12575   */\n      add\n        /* \"#utility.yul\":12554:12581   */\n      slt\n        /* \"#utility.yul\":12544:12666   */\n      tag_529\n      jumpi\n        /* \"#utility.yul\":12585:12664   */\n      tag_530\n      tag_346\n      jump\t// in\n    tag_530:\n        /* \"#utility.yul\":12544:12666   */\n    tag_529:\n        /* \"#utility.yul\":12698:12704   */\n      dup3\n        /* \"#utility.yul\":12685:12705   */\n      calldataload\n        /* \"#utility.yul\":12675:12705   */\n      swap1\n      pop\n        /* \"#utility.yul\":12728:12746   */\n      0xffffffffffffffff\n        /* \"#utility.yul\":12720:12726   */\n      dup2\n        /* \"#utility.yul\":12717:12747   */\n      gt\n        /* \"#utility.yul\":12714:12831   */\n      iszero\n      tag_531\n      jumpi\n        /* \"#utility.yul\":12750:12829   */\n      tag_532\n      tag_347\n      jump\t// in\n    tag_532:\n        /* \"#utility.yul\":12714:12831   */\n    tag_531:\n        /* \"#utility.yul\":12864:12868   */\n      0x20\n        /* \"#utility.yul\":12856:12862   */\n      dup4\n        /* \"#utility.yul\":12852:12869   */\n      add\n        /* \"#utility.yul\":12840:12869   */\n      swap2\n      pop\n        /* \"#utility.yul\":12918:12921   */\n      dup4\n        /* \"#utility.yul\":12910:12914   */\n      0x01\n        /* \"#utility.yul\":12902:12908   */\n      dup3\n        /* \"#utility.yul\":12898:12915   */\n      mul\n        /* \"#utility.yul\":12888:12896   */\n      dup4\n        /* \"#utility.yul\":12884:12916   */\n      add\n        /* \"#utility.yul\":12881:12922   */\n      gt\n        /* \"#utility.yul\":12878:13006   */\n      iszero\n      tag_533\n      jumpi\n        /* \"#utility.yul\":12925:13004   */\n      tag_534\n      tag_348\n      jump\t// in\n    tag_534:\n        /* \"#utility.yul\":12878:13006   */\n    tag_533:\n        /* \"#utility.yul\":12459:13012   */\n      swap3\n      pop\n      swap3\n      swap1\n      pop\n      jump\t// out\n        /* \"#utility.yul\":13018:13692   */\n    tag_108:\n        /* \"#utility.yul\":13098:13104   */\n      0x00\n        /* \"#utility.yul\":13106:13112   */\n      dup1\n        /* \"#utility.yul\":13114:13120   */\n      0x00\n        /* \"#utility.yul\":13163:13165   */\n      0x40\n        /* \"#utility.yul\":13151:13160   */\n      dup5\n        /* \"#utility.yul\":13142:13149   */\n      dup7\n        /* \"#utility.yul\":13138:13161   */\n      sub\n        /* \"#utility.yul\":13134:13166   */\n      slt\n        /* \"#utility.yul\":13131:13250   */\n      iszero\n      tag_536\n      jumpi\n        /* \"#utility.yul\":13169:13248   */\n      tag_537\n      tag_310\n      jump\t// in\n    tag_537:\n        /* \"#utility.yul\":13131:13250   */\n    tag_536:\n        /* \"#utility.yul\":13289:13290   */\n      0x00\n        /* \"#utility.yul\":13314:13367   */\n      tag_538\n        /* \"#utility.yul\":13359:13366   */\n      dup7\n        /* \"#utility.yul\":13350:13356   */\n      dup3\n        /* \"#utility.yul\":13339:13348   */\n      dup8\n        /* \"#utility.yul\":13335:13357   */\n      add\n        /* \"#utility.yul\":13314:13367   */\n      tag_314\n      jump\t// in\n    tag_538:\n        /* \"#utility.yul\":13304:13367   */\n      swap4\n      pop\n        /* \"#utility.yul\":13260:13377   */\n      pop\n        /* \"#utility.yul\":13444:13446   */\n      0x20\n        /* \"#utility.yul\":13433:13442   */\n      dup5\n        /* \"#utility.yul\":13429:13447   */\n      add\n        /* \"#utility.yul\":13416:13448   */\n      calldataload\n        /* \"#utility.yul\":13475:13493   */\n      0xffffffffffffffff\n        /* \"#utility.yul\":13467:13473   */\n      dup2\n        /* \"#utility.yul\":13464:13494   */\n      gt\n        /* \"#utility.yul\":13461:13578   */\n      iszero\n      tag_539\n      jumpi\n        /* \"#utility.yul\":13497:13576   */\n      tag_540\n      tag_311\n      jump\t// in\n    tag_540:\n        /* \"#utility.yul\":13461:13578   */\n    tag_539:\n        /* \"#utility.yul\":13610:13675   */\n      tag_541\n        /* \"#utility.yul\":13667:13674   */\n      dup7\n        /* \"#utility.yul\":13658:13664   */\n      dup3\n        /* \"#utility.yul\":13647:13656   */\n      dup8\n        /* \"#utility.yul\":13643:13665   */\n      add\n        /* \"#utility.yul\":13610:13675   */\n      tag_349\n      jump\t// in\n    tag_541:\n        /* \"#utility.yul\":13592:13675   */\n      swap3\n      pop\n      swap3\n      pop\n        /* \"#utility.yul\":13387:13685   */\n      pop\n        /* \"#utility.yul\":13018:13692   */\n      swap3\n      pop\n      swap3\n      pop\n      swap3\n      jump\t// out\n        /* \"#utility.yul\":13698:13878   */\n    tag_259:\n        /* \"#utility.yul\":13746:13823   */\n      0x4e487b7100000000000000000000000000000000000000000000000000000000\n        /* \"#utility.yul\":13743:13744   */\n      0x00\n        /* \"#utility.yul\":13736:13824   */\n      mstore\n        /* \"#utility.yul\":13843:13847   */\n      0x41\n        /* \"#utility.yul\":13840:13841   */\n      0x04\n        /* \"#utility.yul\":13833:13848   */\n      mstore\n        /* \"#utility.yul\":13867:13871   */\n      0x24\n        /* \"#utility.yul\":13864:13865   */\n      0x00\n        /* \"#utility.yul\":13857:13872   */\n      revert\n        /* \"#utility.yul\":13884:14165   */\n    tag_350:\n        /* \"#utility.yul\":13967:13994   */\n      tag_544\n        /* \"#utility.yul\":13989:13993   */\n      dup3\n        /* \"#utility.yul\":13967:13994   */\n      tag_328\n      jump\t// in\n    tag_544:\n        /* \"#utility.yul\":13959:13965   */\n      dup2\n        /* \"#utility.yul\":13955:13995   */\n      add\n        /* \"#utility.yul\":14097:14103   */\n      dup2\n        /* \"#utility.yul\":14085:14095   */\n      dup2\n        /* \"#utility.yul\":14082:14104   */\n      lt\n        /* \"#utility.yul\":14061:14079   */\n      0xffffffffffffffff\n        /* \"#utility.yul\":14049:14059   */\n      dup3\n        /* \"#utility.yul\":14046:14080   */\n      gt\n        /* \"#utility.yul\":14043:14105   */\n      or\n        /* \"#utility.yul\":14040:14128   */\n      iszero\n      tag_545\n      jumpi\n        /* \"#utility.yul\":14108:14126   */\n      tag_546\n      tag_259\n      jump\t// in\n    tag_546:\n        /* \"#utility.yul\":14040:14128   */\n    tag_545:\n        /* \"#utility.yul\":14148:14158   */\n      dup1\n        /* \"#utility.yul\":14144:14146   */\n      0x40\n        /* \"#utility.yul\":14137:14159   */\n      mstore\n        /* \"#utility.yul\":13927:14165   */\n      pop\n        /* \"#utility.yul\":13884:14165   */\n      pop\n      pop\n      jump\t// out\n        /* \"#utility.yul\":14171:14300   */\n    tag_351:\n        /* \"#utility.yul\":14205:14211   */\n      0x00\n        /* \"#utility.yul\":14232:14252   */\n      tag_548\n      tag_309\n      jump\t// in\n    tag_548:\n        /* \"#utility.yul\":14222:14252   */\n      swap1\n      pop\n        /* \"#utility.yul\":14261:14294   */\n      tag_549\n        /* \"#utility.yul\":14289:14293   */\n      dup3\n        /* \"#utility.yul\":14281:14287   */\n      dup3\n        /* \"#utility.yul\":14261:14294   */\n      tag_350\n      jump\t// in\n    tag_549:\n        /* \"#utility.yul\":14171:14300   */\n      swap2\n      swap1\n      pop\n      jump\t// out\n        /* \"#utility.yul\":14306:14627   */\n    tag_352:\n        /* \"#utility.yul\":14393:14397   */\n      0x00\n        /* \"#utility.yul\":14483:14501   */\n      0xffffffffffffffff\n        /* \"#utility.yul\":14475:14481   */\n      dup3\n        /* \"#utility.yul\":14472:14502   */\n      gt\n        /* \"#utility.yul\":14469:14525   */\n      iszero\n      tag_551\n      jumpi\n        /* \"#utility.yul\":14505:14523   */\n      tag_552\n      tag_259\n      jump\t// in\n    tag_552:\n        /* \"#utility.yul\":14469:14525   */\n    tag_551:\n        /* \"#utility.yul\":14555:14559   */\n      0x20\n        /* \"#utility.yul\":14547:14553   */\n      dup3\n        /* \"#utility.yul\":14543:14560   */\n      mul\n        /* \"#utility.yul\":14535:14560   */\n      swap1\n      pop\n        /* \"#utility.yul\":14615:14619   */\n      0x20\n        /* \"#utility.yul\":14609:14613   */\n      dup2\n        /* \"#utility.yul\":14605:14620   */\n      add\n        /* \"#utility.yul\":14597:14620   */\n      swap1\n      pop\n        /* \"#utility.yul\":14306:14627   */\n      swap2\n      swap1\n      pop\n      jump\t// out\n        /* \"#utility.yul\":14633:14750   */\n    tag_353:\n        /* \"#utility.yul\":14742:14743   */\n      0x00\n        /* \"#utility.yul\":14739:14740   */\n      dup1\n        /* \"#utility.yul\":14732:14744   */\n      revert\n        /* \"#utility.yul\":14756:15064   */\n    tag_354:\n        /* \"#utility.yul\":14818:14822   */\n      0x00\n        /* \"#utility.yul\":14908:14926   */\n      0xffffffffffffffff\n        /* \"#utility.yul\":14900:14906   */\n      dup3\n        /* \"#utility.yul\":14897:14927   */\n      gt\n        /* \"#utility.yul\":14894:14950   */\n      iszero\n      tag_555\n      jumpi\n        /* \"#utility.yul\":14930:14948   */\n      tag_556\n      tag_259\n      jump\t// in\n    tag_556:\n        /* \"#utility.yul\":14894:14950   */\n    tag_555:\n        /* \"#utility.yul\":14968:14997   */\n      tag_557\n        /* \"#utility.yul\":14990:14996   */\n      dup3\n        /* \"#utility.yul\":14968:14997   */\n      tag_328\n      jump\t// in\n    tag_557:\n        /* \"#utility.yul\":14960:14997   */\n      swap1\n      pop\n        /* \"#utility.yul\":15052:15056   */\n      0x20\n        /* \"#utility.yul\":15046:15050   */\n      dup2\n        /* \"#utility.yul\":15042:15057   */\n      add\n        /* \"#utility.yul\":15034:15057   */\n      swap1\n      pop\n        /* \"#utility.yul\":14756:15064   */\n      swap2\n      swap1\n      pop\n      jump\t// out\n        /* \"#utility.yul\":15070:15216   */\n    tag_355:\n        /* \"#utility.yul\":15167:15173   */\n      dup3\n        /* \"#utility.yul\":15162:15165   */\n      dup2\n        /* \"#utility.yul\":15157:15160   */\n      dup4\n        /* \"#utility.yul\":15144:15174   */\n      calldatacopy\n        /* \"#utility.yul\":15208:15209   */\n      0x00\n        /* \"#utility.yul\":15199:15205   */\n      dup4\n        /* \"#utility.yul\":15194:15197   */\n      dup4\n        /* \"#utility.yul\":15190:15206   */\n      add\n        /* \"#utility.yul\":15183:15210   */\n      mstore\n        /* \"#utility.yul\":15070:15216   */\n      pop\n      pop\n      pop\n      jump\t// out\n        /* \"#utility.yul\":15222:15647   */\n    tag_356:\n        /* \"#utility.yul\":15300:15305   */\n      0x00\n        /* \"#utility.yul\":15325:15391   */\n      tag_560\n        /* \"#utility.yul\":15341:15390   */\n      tag_561\n        /* \"#utility.yul\":15383:15389   */\n      dup5\n        /* \"#utility.yul\":15341:15390   */\n      tag_354\n      jump\t// in\n    tag_561:\n        /* \"#utility.yul\":15325:15391   */\n      tag_351\n      jump\t// in\n    tag_560:\n        /* \"#utility.yul\":15316:15391   */\n      swap1\n      pop\n        /* \"#utility.yul\":15414:15420   */\n      dup3\n        /* \"#utility.yul\":15407:15412   */\n      dup2\n        /* \"#utility.yul\":15400:15421   */\n      mstore\n        /* \"#utility.yul\":15452:15456   */\n      0x20\n        /* \"#utility.yul\":15445:15450   */\n      dup2\n        /* \"#utility.yul\":15441:15457   */\n      add\n        /* \"#utility.yul\":15490:15493   */\n      dup5\n        /* \"#utility.yul\":15481:15487   */\n      dup5\n        /* \"#utility.yul\":15476:15479   */\n      dup5\n        /* \"#utility.yul\":15472:15488   */\n      add\n        /* \"#utility.yul\":15469:15494   */\n      gt\n        /* \"#utility.yul\":15466:15578   */\n      iszero\n      tag_562\n      jumpi\n        /* \"#utility.yul\":15497:15576   */\n      tag_563\n      tag_353\n      jump\t// in\n    tag_563:\n        /* \"#utility.yul\":15466:15578   */\n    tag_562:\n        /* \"#utility.yul\":15587:15641   */\n      tag_564\n        /* \"#utility.yul\":15634:15640   */\n      dup5\n        /* \"#utility.yul\":15629:15632   */\n      dup3\n        /* \"#utility.yul\":15624:15627   */\n      dup6\n        /* \"#utility.yul\":15587:15641   */\n      tag_355\n      jump\t// in\n    tag_564:\n        /* \"#utility.yul\":15306:15647   */\n      pop\n        /* \"#utility.yul\":15222:15647   */\n      swap4\n      swap3\n      pop\n      pop\n      pop\n      jump\t// out\n        /* \"#utility.yul\":15667:16007   */\n    tag_357:\n        /* \"#utility.yul\":15723:15728   */\n      0x00\n        /* \"#utility.yul\":15772:15775   */\n      dup3\n        /* \"#utility.yul\":15765:15769   */\n      0x1f\n        /* \"#utility.yul\":15757:15763   */\n      dup4\n        /* \"#utility.yul\":15753:15770   */\n      add\n        /* \"#utility.yul\":15749:15776   */\n      slt\n        /* \"#utility.yul\":15739:15861   */\n      tag_566\n      jumpi\n        /* \"#utility.yul\":15780:15859   */\n      tag_567\n      tag_346\n      jump\t// in\n    tag_567:\n        /* \"#utility.yul\":15739:15861   */\n    tag_566:\n        /* \"#utility.yul\":15897:15903   */\n      dup2\n        /* \"#utility.yul\":15884:15904   */\n      calldataload\n        /* \"#utility.yul\":15922:16001   */\n      tag_568\n        /* \"#utility.yul\":15997:16000   */\n      dup5\n        /* \"#utility.yul\":15989:15995   */\n      dup3\n        /* \"#utility.yul\":15982:15986   */\n      0x20\n        /* \"#utility.yul\":15974:15980   */\n      dup7\n        /* \"#utility.yul\":15970:15987   */\n      add\n        /* \"#utility.yul\":15922:16001   */\n      tag_356\n      jump\t// in\n    tag_568:\n        /* \"#utility.yul\":15913:16001   */\n      swap2\n      pop\n        /* \"#utility.yul\":15729:16007   */\n      pop\n        /* \"#utility.yul\":15667:16007   */\n      swap3\n      swap2\n      pop\n      pop\n      jump\t// out\n        /* \"#utility.yul\":16029:16974   */\n    tag_358:\n        /* \"#utility.yul\":16135:16140   */\n      0x00\n        /* \"#utility.yul\":16160:16251   */\n      tag_570\n        /* \"#utility.yul\":16176:16250   */\n      tag_571\n        /* \"#utility.yul\":16243:16249   */\n      dup5\n        /* \"#utility.yul\":16176:16250   */\n      tag_352\n      jump\t// in\n    tag_571:\n        /* \"#utility.yul\":16160:16251   */\n      tag_351\n      jump\t// in\n    tag_570:\n        /* \"#utility.yul\":16151:16251   */\n      swap1\n      pop\n        /* \"#utility.yul\":16271:16276   */\n      dup1\n        /* \"#utility.yul\":16300:16306   */\n      dup4\n        /* \"#utility.yul\":16293:16298   */\n      dup3\n        /* \"#utility.yul\":16286:16307   */\n      mstore\n        /* \"#utility.yul\":16334:16338   */\n      0x20\n        /* \"#utility.yul\":16327:16332   */\n      dup3\n        /* \"#utility.yul\":16323:16339   */\n      add\n        /* \"#utility.yul\":16316:16339   */\n      swap1\n      pop\n        /* \"#utility.yul\":16387:16391   */\n      0x20\n        /* \"#utility.yul\":16379:16385   */\n      dup5\n        /* \"#utility.yul\":16375:16392   */\n      mul\n        /* \"#utility.yul\":16367:16373   */\n      dup4\n        /* \"#utility.yul\":16363:16393   */\n      add\n        /* \"#utility.yul\":16416:16419   */\n      dup6\n        /* \"#utility.yul\":16408:16414   */\n      dup2\n        /* \"#utility.yul\":16405:16420   */\n      gt\n        /* \"#utility.yul\":16402:16524   */\n      iszero\n      tag_572\n      jumpi\n        /* \"#utility.yul\":16435:16514   */\n      tag_573\n      tag_348\n      jump\t// in\n    tag_573:\n        /* \"#utility.yul\":16402:16524   */\n    tag_572:\n        /* \"#utility.yul\":16550:16556   */\n      dup4\n        /* \"#utility.yul\":16533:16968   */\n    tag_574:\n        /* \"#utility.yul\":16567:16573   */\n      dup2\n        /* \"#utility.yul\":16562:16565   */\n      dup2\n        /* \"#utility.yul\":16559:16574   */\n      lt\n        /* \"#utility.yul\":16533:16968   */\n      iszero\n      tag_576\n      jumpi\n        /* \"#utility.yul\":16656:16659   */\n      dup1\n        /* \"#utility.yul\":16643:16660   */\n      calldataload\n        /* \"#utility.yul\":16692:16710   */\n      0xffffffffffffffff\n        /* \"#utility.yul\":16679:16690   */\n      dup2\n        /* \"#utility.yul\":16676:16711   */\n      gt\n        /* \"#utility.yul\":16673:16795   */\n      iszero\n      tag_577\n      jumpi\n        /* \"#utility.yul\":16714:16793   */\n      tag_578\n      tag_346\n      jump\t// in\n    tag_578:\n        /* \"#utility.yul\":16673:16795   */\n    tag_577:\n        /* \"#utility.yul\":16838:16849   */\n      dup1\n        /* \"#utility.yul\":16830:16836   */\n      dup7\n        /* \"#utility.yul\":16826:16850   */\n      add\n        /* \"#utility.yul\":16876:16923   */\n      tag_579\n        /* \"#utility.yul\":16919:16922   */\n      dup10\n        /* \"#utility.yul\":16907:16917   */\n      dup3\n        /* \"#utility.yul\":16876:16923   */\n      tag_357\n      jump\t// in\n    tag_579:\n        /* \"#utility.yul\":16871:16874   */\n      dup6\n        /* \"#utility.yul\":16864:16924   */\n      mstore\n        /* \"#utility.yul\":16953:16957   */\n      0x20\n        /* \"#utility.yul\":16948:16951   */\n      dup6\n        /* \"#utility.yul\":16944:16958   */\n      add\n        /* \"#utility.yul\":16937:16958   */\n      swap5\n      pop\n        /* \"#utility.yul\":16609:16968   */\n      pop\n      pop\n        /* \"#utility.yul\":16593:16597   */\n      0x20\n        /* \"#utility.yul\":16588:16591   */\n      dup2\n        /* \"#utility.yul\":16584:16598   */\n      add\n        /* \"#utility.yul\":16577:16598   */\n      swap1\n      pop\n        /* \"#utility.yul\":16533:16968   */\n      jump(tag_574)\n    tag_576:\n        /* \"#utility.yul\":16537:16558   */\n      pop\n        /* \"#utility.yul\":16141:16974   */\n      pop\n      pop\n        /* \"#utility.yul\":16029:16974   */\n      swap4\n      swap3\n      pop\n      pop\n      pop\n      jump\t// out\n        /* \"#utility.yul\":16996:17386   */\n    tag_359:\n        /* \"#utility.yul\":17077:17082   */\n      0x00\n        /* \"#utility.yul\":17126:17129   */\n      dup3\n        /* \"#utility.yul\":17119:17123   */\n      0x1f\n        /* \"#utility.yul\":17111:17117   */\n      dup4\n        /* \"#utility.yul\":17107:17124   */\n      add\n        /* \"#utility.yul\":17103:17130   */\n      slt\n        /* \"#utility.yul\":17093:17215   */\n      tag_581\n      jumpi\n        /* \"#utility.yul\":17134:17213   */\n      tag_582\n      tag_346\n      jump\t// in\n    tag_582:\n        /* \"#utility.yul\":17093:17215   */\n    tag_581:\n        /* \"#utility.yul\":17251:17257   */\n      dup2\n        /* \"#utility.yul\":17238:17258   */\n      calldataload\n        /* \"#utility.yul\":17276:17380   */\n      tag_583\n        /* \"#utility.yul\":17376:17379   */\n      dup5\n        /* \"#utility.yul\":17368:17374   */\n      dup3\n        /* \"#utility.yul\":17361:17365   */\n      0x20\n        /* \"#utility.yul\":17353:17359   */\n      dup7\n        /* \"#utility.yul\":17349:17366   */\n      add\n        /* \"#utility.yul\":17276:17380   */\n      tag_358\n      jump\t// in\n    tag_583:\n        /* \"#utility.yul\":17267:17380   */\n      swap2\n      pop\n        /* \"#utility.yul\":17083:17386   */\n      pop\n        /* \"#utility.yul\":16996:17386   */\n      swap3\n      swap2\n      pop\n      pop\n      jump\t// out\n        /* \"#utility.yul\":17392:18241   */\n    tag_121:\n        /* \"#utility.yul\":17504:17510   */\n      0x00\n        /* \"#utility.yul\":17512:17518   */\n      dup1\n        /* \"#utility.yul\":17520:17526   */\n      0x00\n        /* \"#utility.yul\":17569:17571   */\n      0x60\n        /* \"#utility.yul\":17557:17566   */\n      dup5\n        /* \"#utility.yul\":17548:17555   */\n      dup7\n        /* \"#utility.yul\":17544:17567   */\n      sub\n        /* \"#utility.yul\":17540:17572   */\n      slt\n        /* \"#utility.yul\":17537:17656   */\n      iszero\n      tag_585\n      jumpi\n        /* \"#utility.yul\":17575:17654   */\n      tag_586\n      tag_310\n      jump\t// in\n    tag_586:\n        /* \"#utility.yul\":17537:17656   */\n    tag_585:\n        /* \"#utility.yul\":17695:17696   */\n      0x00\n        /* \"#utility.yul\":17720:17773   */\n      tag_587\n        /* \"#utility.yul\":17765:17772   */\n      dup7\n        /* \"#utility.yul\":17756:17762   */\n      dup3\n        /* \"#utility.yul\":17745:17754   */\n      dup8\n        /* \"#utility.yul\":17741:17763   */\n      add\n        /* \"#utility.yul\":17720:17773   */\n      tag_314\n      jump\t// in\n    tag_587:\n        /* \"#utility.yul\":17710:17773   */\n      swap4\n      pop\n        /* \"#utility.yul\":17666:17783   */\n      pop\n        /* \"#utility.yul\":17822:17824   */\n      0x20\n        /* \"#utility.yul\":17848:17901   */\n      tag_588\n        /* \"#utility.yul\":17893:17900   */\n      dup7\n        /* \"#utility.yul\":17884:17890   */\n      dup3\n        /* \"#utility.yul\":17873:17882   */\n      dup8\n        /* \"#utility.yul\":17869:17891   */\n      add\n        /* \"#utility.yul\":17848:17901   */\n      tag_314\n      jump\t// in\n    tag_588:\n        /* \"#utility.yul\":17838:17901   */\n      swap3\n      pop\n        /* \"#utility.yul\":17793:17911   */\n      pop\n        /* \"#utility.yul\":17978:17980   */\n      0x40\n        /* \"#utility.yul\":17967:17976   */\n      dup5\n        /* \"#utility.yul\":17963:17981   */\n      add\n        /* \"#utility.yul\":17950:17982   */\n      calldataload\n        /* \"#utility.yul\":18009:18027   */\n      0xffffffffffffffff\n        /* \"#utility.yul\":18001:18007   */\n      dup2\n        /* \"#utility.yul\":17998:18028   */\n      gt\n        /* \"#utility.yul\":17995:18112   */\n      iszero\n      tag_589\n      jumpi\n        /* \"#utility.yul\":18031:18110   */\n      tag_590\n      tag_311\n      jump\t// in\n    tag_590:\n        /* \"#utility.yul\":17995:18112   */\n    tag_589:\n        /* \"#utility.yul\":18136:18224   */\n      tag_591\n        /* \"#utility.yul\":18216:18223   */\n      dup7\n        /* \"#utility.yul\":18207:18213   */\n      dup3\n        /* \"#utility.yul\":18196:18205   */\n      dup8\n        /* \"#utility.yul\":18192:18214   */\n      add\n        /* \"#utility.yul\":18136:18224   */\n      tag_359\n      jump\t// in\n    tag_591:\n        /* \"#utility.yul\":18126:18224   */\n      swap2\n      pop\n        /* \"#utility.yul\":17921:18234   */\n      pop\n        /* \"#utility.yul\":17392:18241   */\n      swap3\n      pop\n      swap3\n      pop\n      swap3\n      jump\t// out\n        /* \"#utility.yul\":18247:18427   */\n    tag_132:\n        /* \"#utility.yul\":18295:18372   */\n      0x4e487b7100000000000000000000000000000000000000000000000000000000\n        /* \"#utility.yul\":18292:18293   */\n      0x00\n        /* \"#utility.yul\":18285:18373   */\n      mstore\n        /* \"#utility.yul\":18392:18396   */\n      0x32\n        /* \"#utility.yul\":18389:18390   */\n      0x04\n        /* \"#utility.yul\":18382:18397   */\n      mstore\n        /* \"#utility.yul\":18416:18420   */\n      0x24\n        /* \"#utility.yul\":18413:18414   */\n      0x00\n        /* \"#utility.yul\":18406:18421   */\n      revert\n        /* \"#utility.yul\":18433:18613   */\n    tag_360:\n        /* \"#utility.yul\":18481:18558   */\n      0x4e487b7100000000000000000000000000000000000000000000000000000000\n        /* \"#utility.yul\":18478:18479   */\n      0x00\n        /* \"#utility.yul\":18471:18559   */\n      mstore\n        /* \"#utility.yul\":18578:18582   */\n      0x11\n        /* \"#utility.yul\":18575:18576   */\n      0x04\n        /* \"#utility.yul\":18568:18583   */\n      mstore\n        /* \"#utility.yul\":18602:18606   */\n      0x24\n        /* \"#utility.yul\":18599:18600   */\n      0x00\n        /* \"#utility.yul\":18592:18607   */\n      revert\n        /* \"#utility.yul\":18619:18810   */\n    tag_135:\n        /* \"#utility.yul\":18659:18662   */\n      0x00\n        /* \"#utility.yul\":18678:18698   */\n      tag_595\n        /* \"#utility.yul\":18696:18697   */\n      dup3\n        /* \"#utility.yul\":18678:18698   */\n      tag_312\n      jump\t// in\n    tag_595:\n        /* \"#utility.yul\":18673:18698   */\n      swap2\n      pop\n        /* \"#utility.yul\":18712:18732   */\n      tag_596\n        /* \"#utility.yul\":18730:18731   */\n      dup4\n        /* \"#utility.yul\":18712:18732   */\n      tag_312\n      jump\t// in\n    tag_596:\n        /* \"#utility.yul\":18707:18732   */\n      swap3\n      pop\n        /* \"#utility.yul\":18755:18756   */\n      dup3\n        /* \"#utility.yul\":18752:18753   */\n      dup3\n        /* \"#utility.yul\":18748:18757   */\n      add\n        /* \"#utility.yul\":18741:18757   */\n      swap1\n      pop\n        /* \"#utility.yul\":18776:18779   */\n      dup1\n        /* \"#utility.yul\":18773:18774   */\n      dup3\n        /* \"#utility.yul\":18770:18780   */\n      gt\n        /* \"#utility.yul\":18767:18803   */\n      iszero\n      tag_597\n      jumpi\n        /* \"#utility.yul\":18783:18801   */\n      tag_598\n      tag_360\n      jump\t// in\n    tag_598:\n        /* \"#utility.yul\":18767:18803   */\n    tag_597:\n        /* \"#utility.yul\":18619:18810   */\n      swap3\n      swap2\n      pop\n      pop\n      jump\t// out\n        /* \"#utility.yul\":18816:19049   */\n    tag_137:\n        /* \"#utility.yul\":18855:18858   */\n      0x00\n        /* \"#utility.yul\":18878:18902   */\n      tag_600\n        /* \"#utility.yul\":18896:18901   */\n      dup3\n        /* \"#utility.yul\":18878:18902   */\n      tag_312\n      jump\t// in\n    tag_600:\n        /* \"#utility.yul\":18869:18902   */\n      swap2\n      pop\n        /* \"#utility.yul\":18924:18990   */\n      0xffffffffffffffffffffffffffffffffffffffffffffffffffffffffffffffff\n        /* \"#utility.yul\":18917:18922   */\n      dup3\n        /* \"#utility.yul\":18914:18991   */\n      sub\n        /* \"#utility.yul\":18911:19014   */\n      tag_601\n      jumpi\n        /* \"#utility.yul\":18994:19012   */\n      tag_602\n      tag_360\n      jump\t// in\n    tag_602:\n        /* \"#utility.yul\":18911:19014   */\n    tag_601:\n        /* \"#utility.yul\":19041:19042   */\n      0x01\n        /* \"#utility.yul\":19034:19039   */\n      dup3\n        /* \"#utility.yul\":19030:19043   */\n      add\n        /* \"#utility.yul\":19023:19043   */\n      swap1\n      pop\n        /* \"#utility.yul\":18816:19049   */\n      swap2\n      swap1\n      pop\n      jump\t// out\n        /* \"#utility.yul\":19055:19235   */\n    tag_361:\n        /* \"#utility.yul\":19103:19180   */\n      0x4e487b7100000000000000000000000000000000000000000000000000000000\n        /* \"#utility.yul\":19100:19101   */\n      0x00\n        /* \"#utility.yul\":19093:19181   */\n      mstore\n        /* \"#utility.yul\":19200:19204   */\n      0x22\n        /* \"#utility.yul\":19197:19198   */\n      0x04\n        /* \"#utility.yul\":19190:19205   */\n      mstore\n        /* \"#utility.yul\":19224:19228   */\n      0x24\n        /* \"#utility.yul\":19221:19222   */\n      0x00\n        /* \"#utility.yul\":19214:19229   */\n      revert\n        /* \"#utility.yul\":19241:19561   */\n    tag_145:\n        /* \"#utility.yul\":19285:19291   */\n      0x00\n        /* \"#utility.yul\":19322:19323   */\n      0x02\n        /* \"#utility.yul\":19316:19320   */\n      dup3\n        /* \"#utility.yul\":19312:19324   */\n      div\n        /* \"#utility.yul\":19302:19324   */\n      swap1\n      pop\n        /* \"#utility.yul\":19369:19370   */\n      0x01\n        /* \"#utility.yul\":19363:19367   */\n      dup3\n        /* \"#utility.yul\":19359:19371   */\n      and\n        /* \"#utility.yul\":19390:19408   */\n      dup1\n        /* \"#utility.yul\":19380:19461   */\n      tag_605\n      jumpi\n        /* \"#utility.yul\":19446:19450   */\n      0x7f\n        /* \"#utility.yul\":19438:19444   */\n      dup3\n        /* \"#utility.yul\":19434:19451   */\n      and\n        /* \"#utility.yul\":19424:19451   */\n      swap2\n      pop\n        /* \"#utility.yul\":19380:19461   */\n    tag_605:\n        /* \"#utility.yul\":19508:19510   */\n      0x20\n        /* \"#utility.yul\":19500:19506   */\n      dup3\n        /* \"#utility.yul\":19497:19511   */\n      lt\n        /* \"#utility.yul\":19477:19495   */\n      dup2\n        /* \"#utility.yul\":19474:19512   */\n      sub\n        /* \"#utility.yul\":19471:19555   */\n      tag_606\n      jumpi\n        /* \"#utility.yul\":19527:19545   */\n      tag_607\n      tag_361\n      jump\t// in\n    tag_607:\n        /* \"#utility.yul\":19471:19555   */\n    tag_606:\n        /* \"#utility.yul\":19292:19561   */\n      pop\n        /* \"#utility.yul\":19241:19561   */\n      swap2\n      swap1\n      pop\n      jump\t// out\n        /* \"#utility.yul\":19567:19730   */\n    tag_362:\n        /* \"#utility.yul\":19707:19722   */\n      0x416c726561647920766f74656400000000000000000000000000000000000000\n        /* \"#utility.yul\":19703:19704   */\n      0x00\n        /* \"#utility.yul\":19695:19701   */\n      dup3\n        /* \"#utility.yul\":19691:19705   */\n      add\n        /* \"#utility.yul\":19684:19723   */\n      mstore\n        /* \"#utility.yul\":19567:19730   */\n      pop\n      jump\t// out\n        /* \"#utility.yul\":19736:20102   */\n    tag_363:\n        /* \"#utility.yul\":19878:19881   */\n      0x00\n        /* \"#utility.yul\":19899:19966   */\n      tag_610\n        /* \"#utility.yul\":19963:19965   */\n      0x0d\n        /* \"#utility.yul\":19958:19961   */\n      dup4\n        /* \"#utility.yul\":19899:19966   */\n      tag_342\n      jump\t// in\n    tag_610:\n        /* \"#utility.yul\":19892:19966   */\n      swap2\n      pop\n        /* \"#utility.yul\":19975:20068   */\n      tag_611\n        /* \"#utility.yul\":20064:20067   */\n      dup3\n        /* \"#utility.yul\":19975:20068   */\n      tag_362\n      jump\t// in\n    tag_611:\n        /* \"#utility.yul\":20093:20095   */\n      0x20\n        /* \"#utility.yul\":20088:20091   */\n      dup3\n        /* \"#utility.yul\":20084:20096   */\n      add\n        /* \"#utility.yul\":20077:20096   */\n      swap1\n      pop\n        /* \"#utility.yul\":19736:20102   */\n      swap2\n      swap1\n      pop\n      jump\t// out\n        /* \"#utility.yul\":20108:20527   */\n    tag_162:\n        /* \"#utility.yul\":20274:20278   */\n      0x00\n        /* \"#utility.yul\":20312:20314   */\n      0x20\n        /* \"#utility.yul\":20301:20310   */\n      dup3\n        /* \"#utility.yul\":20297:20315   */\n      add\n        /* \"#utility.yul\":20289:20315   */\n      swap1\n      pop\n        /* \"#utility.yul\":20361:20370   */\n      dup2\n        /* \"#utility.yul\":20355:20359   */\n      dup2\n        /* \"#utility.yul\":20351:20371   */\n      sub\n        /* \"#utility.yul\":20347:20348   */\n      0x00\n        /* \"#utility.yul\":20336:20345   */\n      dup4\n        /* \"#utility.yul\":20332:20349   */\n      add\n        /* \"#utility.yul\":20325:20372   */\n      mstore\n        /* \"#utility.yul\":20389:20520   */\n      tag_613\n        /* \"#utility.yul\":20515:20519   */\n      dup2\n        /* \"#utility.yul\":20389:20520   */\n      tag_363\n      jump\t// in\n    tag_613:\n        /* \"#utility.yul\":20381:20520   */\n      swap1\n      pop\n        /* \"#utility.yul\":20108:20527   */\n      swap2\n      swap1\n      pop\n      jump\t// out\n        /* \"#utility.yul\":20533:20697   */\n    tag_364:\n        /* \"#utility.yul\":20673:20689   */\n      0x506f6c6c20697320636c6f736564000000000000000000000000000000000000\n        /* \"#utility.yul\":20669:20670   */\n      0x00\n        /* \"#utility.yul\":20661:20667   */\n      dup3\n        /* \"#utility.yul\":20657:20671   */\n      add\n        /* \"#utility.yul\":20650:20690   */\n      mstore\n        /* \"#utility.yul\":20533:20697   */\n      pop\n      jump\t// out\n        /* \"#utility.yul\":20703:21069   */\n    tag_365:\n        /* \"#utility.yul\":20845:20848   */\n      0x00\n        /* \"#utility.yul\":20866:20933   */\n      tag_616\n        /* \"#utility.yul\":20930:20932   */\n      0x0e\n        /* \"#utility.yul\":20925:20928   */\n      dup4\n        /* \"#utility.yul\":20866:20933   */\n      tag_342\n      jump\t// in\n    tag_616:\n        /* \"#utility.yul\":20859:20933   */\n      swap2\n      pop\n        /* \"#utility.yul\":20942:21035   */\n      tag_617\n        /* \"#utility.yul\":21031:21034   */\n      dup3\n        /* \"#utility.yul\":20942:21035   */\n      tag_364\n      jump\t// in\n    tag_617:\n        /* \"#utility.yul\":21060:21062   */\n      0x20\n        /* \"#utility.yul\":21055:21058   */\n      dup3\n        /* \"#utility.yul\":21051:21063   */\n      add\n        /* \"#utility.yul\":21044:21063   */\n      swap1\n      pop\n        /* \"#utility.yul\":20703:21069   */\n      swap2\n      swap1\n      pop\n      jump\t// out\n        /* \"#utility.yul\":21075:21494   */\n    tag_165:\n        /* \"#utility.yul\":21241:21245   */\n      0x00\n        /* \"#utility.yul\":21279:21281   */\n      0x20\n        /* \"#utility.yul\":21268:21277   */\n      dup3\n        /* \"#utility.yul\":21264:21282   */\n      add\n        /* \"#utility.yul\":21256:21282   */\n      swap1\n      pop\n        /* \"#utility.yul\":21328:21337   */\n      dup2\n        /* \"#utility.yul\":21322:21326   */\n      dup2\n        /* \"#utility.yul\":21318:21338   */\n      sub\n        /* \"#utility.yul\":21314:21315   */\n      0x00\n        /* \"#utility.yul\":21303:21312   */\n      dup4\n        /* \"#utility.yul\":21299:21316   */\n      add\n        /* \"#utility.yul\":21292:21339   */\n      mstore\n        /* \"#utility.yul\":21356:21487   */\n      tag_619\n        /* \"#utility.yul\":21482:21486   */\n      dup2\n        /* \"#utility.yul\":21356:21487   */\n      tag_365\n      jump\t// in\n    tag_619:\n        /* \"#utility.yul\":21348:21487   */\n      swap1\n      pop\n        /* \"#utility.yul\":21075:21494   */\n      swap2\n      swap1\n      pop\n      jump\t// out\n        /* \"#utility.yul\":21500:21668   */\n    tag_366:\n        /* \"#utility.yul\":21640:21660   */\n      0x506f6c6c206973206e6f74206163746976650000000000000000000000000000\n        /* \"#utility.yul\":21636:21637   */\n      0x00\n        /* \"#utility.yul\":21628:21634   */\n      dup3\n        /* \"#utility.yul\":21624:21638   */\n      add\n        /* \"#utility.yul\":21617:21661   */\n      mstore\n        /* \"#utility.yul\":21500:21668   */\n      pop\n      jump\t// out\n        /* \"#utility.yul\":21674:22040   */\n    tag_367:\n        /* \"#utility.yul\":21816:21819   */\n      0x00\n        /* \"#utility.yul\":21837:21904   */\n      tag_622\n        /* \"#utility.yul\":21901:21903   */\n      0x12\n        /* \"#utility.yul\":21896:21899   */\n      dup4\n        /* \"#utility.yul\":21837:21904   */\n      tag_342\n      jump\t// in\n    tag_622:\n        /* \"#utility.yul\":21830:21904   */\n      swap2\n      pop\n        /* \"#utility.yul\":21913:22006   */\n      tag_623\n        /* \"#utility.yul\":22002:22005   */\n      dup3\n        /* \"#utility.yul\":21913:22006   */\n      tag_366\n      jump\t// in\n    tag_623:\n        /* \"#utility.yul\":22031:22033   */\n      0x20\n        /* \"#utility.yul\":22026:22029   */\n      dup3\n        /* \"#utility.yul\":22022:22034   */\n      add\n        /* \"#utility.yul\":22015:22034   */\n      swap1\n      pop\n        /* \"#utility.yul\":21674:22040   */\n      swap2\n      swap1\n      pop\n      jump\t// out\n        /* \"#utility.yul\":22046:22465   */\n    tag_169:\n        /* \"#utility.yul\":22212:22216   */\n      0x00\n        /* \"#utility.yul\":22250:22252   */\n      0x20\n        /* \"#utility.yul\":22239:22248   */\n      dup3\n        /* \"#utility.yul\":22235:22253   */\n      add\n        /* \"#utility.yul\":22227:22253   */\n      swap1\n      pop\n        /* \"#utility.yul\":22299:22308   */\n      dup2\n        /* \"#utility.yul\":22293:22297   */\n      dup2\n        /* \"#utility.yul\":22289:22309   */\n      sub\n        /* \"#utility.yul\":22285:22286   */\n      0x00\n        /* \"#utility.yul\":22274:22283   */\n      dup4\n        /* \"#utility.yul\":22270:22287   */\n      add\n        /* \"#utility.yul\":22263:22310   */\n      mstore\n        /* \"#utility.yul\":22327:22458   */\n      tag_625\n        /* \"#utility.yul\":22453:22457   */\n      dup2\n        /* \"#utility.yul\":22327:22458   */\n      tag_367\n      jump\t// in\n    tag_625:\n        /* \"#utility.yul\":22319:22458   */\n      swap1\n      pop\n        /* \"#utility.yul\":22046:22465   */\n      swap2\n      swap1\n      pop\n      jump\t// out\n        /* \"#utility.yul\":22471:22635   */\n    tag_368:\n        /* \"#utility.yul\":22611:22627   */\n      0x496e76616c69642063686f696365000000000000000000000000000000000000\n        /* \"#utility.yul\":22607:22608   */\n      0x00\n        /* \"#utility.yul\":22599:22605   */\n      dup3\n        /* \"#utility.yul\":22595:22609   */\n      add\n        /* \"#utility.yul\":22588:22628   */\n      mstore\n        /* \"#utility.yul\":22471:22635   */\n      pop\n      jump\t// out\n        /* \"#utility.yul\":22641:23007   */\n    tag_369:\n        /* \"#utility.yul\":22783:22786   */\n      0x00\n        /* \"#utility.yul\":22804:22871   */\n      tag_628\n        /* \"#utility.yul\":22868:22870   */\n      0x0e\n        /* \"#utility.yul\":22863:22866   */\n      dup4\n        /* \"#utility.yul\":22804:22871   */\n      tag_342\n      jump\t// in\n    tag_628:\n        /* \"#utility.yul\":22797:22871   */\n      swap2\n      pop\n        /* \"#utility.yul\":22880:22973   */\n      tag_629\n        /* \"#utility.yul\":22969:22972   */\n      dup3\n        /* \"#utility.yul\":22880:22973   */\n      tag_368\n      jump\t// in\n    tag_629:\n        /* \"#utility.yul\":22998:23000   */\n      0x20\n        /* \"#utility.yul\":22993:22996   */\n      dup3\n        /* \"#utility.yul\":22989:23001   */\n      add\n        /* \"#utility.yul\":22982:23001   */\n      swap1\n      pop\n        /* \"#utility.yul\":22641:23007   */\n      swap2\n      swap1\n      pop\n      jump\t// out\n        /* \"#utility.yul\":23013:23432   */\n    tag_173:\n        /* \"#utility.yul\":23179:23183   */\n      0x00\n        /* \"#utility.yul\":23217:23219   */\n      0x20\n        /* \"#utility.yul\":23206:23215   */\n      dup3\n        /* \"#utility.yul\":23202:23220   */\n      add\n        /* \"#utility.yul\":23194:23220   */\n      swap1\n      pop\n        /* \"#utility.yul\":23266:23275   */\n      dup2\n        /* \"#utility.yul\":23260:23264   */\n      dup2\n        /* \"#utility.yul\":23256:23276   */\n      sub\n        /* \"#utility.yul\":23252:23253   */\n      0x00\n        /* \"#utility.yul\":23241:23250   */\n      dup4\n        /* \"#utility.yul\":23237:23254   */\n      add\n        /* \"#utility.yul\":23230:23277   */\n      mstore\n        /* \"#utility.yul\":23294:23425   */\n      tag_631\n        /* \"#utility.yul\":23420:23424   */\n      dup2\n        /* \"#utility.yul\":23294:23425   */\n      tag_369\n      jump\t// in\n    tag_631:\n        /* \"#utility.yul\":23286:23425   */\n      swap1\n      pop\n        /* \"#utility.yul\":23013:23432   */\n      swap2\n      swap1\n      pop\n      jump\t// out\n        /* \"#utility.yul\":23438:23585   */\n    tag_370:\n        /* \"#utility.yul\":23539:23550   */\n      0x00\n        /* \"#utility.yul\":23576:23579   */\n      dup2\n        /* \"#utility.yul\":23561:23579   */\n      swap1\n      pop\n        /* \"#utility.yul\":23438:23585   */\n      swap3\n      swap2\n      pop\n      pop\n      jump\t// out\n        /* \"#utility.yul\":23613:23940   */\n    tag_371:\n        /* \"#utility.yul\":23727:23730   */\n      0x00\n        /* \"#utility.yul\":23748:23836   */\n      tag_634\n        /* \"#utility.yul\":23829:23835   */\n      dup4\n        /* \"#utility.yul\":23824:23827   */\n      dup6\n        /* \"#utility.yul\":23748:23836   */\n      tag_370\n      jump\t// in\n    tag_634:\n        /* \"#utility.yul\":23741:23836   */\n      swap4\n      pop\n        /* \"#utility.yul\":23846:23902   */\n      tag_635\n        /* \"#utility.yul\":23895:23901   */\n      dup4\n        /* \"#utility.yul\":23890:23893   */\n      dup6\n        /* \"#utility.yul\":23883:23888   */\n      dup5\n        /* \"#utility.yul\":23846:23902   */\n      tag_355\n      jump\t// in\n    tag_635:\n        /* \"#utility.yul\":23927:23933   */\n      dup3\n        /* \"#utility.yul\":23922:23925   */\n      dup5\n        /* \"#utility.yul\":23918:23934   */\n      add\n        /* \"#utility.yul\":23911:23934   */\n      swap1\n      pop\n        /* \"#utility.yul\":23613:23940   */\n      swap4\n      swap3\n      pop\n      pop\n      pop\n      jump\t// out\n        /* \"#utility.yul\":23946:24237   */\n    tag_200:\n        /* \"#utility.yul\":24086:24089   */\n      0x00\n        /* \"#utility.yul\":24108:24211   */\n      tag_637\n        /* \"#utility.yul\":24207:24210   */\n      dup3\n        /* \"#utility.yul\":24198:24204   */\n      dup5\n        /* \"#utility.yul\":24190:24196   */\n      dup7\n        /* \"#utility.yul\":24108:24211   */\n      tag_371\n      jump\t// in\n    tag_637:\n        /* \"#utility.yul\":24101:24211   */\n      swap2\n      pop\n        /* \"#utility.yul\":24228:24231   */\n      dup2\n        /* \"#utility.yul\":24221:24231   */\n      swap1\n      pop\n        /* \"#utility.yul\":23946:24237   */\n      swap4\n      swap3\n      pop\n      pop\n      pop\n      jump\t// out\n        /* \"#utility.yul\":24243:24387   */\n    tag_372:\n        /* \"#utility.yul\":24295:24299   */\n      0x00\n        /* \"#utility.yul\":24318:24321   */\n      dup2\n        /* \"#utility.yul\":24310:24321   */\n      swap1\n      pop\n        /* \"#utility.yul\":24341:24344   */\n      dup2\n        /* \"#utility.yul\":24338:24339   */\n      0x00\n        /* \"#utility.yul\":24331:24345   */\n      mstore\n        /* \"#utility.yul\":24375:24379   */\n      0x20\n        /* \"#utility.yul\":24372:24373   */\n      0x00\n        /* \"#utility.yul\":24362:24380   */\n      keccak256\n        /* \"#utility.yul\":24354:24380   */\n      swap1\n      pop\n        /* \"#utility.yul\":24243:24387   */\n      swap2\n      swap1\n      pop\n      jump\t// out\n        /* \"#utility.yul\":24415:25293   */\n    tag_373:\n        /* \"#utility.yul\":24520:24523   */\n      0x00\n        /* \"#utility.yul\":24557:24562   */\n      dup2\n        /* \"#utility.yul\":24551:24563   */\n      sload\n        /* \"#utility.yul\":24586:24622   */\n      tag_640\n        /* \"#utility.yul\":24612:24621   */\n      dup2\n        /* \"#utility.yul\":24586:24622   */\n      tag_145\n      jump\t// in\n    tag_640:\n        /* \"#utility.yul\":24638:24726   */\n      tag_641\n        /* \"#utility.yul\":24719:24725   */\n      dup2\n        /* \"#utility.yul\":24714:24717   */\n      dup7\n        /* \"#utility.yul\":24638:24726   */\n      tag_370\n      jump\t// in\n    tag_641:\n        /* \"#utility.yul\":24631:24726   */\n      swap5\n      pop\n        /* \"#utility.yul\":24757:24758   */\n      0x01\n        /* \"#utility.yul\":24746:24755   */\n      dup3\n        /* \"#utility.yul\":24742:24759   */\n      and\n        /* \"#utility.yul\":24773:24774   */\n      0x00\n        /* \"#utility.yul\":24768:24934   */\n      dup2\n      eq\n      tag_643\n      jumpi\n        /* \"#utility.yul\":24948:24949   */\n      0x01\n        /* \"#utility.yul\":24943:25287   */\n      dup2\n      eq\n      tag_644\n      jumpi\n        /* \"#utility.yul\":24735:25287   */\n      jump(tag_642)\n        /* \"#utility.yul\":24768:24934   */\n    tag_643:\n        /* \"#utility.yul\":24852:24856   */\n      0xff\n        /* \"#utility.yul\":24848:24857   */\n      not\n        /* \"#utility.yul\":24837:24846   */\n      dup4\n        /* \"#utility.yul\":24833:24858   */\n      and\n        /* \"#utility.yul\":24828:24831   */\n      dup7\n        /* \"#utility.yul\":24821:24859   */\n      mstore\n        /* \"#utility.yul\":24914:24920   */\n      dup2\n        /* \"#utility.yul\":24907:24921   */\n      iszero\n        /* \"#utility.yul\":24900:24922   */\n      iszero\n        /* \"#utility.yul\":24892:24898   */\n      dup3\n        /* \"#utility.yul\":24888:24923   */\n      mul\n        /* \"#utility.yul\":24883:24886   */\n      dup7\n        /* \"#utility.yul\":24879:24924   */\n      add\n        /* \"#utility.yul\":24872:24924   */\n      swap4\n      pop\n        /* \"#utility.yul\":24768:24934   */\n      jump(tag_642)\n        /* \"#utility.yul\":24943:25287   */\n    tag_644:\n        /* \"#utility.yul\":25010:25051   */\n      tag_645\n        /* \"#utility.yul\":25045:25050   */\n      dup6\n        /* \"#utility.yul\":25010:25051   */\n      tag_372\n      jump\t// in\n    tag_645:\n        /* \"#utility.yul\":25073:25074   */\n      0x00\n        /* \"#utility.yul\":25087:25241   */\n    tag_646:\n        /* \"#utility.yul\":25101:25107   */\n      dup4\n        /* \"#utility.yul\":25098:25099   */\n      dup2\n        /* \"#utility.yul\":25095:25108   */\n      lt\n        /* \"#utility.yul\":25087:25241   */\n      iszero\n      tag_648\n      jumpi\n        /* \"#utility.yul\":25175:25182   */\n      dup2\n        /* \"#utility.yul\":25169:25183   */\n      sload\n        /* \"#utility.yul\":25165:25166   */\n      dup2\n        /* \"#utility.yul\":25160:25163   */\n      dup10\n        /* \"#utility.yul\":25156:25167   */\n      add\n        /* \"#utility.yul\":25149:25184   */\n      mstore\n        /* \"#utility.yul\":25225:25226   */\n      0x01\n        /* \"#utility.yul\":25216:25223   */\n      dup3\n        /* \"#utility.yul\":25212:25227   */\n      add\n        /* \"#utility.yul\":25201:25227   */\n      swap2\n      pop\n        /* \"#utility.yul\":25123:25127   */\n      0x20\n        /* \"#utility.yul\":25120:25121   */\n      dup2\n        /* \"#utility.yul\":25116:25128   */\n      add\n        /* \"#utility.yul\":25111:25128   */\n      swap1\n      pop\n        /* \"#utility.yul\":25087:25241   */\n      jump(tag_646)\n    tag_648:\n        /* \"#utility.yul\":25270:25276   */\n      dup4\n        /* \"#utility.yul\":25265:25268   */\n      dup9\n        /* \"#utility.yul\":25261:25277   */\n      add\n        /* \"#utility.yul\":25254:25277   */\n      swap6\n      pop\n        /* \"#utility.yul\":24950:25287   */\n      pop\n      pop\n        /* \"#utility.yul\":24735:25287   */\n    tag_642:\n      pop\n        /* \"#utility.yul\":24524:25293   */\n      pop\n      pop\n        /* \"#utility.yul\":24415:25293   */\n      swap3\n      swap2\n      pop\n      pop\n      jump\t// out\n        /* \"#utility.yul\":25299:25572   */\n    tag_205:\n        /* \"#utility.yul\":25430:25433   */\n      0x00\n        /* \"#utility.yul\":25452:25546   */\n      tag_650\n        /* \"#utility.yul\":25542:25545   */\n      dup3\n        /* \"#utility.yul\":25533:25539   */\n      dup5\n        /* \"#utility.yul\":25452:25546   */\n      tag_373\n      jump\t// in\n    tag_650:\n        /* \"#utility.yul\":25445:25546   */\n      swap2\n      pop\n        /* \"#utility.yul\":25563:25566   */\n      dup2\n        /* \"#utility.yul\":25556:25566   */\n      swap1\n      pop\n        /* \"#utility.yul\":25299:25572   */\n      swap3\n      swap2\n      pop\n      pop\n      jump\t// out\n        /* \"#utility.yul\":25578:25758   */\n    tag_374:\n        /* \"#utility.yul\":25626:25703   */\n      0x4e487b7100000000000000000000000000000000000000000000000000000000\n        /* \"#utility.yul\":25623:25624   */\n      0x00\n        /* \"#utility.yul\":25616:25704   */\n      mstore\n        /* \"#utility.yul\":25723:25727   */\n      0x12\n        /* \"#utility.yul\":25720:25721   */\n      0x04\n        /* \"#utility.yul\":25713:25728   */\n      mstore\n        /* \"#utility.yul\":25747:25751   */\n      0x24\n        /* \"#utility.yul\":25744:25745   */\n      0x00\n        /* \"#utility.yul\":25737:25752   */\n      revert\n        /* \"#utility.yul\":25764:25949   */\n    tag_216:\n        /* \"#utility.yul\":25804:25805   */\n      0x00\n        /* \"#utility.yul\":25821:25841   */\n      tag_653\n        /* \"#utility.yul\":25839:25840   */\n      dup3\n        /* \"#utility.yul\":25821:25841   */\n      tag_312\n      jump\t// in\n    tag_653:\n        /* \"#utility.yul\":25816:25841   */\n      swap2\n      pop\n        /* \"#utility.yul\":25855:25875   */\n      tag_654\n        /* \"#utility.yul\":25873:25874   */\n      dup4\n        /* \"#utility.yul\":25855:25875   */\n      tag_312\n      jump\t// in\n    tag_654:\n        /* \"#utility.yul\":25850:25875   */\n      swap3\n      pop\n        /* \"#utility.yul\":25894:25895   */\n      dup3\n        /* \"#utility.yul\":25884:25919   */\n      tag_655\n      jumpi\n        /* \"#utility.yul\":25899:25917   */\n      tag_656\n      tag_374\n      jump\t// in\n    tag_656:\n        /* \"#utility.yul\":25884:25919   */\n    tag_655:\n        /* \"#utility.yul\":25941:25942   */\n      dup3\n        /* \"#utility.yul\":25938:25939   */\n      dup3\n        /* \"#utility.yul\":25934:25943   */\n      div\n        /* \"#utility.yul\":25929:25943   */\n      swap1\n      pop\n        /* \"#utility.yul\":25764:25949   */\n      swap3\n      swap2\n      pop\n      pop\n      jump\t// out\n        /* \"#utility.yul\":25955:26188   */\n    tag_375:\n        /* \"#utility.yul\":26095:26129   */\n      0x506f6c6c20686173206e6f742073746172746564207965742c20796f75206361\n        /* \"#utility.yul\":26091:26092   */\n      0x00\n        /* \"#utility.yul\":26083:26089   */\n      dup3\n        /* \"#utility.yul\":26079:26093   */\n      add\n        /* \"#utility.yul\":26072:26130   */\n      mstore\n        /* \"#utility.yul\":26164:26180   */\n      0x6e6e6f7420626574206f6e206974000000000000000000000000000000000000\n        /* \"#utility.yul\":26159:26161   */\n      0x20\n        /* \"#utility.yul\":26151:26157   */\n      dup3\n        /* \"#utility.yul\":26147:26162   */\n      add\n        /* \"#utility.yul\":26140:26181   */\n      mstore\n        /* \"#utility.yul\":25955:26188   */\n      pop\n      jump\t// out\n        /* \"#utility.yul\":26194:26560   */\n    tag_376:\n        /* \"#utility.yul\":26336:26339   */\n      0x00\n        /* \"#utility.yul\":26357:26424   */\n      tag_659\n        /* \"#utility.yul\":26421:26423   */\n      0x2e\n        /* \"#utility.yul\":26416:26419   */\n      dup4\n        /* \"#utility.yul\":26357:26424   */\n      tag_342\n      jump\t// in\n    tag_659:\n        /* \"#utility.yul\":26350:26424   */\n      swap2\n      pop\n        /* \"#utility.yul\":26433:26526   */\n      tag_660\n        /* \"#utility.yul\":26522:26525   */\n      dup3\n        /* \"#utility.yul\":26433:26526   */\n      tag_375\n      jump\t// in\n    tag_660:\n        /* \"#utility.yul\":26551:26553   */\n      0x40\n        /* \"#utility.yul\":26546:26549   */\n      dup3\n        /* \"#utility.yul\":26542:26554   */\n      add\n        /* \"#utility.yul\":26535:26554   */\n      swap1\n      pop\n        /* \"#utility.yul\":26194:26560   */\n      swap2\n      swap1\n      pop\n      jump\t// out\n        /* \"#utility.yul\":26566:26985   */\n    tag_220:\n        /* \"#utility.yul\":26732:26736   */\n      0x00\n        /* \"#utility.yul\":26770:26772   */\n      0x20\n        /* \"#utility.yul\":26759:26768   */\n      dup3\n        /* \"#utility.yul\":26755:26773   */\n      add\n        /* \"#utility.yul\":26747:26773   */\n      swap1\n      pop\n        /* \"#utility.yul\":26819:26828   */\n      dup2\n        /* \"#utility.yul\":26813:26817   */\n      dup2\n        /* \"#utility.yul\":26809:26829   */\n      sub\n        /* \"#utility.yul\":26805:26806   */\n      0x00\n        /* \"#utility.yul\":26794:26803   */\n      dup4\n        /* \"#utility.yul\":26790:26807   */\n      add\n        /* \"#utility.yul\":26783:26830   */\n      mstore\n        /* \"#utility.yul\":26847:26978   */\n      tag_662\n        /* \"#utility.yul\":26973:26977   */\n      dup2\n        /* \"#utility.yul\":26847:26978   */\n      tag_376\n      jump\t// in\n    tag_662:\n        /* \"#utility.yul\":26839:26978   */\n      swap1\n      pop\n        /* \"#utility.yul\":26566:26985   */\n      swap2\n      swap1\n      pop\n      jump\t// out\n        /* \"#utility.yul\":26991:27222   */\n    tag_377:\n        /* \"#utility.yul\":27131:27165   */\n      0x506f6c6c2068617320656e6465642c20796f752063616e6e6f7420626574206f\n        /* \"#utility.yul\":27127:27128   */\n      0x00\n        /* \"#utility.yul\":27119:27125   */\n      dup3\n        /* \"#utility.yul\":27115:27129   */\n      add\n        /* \"#utility.yul\":27108:27166   */\n      mstore\n        /* \"#utility.yul\":27200:27214   */\n      0x6e20697420616e796d6f72650000000000000000000000000000000000000000\n        /* \"#utility.yul\":27195:27197   */\n      0x20\n        /* \"#utility.yul\":27187:27193   */\n      dup3\n        /* \"#utility.yul\":27183:27198   */\n      add\n        /* \"#utility.yul\":27176:27215   */\n      mstore\n        /* \"#utility.yul\":26991:27222   */\n      pop\n      jump\t// out\n        /* \"#utility.yul\":27228:27594   */\n    tag_378:\n        /* \"#utility.yul\":27370:27373   */\n      0x00\n        /* \"#utility.yul\":27391:27458   */\n      tag_665\n        /* \"#utility.yul\":27455:27457   */\n      0x2c\n        /* \"#utility.yul\":27450:27453   */\n      dup4\n        /* \"#utility.yul\":27391:27458   */\n      tag_342\n      jump\t// in\n    tag_665:\n        /* \"#utility.yul\":27384:27458   */\n      swap2\n      pop\n        /* \"#utility.yul\":27467:27560   */\n      tag_666\n        /* \"#utility.yul\":27556:27559   */\n      dup3\n        /* \"#utility.yul\":27467:27560   */\n      tag_377\n      jump\t// in\n    tag_666:\n        /* \"#utility.yul\":27585:27587   */\n      0x40\n        /* \"#utility.yul\":27580:27583   */\n      dup3\n        /* \"#utility.yul\":27576:27588   */\n      add\n        /* \"#utility.yul\":27569:27588   */\n      swap1\n      pop\n        /* \"#utility.yul\":27228:27594   */\n      swap2\n      swap1\n      pop\n      jump\t// out\n        /* \"#utility.yul\":27600:28019   */\n    tag_223:\n        /* \"#utility.yul\":27766:27770   */\n      0x00\n        /* \"#utility.yul\":27804:27806   */\n      0x20\n        /* \"#utility.yul\":27793:27802   */\n      dup3\n        /* \"#utility.yul\":27789:27807   */\n      add\n        /* \"#utility.yul\":27781:27807   */\n      swap1\n      pop\n        /* \"#utility.yul\":27853:27862   */\n      dup2\n        /* \"#utility.yul\":27847:27851   */\n      dup2\n        /* \"#utility.yul\":27843:27863   */\n      sub\n        /* \"#utility.yul\":27839:27840   */\n      0x00\n        /* \"#utility.yul\":27828:27837   */\n      dup4\n        /* \"#utility.yul\":27824:27841   */\n      add\n        /* \"#utility.yul\":27817:27864   */\n      mstore\n        /* \"#utility.yul\":27881:28012   */\n      tag_668\n        /* \"#utility.yul\":28007:28011   */\n      dup2\n        /* \"#utility.yul\":27881:28012   */\n      tag_378\n      jump\t// in\n    tag_668:\n        /* \"#utility.yul\":27873:28012   */\n      swap1\n      pop\n        /* \"#utility.yul\":27600:28019   */\n      swap2\n      swap1\n      pop\n      jump\t// out\n        /* \"#utility.yul\":28025:28205   */\n    tag_379:\n        /* \"#utility.yul\":28165:28197   */\n      0x416d6f756e74206d7573742062652067726561746572207468616e2030210000\n        /* \"#utility.yul\":28161:28162   */\n      0x00\n        /* \"#utility.yul\":28153:28159   */\n      dup3\n        /* \"#utility.yul\":28149:28163   */\n      add\n        /* \"#utility.yul\":28142:28198   */\n      mstore\n        /* \"#utility.yul\":28025:28205   */\n      pop\n      jump\t// out\n        /* \"#utility.yul\":28211:28577   */\n    tag_380:\n        /* \"#utility.yul\":28353:28356   */\n      0x00\n        /* \"#utility.yul\":28374:28441   */\n      tag_671\n        /* \"#utility.yul\":28438:28440   */\n      0x1e\n        /* \"#utility.yul\":28433:28436   */\n      dup4\n        /* \"#utility.yul\":28374:28441   */\n      tag_342\n      jump\t// in\n    tag_671:\n        /* \"#utility.yul\":28367:28441   */\n      swap2\n      pop\n        /* \"#utility.yul\":28450:28543   */\n      tag_672\n        /* \"#utility.yul\":28539:28542   */\n      dup3\n        /* \"#utility.yul\":28450:28543   */\n      tag_379\n      jump\t// in\n    tag_672:\n        /* \"#utility.yul\":28568:28570   */\n      0x20\n        /* \"#utility.yul\":28563:28566   */\n      dup3\n        /* \"#utility.yul\":28559:28571   */\n      add\n        /* \"#utility.yul\":28552:28571   */\n      swap1\n      pop\n        /* \"#utility.yul\":28211:28577   */\n      swap2\n      swap1\n      pop\n      jump\t// out\n        /* \"#utility.yul\":28583:29002   */\n    tag_226:\n        /* \"#utility.yul\":28749:28753   */\n      0x00\n        /* \"#utility.yul\":28787:28789   */\n      0x20\n        /* \"#utility.yul\":28776:28785   */\n      dup3\n        /* \"#utility.yul\":28772:28790   */\n      add\n        /* \"#utility.yul\":28764:28790   */\n      swap1\n      pop\n        /* \"#utility.yul\":28836:28845   */\n      dup2\n        /* \"#utility.yul\":28830:28834   */\n      dup2\n        /* \"#utility.yul\":28826:28846   */\n      sub\n        /* \"#utility.yul\":28822:28823   */\n      0x00\n        /* \"#utility.yul\":28811:28820   */\n      dup4\n        /* \"#utility.yul\":28807:28824   */\n      add\n        /* \"#utility.yul\":28800:28847   */\n      mstore\n        /* \"#utility.yul\":28864:28995   */\n      tag_674\n        /* \"#utility.yul\":28990:28994   */\n      dup2\n        /* \"#utility.yul\":28864:28995   */\n      tag_380\n      jump\t// in\n    tag_674:\n        /* \"#utility.yul\":28856:28995   */\n      swap1\n      pop\n        /* \"#utility.yul\":28583:29002   */\n      swap2\n      swap1\n      pop\n      jump\t// out\n        /* \"#utility.yul\":29008:29300   */\n    tag_381:\n        /* \"#utility.yul\":29148:29182   */\n      0x496e76616c696420706f6c6c2063686f6963652c20706c656173652073656c65\n        /* \"#utility.yul\":29144:29145   */\n      0x00\n        /* \"#utility.yul\":29136:29142   */\n      dup3\n        /* \"#utility.yul\":29132:29146   */\n      add\n        /* \"#utility.yul\":29125:29183   */\n      mstore\n        /* \"#utility.yul\":29217:29251   */\n      0x6374206f6e65206f662074686520706f6c6c2063686f6963657320746f206265\n        /* \"#utility.yul\":29212:29214   */\n      0x20\n        /* \"#utility.yul\":29204:29210   */\n      dup3\n        /* \"#utility.yul\":29200:29215   */\n      add\n        /* \"#utility.yul\":29193:29252   */\n      mstore\n        /* \"#utility.yul\":29286:29292   */\n      0x74206f6e00000000000000000000000000000000000000000000000000000000\n        /* \"#utility.yul\":29281:29283   */\n      0x40\n        /* \"#utility.yul\":29273:29279   */\n      dup3\n        /* \"#utility.yul\":29269:29284   */\n      add\n        /* \"#utility.yul\":29262:29293   */\n      mstore\n        /* \"#utility.yul\":29008:29300   */\n      pop\n      jump\t// out\n        /* \"#utility.yul\":29306:29672   */\n    tag_382:\n        /* \"#utility.yul\":29448:29451   */\n      0x00\n        /* \"#utility.yul\":29469:29536   */\n      tag_677\n        /* \"#utility.yul\":29533:29535   */\n      0x44\n        /* \"#utility.yul\":29528:29531   */\n      dup4\n        /* \"#utility.yul\":29469:29536   */\n      tag_342\n      jump\t// in\n    tag_677:\n        /* \"#utility.yul\":29462:29536   */\n      swap2\n      pop\n        /* \"#utility.yul\":29545:29638   */\n      tag_678\n        /* \"#utility.yul\":29634:29637   */\n      dup3\n        /* \"#utility.yul\":29545:29638   */\n      tag_381\n      jump\t// in\n    tag_678:\n        /* \"#utility.yul\":29663:29665   */\n      0x60\n        /* \"#utility.yul\":29658:29661   */\n      dup3\n        /* \"#utility.yul\":29654:29666   */\n      add\n        /* \"#utility.yul\":29647:29666   */\n      swap1\n      pop\n        /* \"#utility.yul\":29306:29672   */\n      swap2\n      swap1\n      pop\n      jump\t// out\n        /* \"#utility.yul\":29678:30097   */\n    tag_229:\n        /* \"#utility.yul\":29844:29848   */\n      0x00\n        /* \"#utility.yul\":29882:29884   */\n      0x20\n        /* \"#utility.yul\":29871:29880   */\n      dup3\n        /* \"#utility.yul\":29867:29885   */\n      add\n        /* \"#utility.yul\":29859:29885   */\n      swap1\n      pop\n        /* \"#utility.yul\":29931:29940   */\n      dup2\n        /* \"#utility.yul\":29925:29929   */\n      dup2\n        /* \"#utility.yul\":29921:29941   */\n      sub\n        /* \"#utility.yul\":29917:29918   */\n      0x00\n        /* \"#utility.yul\":29906:29915   */\n      dup4\n        /* \"#utility.yul\":29902:29919   */\n      add\n        /* \"#utility.yul\":29895:29942   */\n      mstore\n        /* \"#utility.yul\":29959:30090   */\n      tag_680\n        /* \"#utility.yul\":30085:30089   */\n      dup2\n        /* \"#utility.yul\":29959:30090   */\n      tag_382\n      jump\t// in\n    tag_680:\n        /* \"#utility.yul\":29951:30090   */\n      swap1\n      pop\n        /* \"#utility.yul\":29678:30097   */\n      swap2\n      swap1\n      pop\n      jump\t// out\n        /* \"#utility.yul\":30103:30244   */\n    tag_383:\n        /* \"#utility.yul\":30152:30156   */\n      0x00\n        /* \"#utility.yul\":30175:30178   */\n      dup2\n        /* \"#utility.yul\":30167:30178   */\n      swap1\n      pop\n        /* \"#utility.yul\":30198:30201   */\n      dup2\n        /* \"#utility.yul\":30195:30196   */\n      0x00\n        /* \"#utility.yul\":30188:30202   */\n      mstore\n        /* \"#utility.yul\":30232:30236   */\n      0x20\n        /* \"#utility.yul\":30229:30230   */\n      0x00\n        /* \"#utility.yul\":30219:30237   */\n      keccak256\n        /* \"#utility.yul\":30211:30237   */\n      swap1\n      pop\n        /* \"#utility.yul\":30103:30244   */\n      swap2\n      swap1\n      pop\n      jump\t// out\n        /* \"#utility.yul\":30250:30343   */\n    tag_384:\n        /* \"#utility.yul\":30287:30293   */\n      0x00\n        /* \"#utility.yul\":30334:30336   */\n      0x20\n        /* \"#utility.yul\":30329:30331   */\n      0x1f\n        /* \"#utility.yul\":30322:30327   */\n      dup4\n        /* \"#utility.yul\":30318:30332   */\n      add\n        /* \"#utility.yul\":30314:30337   */\n      div\n        /* \"#utility.yul\":30304:30337   */\n      swap1\n      pop\n        /* \"#utility.yul\":30250:30343   */\n      swap2\n      swap1\n      pop\n      jump\t// out\n        /* \"#utility.yul\":30349:30456   */\n    tag_385:\n        /* \"#utility.yul\":30393:30401   */\n      0x00\n        /* \"#utility.yul\":30443:30448   */\n      dup3\n        /* \"#utility.yul\":30437:30441   */\n      dup3\n        /* \"#utility.yul\":30433:30449   */\n      shl\n        /* \"#utility.yul\":30412:30449   */\n      swap1\n      pop\n        /* \"#utility.yul\":30349:30456   */\n      swap3\n      swap2\n      pop\n      pop\n      jump\t// out\n        /* \"#utility.yul\":30462:30855   */\n    tag_386:\n        /* \"#utility.yul\":30531:30537   */\n      0x00\n        /* \"#utility.yul\":30581:30582   */\n      0x08\n        /* \"#utility.yul\":30569:30579   */\n      dup4\n        /* \"#utility.yul\":30565:30583   */\n      mul\n        /* \"#utility.yul\":30604:30701   */\n      tag_685\n        /* \"#utility.yul\":30634:30700   */\n      0xffffffffffffffffffffffffffffffffffffffffffffffffffffffffffffffff\n        /* \"#utility.yul\":30623:30632   */\n      dup3\n        /* \"#utility.yul\":30604:30701   */\n      tag_385\n      jump\t// in\n    tag_685:\n        /* \"#utility.yul\":30722:30761   */\n      tag_686\n        /* \"#utility.yul\":30752:30760   */\n      dup7\n        /* \"#utility.yul\":30741:30750   */\n      dup4\n        /* \"#utility.yul\":30722:30761   */\n      tag_385\n      jump\t// in\n    tag_686:\n        /* \"#utility.yul\":30710:30761   */\n      swap6\n      pop\n        /* \"#utility.yul\":30794:30798   */\n      dup1\n        /* \"#utility.yul\":30790:30799   */\n      not\n        /* \"#utility.yul\":30783:30788   */\n      dup5\n        /* \"#utility.yul\":30779:30800   */\n      and\n        /* \"#utility.yul\":30770:30800   */\n      swap4\n      pop\n        /* \"#utility.yul\":30843:30847   */\n      dup1\n        /* \"#utility.yul\":30833:30841   */\n      dup7\n        /* \"#utility.yul\":30829:30848   */\n      and\n        /* \"#utility.yul\":30822:30827   */\n      dup5\n        /* \"#utility.yul\":30819:30849   */\n      or\n        /* \"#utility.yul\":30809:30849   */\n      swap3\n      pop\n        /* \"#utility.yul\":30538:30855   */\n      pop\n      pop\n        /* \"#utility.yul\":30462:30855   */\n      swap4\n      swap3\n      pop\n      pop\n      pop\n      jump\t// out\n        /* \"#utility.yul\":30861:30921   */\n    tag_387:\n        /* \"#utility.yul\":30889:30892   */\n      0x00\n        /* \"#utility.yul\":30910:30915   */\n      dup2\n        /* \"#utility.yul\":30903:30915   */\n      swap1\n      pop\n        /* \"#utility.yul\":30861:30921   */\n      swap2\n      swap1\n      pop\n      jump\t// out\n        /* \"#utility.yul\":30927:31069   */\n    tag_388:\n        /* \"#utility.yul\":30977:30986   */\n      0x00\n        /* \"#utility.yul\":31010:31063   */\n      tag_689\n        /* \"#utility.yul\":31028:31062   */\n      tag_690\n        /* \"#utility.yul\":31037:31061   */\n      tag_691\n        /* \"#utility.yul\":31055:31060   */\n      dup5\n        /* \"#utility.yul\":31037:31061   */\n      tag_312\n      jump\t// in\n    tag_691:\n        /* \"#utility.yul\":31028:31062   */\n      tag_387\n      jump\t// in\n    tag_690:\n        /* \"#utility.yul\":31010:31063   */\n      tag_312\n      jump\t// in\n    tag_689:\n        /* \"#utility.yul\":30997:31063   */\n      swap1\n      pop\n        /* \"#utility.yul\":30927:31069   */\n      swap2\n      swap1\n      pop\n      jump\t// out\n        /* \"#utility.yul\":31075:31150   */\n    tag_389:\n        /* \"#utility.yul\":31118:31121   */\n      0x00\n        /* \"#utility.yul\":31139:31144   */\n      dup2\n        /* \"#utility.yul\":31132:31144   */\n      swap1\n      pop\n        /* \"#utility.yul\":31075:31150   */\n      swap2\n      swap1\n      pop\n      jump\t// out\n        /* \"#utility.yul\":31156:31425   */\n    tag_390:\n        /* \"#utility.yul\":31266:31305   */\n      tag_694\n        /* \"#utility.yul\":31297:31304   */\n      dup4\n        /* \"#utility.yul\":31266:31305   */\n      tag_388\n      jump\t// in\n    tag_694:\n        /* \"#utility.yul\":31327:31418   */\n      tag_695\n        /* \"#utility.yul\":31376:31417   */\n      tag_696\n        /* \"#utility.yul\":31400:31416   */\n      dup3\n        /* \"#utility.yul\":31376:31417   */\n      tag_389\n      jump\t// in\n    tag_696:\n        /* \"#utility.yul\":31368:31374   */\n      dup5\n        /* \"#utility.yul\":31361:31365   */\n      dup5\n        /* \"#utility.yul\":31355:31366   */\n      sload\n        /* \"#utility.yul\":31327:31418   */\n      tag_386\n      jump\t// in\n    tag_695:\n        /* \"#utility.yul\":31321:31325   */\n      dup3\n        /* \"#utility.yul\":31314:31419   */\n      sstore\n        /* \"#utility.yul\":31232:31425   */\n      pop\n        /* \"#utility.yul\":31156:31425   */\n      pop\n      pop\n      pop\n      jump\t// out\n        /* \"#utility.yul\":31431:31504   */\n    tag_391:\n        /* \"#utility.yul\":31476:31479   */\n      0x00\n        /* \"#utility.yul\":31431:31504   */\n      swap1\n      jump\t// out\n        /* \"#utility.yul\":31510:31699   */\n    tag_392:\n        /* \"#utility.yul\":31587:31619   */\n      tag_699\n      tag_391\n      jump\t// in\n    tag_699:\n        /* \"#utility.yul\":31628:31693   */\n      tag_700\n        /* \"#utility.yul\":31686:31692   */\n      dup2\n        /* \"#utility.yul\":31678:31684   */\n      dup5\n        /* \"#utility.yul\":31672:31676   */\n      dup5\n        /* \"#utility.yul\":31628:31693   */\n      tag_390\n      jump\t// in\n    tag_700:\n        /* \"#utility.yul\":31563:31699   */\n      pop\n        /* \"#utility.yul\":31510:31699   */\n      pop\n      pop\n      jump\t// out\n        /* \"#utility.yul\":31705:31891   */\n    tag_393:\n        /* \"#utility.yul\":31765:31885   */\n    tag_702:\n        /* \"#utility.yul\":31782:31785   */\n      dup2\n        /* \"#utility.yul\":31775:31780   */\n      dup2\n        /* \"#utility.yul\":31772:31786   */\n      lt\n        /* \"#utility.yul\":31765:31885   */\n      iszero\n      tag_704\n      jumpi\n        /* \"#utility.yul\":31836:31875   */\n      tag_705\n        /* \"#utility.yul\":31873:31874   */\n      0x00\n        /* \"#utility.yul\":31866:31871   */\n      dup3\n        /* \"#utility.yul\":31836:31875   */\n      tag_392\n      jump\t// in\n    tag_705:\n        /* \"#utility.yul\":31809:31810   */\n      0x01\n        /* \"#utility.yul\":31802:31807   */\n      dup2\n        /* \"#utility.yul\":31798:31811   */\n      add\n        /* \"#utility.yul\":31789:31811   */\n      swap1\n      pop\n        /* \"#utility.yul\":31765:31885   */\n      jump(tag_702)\n    tag_704:\n        /* \"#utility.yul\":31705:31891   */\n      pop\n      pop\n      jump\t// out\n        /* \"#utility.yul\":31897:32440   */\n    tag_394:\n        /* \"#utility.yul\":31998:32000   */\n      0x1f\n        /* \"#utility.yul\":31993:31996   */\n      dup3\n        /* \"#utility.yul\":31990:32001   */\n      gt\n        /* \"#utility.yul\":31987:32433   */\n      iszero\n      tag_707\n      jumpi\n        /* \"#utility.yul\":32032:32070   */\n      tag_708\n        /* \"#utility.yul\":32064:32069   */\n      dup2\n        /* \"#utility.yul\":32032:32070   */\n      tag_383\n      jump\t// in\n    tag_708:\n        /* \"#utility.yul\":32116:32145   */\n      tag_709\n        /* \"#utility.yul\":32134:32144   */\n      dup5\n        /* \"#utility.yul\":32116:32145   */\n      tag_384\n      jump\t// in\n    tag_709:\n        /* \"#utility.yul\":32106:32114   */\n      dup2\n        /* \"#utility.yul\":32102:32146   */\n      add\n        /* \"#utility.yul\":32299:32301   */\n      0x20\n        /* \"#utility.yul\":32287:32297   */\n      dup6\n        /* \"#utility.yul\":32284:32302   */\n      lt\n        /* \"#utility.yul\":32281:32330   */\n      iszero\n      tag_710\n      jumpi\n        /* \"#utility.yul\":32320:32328   */\n      dup2\n        /* \"#utility.yul\":32305:32328   */\n      swap1\n      pop\n        /* \"#utility.yul\":32281:32330   */\n    tag_710:\n        /* \"#utility.yul\":32343:32423   */\n      tag_711\n        /* \"#utility.yul\":32399:32421   */\n      tag_712\n        /* \"#utility.yul\":32417:32420   */\n      dup6\n        /* \"#utility.yul\":32399:32421   */\n      tag_384\n      jump\t// in\n    tag_712:\n        /* \"#utility.yul\":32389:32397   */\n      dup4\n        /* \"#utility.yul\":32385:32422   */\n      add\n        /* \"#utility.yul\":32372:32383   */\n      dup3\n        /* \"#utility.yul\":32343:32423   */\n      tag_393\n      jump\t// in\n    tag_711:\n        /* \"#utility.yul\":32002:32433   */\n      pop\n      pop\n        /* \"#utility.yul\":31987:32433   */\n    tag_707:\n        /* \"#utility.yul\":31897:32440   */\n      pop\n      pop\n      pop\n      jump\t// out\n        /* \"#utility.yul\":32446:32563   */\n    tag_395:\n        /* \"#utility.yul\":32500:32508   */\n      0x00\n        /* \"#utility.yul\":32550:32555   */\n      dup3\n        /* \"#utility.yul\":32544:32548   */\n      dup3\n        /* \"#utility.yul\":32540:32556   */\n      shr\n        /* \"#utility.yul\":32519:32556   */\n      swap1\n      pop\n        /* \"#utility.yul\":32446:32563   */\n      swap3\n      swap2\n      pop\n      pop\n      jump\t// out\n        /* \"#utility.yul\":32569:32738   */\n    tag_396:\n        /* \"#utility.yul\":32613:32619   */\n      0x00\n        /* \"#utility.yul\":32646:32697   */\n      tag_715\n        /* \"#utility.yul\":32694:32695   */\n      0x00\n        /* \"#utility.yul\":32690:32696   */\n      not\n        /* \"#utility.yul\":32682:32687   */\n      dup5\n        /* \"#utility.yul\":32679:32680   */\n      0x08\n        /* \"#utility.yul\":32675:32688   */\n      mul\n        /* \"#utility.yul\":32646:32697   */\n      tag_395\n      jump\t// in\n    tag_715:\n        /* \"#utility.yul\":32642:32698   */\n      not\n        /* \"#utility.yul\":32727:32731   */\n      dup1\n        /* \"#utility.yul\":32721:32725   */\n      dup4\n        /* \"#utility.yul\":32717:32732   */\n      and\n        /* \"#utility.yul\":32707:32732   */\n      swap2\n      pop\n        /* \"#utility.yul\":32620:32738   */\n      pop\n        /* \"#utility.yul\":32569:32738   */\n      swap3\n      swap2\n      pop\n      pop\n      jump\t// out\n        /* \"#utility.yul\":32743:33038   */\n    tag_397:\n        /* \"#utility.yul\":32819:32823   */\n      0x00\n        /* \"#utility.yul\":32965:32994   */\n      tag_717\n        /* \"#utility.yul\":32990:32993   */\n      dup4\n        /* \"#utility.yul\":32984:32988   */\n      dup4\n        /* \"#utility.yul\":32965:32994   */\n      tag_396\n      jump\t// in\n    tag_717:\n        /* \"#utility.yul\":32957:32994   */\n      swap2\n      pop\n        /* \"#utility.yul\":33027:33030   */\n      dup3\n        /* \"#utility.yul\":33024:33025   */\n      0x02\n        /* \"#utility.yul\":33020:33031   */\n      mul\n        /* \"#utility.yul\":33014:33018   */\n      dup3\n        /* \"#utility.yul\":33011:33032   */\n      or\n        /* \"#utility.yul\":33003:33032   */\n      swap1\n      pop\n        /* \"#utility.yul\":32743:33038   */\n      swap3\n      swap2\n      pop\n      pop\n      jump\t// out\n        /* \"#utility.yul\":33043:34438   */\n    tag_243:\n        /* \"#utility.yul\":33160:33197   */\n      tag_719\n        /* \"#utility.yul\":33193:33196   */\n      dup3\n        /* \"#utility.yul\":33160:33197   */\n      tag_325\n      jump\t// in\n    tag_719:\n        /* \"#utility.yul\":33262:33280   */\n      0xffffffffffffffff\n        /* \"#utility.yul\":33254:33260   */\n      dup2\n        /* \"#utility.yul\":33251:33281   */\n      gt\n        /* \"#utility.yul\":33248:33304   */\n      iszero\n      tag_720\n      jumpi\n        /* \"#utility.yul\":33284:33302   */\n      tag_721\n      tag_259\n      jump\t// in\n    tag_721:\n        /* \"#utility.yul\":33248:33304   */\n    tag_720:\n        /* \"#utility.yul\":33328:33366   */\n      tag_722\n        /* \"#utility.yul\":33360:33364   */\n      dup3\n        /* \"#utility.yul\":33354:33365   */\n      sload\n        /* \"#utility.yul\":33328:33366   */\n      tag_145\n      jump\t// in\n    tag_722:\n        /* \"#utility.yul\":33413:33480   */\n      tag_723\n        /* \"#utility.yul\":33473:33479   */\n      dup3\n        /* \"#utility.yul\":33465:33471   */\n      dup3\n        /* \"#utility.yul\":33459:33463   */\n      dup6\n        /* \"#utility.yul\":33413:33480   */\n      tag_394\n      jump\t// in\n    tag_723:\n        /* \"#utility.yul\":33507:33508   */\n      0x00\n        /* \"#utility.yul\":33531:33535   */\n      0x20\n        /* \"#utility.yul\":33518:33535   */\n      swap1\n      pop\n        /* \"#utility.yul\":33563:33565   */\n      0x1f\n        /* \"#utility.yul\":33555:33561   */\n      dup4\n        /* \"#utility.yul\":33552:33566   */\n      gt\n        /* \"#utility.yul\":33580:33581   */\n      0x01\n        /* \"#utility.yul\":33575:34193   */\n      dup2\n      eq\n      tag_725\n      jumpi\n        /* \"#utility.yul\":34237:34238   */\n      0x00\n        /* \"#utility.yul\":34254:34260   */\n      dup5\n        /* \"#utility.yul\":34251:34328   */\n      iszero\n      tag_726\n      jumpi\n        /* \"#utility.yul\":34303:34312   */\n      dup3\n        /* \"#utility.yul\":34298:34301   */\n      dup8\n        /* \"#utility.yul\":34294:34313   */\n      add\n        /* \"#utility.yul\":34288:34314   */\n      mload\n        /* \"#utility.yul\":34279:34314   */\n      swap1\n      pop\n        /* \"#utility.yul\":34251:34328   */\n    tag_726:\n        /* \"#utility.yul\":34354:34421   */\n      tag_727\n        /* \"#utility.yul\":34414:34420   */\n      dup6\n        /* \"#utility.yul\":34407:34412   */\n      dup3\n        /* \"#utility.yul\":34354:34421   */\n      tag_397\n      jump\t// in\n    tag_727:\n        /* \"#utility.yul\":34348:34352   */\n      dup7\n        /* \"#utility.yul\":34341:34422   */\n      sstore\n        /* \"#utility.yul\":34210:34432   */\n      pop\n        /* \"#utility.yul\":33545:34432   */\n      jump(tag_724)\n        /* \"#utility.yul\":33575:34193   */\n    tag_725:\n        /* \"#utility.yul\":33627:33631   */\n      0x1f\n        /* \"#utility.yul\":33623:33632   */\n      not\n        /* \"#utility.yul\":33615:33621   */\n      dup5\n        /* \"#utility.yul\":33611:33633   */\n      and\n        /* \"#utility.yul\":33661:33698   */\n      tag_728\n        /* \"#utility.yul\":33693:33697   */\n      dup7\n        /* \"#utility.yul\":33661:33698   */\n      tag_383\n      jump\t// in\n    tag_728:\n        /* \"#utility.yul\":33720:33721   */\n      0x00\n        /* \"#utility.yul\":33734:33942   */\n    tag_729:\n        /* \"#utility.yul\":33748:33755   */\n      dup3\n        /* \"#utility.yul\":33745:33746   */\n      dup2\n        /* \"#utility.yul\":33742:33756   */\n      lt\n        /* \"#utility.yul\":33734:33942   */\n      iszero\n      tag_731\n      jumpi\n        /* \"#utility.yul\":33827:33836   */\n      dup5\n        /* \"#utility.yul\":33822:33825   */\n      dup10\n        /* \"#utility.yul\":33818:33837   */\n      add\n        /* \"#utility.yul\":33812:33838   */\n      mload\n        /* \"#utility.yul\":33804:33810   */\n      dup3\n        /* \"#utility.yul\":33797:33839   */\n      sstore\n        /* \"#utility.yul\":33878:33879   */\n      0x01\n        /* \"#utility.yul\":33870:33876   */\n      dup3\n        /* \"#utility.yul\":33866:33880   */\n      add\n        /* \"#utility.yul\":33856:33880   */\n      swap2\n      pop\n        /* \"#utility.yul\":33925:33927   */\n      0x20\n        /* \"#utility.yul\":33914:33923   */\n      dup6\n        /* \"#utility.yul\":33910:33928   */\n      add\n        /* \"#utility.yul\":33897:33928   */\n      swap5\n      pop\n        /* \"#utility.yul\":33771:33775   */\n      0x20\n        /* \"#utility.yul\":33768:33769   */\n      dup2\n        /* \"#utility.yul\":33764:33776   */\n      add\n        /* \"#utility.yul\":33759:33776   */\n      swap1\n      pop\n        /* \"#utility.yul\":33734:33942   */\n      jump(tag_729)\n    tag_731:\n        /* \"#utility.yul\":33970:33976   */\n      dup7\n        /* \"#utility.yul\":33961:33968   */\n      dup4\n        /* \"#utility.yul\":33958:33977   */\n      lt\n        /* \"#utility.yul\":33955:34134   */\n      iszero\n      tag_732\n      jumpi\n        /* \"#utility.yul\":34028:34037   */\n      dup5\n        /* \"#utility.yul\":34023:34026   */\n      dup10\n        /* \"#utility.yul\":34019:34038   */\n      add\n        /* \"#utility.yul\":34013:34039   */\n      mload\n        /* \"#utility.yul\":34071:34119   */\n      tag_733\n        /* \"#utility.yul\":34113:34117   */\n      0x1f\n        /* \"#utility.yul\":34105:34111   */\n      dup10\n        /* \"#utility.yul\":34101:34118   */\n      and\n        /* \"#utility.yul\":34090:34099   */\n      dup3\n        /* \"#utility.yul\":34071:34119   */\n      tag_396\n      jump\t// in\n    tag_733:\n        /* \"#utility.yul\":34063:34069   */\n      dup4\n        /* \"#utility.yul\":34056:34120   */\n      sstore\n        /* \"#utility.yul\":33978:34134   */\n      pop\n        /* \"#utility.yul\":33955:34134   */\n    tag_732:\n        /* \"#utility.yul\":34180:34181   */\n      0x01\n        /* \"#utility.yul\":34176:34177   */\n      0x02\n        /* \"#utility.yul\":34168:34174   */\n      dup9\n        /* \"#utility.yul\":34164:34178   */\n      mul\n        /* \"#utility.yul\":34160:34182   */\n      add\n        /* \"#utility.yul\":34154:34158   */\n      dup9\n        /* \"#utility.yul\":34147:34183   */\n      sstore\n        /* \"#utility.yul\":33582:34193   */\n      pop\n      pop\n      pop\n        /* \"#utility.yul\":33545:34432   */\n    tag_724:\n      pop\n        /* \"#utility.yul\":33135:34438   */\n      pop\n      pop\n      pop\n        /* \"#utility.yul\":33043:34438   */\n      pop\n      pop\n      jump\t// out\n        /* \"#utility.yul\":34468:35299   */\n    tag_398:\n        /* \"#utility.yul\":34553:34556   */\n      0x00\n        /* \"#utility.yul\":34590:34595   */\n      dup2\n        /* \"#utility.yul\":34584:34596   */\n      sload\n        /* \"#utility.yul\":34619:34655   */\n      tag_735\n        /* \"#utility.yul\":34645:34654   */\n      dup2\n        /* \"#utility.yul\":34619:34655   */\n      tag_145\n      jump\t// in\n    tag_735:\n        /* \"#utility.yul\":34671:34742   */\n      tag_736\n        /* \"#utility.yul\":34735:34741   */\n      dup2\n        /* \"#utility.yul\":34730:34733   */\n      dup7\n        /* \"#utility.yul\":34671:34742   */\n      tag_342\n      jump\t// in\n    tag_736:\n        /* \"#utility.yul\":34664:34742   */\n      swap5\n      pop\n        /* \"#utility.yul\":34773:34774   */\n      0x01\n        /* \"#utility.yul\":34762:34771   */\n      dup3\n        /* \"#utility.yul\":34758:34775   */\n      and\n        /* \"#utility.yul\":34789:34790   */\n      0x00\n        /* \"#utility.yul\":34784:34948   */\n      dup2\n      eq\n      tag_738\n      jumpi\n        /* \"#utility.yul\":34962:34963   */\n      0x01\n        /* \"#utility.yul\":34957:35293   */\n      dup2\n      eq\n      tag_739\n      jumpi\n        /* \"#utility.yul\":34751:35293   */\n      jump(tag_737)\n        /* \"#utility.yul\":34784:34948   */\n    tag_738:\n        /* \"#utility.yul\":34868:34872   */\n      0xff\n        /* \"#utility.yul\":34864:34873   */\n      not\n        /* \"#utility.yul\":34853:34862   */\n      dup4\n        /* \"#utility.yul\":34849:34874   */\n      and\n        /* \"#utility.yul\":34844:34847   */\n      dup7\n        /* \"#utility.yul\":34837:34875   */\n      mstore\n        /* \"#utility.yul\":34928:34934   */\n      dup2\n        /* \"#utility.yul\":34921:34935   */\n      iszero\n        /* \"#utility.yul\":34914:34936   */\n      iszero\n        /* \"#utility.yul\":34908:34912   */\n      0x20\n        /* \"#utility.yul\":34904:34937   */\n      mul\n        /* \"#utility.yul\":34899:34902   */\n      dup7\n        /* \"#utility.yul\":34895:34938   */\n      add\n        /* \"#utility.yul\":34888:34938   */\n      swap4\n      pop\n        /* \"#utility.yul\":34784:34948   */\n      jump(tag_737)\n        /* \"#utility.yul\":34957:35293   */\n    tag_739:\n        /* \"#utility.yul\":35024:35062   */\n      tag_740\n        /* \"#utility.yul\":35056:35061   */\n      dup6\n        /* \"#utility.yul\":35024:35062   */\n      tag_383\n      jump\t// in\n    tag_740:\n        /* \"#utility.yul\":35084:35085   */\n      0x00\n        /* \"#utility.yul\":35098:35252   */\n    tag_741:\n        /* \"#utility.yul\":35112:35118   */\n      dup4\n        /* \"#utility.yul\":35109:35110   */\n      dup2\n        /* \"#utility.yul\":35106:35119   */\n      lt\n        /* \"#utility.yul\":35098:35252   */\n      iszero\n      tag_743\n      jumpi\n        /* \"#utility.yul\":35186:35193   */\n      dup2\n        /* \"#utility.yul\":35180:35194   */\n      sload\n        /* \"#utility.yul\":35176:35177   */\n      dup2\n        /* \"#utility.yul\":35171:35174   */\n      dup10\n        /* \"#utility.yul\":35167:35178   */\n      add\n        /* \"#utility.yul\":35160:35195   */\n      mstore\n        /* \"#utility.yul\":35236:35237   */\n      0x01\n        /* \"#utility.yul\":35227:35234   */\n      dup3\n        /* \"#utility.yul\":35223:35238   */\n      add\n        /* \"#utility.yul\":35212:35238   */\n      swap2\n      pop\n        /* \"#utility.yul\":35134:35138   */\n      0x20\n        /* \"#utility.yul\":35131:35132   */\n      dup2\n        /* \"#utility.yul\":35127:35139   */\n      add\n        /* \"#utility.yul\":35122:35139   */\n      swap1\n      pop\n        /* \"#utility.yul\":35098:35252   */\n      jump(tag_741)\n    tag_743:\n        /* \"#utility.yul\":35281:35282   */\n      dup1\n        /* \"#utility.yul\":35276:35279   */\n      dup9\n        /* \"#utility.yul\":35272:35283   */\n      add\n        /* \"#utility.yul\":35265:35283   */\n      swap6\n      pop\n        /* \"#utility.yul\":34964:35293   */\n      pop\n      pop\n        /* \"#utility.yul\":34751:35293   */\n    tag_737:\n      pop\n        /* \"#utility.yul\":34557:35299   */\n      pop\n      pop\n        /* \"#utility.yul\":34468:35299   */\n      swap3\n      swap2\n      pop\n      pop\n      jump\t// out\n        /* \"#utility.yul\":35305:35722   */\n    tag_248:\n        /* \"#utility.yul\":35443:35447   */\n      0x00\n        /* \"#utility.yul\":35481:35483   */\n      0x40\n        /* \"#utility.yul\":35470:35479   */\n      dup3\n        /* \"#utility.yul\":35466:35484   */\n      add\n        /* \"#utility.yul\":35458:35484   */\n      swap1\n      pop\n        /* \"#utility.yul\":35530:35539   */\n      dup2\n        /* \"#utility.yul\":35524:35528   */\n      dup2\n        /* \"#utility.yul\":35520:35540   */\n      sub\n        /* \"#utility.yul\":35516:35517   */\n      0x00\n        /* \"#utility.yul\":35505:35514   */\n      dup4\n        /* \"#utility.yul\":35501:35518   */\n      add\n        /* \"#utility.yul\":35494:35541   */\n      mstore\n        /* \"#utility.yul\":35558:35633   */\n      tag_745\n        /* \"#utility.yul\":35628:35632   */\n      dup2\n        /* \"#utility.yul\":35619:35625   */\n      dup6\n        /* \"#utility.yul\":35558:35633   */\n      tag_398\n      jump\t// in\n    tag_745:\n        /* \"#utility.yul\":35550:35633   */\n      swap1\n      pop\n        /* \"#utility.yul\":35643:35715   */\n      tag_746\n        /* \"#utility.yul\":35711:35713   */\n      0x20\n        /* \"#utility.yul\":35700:35709   */\n      dup4\n        /* \"#utility.yul\":35696:35714   */\n      add\n        /* \"#utility.yul\":35687:35693   */\n      dup5\n        /* \"#utility.yul\":35643:35715   */\n      tag_319\n      jump\t// in\n    tag_746:\n        /* \"#utility.yul\":35305:35722   */\n      swap4\n      swap3\n      pop\n      pop\n      pop\n      jump\t// out\n        /* \"#utility.yul\":35728:35899   */\n    tag_399:\n        /* \"#utility.yul\":35868:35891   */\n      0x496e76616c696420706f6c6c20656e642074696d650000000000000000000000\n        /* \"#utility.yul\":35864:35865   */\n      0x00\n        /* \"#utility.yul\":35856:35862   */\n      dup3\n        /* \"#utility.yul\":35852:35866   */\n      add\n        /* \"#utility.yul\":35845:35892   */\n      mstore\n        /* \"#utility.yul\":35728:35899   */\n      pop\n      jump\t// out\n        /* \"#utility.yul\":35905:36271   */\n    tag_400:\n        /* \"#utility.yul\":36047:36050   */\n      0x00\n        /* \"#utility.yul\":36068:36135   */\n      tag_749\n        /* \"#utility.yul\":36132:36134   */\n      0x15\n        /* \"#utility.yul\":36127:36130   */\n      dup4\n        /* \"#utility.yul\":36068:36135   */\n      tag_342\n      jump\t// in\n    tag_749:\n        /* \"#utility.yul\":36061:36135   */\n      swap2\n      pop\n        /* \"#utility.yul\":36144:36237   */\n      tag_750\n        /* \"#utility.yul\":36233:36236   */\n      dup3\n        /* \"#utility.yul\":36144:36237   */\n      tag_399\n      jump\t// in\n    tag_750:\n        /* \"#utility.yul\":36262:36264   */\n      0x20\n        /* \"#utility.yul\":36257:36260   */\n      dup3\n        /* \"#utility.yul\":36253:36265   */\n      add\n        /* \"#utility.yul\":36246:36265   */\n      swap1\n      pop\n        /* \"#utility.yul\":35905:36271   */\n      swap2\n      swap1\n      pop\n      jump\t// out\n        /* \"#utility.yul\":36277:36696   */\n    tag_253:\n        /* \"#utility.yul\":36443:36447   */\n      0x00\n        /* \"#utility.yul\":36481:36483   */\n      0x20\n        /* \"#utility.yul\":36470:36479   */\n      dup3\n        /* \"#utility.yul\":36466:36484   */\n      add\n        /* \"#utility.yul\":36458:36484   */\n      swap1\n      pop\n        /* \"#utility.yul\":36530:36539   */\n      dup2\n        /* \"#utility.yul\":36524:36528   */\n      dup2\n        /* \"#utility.yul\":36520:36540   */\n      sub\n        /* \"#utility.yul\":36516:36517   */\n      0x00\n        /* \"#utility.yul\":36505:36514   */\n      dup4\n        /* \"#utility.yul\":36501:36518   */\n      add\n        /* \"#utility.yul\":36494:36541   */\n      mstore\n        /* \"#utility.yul\":36558:36689   */\n      tag_752\n        /* \"#utility.yul\":36684:36688   */\n      dup2\n        /* \"#utility.yul\":36558:36689   */\n      tag_400\n      jump\t// in\n    tag_752:\n        /* \"#utility.yul\":36550:36689   */\n      swap1\n      pop\n        /* \"#utility.yul\":36277:36696   */\n      swap2\n      swap1\n      pop\n      jump\t// out\n        /* \"#utility.yul\":36702:36881   */\n    tag_401:\n        /* \"#utility.yul\":36842:36873   */\n      0x4174206c656173742074776f206f7074696f6e73207265717569726564000000\n        /* \"#utility.yul\":36838:36839   */\n      0x00\n        /* \"#utility.yul\":36830:36836   */\n      dup3\n        /* \"#utility.yul\":36826:36840   */\n      add\n        /* \"#utility.yul\":36819:36874   */\n      mstore\n        /* \"#utility.yul\":36702:36881   */\n      pop\n      jump\t// out\n        /* \"#utility.yul\":36887:37253   */\n    tag_402:\n        /* \"#utility.yul\":37029:37032   */\n      0x00\n        /* \"#utility.yul\":37050:37117   */\n      tag_755\n        /* \"#utility.yul\":37114:37116   */\n      0x1d\n        /* \"#utility.yul\":37109:37112   */\n      dup4\n        /* \"#utility.yul\":37050:37117   */\n      tag_342\n      jump\t// in\n    tag_755:\n        /* \"#utility.yul\":37043:37117   */\n      swap2\n      pop\n        /* \"#utility.yul\":37126:37219   */\n      tag_756\n        /* \"#utility.yul\":37215:37218   */\n      dup3\n        /* \"#utility.yul\":37126:37219   */\n      tag_401\n      jump\t// in\n    tag_756:\n        /* \"#utility.yul\":37244:37246   */\n      0x20\n        /* \"#utility.yul\":37239:37242   */\n      dup3\n        /* \"#utility.yul\":37235:37247   */\n      add\n        /* \"#utility.yul\":37228:37247   */\n      swap1\n      pop\n        /* \"#utility.yul\":36887:37253   */\n      swap2\n      swap1\n      pop\n      jump\t// out\n        /* \"#utility.yul\":37259:37678   */\n    tag_256:\n        /* \"#utility.yul\":37425:37429   */\n      0x00\n        /* \"#utility.yul\":37463:37465   */\n      0x20\n        /* \"#utility.yul\":37452:37461   */\n      dup3\n        /* \"#utility.yul\":37448:37466   */\n      add\n        /* \"#utility.yul\":37440:37466   */\n      swap1\n      pop\n        /* \"#utility.yul\":37512:37521   */\n      dup2\n        /* \"#utility.yul\":37506:37510   */\n      dup2\n        /* \"#utility.yul\":37502:37522   */\n      sub\n        /* \"#utility.yul\":37498:37499   */\n      0x00\n        /* \"#utility.yul\":37487:37496   */\n      dup4\n        /* \"#utility.yul\":37483:37500   */\n      add\n        /* \"#utility.yul\":37476:37523   */\n      mstore\n        /* \"#utility.yul\":37540:37671   */\n      tag_758\n        /* \"#utility.yul\":37666:37670   */\n      dup2\n        /* \"#utility.yul\":37540:37671   */\n      tag_402\n      jump\t// in\n    tag_758:\n        /* \"#utility.yul\":37532:37671   */\n      swap1\n      pop\n        /* \"#utility.yul\":37259:37678   */\n      swap2\n      swap1\n      pop\n      jump\t// out\n        /* \"#utility.yul\":37684:37878   */\n    tag_403:\n        /* \"#utility.yul\":37793:37804   */\n      0x00\n        /* \"#utility.yul\":37827:37833   */\n      dup3\n        /* \"#utility.yul\":37822:37825   */\n      dup3\n        /* \"#utility.yul\":37815:37834   */\n      mstore\n        /* \"#utility.yul\":37867:37871   */\n      0x20\n        /* \"#utility.yul\":37862:37865   */\n      dup3\n        /* \"#utility.yul\":37858:37872   */\n      add\n        /* \"#utility.yul\":37843:37872   */\n      swap1\n      pop\n        /* \"#utility.yul\":37684:37878   */\n      swap3\n      swap2\n      pop\n      pop\n      jump\t// out\n        /* \"#utility.yul\":37912:38903   */\n    tag_404:\n        /* \"#utility.yul\":38051:38054   */\n      0x00\n        /* \"#utility.yul\":38080:38144   */\n      tag_761\n        /* \"#utility.yul\":38138:38143   */\n      dup3\n        /* \"#utility.yul\":38080:38144   */\n      tag_322\n      jump\t// in\n    tag_761:\n        /* \"#utility.yul\":38160:38256   */\n      tag_762\n        /* \"#utility.yul\":38249:38255   */\n      dup2\n        /* \"#utility.yul\":38244:38247   */\n      dup6\n        /* \"#utility.yul\":38160:38256   */\n      tag_403\n      jump\t// in\n    tag_762:\n        /* \"#utility.yul\":38153:38256   */\n      swap4\n      pop\n        /* \"#utility.yul\":38282:38285   */\n      dup4\n        /* \"#utility.yul\":38327:38331   */\n      0x20\n        /* \"#utility.yul\":38319:38325   */\n      dup3\n        /* \"#utility.yul\":38315:38332   */\n      mul\n        /* \"#utility.yul\":38310:38313   */\n      dup6\n        /* \"#utility.yul\":38306:38333   */\n      add\n        /* \"#utility.yul\":38357:38423   */\n      tag_763\n        /* \"#utility.yul\":38417:38422   */\n      dup6\n        /* \"#utility.yul\":38357:38423   */\n      tag_324\n      jump\t// in\n    tag_763:\n        /* \"#utility.yul\":38446:38453   */\n      dup1\n        /* \"#utility.yul\":38477:38478   */\n      0x00\n        /* \"#utility.yul\":38462:38858   */\n    tag_764:\n        /* \"#utility.yul\":38487:38493   */\n      dup6\n        /* \"#utility.yul\":38484:38485   */\n      dup2\n        /* \"#utility.yul\":38481:38494   */\n      lt\n        /* \"#utility.yul\":38462:38858   */\n      iszero\n      tag_766\n      jumpi\n        /* \"#utility.yul\":38558:38567   */\n      dup5\n        /* \"#utility.yul\":38552:38556   */\n      dup5\n        /* \"#utility.yul\":38548:38568   */\n      sub\n        /* \"#utility.yul\":38543:38546   */\n      dup10\n        /* \"#utility.yul\":38536:38569   */\n      mstore\n        /* \"#utility.yul\":38609:38615   */\n      dup2\n        /* \"#utility.yul\":38603:38616   */\n      mload\n        /* \"#utility.yul\":38637:38721   */\n      tag_767\n        /* \"#utility.yul\":38716:38720   */\n      dup6\n        /* \"#utility.yul\":38701:38714   */\n      dup3\n        /* \"#utility.yul\":38637:38721   */\n      tag_330\n      jump\t// in\n    tag_767:\n        /* \"#utility.yul\":38629:38721   */\n      swap5\n      pop\n        /* \"#utility.yul\":38744:38814   */\n      tag_768\n        /* \"#utility.yul\":38807:38813   */\n      dup4\n        /* \"#utility.yul\":38744:38814   */\n      tag_331\n      jump\t// in\n    tag_768:\n        /* \"#utility.yul\":38734:38814   */\n      swap3\n      pop\n        /* \"#utility.yul\":38843:38847   */\n      0x20\n        /* \"#utility.yul\":38838:38841   */\n      dup11\n        /* \"#utility.yul\":38834:38848   */\n      add\n        /* \"#utility.yul\":38827:38848   */\n      swap10\n      pop\n        /* \"#utility.yul\":38522:38858   */\n      pop\n        /* \"#utility.yul\":38509:38510   */\n      0x01\n        /* \"#utility.yul\":38506:38507   */\n      dup2\n        /* \"#utility.yul\":38502:38511   */\n      add\n        /* \"#utility.yul\":38497:38511   */\n      swap1\n      pop\n        /* \"#utility.yul\":38462:38858   */\n      jump(tag_764)\n    tag_766:\n        /* \"#utility.yul\":38466:38480   */\n      pop\n        /* \"#utility.yul\":38874:38878   */\n      dup3\n        /* \"#utility.yul\":38867:38878   */\n      swap8\n      pop\n        /* \"#utility.yul\":38894:38897   */\n      dup8\n        /* \"#utility.yul\":38887:38897   */\n      swap6\n      pop\n        /* \"#utility.yul\":38056:38903   */\n      pop\n      pop\n      pop\n      pop\n      pop\n        /* \"#utility.yul\":37912:38903   */\n      swap3\n      swap2\n      pop\n      pop\n      jump\t// out\n        /* \"#utility.yul\":38909:39542   */\n    tag_268:\n        /* \"#utility.yul\":39128:39132   */\n      0x00\n        /* \"#utility.yul\":39166:39168   */\n      0x60\n        /* \"#utility.yul\":39155:39164   */\n      dup3\n        /* \"#utility.yul\":39151:39169   */\n      add\n        /* \"#utility.yul\":39143:39169   */\n      swap1\n      pop\n        /* \"#utility.yul\":39179:39250   */\n      tag_770\n        /* \"#utility.yul\":39247:39248   */\n      0x00\n        /* \"#utility.yul\":39236:39245   */\n      dup4\n        /* \"#utility.yul\":39232:39249   */\n      add\n        /* \"#utility.yul\":39223:39229   */\n      dup7\n        /* \"#utility.yul\":39179:39250   */\n      tag_319\n      jump\t// in\n    tag_770:\n        /* \"#utility.yul\":39260:39332   */\n      tag_771\n        /* \"#utility.yul\":39328:39330   */\n      0x20\n        /* \"#utility.yul\":39317:39326   */\n      dup4\n        /* \"#utility.yul\":39313:39331   */\n      add\n        /* \"#utility.yul\":39304:39310   */\n      dup6\n        /* \"#utility.yul\":39260:39332   */\n      tag_319\n      jump\t// in\n    tag_771:\n        /* \"#utility.yul\":39379:39388   */\n      dup2\n        /* \"#utility.yul\":39373:39377   */\n      dup2\n        /* \"#utility.yul\":39369:39389   */\n      sub\n        /* \"#utility.yul\":39364:39366   */\n      0x40\n        /* \"#utility.yul\":39353:39362   */\n      dup4\n        /* \"#utility.yul\":39349:39367   */\n      add\n        /* \"#utility.yul\":39342:39390   */\n      mstore\n        /* \"#utility.yul\":39407:39535   */\n      tag_772\n        /* \"#utility.yul\":39530:39534   */\n      dup2\n        /* \"#utility.yul\":39521:39527   */\n      dup5\n        /* \"#utility.yul\":39407:39535   */\n      tag_404\n      jump\t// in\n    tag_772:\n        /* \"#utility.yul\":39399:39535   */\n      swap1\n      pop\n        /* \"#utility.yul\":38909:39542   */\n      swap5\n      swap4\n      pop\n      pop\n      pop\n      pop\n      jump\t// out\n\n    auxdata: 0xa2646970667358221220bc59658cbc2288c35d66f126d9a249ab7315aab15e56c7c9b63ccca2072adc6664736f6c63430008120033\n}\n",
				"bytecode": {
					"linkReferences": {},
					"object": "608060405234801561001057600080fd5b50612c64806100206000396000f3fe60806040526004361061011f5760003560e01c80638761ad0c116100a0578063a9549f0a11610064578063a9549f0a14610470578063ab0d4869146104ad578063cf094497146104c9578063d624d6fd146104f4578063ed8c2aed1461051d5761011f565b80638761ad0c1461034f57806391cbfb411461038c5780639207891d146103c95780639e319063146103f4578063a32bde6f146104335761011f565b806343859632116100e7578063438596321461025857806346f86716146102955780634c3c234f146102d25780636b7128ec146102fb5780636f4a2cd0146103385761011f565b806306455f5e146101245780630e89da561461016157806327e235e31461019e57806329b8f44a146101db578063420700f614610218575b600080fd5b34801561013057600080fd5b5061014b60048036038101906101469190611888565b610534565b60405161015891906118d7565b60405180910390f35b34801561016d57600080fd5b50610188600480360381019061018391906118f2565b610559565b60405161019591906118d7565b60405180910390f35b3480156101aa57600080fd5b506101c560048036038101906101c0919061191f565b6105e2565b6040516101d291906118d7565b60405180910390f35b3480156101e757600080fd5b5061020260048036038101906101fd91906118f2565b6105fa565b60405161020f9190611c29565b60405180910390f35b34801561022457600080fd5b5061023f600480360381019061023a9190611c4b565b6107ed565b60405161024f9493929190611ce4565b60405180910390f35b34801561026457600080fd5b5061027f600480360381019061027a9190611888565b6108e2565b60405161028c9190611d3f565b60405180910390f35b3480156102a157600080fd5b506102bc60048036038101906102b791906118f2565b610911565b6040516102c991906118d7565b60405180910390f35b3480156102de57600080fd5b506102f960048036038101906102f49190611c4b565b610929565b005b34801561030757600080fd5b50610322600480360381019061031d91906118f2565b610cbd565b60405161032f91906118d7565b60405180910390f35b34801561034457600080fd5b5061034d610cdd565b005b34801561035b57600080fd5b50610376600480360381019061037191906118f2565b610cdf565b60405161038391906118d7565b60405180910390f35b34801561039857600080fd5b506103b360048036038101906103ae9190611c4b565b610d3c565b6040516103c091906118d7565b60405180910390f35b3480156103d557600080fd5b506103de610d6d565b6040516103eb91906118d7565b60405180910390f35b34801561040057600080fd5b5061041b60048036038101906104169190611888565b610d73565b60405161042a93929190611d5a565b60405180910390f35b34801561043f57600080fd5b5061045a600480360381019061045591906118f2565b610dca565b60405161046791906118d7565b60405180910390f35b34801561047c57600080fd5b5061049760048036038101906104929190611df6565b610dee565b6040516104a491906118d7565b60405180910390f35b6104c760048036038101906104c29190611c4b565b610eed565b005b3480156104d557600080fd5b506104de6112f3565b6040516104eb91906118d7565b60405180910390f35b34801561050057600080fd5b5061051b60048036038101906105169190612067565b6112f9565b005b34801561052957600080fd5b5061053261154f565b005b6003602052816000526040600020602052806000526040600020600091509150505481565b6000806000905060005b60066000858152602001908152602001600020805490508110156105d8576006600085815260200190815260200160002081815481106105a6576105a56120d6565b5b906000526020600020906004020160030154826105c39190612134565b915080806105d090612168565b915050610563565b5080915050919050565b60056020528060005260406000206000915090505481565b610602611664565b6000600a60008481526020019081526020016000209050806040518060e0016040529081600082015481526020016001820160009054906101000a900473ffffffffffffffffffffffffffffffffffffffff1673ffffffffffffffffffffffffffffffffffffffff1673ffffffffffffffffffffffffffffffffffffffff168152602001600282015481526020016003820154815260200160048201805480602002602001604051908101604052809291908181526020016000905b8282101561076a5783829060005260206000200180546106dd906121df565b80601f0160208091040260200160405190810160405280929190818152602001828054610709906121df565b80156107565780601f1061072b57610100808354040283529160200191610756565b820191906000526020600020905b81548152906001019060200180831161073957829003601f168201915b5050505050815260200190600101906106be565b505050508152602001600582018054806020026020016040519081016040528092919081815260200182805480156107c157602002820191906000526020600020905b8154815260200190600101908083116107ad575b505050505081526020016006820160009054906101000a900460ff161515151581525050915050919050565b6006602052816000526040600020818154811061080957600080fd5b906000526020600020906004020160009150915050806000015490806001018054610833906121df565b80601f016020809104026020016040519081016040528092919081815260200182805461085f906121df565b80156108ac5780601f10610881576101008083540402835291602001916108ac565b820191906000526020600020905b81548152906001019060200180831161088f57829003601f168201915b5050505050908060020160009054906101000a900473ffffffffffffffffffffffffffffffffffffffff16908060030154905084565b60076020528160005260406000206020528060005260406000206000915091509054906101000a900460ff1681565b60026020528060005260406000206000915090505481565b6000600a600084815260200190815260200160002090506007600084815260200190815260200160002060003373ffffffffffffffffffffffffffffffffffffffff1673ffffffffffffffffffffffffffffffffffffffff16815260200190815260200160002060009054906101000a900460ff16156109de576040517f08c379a00000000000000000000000000000000000000000000000000000000081526004016109d59061225c565b60405180910390fd5b8060060160009054906101000a900460ff16610a2f576040517f08c379a0000000000000000000000000000000000000000000000000000000008152600401610a26906122c8565b60405180910390fd5b80600201544210158015610a47575080600301544211155b610a86576040517f08c379a0000000000000000000000000000000000000000000000000000000008152600401610a7d90612334565b60405180910390fd5b600082118015610a9c5750806004018054905082105b610adb576040517f08c379a0000000000000000000000000000000000000000000000000000000008152600401610ad2906123a0565b60405180910390fd5b60016007600085815260200190815260200160002060003373ffffffffffffffffffffffffffffffffffffffff1673ffffffffffffffffffffffffffffffffffffffff16815260200190815260200160002060006101000a81548160ff021916908315150217905550600060405180606001604052808581526020013373ffffffffffffffffffffffffffffffffffffffff168152602001848152509050806008600086815260200190815260200160002060003373ffffffffffffffffffffffffffffffffffffffff1673ffffffffffffffffffffffffffffffffffffffff1681526020019081526020016000206000820151816000015560208201518160010160006101000a81548173ffffffffffffffffffffffffffffffffffffffff021916908373ffffffffffffffffffffffffffffffffffffffff16021790555060408201518160020155905050610c328433611551565b816005018381548110610c4857610c476120d6565b5b906000526020600020016000815480929190610c6390612168565b91905055503373ffffffffffffffffffffffffffffffffffffffff16847fe7ee74ca1f4bb1b82b14f87794c45b3e59c39e372b862fb97a6316b43355b69e85604051610caf91906118d7565b60405180910390a350505050565b600060066000838152602001908152602001600020805490509050919050565b565b60008060009050600060096000858152602001908152602001600020905060005b610d098261157b565b811015610d31578280610d1b90612168565b9350508080610d2990612168565b915050610d00565b508192505050919050565b60046020528160005260406000208181548110610d5857600080fd5b90600052602060002001600091509150505481565b60005481565b6008602052816000526040600020602052806000526040600020600091509150508060000154908060010160009054906101000a900473ffffffffffffffffffffffffffffffffffffffff16908060020154905083565b600b8181548110610dda57600080fd5b906000526020600020016000915090505481565b60008060009050600060066000878152602001908152602001600020905060005b8180549050811015610eb7578585604051610e2b9291906123f0565b6040518091039020828281548110610e4657610e456120d6565b5b9060005260206000209060040201600101604051610e6491906124a1565b604051809103902003610ea457818181548110610e8457610e836120d6565b5b90600052602060002090600402016003015483610ea19190612134565b92505b8080610eaf90612168565b915050610e0f565b506000610ec387610559565b905060008111610ed4576000610ee1565b8083610ee091906124e7565b5b93505050509392505050565b600a600083815260200190815260200160002060020154421015610f46576040517f08c379a0000000000000000000000000000000000000000000000000000000008152600401610f3d9061258a565b60405180910390fd5b600a6000838152602001908152602001600020600301544210610f9e576040517f08c379a0000000000000000000000000000000000000000000000000000000008152600401610f959061261c565b60405180910390fd5b60003411610fe1576040517f08c379a0000000000000000000000000000000000000000000000000000000008152600401610fd890612688565b60405180910390fd5b60008111611024576040517f08c379a000000000000000000000000000000000000000000000000000000000815260040161101b90612740565b60405180910390fd5b346002600084815260200190815260200160002060008282546110479190612134565b92505081905550346003600084815260200190815260200160002060003373ffffffffffffffffffffffffffffffffffffffff1673ffffffffffffffffffffffffffffffffffffffff16815260200190815260200160002060008282546110ae9190612134565b92505081905550600160008154809291906110c890612168565b9190505550600660008381526020019081526020016000206040518060800160405280848152602001600a60008681526020019081526020016000206004018481548110611119576111186120d6565b5b90600052602060002001805461112e906121df565b80601f016020809104026020016040519081016040528092919081815260200182805461115a906121df565b80156111a75780601f1061117c576101008083540402835291602001916111a7565b820191906000526020600020905b81548152906001019060200180831161118a57829003601f168201915b505050505081526020013373ffffffffffffffffffffffffffffffffffffffff168152602001348152509080600181540180825580915050600190039060005260206000209060040201600090919091909150600082015181600001556020820151816001019081611219919061290c565b5060408201518160020160006101000a81548173ffffffffffffffffffffffffffffffffffffffff021916908373ffffffffffffffffffffffffffffffffffffffff1602179055506060820151816003015550503373ffffffffffffffffffffffffffffffffffffffff16827ffa643037cee917ec3049f1ba2bfb5d4df493f0b6db3ed68f3716d11233494e7d600a600086815260200190815260200160002060040184815481106112ce576112cd6120d6565b5b90600052602060002001346040516112e7929190612a62565b60405180910390a35050565b60015481565b429250620151804261130b9190612134565b915082821161134f576040517f08c379a000000000000000000000000000000000000000000000000000000000815260040161134690612ade565b60405180910390fd5b6001815111611393576040517f08c379a000000000000000000000000000000000000000000000000000000000815260040161138a90612b4a565b60405180910390fd5b60008151905060008167ffffffffffffffff8111156113b5576113b4611e56565b5b6040519080825280602002602001820160405280156113e35781602001602082028036833780820191505090505b5090506000600a6000805481526020019081526020016000209050338160010160006101000a81548173ffffffffffffffffffffffffffffffffffffffff021916908373ffffffffffffffffffffffffffffffffffffffff16021790555042816002018190555062015180426114599190612134565b8160030181905550838160040190805190602001906114799291906116b9565b5081816005019080519060200190611492929190611712565b5060018160060160006101000a81548160ff021916908315150217905550600b60005490806001815401808255809150506001900390600052602060002001600090919091909150553373ffffffffffffffffffffffffffffffffffffffff166000547f58d87e181e9ac91f8ccda34caaf4c15db2a9fc345a86ea48e378d6e4359dfdb988888860405161152893929190612bf0565b60405180910390a360008081548092919061154290612168565b9190505550505050505050565b565b611576816009600085815260200190815260200160002061159090919063ffffffff16565b505050565b6000611589826000016115c0565b9050919050565b60006115b8836000018373ffffffffffffffffffffffffffffffffffffffff1660001b6115d1565b905092915050565b600081600001805490509050919050565b60006115dd8383611641565b61163657826000018290806001815401808255809150506001900390600052602060002001600090919091909150558260000180549050836001016000848152602001908152602001600020819055506001905061163b565b600090505b92915050565b600080836001016000848152602001908152602001600020541415905092915050565b6040518060e0016040528060008152602001600073ffffffffffffffffffffffffffffffffffffffff168152602001600081526020016000815260200160608152602001606081526020016000151581525090565b828054828255906000526020600020908101928215611701579160200282015b828111156117005782518290816116f0919061290c565b50916020019190600101906116d9565b5b50905061170e919061175f565b5090565b82805482825590600052602060002090810192821561174e579160200282015b8281111561174d578251825591602001919060010190611732565b5b50905061175b9190611783565b5090565b5b8082111561177f576000818161177691906117a0565b50600101611760565b5090565b5b8082111561179c576000816000905550600101611784565b5090565b5080546117ac906121df565b6000825580601f106117be57506117dd565b601f0160209004906000526020600020908101906117dc9190611783565b5b50565b6000604051905090565b600080fd5b600080fd5b6000819050919050565b611807816117f4565b811461181257600080fd5b50565b600081359050611824816117fe565b92915050565b600073ffffffffffffffffffffffffffffffffffffffff82169050919050565b60006118558261182a565b9050919050565b6118658161184a565b811461187057600080fd5b50565b6000813590506118828161185c565b92915050565b6000806040838503121561189f5761189e6117ea565b5b60006118ad85828601611815565b92505060206118be85828601611873565b9150509250929050565b6118d1816117f4565b82525050565b60006020820190506118ec60008301846118c8565b92915050565b600060208284031215611908576119076117ea565b5b600061191684828501611815565b91505092915050565b600060208284031215611935576119346117ea565b5b600061194384828501611873565b91505092915050565b611955816117f4565b82525050565b6119648161184a565b82525050565b600081519050919050565b600082825260208201905092915050565b6000819050602082019050919050565b600081519050919050565b600082825260208201905092915050565b60005b838110156119d05780820151818401526020810190506119b5565b60008484015250505050565b6000601f19601f8301169050919050565b60006119f882611996565b611a0281856119a1565b9350611a128185602086016119b2565b611a1b816119dc565b840191505092915050565b6000611a3283836119ed565b905092915050565b6000602082019050919050565b6000611a528261196a565b611a5c8185611975565b935083602082028501611a6e85611986565b8060005b85811015611aaa5784840389528151611a8b8582611a26565b9450611a9683611a3a565b925060208a01995050600181019050611a72565b50829750879550505050505092915050565b600081519050919050565b600082825260208201905092915050565b6000819050602082019050919050565b6000611af4838361194c565b60208301905092915050565b6000602082019050919050565b6000611b1882611abc565b611b228185611ac7565b9350611b2d83611ad8565b8060005b83811015611b5e578151611b458882611ae8565b9750611b5083611b00565b925050600181019050611b31565b5085935050505092915050565b60008115159050919050565b611b8081611b6b565b82525050565b600060e083016000830151611b9e600086018261194c565b506020830151611bb1602086018261195b565b506040830151611bc4604086018261194c565b506060830151611bd7606086018261194c565b5060808301518482036080860152611bef8282611a47565b91505060a083015184820360a0860152611c098282611b0d565b91505060c0830151611c1e60c0860182611b77565b508091505092915050565b60006020820190508181036000830152611c438184611b86565b905092915050565b60008060408385031215611c6257611c616117ea565b5b6000611c7085828601611815565b9250506020611c8185828601611815565b9150509250929050565b600082825260208201905092915050565b6000611ca782611996565b611cb18185611c8b565b9350611cc18185602086016119b2565b611cca816119dc565b840191505092915050565b611cde8161184a565b82525050565b6000608082019050611cf960008301876118c8565b8181036020830152611d0b8186611c9c565b9050611d1a6040830185611cd5565b611d2760608301846118c8565b95945050505050565b611d3981611b6b565b82525050565b6000602082019050611d546000830184611d30565b92915050565b6000606082019050611d6f60008301866118c8565b611d7c6020830185611cd5565b611d8960408301846118c8565b949350505050565b600080fd5b600080fd5b600080fd5b60008083601f840112611db657611db5611d91565b5b8235905067ffffffffffffffff811115611dd357611dd2611d96565b5b602083019150836001820283011115611def57611dee611d9b565b5b9250929050565b600080600060408486031215611e0f57611e0e6117ea565b5b6000611e1d86828701611815565b935050602084013567ffffffffffffffff811115611e3e57611e3d6117ef565b5b611e4a86828701611da0565b92509250509250925092565b7f4e487b7100000000000000000000000000000000000000000000000000000000600052604160045260246000fd5b611e8e826119dc565b810181811067ffffffffffffffff82111715611ead57611eac611e56565b5b80604052505050565b6000611ec06117e0565b9050611ecc8282611e85565b919050565b600067ffffffffffffffff821115611eec57611eeb611e56565b5b602082029050602081019050919050565b600080fd5b600067ffffffffffffffff821115611f1d57611f1c611e56565b5b611f26826119dc565b9050602081019050919050565b82818337600083830152505050565b6000611f55611f5084611f02565b611eb6565b905082815260208101848484011115611f7157611f70611efd565b5b611f7c848285611f33565b509392505050565b600082601f830112611f9957611f98611d91565b5b8135611fa9848260208601611f42565b91505092915050565b6000611fc5611fc084611ed1565b611eb6565b90508083825260208201905060208402830185811115611fe857611fe7611d9b565b5b835b8181101561202f57803567ffffffffffffffff81111561200d5761200c611d91565b5b80860161201a8982611f84565b85526020850194505050602081019050611fea565b5050509392505050565b600082601f83011261204e5761204d611d91565b5b813561205e848260208601611fb2565b91505092915050565b6000806000606084860312156120805761207f6117ea565b5b600061208e86828701611815565b935050602061209f86828701611815565b925050604084013567ffffffffffffffff8111156120c0576120bf6117ef565b5b6120cc86828701612039565b9150509250925092565b7f4e487b7100000000000000000000000000000000000000000000000000000000600052603260045260246000fd5b7f4e487b7100000000000000000000000000000000000000000000000000000000600052601160045260246000fd5b600061213f826117f4565b915061214a836117f4565b925082820190508082111561216257612161612105565b5b92915050565b6000612173826117f4565b91507fffffffffffffffffffffffffffffffffffffffffffffffffffffffffffffffff82036121a5576121a4612105565b5b600182019050919050565b7f4e487b7100000000000000000000000000000000000000000000000000000000600052602260045260246000fd5b600060028204905060018216806121f757607f821691505b60208210810361220a576122096121b0565b5b50919050565b7f416c726561647920766f74656400000000000000000000000000000000000000600082015250565b6000612246600d83611c8b565b915061225182612210565b602082019050919050565b6000602082019050818103600083015261227581612239565b9050919050565b7f506f6c6c20697320636c6f736564000000000000000000000000000000000000600082015250565b60006122b2600e83611c8b565b91506122bd8261227c565b602082019050919050565b600060208201905081810360008301526122e1816122a5565b9050919050565b7f506f6c6c206973206e6f74206163746976650000000000000000000000000000600082015250565b600061231e601283611c8b565b9150612329826122e8565b602082019050919050565b6000602082019050818103600083015261234d81612311565b9050919050565b7f496e76616c69642063686f696365000000000000000000000000000000000000600082015250565b600061238a600e83611c8b565b915061239582612354565b602082019050919050565b600060208201905081810360008301526123b98161237d565b9050919050565b600081905092915050565b60006123d783856123c0565b93506123e4838584611f33565b82840190509392505050565b60006123fd8284866123cb565b91508190509392505050565b60008190508160005260206000209050919050565b6000815461242b816121df565b61243581866123c0565b94506001821660008114612450576001811461246557612498565b60ff1983168652811515820286019350612498565b61246e85612409565b60005b8381101561249057815481890152600182019150602081019050612471565b838801955050505b50505092915050565b60006124ad828461241e565b915081905092915050565b7f4e487b7100000000000000000000000000000000000000000000000000000000600052601260045260246000fd5b60006124f2826117f4565b91506124fd836117f4565b92508261250d5761250c6124b8565b5b828204905092915050565b7f506f6c6c20686173206e6f742073746172746564207965742c20796f7520636160008201527f6e6e6f7420626574206f6e206974000000000000000000000000000000000000602082015250565b6000612574602e83611c8b565b915061257f82612518565b604082019050919050565b600060208201905081810360008301526125a381612567565b9050919050565b7f506f6c6c2068617320656e6465642c20796f752063616e6e6f7420626574206f60008201527f6e20697420616e796d6f72650000000000000000000000000000000000000000602082015250565b6000612606602c83611c8b565b9150612611826125aa565b604082019050919050565b60006020820190508181036000830152612635816125f9565b9050919050565b7f416d6f756e74206d7573742062652067726561746572207468616e2030210000600082015250565b6000612672601e83611c8b565b915061267d8261263c565b602082019050919050565b600060208201905081810360008301526126a181612665565b9050919050565b7f496e76616c696420706f6c6c2063686f6963652c20706c656173652073656c6560008201527f6374206f6e65206f662074686520706f6c6c2063686f6963657320746f20626560208201527f74206f6e00000000000000000000000000000000000000000000000000000000604082015250565b600061272a604483611c8b565b9150612735826126a8565b606082019050919050565b600060208201905081810360008301526127598161271d565b9050919050565b60008190508160005260206000209050919050565b60006020601f8301049050919050565b600082821b905092915050565b6000600883026127c27fffffffffffffffffffffffffffffffffffffffffffffffffffffffffffffffff82612785565b6127cc8683612785565b95508019841693508086168417925050509392505050565b6000819050919050565b60006128096128046127ff846117f4565b6127e4565b6117f4565b9050919050565b6000819050919050565b612823836127ee565b61283761282f82612810565b848454612792565b825550505050565b600090565b61284c61283f565b61285781848461281a565b505050565b5b8181101561287b57612870600082612844565b60018101905061285d565b5050565b601f8211156128c05761289181612760565b61289a84612775565b810160208510156128a9578190505b6128bd6128b585612775565b83018261285c565b50505b505050565b600082821c905092915050565b60006128e3600019846008026128c5565b1980831691505092915050565b60006128fc83836128d2565b9150826002028217905092915050565b61291582611996565b67ffffffffffffffff81111561292e5761292d611e56565b5b61293882546121df565b61294382828561287f565b600060209050601f8311600181146129765760008415612964578287015190505b61296e85826128f0565b8655506129d6565b601f19841661298486612760565b60005b828110156129ac57848901518255600182019150602085019450602081019050612987565b868310156129c957848901516129c5601f8916826128d2565b8355505b6001600288020188555050505b505050505050565b600081546129eb816121df565b6129f58186611c8b565b94506001821660008114612a105760018114612a2657612a59565b60ff198316865281151560200286019350612a59565b612a2f85612760565b60005b83811015612a5157815481890152600182019150602081019050612a32565b808801955050505b50505092915050565b60006040820190508181036000830152612a7c81856129de565b9050612a8b60208301846118c8565b9392505050565b7f496e76616c696420706f6c6c20656e642074696d650000000000000000000000600082015250565b6000612ac8601583611c8b565b9150612ad382612a92565b602082019050919050565b60006020820190508181036000830152612af781612abb565b9050919050565b7f4174206c656173742074776f206f7074696f6e73207265717569726564000000600082015250565b6000612b34601d83611c8b565b9150612b3f82612afe565b602082019050919050565b60006020820190508181036000830152612b6381612b27565b9050919050565b600082825260208201905092915050565b6000612b868261196a565b612b908185612b6a565b935083602082028501612ba285611986565b8060005b85811015612bde5784840389528151612bbf8582611a26565b9450612bca83611a3a565b925060208a01995050600181019050612ba6565b50829750879550505050505092915050565b6000606082019050612c0560008301866118c8565b612c1260208301856118c8565b8181036040830152612c248184612b7b565b905094935050505056fea2646970667358221220bc59658cbc2288c35d66f126d9a249ab7315aab15e56c7c9b63ccca2072adc6664736f6c63430008120033",
					"opcodes": "PUSH1 0x80 PUSH1 0x40 MSTORE CALLVALUE DUP1 ISZERO PUSH2 0x10 JUMPI PUSH1 0x0 DUP1 REVERT JUMPDEST POP PUSH2 0x2C64 DUP1 PUSH2 0x20 PUSH1 0x0 CODECOPY PUSH1 0x0 RETURN INVALID PUSH1 0x80 PUSH1 0x40 MSTORE PUSH1 0x4 CALLDATASIZE LT PUSH2 0x11F JUMPI PUSH1 0x0 CALLDATALOAD PUSH1 0xE0 SHR DUP1 PUSH4 0x8761AD0C GT PUSH2 0xA0 JUMPI DUP1 PUSH4 0xA9549F0A GT PUSH2 0x64 JUMPI DUP1 PUSH4 0xA9549F0A EQ PUSH2 0x470 JUMPI DUP1 PUSH4 0xAB0D4869 EQ PUSH2 0x4AD JUMPI DUP1 PUSH4 0xCF094497 EQ PUSH2 0x4C9 JUMPI DUP1 PUSH4 0xD624D6FD EQ PUSH2 0x4F4 JUMPI DUP1 PUSH4 0xED8C2AED EQ PUSH2 0x51D JUMPI PUSH2 0x11F JUMP JUMPDEST DUP1 PUSH4 0x8761AD0C EQ PUSH2 0x34F JUMPI DUP1 PUSH4 0x91CBFB41 EQ PUSH2 0x38C JUMPI DUP1 PUSH4 0x9207891D EQ PUSH2 0x3C9 JUMPI DUP1 PUSH4 0x9E319063 EQ PUSH2 0x3F4 JUMPI DUP1 PUSH4 0xA32BDE6F EQ PUSH2 0x433 JUMPI PUSH2 0x11F JUMP JUMPDEST DUP1 PUSH4 0x43859632 GT PUSH2 0xE7 JUMPI DUP1 PUSH4 0x43859632 EQ PUSH2 0x258 JUMPI DUP1 PUSH4 0x46F86716 EQ PUSH2 0x295 JUMPI DUP1 PUSH4 0x4C3C234F EQ PUSH2 0x2D2 JUMPI DUP1 PUSH4 0x6B7128EC EQ PUSH2 0x2FB JUMPI DUP1 PUSH4 0x6F4A2CD0 EQ PUSH2 0x338 JUMPI PUSH2 0x11F JUMP JUMPDEST DUP1 PUSH4 0x6455F5E EQ PUSH2 0x124 JUMPI DUP1 PUSH4 0xE89DA56 EQ PUSH2 0x161 JUMPI DUP1 PUSH4 0x27E235E3 EQ PUSH2 0x19E JUMPI DUP1 PUSH4 0x29B8F44A EQ PUSH2 0x1DB JUMPI DUP1 PUSH4 0x420700F6 EQ PUSH2 0x218 JUMPI JUMPDEST PUSH1 0x0 DUP1 REVERT JUMPDEST CALLVALUE DUP1 ISZERO PUSH2 0x130 JUMPI PUSH1 0x0 DUP1 REVERT JUMPDEST POP PUSH2 0x14B PUSH1 0x4 DUP1 CALLDATASIZE SUB DUP2 ADD SWAP1 PUSH2 0x146 SWAP2 SWAP1 PUSH2 0x1888 JUMP JUMPDEST PUSH2 0x534 JUMP JUMPDEST PUSH1 0x40 MLOAD PUSH2 0x158 SWAP2 SWAP1 PUSH2 0x18D7 JUMP JUMPDEST PUSH1 0x40 MLOAD DUP1 SWAP2 SUB SWAP1 RETURN JUMPDEST CALLVALUE DUP1 ISZERO PUSH2 0x16D JUMPI PUSH1 0x0 DUP1 REVERT JUMPDEST POP PUSH2 0x188 PUSH1 0x4 DUP1 CALLDATASIZE SUB DUP2 ADD SWAP1 PUSH2 0x183 SWAP2 SWAP1 PUSH2 0x18F2 JUMP JUMPDEST PUSH2 0x559 JUMP JUMPDEST PUSH1 0x40 MLOAD PUSH2 0x195 SWAP2 SWAP1 PUSH2 0x18D7 JUMP JUMPDEST PUSH1 0x40 MLOAD DUP1 SWAP2 SUB SWAP1 RETURN JUMPDEST CALLVALUE DUP1 ISZERO PUSH2 0x1AA JUMPI PUSH1 0x0 DUP1 REVERT JUMPDEST POP PUSH2 0x1C5 PUSH1 0x4 DUP1 CALLDATASIZE SUB DUP2 ADD SWAP1 PUSH2 0x1C0 SWAP2 SWAP1 PUSH2 0x191F JUMP JUMPDEST PUSH2 0x5E2 JUMP JUMPDEST PUSH1 0x40 MLOAD PUSH2 0x1D2 SWAP2 SWAP1 PUSH2 0x18D7 JUMP JUMPDEST PUSH1 0x40 MLOAD DUP1 SWAP2 SUB SWAP1 RETURN JUMPDEST CALLVALUE DUP1 ISZERO PUSH2 0x1E7 JUMPI PUSH1 0x0 DUP1 REVERT JUMPDEST POP PUSH2 0x202 PUSH1 0x4 DUP1 CALLDATASIZE SUB DUP2 ADD SWAP1 PUSH2 0x1FD SWAP2 SWAP1 PUSH2 0x18F2 JUMP JUMPDEST PUSH2 0x5FA JUMP JUMPDEST PUSH1 0x40 MLOAD PUSH2 0x20F SWAP2 SWAP1 PUSH2 0x1C29 JUMP JUMPDEST PUSH1 0x40 MLOAD DUP1 SWAP2 SUB SWAP1 RETURN JUMPDEST CALLVALUE DUP1 ISZERO PUSH2 0x224 JUMPI PUSH1 0x0 DUP1 REVERT JUMPDEST POP PUSH2 0x23F PUSH1 0x4 DUP1 CALLDATASIZE SUB DUP2 ADD SWAP1 PUSH2 0x23A SWAP2 SWAP1 PUSH2 0x1C4B JUMP JUMPDEST PUSH2 0x7ED JUMP JUMPDEST PUSH1 0x40 MLOAD PUSH2 0x24F SWAP5 SWAP4 SWAP3 SWAP2 SWAP1 PUSH2 0x1CE4 JUMP JUMPDEST PUSH1 0x40 MLOAD DUP1 SWAP2 SUB SWAP1 RETURN JUMPDEST CALLVALUE DUP1 ISZERO PUSH2 0x264 JUMPI PUSH1 0x0 DUP1 REVERT JUMPDEST POP PUSH2 0x27F PUSH1 0x4 DUP1 CALLDATASIZE SUB DUP2 ADD SWAP1 PUSH2 0x27A SWAP2 SWAP1 PUSH2 0x1888 JUMP JUMPDEST PUSH2 0x8E2 JUMP JUMPDEST PUSH1 0x40 MLOAD PUSH2 0x28C SWAP2 SWAP1 PUSH2 0x1D3F JUMP JUMPDEST PUSH1 0x40 MLOAD DUP1 SWAP2 SUB SWAP1 RETURN JUMPDEST CALLVALUE DUP1 ISZERO PUSH2 0x2A1 JUMPI PUSH1 0x0 DUP1 REVERT JUMPDEST POP PUSH2 0x2BC PUSH1 0x4 DUP1 CALLDATASIZE SUB DUP2 ADD SWAP1 PUSH2 0x2B7 SWAP2 SWAP1 PUSH2 0x18F2 JUMP JUMPDEST PUSH2 0x911 JUMP JUMPDEST PUSH1 0x40 MLOAD PUSH2 0x2C9 SWAP2 SWAP1 PUSH2 0x18D7 JUMP JUMPDEST PUSH1 0x40 MLOAD DUP1 SWAP2 SUB SWAP1 RETURN JUMPDEST CALLVALUE DUP1 ISZERO PUSH2 0x2DE JUMPI PUSH1 0x0 DUP1 REVERT JUMPDEST POP PUSH2 0x2F9 PUSH1 0x4 DUP1 CALLDATASIZE SUB DUP2 ADD SWAP1 PUSH2 0x2F4 SWAP2 SWAP1 PUSH2 0x1C4B JUMP JUMPDEST PUSH2 0x929 JUMP JUMPDEST STOP JUMPDEST CALLVALUE DUP1 ISZERO PUSH2 0x307 JUMPI PUSH1 0x0 DUP1 REVERT JUMPDEST POP PUSH2 0x322 PUSH1 0x4 DUP1 CALLDATASIZE SUB DUP2 ADD SWAP1 PUSH2 0x31D SWAP2 SWAP1 PUSH2 0x18F2 JUMP JUMPDEST PUSH2 0xCBD JUMP JUMPDEST PUSH1 0x40 MLOAD PUSH2 0x32F SWAP2 SWAP1 PUSH2 0x18D7 JUMP JUMPDEST PUSH1 0x40 MLOAD DUP1 SWAP2 SUB SWAP1 RETURN JUMPDEST CALLVALUE DUP1 ISZERO PUSH2 0x344 JUMPI PUSH1 0x0 DUP1 REVERT JUMPDEST POP PUSH2 0x34D PUSH2 0xCDD JUMP JUMPDEST STOP JUMPDEST CALLVALUE DUP1 ISZERO PUSH2 0x35B JUMPI PUSH1 0x0 DUP1 REVERT JUMPDEST POP PUSH2 0x376 PUSH1 0x4 DUP1 CALLDATASIZE SUB DUP2 ADD SWAP1 PUSH2 0x371 SWAP2 SWAP1 PUSH2 0x18F2 JUMP JUMPDEST PUSH2 0xCDF JUMP JUMPDEST PUSH1 0x40 MLOAD PUSH2 0x383 SWAP2 SWAP1 PUSH2 0x18D7 JUMP JUMPDEST PUSH1 0x40 MLOAD DUP1 SWAP2 SUB SWAP1 RETURN JUMPDEST CALLVALUE DUP1 ISZERO PUSH2 0x398 JUMPI PUSH1 0x0 DUP1 REVERT JUMPDEST POP PUSH2 0x3B3 PUSH1 0x4 DUP1 CALLDATASIZE SUB DUP2 ADD SWAP1 PUSH2 0x3AE SWAP2 SWAP1 PUSH2 0x1C4B JUMP JUMPDEST PUSH2 0xD3C JUMP JUMPDEST PUSH1 0x40 MLOAD PUSH2 0x3C0 SWAP2 SWAP1 PUSH2 0x18D7 JUMP JUMPDEST PUSH1 0x40 MLOAD DUP1 SWAP2 SUB SWAP1 RETURN JUMPDEST CALLVALUE DUP1 ISZERO PUSH2 0x3D5 JUMPI PUSH1 0x0 DUP1 REVERT JUMPDEST POP PUSH2 0x3DE PUSH2 0xD6D JUMP JUMPDEST PUSH1 0x40 MLOAD PUSH2 0x3EB SWAP2 SWAP1 PUSH2 0x18D7 JUMP JUMPDEST PUSH1 0x40 MLOAD DUP1 SWAP2 SUB SWAP1 RETURN JUMPDEST CALLVALUE DUP1 ISZERO PUSH2 0x400 JUMPI PUSH1 0x0 DUP1 REVERT JUMPDEST POP PUSH2 0x41B PUSH1 0x4 DUP1 CALLDATASIZE SUB DUP2 ADD SWAP1 PUSH2 0x416 SWAP2 SWAP1 PUSH2 0x1888 JUMP JUMPDEST PUSH2 0xD73 JUMP JUMPDEST PUSH1 0x40 MLOAD PUSH2 0x42A SWAP4 SWAP3 SWAP2 SWAP1 PUSH2 0x1D5A JUMP JUMPDEST PUSH1 0x40 MLOAD DUP1 SWAP2 SUB SWAP1 RETURN JUMPDEST CALLVALUE DUP1 ISZERO PUSH2 0x43F JUMPI PUSH1 0x0 DUP1 REVERT JUMPDEST POP PUSH2 0x45A PUSH1 0x4 DUP1 CALLDATASIZE SUB DUP2 ADD SWAP1 PUSH2 0x455 SWAP2 SWAP1 PUSH2 0x18F2 JUMP JUMPDEST PUSH2 0xDCA JUMP JUMPDEST PUSH1 0x40 MLOAD PUSH2 0x467 SWAP2 SWAP1 PUSH2 0x18D7 JUMP JUMPDEST PUSH1 0x40 MLOAD DUP1 SWAP2 SUB SWAP1 RETURN JUMPDEST CALLVALUE DUP1 ISZERO PUSH2 0x47C JUMPI PUSH1 0x0 DUP1 REVERT JUMPDEST POP PUSH2 0x497 PUSH1 0x4 DUP1 CALLDATASIZE SUB DUP2 ADD SWAP1 PUSH2 0x492 SWAP2 SWAP1 PUSH2 0x1DF6 JUMP JUMPDEST PUSH2 0xDEE JUMP JUMPDEST PUSH1 0x40 MLOAD PUSH2 0x4A4 SWAP2 SWAP1 PUSH2 0x18D7 JUMP JUMPDEST PUSH1 0x40 MLOAD DUP1 SWAP2 SUB SWAP1 RETURN JUMPDEST PUSH2 0x4C7 PUSH1 0x4 DUP1 CALLDATASIZE SUB DUP2 ADD SWAP1 PUSH2 0x4C2 SWAP2 SWAP1 PUSH2 0x1C4B JUMP JUMPDEST PUSH2 0xEED JUMP JUMPDEST STOP JUMPDEST CALLVALUE DUP1 ISZERO PUSH2 0x4D5 JUMPI PUSH1 0x0 DUP1 REVERT JUMPDEST POP PUSH2 0x4DE PUSH2 0x12F3 JUMP JUMPDEST PUSH1 0x40 MLOAD PUSH2 0x4EB SWAP2 SWAP1 PUSH2 0x18D7 JUMP JUMPDEST PUSH1 0x40 MLOAD DUP1 SWAP2 SUB SWAP1 RETURN JUMPDEST CALLVALUE DUP1 ISZERO PUSH2 0x500 JUMPI PUSH1 0x0 DUP1 REVERT JUMPDEST POP PUSH2 0x51B PUSH1 0x4 DUP1 CALLDATASIZE SUB DUP2 ADD SWAP1 PUSH2 0x516 SWAP2 SWAP1 PUSH2 0x2067 JUMP JUMPDEST PUSH2 0x12F9 JUMP JUMPDEST STOP JUMPDEST CALLVALUE DUP1 ISZERO PUSH2 0x529 JUMPI PUSH1 0x0 DUP1 REVERT JUMPDEST POP PUSH2 0x532 PUSH2 0x154F JUMP JUMPDEST STOP JUMPDEST PUSH1 0x3 PUSH1 0x20 MSTORE DUP2 PUSH1 0x0 MSTORE PUSH1 0x40 PUSH1 0x0 KECCAK256 PUSH1 0x20 MSTORE DUP1 PUSH1 0x0 MSTORE PUSH1 0x40 PUSH1 0x0 KECCAK256 PUSH1 0x0 SWAP2 POP SWAP2 POP POP SLOAD DUP2 JUMP JUMPDEST PUSH1 0x0 DUP1 PUSH1 0x0 SWAP1 POP PUSH1 0x0 JUMPDEST PUSH1 0x6 PUSH1 0x0 DUP6 DUP2 MSTORE PUSH1 0x20 ADD SWAP1 DUP2 MSTORE PUSH1 0x20 ADD PUSH1 0x0 KECCAK256 DUP1 SLOAD SWAP1 POP DUP2 LT ISZERO PUSH2 0x5D8 JUMPI PUSH1 0x6 PUSH1 0x0 DUP6 DUP2 MSTORE PUSH1 0x20 ADD SWAP1 DUP2 MSTORE PUSH1 0x20 ADD PUSH1 0x0 KECCAK256 DUP2 DUP2 SLOAD DUP2 LT PUSH2 0x5A6 JUMPI PUSH2 0x5A5 PUSH2 0x20D6 JUMP JUMPDEST JUMPDEST SWAP1 PUSH1 0x0 MSTORE PUSH1 0x20 PUSH1 0x0 KECCAK256 SWAP1 PUSH1 0x4 MUL ADD PUSH1 0x3 ADD SLOAD DUP3 PUSH2 0x5C3 SWAP2 SWAP1 PUSH2 0x2134 JUMP JUMPDEST SWAP2 POP DUP1 DUP1 PUSH2 0x5D0 SWAP1 PUSH2 0x2168 JUMP JUMPDEST SWAP2 POP POP PUSH2 0x563 JUMP JUMPDEST POP DUP1 SWAP2 POP POP SWAP2 SWAP1 POP JUMP JUMPDEST PUSH1 0x5 PUSH1 0x20 MSTORE DUP1 PUSH1 0x0 MSTORE PUSH1 0x40 PUSH1 0x0 KECCAK256 PUSH1 0x0 SWAP2 POP SWAP1 POP SLOAD DUP2 JUMP JUMPDEST PUSH2 0x602 PUSH2 0x1664 JUMP JUMPDEST PUSH1 0x0 PUSH1 0xA PUSH1 0x0 DUP5 DUP2 MSTORE PUSH1 0x20 ADD SWAP1 DUP2 MSTORE PUSH1 0x20 ADD PUSH1 0x0 KECCAK256 SWAP1 POP DUP1 PUSH1 0x40 MLOAD DUP1 PUSH1 0xE0 ADD PUSH1 0x40 MSTORE SWAP1 DUP2 PUSH1 0x0 DUP3 ADD SLOAD DUP2 MSTORE PUSH1 0x20 ADD PUSH1 0x1 DUP3 ADD PUSH1 0x0 SWAP1 SLOAD SWAP1 PUSH2 0x100 EXP SWAP1 DIV PUSH20 0xFFFFFFFFFFFFFFFFFFFFFFFFFFFFFFFFFFFFFFFF AND PUSH20 0xFFFFFFFFFFFFFFFFFFFFFFFFFFFFFFFFFFFFFFFF AND PUSH20 0xFFFFFFFFFFFFFFFFFFFFFFFFFFFFFFFFFFFFFFFF AND DUP2 MSTORE PUSH1 0x20 ADD PUSH1 0x2 DUP3 ADD SLOAD DUP2 MSTORE PUSH1 0x20 ADD PUSH1 0x3 DUP3 ADD SLOAD DUP2 MSTORE PUSH1 0x20 ADD PUSH1 0x4 DUP3 ADD DUP1 SLOAD DUP1 PUSH1 0x20 MUL PUSH1 0x20 ADD PUSH1 0x40 MLOAD SWAP1 DUP2 ADD PUSH1 0x40 MSTORE DUP1 SWAP3 SWAP2 SWAP1 DUP2 DUP2 MSTORE PUSH1 0x20 ADD PUSH1 0x0 SWAP1 JUMPDEST DUP3 DUP3 LT ISZERO PUSH2 0x76A JUMPI DUP4 DUP3 SWAP1 PUSH1 0x0 MSTORE PUSH1 0x20 PUSH1 0x0 KECCAK256 ADD DUP1 SLOAD PUSH2 0x6DD SWAP1 PUSH2 0x21DF JUMP JUMPDEST DUP1 PUSH1 0x1F ADD PUSH1 0x20 DUP1 SWAP2 DIV MUL PUSH1 0x20 ADD PUSH1 0x40 MLOAD SWAP1 DUP2 ADD PUSH1 0x40 MSTORE DUP1 SWAP3 SWAP2 SWAP1 DUP2 DUP2 MSTORE PUSH1 0x20 ADD DUP3 DUP1 SLOAD PUSH2 0x709 SWAP1 PUSH2 0x21DF JUMP JUMPDEST DUP1 ISZERO PUSH2 0x756 JUMPI DUP1 PUSH1 0x1F LT PUSH2 0x72B JUMPI PUSH2 0x100 DUP1 DUP4 SLOAD DIV MUL DUP4 MSTORE SWAP2 PUSH1 0x20 ADD SWAP2 PUSH2 0x756 JUMP JUMPDEST DUP3 ADD SWAP2 SWAP1 PUSH1 0x0 MSTORE PUSH1 0x20 PUSH1 0x0 KECCAK256 SWAP1 JUMPDEST DUP2 SLOAD DUP2 MSTORE SWAP1 PUSH1 0x1 ADD SWAP1 PUSH1 0x20 ADD DUP1 DUP4 GT PUSH2 0x739 JUMPI DUP3 SWAP1 SUB PUSH1 0x1F AND DUP3 ADD SWAP2 JUMPDEST POP POP POP POP POP DUP2 MSTORE PUSH1 0x20 ADD SWAP1 PUSH1 0x1 ADD SWAP1 PUSH2 0x6BE JUMP JUMPDEST POP POP POP POP DUP2 MSTORE PUSH1 0x20 ADD PUSH1 0x5 DUP3 ADD DUP1 SLOAD DUP1 PUSH1 0x20 MUL PUSH1 0x20 ADD PUSH1 0x40 MLOAD SWAP1 DUP2 ADD PUSH1 0x40 MSTORE DUP1 SWAP3 SWAP2 SWAP1 DUP2 DUP2 MSTORE PUSH1 0x20 ADD DUP3 DUP1 SLOAD DUP1 ISZERO PUSH2 0x7C1 JUMPI PUSH1 0x20 MUL DUP3 ADD SWAP2 SWAP1 PUSH1 0x0 MSTORE PUSH1 0x20 PUSH1 0x0 KECCAK256 SWAP1 JUMPDEST DUP2 SLOAD DUP2 MSTORE PUSH1 0x20 ADD SWAP1 PUSH1 0x1 ADD SWAP1 DUP1 DUP4 GT PUSH2 0x7AD JUMPI JUMPDEST POP POP POP POP POP DUP2 MSTORE PUSH1 0x20 ADD PUSH1 0x6 DUP3 ADD PUSH1 0x0 SWAP1 SLOAD SWAP1 PUSH2 0x100 EXP SWAP1 DIV PUSH1 0xFF AND ISZERO ISZERO ISZERO ISZERO DUP2 MSTORE POP POP SWAP2 POP POP SWAP2 SWAP1 POP JUMP JUMPDEST PUSH1 0x6 PUSH1 0x20 MSTORE DUP2 PUSH1 0x0 MSTORE PUSH1 0x40 PUSH1 0x0 KECCAK256 DUP2 DUP2 SLOAD DUP2 LT PUSH2 0x809 JUMPI PUSH1 0x0 DUP1 REVERT JUMPDEST SWAP1 PUSH1 0x0 MSTORE PUSH1 0x20 PUSH1 0x0 KECCAK256 SWAP1 PUSH1 0x4 MUL ADD PUSH1 0x0 SWAP2 POP SWAP2 POP POP DUP1 PUSH1 0x0 ADD SLOAD SWAP1 DUP1 PUSH1 0x1 ADD DUP1 SLOAD PUSH2 0x833 SWAP1 PUSH2 0x21DF JUMP JUMPDEST DUP1 PUSH1 0x1F ADD PUSH1 0x20 DUP1 SWAP2 DIV MUL PUSH1 0x20 ADD PUSH1 0x40 MLOAD SWAP1 DUP2 ADD PUSH1 0x40 MSTORE DUP1 SWAP3 SWAP2 SWAP1 DUP2 DUP2 MSTORE PUSH1 0x20 ADD DUP3 DUP1 SLOAD PUSH2 0x85F SWAP1 PUSH2 0x21DF JUMP JUMPDEST DUP1 ISZERO PUSH2 0x8AC JUMPI DUP1 PUSH1 0x1F LT PUSH2 0x881 JUMPI PUSH2 0x100 DUP1 DUP4 SLOAD DIV MUL DUP4 MSTORE SWAP2 PUSH1 0x20 ADD SWAP2 PUSH2 0x8AC JUMP JUMPDEST DUP3 ADD SWAP2 SWAP1 PUSH1 0x0 MSTORE PUSH1 0x20 PUSH1 0x0 KECCAK256 SWAP1 JUMPDEST DUP2 SLOAD DUP2 MSTORE SWAP1 PUSH1 0x1 ADD SWAP1 PUSH1 0x20 ADD DUP1 DUP4 GT PUSH2 0x88F JUMPI DUP3 SWAP1 SUB PUSH1 0x1F AND DUP3 ADD SWAP2 JUMPDEST POP POP POP POP POP SWAP1 DUP1 PUSH1 0x2 ADD PUSH1 0x0 SWAP1 SLOAD SWAP1 PUSH2 0x100 EXP SWAP1 DIV PUSH20 0xFFFFFFFFFFFFFFFFFFFFFFFFFFFFFFFFFFFFFFFF AND SWAP1 DUP1 PUSH1 0x3 ADD SLOAD SWAP1 POP DUP5 JUMP JUMPDEST PUSH1 0x7 PUSH1 0x20 MSTORE DUP2 PUSH1 0x0 MSTORE PUSH1 0x40 PUSH1 0x0 KECCAK256 PUSH1 0x20 MSTORE DUP1 PUSH1 0x0 MSTORE PUSH1 0x40 PUSH1 0x0 KECCAK256 PUSH1 0x0 SWAP2 POP SWAP2 POP SWAP1 SLOAD SWAP1 PUSH2 0x100 EXP SWAP1 DIV PUSH1 0xFF AND DUP2 JUMP JUMPDEST PUSH1 0x2 PUSH1 0x20 MSTORE DUP1 PUSH1 0x0 MSTORE PUSH1 0x40 PUSH1 0x0 KECCAK256 PUSH1 0x0 SWAP2 POP SWAP1 POP SLOAD DUP2 JUMP JUMPDEST PUSH1 0x0 PUSH1 0xA PUSH1 0x0 DUP5 DUP2 MSTORE PUSH1 0x20 ADD SWAP1 DUP2 MSTORE PUSH1 0x20 ADD PUSH1 0x0 KECCAK256 SWAP1 POP PUSH1 0x7 PUSH1 0x0 DUP5 DUP2 MSTORE PUSH1 0x20 ADD SWAP1 DUP2 MSTORE PUSH1 0x20 ADD PUSH1 0x0 KECCAK256 PUSH1 0x0 CALLER PUSH20 0xFFFFFFFFFFFFFFFFFFFFFFFFFFFFFFFFFFFFFFFF AND PUSH20 0xFFFFFFFFFFFFFFFFFFFFFFFFFFFFFFFFFFFFFFFF AND DUP2 MSTORE PUSH1 0x20 ADD SWAP1 DUP2 MSTORE PUSH1 0x20 ADD PUSH1 0x0 KECCAK256 PUSH1 0x0 SWAP1 SLOAD SWAP1 PUSH2 0x100 EXP SWAP1 DIV PUSH1 0xFF AND ISZERO PUSH2 0x9DE JUMPI PUSH1 0x40 MLOAD PUSH32 0x8C379A000000000000000000000000000000000000000000000000000000000 DUP2 MSTORE PUSH1 0x4 ADD PUSH2 0x9D5 SWAP1 PUSH2 0x225C JUMP JUMPDEST PUSH1 0x40 MLOAD DUP1 SWAP2 SUB SWAP1 REVERT JUMPDEST DUP1 PUSH1 0x6 ADD PUSH1 0x0 SWAP1 SLOAD SWAP1 PUSH2 0x100 EXP SWAP1 DIV PUSH1 0xFF AND PUSH2 0xA2F JUMPI PUSH1 0x40 MLOAD PUSH32 0x8C379A000000000000000000000000000000000000000000000000000000000 DUP2 MSTORE PUSH1 0x4 ADD PUSH2 0xA26 SWAP1 PUSH2 0x22C8 JUMP JUMPDEST PUSH1 0x40 MLOAD DUP1 SWAP2 SUB SWAP1 REVERT JUMPDEST DUP1 PUSH1 0x2 ADD SLOAD TIMESTAMP LT ISZERO DUP1 ISZERO PUSH2 0xA47 JUMPI POP DUP1 PUSH1 0x3 ADD SLOAD TIMESTAMP GT ISZERO JUMPDEST PUSH2 0xA86 JUMPI PUSH1 0x40 MLOAD PUSH32 0x8C379A000000000000000000000000000000000000000000000000000000000 DUP2 MSTORE PUSH1 0x4 ADD PUSH2 0xA7D SWAP1 PUSH2 0x2334 JUMP JUMPDEST PUSH1 0x40 MLOAD DUP1 SWAP2 SUB SWAP1 REVERT JUMPDEST PUSH1 0x0 DUP3 GT DUP1 ISZERO PUSH2 0xA9C JUMPI POP DUP1 PUSH1 0x4 ADD DUP1 SLOAD SWAP1 POP DUP3 LT JUMPDEST PUSH2 0xADB JUMPI PUSH1 0x40 MLOAD PUSH32 0x8C379A000000000000000000000000000000000000000000000000000000000 DUP2 MSTORE PUSH1 0x4 ADD PUSH2 0xAD2 SWAP1 PUSH2 0x23A0 JUMP JUMPDEST PUSH1 0x40 MLOAD DUP1 SWAP2 SUB SWAP1 REVERT JUMPDEST PUSH1 0x1 PUSH1 0x7 PUSH1 0x0 DUP6 DUP2 MSTORE PUSH1 0x20 ADD SWAP1 DUP2 MSTORE PUSH1 0x20 ADD PUSH1 0x0 KECCAK256 PUSH1 0x0 CALLER PUSH20 0xFFFFFFFFFFFFFFFFFFFFFFFFFFFFFFFFFFFFFFFF AND PUSH20 0xFFFFFFFFFFFFFFFFFFFFFFFFFFFFFFFFFFFFFFFF AND DUP2 MSTORE PUSH1 0x20 ADD SWAP1 DUP2 MSTORE PUSH1 0x20 ADD PUSH1 0x0 KECCAK256 PUSH1 0x0 PUSH2 0x100 EXP DUP2 SLOAD DUP2 PUSH1 0xFF MUL NOT AND SWAP1 DUP4 ISZERO ISZERO MUL OR SWAP1 SSTORE POP PUSH1 0x0 PUSH1 0x40 MLOAD DUP1 PUSH1 0x60 ADD PUSH1 0x40 MSTORE DUP1 DUP6 DUP2 MSTORE PUSH1 0x20 ADD CALLER PUSH20 0xFFFFFFFFFFFFFFFFFFFFFFFFFFFFFFFFFFFFFFFF AND DUP2 MSTORE PUSH1 0x20 ADD DUP5 DUP2 MSTORE POP SWAP1 POP DUP1 PUSH1 0x8 PUSH1 0x0 DUP7 DUP2 MSTORE PUSH1 0x20 ADD SWAP1 DUP2 MSTORE PUSH1 0x20 ADD PUSH1 0x0 KECCAK256 PUSH1 0x0 CALLER PUSH20 0xFFFFFFFFFFFFFFFFFFFFFFFFFFFFFFFFFFFFFFFF AND PUSH20 0xFFFFFFFFFFFFFFFFFFFFFFFFFFFFFFFFFFFFFFFF AND DUP2 MSTORE PUSH1 0x20 ADD SWAP1 DUP2 MSTORE PUSH1 0x20 ADD PUSH1 0x0 KECCAK256 PUSH1 0x0 DUP3 ADD MLOAD DUP2 PUSH1 0x0 ADD SSTORE PUSH1 0x20 DUP3 ADD MLOAD DUP2 PUSH1 0x1 ADD PUSH1 0x0 PUSH2 0x100 EXP DUP2 SLOAD DUP2 PUSH20 0xFFFFFFFFFFFFFFFFFFFFFFFFFFFFFFFFFFFFFFFF MUL NOT AND SWAP1 DUP4 PUSH20 0xFFFFFFFFFFFFFFFFFFFFFFFFFFFFFFFFFFFFFFFF AND MUL OR SWAP1 SSTORE POP PUSH1 0x40 DUP3 ADD MLOAD DUP2 PUSH1 0x2 ADD SSTORE SWAP1 POP POP PUSH2 0xC32 DUP5 CALLER PUSH2 0x1551 JUMP JUMPDEST DUP2 PUSH1 0x5 ADD DUP4 DUP2 SLOAD DUP2 LT PUSH2 0xC48 JUMPI PUSH2 0xC47 PUSH2 0x20D6 JUMP JUMPDEST JUMPDEST SWAP1 PUSH1 0x0 MSTORE PUSH1 0x20 PUSH1 0x0 KECCAK256 ADD PUSH1 0x0 DUP2 SLOAD DUP1 SWAP3 SWAP2 SWAP1 PUSH2 0xC63 SWAP1 PUSH2 0x2168 JUMP JUMPDEST SWAP2 SWAP1 POP SSTORE POP CALLER PUSH20 0xFFFFFFFFFFFFFFFFFFFFFFFFFFFFFFFFFFFFFFFF AND DUP5 PUSH32 0xE7EE74CA1F4BB1B82B14F87794C45B3E59C39E372B862FB97A6316B43355B69E DUP6 PUSH1 0x40 MLOAD PUSH2 0xCAF SWAP2 SWAP1 PUSH2 0x18D7 JUMP JUMPDEST PUSH1 0x40 MLOAD DUP1 SWAP2 SUB SWAP1 LOG3 POP POP POP POP JUMP JUMPDEST PUSH1 0x0 PUSH1 0x6 PUSH1 0x0 DUP4 DUP2 MSTORE PUSH1 0x20 ADD SWAP1 DUP2 MSTORE PUSH1 0x20 ADD PUSH1 0x0 KECCAK256 DUP1 SLOAD SWAP1 POP SWAP1 POP SWAP2 SWAP1 POP JUMP JUMPDEST JUMP JUMPDEST PUSH1 0x0 DUP1 PUSH1 0x0 SWAP1 POP PUSH1 0x0 PUSH1 0x9 PUSH1 0x0 DUP6 DUP2 MSTORE PUSH1 0x20 ADD SWAP1 DUP2 MSTORE PUSH1 0x20 ADD PUSH1 0x0 KECCAK256 SWAP1 POP PUSH1 0x0 JUMPDEST PUSH2 0xD09 DUP3 PUSH2 0x157B JUMP JUMPDEST DUP2 LT ISZERO PUSH2 0xD31 JUMPI DUP3 DUP1 PUSH2 0xD1B SWAP1 PUSH2 0x2168 JUMP JUMPDEST SWAP4 POP POP DUP1 DUP1 PUSH2 0xD29 SWAP1 PUSH2 0x2168 JUMP JUMPDEST SWAP2 POP POP PUSH2 0xD00 JUMP JUMPDEST POP DUP2 SWAP3 POP POP POP SWAP2 SWAP1 POP JUMP JUMPDEST PUSH1 0x4 PUSH1 0x20 MSTORE DUP2 PUSH1 0x0 MSTORE PUSH1 0x40 PUSH1 0x0 KECCAK256 DUP2 DUP2 SLOAD DUP2 LT PUSH2 0xD58 JUMPI PUSH1 0x0 DUP1 REVERT JUMPDEST SWAP1 PUSH1 0x0 MSTORE PUSH1 0x20 PUSH1 0x0 KECCAK256 ADD PUSH1 0x0 SWAP2 POP SWAP2 POP POP SLOAD DUP2 JUMP JUMPDEST PUSH1 0x0 SLOAD DUP2 JUMP JUMPDEST PUSH1 0x8 PUSH1 0x20 MSTORE DUP2 PUSH1 0x0 MSTORE PUSH1 0x40 PUSH1 0x0 KECCAK256 PUSH1 0x20 MSTORE DUP1 PUSH1 0x0 MSTORE PUSH1 0x40 PUSH1 0x0 KECCAK256 PUSH1 0x0 SWAP2 POP SWAP2 POP POP DUP1 PUSH1 0x0 ADD SLOAD SWAP1 DUP1 PUSH1 0x1 ADD PUSH1 0x0 SWAP1 SLOAD SWAP1 PUSH2 0x100 EXP SWAP1 DIV PUSH20 0xFFFFFFFFFFFFFFFFFFFFFFFFFFFFFFFFFFFFFFFF AND SWAP1 DUP1 PUSH1 0x2 ADD SLOAD SWAP1 POP DUP4 JUMP JUMPDEST PUSH1 0xB DUP2 DUP2 SLOAD DUP2 LT PUSH2 0xDDA JUMPI PUSH1 0x0 DUP1 REVERT JUMPDEST SWAP1 PUSH1 0x0 MSTORE PUSH1 0x20 PUSH1 0x0 KECCAK256 ADD PUSH1 0x0 SWAP2 POP SWAP1 POP SLOAD DUP2 JUMP JUMPDEST PUSH1 0x0 DUP1 PUSH1 0x0 SWAP1 POP PUSH1 0x0 PUSH1 0x6 PUSH1 0x0 DUP8 DUP2 MSTORE PUSH1 0x20 ADD SWAP1 DUP2 MSTORE PUSH1 0x20 ADD PUSH1 0x0 KECCAK256 SWAP1 POP PUSH1 0x0 JUMPDEST DUP2 DUP1 SLOAD SWAP1 POP DUP2 LT ISZERO PUSH2 0xEB7 JUMPI DUP6 DUP6 PUSH1 0x40 MLOAD PUSH2 0xE2B SWAP3 SWAP2 SWAP1 PUSH2 0x23F0 JUMP JUMPDEST PUSH1 0x40 MLOAD DUP1 SWAP2 SUB SWAP1 KECCAK256 DUP3 DUP3 DUP2 SLOAD DUP2 LT PUSH2 0xE46 JUMPI PUSH2 0xE45 PUSH2 0x20D6 JUMP JUMPDEST JUMPDEST SWAP1 PUSH1 0x0 MSTORE PUSH1 0x20 PUSH1 0x0 KECCAK256 SWAP1 PUSH1 0x4 MUL ADD PUSH1 0x1 ADD PUSH1 0x40 MLOAD PUSH2 0xE64 SWAP2 SWAP1 PUSH2 0x24A1 JUMP JUMPDEST PUSH1 0x40 MLOAD DUP1 SWAP2 SUB SWAP1 KECCAK256 SUB PUSH2 0xEA4 JUMPI DUP2 DUP2 DUP2 SLOAD DUP2 LT PUSH2 0xE84 JUMPI PUSH2 0xE83 PUSH2 0x20D6 JUMP JUMPDEST JUMPDEST SWAP1 PUSH1 0x0 MSTORE PUSH1 0x20 PUSH1 0x0 KECCAK256 SWAP1 PUSH1 0x4 MUL ADD PUSH1 0x3 ADD SLOAD DUP4 PUSH2 0xEA1 SWAP2 SWAP1 PUSH2 0x2134 JUMP JUMPDEST SWAP3 POP JUMPDEST DUP1 DUP1 PUSH2 0xEAF SWAP1 PUSH2 0x2168 JUMP JUMPDEST SWAP2 POP POP PUSH2 0xE0F JUMP JUMPDEST POP PUSH1 0x0 PUSH2 0xEC3 DUP8 PUSH2 0x559 JUMP JUMPDEST SWAP1 POP PUSH1 0x0 DUP2 GT PUSH2 0xED4 JUMPI PUSH1 0x0 PUSH2 0xEE1 JUMP JUMPDEST DUP1 DUP4 PUSH2 0xEE0 SWAP2 SWAP1 PUSH2 0x24E7 JUMP JUMPDEST JUMPDEST SWAP4 POP POP POP POP SWAP4 SWAP3 POP POP POP JUMP JUMPDEST PUSH1 0xA PUSH1 0x0 DUP4 DUP2 MSTORE PUSH1 0x20 ADD SWAP1 DUP2 MSTORE PUSH1 0x20 ADD PUSH1 0x0 KECCAK256 PUSH1 0x2 ADD SLOAD TIMESTAMP LT ISZERO PUSH2 0xF46 JUMPI PUSH1 0x40 MLOAD PUSH32 0x8C379A000000000000000000000000000000000000000000000000000000000 DUP2 MSTORE PUSH1 0x4 ADD PUSH2 0xF3D SWAP1 PUSH2 0x258A JUMP JUMPDEST PUSH1 0x40 MLOAD DUP1 SWAP2 SUB SWAP1 REVERT JUMPDEST PUSH1 0xA PUSH1 0x0 DUP4 DUP2 MSTORE PUSH1 0x20 ADD SWAP1 DUP2 MSTORE PUSH1 0x20 ADD PUSH1 0x0 KECCAK256 PUSH1 0x3 ADD SLOAD TIMESTAMP LT PUSH2 0xF9E JUMPI PUSH1 0x40 MLOAD PUSH32 0x8C379A000000000000000000000000000000000000000000000000000000000 DUP2 MSTORE PUSH1 0x4 ADD PUSH2 0xF95 SWAP1 PUSH2 0x261C JUMP JUMPDEST PUSH1 0x40 MLOAD DUP1 SWAP2 SUB SWAP1 REVERT JUMPDEST PUSH1 0x0 CALLVALUE GT PUSH2 0xFE1 JUMPI PUSH1 0x40 MLOAD PUSH32 0x8C379A000000000000000000000000000000000000000000000000000000000 DUP2 MSTORE PUSH1 0x4 ADD PUSH2 0xFD8 SWAP1 PUSH2 0x2688 JUMP JUMPDEST PUSH1 0x40 MLOAD DUP1 SWAP2 SUB SWAP1 REVERT JUMPDEST PUSH1 0x0 DUP2 GT PUSH2 0x1024 JUMPI PUSH1 0x40 MLOAD PUSH32 0x8C379A000000000000000000000000000000000000000000000000000000000 DUP2 MSTORE PUSH1 0x4 ADD PUSH2 0x101B SWAP1 PUSH2 0x2740 JUMP JUMPDEST PUSH1 0x40 MLOAD DUP1 SWAP2 SUB SWAP1 REVERT JUMPDEST CALLVALUE PUSH1 0x2 PUSH1 0x0 DUP5 DUP2 MSTORE PUSH1 0x20 ADD SWAP1 DUP2 MSTORE PUSH1 0x20 ADD PUSH1 0x0 KECCAK256 PUSH1 0x0 DUP3 DUP3 SLOAD PUSH2 0x1047 SWAP2 SWAP1 PUSH2 0x2134 JUMP JUMPDEST SWAP3 POP POP DUP2 SWAP1 SSTORE POP CALLVALUE PUSH1 0x3 PUSH1 0x0 DUP5 DUP2 MSTORE PUSH1 0x20 ADD SWAP1 DUP2 MSTORE PUSH1 0x20 ADD PUSH1 0x0 KECCAK256 PUSH1 0x0 CALLER PUSH20 0xFFFFFFFFFFFFFFFFFFFFFFFFFFFFFFFFFFFFFFFF AND PUSH20 0xFFFFFFFFFFFFFFFFFFFFFFFFFFFFFFFFFFFFFFFF AND DUP2 MSTORE PUSH1 0x20 ADD SWAP1 DUP2 MSTORE PUSH1 0x20 ADD PUSH1 0x0 KECCAK256 PUSH1 0x0 DUP3 DUP3 SLOAD PUSH2 0x10AE SWAP2 SWAP1 PUSH2 0x2134 JUMP JUMPDEST SWAP3 POP POP DUP2 SWAP1 SSTORE POP PUSH1 0x1 PUSH1 0x0 DUP2 SLOAD DUP1 SWAP3 SWAP2 SWAP1 PUSH2 0x10C8 SWAP1 PUSH2 0x2168 JUMP JUMPDEST SWAP2 SWAP1 POP SSTORE POP PUSH1 0x6 PUSH1 0x0 DUP4 DUP2 MSTORE PUSH1 0x20 ADD SWAP1 DUP2 MSTORE PUSH1 0x20 ADD PUSH1 0x0 KECCAK256 PUSH1 0x40 MLOAD DUP1 PUSH1 0x80 ADD PUSH1 0x40 MSTORE DUP1 DUP5 DUP2 MSTORE PUSH1 0x20 ADD PUSH1 0xA PUSH1 0x0 DUP7 DUP2 MSTORE PUSH1 0x20 ADD SWAP1 DUP2 MSTORE PUSH1 0x20 ADD PUSH1 0x0 KECCAK256 PUSH1 0x4 ADD DUP5 DUP2 SLOAD DUP2 LT PUSH2 0x1119 JUMPI PUSH2 0x1118 PUSH2 0x20D6 JUMP JUMPDEST JUMPDEST SWAP1 PUSH1 0x0 MSTORE PUSH1 0x20 PUSH1 0x0 KECCAK256 ADD DUP1 SLOAD PUSH2 0x112E SWAP1 PUSH2 0x21DF JUMP JUMPDEST DUP1 PUSH1 0x1F ADD PUSH1 0x20 DUP1 SWAP2 DIV MUL PUSH1 0x20 ADD PUSH1 0x40 MLOAD SWAP1 DUP2 ADD PUSH1 0x40 MSTORE DUP1 SWAP3 SWAP2 SWAP1 DUP2 DUP2 MSTORE PUSH1 0x20 ADD DUP3 DUP1 SLOAD PUSH2 0x115A SWAP1 PUSH2 0x21DF JUMP JUMPDEST DUP1 ISZERO PUSH2 0x11A7 JUMPI DUP1 PUSH1 0x1F LT PUSH2 0x117C JUMPI PUSH2 0x100 DUP1 DUP4 SLOAD DIV MUL DUP4 MSTORE SWAP2 PUSH1 0x20 ADD SWAP2 PUSH2 0x11A7 JUMP JUMPDEST DUP3 ADD SWAP2 SWAP1 PUSH1 0x0 MSTORE PUSH1 0x20 PUSH1 0x0 KECCAK256 SWAP1 JUMPDEST DUP2 SLOAD DUP2 MSTORE SWAP1 PUSH1 0x1 ADD SWAP1 PUSH1 0x20 ADD DUP1 DUP4 GT PUSH2 0x118A JUMPI DUP3 SWAP1 SUB PUSH1 0x1F AND DUP3 ADD SWAP2 JUMPDEST POP POP POP POP POP DUP2 MSTORE PUSH1 0x20 ADD CALLER PUSH20 0xFFFFFFFFFFFFFFFFFFFFFFFFFFFFFFFFFFFFFFFF AND DUP2 MSTORE PUSH1 0x20 ADD CALLVALUE DUP2 MSTORE POP SWAP1 DUP1 PUSH1 0x1 DUP2 SLOAD ADD DUP1 DUP3 SSTORE DUP1 SWAP2 POP POP PUSH1 0x1 SWAP1 SUB SWAP1 PUSH1 0x0 MSTORE PUSH1 0x20 PUSH1 0x0 KECCAK256 SWAP1 PUSH1 0x4 MUL ADD PUSH1 0x0 SWAP1 SWAP2 SWAP1 SWAP2 SWAP1 SWAP2 POP PUSH1 0x0 DUP3 ADD MLOAD DUP2 PUSH1 0x0 ADD SSTORE PUSH1 0x20 DUP3 ADD MLOAD DUP2 PUSH1 0x1 ADD SWAP1 DUP2 PUSH2 0x1219 SWAP2 SWAP1 PUSH2 0x290C JUMP JUMPDEST POP PUSH1 0x40 DUP3 ADD MLOAD DUP2 PUSH1 0x2 ADD PUSH1 0x0 PUSH2 0x100 EXP DUP2 SLOAD DUP2 PUSH20 0xFFFFFFFFFFFFFFFFFFFFFFFFFFFFFFFFFFFFFFFF MUL NOT AND SWAP1 DUP4 PUSH20 0xFFFFFFFFFFFFFFFFFFFFFFFFFFFFFFFFFFFFFFFF AND MUL OR SWAP1 SSTORE POP PUSH1 0x60 DUP3 ADD MLOAD DUP2 PUSH1 0x3 ADD SSTORE POP POP CALLER PUSH20 0xFFFFFFFFFFFFFFFFFFFFFFFFFFFFFFFFFFFFFFFF AND DUP3 PUSH32 0xFA643037CEE917EC3049F1BA2BFB5D4DF493F0B6DB3ED68F3716D11233494E7D PUSH1 0xA PUSH1 0x0 DUP7 DUP2 MSTORE PUSH1 0x20 ADD SWAP1 DUP2 MSTORE PUSH1 0x20 ADD PUSH1 0x0 KECCAK256 PUSH1 0x4 ADD DUP5 DUP2 SLOAD DUP2 LT PUSH2 0x12CE JUMPI PUSH2 0x12CD PUSH2 0x20D6 JUMP JUMPDEST JUMPDEST SWAP1 PUSH1 0x0 MSTORE PUSH1 0x20 PUSH1 0x0 KECCAK256 ADD CALLVALUE PUSH1 0x40 MLOAD PUSH2 0x12E7 SWAP3 SWAP2 SWAP1 PUSH2 0x2A62 JUMP JUMPDEST PUSH1 0x40 MLOAD DUP1 SWAP2 SUB SWAP1 LOG3 POP POP JUMP JUMPDEST PUSH1 0x1 SLOAD DUP2 JUMP JUMPDEST TIMESTAMP SWAP3 POP PUSH3 0x15180 TIMESTAMP PUSH2 0x130B SWAP2 SWAP1 PUSH2 0x2134 JUMP JUMPDEST SWAP2 POP DUP3 DUP3 GT PUSH2 0x134F JUMPI PUSH1 0x40 MLOAD PUSH32 0x8C379A000000000000000000000000000000000000000000000000000000000 DUP2 MSTORE PUSH1 0x4 ADD PUSH2 0x1346 SWAP1 PUSH2 0x2ADE JUMP JUMPDEST PUSH1 0x40 MLOAD DUP1 SWAP2 SUB SWAP1 REVERT JUMPDEST PUSH1 0x1 DUP2 MLOAD GT PUSH2 0x1393 JUMPI PUSH1 0x40 MLOAD PUSH32 0x8C379A000000000000000000000000000000000000000000000000000000000 DUP2 MSTORE PUSH1 0x4 ADD PUSH2 0x138A SWAP1 PUSH2 0x2B4A JUMP JUMPDEST PUSH1 0x40 MLOAD DUP1 SWAP2 SUB SWAP1 REVERT JUMPDEST PUSH1 0x0 DUP2 MLOAD SWAP1 POP PUSH1 0x0 DUP2 PUSH8 0xFFFFFFFFFFFFFFFF DUP2 GT ISZERO PUSH2 0x13B5 JUMPI PUSH2 0x13B4 PUSH2 0x1E56 JUMP JUMPDEST JUMPDEST PUSH1 0x40 MLOAD SWAP1 DUP1 DUP3 MSTORE DUP1 PUSH1 0x20 MUL PUSH1 0x20 ADD DUP3 ADD PUSH1 0x40 MSTORE DUP1 ISZERO PUSH2 0x13E3 JUMPI DUP2 PUSH1 0x20 ADD PUSH1 0x20 DUP3 MUL DUP1 CALLDATASIZE DUP4 CALLDATACOPY DUP1 DUP3 ADD SWAP2 POP POP SWAP1 POP JUMPDEST POP SWAP1 POP PUSH1 0x0 PUSH1 0xA PUSH1 0x0 DUP1 SLOAD DUP2 MSTORE PUSH1 0x20 ADD SWAP1 DUP2 MSTORE PUSH1 0x20 ADD PUSH1 0x0 KECCAK256 SWAP1 POP CALLER DUP2 PUSH1 0x1 ADD PUSH1 0x0 PUSH2 0x100 EXP DUP2 SLOAD DUP2 PUSH20 0xFFFFFFFFFFFFFFFFFFFFFFFFFFFFFFFFFFFFFFFF MUL NOT AND SWAP1 DUP4 PUSH20 0xFFFFFFFFFFFFFFFFFFFFFFFFFFFFFFFFFFFFFFFF AND MUL OR SWAP1 SSTORE POP TIMESTAMP DUP2 PUSH1 0x2 ADD DUP2 SWAP1 SSTORE POP PUSH3 0x15180 TIMESTAMP PUSH2 0x1459 SWAP2 SWAP1 PUSH2 0x2134 JUMP JUMPDEST DUP2 PUSH1 0x3 ADD DUP2 SWAP1 SSTORE POP DUP4 DUP2 PUSH1 0x4 ADD SWAP1 DUP1 MLOAD SWAP1 PUSH1 0x20 ADD SWAP1 PUSH2 0x1479 SWAP3 SWAP2 SWAP1 PUSH2 0x16B9 JUMP JUMPDEST POP DUP2 DUP2 PUSH1 0x5 ADD SWAP1 DUP1 MLOAD SWAP1 PUSH1 0x20 ADD SWAP1 PUSH2 0x1492 SWAP3 SWAP2 SWAP1 PUSH2 0x1712 JUMP JUMPDEST POP PUSH1 0x1 DUP2 PUSH1 0x6 ADD PUSH1 0x0 PUSH2 0x100 EXP DUP2 SLOAD DUP2 PUSH1 0xFF MUL NOT AND SWAP1 DUP4 ISZERO ISZERO MUL OR SWAP1 SSTORE POP PUSH1 0xB PUSH1 0x0 SLOAD SWAP1 DUP1 PUSH1 0x1 DUP2 SLOAD ADD DUP1 DUP3 SSTORE DUP1 SWAP2 POP POP PUSH1 0x1 SWAP1 SUB SWAP1 PUSH1 0x0 MSTORE PUSH1 0x20 PUSH1 0x0 KECCAK256 ADD PUSH1 0x0 SWAP1 SWAP2 SWAP1 SWAP2 SWAP1 SWAP2 POP SSTORE CALLER PUSH20 0xFFFFFFFFFFFFFFFFFFFFFFFFFFFFFFFFFFFFFFFF AND PUSH1 0x0 SLOAD PUSH32 0x58D87E181E9AC91F8CCDA34CAAF4C15DB2A9FC345A86EA48E378D6E4359DFDB9 DUP9 DUP9 DUP9 PUSH1 0x40 MLOAD PUSH2 0x1528 SWAP4 SWAP3 SWAP2 SWAP1 PUSH2 0x2BF0 JUMP JUMPDEST PUSH1 0x40 MLOAD DUP1 SWAP2 SUB SWAP1 LOG3 PUSH1 0x0 DUP1 DUP2 SLOAD DUP1 SWAP3 SWAP2 SWAP1 PUSH2 0x1542 SWAP1 PUSH2 0x2168 JUMP JUMPDEST SWAP2 SWAP1 POP SSTORE POP POP POP POP POP POP POP JUMP JUMPDEST JUMP JUMPDEST PUSH2 0x1576 DUP2 PUSH1 0x9 PUSH1 0x0 DUP6 DUP2 MSTORE PUSH1 0x20 ADD SWAP1 DUP2 MSTORE PUSH1 0x20 ADD PUSH1 0x0 KECCAK256 PUSH2 0x1590 SWAP1 SWAP2 SWAP1 PUSH4 0xFFFFFFFF AND JUMP JUMPDEST POP POP POP JUMP JUMPDEST PUSH1 0x0 PUSH2 0x1589 DUP3 PUSH1 0x0 ADD PUSH2 0x15C0 JUMP JUMPDEST SWAP1 POP SWAP2 SWAP1 POP JUMP JUMPDEST PUSH1 0x0 PUSH2 0x15B8 DUP4 PUSH1 0x0 ADD DUP4 PUSH20 0xFFFFFFFFFFFFFFFFFFFFFFFFFFFFFFFFFFFFFFFF AND PUSH1 0x0 SHL PUSH2 0x15D1 JUMP JUMPDEST SWAP1 POP SWAP3 SWAP2 POP POP JUMP JUMPDEST PUSH1 0x0 DUP2 PUSH1 0x0 ADD DUP1 SLOAD SWAP1 POP SWAP1 POP SWAP2 SWAP1 POP JUMP JUMPDEST PUSH1 0x0 PUSH2 0x15DD DUP4 DUP4 PUSH2 0x1641 JUMP JUMPDEST PUSH2 0x1636 JUMPI DUP3 PUSH1 0x0 ADD DUP3 SWAP1 DUP1 PUSH1 0x1 DUP2 SLOAD ADD DUP1 DUP3 SSTORE DUP1 SWAP2 POP POP PUSH1 0x1 SWAP1 SUB SWAP1 PUSH1 0x0 MSTORE PUSH1 0x20 PUSH1 0x0 KECCAK256 ADD PUSH1 0x0 SWAP1 SWAP2 SWAP1 SWAP2 SWAP1 SWAP2 POP SSTORE DUP3 PUSH1 0x0 ADD DUP1 SLOAD SWAP1 POP DUP4 PUSH1 0x1 ADD PUSH1 0x0 DUP5 DUP2 MSTORE PUSH1 0x20 ADD SWAP1 DUP2 MSTORE PUSH1 0x20 ADD PUSH1 0x0 KECCAK256 DUP2 SWAP1 SSTORE POP PUSH1 0x1 SWAP1 POP PUSH2 0x163B JUMP JUMPDEST PUSH1 0x0 SWAP1 POP JUMPDEST SWAP3 SWAP2 POP POP JUMP JUMPDEST PUSH1 0x0 DUP1 DUP4 PUSH1 0x1 ADD PUSH1 0x0 DUP5 DUP2 MSTORE PUSH1 0x20 ADD SWAP1 DUP2 MSTORE PUSH1 0x20 ADD PUSH1 0x0 KECCAK256 SLOAD EQ ISZERO SWAP1 POP SWAP3 SWAP2 POP POP JUMP JUMPDEST PUSH1 0x40 MLOAD DUP1 PUSH1 0xE0 ADD PUSH1 0x40 MSTORE DUP1 PUSH1 0x0 DUP2 MSTORE PUSH1 0x20 ADD PUSH1 0x0 PUSH20 0xFFFFFFFFFFFFFFFFFFFFFFFFFFFFFFFFFFFFFFFF AND DUP2 MSTORE PUSH1 0x20 ADD PUSH1 0x0 DUP2 MSTORE PUSH1 0x20 ADD PUSH1 0x0 DUP2 MSTORE PUSH1 0x20 ADD PUSH1 0x60 DUP2 MSTORE PUSH1 0x20 ADD PUSH1 0x60 DUP2 MSTORE PUSH1 0x20 ADD PUSH1 0x0 ISZERO ISZERO DUP2 MSTORE POP SWAP1 JUMP JUMPDEST DUP3 DUP1 SLOAD DUP3 DUP3 SSTORE SWAP1 PUSH1 0x0 MSTORE PUSH1 0x20 PUSH1 0x0 KECCAK256 SWAP1 DUP2 ADD SWAP3 DUP3 ISZERO PUSH2 0x1701 JUMPI SWAP2 PUSH1 0x20 MUL DUP3 ADD JUMPDEST DUP3 DUP2 GT ISZERO PUSH2 0x1700 JUMPI DUP3 MLOAD DUP3 SWAP1 DUP2 PUSH2 0x16F0 SWAP2 SWAP1 PUSH2 0x290C JUMP JUMPDEST POP SWAP2 PUSH1 0x20 ADD SWAP2 SWAP1 PUSH1 0x1 ADD SWAP1 PUSH2 0x16D9 JUMP JUMPDEST JUMPDEST POP SWAP1 POP PUSH2 0x170E SWAP2 SWAP1 PUSH2 0x175F JUMP JUMPDEST POP SWAP1 JUMP JUMPDEST DUP3 DUP1 SLOAD DUP3 DUP3 SSTORE SWAP1 PUSH1 0x0 MSTORE PUSH1 0x20 PUSH1 0x0 KECCAK256 SWAP1 DUP2 ADD SWAP3 DUP3 ISZERO PUSH2 0x174E JUMPI SWAP2 PUSH1 0x20 MUL DUP3 ADD JUMPDEST DUP3 DUP2 GT ISZERO PUSH2 0x174D JUMPI DUP3 MLOAD DUP3 SSTORE SWAP2 PUSH1 0x20 ADD SWAP2 SWAP1 PUSH1 0x1 ADD SWAP1 PUSH2 0x1732 JUMP JUMPDEST JUMPDEST POP SWAP1 POP PUSH2 0x175B SWAP2 SWAP1 PUSH2 0x1783 JUMP JUMPDEST POP SWAP1 JUMP JUMPDEST JUMPDEST DUP1 DUP3 GT ISZERO PUSH2 0x177F JUMPI PUSH1 0x0 DUP2 DUP2 PUSH2 0x1776 SWAP2 SWAP1 PUSH2 0x17A0 JUMP JUMPDEST POP PUSH1 0x1 ADD PUSH2 0x1760 JUMP JUMPDEST POP SWAP1 JUMP JUMPDEST JUMPDEST DUP1 DUP3 GT ISZERO PUSH2 0x179C JUMPI PUSH1 0x0 DUP2 PUSH1 0x0 SWAP1 SSTORE POP PUSH1 0x1 ADD PUSH2 0x1784 JUMP JUMPDEST POP SWAP1 JUMP JUMPDEST POP DUP1 SLOAD PUSH2 0x17AC SWAP1 PUSH2 0x21DF JUMP JUMPDEST PUSH1 0x0 DUP3 SSTORE DUP1 PUSH1 0x1F LT PUSH2 0x17BE JUMPI POP PUSH2 0x17DD JUMP JUMPDEST PUSH1 0x1F ADD PUSH1 0x20 SWAP1 DIV SWAP1 PUSH1 0x0 MSTORE PUSH1 0x20 PUSH1 0x0 KECCAK256 SWAP1 DUP2 ADD SWAP1 PUSH2 0x17DC SWAP2 SWAP1 PUSH2 0x1783 JUMP JUMPDEST JUMPDEST POP JUMP JUMPDEST PUSH1 0x0 PUSH1 0x40 MLOAD SWAP1 POP SWAP1 JUMP JUMPDEST PUSH1 0x0 DUP1 REVERT JUMPDEST PUSH1 0x0 DUP1 REVERT JUMPDEST PUSH1 0x0 DUP2 SWAP1 POP SWAP2 SWAP1 POP JUMP JUMPDEST PUSH2 0x1807 DUP2 PUSH2 0x17F4 JUMP JUMPDEST DUP2 EQ PUSH2 0x1812 JUMPI PUSH1 0x0 DUP1 REVERT JUMPDEST POP JUMP JUMPDEST PUSH1 0x0 DUP2 CALLDATALOAD SWAP1 POP PUSH2 0x1824 DUP2 PUSH2 0x17FE JUMP JUMPDEST SWAP3 SWAP2 POP POP JUMP JUMPDEST PUSH1 0x0 PUSH20 0xFFFFFFFFFFFFFFFFFFFFFFFFFFFFFFFFFFFFFFFF DUP3 AND SWAP1 POP SWAP2 SWAP1 POP JUMP JUMPDEST PUSH1 0x0 PUSH2 0x1855 DUP3 PUSH2 0x182A JUMP JUMPDEST SWAP1 POP SWAP2 SWAP1 POP JUMP JUMPDEST PUSH2 0x1865 DUP2 PUSH2 0x184A JUMP JUMPDEST DUP2 EQ PUSH2 0x1870 JUMPI PUSH1 0x0 DUP1 REVERT JUMPDEST POP JUMP JUMPDEST PUSH1 0x0 DUP2 CALLDATALOAD SWAP1 POP PUSH2 0x1882 DUP2 PUSH2 0x185C JUMP JUMPDEST SWAP3 SWAP2 POP POP JUMP JUMPDEST PUSH1 0x0 DUP1 PUSH1 0x40 DUP4 DUP6 SUB SLT ISZERO PUSH2 0x189F JUMPI PUSH2 0x189E PUSH2 0x17EA JUMP JUMPDEST JUMPDEST PUSH1 0x0 PUSH2 0x18AD DUP6 DUP3 DUP7 ADD PUSH2 0x1815 JUMP JUMPDEST SWAP3 POP POP PUSH1 0x20 PUSH2 0x18BE DUP6 DUP3 DUP7 ADD PUSH2 0x1873 JUMP JUMPDEST SWAP2 POP POP SWAP3 POP SWAP3 SWAP1 POP JUMP JUMPDEST PUSH2 0x18D1 DUP2 PUSH2 0x17F4 JUMP JUMPDEST DUP3 MSTORE POP POP JUMP JUMPDEST PUSH1 0x0 PUSH1 0x20 DUP3 ADD SWAP1 POP PUSH2 0x18EC PUSH1 0x0 DUP4 ADD DUP5 PUSH2 0x18C8 JUMP JUMPDEST SWAP3 SWAP2 POP POP JUMP JUMPDEST PUSH1 0x0 PUSH1 0x20 DUP3 DUP5 SUB SLT ISZERO PUSH2 0x1908 JUMPI PUSH2 0x1907 PUSH2 0x17EA JUMP JUMPDEST JUMPDEST PUSH1 0x0 PUSH2 0x1916 DUP5 DUP3 DUP6 ADD PUSH2 0x1815 JUMP JUMPDEST SWAP2 POP POP SWAP3 SWAP2 POP POP JUMP JUMPDEST PUSH1 0x0 PUSH1 0x20 DUP3 DUP5 SUB SLT ISZERO PUSH2 0x1935 JUMPI PUSH2 0x1934 PUSH2 0x17EA JUMP JUMPDEST JUMPDEST PUSH1 0x0 PUSH2 0x1943 DUP5 DUP3 DUP6 ADD PUSH2 0x1873 JUMP JUMPDEST SWAP2 POP POP SWAP3 SWAP2 POP POP JUMP JUMPDEST PUSH2 0x1955 DUP2 PUSH2 0x17F4 JUMP JUMPDEST DUP3 MSTORE POP POP JUMP JUMPDEST PUSH2 0x1964 DUP2 PUSH2 0x184A JUMP JUMPDEST DUP3 MSTORE POP POP JUMP JUMPDEST PUSH1 0x0 DUP2 MLOAD SWAP1 POP SWAP2 SWAP1 POP JUMP JUMPDEST PUSH1 0x0 DUP3 DUP3 MSTORE PUSH1 0x20 DUP3 ADD SWAP1 POP SWAP3 SWAP2 POP POP JUMP JUMPDEST PUSH1 0x0 DUP2 SWAP1 POP PUSH1 0x20 DUP3 ADD SWAP1 POP SWAP2 SWAP1 POP JUMP JUMPDEST PUSH1 0x0 DUP2 MLOAD SWAP1 POP SWAP2 SWAP1 POP JUMP JUMPDEST PUSH1 0x0 DUP3 DUP3 MSTORE PUSH1 0x20 DUP3 ADD SWAP1 POP SWAP3 SWAP2 POP POP JUMP JUMPDEST PUSH1 0x0 JUMPDEST DUP4 DUP2 LT ISZERO PUSH2 0x19D0 JUMPI DUP1 DUP3 ADD MLOAD DUP2 DUP5 ADD MSTORE PUSH1 0x20 DUP2 ADD SWAP1 POP PUSH2 0x19B5 JUMP JUMPDEST PUSH1 0x0 DUP5 DUP5 ADD MSTORE POP POP POP POP JUMP JUMPDEST PUSH1 0x0 PUSH1 0x1F NOT PUSH1 0x1F DUP4 ADD AND SWAP1 POP SWAP2 SWAP1 POP JUMP JUMPDEST PUSH1 0x0 PUSH2 0x19F8 DUP3 PUSH2 0x1996 JUMP JUMPDEST PUSH2 0x1A02 DUP2 DUP6 PUSH2 0x19A1 JUMP JUMPDEST SWAP4 POP PUSH2 0x1A12 DUP2 DUP6 PUSH1 0x20 DUP7 ADD PUSH2 0x19B2 JUMP JUMPDEST PUSH2 0x1A1B DUP2 PUSH2 0x19DC JUMP JUMPDEST DUP5 ADD SWAP2 POP POP SWAP3 SWAP2 POP POP JUMP JUMPDEST PUSH1 0x0 PUSH2 0x1A32 DUP4 DUP4 PUSH2 0x19ED JUMP JUMPDEST SWAP1 POP SWAP3 SWAP2 POP POP JUMP JUMPDEST PUSH1 0x0 PUSH1 0x20 DUP3 ADD SWAP1 POP SWAP2 SWAP1 POP JUMP JUMPDEST PUSH1 0x0 PUSH2 0x1A52 DUP3 PUSH2 0x196A JUMP JUMPDEST PUSH2 0x1A5C DUP2 DUP6 PUSH2 0x1975 JUMP JUMPDEST SWAP4 POP DUP4 PUSH1 0x20 DUP3 MUL DUP6 ADD PUSH2 0x1A6E DUP6 PUSH2 0x1986 JUMP JUMPDEST DUP1 PUSH1 0x0 JUMPDEST DUP6 DUP2 LT ISZERO PUSH2 0x1AAA JUMPI DUP5 DUP5 SUB DUP10 MSTORE DUP2 MLOAD PUSH2 0x1A8B DUP6 DUP3 PUSH2 0x1A26 JUMP JUMPDEST SWAP5 POP PUSH2 0x1A96 DUP4 PUSH2 0x1A3A JUMP JUMPDEST SWAP3 POP PUSH1 0x20 DUP11 ADD SWAP10 POP POP PUSH1 0x1 DUP2 ADD SWAP1 POP PUSH2 0x1A72 JUMP JUMPDEST POP DUP3 SWAP8 POP DUP8 SWAP6 POP POP POP POP POP POP SWAP3 SWAP2 POP POP JUMP JUMPDEST PUSH1 0x0 DUP2 MLOAD SWAP1 POP SWAP2 SWAP1 POP JUMP JUMPDEST PUSH1 0x0 DUP3 DUP3 MSTORE PUSH1 0x20 DUP3 ADD SWAP1 POP SWAP3 SWAP2 POP POP JUMP JUMPDEST PUSH1 0x0 DUP2 SWAP1 POP PUSH1 0x20 DUP3 ADD SWAP1 POP SWAP2 SWAP1 POP JUMP JUMPDEST PUSH1 0x0 PUSH2 0x1AF4 DUP4 DUP4 PUSH2 0x194C JUMP JUMPDEST PUSH1 0x20 DUP4 ADD SWAP1 POP SWAP3 SWAP2 POP POP JUMP JUMPDEST PUSH1 0x0 PUSH1 0x20 DUP3 ADD SWAP1 POP SWAP2 SWAP1 POP JUMP JUMPDEST PUSH1 0x0 PUSH2 0x1B18 DUP3 PUSH2 0x1ABC JUMP JUMPDEST PUSH2 0x1B22 DUP2 DUP6 PUSH2 0x1AC7 JUMP JUMPDEST SWAP4 POP PUSH2 0x1B2D DUP4 PUSH2 0x1AD8 JUMP JUMPDEST DUP1 PUSH1 0x0 JUMPDEST DUP4 DUP2 LT ISZERO PUSH2 0x1B5E JUMPI DUP2 MLOAD PUSH2 0x1B45 DUP9 DUP3 PUSH2 0x1AE8 JUMP JUMPDEST SWAP8 POP PUSH2 0x1B50 DUP4 PUSH2 0x1B00 JUMP JUMPDEST SWAP3 POP POP PUSH1 0x1 DUP2 ADD SWAP1 POP PUSH2 0x1B31 JUMP JUMPDEST POP DUP6 SWAP4 POP POP POP POP SWAP3 SWAP2 POP POP JUMP JUMPDEST PUSH1 0x0 DUP2 ISZERO ISZERO SWAP1 POP SWAP2 SWAP1 POP JUMP JUMPDEST PUSH2 0x1B80 DUP2 PUSH2 0x1B6B JUMP JUMPDEST DUP3 MSTORE POP POP JUMP JUMPDEST PUSH1 0x0 PUSH1 0xE0 DUP4 ADD PUSH1 0x0 DUP4 ADD MLOAD PUSH2 0x1B9E PUSH1 0x0 DUP7 ADD DUP3 PUSH2 0x194C JUMP JUMPDEST POP PUSH1 0x20 DUP4 ADD MLOAD PUSH2 0x1BB1 PUSH1 0x20 DUP7 ADD DUP3 PUSH2 0x195B JUMP JUMPDEST POP PUSH1 0x40 DUP4 ADD MLOAD PUSH2 0x1BC4 PUSH1 0x40 DUP7 ADD DUP3 PUSH2 0x194C JUMP JUMPDEST POP PUSH1 0x60 DUP4 ADD MLOAD PUSH2 0x1BD7 PUSH1 0x60 DUP7 ADD DUP3 PUSH2 0x194C JUMP JUMPDEST POP PUSH1 0x80 DUP4 ADD MLOAD DUP5 DUP3 SUB PUSH1 0x80 DUP7 ADD MSTORE PUSH2 0x1BEF DUP3 DUP3 PUSH2 0x1A47 JUMP JUMPDEST SWAP2 POP POP PUSH1 0xA0 DUP4 ADD MLOAD DUP5 DUP3 SUB PUSH1 0xA0 DUP7 ADD MSTORE PUSH2 0x1C09 DUP3 DUP3 PUSH2 0x1B0D JUMP JUMPDEST SWAP2 POP POP PUSH1 0xC0 DUP4 ADD MLOAD PUSH2 0x1C1E PUSH1 0xC0 DUP7 ADD DUP3 PUSH2 0x1B77 JUMP JUMPDEST POP DUP1 SWAP2 POP POP SWAP3 SWAP2 POP POP JUMP JUMPDEST PUSH1 0x0 PUSH1 0x20 DUP3 ADD SWAP1 POP DUP2 DUP2 SUB PUSH1 0x0 DUP4 ADD MSTORE PUSH2 0x1C43 DUP2 DUP5 PUSH2 0x1B86 JUMP JUMPDEST SWAP1 POP SWAP3 SWAP2 POP POP JUMP JUMPDEST PUSH1 0x0 DUP1 PUSH1 0x40 DUP4 DUP6 SUB SLT ISZERO PUSH2 0x1C62 JUMPI PUSH2 0x1C61 PUSH2 0x17EA JUMP JUMPDEST JUMPDEST PUSH1 0x0 PUSH2 0x1C70 DUP6 DUP3 DUP7 ADD PUSH2 0x1815 JUMP JUMPDEST SWAP3 POP POP PUSH1 0x20 PUSH2 0x1C81 DUP6 DUP3 DUP7 ADD PUSH2 0x1815 JUMP JUMPDEST SWAP2 POP POP SWAP3 POP SWAP3 SWAP1 POP JUMP JUMPDEST PUSH1 0x0 DUP3 DUP3 MSTORE PUSH1 0x20 DUP3 ADD SWAP1 POP SWAP3 SWAP2 POP POP JUMP JUMPDEST PUSH1 0x0 PUSH2 0x1CA7 DUP3 PUSH2 0x1996 JUMP JUMPDEST PUSH2 0x1CB1 DUP2 DUP6 PUSH2 0x1C8B JUMP JUMPDEST SWAP4 POP PUSH2 0x1CC1 DUP2 DUP6 PUSH1 0x20 DUP7 ADD PUSH2 0x19B2 JUMP JUMPDEST PUSH2 0x1CCA DUP2 PUSH2 0x19DC JUMP JUMPDEST DUP5 ADD SWAP2 POP POP SWAP3 SWAP2 POP POP JUMP JUMPDEST PUSH2 0x1CDE DUP2 PUSH2 0x184A JUMP JUMPDEST DUP3 MSTORE POP POP JUMP JUMPDEST PUSH1 0x0 PUSH1 0x80 DUP3 ADD SWAP1 POP PUSH2 0x1CF9 PUSH1 0x0 DUP4 ADD DUP8 PUSH2 0x18C8 JUMP JUMPDEST DUP2 DUP2 SUB PUSH1 0x20 DUP4 ADD MSTORE PUSH2 0x1D0B DUP2 DUP7 PUSH2 0x1C9C JUMP JUMPDEST SWAP1 POP PUSH2 0x1D1A PUSH1 0x40 DUP4 ADD DUP6 PUSH2 0x1CD5 JUMP JUMPDEST PUSH2 0x1D27 PUSH1 0x60 DUP4 ADD DUP5 PUSH2 0x18C8 JUMP JUMPDEST SWAP6 SWAP5 POP POP POP POP POP JUMP JUMPDEST PUSH2 0x1D39 DUP2 PUSH2 0x1B6B JUMP JUMPDEST DUP3 MSTORE POP POP JUMP JUMPDEST PUSH1 0x0 PUSH1 0x20 DUP3 ADD SWAP1 POP PUSH2 0x1D54 PUSH1 0x0 DUP4 ADD DUP5 PUSH2 0x1D30 JUMP JUMPDEST SWAP3 SWAP2 POP POP JUMP JUMPDEST PUSH1 0x0 PUSH1 0x60 DUP3 ADD SWAP1 POP PUSH2 0x1D6F PUSH1 0x0 DUP4 ADD DUP7 PUSH2 0x18C8 JUMP JUMPDEST PUSH2 0x1D7C PUSH1 0x20 DUP4 ADD DUP6 PUSH2 0x1CD5 JUMP JUMPDEST PUSH2 0x1D89 PUSH1 0x40 DUP4 ADD DUP5 PUSH2 0x18C8 JUMP JUMPDEST SWAP5 SWAP4 POP POP POP POP JUMP JUMPDEST PUSH1 0x0 DUP1 REVERT JUMPDEST PUSH1 0x0 DUP1 REVERT JUMPDEST PUSH1 0x0 DUP1 REVERT JUMPDEST PUSH1 0x0 DUP1 DUP4 PUSH1 0x1F DUP5 ADD SLT PUSH2 0x1DB6 JUMPI PUSH2 0x1DB5 PUSH2 0x1D91 JUMP JUMPDEST JUMPDEST DUP3 CALLDATALOAD SWAP1 POP PUSH8 0xFFFFFFFFFFFFFFFF DUP2 GT ISZERO PUSH2 0x1DD3 JUMPI PUSH2 0x1DD2 PUSH2 0x1D96 JUMP JUMPDEST JUMPDEST PUSH1 0x20 DUP4 ADD SWAP2 POP DUP4 PUSH1 0x1 DUP3 MUL DUP4 ADD GT ISZERO PUSH2 0x1DEF JUMPI PUSH2 0x1DEE PUSH2 0x1D9B JUMP JUMPDEST JUMPDEST SWAP3 POP SWAP3 SWAP1 POP JUMP JUMPDEST PUSH1 0x0 DUP1 PUSH1 0x0 PUSH1 0x40 DUP5 DUP7 SUB SLT ISZERO PUSH2 0x1E0F JUMPI PUSH2 0x1E0E PUSH2 0x17EA JUMP JUMPDEST JUMPDEST PUSH1 0x0 PUSH2 0x1E1D DUP7 DUP3 DUP8 ADD PUSH2 0x1815 JUMP JUMPDEST SWAP4 POP POP PUSH1 0x20 DUP5 ADD CALLDATALOAD PUSH8 0xFFFFFFFFFFFFFFFF DUP2 GT ISZERO PUSH2 0x1E3E JUMPI PUSH2 0x1E3D PUSH2 0x17EF JUMP JUMPDEST JUMPDEST PUSH2 0x1E4A DUP7 DUP3 DUP8 ADD PUSH2 0x1DA0 JUMP JUMPDEST SWAP3 POP SWAP3 POP POP SWAP3 POP SWAP3 POP SWAP3 JUMP JUMPDEST PUSH32 0x4E487B7100000000000000000000000000000000000000000000000000000000 PUSH1 0x0 MSTORE PUSH1 0x41 PUSH1 0x4 MSTORE PUSH1 0x24 PUSH1 0x0 REVERT JUMPDEST PUSH2 0x1E8E DUP3 PUSH2 0x19DC JUMP JUMPDEST DUP2 ADD DUP2 DUP2 LT PUSH8 0xFFFFFFFFFFFFFFFF DUP3 GT OR ISZERO PUSH2 0x1EAD JUMPI PUSH2 0x1EAC PUSH2 0x1E56 JUMP JUMPDEST JUMPDEST DUP1 PUSH1 0x40 MSTORE POP POP POP JUMP JUMPDEST PUSH1 0x0 PUSH2 0x1EC0 PUSH2 0x17E0 JUMP JUMPDEST SWAP1 POP PUSH2 0x1ECC DUP3 DUP3 PUSH2 0x1E85 JUMP JUMPDEST SWAP2 SWAP1 POP JUMP JUMPDEST PUSH1 0x0 PUSH8 0xFFFFFFFFFFFFFFFF DUP3 GT ISZERO PUSH2 0x1EEC JUMPI PUSH2 0x1EEB PUSH2 0x1E56 JUMP JUMPDEST JUMPDEST PUSH1 0x20 DUP3 MUL SWAP1 POP PUSH1 0x20 DUP2 ADD SWAP1 POP SWAP2 SWAP1 POP JUMP JUMPDEST PUSH1 0x0 DUP1 REVERT JUMPDEST PUSH1 0x0 PUSH8 0xFFFFFFFFFFFFFFFF DUP3 GT ISZERO PUSH2 0x1F1D JUMPI PUSH2 0x1F1C PUSH2 0x1E56 JUMP JUMPDEST JUMPDEST PUSH2 0x1F26 DUP3 PUSH2 0x19DC JUMP JUMPDEST SWAP1 POP PUSH1 0x20 DUP2 ADD SWAP1 POP SWAP2 SWAP1 POP JUMP JUMPDEST DUP3 DUP2 DUP4 CALLDATACOPY PUSH1 0x0 DUP4 DUP4 ADD MSTORE POP POP POP JUMP JUMPDEST PUSH1 0x0 PUSH2 0x1F55 PUSH2 0x1F50 DUP5 PUSH2 0x1F02 JUMP JUMPDEST PUSH2 0x1EB6 JUMP JUMPDEST SWAP1 POP DUP3 DUP2 MSTORE PUSH1 0x20 DUP2 ADD DUP5 DUP5 DUP5 ADD GT ISZERO PUSH2 0x1F71 JUMPI PUSH2 0x1F70 PUSH2 0x1EFD JUMP JUMPDEST JUMPDEST PUSH2 0x1F7C DUP5 DUP3 DUP6 PUSH2 0x1F33 JUMP JUMPDEST POP SWAP4 SWAP3 POP POP POP JUMP JUMPDEST PUSH1 0x0 DUP3 PUSH1 0x1F DUP4 ADD SLT PUSH2 0x1F99 JUMPI PUSH2 0x1F98 PUSH2 0x1D91 JUMP JUMPDEST JUMPDEST DUP2 CALLDATALOAD PUSH2 0x1FA9 DUP5 DUP3 PUSH1 0x20 DUP7 ADD PUSH2 0x1F42 JUMP JUMPDEST SWAP2 POP POP SWAP3 SWAP2 POP POP JUMP JUMPDEST PUSH1 0x0 PUSH2 0x1FC5 PUSH2 0x1FC0 DUP5 PUSH2 0x1ED1 JUMP JUMPDEST PUSH2 0x1EB6 JUMP JUMPDEST SWAP1 POP DUP1 DUP4 DUP3 MSTORE PUSH1 0x20 DUP3 ADD SWAP1 POP PUSH1 0x20 DUP5 MUL DUP4 ADD DUP6 DUP2 GT ISZERO PUSH2 0x1FE8 JUMPI PUSH2 0x1FE7 PUSH2 0x1D9B JUMP JUMPDEST JUMPDEST DUP4 JUMPDEST DUP2 DUP2 LT ISZERO PUSH2 0x202F JUMPI DUP1 CALLDATALOAD PUSH8 0xFFFFFFFFFFFFFFFF DUP2 GT ISZERO PUSH2 0x200D JUMPI PUSH2 0x200C PUSH2 0x1D91 JUMP JUMPDEST JUMPDEST DUP1 DUP7 ADD PUSH2 0x201A DUP10 DUP3 PUSH2 0x1F84 JUMP JUMPDEST DUP6 MSTORE PUSH1 0x20 DUP6 ADD SWAP5 POP POP POP PUSH1 0x20 DUP2 ADD SWAP1 POP PUSH2 0x1FEA JUMP JUMPDEST POP POP POP SWAP4 SWAP3 POP POP POP JUMP JUMPDEST PUSH1 0x0 DUP3 PUSH1 0x1F DUP4 ADD SLT PUSH2 0x204E JUMPI PUSH2 0x204D PUSH2 0x1D91 JUMP JUMPDEST JUMPDEST DUP2 CALLDATALOAD PUSH2 0x205E DUP5 DUP3 PUSH1 0x20 DUP7 ADD PUSH2 0x1FB2 JUMP JUMPDEST SWAP2 POP POP SWAP3 SWAP2 POP POP JUMP JUMPDEST PUSH1 0x0 DUP1 PUSH1 0x0 PUSH1 0x60 DUP5 DUP7 SUB SLT ISZERO PUSH2 0x2080 JUMPI PUSH2 0x207F PUSH2 0x17EA JUMP JUMPDEST JUMPDEST PUSH1 0x0 PUSH2 0x208E DUP7 DUP3 DUP8 ADD PUSH2 0x1815 JUMP JUMPDEST SWAP4 POP POP PUSH1 0x20 PUSH2 0x209F DUP7 DUP3 DUP8 ADD PUSH2 0x1815 JUMP JUMPDEST SWAP3 POP POP PUSH1 0x40 DUP5 ADD CALLDATALOAD PUSH8 0xFFFFFFFFFFFFFFFF DUP2 GT ISZERO PUSH2 0x20C0 JUMPI PUSH2 0x20BF PUSH2 0x17EF JUMP JUMPDEST JUMPDEST PUSH2 0x20CC DUP7 DUP3 DUP8 ADD PUSH2 0x2039 JUMP JUMPDEST SWAP2 POP POP SWAP3 POP SWAP3 POP SWAP3 JUMP JUMPDEST PUSH32 0x4E487B7100000000000000000000000000000000000000000000000000000000 PUSH1 0x0 MSTORE PUSH1 0x32 PUSH1 0x4 MSTORE PUSH1 0x24 PUSH1 0x0 REVERT JUMPDEST PUSH32 0x4E487B7100000000000000000000000000000000000000000000000000000000 PUSH1 0x0 MSTORE PUSH1 0x11 PUSH1 0x4 MSTORE PUSH1 0x24 PUSH1 0x0 REVERT JUMPDEST PUSH1 0x0 PUSH2 0x213F DUP3 PUSH2 0x17F4 JUMP JUMPDEST SWAP2 POP PUSH2 0x214A DUP4 PUSH2 0x17F4 JUMP JUMPDEST SWAP3 POP DUP3 DUP3 ADD SWAP1 POP DUP1 DUP3 GT ISZERO PUSH2 0x2162 JUMPI PUSH2 0x2161 PUSH2 0x2105 JUMP JUMPDEST JUMPDEST SWAP3 SWAP2 POP POP JUMP JUMPDEST PUSH1 0x0 PUSH2 0x2173 DUP3 PUSH2 0x17F4 JUMP JUMPDEST SWAP2 POP PUSH32 0xFFFFFFFFFFFFFFFFFFFFFFFFFFFFFFFFFFFFFFFFFFFFFFFFFFFFFFFFFFFFFFFF DUP3 SUB PUSH2 0x21A5 JUMPI PUSH2 0x21A4 PUSH2 0x2105 JUMP JUMPDEST JUMPDEST PUSH1 0x1 DUP3 ADD SWAP1 POP SWAP2 SWAP1 POP JUMP JUMPDEST PUSH32 0x4E487B7100000000000000000000000000000000000000000000000000000000 PUSH1 0x0 MSTORE PUSH1 0x22 PUSH1 0x4 MSTORE PUSH1 0x24 PUSH1 0x0 REVERT JUMPDEST PUSH1 0x0 PUSH1 0x2 DUP3 DIV SWAP1 POP PUSH1 0x1 DUP3 AND DUP1 PUSH2 0x21F7 JUMPI PUSH1 0x7F DUP3 AND SWAP2 POP JUMPDEST PUSH1 0x20 DUP3 LT DUP2 SUB PUSH2 0x220A JUMPI PUSH2 0x2209 PUSH2 0x21B0 JUMP JUMPDEST JUMPDEST POP SWAP2 SWAP1 POP JUMP JUMPDEST PUSH32 0x416C726561647920766F74656400000000000000000000000000000000000000 PUSH1 0x0 DUP3 ADD MSTORE POP JUMP JUMPDEST PUSH1 0x0 PUSH2 0x2246 PUSH1 0xD DUP4 PUSH2 0x1C8B JUMP JUMPDEST SWAP2 POP PUSH2 0x2251 DUP3 PUSH2 0x2210 JUMP JUMPDEST PUSH1 0x20 DUP3 ADD SWAP1 POP SWAP2 SWAP1 POP JUMP JUMPDEST PUSH1 0x0 PUSH1 0x20 DUP3 ADD SWAP1 POP DUP2 DUP2 SUB PUSH1 0x0 DUP4 ADD MSTORE PUSH2 0x2275 DUP2 PUSH2 0x2239 JUMP JUMPDEST SWAP1 POP SWAP2 SWAP1 POP JUMP JUMPDEST PUSH32 0x506F6C6C20697320636C6F736564000000000000000000000000000000000000 PUSH1 0x0 DUP3 ADD MSTORE POP JUMP JUMPDEST PUSH1 0x0 PUSH2 0x22B2 PUSH1 0xE DUP4 PUSH2 0x1C8B JUMP JUMPDEST SWAP2 POP PUSH2 0x22BD DUP3 PUSH2 0x227C JUMP JUMPDEST PUSH1 0x20 DUP3 ADD SWAP1 POP SWAP2 SWAP1 POP JUMP JUMPDEST PUSH1 0x0 PUSH1 0x20 DUP3 ADD SWAP1 POP DUP2 DUP2 SUB PUSH1 0x0 DUP4 ADD MSTORE PUSH2 0x22E1 DUP2 PUSH2 0x22A5 JUMP JUMPDEST SWAP1 POP SWAP2 SWAP1 POP JUMP JUMPDEST PUSH32 0x506F6C6C206973206E6F74206163746976650000000000000000000000000000 PUSH1 0x0 DUP3 ADD MSTORE POP JUMP JUMPDEST PUSH1 0x0 PUSH2 0x231E PUSH1 0x12 DUP4 PUSH2 0x1C8B JUMP JUMPDEST SWAP2 POP PUSH2 0x2329 DUP3 PUSH2 0x22E8 JUMP JUMPDEST PUSH1 0x20 DUP3 ADD SWAP1 POP SWAP2 SWAP1 POP JUMP JUMPDEST PUSH1 0x0 PUSH1 0x20 DUP3 ADD SWAP1 POP DUP2 DUP2 SUB PUSH1 0x0 DUP4 ADD MSTORE PUSH2 0x234D DUP2 PUSH2 0x2311 JUMP JUMPDEST SWAP1 POP SWAP2 SWAP1 POP JUMP JUMPDEST PUSH32 0x496E76616C69642063686F696365000000000000000000000000000000000000 PUSH1 0x0 DUP3 ADD MSTORE POP JUMP JUMPDEST PUSH1 0x0 PUSH2 0x238A PUSH1 0xE DUP4 PUSH2 0x1C8B JUMP JUMPDEST SWAP2 POP PUSH2 0x2395 DUP3 PUSH2 0x2354 JUMP JUMPDEST PUSH1 0x20 DUP3 ADD SWAP1 POP SWAP2 SWAP1 POP JUMP JUMPDEST PUSH1 0x0 PUSH1 0x20 DUP3 ADD SWAP1 POP DUP2 DUP2 SUB PUSH1 0x0 DUP4 ADD MSTORE PUSH2 0x23B9 DUP2 PUSH2 0x237D JUMP JUMPDEST SWAP1 POP SWAP2 SWAP1 POP JUMP JUMPDEST PUSH1 0x0 DUP2 SWAP1 POP SWAP3 SWAP2 POP POP JUMP JUMPDEST PUSH1 0x0 PUSH2 0x23D7 DUP4 DUP6 PUSH2 0x23C0 JUMP JUMPDEST SWAP4 POP PUSH2 0x23E4 DUP4 DUP6 DUP5 PUSH2 0x1F33 JUMP JUMPDEST DUP3 DUP5 ADD SWAP1 POP SWAP4 SWAP3 POP POP POP JUMP JUMPDEST PUSH1 0x0 PUSH2 0x23FD DUP3 DUP5 DUP7 PUSH2 0x23CB JUMP JUMPDEST SWAP2 POP DUP2 SWAP1 POP SWAP4 SWAP3 POP POP POP JUMP JUMPDEST PUSH1 0x0 DUP2 SWAP1 POP DUP2 PUSH1 0x0 MSTORE PUSH1 0x20 PUSH1 0x0 KECCAK256 SWAP1 POP SWAP2 SWAP1 POP JUMP JUMPDEST PUSH1 0x0 DUP2 SLOAD PUSH2 0x242B DUP2 PUSH2 0x21DF JUMP JUMPDEST PUSH2 0x2435 DUP2 DUP7 PUSH2 0x23C0 JUMP JUMPDEST SWAP5 POP PUSH1 0x1 DUP3 AND PUSH1 0x0 DUP2 EQ PUSH2 0x2450 JUMPI PUSH1 0x1 DUP2 EQ PUSH2 0x2465 JUMPI PUSH2 0x2498 JUMP JUMPDEST PUSH1 0xFF NOT DUP4 AND DUP7 MSTORE DUP2 ISZERO ISZERO DUP3 MUL DUP7 ADD SWAP4 POP PUSH2 0x2498 JUMP JUMPDEST PUSH2 0x246E DUP6 PUSH2 0x2409 JUMP JUMPDEST PUSH1 0x0 JUMPDEST DUP4 DUP2 LT ISZERO PUSH2 0x2490 JUMPI DUP2 SLOAD DUP2 DUP10 ADD MSTORE PUSH1 0x1 DUP3 ADD SWAP2 POP PUSH1 0x20 DUP2 ADD SWAP1 POP PUSH2 0x2471 JUMP JUMPDEST DUP4 DUP9 ADD SWAP6 POP POP POP JUMPDEST POP POP POP SWAP3 SWAP2 POP POP JUMP JUMPDEST PUSH1 0x0 PUSH2 0x24AD DUP3 DUP5 PUSH2 0x241E JUMP JUMPDEST SWAP2 POP DUP2 SWAP1 POP SWAP3 SWAP2 POP POP JUMP JUMPDEST PUSH32 0x4E487B7100000000000000000000000000000000000000000000000000000000 PUSH1 0x0 MSTORE PUSH1 0x12 PUSH1 0x4 MSTORE PUSH1 0x24 PUSH1 0x0 REVERT JUMPDEST PUSH1 0x0 PUSH2 0x24F2 DUP3 PUSH2 0x17F4 JUMP JUMPDEST SWAP2 POP PUSH2 0x24FD DUP4 PUSH2 0x17F4 JUMP JUMPDEST SWAP3 POP DUP3 PUSH2 0x250D JUMPI PUSH2 0x250C PUSH2 0x24B8 JUMP JUMPDEST JUMPDEST DUP3 DUP3 DIV SWAP1 POP SWAP3 SWAP2 POP POP JUMP JUMPDEST PUSH32 0x506F6C6C20686173206E6F742073746172746564207965742C20796F75206361 PUSH1 0x0 DUP3 ADD MSTORE PUSH32 0x6E6E6F7420626574206F6E206974000000000000000000000000000000000000 PUSH1 0x20 DUP3 ADD MSTORE POP JUMP JUMPDEST PUSH1 0x0 PUSH2 0x2574 PUSH1 0x2E DUP4 PUSH2 0x1C8B JUMP JUMPDEST SWAP2 POP PUSH2 0x257F DUP3 PUSH2 0x2518 JUMP JUMPDEST PUSH1 0x40 DUP3 ADD SWAP1 POP SWAP2 SWAP1 POP JUMP JUMPDEST PUSH1 0x0 PUSH1 0x20 DUP3 ADD SWAP1 POP DUP2 DUP2 SUB PUSH1 0x0 DUP4 ADD MSTORE PUSH2 0x25A3 DUP2 PUSH2 0x2567 JUMP JUMPDEST SWAP1 POP SWAP2 SWAP1 POP JUMP JUMPDEST PUSH32 0x506F6C6C2068617320656E6465642C20796F752063616E6E6F7420626574206F PUSH1 0x0 DUP3 ADD MSTORE PUSH32 0x6E20697420616E796D6F72650000000000000000000000000000000000000000 PUSH1 0x20 DUP3 ADD MSTORE POP JUMP JUMPDEST PUSH1 0x0 PUSH2 0x2606 PUSH1 0x2C DUP4 PUSH2 0x1C8B JUMP JUMPDEST SWAP2 POP PUSH2 0x2611 DUP3 PUSH2 0x25AA JUMP JUMPDEST PUSH1 0x40 DUP3 ADD SWAP1 POP SWAP2 SWAP1 POP JUMP JUMPDEST PUSH1 0x0 PUSH1 0x20 DUP3 ADD SWAP1 POP DUP2 DUP2 SUB PUSH1 0x0 DUP4 ADD MSTORE PUSH2 0x2635 DUP2 PUSH2 0x25F9 JUMP JUMPDEST SWAP1 POP SWAP2 SWAP1 POP JUMP JUMPDEST PUSH32 0x416D6F756E74206D7573742062652067726561746572207468616E2030210000 PUSH1 0x0 DUP3 ADD MSTORE POP JUMP JUMPDEST PUSH1 0x0 PUSH2 0x2672 PUSH1 0x1E DUP4 PUSH2 0x1C8B JUMP JUMPDEST SWAP2 POP PUSH2 0x267D DUP3 PUSH2 0x263C JUMP JUMPDEST PUSH1 0x20 DUP3 ADD SWAP1 POP SWAP2 SWAP1 POP JUMP JUMPDEST PUSH1 0x0 PUSH1 0x20 DUP3 ADD SWAP1 POP DUP2 DUP2 SUB PUSH1 0x0 DUP4 ADD MSTORE PUSH2 0x26A1 DUP2 PUSH2 0x2665 JUMP JUMPDEST SWAP1 POP SWAP2 SWAP1 POP JUMP JUMPDEST PUSH32 0x496E76616C696420706F6C6C2063686F6963652C20706C656173652073656C65 PUSH1 0x0 DUP3 ADD MSTORE PUSH32 0x6374206F6E65206F662074686520706F6C6C2063686F6963657320746F206265 PUSH1 0x20 DUP3 ADD MSTORE PUSH32 0x74206F6E00000000000000000000000000000000000000000000000000000000 PUSH1 0x40 DUP3 ADD MSTORE POP JUMP JUMPDEST PUSH1 0x0 PUSH2 0x272A PUSH1 0x44 DUP4 PUSH2 0x1C8B JUMP JUMPDEST SWAP2 POP PUSH2 0x2735 DUP3 PUSH2 0x26A8 JUMP JUMPDEST PUSH1 0x60 DUP3 ADD SWAP1 POP SWAP2 SWAP1 POP JUMP JUMPDEST PUSH1 0x0 PUSH1 0x20 DUP3 ADD SWAP1 POP DUP2 DUP2 SUB PUSH1 0x0 DUP4 ADD MSTORE PUSH2 0x2759 DUP2 PUSH2 0x271D JUMP JUMPDEST SWAP1 POP SWAP2 SWAP1 POP JUMP JUMPDEST PUSH1 0x0 DUP2 SWAP1 POP DUP2 PUSH1 0x0 MSTORE PUSH1 0x20 PUSH1 0x0 KECCAK256 SWAP1 POP SWAP2 SWAP1 POP JUMP JUMPDEST PUSH1 0x0 PUSH1 0x20 PUSH1 0x1F DUP4 ADD DIV SWAP1 POP SWAP2 SWAP1 POP JUMP JUMPDEST PUSH1 0x0 DUP3 DUP3 SHL SWAP1 POP SWAP3 SWAP2 POP POP JUMP JUMPDEST PUSH1 0x0 PUSH1 0x8 DUP4 MUL PUSH2 0x27C2 PUSH32 0xFFFFFFFFFFFFFFFFFFFFFFFFFFFFFFFFFFFFFFFFFFFFFFFFFFFFFFFFFFFFFFFF DUP3 PUSH2 0x2785 JUMP JUMPDEST PUSH2 0x27CC DUP7 DUP4 PUSH2 0x2785 JUMP JUMPDEST SWAP6 POP DUP1 NOT DUP5 AND SWAP4 POP DUP1 DUP7 AND DUP5 OR SWAP3 POP POP POP SWAP4 SWAP3 POP POP POP JUMP JUMPDEST PUSH1 0x0 DUP2 SWAP1 POP SWAP2 SWAP1 POP JUMP JUMPDEST PUSH1 0x0 PUSH2 0x2809 PUSH2 0x2804 PUSH2 0x27FF DUP5 PUSH2 0x17F4 JUMP JUMPDEST PUSH2 0x27E4 JUMP JUMPDEST PUSH2 0x17F4 JUMP JUMPDEST SWAP1 POP SWAP2 SWAP1 POP JUMP JUMPDEST PUSH1 0x0 DUP2 SWAP1 POP SWAP2 SWAP1 POP JUMP JUMPDEST PUSH2 0x2823 DUP4 PUSH2 0x27EE JUMP JUMPDEST PUSH2 0x2837 PUSH2 0x282F DUP3 PUSH2 0x2810 JUMP JUMPDEST DUP5 DUP5 SLOAD PUSH2 0x2792 JUMP JUMPDEST DUP3 SSTORE POP POP POP POP JUMP JUMPDEST PUSH1 0x0 SWAP1 JUMP JUMPDEST PUSH2 0x284C PUSH2 0x283F JUMP JUMPDEST PUSH2 0x2857 DUP2 DUP5 DUP5 PUSH2 0x281A JUMP JUMPDEST POP POP POP JUMP JUMPDEST JUMPDEST DUP2 DUP2 LT ISZERO PUSH2 0x287B JUMPI PUSH2 0x2870 PUSH1 0x0 DUP3 PUSH2 0x2844 JUMP JUMPDEST PUSH1 0x1 DUP2 ADD SWAP1 POP PUSH2 0x285D JUMP JUMPDEST POP POP JUMP JUMPDEST PUSH1 0x1F DUP3 GT ISZERO PUSH2 0x28C0 JUMPI PUSH2 0x2891 DUP2 PUSH2 0x2760 JUMP JUMPDEST PUSH2 0x289A DUP5 PUSH2 0x2775 JUMP JUMPDEST DUP2 ADD PUSH1 0x20 DUP6 LT ISZERO PUSH2 0x28A9 JUMPI DUP2 SWAP1 POP JUMPDEST PUSH2 0x28BD PUSH2 0x28B5 DUP6 PUSH2 0x2775 JUMP JUMPDEST DUP4 ADD DUP3 PUSH2 0x285C JUMP JUMPDEST POP POP JUMPDEST POP POP POP JUMP JUMPDEST PUSH1 0x0 DUP3 DUP3 SHR SWAP1 POP SWAP3 SWAP2 POP POP JUMP JUMPDEST PUSH1 0x0 PUSH2 0x28E3 PUSH1 0x0 NOT DUP5 PUSH1 0x8 MUL PUSH2 0x28C5 JUMP JUMPDEST NOT DUP1 DUP4 AND SWAP2 POP POP SWAP3 SWAP2 POP POP JUMP JUMPDEST PUSH1 0x0 PUSH2 0x28FC DUP4 DUP4 PUSH2 0x28D2 JUMP JUMPDEST SWAP2 POP DUP3 PUSH1 0x2 MUL DUP3 OR SWAP1 POP SWAP3 SWAP2 POP POP JUMP JUMPDEST PUSH2 0x2915 DUP3 PUSH2 0x1996 JUMP JUMPDEST PUSH8 0xFFFFFFFFFFFFFFFF DUP2 GT ISZERO PUSH2 0x292E JUMPI PUSH2 0x292D PUSH2 0x1E56 JUMP JUMPDEST JUMPDEST PUSH2 0x2938 DUP3 SLOAD PUSH2 0x21DF JUMP JUMPDEST PUSH2 0x2943 DUP3 DUP3 DUP6 PUSH2 0x287F JUMP JUMPDEST PUSH1 0x0 PUSH1 0x20 SWAP1 POP PUSH1 0x1F DUP4 GT PUSH1 0x1 DUP2 EQ PUSH2 0x2976 JUMPI PUSH1 0x0 DUP5 ISZERO PUSH2 0x2964 JUMPI DUP3 DUP8 ADD MLOAD SWAP1 POP JUMPDEST PUSH2 0x296E DUP6 DUP3 PUSH2 0x28F0 JUMP JUMPDEST DUP7 SSTORE POP PUSH2 0x29D6 JUMP JUMPDEST PUSH1 0x1F NOT DUP5 AND PUSH2 0x2984 DUP7 PUSH2 0x2760 JUMP JUMPDEST PUSH1 0x0 JUMPDEST DUP3 DUP2 LT ISZERO PUSH2 0x29AC JUMPI DUP5 DUP10 ADD MLOAD DUP3 SSTORE PUSH1 0x1 DUP3 ADD SWAP2 POP PUSH1 0x20 DUP6 ADD SWAP5 POP PUSH1 0x20 DUP2 ADD SWAP1 POP PUSH2 0x2987 JUMP JUMPDEST DUP7 DUP4 LT ISZERO PUSH2 0x29C9 JUMPI DUP5 DUP10 ADD MLOAD PUSH2 0x29C5 PUSH1 0x1F DUP10 AND DUP3 PUSH2 0x28D2 JUMP JUMPDEST DUP4 SSTORE POP JUMPDEST PUSH1 0x1 PUSH1 0x2 DUP9 MUL ADD DUP9 SSTORE POP POP POP JUMPDEST POP POP POP POP POP POP JUMP JUMPDEST PUSH1 0x0 DUP2 SLOAD PUSH2 0x29EB DUP2 PUSH2 0x21DF JUMP JUMPDEST PUSH2 0x29F5 DUP2 DUP7 PUSH2 0x1C8B JUMP JUMPDEST SWAP5 POP PUSH1 0x1 DUP3 AND PUSH1 0x0 DUP2 EQ PUSH2 0x2A10 JUMPI PUSH1 0x1 DUP2 EQ PUSH2 0x2A26 JUMPI PUSH2 0x2A59 JUMP JUMPDEST PUSH1 0xFF NOT DUP4 AND DUP7 MSTORE DUP2 ISZERO ISZERO PUSH1 0x20 MUL DUP7 ADD SWAP4 POP PUSH2 0x2A59 JUMP JUMPDEST PUSH2 0x2A2F DUP6 PUSH2 0x2760 JUMP JUMPDEST PUSH1 0x0 JUMPDEST DUP4 DUP2 LT ISZERO PUSH2 0x2A51 JUMPI DUP2 SLOAD DUP2 DUP10 ADD MSTORE PUSH1 0x1 DUP3 ADD SWAP2 POP PUSH1 0x20 DUP2 ADD SWAP1 POP PUSH2 0x2A32 JUMP JUMPDEST DUP1 DUP9 ADD SWAP6 POP POP POP JUMPDEST POP POP POP SWAP3 SWAP2 POP POP JUMP JUMPDEST PUSH1 0x0 PUSH1 0x40 DUP3 ADD SWAP1 POP DUP2 DUP2 SUB PUSH1 0x0 DUP4 ADD MSTORE PUSH2 0x2A7C DUP2 DUP6 PUSH2 0x29DE JUMP JUMPDEST SWAP1 POP PUSH2 0x2A8B PUSH1 0x20 DUP4 ADD DUP5 PUSH2 0x18C8 JUMP JUMPDEST SWAP4 SWAP3 POP POP POP JUMP JUMPDEST PUSH32 0x496E76616C696420706F6C6C20656E642074696D650000000000000000000000 PUSH1 0x0 DUP3 ADD MSTORE POP JUMP JUMPDEST PUSH1 0x0 PUSH2 0x2AC8 PUSH1 0x15 DUP4 PUSH2 0x1C8B JUMP JUMPDEST SWAP2 POP PUSH2 0x2AD3 DUP3 PUSH2 0x2A92 JUMP JUMPDEST PUSH1 0x20 DUP3 ADD SWAP1 POP SWAP2 SWAP1 POP JUMP JUMPDEST PUSH1 0x0 PUSH1 0x20 DUP3 ADD SWAP1 POP DUP2 DUP2 SUB PUSH1 0x0 DUP4 ADD MSTORE PUSH2 0x2AF7 DUP2 PUSH2 0x2ABB JUMP JUMPDEST SWAP1 POP SWAP2 SWAP1 POP JUMP JUMPDEST PUSH32 0x4174206C656173742074776F206F7074696F6E73207265717569726564000000 PUSH1 0x0 DUP3 ADD MSTORE POP JUMP JUMPDEST PUSH1 0x0 PUSH2 0x2B34 PUSH1 0x1D DUP4 PUSH2 0x1C8B JUMP JUMPDEST SWAP2 POP PUSH2 0x2B3F DUP3 PUSH2 0x2AFE JUMP JUMPDEST PUSH1 0x20 DUP3 ADD SWAP1 POP SWAP2 SWAP1 POP JUMP JUMPDEST PUSH1 0x0 PUSH1 0x20 DUP3 ADD SWAP1 POP DUP2 DUP2 SUB PUSH1 0x0 DUP4 ADD MSTORE PUSH2 0x2B63 DUP2 PUSH2 0x2B27 JUMP JUMPDEST SWAP1 POP SWAP2 SWAP1 POP JUMP JUMPDEST PUSH1 0x0 DUP3 DUP3 MSTORE PUSH1 0x20 DUP3 ADD SWAP1 POP SWAP3 SWAP2 POP POP JUMP JUMPDEST PUSH1 0x0 PUSH2 0x2B86 DUP3 PUSH2 0x196A JUMP JUMPDEST PUSH2 0x2B90 DUP2 DUP6 PUSH2 0x2B6A JUMP JUMPDEST SWAP4 POP DUP4 PUSH1 0x20 DUP3 MUL DUP6 ADD PUSH2 0x2BA2 DUP6 PUSH2 0x1986 JUMP JUMPDEST DUP1 PUSH1 0x0 JUMPDEST DUP6 DUP2 LT ISZERO PUSH2 0x2BDE JUMPI DUP5 DUP5 SUB DUP10 MSTORE DUP2 MLOAD PUSH2 0x2BBF DUP6 DUP3 PUSH2 0x1A26 JUMP JUMPDEST SWAP5 POP PUSH2 0x2BCA DUP4 PUSH2 0x1A3A JUMP JUMPDEST SWAP3 POP PUSH1 0x20 DUP11 ADD SWAP10 POP POP PUSH1 0x1 DUP2 ADD SWAP1 POP PUSH2 0x2BA6 JUMP JUMPDEST POP DUP3 SWAP8 POP DUP8 SWAP6 POP POP POP POP POP POP SWAP3 SWAP2 POP POP JUMP JUMPDEST PUSH1 0x0 PUSH1 0x60 DUP3 ADD SWAP1 POP PUSH2 0x2C05 PUSH1 0x0 DUP4 ADD DUP7 PUSH2 0x18C8 JUMP JUMPDEST PUSH2 0x2C12 PUSH1 0x20 DUP4 ADD DUP6 PUSH2 0x18C8 JUMP JUMPDEST DUP2 DUP2 SUB PUSH1 0x40 DUP4 ADD MSTORE PUSH2 0x2C24 DUP2 DUP5 PUSH2 0x2B7B JUMP JUMPDEST SWAP1 POP SWAP5 SWAP4 POP POP POP POP JUMP INVALID LOG2 PUSH5 0x6970667358 0x22 SLT KECCAK256 0xBC MSIZE PUSH6 0x8CBC2288C35D PUSH7 0xF126D9A249AB73 ISZERO 0xAA 0xB1 0x5E JUMP 0xC7 0xC9 0xB6 EXTCODECOPY 0xCC LOG2 SMOD 0x2A 0xDC PUSH7 0x64736F6C634300 ADDMOD SLT STOP CALLER "
				},
				"gasEstimates": {
					"creation": {
						"codeDepositCost": "2272800",
						"executionCost": "2434",
						"totalCost": "2275234"
					},
					"external": {
						"balances(address)": "2882",
						"betCount()": "2495",
						"betOnPoll(uint256,uint256)": "infinite",
						"closePoll()": "254",
						"createPoll(uint256,uint256,string[])": "infinite",
						"distributeRewards()": "255",
						"getBetCount(uint256)": "infinite",
						"getOdds(uint256,string)": "infinite",
						"getPollInfo(uint256)": "infinite",
						"getPollVotersCount(uint256)": "infinite",
						"getTotalBetAmount(uint256)": "infinite",
						"hasVoted(uint256,address)": "3110",
						"pollBetTotal(uint256)": "infinite",
						"pollBets(uint256,address)": "infinite",
						"pollBetsList(uint256,uint256)": "infinite",
						"pollCount()": "2496",
						"pollCounts(uint256)": "infinite",
						"pollWinners(uint256,uint256)": "infinite",
						"voteOnPoll(uint256,uint256)": "infinite",
						"voters(uint256,address)": "infinite"
					},
					"internal": {
						"addVoterAddressSet(uint256,address)": "infinite",
						"bytes32ToString(bytes32)": "infinite"
					}
				},
				"methodIdentifiers": {
					"balances(address)": "27e235e3",
					"betCount()": "cf094497",
					"betOnPoll(uint256,uint256)": "ab0d4869",
					"closePoll()": "ed8c2aed",
					"createPoll(uint256,uint256,string[])": "d624d6fd",
					"distributeRewards()": "6f4a2cd0",
					"getBetCount(uint256)": "6b7128ec",
					"getOdds(uint256,string)": "a9549f0a",
					"getPollInfo(uint256)": "29b8f44a",
					"getPollVotersCount(uint256)": "8761ad0c",
					"getTotalBetAmount(uint256)": "0e89da56",
					"hasVoted(uint256,address)": "43859632",
					"pollBetTotal(uint256)": "46f86716",
					"pollBets(uint256,address)": "06455f5e",
					"pollBetsList(uint256,uint256)": "420700f6",
					"pollCount()": "9207891d",
					"pollCounts(uint256)": "a32bde6f",
					"pollWinners(uint256,uint256)": "91cbfb41",
					"voteOnPoll(uint256,uint256)": "4c3c234f",
					"voters(uint256,address)": "9e319063"
				}
			},
			"storageLayout": {
				"storage": [
					{
						"astId": 706,
						"contract": "contracts/PollBetContract.sol:PollBetContract",
						"label": "pollCount",
						"offset": 0,
						"slot": "0",
						"type": "t_uint256"
					},
					{
						"astId": 708,
						"contract": "contracts/PollBetContract.sol:PollBetContract",
						"label": "betCount",
						"offset": 0,
						"slot": "1",
						"type": "t_uint256"
					},
					{
						"astId": 712,
						"contract": "contracts/PollBetContract.sol:PollBetContract",
						"label": "pollBetTotal",
						"offset": 0,
						"slot": "2",
						"type": "t_mapping(t_uint256,t_uint256)"
					},
					{
						"astId": 718,
						"contract": "contracts/PollBetContract.sol:PollBetContract",
						"label": "pollBets",
						"offset": 0,
						"slot": "3",
						"type": "t_mapping(t_uint256,t_mapping(t_address,t_uint256))"
					},
					{
						"astId": 723,
						"contract": "contracts/PollBetContract.sol:PollBetContract",
						"label": "pollWinners",
						"offset": 0,
						"slot": "4",
						"type": "t_mapping(t_uint256,t_array(t_uint256)dyn_storage)"
					},
					{
						"astId": 727,
						"contract": "contracts/PollBetContract.sol:PollBetContract",
						"label": "balances",
						"offset": 0,
						"slot": "5",
						"type": "t_mapping(t_address,t_uint256)"
					},
					{
						"astId": 733,
						"contract": "contracts/PollBetContract.sol:PollBetContract",
						"label": "pollBetsList",
						"offset": 0,
						"slot": "6",
						"type": "t_mapping(t_uint256,t_array(t_struct(Bet)653_storage)dyn_storage)"
					},
					{
						"astId": 739,
						"contract": "contracts/PollBetContract.sol:PollBetContract",
						"label": "hasVoted",
						"offset": 0,
						"slot": "7",
						"type": "t_mapping(t_uint256,t_mapping(t_address,t_bool))"
					},
					{
						"astId": 746,
						"contract": "contracts/PollBetContract.sol:PollBetContract",
						"label": "voters",
						"offset": 0,
						"slot": "8",
						"type": "t_mapping(t_uint256,t_mapping(t_address,t_struct(Voter)644_storage))"
					},
					{
						"astId": 751,
						"contract": "contracts/PollBetContract.sol:PollBetContract",
						"label": "voterAddressSets",
						"offset": 0,
						"slot": "9",
						"type": "t_mapping(t_uint256,t_struct(AddressSet)325_storage)"
					},
					{
						"astId": 756,
						"contract": "contracts/PollBetContract.sol:PollBetContract",
						"label": "polls",
						"offset": 0,
						"slot": "10",
						"type": "t_mapping(t_uint256,t_struct(Poll)637_storage)"
					},
					{
						"astId": 759,
						"contract": "contracts/PollBetContract.sol:PollBetContract",
						"label": "pollCounts",
						"offset": 0,
						"slot": "11",
						"type": "t_array(t_uint256)dyn_storage"
					}
				],
				"types": {
					"t_address": {
						"encoding": "inplace",
						"label": "address",
						"numberOfBytes": "20"
					},
					"t_array(t_bytes32)dyn_storage": {
						"base": "t_bytes32",
						"encoding": "dynamic_array",
						"label": "bytes32[]",
						"numberOfBytes": "32"
					},
					"t_array(t_string_storage)dyn_storage": {
						"base": "t_string_storage",
						"encoding": "dynamic_array",
						"label": "string[]",
						"numberOfBytes": "32"
					},
					"t_array(t_struct(Bet)653_storage)dyn_storage": {
						"base": "t_struct(Bet)653_storage",
						"encoding": "dynamic_array",
						"label": "struct PollBetContract.Bet[]",
						"numberOfBytes": "32"
					},
					"t_array(t_uint256)dyn_storage": {
						"base": "t_uint256",
						"encoding": "dynamic_array",
						"label": "uint256[]",
						"numberOfBytes": "32"
					},
					"t_bool": {
						"encoding": "inplace",
						"label": "bool",
						"numberOfBytes": "1"
					},
					"t_bytes32": {
						"encoding": "inplace",
						"label": "bytes32",
						"numberOfBytes": "32"
					},
					"t_mapping(t_address,t_bool)": {
						"encoding": "mapping",
						"key": "t_address",
						"label": "mapping(address => bool)",
						"numberOfBytes": "32",
						"value": "t_bool"
					},
					"t_mapping(t_address,t_struct(Voter)644_storage)": {
						"encoding": "mapping",
						"key": "t_address",
						"label": "mapping(address => struct PollBetContract.Voter)",
						"numberOfBytes": "32",
						"value": "t_struct(Voter)644_storage"
					},
					"t_mapping(t_address,t_uint256)": {
						"encoding": "mapping",
						"key": "t_address",
						"label": "mapping(address => uint256)",
						"numberOfBytes": "32",
						"value": "t_uint256"
					},
					"t_mapping(t_bytes32,t_uint256)": {
						"encoding": "mapping",
						"key": "t_bytes32",
						"label": "mapping(bytes32 => uint256)",
						"numberOfBytes": "32",
						"value": "t_uint256"
					},
					"t_mapping(t_uint256,t_array(t_struct(Bet)653_storage)dyn_storage)": {
						"encoding": "mapping",
						"key": "t_uint256",
						"label": "mapping(uint256 => struct PollBetContract.Bet[])",
						"numberOfBytes": "32",
						"value": "t_array(t_struct(Bet)653_storage)dyn_storage"
					},
					"t_mapping(t_uint256,t_array(t_uint256)dyn_storage)": {
						"encoding": "mapping",
						"key": "t_uint256",
						"label": "mapping(uint256 => uint256[])",
						"numberOfBytes": "32",
						"value": "t_array(t_uint256)dyn_storage"
					},
					"t_mapping(t_uint256,t_mapping(t_address,t_bool))": {
						"encoding": "mapping",
						"key": "t_uint256",
						"label": "mapping(uint256 => mapping(address => bool))",
						"numberOfBytes": "32",
						"value": "t_mapping(t_address,t_bool)"
					},
					"t_mapping(t_uint256,t_mapping(t_address,t_struct(Voter)644_storage))": {
						"encoding": "mapping",
						"key": "t_uint256",
						"label": "mapping(uint256 => mapping(address => struct PollBetContract.Voter))",
						"numberOfBytes": "32",
						"value": "t_mapping(t_address,t_struct(Voter)644_storage)"
					},
					"t_mapping(t_uint256,t_mapping(t_address,t_uint256))": {
						"encoding": "mapping",
						"key": "t_uint256",
						"label": "mapping(uint256 => mapping(address => uint256))",
						"numberOfBytes": "32",
						"value": "t_mapping(t_address,t_uint256)"
					},
					"t_mapping(t_uint256,t_struct(AddressSet)325_storage)": {
						"encoding": "mapping",
						"key": "t_uint256",
						"label": "mapping(uint256 => struct EnumerableSet.AddressSet)",
						"numberOfBytes": "32",
						"value": "t_struct(AddressSet)325_storage"
					},
					"t_mapping(t_uint256,t_struct(Poll)637_storage)": {
						"encoding": "mapping",
						"key": "t_uint256",
						"label": "mapping(uint256 => struct PollBetContract.Poll)",
						"numberOfBytes": "32",
						"value": "t_struct(Poll)637_storage"
					},
					"t_mapping(t_uint256,t_uint256)": {
						"encoding": "mapping",
						"key": "t_uint256",
						"label": "mapping(uint256 => uint256)",
						"numberOfBytes": "32",
						"value": "t_uint256"
					},
					"t_string_storage": {
						"encoding": "bytes",
						"label": "string",
						"numberOfBytes": "32"
					},
					"t_struct(AddressSet)325_storage": {
						"encoding": "inplace",
						"label": "struct EnumerableSet.AddressSet",
						"members": [
							{
								"astId": 324,
								"contract": "contracts/PollBetContract.sol:PollBetContract",
								"label": "_inner",
								"offset": 0,
								"slot": "0",
								"type": "t_struct(Set)10_storage"
							}
						],
						"numberOfBytes": "64"
					},
					"t_struct(Bet)653_storage": {
						"encoding": "inplace",
						"label": "struct PollBetContract.Bet",
						"members": [
							{
								"astId": 646,
								"contract": "contracts/PollBetContract.sol:PollBetContract",
								"label": "pollId",
								"offset": 0,
								"slot": "0",
								"type": "t_uint256"
							},
							{
								"astId": 648,
								"contract": "contracts/PollBetContract.sol:PollBetContract",
								"label": "pollChoice",
								"offset": 0,
								"slot": "1",
								"type": "t_string_storage"
							},
							{
								"astId": 650,
								"contract": "contracts/PollBetContract.sol:PollBetContract",
								"label": "user",
								"offset": 0,
								"slot": "2",
								"type": "t_address"
							},
							{
								"astId": 652,
								"contract": "contracts/PollBetContract.sol:PollBetContract",
								"label": "amount",
								"offset": 0,
								"slot": "3",
								"type": "t_uint256"
							}
						],
						"numberOfBytes": "128"
					},
					"t_struct(Poll)637_storage": {
						"encoding": "inplace",
						"label": "struct PollBetContract.Poll",
						"members": [
							{
								"astId": 622,
								"contract": "contracts/PollBetContract.sol:PollBetContract",
								"label": "id",
								"offset": 0,
								"slot": "0",
								"type": "t_uint256"
							},
							{
								"astId": 624,
								"contract": "contracts/PollBetContract.sol:PollBetContract",
								"label": "creator",
								"offset": 0,
								"slot": "1",
								"type": "t_address"
							},
							{
								"astId": 626,
								"contract": "contracts/PollBetContract.sol:PollBetContract",
								"label": "startTime",
								"offset": 0,
								"slot": "2",
								"type": "t_uint256"
							},
							{
								"astId": 628,
								"contract": "contracts/PollBetContract.sol:PollBetContract",
								"label": "endTime",
								"offset": 0,
								"slot": "3",
								"type": "t_uint256"
							},
							{
								"astId": 631,
								"contract": "contracts/PollBetContract.sol:PollBetContract",
								"label": "choices",
								"offset": 0,
								"slot": "4",
								"type": "t_array(t_string_storage)dyn_storage"
							},
							{
								"astId": 634,
								"contract": "contracts/PollBetContract.sol:PollBetContract",
								"label": "choiceCounts",
								"offset": 0,
								"slot": "5",
								"type": "t_array(t_uint256)dyn_storage"
							},
							{
								"astId": 636,
								"contract": "contracts/PollBetContract.sol:PollBetContract",
								"label": "isOpen",
								"offset": 0,
								"slot": "6",
								"type": "t_bool"
							}
						],
						"numberOfBytes": "224"
					},
					"t_struct(Set)10_storage": {
						"encoding": "inplace",
						"label": "struct EnumerableSet.Set",
						"members": [
							{
								"astId": 5,
								"contract": "contracts/PollBetContract.sol:PollBetContract",
								"label": "_values",
								"offset": 0,
								"slot": "0",
								"type": "t_array(t_bytes32)dyn_storage"
							},
							{
								"astId": 9,
								"contract": "contracts/PollBetContract.sol:PollBetContract",
								"label": "_indexes",
								"offset": 0,
								"slot": "1",
								"type": "t_mapping(t_bytes32,t_uint256)"
							}
						],
						"numberOfBytes": "64"
					},
					"t_struct(Voter)644_storage": {
						"encoding": "inplace",
						"label": "struct PollBetContract.Voter",
						"members": [
							{
								"astId": 639,
								"contract": "contracts/PollBetContract.sol:PollBetContract",
								"label": "pollId",
								"offset": 0,
								"slot": "0",
								"type": "t_uint256"
							},
							{
								"astId": 641,
								"contract": "contracts/PollBetContract.sol:PollBetContract",
								"label": "voterAddress",
								"offset": 0,
								"slot": "1",
								"type": "t_address"
							},
							{
								"astId": 643,
								"contract": "contracts/PollBetContract.sol:PollBetContract",
								"label": "choice",
								"offset": 0,
								"slot": "2",
								"type": "t_uint256"
							}
						],
						"numberOfBytes": "96"
					},
					"t_uint256": {
						"encoding": "inplace",
						"label": "uint256",
						"numberOfBytes": "32"
					}
				}
			},
			"userdoc": {
				"kind": "user",
				"methods": {},
				"version": 1
			}
		}
	}
}