{
	"contracts/PollBetContract.sol": {
		"PollBetContract": {
			"abi": [
				{
					"anonymous": false,
					"inputs": [
						{
							"indexed": true,
							"internalType": "uint256",
							"name": "pollId",
							"type": "uint256"
						},
						{
							"indexed": false,
							"internalType": "string",
							"name": "pollChoice",
							"type": "string"
						},
						{
							"indexed": true,
							"internalType": "address",
							"name": "user",
							"type": "address"
						},
						{
							"indexed": false,
							"internalType": "uint256",
							"name": "amount",
							"type": "uint256"
						}
					],
					"name": "BetPlaced",
					"type": "event"
				},
				{
					"anonymous": false,
					"inputs": [
						{
							"indexed": true,
							"internalType": "uint256",
							"name": "id",
							"type": "uint256"
						},
						{
							"indexed": true,
							"internalType": "address",
							"name": "winner",
							"type": "address"
						}
					],
					"name": "PollClosed",
					"type": "event"
				},
				{
					"anonymous": false,
					"inputs": [
						{
							"indexed": true,
							"internalType": "uint256",
							"name": "id",
							"type": "uint256"
						},
						{
							"indexed": true,
							"internalType": "address",
							"name": "creator",
							"type": "address"
						},
						{
							"indexed": false,
							"internalType": "uint256",
							"name": "startTime",
							"type": "uint256"
						},
						{
							"indexed": false,
							"internalType": "uint256",
							"name": "endTime",
							"type": "uint256"
						},
						{
							"indexed": false,
							"internalType": "string[]",
							"name": "options",
							"type": "string[]"
						}
					],
					"name": "PollCreated",
					"type": "event"
				},
				{
					"anonymous": false,
					"inputs": [
						{
							"indexed": true,
							"internalType": "uint256",
							"name": "pollId",
							"type": "uint256"
						},
						{
							"indexed": false,
							"internalType": "address[]",
							"name": "winners",
							"type": "address[]"
						},
						{
							"indexed": false,
							"internalType": "uint256[]",
							"name": "rewards",
							"type": "uint256[]"
						}
					],
					"name": "RewardsDistributed",
					"type": "event"
				},
				{
					"anonymous": false,
					"inputs": [
						{
							"indexed": true,
							"internalType": "uint256",
							"name": "pollId",
							"type": "uint256"
						},
						{
							"indexed": true,
							"internalType": "address",
							"name": "voter",
							"type": "address"
						},
						{
							"indexed": false,
							"internalType": "uint256",
							"name": "choice",
							"type": "uint256"
						}
					],
					"name": "VoteCasted",
					"type": "event"
				},
				{
					"inputs": [
						{
							"internalType": "address",
							"name": "",
							"type": "address"
						}
					],
					"name": "balances",
					"outputs": [
						{
							"internalType": "uint256",
							"name": "",
							"type": "uint256"
						}
					],
					"stateMutability": "view",
					"type": "function"
				},
				{
					"inputs": [],
					"name": "betCount",
					"outputs": [
						{
							"internalType": "uint256",
							"name": "",
							"type": "uint256"
						}
					],
					"stateMutability": "view",
					"type": "function"
				},
				{
					"inputs": [],
					"name": "closePoll",
					"outputs": [],
					"stateMutability": "nonpayable",
					"type": "function"
				},
				{
					"inputs": [
						{
							"internalType": "uint256",
							"name": "_startTime",
							"type": "uint256"
						},
						{
							"internalType": "uint256",
							"name": "_endTime",
							"type": "uint256"
						},
						{
							"internalType": "string[]",
							"name": "_options",
							"type": "string[]"
						}
					],
					"name": "createPoll",
					"outputs": [],
					"stateMutability": "nonpayable",
					"type": "function"
				},
				{
					"inputs": [],
					"name": "distributeRewards",
					"outputs": [],
					"stateMutability": "nonpayable",
					"type": "function"
				},
				{
					"inputs": [
						{
							"internalType": "uint256",
							"name": "_pollId",
							"type": "uint256"
						}
					],
					"name": "getBetCount",
					"outputs": [
						{
							"internalType": "uint256",
							"name": "",
							"type": "uint256"
						}
					],
					"stateMutability": "view",
					"type": "function"
				},
				{
					"inputs": [
						{
							"internalType": "uint256",
							"name": "_pollId",
							"type": "uint256"
						},
						{
							"internalType": "uint256",
							"name": "_pollChoice",
							"type": "uint256"
						}
					],
					"name": "getOdds",
					"outputs": [
						{
							"internalType": "uint256",
							"name": "",
							"type": "uint256"
						}
					],
					"stateMutability": "view",
					"type": "function"
				},
				{
					"inputs": [
						{
							"internalType": "uint256",
							"name": "pollId",
							"type": "uint256"
						}
					],
					"name": "getPollVotes",
					"outputs": [
						{
							"internalType": "uint256[]",
							"name": "",
							"type": "uint256[]"
						}
					],
					"stateMutability": "view",
					"type": "function"
				},
				{
					"inputs": [
						{
							"internalType": "uint256",
							"name": "",
							"type": "uint256"
						},
						{
							"internalType": "address",
							"name": "",
							"type": "address"
						}
					],
					"name": "hasVoted",
					"outputs": [
						{
							"internalType": "bool",
							"name": "",
							"type": "bool"
						}
					],
					"stateMutability": "view",
					"type": "function"
				},
				{
					"inputs": [
						{
							"internalType": "uint256",
							"name": "",
							"type": "uint256"
						}
					],
					"name": "pollBetTotal",
					"outputs": [
						{
							"internalType": "uint256",
							"name": "",
							"type": "uint256"
						}
					],
					"stateMutability": "view",
					"type": "function"
				},
				{
					"inputs": [
						{
							"internalType": "uint256",
							"name": "",
							"type": "uint256"
						},
						{
							"internalType": "address",
							"name": "",
							"type": "address"
						}
					],
					"name": "pollBets",
					"outputs": [
						{
							"internalType": "uint256",
							"name": "",
							"type": "uint256"
						}
					],
					"stateMutability": "view",
					"type": "function"
				},
				{
					"inputs": [
						{
							"internalType": "uint256",
							"name": "",
							"type": "uint256"
						},
						{
							"internalType": "uint256",
							"name": "",
							"type": "uint256"
						}
					],
					"name": "pollBetsList",
					"outputs": [
						{
							"internalType": "uint256",
							"name": "pollId",
							"type": "uint256"
						},
						{
							"internalType": "string",
							"name": "pollChoice",
							"type": "string"
						},
						{
							"internalType": "address",
							"name": "user",
							"type": "address"
						},
						{
							"internalType": "uint256",
							"name": "amount",
							"type": "uint256"
						}
					],
					"stateMutability": "view",
					"type": "function"
				},
				{
					"inputs": [],
					"name": "pollCount",
					"outputs": [
						{
							"internalType": "uint256",
							"name": "",
							"type": "uint256"
						}
					],
					"stateMutability": "view",
					"type": "function"
				},
				{
					"inputs": [
						{
							"internalType": "uint256",
							"name": "",
							"type": "uint256"
						},
						{
							"internalType": "uint256",
							"name": "",
							"type": "uint256"
						}
					],
					"name": "pollWinners",
					"outputs": [
						{
							"internalType": "uint256",
							"name": "",
							"type": "uint256"
						}
					],
					"stateMutability": "view",
					"type": "function"
				},
				{
					"inputs": [
						{
							"internalType": "uint256",
							"name": "",
							"type": "uint256"
						}
					],
					"name": "polls",
					"outputs": [
						{
							"internalType": "uint256",
							"name": "id",
							"type": "uint256"
						},
						{
							"internalType": "address",
							"name": "creator",
							"type": "address"
						},
						{
							"internalType": "uint256",
							"name": "startTime",
							"type": "uint256"
						},
						{
							"internalType": "uint256",
							"name": "endTime",
							"type": "uint256"
						},
						{
							"internalType": "bool",
							"name": "isOpen",
							"type": "bool"
						}
					],
					"stateMutability": "view",
					"type": "function"
				},
				{
					"inputs": [
						{
							"internalType": "uint256",
							"name": "_pollId",
							"type": "uint256"
						},
						{
							"internalType": "uint256",
							"name": "_pollChoice",
							"type": "uint256"
						}
					],
					"name": "voteOnPoll",
					"outputs": [],
					"stateMutability": "nonpayable",
					"type": "function"
				}
			],
			"devdoc": {
				"kind": "dev",
				"methods": {},
				"version": 1
			},
			"evm": {
				"assembly": "    /* \"contracts/PollBetContract.sol\":57:4698  contract PollBetContract {... */\n  mstore(0x40, 0x80)\n  callvalue\n  dup1\n  iszero\n  tag_1\n  jumpi\n  0x00\n  dup1\n  revert\ntag_1:\n  pop\n  dataSize(sub_0)\n  dup1\n  dataOffset(sub_0)\n  0x00\n  codecopy\n  0x00\n  return\nstop\n\nsub_0: assembly {\n        /* \"contracts/PollBetContract.sol\":57:4698  contract PollBetContract {... */\n      mstore(0x40, 0x80)\n      callvalue\n      dup1\n      iszero\n      tag_1\n      jumpi\n      0x00\n      dup1\n      revert\n    tag_1:\n      pop\n      jumpi(tag_2, lt(calldatasize, 0x04))\n      shr(0xe0, calldataload(0x00))\n      dup1\n      0x91cbfb41\n      gt\n      tag_19\n      jumpi\n      dup1\n      0xcf094497\n      gt\n      tag_20\n      jumpi\n      dup1\n      0xcf094497\n      eq\n      tag_15\n      jumpi\n      dup1\n      0xd624d6fd\n      eq\n      tag_16\n      jumpi\n      dup1\n      0xe3eed5c9\n      eq\n      tag_17\n      jumpi\n      dup1\n      0xed8c2aed\n      eq\n      tag_18\n      jumpi\n      jump(tag_2)\n    tag_20:\n      dup1\n      0x91cbfb41\n      eq\n      tag_11\n      jumpi\n      dup1\n      0x9207891d\n      eq\n      tag_12\n      jumpi\n      dup1\n      0xac2f0074\n      eq\n      tag_13\n      jumpi\n      dup1\n      0xbbff7166\n      eq\n      tag_14\n      jumpi\n      jump(tag_2)\n    tag_19:\n      dup1\n      0x46f86716\n      gt\n      tag_21\n      jumpi\n      dup1\n      0x46f86716\n      eq\n      tag_7\n      jumpi\n      dup1\n      0x4c3c234f\n      eq\n      tag_8\n      jumpi\n      dup1\n      0x6b7128ec\n      eq\n      tag_9\n      jumpi\n      dup1\n      0x6f4a2cd0\n      eq\n      tag_10\n      jumpi\n      jump(tag_2)\n    tag_21:\n      dup1\n      0x06455f5e\n      eq\n      tag_3\n      jumpi\n      dup1\n      0x27e235e3\n      eq\n      tag_4\n      jumpi\n      dup1\n      0x420700f6\n      eq\n      tag_5\n      jumpi\n      dup1\n      0x43859632\n      eq\n      tag_6\n      jumpi\n    tag_2:\n      0x00\n      dup1\n      revert\n        /* \"contracts/PollBetContract.sol\":1104:1161  mapping(uint => mapping(address => uint)) public pollBets */\n    tag_3:\n      tag_22\n      0x04\n      dup1\n      calldatasize\n      sub\n      dup2\n      add\n      swap1\n      tag_23\n      swap2\n      swap1\n      tag_24\n      jump\t// in\n    tag_23:\n      tag_25\n      jump\t// in\n    tag_22:\n      mload(0x40)\n      tag_26\n      swap2\n      swap1\n      tag_27\n      jump\t// in\n    tag_26:\n      mload(0x40)\n      dup1\n      swap2\n      sub\n      swap1\n      return\n        /* \"contracts/PollBetContract.sol\":1215:1255  mapping(address => uint) public balances */\n    tag_4:\n      tag_28\n      0x04\n      dup1\n      calldatasize\n      sub\n      dup2\n      add\n      swap1\n      tag_29\n      swap2\n      swap1\n      tag_30\n      jump\t// in\n    tag_29:\n      tag_31\n      jump\t// in\n    tag_28:\n      mload(0x40)\n      tag_32\n      swap2\n      swap1\n      tag_27\n      jump\t// in\n    tag_32:\n      mload(0x40)\n      dup1\n      swap2\n      sub\n      swap1\n      return\n        /* \"contracts/PollBetContract.sol\":1261:1303  mapping(uint => Bet[]) public pollBetsList */\n    tag_5:\n      tag_33\n      0x04\n      dup1\n      calldatasize\n      sub\n      dup2\n      add\n      swap1\n      tag_34\n      swap2\n      swap1\n      tag_35\n      jump\t// in\n    tag_34:\n      tag_36\n      jump\t// in\n    tag_33:\n      mload(0x40)\n      tag_37\n      swap5\n      swap4\n      swap3\n      swap2\n      swap1\n      tag_38\n      jump\t// in\n    tag_37:\n      mload(0x40)\n      dup1\n      swap2\n      sub\n      swap1\n      return\n        /* \"contracts/PollBetContract.sol\":1309:1366  mapping(uint => mapping(address => bool)) public hasVoted */\n    tag_6:\n      tag_39\n      0x04\n      dup1\n      calldatasize\n      sub\n      dup2\n      add\n      swap1\n      tag_40\n      swap2\n      swap1\n      tag_24\n      jump\t// in\n    tag_40:\n      tag_41\n      jump\t// in\n    tag_39:\n      mload(0x40)\n      tag_42\n      swap2\n      swap1\n      tag_43\n      jump\t// in\n    tag_42:\n      mload(0x40)\n      dup1\n      swap2\n      sub\n      swap1\n      return\n        /* \"contracts/PollBetContract.sol\":1057:1098  mapping(uint => uint) public pollBetTotal */\n    tag_7:\n      tag_44\n      0x04\n      dup1\n      calldatasize\n      sub\n      dup2\n      add\n      swap1\n      tag_45\n      swap2\n      swap1\n      tag_46\n      jump\t// in\n    tag_45:\n      tag_47\n      jump\t// in\n    tag_44:\n      mload(0x40)\n      tag_48\n      swap2\n      swap1\n      tag_27\n      jump\t// in\n    tag_48:\n      mload(0x40)\n      dup1\n      swap2\n      sub\n      swap1\n      return\n        /* \"contracts/PollBetContract.sol\":2591:3130  function voteOnPoll(uint _pollId, uint _pollChoice) public {... */\n    tag_8:\n      tag_49\n      0x04\n      dup1\n      calldatasize\n      sub\n      dup2\n      add\n      swap1\n      tag_50\n      swap2\n      swap1\n      tag_35\n      jump\t// in\n    tag_50:\n      tag_51\n      jump\t// in\n    tag_49:\n      stop\n        /* \"contracts/PollBetContract.sol\":4389:4502  function getBetCount(uint _pollId) public view returns(uint) {... */\n    tag_9:\n      tag_52\n      0x04\n      dup1\n      calldatasize\n      sub\n      dup2\n      add\n      swap1\n      tag_53\n      swap2\n      swap1\n      tag_46\n      jump\t// in\n    tag_53:\n      tag_54\n      jump\t// in\n    tag_52:\n      mload(0x40)\n      tag_55\n      swap2\n      swap1\n      tag_27\n      jump\t// in\n    tag_55:\n      mload(0x40)\n      dup1\n      swap2\n      sub\n      swap1\n      return\n        /* \"contracts/PollBetContract.sol\":4658:4696  function distributeRewards() public {} */\n    tag_10:\n      tag_56\n      tag_57\n      jump\t// in\n    tag_56:\n      stop\n        /* \"contracts/PollBetContract.sol\":1167:1209  mapping(uint => uint[]) public pollWinners */\n    tag_11:\n      tag_58\n      0x04\n      dup1\n      calldatasize\n      sub\n      dup2\n      add\n      swap1\n      tag_59\n      swap2\n      swap1\n      tag_35\n      jump\t// in\n    tag_59:\n      tag_60\n      jump\t// in\n    tag_58:\n      mload(0x40)\n      tag_61\n      swap2\n      swap1\n      tag_27\n      jump\t// in\n    tag_61:\n      mload(0x40)\n      dup1\n      swap2\n      sub\n      swap1\n      return\n        /* \"contracts/PollBetContract.sol\":959:980  uint public pollCount */\n    tag_12:\n      tag_62\n      tag_63\n      jump\t// in\n    tag_62:\n      mload(0x40)\n      tag_64\n      swap2\n      swap1\n      tag_27\n      jump\t// in\n    tag_64:\n      mload(0x40)\n      dup1\n      swap2\n      sub\n      swap1\n      return\n        /* \"contracts/PollBetContract.sol\":1373:1392  Poll[] public polls */\n    tag_13:\n      tag_65\n      0x04\n      dup1\n      calldatasize\n      sub\n      dup2\n      add\n      swap1\n      tag_66\n      swap2\n      swap1\n      tag_46\n      jump\t// in\n    tag_66:\n      tag_67\n      jump\t// in\n    tag_65:\n      mload(0x40)\n      tag_68\n      swap6\n      swap5\n      swap4\n      swap3\n      swap2\n      swap1\n      tag_69\n      jump\t// in\n    tag_68:\n      mload(0x40)\n      dup1\n      swap2\n      sub\n      swap1\n      return\n        /* \"contracts/PollBetContract.sol\":2069:2585  function getPollVotes(uint pollId) public view returns (uint[] memory) { // should this be public, we have used the requuire statement... */\n    tag_14:\n      tag_70\n      0x04\n      dup1\n      calldatasize\n      sub\n      dup2\n      add\n      swap1\n      tag_71\n      swap2\n      swap1\n      tag_46\n      jump\t// in\n    tag_71:\n      tag_72\n      jump\t// in\n    tag_70:\n      mload(0x40)\n      tag_73\n      swap2\n      swap1\n      tag_74\n      jump\t// in\n    tag_73:\n      mload(0x40)\n      dup1\n      swap2\n      sub\n      swap1\n      return\n        /* \"contracts/PollBetContract.sol\":986:1006  uint public betCount */\n    tag_15:\n      tag_75\n      tag_76\n      jump\t// in\n    tag_75:\n      mload(0x40)\n      tag_77\n      swap2\n      swap1\n      tag_27\n      jump\t// in\n    tag_77:\n      mload(0x40)\n      dup1\n      swap2\n      sub\n      swap1\n      return\n        /* \"contracts/PollBetContract.sol\":1462:2063  function createPoll(uint _startTime, uint _endTime, string[] memory _options) public {... */\n    tag_16:\n      tag_78\n      0x04\n      dup1\n      calldatasize\n      sub\n      dup2\n      add\n      swap1\n      tag_79\n      swap2\n      swap1\n      tag_80\n      jump\t// in\n    tag_79:\n      tag_81\n      jump\t// in\n    tag_78:\n      stop\n        /* \"contracts/PollBetContract.sol\":4508:4584  function getOdds(uint _pollId, uint _pollChoice) public view returns(uint){} */\n    tag_17:\n      tag_82\n      0x04\n      dup1\n      calldatasize\n      sub\n      dup2\n      add\n      swap1\n      tag_83\n      swap2\n      swap1\n      tag_35\n      jump\t// in\n    tag_83:\n      tag_84\n      jump\t// in\n    tag_82:\n      mload(0x40)\n      tag_85\n      swap2\n      swap1\n      tag_27\n      jump\t// in\n    tag_85:\n      mload(0x40)\n      dup1\n      swap2\n      sub\n      swap1\n      return\n        /* \"contracts/PollBetContract.sol\":4590:4620  function closePoll() public {} */\n    tag_18:\n      tag_86\n      tag_87\n      jump\t// in\n    tag_86:\n      stop\n        /* \"contracts/PollBetContract.sol\":1104:1161  mapping(uint => mapping(address => uint)) public pollBets */\n    tag_25:\n      mstore(0x20, 0x03)\n      dup2\n      0x00\n      mstore\n      mstore(0x20, keccak256(0x00, 0x40))\n      dup1\n      0x00\n      mstore\n      keccak256(0x00, 0x40)\n      0x00\n      swap2\n      pop\n      swap2\n      pop\n      pop\n      sload\n      dup2\n      jump\t// out\n        /* \"contracts/PollBetContract.sol\":1215:1255  mapping(address => uint) public balances */\n    tag_31:\n      mstore(0x20, 0x05)\n      dup1\n      0x00\n      mstore\n      keccak256(0x00, 0x40)\n      0x00\n      swap2\n      pop\n      swap1\n      pop\n      sload\n      dup2\n      jump\t// out\n        /* \"contracts/PollBetContract.sol\":1261:1303  mapping(uint => Bet[]) public pollBetsList */\n    tag_36:\n      mstore(0x20, 0x06)\n      dup2\n      0x00\n      mstore\n      keccak256(0x00, 0x40)\n      dup2\n      dup2\n      sload\n      dup2\n      lt\n      tag_88\n      jumpi\n      0x00\n      dup1\n      revert\n    tag_88:\n      swap1\n      0x00\n      mstore\n      keccak256(0x00, 0x20)\n      swap1\n      0x04\n      mul\n      add\n      0x00\n      swap2\n      pop\n      swap2\n      pop\n      pop\n      dup1\n      0x00\n      add\n      sload\n      swap1\n      dup1\n      0x01\n      add\n      dup1\n      sload\n      tag_90\n      swap1\n      tag_91\n      jump\t// in\n    tag_90:\n      dup1\n      0x1f\n      add\n      0x20\n      dup1\n      swap2\n      div\n      mul\n      0x20\n      add\n      mload(0x40)\n      swap1\n      dup2\n      add\n      0x40\n      mstore\n      dup1\n      swap3\n      swap2\n      swap1\n      dup2\n      dup2\n      mstore\n      0x20\n      add\n      dup3\n      dup1\n      sload\n      tag_92\n      swap1\n      tag_91\n      jump\t// in\n    tag_92:\n      dup1\n      iszero\n      tag_93\n      jumpi\n      dup1\n      0x1f\n      lt\n      tag_94\n      jumpi\n      0x0100\n      dup1\n      dup4\n      sload\n      div\n      mul\n      dup4\n      mstore\n      swap2\n      0x20\n      add\n      swap2\n      jump(tag_93)\n    tag_94:\n      dup3\n      add\n      swap2\n      swap1\n      0x00\n      mstore\n      keccak256(0x00, 0x20)\n      swap1\n    tag_95:\n      dup2\n      sload\n      dup2\n      mstore\n      swap1\n      0x01\n      add\n      swap1\n      0x20\n      add\n      dup1\n      dup4\n      gt\n      tag_95\n      jumpi\n      dup3\n      swap1\n      sub\n      0x1f\n      and\n      dup3\n      add\n      swap2\n    tag_93:\n      pop\n      pop\n      pop\n      pop\n      pop\n      swap1\n      dup1\n      0x02\n      add\n      0x00\n      swap1\n      sload\n      swap1\n      0x0100\n      exp\n      swap1\n      div\n      0xffffffffffffffffffffffffffffffffffffffff\n      and\n      swap1\n      dup1\n      0x03\n      add\n      sload\n      swap1\n      pop\n      dup5\n      jump\t// out\n        /* \"contracts/PollBetContract.sol\":1309:1366  mapping(uint => mapping(address => bool)) public hasVoted */\n    tag_41:\n      mstore(0x20, 0x07)\n      dup2\n      0x00\n      mstore\n      mstore(0x20, keccak256(0x00, 0x40))\n      dup1\n      0x00\n      mstore\n      keccak256(0x00, 0x40)\n      0x00\n      swap2\n      pop\n      swap2\n      pop\n      swap1\n      sload\n      swap1\n      0x0100\n      exp\n      swap1\n      div\n      0xff\n      and\n      dup2\n      jump\t// out\n        /* \"contracts/PollBetContract.sol\":1057:1098  mapping(uint => uint) public pollBetTotal */\n    tag_47:\n      mstore(0x20, 0x02)\n      dup1\n      0x00\n      mstore\n      keccak256(0x00, 0x40)\n      0x00\n      swap2\n      pop\n      swap1\n      pop\n      sload\n      dup2\n      jump\t// out\n        /* \"contracts/PollBetContract.sol\":2591:3130  function voteOnPoll(uint _pollId, uint _pollChoice) public {... */\n    tag_51:\n        /* \"contracts/PollBetContract.sol\":2660:2677  Poll storage poll */\n      0x00\n        /* \"contracts/PollBetContract.sol\":2680:2685  polls */\n      0x08\n        /* \"contracts/PollBetContract.sol\":2686:2693  _pollId */\n      dup4\n        /* \"contracts/PollBetContract.sol\":2680:2694  polls[_pollId] */\n      dup2\n      sload\n      dup2\n      lt\n      tag_97\n      jumpi\n      tag_98\n      tag_99\n      jump\t// in\n    tag_98:\n    tag_97:\n      swap1\n      0x00\n      mstore\n      keccak256(0x00, 0x20)\n      swap1\n      0x06\n      mul\n      add\n        /* \"contracts/PollBetContract.sol\":2660:2694  Poll storage poll = polls[_pollId] */\n      swap1\n      pop\n        /* \"contracts/PollBetContract.sol\":2722:2730  hasVoted */\n      0x07\n        /* \"contracts/PollBetContract.sol\":2722:2739  hasVoted[_pollId] */\n      0x00\n        /* \"contracts/PollBetContract.sol\":2731:2738  _pollId */\n      dup5\n        /* \"contracts/PollBetContract.sol\":2722:2739  hasVoted[_pollId] */\n      dup2\n      mstore\n      0x20\n      add\n      swap1\n      dup2\n      mstore\n      0x20\n      add\n      0x00\n      keccak256\n        /* \"contracts/PollBetContract.sol\":2722:2751  hasVoted[_pollId][msg.sender] */\n      0x00\n        /* \"contracts/PollBetContract.sol\":2740:2750  msg.sender */\n      caller\n        /* \"contracts/PollBetContract.sol\":2722:2751  hasVoted[_pollId][msg.sender] */\n      0xffffffffffffffffffffffffffffffffffffffff\n      and\n      0xffffffffffffffffffffffffffffffffffffffff\n      and\n      dup2\n      mstore\n      0x20\n      add\n      swap1\n      dup2\n      mstore\n      0x20\n      add\n      0x00\n      keccak256\n      0x00\n      swap1\n      sload\n      swap1\n      0x0100\n      exp\n      swap1\n      div\n      0xff\n      and\n        /* \"contracts/PollBetContract.sol\":2721:2751  !hasVoted[_pollId][msg.sender] */\n      iszero\n        /* \"contracts/PollBetContract.sol\":2713:2769  require(!hasVoted[_pollId][msg.sender], \"Already voted\") */\n      tag_101\n      jumpi\n      mload(0x40)\n      0x08c379a000000000000000000000000000000000000000000000000000000000\n      dup2\n      mstore\n      0x04\n      add\n      tag_102\n      swap1\n      tag_103\n      jump\t// in\n    tag_102:\n      mload(0x40)\n      dup1\n      swap2\n      sub\n      swap1\n      revert\n    tag_101:\n        /* \"contracts/PollBetContract.sol\":2787:2791  poll */\n      dup1\n        /* \"contracts/PollBetContract.sol\":2787:2798  poll.isOpen */\n      0x05\n      add\n      0x00\n      swap1\n      sload\n      swap1\n      0x0100\n      exp\n      swap1\n      div\n      0xff\n      and\n        /* \"contracts/PollBetContract.sol\":2779:2817  require(poll.isOpen, \"Poll is closed\") */\n      tag_104\n      jumpi\n      mload(0x40)\n      0x08c379a000000000000000000000000000000000000000000000000000000000\n      dup2\n      mstore\n      0x04\n      add\n      tag_105\n      swap1\n      tag_106\n      jump\t// in\n    tag_105:\n      mload(0x40)\n      dup1\n      swap2\n      sub\n      swap1\n      revert\n    tag_104:\n        /* \"contracts/PollBetContract.sol\":2854:2858  poll */\n      dup1\n        /* \"contracts/PollBetContract.sol\":2854:2868  poll.startTime */\n      0x02\n      add\n      sload\n        /* \"contracts/PollBetContract.sol\":2835:2850  block.timestamp */\n      timestamp\n        /* \"contracts/PollBetContract.sol\":2835:2868  block.timestamp >= poll.startTime */\n      lt\n      iszero\n        /* \"contracts/PollBetContract.sol\":2835:2903  block.timestamp >= poll.startTime && block.timestamp <= poll.endTime */\n      dup1\n      iszero\n      tag_107\n      jumpi\n      pop\n        /* \"contracts/PollBetContract.sol\":2891:2895  poll */\n      dup1\n        /* \"contracts/PollBetContract.sol\":2891:2903  poll.endTime */\n      0x03\n      add\n      sload\n        /* \"contracts/PollBetContract.sol\":2872:2887  block.timestamp */\n      timestamp\n        /* \"contracts/PollBetContract.sol\":2872:2903  block.timestamp <= poll.endTime */\n      gt\n      iszero\n        /* \"contracts/PollBetContract.sol\":2835:2903  block.timestamp >= poll.startTime && block.timestamp <= poll.endTime */\n    tag_107:\n        /* \"contracts/PollBetContract.sol\":2827:2926  require(block.timestamp >= poll.startTime && block.timestamp <= poll.endTime, \"Poll is not active\") */\n      tag_108\n      jumpi\n      mload(0x40)\n      0x08c379a000000000000000000000000000000000000000000000000000000000\n      dup2\n      mstore\n      0x04\n      add\n      tag_109\n      swap1\n      tag_110\n      jump\t// in\n    tag_109:\n      mload(0x40)\n      dup1\n      swap2\n      sub\n      swap1\n      revert\n    tag_108:\n        /* \"contracts/PollBetContract.sol\":2959:2960  0 */\n      0x00\n        /* \"contracts/PollBetContract.sol\":2944:2955  _pollChoice */\n      dup3\n        /* \"contracts/PollBetContract.sol\":2944:2960  _pollChoice >= 0 */\n      lt\n      iszero\n        /* \"contracts/PollBetContract.sol\":2944:2997  _pollChoice >= 0 && _pollChoice < poll.choices.length */\n      dup1\n      iszero\n      tag_111\n      jumpi\n      pop\n        /* \"contracts/PollBetContract.sol\":2978:2982  poll */\n      dup1\n        /* \"contracts/PollBetContract.sol\":2978:2990  poll.choices */\n      0x04\n      add\n        /* \"contracts/PollBetContract.sol\":2978:2997  poll.choices.length */\n      dup1\n      sload\n      swap1\n      pop\n        /* \"contracts/PollBetContract.sol\":2964:2975  _pollChoice */\n      dup3\n        /* \"contracts/PollBetContract.sol\":2964:2997  _pollChoice < poll.choices.length */\n      lt\n        /* \"contracts/PollBetContract.sol\":2944:2997  _pollChoice >= 0 && _pollChoice < poll.choices.length */\n    tag_111:\n        /* \"contracts/PollBetContract.sol\":2936:3016  require(_pollChoice >= 0 && _pollChoice < poll.choices.length, \"Invalid choice\") */\n      tag_112\n      jumpi\n      mload(0x40)\n      0x08c379a000000000000000000000000000000000000000000000000000000000\n      dup2\n      mstore\n      0x04\n      add\n      tag_113\n      swap1\n      tag_114\n      jump\t// in\n    tag_113:\n      mload(0x40)\n      dup1\n      swap2\n      sub\n      swap1\n      revert\n    tag_112:\n        /* \"contracts/PollBetContract.sol\":3059:3063  true */\n      0x01\n        /* \"contracts/PollBetContract.sol\":3027:3035  hasVoted */\n      0x07\n        /* \"contracts/PollBetContract.sol\":3027:3044  hasVoted[_pollId] */\n      0x00\n        /* \"contracts/PollBetContract.sol\":3036:3043  _pollId */\n      dup6\n        /* \"contracts/PollBetContract.sol\":3027:3044  hasVoted[_pollId] */\n      dup2\n      mstore\n      0x20\n      add\n      swap1\n      dup2\n      mstore\n      0x20\n      add\n      0x00\n      keccak256\n        /* \"contracts/PollBetContract.sol\":3027:3056  hasVoted[_pollId][msg.sender] */\n      0x00\n        /* \"contracts/PollBetContract.sol\":3045:3055  msg.sender */\n      caller\n        /* \"contracts/PollBetContract.sol\":3027:3056  hasVoted[_pollId][msg.sender] */\n      0xffffffffffffffffffffffffffffffffffffffff\n      and\n      0xffffffffffffffffffffffffffffffffffffffff\n      and\n      dup2\n      mstore\n      0x20\n      add\n      swap1\n      dup2\n      mstore\n      0x20\n      add\n      0x00\n      keccak256\n      0x00\n        /* \"contracts/PollBetContract.sol\":3027:3063  hasVoted[_pollId][msg.sender] = true */\n      0x0100\n      exp\n      dup2\n      sload\n      dup2\n      0xff\n      mul\n      not\n      and\n      swap1\n      dup4\n      iszero\n      iszero\n      mul\n      or\n      swap1\n      sstore\n      pop\n        /* \"contracts/PollBetContract.sol\":3099:3109  msg.sender */\n      caller\n        /* \"contracts/PollBetContract.sol\":3079:3123  VoteCasted(_pollId, msg.sender, _pollChoice) */\n      0xffffffffffffffffffffffffffffffffffffffff\n      and\n        /* \"contracts/PollBetContract.sol\":3090:3097  _pollId */\n      dup4\n        /* \"contracts/PollBetContract.sol\":3079:3123  VoteCasted(_pollId, msg.sender, _pollChoice) */\n      0xe7ee74ca1f4bb1b82b14f87794c45b3e59c39e372b862fb97a6316b43355b69e\n        /* \"contracts/PollBetContract.sol\":3111:3122  _pollChoice */\n      dup5\n        /* \"contracts/PollBetContract.sol\":3079:3123  VoteCasted(_pollId, msg.sender, _pollChoice) */\n      mload(0x40)\n      tag_115\n      swap2\n      swap1\n      tag_27\n      jump\t// in\n    tag_115:\n      mload(0x40)\n      dup1\n      swap2\n      sub\n      swap1\n      log3\n        /* \"contracts/PollBetContract.sol\":2650:3130  {... */\n      pop\n        /* \"contracts/PollBetContract.sol\":2591:3130  function voteOnPoll(uint _pollId, uint _pollChoice) public {... */\n      pop\n      pop\n      jump\t// out\n        /* \"contracts/PollBetContract.sol\":4389:4502  function getBetCount(uint _pollId) public view returns(uint) {... */\n    tag_54:\n        /* \"contracts/PollBetContract.sol\":4444:4448  uint */\n      0x00\n        /* \"contracts/PollBetContract.sol\":4467:4479  pollBetsList */\n      0x06\n        /* \"contracts/PollBetContract.sol\":4467:4488  pollBetsList[_pollId] */\n      0x00\n        /* \"contracts/PollBetContract.sol\":4480:4487  _pollId */\n      dup4\n        /* \"contracts/PollBetContract.sol\":4467:4488  pollBetsList[_pollId] */\n      dup2\n      mstore\n      0x20\n      add\n      swap1\n      dup2\n      mstore\n      0x20\n      add\n      0x00\n      keccak256\n        /* \"contracts/PollBetContract.sol\":4467:4495  pollBetsList[_pollId].length */\n      dup1\n      sload\n      swap1\n      pop\n        /* \"contracts/PollBetContract.sol\":4460:4495  return pollBetsList[_pollId].length */\n      swap1\n      pop\n        /* \"contracts/PollBetContract.sol\":4389:4502  function getBetCount(uint _pollId) public view returns(uint) {... */\n      swap2\n      swap1\n      pop\n      jump\t// out\n        /* \"contracts/PollBetContract.sol\":4658:4696  function distributeRewards() public {} */\n    tag_57:\n      jump\t// out\n        /* \"contracts/PollBetContract.sol\":1167:1209  mapping(uint => uint[]) public pollWinners */\n    tag_60:\n      mstore(0x20, 0x04)\n      dup2\n      0x00\n      mstore\n      keccak256(0x00, 0x40)\n      dup2\n      dup2\n      sload\n      dup2\n      lt\n      tag_118\n      jumpi\n      0x00\n      dup1\n      revert\n    tag_118:\n      swap1\n      0x00\n      mstore\n      keccak256(0x00, 0x20)\n      add\n      0x00\n      swap2\n      pop\n      swap2\n      pop\n      pop\n      sload\n      dup2\n      jump\t// out\n        /* \"contracts/PollBetContract.sol\":959:980  uint public pollCount */\n    tag_63:\n      sload(0x00)\n      dup2\n      jump\t// out\n        /* \"contracts/PollBetContract.sol\":1373:1392  Poll[] public polls */\n    tag_67:\n      0x08\n      dup2\n      dup2\n      sload\n      dup2\n      lt\n      tag_120\n      jumpi\n      0x00\n      dup1\n      revert\n    tag_120:\n      swap1\n      0x00\n      mstore\n      keccak256(0x00, 0x20)\n      swap1\n      0x06\n      mul\n      add\n      0x00\n      swap2\n      pop\n      swap1\n      pop\n      dup1\n      0x00\n      add\n      sload\n      swap1\n      dup1\n      0x01\n      add\n      0x00\n      swap1\n      sload\n      swap1\n      0x0100\n      exp\n      swap1\n      div\n      0xffffffffffffffffffffffffffffffffffffffff\n      and\n      swap1\n      dup1\n      0x02\n      add\n      sload\n      swap1\n      dup1\n      0x03\n      add\n      sload\n      swap1\n      dup1\n      0x05\n      add\n      0x00\n      swap1\n      sload\n      swap1\n      0x0100\n      exp\n      swap1\n      div\n      0xff\n      and\n      swap1\n      pop\n      dup6\n      jump\t// out\n        /* \"contracts/PollBetContract.sol\":2069:2585  function getPollVotes(uint pollId) public view returns (uint[] memory) { // should this be public, we have used the requuire statement... */\n    tag_72:\n        /* \"contracts/PollBetContract.sol\":2125:2138  uint[] memory */\n      0x60\n        /* \"contracts/PollBetContract.sol\":2238:2243  polls */\n      0x08\n        /* \"contracts/PollBetContract.sol\":2244:2250  pollId */\n      dup3\n        /* \"contracts/PollBetContract.sol\":2238:2251  polls[pollId] */\n      dup2\n      sload\n      dup2\n      lt\n      tag_123\n      jumpi\n      tag_124\n      tag_99\n      jump\t// in\n    tag_124:\n    tag_123:\n      swap1\n      0x00\n      mstore\n      keccak256(0x00, 0x20)\n      swap1\n      0x06\n      mul\n      add\n        /* \"contracts/PollBetContract.sol\":2238:2259  polls[pollId].endTime */\n      0x03\n      add\n      sload\n        /* \"contracts/PollBetContract.sol\":2220:2235  block.timestamp */\n      timestamp\n        /* \"contracts/PollBetContract.sol\":2220:2259  block.timestamp > polls[pollId].endTime */\n      gt\n        /* \"contracts/PollBetContract.sol\":2212:2286  require(block.timestamp > polls[pollId].endTime, \"Poll has not ended yet\") */\n      tag_126\n      jumpi\n      mload(0x40)\n      0x08c379a000000000000000000000000000000000000000000000000000000000\n      dup2\n      mstore\n      0x04\n      add\n      tag_127\n      swap1\n      tag_128\n      jump\t// in\n    tag_127:\n      mload(0x40)\n      dup1\n      swap2\n      sub\n      swap1\n      revert\n    tag_126:\n        /* \"contracts/PollBetContract.sol\":2359:2378  uint[] memory votes */\n      0x00\n        /* \"contracts/PollBetContract.sol\":2392:2397  polls */\n      0x08\n        /* \"contracts/PollBetContract.sol\":2398:2404  pollId */\n      dup4\n        /* \"contracts/PollBetContract.sol\":2392:2405  polls[pollId] */\n      dup2\n      sload\n      dup2\n      lt\n      tag_129\n      jumpi\n      tag_130\n      tag_99\n      jump\t// in\n    tag_130:\n    tag_129:\n      swap1\n      0x00\n      mstore\n      keccak256(0x00, 0x20)\n      swap1\n      0x06\n      mul\n      add\n        /* \"contracts/PollBetContract.sol\":2392:2413  polls[pollId].choices */\n      0x04\n      add\n        /* \"contracts/PollBetContract.sol\":2392:2420  polls[pollId].choices.length */\n      dup1\n      sload\n      swap1\n      pop\n        /* \"contracts/PollBetContract.sol\":2381:2421  new uint[](polls[pollId].choices.length) */\n      0xffffffffffffffff\n      dup2\n      gt\n      iszero\n      tag_132\n      jumpi\n      tag_133\n      tag_134\n      jump\t// in\n    tag_133:\n    tag_132:\n      mload(0x40)\n      swap1\n      dup1\n      dup3\n      mstore\n      dup1\n      0x20\n      mul\n      0x20\n      add\n      dup3\n      add\n      0x40\n      mstore\n      dup1\n      iszero\n      tag_135\n      jumpi\n      dup2\n      0x20\n      add\n      0x20\n      dup3\n      mul\n      dup1\n      calldatasize\n      dup4\n      calldatacopy\n      dup1\n      dup3\n      add\n      swap2\n      pop\n      pop\n      swap1\n      pop\n    tag_135:\n      pop\n        /* \"contracts/PollBetContract.sol\":2359:2421  uint[] memory votes = new uint[](polls[pollId].choices.length) */\n      swap1\n      pop\n        /* \"contracts/PollBetContract.sol\":2437:2443  uint i */\n      0x00\n        /* \"contracts/PollBetContract.sol\":2432:2556  for (uint i = 0; i < polls[pollId].choices.length; i++) {... */\n    tag_136:\n        /* \"contracts/PollBetContract.sol\":2453:2458  polls */\n      0x08\n        /* \"contracts/PollBetContract.sol\":2459:2465  pollId */\n      dup5\n        /* \"contracts/PollBetContract.sol\":2453:2466  polls[pollId] */\n      dup2\n      sload\n      dup2\n      lt\n      tag_139\n      jumpi\n      tag_140\n      tag_99\n      jump\t// in\n    tag_140:\n    tag_139:\n      swap1\n      0x00\n      mstore\n      keccak256(0x00, 0x20)\n      swap1\n      0x06\n      mul\n      add\n        /* \"contracts/PollBetContract.sol\":2453:2474  polls[pollId].choices */\n      0x04\n      add\n        /* \"contracts/PollBetContract.sol\":2453:2481  polls[pollId].choices.length */\n      dup1\n      sload\n      swap1\n      pop\n        /* \"contracts/PollBetContract.sol\":2449:2450  i */\n      dup2\n        /* \"contracts/PollBetContract.sol\":2449:2481  i < polls[pollId].choices.length */\n      lt\n        /* \"contracts/PollBetContract.sol\":2432:2556  for (uint i = 0; i < polls[pollId].choices.length; i++) {... */\n      iszero\n      tag_137\n      jumpi\n        /* \"contracts/PollBetContract.sol\":2483:2486  i++ */\n      dup1\n      dup1\n      tag_142\n      swap1\n      tag_143\n      jump\t// in\n    tag_142:\n      swap2\n      pop\n      pop\n        /* \"contracts/PollBetContract.sol\":2432:2556  for (uint i = 0; i < polls[pollId].choices.length; i++) {... */\n      jump(tag_136)\n    tag_137:\n      pop\n        /* \"contracts/PollBetContract.sol\":2573:2578  votes */\n      dup1\n        /* \"contracts/PollBetContract.sol\":2566:2578  return votes */\n      swap2\n      pop\n      pop\n        /* \"contracts/PollBetContract.sol\":2069:2585  function getPollVotes(uint pollId) public view returns (uint[] memory) { // should this be public, we have used the requuire statement... */\n      swap2\n      swap1\n      pop\n      jump\t// out\n        /* \"contracts/PollBetContract.sol\":986:1006  uint public betCount */\n    tag_76:\n      sload(0x01)\n      dup2\n      jump\t// out\n        /* \"contracts/PollBetContract.sol\":1462:2063  function createPoll(uint _startTime, uint _endTime, string[] memory _options) public {... */\n    tag_81:\n        /* \"contracts/PollBetContract.sol\":1576:1586  _startTime */\n      dup3\n        /* \"contracts/PollBetContract.sol\":1565:1573  _endTime */\n      dup3\n        /* \"contracts/PollBetContract.sol\":1565:1586  _endTime > _startTime */\n      gt\n        /* \"contracts/PollBetContract.sol\":1557:1612  require(_endTime > _startTime, \"Invalid poll end time\") */\n      tag_145\n      jumpi\n      mload(0x40)\n      0x08c379a000000000000000000000000000000000000000000000000000000000\n      dup2\n      mstore\n      0x04\n      add\n      tag_146\n      swap1\n      tag_147\n      jump\t// in\n    tag_146:\n      mload(0x40)\n      dup1\n      swap2\n      sub\n      swap1\n      revert\n    tag_145:\n        /* \"contracts/PollBetContract.sol\":1648:1649  1 */\n      0x01\n        /* \"contracts/PollBetContract.sol\":1630:1638  _options */\n      dup2\n        /* \"contracts/PollBetContract.sol\":1630:1645  _options.length */\n      mload\n        /* \"contracts/PollBetContract.sol\":1630:1649  _options.length > 1 */\n      gt\n        /* \"contracts/PollBetContract.sol\":1622:1683  require(_options.length > 1, \"At least two options required\") */\n      tag_148\n      jumpi\n      mload(0x40)\n      0x08c379a000000000000000000000000000000000000000000000000000000000\n      dup2\n      mstore\n      0x04\n      add\n      tag_149\n      swap1\n      tag_150\n      jump\t// in\n    tag_149:\n      mload(0x40)\n      dup1\n      swap2\n      sub\n      swap1\n      revert\n    tag_148:\n        /* \"contracts/PollBetContract.sol\":1694:1703  pollCount */\n      0x00\n      dup1\n        /* \"contracts/PollBetContract.sol\":1694:1705  pollCount++ */\n      dup2\n      sload\n      dup1\n      swap3\n      swap2\n      swap1\n      tag_151\n      swap1\n      tag_143\n      jump\t// in\n    tag_151:\n      swap2\n      swap1\n      pop\n      sstore\n      pop\n        /* \"contracts/PollBetContract.sol\":1716:1735  Poll memory newPoll */\n      0x00\n        /* \"contracts/PollBetContract.sol\":1738:1937  Poll({... */\n      mload(0x40)\n      dup1\n      0xc0\n      add\n      0x40\n      mstore\n      dup1\n        /* \"contracts/PollBetContract.sol\":1761:1770  pollCount */\n      sload(0x00)\n        /* \"contracts/PollBetContract.sol\":1738:1937  Poll({... */\n      dup2\n      mstore\n      0x20\n      add\n        /* \"contracts/PollBetContract.sol\":1793:1803  msg.sender */\n      caller\n        /* \"contracts/PollBetContract.sol\":1738:1937  Poll({... */\n      0xffffffffffffffffffffffffffffffffffffffff\n      and\n      dup2\n      mstore\n      0x20\n      add\n        /* \"contracts/PollBetContract.sol\":1828:1838  _startTime */\n      dup6\n        /* \"contracts/PollBetContract.sol\":1738:1937  Poll({... */\n      dup2\n      mstore\n      0x20\n      add\n        /* \"contracts/PollBetContract.sol\":1861:1869  _endTime */\n      dup5\n        /* \"contracts/PollBetContract.sol\":1738:1937  Poll({... */\n      dup2\n      mstore\n      0x20\n      add\n        /* \"contracts/PollBetContract.sol\":1892:1900  _options */\n      dup4\n        /* \"contracts/PollBetContract.sol\":1738:1937  Poll({... */\n      dup2\n      mstore\n      0x20\n      add\n        /* \"contracts/PollBetContract.sol\":1922:1926  true */\n      0x01\n        /* \"contracts/PollBetContract.sol\":1738:1937  Poll({... */\n      iszero\n      iszero\n      dup2\n      mstore\n      pop\n        /* \"contracts/PollBetContract.sol\":1716:1937  Poll memory newPoll = Poll({... */\n      swap1\n      pop\n        /* \"contracts/PollBetContract.sol\":1967:1974  newPoll */\n      dup1\n        /* \"contracts/PollBetContract.sol\":1948:1953  polls */\n      0x08\n        /* \"contracts/PollBetContract.sol\":1954:1963  pollCount */\n      sload(0x00)\n        /* \"contracts/PollBetContract.sol\":1948:1964  polls[pollCount] */\n      dup2\n      sload\n      dup2\n      lt\n      tag_152\n      jumpi\n      tag_153\n      tag_99\n      jump\t// in\n    tag_153:\n    tag_152:\n      swap1\n      0x00\n      mstore\n      keccak256(0x00, 0x20)\n      swap1\n      0x06\n      mul\n      add\n        /* \"contracts/PollBetContract.sol\":1948:1974  polls[pollCount] = newPoll */\n      0x00\n      dup3\n      add\n      mload\n      dup2\n      0x00\n      add\n      sstore\n      0x20\n      dup3\n      add\n      mload\n      dup2\n      0x01\n      add\n      exp(0x0100, 0x00)\n      dup2\n      sload\n      dup2\n      0xffffffffffffffffffffffffffffffffffffffff\n      mul\n      not\n      and\n      swap1\n      dup4\n      0xffffffffffffffffffffffffffffffffffffffff\n      and\n      mul\n      or\n      swap1\n      sstore\n      pop\n      0x40\n      dup3\n      add\n      mload\n      dup2\n      0x02\n      add\n      sstore\n      0x60\n      dup3\n      add\n      mload\n      dup2\n      0x03\n      add\n      sstore\n      0x80\n      dup3\n      add\n      mload\n      dup2\n      0x04\n      add\n      swap1\n      dup1\n      mload\n      swap1\n      0x20\n      add\n      swap1\n      tag_155\n      swap3\n      swap2\n      swap1\n      tag_156\n      jump\t// in\n    tag_155:\n      pop\n      0xa0\n      dup3\n      add\n      mload\n      dup2\n      0x05\n      add\n      exp(0x0100, 0x00)\n      dup2\n      sload\n      dup2\n      0xff\n      mul\n      not\n      and\n      swap1\n      dup4\n      iszero\n      iszero\n      mul\n      or\n      swap1\n      sstore\n      pop\n      swap1\n      pop\n      pop\n        /* \"contracts/PollBetContract.sol\":2013:2023  msg.sender */\n      caller\n        /* \"contracts/PollBetContract.sol\":1990:2056  PollCreated(pollCount, msg.sender, _startTime, _endTime, _options) */\n      0xffffffffffffffffffffffffffffffffffffffff\n      and\n        /* \"contracts/PollBetContract.sol\":2002:2011  pollCount */\n      sload(0x00)\n        /* \"contracts/PollBetContract.sol\":1990:2056  PollCreated(pollCount, msg.sender, _startTime, _endTime, _options) */\n      0x58d87e181e9ac91f8ccda34caaf4c15db2a9fc345a86ea48e378d6e4359dfdb9\n        /* \"contracts/PollBetContract.sol\":2025:2035  _startTime */\n      dup7\n        /* \"contracts/PollBetContract.sol\":2037:2045  _endTime */\n      dup7\n        /* \"contracts/PollBetContract.sol\":2047:2055  _options */\n      dup7\n        /* \"contracts/PollBetContract.sol\":1990:2056  PollCreated(pollCount, msg.sender, _startTime, _endTime, _options) */\n      mload(0x40)\n      tag_157\n      swap4\n      swap3\n      swap2\n      swap1\n      tag_158\n      jump\t// in\n    tag_157:\n      mload(0x40)\n      dup1\n      swap2\n      sub\n      swap1\n      log3\n        /* \"contracts/PollBetContract.sol\":1547:2063  {... */\n      pop\n        /* \"contracts/PollBetContract.sol\":1462:2063  function createPoll(uint _startTime, uint _endTime, string[] memory _options) public {... */\n      pop\n      pop\n      pop\n      jump\t// out\n        /* \"contracts/PollBetContract.sol\":4508:4584  function getOdds(uint _pollId, uint _pollChoice) public view returns(uint){} */\n    tag_84:\n        /* \"contracts/PollBetContract.sol\":4577:4581  uint */\n      0x00\n        /* \"contracts/PollBetContract.sol\":4508:4584  function getOdds(uint _pollId, uint _pollChoice) public view returns(uint){} */\n      swap3\n      swap2\n      pop\n      pop\n      jump\t// out\n        /* \"contracts/PollBetContract.sol\":4590:4620  function closePoll() public {} */\n    tag_87:\n      jump\t// out\n    tag_156:\n      dup3\n      dup1\n      sload\n      dup3\n      dup3\n      sstore\n      swap1\n      0x00\n      mstore\n      keccak256(0x00, 0x20)\n      swap1\n      dup2\n      add\n      swap3\n      dup3\n      iszero\n      tag_161\n      jumpi\n      swap2\n      0x20\n      mul\n      dup3\n      add\n    tag_162:\n      dup3\n      dup2\n      gt\n      iszero\n      tag_163\n      jumpi\n      dup3\n      mload\n      dup3\n      swap1\n      dup2\n      tag_164\n      swap2\n      swap1\n      tag_165\n      jump\t// in\n    tag_164:\n      pop\n      swap2\n      0x20\n      add\n      swap2\n      swap1\n      0x01\n      add\n      swap1\n      jump(tag_162)\n    tag_163:\n    tag_161:\n      pop\n      swap1\n      pop\n      tag_166\n      swap2\n      swap1\n      tag_167\n      jump\t// in\n    tag_166:\n      pop\n      swap1\n      jump\t// out\n    tag_167:\n    tag_168:\n      dup1\n      dup3\n      gt\n      iszero\n      tag_169\n      jumpi\n      0x00\n      dup2\n      dup2\n      tag_170\n      swap2\n      swap1\n      tag_171\n      jump\t// in\n    tag_170:\n      pop\n      0x01\n      add\n      jump(tag_168)\n    tag_169:\n      pop\n      swap1\n      jump\t// out\n    tag_171:\n      pop\n      dup1\n      sload\n      tag_172\n      swap1\n      tag_91\n      jump\t// in\n    tag_172:\n      0x00\n      dup3\n      sstore\n      dup1\n      0x1f\n      lt\n      tag_174\n      jumpi\n      pop\n      jump(tag_173)\n    tag_174:\n      0x1f\n      add\n      0x20\n      swap1\n      div\n      swap1\n      0x00\n      mstore\n      keccak256(0x00, 0x20)\n      swap1\n      dup2\n      add\n      swap1\n      tag_175\n      swap2\n      swap1\n      tag_176\n      jump\t// in\n    tag_175:\n    tag_173:\n      pop\n      jump\t// out\n    tag_176:\n    tag_177:\n      dup1\n      dup3\n      gt\n      iszero\n      tag_178\n      jumpi\n      0x00\n      dup2\n      0x00\n      swap1\n      sstore\n      pop\n      0x01\n      add\n      jump(tag_177)\n    tag_178:\n      pop\n      swap1\n      jump\t// out\n        /* \"#utility.yul\":7:82   */\n    tag_179:\n        /* \"#utility.yul\":40:46   */\n      0x00\n        /* \"#utility.yul\":73:75   */\n      0x40\n        /* \"#utility.yul\":67:76   */\n      mload\n        /* \"#utility.yul\":57:76   */\n      swap1\n      pop\n        /* \"#utility.yul\":7:82   */\n      swap1\n      jump\t// out\n        /* \"#utility.yul\":88:205   */\n    tag_180:\n        /* \"#utility.yul\":197:198   */\n      0x00\n        /* \"#utility.yul\":194:195   */\n      dup1\n        /* \"#utility.yul\":187:199   */\n      revert\n        /* \"#utility.yul\":211:328   */\n    tag_181:\n        /* \"#utility.yul\":320:321   */\n      0x00\n        /* \"#utility.yul\":317:318   */\n      dup1\n        /* \"#utility.yul\":310:322   */\n      revert\n        /* \"#utility.yul\":334:411   */\n    tag_182:\n        /* \"#utility.yul\":371:378   */\n      0x00\n        /* \"#utility.yul\":400:405   */\n      dup2\n        /* \"#utility.yul\":389:405   */\n      swap1\n      pop\n        /* \"#utility.yul\":334:411   */\n      swap2\n      swap1\n      pop\n      jump\t// out\n        /* \"#utility.yul\":417:539   */\n    tag_183:\n        /* \"#utility.yul\":490:514   */\n      tag_262\n        /* \"#utility.yul\":508:513   */\n      dup2\n        /* \"#utility.yul\":490:514   */\n      tag_182\n      jump\t// in\n    tag_262:\n        /* \"#utility.yul\":483:488   */\n      dup2\n        /* \"#utility.yul\":480:515   */\n      eq\n        /* \"#utility.yul\":470:533   */\n      tag_263\n      jumpi\n        /* \"#utility.yul\":529:530   */\n      0x00\n        /* \"#utility.yul\":526:527   */\n      dup1\n        /* \"#utility.yul\":519:531   */\n      revert\n        /* \"#utility.yul\":470:533   */\n    tag_263:\n        /* \"#utility.yul\":417:539   */\n      pop\n      jump\t// out\n        /* \"#utility.yul\":545:684   */\n    tag_184:\n        /* \"#utility.yul\":591:596   */\n      0x00\n        /* \"#utility.yul\":629:635   */\n      dup2\n        /* \"#utility.yul\":616:636   */\n      calldataload\n        /* \"#utility.yul\":607:636   */\n      swap1\n      pop\n        /* \"#utility.yul\":645:678   */\n      tag_265\n        /* \"#utility.yul\":672:677   */\n      dup2\n        /* \"#utility.yul\":645:678   */\n      tag_183\n      jump\t// in\n    tag_265:\n        /* \"#utility.yul\":545:684   */\n      swap3\n      swap2\n      pop\n      pop\n      jump\t// out\n        /* \"#utility.yul\":690:816   */\n    tag_185:\n        /* \"#utility.yul\":727:734   */\n      0x00\n        /* \"#utility.yul\":767:809   */\n      0xffffffffffffffffffffffffffffffffffffffff\n        /* \"#utility.yul\":760:765   */\n      dup3\n        /* \"#utility.yul\":756:810   */\n      and\n        /* \"#utility.yul\":745:810   */\n      swap1\n      pop\n        /* \"#utility.yul\":690:816   */\n      swap2\n      swap1\n      pop\n      jump\t// out\n        /* \"#utility.yul\":822:918   */\n    tag_186:\n        /* \"#utility.yul\":859:866   */\n      0x00\n        /* \"#utility.yul\":888:912   */\n      tag_268\n        /* \"#utility.yul\":906:911   */\n      dup3\n        /* \"#utility.yul\":888:912   */\n      tag_185\n      jump\t// in\n    tag_268:\n        /* \"#utility.yul\":877:912   */\n      swap1\n      pop\n        /* \"#utility.yul\":822:918   */\n      swap2\n      swap1\n      pop\n      jump\t// out\n        /* \"#utility.yul\":924:1046   */\n    tag_187:\n        /* \"#utility.yul\":997:1021   */\n      tag_270\n        /* \"#utility.yul\":1015:1020   */\n      dup2\n        /* \"#utility.yul\":997:1021   */\n      tag_186\n      jump\t// in\n    tag_270:\n        /* \"#utility.yul\":990:995   */\n      dup2\n        /* \"#utility.yul\":987:1022   */\n      eq\n        /* \"#utility.yul\":977:1040   */\n      tag_271\n      jumpi\n        /* \"#utility.yul\":1036:1037   */\n      0x00\n        /* \"#utility.yul\":1033:1034   */\n      dup1\n        /* \"#utility.yul\":1026:1038   */\n      revert\n        /* \"#utility.yul\":977:1040   */\n    tag_271:\n        /* \"#utility.yul\":924:1046   */\n      pop\n      jump\t// out\n        /* \"#utility.yul\":1052:1191   */\n    tag_188:\n        /* \"#utility.yul\":1098:1103   */\n      0x00\n        /* \"#utility.yul\":1136:1142   */\n      dup2\n        /* \"#utility.yul\":1123:1143   */\n      calldataload\n        /* \"#utility.yul\":1114:1143   */\n      swap1\n      pop\n        /* \"#utility.yul\":1152:1185   */\n      tag_273\n        /* \"#utility.yul\":1179:1184   */\n      dup2\n        /* \"#utility.yul\":1152:1185   */\n      tag_187\n      jump\t// in\n    tag_273:\n        /* \"#utility.yul\":1052:1191   */\n      swap3\n      swap2\n      pop\n      pop\n      jump\t// out\n        /* \"#utility.yul\":1197:1671   */\n    tag_24:\n        /* \"#utility.yul\":1265:1271   */\n      0x00\n        /* \"#utility.yul\":1273:1279   */\n      dup1\n        /* \"#utility.yul\":1322:1324   */\n      0x40\n        /* \"#utility.yul\":1310:1319   */\n      dup4\n        /* \"#utility.yul\":1301:1308   */\n      dup6\n        /* \"#utility.yul\":1297:1320   */\n      sub\n        /* \"#utility.yul\":1293:1325   */\n      slt\n        /* \"#utility.yul\":1290:1409   */\n      iszero\n      tag_275\n      jumpi\n        /* \"#utility.yul\":1328:1407   */\n      tag_276\n      tag_180\n      jump\t// in\n    tag_276:\n        /* \"#utility.yul\":1290:1409   */\n    tag_275:\n        /* \"#utility.yul\":1448:1449   */\n      0x00\n        /* \"#utility.yul\":1473:1526   */\n      tag_277\n        /* \"#utility.yul\":1518:1525   */\n      dup6\n        /* \"#utility.yul\":1509:1515   */\n      dup3\n        /* \"#utility.yul\":1498:1507   */\n      dup7\n        /* \"#utility.yul\":1494:1516   */\n      add\n        /* \"#utility.yul\":1473:1526   */\n      tag_184\n      jump\t// in\n    tag_277:\n        /* \"#utility.yul\":1463:1526   */\n      swap3\n      pop\n        /* \"#utility.yul\":1419:1536   */\n      pop\n        /* \"#utility.yul\":1575:1577   */\n      0x20\n        /* \"#utility.yul\":1601:1654   */\n      tag_278\n        /* \"#utility.yul\":1646:1653   */\n      dup6\n        /* \"#utility.yul\":1637:1643   */\n      dup3\n        /* \"#utility.yul\":1626:1635   */\n      dup7\n        /* \"#utility.yul\":1622:1644   */\n      add\n        /* \"#utility.yul\":1601:1654   */\n      tag_188\n      jump\t// in\n    tag_278:\n        /* \"#utility.yul\":1591:1654   */\n      swap2\n      pop\n        /* \"#utility.yul\":1546:1664   */\n      pop\n        /* \"#utility.yul\":1197:1671   */\n      swap3\n      pop\n      swap3\n      swap1\n      pop\n      jump\t// out\n        /* \"#utility.yul\":1677:1795   */\n    tag_189:\n        /* \"#utility.yul\":1764:1788   */\n      tag_280\n        /* \"#utility.yul\":1782:1787   */\n      dup2\n        /* \"#utility.yul\":1764:1788   */\n      tag_182\n      jump\t// in\n    tag_280:\n        /* \"#utility.yul\":1759:1762   */\n      dup3\n        /* \"#utility.yul\":1752:1789   */\n      mstore\n        /* \"#utility.yul\":1677:1795   */\n      pop\n      pop\n      jump\t// out\n        /* \"#utility.yul\":1801:2023   */\n    tag_27:\n        /* \"#utility.yul\":1894:1898   */\n      0x00\n        /* \"#utility.yul\":1932:1934   */\n      0x20\n        /* \"#utility.yul\":1921:1930   */\n      dup3\n        /* \"#utility.yul\":1917:1935   */\n      add\n        /* \"#utility.yul\":1909:1935   */\n      swap1\n      pop\n        /* \"#utility.yul\":1945:2016   */\n      tag_282\n        /* \"#utility.yul\":2013:2014   */\n      0x00\n        /* \"#utility.yul\":2002:2011   */\n      dup4\n        /* \"#utility.yul\":1998:2015   */\n      add\n        /* \"#utility.yul\":1989:1995   */\n      dup5\n        /* \"#utility.yul\":1945:2016   */\n      tag_189\n      jump\t// in\n    tag_282:\n        /* \"#utility.yul\":1801:2023   */\n      swap3\n      swap2\n      pop\n      pop\n      jump\t// out\n        /* \"#utility.yul\":2029:2358   */\n    tag_30:\n        /* \"#utility.yul\":2088:2094   */\n      0x00\n        /* \"#utility.yul\":2137:2139   */\n      0x20\n        /* \"#utility.yul\":2125:2134   */\n      dup3\n        /* \"#utility.yul\":2116:2123   */\n      dup5\n        /* \"#utility.yul\":2112:2135   */\n      sub\n        /* \"#utility.yul\":2108:2140   */\n      slt\n        /* \"#utility.yul\":2105:2224   */\n      iszero\n      tag_284\n      jumpi\n        /* \"#utility.yul\":2143:2222   */\n      tag_285\n      tag_180\n      jump\t// in\n    tag_285:\n        /* \"#utility.yul\":2105:2224   */\n    tag_284:\n        /* \"#utility.yul\":2263:2264   */\n      0x00\n        /* \"#utility.yul\":2288:2341   */\n      tag_286\n        /* \"#utility.yul\":2333:2340   */\n      dup5\n        /* \"#utility.yul\":2324:2330   */\n      dup3\n        /* \"#utility.yul\":2313:2322   */\n      dup6\n        /* \"#utility.yul\":2309:2331   */\n      add\n        /* \"#utility.yul\":2288:2341   */\n      tag_188\n      jump\t// in\n    tag_286:\n        /* \"#utility.yul\":2278:2341   */\n      swap2\n      pop\n        /* \"#utility.yul\":2234:2351   */\n      pop\n        /* \"#utility.yul\":2029:2358   */\n      swap3\n      swap2\n      pop\n      pop\n      jump\t// out\n        /* \"#utility.yul\":2364:2838   */\n    tag_35:\n        /* \"#utility.yul\":2432:2438   */\n      0x00\n        /* \"#utility.yul\":2440:2446   */\n      dup1\n        /* \"#utility.yul\":2489:2491   */\n      0x40\n        /* \"#utility.yul\":2477:2486   */\n      dup4\n        /* \"#utility.yul\":2468:2475   */\n      dup6\n        /* \"#utility.yul\":2464:2487   */\n      sub\n        /* \"#utility.yul\":2460:2492   */\n      slt\n        /* \"#utility.yul\":2457:2576   */\n      iszero\n      tag_288\n      jumpi\n        /* \"#utility.yul\":2495:2574   */\n      tag_289\n      tag_180\n      jump\t// in\n    tag_289:\n        /* \"#utility.yul\":2457:2576   */\n    tag_288:\n        /* \"#utility.yul\":2615:2616   */\n      0x00\n        /* \"#utility.yul\":2640:2693   */\n      tag_290\n        /* \"#utility.yul\":2685:2692   */\n      dup6\n        /* \"#utility.yul\":2676:2682   */\n      dup3\n        /* \"#utility.yul\":2665:2674   */\n      dup7\n        /* \"#utility.yul\":2661:2683   */\n      add\n        /* \"#utility.yul\":2640:2693   */\n      tag_184\n      jump\t// in\n    tag_290:\n        /* \"#utility.yul\":2630:2693   */\n      swap3\n      pop\n        /* \"#utility.yul\":2586:2703   */\n      pop\n        /* \"#utility.yul\":2742:2744   */\n      0x20\n        /* \"#utility.yul\":2768:2821   */\n      tag_291\n        /* \"#utility.yul\":2813:2820   */\n      dup6\n        /* \"#utility.yul\":2804:2810   */\n      dup3\n        /* \"#utility.yul\":2793:2802   */\n      dup7\n        /* \"#utility.yul\":2789:2811   */\n      add\n        /* \"#utility.yul\":2768:2821   */\n      tag_184\n      jump\t// in\n    tag_291:\n        /* \"#utility.yul\":2758:2821   */\n      swap2\n      pop\n        /* \"#utility.yul\":2713:2831   */\n      pop\n        /* \"#utility.yul\":2364:2838   */\n      swap3\n      pop\n      swap3\n      swap1\n      pop\n      jump\t// out\n        /* \"#utility.yul\":2844:2943   */\n    tag_190:\n        /* \"#utility.yul\":2896:2902   */\n      0x00\n        /* \"#utility.yul\":2930:2935   */\n      dup2\n        /* \"#utility.yul\":2924:2936   */\n      mload\n        /* \"#utility.yul\":2914:2936   */\n      swap1\n      pop\n        /* \"#utility.yul\":2844:2943   */\n      swap2\n      swap1\n      pop\n      jump\t// out\n        /* \"#utility.yul\":2949:3118   */\n    tag_191:\n        /* \"#utility.yul\":3033:3044   */\n      0x00\n        /* \"#utility.yul\":3067:3073   */\n      dup3\n        /* \"#utility.yul\":3062:3065   */\n      dup3\n        /* \"#utility.yul\":3055:3074   */\n      mstore\n        /* \"#utility.yul\":3107:3111   */\n      0x20\n        /* \"#utility.yul\":3102:3105   */\n      dup3\n        /* \"#utility.yul\":3098:3112   */\n      add\n        /* \"#utility.yul\":3083:3112   */\n      swap1\n      pop\n        /* \"#utility.yul\":2949:3118   */\n      swap3\n      swap2\n      pop\n      pop\n      jump\t// out\n        /* \"#utility.yul\":3124:3370   */\n    tag_192:\n        /* \"#utility.yul\":3205:3206   */\n      0x00\n        /* \"#utility.yul\":3215:3328   */\n    tag_295:\n        /* \"#utility.yul\":3229:3235   */\n      dup4\n        /* \"#utility.yul\":3226:3227   */\n      dup2\n        /* \"#utility.yul\":3223:3236   */\n      lt\n        /* \"#utility.yul\":3215:3328   */\n      iszero\n      tag_297\n      jumpi\n        /* \"#utility.yul\":3314:3315   */\n      dup1\n        /* \"#utility.yul\":3309:3312   */\n      dup3\n        /* \"#utility.yul\":3305:3316   */\n      add\n        /* \"#utility.yul\":3299:3317   */\n      mload\n        /* \"#utility.yul\":3295:3296   */\n      dup2\n        /* \"#utility.yul\":3290:3293   */\n      dup5\n        /* \"#utility.yul\":3286:3297   */\n      add\n        /* \"#utility.yul\":3279:3318   */\n      mstore\n        /* \"#utility.yul\":3251:3253   */\n      0x20\n        /* \"#utility.yul\":3248:3249   */\n      dup2\n        /* \"#utility.yul\":3244:3254   */\n      add\n        /* \"#utility.yul\":3239:3254   */\n      swap1\n      pop\n        /* \"#utility.yul\":3215:3328   */\n      jump(tag_295)\n    tag_297:\n        /* \"#utility.yul\":3362:3363   */\n      0x00\n        /* \"#utility.yul\":3353:3359   */\n      dup5\n        /* \"#utility.yul\":3348:3351   */\n      dup5\n        /* \"#utility.yul\":3344:3360   */\n      add\n        /* \"#utility.yul\":3337:3364   */\n      mstore\n        /* \"#utility.yul\":3186:3370   */\n      pop\n        /* \"#utility.yul\":3124:3370   */\n      pop\n      pop\n      pop\n      jump\t// out\n        /* \"#utility.yul\":3376:3478   */\n    tag_193:\n        /* \"#utility.yul\":3417:3423   */\n      0x00\n        /* \"#utility.yul\":3468:3470   */\n      0x1f\n        /* \"#utility.yul\":3464:3471   */\n      not\n        /* \"#utility.yul\":3459:3461   */\n      0x1f\n        /* \"#utility.yul\":3452:3457   */\n      dup4\n        /* \"#utility.yul\":3448:3462   */\n      add\n        /* \"#utility.yul\":3444:3472   */\n      and\n        /* \"#utility.yul\":3434:3472   */\n      swap1\n      pop\n        /* \"#utility.yul\":3376:3478   */\n      swap2\n      swap1\n      pop\n      jump\t// out\n        /* \"#utility.yul\":3484:3861   */\n    tag_194:\n        /* \"#utility.yul\":3572:3575   */\n      0x00\n        /* \"#utility.yul\":3600:3639   */\n      tag_300\n        /* \"#utility.yul\":3633:3638   */\n      dup3\n        /* \"#utility.yul\":3600:3639   */\n      tag_190\n      jump\t// in\n    tag_300:\n        /* \"#utility.yul\":3655:3726   */\n      tag_301\n        /* \"#utility.yul\":3719:3725   */\n      dup2\n        /* \"#utility.yul\":3714:3717   */\n      dup6\n        /* \"#utility.yul\":3655:3726   */\n      tag_191\n      jump\t// in\n    tag_301:\n        /* \"#utility.yul\":3648:3726   */\n      swap4\n      pop\n        /* \"#utility.yul\":3735:3800   */\n      tag_302\n        /* \"#utility.yul\":3793:3799   */\n      dup2\n        /* \"#utility.yul\":3788:3791   */\n      dup6\n        /* \"#utility.yul\":3781:3785   */\n      0x20\n        /* \"#utility.yul\":3774:3779   */\n      dup7\n        /* \"#utility.yul\":3770:3786   */\n      add\n        /* \"#utility.yul\":3735:3800   */\n      tag_192\n      jump\t// in\n    tag_302:\n        /* \"#utility.yul\":3825:3854   */\n      tag_303\n        /* \"#utility.yul\":3847:3853   */\n      dup2\n        /* \"#utility.yul\":3825:3854   */\n      tag_193\n      jump\t// in\n    tag_303:\n        /* \"#utility.yul\":3820:3823   */\n      dup5\n        /* \"#utility.yul\":3816:3855   */\n      add\n        /* \"#utility.yul\":3809:3855   */\n      swap2\n      pop\n        /* \"#utility.yul\":3576:3861   */\n      pop\n        /* \"#utility.yul\":3484:3861   */\n      swap3\n      swap2\n      pop\n      pop\n      jump\t// out\n        /* \"#utility.yul\":3867:3985   */\n    tag_195:\n        /* \"#utility.yul\":3954:3978   */\n      tag_305\n        /* \"#utility.yul\":3972:3977   */\n      dup2\n        /* \"#utility.yul\":3954:3978   */\n      tag_186\n      jump\t// in\n    tag_305:\n        /* \"#utility.yul\":3949:3952   */\n      dup3\n        /* \"#utility.yul\":3942:3979   */\n      mstore\n        /* \"#utility.yul\":3867:3985   */\n      pop\n      pop\n      jump\t// out\n        /* \"#utility.yul\":3991:4635   */\n    tag_38:\n        /* \"#utility.yul\":4188:4192   */\n      0x00\n        /* \"#utility.yul\":4226:4229   */\n      0x80\n        /* \"#utility.yul\":4215:4224   */\n      dup3\n        /* \"#utility.yul\":4211:4230   */\n      add\n        /* \"#utility.yul\":4203:4230   */\n      swap1\n      pop\n        /* \"#utility.yul\":4240:4311   */\n      tag_307\n        /* \"#utility.yul\":4308:4309   */\n      0x00\n        /* \"#utility.yul\":4297:4306   */\n      dup4\n        /* \"#utility.yul\":4293:4310   */\n      add\n        /* \"#utility.yul\":4284:4290   */\n      dup8\n        /* \"#utility.yul\":4240:4311   */\n      tag_189\n      jump\t// in\n    tag_307:\n        /* \"#utility.yul\":4358:4367   */\n      dup2\n        /* \"#utility.yul\":4352:4356   */\n      dup2\n        /* \"#utility.yul\":4348:4368   */\n      sub\n        /* \"#utility.yul\":4343:4345   */\n      0x20\n        /* \"#utility.yul\":4332:4341   */\n      dup4\n        /* \"#utility.yul\":4328:4346   */\n      add\n        /* \"#utility.yul\":4321:4369   */\n      mstore\n        /* \"#utility.yul\":4386:4464   */\n      tag_308\n        /* \"#utility.yul\":4459:4463   */\n      dup2\n        /* \"#utility.yul\":4450:4456   */\n      dup7\n        /* \"#utility.yul\":4386:4464   */\n      tag_194\n      jump\t// in\n    tag_308:\n        /* \"#utility.yul\":4378:4464   */\n      swap1\n      pop\n        /* \"#utility.yul\":4474:4546   */\n      tag_309\n        /* \"#utility.yul\":4542:4544   */\n      0x40\n        /* \"#utility.yul\":4531:4540   */\n      dup4\n        /* \"#utility.yul\":4527:4545   */\n      add\n        /* \"#utility.yul\":4518:4524   */\n      dup6\n        /* \"#utility.yul\":4474:4546   */\n      tag_195\n      jump\t// in\n    tag_309:\n        /* \"#utility.yul\":4556:4628   */\n      tag_310\n        /* \"#utility.yul\":4624:4626   */\n      0x60\n        /* \"#utility.yul\":4613:4622   */\n      dup4\n        /* \"#utility.yul\":4609:4627   */\n      add\n        /* \"#utility.yul\":4600:4606   */\n      dup5\n        /* \"#utility.yul\":4556:4628   */\n      tag_189\n      jump\t// in\n    tag_310:\n        /* \"#utility.yul\":3991:4635   */\n      swap6\n      swap5\n      pop\n      pop\n      pop\n      pop\n      pop\n      jump\t// out\n        /* \"#utility.yul\":4641:4731   */\n    tag_196:\n        /* \"#utility.yul\":4675:4682   */\n      0x00\n        /* \"#utility.yul\":4718:4723   */\n      dup2\n        /* \"#utility.yul\":4711:4724   */\n      iszero\n        /* \"#utility.yul\":4704:4725   */\n      iszero\n        /* \"#utility.yul\":4693:4725   */\n      swap1\n      pop\n        /* \"#utility.yul\":4641:4731   */\n      swap2\n      swap1\n      pop\n      jump\t// out\n        /* \"#utility.yul\":4737:4846   */\n    tag_197:\n        /* \"#utility.yul\":4818:4839   */\n      tag_313\n        /* \"#utility.yul\":4833:4838   */\n      dup2\n        /* \"#utility.yul\":4818:4839   */\n      tag_196\n      jump\t// in\n    tag_313:\n        /* \"#utility.yul\":4813:4816   */\n      dup3\n        /* \"#utility.yul\":4806:4840   */\n      mstore\n        /* \"#utility.yul\":4737:4846   */\n      pop\n      pop\n      jump\t// out\n        /* \"#utility.yul\":4852:5062   */\n    tag_43:\n        /* \"#utility.yul\":4939:4943   */\n      0x00\n        /* \"#utility.yul\":4977:4979   */\n      0x20\n        /* \"#utility.yul\":4966:4975   */\n      dup3\n        /* \"#utility.yul\":4962:4980   */\n      add\n        /* \"#utility.yul\":4954:4980   */\n      swap1\n      pop\n        /* \"#utility.yul\":4990:5055   */\n      tag_315\n        /* \"#utility.yul\":5052:5053   */\n      0x00\n        /* \"#utility.yul\":5041:5050   */\n      dup4\n        /* \"#utility.yul\":5037:5054   */\n      add\n        /* \"#utility.yul\":5028:5034   */\n      dup5\n        /* \"#utility.yul\":4990:5055   */\n      tag_197\n      jump\t// in\n    tag_315:\n        /* \"#utility.yul\":4852:5062   */\n      swap3\n      swap2\n      pop\n      pop\n      jump\t// out\n        /* \"#utility.yul\":5068:5397   */\n    tag_46:\n        /* \"#utility.yul\":5127:5133   */\n      0x00\n        /* \"#utility.yul\":5176:5178   */\n      0x20\n        /* \"#utility.yul\":5164:5173   */\n      dup3\n        /* \"#utility.yul\":5155:5162   */\n      dup5\n        /* \"#utility.yul\":5151:5174   */\n      sub\n        /* \"#utility.yul\":5147:5179   */\n      slt\n        /* \"#utility.yul\":5144:5263   */\n      iszero\n      tag_317\n      jumpi\n        /* \"#utility.yul\":5182:5261   */\n      tag_318\n      tag_180\n      jump\t// in\n    tag_318:\n        /* \"#utility.yul\":5144:5263   */\n    tag_317:\n        /* \"#utility.yul\":5302:5303   */\n      0x00\n        /* \"#utility.yul\":5327:5380   */\n      tag_319\n        /* \"#utility.yul\":5372:5379   */\n      dup5\n        /* \"#utility.yul\":5363:5369   */\n      dup3\n        /* \"#utility.yul\":5352:5361   */\n      dup6\n        /* \"#utility.yul\":5348:5370   */\n      add\n        /* \"#utility.yul\":5327:5380   */\n      tag_184\n      jump\t// in\n    tag_319:\n        /* \"#utility.yul\":5317:5380   */\n      swap2\n      pop\n        /* \"#utility.yul\":5273:5390   */\n      pop\n        /* \"#utility.yul\":5068:5397   */\n      swap3\n      swap2\n      pop\n      pop\n      jump\t// out\n        /* \"#utility.yul\":5403:6055   */\n    tag_69:\n        /* \"#utility.yul\":5602:5606   */\n      0x00\n        /* \"#utility.yul\":5640:5643   */\n      0xa0\n        /* \"#utility.yul\":5629:5638   */\n      dup3\n        /* \"#utility.yul\":5625:5644   */\n      add\n        /* \"#utility.yul\":5617:5644   */\n      swap1\n      pop\n        /* \"#utility.yul\":5654:5725   */\n      tag_321\n        /* \"#utility.yul\":5722:5723   */\n      0x00\n        /* \"#utility.yul\":5711:5720   */\n      dup4\n        /* \"#utility.yul\":5707:5724   */\n      add\n        /* \"#utility.yul\":5698:5704   */\n      dup9\n        /* \"#utility.yul\":5654:5725   */\n      tag_189\n      jump\t// in\n    tag_321:\n        /* \"#utility.yul\":5735:5807   */\n      tag_322\n        /* \"#utility.yul\":5803:5805   */\n      0x20\n        /* \"#utility.yul\":5792:5801   */\n      dup4\n        /* \"#utility.yul\":5788:5806   */\n      add\n        /* \"#utility.yul\":5779:5785   */\n      dup8\n        /* \"#utility.yul\":5735:5807   */\n      tag_195\n      jump\t// in\n    tag_322:\n        /* \"#utility.yul\":5817:5889   */\n      tag_323\n        /* \"#utility.yul\":5885:5887   */\n      0x40\n        /* \"#utility.yul\":5874:5883   */\n      dup4\n        /* \"#utility.yul\":5870:5888   */\n      add\n        /* \"#utility.yul\":5861:5867   */\n      dup7\n        /* \"#utility.yul\":5817:5889   */\n      tag_189\n      jump\t// in\n    tag_323:\n        /* \"#utility.yul\":5899:5971   */\n      tag_324\n        /* \"#utility.yul\":5967:5969   */\n      0x60\n        /* \"#utility.yul\":5956:5965   */\n      dup4\n        /* \"#utility.yul\":5952:5970   */\n      add\n        /* \"#utility.yul\":5943:5949   */\n      dup6\n        /* \"#utility.yul\":5899:5971   */\n      tag_189\n      jump\t// in\n    tag_324:\n        /* \"#utility.yul\":5981:6048   */\n      tag_325\n        /* \"#utility.yul\":6043:6046   */\n      0x80\n        /* \"#utility.yul\":6032:6041   */\n      dup4\n        /* \"#utility.yul\":6028:6047   */\n      add\n        /* \"#utility.yul\":6019:6025   */\n      dup5\n        /* \"#utility.yul\":5981:6048   */\n      tag_197\n      jump\t// in\n    tag_325:\n        /* \"#utility.yul\":5403:6055   */\n      swap7\n      swap6\n      pop\n      pop\n      pop\n      pop\n      pop\n      pop\n      jump\t// out\n        /* \"#utility.yul\":6061:6175   */\n    tag_198:\n        /* \"#utility.yul\":6128:6134   */\n      0x00\n        /* \"#utility.yul\":6162:6167   */\n      dup2\n        /* \"#utility.yul\":6156:6168   */\n      mload\n        /* \"#utility.yul\":6146:6168   */\n      swap1\n      pop\n        /* \"#utility.yul\":6061:6175   */\n      swap2\n      swap1\n      pop\n      jump\t// out\n        /* \"#utility.yul\":6181:6365   */\n    tag_199:\n        /* \"#utility.yul\":6280:6291   */\n      0x00\n        /* \"#utility.yul\":6314:6320   */\n      dup3\n        /* \"#utility.yul\":6309:6312   */\n      dup3\n        /* \"#utility.yul\":6302:6321   */\n      mstore\n        /* \"#utility.yul\":6354:6358   */\n      0x20\n        /* \"#utility.yul\":6349:6352   */\n      dup3\n        /* \"#utility.yul\":6345:6359   */\n      add\n        /* \"#utility.yul\":6330:6359   */\n      swap1\n      pop\n        /* \"#utility.yul\":6181:6365   */\n      swap3\n      swap2\n      pop\n      pop\n      jump\t// out\n        /* \"#utility.yul\":6371:6503   */\n    tag_200:\n        /* \"#utility.yul\":6438:6442   */\n      0x00\n        /* \"#utility.yul\":6461:6464   */\n      dup2\n        /* \"#utility.yul\":6453:6464   */\n      swap1\n      pop\n        /* \"#utility.yul\":6491:6495   */\n      0x20\n        /* \"#utility.yul\":6486:6489   */\n      dup3\n        /* \"#utility.yul\":6482:6496   */\n      add\n        /* \"#utility.yul\":6474:6496   */\n      swap1\n      pop\n        /* \"#utility.yul\":6371:6503   */\n      swap2\n      swap1\n      pop\n      jump\t// out\n        /* \"#utility.yul\":6509:6617   */\n    tag_201:\n        /* \"#utility.yul\":6586:6610   */\n      tag_330\n        /* \"#utility.yul\":6604:6609   */\n      dup2\n        /* \"#utility.yul\":6586:6610   */\n      tag_182\n      jump\t// in\n    tag_330:\n        /* \"#utility.yul\":6581:6584   */\n      dup3\n        /* \"#utility.yul\":6574:6611   */\n      mstore\n        /* \"#utility.yul\":6509:6617   */\n      pop\n      pop\n      jump\t// out\n        /* \"#utility.yul\":6623:6802   */\n    tag_202:\n        /* \"#utility.yul\":6692:6702   */\n      0x00\n        /* \"#utility.yul\":6713:6759   */\n      tag_332\n        /* \"#utility.yul\":6755:6758   */\n      dup4\n        /* \"#utility.yul\":6747:6753   */\n      dup4\n        /* \"#utility.yul\":6713:6759   */\n      tag_201\n      jump\t// in\n    tag_332:\n        /* \"#utility.yul\":6791:6795   */\n      0x20\n        /* \"#utility.yul\":6786:6789   */\n      dup4\n        /* \"#utility.yul\":6782:6796   */\n      add\n        /* \"#utility.yul\":6768:6796   */\n      swap1\n      pop\n        /* \"#utility.yul\":6623:6802   */\n      swap3\n      swap2\n      pop\n      pop\n      jump\t// out\n        /* \"#utility.yul\":6808:6921   */\n    tag_203:\n        /* \"#utility.yul\":6878:6882   */\n      0x00\n        /* \"#utility.yul\":6910:6914   */\n      0x20\n        /* \"#utility.yul\":6905:6908   */\n      dup3\n        /* \"#utility.yul\":6901:6915   */\n      add\n        /* \"#utility.yul\":6893:6915   */\n      swap1\n      pop\n        /* \"#utility.yul\":6808:6921   */\n      swap2\n      swap1\n      pop\n      jump\t// out\n        /* \"#utility.yul\":6957:7689   */\n    tag_204:\n        /* \"#utility.yul\":7076:7079   */\n      0x00\n        /* \"#utility.yul\":7105:7159   */\n      tag_335\n        /* \"#utility.yul\":7153:7158   */\n      dup3\n        /* \"#utility.yul\":7105:7159   */\n      tag_198\n      jump\t// in\n    tag_335:\n        /* \"#utility.yul\":7175:7261   */\n      tag_336\n        /* \"#utility.yul\":7254:7260   */\n      dup2\n        /* \"#utility.yul\":7249:7252   */\n      dup6\n        /* \"#utility.yul\":7175:7261   */\n      tag_199\n      jump\t// in\n    tag_336:\n        /* \"#utility.yul\":7168:7261   */\n      swap4\n      pop\n        /* \"#utility.yul\":7285:7341   */\n      tag_337\n        /* \"#utility.yul\":7335:7340   */\n      dup4\n        /* \"#utility.yul\":7285:7341   */\n      tag_200\n      jump\t// in\n    tag_337:\n        /* \"#utility.yul\":7364:7371   */\n      dup1\n        /* \"#utility.yul\":7395:7396   */\n      0x00\n        /* \"#utility.yul\":7380:7664   */\n    tag_338:\n        /* \"#utility.yul\":7405:7411   */\n      dup4\n        /* \"#utility.yul\":7402:7403   */\n      dup2\n        /* \"#utility.yul\":7399:7412   */\n      lt\n        /* \"#utility.yul\":7380:7664   */\n      iszero\n      tag_340\n      jumpi\n        /* \"#utility.yul\":7481:7487   */\n      dup2\n        /* \"#utility.yul\":7475:7488   */\n      mload\n        /* \"#utility.yul\":7508:7571   */\n      tag_341\n        /* \"#utility.yul\":7567:7570   */\n      dup9\n        /* \"#utility.yul\":7552:7565   */\n      dup3\n        /* \"#utility.yul\":7508:7571   */\n      tag_202\n      jump\t// in\n    tag_341:\n        /* \"#utility.yul\":7501:7571   */\n      swap8\n      pop\n        /* \"#utility.yul\":7594:7654   */\n      tag_342\n        /* \"#utility.yul\":7647:7653   */\n      dup4\n        /* \"#utility.yul\":7594:7654   */\n      tag_203\n      jump\t// in\n    tag_342:\n        /* \"#utility.yul\":7584:7654   */\n      swap3\n      pop\n        /* \"#utility.yul\":7440:7664   */\n      pop\n        /* \"#utility.yul\":7427:7428   */\n      0x01\n        /* \"#utility.yul\":7424:7425   */\n      dup2\n        /* \"#utility.yul\":7420:7429   */\n      add\n        /* \"#utility.yul\":7415:7429   */\n      swap1\n      pop\n        /* \"#utility.yul\":7380:7664   */\n      jump(tag_338)\n    tag_340:\n        /* \"#utility.yul\":7384:7398   */\n      pop\n        /* \"#utility.yul\":7680:7683   */\n      dup6\n        /* \"#utility.yul\":7673:7683   */\n      swap4\n      pop\n        /* \"#utility.yul\":7081:7689   */\n      pop\n      pop\n      pop\n        /* \"#utility.yul\":6957:7689   */\n      swap3\n      swap2\n      pop\n      pop\n      jump\t// out\n        /* \"#utility.yul\":7695:8068   */\n    tag_74:\n        /* \"#utility.yul\":7838:7842   */\n      0x00\n        /* \"#utility.yul\":7876:7878   */\n      0x20\n        /* \"#utility.yul\":7865:7874   */\n      dup3\n        /* \"#utility.yul\":7861:7879   */\n      add\n        /* \"#utility.yul\":7853:7879   */\n      swap1\n      pop\n        /* \"#utility.yul\":7925:7934   */\n      dup2\n        /* \"#utility.yul\":7919:7923   */\n      dup2\n        /* \"#utility.yul\":7915:7935   */\n      sub\n        /* \"#utility.yul\":7911:7912   */\n      0x00\n        /* \"#utility.yul\":7900:7909   */\n      dup4\n        /* \"#utility.yul\":7896:7913   */\n      add\n        /* \"#utility.yul\":7889:7936   */\n      mstore\n        /* \"#utility.yul\":7953:8061   */\n      tag_344\n        /* \"#utility.yul\":8056:8060   */\n      dup2\n        /* \"#utility.yul\":8047:8053   */\n      dup5\n        /* \"#utility.yul\":7953:8061   */\n      tag_204\n      jump\t// in\n    tag_344:\n        /* \"#utility.yul\":7945:8061   */\n      swap1\n      pop\n        /* \"#utility.yul\":7695:8068   */\n      swap3\n      swap2\n      pop\n      pop\n      jump\t// out\n        /* \"#utility.yul\":8074:8191   */\n    tag_205:\n        /* \"#utility.yul\":8183:8184   */\n      0x00\n        /* \"#utility.yul\":8180:8181   */\n      dup1\n        /* \"#utility.yul\":8173:8185   */\n      revert\n        /* \"#utility.yul\":8197:8377   */\n    tag_134:\n        /* \"#utility.yul\":8245:8322   */\n      0x4e487b7100000000000000000000000000000000000000000000000000000000\n        /* \"#utility.yul\":8242:8243   */\n      0x00\n        /* \"#utility.yul\":8235:8323   */\n      mstore\n        /* \"#utility.yul\":8342:8346   */\n      0x41\n        /* \"#utility.yul\":8339:8340   */\n      0x04\n        /* \"#utility.yul\":8332:8347   */\n      mstore\n        /* \"#utility.yul\":8366:8370   */\n      0x24\n        /* \"#utility.yul\":8363:8364   */\n      0x00\n        /* \"#utility.yul\":8356:8371   */\n      revert\n        /* \"#utility.yul\":8383:8664   */\n    tag_206:\n        /* \"#utility.yul\":8466:8493   */\n      tag_348\n        /* \"#utility.yul\":8488:8492   */\n      dup3\n        /* \"#utility.yul\":8466:8493   */\n      tag_193\n      jump\t// in\n    tag_348:\n        /* \"#utility.yul\":8458:8464   */\n      dup2\n        /* \"#utility.yul\":8454:8494   */\n      add\n        /* \"#utility.yul\":8596:8602   */\n      dup2\n        /* \"#utility.yul\":8584:8594   */\n      dup2\n        /* \"#utility.yul\":8581:8603   */\n      lt\n        /* \"#utility.yul\":8560:8578   */\n      0xffffffffffffffff\n        /* \"#utility.yul\":8548:8558   */\n      dup3\n        /* \"#utility.yul\":8545:8579   */\n      gt\n        /* \"#utility.yul\":8542:8604   */\n      or\n        /* \"#utility.yul\":8539:8627   */\n      iszero\n      tag_349\n      jumpi\n        /* \"#utility.yul\":8607:8625   */\n      tag_350\n      tag_134\n      jump\t// in\n    tag_350:\n        /* \"#utility.yul\":8539:8627   */\n    tag_349:\n        /* \"#utility.yul\":8647:8657   */\n      dup1\n        /* \"#utility.yul\":8643:8645   */\n      0x40\n        /* \"#utility.yul\":8636:8658   */\n      mstore\n        /* \"#utility.yul\":8426:8664   */\n      pop\n        /* \"#utility.yul\":8383:8664   */\n      pop\n      pop\n      jump\t// out\n        /* \"#utility.yul\":8670:8799   */\n    tag_207:\n        /* \"#utility.yul\":8704:8710   */\n      0x00\n        /* \"#utility.yul\":8731:8751   */\n      tag_352\n      tag_179\n      jump\t// in\n    tag_352:\n        /* \"#utility.yul\":8721:8751   */\n      swap1\n      pop\n        /* \"#utility.yul\":8760:8793   */\n      tag_353\n        /* \"#utility.yul\":8788:8792   */\n      dup3\n        /* \"#utility.yul\":8780:8786   */\n      dup3\n        /* \"#utility.yul\":8760:8793   */\n      tag_206\n      jump\t// in\n    tag_353:\n        /* \"#utility.yul\":8670:8799   */\n      swap2\n      swap1\n      pop\n      jump\t// out\n        /* \"#utility.yul\":8805:9126   */\n    tag_208:\n        /* \"#utility.yul\":8892:8896   */\n      0x00\n        /* \"#utility.yul\":8982:9000   */\n      0xffffffffffffffff\n        /* \"#utility.yul\":8974:8980   */\n      dup3\n        /* \"#utility.yul\":8971:9001   */\n      gt\n        /* \"#utility.yul\":8968:9024   */\n      iszero\n      tag_355\n      jumpi\n        /* \"#utility.yul\":9004:9022   */\n      tag_356\n      tag_134\n      jump\t// in\n    tag_356:\n        /* \"#utility.yul\":8968:9024   */\n    tag_355:\n        /* \"#utility.yul\":9054:9058   */\n      0x20\n        /* \"#utility.yul\":9046:9052   */\n      dup3\n        /* \"#utility.yul\":9042:9059   */\n      mul\n        /* \"#utility.yul\":9034:9059   */\n      swap1\n      pop\n        /* \"#utility.yul\":9114:9118   */\n      0x20\n        /* \"#utility.yul\":9108:9112   */\n      dup2\n        /* \"#utility.yul\":9104:9119   */\n      add\n        /* \"#utility.yul\":9096:9119   */\n      swap1\n      pop\n        /* \"#utility.yul\":8805:9126   */\n      swap2\n      swap1\n      pop\n      jump\t// out\n        /* \"#utility.yul\":9132:9249   */\n    tag_209:\n        /* \"#utility.yul\":9241:9242   */\n      0x00\n        /* \"#utility.yul\":9238:9239   */\n      dup1\n        /* \"#utility.yul\":9231:9243   */\n      revert\n        /* \"#utility.yul\":9255:9372   */\n    tag_210:\n        /* \"#utility.yul\":9364:9365   */\n      0x00\n        /* \"#utility.yul\":9361:9362   */\n      dup1\n        /* \"#utility.yul\":9354:9366   */\n      revert\n        /* \"#utility.yul\":9378:9686   */\n    tag_211:\n        /* \"#utility.yul\":9440:9444   */\n      0x00\n        /* \"#utility.yul\":9530:9548   */\n      0xffffffffffffffff\n        /* \"#utility.yul\":9522:9528   */\n      dup3\n        /* \"#utility.yul\":9519:9549   */\n      gt\n        /* \"#utility.yul\":9516:9572   */\n      iszero\n      tag_360\n      jumpi\n        /* \"#utility.yul\":9552:9570   */\n      tag_361\n      tag_134\n      jump\t// in\n    tag_361:\n        /* \"#utility.yul\":9516:9572   */\n    tag_360:\n        /* \"#utility.yul\":9590:9619   */\n      tag_362\n        /* \"#utility.yul\":9612:9618   */\n      dup3\n        /* \"#utility.yul\":9590:9619   */\n      tag_193\n      jump\t// in\n    tag_362:\n        /* \"#utility.yul\":9582:9619   */\n      swap1\n      pop\n        /* \"#utility.yul\":9674:9678   */\n      0x20\n        /* \"#utility.yul\":9668:9672   */\n      dup2\n        /* \"#utility.yul\":9664:9679   */\n      add\n        /* \"#utility.yul\":9656:9679   */\n      swap1\n      pop\n        /* \"#utility.yul\":9378:9686   */\n      swap2\n      swap1\n      pop\n      jump\t// out\n        /* \"#utility.yul\":9692:9838   */\n    tag_212:\n        /* \"#utility.yul\":9789:9795   */\n      dup3\n        /* \"#utility.yul\":9784:9787   */\n      dup2\n        /* \"#utility.yul\":9779:9782   */\n      dup4\n        /* \"#utility.yul\":9766:9796   */\n      calldatacopy\n        /* \"#utility.yul\":9830:9831   */\n      0x00\n        /* \"#utility.yul\":9821:9827   */\n      dup4\n        /* \"#utility.yul\":9816:9819   */\n      dup4\n        /* \"#utility.yul\":9812:9828   */\n      add\n        /* \"#utility.yul\":9805:9832   */\n      mstore\n        /* \"#utility.yul\":9692:9838   */\n      pop\n      pop\n      pop\n      jump\t// out\n        /* \"#utility.yul\":9844:10269   */\n    tag_213:\n        /* \"#utility.yul\":9922:9927   */\n      0x00\n        /* \"#utility.yul\":9947:10013   */\n      tag_365\n        /* \"#utility.yul\":9963:10012   */\n      tag_366\n        /* \"#utility.yul\":10005:10011   */\n      dup5\n        /* \"#utility.yul\":9963:10012   */\n      tag_211\n      jump\t// in\n    tag_366:\n        /* \"#utility.yul\":9947:10013   */\n      tag_207\n      jump\t// in\n    tag_365:\n        /* \"#utility.yul\":9938:10013   */\n      swap1\n      pop\n        /* \"#utility.yul\":10036:10042   */\n      dup3\n        /* \"#utility.yul\":10029:10034   */\n      dup2\n        /* \"#utility.yul\":10022:10043   */\n      mstore\n        /* \"#utility.yul\":10074:10078   */\n      0x20\n        /* \"#utility.yul\":10067:10072   */\n      dup2\n        /* \"#utility.yul\":10063:10079   */\n      add\n        /* \"#utility.yul\":10112:10115   */\n      dup5\n        /* \"#utility.yul\":10103:10109   */\n      dup5\n        /* \"#utility.yul\":10098:10101   */\n      dup5\n        /* \"#utility.yul\":10094:10110   */\n      add\n        /* \"#utility.yul\":10091:10116   */\n      gt\n        /* \"#utility.yul\":10088:10200   */\n      iszero\n      tag_367\n      jumpi\n        /* \"#utility.yul\":10119:10198   */\n      tag_368\n      tag_210\n      jump\t// in\n    tag_368:\n        /* \"#utility.yul\":10088:10200   */\n    tag_367:\n        /* \"#utility.yul\":10209:10263   */\n      tag_369\n        /* \"#utility.yul\":10256:10262   */\n      dup5\n        /* \"#utility.yul\":10251:10254   */\n      dup3\n        /* \"#utility.yul\":10246:10249   */\n      dup6\n        /* \"#utility.yul\":10209:10263   */\n      tag_212\n      jump\t// in\n    tag_369:\n        /* \"#utility.yul\":9928:10269   */\n      pop\n        /* \"#utility.yul\":9844:10269   */\n      swap4\n      swap3\n      pop\n      pop\n      pop\n      jump\t// out\n        /* \"#utility.yul\":10289:10629   */\n    tag_214:\n        /* \"#utility.yul\":10345:10350   */\n      0x00\n        /* \"#utility.yul\":10394:10397   */\n      dup3\n        /* \"#utility.yul\":10387:10391   */\n      0x1f\n        /* \"#utility.yul\":10379:10385   */\n      dup4\n        /* \"#utility.yul\":10375:10392   */\n      add\n        /* \"#utility.yul\":10371:10398   */\n      slt\n        /* \"#utility.yul\":10361:10483   */\n      tag_371\n      jumpi\n        /* \"#utility.yul\":10402:10481   */\n      tag_372\n      tag_205\n      jump\t// in\n    tag_372:\n        /* \"#utility.yul\":10361:10483   */\n    tag_371:\n        /* \"#utility.yul\":10519:10525   */\n      dup2\n        /* \"#utility.yul\":10506:10526   */\n      calldataload\n        /* \"#utility.yul\":10544:10623   */\n      tag_373\n        /* \"#utility.yul\":10619:10622   */\n      dup5\n        /* \"#utility.yul\":10611:10617   */\n      dup3\n        /* \"#utility.yul\":10604:10608   */\n      0x20\n        /* \"#utility.yul\":10596:10602   */\n      dup7\n        /* \"#utility.yul\":10592:10609   */\n      add\n        /* \"#utility.yul\":10544:10623   */\n      tag_213\n      jump\t// in\n    tag_373:\n        /* \"#utility.yul\":10535:10623   */\n      swap2\n      pop\n        /* \"#utility.yul\":10351:10629   */\n      pop\n        /* \"#utility.yul\":10289:10629   */\n      swap3\n      swap2\n      pop\n      pop\n      jump\t// out\n        /* \"#utility.yul\":10651:11596   */\n    tag_215:\n        /* \"#utility.yul\":10757:10762   */\n      0x00\n        /* \"#utility.yul\":10782:10873   */\n      tag_375\n        /* \"#utility.yul\":10798:10872   */\n      tag_376\n        /* \"#utility.yul\":10865:10871   */\n      dup5\n        /* \"#utility.yul\":10798:10872   */\n      tag_208\n      jump\t// in\n    tag_376:\n        /* \"#utility.yul\":10782:10873   */\n      tag_207\n      jump\t// in\n    tag_375:\n        /* \"#utility.yul\":10773:10873   */\n      swap1\n      pop\n        /* \"#utility.yul\":10893:10898   */\n      dup1\n        /* \"#utility.yul\":10922:10928   */\n      dup4\n        /* \"#utility.yul\":10915:10920   */\n      dup3\n        /* \"#utility.yul\":10908:10929   */\n      mstore\n        /* \"#utility.yul\":10956:10960   */\n      0x20\n        /* \"#utility.yul\":10949:10954   */\n      dup3\n        /* \"#utility.yul\":10945:10961   */\n      add\n        /* \"#utility.yul\":10938:10961   */\n      swap1\n      pop\n        /* \"#utility.yul\":11009:11013   */\n      0x20\n        /* \"#utility.yul\":11001:11007   */\n      dup5\n        /* \"#utility.yul\":10997:11014   */\n      mul\n        /* \"#utility.yul\":10989:10995   */\n      dup4\n        /* \"#utility.yul\":10985:11015   */\n      add\n        /* \"#utility.yul\":11038:11041   */\n      dup6\n        /* \"#utility.yul\":11030:11036   */\n      dup2\n        /* \"#utility.yul\":11027:11042   */\n      gt\n        /* \"#utility.yul\":11024:11146   */\n      iszero\n      tag_377\n      jumpi\n        /* \"#utility.yul\":11057:11136   */\n      tag_378\n      tag_209\n      jump\t// in\n    tag_378:\n        /* \"#utility.yul\":11024:11146   */\n    tag_377:\n        /* \"#utility.yul\":11172:11178   */\n      dup4\n        /* \"#utility.yul\":11155:11590   */\n    tag_379:\n        /* \"#utility.yul\":11189:11195   */\n      dup2\n        /* \"#utility.yul\":11184:11187   */\n      dup2\n        /* \"#utility.yul\":11181:11196   */\n      lt\n        /* \"#utility.yul\":11155:11590   */\n      iszero\n      tag_381\n      jumpi\n        /* \"#utility.yul\":11278:11281   */\n      dup1\n        /* \"#utility.yul\":11265:11282   */\n      calldataload\n        /* \"#utility.yul\":11314:11332   */\n      0xffffffffffffffff\n        /* \"#utility.yul\":11301:11312   */\n      dup2\n        /* \"#utility.yul\":11298:11333   */\n      gt\n        /* \"#utility.yul\":11295:11417   */\n      iszero\n      tag_382\n      jumpi\n        /* \"#utility.yul\":11336:11415   */\n      tag_383\n      tag_205\n      jump\t// in\n    tag_383:\n        /* \"#utility.yul\":11295:11417   */\n    tag_382:\n        /* \"#utility.yul\":11460:11471   */\n      dup1\n        /* \"#utility.yul\":11452:11458   */\n      dup7\n        /* \"#utility.yul\":11448:11472   */\n      add\n        /* \"#utility.yul\":11498:11545   */\n      tag_384\n        /* \"#utility.yul\":11541:11544   */\n      dup10\n        /* \"#utility.yul\":11529:11539   */\n      dup3\n        /* \"#utility.yul\":11498:11545   */\n      tag_214\n      jump\t// in\n    tag_384:\n        /* \"#utility.yul\":11493:11496   */\n      dup6\n        /* \"#utility.yul\":11486:11546   */\n      mstore\n        /* \"#utility.yul\":11575:11579   */\n      0x20\n        /* \"#utility.yul\":11570:11573   */\n      dup6\n        /* \"#utility.yul\":11566:11580   */\n      add\n        /* \"#utility.yul\":11559:11580   */\n      swap5\n      pop\n        /* \"#utility.yul\":11231:11590   */\n      pop\n      pop\n        /* \"#utility.yul\":11215:11219   */\n      0x20\n        /* \"#utility.yul\":11210:11213   */\n      dup2\n        /* \"#utility.yul\":11206:11220   */\n      add\n        /* \"#utility.yul\":11199:11220   */\n      swap1\n      pop\n        /* \"#utility.yul\":11155:11590   */\n      jump(tag_379)\n    tag_381:\n        /* \"#utility.yul\":11159:11180   */\n      pop\n        /* \"#utility.yul\":10763:11596   */\n      pop\n      pop\n        /* \"#utility.yul\":10651:11596   */\n      swap4\n      swap3\n      pop\n      pop\n      pop\n      jump\t// out\n        /* \"#utility.yul\":11618:12008   */\n    tag_216:\n        /* \"#utility.yul\":11699:11704   */\n      0x00\n        /* \"#utility.yul\":11748:11751   */\n      dup3\n        /* \"#utility.yul\":11741:11745   */\n      0x1f\n        /* \"#utility.yul\":11733:11739   */\n      dup4\n        /* \"#utility.yul\":11729:11746   */\n      add\n        /* \"#utility.yul\":11725:11752   */\n      slt\n        /* \"#utility.yul\":11715:11837   */\n      tag_386\n      jumpi\n        /* \"#utility.yul\":11756:11835   */\n      tag_387\n      tag_205\n      jump\t// in\n    tag_387:\n        /* \"#utility.yul\":11715:11837   */\n    tag_386:\n        /* \"#utility.yul\":11873:11879   */\n      dup2\n        /* \"#utility.yul\":11860:11880   */\n      calldataload\n        /* \"#utility.yul\":11898:12002   */\n      tag_388\n        /* \"#utility.yul\":11998:12001   */\n      dup5\n        /* \"#utility.yul\":11990:11996   */\n      dup3\n        /* \"#utility.yul\":11983:11987   */\n      0x20\n        /* \"#utility.yul\":11975:11981   */\n      dup7\n        /* \"#utility.yul\":11971:11988   */\n      add\n        /* \"#utility.yul\":11898:12002   */\n      tag_215\n      jump\t// in\n    tag_388:\n        /* \"#utility.yul\":11889:12002   */\n      swap2\n      pop\n        /* \"#utility.yul\":11705:12008   */\n      pop\n        /* \"#utility.yul\":11618:12008   */\n      swap3\n      swap2\n      pop\n      pop\n      jump\t// out\n        /* \"#utility.yul\":12014:12863   */\n    tag_80:\n        /* \"#utility.yul\":12126:12132   */\n      0x00\n        /* \"#utility.yul\":12134:12140   */\n      dup1\n        /* \"#utility.yul\":12142:12148   */\n      0x00\n        /* \"#utility.yul\":12191:12193   */\n      0x60\n        /* \"#utility.yul\":12179:12188   */\n      dup5\n        /* \"#utility.yul\":12170:12177   */\n      dup7\n        /* \"#utility.yul\":12166:12189   */\n      sub\n        /* \"#utility.yul\":12162:12194   */\n      slt\n        /* \"#utility.yul\":12159:12278   */\n      iszero\n      tag_390\n      jumpi\n        /* \"#utility.yul\":12197:12276   */\n      tag_391\n      tag_180\n      jump\t// in\n    tag_391:\n        /* \"#utility.yul\":12159:12278   */\n    tag_390:\n        /* \"#utility.yul\":12317:12318   */\n      0x00\n        /* \"#utility.yul\":12342:12395   */\n      tag_392\n        /* \"#utility.yul\":12387:12394   */\n      dup7\n        /* \"#utility.yul\":12378:12384   */\n      dup3\n        /* \"#utility.yul\":12367:12376   */\n      dup8\n        /* \"#utility.yul\":12363:12385   */\n      add\n        /* \"#utility.yul\":12342:12395   */\n      tag_184\n      jump\t// in\n    tag_392:\n        /* \"#utility.yul\":12332:12395   */\n      swap4\n      pop\n        /* \"#utility.yul\":12288:12405   */\n      pop\n        /* \"#utility.yul\":12444:12446   */\n      0x20\n        /* \"#utility.yul\":12470:12523   */\n      tag_393\n        /* \"#utility.yul\":12515:12522   */\n      dup7\n        /* \"#utility.yul\":12506:12512   */\n      dup3\n        /* \"#utility.yul\":12495:12504   */\n      dup8\n        /* \"#utility.yul\":12491:12513   */\n      add\n        /* \"#utility.yul\":12470:12523   */\n      tag_184\n      jump\t// in\n    tag_393:\n        /* \"#utility.yul\":12460:12523   */\n      swap3\n      pop\n        /* \"#utility.yul\":12415:12533   */\n      pop\n        /* \"#utility.yul\":12600:12602   */\n      0x40\n        /* \"#utility.yul\":12589:12598   */\n      dup5\n        /* \"#utility.yul\":12585:12603   */\n      add\n        /* \"#utility.yul\":12572:12604   */\n      calldataload\n        /* \"#utility.yul\":12631:12649   */\n      0xffffffffffffffff\n        /* \"#utility.yul\":12623:12629   */\n      dup2\n        /* \"#utility.yul\":12620:12650   */\n      gt\n        /* \"#utility.yul\":12617:12734   */\n      iszero\n      tag_394\n      jumpi\n        /* \"#utility.yul\":12653:12732   */\n      tag_395\n      tag_181\n      jump\t// in\n    tag_395:\n        /* \"#utility.yul\":12617:12734   */\n    tag_394:\n        /* \"#utility.yul\":12758:12846   */\n      tag_396\n        /* \"#utility.yul\":12838:12845   */\n      dup7\n        /* \"#utility.yul\":12829:12835   */\n      dup3\n        /* \"#utility.yul\":12818:12827   */\n      dup8\n        /* \"#utility.yul\":12814:12836   */\n      add\n        /* \"#utility.yul\":12758:12846   */\n      tag_216\n      jump\t// in\n    tag_396:\n        /* \"#utility.yul\":12748:12846   */\n      swap2\n      pop\n        /* \"#utility.yul\":12543:12856   */\n      pop\n        /* \"#utility.yul\":12014:12863   */\n      swap3\n      pop\n      swap3\n      pop\n      swap3\n      jump\t// out\n        /* \"#utility.yul\":12869:13049   */\n    tag_217:\n        /* \"#utility.yul\":12917:12994   */\n      0x4e487b7100000000000000000000000000000000000000000000000000000000\n        /* \"#utility.yul\":12914:12915   */\n      0x00\n        /* \"#utility.yul\":12907:12995   */\n      mstore\n        /* \"#utility.yul\":13014:13018   */\n      0x22\n        /* \"#utility.yul\":13011:13012   */\n      0x04\n        /* \"#utility.yul\":13004:13019   */\n      mstore\n        /* \"#utility.yul\":13038:13042   */\n      0x24\n        /* \"#utility.yul\":13035:13036   */\n      0x00\n        /* \"#utility.yul\":13028:13043   */\n      revert\n        /* \"#utility.yul\":13055:13375   */\n    tag_91:\n        /* \"#utility.yul\":13099:13105   */\n      0x00\n        /* \"#utility.yul\":13136:13137   */\n      0x02\n        /* \"#utility.yul\":13130:13134   */\n      dup3\n        /* \"#utility.yul\":13126:13138   */\n      div\n        /* \"#utility.yul\":13116:13138   */\n      swap1\n      pop\n        /* \"#utility.yul\":13183:13184   */\n      0x01\n        /* \"#utility.yul\":13177:13181   */\n      dup3\n        /* \"#utility.yul\":13173:13185   */\n      and\n        /* \"#utility.yul\":13204:13222   */\n      dup1\n        /* \"#utility.yul\":13194:13275   */\n      tag_399\n      jumpi\n        /* \"#utility.yul\":13260:13264   */\n      0x7f\n        /* \"#utility.yul\":13252:13258   */\n      dup3\n        /* \"#utility.yul\":13248:13265   */\n      and\n        /* \"#utility.yul\":13238:13265   */\n      swap2\n      pop\n        /* \"#utility.yul\":13194:13275   */\n    tag_399:\n        /* \"#utility.yul\":13322:13324   */\n      0x20\n        /* \"#utility.yul\":13314:13320   */\n      dup3\n        /* \"#utility.yul\":13311:13325   */\n      lt\n        /* \"#utility.yul\":13291:13309   */\n      dup2\n        /* \"#utility.yul\":13288:13326   */\n      sub\n        /* \"#utility.yul\":13285:13369   */\n      tag_400\n      jumpi\n        /* \"#utility.yul\":13341:13359   */\n      tag_401\n      tag_217\n      jump\t// in\n    tag_401:\n        /* \"#utility.yul\":13285:13369   */\n    tag_400:\n        /* \"#utility.yul\":13106:13375   */\n      pop\n        /* \"#utility.yul\":13055:13375   */\n      swap2\n      swap1\n      pop\n      jump\t// out\n        /* \"#utility.yul\":13381:13561   */\n    tag_99:\n        /* \"#utility.yul\":13429:13506   */\n      0x4e487b7100000000000000000000000000000000000000000000000000000000\n        /* \"#utility.yul\":13426:13427   */\n      0x00\n        /* \"#utility.yul\":13419:13507   */\n      mstore\n        /* \"#utility.yul\":13526:13530   */\n      0x32\n        /* \"#utility.yul\":13523:13524   */\n      0x04\n        /* \"#utility.yul\":13516:13531   */\n      mstore\n        /* \"#utility.yul\":13550:13554   */\n      0x24\n        /* \"#utility.yul\":13547:13548   */\n      0x00\n        /* \"#utility.yul\":13540:13555   */\n      revert\n        /* \"#utility.yul\":13567:13730   */\n    tag_218:\n        /* \"#utility.yul\":13707:13722   */\n      0x416c726561647920766f74656400000000000000000000000000000000000000\n        /* \"#utility.yul\":13703:13704   */\n      0x00\n        /* \"#utility.yul\":13695:13701   */\n      dup3\n        /* \"#utility.yul\":13691:13705   */\n      add\n        /* \"#utility.yul\":13684:13723   */\n      mstore\n        /* \"#utility.yul\":13567:13730   */\n      pop\n      jump\t// out\n        /* \"#utility.yul\":13736:14102   */\n    tag_219:\n        /* \"#utility.yul\":13878:13881   */\n      0x00\n        /* \"#utility.yul\":13899:13966   */\n      tag_405\n        /* \"#utility.yul\":13963:13965   */\n      0x0d\n        /* \"#utility.yul\":13958:13961   */\n      dup4\n        /* \"#utility.yul\":13899:13966   */\n      tag_191\n      jump\t// in\n    tag_405:\n        /* \"#utility.yul\":13892:13966   */\n      swap2\n      pop\n        /* \"#utility.yul\":13975:14068   */\n      tag_406\n        /* \"#utility.yul\":14064:14067   */\n      dup3\n        /* \"#utility.yul\":13975:14068   */\n      tag_218\n      jump\t// in\n    tag_406:\n        /* \"#utility.yul\":14093:14095   */\n      0x20\n        /* \"#utility.yul\":14088:14091   */\n      dup3\n        /* \"#utility.yul\":14084:14096   */\n      add\n        /* \"#utility.yul\":14077:14096   */\n      swap1\n      pop\n        /* \"#utility.yul\":13736:14102   */\n      swap2\n      swap1\n      pop\n      jump\t// out\n        /* \"#utility.yul\":14108:14527   */\n    tag_103:\n        /* \"#utility.yul\":14274:14278   */\n      0x00\n        /* \"#utility.yul\":14312:14314   */\n      0x20\n        /* \"#utility.yul\":14301:14310   */\n      dup3\n        /* \"#utility.yul\":14297:14315   */\n      add\n        /* \"#utility.yul\":14289:14315   */\n      swap1\n      pop\n        /* \"#utility.yul\":14361:14370   */\n      dup2\n        /* \"#utility.yul\":14355:14359   */\n      dup2\n        /* \"#utility.yul\":14351:14371   */\n      sub\n        /* \"#utility.yul\":14347:14348   */\n      0x00\n        /* \"#utility.yul\":14336:14345   */\n      dup4\n        /* \"#utility.yul\":14332:14349   */\n      add\n        /* \"#utility.yul\":14325:14372   */\n      mstore\n        /* \"#utility.yul\":14389:14520   */\n      tag_408\n        /* \"#utility.yul\":14515:14519   */\n      dup2\n        /* \"#utility.yul\":14389:14520   */\n      tag_219\n      jump\t// in\n    tag_408:\n        /* \"#utility.yul\":14381:14520   */\n      swap1\n      pop\n        /* \"#utility.yul\":14108:14527   */\n      swap2\n      swap1\n      pop\n      jump\t// out\n        /* \"#utility.yul\":14533:14697   */\n    tag_220:\n        /* \"#utility.yul\":14673:14689   */\n      0x506f6c6c20697320636c6f736564000000000000000000000000000000000000\n        /* \"#utility.yul\":14669:14670   */\n      0x00\n        /* \"#utility.yul\":14661:14667   */\n      dup3\n        /* \"#utility.yul\":14657:14671   */\n      add\n        /* \"#utility.yul\":14650:14690   */\n      mstore\n        /* \"#utility.yul\":14533:14697   */\n      pop\n      jump\t// out\n        /* \"#utility.yul\":14703:15069   */\n    tag_221:\n        /* \"#utility.yul\":14845:14848   */\n      0x00\n        /* \"#utility.yul\":14866:14933   */\n      tag_411\n        /* \"#utility.yul\":14930:14932   */\n      0x0e\n        /* \"#utility.yul\":14925:14928   */\n      dup4\n        /* \"#utility.yul\":14866:14933   */\n      tag_191\n      jump\t// in\n    tag_411:\n        /* \"#utility.yul\":14859:14933   */\n      swap2\n      pop\n        /* \"#utility.yul\":14942:15035   */\n      tag_412\n        /* \"#utility.yul\":15031:15034   */\n      dup3\n        /* \"#utility.yul\":14942:15035   */\n      tag_220\n      jump\t// in\n    tag_412:\n        /* \"#utility.yul\":15060:15062   */\n      0x20\n        /* \"#utility.yul\":15055:15058   */\n      dup3\n        /* \"#utility.yul\":15051:15063   */\n      add\n        /* \"#utility.yul\":15044:15063   */\n      swap1\n      pop\n        /* \"#utility.yul\":14703:15069   */\n      swap2\n      swap1\n      pop\n      jump\t// out\n        /* \"#utility.yul\":15075:15494   */\n    tag_106:\n        /* \"#utility.yul\":15241:15245   */\n      0x00\n        /* \"#utility.yul\":15279:15281   */\n      0x20\n        /* \"#utility.yul\":15268:15277   */\n      dup3\n        /* \"#utility.yul\":15264:15282   */\n      add\n        /* \"#utility.yul\":15256:15282   */\n      swap1\n      pop\n        /* \"#utility.yul\":15328:15337   */\n      dup2\n        /* \"#utility.yul\":15322:15326   */\n      dup2\n        /* \"#utility.yul\":15318:15338   */\n      sub\n        /* \"#utility.yul\":15314:15315   */\n      0x00\n        /* \"#utility.yul\":15303:15312   */\n      dup4\n        /* \"#utility.yul\":15299:15316   */\n      add\n        /* \"#utility.yul\":15292:15339   */\n      mstore\n        /* \"#utility.yul\":15356:15487   */\n      tag_414\n        /* \"#utility.yul\":15482:15486   */\n      dup2\n        /* \"#utility.yul\":15356:15487   */\n      tag_221\n      jump\t// in\n    tag_414:\n        /* \"#utility.yul\":15348:15487   */\n      swap1\n      pop\n        /* \"#utility.yul\":15075:15494   */\n      swap2\n      swap1\n      pop\n      jump\t// out\n        /* \"#utility.yul\":15500:15668   */\n    tag_222:\n        /* \"#utility.yul\":15640:15660   */\n      0x506f6c6c206973206e6f74206163746976650000000000000000000000000000\n        /* \"#utility.yul\":15636:15637   */\n      0x00\n        /* \"#utility.yul\":15628:15634   */\n      dup3\n        /* \"#utility.yul\":15624:15638   */\n      add\n        /* \"#utility.yul\":15617:15661   */\n      mstore\n        /* \"#utility.yul\":15500:15668   */\n      pop\n      jump\t// out\n        /* \"#utility.yul\":15674:16040   */\n    tag_223:\n        /* \"#utility.yul\":15816:15819   */\n      0x00\n        /* \"#utility.yul\":15837:15904   */\n      tag_417\n        /* \"#utility.yul\":15901:15903   */\n      0x12\n        /* \"#utility.yul\":15896:15899   */\n      dup4\n        /* \"#utility.yul\":15837:15904   */\n      tag_191\n      jump\t// in\n    tag_417:\n        /* \"#utility.yul\":15830:15904   */\n      swap2\n      pop\n        /* \"#utility.yul\":15913:16006   */\n      tag_418\n        /* \"#utility.yul\":16002:16005   */\n      dup3\n        /* \"#utility.yul\":15913:16006   */\n      tag_222\n      jump\t// in\n    tag_418:\n        /* \"#utility.yul\":16031:16033   */\n      0x20\n        /* \"#utility.yul\":16026:16029   */\n      dup3\n        /* \"#utility.yul\":16022:16034   */\n      add\n        /* \"#utility.yul\":16015:16034   */\n      swap1\n      pop\n        /* \"#utility.yul\":15674:16040   */\n      swap2\n      swap1\n      pop\n      jump\t// out\n        /* \"#utility.yul\":16046:16465   */\n    tag_110:\n        /* \"#utility.yul\":16212:16216   */\n      0x00\n        /* \"#utility.yul\":16250:16252   */\n      0x20\n        /* \"#utility.yul\":16239:16248   */\n      dup3\n        /* \"#utility.yul\":16235:16253   */\n      add\n        /* \"#utility.yul\":16227:16253   */\n      swap1\n      pop\n        /* \"#utility.yul\":16299:16308   */\n      dup2\n        /* \"#utility.yul\":16293:16297   */\n      dup2\n        /* \"#utility.yul\":16289:16309   */\n      sub\n        /* \"#utility.yul\":16285:16286   */\n      0x00\n        /* \"#utility.yul\":16274:16283   */\n      dup4\n        /* \"#utility.yul\":16270:16287   */\n      add\n        /* \"#utility.yul\":16263:16310   */\n      mstore\n        /* \"#utility.yul\":16327:16458   */\n      tag_420\n        /* \"#utility.yul\":16453:16457   */\n      dup2\n        /* \"#utility.yul\":16327:16458   */\n      tag_223\n      jump\t// in\n    tag_420:\n        /* \"#utility.yul\":16319:16458   */\n      swap1\n      pop\n        /* \"#utility.yul\":16046:16465   */\n      swap2\n      swap1\n      pop\n      jump\t// out\n        /* \"#utility.yul\":16471:16635   */\n    tag_224:\n        /* \"#utility.yul\":16611:16627   */\n      0x496e76616c69642063686f696365000000000000000000000000000000000000\n        /* \"#utility.yul\":16607:16608   */\n      0x00\n        /* \"#utility.yul\":16599:16605   */\n      dup3\n        /* \"#utility.yul\":16595:16609   */\n      add\n        /* \"#utility.yul\":16588:16628   */\n      mstore\n        /* \"#utility.yul\":16471:16635   */\n      pop\n      jump\t// out\n        /* \"#utility.yul\":16641:17007   */\n    tag_225:\n        /* \"#utility.yul\":16783:16786   */\n      0x00\n        /* \"#utility.yul\":16804:16871   */\n      tag_423\n        /* \"#utility.yul\":16868:16870   */\n      0x0e\n        /* \"#utility.yul\":16863:16866   */\n      dup4\n        /* \"#utility.yul\":16804:16871   */\n      tag_191\n      jump\t// in\n    tag_423:\n        /* \"#utility.yul\":16797:16871   */\n      swap2\n      pop\n        /* \"#utility.yul\":16880:16973   */\n      tag_424\n        /* \"#utility.yul\":16969:16972   */\n      dup3\n        /* \"#utility.yul\":16880:16973   */\n      tag_224\n      jump\t// in\n    tag_424:\n        /* \"#utility.yul\":16998:17000   */\n      0x20\n        /* \"#utility.yul\":16993:16996   */\n      dup3\n        /* \"#utility.yul\":16989:17001   */\n      add\n        /* \"#utility.yul\":16982:17001   */\n      swap1\n      pop\n        /* \"#utility.yul\":16641:17007   */\n      swap2\n      swap1\n      pop\n      jump\t// out\n        /* \"#utility.yul\":17013:17432   */\n    tag_114:\n        /* \"#utility.yul\":17179:17183   */\n      0x00\n        /* \"#utility.yul\":17217:17219   */\n      0x20\n        /* \"#utility.yul\":17206:17215   */\n      dup3\n        /* \"#utility.yul\":17202:17220   */\n      add\n        /* \"#utility.yul\":17194:17220   */\n      swap1\n      pop\n        /* \"#utility.yul\":17266:17275   */\n      dup2\n        /* \"#utility.yul\":17260:17264   */\n      dup2\n        /* \"#utility.yul\":17256:17276   */\n      sub\n        /* \"#utility.yul\":17252:17253   */\n      0x00\n        /* \"#utility.yul\":17241:17250   */\n      dup4\n        /* \"#utility.yul\":17237:17254   */\n      add\n        /* \"#utility.yul\":17230:17277   */\n      mstore\n        /* \"#utility.yul\":17294:17425   */\n      tag_426\n        /* \"#utility.yul\":17420:17424   */\n      dup2\n        /* \"#utility.yul\":17294:17425   */\n      tag_225\n      jump\t// in\n    tag_426:\n        /* \"#utility.yul\":17286:17425   */\n      swap1\n      pop\n        /* \"#utility.yul\":17013:17432   */\n      swap2\n      swap1\n      pop\n      jump\t// out\n        /* \"#utility.yul\":17438:17610   */\n    tag_226:\n        /* \"#utility.yul\":17578:17602   */\n      0x506f6c6c20686173206e6f7420656e6465642079657400000000000000000000\n        /* \"#utility.yul\":17574:17575   */\n      0x00\n        /* \"#utility.yul\":17566:17572   */\n      dup3\n        /* \"#utility.yul\":17562:17576   */\n      add\n        /* \"#utility.yul\":17555:17603   */\n      mstore\n        /* \"#utility.yul\":17438:17610   */\n      pop\n      jump\t// out\n        /* \"#utility.yul\":17616:17982   */\n    tag_227:\n        /* \"#utility.yul\":17758:17761   */\n      0x00\n        /* \"#utility.yul\":17779:17846   */\n      tag_429\n        /* \"#utility.yul\":17843:17845   */\n      0x16\n        /* \"#utility.yul\":17838:17841   */\n      dup4\n        /* \"#utility.yul\":17779:17846   */\n      tag_191\n      jump\t// in\n    tag_429:\n        /* \"#utility.yul\":17772:17846   */\n      swap2\n      pop\n        /* \"#utility.yul\":17855:17948   */\n      tag_430\n        /* \"#utility.yul\":17944:17947   */\n      dup3\n        /* \"#utility.yul\":17855:17948   */\n      tag_226\n      jump\t// in\n    tag_430:\n        /* \"#utility.yul\":17973:17975   */\n      0x20\n        /* \"#utility.yul\":17968:17971   */\n      dup3\n        /* \"#utility.yul\":17964:17976   */\n      add\n        /* \"#utility.yul\":17957:17976   */\n      swap1\n      pop\n        /* \"#utility.yul\":17616:17982   */\n      swap2\n      swap1\n      pop\n      jump\t// out\n        /* \"#utility.yul\":17988:18407   */\n    tag_128:\n        /* \"#utility.yul\":18154:18158   */\n      0x00\n        /* \"#utility.yul\":18192:18194   */\n      0x20\n        /* \"#utility.yul\":18181:18190   */\n      dup3\n        /* \"#utility.yul\":18177:18195   */\n      add\n        /* \"#utility.yul\":18169:18195   */\n      swap1\n      pop\n        /* \"#utility.yul\":18241:18250   */\n      dup2\n        /* \"#utility.yul\":18235:18239   */\n      dup2\n        /* \"#utility.yul\":18231:18251   */\n      sub\n        /* \"#utility.yul\":18227:18228   */\n      0x00\n        /* \"#utility.yul\":18216:18225   */\n      dup4\n        /* \"#utility.yul\":18212:18229   */\n      add\n        /* \"#utility.yul\":18205:18252   */\n      mstore\n        /* \"#utility.yul\":18269:18400   */\n      tag_432\n        /* \"#utility.yul\":18395:18399   */\n      dup2\n        /* \"#utility.yul\":18269:18400   */\n      tag_227\n      jump\t// in\n    tag_432:\n        /* \"#utility.yul\":18261:18400   */\n      swap1\n      pop\n        /* \"#utility.yul\":17988:18407   */\n      swap2\n      swap1\n      pop\n      jump\t// out\n        /* \"#utility.yul\":18413:18593   */\n    tag_228:\n        /* \"#utility.yul\":18461:18538   */\n      0x4e487b7100000000000000000000000000000000000000000000000000000000\n        /* \"#utility.yul\":18458:18459   */\n      0x00\n        /* \"#utility.yul\":18451:18539   */\n      mstore\n        /* \"#utility.yul\":18558:18562   */\n      0x11\n        /* \"#utility.yul\":18555:18556   */\n      0x04\n        /* \"#utility.yul\":18548:18563   */\n      mstore\n        /* \"#utility.yul\":18582:18586   */\n      0x24\n        /* \"#utility.yul\":18579:18580   */\n      0x00\n        /* \"#utility.yul\":18572:18587   */\n      revert\n        /* \"#utility.yul\":18599:18832   */\n    tag_143:\n        /* \"#utility.yul\":18638:18641   */\n      0x00\n        /* \"#utility.yul\":18661:18685   */\n      tag_435\n        /* \"#utility.yul\":18679:18684   */\n      dup3\n        /* \"#utility.yul\":18661:18685   */\n      tag_182\n      jump\t// in\n    tag_435:\n        /* \"#utility.yul\":18652:18685   */\n      swap2\n      pop\n        /* \"#utility.yul\":18707:18773   */\n      0xffffffffffffffffffffffffffffffffffffffffffffffffffffffffffffffff\n        /* \"#utility.yul\":18700:18705   */\n      dup3\n        /* \"#utility.yul\":18697:18774   */\n      sub\n        /* \"#utility.yul\":18694:18797   */\n      tag_436\n      jumpi\n        /* \"#utility.yul\":18777:18795   */\n      tag_437\n      tag_228\n      jump\t// in\n    tag_437:\n        /* \"#utility.yul\":18694:18797   */\n    tag_436:\n        /* \"#utility.yul\":18824:18825   */\n      0x01\n        /* \"#utility.yul\":18817:18822   */\n      dup3\n        /* \"#utility.yul\":18813:18826   */\n      add\n        /* \"#utility.yul\":18806:18826   */\n      swap1\n      pop\n        /* \"#utility.yul\":18599:18832   */\n      swap2\n      swap1\n      pop\n      jump\t// out\n        /* \"#utility.yul\":18838:19009   */\n    tag_229:\n        /* \"#utility.yul\":18978:19001   */\n      0x496e76616c696420706f6c6c20656e642074696d650000000000000000000000\n        /* \"#utility.yul\":18974:18975   */\n      0x00\n        /* \"#utility.yul\":18966:18972   */\n      dup3\n        /* \"#utility.yul\":18962:18976   */\n      add\n        /* \"#utility.yul\":18955:19002   */\n      mstore\n        /* \"#utility.yul\":18838:19009   */\n      pop\n      jump\t// out\n        /* \"#utility.yul\":19015:19381   */\n    tag_230:\n        /* \"#utility.yul\":19157:19160   */\n      0x00\n        /* \"#utility.yul\":19178:19245   */\n      tag_440\n        /* \"#utility.yul\":19242:19244   */\n      0x15\n        /* \"#utility.yul\":19237:19240   */\n      dup4\n        /* \"#utility.yul\":19178:19245   */\n      tag_191\n      jump\t// in\n    tag_440:\n        /* \"#utility.yul\":19171:19245   */\n      swap2\n      pop\n        /* \"#utility.yul\":19254:19347   */\n      tag_441\n        /* \"#utility.yul\":19343:19346   */\n      dup3\n        /* \"#utility.yul\":19254:19347   */\n      tag_229\n      jump\t// in\n    tag_441:\n        /* \"#utility.yul\":19372:19374   */\n      0x20\n        /* \"#utility.yul\":19367:19370   */\n      dup3\n        /* \"#utility.yul\":19363:19375   */\n      add\n        /* \"#utility.yul\":19356:19375   */\n      swap1\n      pop\n        /* \"#utility.yul\":19015:19381   */\n      swap2\n      swap1\n      pop\n      jump\t// out\n        /* \"#utility.yul\":19387:19806   */\n    tag_147:\n        /* \"#utility.yul\":19553:19557   */\n      0x00\n        /* \"#utility.yul\":19591:19593   */\n      0x20\n        /* \"#utility.yul\":19580:19589   */\n      dup3\n        /* \"#utility.yul\":19576:19594   */\n      add\n        /* \"#utility.yul\":19568:19594   */\n      swap1\n      pop\n        /* \"#utility.yul\":19640:19649   */\n      dup2\n        /* \"#utility.yul\":19634:19638   */\n      dup2\n        /* \"#utility.yul\":19630:19650   */\n      sub\n        /* \"#utility.yul\":19626:19627   */\n      0x00\n        /* \"#utility.yul\":19615:19624   */\n      dup4\n        /* \"#utility.yul\":19611:19628   */\n      add\n        /* \"#utility.yul\":19604:19651   */\n      mstore\n        /* \"#utility.yul\":19668:19799   */\n      tag_443\n        /* \"#utility.yul\":19794:19798   */\n      dup2\n        /* \"#utility.yul\":19668:19799   */\n      tag_230\n      jump\t// in\n    tag_443:\n        /* \"#utility.yul\":19660:19799   */\n      swap1\n      pop\n        /* \"#utility.yul\":19387:19806   */\n      swap2\n      swap1\n      pop\n      jump\t// out\n        /* \"#utility.yul\":19812:19991   */\n    tag_231:\n        /* \"#utility.yul\":19952:19983   */\n      0x4174206c656173742074776f206f7074696f6e73207265717569726564000000\n        /* \"#utility.yul\":19948:19949   */\n      0x00\n        /* \"#utility.yul\":19940:19946   */\n      dup3\n        /* \"#utility.yul\":19936:19950   */\n      add\n        /* \"#utility.yul\":19929:19984   */\n      mstore\n        /* \"#utility.yul\":19812:19991   */\n      pop\n      jump\t// out\n        /* \"#utility.yul\":19997:20363   */\n    tag_232:\n        /* \"#utility.yul\":20139:20142   */\n      0x00\n        /* \"#utility.yul\":20160:20227   */\n      tag_446\n        /* \"#utility.yul\":20224:20226   */\n      0x1d\n        /* \"#utility.yul\":20219:20222   */\n      dup4\n        /* \"#utility.yul\":20160:20227   */\n      tag_191\n      jump\t// in\n    tag_446:\n        /* \"#utility.yul\":20153:20227   */\n      swap2\n      pop\n        /* \"#utility.yul\":20236:20329   */\n      tag_447\n        /* \"#utility.yul\":20325:20328   */\n      dup3\n        /* \"#utility.yul\":20236:20329   */\n      tag_231\n      jump\t// in\n    tag_447:\n        /* \"#utility.yul\":20354:20356   */\n      0x20\n        /* \"#utility.yul\":20349:20352   */\n      dup3\n        /* \"#utility.yul\":20345:20357   */\n      add\n        /* \"#utility.yul\":20338:20357   */\n      swap1\n      pop\n        /* \"#utility.yul\":19997:20363   */\n      swap2\n      swap1\n      pop\n      jump\t// out\n        /* \"#utility.yul\":20369:20788   */\n    tag_150:\n        /* \"#utility.yul\":20535:20539   */\n      0x00\n        /* \"#utility.yul\":20573:20575   */\n      0x20\n        /* \"#utility.yul\":20562:20571   */\n      dup3\n        /* \"#utility.yul\":20558:20576   */\n      add\n        /* \"#utility.yul\":20550:20576   */\n      swap1\n      pop\n        /* \"#utility.yul\":20622:20631   */\n      dup2\n        /* \"#utility.yul\":20616:20620   */\n      dup2\n        /* \"#utility.yul\":20612:20632   */\n      sub\n        /* \"#utility.yul\":20608:20609   */\n      0x00\n        /* \"#utility.yul\":20597:20606   */\n      dup4\n        /* \"#utility.yul\":20593:20610   */\n      add\n        /* \"#utility.yul\":20586:20633   */\n      mstore\n        /* \"#utility.yul\":20650:20781   */\n      tag_449\n        /* \"#utility.yul\":20776:20780   */\n      dup2\n        /* \"#utility.yul\":20650:20781   */\n      tag_232\n      jump\t// in\n    tag_449:\n        /* \"#utility.yul\":20642:20781   */\n      swap1\n      pop\n        /* \"#utility.yul\":20369:20788   */\n      swap2\n      swap1\n      pop\n      jump\t// out\n        /* \"#utility.yul\":20794:20918   */\n    tag_233:\n        /* \"#utility.yul\":20871:20877   */\n      0x00\n        /* \"#utility.yul\":20905:20910   */\n      dup2\n        /* \"#utility.yul\":20899:20911   */\n      mload\n        /* \"#utility.yul\":20889:20911   */\n      swap1\n      pop\n        /* \"#utility.yul\":20794:20918   */\n      swap2\n      swap1\n      pop\n      jump\t// out\n        /* \"#utility.yul\":20924:21118   */\n    tag_234:\n        /* \"#utility.yul\":21033:21044   */\n      0x00\n        /* \"#utility.yul\":21067:21073   */\n      dup3\n        /* \"#utility.yul\":21062:21065   */\n      dup3\n        /* \"#utility.yul\":21055:21074   */\n      mstore\n        /* \"#utility.yul\":21107:21111   */\n      0x20\n        /* \"#utility.yul\":21102:21105   */\n      dup3\n        /* \"#utility.yul\":21098:21112   */\n      add\n        /* \"#utility.yul\":21083:21112   */\n      swap1\n      pop\n        /* \"#utility.yul\":20924:21118   */\n      swap3\n      swap2\n      pop\n      pop\n      jump\t// out\n        /* \"#utility.yul\":21124:21266   */\n    tag_235:\n        /* \"#utility.yul\":21201:21205   */\n      0x00\n        /* \"#utility.yul\":21224:21227   */\n      dup2\n        /* \"#utility.yul\":21216:21227   */\n      swap1\n      pop\n        /* \"#utility.yul\":21254:21258   */\n      0x20\n        /* \"#utility.yul\":21249:21252   */\n      dup3\n        /* \"#utility.yul\":21245:21259   */\n      add\n        /* \"#utility.yul\":21237:21259   */\n      swap1\n      pop\n        /* \"#utility.yul\":21124:21266   */\n      swap2\n      swap1\n      pop\n      jump\t// out\n        /* \"#utility.yul\":21272:21431   */\n    tag_236:\n        /* \"#utility.yul\":21346:21357   */\n      0x00\n        /* \"#utility.yul\":21380:21386   */\n      dup3\n        /* \"#utility.yul\":21375:21378   */\n      dup3\n        /* \"#utility.yul\":21368:21387   */\n      mstore\n        /* \"#utility.yul\":21420:21424   */\n      0x20\n        /* \"#utility.yul\":21415:21418   */\n      dup3\n        /* \"#utility.yul\":21411:21425   */\n      add\n        /* \"#utility.yul\":21396:21425   */\n      swap1\n      pop\n        /* \"#utility.yul\":21272:21431   */\n      swap3\n      swap2\n      pop\n      pop\n      jump\t// out\n        /* \"#utility.yul\":21437:21794   */\n    tag_237:\n        /* \"#utility.yul\":21515:21518   */\n      0x00\n        /* \"#utility.yul\":21543:21582   */\n      tag_455\n        /* \"#utility.yul\":21576:21581   */\n      dup3\n        /* \"#utility.yul\":21543:21582   */\n      tag_190\n      jump\t// in\n    tag_455:\n        /* \"#utility.yul\":21598:21659   */\n      tag_456\n        /* \"#utility.yul\":21652:21658   */\n      dup2\n        /* \"#utility.yul\":21647:21650   */\n      dup6\n        /* \"#utility.yul\":21598:21659   */\n      tag_236\n      jump\t// in\n    tag_456:\n        /* \"#utility.yul\":21591:21659   */\n      swap4\n      pop\n        /* \"#utility.yul\":21668:21733   */\n      tag_457\n        /* \"#utility.yul\":21726:21732   */\n      dup2\n        /* \"#utility.yul\":21721:21724   */\n      dup6\n        /* \"#utility.yul\":21714:21718   */\n      0x20\n        /* \"#utility.yul\":21707:21712   */\n      dup7\n        /* \"#utility.yul\":21703:21719   */\n      add\n        /* \"#utility.yul\":21668:21733   */\n      tag_192\n      jump\t// in\n    tag_457:\n        /* \"#utility.yul\":21758:21787   */\n      tag_458\n        /* \"#utility.yul\":21780:21786   */\n      dup2\n        /* \"#utility.yul\":21758:21787   */\n      tag_193\n      jump\t// in\n    tag_458:\n        /* \"#utility.yul\":21753:21756   */\n      dup5\n        /* \"#utility.yul\":21749:21788   */\n      add\n        /* \"#utility.yul\":21742:21788   */\n      swap2\n      pop\n        /* \"#utility.yul\":21519:21794   */\n      pop\n        /* \"#utility.yul\":21437:21794   */\n      swap3\n      swap2\n      pop\n      pop\n      jump\t// out\n        /* \"#utility.yul\":21800:21996   */\n    tag_238:\n        /* \"#utility.yul\":21889:21899   */\n      0x00\n        /* \"#utility.yul\":21924:21990   */\n      tag_460\n        /* \"#utility.yul\":21986:21989   */\n      dup4\n        /* \"#utility.yul\":21978:21984   */\n      dup4\n        /* \"#utility.yul\":21924:21990   */\n      tag_237\n      jump\t// in\n    tag_460:\n        /* \"#utility.yul\":21910:21990   */\n      swap1\n      pop\n        /* \"#utility.yul\":21800:21996   */\n      swap3\n      swap2\n      pop\n      pop\n      jump\t// out\n        /* \"#utility.yul\":22002:22125   */\n    tag_239:\n        /* \"#utility.yul\":22082:22086   */\n      0x00\n        /* \"#utility.yul\":22114:22118   */\n      0x20\n        /* \"#utility.yul\":22109:22112   */\n      dup3\n        /* \"#utility.yul\":22105:22119   */\n      add\n        /* \"#utility.yul\":22097:22119   */\n      swap1\n      pop\n        /* \"#utility.yul\":22002:22125   */\n      swap2\n      swap1\n      pop\n      jump\t// out\n        /* \"#utility.yul\":22159:23150   */\n    tag_240:\n        /* \"#utility.yul\":22298:22301   */\n      0x00\n        /* \"#utility.yul\":22327:22391   */\n      tag_463\n        /* \"#utility.yul\":22385:22390   */\n      dup3\n        /* \"#utility.yul\":22327:22391   */\n      tag_233\n      jump\t// in\n    tag_463:\n        /* \"#utility.yul\":22407:22503   */\n      tag_464\n        /* \"#utility.yul\":22496:22502   */\n      dup2\n        /* \"#utility.yul\":22491:22494   */\n      dup6\n        /* \"#utility.yul\":22407:22503   */\n      tag_234\n      jump\t// in\n    tag_464:\n        /* \"#utility.yul\":22400:22503   */\n      swap4\n      pop\n        /* \"#utility.yul\":22529:22532   */\n      dup4\n        /* \"#utility.yul\":22574:22578   */\n      0x20\n        /* \"#utility.yul\":22566:22572   */\n      dup3\n        /* \"#utility.yul\":22562:22579   */\n      mul\n        /* \"#utility.yul\":22557:22560   */\n      dup6\n        /* \"#utility.yul\":22553:22580   */\n      add\n        /* \"#utility.yul\":22604:22670   */\n      tag_465\n        /* \"#utility.yul\":22664:22669   */\n      dup6\n        /* \"#utility.yul\":22604:22670   */\n      tag_235\n      jump\t// in\n    tag_465:\n        /* \"#utility.yul\":22693:22700   */\n      dup1\n        /* \"#utility.yul\":22724:22725   */\n      0x00\n        /* \"#utility.yul\":22709:23105   */\n    tag_466:\n        /* \"#utility.yul\":22734:22740   */\n      dup6\n        /* \"#utility.yul\":22731:22732   */\n      dup2\n        /* \"#utility.yul\":22728:22741   */\n      lt\n        /* \"#utility.yul\":22709:23105   */\n      iszero\n      tag_468\n      jumpi\n        /* \"#utility.yul\":22805:22814   */\n      dup5\n        /* \"#utility.yul\":22799:22803   */\n      dup5\n        /* \"#utility.yul\":22795:22815   */\n      sub\n        /* \"#utility.yul\":22790:22793   */\n      dup10\n        /* \"#utility.yul\":22783:22816   */\n      mstore\n        /* \"#utility.yul\":22856:22862   */\n      dup2\n        /* \"#utility.yul\":22850:22863   */\n      mload\n        /* \"#utility.yul\":22884:22968   */\n      tag_469\n        /* \"#utility.yul\":22963:22967   */\n      dup6\n        /* \"#utility.yul\":22948:22961   */\n      dup3\n        /* \"#utility.yul\":22884:22968   */\n      tag_238\n      jump\t// in\n    tag_469:\n        /* \"#utility.yul\":22876:22968   */\n      swap5\n      pop\n        /* \"#utility.yul\":22991:23061   */\n      tag_470\n        /* \"#utility.yul\":23054:23060   */\n      dup4\n        /* \"#utility.yul\":22991:23061   */\n      tag_239\n      jump\t// in\n    tag_470:\n        /* \"#utility.yul\":22981:23061   */\n      swap3\n      pop\n        /* \"#utility.yul\":23090:23094   */\n      0x20\n        /* \"#utility.yul\":23085:23088   */\n      dup11\n        /* \"#utility.yul\":23081:23095   */\n      add\n        /* \"#utility.yul\":23074:23095   */\n      swap10\n      pop\n        /* \"#utility.yul\":22769:23105   */\n      pop\n        /* \"#utility.yul\":22756:22757   */\n      0x01\n        /* \"#utility.yul\":22753:22754   */\n      dup2\n        /* \"#utility.yul\":22749:22758   */\n      add\n        /* \"#utility.yul\":22744:22758   */\n      swap1\n      pop\n        /* \"#utility.yul\":22709:23105   */\n      jump(tag_466)\n    tag_468:\n        /* \"#utility.yul\":22713:22727   */\n      pop\n        /* \"#utility.yul\":23121:23125   */\n      dup3\n        /* \"#utility.yul\":23114:23125   */\n      swap8\n      pop\n        /* \"#utility.yul\":23141:23144   */\n      dup8\n        /* \"#utility.yul\":23134:23144   */\n      swap6\n      pop\n        /* \"#utility.yul\":22303:23150   */\n      pop\n      pop\n      pop\n      pop\n      pop\n        /* \"#utility.yul\":22159:23150   */\n      swap3\n      swap2\n      pop\n      pop\n      jump\t// out\n        /* \"#utility.yul\":23156:23789   */\n    tag_158:\n        /* \"#utility.yul\":23375:23379   */\n      0x00\n        /* \"#utility.yul\":23413:23415   */\n      0x60\n        /* \"#utility.yul\":23402:23411   */\n      dup3\n        /* \"#utility.yul\":23398:23416   */\n      add\n        /* \"#utility.yul\":23390:23416   */\n      swap1\n      pop\n        /* \"#utility.yul\":23426:23497   */\n      tag_472\n        /* \"#utility.yul\":23494:23495   */\n      0x00\n        /* \"#utility.yul\":23483:23492   */\n      dup4\n        /* \"#utility.yul\":23479:23496   */\n      add\n        /* \"#utility.yul\":23470:23476   */\n      dup7\n        /* \"#utility.yul\":23426:23497   */\n      tag_189\n      jump\t// in\n    tag_472:\n        /* \"#utility.yul\":23507:23579   */\n      tag_473\n        /* \"#utility.yul\":23575:23577   */\n      0x20\n        /* \"#utility.yul\":23564:23573   */\n      dup4\n        /* \"#utility.yul\":23560:23578   */\n      add\n        /* \"#utility.yul\":23551:23557   */\n      dup6\n        /* \"#utility.yul\":23507:23579   */\n      tag_189\n      jump\t// in\n    tag_473:\n        /* \"#utility.yul\":23626:23635   */\n      dup2\n        /* \"#utility.yul\":23620:23624   */\n      dup2\n        /* \"#utility.yul\":23616:23636   */\n      sub\n        /* \"#utility.yul\":23611:23613   */\n      0x40\n        /* \"#utility.yul\":23600:23609   */\n      dup4\n        /* \"#utility.yul\":23596:23614   */\n      add\n        /* \"#utility.yul\":23589:23637   */\n      mstore\n        /* \"#utility.yul\":23654:23782   */\n      tag_474\n        /* \"#utility.yul\":23777:23781   */\n      dup2\n        /* \"#utility.yul\":23768:23774   */\n      dup5\n        /* \"#utility.yul\":23654:23782   */\n      tag_240\n      jump\t// in\n    tag_474:\n        /* \"#utility.yul\":23646:23782   */\n      swap1\n      pop\n        /* \"#utility.yul\":23156:23789   */\n      swap5\n      swap4\n      pop\n      pop\n      pop\n      pop\n      jump\t// out\n        /* \"#utility.yul\":23795:23936   */\n    tag_241:\n        /* \"#utility.yul\":23844:23848   */\n      0x00\n        /* \"#utility.yul\":23867:23870   */\n      dup2\n        /* \"#utility.yul\":23859:23870   */\n      swap1\n      pop\n        /* \"#utility.yul\":23890:23893   */\n      dup2\n        /* \"#utility.yul\":23887:23888   */\n      0x00\n        /* \"#utility.yul\":23880:23894   */\n      mstore\n        /* \"#utility.yul\":23924:23928   */\n      0x20\n        /* \"#utility.yul\":23921:23922   */\n      0x00\n        /* \"#utility.yul\":23911:23929   */\n      keccak256\n        /* \"#utility.yul\":23903:23929   */\n      swap1\n      pop\n        /* \"#utility.yul\":23795:23936   */\n      swap2\n      swap1\n      pop\n      jump\t// out\n        /* \"#utility.yul\":23942:24035   */\n    tag_242:\n        /* \"#utility.yul\":23979:23985   */\n      0x00\n        /* \"#utility.yul\":24026:24028   */\n      0x20\n        /* \"#utility.yul\":24021:24023   */\n      0x1f\n        /* \"#utility.yul\":24014:24019   */\n      dup4\n        /* \"#utility.yul\":24010:24024   */\n      add\n        /* \"#utility.yul\":24006:24029   */\n      div\n        /* \"#utility.yul\":23996:24029   */\n      swap1\n      pop\n        /* \"#utility.yul\":23942:24035   */\n      swap2\n      swap1\n      pop\n      jump\t// out\n        /* \"#utility.yul\":24041:24148   */\n    tag_243:\n        /* \"#utility.yul\":24085:24093   */\n      0x00\n        /* \"#utility.yul\":24135:24140   */\n      dup3\n        /* \"#utility.yul\":24129:24133   */\n      dup3\n        /* \"#utility.yul\":24125:24141   */\n      shl\n        /* \"#utility.yul\":24104:24141   */\n      swap1\n      pop\n        /* \"#utility.yul\":24041:24148   */\n      swap3\n      swap2\n      pop\n      pop\n      jump\t// out\n        /* \"#utility.yul\":24154:24547   */\n    tag_244:\n        /* \"#utility.yul\":24223:24229   */\n      0x00\n        /* \"#utility.yul\":24273:24274   */\n      0x08\n        /* \"#utility.yul\":24261:24271   */\n      dup4\n        /* \"#utility.yul\":24257:24275   */\n      mul\n        /* \"#utility.yul\":24296:24393   */\n      tag_479\n        /* \"#utility.yul\":24326:24392   */\n      0xffffffffffffffffffffffffffffffffffffffffffffffffffffffffffffffff\n        /* \"#utility.yul\":24315:24324   */\n      dup3\n        /* \"#utility.yul\":24296:24393   */\n      tag_243\n      jump\t// in\n    tag_479:\n        /* \"#utility.yul\":24414:24453   */\n      tag_480\n        /* \"#utility.yul\":24444:24452   */\n      dup7\n        /* \"#utility.yul\":24433:24442   */\n      dup4\n        /* \"#utility.yul\":24414:24453   */\n      tag_243\n      jump\t// in\n    tag_480:\n        /* \"#utility.yul\":24402:24453   */\n      swap6\n      pop\n        /* \"#utility.yul\":24486:24490   */\n      dup1\n        /* \"#utility.yul\":24482:24491   */\n      not\n        /* \"#utility.yul\":24475:24480   */\n      dup5\n        /* \"#utility.yul\":24471:24492   */\n      and\n        /* \"#utility.yul\":24462:24492   */\n      swap4\n      pop\n        /* \"#utility.yul\":24535:24539   */\n      dup1\n        /* \"#utility.yul\":24525:24533   */\n      dup7\n        /* \"#utility.yul\":24521:24540   */\n      and\n        /* \"#utility.yul\":24514:24519   */\n      dup5\n        /* \"#utility.yul\":24511:24541   */\n      or\n        /* \"#utility.yul\":24501:24541   */\n      swap3\n      pop\n        /* \"#utility.yul\":24230:24547   */\n      pop\n      pop\n        /* \"#utility.yul\":24154:24547   */\n      swap4\n      swap3\n      pop\n      pop\n      pop\n      jump\t// out\n        /* \"#utility.yul\":24553:24613   */\n    tag_245:\n        /* \"#utility.yul\":24581:24584   */\n      0x00\n        /* \"#utility.yul\":24602:24607   */\n      dup2\n        /* \"#utility.yul\":24595:24607   */\n      swap1\n      pop\n        /* \"#utility.yul\":24553:24613   */\n      swap2\n      swap1\n      pop\n      jump\t// out\n        /* \"#utility.yul\":24619:24761   */\n    tag_246:\n        /* \"#utility.yul\":24669:24678   */\n      0x00\n        /* \"#utility.yul\":24702:24755   */\n      tag_483\n        /* \"#utility.yul\":24720:24754   */\n      tag_484\n        /* \"#utility.yul\":24729:24753   */\n      tag_485\n        /* \"#utility.yul\":24747:24752   */\n      dup5\n        /* \"#utility.yul\":24729:24753   */\n      tag_182\n      jump\t// in\n    tag_485:\n        /* \"#utility.yul\":24720:24754   */\n      tag_245\n      jump\t// in\n    tag_484:\n        /* \"#utility.yul\":24702:24755   */\n      tag_182\n      jump\t// in\n    tag_483:\n        /* \"#utility.yul\":24689:24755   */\n      swap1\n      pop\n        /* \"#utility.yul\":24619:24761   */\n      swap2\n      swap1\n      pop\n      jump\t// out\n        /* \"#utility.yul\":24767:24842   */\n    tag_247:\n        /* \"#utility.yul\":24810:24813   */\n      0x00\n        /* \"#utility.yul\":24831:24836   */\n      dup2\n        /* \"#utility.yul\":24824:24836   */\n      swap1\n      pop\n        /* \"#utility.yul\":24767:24842   */\n      swap2\n      swap1\n      pop\n      jump\t// out\n        /* \"#utility.yul\":24848:25117   */\n    tag_248:\n        /* \"#utility.yul\":24958:24997   */\n      tag_488\n        /* \"#utility.yul\":24989:24996   */\n      dup4\n        /* \"#utility.yul\":24958:24997   */\n      tag_246\n      jump\t// in\n    tag_488:\n        /* \"#utility.yul\":25019:25110   */\n      tag_489\n        /* \"#utility.yul\":25068:25109   */\n      tag_490\n        /* \"#utility.yul\":25092:25108   */\n      dup3\n        /* \"#utility.yul\":25068:25109   */\n      tag_247\n      jump\t// in\n    tag_490:\n        /* \"#utility.yul\":25060:25066   */\n      dup5\n        /* \"#utility.yul\":25053:25057   */\n      dup5\n        /* \"#utility.yul\":25047:25058   */\n      sload\n        /* \"#utility.yul\":25019:25110   */\n      tag_244\n      jump\t// in\n    tag_489:\n        /* \"#utility.yul\":25013:25017   */\n      dup3\n        /* \"#utility.yul\":25006:25111   */\n      sstore\n        /* \"#utility.yul\":24924:25117   */\n      pop\n        /* \"#utility.yul\":24848:25117   */\n      pop\n      pop\n      pop\n      jump\t// out\n        /* \"#utility.yul\":25123:25196   */\n    tag_249:\n        /* \"#utility.yul\":25168:25171   */\n      0x00\n        /* \"#utility.yul\":25123:25196   */\n      swap1\n      jump\t// out\n        /* \"#utility.yul\":25202:25391   */\n    tag_250:\n        /* \"#utility.yul\":25279:25311   */\n      tag_493\n      tag_249\n      jump\t// in\n    tag_493:\n        /* \"#utility.yul\":25320:25385   */\n      tag_494\n        /* \"#utility.yul\":25378:25384   */\n      dup2\n        /* \"#utility.yul\":25370:25376   */\n      dup5\n        /* \"#utility.yul\":25364:25368   */\n      dup5\n        /* \"#utility.yul\":25320:25385   */\n      tag_248\n      jump\t// in\n    tag_494:\n        /* \"#utility.yul\":25255:25391   */\n      pop\n        /* \"#utility.yul\":25202:25391   */\n      pop\n      pop\n      jump\t// out\n        /* \"#utility.yul\":25397:25583   */\n    tag_251:\n        /* \"#utility.yul\":25457:25577   */\n    tag_496:\n        /* \"#utility.yul\":25474:25477   */\n      dup2\n        /* \"#utility.yul\":25467:25472   */\n      dup2\n        /* \"#utility.yul\":25464:25478   */\n      lt\n        /* \"#utility.yul\":25457:25577   */\n      iszero\n      tag_498\n      jumpi\n        /* \"#utility.yul\":25528:25567   */\n      tag_499\n        /* \"#utility.yul\":25565:25566   */\n      0x00\n        /* \"#utility.yul\":25558:25563   */\n      dup3\n        /* \"#utility.yul\":25528:25567   */\n      tag_250\n      jump\t// in\n    tag_499:\n        /* \"#utility.yul\":25501:25502   */\n      0x01\n        /* \"#utility.yul\":25494:25499   */\n      dup2\n        /* \"#utility.yul\":25490:25503   */\n      add\n        /* \"#utility.yul\":25481:25503   */\n      swap1\n      pop\n        /* \"#utility.yul\":25457:25577   */\n      jump(tag_496)\n    tag_498:\n        /* \"#utility.yul\":25397:25583   */\n      pop\n      pop\n      jump\t// out\n        /* \"#utility.yul\":25589:26132   */\n    tag_252:\n        /* \"#utility.yul\":25690:25692   */\n      0x1f\n        /* \"#utility.yul\":25685:25688   */\n      dup3\n        /* \"#utility.yul\":25682:25693   */\n      gt\n        /* \"#utility.yul\":25679:26125   */\n      iszero\n      tag_501\n      jumpi\n        /* \"#utility.yul\":25724:25762   */\n      tag_502\n        /* \"#utility.yul\":25756:25761   */\n      dup2\n        /* \"#utility.yul\":25724:25762   */\n      tag_241\n      jump\t// in\n    tag_502:\n        /* \"#utility.yul\":25808:25837   */\n      tag_503\n        /* \"#utility.yul\":25826:25836   */\n      dup5\n        /* \"#utility.yul\":25808:25837   */\n      tag_242\n      jump\t// in\n    tag_503:\n        /* \"#utility.yul\":25798:25806   */\n      dup2\n        /* \"#utility.yul\":25794:25838   */\n      add\n        /* \"#utility.yul\":25991:25993   */\n      0x20\n        /* \"#utility.yul\":25979:25989   */\n      dup6\n        /* \"#utility.yul\":25976:25994   */\n      lt\n        /* \"#utility.yul\":25973:26022   */\n      iszero\n      tag_504\n      jumpi\n        /* \"#utility.yul\":26012:26020   */\n      dup2\n        /* \"#utility.yul\":25997:26020   */\n      swap1\n      pop\n        /* \"#utility.yul\":25973:26022   */\n    tag_504:\n        /* \"#utility.yul\":26035:26115   */\n      tag_505\n        /* \"#utility.yul\":26091:26113   */\n      tag_506\n        /* \"#utility.yul\":26109:26112   */\n      dup6\n        /* \"#utility.yul\":26091:26113   */\n      tag_242\n      jump\t// in\n    tag_506:\n        /* \"#utility.yul\":26081:26089   */\n      dup4\n        /* \"#utility.yul\":26077:26114   */\n      add\n        /* \"#utility.yul\":26064:26075   */\n      dup3\n        /* \"#utility.yul\":26035:26115   */\n      tag_251\n      jump\t// in\n    tag_505:\n        /* \"#utility.yul\":25694:26125   */\n      pop\n      pop\n        /* \"#utility.yul\":25679:26125   */\n    tag_501:\n        /* \"#utility.yul\":25589:26132   */\n      pop\n      pop\n      pop\n      jump\t// out\n        /* \"#utility.yul\":26138:26255   */\n    tag_253:\n        /* \"#utility.yul\":26192:26200   */\n      0x00\n        /* \"#utility.yul\":26242:26247   */\n      dup3\n        /* \"#utility.yul\":26236:26240   */\n      dup3\n        /* \"#utility.yul\":26232:26248   */\n      shr\n        /* \"#utility.yul\":26211:26248   */\n      swap1\n      pop\n        /* \"#utility.yul\":26138:26255   */\n      swap3\n      swap2\n      pop\n      pop\n      jump\t// out\n        /* \"#utility.yul\":26261:26430   */\n    tag_254:\n        /* \"#utility.yul\":26305:26311   */\n      0x00\n        /* \"#utility.yul\":26338:26389   */\n      tag_509\n        /* \"#utility.yul\":26386:26387   */\n      0x00\n        /* \"#utility.yul\":26382:26388   */\n      not\n        /* \"#utility.yul\":26374:26379   */\n      dup5\n        /* \"#utility.yul\":26371:26372   */\n      0x08\n        /* \"#utility.yul\":26367:26380   */\n      mul\n        /* \"#utility.yul\":26338:26389   */\n      tag_253\n      jump\t// in\n    tag_509:\n        /* \"#utility.yul\":26334:26390   */\n      not\n        /* \"#utility.yul\":26419:26423   */\n      dup1\n        /* \"#utility.yul\":26413:26417   */\n      dup4\n        /* \"#utility.yul\":26409:26424   */\n      and\n        /* \"#utility.yul\":26399:26424   */\n      swap2\n      pop\n        /* \"#utility.yul\":26312:26430   */\n      pop\n        /* \"#utility.yul\":26261:26430   */\n      swap3\n      swap2\n      pop\n      pop\n      jump\t// out\n        /* \"#utility.yul\":26435:26730   */\n    tag_255:\n        /* \"#utility.yul\":26511:26515   */\n      0x00\n        /* \"#utility.yul\":26657:26686   */\n      tag_511\n        /* \"#utility.yul\":26682:26685   */\n      dup4\n        /* \"#utility.yul\":26676:26680   */\n      dup4\n        /* \"#utility.yul\":26657:26686   */\n      tag_254\n      jump\t// in\n    tag_511:\n        /* \"#utility.yul\":26649:26686   */\n      swap2\n      pop\n        /* \"#utility.yul\":26719:26722   */\n      dup3\n        /* \"#utility.yul\":26716:26717   */\n      0x02\n        /* \"#utility.yul\":26712:26723   */\n      mul\n        /* \"#utility.yul\":26706:26710   */\n      dup3\n        /* \"#utility.yul\":26703:26724   */\n      or\n        /* \"#utility.yul\":26695:26724   */\n      swap1\n      pop\n        /* \"#utility.yul\":26435:26730   */\n      swap3\n      swap2\n      pop\n      pop\n      jump\t// out\n        /* \"#utility.yul\":26735:28130   */\n    tag_165:\n        /* \"#utility.yul\":26852:26889   */\n      tag_513\n        /* \"#utility.yul\":26885:26888   */\n      dup3\n        /* \"#utility.yul\":26852:26889   */\n      tag_190\n      jump\t// in\n    tag_513:\n        /* \"#utility.yul\":26954:26972   */\n      0xffffffffffffffff\n        /* \"#utility.yul\":26946:26952   */\n      dup2\n        /* \"#utility.yul\":26943:26973   */\n      gt\n        /* \"#utility.yul\":26940:26996   */\n      iszero\n      tag_514\n      jumpi\n        /* \"#utility.yul\":26976:26994   */\n      tag_515\n      tag_134\n      jump\t// in\n    tag_515:\n        /* \"#utility.yul\":26940:26996   */\n    tag_514:\n        /* \"#utility.yul\":27020:27058   */\n      tag_516\n        /* \"#utility.yul\":27052:27056   */\n      dup3\n        /* \"#utility.yul\":27046:27057   */\n      sload\n        /* \"#utility.yul\":27020:27058   */\n      tag_91\n      jump\t// in\n    tag_516:\n        /* \"#utility.yul\":27105:27172   */\n      tag_517\n        /* \"#utility.yul\":27165:27171   */\n      dup3\n        /* \"#utility.yul\":27157:27163   */\n      dup3\n        /* \"#utility.yul\":27151:27155   */\n      dup6\n        /* \"#utility.yul\":27105:27172   */\n      tag_252\n      jump\t// in\n    tag_517:\n        /* \"#utility.yul\":27199:27200   */\n      0x00\n        /* \"#utility.yul\":27223:27227   */\n      0x20\n        /* \"#utility.yul\":27210:27227   */\n      swap1\n      pop\n        /* \"#utility.yul\":27255:27257   */\n      0x1f\n        /* \"#utility.yul\":27247:27253   */\n      dup4\n        /* \"#utility.yul\":27244:27258   */\n      gt\n        /* \"#utility.yul\":27272:27273   */\n      0x01\n        /* \"#utility.yul\":27267:27885   */\n      dup2\n      eq\n      tag_519\n      jumpi\n        /* \"#utility.yul\":27929:27930   */\n      0x00\n        /* \"#utility.yul\":27946:27952   */\n      dup5\n        /* \"#utility.yul\":27943:28020   */\n      iszero\n      tag_520\n      jumpi\n        /* \"#utility.yul\":27995:28004   */\n      dup3\n        /* \"#utility.yul\":27990:27993   */\n      dup8\n        /* \"#utility.yul\":27986:28005   */\n      add\n        /* \"#utility.yul\":27980:28006   */\n      mload\n        /* \"#utility.yul\":27971:28006   */\n      swap1\n      pop\n        /* \"#utility.yul\":27943:28020   */\n    tag_520:\n        /* \"#utility.yul\":28046:28113   */\n      tag_521\n        /* \"#utility.yul\":28106:28112   */\n      dup6\n        /* \"#utility.yul\":28099:28104   */\n      dup3\n        /* \"#utility.yul\":28046:28113   */\n      tag_255\n      jump\t// in\n    tag_521:\n        /* \"#utility.yul\":28040:28044   */\n      dup7\n        /* \"#utility.yul\":28033:28114   */\n      sstore\n        /* \"#utility.yul\":27902:28124   */\n      pop\n        /* \"#utility.yul\":27237:28124   */\n      jump(tag_518)\n        /* \"#utility.yul\":27267:27885   */\n    tag_519:\n        /* \"#utility.yul\":27319:27323   */\n      0x1f\n        /* \"#utility.yul\":27315:27324   */\n      not\n        /* \"#utility.yul\":27307:27313   */\n      dup5\n        /* \"#utility.yul\":27303:27325   */\n      and\n        /* \"#utility.yul\":27353:27390   */\n      tag_522\n        /* \"#utility.yul\":27385:27389   */\n      dup7\n        /* \"#utility.yul\":27353:27390   */\n      tag_241\n      jump\t// in\n    tag_522:\n        /* \"#utility.yul\":27412:27413   */\n      0x00\n        /* \"#utility.yul\":27426:27634   */\n    tag_523:\n        /* \"#utility.yul\":27440:27447   */\n      dup3\n        /* \"#utility.yul\":27437:27438   */\n      dup2\n        /* \"#utility.yul\":27434:27448   */\n      lt\n        /* \"#utility.yul\":27426:27634   */\n      iszero\n      tag_525\n      jumpi\n        /* \"#utility.yul\":27519:27528   */\n      dup5\n        /* \"#utility.yul\":27514:27517   */\n      dup10\n        /* \"#utility.yul\":27510:27529   */\n      add\n        /* \"#utility.yul\":27504:27530   */\n      mload\n        /* \"#utility.yul\":27496:27502   */\n      dup3\n        /* \"#utility.yul\":27489:27531   */\n      sstore\n        /* \"#utility.yul\":27570:27571   */\n      0x01\n        /* \"#utility.yul\":27562:27568   */\n      dup3\n        /* \"#utility.yul\":27558:27572   */\n      add\n        /* \"#utility.yul\":27548:27572   */\n      swap2\n      pop\n        /* \"#utility.yul\":27617:27619   */\n      0x20\n        /* \"#utility.yul\":27606:27615   */\n      dup6\n        /* \"#utility.yul\":27602:27620   */\n      add\n        /* \"#utility.yul\":27589:27620   */\n      swap5\n      pop\n        /* \"#utility.yul\":27463:27467   */\n      0x20\n        /* \"#utility.yul\":27460:27461   */\n      dup2\n        /* \"#utility.yul\":27456:27468   */\n      add\n        /* \"#utility.yul\":27451:27468   */\n      swap1\n      pop\n        /* \"#utility.yul\":27426:27634   */\n      jump(tag_523)\n    tag_525:\n        /* \"#utility.yul\":27662:27668   */\n      dup7\n        /* \"#utility.yul\":27653:27660   */\n      dup4\n        /* \"#utility.yul\":27650:27669   */\n      lt\n        /* \"#utility.yul\":27647:27826   */\n      iszero\n      tag_526\n      jumpi\n        /* \"#utility.yul\":27720:27729   */\n      dup5\n        /* \"#utility.yul\":27715:27718   */\n      dup10\n        /* \"#utility.yul\":27711:27730   */\n      add\n        /* \"#utility.yul\":27705:27731   */\n      mload\n        /* \"#utility.yul\":27763:27811   */\n      tag_527\n        /* \"#utility.yul\":27805:27809   */\n      0x1f\n        /* \"#utility.yul\":27797:27803   */\n      dup10\n        /* \"#utility.yul\":27793:27810   */\n      and\n        /* \"#utility.yul\":27782:27791   */\n      dup3\n        /* \"#utility.yul\":27763:27811   */\n      tag_254\n      jump\t// in\n    tag_527:\n        /* \"#utility.yul\":27755:27761   */\n      dup4\n        /* \"#utility.yul\":27748:27812   */\n      sstore\n        /* \"#utility.yul\":27670:27826   */\n      pop\n        /* \"#utility.yul\":27647:27826   */\n    tag_526:\n        /* \"#utility.yul\":27872:27873   */\n      0x01\n        /* \"#utility.yul\":27868:27869   */\n      0x02\n        /* \"#utility.yul\":27860:27866   */\n      dup9\n        /* \"#utility.yul\":27856:27870   */\n      mul\n        /* \"#utility.yul\":27852:27874   */\n      add\n        /* \"#utility.yul\":27846:27850   */\n      dup9\n        /* \"#utility.yul\":27839:27875   */\n      sstore\n        /* \"#utility.yul\":27274:27885   */\n      pop\n      pop\n      pop\n        /* \"#utility.yul\":27237:28124   */\n    tag_518:\n      pop\n        /* \"#utility.yul\":26827:28130   */\n      pop\n      pop\n      pop\n        /* \"#utility.yul\":26735:28130   */\n      pop\n      pop\n      jump\t// out\n\n    auxdata: 0xa2646970667358221220503f800463a379a18b097421842ed4718522b78ad05a9044d8d4ad282e57649564736f6c63430008120033\n}\n",
				"bytecode": {
					"linkReferences": {},
					"object": "608060405234801561001057600080fd5b50611ae0806100206000396000f3fe608060405234801561001057600080fd5b50600436106101005760003560e01c806391cbfb4111610097578063cf09449711610066578063cf09449714610300578063d624d6fd1461031e578063e3eed5c91461033a578063ed8c2aed1461036a57610100565b806391cbfb411461024e5780639207891d1461027e578063ac2f00741461029c578063bbff7166146102d057610100565b806346f86716116100d357806346f86716146101c85780634c3c234f146101f85780636b7128ec146102145780636f4a2cd01461024457610100565b806306455f5e1461010557806327e235e314610135578063420700f6146101655780634385963214610198575b600080fd5b61011f600480360381019061011a9190610d06565b610374565b60405161012c9190610d55565b60405180910390f35b61014f600480360381019061014a9190610d70565b610399565b60405161015c9190610d55565b60405180910390f35b61017f600480360381019061017a9190610d9d565b6103b1565b60405161018f9493929190610e7c565b60405180910390f35b6101b260048036038101906101ad9190610d06565b6104a6565b6040516101bf9190610ee3565b60405180910390f35b6101e260048036038101906101dd9190610efe565b6104d5565b6040516101ef9190610d55565b60405180910390f35b610212600480360381019061020d9190610d9d565b6104ed565b005b61022e60048036038101906102299190610efe565b61076c565b60405161023b9190610d55565b60405180910390f35b61024c61078c565b005b61026860048036038101906102639190610d9d565b61078e565b6040516102759190610d55565b60405180910390f35b6102866107bf565b6040516102939190610d55565b60405180910390f35b6102b660048036038101906102b19190610efe565b6107c5565b6040516102c7959493929190610f2b565b60405180910390f35b6102ea60048036038101906102e59190610efe565b610838565b6040516102f7919061103c565b60405180910390f35b610308610966565b6040516103159190610d55565b60405180910390f35b61033860048036038101906103339190611279565b61096c565b005b610354600480360381019061034f9190610d9d565b610b7a565b6040516103619190610d55565b60405180910390f35b610372610b82565b005b6003602052816000526040600020602052806000526040600020600091509150505481565b60056020528060005260406000206000915090505481565b600660205281600052604060002081815481106103cd57600080fd5b9060005260206000209060040201600091509150508060000154908060010180546103f790611317565b80601f016020809104026020016040519081016040528092919081815260200182805461042390611317565b80156104705780601f1061044557610100808354040283529160200191610470565b820191906000526020600020905b81548152906001019060200180831161045357829003601f168201915b5050505050908060020160009054906101000a900473ffffffffffffffffffffffffffffffffffffffff16908060030154905084565b60076020528160005260406000206020528060005260406000206000915091509054906101000a900460ff1681565b60026020528060005260406000206000915090505481565b60006008838154811061050357610502611348565b5b906000526020600020906006020190506007600084815260200190815260200160002060003373ffffffffffffffffffffffffffffffffffffffff1673ffffffffffffffffffffffffffffffffffffffff16815260200190815260200160002060009054906101000a900460ff16156105b1576040517f08c379a00000000000000000000000000000000000000000000000000000000081526004016105a8906113c3565b60405180910390fd5b8060050160009054906101000a900460ff16610602576040517f08c379a00000000000000000000000000000000000000000000000000000000081526004016105f99061142f565b60405180910390fd5b8060020154421015801561061a575080600301544211155b610659576040517f08c379a00000000000000000000000000000000000000000000000000000000081526004016106509061149b565b60405180910390fd5b600082101580156106705750806004018054905082105b6106af576040517f08c379a00000000000000000000000000000000000000000000000000000000081526004016106a690611507565b60405180910390fd5b60016007600085815260200190815260200160002060003373ffffffffffffffffffffffffffffffffffffffff1673ffffffffffffffffffffffffffffffffffffffff16815260200190815260200160002060006101000a81548160ff0219169083151502179055503373ffffffffffffffffffffffffffffffffffffffff16837fe7ee74ca1f4bb1b82b14f87794c45b3e59c39e372b862fb97a6316b43355b69e8460405161075f9190610d55565b60405180910390a3505050565b600060066000838152602001908152602001600020805490509050919050565b565b600460205281600052604060002081815481106107aa57600080fd5b90600052602060002001600091509150505481565b60005481565b600881815481106107d557600080fd5b90600052602060002090600602016000915090508060000154908060010160009054906101000a900473ffffffffffffffffffffffffffffffffffffffff16908060020154908060030154908060050160009054906101000a900460ff16905085565b60606008828154811061084e5761084d611348565b5b90600052602060002090600602016003015442116108a1576040517f08c379a000000000000000000000000000000000000000000000000000000000815260040161089890611573565b60405180910390fd5b6000600883815481106108b7576108b6611348565b5b90600052602060002090600602016004018054905067ffffffffffffffff8111156108e5576108e4611063565b5b6040519080825280602002602001820160405280156109135781602001602082028036833780820191505090505b50905060005b6008848154811061092d5761092c611348565b5b90600052602060002090600602016004018054905081101561095c578080610954906115c2565b915050610919565b5080915050919050565b60015481565b8282116109ae576040517f08c379a00000000000000000000000000000000000000000000000000000000081526004016109a590611656565b60405180910390fd5b60018151116109f2576040517f08c379a00000000000000000000000000000000000000000000000000000000081526004016109e9906116c2565b60405180910390fd5b600080815480929190610a04906115c2565b919050555060006040518060c0016040528060005481526020013373ffffffffffffffffffffffffffffffffffffffff16815260200185815260200184815260200183815260200160011515815250905080600860005481548110610a6c57610a6b611348565b5b90600052602060002090600602016000820151816000015560208201518160010160006101000a81548173ffffffffffffffffffffffffffffffffffffffff021916908373ffffffffffffffffffffffffffffffffffffffff16021790555060408201518160020155606082015181600301556080820151816004019080519060200190610afb929190610b84565b5060a08201518160050160006101000a81548160ff0219169083151502179055509050503373ffffffffffffffffffffffffffffffffffffffff166000547f58d87e181e9ac91f8ccda34caaf4c15db2a9fc345a86ea48e378d6e4359dfdb9868686604051610b6c939291906117ee565b60405180910390a350505050565b600092915050565b565b828054828255906000526020600020908101928215610bcc579160200282015b82811115610bcb578251829081610bbb91906119d8565b5091602001919060010190610ba4565b5b509050610bd99190610bdd565b5090565b5b80821115610bfd5760008181610bf49190610c01565b50600101610bde565b5090565b508054610c0d90611317565b6000825580601f10610c1f5750610c3e565b601f016020900490600052602060002090810190610c3d9190610c41565b5b50565b5b80821115610c5a576000816000905550600101610c42565b5090565b6000604051905090565b600080fd5b600080fd5b6000819050919050565b610c8581610c72565b8114610c9057600080fd5b50565b600081359050610ca281610c7c565b92915050565b600073ffffffffffffffffffffffffffffffffffffffff82169050919050565b6000610cd382610ca8565b9050919050565b610ce381610cc8565b8114610cee57600080fd5b50565b600081359050610d0081610cda565b92915050565b60008060408385031215610d1d57610d1c610c68565b5b6000610d2b85828601610c93565b9250506020610d3c85828601610cf1565b9150509250929050565b610d4f81610c72565b82525050565b6000602082019050610d6a6000830184610d46565b92915050565b600060208284031215610d8657610d85610c68565b5b6000610d9484828501610cf1565b91505092915050565b60008060408385031215610db457610db3610c68565b5b6000610dc285828601610c93565b9250506020610dd385828601610c93565b9150509250929050565b600081519050919050565b600082825260208201905092915050565b60005b83811015610e17578082015181840152602081019050610dfc565b60008484015250505050565b6000601f19601f8301169050919050565b6000610e3f82610ddd565b610e498185610de8565b9350610e59818560208601610df9565b610e6281610e23565b840191505092915050565b610e7681610cc8565b82525050565b6000608082019050610e916000830187610d46565b8181036020830152610ea38186610e34565b9050610eb26040830185610e6d565b610ebf6060830184610d46565b95945050505050565b60008115159050919050565b610edd81610ec8565b82525050565b6000602082019050610ef86000830184610ed4565b92915050565b600060208284031215610f1457610f13610c68565b5b6000610f2284828501610c93565b91505092915050565b600060a082019050610f406000830188610d46565b610f4d6020830187610e6d565b610f5a6040830186610d46565b610f676060830185610d46565b610f746080830184610ed4565b9695505050505050565b600081519050919050565b600082825260208201905092915050565b6000819050602082019050919050565b610fb381610c72565b82525050565b6000610fc58383610faa565b60208301905092915050565b6000602082019050919050565b6000610fe982610f7e565b610ff38185610f89565b9350610ffe83610f9a565b8060005b8381101561102f5781516110168882610fb9565b975061102183610fd1565b925050600181019050611002565b5085935050505092915050565b600060208201905081810360008301526110568184610fde565b905092915050565b600080fd5b7f4e487b7100000000000000000000000000000000000000000000000000000000600052604160045260246000fd5b61109b82610e23565b810181811067ffffffffffffffff821117156110ba576110b9611063565b5b80604052505050565b60006110cd610c5e565b90506110d98282611092565b919050565b600067ffffffffffffffff8211156110f9576110f8611063565b5b602082029050602081019050919050565b600080fd5b600080fd5b600067ffffffffffffffff82111561112f5761112e611063565b5b61113882610e23565b9050602081019050919050565b82818337600083830152505050565b600061116761116284611114565b6110c3565b9050828152602081018484840111156111835761118261110f565b5b61118e848285611145565b509392505050565b600082601f8301126111ab576111aa61105e565b5b81356111bb848260208601611154565b91505092915050565b60006111d76111d2846110de565b6110c3565b905080838252602082019050602084028301858111156111fa576111f961110a565b5b835b8181101561124157803567ffffffffffffffff81111561121f5761121e61105e565b5b80860161122c8982611196565b855260208501945050506020810190506111fc565b5050509392505050565b600082601f8301126112605761125f61105e565b5b81356112708482602086016111c4565b91505092915050565b60008060006060848603121561129257611291610c68565b5b60006112a086828701610c93565b93505060206112b186828701610c93565b925050604084013567ffffffffffffffff8111156112d2576112d1610c6d565b5b6112de8682870161124b565b9150509250925092565b7f4e487b7100000000000000000000000000000000000000000000000000000000600052602260045260246000fd5b6000600282049050600182168061132f57607f821691505b602082108103611342576113416112e8565b5b50919050565b7f4e487b7100000000000000000000000000000000000000000000000000000000600052603260045260246000fd5b7f416c726561647920766f74656400000000000000000000000000000000000000600082015250565b60006113ad600d83610de8565b91506113b882611377565b602082019050919050565b600060208201905081810360008301526113dc816113a0565b9050919050565b7f506f6c6c20697320636c6f736564000000000000000000000000000000000000600082015250565b6000611419600e83610de8565b9150611424826113e3565b602082019050919050565b600060208201905081810360008301526114488161140c565b9050919050565b7f506f6c6c206973206e6f74206163746976650000000000000000000000000000600082015250565b6000611485601283610de8565b91506114908261144f565b602082019050919050565b600060208201905081810360008301526114b481611478565b9050919050565b7f496e76616c69642063686f696365000000000000000000000000000000000000600082015250565b60006114f1600e83610de8565b91506114fc826114bb565b602082019050919050565b60006020820190508181036000830152611520816114e4565b9050919050565b7f506f6c6c20686173206e6f7420656e6465642079657400000000000000000000600082015250565b600061155d601683610de8565b915061156882611527565b602082019050919050565b6000602082019050818103600083015261158c81611550565b9050919050565b7f4e487b7100000000000000000000000000000000000000000000000000000000600052601160045260246000fd5b60006115cd82610c72565b91507fffffffffffffffffffffffffffffffffffffffffffffffffffffffffffffffff82036115ff576115fe611593565b5b600182019050919050565b7f496e76616c696420706f6c6c20656e642074696d650000000000000000000000600082015250565b6000611640601583610de8565b915061164b8261160a565b602082019050919050565b6000602082019050818103600083015261166f81611633565b9050919050565b7f4174206c656173742074776f206f7074696f6e73207265717569726564000000600082015250565b60006116ac601d83610de8565b91506116b782611676565b602082019050919050565b600060208201905081810360008301526116db8161169f565b9050919050565b600081519050919050565b600082825260208201905092915050565b6000819050602082019050919050565b600082825260208201905092915050565b600061172a82610ddd565b611734818561170e565b9350611744818560208601610df9565b61174d81610e23565b840191505092915050565b6000611764838361171f565b905092915050565b6000602082019050919050565b6000611784826116e2565b61178e81856116ed565b9350836020820285016117a0856116fe565b8060005b858110156117dc57848403895281516117bd8582611758565b94506117c88361176c565b925060208a019950506001810190506117a4565b50829750879550505050505092915050565b60006060820190506118036000830186610d46565b6118106020830185610d46565b81810360408301526118228184611779565b9050949350505050565b60008190508160005260206000209050919050565b60006020601f8301049050919050565b600082821b905092915050565b60006008830261188e7fffffffffffffffffffffffffffffffffffffffffffffffffffffffffffffffff82611851565b6118988683611851565b95508019841693508086168417925050509392505050565b6000819050919050565b60006118d56118d06118cb84610c72565b6118b0565b610c72565b9050919050565b6000819050919050565b6118ef836118ba565b6119036118fb826118dc565b84845461185e565b825550505050565b600090565b61191861190b565b6119238184846118e6565b505050565b5b818110156119475761193c600082611910565b600181019050611929565b5050565b601f82111561198c5761195d8161182c565b61196684611841565b81016020851015611975578190505b61198961198185611841565b830182611928565b50505b505050565b600082821c905092915050565b60006119af60001984600802611991565b1980831691505092915050565b60006119c8838361199e565b9150826002028217905092915050565b6119e182610ddd565b67ffffffffffffffff8111156119fa576119f9611063565b5b611a048254611317565b611a0f82828561194b565b600060209050601f831160018114611a425760008415611a30578287015190505b611a3a85826119bc565b865550611aa2565b601f198416611a508661182c565b60005b82811015611a7857848901518255600182019150602085019450602081019050611a53565b86831015611a955784890151611a91601f89168261199e565b8355505b6001600288020188555050505b50505050505056fea2646970667358221220503f800463a379a18b097421842ed4718522b78ad05a9044d8d4ad282e57649564736f6c63430008120033",
					"opcodes": "PUSH1 0x80 PUSH1 0x40 MSTORE CALLVALUE DUP1 ISZERO PUSH2 0x10 JUMPI PUSH1 0x0 DUP1 REVERT JUMPDEST POP PUSH2 0x1AE0 DUP1 PUSH2 0x20 PUSH1 0x0 CODECOPY PUSH1 0x0 RETURN INVALID PUSH1 0x80 PUSH1 0x40 MSTORE CALLVALUE DUP1 ISZERO PUSH2 0x10 JUMPI PUSH1 0x0 DUP1 REVERT JUMPDEST POP PUSH1 0x4 CALLDATASIZE LT PUSH2 0x100 JUMPI PUSH1 0x0 CALLDATALOAD PUSH1 0xE0 SHR DUP1 PUSH4 0x91CBFB41 GT PUSH2 0x97 JUMPI DUP1 PUSH4 0xCF094497 GT PUSH2 0x66 JUMPI DUP1 PUSH4 0xCF094497 EQ PUSH2 0x300 JUMPI DUP1 PUSH4 0xD624D6FD EQ PUSH2 0x31E JUMPI DUP1 PUSH4 0xE3EED5C9 EQ PUSH2 0x33A JUMPI DUP1 PUSH4 0xED8C2AED EQ PUSH2 0x36A JUMPI PUSH2 0x100 JUMP JUMPDEST DUP1 PUSH4 0x91CBFB41 EQ PUSH2 0x24E JUMPI DUP1 PUSH4 0x9207891D EQ PUSH2 0x27E JUMPI DUP1 PUSH4 0xAC2F0074 EQ PUSH2 0x29C JUMPI DUP1 PUSH4 0xBBFF7166 EQ PUSH2 0x2D0 JUMPI PUSH2 0x100 JUMP JUMPDEST DUP1 PUSH4 0x46F86716 GT PUSH2 0xD3 JUMPI DUP1 PUSH4 0x46F86716 EQ PUSH2 0x1C8 JUMPI DUP1 PUSH4 0x4C3C234F EQ PUSH2 0x1F8 JUMPI DUP1 PUSH4 0x6B7128EC EQ PUSH2 0x214 JUMPI DUP1 PUSH4 0x6F4A2CD0 EQ PUSH2 0x244 JUMPI PUSH2 0x100 JUMP JUMPDEST DUP1 PUSH4 0x6455F5E EQ PUSH2 0x105 JUMPI DUP1 PUSH4 0x27E235E3 EQ PUSH2 0x135 JUMPI DUP1 PUSH4 0x420700F6 EQ PUSH2 0x165 JUMPI DUP1 PUSH4 0x43859632 EQ PUSH2 0x198 JUMPI JUMPDEST PUSH1 0x0 DUP1 REVERT JUMPDEST PUSH2 0x11F PUSH1 0x4 DUP1 CALLDATASIZE SUB DUP2 ADD SWAP1 PUSH2 0x11A SWAP2 SWAP1 PUSH2 0xD06 JUMP JUMPDEST PUSH2 0x374 JUMP JUMPDEST PUSH1 0x40 MLOAD PUSH2 0x12C SWAP2 SWAP1 PUSH2 0xD55 JUMP JUMPDEST PUSH1 0x40 MLOAD DUP1 SWAP2 SUB SWAP1 RETURN JUMPDEST PUSH2 0x14F PUSH1 0x4 DUP1 CALLDATASIZE SUB DUP2 ADD SWAP1 PUSH2 0x14A SWAP2 SWAP1 PUSH2 0xD70 JUMP JUMPDEST PUSH2 0x399 JUMP JUMPDEST PUSH1 0x40 MLOAD PUSH2 0x15C SWAP2 SWAP1 PUSH2 0xD55 JUMP JUMPDEST PUSH1 0x40 MLOAD DUP1 SWAP2 SUB SWAP1 RETURN JUMPDEST PUSH2 0x17F PUSH1 0x4 DUP1 CALLDATASIZE SUB DUP2 ADD SWAP1 PUSH2 0x17A SWAP2 SWAP1 PUSH2 0xD9D JUMP JUMPDEST PUSH2 0x3B1 JUMP JUMPDEST PUSH1 0x40 MLOAD PUSH2 0x18F SWAP5 SWAP4 SWAP3 SWAP2 SWAP1 PUSH2 0xE7C JUMP JUMPDEST PUSH1 0x40 MLOAD DUP1 SWAP2 SUB SWAP1 RETURN JUMPDEST PUSH2 0x1B2 PUSH1 0x4 DUP1 CALLDATASIZE SUB DUP2 ADD SWAP1 PUSH2 0x1AD SWAP2 SWAP1 PUSH2 0xD06 JUMP JUMPDEST PUSH2 0x4A6 JUMP JUMPDEST PUSH1 0x40 MLOAD PUSH2 0x1BF SWAP2 SWAP1 PUSH2 0xEE3 JUMP JUMPDEST PUSH1 0x40 MLOAD DUP1 SWAP2 SUB SWAP1 RETURN JUMPDEST PUSH2 0x1E2 PUSH1 0x4 DUP1 CALLDATASIZE SUB DUP2 ADD SWAP1 PUSH2 0x1DD SWAP2 SWAP1 PUSH2 0xEFE JUMP JUMPDEST PUSH2 0x4D5 JUMP JUMPDEST PUSH1 0x40 MLOAD PUSH2 0x1EF SWAP2 SWAP1 PUSH2 0xD55 JUMP JUMPDEST PUSH1 0x40 MLOAD DUP1 SWAP2 SUB SWAP1 RETURN JUMPDEST PUSH2 0x212 PUSH1 0x4 DUP1 CALLDATASIZE SUB DUP2 ADD SWAP1 PUSH2 0x20D SWAP2 SWAP1 PUSH2 0xD9D JUMP JUMPDEST PUSH2 0x4ED JUMP JUMPDEST STOP JUMPDEST PUSH2 0x22E PUSH1 0x4 DUP1 CALLDATASIZE SUB DUP2 ADD SWAP1 PUSH2 0x229 SWAP2 SWAP1 PUSH2 0xEFE JUMP JUMPDEST PUSH2 0x76C JUMP JUMPDEST PUSH1 0x40 MLOAD PUSH2 0x23B SWAP2 SWAP1 PUSH2 0xD55 JUMP JUMPDEST PUSH1 0x40 MLOAD DUP1 SWAP2 SUB SWAP1 RETURN JUMPDEST PUSH2 0x24C PUSH2 0x78C JUMP JUMPDEST STOP JUMPDEST PUSH2 0x268 PUSH1 0x4 DUP1 CALLDATASIZE SUB DUP2 ADD SWAP1 PUSH2 0x263 SWAP2 SWAP1 PUSH2 0xD9D JUMP JUMPDEST PUSH2 0x78E JUMP JUMPDEST PUSH1 0x40 MLOAD PUSH2 0x275 SWAP2 SWAP1 PUSH2 0xD55 JUMP JUMPDEST PUSH1 0x40 MLOAD DUP1 SWAP2 SUB SWAP1 RETURN JUMPDEST PUSH2 0x286 PUSH2 0x7BF JUMP JUMPDEST PUSH1 0x40 MLOAD PUSH2 0x293 SWAP2 SWAP1 PUSH2 0xD55 JUMP JUMPDEST PUSH1 0x40 MLOAD DUP1 SWAP2 SUB SWAP1 RETURN JUMPDEST PUSH2 0x2B6 PUSH1 0x4 DUP1 CALLDATASIZE SUB DUP2 ADD SWAP1 PUSH2 0x2B1 SWAP2 SWAP1 PUSH2 0xEFE JUMP JUMPDEST PUSH2 0x7C5 JUMP JUMPDEST PUSH1 0x40 MLOAD PUSH2 0x2C7 SWAP6 SWAP5 SWAP4 SWAP3 SWAP2 SWAP1 PUSH2 0xF2B JUMP JUMPDEST PUSH1 0x40 MLOAD DUP1 SWAP2 SUB SWAP1 RETURN JUMPDEST PUSH2 0x2EA PUSH1 0x4 DUP1 CALLDATASIZE SUB DUP2 ADD SWAP1 PUSH2 0x2E5 SWAP2 SWAP1 PUSH2 0xEFE JUMP JUMPDEST PUSH2 0x838 JUMP JUMPDEST PUSH1 0x40 MLOAD PUSH2 0x2F7 SWAP2 SWAP1 PUSH2 0x103C JUMP JUMPDEST PUSH1 0x40 MLOAD DUP1 SWAP2 SUB SWAP1 RETURN JUMPDEST PUSH2 0x308 PUSH2 0x966 JUMP JUMPDEST PUSH1 0x40 MLOAD PUSH2 0x315 SWAP2 SWAP1 PUSH2 0xD55 JUMP JUMPDEST PUSH1 0x40 MLOAD DUP1 SWAP2 SUB SWAP1 RETURN JUMPDEST PUSH2 0x338 PUSH1 0x4 DUP1 CALLDATASIZE SUB DUP2 ADD SWAP1 PUSH2 0x333 SWAP2 SWAP1 PUSH2 0x1279 JUMP JUMPDEST PUSH2 0x96C JUMP JUMPDEST STOP JUMPDEST PUSH2 0x354 PUSH1 0x4 DUP1 CALLDATASIZE SUB DUP2 ADD SWAP1 PUSH2 0x34F SWAP2 SWAP1 PUSH2 0xD9D JUMP JUMPDEST PUSH2 0xB7A JUMP JUMPDEST PUSH1 0x40 MLOAD PUSH2 0x361 SWAP2 SWAP1 PUSH2 0xD55 JUMP JUMPDEST PUSH1 0x40 MLOAD DUP1 SWAP2 SUB SWAP1 RETURN JUMPDEST PUSH2 0x372 PUSH2 0xB82 JUMP JUMPDEST STOP JUMPDEST PUSH1 0x3 PUSH1 0x20 MSTORE DUP2 PUSH1 0x0 MSTORE PUSH1 0x40 PUSH1 0x0 KECCAK256 PUSH1 0x20 MSTORE DUP1 PUSH1 0x0 MSTORE PUSH1 0x40 PUSH1 0x0 KECCAK256 PUSH1 0x0 SWAP2 POP SWAP2 POP POP SLOAD DUP2 JUMP JUMPDEST PUSH1 0x5 PUSH1 0x20 MSTORE DUP1 PUSH1 0x0 MSTORE PUSH1 0x40 PUSH1 0x0 KECCAK256 PUSH1 0x0 SWAP2 POP SWAP1 POP SLOAD DUP2 JUMP JUMPDEST PUSH1 0x6 PUSH1 0x20 MSTORE DUP2 PUSH1 0x0 MSTORE PUSH1 0x40 PUSH1 0x0 KECCAK256 DUP2 DUP2 SLOAD DUP2 LT PUSH2 0x3CD JUMPI PUSH1 0x0 DUP1 REVERT JUMPDEST SWAP1 PUSH1 0x0 MSTORE PUSH1 0x20 PUSH1 0x0 KECCAK256 SWAP1 PUSH1 0x4 MUL ADD PUSH1 0x0 SWAP2 POP SWAP2 POP POP DUP1 PUSH1 0x0 ADD SLOAD SWAP1 DUP1 PUSH1 0x1 ADD DUP1 SLOAD PUSH2 0x3F7 SWAP1 PUSH2 0x1317 JUMP JUMPDEST DUP1 PUSH1 0x1F ADD PUSH1 0x20 DUP1 SWAP2 DIV MUL PUSH1 0x20 ADD PUSH1 0x40 MLOAD SWAP1 DUP2 ADD PUSH1 0x40 MSTORE DUP1 SWAP3 SWAP2 SWAP1 DUP2 DUP2 MSTORE PUSH1 0x20 ADD DUP3 DUP1 SLOAD PUSH2 0x423 SWAP1 PUSH2 0x1317 JUMP JUMPDEST DUP1 ISZERO PUSH2 0x470 JUMPI DUP1 PUSH1 0x1F LT PUSH2 0x445 JUMPI PUSH2 0x100 DUP1 DUP4 SLOAD DIV MUL DUP4 MSTORE SWAP2 PUSH1 0x20 ADD SWAP2 PUSH2 0x470 JUMP JUMPDEST DUP3 ADD SWAP2 SWAP1 PUSH1 0x0 MSTORE PUSH1 0x20 PUSH1 0x0 KECCAK256 SWAP1 JUMPDEST DUP2 SLOAD DUP2 MSTORE SWAP1 PUSH1 0x1 ADD SWAP1 PUSH1 0x20 ADD DUP1 DUP4 GT PUSH2 0x453 JUMPI DUP3 SWAP1 SUB PUSH1 0x1F AND DUP3 ADD SWAP2 JUMPDEST POP POP POP POP POP SWAP1 DUP1 PUSH1 0x2 ADD PUSH1 0x0 SWAP1 SLOAD SWAP1 PUSH2 0x100 EXP SWAP1 DIV PUSH20 0xFFFFFFFFFFFFFFFFFFFFFFFFFFFFFFFFFFFFFFFF AND SWAP1 DUP1 PUSH1 0x3 ADD SLOAD SWAP1 POP DUP5 JUMP JUMPDEST PUSH1 0x7 PUSH1 0x20 MSTORE DUP2 PUSH1 0x0 MSTORE PUSH1 0x40 PUSH1 0x0 KECCAK256 PUSH1 0x20 MSTORE DUP1 PUSH1 0x0 MSTORE PUSH1 0x40 PUSH1 0x0 KECCAK256 PUSH1 0x0 SWAP2 POP SWAP2 POP SWAP1 SLOAD SWAP1 PUSH2 0x100 EXP SWAP1 DIV PUSH1 0xFF AND DUP2 JUMP JUMPDEST PUSH1 0x2 PUSH1 0x20 MSTORE DUP1 PUSH1 0x0 MSTORE PUSH1 0x40 PUSH1 0x0 KECCAK256 PUSH1 0x0 SWAP2 POP SWAP1 POP SLOAD DUP2 JUMP JUMPDEST PUSH1 0x0 PUSH1 0x8 DUP4 DUP2 SLOAD DUP2 LT PUSH2 0x503 JUMPI PUSH2 0x502 PUSH2 0x1348 JUMP JUMPDEST JUMPDEST SWAP1 PUSH1 0x0 MSTORE PUSH1 0x20 PUSH1 0x0 KECCAK256 SWAP1 PUSH1 0x6 MUL ADD SWAP1 POP PUSH1 0x7 PUSH1 0x0 DUP5 DUP2 MSTORE PUSH1 0x20 ADD SWAP1 DUP2 MSTORE PUSH1 0x20 ADD PUSH1 0x0 KECCAK256 PUSH1 0x0 CALLER PUSH20 0xFFFFFFFFFFFFFFFFFFFFFFFFFFFFFFFFFFFFFFFF AND PUSH20 0xFFFFFFFFFFFFFFFFFFFFFFFFFFFFFFFFFFFFFFFF AND DUP2 MSTORE PUSH1 0x20 ADD SWAP1 DUP2 MSTORE PUSH1 0x20 ADD PUSH1 0x0 KECCAK256 PUSH1 0x0 SWAP1 SLOAD SWAP1 PUSH2 0x100 EXP SWAP1 DIV PUSH1 0xFF AND ISZERO PUSH2 0x5B1 JUMPI PUSH1 0x40 MLOAD PUSH32 0x8C379A000000000000000000000000000000000000000000000000000000000 DUP2 MSTORE PUSH1 0x4 ADD PUSH2 0x5A8 SWAP1 PUSH2 0x13C3 JUMP JUMPDEST PUSH1 0x40 MLOAD DUP1 SWAP2 SUB SWAP1 REVERT JUMPDEST DUP1 PUSH1 0x5 ADD PUSH1 0x0 SWAP1 SLOAD SWAP1 PUSH2 0x100 EXP SWAP1 DIV PUSH1 0xFF AND PUSH2 0x602 JUMPI PUSH1 0x40 MLOAD PUSH32 0x8C379A000000000000000000000000000000000000000000000000000000000 DUP2 MSTORE PUSH1 0x4 ADD PUSH2 0x5F9 SWAP1 PUSH2 0x142F JUMP JUMPDEST PUSH1 0x40 MLOAD DUP1 SWAP2 SUB SWAP1 REVERT JUMPDEST DUP1 PUSH1 0x2 ADD SLOAD TIMESTAMP LT ISZERO DUP1 ISZERO PUSH2 0x61A JUMPI POP DUP1 PUSH1 0x3 ADD SLOAD TIMESTAMP GT ISZERO JUMPDEST PUSH2 0x659 JUMPI PUSH1 0x40 MLOAD PUSH32 0x8C379A000000000000000000000000000000000000000000000000000000000 DUP2 MSTORE PUSH1 0x4 ADD PUSH2 0x650 SWAP1 PUSH2 0x149B JUMP JUMPDEST PUSH1 0x40 MLOAD DUP1 SWAP2 SUB SWAP1 REVERT JUMPDEST PUSH1 0x0 DUP3 LT ISZERO DUP1 ISZERO PUSH2 0x670 JUMPI POP DUP1 PUSH1 0x4 ADD DUP1 SLOAD SWAP1 POP DUP3 LT JUMPDEST PUSH2 0x6AF JUMPI PUSH1 0x40 MLOAD PUSH32 0x8C379A000000000000000000000000000000000000000000000000000000000 DUP2 MSTORE PUSH1 0x4 ADD PUSH2 0x6A6 SWAP1 PUSH2 0x1507 JUMP JUMPDEST PUSH1 0x40 MLOAD DUP1 SWAP2 SUB SWAP1 REVERT JUMPDEST PUSH1 0x1 PUSH1 0x7 PUSH1 0x0 DUP6 DUP2 MSTORE PUSH1 0x20 ADD SWAP1 DUP2 MSTORE PUSH1 0x20 ADD PUSH1 0x0 KECCAK256 PUSH1 0x0 CALLER PUSH20 0xFFFFFFFFFFFFFFFFFFFFFFFFFFFFFFFFFFFFFFFF AND PUSH20 0xFFFFFFFFFFFFFFFFFFFFFFFFFFFFFFFFFFFFFFFF AND DUP2 MSTORE PUSH1 0x20 ADD SWAP1 DUP2 MSTORE PUSH1 0x20 ADD PUSH1 0x0 KECCAK256 PUSH1 0x0 PUSH2 0x100 EXP DUP2 SLOAD DUP2 PUSH1 0xFF MUL NOT AND SWAP1 DUP4 ISZERO ISZERO MUL OR SWAP1 SSTORE POP CALLER PUSH20 0xFFFFFFFFFFFFFFFFFFFFFFFFFFFFFFFFFFFFFFFF AND DUP4 PUSH32 0xE7EE74CA1F4BB1B82B14F87794C45B3E59C39E372B862FB97A6316B43355B69E DUP5 PUSH1 0x40 MLOAD PUSH2 0x75F SWAP2 SWAP1 PUSH2 0xD55 JUMP JUMPDEST PUSH1 0x40 MLOAD DUP1 SWAP2 SUB SWAP1 LOG3 POP POP POP JUMP JUMPDEST PUSH1 0x0 PUSH1 0x6 PUSH1 0x0 DUP4 DUP2 MSTORE PUSH1 0x20 ADD SWAP1 DUP2 MSTORE PUSH1 0x20 ADD PUSH1 0x0 KECCAK256 DUP1 SLOAD SWAP1 POP SWAP1 POP SWAP2 SWAP1 POP JUMP JUMPDEST JUMP JUMPDEST PUSH1 0x4 PUSH1 0x20 MSTORE DUP2 PUSH1 0x0 MSTORE PUSH1 0x40 PUSH1 0x0 KECCAK256 DUP2 DUP2 SLOAD DUP2 LT PUSH2 0x7AA JUMPI PUSH1 0x0 DUP1 REVERT JUMPDEST SWAP1 PUSH1 0x0 MSTORE PUSH1 0x20 PUSH1 0x0 KECCAK256 ADD PUSH1 0x0 SWAP2 POP SWAP2 POP POP SLOAD DUP2 JUMP JUMPDEST PUSH1 0x0 SLOAD DUP2 JUMP JUMPDEST PUSH1 0x8 DUP2 DUP2 SLOAD DUP2 LT PUSH2 0x7D5 JUMPI PUSH1 0x0 DUP1 REVERT JUMPDEST SWAP1 PUSH1 0x0 MSTORE PUSH1 0x20 PUSH1 0x0 KECCAK256 SWAP1 PUSH1 0x6 MUL ADD PUSH1 0x0 SWAP2 POP SWAP1 POP DUP1 PUSH1 0x0 ADD SLOAD SWAP1 DUP1 PUSH1 0x1 ADD PUSH1 0x0 SWAP1 SLOAD SWAP1 PUSH2 0x100 EXP SWAP1 DIV PUSH20 0xFFFFFFFFFFFFFFFFFFFFFFFFFFFFFFFFFFFFFFFF AND SWAP1 DUP1 PUSH1 0x2 ADD SLOAD SWAP1 DUP1 PUSH1 0x3 ADD SLOAD SWAP1 DUP1 PUSH1 0x5 ADD PUSH1 0x0 SWAP1 SLOAD SWAP1 PUSH2 0x100 EXP SWAP1 DIV PUSH1 0xFF AND SWAP1 POP DUP6 JUMP JUMPDEST PUSH1 0x60 PUSH1 0x8 DUP3 DUP2 SLOAD DUP2 LT PUSH2 0x84E JUMPI PUSH2 0x84D PUSH2 0x1348 JUMP JUMPDEST JUMPDEST SWAP1 PUSH1 0x0 MSTORE PUSH1 0x20 PUSH1 0x0 KECCAK256 SWAP1 PUSH1 0x6 MUL ADD PUSH1 0x3 ADD SLOAD TIMESTAMP GT PUSH2 0x8A1 JUMPI PUSH1 0x40 MLOAD PUSH32 0x8C379A000000000000000000000000000000000000000000000000000000000 DUP2 MSTORE PUSH1 0x4 ADD PUSH2 0x898 SWAP1 PUSH2 0x1573 JUMP JUMPDEST PUSH1 0x40 MLOAD DUP1 SWAP2 SUB SWAP1 REVERT JUMPDEST PUSH1 0x0 PUSH1 0x8 DUP4 DUP2 SLOAD DUP2 LT PUSH2 0x8B7 JUMPI PUSH2 0x8B6 PUSH2 0x1348 JUMP JUMPDEST JUMPDEST SWAP1 PUSH1 0x0 MSTORE PUSH1 0x20 PUSH1 0x0 KECCAK256 SWAP1 PUSH1 0x6 MUL ADD PUSH1 0x4 ADD DUP1 SLOAD SWAP1 POP PUSH8 0xFFFFFFFFFFFFFFFF DUP2 GT ISZERO PUSH2 0x8E5 JUMPI PUSH2 0x8E4 PUSH2 0x1063 JUMP JUMPDEST JUMPDEST PUSH1 0x40 MLOAD SWAP1 DUP1 DUP3 MSTORE DUP1 PUSH1 0x20 MUL PUSH1 0x20 ADD DUP3 ADD PUSH1 0x40 MSTORE DUP1 ISZERO PUSH2 0x913 JUMPI DUP2 PUSH1 0x20 ADD PUSH1 0x20 DUP3 MUL DUP1 CALLDATASIZE DUP4 CALLDATACOPY DUP1 DUP3 ADD SWAP2 POP POP SWAP1 POP JUMPDEST POP SWAP1 POP PUSH1 0x0 JUMPDEST PUSH1 0x8 DUP5 DUP2 SLOAD DUP2 LT PUSH2 0x92D JUMPI PUSH2 0x92C PUSH2 0x1348 JUMP JUMPDEST JUMPDEST SWAP1 PUSH1 0x0 MSTORE PUSH1 0x20 PUSH1 0x0 KECCAK256 SWAP1 PUSH1 0x6 MUL ADD PUSH1 0x4 ADD DUP1 SLOAD SWAP1 POP DUP2 LT ISZERO PUSH2 0x95C JUMPI DUP1 DUP1 PUSH2 0x954 SWAP1 PUSH2 0x15C2 JUMP JUMPDEST SWAP2 POP POP PUSH2 0x919 JUMP JUMPDEST POP DUP1 SWAP2 POP POP SWAP2 SWAP1 POP JUMP JUMPDEST PUSH1 0x1 SLOAD DUP2 JUMP JUMPDEST DUP3 DUP3 GT PUSH2 0x9AE JUMPI PUSH1 0x40 MLOAD PUSH32 0x8C379A000000000000000000000000000000000000000000000000000000000 DUP2 MSTORE PUSH1 0x4 ADD PUSH2 0x9A5 SWAP1 PUSH2 0x1656 JUMP JUMPDEST PUSH1 0x40 MLOAD DUP1 SWAP2 SUB SWAP1 REVERT JUMPDEST PUSH1 0x1 DUP2 MLOAD GT PUSH2 0x9F2 JUMPI PUSH1 0x40 MLOAD PUSH32 0x8C379A000000000000000000000000000000000000000000000000000000000 DUP2 MSTORE PUSH1 0x4 ADD PUSH2 0x9E9 SWAP1 PUSH2 0x16C2 JUMP JUMPDEST PUSH1 0x40 MLOAD DUP1 SWAP2 SUB SWAP1 REVERT JUMPDEST PUSH1 0x0 DUP1 DUP2 SLOAD DUP1 SWAP3 SWAP2 SWAP1 PUSH2 0xA04 SWAP1 PUSH2 0x15C2 JUMP JUMPDEST SWAP2 SWAP1 POP SSTORE POP PUSH1 0x0 PUSH1 0x40 MLOAD DUP1 PUSH1 0xC0 ADD PUSH1 0x40 MSTORE DUP1 PUSH1 0x0 SLOAD DUP2 MSTORE PUSH1 0x20 ADD CALLER PUSH20 0xFFFFFFFFFFFFFFFFFFFFFFFFFFFFFFFFFFFFFFFF AND DUP2 MSTORE PUSH1 0x20 ADD DUP6 DUP2 MSTORE PUSH1 0x20 ADD DUP5 DUP2 MSTORE PUSH1 0x20 ADD DUP4 DUP2 MSTORE PUSH1 0x20 ADD PUSH1 0x1 ISZERO ISZERO DUP2 MSTORE POP SWAP1 POP DUP1 PUSH1 0x8 PUSH1 0x0 SLOAD DUP2 SLOAD DUP2 LT PUSH2 0xA6C JUMPI PUSH2 0xA6B PUSH2 0x1348 JUMP JUMPDEST JUMPDEST SWAP1 PUSH1 0x0 MSTORE PUSH1 0x20 PUSH1 0x0 KECCAK256 SWAP1 PUSH1 0x6 MUL ADD PUSH1 0x0 DUP3 ADD MLOAD DUP2 PUSH1 0x0 ADD SSTORE PUSH1 0x20 DUP3 ADD MLOAD DUP2 PUSH1 0x1 ADD PUSH1 0x0 PUSH2 0x100 EXP DUP2 SLOAD DUP2 PUSH20 0xFFFFFFFFFFFFFFFFFFFFFFFFFFFFFFFFFFFFFFFF MUL NOT AND SWAP1 DUP4 PUSH20 0xFFFFFFFFFFFFFFFFFFFFFFFFFFFFFFFFFFFFFFFF AND MUL OR SWAP1 SSTORE POP PUSH1 0x40 DUP3 ADD MLOAD DUP2 PUSH1 0x2 ADD SSTORE PUSH1 0x60 DUP3 ADD MLOAD DUP2 PUSH1 0x3 ADD SSTORE PUSH1 0x80 DUP3 ADD MLOAD DUP2 PUSH1 0x4 ADD SWAP1 DUP1 MLOAD SWAP1 PUSH1 0x20 ADD SWAP1 PUSH2 0xAFB SWAP3 SWAP2 SWAP1 PUSH2 0xB84 JUMP JUMPDEST POP PUSH1 0xA0 DUP3 ADD MLOAD DUP2 PUSH1 0x5 ADD PUSH1 0x0 PUSH2 0x100 EXP DUP2 SLOAD DUP2 PUSH1 0xFF MUL NOT AND SWAP1 DUP4 ISZERO ISZERO MUL OR SWAP1 SSTORE POP SWAP1 POP POP CALLER PUSH20 0xFFFFFFFFFFFFFFFFFFFFFFFFFFFFFFFFFFFFFFFF AND PUSH1 0x0 SLOAD PUSH32 0x58D87E181E9AC91F8CCDA34CAAF4C15DB2A9FC345A86EA48E378D6E4359DFDB9 DUP7 DUP7 DUP7 PUSH1 0x40 MLOAD PUSH2 0xB6C SWAP4 SWAP3 SWAP2 SWAP1 PUSH2 0x17EE JUMP JUMPDEST PUSH1 0x40 MLOAD DUP1 SWAP2 SUB SWAP1 LOG3 POP POP POP POP JUMP JUMPDEST PUSH1 0x0 SWAP3 SWAP2 POP POP JUMP JUMPDEST JUMP JUMPDEST DUP3 DUP1 SLOAD DUP3 DUP3 SSTORE SWAP1 PUSH1 0x0 MSTORE PUSH1 0x20 PUSH1 0x0 KECCAK256 SWAP1 DUP2 ADD SWAP3 DUP3 ISZERO PUSH2 0xBCC JUMPI SWAP2 PUSH1 0x20 MUL DUP3 ADD JUMPDEST DUP3 DUP2 GT ISZERO PUSH2 0xBCB JUMPI DUP3 MLOAD DUP3 SWAP1 DUP2 PUSH2 0xBBB SWAP2 SWAP1 PUSH2 0x19D8 JUMP JUMPDEST POP SWAP2 PUSH1 0x20 ADD SWAP2 SWAP1 PUSH1 0x1 ADD SWAP1 PUSH2 0xBA4 JUMP JUMPDEST JUMPDEST POP SWAP1 POP PUSH2 0xBD9 SWAP2 SWAP1 PUSH2 0xBDD JUMP JUMPDEST POP SWAP1 JUMP JUMPDEST JUMPDEST DUP1 DUP3 GT ISZERO PUSH2 0xBFD JUMPI PUSH1 0x0 DUP2 DUP2 PUSH2 0xBF4 SWAP2 SWAP1 PUSH2 0xC01 JUMP JUMPDEST POP PUSH1 0x1 ADD PUSH2 0xBDE JUMP JUMPDEST POP SWAP1 JUMP JUMPDEST POP DUP1 SLOAD PUSH2 0xC0D SWAP1 PUSH2 0x1317 JUMP JUMPDEST PUSH1 0x0 DUP3 SSTORE DUP1 PUSH1 0x1F LT PUSH2 0xC1F JUMPI POP PUSH2 0xC3E JUMP JUMPDEST PUSH1 0x1F ADD PUSH1 0x20 SWAP1 DIV SWAP1 PUSH1 0x0 MSTORE PUSH1 0x20 PUSH1 0x0 KECCAK256 SWAP1 DUP2 ADD SWAP1 PUSH2 0xC3D SWAP2 SWAP1 PUSH2 0xC41 JUMP JUMPDEST JUMPDEST POP JUMP JUMPDEST JUMPDEST DUP1 DUP3 GT ISZERO PUSH2 0xC5A JUMPI PUSH1 0x0 DUP2 PUSH1 0x0 SWAP1 SSTORE POP PUSH1 0x1 ADD PUSH2 0xC42 JUMP JUMPDEST POP SWAP1 JUMP JUMPDEST PUSH1 0x0 PUSH1 0x40 MLOAD SWAP1 POP SWAP1 JUMP JUMPDEST PUSH1 0x0 DUP1 REVERT JUMPDEST PUSH1 0x0 DUP1 REVERT JUMPDEST PUSH1 0x0 DUP2 SWAP1 POP SWAP2 SWAP1 POP JUMP JUMPDEST PUSH2 0xC85 DUP2 PUSH2 0xC72 JUMP JUMPDEST DUP2 EQ PUSH2 0xC90 JUMPI PUSH1 0x0 DUP1 REVERT JUMPDEST POP JUMP JUMPDEST PUSH1 0x0 DUP2 CALLDATALOAD SWAP1 POP PUSH2 0xCA2 DUP2 PUSH2 0xC7C JUMP JUMPDEST SWAP3 SWAP2 POP POP JUMP JUMPDEST PUSH1 0x0 PUSH20 0xFFFFFFFFFFFFFFFFFFFFFFFFFFFFFFFFFFFFFFFF DUP3 AND SWAP1 POP SWAP2 SWAP1 POP JUMP JUMPDEST PUSH1 0x0 PUSH2 0xCD3 DUP3 PUSH2 0xCA8 JUMP JUMPDEST SWAP1 POP SWAP2 SWAP1 POP JUMP JUMPDEST PUSH2 0xCE3 DUP2 PUSH2 0xCC8 JUMP JUMPDEST DUP2 EQ PUSH2 0xCEE JUMPI PUSH1 0x0 DUP1 REVERT JUMPDEST POP JUMP JUMPDEST PUSH1 0x0 DUP2 CALLDATALOAD SWAP1 POP PUSH2 0xD00 DUP2 PUSH2 0xCDA JUMP JUMPDEST SWAP3 SWAP2 POP POP JUMP JUMPDEST PUSH1 0x0 DUP1 PUSH1 0x40 DUP4 DUP6 SUB SLT ISZERO PUSH2 0xD1D JUMPI PUSH2 0xD1C PUSH2 0xC68 JUMP JUMPDEST JUMPDEST PUSH1 0x0 PUSH2 0xD2B DUP6 DUP3 DUP7 ADD PUSH2 0xC93 JUMP JUMPDEST SWAP3 POP POP PUSH1 0x20 PUSH2 0xD3C DUP6 DUP3 DUP7 ADD PUSH2 0xCF1 JUMP JUMPDEST SWAP2 POP POP SWAP3 POP SWAP3 SWAP1 POP JUMP JUMPDEST PUSH2 0xD4F DUP2 PUSH2 0xC72 JUMP JUMPDEST DUP3 MSTORE POP POP JUMP JUMPDEST PUSH1 0x0 PUSH1 0x20 DUP3 ADD SWAP1 POP PUSH2 0xD6A PUSH1 0x0 DUP4 ADD DUP5 PUSH2 0xD46 JUMP JUMPDEST SWAP3 SWAP2 POP POP JUMP JUMPDEST PUSH1 0x0 PUSH1 0x20 DUP3 DUP5 SUB SLT ISZERO PUSH2 0xD86 JUMPI PUSH2 0xD85 PUSH2 0xC68 JUMP JUMPDEST JUMPDEST PUSH1 0x0 PUSH2 0xD94 DUP5 DUP3 DUP6 ADD PUSH2 0xCF1 JUMP JUMPDEST SWAP2 POP POP SWAP3 SWAP2 POP POP JUMP JUMPDEST PUSH1 0x0 DUP1 PUSH1 0x40 DUP4 DUP6 SUB SLT ISZERO PUSH2 0xDB4 JUMPI PUSH2 0xDB3 PUSH2 0xC68 JUMP JUMPDEST JUMPDEST PUSH1 0x0 PUSH2 0xDC2 DUP6 DUP3 DUP7 ADD PUSH2 0xC93 JUMP JUMPDEST SWAP3 POP POP PUSH1 0x20 PUSH2 0xDD3 DUP6 DUP3 DUP7 ADD PUSH2 0xC93 JUMP JUMPDEST SWAP2 POP POP SWAP3 POP SWAP3 SWAP1 POP JUMP JUMPDEST PUSH1 0x0 DUP2 MLOAD SWAP1 POP SWAP2 SWAP1 POP JUMP JUMPDEST PUSH1 0x0 DUP3 DUP3 MSTORE PUSH1 0x20 DUP3 ADD SWAP1 POP SWAP3 SWAP2 POP POP JUMP JUMPDEST PUSH1 0x0 JUMPDEST DUP4 DUP2 LT ISZERO PUSH2 0xE17 JUMPI DUP1 DUP3 ADD MLOAD DUP2 DUP5 ADD MSTORE PUSH1 0x20 DUP2 ADD SWAP1 POP PUSH2 0xDFC JUMP JUMPDEST PUSH1 0x0 DUP5 DUP5 ADD MSTORE POP POP POP POP JUMP JUMPDEST PUSH1 0x0 PUSH1 0x1F NOT PUSH1 0x1F DUP4 ADD AND SWAP1 POP SWAP2 SWAP1 POP JUMP JUMPDEST PUSH1 0x0 PUSH2 0xE3F DUP3 PUSH2 0xDDD JUMP JUMPDEST PUSH2 0xE49 DUP2 DUP6 PUSH2 0xDE8 JUMP JUMPDEST SWAP4 POP PUSH2 0xE59 DUP2 DUP6 PUSH1 0x20 DUP7 ADD PUSH2 0xDF9 JUMP JUMPDEST PUSH2 0xE62 DUP2 PUSH2 0xE23 JUMP JUMPDEST DUP5 ADD SWAP2 POP POP SWAP3 SWAP2 POP POP JUMP JUMPDEST PUSH2 0xE76 DUP2 PUSH2 0xCC8 JUMP JUMPDEST DUP3 MSTORE POP POP JUMP JUMPDEST PUSH1 0x0 PUSH1 0x80 DUP3 ADD SWAP1 POP PUSH2 0xE91 PUSH1 0x0 DUP4 ADD DUP8 PUSH2 0xD46 JUMP JUMPDEST DUP2 DUP2 SUB PUSH1 0x20 DUP4 ADD MSTORE PUSH2 0xEA3 DUP2 DUP7 PUSH2 0xE34 JUMP JUMPDEST SWAP1 POP PUSH2 0xEB2 PUSH1 0x40 DUP4 ADD DUP6 PUSH2 0xE6D JUMP JUMPDEST PUSH2 0xEBF PUSH1 0x60 DUP4 ADD DUP5 PUSH2 0xD46 JUMP JUMPDEST SWAP6 SWAP5 POP POP POP POP POP JUMP JUMPDEST PUSH1 0x0 DUP2 ISZERO ISZERO SWAP1 POP SWAP2 SWAP1 POP JUMP JUMPDEST PUSH2 0xEDD DUP2 PUSH2 0xEC8 JUMP JUMPDEST DUP3 MSTORE POP POP JUMP JUMPDEST PUSH1 0x0 PUSH1 0x20 DUP3 ADD SWAP1 POP PUSH2 0xEF8 PUSH1 0x0 DUP4 ADD DUP5 PUSH2 0xED4 JUMP JUMPDEST SWAP3 SWAP2 POP POP JUMP JUMPDEST PUSH1 0x0 PUSH1 0x20 DUP3 DUP5 SUB SLT ISZERO PUSH2 0xF14 JUMPI PUSH2 0xF13 PUSH2 0xC68 JUMP JUMPDEST JUMPDEST PUSH1 0x0 PUSH2 0xF22 DUP5 DUP3 DUP6 ADD PUSH2 0xC93 JUMP JUMPDEST SWAP2 POP POP SWAP3 SWAP2 POP POP JUMP JUMPDEST PUSH1 0x0 PUSH1 0xA0 DUP3 ADD SWAP1 POP PUSH2 0xF40 PUSH1 0x0 DUP4 ADD DUP9 PUSH2 0xD46 JUMP JUMPDEST PUSH2 0xF4D PUSH1 0x20 DUP4 ADD DUP8 PUSH2 0xE6D JUMP JUMPDEST PUSH2 0xF5A PUSH1 0x40 DUP4 ADD DUP7 PUSH2 0xD46 JUMP JUMPDEST PUSH2 0xF67 PUSH1 0x60 DUP4 ADD DUP6 PUSH2 0xD46 JUMP JUMPDEST PUSH2 0xF74 PUSH1 0x80 DUP4 ADD DUP5 PUSH2 0xED4 JUMP JUMPDEST SWAP7 SWAP6 POP POP POP POP POP POP JUMP JUMPDEST PUSH1 0x0 DUP2 MLOAD SWAP1 POP SWAP2 SWAP1 POP JUMP JUMPDEST PUSH1 0x0 DUP3 DUP3 MSTORE PUSH1 0x20 DUP3 ADD SWAP1 POP SWAP3 SWAP2 POP POP JUMP JUMPDEST PUSH1 0x0 DUP2 SWAP1 POP PUSH1 0x20 DUP3 ADD SWAP1 POP SWAP2 SWAP1 POP JUMP JUMPDEST PUSH2 0xFB3 DUP2 PUSH2 0xC72 JUMP JUMPDEST DUP3 MSTORE POP POP JUMP JUMPDEST PUSH1 0x0 PUSH2 0xFC5 DUP4 DUP4 PUSH2 0xFAA JUMP JUMPDEST PUSH1 0x20 DUP4 ADD SWAP1 POP SWAP3 SWAP2 POP POP JUMP JUMPDEST PUSH1 0x0 PUSH1 0x20 DUP3 ADD SWAP1 POP SWAP2 SWAP1 POP JUMP JUMPDEST PUSH1 0x0 PUSH2 0xFE9 DUP3 PUSH2 0xF7E JUMP JUMPDEST PUSH2 0xFF3 DUP2 DUP6 PUSH2 0xF89 JUMP JUMPDEST SWAP4 POP PUSH2 0xFFE DUP4 PUSH2 0xF9A JUMP JUMPDEST DUP1 PUSH1 0x0 JUMPDEST DUP4 DUP2 LT ISZERO PUSH2 0x102F JUMPI DUP2 MLOAD PUSH2 0x1016 DUP9 DUP3 PUSH2 0xFB9 JUMP JUMPDEST SWAP8 POP PUSH2 0x1021 DUP4 PUSH2 0xFD1 JUMP JUMPDEST SWAP3 POP POP PUSH1 0x1 DUP2 ADD SWAP1 POP PUSH2 0x1002 JUMP JUMPDEST POP DUP6 SWAP4 POP POP POP POP SWAP3 SWAP2 POP POP JUMP JUMPDEST PUSH1 0x0 PUSH1 0x20 DUP3 ADD SWAP1 POP DUP2 DUP2 SUB PUSH1 0x0 DUP4 ADD MSTORE PUSH2 0x1056 DUP2 DUP5 PUSH2 0xFDE JUMP JUMPDEST SWAP1 POP SWAP3 SWAP2 POP POP JUMP JUMPDEST PUSH1 0x0 DUP1 REVERT JUMPDEST PUSH32 0x4E487B7100000000000000000000000000000000000000000000000000000000 PUSH1 0x0 MSTORE PUSH1 0x41 PUSH1 0x4 MSTORE PUSH1 0x24 PUSH1 0x0 REVERT JUMPDEST PUSH2 0x109B DUP3 PUSH2 0xE23 JUMP JUMPDEST DUP2 ADD DUP2 DUP2 LT PUSH8 0xFFFFFFFFFFFFFFFF DUP3 GT OR ISZERO PUSH2 0x10BA JUMPI PUSH2 0x10B9 PUSH2 0x1063 JUMP JUMPDEST JUMPDEST DUP1 PUSH1 0x40 MSTORE POP POP POP JUMP JUMPDEST PUSH1 0x0 PUSH2 0x10CD PUSH2 0xC5E JUMP JUMPDEST SWAP1 POP PUSH2 0x10D9 DUP3 DUP3 PUSH2 0x1092 JUMP JUMPDEST SWAP2 SWAP1 POP JUMP JUMPDEST PUSH1 0x0 PUSH8 0xFFFFFFFFFFFFFFFF DUP3 GT ISZERO PUSH2 0x10F9 JUMPI PUSH2 0x10F8 PUSH2 0x1063 JUMP JUMPDEST JUMPDEST PUSH1 0x20 DUP3 MUL SWAP1 POP PUSH1 0x20 DUP2 ADD SWAP1 POP SWAP2 SWAP1 POP JUMP JUMPDEST PUSH1 0x0 DUP1 REVERT JUMPDEST PUSH1 0x0 DUP1 REVERT JUMPDEST PUSH1 0x0 PUSH8 0xFFFFFFFFFFFFFFFF DUP3 GT ISZERO PUSH2 0x112F JUMPI PUSH2 0x112E PUSH2 0x1063 JUMP JUMPDEST JUMPDEST PUSH2 0x1138 DUP3 PUSH2 0xE23 JUMP JUMPDEST SWAP1 POP PUSH1 0x20 DUP2 ADD SWAP1 POP SWAP2 SWAP1 POP JUMP JUMPDEST DUP3 DUP2 DUP4 CALLDATACOPY PUSH1 0x0 DUP4 DUP4 ADD MSTORE POP POP POP JUMP JUMPDEST PUSH1 0x0 PUSH2 0x1167 PUSH2 0x1162 DUP5 PUSH2 0x1114 JUMP JUMPDEST PUSH2 0x10C3 JUMP JUMPDEST SWAP1 POP DUP3 DUP2 MSTORE PUSH1 0x20 DUP2 ADD DUP5 DUP5 DUP5 ADD GT ISZERO PUSH2 0x1183 JUMPI PUSH2 0x1182 PUSH2 0x110F JUMP JUMPDEST JUMPDEST PUSH2 0x118E DUP5 DUP3 DUP6 PUSH2 0x1145 JUMP JUMPDEST POP SWAP4 SWAP3 POP POP POP JUMP JUMPDEST PUSH1 0x0 DUP3 PUSH1 0x1F DUP4 ADD SLT PUSH2 0x11AB JUMPI PUSH2 0x11AA PUSH2 0x105E JUMP JUMPDEST JUMPDEST DUP2 CALLDATALOAD PUSH2 0x11BB DUP5 DUP3 PUSH1 0x20 DUP7 ADD PUSH2 0x1154 JUMP JUMPDEST SWAP2 POP POP SWAP3 SWAP2 POP POP JUMP JUMPDEST PUSH1 0x0 PUSH2 0x11D7 PUSH2 0x11D2 DUP5 PUSH2 0x10DE JUMP JUMPDEST PUSH2 0x10C3 JUMP JUMPDEST SWAP1 POP DUP1 DUP4 DUP3 MSTORE PUSH1 0x20 DUP3 ADD SWAP1 POP PUSH1 0x20 DUP5 MUL DUP4 ADD DUP6 DUP2 GT ISZERO PUSH2 0x11FA JUMPI PUSH2 0x11F9 PUSH2 0x110A JUMP JUMPDEST JUMPDEST DUP4 JUMPDEST DUP2 DUP2 LT ISZERO PUSH2 0x1241 JUMPI DUP1 CALLDATALOAD PUSH8 0xFFFFFFFFFFFFFFFF DUP2 GT ISZERO PUSH2 0x121F JUMPI PUSH2 0x121E PUSH2 0x105E JUMP JUMPDEST JUMPDEST DUP1 DUP7 ADD PUSH2 0x122C DUP10 DUP3 PUSH2 0x1196 JUMP JUMPDEST DUP6 MSTORE PUSH1 0x20 DUP6 ADD SWAP5 POP POP POP PUSH1 0x20 DUP2 ADD SWAP1 POP PUSH2 0x11FC JUMP JUMPDEST POP POP POP SWAP4 SWAP3 POP POP POP JUMP JUMPDEST PUSH1 0x0 DUP3 PUSH1 0x1F DUP4 ADD SLT PUSH2 0x1260 JUMPI PUSH2 0x125F PUSH2 0x105E JUMP JUMPDEST JUMPDEST DUP2 CALLDATALOAD PUSH2 0x1270 DUP5 DUP3 PUSH1 0x20 DUP7 ADD PUSH2 0x11C4 JUMP JUMPDEST SWAP2 POP POP SWAP3 SWAP2 POP POP JUMP JUMPDEST PUSH1 0x0 DUP1 PUSH1 0x0 PUSH1 0x60 DUP5 DUP7 SUB SLT ISZERO PUSH2 0x1292 JUMPI PUSH2 0x1291 PUSH2 0xC68 JUMP JUMPDEST JUMPDEST PUSH1 0x0 PUSH2 0x12A0 DUP7 DUP3 DUP8 ADD PUSH2 0xC93 JUMP JUMPDEST SWAP4 POP POP PUSH1 0x20 PUSH2 0x12B1 DUP7 DUP3 DUP8 ADD PUSH2 0xC93 JUMP JUMPDEST SWAP3 POP POP PUSH1 0x40 DUP5 ADD CALLDATALOAD PUSH8 0xFFFFFFFFFFFFFFFF DUP2 GT ISZERO PUSH2 0x12D2 JUMPI PUSH2 0x12D1 PUSH2 0xC6D JUMP JUMPDEST JUMPDEST PUSH2 0x12DE DUP7 DUP3 DUP8 ADD PUSH2 0x124B JUMP JUMPDEST SWAP2 POP POP SWAP3 POP SWAP3 POP SWAP3 JUMP JUMPDEST PUSH32 0x4E487B7100000000000000000000000000000000000000000000000000000000 PUSH1 0x0 MSTORE PUSH1 0x22 PUSH1 0x4 MSTORE PUSH1 0x24 PUSH1 0x0 REVERT JUMPDEST PUSH1 0x0 PUSH1 0x2 DUP3 DIV SWAP1 POP PUSH1 0x1 DUP3 AND DUP1 PUSH2 0x132F JUMPI PUSH1 0x7F DUP3 AND SWAP2 POP JUMPDEST PUSH1 0x20 DUP3 LT DUP2 SUB PUSH2 0x1342 JUMPI PUSH2 0x1341 PUSH2 0x12E8 JUMP JUMPDEST JUMPDEST POP SWAP2 SWAP1 POP JUMP JUMPDEST PUSH32 0x4E487B7100000000000000000000000000000000000000000000000000000000 PUSH1 0x0 MSTORE PUSH1 0x32 PUSH1 0x4 MSTORE PUSH1 0x24 PUSH1 0x0 REVERT JUMPDEST PUSH32 0x416C726561647920766F74656400000000000000000000000000000000000000 PUSH1 0x0 DUP3 ADD MSTORE POP JUMP JUMPDEST PUSH1 0x0 PUSH2 0x13AD PUSH1 0xD DUP4 PUSH2 0xDE8 JUMP JUMPDEST SWAP2 POP PUSH2 0x13B8 DUP3 PUSH2 0x1377 JUMP JUMPDEST PUSH1 0x20 DUP3 ADD SWAP1 POP SWAP2 SWAP1 POP JUMP JUMPDEST PUSH1 0x0 PUSH1 0x20 DUP3 ADD SWAP1 POP DUP2 DUP2 SUB PUSH1 0x0 DUP4 ADD MSTORE PUSH2 0x13DC DUP2 PUSH2 0x13A0 JUMP JUMPDEST SWAP1 POP SWAP2 SWAP1 POP JUMP JUMPDEST PUSH32 0x506F6C6C20697320636C6F736564000000000000000000000000000000000000 PUSH1 0x0 DUP3 ADD MSTORE POP JUMP JUMPDEST PUSH1 0x0 PUSH2 0x1419 PUSH1 0xE DUP4 PUSH2 0xDE8 JUMP JUMPDEST SWAP2 POP PUSH2 0x1424 DUP3 PUSH2 0x13E3 JUMP JUMPDEST PUSH1 0x20 DUP3 ADD SWAP1 POP SWAP2 SWAP1 POP JUMP JUMPDEST PUSH1 0x0 PUSH1 0x20 DUP3 ADD SWAP1 POP DUP2 DUP2 SUB PUSH1 0x0 DUP4 ADD MSTORE PUSH2 0x1448 DUP2 PUSH2 0x140C JUMP JUMPDEST SWAP1 POP SWAP2 SWAP1 POP JUMP JUMPDEST PUSH32 0x506F6C6C206973206E6F74206163746976650000000000000000000000000000 PUSH1 0x0 DUP3 ADD MSTORE POP JUMP JUMPDEST PUSH1 0x0 PUSH2 0x1485 PUSH1 0x12 DUP4 PUSH2 0xDE8 JUMP JUMPDEST SWAP2 POP PUSH2 0x1490 DUP3 PUSH2 0x144F JUMP JUMPDEST PUSH1 0x20 DUP3 ADD SWAP1 POP SWAP2 SWAP1 POP JUMP JUMPDEST PUSH1 0x0 PUSH1 0x20 DUP3 ADD SWAP1 POP DUP2 DUP2 SUB PUSH1 0x0 DUP4 ADD MSTORE PUSH2 0x14B4 DUP2 PUSH2 0x1478 JUMP JUMPDEST SWAP1 POP SWAP2 SWAP1 POP JUMP JUMPDEST PUSH32 0x496E76616C69642063686F696365000000000000000000000000000000000000 PUSH1 0x0 DUP3 ADD MSTORE POP JUMP JUMPDEST PUSH1 0x0 PUSH2 0x14F1 PUSH1 0xE DUP4 PUSH2 0xDE8 JUMP JUMPDEST SWAP2 POP PUSH2 0x14FC DUP3 PUSH2 0x14BB JUMP JUMPDEST PUSH1 0x20 DUP3 ADD SWAP1 POP SWAP2 SWAP1 POP JUMP JUMPDEST PUSH1 0x0 PUSH1 0x20 DUP3 ADD SWAP1 POP DUP2 DUP2 SUB PUSH1 0x0 DUP4 ADD MSTORE PUSH2 0x1520 DUP2 PUSH2 0x14E4 JUMP JUMPDEST SWAP1 POP SWAP2 SWAP1 POP JUMP JUMPDEST PUSH32 0x506F6C6C20686173206E6F7420656E6465642079657400000000000000000000 PUSH1 0x0 DUP3 ADD MSTORE POP JUMP JUMPDEST PUSH1 0x0 PUSH2 0x155D PUSH1 0x16 DUP4 PUSH2 0xDE8 JUMP JUMPDEST SWAP2 POP PUSH2 0x1568 DUP3 PUSH2 0x1527 JUMP JUMPDEST PUSH1 0x20 DUP3 ADD SWAP1 POP SWAP2 SWAP1 POP JUMP JUMPDEST PUSH1 0x0 PUSH1 0x20 DUP3 ADD SWAP1 POP DUP2 DUP2 SUB PUSH1 0x0 DUP4 ADD MSTORE PUSH2 0x158C DUP2 PUSH2 0x1550 JUMP JUMPDEST SWAP1 POP SWAP2 SWAP1 POP JUMP JUMPDEST PUSH32 0x4E487B7100000000000000000000000000000000000000000000000000000000 PUSH1 0x0 MSTORE PUSH1 0x11 PUSH1 0x4 MSTORE PUSH1 0x24 PUSH1 0x0 REVERT JUMPDEST PUSH1 0x0 PUSH2 0x15CD DUP3 PUSH2 0xC72 JUMP JUMPDEST SWAP2 POP PUSH32 0xFFFFFFFFFFFFFFFFFFFFFFFFFFFFFFFFFFFFFFFFFFFFFFFFFFFFFFFFFFFFFFFF DUP3 SUB PUSH2 0x15FF JUMPI PUSH2 0x15FE PUSH2 0x1593 JUMP JUMPDEST JUMPDEST PUSH1 0x1 DUP3 ADD SWAP1 POP SWAP2 SWAP1 POP JUMP JUMPDEST PUSH32 0x496E76616C696420706F6C6C20656E642074696D650000000000000000000000 PUSH1 0x0 DUP3 ADD MSTORE POP JUMP JUMPDEST PUSH1 0x0 PUSH2 0x1640 PUSH1 0x15 DUP4 PUSH2 0xDE8 JUMP JUMPDEST SWAP2 POP PUSH2 0x164B DUP3 PUSH2 0x160A JUMP JUMPDEST PUSH1 0x20 DUP3 ADD SWAP1 POP SWAP2 SWAP1 POP JUMP JUMPDEST PUSH1 0x0 PUSH1 0x20 DUP3 ADD SWAP1 POP DUP2 DUP2 SUB PUSH1 0x0 DUP4 ADD MSTORE PUSH2 0x166F DUP2 PUSH2 0x1633 JUMP JUMPDEST SWAP1 POP SWAP2 SWAP1 POP JUMP JUMPDEST PUSH32 0x4174206C656173742074776F206F7074696F6E73207265717569726564000000 PUSH1 0x0 DUP3 ADD MSTORE POP JUMP JUMPDEST PUSH1 0x0 PUSH2 0x16AC PUSH1 0x1D DUP4 PUSH2 0xDE8 JUMP JUMPDEST SWAP2 POP PUSH2 0x16B7 DUP3 PUSH2 0x1676 JUMP JUMPDEST PUSH1 0x20 DUP3 ADD SWAP1 POP SWAP2 SWAP1 POP JUMP JUMPDEST PUSH1 0x0 PUSH1 0x20 DUP3 ADD SWAP1 POP DUP2 DUP2 SUB PUSH1 0x0 DUP4 ADD MSTORE PUSH2 0x16DB DUP2 PUSH2 0x169F JUMP JUMPDEST SWAP1 POP SWAP2 SWAP1 POP JUMP JUMPDEST PUSH1 0x0 DUP2 MLOAD SWAP1 POP SWAP2 SWAP1 POP JUMP JUMPDEST PUSH1 0x0 DUP3 DUP3 MSTORE PUSH1 0x20 DUP3 ADD SWAP1 POP SWAP3 SWAP2 POP POP JUMP JUMPDEST PUSH1 0x0 DUP2 SWAP1 POP PUSH1 0x20 DUP3 ADD SWAP1 POP SWAP2 SWAP1 POP JUMP JUMPDEST PUSH1 0x0 DUP3 DUP3 MSTORE PUSH1 0x20 DUP3 ADD SWAP1 POP SWAP3 SWAP2 POP POP JUMP JUMPDEST PUSH1 0x0 PUSH2 0x172A DUP3 PUSH2 0xDDD JUMP JUMPDEST PUSH2 0x1734 DUP2 DUP6 PUSH2 0x170E JUMP JUMPDEST SWAP4 POP PUSH2 0x1744 DUP2 DUP6 PUSH1 0x20 DUP7 ADD PUSH2 0xDF9 JUMP JUMPDEST PUSH2 0x174D DUP2 PUSH2 0xE23 JUMP JUMPDEST DUP5 ADD SWAP2 POP POP SWAP3 SWAP2 POP POP JUMP JUMPDEST PUSH1 0x0 PUSH2 0x1764 DUP4 DUP4 PUSH2 0x171F JUMP JUMPDEST SWAP1 POP SWAP3 SWAP2 POP POP JUMP JUMPDEST PUSH1 0x0 PUSH1 0x20 DUP3 ADD SWAP1 POP SWAP2 SWAP1 POP JUMP JUMPDEST PUSH1 0x0 PUSH2 0x1784 DUP3 PUSH2 0x16E2 JUMP JUMPDEST PUSH2 0x178E DUP2 DUP6 PUSH2 0x16ED JUMP JUMPDEST SWAP4 POP DUP4 PUSH1 0x20 DUP3 MUL DUP6 ADD PUSH2 0x17A0 DUP6 PUSH2 0x16FE JUMP JUMPDEST DUP1 PUSH1 0x0 JUMPDEST DUP6 DUP2 LT ISZERO PUSH2 0x17DC JUMPI DUP5 DUP5 SUB DUP10 MSTORE DUP2 MLOAD PUSH2 0x17BD DUP6 DUP3 PUSH2 0x1758 JUMP JUMPDEST SWAP5 POP PUSH2 0x17C8 DUP4 PUSH2 0x176C JUMP JUMPDEST SWAP3 POP PUSH1 0x20 DUP11 ADD SWAP10 POP POP PUSH1 0x1 DUP2 ADD SWAP1 POP PUSH2 0x17A4 JUMP JUMPDEST POP DUP3 SWAP8 POP DUP8 SWAP6 POP POP POP POP POP POP SWAP3 SWAP2 POP POP JUMP JUMPDEST PUSH1 0x0 PUSH1 0x60 DUP3 ADD SWAP1 POP PUSH2 0x1803 PUSH1 0x0 DUP4 ADD DUP7 PUSH2 0xD46 JUMP JUMPDEST PUSH2 0x1810 PUSH1 0x20 DUP4 ADD DUP6 PUSH2 0xD46 JUMP JUMPDEST DUP2 DUP2 SUB PUSH1 0x40 DUP4 ADD MSTORE PUSH2 0x1822 DUP2 DUP5 PUSH2 0x1779 JUMP JUMPDEST SWAP1 POP SWAP5 SWAP4 POP POP POP POP JUMP JUMPDEST PUSH1 0x0 DUP2 SWAP1 POP DUP2 PUSH1 0x0 MSTORE PUSH1 0x20 PUSH1 0x0 KECCAK256 SWAP1 POP SWAP2 SWAP1 POP JUMP JUMPDEST PUSH1 0x0 PUSH1 0x20 PUSH1 0x1F DUP4 ADD DIV SWAP1 POP SWAP2 SWAP1 POP JUMP JUMPDEST PUSH1 0x0 DUP3 DUP3 SHL SWAP1 POP SWAP3 SWAP2 POP POP JUMP JUMPDEST PUSH1 0x0 PUSH1 0x8 DUP4 MUL PUSH2 0x188E PUSH32 0xFFFFFFFFFFFFFFFFFFFFFFFFFFFFFFFFFFFFFFFFFFFFFFFFFFFFFFFFFFFFFFFF DUP3 PUSH2 0x1851 JUMP JUMPDEST PUSH2 0x1898 DUP7 DUP4 PUSH2 0x1851 JUMP JUMPDEST SWAP6 POP DUP1 NOT DUP5 AND SWAP4 POP DUP1 DUP7 AND DUP5 OR SWAP3 POP POP POP SWAP4 SWAP3 POP POP POP JUMP JUMPDEST PUSH1 0x0 DUP2 SWAP1 POP SWAP2 SWAP1 POP JUMP JUMPDEST PUSH1 0x0 PUSH2 0x18D5 PUSH2 0x18D0 PUSH2 0x18CB DUP5 PUSH2 0xC72 JUMP JUMPDEST PUSH2 0x18B0 JUMP JUMPDEST PUSH2 0xC72 JUMP JUMPDEST SWAP1 POP SWAP2 SWAP1 POP JUMP JUMPDEST PUSH1 0x0 DUP2 SWAP1 POP SWAP2 SWAP1 POP JUMP JUMPDEST PUSH2 0x18EF DUP4 PUSH2 0x18BA JUMP JUMPDEST PUSH2 0x1903 PUSH2 0x18FB DUP3 PUSH2 0x18DC JUMP JUMPDEST DUP5 DUP5 SLOAD PUSH2 0x185E JUMP JUMPDEST DUP3 SSTORE POP POP POP POP JUMP JUMPDEST PUSH1 0x0 SWAP1 JUMP JUMPDEST PUSH2 0x1918 PUSH2 0x190B JUMP JUMPDEST PUSH2 0x1923 DUP2 DUP5 DUP5 PUSH2 0x18E6 JUMP JUMPDEST POP POP POP JUMP JUMPDEST JUMPDEST DUP2 DUP2 LT ISZERO PUSH2 0x1947 JUMPI PUSH2 0x193C PUSH1 0x0 DUP3 PUSH2 0x1910 JUMP JUMPDEST PUSH1 0x1 DUP2 ADD SWAP1 POP PUSH2 0x1929 JUMP JUMPDEST POP POP JUMP JUMPDEST PUSH1 0x1F DUP3 GT ISZERO PUSH2 0x198C JUMPI PUSH2 0x195D DUP2 PUSH2 0x182C JUMP JUMPDEST PUSH2 0x1966 DUP5 PUSH2 0x1841 JUMP JUMPDEST DUP2 ADD PUSH1 0x20 DUP6 LT ISZERO PUSH2 0x1975 JUMPI DUP2 SWAP1 POP JUMPDEST PUSH2 0x1989 PUSH2 0x1981 DUP6 PUSH2 0x1841 JUMP JUMPDEST DUP4 ADD DUP3 PUSH2 0x1928 JUMP JUMPDEST POP POP JUMPDEST POP POP POP JUMP JUMPDEST PUSH1 0x0 DUP3 DUP3 SHR SWAP1 POP SWAP3 SWAP2 POP POP JUMP JUMPDEST PUSH1 0x0 PUSH2 0x19AF PUSH1 0x0 NOT DUP5 PUSH1 0x8 MUL PUSH2 0x1991 JUMP JUMPDEST NOT DUP1 DUP4 AND SWAP2 POP POP SWAP3 SWAP2 POP POP JUMP JUMPDEST PUSH1 0x0 PUSH2 0x19C8 DUP4 DUP4 PUSH2 0x199E JUMP JUMPDEST SWAP2 POP DUP3 PUSH1 0x2 MUL DUP3 OR SWAP1 POP SWAP3 SWAP2 POP POP JUMP JUMPDEST PUSH2 0x19E1 DUP3 PUSH2 0xDDD JUMP JUMPDEST PUSH8 0xFFFFFFFFFFFFFFFF DUP2 GT ISZERO PUSH2 0x19FA JUMPI PUSH2 0x19F9 PUSH2 0x1063 JUMP JUMPDEST JUMPDEST PUSH2 0x1A04 DUP3 SLOAD PUSH2 0x1317 JUMP JUMPDEST PUSH2 0x1A0F DUP3 DUP3 DUP6 PUSH2 0x194B JUMP JUMPDEST PUSH1 0x0 PUSH1 0x20 SWAP1 POP PUSH1 0x1F DUP4 GT PUSH1 0x1 DUP2 EQ PUSH2 0x1A42 JUMPI PUSH1 0x0 DUP5 ISZERO PUSH2 0x1A30 JUMPI DUP3 DUP8 ADD MLOAD SWAP1 POP JUMPDEST PUSH2 0x1A3A DUP6 DUP3 PUSH2 0x19BC JUMP JUMPDEST DUP7 SSTORE POP PUSH2 0x1AA2 JUMP JUMPDEST PUSH1 0x1F NOT DUP5 AND PUSH2 0x1A50 DUP7 PUSH2 0x182C JUMP JUMPDEST PUSH1 0x0 JUMPDEST DUP3 DUP2 LT ISZERO PUSH2 0x1A78 JUMPI DUP5 DUP10 ADD MLOAD DUP3 SSTORE PUSH1 0x1 DUP3 ADD SWAP2 POP PUSH1 0x20 DUP6 ADD SWAP5 POP PUSH1 0x20 DUP2 ADD SWAP1 POP PUSH2 0x1A53 JUMP JUMPDEST DUP7 DUP4 LT ISZERO PUSH2 0x1A95 JUMPI DUP5 DUP10 ADD MLOAD PUSH2 0x1A91 PUSH1 0x1F DUP10 AND DUP3 PUSH2 0x199E JUMP JUMPDEST DUP4 SSTORE POP JUMPDEST PUSH1 0x1 PUSH1 0x2 DUP9 MUL ADD DUP9 SSTORE POP POP POP JUMPDEST POP POP POP POP POP POP JUMP INVALID LOG2 PUSH5 0x6970667358 0x22 SLT KECCAK256 POP EXTCODEHASH DUP1 DIV PUSH4 0xA379A18B MULMOD PUSH21 0x21842ED4718522B78AD05A9044D8D4AD282E576495 PUSH5 0x736F6C6343 STOP ADDMOD SLT STOP CALLER "
				},
				"gasEstimates": {
					"creation": {
						"codeDepositCost": "1376000",
						"executionCost": "1431",
						"totalCost": "1377431"
					},
					"external": {
						"balances(address)": "2860",
						"betCount()": "2451",
						"closePoll()": "232",
						"createPoll(uint256,uint256,string[])": "infinite",
						"distributeRewards()": "233",
						"getBetCount(uint256)": "infinite",
						"getOdds(uint256,uint256)": "infinite",
						"getPollVotes(uint256)": "infinite",
						"hasVoted(uint256,address)": "3177",
						"pollBetTotal(uint256)": "infinite",
						"pollBets(uint256,address)": "infinite",
						"pollBetsList(uint256,uint256)": "infinite",
						"pollCount()": "2474",
						"pollWinners(uint256,uint256)": "infinite",
						"polls(uint256)": "infinite",
						"voteOnPoll(uint256,uint256)": "infinite"
					}
				},
				"methodIdentifiers": {
					"balances(address)": "27e235e3",
					"betCount()": "cf094497",
					"closePoll()": "ed8c2aed",
					"createPoll(uint256,uint256,string[])": "d624d6fd",
					"distributeRewards()": "6f4a2cd0",
					"getBetCount(uint256)": "6b7128ec",
					"getOdds(uint256,uint256)": "e3eed5c9",
					"getPollVotes(uint256)": "bbff7166",
					"hasVoted(uint256,address)": "43859632",
					"pollBetTotal(uint256)": "46f86716",
					"pollBets(uint256,address)": "06455f5e",
					"pollBetsList(uint256,uint256)": "420700f6",
					"pollCount()": "9207891d",
					"pollWinners(uint256,uint256)": "91cbfb41",
					"polls(uint256)": "ac2f0074",
					"voteOnPoll(uint256,uint256)": "4c3c234f"
				}
			},
			"storageLayout": {
				"storage": [
					{
						"astId": 82,
						"contract": "contracts/PollBetContract.sol:PollBetContract",
						"label": "pollCount",
						"offset": 0,
						"slot": "0",
						"type": "t_uint256"
					},
					{
						"astId": 84,
						"contract": "contracts/PollBetContract.sol:PollBetContract",
						"label": "betCount",
						"offset": 0,
						"slot": "1",
						"type": "t_uint256"
					},
					{
						"astId": 88,
						"contract": "contracts/PollBetContract.sol:PollBetContract",
						"label": "pollBetTotal",
						"offset": 0,
						"slot": "2",
						"type": "t_mapping(t_uint256,t_uint256)"
					},
					{
						"astId": 94,
						"contract": "contracts/PollBetContract.sol:PollBetContract",
						"label": "pollBets",
						"offset": 0,
						"slot": "3",
						"type": "t_mapping(t_uint256,t_mapping(t_address,t_uint256))"
					},
					{
						"astId": 99,
						"contract": "contracts/PollBetContract.sol:PollBetContract",
						"label": "pollWinners",
						"offset": 0,
						"slot": "4",
						"type": "t_mapping(t_uint256,t_array(t_uint256)dyn_storage)"
					},
					{
						"astId": 103,
						"contract": "contracts/PollBetContract.sol:PollBetContract",
						"label": "balances",
						"offset": 0,
						"slot": "5",
						"type": "t_mapping(t_address,t_uint256)"
					},
					{
						"astId": 109,
						"contract": "contracts/PollBetContract.sol:PollBetContract",
						"label": "pollBetsList",
						"offset": 0,
						"slot": "6",
						"type": "t_mapping(t_uint256,t_array(t_struct(Bet)33_storage)dyn_storage)"
					},
					{
						"astId": 115,
						"contract": "contracts/PollBetContract.sol:PollBetContract",
						"label": "hasVoted",
						"offset": 0,
						"slot": "7",
						"type": "t_mapping(t_uint256,t_mapping(t_address,t_bool))"
					},
					{
						"astId": 119,
						"contract": "contracts/PollBetContract.sol:PollBetContract",
						"label": "polls",
						"offset": 0,
						"slot": "8",
						"type": "t_array(t_struct(Poll)15_storage)dyn_storage"
					}
				],
				"types": {
					"t_address": {
						"encoding": "inplace",
						"label": "address",
						"numberOfBytes": "20"
					},
					"t_array(t_string_storage)dyn_storage": {
						"base": "t_string_storage",
						"encoding": "dynamic_array",
						"label": "string[]",
						"numberOfBytes": "32"
					},
					"t_array(t_struct(Bet)33_storage)dyn_storage": {
						"base": "t_struct(Bet)33_storage",
						"encoding": "dynamic_array",
						"label": "struct PollBetContract.Bet[]",
						"numberOfBytes": "32"
					},
					"t_array(t_struct(Poll)15_storage)dyn_storage": {
						"base": "t_struct(Poll)15_storage",
						"encoding": "dynamic_array",
						"label": "struct PollBetContract.Poll[]",
						"numberOfBytes": "32"
					},
					"t_array(t_uint256)dyn_storage": {
						"base": "t_uint256",
						"encoding": "dynamic_array",
						"label": "uint256[]",
						"numberOfBytes": "32"
					},
					"t_bool": {
						"encoding": "inplace",
						"label": "bool",
						"numberOfBytes": "1"
					},
					"t_mapping(t_address,t_bool)": {
						"encoding": "mapping",
						"key": "t_address",
						"label": "mapping(address => bool)",
						"numberOfBytes": "32",
						"value": "t_bool"
					},
					"t_mapping(t_address,t_uint256)": {
						"encoding": "mapping",
						"key": "t_address",
						"label": "mapping(address => uint256)",
						"numberOfBytes": "32",
						"value": "t_uint256"
					},
					"t_mapping(t_uint256,t_array(t_struct(Bet)33_storage)dyn_storage)": {
						"encoding": "mapping",
						"key": "t_uint256",
						"label": "mapping(uint256 => struct PollBetContract.Bet[])",
						"numberOfBytes": "32",
						"value": "t_array(t_struct(Bet)33_storage)dyn_storage"
					},
					"t_mapping(t_uint256,t_array(t_uint256)dyn_storage)": {
						"encoding": "mapping",
						"key": "t_uint256",
						"label": "mapping(uint256 => uint256[])",
						"numberOfBytes": "32",
						"value": "t_array(t_uint256)dyn_storage"
					},
					"t_mapping(t_uint256,t_mapping(t_address,t_bool))": {
						"encoding": "mapping",
						"key": "t_uint256",
						"label": "mapping(uint256 => mapping(address => bool))",
						"numberOfBytes": "32",
						"value": "t_mapping(t_address,t_bool)"
					},
					"t_mapping(t_uint256,t_mapping(t_address,t_uint256))": {
						"encoding": "mapping",
						"key": "t_uint256",
						"label": "mapping(uint256 => mapping(address => uint256))",
						"numberOfBytes": "32",
						"value": "t_mapping(t_address,t_uint256)"
					},
					"t_mapping(t_uint256,t_uint256)": {
						"encoding": "mapping",
						"key": "t_uint256",
						"label": "mapping(uint256 => uint256)",
						"numberOfBytes": "32",
						"value": "t_uint256"
					},
					"t_string_storage": {
						"encoding": "bytes",
						"label": "string",
						"numberOfBytes": "32"
					},
					"t_struct(Bet)33_storage": {
						"encoding": "inplace",
						"label": "struct PollBetContract.Bet",
						"members": [
							{
								"astId": 26,
								"contract": "contracts/PollBetContract.sol:PollBetContract",
								"label": "pollId",
								"offset": 0,
								"slot": "0",
								"type": "t_uint256"
							},
							{
								"astId": 28,
								"contract": "contracts/PollBetContract.sol:PollBetContract",
								"label": "pollChoice",
								"offset": 0,
								"slot": "1",
								"type": "t_string_storage"
							},
							{
								"astId": 30,
								"contract": "contracts/PollBetContract.sol:PollBetContract",
								"label": "user",
								"offset": 0,
								"slot": "2",
								"type": "t_address"
							},
							{
								"astId": 32,
								"contract": "contracts/PollBetContract.sol:PollBetContract",
								"label": "amount",
								"offset": 0,
								"slot": "3",
								"type": "t_uint256"
							}
						],
						"numberOfBytes": "128"
					},
					"t_struct(Poll)15_storage": {
						"encoding": "inplace",
						"label": "struct PollBetContract.Poll",
						"members": [
							{
								"astId": 3,
								"contract": "contracts/PollBetContract.sol:PollBetContract",
								"label": "id",
								"offset": 0,
								"slot": "0",
								"type": "t_uint256"
							},
							{
								"astId": 5,
								"contract": "contracts/PollBetContract.sol:PollBetContract",
								"label": "creator",
								"offset": 0,
								"slot": "1",
								"type": "t_address"
							},
							{
								"astId": 7,
								"contract": "contracts/PollBetContract.sol:PollBetContract",
								"label": "startTime",
								"offset": 0,
								"slot": "2",
								"type": "t_uint256"
							},
							{
								"astId": 9,
								"contract": "contracts/PollBetContract.sol:PollBetContract",
								"label": "endTime",
								"offset": 0,
								"slot": "3",
								"type": "t_uint256"
							},
							{
								"astId": 12,
								"contract": "contracts/PollBetContract.sol:PollBetContract",
								"label": "choices",
								"offset": 0,
								"slot": "4",
								"type": "t_array(t_string_storage)dyn_storage"
							},
							{
								"astId": 14,
								"contract": "contracts/PollBetContract.sol:PollBetContract",
								"label": "isOpen",
								"offset": 0,
								"slot": "5",
								"type": "t_bool"
							}
						],
						"numberOfBytes": "192"
					},
					"t_uint256": {
						"encoding": "inplace",
						"label": "uint256",
						"numberOfBytes": "32"
					}
				}
			},
			"userdoc": {
				"kind": "user",
				"methods": {},
				"version": 1
			}
		}
	}
}