{
	"contracts/PollBetContract.sol": {
		"PollBetContract": {
			"abi": [
				{
					"anonymous": false,
					"inputs": [
						{
							"indexed": true,
							"internalType": "uint256",
							"name": "pollId",
							"type": "uint256"
						},
						{
							"indexed": false,
							"internalType": "string",
							"name": "pollChoice",
							"type": "string"
						},
						{
							"indexed": true,
							"internalType": "address",
							"name": "user",
							"type": "address"
						},
						{
							"indexed": false,
							"internalType": "uint256",
							"name": "amount",
							"type": "uint256"
						}
					],
					"name": "BetPlaced",
					"type": "event"
				},
				{
					"anonymous": false,
					"inputs": [
						{
							"indexed": true,
							"internalType": "uint256",
							"name": "id",
							"type": "uint256"
						},
						{
							"indexed": true,
							"internalType": "address",
							"name": "winner",
							"type": "address"
						}
					],
					"name": "PollClosed",
					"type": "event"
				},
				{
					"anonymous": false,
					"inputs": [
						{
							"indexed": true,
							"internalType": "uint256",
							"name": "id",
							"type": "uint256"
						},
						{
							"indexed": true,
							"internalType": "address",
							"name": "creator",
							"type": "address"
						},
						{
							"indexed": false,
							"internalType": "uint256",
							"name": "startTime",
							"type": "uint256"
						},
						{
							"indexed": false,
							"internalType": "uint256",
							"name": "endTime",
							"type": "uint256"
						},
						{
							"indexed": false,
							"internalType": "string[]",
							"name": "options",
							"type": "string[]"
						}
					],
					"name": "PollCreated",
					"type": "event"
				},
				{
					"anonymous": false,
					"inputs": [
						{
							"indexed": true,
							"internalType": "uint256",
							"name": "pollId",
							"type": "uint256"
						},
						{
							"indexed": false,
							"internalType": "address[]",
							"name": "winners",
							"type": "address[]"
						},
						{
							"indexed": false,
							"internalType": "uint256[]",
							"name": "rewards",
							"type": "uint256[]"
						}
					],
					"name": "RewardsDistributed",
					"type": "event"
				},
				{
					"anonymous": false,
					"inputs": [
						{
							"indexed": true,
							"internalType": "uint256",
							"name": "pollId",
							"type": "uint256"
						},
						{
							"indexed": true,
							"internalType": "address",
							"name": "voter",
							"type": "address"
						},
						{
							"indexed": false,
							"internalType": "uint256",
							"name": "choice",
							"type": "uint256"
						}
					],
					"name": "VoteCasted",
					"type": "event"
				},
				{
					"inputs": [
						{
							"internalType": "address",
							"name": "",
							"type": "address"
						}
					],
					"name": "balances",
					"outputs": [
						{
							"internalType": "uint256",
							"name": "",
							"type": "uint256"
						}
					],
					"stateMutability": "view",
					"type": "function"
				},
				{
					"inputs": [],
					"name": "betCount",
					"outputs": [
						{
							"internalType": "uint256",
							"name": "",
							"type": "uint256"
						}
					],
					"stateMutability": "view",
					"type": "function"
				},
				{
					"inputs": [],
					"name": "closePoll",
					"outputs": [],
					"stateMutability": "nonpayable",
					"type": "function"
				},
				{
					"inputs": [
						{
							"internalType": "uint256",
							"name": "_startTime",
							"type": "uint256"
						},
						{
							"internalType": "uint256",
							"name": "_endTime",
							"type": "uint256"
						},
						{
							"internalType": "string[]",
							"name": "_options",
							"type": "string[]"
						}
					],
					"name": "createPoll",
					"outputs": [],
					"stateMutability": "nonpayable",
					"type": "function"
				},
				{
					"inputs": [],
					"name": "distributeRewards",
					"outputs": [],
					"stateMutability": "nonpayable",
					"type": "function"
				},
				{
					"inputs": [
						{
							"internalType": "uint256",
							"name": "_pollId",
							"type": "uint256"
						}
					],
					"name": "getBetCount",
					"outputs": [
						{
							"internalType": "uint256",
							"name": "",
							"type": "uint256"
						}
					],
					"stateMutability": "view",
					"type": "function"
				},
				{
					"inputs": [
						{
							"internalType": "uint256",
							"name": "_pollId",
							"type": "uint256"
						},
						{
							"internalType": "uint256",
							"name": "_pollChoice",
							"type": "uint256"
						}
					],
					"name": "getOdds",
					"outputs": [
						{
							"internalType": "uint256",
							"name": "",
							"type": "uint256"
						}
					],
					"stateMutability": "view",
					"type": "function"
				},
				{
					"inputs": [
						{
							"internalType": "uint256",
							"name": "_pollId",
							"type": "uint256"
						}
					],
					"name": "getPollVotes",
					"outputs": [
						{
							"internalType": "uint256",
							"name": "",
							"type": "uint256"
						}
					],
					"stateMutability": "view",
					"type": "function"
				},
				{
					"inputs": [
						{
							"internalType": "uint256",
							"name": "",
							"type": "uint256"
						},
						{
							"internalType": "address",
							"name": "",
							"type": "address"
						}
					],
					"name": "hasVoted",
					"outputs": [
						{
							"internalType": "bool",
							"name": "",
							"type": "bool"
						}
					],
					"stateMutability": "view",
					"type": "function"
				},
				{
					"inputs": [
						{
							"internalType": "uint256",
							"name": "",
							"type": "uint256"
						}
					],
					"name": "pollBetTotal",
					"outputs": [
						{
							"internalType": "uint256",
							"name": "",
							"type": "uint256"
						}
					],
					"stateMutability": "view",
					"type": "function"
				},
				{
					"inputs": [
						{
							"internalType": "uint256",
							"name": "",
							"type": "uint256"
						},
						{
							"internalType": "address",
							"name": "",
							"type": "address"
						}
					],
					"name": "pollBets",
					"outputs": [
						{
							"internalType": "uint256",
							"name": "",
							"type": "uint256"
						}
					],
					"stateMutability": "view",
					"type": "function"
				},
				{
					"inputs": [
						{
							"internalType": "uint256",
							"name": "",
							"type": "uint256"
						},
						{
							"internalType": "uint256",
							"name": "",
							"type": "uint256"
						}
					],
					"name": "pollBetsList",
					"outputs": [
						{
							"internalType": "uint256",
							"name": "pollId",
							"type": "uint256"
						},
						{
							"internalType": "string",
							"name": "pollChoice",
							"type": "string"
						},
						{
							"internalType": "address",
							"name": "user",
							"type": "address"
						},
						{
							"internalType": "uint256",
							"name": "amount",
							"type": "uint256"
						}
					],
					"stateMutability": "view",
					"type": "function"
				},
				{
					"inputs": [],
					"name": "pollCount",
					"outputs": [
						{
							"internalType": "uint256",
							"name": "",
							"type": "uint256"
						}
					],
					"stateMutability": "view",
					"type": "function"
				},
				{
					"inputs": [
						{
							"internalType": "uint256",
							"name": "",
							"type": "uint256"
						},
						{
							"internalType": "uint256",
							"name": "",
							"type": "uint256"
						}
					],
					"name": "pollWinners",
					"outputs": [
						{
							"internalType": "uint256",
							"name": "",
							"type": "uint256"
						}
					],
					"stateMutability": "view",
					"type": "function"
				},
				{
					"inputs": [
						{
							"internalType": "uint256",
							"name": "",
							"type": "uint256"
						}
					],
					"name": "polls",
					"outputs": [
						{
							"internalType": "uint256",
							"name": "id",
							"type": "uint256"
						},
						{
							"internalType": "address",
							"name": "creator",
							"type": "address"
						},
						{
							"internalType": "uint256",
							"name": "startTime",
							"type": "uint256"
						},
						{
							"internalType": "uint256",
							"name": "endTime",
							"type": "uint256"
						},
						{
							"internalType": "bool",
							"name": "isOpen",
							"type": "bool"
						}
					],
					"stateMutability": "view",
					"type": "function"
				},
				{
					"inputs": [
						{
							"internalType": "uint256",
							"name": "_pollId",
							"type": "uint256"
						},
						{
							"internalType": "uint256",
							"name": "_pollChoice",
							"type": "uint256"
						}
					],
					"name": "voteOnPoll",
					"outputs": [],
					"stateMutability": "nonpayable",
					"type": "function"
				},
				{
					"inputs": [
						{
							"internalType": "uint256",
							"name": "",
							"type": "uint256"
						},
						{
							"internalType": "address",
							"name": "",
							"type": "address"
						}
					],
					"name": "voters",
					"outputs": [
						{
							"internalType": "uint256",
							"name": "pollId",
							"type": "uint256"
						},
						{
							"internalType": "address",
							"name": "voterAddress",
							"type": "address"
						},
						{
							"internalType": "uint256",
							"name": "choice",
							"type": "uint256"
						}
					],
					"stateMutability": "view",
					"type": "function"
				}
			],
			"devdoc": {
				"kind": "dev",
				"methods": {},
				"version": 1
			},
			"evm": {
				"assembly": "    /* \"contracts/PollBetContract.sol\":57:4861  contract PollBetContract {... */\n  mstore(0x40, 0x80)\n  callvalue\n  dup1\n  iszero\n  tag_1\n  jumpi\n  0x00\n  dup1\n  revert\ntag_1:\n  pop\n  dataSize(sub_0)\n  dup1\n  dataOffset(sub_0)\n  0x00\n  codecopy\n  0x00\n  return\nstop\n\nsub_0: assembly {\n        /* \"contracts/PollBetContract.sol\":57:4861  contract PollBetContract {... */\n      mstore(0x40, 0x80)\n      callvalue\n      dup1\n      iszero\n      tag_1\n      jumpi\n      0x00\n      dup1\n      revert\n    tag_1:\n      pop\n      jumpi(tag_2, lt(calldatasize, 0x04))\n      shr(0xe0, calldataload(0x00))\n      dup1\n      0x91cbfb41\n      gt\n      tag_20\n      jumpi\n      dup1\n      0xbbff7166\n      gt\n      tag_21\n      jumpi\n      dup1\n      0xbbff7166\n      eq\n      tag_15\n      jumpi\n      dup1\n      0xcf094497\n      eq\n      tag_16\n      jumpi\n      dup1\n      0xd624d6fd\n      eq\n      tag_17\n      jumpi\n      dup1\n      0xe3eed5c9\n      eq\n      tag_18\n      jumpi\n      dup1\n      0xed8c2aed\n      eq\n      tag_19\n      jumpi\n      jump(tag_2)\n    tag_21:\n      dup1\n      0x91cbfb41\n      eq\n      tag_11\n      jumpi\n      dup1\n      0x9207891d\n      eq\n      tag_12\n      jumpi\n      dup1\n      0x9e319063\n      eq\n      tag_13\n      jumpi\n      dup1\n      0xac2f0074\n      eq\n      tag_14\n      jumpi\n      jump(tag_2)\n    tag_20:\n      dup1\n      0x46f86716\n      gt\n      tag_22\n      jumpi\n      dup1\n      0x46f86716\n      eq\n      tag_7\n      jumpi\n      dup1\n      0x4c3c234f\n      eq\n      tag_8\n      jumpi\n      dup1\n      0x6b7128ec\n      eq\n      tag_9\n      jumpi\n      dup1\n      0x6f4a2cd0\n      eq\n      tag_10\n      jumpi\n      jump(tag_2)\n    tag_22:\n      dup1\n      0x06455f5e\n      eq\n      tag_3\n      jumpi\n      dup1\n      0x27e235e3\n      eq\n      tag_4\n      jumpi\n      dup1\n      0x420700f6\n      eq\n      tag_5\n      jumpi\n      dup1\n      0x43859632\n      eq\n      tag_6\n      jumpi\n    tag_2:\n      0x00\n      dup1\n      revert\n        /* \"contracts/PollBetContract.sol\":1077:1134  mapping(uint => mapping(address => uint)) public pollBets */\n    tag_3:\n      tag_23\n      0x04\n      dup1\n      calldatasize\n      sub\n      dup2\n      add\n      swap1\n      tag_24\n      swap2\n      swap1\n      tag_25\n      jump\t// in\n    tag_24:\n      tag_26\n      jump\t// in\n    tag_23:\n      mload(0x40)\n      tag_27\n      swap2\n      swap1\n      tag_28\n      jump\t// in\n    tag_27:\n      mload(0x40)\n      dup1\n      swap2\n      sub\n      swap1\n      return\n        /* \"contracts/PollBetContract.sol\":1188:1228  mapping(address => uint) public balances */\n    tag_4:\n      tag_29\n      0x04\n      dup1\n      calldatasize\n      sub\n      dup2\n      add\n      swap1\n      tag_30\n      swap2\n      swap1\n      tag_31\n      jump\t// in\n    tag_30:\n      tag_32\n      jump\t// in\n    tag_29:\n      mload(0x40)\n      tag_33\n      swap2\n      swap1\n      tag_28\n      jump\t// in\n    tag_33:\n      mload(0x40)\n      dup1\n      swap2\n      sub\n      swap1\n      return\n        /* \"contracts/PollBetContract.sol\":1234:1276  mapping(uint => Bet[]) public pollBetsList */\n    tag_5:\n      tag_34\n      0x04\n      dup1\n      calldatasize\n      sub\n      dup2\n      add\n      swap1\n      tag_35\n      swap2\n      swap1\n      tag_36\n      jump\t// in\n    tag_35:\n      tag_37\n      jump\t// in\n    tag_34:\n      mload(0x40)\n      tag_38\n      swap5\n      swap4\n      swap3\n      swap2\n      swap1\n      tag_39\n      jump\t// in\n    tag_38:\n      mload(0x40)\n      dup1\n      swap2\n      sub\n      swap1\n      return\n        /* \"contracts/PollBetContract.sol\":1282:1339  mapping(uint => mapping(address => bool)) public hasVoted */\n    tag_6:\n      tag_40\n      0x04\n      dup1\n      calldatasize\n      sub\n      dup2\n      add\n      swap1\n      tag_41\n      swap2\n      swap1\n      tag_25\n      jump\t// in\n    tag_41:\n      tag_42\n      jump\t// in\n    tag_40:\n      mload(0x40)\n      tag_43\n      swap2\n      swap1\n      tag_44\n      jump\t// in\n    tag_43:\n      mload(0x40)\n      dup1\n      swap2\n      sub\n      swap1\n      return\n        /* \"contracts/PollBetContract.sol\":1030:1071  mapping(uint => uint) public pollBetTotal */\n    tag_7:\n      tag_45\n      0x04\n      dup1\n      calldatasize\n      sub\n      dup2\n      add\n      swap1\n      tag_46\n      swap2\n      swap1\n      tag_47\n      jump\t// in\n    tag_46:\n      tag_48\n      jump\t// in\n    tag_45:\n      mload(0x40)\n      tag_49\n      swap2\n      swap1\n      tag_28\n      jump\t// in\n    tag_49:\n      mload(0x40)\n      dup1\n      swap2\n      sub\n      swap1\n      return\n        /* \"contracts/PollBetContract.sol\":2554:3293  function voteOnPoll(uint _pollId, uint _pollChoice) public {... */\n    tag_8:\n      tag_50\n      0x04\n      dup1\n      calldatasize\n      sub\n      dup2\n      add\n      swap1\n      tag_51\n      swap2\n      swap1\n      tag_36\n      jump\t// in\n    tag_51:\n      tag_52\n      jump\t// in\n    tag_50:\n      stop\n        /* \"contracts/PollBetContract.sol\":4552:4665  function getBetCount(uint _pollId) public view returns(uint) {... */\n    tag_9:\n      tag_53\n      0x04\n      dup1\n      calldatasize\n      sub\n      dup2\n      add\n      swap1\n      tag_54\n      swap2\n      swap1\n      tag_47\n      jump\t// in\n    tag_54:\n      tag_55\n      jump\t// in\n    tag_53:\n      mload(0x40)\n      tag_56\n      swap2\n      swap1\n      tag_28\n      jump\t// in\n    tag_56:\n      mload(0x40)\n      dup1\n      swap2\n      sub\n      swap1\n      return\n        /* \"contracts/PollBetContract.sol\":4821:4859  function distributeRewards() public {} */\n    tag_10:\n      tag_57\n      tag_58\n      jump\t// in\n    tag_57:\n      stop\n        /* \"contracts/PollBetContract.sol\":1140:1182  mapping(uint => uint[]) public pollWinners */\n    tag_11:\n      tag_59\n      0x04\n      dup1\n      calldatasize\n      sub\n      dup2\n      add\n      swap1\n      tag_60\n      swap2\n      swap1\n      tag_36\n      jump\t// in\n    tag_60:\n      tag_61\n      jump\t// in\n    tag_59:\n      mload(0x40)\n      tag_62\n      swap2\n      swap1\n      tag_28\n      jump\t// in\n    tag_62:\n      mload(0x40)\n      dup1\n      swap2\n      sub\n      swap1\n      return\n        /* \"contracts/PollBetContract.sol\":932:953  uint public pollCount */\n    tag_12:\n      tag_63\n      tag_64\n      jump\t// in\n    tag_63:\n      mload(0x40)\n      tag_65\n      swap2\n      swap1\n      tag_28\n      jump\t// in\n    tag_65:\n      mload(0x40)\n      dup1\n      swap2\n      sub\n      swap1\n      return\n        /* \"contracts/PollBetContract.sol\":1345:1401  mapping(uint => mapping(address => Voter)) public voters */\n    tag_13:\n      tag_66\n      0x04\n      dup1\n      calldatasize\n      sub\n      dup2\n      add\n      swap1\n      tag_67\n      swap2\n      swap1\n      tag_25\n      jump\t// in\n    tag_67:\n      tag_68\n      jump\t// in\n    tag_66:\n      mload(0x40)\n      tag_69\n      swap4\n      swap3\n      swap2\n      swap1\n      tag_70\n      jump\t// in\n    tag_69:\n      mload(0x40)\n      dup1\n      swap2\n      sub\n      swap1\n      return\n        /* \"contracts/PollBetContract.sol\":1408:1427  Poll[] public polls */\n    tag_14:\n      tag_71\n      0x04\n      dup1\n      calldatasize\n      sub\n      dup2\n      add\n      swap1\n      tag_72\n      swap2\n      swap1\n      tag_47\n      jump\t// in\n    tag_72:\n      tag_73\n      jump\t// in\n    tag_71:\n      mload(0x40)\n      tag_74\n      swap6\n      swap5\n      swap4\n      swap3\n      swap2\n      swap1\n      tag_75\n      jump\t// in\n    tag_74:\n      mload(0x40)\n      dup1\n      swap2\n      sub\n      swap1\n      return\n        /* \"contracts/PollBetContract.sol\":2104:2548  function getPollVotes(uint _pollId) public view returns (uint) { // should this be public, we have used the requuire statement... */\n    tag_15:\n      tag_76\n      0x04\n      dup1\n      calldatasize\n      sub\n      dup2\n      add\n      swap1\n      tag_77\n      swap2\n      swap1\n      tag_47\n      jump\t// in\n    tag_77:\n      tag_78\n      jump\t// in\n    tag_76:\n      mload(0x40)\n      tag_79\n      swap2\n      swap1\n      tag_28\n      jump\t// in\n    tag_79:\n      mload(0x40)\n      dup1\n      swap2\n      sub\n      swap1\n      return\n        /* \"contracts/PollBetContract.sol\":959:979  uint public betCount */\n    tag_16:\n      tag_80\n      tag_81\n      jump\t// in\n    tag_80:\n      mload(0x40)\n      tag_82\n      swap2\n      swap1\n      tag_28\n      jump\t// in\n    tag_82:\n      mload(0x40)\n      dup1\n      swap2\n      sub\n      swap1\n      return\n        /* \"contracts/PollBetContract.sol\":1497:2098  function createPoll(uint _startTime, uint _endTime, string[] memory _options) public {... */\n    tag_17:\n      tag_83\n      0x04\n      dup1\n      calldatasize\n      sub\n      dup2\n      add\n      swap1\n      tag_84\n      swap2\n      swap1\n      tag_85\n      jump\t// in\n    tag_84:\n      tag_86\n      jump\t// in\n    tag_83:\n      stop\n        /* \"contracts/PollBetContract.sol\":4671:4747  function getOdds(uint _pollId, uint _pollChoice) public view returns(uint){} */\n    tag_18:\n      tag_87\n      0x04\n      dup1\n      calldatasize\n      sub\n      dup2\n      add\n      swap1\n      tag_88\n      swap2\n      swap1\n      tag_36\n      jump\t// in\n    tag_88:\n      tag_89\n      jump\t// in\n    tag_87:\n      mload(0x40)\n      tag_90\n      swap2\n      swap1\n      tag_28\n      jump\t// in\n    tag_90:\n      mload(0x40)\n      dup1\n      swap2\n      sub\n      swap1\n      return\n        /* \"contracts/PollBetContract.sol\":4753:4783  function closePoll() public {} */\n    tag_19:\n      tag_91\n      tag_92\n      jump\t// in\n    tag_91:\n      stop\n        /* \"contracts/PollBetContract.sol\":1077:1134  mapping(uint => mapping(address => uint)) public pollBets */\n    tag_26:\n      mstore(0x20, 0x03)\n      dup2\n      0x00\n      mstore\n      mstore(0x20, keccak256(0x00, 0x40))\n      dup1\n      0x00\n      mstore\n      keccak256(0x00, 0x40)\n      0x00\n      swap2\n      pop\n      swap2\n      pop\n      pop\n      sload\n      dup2\n      jump\t// out\n        /* \"contracts/PollBetContract.sol\":1188:1228  mapping(address => uint) public balances */\n    tag_32:\n      mstore(0x20, 0x05)\n      dup1\n      0x00\n      mstore\n      keccak256(0x00, 0x40)\n      0x00\n      swap2\n      pop\n      swap1\n      pop\n      sload\n      dup2\n      jump\t// out\n        /* \"contracts/PollBetContract.sol\":1234:1276  mapping(uint => Bet[]) public pollBetsList */\n    tag_37:\n      mstore(0x20, 0x06)\n      dup2\n      0x00\n      mstore\n      keccak256(0x00, 0x40)\n      dup2\n      dup2\n      sload\n      dup2\n      lt\n      tag_93\n      jumpi\n      0x00\n      dup1\n      revert\n    tag_93:\n      swap1\n      0x00\n      mstore\n      keccak256(0x00, 0x20)\n      swap1\n      0x04\n      mul\n      add\n      0x00\n      swap2\n      pop\n      swap2\n      pop\n      pop\n      dup1\n      0x00\n      add\n      sload\n      swap1\n      dup1\n      0x01\n      add\n      dup1\n      sload\n      tag_95\n      swap1\n      tag_96\n      jump\t// in\n    tag_95:\n      dup1\n      0x1f\n      add\n      0x20\n      dup1\n      swap2\n      div\n      mul\n      0x20\n      add\n      mload(0x40)\n      swap1\n      dup2\n      add\n      0x40\n      mstore\n      dup1\n      swap3\n      swap2\n      swap1\n      dup2\n      dup2\n      mstore\n      0x20\n      add\n      dup3\n      dup1\n      sload\n      tag_97\n      swap1\n      tag_96\n      jump\t// in\n    tag_97:\n      dup1\n      iszero\n      tag_98\n      jumpi\n      dup1\n      0x1f\n      lt\n      tag_99\n      jumpi\n      0x0100\n      dup1\n      dup4\n      sload\n      div\n      mul\n      dup4\n      mstore\n      swap2\n      0x20\n      add\n      swap2\n      jump(tag_98)\n    tag_99:\n      dup3\n      add\n      swap2\n      swap1\n      0x00\n      mstore\n      keccak256(0x00, 0x20)\n      swap1\n    tag_100:\n      dup2\n      sload\n      dup2\n      mstore\n      swap1\n      0x01\n      add\n      swap1\n      0x20\n      add\n      dup1\n      dup4\n      gt\n      tag_100\n      jumpi\n      dup3\n      swap1\n      sub\n      0x1f\n      and\n      dup3\n      add\n      swap2\n    tag_98:\n      pop\n      pop\n      pop\n      pop\n      pop\n      swap1\n      dup1\n      0x02\n      add\n      0x00\n      swap1\n      sload\n      swap1\n      0x0100\n      exp\n      swap1\n      div\n      0xffffffffffffffffffffffffffffffffffffffff\n      and\n      swap1\n      dup1\n      0x03\n      add\n      sload\n      swap1\n      pop\n      dup5\n      jump\t// out\n        /* \"contracts/PollBetContract.sol\":1282:1339  mapping(uint => mapping(address => bool)) public hasVoted */\n    tag_42:\n      mstore(0x20, 0x07)\n      dup2\n      0x00\n      mstore\n      mstore(0x20, keccak256(0x00, 0x40))\n      dup1\n      0x00\n      mstore\n      keccak256(0x00, 0x40)\n      0x00\n      swap2\n      pop\n      swap2\n      pop\n      swap1\n      sload\n      swap1\n      0x0100\n      exp\n      swap1\n      div\n      0xff\n      and\n      dup2\n      jump\t// out\n        /* \"contracts/PollBetContract.sol\":1030:1071  mapping(uint => uint) public pollBetTotal */\n    tag_48:\n      mstore(0x20, 0x02)\n      dup1\n      0x00\n      mstore\n      keccak256(0x00, 0x40)\n      0x00\n      swap2\n      pop\n      swap1\n      pop\n      sload\n      dup2\n      jump\t// out\n        /* \"contracts/PollBetContract.sol\":2554:3293  function voteOnPoll(uint _pollId, uint _pollChoice) public {... */\n    tag_52:\n        /* \"contracts/PollBetContract.sol\":2623:2640  Poll storage poll */\n      0x00\n        /* \"contracts/PollBetContract.sol\":2643:2648  polls */\n      0x09\n        /* \"contracts/PollBetContract.sol\":2649:2656  _pollId */\n      dup4\n        /* \"contracts/PollBetContract.sol\":2643:2657  polls[_pollId] */\n      dup2\n      sload\n      dup2\n      lt\n      tag_102\n      jumpi\n      tag_103\n      tag_104\n      jump\t// in\n    tag_103:\n    tag_102:\n      swap1\n      0x00\n      mstore\n      keccak256(0x00, 0x20)\n      swap1\n      0x06\n      mul\n      add\n        /* \"contracts/PollBetContract.sol\":2623:2657  Poll storage poll = polls[_pollId] */\n      swap1\n      pop\n        /* \"contracts/PollBetContract.sol\":2685:2693  hasVoted */\n      0x07\n        /* \"contracts/PollBetContract.sol\":2685:2702  hasVoted[_pollId] */\n      0x00\n        /* \"contracts/PollBetContract.sol\":2694:2701  _pollId */\n      dup5\n        /* \"contracts/PollBetContract.sol\":2685:2702  hasVoted[_pollId] */\n      dup2\n      mstore\n      0x20\n      add\n      swap1\n      dup2\n      mstore\n      0x20\n      add\n      0x00\n      keccak256\n        /* \"contracts/PollBetContract.sol\":2685:2714  hasVoted[_pollId][msg.sender] */\n      0x00\n        /* \"contracts/PollBetContract.sol\":2703:2713  msg.sender */\n      caller\n        /* \"contracts/PollBetContract.sol\":2685:2714  hasVoted[_pollId][msg.sender] */\n      0xffffffffffffffffffffffffffffffffffffffff\n      and\n      0xffffffffffffffffffffffffffffffffffffffff\n      and\n      dup2\n      mstore\n      0x20\n      add\n      swap1\n      dup2\n      mstore\n      0x20\n      add\n      0x00\n      keccak256\n      0x00\n      swap1\n      sload\n      swap1\n      0x0100\n      exp\n      swap1\n      div\n      0xff\n      and\n        /* \"contracts/PollBetContract.sol\":2684:2714  !hasVoted[_pollId][msg.sender] */\n      iszero\n        /* \"contracts/PollBetContract.sol\":2676:2732  require(!hasVoted[_pollId][msg.sender], \"Already voted\") */\n      tag_106\n      jumpi\n      mload(0x40)\n      0x08c379a000000000000000000000000000000000000000000000000000000000\n      dup2\n      mstore\n      0x04\n      add\n      tag_107\n      swap1\n      tag_108\n      jump\t// in\n    tag_107:\n      mload(0x40)\n      dup1\n      swap2\n      sub\n      swap1\n      revert\n    tag_106:\n        /* \"contracts/PollBetContract.sol\":2750:2754  poll */\n      dup1\n        /* \"contracts/PollBetContract.sol\":2750:2761  poll.isOpen */\n      0x05\n      add\n      0x00\n      swap1\n      sload\n      swap1\n      0x0100\n      exp\n      swap1\n      div\n      0xff\n      and\n        /* \"contracts/PollBetContract.sol\":2742:2780  require(poll.isOpen, \"Poll is closed\") */\n      tag_109\n      jumpi\n      mload(0x40)\n      0x08c379a000000000000000000000000000000000000000000000000000000000\n      dup2\n      mstore\n      0x04\n      add\n      tag_110\n      swap1\n      tag_111\n      jump\t// in\n    tag_110:\n      mload(0x40)\n      dup1\n      swap2\n      sub\n      swap1\n      revert\n    tag_109:\n        /* \"contracts/PollBetContract.sol\":2817:2821  poll */\n      dup1\n        /* \"contracts/PollBetContract.sol\":2817:2831  poll.startTime */\n      0x02\n      add\n      sload\n        /* \"contracts/PollBetContract.sol\":2798:2813  block.timestamp */\n      timestamp\n        /* \"contracts/PollBetContract.sol\":2798:2831  block.timestamp >= poll.startTime */\n      lt\n      iszero\n        /* \"contracts/PollBetContract.sol\":2798:2866  block.timestamp >= poll.startTime && block.timestamp <= poll.endTime */\n      dup1\n      iszero\n      tag_112\n      jumpi\n      pop\n        /* \"contracts/PollBetContract.sol\":2854:2858  poll */\n      dup1\n        /* \"contracts/PollBetContract.sol\":2854:2866  poll.endTime */\n      0x03\n      add\n      sload\n        /* \"contracts/PollBetContract.sol\":2835:2850  block.timestamp */\n      timestamp\n        /* \"contracts/PollBetContract.sol\":2835:2866  block.timestamp <= poll.endTime */\n      gt\n      iszero\n        /* \"contracts/PollBetContract.sol\":2798:2866  block.timestamp >= poll.startTime && block.timestamp <= poll.endTime */\n    tag_112:\n        /* \"contracts/PollBetContract.sol\":2790:2889  require(block.timestamp >= poll.startTime && block.timestamp <= poll.endTime, \"Poll is not active\") */\n      tag_113\n      jumpi\n      mload(0x40)\n      0x08c379a000000000000000000000000000000000000000000000000000000000\n      dup2\n      mstore\n      0x04\n      add\n      tag_114\n      swap1\n      tag_115\n      jump\t// in\n    tag_114:\n      mload(0x40)\n      dup1\n      swap2\n      sub\n      swap1\n      revert\n    tag_113:\n        /* \"contracts/PollBetContract.sol\":2922:2923  0 */\n      0x00\n        /* \"contracts/PollBetContract.sol\":2907:2918  _pollChoice */\n      dup3\n        /* \"contracts/PollBetContract.sol\":2907:2923  _pollChoice >= 0 */\n      lt\n      iszero\n        /* \"contracts/PollBetContract.sol\":2907:2960  _pollChoice >= 0 && _pollChoice < poll.choices.length */\n      dup1\n      iszero\n      tag_116\n      jumpi\n      pop\n        /* \"contracts/PollBetContract.sol\":2941:2945  poll */\n      dup1\n        /* \"contracts/PollBetContract.sol\":2941:2953  poll.choices */\n      0x04\n      add\n        /* \"contracts/PollBetContract.sol\":2941:2960  poll.choices.length */\n      dup1\n      sload\n      swap1\n      pop\n        /* \"contracts/PollBetContract.sol\":2927:2938  _pollChoice */\n      dup3\n        /* \"contracts/PollBetContract.sol\":2927:2960  _pollChoice < poll.choices.length */\n      lt\n        /* \"contracts/PollBetContract.sol\":2907:2960  _pollChoice >= 0 && _pollChoice < poll.choices.length */\n    tag_116:\n        /* \"contracts/PollBetContract.sol\":2899:2979  require(_pollChoice >= 0 && _pollChoice < poll.choices.length, \"Invalid choice\") */\n      tag_117\n      jumpi\n      mload(0x40)\n      0x08c379a000000000000000000000000000000000000000000000000000000000\n      dup2\n      mstore\n      0x04\n      add\n      tag_118\n      swap1\n      tag_119\n      jump\t// in\n    tag_118:\n      mload(0x40)\n      dup1\n      swap2\n      sub\n      swap1\n      revert\n    tag_117:\n        /* \"contracts/PollBetContract.sol\":3022:3026  true */\n      0x01\n        /* \"contracts/PollBetContract.sol\":2990:2998  hasVoted */\n      0x07\n        /* \"contracts/PollBetContract.sol\":2990:3007  hasVoted[_pollId] */\n      0x00\n        /* \"contracts/PollBetContract.sol\":2999:3006  _pollId */\n      dup6\n        /* \"contracts/PollBetContract.sol\":2990:3007  hasVoted[_pollId] */\n      dup2\n      mstore\n      0x20\n      add\n      swap1\n      dup2\n      mstore\n      0x20\n      add\n      0x00\n      keccak256\n        /* \"contracts/PollBetContract.sol\":2990:3019  hasVoted[_pollId][msg.sender] */\n      0x00\n        /* \"contracts/PollBetContract.sol\":3008:3018  msg.sender */\n      caller\n        /* \"contracts/PollBetContract.sol\":2990:3019  hasVoted[_pollId][msg.sender] */\n      0xffffffffffffffffffffffffffffffffffffffff\n      and\n      0xffffffffffffffffffffffffffffffffffffffff\n      and\n      dup2\n      mstore\n      0x20\n      add\n      swap1\n      dup2\n      mstore\n      0x20\n      add\n      0x00\n      keccak256\n      0x00\n        /* \"contracts/PollBetContract.sol\":2990:3026  hasVoted[_pollId][msg.sender] = true */\n      0x0100\n      exp\n      dup2\n      sload\n      dup2\n      0xff\n      mul\n      not\n      and\n      swap1\n      dup4\n      iszero\n      iszero\n      mul\n      or\n      swap1\n      sstore\n      pop\n        /* \"contracts/PollBetContract.sol\":3037:3058  Voter memory newVoter */\n      0x00\n        /* \"contracts/PollBetContract.sol\":3061:3178  Voter({... */\n      mload(0x40)\n      dup1\n      0x60\n      add\n      0x40\n      mstore\n      dup1\n        /* \"contracts/PollBetContract.sol\":3089:3096  _pollId */\n      dup6\n        /* \"contracts/PollBetContract.sol\":3061:3178  Voter({... */\n      dup2\n      mstore\n      0x20\n      add\n        /* \"contracts/PollBetContract.sol\":3124:3134  msg.sender */\n      caller\n        /* \"contracts/PollBetContract.sol\":3061:3178  Voter({... */\n      0xffffffffffffffffffffffffffffffffffffffff\n      and\n      dup2\n      mstore\n      0x20\n      add\n        /* \"contracts/PollBetContract.sol\":3156:3167  _pollChoice */\n      dup5\n        /* \"contracts/PollBetContract.sol\":3061:3178  Voter({... */\n      dup2\n      mstore\n      pop\n        /* \"contracts/PollBetContract.sol\":3037:3178  Voter memory newVoter = Voter({... */\n      swap1\n      pop\n        /* \"contracts/PollBetContract.sol\":3218:3226  newVoter */\n      dup1\n        /* \"contracts/PollBetContract.sol\":3188:3194  voters */\n      0x08\n        /* \"contracts/PollBetContract.sol\":3188:3203  voters[_pollId] */\n      0x00\n        /* \"contracts/PollBetContract.sol\":3195:3202  _pollId */\n      dup7\n        /* \"contracts/PollBetContract.sol\":3188:3203  voters[_pollId] */\n      dup2\n      mstore\n      0x20\n      add\n      swap1\n      dup2\n      mstore\n      0x20\n      add\n      0x00\n      keccak256\n        /* \"contracts/PollBetContract.sol\":3188:3215  voters[_pollId][msg.sender] */\n      0x00\n        /* \"contracts/PollBetContract.sol\":3204:3214  msg.sender */\n      caller\n        /* \"contracts/PollBetContract.sol\":3188:3215  voters[_pollId][msg.sender] */\n      0xffffffffffffffffffffffffffffffffffffffff\n      and\n      0xffffffffffffffffffffffffffffffffffffffff\n      and\n      dup2\n      mstore\n      0x20\n      add\n      swap1\n      dup2\n      mstore\n      0x20\n      add\n      0x00\n      keccak256\n        /* \"contracts/PollBetContract.sol\":3188:3226  voters[_pollId][msg.sender] = newVoter */\n      0x00\n      dup3\n      add\n      mload\n      dup2\n      0x00\n      add\n      sstore\n      0x20\n      dup3\n      add\n      mload\n      dup2\n      0x01\n      add\n      exp(0x0100, 0x00)\n      dup2\n      sload\n      dup2\n      0xffffffffffffffffffffffffffffffffffffffff\n      mul\n      not\n      and\n      swap1\n      dup4\n      0xffffffffffffffffffffffffffffffffffffffff\n      and\n      mul\n      or\n      swap1\n      sstore\n      pop\n      0x40\n      dup3\n      add\n      mload\n      dup2\n      0x02\n      add\n      sstore\n      swap1\n      pop\n      pop\n        /* \"contracts/PollBetContract.sol\":3262:3272  msg.sender */\n      caller\n        /* \"contracts/PollBetContract.sol\":3242:3286  VoteCasted(_pollId, msg.sender, _pollChoice) */\n      0xffffffffffffffffffffffffffffffffffffffff\n      and\n        /* \"contracts/PollBetContract.sol\":3253:3260  _pollId */\n      dup5\n        /* \"contracts/PollBetContract.sol\":3242:3286  VoteCasted(_pollId, msg.sender, _pollChoice) */\n      0xe7ee74ca1f4bb1b82b14f87794c45b3e59c39e372b862fb97a6316b43355b69e\n        /* \"contracts/PollBetContract.sol\":3274:3285  _pollChoice */\n      dup6\n        /* \"contracts/PollBetContract.sol\":3242:3286  VoteCasted(_pollId, msg.sender, _pollChoice) */\n      mload(0x40)\n      tag_120\n      swap2\n      swap1\n      tag_28\n      jump\t// in\n    tag_120:\n      mload(0x40)\n      dup1\n      swap2\n      sub\n      swap1\n      log3\n        /* \"contracts/PollBetContract.sol\":2613:3293  {... */\n      pop\n      pop\n        /* \"contracts/PollBetContract.sol\":2554:3293  function voteOnPoll(uint _pollId, uint _pollChoice) public {... */\n      pop\n      pop\n      jump\t// out\n        /* \"contracts/PollBetContract.sol\":4552:4665  function getBetCount(uint _pollId) public view returns(uint) {... */\n    tag_55:\n        /* \"contracts/PollBetContract.sol\":4607:4611  uint */\n      0x00\n        /* \"contracts/PollBetContract.sol\":4630:4642  pollBetsList */\n      0x06\n        /* \"contracts/PollBetContract.sol\":4630:4651  pollBetsList[_pollId] */\n      0x00\n        /* \"contracts/PollBetContract.sol\":4643:4650  _pollId */\n      dup4\n        /* \"contracts/PollBetContract.sol\":4630:4651  pollBetsList[_pollId] */\n      dup2\n      mstore\n      0x20\n      add\n      swap1\n      dup2\n      mstore\n      0x20\n      add\n      0x00\n      keccak256\n        /* \"contracts/PollBetContract.sol\":4630:4658  pollBetsList[_pollId].length */\n      dup1\n      sload\n      swap1\n      pop\n        /* \"contracts/PollBetContract.sol\":4623:4658  return pollBetsList[_pollId].length */\n      swap1\n      pop\n        /* \"contracts/PollBetContract.sol\":4552:4665  function getBetCount(uint _pollId) public view returns(uint) {... */\n      swap2\n      swap1\n      pop\n      jump\t// out\n        /* \"contracts/PollBetContract.sol\":4821:4859  function distributeRewards() public {} */\n    tag_58:\n      jump\t// out\n        /* \"contracts/PollBetContract.sol\":1140:1182  mapping(uint => uint[]) public pollWinners */\n    tag_61:\n      mstore(0x20, 0x04)\n      dup2\n      0x00\n      mstore\n      keccak256(0x00, 0x40)\n      dup2\n      dup2\n      sload\n      dup2\n      lt\n      tag_123\n      jumpi\n      0x00\n      dup1\n      revert\n    tag_123:\n      swap1\n      0x00\n      mstore\n      keccak256(0x00, 0x20)\n      add\n      0x00\n      swap2\n      pop\n      swap2\n      pop\n      pop\n      sload\n      dup2\n      jump\t// out\n        /* \"contracts/PollBetContract.sol\":932:953  uint public pollCount */\n    tag_64:\n      sload(0x00)\n      dup2\n      jump\t// out\n        /* \"contracts/PollBetContract.sol\":1345:1401  mapping(uint => mapping(address => Voter)) public voters */\n    tag_68:\n      mstore(0x20, 0x08)\n      dup2\n      0x00\n      mstore\n      mstore(0x20, keccak256(0x00, 0x40))\n      dup1\n      0x00\n      mstore\n      keccak256(0x00, 0x40)\n      0x00\n      swap2\n      pop\n      swap2\n      pop\n      pop\n      dup1\n      0x00\n      add\n      sload\n      swap1\n      dup1\n      0x01\n      add\n      0x00\n      swap1\n      sload\n      swap1\n      0x0100\n      exp\n      swap1\n      div\n      0xffffffffffffffffffffffffffffffffffffffff\n      and\n      swap1\n      dup1\n      0x02\n      add\n      sload\n      swap1\n      pop\n      dup4\n      jump\t// out\n        /* \"contracts/PollBetContract.sol\":1408:1427  Poll[] public polls */\n    tag_73:\n      0x09\n      dup2\n      dup2\n      sload\n      dup2\n      lt\n      tag_125\n      jumpi\n      0x00\n      dup1\n      revert\n    tag_125:\n      swap1\n      0x00\n      mstore\n      keccak256(0x00, 0x20)\n      swap1\n      0x06\n      mul\n      add\n      0x00\n      swap2\n      pop\n      swap1\n      pop\n      dup1\n      0x00\n      add\n      sload\n      swap1\n      dup1\n      0x01\n      add\n      0x00\n      swap1\n      sload\n      swap1\n      0x0100\n      exp\n      swap1\n      div\n      0xffffffffffffffffffffffffffffffffffffffff\n      and\n      swap1\n      dup1\n      0x02\n      add\n      sload\n      swap1\n      dup1\n      0x03\n      add\n      sload\n      swap1\n      dup1\n      0x05\n      add\n      0x00\n      swap1\n      sload\n      swap1\n      0x0100\n      exp\n      swap1\n      div\n      0xff\n      and\n      swap1\n      pop\n      dup6\n      jump\t// out\n        /* \"contracts/PollBetContract.sol\":2104:2548  function getPollVotes(uint _pollId) public view returns (uint) { // should this be public, we have used the requuire statement... */\n    tag_78:\n        /* \"contracts/PollBetContract.sol\":2161:2165  uint */\n      0x00\n        /* \"contracts/PollBetContract.sol\":2265:2270  polls */\n      0x09\n        /* \"contracts/PollBetContract.sol\":2271:2278  _pollId */\n      dup3\n        /* \"contracts/PollBetContract.sol\":2265:2279  polls[_pollId] */\n      dup2\n      sload\n      dup2\n      lt\n      tag_128\n      jumpi\n      tag_129\n      tag_104\n      jump\t// in\n    tag_129:\n    tag_128:\n      swap1\n      0x00\n      mstore\n      keccak256(0x00, 0x20)\n      swap1\n      0x06\n      mul\n      add\n        /* \"contracts/PollBetContract.sol\":2265:2287  polls[_pollId].endTime */\n      0x03\n      add\n      sload\n        /* \"contracts/PollBetContract.sol\":2247:2262  block.timestamp */\n      timestamp\n        /* \"contracts/PollBetContract.sol\":2247:2287  block.timestamp > polls[_pollId].endTime */\n      gt\n        /* \"contracts/PollBetContract.sol\":2239:2314  require(block.timestamp > polls[_pollId].endTime, \"Poll has not ended yet\") */\n      tag_131\n      jumpi\n      mload(0x40)\n      0x08c379a000000000000000000000000000000000000000000000000000000000\n      dup2\n      mstore\n      0x04\n      add\n      tag_132\n      swap1\n      tag_133\n      jump\t// in\n    tag_132:\n      mload(0x40)\n      dup1\n      swap2\n      sub\n      swap1\n      revert\n    tag_131:\n        /* \"contracts/PollBetContract.sol\":2540:2541  0 */\n      0x00\n        /* \"contracts/PollBetContract.sol\":2533:2541  return 0 */\n      swap1\n      pop\n        /* \"contracts/PollBetContract.sol\":2104:2548  function getPollVotes(uint _pollId) public view returns (uint) { // should this be public, we have used the requuire statement... */\n      swap2\n      swap1\n      pop\n      jump\t// out\n        /* \"contracts/PollBetContract.sol\":959:979  uint public betCount */\n    tag_81:\n      sload(0x01)\n      dup2\n      jump\t// out\n        /* \"contracts/PollBetContract.sol\":1497:2098  function createPoll(uint _startTime, uint _endTime, string[] memory _options) public {... */\n    tag_86:\n        /* \"contracts/PollBetContract.sol\":1611:1621  _startTime */\n      dup3\n        /* \"contracts/PollBetContract.sol\":1600:1608  _endTime */\n      dup3\n        /* \"contracts/PollBetContract.sol\":1600:1621  _endTime > _startTime */\n      gt\n        /* \"contracts/PollBetContract.sol\":1592:1647  require(_endTime > _startTime, \"Invalid poll end time\") */\n      tag_135\n      jumpi\n      mload(0x40)\n      0x08c379a000000000000000000000000000000000000000000000000000000000\n      dup2\n      mstore\n      0x04\n      add\n      tag_136\n      swap1\n      tag_137\n      jump\t// in\n    tag_136:\n      mload(0x40)\n      dup1\n      swap2\n      sub\n      swap1\n      revert\n    tag_135:\n        /* \"contracts/PollBetContract.sol\":1683:1684  1 */\n      0x01\n        /* \"contracts/PollBetContract.sol\":1665:1673  _options */\n      dup2\n        /* \"contracts/PollBetContract.sol\":1665:1680  _options.length */\n      mload\n        /* \"contracts/PollBetContract.sol\":1665:1684  _options.length > 1 */\n      gt\n        /* \"contracts/PollBetContract.sol\":1657:1718  require(_options.length > 1, \"At least two options required\") */\n      tag_138\n      jumpi\n      mload(0x40)\n      0x08c379a000000000000000000000000000000000000000000000000000000000\n      dup2\n      mstore\n      0x04\n      add\n      tag_139\n      swap1\n      tag_140\n      jump\t// in\n    tag_139:\n      mload(0x40)\n      dup1\n      swap2\n      sub\n      swap1\n      revert\n    tag_138:\n        /* \"contracts/PollBetContract.sol\":1729:1738  pollCount */\n      0x00\n      dup1\n        /* \"contracts/PollBetContract.sol\":1729:1740  pollCount++ */\n      dup2\n      sload\n      dup1\n      swap3\n      swap2\n      swap1\n      tag_141\n      swap1\n      tag_142\n      jump\t// in\n    tag_141:\n      swap2\n      swap1\n      pop\n      sstore\n      pop\n        /* \"contracts/PollBetContract.sol\":1751:1770  Poll memory newPoll */\n      0x00\n        /* \"contracts/PollBetContract.sol\":1773:1972  Poll({... */\n      mload(0x40)\n      dup1\n      0xc0\n      add\n      0x40\n      mstore\n      dup1\n        /* \"contracts/PollBetContract.sol\":1796:1805  pollCount */\n      sload(0x00)\n        /* \"contracts/PollBetContract.sol\":1773:1972  Poll({... */\n      dup2\n      mstore\n      0x20\n      add\n        /* \"contracts/PollBetContract.sol\":1828:1838  msg.sender */\n      caller\n        /* \"contracts/PollBetContract.sol\":1773:1972  Poll({... */\n      0xffffffffffffffffffffffffffffffffffffffff\n      and\n      dup2\n      mstore\n      0x20\n      add\n        /* \"contracts/PollBetContract.sol\":1863:1873  _startTime */\n      dup6\n        /* \"contracts/PollBetContract.sol\":1773:1972  Poll({... */\n      dup2\n      mstore\n      0x20\n      add\n        /* \"contracts/PollBetContract.sol\":1896:1904  _endTime */\n      dup5\n        /* \"contracts/PollBetContract.sol\":1773:1972  Poll({... */\n      dup2\n      mstore\n      0x20\n      add\n        /* \"contracts/PollBetContract.sol\":1927:1935  _options */\n      dup4\n        /* \"contracts/PollBetContract.sol\":1773:1972  Poll({... */\n      dup2\n      mstore\n      0x20\n      add\n        /* \"contracts/PollBetContract.sol\":1957:1961  true */\n      0x01\n        /* \"contracts/PollBetContract.sol\":1773:1972  Poll({... */\n      iszero\n      iszero\n      dup2\n      mstore\n      pop\n        /* \"contracts/PollBetContract.sol\":1751:1972  Poll memory newPoll = Poll({... */\n      swap1\n      pop\n        /* \"contracts/PollBetContract.sol\":2002:2009  newPoll */\n      dup1\n        /* \"contracts/PollBetContract.sol\":1983:1988  polls */\n      0x09\n        /* \"contracts/PollBetContract.sol\":1989:1998  pollCount */\n      sload(0x00)\n        /* \"contracts/PollBetContract.sol\":1983:1999  polls[pollCount] */\n      dup2\n      sload\n      dup2\n      lt\n      tag_143\n      jumpi\n      tag_144\n      tag_104\n      jump\t// in\n    tag_144:\n    tag_143:\n      swap1\n      0x00\n      mstore\n      keccak256(0x00, 0x20)\n      swap1\n      0x06\n      mul\n      add\n        /* \"contracts/PollBetContract.sol\":1983:2009  polls[pollCount] = newPoll */\n      0x00\n      dup3\n      add\n      mload\n      dup2\n      0x00\n      add\n      sstore\n      0x20\n      dup3\n      add\n      mload\n      dup2\n      0x01\n      add\n      exp(0x0100, 0x00)\n      dup2\n      sload\n      dup2\n      0xffffffffffffffffffffffffffffffffffffffff\n      mul\n      not\n      and\n      swap1\n      dup4\n      0xffffffffffffffffffffffffffffffffffffffff\n      and\n      mul\n      or\n      swap1\n      sstore\n      pop\n      0x40\n      dup3\n      add\n      mload\n      dup2\n      0x02\n      add\n      sstore\n      0x60\n      dup3\n      add\n      mload\n      dup2\n      0x03\n      add\n      sstore\n      0x80\n      dup3\n      add\n      mload\n      dup2\n      0x04\n      add\n      swap1\n      dup1\n      mload\n      swap1\n      0x20\n      add\n      swap1\n      tag_146\n      swap3\n      swap2\n      swap1\n      tag_147\n      jump\t// in\n    tag_146:\n      pop\n      0xa0\n      dup3\n      add\n      mload\n      dup2\n      0x05\n      add\n      exp(0x0100, 0x00)\n      dup2\n      sload\n      dup2\n      0xff\n      mul\n      not\n      and\n      swap1\n      dup4\n      iszero\n      iszero\n      mul\n      or\n      swap1\n      sstore\n      pop\n      swap1\n      pop\n      pop\n        /* \"contracts/PollBetContract.sol\":2048:2058  msg.sender */\n      caller\n        /* \"contracts/PollBetContract.sol\":2025:2091  PollCreated(pollCount, msg.sender, _startTime, _endTime, _options) */\n      0xffffffffffffffffffffffffffffffffffffffff\n      and\n        /* \"contracts/PollBetContract.sol\":2037:2046  pollCount */\n      sload(0x00)\n        /* \"contracts/PollBetContract.sol\":2025:2091  PollCreated(pollCount, msg.sender, _startTime, _endTime, _options) */\n      0x58d87e181e9ac91f8ccda34caaf4c15db2a9fc345a86ea48e378d6e4359dfdb9\n        /* \"contracts/PollBetContract.sol\":2060:2070  _startTime */\n      dup7\n        /* \"contracts/PollBetContract.sol\":2072:2080  _endTime */\n      dup7\n        /* \"contracts/PollBetContract.sol\":2082:2090  _options */\n      dup7\n        /* \"contracts/PollBetContract.sol\":2025:2091  PollCreated(pollCount, msg.sender, _startTime, _endTime, _options) */\n      mload(0x40)\n      tag_148\n      swap4\n      swap3\n      swap2\n      swap1\n      tag_149\n      jump\t// in\n    tag_148:\n      mload(0x40)\n      dup1\n      swap2\n      sub\n      swap1\n      log3\n        /* \"contracts/PollBetContract.sol\":1582:2098  {... */\n      pop\n        /* \"contracts/PollBetContract.sol\":1497:2098  function createPoll(uint _startTime, uint _endTime, string[] memory _options) public {... */\n      pop\n      pop\n      pop\n      jump\t// out\n        /* \"contracts/PollBetContract.sol\":4671:4747  function getOdds(uint _pollId, uint _pollChoice) public view returns(uint){} */\n    tag_89:\n        /* \"contracts/PollBetContract.sol\":4740:4744  uint */\n      0x00\n        /* \"contracts/PollBetContract.sol\":4671:4747  function getOdds(uint _pollId, uint _pollChoice) public view returns(uint){} */\n      swap3\n      swap2\n      pop\n      pop\n      jump\t// out\n        /* \"contracts/PollBetContract.sol\":4753:4783  function closePoll() public {} */\n    tag_92:\n      jump\t// out\n    tag_147:\n      dup3\n      dup1\n      sload\n      dup3\n      dup3\n      sstore\n      swap1\n      0x00\n      mstore\n      keccak256(0x00, 0x20)\n      swap1\n      dup2\n      add\n      swap3\n      dup3\n      iszero\n      tag_152\n      jumpi\n      swap2\n      0x20\n      mul\n      dup3\n      add\n    tag_153:\n      dup3\n      dup2\n      gt\n      iszero\n      tag_154\n      jumpi\n      dup3\n      mload\n      dup3\n      swap1\n      dup2\n      tag_155\n      swap2\n      swap1\n      tag_156\n      jump\t// in\n    tag_155:\n      pop\n      swap2\n      0x20\n      add\n      swap2\n      swap1\n      0x01\n      add\n      swap1\n      jump(tag_153)\n    tag_154:\n    tag_152:\n      pop\n      swap1\n      pop\n      tag_157\n      swap2\n      swap1\n      tag_158\n      jump\t// in\n    tag_157:\n      pop\n      swap1\n      jump\t// out\n    tag_158:\n    tag_159:\n      dup1\n      dup3\n      gt\n      iszero\n      tag_160\n      jumpi\n      0x00\n      dup2\n      dup2\n      tag_161\n      swap2\n      swap1\n      tag_162\n      jump\t// in\n    tag_161:\n      pop\n      0x01\n      add\n      jump(tag_159)\n    tag_160:\n      pop\n      swap1\n      jump\t// out\n    tag_162:\n      pop\n      dup1\n      sload\n      tag_163\n      swap1\n      tag_96\n      jump\t// in\n    tag_163:\n      0x00\n      dup3\n      sstore\n      dup1\n      0x1f\n      lt\n      tag_165\n      jumpi\n      pop\n      jump(tag_164)\n    tag_165:\n      0x1f\n      add\n      0x20\n      swap1\n      div\n      swap1\n      0x00\n      mstore\n      keccak256(0x00, 0x20)\n      swap1\n      dup2\n      add\n      swap1\n      tag_166\n      swap2\n      swap1\n      tag_167\n      jump\t// in\n    tag_166:\n    tag_164:\n      pop\n      jump\t// out\n    tag_167:\n    tag_168:\n      dup1\n      dup3\n      gt\n      iszero\n      tag_169\n      jumpi\n      0x00\n      dup2\n      0x00\n      swap1\n      sstore\n      pop\n      0x01\n      add\n      jump(tag_168)\n    tag_169:\n      pop\n      swap1\n      jump\t// out\n        /* \"#utility.yul\":7:82   */\n    tag_170:\n        /* \"#utility.yul\":40:46   */\n      0x00\n        /* \"#utility.yul\":73:75   */\n      0x40\n        /* \"#utility.yul\":67:76   */\n      mload\n        /* \"#utility.yul\":57:76   */\n      swap1\n      pop\n        /* \"#utility.yul\":7:82   */\n      swap1\n      jump\t// out\n        /* \"#utility.yul\":88:205   */\n    tag_171:\n        /* \"#utility.yul\":197:198   */\n      0x00\n        /* \"#utility.yul\":194:195   */\n      dup1\n        /* \"#utility.yul\":187:199   */\n      revert\n        /* \"#utility.yul\":211:328   */\n    tag_172:\n        /* \"#utility.yul\":320:321   */\n      0x00\n        /* \"#utility.yul\":317:318   */\n      dup1\n        /* \"#utility.yul\":310:322   */\n      revert\n        /* \"#utility.yul\":334:411   */\n    tag_173:\n        /* \"#utility.yul\":371:378   */\n      0x00\n        /* \"#utility.yul\":400:405   */\n      dup2\n        /* \"#utility.yul\":389:405   */\n      swap1\n      pop\n        /* \"#utility.yul\":334:411   */\n      swap2\n      swap1\n      pop\n      jump\t// out\n        /* \"#utility.yul\":417:539   */\n    tag_174:\n        /* \"#utility.yul\":490:514   */\n      tag_247\n        /* \"#utility.yul\":508:513   */\n      dup2\n        /* \"#utility.yul\":490:514   */\n      tag_173\n      jump\t// in\n    tag_247:\n        /* \"#utility.yul\":483:488   */\n      dup2\n        /* \"#utility.yul\":480:515   */\n      eq\n        /* \"#utility.yul\":470:533   */\n      tag_248\n      jumpi\n        /* \"#utility.yul\":529:530   */\n      0x00\n        /* \"#utility.yul\":526:527   */\n      dup1\n        /* \"#utility.yul\":519:531   */\n      revert\n        /* \"#utility.yul\":470:533   */\n    tag_248:\n        /* \"#utility.yul\":417:539   */\n      pop\n      jump\t// out\n        /* \"#utility.yul\":545:684   */\n    tag_175:\n        /* \"#utility.yul\":591:596   */\n      0x00\n        /* \"#utility.yul\":629:635   */\n      dup2\n        /* \"#utility.yul\":616:636   */\n      calldataload\n        /* \"#utility.yul\":607:636   */\n      swap1\n      pop\n        /* \"#utility.yul\":645:678   */\n      tag_250\n        /* \"#utility.yul\":672:677   */\n      dup2\n        /* \"#utility.yul\":645:678   */\n      tag_174\n      jump\t// in\n    tag_250:\n        /* \"#utility.yul\":545:684   */\n      swap3\n      swap2\n      pop\n      pop\n      jump\t// out\n        /* \"#utility.yul\":690:816   */\n    tag_176:\n        /* \"#utility.yul\":727:734   */\n      0x00\n        /* \"#utility.yul\":767:809   */\n      0xffffffffffffffffffffffffffffffffffffffff\n        /* \"#utility.yul\":760:765   */\n      dup3\n        /* \"#utility.yul\":756:810   */\n      and\n        /* \"#utility.yul\":745:810   */\n      swap1\n      pop\n        /* \"#utility.yul\":690:816   */\n      swap2\n      swap1\n      pop\n      jump\t// out\n        /* \"#utility.yul\":822:918   */\n    tag_177:\n        /* \"#utility.yul\":859:866   */\n      0x00\n        /* \"#utility.yul\":888:912   */\n      tag_253\n        /* \"#utility.yul\":906:911   */\n      dup3\n        /* \"#utility.yul\":888:912   */\n      tag_176\n      jump\t// in\n    tag_253:\n        /* \"#utility.yul\":877:912   */\n      swap1\n      pop\n        /* \"#utility.yul\":822:918   */\n      swap2\n      swap1\n      pop\n      jump\t// out\n        /* \"#utility.yul\":924:1046   */\n    tag_178:\n        /* \"#utility.yul\":997:1021   */\n      tag_255\n        /* \"#utility.yul\":1015:1020   */\n      dup2\n        /* \"#utility.yul\":997:1021   */\n      tag_177\n      jump\t// in\n    tag_255:\n        /* \"#utility.yul\":990:995   */\n      dup2\n        /* \"#utility.yul\":987:1022   */\n      eq\n        /* \"#utility.yul\":977:1040   */\n      tag_256\n      jumpi\n        /* \"#utility.yul\":1036:1037   */\n      0x00\n        /* \"#utility.yul\":1033:1034   */\n      dup1\n        /* \"#utility.yul\":1026:1038   */\n      revert\n        /* \"#utility.yul\":977:1040   */\n    tag_256:\n        /* \"#utility.yul\":924:1046   */\n      pop\n      jump\t// out\n        /* \"#utility.yul\":1052:1191   */\n    tag_179:\n        /* \"#utility.yul\":1098:1103   */\n      0x00\n        /* \"#utility.yul\":1136:1142   */\n      dup2\n        /* \"#utility.yul\":1123:1143   */\n      calldataload\n        /* \"#utility.yul\":1114:1143   */\n      swap1\n      pop\n        /* \"#utility.yul\":1152:1185   */\n      tag_258\n        /* \"#utility.yul\":1179:1184   */\n      dup2\n        /* \"#utility.yul\":1152:1185   */\n      tag_178\n      jump\t// in\n    tag_258:\n        /* \"#utility.yul\":1052:1191   */\n      swap3\n      swap2\n      pop\n      pop\n      jump\t// out\n        /* \"#utility.yul\":1197:1671   */\n    tag_25:\n        /* \"#utility.yul\":1265:1271   */\n      0x00\n        /* \"#utility.yul\":1273:1279   */\n      dup1\n        /* \"#utility.yul\":1322:1324   */\n      0x40\n        /* \"#utility.yul\":1310:1319   */\n      dup4\n        /* \"#utility.yul\":1301:1308   */\n      dup6\n        /* \"#utility.yul\":1297:1320   */\n      sub\n        /* \"#utility.yul\":1293:1325   */\n      slt\n        /* \"#utility.yul\":1290:1409   */\n      iszero\n      tag_260\n      jumpi\n        /* \"#utility.yul\":1328:1407   */\n      tag_261\n      tag_171\n      jump\t// in\n    tag_261:\n        /* \"#utility.yul\":1290:1409   */\n    tag_260:\n        /* \"#utility.yul\":1448:1449   */\n      0x00\n        /* \"#utility.yul\":1473:1526   */\n      tag_262\n        /* \"#utility.yul\":1518:1525   */\n      dup6\n        /* \"#utility.yul\":1509:1515   */\n      dup3\n        /* \"#utility.yul\":1498:1507   */\n      dup7\n        /* \"#utility.yul\":1494:1516   */\n      add\n        /* \"#utility.yul\":1473:1526   */\n      tag_175\n      jump\t// in\n    tag_262:\n        /* \"#utility.yul\":1463:1526   */\n      swap3\n      pop\n        /* \"#utility.yul\":1419:1536   */\n      pop\n        /* \"#utility.yul\":1575:1577   */\n      0x20\n        /* \"#utility.yul\":1601:1654   */\n      tag_263\n        /* \"#utility.yul\":1646:1653   */\n      dup6\n        /* \"#utility.yul\":1637:1643   */\n      dup3\n        /* \"#utility.yul\":1626:1635   */\n      dup7\n        /* \"#utility.yul\":1622:1644   */\n      add\n        /* \"#utility.yul\":1601:1654   */\n      tag_179\n      jump\t// in\n    tag_263:\n        /* \"#utility.yul\":1591:1654   */\n      swap2\n      pop\n        /* \"#utility.yul\":1546:1664   */\n      pop\n        /* \"#utility.yul\":1197:1671   */\n      swap3\n      pop\n      swap3\n      swap1\n      pop\n      jump\t// out\n        /* \"#utility.yul\":1677:1795   */\n    tag_180:\n        /* \"#utility.yul\":1764:1788   */\n      tag_265\n        /* \"#utility.yul\":1782:1787   */\n      dup2\n        /* \"#utility.yul\":1764:1788   */\n      tag_173\n      jump\t// in\n    tag_265:\n        /* \"#utility.yul\":1759:1762   */\n      dup3\n        /* \"#utility.yul\":1752:1789   */\n      mstore\n        /* \"#utility.yul\":1677:1795   */\n      pop\n      pop\n      jump\t// out\n        /* \"#utility.yul\":1801:2023   */\n    tag_28:\n        /* \"#utility.yul\":1894:1898   */\n      0x00\n        /* \"#utility.yul\":1932:1934   */\n      0x20\n        /* \"#utility.yul\":1921:1930   */\n      dup3\n        /* \"#utility.yul\":1917:1935   */\n      add\n        /* \"#utility.yul\":1909:1935   */\n      swap1\n      pop\n        /* \"#utility.yul\":1945:2016   */\n      tag_267\n        /* \"#utility.yul\":2013:2014   */\n      0x00\n        /* \"#utility.yul\":2002:2011   */\n      dup4\n        /* \"#utility.yul\":1998:2015   */\n      add\n        /* \"#utility.yul\":1989:1995   */\n      dup5\n        /* \"#utility.yul\":1945:2016   */\n      tag_180\n      jump\t// in\n    tag_267:\n        /* \"#utility.yul\":1801:2023   */\n      swap3\n      swap2\n      pop\n      pop\n      jump\t// out\n        /* \"#utility.yul\":2029:2358   */\n    tag_31:\n        /* \"#utility.yul\":2088:2094   */\n      0x00\n        /* \"#utility.yul\":2137:2139   */\n      0x20\n        /* \"#utility.yul\":2125:2134   */\n      dup3\n        /* \"#utility.yul\":2116:2123   */\n      dup5\n        /* \"#utility.yul\":2112:2135   */\n      sub\n        /* \"#utility.yul\":2108:2140   */\n      slt\n        /* \"#utility.yul\":2105:2224   */\n      iszero\n      tag_269\n      jumpi\n        /* \"#utility.yul\":2143:2222   */\n      tag_270\n      tag_171\n      jump\t// in\n    tag_270:\n        /* \"#utility.yul\":2105:2224   */\n    tag_269:\n        /* \"#utility.yul\":2263:2264   */\n      0x00\n        /* \"#utility.yul\":2288:2341   */\n      tag_271\n        /* \"#utility.yul\":2333:2340   */\n      dup5\n        /* \"#utility.yul\":2324:2330   */\n      dup3\n        /* \"#utility.yul\":2313:2322   */\n      dup6\n        /* \"#utility.yul\":2309:2331   */\n      add\n        /* \"#utility.yul\":2288:2341   */\n      tag_179\n      jump\t// in\n    tag_271:\n        /* \"#utility.yul\":2278:2341   */\n      swap2\n      pop\n        /* \"#utility.yul\":2234:2351   */\n      pop\n        /* \"#utility.yul\":2029:2358   */\n      swap3\n      swap2\n      pop\n      pop\n      jump\t// out\n        /* \"#utility.yul\":2364:2838   */\n    tag_36:\n        /* \"#utility.yul\":2432:2438   */\n      0x00\n        /* \"#utility.yul\":2440:2446   */\n      dup1\n        /* \"#utility.yul\":2489:2491   */\n      0x40\n        /* \"#utility.yul\":2477:2486   */\n      dup4\n        /* \"#utility.yul\":2468:2475   */\n      dup6\n        /* \"#utility.yul\":2464:2487   */\n      sub\n        /* \"#utility.yul\":2460:2492   */\n      slt\n        /* \"#utility.yul\":2457:2576   */\n      iszero\n      tag_273\n      jumpi\n        /* \"#utility.yul\":2495:2574   */\n      tag_274\n      tag_171\n      jump\t// in\n    tag_274:\n        /* \"#utility.yul\":2457:2576   */\n    tag_273:\n        /* \"#utility.yul\":2615:2616   */\n      0x00\n        /* \"#utility.yul\":2640:2693   */\n      tag_275\n        /* \"#utility.yul\":2685:2692   */\n      dup6\n        /* \"#utility.yul\":2676:2682   */\n      dup3\n        /* \"#utility.yul\":2665:2674   */\n      dup7\n        /* \"#utility.yul\":2661:2683   */\n      add\n        /* \"#utility.yul\":2640:2693   */\n      tag_175\n      jump\t// in\n    tag_275:\n        /* \"#utility.yul\":2630:2693   */\n      swap3\n      pop\n        /* \"#utility.yul\":2586:2703   */\n      pop\n        /* \"#utility.yul\":2742:2744   */\n      0x20\n        /* \"#utility.yul\":2768:2821   */\n      tag_276\n        /* \"#utility.yul\":2813:2820   */\n      dup6\n        /* \"#utility.yul\":2804:2810   */\n      dup3\n        /* \"#utility.yul\":2793:2802   */\n      dup7\n        /* \"#utility.yul\":2789:2811   */\n      add\n        /* \"#utility.yul\":2768:2821   */\n      tag_175\n      jump\t// in\n    tag_276:\n        /* \"#utility.yul\":2758:2821   */\n      swap2\n      pop\n        /* \"#utility.yul\":2713:2831   */\n      pop\n        /* \"#utility.yul\":2364:2838   */\n      swap3\n      pop\n      swap3\n      swap1\n      pop\n      jump\t// out\n        /* \"#utility.yul\":2844:2943   */\n    tag_181:\n        /* \"#utility.yul\":2896:2902   */\n      0x00\n        /* \"#utility.yul\":2930:2935   */\n      dup2\n        /* \"#utility.yul\":2924:2936   */\n      mload\n        /* \"#utility.yul\":2914:2936   */\n      swap1\n      pop\n        /* \"#utility.yul\":2844:2943   */\n      swap2\n      swap1\n      pop\n      jump\t// out\n        /* \"#utility.yul\":2949:3118   */\n    tag_182:\n        /* \"#utility.yul\":3033:3044   */\n      0x00\n        /* \"#utility.yul\":3067:3073   */\n      dup3\n        /* \"#utility.yul\":3062:3065   */\n      dup3\n        /* \"#utility.yul\":3055:3074   */\n      mstore\n        /* \"#utility.yul\":3107:3111   */\n      0x20\n        /* \"#utility.yul\":3102:3105   */\n      dup3\n        /* \"#utility.yul\":3098:3112   */\n      add\n        /* \"#utility.yul\":3083:3112   */\n      swap1\n      pop\n        /* \"#utility.yul\":2949:3118   */\n      swap3\n      swap2\n      pop\n      pop\n      jump\t// out\n        /* \"#utility.yul\":3124:3370   */\n    tag_183:\n        /* \"#utility.yul\":3205:3206   */\n      0x00\n        /* \"#utility.yul\":3215:3328   */\n    tag_280:\n        /* \"#utility.yul\":3229:3235   */\n      dup4\n        /* \"#utility.yul\":3226:3227   */\n      dup2\n        /* \"#utility.yul\":3223:3236   */\n      lt\n        /* \"#utility.yul\":3215:3328   */\n      iszero\n      tag_282\n      jumpi\n        /* \"#utility.yul\":3314:3315   */\n      dup1\n        /* \"#utility.yul\":3309:3312   */\n      dup3\n        /* \"#utility.yul\":3305:3316   */\n      add\n        /* \"#utility.yul\":3299:3317   */\n      mload\n        /* \"#utility.yul\":3295:3296   */\n      dup2\n        /* \"#utility.yul\":3290:3293   */\n      dup5\n        /* \"#utility.yul\":3286:3297   */\n      add\n        /* \"#utility.yul\":3279:3318   */\n      mstore\n        /* \"#utility.yul\":3251:3253   */\n      0x20\n        /* \"#utility.yul\":3248:3249   */\n      dup2\n        /* \"#utility.yul\":3244:3254   */\n      add\n        /* \"#utility.yul\":3239:3254   */\n      swap1\n      pop\n        /* \"#utility.yul\":3215:3328   */\n      jump(tag_280)\n    tag_282:\n        /* \"#utility.yul\":3362:3363   */\n      0x00\n        /* \"#utility.yul\":3353:3359   */\n      dup5\n        /* \"#utility.yul\":3348:3351   */\n      dup5\n        /* \"#utility.yul\":3344:3360   */\n      add\n        /* \"#utility.yul\":3337:3364   */\n      mstore\n        /* \"#utility.yul\":3186:3370   */\n      pop\n        /* \"#utility.yul\":3124:3370   */\n      pop\n      pop\n      pop\n      jump\t// out\n        /* \"#utility.yul\":3376:3478   */\n    tag_184:\n        /* \"#utility.yul\":3417:3423   */\n      0x00\n        /* \"#utility.yul\":3468:3470   */\n      0x1f\n        /* \"#utility.yul\":3464:3471   */\n      not\n        /* \"#utility.yul\":3459:3461   */\n      0x1f\n        /* \"#utility.yul\":3452:3457   */\n      dup4\n        /* \"#utility.yul\":3448:3462   */\n      add\n        /* \"#utility.yul\":3444:3472   */\n      and\n        /* \"#utility.yul\":3434:3472   */\n      swap1\n      pop\n        /* \"#utility.yul\":3376:3478   */\n      swap2\n      swap1\n      pop\n      jump\t// out\n        /* \"#utility.yul\":3484:3861   */\n    tag_185:\n        /* \"#utility.yul\":3572:3575   */\n      0x00\n        /* \"#utility.yul\":3600:3639   */\n      tag_285\n        /* \"#utility.yul\":3633:3638   */\n      dup3\n        /* \"#utility.yul\":3600:3639   */\n      tag_181\n      jump\t// in\n    tag_285:\n        /* \"#utility.yul\":3655:3726   */\n      tag_286\n        /* \"#utility.yul\":3719:3725   */\n      dup2\n        /* \"#utility.yul\":3714:3717   */\n      dup6\n        /* \"#utility.yul\":3655:3726   */\n      tag_182\n      jump\t// in\n    tag_286:\n        /* \"#utility.yul\":3648:3726   */\n      swap4\n      pop\n        /* \"#utility.yul\":3735:3800   */\n      tag_287\n        /* \"#utility.yul\":3793:3799   */\n      dup2\n        /* \"#utility.yul\":3788:3791   */\n      dup6\n        /* \"#utility.yul\":3781:3785   */\n      0x20\n        /* \"#utility.yul\":3774:3779   */\n      dup7\n        /* \"#utility.yul\":3770:3786   */\n      add\n        /* \"#utility.yul\":3735:3800   */\n      tag_183\n      jump\t// in\n    tag_287:\n        /* \"#utility.yul\":3825:3854   */\n      tag_288\n        /* \"#utility.yul\":3847:3853   */\n      dup2\n        /* \"#utility.yul\":3825:3854   */\n      tag_184\n      jump\t// in\n    tag_288:\n        /* \"#utility.yul\":3820:3823   */\n      dup5\n        /* \"#utility.yul\":3816:3855   */\n      add\n        /* \"#utility.yul\":3809:3855   */\n      swap2\n      pop\n        /* \"#utility.yul\":3576:3861   */\n      pop\n        /* \"#utility.yul\":3484:3861   */\n      swap3\n      swap2\n      pop\n      pop\n      jump\t// out\n        /* \"#utility.yul\":3867:3985   */\n    tag_186:\n        /* \"#utility.yul\":3954:3978   */\n      tag_290\n        /* \"#utility.yul\":3972:3977   */\n      dup2\n        /* \"#utility.yul\":3954:3978   */\n      tag_177\n      jump\t// in\n    tag_290:\n        /* \"#utility.yul\":3949:3952   */\n      dup3\n        /* \"#utility.yul\":3942:3979   */\n      mstore\n        /* \"#utility.yul\":3867:3985   */\n      pop\n      pop\n      jump\t// out\n        /* \"#utility.yul\":3991:4635   */\n    tag_39:\n        /* \"#utility.yul\":4188:4192   */\n      0x00\n        /* \"#utility.yul\":4226:4229   */\n      0x80\n        /* \"#utility.yul\":4215:4224   */\n      dup3\n        /* \"#utility.yul\":4211:4230   */\n      add\n        /* \"#utility.yul\":4203:4230   */\n      swap1\n      pop\n        /* \"#utility.yul\":4240:4311   */\n      tag_292\n        /* \"#utility.yul\":4308:4309   */\n      0x00\n        /* \"#utility.yul\":4297:4306   */\n      dup4\n        /* \"#utility.yul\":4293:4310   */\n      add\n        /* \"#utility.yul\":4284:4290   */\n      dup8\n        /* \"#utility.yul\":4240:4311   */\n      tag_180\n      jump\t// in\n    tag_292:\n        /* \"#utility.yul\":4358:4367   */\n      dup2\n        /* \"#utility.yul\":4352:4356   */\n      dup2\n        /* \"#utility.yul\":4348:4368   */\n      sub\n        /* \"#utility.yul\":4343:4345   */\n      0x20\n        /* \"#utility.yul\":4332:4341   */\n      dup4\n        /* \"#utility.yul\":4328:4346   */\n      add\n        /* \"#utility.yul\":4321:4369   */\n      mstore\n        /* \"#utility.yul\":4386:4464   */\n      tag_293\n        /* \"#utility.yul\":4459:4463   */\n      dup2\n        /* \"#utility.yul\":4450:4456   */\n      dup7\n        /* \"#utility.yul\":4386:4464   */\n      tag_185\n      jump\t// in\n    tag_293:\n        /* \"#utility.yul\":4378:4464   */\n      swap1\n      pop\n        /* \"#utility.yul\":4474:4546   */\n      tag_294\n        /* \"#utility.yul\":4542:4544   */\n      0x40\n        /* \"#utility.yul\":4531:4540   */\n      dup4\n        /* \"#utility.yul\":4527:4545   */\n      add\n        /* \"#utility.yul\":4518:4524   */\n      dup6\n        /* \"#utility.yul\":4474:4546   */\n      tag_186\n      jump\t// in\n    tag_294:\n        /* \"#utility.yul\":4556:4628   */\n      tag_295\n        /* \"#utility.yul\":4624:4626   */\n      0x60\n        /* \"#utility.yul\":4613:4622   */\n      dup4\n        /* \"#utility.yul\":4609:4627   */\n      add\n        /* \"#utility.yul\":4600:4606   */\n      dup5\n        /* \"#utility.yul\":4556:4628   */\n      tag_180\n      jump\t// in\n    tag_295:\n        /* \"#utility.yul\":3991:4635   */\n      swap6\n      swap5\n      pop\n      pop\n      pop\n      pop\n      pop\n      jump\t// out\n        /* \"#utility.yul\":4641:4731   */\n    tag_187:\n        /* \"#utility.yul\":4675:4682   */\n      0x00\n        /* \"#utility.yul\":4718:4723   */\n      dup2\n        /* \"#utility.yul\":4711:4724   */\n      iszero\n        /* \"#utility.yul\":4704:4725   */\n      iszero\n        /* \"#utility.yul\":4693:4725   */\n      swap1\n      pop\n        /* \"#utility.yul\":4641:4731   */\n      swap2\n      swap1\n      pop\n      jump\t// out\n        /* \"#utility.yul\":4737:4846   */\n    tag_188:\n        /* \"#utility.yul\":4818:4839   */\n      tag_298\n        /* \"#utility.yul\":4833:4838   */\n      dup2\n        /* \"#utility.yul\":4818:4839   */\n      tag_187\n      jump\t// in\n    tag_298:\n        /* \"#utility.yul\":4813:4816   */\n      dup3\n        /* \"#utility.yul\":4806:4840   */\n      mstore\n        /* \"#utility.yul\":4737:4846   */\n      pop\n      pop\n      jump\t// out\n        /* \"#utility.yul\":4852:5062   */\n    tag_44:\n        /* \"#utility.yul\":4939:4943   */\n      0x00\n        /* \"#utility.yul\":4977:4979   */\n      0x20\n        /* \"#utility.yul\":4966:4975   */\n      dup3\n        /* \"#utility.yul\":4962:4980   */\n      add\n        /* \"#utility.yul\":4954:4980   */\n      swap1\n      pop\n        /* \"#utility.yul\":4990:5055   */\n      tag_300\n        /* \"#utility.yul\":5052:5053   */\n      0x00\n        /* \"#utility.yul\":5041:5050   */\n      dup4\n        /* \"#utility.yul\":5037:5054   */\n      add\n        /* \"#utility.yul\":5028:5034   */\n      dup5\n        /* \"#utility.yul\":4990:5055   */\n      tag_188\n      jump\t// in\n    tag_300:\n        /* \"#utility.yul\":4852:5062   */\n      swap3\n      swap2\n      pop\n      pop\n      jump\t// out\n        /* \"#utility.yul\":5068:5397   */\n    tag_47:\n        /* \"#utility.yul\":5127:5133   */\n      0x00\n        /* \"#utility.yul\":5176:5178   */\n      0x20\n        /* \"#utility.yul\":5164:5173   */\n      dup3\n        /* \"#utility.yul\":5155:5162   */\n      dup5\n        /* \"#utility.yul\":5151:5174   */\n      sub\n        /* \"#utility.yul\":5147:5179   */\n      slt\n        /* \"#utility.yul\":5144:5263   */\n      iszero\n      tag_302\n      jumpi\n        /* \"#utility.yul\":5182:5261   */\n      tag_303\n      tag_171\n      jump\t// in\n    tag_303:\n        /* \"#utility.yul\":5144:5263   */\n    tag_302:\n        /* \"#utility.yul\":5302:5303   */\n      0x00\n        /* \"#utility.yul\":5327:5380   */\n      tag_304\n        /* \"#utility.yul\":5372:5379   */\n      dup5\n        /* \"#utility.yul\":5363:5369   */\n      dup3\n        /* \"#utility.yul\":5352:5361   */\n      dup6\n        /* \"#utility.yul\":5348:5370   */\n      add\n        /* \"#utility.yul\":5327:5380   */\n      tag_175\n      jump\t// in\n    tag_304:\n        /* \"#utility.yul\":5317:5380   */\n      swap2\n      pop\n        /* \"#utility.yul\":5273:5390   */\n      pop\n        /* \"#utility.yul\":5068:5397   */\n      swap3\n      swap2\n      pop\n      pop\n      jump\t// out\n        /* \"#utility.yul\":5403:5845   */\n    tag_70:\n        /* \"#utility.yul\":5552:5556   */\n      0x00\n        /* \"#utility.yul\":5590:5592   */\n      0x60\n        /* \"#utility.yul\":5579:5588   */\n      dup3\n        /* \"#utility.yul\":5575:5593   */\n      add\n        /* \"#utility.yul\":5567:5593   */\n      swap1\n      pop\n        /* \"#utility.yul\":5603:5674   */\n      tag_306\n        /* \"#utility.yul\":5671:5672   */\n      0x00\n        /* \"#utility.yul\":5660:5669   */\n      dup4\n        /* \"#utility.yul\":5656:5673   */\n      add\n        /* \"#utility.yul\":5647:5653   */\n      dup7\n        /* \"#utility.yul\":5603:5674   */\n      tag_180\n      jump\t// in\n    tag_306:\n        /* \"#utility.yul\":5684:5756   */\n      tag_307\n        /* \"#utility.yul\":5752:5754   */\n      0x20\n        /* \"#utility.yul\":5741:5750   */\n      dup4\n        /* \"#utility.yul\":5737:5755   */\n      add\n        /* \"#utility.yul\":5728:5734   */\n      dup6\n        /* \"#utility.yul\":5684:5756   */\n      tag_186\n      jump\t// in\n    tag_307:\n        /* \"#utility.yul\":5766:5838   */\n      tag_308\n        /* \"#utility.yul\":5834:5836   */\n      0x40\n        /* \"#utility.yul\":5823:5832   */\n      dup4\n        /* \"#utility.yul\":5819:5837   */\n      add\n        /* \"#utility.yul\":5810:5816   */\n      dup5\n        /* \"#utility.yul\":5766:5838   */\n      tag_180\n      jump\t// in\n    tag_308:\n        /* \"#utility.yul\":5403:5845   */\n      swap5\n      swap4\n      pop\n      pop\n      pop\n      pop\n      jump\t// out\n        /* \"#utility.yul\":5851:6503   */\n    tag_75:\n        /* \"#utility.yul\":6050:6054   */\n      0x00\n        /* \"#utility.yul\":6088:6091   */\n      0xa0\n        /* \"#utility.yul\":6077:6086   */\n      dup3\n        /* \"#utility.yul\":6073:6092   */\n      add\n        /* \"#utility.yul\":6065:6092   */\n      swap1\n      pop\n        /* \"#utility.yul\":6102:6173   */\n      tag_310\n        /* \"#utility.yul\":6170:6171   */\n      0x00\n        /* \"#utility.yul\":6159:6168   */\n      dup4\n        /* \"#utility.yul\":6155:6172   */\n      add\n        /* \"#utility.yul\":6146:6152   */\n      dup9\n        /* \"#utility.yul\":6102:6173   */\n      tag_180\n      jump\t// in\n    tag_310:\n        /* \"#utility.yul\":6183:6255   */\n      tag_311\n        /* \"#utility.yul\":6251:6253   */\n      0x20\n        /* \"#utility.yul\":6240:6249   */\n      dup4\n        /* \"#utility.yul\":6236:6254   */\n      add\n        /* \"#utility.yul\":6227:6233   */\n      dup8\n        /* \"#utility.yul\":6183:6255   */\n      tag_186\n      jump\t// in\n    tag_311:\n        /* \"#utility.yul\":6265:6337   */\n      tag_312\n        /* \"#utility.yul\":6333:6335   */\n      0x40\n        /* \"#utility.yul\":6322:6331   */\n      dup4\n        /* \"#utility.yul\":6318:6336   */\n      add\n        /* \"#utility.yul\":6309:6315   */\n      dup7\n        /* \"#utility.yul\":6265:6337   */\n      tag_180\n      jump\t// in\n    tag_312:\n        /* \"#utility.yul\":6347:6419   */\n      tag_313\n        /* \"#utility.yul\":6415:6417   */\n      0x60\n        /* \"#utility.yul\":6404:6413   */\n      dup4\n        /* \"#utility.yul\":6400:6418   */\n      add\n        /* \"#utility.yul\":6391:6397   */\n      dup6\n        /* \"#utility.yul\":6347:6419   */\n      tag_180\n      jump\t// in\n    tag_313:\n        /* \"#utility.yul\":6429:6496   */\n      tag_314\n        /* \"#utility.yul\":6491:6494   */\n      0x80\n        /* \"#utility.yul\":6480:6489   */\n      dup4\n        /* \"#utility.yul\":6476:6495   */\n      add\n        /* \"#utility.yul\":6467:6473   */\n      dup5\n        /* \"#utility.yul\":6429:6496   */\n      tag_188\n      jump\t// in\n    tag_314:\n        /* \"#utility.yul\":5851:6503   */\n      swap7\n      swap6\n      pop\n      pop\n      pop\n      pop\n      pop\n      pop\n      jump\t// out\n        /* \"#utility.yul\":6509:6626   */\n    tag_189:\n        /* \"#utility.yul\":6618:6619   */\n      0x00\n        /* \"#utility.yul\":6615:6616   */\n      dup1\n        /* \"#utility.yul\":6608:6620   */\n      revert\n        /* \"#utility.yul\":6632:6812   */\n    tag_190:\n        /* \"#utility.yul\":6680:6757   */\n      0x4e487b7100000000000000000000000000000000000000000000000000000000\n        /* \"#utility.yul\":6677:6678   */\n      0x00\n        /* \"#utility.yul\":6670:6758   */\n      mstore\n        /* \"#utility.yul\":6777:6781   */\n      0x41\n        /* \"#utility.yul\":6774:6775   */\n      0x04\n        /* \"#utility.yul\":6767:6782   */\n      mstore\n        /* \"#utility.yul\":6801:6805   */\n      0x24\n        /* \"#utility.yul\":6798:6799   */\n      0x00\n        /* \"#utility.yul\":6791:6806   */\n      revert\n        /* \"#utility.yul\":6818:7099   */\n    tag_191:\n        /* \"#utility.yul\":6901:6928   */\n      tag_318\n        /* \"#utility.yul\":6923:6927   */\n      dup3\n        /* \"#utility.yul\":6901:6928   */\n      tag_184\n      jump\t// in\n    tag_318:\n        /* \"#utility.yul\":6893:6899   */\n      dup2\n        /* \"#utility.yul\":6889:6929   */\n      add\n        /* \"#utility.yul\":7031:7037   */\n      dup2\n        /* \"#utility.yul\":7019:7029   */\n      dup2\n        /* \"#utility.yul\":7016:7038   */\n      lt\n        /* \"#utility.yul\":6995:7013   */\n      0xffffffffffffffff\n        /* \"#utility.yul\":6983:6993   */\n      dup3\n        /* \"#utility.yul\":6980:7014   */\n      gt\n        /* \"#utility.yul\":6977:7039   */\n      or\n        /* \"#utility.yul\":6974:7062   */\n      iszero\n      tag_319\n      jumpi\n        /* \"#utility.yul\":7042:7060   */\n      tag_320\n      tag_190\n      jump\t// in\n    tag_320:\n        /* \"#utility.yul\":6974:7062   */\n    tag_319:\n        /* \"#utility.yul\":7082:7092   */\n      dup1\n        /* \"#utility.yul\":7078:7080   */\n      0x40\n        /* \"#utility.yul\":7071:7093   */\n      mstore\n        /* \"#utility.yul\":6861:7099   */\n      pop\n        /* \"#utility.yul\":6818:7099   */\n      pop\n      pop\n      jump\t// out\n        /* \"#utility.yul\":7105:7234   */\n    tag_192:\n        /* \"#utility.yul\":7139:7145   */\n      0x00\n        /* \"#utility.yul\":7166:7186   */\n      tag_322\n      tag_170\n      jump\t// in\n    tag_322:\n        /* \"#utility.yul\":7156:7186   */\n      swap1\n      pop\n        /* \"#utility.yul\":7195:7228   */\n      tag_323\n        /* \"#utility.yul\":7223:7227   */\n      dup3\n        /* \"#utility.yul\":7215:7221   */\n      dup3\n        /* \"#utility.yul\":7195:7228   */\n      tag_191\n      jump\t// in\n    tag_323:\n        /* \"#utility.yul\":7105:7234   */\n      swap2\n      swap1\n      pop\n      jump\t// out\n        /* \"#utility.yul\":7240:7561   */\n    tag_193:\n        /* \"#utility.yul\":7327:7331   */\n      0x00\n        /* \"#utility.yul\":7417:7435   */\n      0xffffffffffffffff\n        /* \"#utility.yul\":7409:7415   */\n      dup3\n        /* \"#utility.yul\":7406:7436   */\n      gt\n        /* \"#utility.yul\":7403:7459   */\n      iszero\n      tag_325\n      jumpi\n        /* \"#utility.yul\":7439:7457   */\n      tag_326\n      tag_190\n      jump\t// in\n    tag_326:\n        /* \"#utility.yul\":7403:7459   */\n    tag_325:\n        /* \"#utility.yul\":7489:7493   */\n      0x20\n        /* \"#utility.yul\":7481:7487   */\n      dup3\n        /* \"#utility.yul\":7477:7494   */\n      mul\n        /* \"#utility.yul\":7469:7494   */\n      swap1\n      pop\n        /* \"#utility.yul\":7549:7553   */\n      0x20\n        /* \"#utility.yul\":7543:7547   */\n      dup2\n        /* \"#utility.yul\":7539:7554   */\n      add\n        /* \"#utility.yul\":7531:7554   */\n      swap1\n      pop\n        /* \"#utility.yul\":7240:7561   */\n      swap2\n      swap1\n      pop\n      jump\t// out\n        /* \"#utility.yul\":7567:7684   */\n    tag_194:\n        /* \"#utility.yul\":7676:7677   */\n      0x00\n        /* \"#utility.yul\":7673:7674   */\n      dup1\n        /* \"#utility.yul\":7666:7678   */\n      revert\n        /* \"#utility.yul\":7690:7807   */\n    tag_195:\n        /* \"#utility.yul\":7799:7800   */\n      0x00\n        /* \"#utility.yul\":7796:7797   */\n      dup1\n        /* \"#utility.yul\":7789:7801   */\n      revert\n        /* \"#utility.yul\":7813:8121   */\n    tag_196:\n        /* \"#utility.yul\":7875:7879   */\n      0x00\n        /* \"#utility.yul\":7965:7983   */\n      0xffffffffffffffff\n        /* \"#utility.yul\":7957:7963   */\n      dup3\n        /* \"#utility.yul\":7954:7984   */\n      gt\n        /* \"#utility.yul\":7951:8007   */\n      iszero\n      tag_330\n      jumpi\n        /* \"#utility.yul\":7987:8005   */\n      tag_331\n      tag_190\n      jump\t// in\n    tag_331:\n        /* \"#utility.yul\":7951:8007   */\n    tag_330:\n        /* \"#utility.yul\":8025:8054   */\n      tag_332\n        /* \"#utility.yul\":8047:8053   */\n      dup3\n        /* \"#utility.yul\":8025:8054   */\n      tag_184\n      jump\t// in\n    tag_332:\n        /* \"#utility.yul\":8017:8054   */\n      swap1\n      pop\n        /* \"#utility.yul\":8109:8113   */\n      0x20\n        /* \"#utility.yul\":8103:8107   */\n      dup2\n        /* \"#utility.yul\":8099:8114   */\n      add\n        /* \"#utility.yul\":8091:8114   */\n      swap1\n      pop\n        /* \"#utility.yul\":7813:8121   */\n      swap2\n      swap1\n      pop\n      jump\t// out\n        /* \"#utility.yul\":8127:8273   */\n    tag_197:\n        /* \"#utility.yul\":8224:8230   */\n      dup3\n        /* \"#utility.yul\":8219:8222   */\n      dup2\n        /* \"#utility.yul\":8214:8217   */\n      dup4\n        /* \"#utility.yul\":8201:8231   */\n      calldatacopy\n        /* \"#utility.yul\":8265:8266   */\n      0x00\n        /* \"#utility.yul\":8256:8262   */\n      dup4\n        /* \"#utility.yul\":8251:8254   */\n      dup4\n        /* \"#utility.yul\":8247:8263   */\n      add\n        /* \"#utility.yul\":8240:8267   */\n      mstore\n        /* \"#utility.yul\":8127:8273   */\n      pop\n      pop\n      pop\n      jump\t// out\n        /* \"#utility.yul\":8279:8704   */\n    tag_198:\n        /* \"#utility.yul\":8357:8362   */\n      0x00\n        /* \"#utility.yul\":8382:8448   */\n      tag_335\n        /* \"#utility.yul\":8398:8447   */\n      tag_336\n        /* \"#utility.yul\":8440:8446   */\n      dup5\n        /* \"#utility.yul\":8398:8447   */\n      tag_196\n      jump\t// in\n    tag_336:\n        /* \"#utility.yul\":8382:8448   */\n      tag_192\n      jump\t// in\n    tag_335:\n        /* \"#utility.yul\":8373:8448   */\n      swap1\n      pop\n        /* \"#utility.yul\":8471:8477   */\n      dup3\n        /* \"#utility.yul\":8464:8469   */\n      dup2\n        /* \"#utility.yul\":8457:8478   */\n      mstore\n        /* \"#utility.yul\":8509:8513   */\n      0x20\n        /* \"#utility.yul\":8502:8507   */\n      dup2\n        /* \"#utility.yul\":8498:8514   */\n      add\n        /* \"#utility.yul\":8547:8550   */\n      dup5\n        /* \"#utility.yul\":8538:8544   */\n      dup5\n        /* \"#utility.yul\":8533:8536   */\n      dup5\n        /* \"#utility.yul\":8529:8545   */\n      add\n        /* \"#utility.yul\":8526:8551   */\n      gt\n        /* \"#utility.yul\":8523:8635   */\n      iszero\n      tag_337\n      jumpi\n        /* \"#utility.yul\":8554:8633   */\n      tag_338\n      tag_195\n      jump\t// in\n    tag_338:\n        /* \"#utility.yul\":8523:8635   */\n    tag_337:\n        /* \"#utility.yul\":8644:8698   */\n      tag_339\n        /* \"#utility.yul\":8691:8697   */\n      dup5\n        /* \"#utility.yul\":8686:8689   */\n      dup3\n        /* \"#utility.yul\":8681:8684   */\n      dup6\n        /* \"#utility.yul\":8644:8698   */\n      tag_197\n      jump\t// in\n    tag_339:\n        /* \"#utility.yul\":8363:8704   */\n      pop\n        /* \"#utility.yul\":8279:8704   */\n      swap4\n      swap3\n      pop\n      pop\n      pop\n      jump\t// out\n        /* \"#utility.yul\":8724:9064   */\n    tag_199:\n        /* \"#utility.yul\":8780:8785   */\n      0x00\n        /* \"#utility.yul\":8829:8832   */\n      dup3\n        /* \"#utility.yul\":8822:8826   */\n      0x1f\n        /* \"#utility.yul\":8814:8820   */\n      dup4\n        /* \"#utility.yul\":8810:8827   */\n      add\n        /* \"#utility.yul\":8806:8833   */\n      slt\n        /* \"#utility.yul\":8796:8918   */\n      tag_341\n      jumpi\n        /* \"#utility.yul\":8837:8916   */\n      tag_342\n      tag_189\n      jump\t// in\n    tag_342:\n        /* \"#utility.yul\":8796:8918   */\n    tag_341:\n        /* \"#utility.yul\":8954:8960   */\n      dup2\n        /* \"#utility.yul\":8941:8961   */\n      calldataload\n        /* \"#utility.yul\":8979:9058   */\n      tag_343\n        /* \"#utility.yul\":9054:9057   */\n      dup5\n        /* \"#utility.yul\":9046:9052   */\n      dup3\n        /* \"#utility.yul\":9039:9043   */\n      0x20\n        /* \"#utility.yul\":9031:9037   */\n      dup7\n        /* \"#utility.yul\":9027:9044   */\n      add\n        /* \"#utility.yul\":8979:9058   */\n      tag_198\n      jump\t// in\n    tag_343:\n        /* \"#utility.yul\":8970:9058   */\n      swap2\n      pop\n        /* \"#utility.yul\":8786:9064   */\n      pop\n        /* \"#utility.yul\":8724:9064   */\n      swap3\n      swap2\n      pop\n      pop\n      jump\t// out\n        /* \"#utility.yul\":9086:10031   */\n    tag_200:\n        /* \"#utility.yul\":9192:9197   */\n      0x00\n        /* \"#utility.yul\":9217:9308   */\n      tag_345\n        /* \"#utility.yul\":9233:9307   */\n      tag_346\n        /* \"#utility.yul\":9300:9306   */\n      dup5\n        /* \"#utility.yul\":9233:9307   */\n      tag_193\n      jump\t// in\n    tag_346:\n        /* \"#utility.yul\":9217:9308   */\n      tag_192\n      jump\t// in\n    tag_345:\n        /* \"#utility.yul\":9208:9308   */\n      swap1\n      pop\n        /* \"#utility.yul\":9328:9333   */\n      dup1\n        /* \"#utility.yul\":9357:9363   */\n      dup4\n        /* \"#utility.yul\":9350:9355   */\n      dup3\n        /* \"#utility.yul\":9343:9364   */\n      mstore\n        /* \"#utility.yul\":9391:9395   */\n      0x20\n        /* \"#utility.yul\":9384:9389   */\n      dup3\n        /* \"#utility.yul\":9380:9396   */\n      add\n        /* \"#utility.yul\":9373:9396   */\n      swap1\n      pop\n        /* \"#utility.yul\":9444:9448   */\n      0x20\n        /* \"#utility.yul\":9436:9442   */\n      dup5\n        /* \"#utility.yul\":9432:9449   */\n      mul\n        /* \"#utility.yul\":9424:9430   */\n      dup4\n        /* \"#utility.yul\":9420:9450   */\n      add\n        /* \"#utility.yul\":9473:9476   */\n      dup6\n        /* \"#utility.yul\":9465:9471   */\n      dup2\n        /* \"#utility.yul\":9462:9477   */\n      gt\n        /* \"#utility.yul\":9459:9581   */\n      iszero\n      tag_347\n      jumpi\n        /* \"#utility.yul\":9492:9571   */\n      tag_348\n      tag_194\n      jump\t// in\n    tag_348:\n        /* \"#utility.yul\":9459:9581   */\n    tag_347:\n        /* \"#utility.yul\":9607:9613   */\n      dup4\n        /* \"#utility.yul\":9590:10025   */\n    tag_349:\n        /* \"#utility.yul\":9624:9630   */\n      dup2\n        /* \"#utility.yul\":9619:9622   */\n      dup2\n        /* \"#utility.yul\":9616:9631   */\n      lt\n        /* \"#utility.yul\":9590:10025   */\n      iszero\n      tag_351\n      jumpi\n        /* \"#utility.yul\":9713:9716   */\n      dup1\n        /* \"#utility.yul\":9700:9717   */\n      calldataload\n        /* \"#utility.yul\":9749:9767   */\n      0xffffffffffffffff\n        /* \"#utility.yul\":9736:9747   */\n      dup2\n        /* \"#utility.yul\":9733:9768   */\n      gt\n        /* \"#utility.yul\":9730:9852   */\n      iszero\n      tag_352\n      jumpi\n        /* \"#utility.yul\":9771:9850   */\n      tag_353\n      tag_189\n      jump\t// in\n    tag_353:\n        /* \"#utility.yul\":9730:9852   */\n    tag_352:\n        /* \"#utility.yul\":9895:9906   */\n      dup1\n        /* \"#utility.yul\":9887:9893   */\n      dup7\n        /* \"#utility.yul\":9883:9907   */\n      add\n        /* \"#utility.yul\":9933:9980   */\n      tag_354\n        /* \"#utility.yul\":9976:9979   */\n      dup10\n        /* \"#utility.yul\":9964:9974   */\n      dup3\n        /* \"#utility.yul\":9933:9980   */\n      tag_199\n      jump\t// in\n    tag_354:\n        /* \"#utility.yul\":9928:9931   */\n      dup6\n        /* \"#utility.yul\":9921:9981   */\n      mstore\n        /* \"#utility.yul\":10010:10014   */\n      0x20\n        /* \"#utility.yul\":10005:10008   */\n      dup6\n        /* \"#utility.yul\":10001:10015   */\n      add\n        /* \"#utility.yul\":9994:10015   */\n      swap5\n      pop\n        /* \"#utility.yul\":9666:10025   */\n      pop\n      pop\n        /* \"#utility.yul\":9650:9654   */\n      0x20\n        /* \"#utility.yul\":9645:9648   */\n      dup2\n        /* \"#utility.yul\":9641:9655   */\n      add\n        /* \"#utility.yul\":9634:9655   */\n      swap1\n      pop\n        /* \"#utility.yul\":9590:10025   */\n      jump(tag_349)\n    tag_351:\n        /* \"#utility.yul\":9594:9615   */\n      pop\n        /* \"#utility.yul\":9198:10031   */\n      pop\n      pop\n        /* \"#utility.yul\":9086:10031   */\n      swap4\n      swap3\n      pop\n      pop\n      pop\n      jump\t// out\n        /* \"#utility.yul\":10053:10443   */\n    tag_201:\n        /* \"#utility.yul\":10134:10139   */\n      0x00\n        /* \"#utility.yul\":10183:10186   */\n      dup3\n        /* \"#utility.yul\":10176:10180   */\n      0x1f\n        /* \"#utility.yul\":10168:10174   */\n      dup4\n        /* \"#utility.yul\":10164:10181   */\n      add\n        /* \"#utility.yul\":10160:10187   */\n      slt\n        /* \"#utility.yul\":10150:10272   */\n      tag_356\n      jumpi\n        /* \"#utility.yul\":10191:10270   */\n      tag_357\n      tag_189\n      jump\t// in\n    tag_357:\n        /* \"#utility.yul\":10150:10272   */\n    tag_356:\n        /* \"#utility.yul\":10308:10314   */\n      dup2\n        /* \"#utility.yul\":10295:10315   */\n      calldataload\n        /* \"#utility.yul\":10333:10437   */\n      tag_358\n        /* \"#utility.yul\":10433:10436   */\n      dup5\n        /* \"#utility.yul\":10425:10431   */\n      dup3\n        /* \"#utility.yul\":10418:10422   */\n      0x20\n        /* \"#utility.yul\":10410:10416   */\n      dup7\n        /* \"#utility.yul\":10406:10423   */\n      add\n        /* \"#utility.yul\":10333:10437   */\n      tag_200\n      jump\t// in\n    tag_358:\n        /* \"#utility.yul\":10324:10437   */\n      swap2\n      pop\n        /* \"#utility.yul\":10140:10443   */\n      pop\n        /* \"#utility.yul\":10053:10443   */\n      swap3\n      swap2\n      pop\n      pop\n      jump\t// out\n        /* \"#utility.yul\":10449:11298   */\n    tag_85:\n        /* \"#utility.yul\":10561:10567   */\n      0x00\n        /* \"#utility.yul\":10569:10575   */\n      dup1\n        /* \"#utility.yul\":10577:10583   */\n      0x00\n        /* \"#utility.yul\":10626:10628   */\n      0x60\n        /* \"#utility.yul\":10614:10623   */\n      dup5\n        /* \"#utility.yul\":10605:10612   */\n      dup7\n        /* \"#utility.yul\":10601:10624   */\n      sub\n        /* \"#utility.yul\":10597:10629   */\n      slt\n        /* \"#utility.yul\":10594:10713   */\n      iszero\n      tag_360\n      jumpi\n        /* \"#utility.yul\":10632:10711   */\n      tag_361\n      tag_171\n      jump\t// in\n    tag_361:\n        /* \"#utility.yul\":10594:10713   */\n    tag_360:\n        /* \"#utility.yul\":10752:10753   */\n      0x00\n        /* \"#utility.yul\":10777:10830   */\n      tag_362\n        /* \"#utility.yul\":10822:10829   */\n      dup7\n        /* \"#utility.yul\":10813:10819   */\n      dup3\n        /* \"#utility.yul\":10802:10811   */\n      dup8\n        /* \"#utility.yul\":10798:10820   */\n      add\n        /* \"#utility.yul\":10777:10830   */\n      tag_175\n      jump\t// in\n    tag_362:\n        /* \"#utility.yul\":10767:10830   */\n      swap4\n      pop\n        /* \"#utility.yul\":10723:10840   */\n      pop\n        /* \"#utility.yul\":10879:10881   */\n      0x20\n        /* \"#utility.yul\":10905:10958   */\n      tag_363\n        /* \"#utility.yul\":10950:10957   */\n      dup7\n        /* \"#utility.yul\":10941:10947   */\n      dup3\n        /* \"#utility.yul\":10930:10939   */\n      dup8\n        /* \"#utility.yul\":10926:10948   */\n      add\n        /* \"#utility.yul\":10905:10958   */\n      tag_175\n      jump\t// in\n    tag_363:\n        /* \"#utility.yul\":10895:10958   */\n      swap3\n      pop\n        /* \"#utility.yul\":10850:10968   */\n      pop\n        /* \"#utility.yul\":11035:11037   */\n      0x40\n        /* \"#utility.yul\":11024:11033   */\n      dup5\n        /* \"#utility.yul\":11020:11038   */\n      add\n        /* \"#utility.yul\":11007:11039   */\n      calldataload\n        /* \"#utility.yul\":11066:11084   */\n      0xffffffffffffffff\n        /* \"#utility.yul\":11058:11064   */\n      dup2\n        /* \"#utility.yul\":11055:11085   */\n      gt\n        /* \"#utility.yul\":11052:11169   */\n      iszero\n      tag_364\n      jumpi\n        /* \"#utility.yul\":11088:11167   */\n      tag_365\n      tag_172\n      jump\t// in\n    tag_365:\n        /* \"#utility.yul\":11052:11169   */\n    tag_364:\n        /* \"#utility.yul\":11193:11281   */\n      tag_366\n        /* \"#utility.yul\":11273:11280   */\n      dup7\n        /* \"#utility.yul\":11264:11270   */\n      dup3\n        /* \"#utility.yul\":11253:11262   */\n      dup8\n        /* \"#utility.yul\":11249:11271   */\n      add\n        /* \"#utility.yul\":11193:11281   */\n      tag_201\n      jump\t// in\n    tag_366:\n        /* \"#utility.yul\":11183:11281   */\n      swap2\n      pop\n        /* \"#utility.yul\":10978:11291   */\n      pop\n        /* \"#utility.yul\":10449:11298   */\n      swap3\n      pop\n      swap3\n      pop\n      swap3\n      jump\t// out\n        /* \"#utility.yul\":11304:11484   */\n    tag_202:\n        /* \"#utility.yul\":11352:11429   */\n      0x4e487b7100000000000000000000000000000000000000000000000000000000\n        /* \"#utility.yul\":11349:11350   */\n      0x00\n        /* \"#utility.yul\":11342:11430   */\n      mstore\n        /* \"#utility.yul\":11449:11453   */\n      0x22\n        /* \"#utility.yul\":11446:11447   */\n      0x04\n        /* \"#utility.yul\":11439:11454   */\n      mstore\n        /* \"#utility.yul\":11473:11477   */\n      0x24\n        /* \"#utility.yul\":11470:11471   */\n      0x00\n        /* \"#utility.yul\":11463:11478   */\n      revert\n        /* \"#utility.yul\":11490:11810   */\n    tag_96:\n        /* \"#utility.yul\":11534:11540   */\n      0x00\n        /* \"#utility.yul\":11571:11572   */\n      0x02\n        /* \"#utility.yul\":11565:11569   */\n      dup3\n        /* \"#utility.yul\":11561:11573   */\n      div\n        /* \"#utility.yul\":11551:11573   */\n      swap1\n      pop\n        /* \"#utility.yul\":11618:11619   */\n      0x01\n        /* \"#utility.yul\":11612:11616   */\n      dup3\n        /* \"#utility.yul\":11608:11620   */\n      and\n        /* \"#utility.yul\":11639:11657   */\n      dup1\n        /* \"#utility.yul\":11629:11710   */\n      tag_369\n      jumpi\n        /* \"#utility.yul\":11695:11699   */\n      0x7f\n        /* \"#utility.yul\":11687:11693   */\n      dup3\n        /* \"#utility.yul\":11683:11700   */\n      and\n        /* \"#utility.yul\":11673:11700   */\n      swap2\n      pop\n        /* \"#utility.yul\":11629:11710   */\n    tag_369:\n        /* \"#utility.yul\":11757:11759   */\n      0x20\n        /* \"#utility.yul\":11749:11755   */\n      dup3\n        /* \"#utility.yul\":11746:11760   */\n      lt\n        /* \"#utility.yul\":11726:11744   */\n      dup2\n        /* \"#utility.yul\":11723:11761   */\n      sub\n        /* \"#utility.yul\":11720:11804   */\n      tag_370\n      jumpi\n        /* \"#utility.yul\":11776:11794   */\n      tag_371\n      tag_202\n      jump\t// in\n    tag_371:\n        /* \"#utility.yul\":11720:11804   */\n    tag_370:\n        /* \"#utility.yul\":11541:11810   */\n      pop\n        /* \"#utility.yul\":11490:11810   */\n      swap2\n      swap1\n      pop\n      jump\t// out\n        /* \"#utility.yul\":11816:11996   */\n    tag_104:\n        /* \"#utility.yul\":11864:11941   */\n      0x4e487b7100000000000000000000000000000000000000000000000000000000\n        /* \"#utility.yul\":11861:11862   */\n      0x00\n        /* \"#utility.yul\":11854:11942   */\n      mstore\n        /* \"#utility.yul\":11961:11965   */\n      0x32\n        /* \"#utility.yul\":11958:11959   */\n      0x04\n        /* \"#utility.yul\":11951:11966   */\n      mstore\n        /* \"#utility.yul\":11985:11989   */\n      0x24\n        /* \"#utility.yul\":11982:11983   */\n      0x00\n        /* \"#utility.yul\":11975:11990   */\n      revert\n        /* \"#utility.yul\":12002:12165   */\n    tag_203:\n        /* \"#utility.yul\":12142:12157   */\n      0x416c726561647920766f74656400000000000000000000000000000000000000\n        /* \"#utility.yul\":12138:12139   */\n      0x00\n        /* \"#utility.yul\":12130:12136   */\n      dup3\n        /* \"#utility.yul\":12126:12140   */\n      add\n        /* \"#utility.yul\":12119:12158   */\n      mstore\n        /* \"#utility.yul\":12002:12165   */\n      pop\n      jump\t// out\n        /* \"#utility.yul\":12171:12537   */\n    tag_204:\n        /* \"#utility.yul\":12313:12316   */\n      0x00\n        /* \"#utility.yul\":12334:12401   */\n      tag_375\n        /* \"#utility.yul\":12398:12400   */\n      0x0d\n        /* \"#utility.yul\":12393:12396   */\n      dup4\n        /* \"#utility.yul\":12334:12401   */\n      tag_182\n      jump\t// in\n    tag_375:\n        /* \"#utility.yul\":12327:12401   */\n      swap2\n      pop\n        /* \"#utility.yul\":12410:12503   */\n      tag_376\n        /* \"#utility.yul\":12499:12502   */\n      dup3\n        /* \"#utility.yul\":12410:12503   */\n      tag_203\n      jump\t// in\n    tag_376:\n        /* \"#utility.yul\":12528:12530   */\n      0x20\n        /* \"#utility.yul\":12523:12526   */\n      dup3\n        /* \"#utility.yul\":12519:12531   */\n      add\n        /* \"#utility.yul\":12512:12531   */\n      swap1\n      pop\n        /* \"#utility.yul\":12171:12537   */\n      swap2\n      swap1\n      pop\n      jump\t// out\n        /* \"#utility.yul\":12543:12962   */\n    tag_108:\n        /* \"#utility.yul\":12709:12713   */\n      0x00\n        /* \"#utility.yul\":12747:12749   */\n      0x20\n        /* \"#utility.yul\":12736:12745   */\n      dup3\n        /* \"#utility.yul\":12732:12750   */\n      add\n        /* \"#utility.yul\":12724:12750   */\n      swap1\n      pop\n        /* \"#utility.yul\":12796:12805   */\n      dup2\n        /* \"#utility.yul\":12790:12794   */\n      dup2\n        /* \"#utility.yul\":12786:12806   */\n      sub\n        /* \"#utility.yul\":12782:12783   */\n      0x00\n        /* \"#utility.yul\":12771:12780   */\n      dup4\n        /* \"#utility.yul\":12767:12784   */\n      add\n        /* \"#utility.yul\":12760:12807   */\n      mstore\n        /* \"#utility.yul\":12824:12955   */\n      tag_378\n        /* \"#utility.yul\":12950:12954   */\n      dup2\n        /* \"#utility.yul\":12824:12955   */\n      tag_204\n      jump\t// in\n    tag_378:\n        /* \"#utility.yul\":12816:12955   */\n      swap1\n      pop\n        /* \"#utility.yul\":12543:12962   */\n      swap2\n      swap1\n      pop\n      jump\t// out\n        /* \"#utility.yul\":12968:13132   */\n    tag_205:\n        /* \"#utility.yul\":13108:13124   */\n      0x506f6c6c20697320636c6f736564000000000000000000000000000000000000\n        /* \"#utility.yul\":13104:13105   */\n      0x00\n        /* \"#utility.yul\":13096:13102   */\n      dup3\n        /* \"#utility.yul\":13092:13106   */\n      add\n        /* \"#utility.yul\":13085:13125   */\n      mstore\n        /* \"#utility.yul\":12968:13132   */\n      pop\n      jump\t// out\n        /* \"#utility.yul\":13138:13504   */\n    tag_206:\n        /* \"#utility.yul\":13280:13283   */\n      0x00\n        /* \"#utility.yul\":13301:13368   */\n      tag_381\n        /* \"#utility.yul\":13365:13367   */\n      0x0e\n        /* \"#utility.yul\":13360:13363   */\n      dup4\n        /* \"#utility.yul\":13301:13368   */\n      tag_182\n      jump\t// in\n    tag_381:\n        /* \"#utility.yul\":13294:13368   */\n      swap2\n      pop\n        /* \"#utility.yul\":13377:13470   */\n      tag_382\n        /* \"#utility.yul\":13466:13469   */\n      dup3\n        /* \"#utility.yul\":13377:13470   */\n      tag_205\n      jump\t// in\n    tag_382:\n        /* \"#utility.yul\":13495:13497   */\n      0x20\n        /* \"#utility.yul\":13490:13493   */\n      dup3\n        /* \"#utility.yul\":13486:13498   */\n      add\n        /* \"#utility.yul\":13479:13498   */\n      swap1\n      pop\n        /* \"#utility.yul\":13138:13504   */\n      swap2\n      swap1\n      pop\n      jump\t// out\n        /* \"#utility.yul\":13510:13929   */\n    tag_111:\n        /* \"#utility.yul\":13676:13680   */\n      0x00\n        /* \"#utility.yul\":13714:13716   */\n      0x20\n        /* \"#utility.yul\":13703:13712   */\n      dup3\n        /* \"#utility.yul\":13699:13717   */\n      add\n        /* \"#utility.yul\":13691:13717   */\n      swap1\n      pop\n        /* \"#utility.yul\":13763:13772   */\n      dup2\n        /* \"#utility.yul\":13757:13761   */\n      dup2\n        /* \"#utility.yul\":13753:13773   */\n      sub\n        /* \"#utility.yul\":13749:13750   */\n      0x00\n        /* \"#utility.yul\":13738:13747   */\n      dup4\n        /* \"#utility.yul\":13734:13751   */\n      add\n        /* \"#utility.yul\":13727:13774   */\n      mstore\n        /* \"#utility.yul\":13791:13922   */\n      tag_384\n        /* \"#utility.yul\":13917:13921   */\n      dup2\n        /* \"#utility.yul\":13791:13922   */\n      tag_206\n      jump\t// in\n    tag_384:\n        /* \"#utility.yul\":13783:13922   */\n      swap1\n      pop\n        /* \"#utility.yul\":13510:13929   */\n      swap2\n      swap1\n      pop\n      jump\t// out\n        /* \"#utility.yul\":13935:14103   */\n    tag_207:\n        /* \"#utility.yul\":14075:14095   */\n      0x506f6c6c206973206e6f74206163746976650000000000000000000000000000\n        /* \"#utility.yul\":14071:14072   */\n      0x00\n        /* \"#utility.yul\":14063:14069   */\n      dup3\n        /* \"#utility.yul\":14059:14073   */\n      add\n        /* \"#utility.yul\":14052:14096   */\n      mstore\n        /* \"#utility.yul\":13935:14103   */\n      pop\n      jump\t// out\n        /* \"#utility.yul\":14109:14475   */\n    tag_208:\n        /* \"#utility.yul\":14251:14254   */\n      0x00\n        /* \"#utility.yul\":14272:14339   */\n      tag_387\n        /* \"#utility.yul\":14336:14338   */\n      0x12\n        /* \"#utility.yul\":14331:14334   */\n      dup4\n        /* \"#utility.yul\":14272:14339   */\n      tag_182\n      jump\t// in\n    tag_387:\n        /* \"#utility.yul\":14265:14339   */\n      swap2\n      pop\n        /* \"#utility.yul\":14348:14441   */\n      tag_388\n        /* \"#utility.yul\":14437:14440   */\n      dup3\n        /* \"#utility.yul\":14348:14441   */\n      tag_207\n      jump\t// in\n    tag_388:\n        /* \"#utility.yul\":14466:14468   */\n      0x20\n        /* \"#utility.yul\":14461:14464   */\n      dup3\n        /* \"#utility.yul\":14457:14469   */\n      add\n        /* \"#utility.yul\":14450:14469   */\n      swap1\n      pop\n        /* \"#utility.yul\":14109:14475   */\n      swap2\n      swap1\n      pop\n      jump\t// out\n        /* \"#utility.yul\":14481:14900   */\n    tag_115:\n        /* \"#utility.yul\":14647:14651   */\n      0x00\n        /* \"#utility.yul\":14685:14687   */\n      0x20\n        /* \"#utility.yul\":14674:14683   */\n      dup3\n        /* \"#utility.yul\":14670:14688   */\n      add\n        /* \"#utility.yul\":14662:14688   */\n      swap1\n      pop\n        /* \"#utility.yul\":14734:14743   */\n      dup2\n        /* \"#utility.yul\":14728:14732   */\n      dup2\n        /* \"#utility.yul\":14724:14744   */\n      sub\n        /* \"#utility.yul\":14720:14721   */\n      0x00\n        /* \"#utility.yul\":14709:14718   */\n      dup4\n        /* \"#utility.yul\":14705:14722   */\n      add\n        /* \"#utility.yul\":14698:14745   */\n      mstore\n        /* \"#utility.yul\":14762:14893   */\n      tag_390\n        /* \"#utility.yul\":14888:14892   */\n      dup2\n        /* \"#utility.yul\":14762:14893   */\n      tag_208\n      jump\t// in\n    tag_390:\n        /* \"#utility.yul\":14754:14893   */\n      swap1\n      pop\n        /* \"#utility.yul\":14481:14900   */\n      swap2\n      swap1\n      pop\n      jump\t// out\n        /* \"#utility.yul\":14906:15070   */\n    tag_209:\n        /* \"#utility.yul\":15046:15062   */\n      0x496e76616c69642063686f696365000000000000000000000000000000000000\n        /* \"#utility.yul\":15042:15043   */\n      0x00\n        /* \"#utility.yul\":15034:15040   */\n      dup3\n        /* \"#utility.yul\":15030:15044   */\n      add\n        /* \"#utility.yul\":15023:15063   */\n      mstore\n        /* \"#utility.yul\":14906:15070   */\n      pop\n      jump\t// out\n        /* \"#utility.yul\":15076:15442   */\n    tag_210:\n        /* \"#utility.yul\":15218:15221   */\n      0x00\n        /* \"#utility.yul\":15239:15306   */\n      tag_393\n        /* \"#utility.yul\":15303:15305   */\n      0x0e\n        /* \"#utility.yul\":15298:15301   */\n      dup4\n        /* \"#utility.yul\":15239:15306   */\n      tag_182\n      jump\t// in\n    tag_393:\n        /* \"#utility.yul\":15232:15306   */\n      swap2\n      pop\n        /* \"#utility.yul\":15315:15408   */\n      tag_394\n        /* \"#utility.yul\":15404:15407   */\n      dup3\n        /* \"#utility.yul\":15315:15408   */\n      tag_209\n      jump\t// in\n    tag_394:\n        /* \"#utility.yul\":15433:15435   */\n      0x20\n        /* \"#utility.yul\":15428:15431   */\n      dup3\n        /* \"#utility.yul\":15424:15436   */\n      add\n        /* \"#utility.yul\":15417:15436   */\n      swap1\n      pop\n        /* \"#utility.yul\":15076:15442   */\n      swap2\n      swap1\n      pop\n      jump\t// out\n        /* \"#utility.yul\":15448:15867   */\n    tag_119:\n        /* \"#utility.yul\":15614:15618   */\n      0x00\n        /* \"#utility.yul\":15652:15654   */\n      0x20\n        /* \"#utility.yul\":15641:15650   */\n      dup3\n        /* \"#utility.yul\":15637:15655   */\n      add\n        /* \"#utility.yul\":15629:15655   */\n      swap1\n      pop\n        /* \"#utility.yul\":15701:15710   */\n      dup2\n        /* \"#utility.yul\":15695:15699   */\n      dup2\n        /* \"#utility.yul\":15691:15711   */\n      sub\n        /* \"#utility.yul\":15687:15688   */\n      0x00\n        /* \"#utility.yul\":15676:15685   */\n      dup4\n        /* \"#utility.yul\":15672:15689   */\n      add\n        /* \"#utility.yul\":15665:15712   */\n      mstore\n        /* \"#utility.yul\":15729:15860   */\n      tag_396\n        /* \"#utility.yul\":15855:15859   */\n      dup2\n        /* \"#utility.yul\":15729:15860   */\n      tag_210\n      jump\t// in\n    tag_396:\n        /* \"#utility.yul\":15721:15860   */\n      swap1\n      pop\n        /* \"#utility.yul\":15448:15867   */\n      swap2\n      swap1\n      pop\n      jump\t// out\n        /* \"#utility.yul\":15873:16045   */\n    tag_211:\n        /* \"#utility.yul\":16013:16037   */\n      0x506f6c6c20686173206e6f7420656e6465642079657400000000000000000000\n        /* \"#utility.yul\":16009:16010   */\n      0x00\n        /* \"#utility.yul\":16001:16007   */\n      dup3\n        /* \"#utility.yul\":15997:16011   */\n      add\n        /* \"#utility.yul\":15990:16038   */\n      mstore\n        /* \"#utility.yul\":15873:16045   */\n      pop\n      jump\t// out\n        /* \"#utility.yul\":16051:16417   */\n    tag_212:\n        /* \"#utility.yul\":16193:16196   */\n      0x00\n        /* \"#utility.yul\":16214:16281   */\n      tag_399\n        /* \"#utility.yul\":16278:16280   */\n      0x16\n        /* \"#utility.yul\":16273:16276   */\n      dup4\n        /* \"#utility.yul\":16214:16281   */\n      tag_182\n      jump\t// in\n    tag_399:\n        /* \"#utility.yul\":16207:16281   */\n      swap2\n      pop\n        /* \"#utility.yul\":16290:16383   */\n      tag_400\n        /* \"#utility.yul\":16379:16382   */\n      dup3\n        /* \"#utility.yul\":16290:16383   */\n      tag_211\n      jump\t// in\n    tag_400:\n        /* \"#utility.yul\":16408:16410   */\n      0x20\n        /* \"#utility.yul\":16403:16406   */\n      dup3\n        /* \"#utility.yul\":16399:16411   */\n      add\n        /* \"#utility.yul\":16392:16411   */\n      swap1\n      pop\n        /* \"#utility.yul\":16051:16417   */\n      swap2\n      swap1\n      pop\n      jump\t// out\n        /* \"#utility.yul\":16423:16842   */\n    tag_133:\n        /* \"#utility.yul\":16589:16593   */\n      0x00\n        /* \"#utility.yul\":16627:16629   */\n      0x20\n        /* \"#utility.yul\":16616:16625   */\n      dup3\n        /* \"#utility.yul\":16612:16630   */\n      add\n        /* \"#utility.yul\":16604:16630   */\n      swap1\n      pop\n        /* \"#utility.yul\":16676:16685   */\n      dup2\n        /* \"#utility.yul\":16670:16674   */\n      dup2\n        /* \"#utility.yul\":16666:16686   */\n      sub\n        /* \"#utility.yul\":16662:16663   */\n      0x00\n        /* \"#utility.yul\":16651:16660   */\n      dup4\n        /* \"#utility.yul\":16647:16664   */\n      add\n        /* \"#utility.yul\":16640:16687   */\n      mstore\n        /* \"#utility.yul\":16704:16835   */\n      tag_402\n        /* \"#utility.yul\":16830:16834   */\n      dup2\n        /* \"#utility.yul\":16704:16835   */\n      tag_212\n      jump\t// in\n    tag_402:\n        /* \"#utility.yul\":16696:16835   */\n      swap1\n      pop\n        /* \"#utility.yul\":16423:16842   */\n      swap2\n      swap1\n      pop\n      jump\t// out\n        /* \"#utility.yul\":16848:17019   */\n    tag_213:\n        /* \"#utility.yul\":16988:17011   */\n      0x496e76616c696420706f6c6c20656e642074696d650000000000000000000000\n        /* \"#utility.yul\":16984:16985   */\n      0x00\n        /* \"#utility.yul\":16976:16982   */\n      dup3\n        /* \"#utility.yul\":16972:16986   */\n      add\n        /* \"#utility.yul\":16965:17012   */\n      mstore\n        /* \"#utility.yul\":16848:17019   */\n      pop\n      jump\t// out\n        /* \"#utility.yul\":17025:17391   */\n    tag_214:\n        /* \"#utility.yul\":17167:17170   */\n      0x00\n        /* \"#utility.yul\":17188:17255   */\n      tag_405\n        /* \"#utility.yul\":17252:17254   */\n      0x15\n        /* \"#utility.yul\":17247:17250   */\n      dup4\n        /* \"#utility.yul\":17188:17255   */\n      tag_182\n      jump\t// in\n    tag_405:\n        /* \"#utility.yul\":17181:17255   */\n      swap2\n      pop\n        /* \"#utility.yul\":17264:17357   */\n      tag_406\n        /* \"#utility.yul\":17353:17356   */\n      dup3\n        /* \"#utility.yul\":17264:17357   */\n      tag_213\n      jump\t// in\n    tag_406:\n        /* \"#utility.yul\":17382:17384   */\n      0x20\n        /* \"#utility.yul\":17377:17380   */\n      dup3\n        /* \"#utility.yul\":17373:17385   */\n      add\n        /* \"#utility.yul\":17366:17385   */\n      swap1\n      pop\n        /* \"#utility.yul\":17025:17391   */\n      swap2\n      swap1\n      pop\n      jump\t// out\n        /* \"#utility.yul\":17397:17816   */\n    tag_137:\n        /* \"#utility.yul\":17563:17567   */\n      0x00\n        /* \"#utility.yul\":17601:17603   */\n      0x20\n        /* \"#utility.yul\":17590:17599   */\n      dup3\n        /* \"#utility.yul\":17586:17604   */\n      add\n        /* \"#utility.yul\":17578:17604   */\n      swap1\n      pop\n        /* \"#utility.yul\":17650:17659   */\n      dup2\n        /* \"#utility.yul\":17644:17648   */\n      dup2\n        /* \"#utility.yul\":17640:17660   */\n      sub\n        /* \"#utility.yul\":17636:17637   */\n      0x00\n        /* \"#utility.yul\":17625:17634   */\n      dup4\n        /* \"#utility.yul\":17621:17638   */\n      add\n        /* \"#utility.yul\":17614:17661   */\n      mstore\n        /* \"#utility.yul\":17678:17809   */\n      tag_408\n        /* \"#utility.yul\":17804:17808   */\n      dup2\n        /* \"#utility.yul\":17678:17809   */\n      tag_214\n      jump\t// in\n    tag_408:\n        /* \"#utility.yul\":17670:17809   */\n      swap1\n      pop\n        /* \"#utility.yul\":17397:17816   */\n      swap2\n      swap1\n      pop\n      jump\t// out\n        /* \"#utility.yul\":17822:18001   */\n    tag_215:\n        /* \"#utility.yul\":17962:17993   */\n      0x4174206c656173742074776f206f7074696f6e73207265717569726564000000\n        /* \"#utility.yul\":17958:17959   */\n      0x00\n        /* \"#utility.yul\":17950:17956   */\n      dup3\n        /* \"#utility.yul\":17946:17960   */\n      add\n        /* \"#utility.yul\":17939:17994   */\n      mstore\n        /* \"#utility.yul\":17822:18001   */\n      pop\n      jump\t// out\n        /* \"#utility.yul\":18007:18373   */\n    tag_216:\n        /* \"#utility.yul\":18149:18152   */\n      0x00\n        /* \"#utility.yul\":18170:18237   */\n      tag_411\n        /* \"#utility.yul\":18234:18236   */\n      0x1d\n        /* \"#utility.yul\":18229:18232   */\n      dup4\n        /* \"#utility.yul\":18170:18237   */\n      tag_182\n      jump\t// in\n    tag_411:\n        /* \"#utility.yul\":18163:18237   */\n      swap2\n      pop\n        /* \"#utility.yul\":18246:18339   */\n      tag_412\n        /* \"#utility.yul\":18335:18338   */\n      dup3\n        /* \"#utility.yul\":18246:18339   */\n      tag_215\n      jump\t// in\n    tag_412:\n        /* \"#utility.yul\":18364:18366   */\n      0x20\n        /* \"#utility.yul\":18359:18362   */\n      dup3\n        /* \"#utility.yul\":18355:18367   */\n      add\n        /* \"#utility.yul\":18348:18367   */\n      swap1\n      pop\n        /* \"#utility.yul\":18007:18373   */\n      swap2\n      swap1\n      pop\n      jump\t// out\n        /* \"#utility.yul\":18379:18798   */\n    tag_140:\n        /* \"#utility.yul\":18545:18549   */\n      0x00\n        /* \"#utility.yul\":18583:18585   */\n      0x20\n        /* \"#utility.yul\":18572:18581   */\n      dup3\n        /* \"#utility.yul\":18568:18586   */\n      add\n        /* \"#utility.yul\":18560:18586   */\n      swap1\n      pop\n        /* \"#utility.yul\":18632:18641   */\n      dup2\n        /* \"#utility.yul\":18626:18630   */\n      dup2\n        /* \"#utility.yul\":18622:18642   */\n      sub\n        /* \"#utility.yul\":18618:18619   */\n      0x00\n        /* \"#utility.yul\":18607:18616   */\n      dup4\n        /* \"#utility.yul\":18603:18620   */\n      add\n        /* \"#utility.yul\":18596:18643   */\n      mstore\n        /* \"#utility.yul\":18660:18791   */\n      tag_414\n        /* \"#utility.yul\":18786:18790   */\n      dup2\n        /* \"#utility.yul\":18660:18791   */\n      tag_216\n      jump\t// in\n    tag_414:\n        /* \"#utility.yul\":18652:18791   */\n      swap1\n      pop\n        /* \"#utility.yul\":18379:18798   */\n      swap2\n      swap1\n      pop\n      jump\t// out\n        /* \"#utility.yul\":18804:18984   */\n    tag_217:\n        /* \"#utility.yul\":18852:18929   */\n      0x4e487b7100000000000000000000000000000000000000000000000000000000\n        /* \"#utility.yul\":18849:18850   */\n      0x00\n        /* \"#utility.yul\":18842:18930   */\n      mstore\n        /* \"#utility.yul\":18949:18953   */\n      0x11\n        /* \"#utility.yul\":18946:18947   */\n      0x04\n        /* \"#utility.yul\":18939:18954   */\n      mstore\n        /* \"#utility.yul\":18973:18977   */\n      0x24\n        /* \"#utility.yul\":18970:18971   */\n      0x00\n        /* \"#utility.yul\":18963:18978   */\n      revert\n        /* \"#utility.yul\":18990:19223   */\n    tag_142:\n        /* \"#utility.yul\":19029:19032   */\n      0x00\n        /* \"#utility.yul\":19052:19076   */\n      tag_417\n        /* \"#utility.yul\":19070:19075   */\n      dup3\n        /* \"#utility.yul\":19052:19076   */\n      tag_173\n      jump\t// in\n    tag_417:\n        /* \"#utility.yul\":19043:19076   */\n      swap2\n      pop\n        /* \"#utility.yul\":19098:19164   */\n      0xffffffffffffffffffffffffffffffffffffffffffffffffffffffffffffffff\n        /* \"#utility.yul\":19091:19096   */\n      dup3\n        /* \"#utility.yul\":19088:19165   */\n      sub\n        /* \"#utility.yul\":19085:19188   */\n      tag_418\n      jumpi\n        /* \"#utility.yul\":19168:19186   */\n      tag_419\n      tag_217\n      jump\t// in\n    tag_419:\n        /* \"#utility.yul\":19085:19188   */\n    tag_418:\n        /* \"#utility.yul\":19215:19216   */\n      0x01\n        /* \"#utility.yul\":19208:19213   */\n      dup3\n        /* \"#utility.yul\":19204:19217   */\n      add\n        /* \"#utility.yul\":19197:19217   */\n      swap1\n      pop\n        /* \"#utility.yul\":18990:19223   */\n      swap2\n      swap1\n      pop\n      jump\t// out\n        /* \"#utility.yul\":19229:19353   */\n    tag_218:\n        /* \"#utility.yul\":19306:19312   */\n      0x00\n        /* \"#utility.yul\":19340:19345   */\n      dup2\n        /* \"#utility.yul\":19334:19346   */\n      mload\n        /* \"#utility.yul\":19324:19346   */\n      swap1\n      pop\n        /* \"#utility.yul\":19229:19353   */\n      swap2\n      swap1\n      pop\n      jump\t// out\n        /* \"#utility.yul\":19359:19553   */\n    tag_219:\n        /* \"#utility.yul\":19468:19479   */\n      0x00\n        /* \"#utility.yul\":19502:19508   */\n      dup3\n        /* \"#utility.yul\":19497:19500   */\n      dup3\n        /* \"#utility.yul\":19490:19509   */\n      mstore\n        /* \"#utility.yul\":19542:19546   */\n      0x20\n        /* \"#utility.yul\":19537:19540   */\n      dup3\n        /* \"#utility.yul\":19533:19547   */\n      add\n        /* \"#utility.yul\":19518:19547   */\n      swap1\n      pop\n        /* \"#utility.yul\":19359:19553   */\n      swap3\n      swap2\n      pop\n      pop\n      jump\t// out\n        /* \"#utility.yul\":19559:19701   */\n    tag_220:\n        /* \"#utility.yul\":19636:19640   */\n      0x00\n        /* \"#utility.yul\":19659:19662   */\n      dup2\n        /* \"#utility.yul\":19651:19662   */\n      swap1\n      pop\n        /* \"#utility.yul\":19689:19693   */\n      0x20\n        /* \"#utility.yul\":19684:19687   */\n      dup3\n        /* \"#utility.yul\":19680:19694   */\n      add\n        /* \"#utility.yul\":19672:19694   */\n      swap1\n      pop\n        /* \"#utility.yul\":19559:19701   */\n      swap2\n      swap1\n      pop\n      jump\t// out\n        /* \"#utility.yul\":19707:19866   */\n    tag_221:\n        /* \"#utility.yul\":19781:19792   */\n      0x00\n        /* \"#utility.yul\":19815:19821   */\n      dup3\n        /* \"#utility.yul\":19810:19813   */\n      dup3\n        /* \"#utility.yul\":19803:19822   */\n      mstore\n        /* \"#utility.yul\":19855:19859   */\n      0x20\n        /* \"#utility.yul\":19850:19853   */\n      dup3\n        /* \"#utility.yul\":19846:19860   */\n      add\n        /* \"#utility.yul\":19831:19860   */\n      swap1\n      pop\n        /* \"#utility.yul\":19707:19866   */\n      swap3\n      swap2\n      pop\n      pop\n      jump\t// out\n        /* \"#utility.yul\":19872:20229   */\n    tag_222:\n        /* \"#utility.yul\":19950:19953   */\n      0x00\n        /* \"#utility.yul\":19978:20017   */\n      tag_425\n        /* \"#utility.yul\":20011:20016   */\n      dup3\n        /* \"#utility.yul\":19978:20017   */\n      tag_181\n      jump\t// in\n    tag_425:\n        /* \"#utility.yul\":20033:20094   */\n      tag_426\n        /* \"#utility.yul\":20087:20093   */\n      dup2\n        /* \"#utility.yul\":20082:20085   */\n      dup6\n        /* \"#utility.yul\":20033:20094   */\n      tag_221\n      jump\t// in\n    tag_426:\n        /* \"#utility.yul\":20026:20094   */\n      swap4\n      pop\n        /* \"#utility.yul\":20103:20168   */\n      tag_427\n        /* \"#utility.yul\":20161:20167   */\n      dup2\n        /* \"#utility.yul\":20156:20159   */\n      dup6\n        /* \"#utility.yul\":20149:20153   */\n      0x20\n        /* \"#utility.yul\":20142:20147   */\n      dup7\n        /* \"#utility.yul\":20138:20154   */\n      add\n        /* \"#utility.yul\":20103:20168   */\n      tag_183\n      jump\t// in\n    tag_427:\n        /* \"#utility.yul\":20193:20222   */\n      tag_428\n        /* \"#utility.yul\":20215:20221   */\n      dup2\n        /* \"#utility.yul\":20193:20222   */\n      tag_184\n      jump\t// in\n    tag_428:\n        /* \"#utility.yul\":20188:20191   */\n      dup5\n        /* \"#utility.yul\":20184:20223   */\n      add\n        /* \"#utility.yul\":20177:20223   */\n      swap2\n      pop\n        /* \"#utility.yul\":19954:20229   */\n      pop\n        /* \"#utility.yul\":19872:20229   */\n      swap3\n      swap2\n      pop\n      pop\n      jump\t// out\n        /* \"#utility.yul\":20235:20431   */\n    tag_223:\n        /* \"#utility.yul\":20324:20334   */\n      0x00\n        /* \"#utility.yul\":20359:20425   */\n      tag_430\n        /* \"#utility.yul\":20421:20424   */\n      dup4\n        /* \"#utility.yul\":20413:20419   */\n      dup4\n        /* \"#utility.yul\":20359:20425   */\n      tag_222\n      jump\t// in\n    tag_430:\n        /* \"#utility.yul\":20345:20425   */\n      swap1\n      pop\n        /* \"#utility.yul\":20235:20431   */\n      swap3\n      swap2\n      pop\n      pop\n      jump\t// out\n        /* \"#utility.yul\":20437:20560   */\n    tag_224:\n        /* \"#utility.yul\":20517:20521   */\n      0x00\n        /* \"#utility.yul\":20549:20553   */\n      0x20\n        /* \"#utility.yul\":20544:20547   */\n      dup3\n        /* \"#utility.yul\":20540:20554   */\n      add\n        /* \"#utility.yul\":20532:20554   */\n      swap1\n      pop\n        /* \"#utility.yul\":20437:20560   */\n      swap2\n      swap1\n      pop\n      jump\t// out\n        /* \"#utility.yul\":20594:21585   */\n    tag_225:\n        /* \"#utility.yul\":20733:20736   */\n      0x00\n        /* \"#utility.yul\":20762:20826   */\n      tag_433\n        /* \"#utility.yul\":20820:20825   */\n      dup3\n        /* \"#utility.yul\":20762:20826   */\n      tag_218\n      jump\t// in\n    tag_433:\n        /* \"#utility.yul\":20842:20938   */\n      tag_434\n        /* \"#utility.yul\":20931:20937   */\n      dup2\n        /* \"#utility.yul\":20926:20929   */\n      dup6\n        /* \"#utility.yul\":20842:20938   */\n      tag_219\n      jump\t// in\n    tag_434:\n        /* \"#utility.yul\":20835:20938   */\n      swap4\n      pop\n        /* \"#utility.yul\":20964:20967   */\n      dup4\n        /* \"#utility.yul\":21009:21013   */\n      0x20\n        /* \"#utility.yul\":21001:21007   */\n      dup3\n        /* \"#utility.yul\":20997:21014   */\n      mul\n        /* \"#utility.yul\":20992:20995   */\n      dup6\n        /* \"#utility.yul\":20988:21015   */\n      add\n        /* \"#utility.yul\":21039:21105   */\n      tag_435\n        /* \"#utility.yul\":21099:21104   */\n      dup6\n        /* \"#utility.yul\":21039:21105   */\n      tag_220\n      jump\t// in\n    tag_435:\n        /* \"#utility.yul\":21128:21135   */\n      dup1\n        /* \"#utility.yul\":21159:21160   */\n      0x00\n        /* \"#utility.yul\":21144:21540   */\n    tag_436:\n        /* \"#utility.yul\":21169:21175   */\n      dup6\n        /* \"#utility.yul\":21166:21167   */\n      dup2\n        /* \"#utility.yul\":21163:21176   */\n      lt\n        /* \"#utility.yul\":21144:21540   */\n      iszero\n      tag_438\n      jumpi\n        /* \"#utility.yul\":21240:21249   */\n      dup5\n        /* \"#utility.yul\":21234:21238   */\n      dup5\n        /* \"#utility.yul\":21230:21250   */\n      sub\n        /* \"#utility.yul\":21225:21228   */\n      dup10\n        /* \"#utility.yul\":21218:21251   */\n      mstore\n        /* \"#utility.yul\":21291:21297   */\n      dup2\n        /* \"#utility.yul\":21285:21298   */\n      mload\n        /* \"#utility.yul\":21319:21403   */\n      tag_439\n        /* \"#utility.yul\":21398:21402   */\n      dup6\n        /* \"#utility.yul\":21383:21396   */\n      dup3\n        /* \"#utility.yul\":21319:21403   */\n      tag_223\n      jump\t// in\n    tag_439:\n        /* \"#utility.yul\":21311:21403   */\n      swap5\n      pop\n        /* \"#utility.yul\":21426:21496   */\n      tag_440\n        /* \"#utility.yul\":21489:21495   */\n      dup4\n        /* \"#utility.yul\":21426:21496   */\n      tag_224\n      jump\t// in\n    tag_440:\n        /* \"#utility.yul\":21416:21496   */\n      swap3\n      pop\n        /* \"#utility.yul\":21525:21529   */\n      0x20\n        /* \"#utility.yul\":21520:21523   */\n      dup11\n        /* \"#utility.yul\":21516:21530   */\n      add\n        /* \"#utility.yul\":21509:21530   */\n      swap10\n      pop\n        /* \"#utility.yul\":21204:21540   */\n      pop\n        /* \"#utility.yul\":21191:21192   */\n      0x01\n        /* \"#utility.yul\":21188:21189   */\n      dup2\n        /* \"#utility.yul\":21184:21193   */\n      add\n        /* \"#utility.yul\":21179:21193   */\n      swap1\n      pop\n        /* \"#utility.yul\":21144:21540   */\n      jump(tag_436)\n    tag_438:\n        /* \"#utility.yul\":21148:21162   */\n      pop\n        /* \"#utility.yul\":21556:21560   */\n      dup3\n        /* \"#utility.yul\":21549:21560   */\n      swap8\n      pop\n        /* \"#utility.yul\":21576:21579   */\n      dup8\n        /* \"#utility.yul\":21569:21579   */\n      swap6\n      pop\n        /* \"#utility.yul\":20738:21585   */\n      pop\n      pop\n      pop\n      pop\n      pop\n        /* \"#utility.yul\":20594:21585   */\n      swap3\n      swap2\n      pop\n      pop\n      jump\t// out\n        /* \"#utility.yul\":21591:22224   */\n    tag_149:\n        /* \"#utility.yul\":21810:21814   */\n      0x00\n        /* \"#utility.yul\":21848:21850   */\n      0x60\n        /* \"#utility.yul\":21837:21846   */\n      dup3\n        /* \"#utility.yul\":21833:21851   */\n      add\n        /* \"#utility.yul\":21825:21851   */\n      swap1\n      pop\n        /* \"#utility.yul\":21861:21932   */\n      tag_442\n        /* \"#utility.yul\":21929:21930   */\n      0x00\n        /* \"#utility.yul\":21918:21927   */\n      dup4\n        /* \"#utility.yul\":21914:21931   */\n      add\n        /* \"#utility.yul\":21905:21911   */\n      dup7\n        /* \"#utility.yul\":21861:21932   */\n      tag_180\n      jump\t// in\n    tag_442:\n        /* \"#utility.yul\":21942:22014   */\n      tag_443\n        /* \"#utility.yul\":22010:22012   */\n      0x20\n        /* \"#utility.yul\":21999:22008   */\n      dup4\n        /* \"#utility.yul\":21995:22013   */\n      add\n        /* \"#utility.yul\":21986:21992   */\n      dup6\n        /* \"#utility.yul\":21942:22014   */\n      tag_180\n      jump\t// in\n    tag_443:\n        /* \"#utility.yul\":22061:22070   */\n      dup2\n        /* \"#utility.yul\":22055:22059   */\n      dup2\n        /* \"#utility.yul\":22051:22071   */\n      sub\n        /* \"#utility.yul\":22046:22048   */\n      0x40\n        /* \"#utility.yul\":22035:22044   */\n      dup4\n        /* \"#utility.yul\":22031:22049   */\n      add\n        /* \"#utility.yul\":22024:22072   */\n      mstore\n        /* \"#utility.yul\":22089:22217   */\n      tag_444\n        /* \"#utility.yul\":22212:22216   */\n      dup2\n        /* \"#utility.yul\":22203:22209   */\n      dup5\n        /* \"#utility.yul\":22089:22217   */\n      tag_225\n      jump\t// in\n    tag_444:\n        /* \"#utility.yul\":22081:22217   */\n      swap1\n      pop\n        /* \"#utility.yul\":21591:22224   */\n      swap5\n      swap4\n      pop\n      pop\n      pop\n      pop\n      jump\t// out\n        /* \"#utility.yul\":22230:22371   */\n    tag_226:\n        /* \"#utility.yul\":22279:22283   */\n      0x00\n        /* \"#utility.yul\":22302:22305   */\n      dup2\n        /* \"#utility.yul\":22294:22305   */\n      swap1\n      pop\n        /* \"#utility.yul\":22325:22328   */\n      dup2\n        /* \"#utility.yul\":22322:22323   */\n      0x00\n        /* \"#utility.yul\":22315:22329   */\n      mstore\n        /* \"#utility.yul\":22359:22363   */\n      0x20\n        /* \"#utility.yul\":22356:22357   */\n      0x00\n        /* \"#utility.yul\":22346:22364   */\n      keccak256\n        /* \"#utility.yul\":22338:22364   */\n      swap1\n      pop\n        /* \"#utility.yul\":22230:22371   */\n      swap2\n      swap1\n      pop\n      jump\t// out\n        /* \"#utility.yul\":22377:22470   */\n    tag_227:\n        /* \"#utility.yul\":22414:22420   */\n      0x00\n        /* \"#utility.yul\":22461:22463   */\n      0x20\n        /* \"#utility.yul\":22456:22458   */\n      0x1f\n        /* \"#utility.yul\":22449:22454   */\n      dup4\n        /* \"#utility.yul\":22445:22459   */\n      add\n        /* \"#utility.yul\":22441:22464   */\n      div\n        /* \"#utility.yul\":22431:22464   */\n      swap1\n      pop\n        /* \"#utility.yul\":22377:22470   */\n      swap2\n      swap1\n      pop\n      jump\t// out\n        /* \"#utility.yul\":22476:22583   */\n    tag_228:\n        /* \"#utility.yul\":22520:22528   */\n      0x00\n        /* \"#utility.yul\":22570:22575   */\n      dup3\n        /* \"#utility.yul\":22564:22568   */\n      dup3\n        /* \"#utility.yul\":22560:22576   */\n      shl\n        /* \"#utility.yul\":22539:22576   */\n      swap1\n      pop\n        /* \"#utility.yul\":22476:22583   */\n      swap3\n      swap2\n      pop\n      pop\n      jump\t// out\n        /* \"#utility.yul\":22589:22982   */\n    tag_229:\n        /* \"#utility.yul\":22658:22664   */\n      0x00\n        /* \"#utility.yul\":22708:22709   */\n      0x08\n        /* \"#utility.yul\":22696:22706   */\n      dup4\n        /* \"#utility.yul\":22692:22710   */\n      mul\n        /* \"#utility.yul\":22731:22828   */\n      tag_449\n        /* \"#utility.yul\":22761:22827   */\n      0xffffffffffffffffffffffffffffffffffffffffffffffffffffffffffffffff\n        /* \"#utility.yul\":22750:22759   */\n      dup3\n        /* \"#utility.yul\":22731:22828   */\n      tag_228\n      jump\t// in\n    tag_449:\n        /* \"#utility.yul\":22849:22888   */\n      tag_450\n        /* \"#utility.yul\":22879:22887   */\n      dup7\n        /* \"#utility.yul\":22868:22877   */\n      dup4\n        /* \"#utility.yul\":22849:22888   */\n      tag_228\n      jump\t// in\n    tag_450:\n        /* \"#utility.yul\":22837:22888   */\n      swap6\n      pop\n        /* \"#utility.yul\":22921:22925   */\n      dup1\n        /* \"#utility.yul\":22917:22926   */\n      not\n        /* \"#utility.yul\":22910:22915   */\n      dup5\n        /* \"#utility.yul\":22906:22927   */\n      and\n        /* \"#utility.yul\":22897:22927   */\n      swap4\n      pop\n        /* \"#utility.yul\":22970:22974   */\n      dup1\n        /* \"#utility.yul\":22960:22968   */\n      dup7\n        /* \"#utility.yul\":22956:22975   */\n      and\n        /* \"#utility.yul\":22949:22954   */\n      dup5\n        /* \"#utility.yul\":22946:22976   */\n      or\n        /* \"#utility.yul\":22936:22976   */\n      swap3\n      pop\n        /* \"#utility.yul\":22665:22982   */\n      pop\n      pop\n        /* \"#utility.yul\":22589:22982   */\n      swap4\n      swap3\n      pop\n      pop\n      pop\n      jump\t// out\n        /* \"#utility.yul\":22988:23048   */\n    tag_230:\n        /* \"#utility.yul\":23016:23019   */\n      0x00\n        /* \"#utility.yul\":23037:23042   */\n      dup2\n        /* \"#utility.yul\":23030:23042   */\n      swap1\n      pop\n        /* \"#utility.yul\":22988:23048   */\n      swap2\n      swap1\n      pop\n      jump\t// out\n        /* \"#utility.yul\":23054:23196   */\n    tag_231:\n        /* \"#utility.yul\":23104:23113   */\n      0x00\n        /* \"#utility.yul\":23137:23190   */\n      tag_453\n        /* \"#utility.yul\":23155:23189   */\n      tag_454\n        /* \"#utility.yul\":23164:23188   */\n      tag_455\n        /* \"#utility.yul\":23182:23187   */\n      dup5\n        /* \"#utility.yul\":23164:23188   */\n      tag_173\n      jump\t// in\n    tag_455:\n        /* \"#utility.yul\":23155:23189   */\n      tag_230\n      jump\t// in\n    tag_454:\n        /* \"#utility.yul\":23137:23190   */\n      tag_173\n      jump\t// in\n    tag_453:\n        /* \"#utility.yul\":23124:23190   */\n      swap1\n      pop\n        /* \"#utility.yul\":23054:23196   */\n      swap2\n      swap1\n      pop\n      jump\t// out\n        /* \"#utility.yul\":23202:23277   */\n    tag_232:\n        /* \"#utility.yul\":23245:23248   */\n      0x00\n        /* \"#utility.yul\":23266:23271   */\n      dup2\n        /* \"#utility.yul\":23259:23271   */\n      swap1\n      pop\n        /* \"#utility.yul\":23202:23277   */\n      swap2\n      swap1\n      pop\n      jump\t// out\n        /* \"#utility.yul\":23283:23552   */\n    tag_233:\n        /* \"#utility.yul\":23393:23432   */\n      tag_458\n        /* \"#utility.yul\":23424:23431   */\n      dup4\n        /* \"#utility.yul\":23393:23432   */\n      tag_231\n      jump\t// in\n    tag_458:\n        /* \"#utility.yul\":23454:23545   */\n      tag_459\n        /* \"#utility.yul\":23503:23544   */\n      tag_460\n        /* \"#utility.yul\":23527:23543   */\n      dup3\n        /* \"#utility.yul\":23503:23544   */\n      tag_232\n      jump\t// in\n    tag_460:\n        /* \"#utility.yul\":23495:23501   */\n      dup5\n        /* \"#utility.yul\":23488:23492   */\n      dup5\n        /* \"#utility.yul\":23482:23493   */\n      sload\n        /* \"#utility.yul\":23454:23545   */\n      tag_229\n      jump\t// in\n    tag_459:\n        /* \"#utility.yul\":23448:23452   */\n      dup3\n        /* \"#utility.yul\":23441:23546   */\n      sstore\n        /* \"#utility.yul\":23359:23552   */\n      pop\n        /* \"#utility.yul\":23283:23552   */\n      pop\n      pop\n      pop\n      jump\t// out\n        /* \"#utility.yul\":23558:23631   */\n    tag_234:\n        /* \"#utility.yul\":23603:23606   */\n      0x00\n        /* \"#utility.yul\":23558:23631   */\n      swap1\n      jump\t// out\n        /* \"#utility.yul\":23637:23826   */\n    tag_235:\n        /* \"#utility.yul\":23714:23746   */\n      tag_463\n      tag_234\n      jump\t// in\n    tag_463:\n        /* \"#utility.yul\":23755:23820   */\n      tag_464\n        /* \"#utility.yul\":23813:23819   */\n      dup2\n        /* \"#utility.yul\":23805:23811   */\n      dup5\n        /* \"#utility.yul\":23799:23803   */\n      dup5\n        /* \"#utility.yul\":23755:23820   */\n      tag_233\n      jump\t// in\n    tag_464:\n        /* \"#utility.yul\":23690:23826   */\n      pop\n        /* \"#utility.yul\":23637:23826   */\n      pop\n      pop\n      jump\t// out\n        /* \"#utility.yul\":23832:24018   */\n    tag_236:\n        /* \"#utility.yul\":23892:24012   */\n    tag_466:\n        /* \"#utility.yul\":23909:23912   */\n      dup2\n        /* \"#utility.yul\":23902:23907   */\n      dup2\n        /* \"#utility.yul\":23899:23913   */\n      lt\n        /* \"#utility.yul\":23892:24012   */\n      iszero\n      tag_468\n      jumpi\n        /* \"#utility.yul\":23963:24002   */\n      tag_469\n        /* \"#utility.yul\":24000:24001   */\n      0x00\n        /* \"#utility.yul\":23993:23998   */\n      dup3\n        /* \"#utility.yul\":23963:24002   */\n      tag_235\n      jump\t// in\n    tag_469:\n        /* \"#utility.yul\":23936:23937   */\n      0x01\n        /* \"#utility.yul\":23929:23934   */\n      dup2\n        /* \"#utility.yul\":23925:23938   */\n      add\n        /* \"#utility.yul\":23916:23938   */\n      swap1\n      pop\n        /* \"#utility.yul\":23892:24012   */\n      jump(tag_466)\n    tag_468:\n        /* \"#utility.yul\":23832:24018   */\n      pop\n      pop\n      jump\t// out\n        /* \"#utility.yul\":24024:24567   */\n    tag_237:\n        /* \"#utility.yul\":24125:24127   */\n      0x1f\n        /* \"#utility.yul\":24120:24123   */\n      dup3\n        /* \"#utility.yul\":24117:24128   */\n      gt\n        /* \"#utility.yul\":24114:24560   */\n      iszero\n      tag_471\n      jumpi\n        /* \"#utility.yul\":24159:24197   */\n      tag_472\n        /* \"#utility.yul\":24191:24196   */\n      dup2\n        /* \"#utility.yul\":24159:24197   */\n      tag_226\n      jump\t// in\n    tag_472:\n        /* \"#utility.yul\":24243:24272   */\n      tag_473\n        /* \"#utility.yul\":24261:24271   */\n      dup5\n        /* \"#utility.yul\":24243:24272   */\n      tag_227\n      jump\t// in\n    tag_473:\n        /* \"#utility.yul\":24233:24241   */\n      dup2\n        /* \"#utility.yul\":24229:24273   */\n      add\n        /* \"#utility.yul\":24426:24428   */\n      0x20\n        /* \"#utility.yul\":24414:24424   */\n      dup6\n        /* \"#utility.yul\":24411:24429   */\n      lt\n        /* \"#utility.yul\":24408:24457   */\n      iszero\n      tag_474\n      jumpi\n        /* \"#utility.yul\":24447:24455   */\n      dup2\n        /* \"#utility.yul\":24432:24455   */\n      swap1\n      pop\n        /* \"#utility.yul\":24408:24457   */\n    tag_474:\n        /* \"#utility.yul\":24470:24550   */\n      tag_475\n        /* \"#utility.yul\":24526:24548   */\n      tag_476\n        /* \"#utility.yul\":24544:24547   */\n      dup6\n        /* \"#utility.yul\":24526:24548   */\n      tag_227\n      jump\t// in\n    tag_476:\n        /* \"#utility.yul\":24516:24524   */\n      dup4\n        /* \"#utility.yul\":24512:24549   */\n      add\n        /* \"#utility.yul\":24499:24510   */\n      dup3\n        /* \"#utility.yul\":24470:24550   */\n      tag_236\n      jump\t// in\n    tag_475:\n        /* \"#utility.yul\":24129:24560   */\n      pop\n      pop\n        /* \"#utility.yul\":24114:24560   */\n    tag_471:\n        /* \"#utility.yul\":24024:24567   */\n      pop\n      pop\n      pop\n      jump\t// out\n        /* \"#utility.yul\":24573:24690   */\n    tag_238:\n        /* \"#utility.yul\":24627:24635   */\n      0x00\n        /* \"#utility.yul\":24677:24682   */\n      dup3\n        /* \"#utility.yul\":24671:24675   */\n      dup3\n        /* \"#utility.yul\":24667:24683   */\n      shr\n        /* \"#utility.yul\":24646:24683   */\n      swap1\n      pop\n        /* \"#utility.yul\":24573:24690   */\n      swap3\n      swap2\n      pop\n      pop\n      jump\t// out\n        /* \"#utility.yul\":24696:24865   */\n    tag_239:\n        /* \"#utility.yul\":24740:24746   */\n      0x00\n        /* \"#utility.yul\":24773:24824   */\n      tag_479\n        /* \"#utility.yul\":24821:24822   */\n      0x00\n        /* \"#utility.yul\":24817:24823   */\n      not\n        /* \"#utility.yul\":24809:24814   */\n      dup5\n        /* \"#utility.yul\":24806:24807   */\n      0x08\n        /* \"#utility.yul\":24802:24815   */\n      mul\n        /* \"#utility.yul\":24773:24824   */\n      tag_238\n      jump\t// in\n    tag_479:\n        /* \"#utility.yul\":24769:24825   */\n      not\n        /* \"#utility.yul\":24854:24858   */\n      dup1\n        /* \"#utility.yul\":24848:24852   */\n      dup4\n        /* \"#utility.yul\":24844:24859   */\n      and\n        /* \"#utility.yul\":24834:24859   */\n      swap2\n      pop\n        /* \"#utility.yul\":24747:24865   */\n      pop\n        /* \"#utility.yul\":24696:24865   */\n      swap3\n      swap2\n      pop\n      pop\n      jump\t// out\n        /* \"#utility.yul\":24870:25165   */\n    tag_240:\n        /* \"#utility.yul\":24946:24950   */\n      0x00\n        /* \"#utility.yul\":25092:25121   */\n      tag_481\n        /* \"#utility.yul\":25117:25120   */\n      dup4\n        /* \"#utility.yul\":25111:25115   */\n      dup4\n        /* \"#utility.yul\":25092:25121   */\n      tag_239\n      jump\t// in\n    tag_481:\n        /* \"#utility.yul\":25084:25121   */\n      swap2\n      pop\n        /* \"#utility.yul\":25154:25157   */\n      dup3\n        /* \"#utility.yul\":25151:25152   */\n      0x02\n        /* \"#utility.yul\":25147:25158   */\n      mul\n        /* \"#utility.yul\":25141:25145   */\n      dup3\n        /* \"#utility.yul\":25138:25159   */\n      or\n        /* \"#utility.yul\":25130:25159   */\n      swap1\n      pop\n        /* \"#utility.yul\":24870:25165   */\n      swap3\n      swap2\n      pop\n      pop\n      jump\t// out\n        /* \"#utility.yul\":25170:26565   */\n    tag_156:\n        /* \"#utility.yul\":25287:25324   */\n      tag_483\n        /* \"#utility.yul\":25320:25323   */\n      dup3\n        /* \"#utility.yul\":25287:25324   */\n      tag_181\n      jump\t// in\n    tag_483:\n        /* \"#utility.yul\":25389:25407   */\n      0xffffffffffffffff\n        /* \"#utility.yul\":25381:25387   */\n      dup2\n        /* \"#utility.yul\":25378:25408   */\n      gt\n        /* \"#utility.yul\":25375:25431   */\n      iszero\n      tag_484\n      jumpi\n        /* \"#utility.yul\":25411:25429   */\n      tag_485\n      tag_190\n      jump\t// in\n    tag_485:\n        /* \"#utility.yul\":25375:25431   */\n    tag_484:\n        /* \"#utility.yul\":25455:25493   */\n      tag_486\n        /* \"#utility.yul\":25487:25491   */\n      dup3\n        /* \"#utility.yul\":25481:25492   */\n      sload\n        /* \"#utility.yul\":25455:25493   */\n      tag_96\n      jump\t// in\n    tag_486:\n        /* \"#utility.yul\":25540:25607   */\n      tag_487\n        /* \"#utility.yul\":25600:25606   */\n      dup3\n        /* \"#utility.yul\":25592:25598   */\n      dup3\n        /* \"#utility.yul\":25586:25590   */\n      dup6\n        /* \"#utility.yul\":25540:25607   */\n      tag_237\n      jump\t// in\n    tag_487:\n        /* \"#utility.yul\":25634:25635   */\n      0x00\n        /* \"#utility.yul\":25658:25662   */\n      0x20\n        /* \"#utility.yul\":25645:25662   */\n      swap1\n      pop\n        /* \"#utility.yul\":25690:25692   */\n      0x1f\n        /* \"#utility.yul\":25682:25688   */\n      dup4\n        /* \"#utility.yul\":25679:25693   */\n      gt\n        /* \"#utility.yul\":25707:25708   */\n      0x01\n        /* \"#utility.yul\":25702:26320   */\n      dup2\n      eq\n      tag_489\n      jumpi\n        /* \"#utility.yul\":26364:26365   */\n      0x00\n        /* \"#utility.yul\":26381:26387   */\n      dup5\n        /* \"#utility.yul\":26378:26455   */\n      iszero\n      tag_490\n      jumpi\n        /* \"#utility.yul\":26430:26439   */\n      dup3\n        /* \"#utility.yul\":26425:26428   */\n      dup8\n        /* \"#utility.yul\":26421:26440   */\n      add\n        /* \"#utility.yul\":26415:26441   */\n      mload\n        /* \"#utility.yul\":26406:26441   */\n      swap1\n      pop\n        /* \"#utility.yul\":26378:26455   */\n    tag_490:\n        /* \"#utility.yul\":26481:26548   */\n      tag_491\n        /* \"#utility.yul\":26541:26547   */\n      dup6\n        /* \"#utility.yul\":26534:26539   */\n      dup3\n        /* \"#utility.yul\":26481:26548   */\n      tag_240\n      jump\t// in\n    tag_491:\n        /* \"#utility.yul\":26475:26479   */\n      dup7\n        /* \"#utility.yul\":26468:26549   */\n      sstore\n        /* \"#utility.yul\":26337:26559   */\n      pop\n        /* \"#utility.yul\":25672:26559   */\n      jump(tag_488)\n        /* \"#utility.yul\":25702:26320   */\n    tag_489:\n        /* \"#utility.yul\":25754:25758   */\n      0x1f\n        /* \"#utility.yul\":25750:25759   */\n      not\n        /* \"#utility.yul\":25742:25748   */\n      dup5\n        /* \"#utility.yul\":25738:25760   */\n      and\n        /* \"#utility.yul\":25788:25825   */\n      tag_492\n        /* \"#utility.yul\":25820:25824   */\n      dup7\n        /* \"#utility.yul\":25788:25825   */\n      tag_226\n      jump\t// in\n    tag_492:\n        /* \"#utility.yul\":25847:25848   */\n      0x00\n        /* \"#utility.yul\":25861:26069   */\n    tag_493:\n        /* \"#utility.yul\":25875:25882   */\n      dup3\n        /* \"#utility.yul\":25872:25873   */\n      dup2\n        /* \"#utility.yul\":25869:25883   */\n      lt\n        /* \"#utility.yul\":25861:26069   */\n      iszero\n      tag_495\n      jumpi\n        /* \"#utility.yul\":25954:25963   */\n      dup5\n        /* \"#utility.yul\":25949:25952   */\n      dup10\n        /* \"#utility.yul\":25945:25964   */\n      add\n        /* \"#utility.yul\":25939:25965   */\n      mload\n        /* \"#utility.yul\":25931:25937   */\n      dup3\n        /* \"#utility.yul\":25924:25966   */\n      sstore\n        /* \"#utility.yul\":26005:26006   */\n      0x01\n        /* \"#utility.yul\":25997:26003   */\n      dup3\n        /* \"#utility.yul\":25993:26007   */\n      add\n        /* \"#utility.yul\":25983:26007   */\n      swap2\n      pop\n        /* \"#utility.yul\":26052:26054   */\n      0x20\n        /* \"#utility.yul\":26041:26050   */\n      dup6\n        /* \"#utility.yul\":26037:26055   */\n      add\n        /* \"#utility.yul\":26024:26055   */\n      swap5\n      pop\n        /* \"#utility.yul\":25898:25902   */\n      0x20\n        /* \"#utility.yul\":25895:25896   */\n      dup2\n        /* \"#utility.yul\":25891:25903   */\n      add\n        /* \"#utility.yul\":25886:25903   */\n      swap1\n      pop\n        /* \"#utility.yul\":25861:26069   */\n      jump(tag_493)\n    tag_495:\n        /* \"#utility.yul\":26097:26103   */\n      dup7\n        /* \"#utility.yul\":26088:26095   */\n      dup4\n        /* \"#utility.yul\":26085:26104   */\n      lt\n        /* \"#utility.yul\":26082:26261   */\n      iszero\n      tag_496\n      jumpi\n        /* \"#utility.yul\":26155:26164   */\n      dup5\n        /* \"#utility.yul\":26150:26153   */\n      dup10\n        /* \"#utility.yul\":26146:26165   */\n      add\n        /* \"#utility.yul\":26140:26166   */\n      mload\n        /* \"#utility.yul\":26198:26246   */\n      tag_497\n        /* \"#utility.yul\":26240:26244   */\n      0x1f\n        /* \"#utility.yul\":26232:26238   */\n      dup10\n        /* \"#utility.yul\":26228:26245   */\n      and\n        /* \"#utility.yul\":26217:26226   */\n      dup3\n        /* \"#utility.yul\":26198:26246   */\n      tag_239\n      jump\t// in\n    tag_497:\n        /* \"#utility.yul\":26190:26196   */\n      dup4\n        /* \"#utility.yul\":26183:26247   */\n      sstore\n        /* \"#utility.yul\":26105:26261   */\n      pop\n        /* \"#utility.yul\":26082:26261   */\n    tag_496:\n        /* \"#utility.yul\":26307:26308   */\n      0x01\n        /* \"#utility.yul\":26303:26304   */\n      0x02\n        /* \"#utility.yul\":26295:26301   */\n      dup9\n        /* \"#utility.yul\":26291:26305   */\n      mul\n        /* \"#utility.yul\":26287:26309   */\n      add\n        /* \"#utility.yul\":26281:26285   */\n      dup9\n        /* \"#utility.yul\":26274:26310   */\n      sstore\n        /* \"#utility.yul\":25709:26320   */\n      pop\n      pop\n      pop\n        /* \"#utility.yul\":25672:26559   */\n    tag_488:\n      pop\n        /* \"#utility.yul\":25262:26565   */\n      pop\n      pop\n      pop\n        /* \"#utility.yul\":25170:26565   */\n      pop\n      pop\n      jump\t// out\n\n    auxdata: 0xa2646970667358221220a6a17134c8dc60a09d0088d9e224e50c776c2b0ac63e394689a5780474bfb2a964736f6c63430008120033\n}\n",
				"bytecode": {
					"linkReferences": {},
					"object": "608060405234801561001057600080fd5b50611af4806100206000396000f3fe608060405234801561001057600080fd5b506004361061010b5760003560e01c806391cbfb41116100a2578063bbff716611610071578063bbff71661461030d578063cf0944971461033d578063d624d6fd1461035b578063e3eed5c914610377578063ed8c2aed146103a75761010b565b806391cbfb41146102595780639207891d146102895780639e319063146102a7578063ac2f0074146102d95761010b565b806346f86716116100de57806346f86716146101d35780634c3c234f146102035780636b7128ec1461021f5780636f4a2cd01461024f5761010b565b806306455f5e1461011057806327e235e314610140578063420700f61461017057806343859632146101a3575b600080fd5b61012a60048036038101906101259190610dc3565b6103b1565b6040516101379190610e12565b60405180910390f35b61015a60048036038101906101559190610e2d565b6103d6565b6040516101679190610e12565b60405180910390f35b61018a60048036038101906101859190610e5a565b6103ee565b60405161019a9493929190610f39565b60405180910390f35b6101bd60048036038101906101b89190610dc3565b6104e3565b6040516101ca9190610fa0565b60405180910390f35b6101ed60048036038101906101e89190610fbb565b610512565b6040516101fa9190610e12565b60405180910390f35b61021d60048036038101906102189190610e5a565b61052a565b005b61023960048036038101906102349190610fbb565b61088e565b6040516102469190610e12565b60405180910390f35b6102576108ae565b005b610273600480360381019061026e9190610e5a565b6108b0565b6040516102809190610e12565b60405180910390f35b6102916108e1565b60405161029e9190610e12565b60405180910390f35b6102c160048036038101906102bc9190610dc3565b6108e7565b6040516102d093929190610fe8565b60405180910390f35b6102f360048036038101906102ee9190610fbb565b61093e565b60405161030495949392919061101f565b60405180910390f35b61032760048036038101906103229190610fbb565b6109b1565b6040516103349190610e12565b60405180910390f35b610345610a23565b6040516103529190610e12565b60405180910390f35b6103756004803603810190610370919061128d565b610a29565b005b610391600480360381019061038c9190610e5a565b610c37565b60405161039e9190610e12565b60405180910390f35b6103af610c3f565b005b6003602052816000526040600020602052806000526040600020600091509150505481565b60056020528060005260406000206000915090505481565b6006602052816000526040600020818154811061040a57600080fd5b9060005260206000209060040201600091509150508060000154908060010180546104349061132b565b80601f01602080910402602001604051908101604052809291908181526020018280546104609061132b565b80156104ad5780601f10610482576101008083540402835291602001916104ad565b820191906000526020600020905b81548152906001019060200180831161049057829003601f168201915b5050505050908060020160009054906101000a900473ffffffffffffffffffffffffffffffffffffffff16908060030154905084565b60076020528160005260406000206020528060005260406000206000915091509054906101000a900460ff1681565b60026020528060005260406000206000915090505481565b6000600983815481106105405761053f61135c565b5b906000526020600020906006020190506007600084815260200190815260200160002060003373ffffffffffffffffffffffffffffffffffffffff1673ffffffffffffffffffffffffffffffffffffffff16815260200190815260200160002060009054906101000a900460ff16156105ee576040517f08c379a00000000000000000000000000000000000000000000000000000000081526004016105e5906113d7565b60405180910390fd5b8060050160009054906101000a900460ff1661063f576040517f08c379a000000000000000000000000000000000000000000000000000000000815260040161063690611443565b60405180910390fd5b80600201544210158015610657575080600301544211155b610696576040517f08c379a000000000000000000000000000000000000000000000000000000000815260040161068d906114af565b60405180910390fd5b600082101580156106ad5750806004018054905082105b6106ec576040517f08c379a00000000000000000000000000000000000000000000000000000000081526004016106e39061151b565b60405180910390fd5b60016007600085815260200190815260200160002060003373ffffffffffffffffffffffffffffffffffffffff1673ffffffffffffffffffffffffffffffffffffffff16815260200190815260200160002060006101000a81548160ff021916908315150217905550600060405180606001604052808581526020013373ffffffffffffffffffffffffffffffffffffffff168152602001848152509050806008600086815260200190815260200160002060003373ffffffffffffffffffffffffffffffffffffffff1673ffffffffffffffffffffffffffffffffffffffff1681526020019081526020016000206000820151816000015560208201518160010160006101000a81548173ffffffffffffffffffffffffffffffffffffffff021916908373ffffffffffffffffffffffffffffffffffffffff160217905550604082015181600201559050503373ffffffffffffffffffffffffffffffffffffffff16847fe7ee74ca1f4bb1b82b14f87794c45b3e59c39e372b862fb97a6316b43355b69e856040516108809190610e12565b60405180910390a350505050565b600060066000838152602001908152602001600020805490509050919050565b565b600460205281600052604060002081815481106108cc57600080fd5b90600052602060002001600091509150505481565b60005481565b6008602052816000526040600020602052806000526040600020600091509150508060000154908060010160009054906101000a900473ffffffffffffffffffffffffffffffffffffffff16908060020154905083565b6009818154811061094e57600080fd5b90600052602060002090600602016000915090508060000154908060010160009054906101000a900473ffffffffffffffffffffffffffffffffffffffff16908060020154908060030154908060050160009054906101000a900460ff16905085565b6000600982815481106109c7576109c661135c565b5b9060005260206000209060060201600301544211610a1a576040517f08c379a0000000000000000000000000000000000000000000000000000000008152600401610a1190611587565b60405180910390fd5b60009050919050565b60015481565b828211610a6b576040517f08c379a0000000000000000000000000000000000000000000000000000000008152600401610a62906115f3565b60405180910390fd5b6001815111610aaf576040517f08c379a0000000000000000000000000000000000000000000000000000000008152600401610aa69061165f565b60405180910390fd5b600080815480929190610ac1906116ae565b919050555060006040518060c0016040528060005481526020013373ffffffffffffffffffffffffffffffffffffffff16815260200185815260200184815260200183815260200160011515815250905080600960005481548110610b2957610b2861135c565b5b90600052602060002090600602016000820151816000015560208201518160010160006101000a81548173ffffffffffffffffffffffffffffffffffffffff021916908373ffffffffffffffffffffffffffffffffffffffff16021790555060408201518160020155606082015181600301556080820151816004019080519060200190610bb8929190610c41565b5060a08201518160050160006101000a81548160ff0219169083151502179055509050503373ffffffffffffffffffffffffffffffffffffffff166000547f58d87e181e9ac91f8ccda34caaf4c15db2a9fc345a86ea48e378d6e4359dfdb9868686604051610c2993929190611802565b60405180910390a350505050565b600092915050565b565b828054828255906000526020600020908101928215610c89579160200282015b82811115610c88578251829081610c7891906119ec565b5091602001919060010190610c61565b5b509050610c969190610c9a565b5090565b5b80821115610cba5760008181610cb19190610cbe565b50600101610c9b565b5090565b508054610cca9061132b565b6000825580601f10610cdc5750610cfb565b601f016020900490600052602060002090810190610cfa9190610cfe565b5b50565b5b80821115610d17576000816000905550600101610cff565b5090565b6000604051905090565b600080fd5b600080fd5b6000819050919050565b610d4281610d2f565b8114610d4d57600080fd5b50565b600081359050610d5f81610d39565b92915050565b600073ffffffffffffffffffffffffffffffffffffffff82169050919050565b6000610d9082610d65565b9050919050565b610da081610d85565b8114610dab57600080fd5b50565b600081359050610dbd81610d97565b92915050565b60008060408385031215610dda57610dd9610d25565b5b6000610de885828601610d50565b9250506020610df985828601610dae565b9150509250929050565b610e0c81610d2f565b82525050565b6000602082019050610e276000830184610e03565b92915050565b600060208284031215610e4357610e42610d25565b5b6000610e5184828501610dae565b91505092915050565b60008060408385031215610e7157610e70610d25565b5b6000610e7f85828601610d50565b9250506020610e9085828601610d50565b9150509250929050565b600081519050919050565b600082825260208201905092915050565b60005b83811015610ed4578082015181840152602081019050610eb9565b60008484015250505050565b6000601f19601f8301169050919050565b6000610efc82610e9a565b610f068185610ea5565b9350610f16818560208601610eb6565b610f1f81610ee0565b840191505092915050565b610f3381610d85565b82525050565b6000608082019050610f4e6000830187610e03565b8181036020830152610f608186610ef1565b9050610f6f6040830185610f2a565b610f7c6060830184610e03565b95945050505050565b60008115159050919050565b610f9a81610f85565b82525050565b6000602082019050610fb56000830184610f91565b92915050565b600060208284031215610fd157610fd0610d25565b5b6000610fdf84828501610d50565b91505092915050565b6000606082019050610ffd6000830186610e03565b61100a6020830185610f2a565b6110176040830184610e03565b949350505050565b600060a0820190506110346000830188610e03565b6110416020830187610f2a565b61104e6040830186610e03565b61105b6060830185610e03565b6110686080830184610f91565b9695505050505050565b600080fd5b7f4e487b7100000000000000000000000000000000000000000000000000000000600052604160045260246000fd5b6110af82610ee0565b810181811067ffffffffffffffff821117156110ce576110cd611077565b5b80604052505050565b60006110e1610d1b565b90506110ed82826110a6565b919050565b600067ffffffffffffffff82111561110d5761110c611077565b5b602082029050602081019050919050565b600080fd5b600080fd5b600067ffffffffffffffff82111561114357611142611077565b5b61114c82610ee0565b9050602081019050919050565b82818337600083830152505050565b600061117b61117684611128565b6110d7565b90508281526020810184848401111561119757611196611123565b5b6111a2848285611159565b509392505050565b600082601f8301126111bf576111be611072565b5b81356111cf848260208601611168565b91505092915050565b60006111eb6111e6846110f2565b6110d7565b9050808382526020820190506020840283018581111561120e5761120d61111e565b5b835b8181101561125557803567ffffffffffffffff81111561123357611232611072565b5b80860161124089826111aa565b85526020850194505050602081019050611210565b5050509392505050565b600082601f83011261127457611273611072565b5b81356112848482602086016111d8565b91505092915050565b6000806000606084860312156112a6576112a5610d25565b5b60006112b486828701610d50565b93505060206112c586828701610d50565b925050604084013567ffffffffffffffff8111156112e6576112e5610d2a565b5b6112f28682870161125f565b9150509250925092565b7f4e487b7100000000000000000000000000000000000000000000000000000000600052602260045260246000fd5b6000600282049050600182168061134357607f821691505b602082108103611356576113556112fc565b5b50919050565b7f4e487b7100000000000000000000000000000000000000000000000000000000600052603260045260246000fd5b7f416c726561647920766f74656400000000000000000000000000000000000000600082015250565b60006113c1600d83610ea5565b91506113cc8261138b565b602082019050919050565b600060208201905081810360008301526113f0816113b4565b9050919050565b7f506f6c6c20697320636c6f736564000000000000000000000000000000000000600082015250565b600061142d600e83610ea5565b9150611438826113f7565b602082019050919050565b6000602082019050818103600083015261145c81611420565b9050919050565b7f506f6c6c206973206e6f74206163746976650000000000000000000000000000600082015250565b6000611499601283610ea5565b91506114a482611463565b602082019050919050565b600060208201905081810360008301526114c88161148c565b9050919050565b7f496e76616c69642063686f696365000000000000000000000000000000000000600082015250565b6000611505600e83610ea5565b9150611510826114cf565b602082019050919050565b60006020820190508181036000830152611534816114f8565b9050919050565b7f506f6c6c20686173206e6f7420656e6465642079657400000000000000000000600082015250565b6000611571601683610ea5565b915061157c8261153b565b602082019050919050565b600060208201905081810360008301526115a081611564565b9050919050565b7f496e76616c696420706f6c6c20656e642074696d650000000000000000000000600082015250565b60006115dd601583610ea5565b91506115e8826115a7565b602082019050919050565b6000602082019050818103600083015261160c816115d0565b9050919050565b7f4174206c656173742074776f206f7074696f6e73207265717569726564000000600082015250565b6000611649601d83610ea5565b915061165482611613565b602082019050919050565b600060208201905081810360008301526116788161163c565b9050919050565b7f4e487b7100000000000000000000000000000000000000000000000000000000600052601160045260246000fd5b60006116b982610d2f565b91507fffffffffffffffffffffffffffffffffffffffffffffffffffffffffffffffff82036116eb576116ea61167f565b5b600182019050919050565b600081519050919050565b600082825260208201905092915050565b6000819050602082019050919050565b600082825260208201905092915050565b600061173e82610e9a565b6117488185611722565b9350611758818560208601610eb6565b61176181610ee0565b840191505092915050565b60006117788383611733565b905092915050565b6000602082019050919050565b6000611798826116f6565b6117a28185611701565b9350836020820285016117b485611712565b8060005b858110156117f057848403895281516117d1858261176c565b94506117dc83611780565b925060208a019950506001810190506117b8565b50829750879550505050505092915050565b60006060820190506118176000830186610e03565b6118246020830185610e03565b8181036040830152611836818461178d565b9050949350505050565b60008190508160005260206000209050919050565b60006020601f8301049050919050565b600082821b905092915050565b6000600883026118a27fffffffffffffffffffffffffffffffffffffffffffffffffffffffffffffffff82611865565b6118ac8683611865565b95508019841693508086168417925050509392505050565b6000819050919050565b60006118e96118e46118df84610d2f565b6118c4565b610d2f565b9050919050565b6000819050919050565b611903836118ce565b61191761190f826118f0565b848454611872565b825550505050565b600090565b61192c61191f565b6119378184846118fa565b505050565b5b8181101561195b57611950600082611924565b60018101905061193d565b5050565b601f8211156119a05761197181611840565b61197a84611855565b81016020851015611989578190505b61199d61199585611855565b83018261193c565b50505b505050565b600082821c905092915050565b60006119c3600019846008026119a5565b1980831691505092915050565b60006119dc83836119b2565b9150826002028217905092915050565b6119f582610e9a565b67ffffffffffffffff811115611a0e57611a0d611077565b5b611a18825461132b565b611a2382828561195f565b600060209050601f831160018114611a565760008415611a44578287015190505b611a4e85826119d0565b865550611ab6565b601f198416611a6486611840565b60005b82811015611a8c57848901518255600182019150602085019450602081019050611a67565b86831015611aa95784890151611aa5601f8916826119b2565b8355505b6001600288020188555050505b50505050505056fea2646970667358221220a6a17134c8dc60a09d0088d9e224e50c776c2b0ac63e394689a5780474bfb2a964736f6c63430008120033",
					"opcodes": "PUSH1 0x80 PUSH1 0x40 MSTORE CALLVALUE DUP1 ISZERO PUSH2 0x10 JUMPI PUSH1 0x0 DUP1 REVERT JUMPDEST POP PUSH2 0x1AF4 DUP1 PUSH2 0x20 PUSH1 0x0 CODECOPY PUSH1 0x0 RETURN INVALID PUSH1 0x80 PUSH1 0x40 MSTORE CALLVALUE DUP1 ISZERO PUSH2 0x10 JUMPI PUSH1 0x0 DUP1 REVERT JUMPDEST POP PUSH1 0x4 CALLDATASIZE LT PUSH2 0x10B JUMPI PUSH1 0x0 CALLDATALOAD PUSH1 0xE0 SHR DUP1 PUSH4 0x91CBFB41 GT PUSH2 0xA2 JUMPI DUP1 PUSH4 0xBBFF7166 GT PUSH2 0x71 JUMPI DUP1 PUSH4 0xBBFF7166 EQ PUSH2 0x30D JUMPI DUP1 PUSH4 0xCF094497 EQ PUSH2 0x33D JUMPI DUP1 PUSH4 0xD624D6FD EQ PUSH2 0x35B JUMPI DUP1 PUSH4 0xE3EED5C9 EQ PUSH2 0x377 JUMPI DUP1 PUSH4 0xED8C2AED EQ PUSH2 0x3A7 JUMPI PUSH2 0x10B JUMP JUMPDEST DUP1 PUSH4 0x91CBFB41 EQ PUSH2 0x259 JUMPI DUP1 PUSH4 0x9207891D EQ PUSH2 0x289 JUMPI DUP1 PUSH4 0x9E319063 EQ PUSH2 0x2A7 JUMPI DUP1 PUSH4 0xAC2F0074 EQ PUSH2 0x2D9 JUMPI PUSH2 0x10B JUMP JUMPDEST DUP1 PUSH4 0x46F86716 GT PUSH2 0xDE JUMPI DUP1 PUSH4 0x46F86716 EQ PUSH2 0x1D3 JUMPI DUP1 PUSH4 0x4C3C234F EQ PUSH2 0x203 JUMPI DUP1 PUSH4 0x6B7128EC EQ PUSH2 0x21F JUMPI DUP1 PUSH4 0x6F4A2CD0 EQ PUSH2 0x24F JUMPI PUSH2 0x10B JUMP JUMPDEST DUP1 PUSH4 0x6455F5E EQ PUSH2 0x110 JUMPI DUP1 PUSH4 0x27E235E3 EQ PUSH2 0x140 JUMPI DUP1 PUSH4 0x420700F6 EQ PUSH2 0x170 JUMPI DUP1 PUSH4 0x43859632 EQ PUSH2 0x1A3 JUMPI JUMPDEST PUSH1 0x0 DUP1 REVERT JUMPDEST PUSH2 0x12A PUSH1 0x4 DUP1 CALLDATASIZE SUB DUP2 ADD SWAP1 PUSH2 0x125 SWAP2 SWAP1 PUSH2 0xDC3 JUMP JUMPDEST PUSH2 0x3B1 JUMP JUMPDEST PUSH1 0x40 MLOAD PUSH2 0x137 SWAP2 SWAP1 PUSH2 0xE12 JUMP JUMPDEST PUSH1 0x40 MLOAD DUP1 SWAP2 SUB SWAP1 RETURN JUMPDEST PUSH2 0x15A PUSH1 0x4 DUP1 CALLDATASIZE SUB DUP2 ADD SWAP1 PUSH2 0x155 SWAP2 SWAP1 PUSH2 0xE2D JUMP JUMPDEST PUSH2 0x3D6 JUMP JUMPDEST PUSH1 0x40 MLOAD PUSH2 0x167 SWAP2 SWAP1 PUSH2 0xE12 JUMP JUMPDEST PUSH1 0x40 MLOAD DUP1 SWAP2 SUB SWAP1 RETURN JUMPDEST PUSH2 0x18A PUSH1 0x4 DUP1 CALLDATASIZE SUB DUP2 ADD SWAP1 PUSH2 0x185 SWAP2 SWAP1 PUSH2 0xE5A JUMP JUMPDEST PUSH2 0x3EE JUMP JUMPDEST PUSH1 0x40 MLOAD PUSH2 0x19A SWAP5 SWAP4 SWAP3 SWAP2 SWAP1 PUSH2 0xF39 JUMP JUMPDEST PUSH1 0x40 MLOAD DUP1 SWAP2 SUB SWAP1 RETURN JUMPDEST PUSH2 0x1BD PUSH1 0x4 DUP1 CALLDATASIZE SUB DUP2 ADD SWAP1 PUSH2 0x1B8 SWAP2 SWAP1 PUSH2 0xDC3 JUMP JUMPDEST PUSH2 0x4E3 JUMP JUMPDEST PUSH1 0x40 MLOAD PUSH2 0x1CA SWAP2 SWAP1 PUSH2 0xFA0 JUMP JUMPDEST PUSH1 0x40 MLOAD DUP1 SWAP2 SUB SWAP1 RETURN JUMPDEST PUSH2 0x1ED PUSH1 0x4 DUP1 CALLDATASIZE SUB DUP2 ADD SWAP1 PUSH2 0x1E8 SWAP2 SWAP1 PUSH2 0xFBB JUMP JUMPDEST PUSH2 0x512 JUMP JUMPDEST PUSH1 0x40 MLOAD PUSH2 0x1FA SWAP2 SWAP1 PUSH2 0xE12 JUMP JUMPDEST PUSH1 0x40 MLOAD DUP1 SWAP2 SUB SWAP1 RETURN JUMPDEST PUSH2 0x21D PUSH1 0x4 DUP1 CALLDATASIZE SUB DUP2 ADD SWAP1 PUSH2 0x218 SWAP2 SWAP1 PUSH2 0xE5A JUMP JUMPDEST PUSH2 0x52A JUMP JUMPDEST STOP JUMPDEST PUSH2 0x239 PUSH1 0x4 DUP1 CALLDATASIZE SUB DUP2 ADD SWAP1 PUSH2 0x234 SWAP2 SWAP1 PUSH2 0xFBB JUMP JUMPDEST PUSH2 0x88E JUMP JUMPDEST PUSH1 0x40 MLOAD PUSH2 0x246 SWAP2 SWAP1 PUSH2 0xE12 JUMP JUMPDEST PUSH1 0x40 MLOAD DUP1 SWAP2 SUB SWAP1 RETURN JUMPDEST PUSH2 0x257 PUSH2 0x8AE JUMP JUMPDEST STOP JUMPDEST PUSH2 0x273 PUSH1 0x4 DUP1 CALLDATASIZE SUB DUP2 ADD SWAP1 PUSH2 0x26E SWAP2 SWAP1 PUSH2 0xE5A JUMP JUMPDEST PUSH2 0x8B0 JUMP JUMPDEST PUSH1 0x40 MLOAD PUSH2 0x280 SWAP2 SWAP1 PUSH2 0xE12 JUMP JUMPDEST PUSH1 0x40 MLOAD DUP1 SWAP2 SUB SWAP1 RETURN JUMPDEST PUSH2 0x291 PUSH2 0x8E1 JUMP JUMPDEST PUSH1 0x40 MLOAD PUSH2 0x29E SWAP2 SWAP1 PUSH2 0xE12 JUMP JUMPDEST PUSH1 0x40 MLOAD DUP1 SWAP2 SUB SWAP1 RETURN JUMPDEST PUSH2 0x2C1 PUSH1 0x4 DUP1 CALLDATASIZE SUB DUP2 ADD SWAP1 PUSH2 0x2BC SWAP2 SWAP1 PUSH2 0xDC3 JUMP JUMPDEST PUSH2 0x8E7 JUMP JUMPDEST PUSH1 0x40 MLOAD PUSH2 0x2D0 SWAP4 SWAP3 SWAP2 SWAP1 PUSH2 0xFE8 JUMP JUMPDEST PUSH1 0x40 MLOAD DUP1 SWAP2 SUB SWAP1 RETURN JUMPDEST PUSH2 0x2F3 PUSH1 0x4 DUP1 CALLDATASIZE SUB DUP2 ADD SWAP1 PUSH2 0x2EE SWAP2 SWAP1 PUSH2 0xFBB JUMP JUMPDEST PUSH2 0x93E JUMP JUMPDEST PUSH1 0x40 MLOAD PUSH2 0x304 SWAP6 SWAP5 SWAP4 SWAP3 SWAP2 SWAP1 PUSH2 0x101F JUMP JUMPDEST PUSH1 0x40 MLOAD DUP1 SWAP2 SUB SWAP1 RETURN JUMPDEST PUSH2 0x327 PUSH1 0x4 DUP1 CALLDATASIZE SUB DUP2 ADD SWAP1 PUSH2 0x322 SWAP2 SWAP1 PUSH2 0xFBB JUMP JUMPDEST PUSH2 0x9B1 JUMP JUMPDEST PUSH1 0x40 MLOAD PUSH2 0x334 SWAP2 SWAP1 PUSH2 0xE12 JUMP JUMPDEST PUSH1 0x40 MLOAD DUP1 SWAP2 SUB SWAP1 RETURN JUMPDEST PUSH2 0x345 PUSH2 0xA23 JUMP JUMPDEST PUSH1 0x40 MLOAD PUSH2 0x352 SWAP2 SWAP1 PUSH2 0xE12 JUMP JUMPDEST PUSH1 0x40 MLOAD DUP1 SWAP2 SUB SWAP1 RETURN JUMPDEST PUSH2 0x375 PUSH1 0x4 DUP1 CALLDATASIZE SUB DUP2 ADD SWAP1 PUSH2 0x370 SWAP2 SWAP1 PUSH2 0x128D JUMP JUMPDEST PUSH2 0xA29 JUMP JUMPDEST STOP JUMPDEST PUSH2 0x391 PUSH1 0x4 DUP1 CALLDATASIZE SUB DUP2 ADD SWAP1 PUSH2 0x38C SWAP2 SWAP1 PUSH2 0xE5A JUMP JUMPDEST PUSH2 0xC37 JUMP JUMPDEST PUSH1 0x40 MLOAD PUSH2 0x39E SWAP2 SWAP1 PUSH2 0xE12 JUMP JUMPDEST PUSH1 0x40 MLOAD DUP1 SWAP2 SUB SWAP1 RETURN JUMPDEST PUSH2 0x3AF PUSH2 0xC3F JUMP JUMPDEST STOP JUMPDEST PUSH1 0x3 PUSH1 0x20 MSTORE DUP2 PUSH1 0x0 MSTORE PUSH1 0x40 PUSH1 0x0 KECCAK256 PUSH1 0x20 MSTORE DUP1 PUSH1 0x0 MSTORE PUSH1 0x40 PUSH1 0x0 KECCAK256 PUSH1 0x0 SWAP2 POP SWAP2 POP POP SLOAD DUP2 JUMP JUMPDEST PUSH1 0x5 PUSH1 0x20 MSTORE DUP1 PUSH1 0x0 MSTORE PUSH1 0x40 PUSH1 0x0 KECCAK256 PUSH1 0x0 SWAP2 POP SWAP1 POP SLOAD DUP2 JUMP JUMPDEST PUSH1 0x6 PUSH1 0x20 MSTORE DUP2 PUSH1 0x0 MSTORE PUSH1 0x40 PUSH1 0x0 KECCAK256 DUP2 DUP2 SLOAD DUP2 LT PUSH2 0x40A JUMPI PUSH1 0x0 DUP1 REVERT JUMPDEST SWAP1 PUSH1 0x0 MSTORE PUSH1 0x20 PUSH1 0x0 KECCAK256 SWAP1 PUSH1 0x4 MUL ADD PUSH1 0x0 SWAP2 POP SWAP2 POP POP DUP1 PUSH1 0x0 ADD SLOAD SWAP1 DUP1 PUSH1 0x1 ADD DUP1 SLOAD PUSH2 0x434 SWAP1 PUSH2 0x132B JUMP JUMPDEST DUP1 PUSH1 0x1F ADD PUSH1 0x20 DUP1 SWAP2 DIV MUL PUSH1 0x20 ADD PUSH1 0x40 MLOAD SWAP1 DUP2 ADD PUSH1 0x40 MSTORE DUP1 SWAP3 SWAP2 SWAP1 DUP2 DUP2 MSTORE PUSH1 0x20 ADD DUP3 DUP1 SLOAD PUSH2 0x460 SWAP1 PUSH2 0x132B JUMP JUMPDEST DUP1 ISZERO PUSH2 0x4AD JUMPI DUP1 PUSH1 0x1F LT PUSH2 0x482 JUMPI PUSH2 0x100 DUP1 DUP4 SLOAD DIV MUL DUP4 MSTORE SWAP2 PUSH1 0x20 ADD SWAP2 PUSH2 0x4AD JUMP JUMPDEST DUP3 ADD SWAP2 SWAP1 PUSH1 0x0 MSTORE PUSH1 0x20 PUSH1 0x0 KECCAK256 SWAP1 JUMPDEST DUP2 SLOAD DUP2 MSTORE SWAP1 PUSH1 0x1 ADD SWAP1 PUSH1 0x20 ADD DUP1 DUP4 GT PUSH2 0x490 JUMPI DUP3 SWAP1 SUB PUSH1 0x1F AND DUP3 ADD SWAP2 JUMPDEST POP POP POP POP POP SWAP1 DUP1 PUSH1 0x2 ADD PUSH1 0x0 SWAP1 SLOAD SWAP1 PUSH2 0x100 EXP SWAP1 DIV PUSH20 0xFFFFFFFFFFFFFFFFFFFFFFFFFFFFFFFFFFFFFFFF AND SWAP1 DUP1 PUSH1 0x3 ADD SLOAD SWAP1 POP DUP5 JUMP JUMPDEST PUSH1 0x7 PUSH1 0x20 MSTORE DUP2 PUSH1 0x0 MSTORE PUSH1 0x40 PUSH1 0x0 KECCAK256 PUSH1 0x20 MSTORE DUP1 PUSH1 0x0 MSTORE PUSH1 0x40 PUSH1 0x0 KECCAK256 PUSH1 0x0 SWAP2 POP SWAP2 POP SWAP1 SLOAD SWAP1 PUSH2 0x100 EXP SWAP1 DIV PUSH1 0xFF AND DUP2 JUMP JUMPDEST PUSH1 0x2 PUSH1 0x20 MSTORE DUP1 PUSH1 0x0 MSTORE PUSH1 0x40 PUSH1 0x0 KECCAK256 PUSH1 0x0 SWAP2 POP SWAP1 POP SLOAD DUP2 JUMP JUMPDEST PUSH1 0x0 PUSH1 0x9 DUP4 DUP2 SLOAD DUP2 LT PUSH2 0x540 JUMPI PUSH2 0x53F PUSH2 0x135C JUMP JUMPDEST JUMPDEST SWAP1 PUSH1 0x0 MSTORE PUSH1 0x20 PUSH1 0x0 KECCAK256 SWAP1 PUSH1 0x6 MUL ADD SWAP1 POP PUSH1 0x7 PUSH1 0x0 DUP5 DUP2 MSTORE PUSH1 0x20 ADD SWAP1 DUP2 MSTORE PUSH1 0x20 ADD PUSH1 0x0 KECCAK256 PUSH1 0x0 CALLER PUSH20 0xFFFFFFFFFFFFFFFFFFFFFFFFFFFFFFFFFFFFFFFF AND PUSH20 0xFFFFFFFFFFFFFFFFFFFFFFFFFFFFFFFFFFFFFFFF AND DUP2 MSTORE PUSH1 0x20 ADD SWAP1 DUP2 MSTORE PUSH1 0x20 ADD PUSH1 0x0 KECCAK256 PUSH1 0x0 SWAP1 SLOAD SWAP1 PUSH2 0x100 EXP SWAP1 DIV PUSH1 0xFF AND ISZERO PUSH2 0x5EE JUMPI PUSH1 0x40 MLOAD PUSH32 0x8C379A000000000000000000000000000000000000000000000000000000000 DUP2 MSTORE PUSH1 0x4 ADD PUSH2 0x5E5 SWAP1 PUSH2 0x13D7 JUMP JUMPDEST PUSH1 0x40 MLOAD DUP1 SWAP2 SUB SWAP1 REVERT JUMPDEST DUP1 PUSH1 0x5 ADD PUSH1 0x0 SWAP1 SLOAD SWAP1 PUSH2 0x100 EXP SWAP1 DIV PUSH1 0xFF AND PUSH2 0x63F JUMPI PUSH1 0x40 MLOAD PUSH32 0x8C379A000000000000000000000000000000000000000000000000000000000 DUP2 MSTORE PUSH1 0x4 ADD PUSH2 0x636 SWAP1 PUSH2 0x1443 JUMP JUMPDEST PUSH1 0x40 MLOAD DUP1 SWAP2 SUB SWAP1 REVERT JUMPDEST DUP1 PUSH1 0x2 ADD SLOAD TIMESTAMP LT ISZERO DUP1 ISZERO PUSH2 0x657 JUMPI POP DUP1 PUSH1 0x3 ADD SLOAD TIMESTAMP GT ISZERO JUMPDEST PUSH2 0x696 JUMPI PUSH1 0x40 MLOAD PUSH32 0x8C379A000000000000000000000000000000000000000000000000000000000 DUP2 MSTORE PUSH1 0x4 ADD PUSH2 0x68D SWAP1 PUSH2 0x14AF JUMP JUMPDEST PUSH1 0x40 MLOAD DUP1 SWAP2 SUB SWAP1 REVERT JUMPDEST PUSH1 0x0 DUP3 LT ISZERO DUP1 ISZERO PUSH2 0x6AD JUMPI POP DUP1 PUSH1 0x4 ADD DUP1 SLOAD SWAP1 POP DUP3 LT JUMPDEST PUSH2 0x6EC JUMPI PUSH1 0x40 MLOAD PUSH32 0x8C379A000000000000000000000000000000000000000000000000000000000 DUP2 MSTORE PUSH1 0x4 ADD PUSH2 0x6E3 SWAP1 PUSH2 0x151B JUMP JUMPDEST PUSH1 0x40 MLOAD DUP1 SWAP2 SUB SWAP1 REVERT JUMPDEST PUSH1 0x1 PUSH1 0x7 PUSH1 0x0 DUP6 DUP2 MSTORE PUSH1 0x20 ADD SWAP1 DUP2 MSTORE PUSH1 0x20 ADD PUSH1 0x0 KECCAK256 PUSH1 0x0 CALLER PUSH20 0xFFFFFFFFFFFFFFFFFFFFFFFFFFFFFFFFFFFFFFFF AND PUSH20 0xFFFFFFFFFFFFFFFFFFFFFFFFFFFFFFFFFFFFFFFF AND DUP2 MSTORE PUSH1 0x20 ADD SWAP1 DUP2 MSTORE PUSH1 0x20 ADD PUSH1 0x0 KECCAK256 PUSH1 0x0 PUSH2 0x100 EXP DUP2 SLOAD DUP2 PUSH1 0xFF MUL NOT AND SWAP1 DUP4 ISZERO ISZERO MUL OR SWAP1 SSTORE POP PUSH1 0x0 PUSH1 0x40 MLOAD DUP1 PUSH1 0x60 ADD PUSH1 0x40 MSTORE DUP1 DUP6 DUP2 MSTORE PUSH1 0x20 ADD CALLER PUSH20 0xFFFFFFFFFFFFFFFFFFFFFFFFFFFFFFFFFFFFFFFF AND DUP2 MSTORE PUSH1 0x20 ADD DUP5 DUP2 MSTORE POP SWAP1 POP DUP1 PUSH1 0x8 PUSH1 0x0 DUP7 DUP2 MSTORE PUSH1 0x20 ADD SWAP1 DUP2 MSTORE PUSH1 0x20 ADD PUSH1 0x0 KECCAK256 PUSH1 0x0 CALLER PUSH20 0xFFFFFFFFFFFFFFFFFFFFFFFFFFFFFFFFFFFFFFFF AND PUSH20 0xFFFFFFFFFFFFFFFFFFFFFFFFFFFFFFFFFFFFFFFF AND DUP2 MSTORE PUSH1 0x20 ADD SWAP1 DUP2 MSTORE PUSH1 0x20 ADD PUSH1 0x0 KECCAK256 PUSH1 0x0 DUP3 ADD MLOAD DUP2 PUSH1 0x0 ADD SSTORE PUSH1 0x20 DUP3 ADD MLOAD DUP2 PUSH1 0x1 ADD PUSH1 0x0 PUSH2 0x100 EXP DUP2 SLOAD DUP2 PUSH20 0xFFFFFFFFFFFFFFFFFFFFFFFFFFFFFFFFFFFFFFFF MUL NOT AND SWAP1 DUP4 PUSH20 0xFFFFFFFFFFFFFFFFFFFFFFFFFFFFFFFFFFFFFFFF AND MUL OR SWAP1 SSTORE POP PUSH1 0x40 DUP3 ADD MLOAD DUP2 PUSH1 0x2 ADD SSTORE SWAP1 POP POP CALLER PUSH20 0xFFFFFFFFFFFFFFFFFFFFFFFFFFFFFFFFFFFFFFFF AND DUP5 PUSH32 0xE7EE74CA1F4BB1B82B14F87794C45B3E59C39E372B862FB97A6316B43355B69E DUP6 PUSH1 0x40 MLOAD PUSH2 0x880 SWAP2 SWAP1 PUSH2 0xE12 JUMP JUMPDEST PUSH1 0x40 MLOAD DUP1 SWAP2 SUB SWAP1 LOG3 POP POP POP POP JUMP JUMPDEST PUSH1 0x0 PUSH1 0x6 PUSH1 0x0 DUP4 DUP2 MSTORE PUSH1 0x20 ADD SWAP1 DUP2 MSTORE PUSH1 0x20 ADD PUSH1 0x0 KECCAK256 DUP1 SLOAD SWAP1 POP SWAP1 POP SWAP2 SWAP1 POP JUMP JUMPDEST JUMP JUMPDEST PUSH1 0x4 PUSH1 0x20 MSTORE DUP2 PUSH1 0x0 MSTORE PUSH1 0x40 PUSH1 0x0 KECCAK256 DUP2 DUP2 SLOAD DUP2 LT PUSH2 0x8CC JUMPI PUSH1 0x0 DUP1 REVERT JUMPDEST SWAP1 PUSH1 0x0 MSTORE PUSH1 0x20 PUSH1 0x0 KECCAK256 ADD PUSH1 0x0 SWAP2 POP SWAP2 POP POP SLOAD DUP2 JUMP JUMPDEST PUSH1 0x0 SLOAD DUP2 JUMP JUMPDEST PUSH1 0x8 PUSH1 0x20 MSTORE DUP2 PUSH1 0x0 MSTORE PUSH1 0x40 PUSH1 0x0 KECCAK256 PUSH1 0x20 MSTORE DUP1 PUSH1 0x0 MSTORE PUSH1 0x40 PUSH1 0x0 KECCAK256 PUSH1 0x0 SWAP2 POP SWAP2 POP POP DUP1 PUSH1 0x0 ADD SLOAD SWAP1 DUP1 PUSH1 0x1 ADD PUSH1 0x0 SWAP1 SLOAD SWAP1 PUSH2 0x100 EXP SWAP1 DIV PUSH20 0xFFFFFFFFFFFFFFFFFFFFFFFFFFFFFFFFFFFFFFFF AND SWAP1 DUP1 PUSH1 0x2 ADD SLOAD SWAP1 POP DUP4 JUMP JUMPDEST PUSH1 0x9 DUP2 DUP2 SLOAD DUP2 LT PUSH2 0x94E JUMPI PUSH1 0x0 DUP1 REVERT JUMPDEST SWAP1 PUSH1 0x0 MSTORE PUSH1 0x20 PUSH1 0x0 KECCAK256 SWAP1 PUSH1 0x6 MUL ADD PUSH1 0x0 SWAP2 POP SWAP1 POP DUP1 PUSH1 0x0 ADD SLOAD SWAP1 DUP1 PUSH1 0x1 ADD PUSH1 0x0 SWAP1 SLOAD SWAP1 PUSH2 0x100 EXP SWAP1 DIV PUSH20 0xFFFFFFFFFFFFFFFFFFFFFFFFFFFFFFFFFFFFFFFF AND SWAP1 DUP1 PUSH1 0x2 ADD SLOAD SWAP1 DUP1 PUSH1 0x3 ADD SLOAD SWAP1 DUP1 PUSH1 0x5 ADD PUSH1 0x0 SWAP1 SLOAD SWAP1 PUSH2 0x100 EXP SWAP1 DIV PUSH1 0xFF AND SWAP1 POP DUP6 JUMP JUMPDEST PUSH1 0x0 PUSH1 0x9 DUP3 DUP2 SLOAD DUP2 LT PUSH2 0x9C7 JUMPI PUSH2 0x9C6 PUSH2 0x135C JUMP JUMPDEST JUMPDEST SWAP1 PUSH1 0x0 MSTORE PUSH1 0x20 PUSH1 0x0 KECCAK256 SWAP1 PUSH1 0x6 MUL ADD PUSH1 0x3 ADD SLOAD TIMESTAMP GT PUSH2 0xA1A JUMPI PUSH1 0x40 MLOAD PUSH32 0x8C379A000000000000000000000000000000000000000000000000000000000 DUP2 MSTORE PUSH1 0x4 ADD PUSH2 0xA11 SWAP1 PUSH2 0x1587 JUMP JUMPDEST PUSH1 0x40 MLOAD DUP1 SWAP2 SUB SWAP1 REVERT JUMPDEST PUSH1 0x0 SWAP1 POP SWAP2 SWAP1 POP JUMP JUMPDEST PUSH1 0x1 SLOAD DUP2 JUMP JUMPDEST DUP3 DUP3 GT PUSH2 0xA6B JUMPI PUSH1 0x40 MLOAD PUSH32 0x8C379A000000000000000000000000000000000000000000000000000000000 DUP2 MSTORE PUSH1 0x4 ADD PUSH2 0xA62 SWAP1 PUSH2 0x15F3 JUMP JUMPDEST PUSH1 0x40 MLOAD DUP1 SWAP2 SUB SWAP1 REVERT JUMPDEST PUSH1 0x1 DUP2 MLOAD GT PUSH2 0xAAF JUMPI PUSH1 0x40 MLOAD PUSH32 0x8C379A000000000000000000000000000000000000000000000000000000000 DUP2 MSTORE PUSH1 0x4 ADD PUSH2 0xAA6 SWAP1 PUSH2 0x165F JUMP JUMPDEST PUSH1 0x40 MLOAD DUP1 SWAP2 SUB SWAP1 REVERT JUMPDEST PUSH1 0x0 DUP1 DUP2 SLOAD DUP1 SWAP3 SWAP2 SWAP1 PUSH2 0xAC1 SWAP1 PUSH2 0x16AE JUMP JUMPDEST SWAP2 SWAP1 POP SSTORE POP PUSH1 0x0 PUSH1 0x40 MLOAD DUP1 PUSH1 0xC0 ADD PUSH1 0x40 MSTORE DUP1 PUSH1 0x0 SLOAD DUP2 MSTORE PUSH1 0x20 ADD CALLER PUSH20 0xFFFFFFFFFFFFFFFFFFFFFFFFFFFFFFFFFFFFFFFF AND DUP2 MSTORE PUSH1 0x20 ADD DUP6 DUP2 MSTORE PUSH1 0x20 ADD DUP5 DUP2 MSTORE PUSH1 0x20 ADD DUP4 DUP2 MSTORE PUSH1 0x20 ADD PUSH1 0x1 ISZERO ISZERO DUP2 MSTORE POP SWAP1 POP DUP1 PUSH1 0x9 PUSH1 0x0 SLOAD DUP2 SLOAD DUP2 LT PUSH2 0xB29 JUMPI PUSH2 0xB28 PUSH2 0x135C JUMP JUMPDEST JUMPDEST SWAP1 PUSH1 0x0 MSTORE PUSH1 0x20 PUSH1 0x0 KECCAK256 SWAP1 PUSH1 0x6 MUL ADD PUSH1 0x0 DUP3 ADD MLOAD DUP2 PUSH1 0x0 ADD SSTORE PUSH1 0x20 DUP3 ADD MLOAD DUP2 PUSH1 0x1 ADD PUSH1 0x0 PUSH2 0x100 EXP DUP2 SLOAD DUP2 PUSH20 0xFFFFFFFFFFFFFFFFFFFFFFFFFFFFFFFFFFFFFFFF MUL NOT AND SWAP1 DUP4 PUSH20 0xFFFFFFFFFFFFFFFFFFFFFFFFFFFFFFFFFFFFFFFF AND MUL OR SWAP1 SSTORE POP PUSH1 0x40 DUP3 ADD MLOAD DUP2 PUSH1 0x2 ADD SSTORE PUSH1 0x60 DUP3 ADD MLOAD DUP2 PUSH1 0x3 ADD SSTORE PUSH1 0x80 DUP3 ADD MLOAD DUP2 PUSH1 0x4 ADD SWAP1 DUP1 MLOAD SWAP1 PUSH1 0x20 ADD SWAP1 PUSH2 0xBB8 SWAP3 SWAP2 SWAP1 PUSH2 0xC41 JUMP JUMPDEST POP PUSH1 0xA0 DUP3 ADD MLOAD DUP2 PUSH1 0x5 ADD PUSH1 0x0 PUSH2 0x100 EXP DUP2 SLOAD DUP2 PUSH1 0xFF MUL NOT AND SWAP1 DUP4 ISZERO ISZERO MUL OR SWAP1 SSTORE POP SWAP1 POP POP CALLER PUSH20 0xFFFFFFFFFFFFFFFFFFFFFFFFFFFFFFFFFFFFFFFF AND PUSH1 0x0 SLOAD PUSH32 0x58D87E181E9AC91F8CCDA34CAAF4C15DB2A9FC345A86EA48E378D6E4359DFDB9 DUP7 DUP7 DUP7 PUSH1 0x40 MLOAD PUSH2 0xC29 SWAP4 SWAP3 SWAP2 SWAP1 PUSH2 0x1802 JUMP JUMPDEST PUSH1 0x40 MLOAD DUP1 SWAP2 SUB SWAP1 LOG3 POP POP POP POP JUMP JUMPDEST PUSH1 0x0 SWAP3 SWAP2 POP POP JUMP JUMPDEST JUMP JUMPDEST DUP3 DUP1 SLOAD DUP3 DUP3 SSTORE SWAP1 PUSH1 0x0 MSTORE PUSH1 0x20 PUSH1 0x0 KECCAK256 SWAP1 DUP2 ADD SWAP3 DUP3 ISZERO PUSH2 0xC89 JUMPI SWAP2 PUSH1 0x20 MUL DUP3 ADD JUMPDEST DUP3 DUP2 GT ISZERO PUSH2 0xC88 JUMPI DUP3 MLOAD DUP3 SWAP1 DUP2 PUSH2 0xC78 SWAP2 SWAP1 PUSH2 0x19EC JUMP JUMPDEST POP SWAP2 PUSH1 0x20 ADD SWAP2 SWAP1 PUSH1 0x1 ADD SWAP1 PUSH2 0xC61 JUMP JUMPDEST JUMPDEST POP SWAP1 POP PUSH2 0xC96 SWAP2 SWAP1 PUSH2 0xC9A JUMP JUMPDEST POP SWAP1 JUMP JUMPDEST JUMPDEST DUP1 DUP3 GT ISZERO PUSH2 0xCBA JUMPI PUSH1 0x0 DUP2 DUP2 PUSH2 0xCB1 SWAP2 SWAP1 PUSH2 0xCBE JUMP JUMPDEST POP PUSH1 0x1 ADD PUSH2 0xC9B JUMP JUMPDEST POP SWAP1 JUMP JUMPDEST POP DUP1 SLOAD PUSH2 0xCCA SWAP1 PUSH2 0x132B JUMP JUMPDEST PUSH1 0x0 DUP3 SSTORE DUP1 PUSH1 0x1F LT PUSH2 0xCDC JUMPI POP PUSH2 0xCFB JUMP JUMPDEST PUSH1 0x1F ADD PUSH1 0x20 SWAP1 DIV SWAP1 PUSH1 0x0 MSTORE PUSH1 0x20 PUSH1 0x0 KECCAK256 SWAP1 DUP2 ADD SWAP1 PUSH2 0xCFA SWAP2 SWAP1 PUSH2 0xCFE JUMP JUMPDEST JUMPDEST POP JUMP JUMPDEST JUMPDEST DUP1 DUP3 GT ISZERO PUSH2 0xD17 JUMPI PUSH1 0x0 DUP2 PUSH1 0x0 SWAP1 SSTORE POP PUSH1 0x1 ADD PUSH2 0xCFF JUMP JUMPDEST POP SWAP1 JUMP JUMPDEST PUSH1 0x0 PUSH1 0x40 MLOAD SWAP1 POP SWAP1 JUMP JUMPDEST PUSH1 0x0 DUP1 REVERT JUMPDEST PUSH1 0x0 DUP1 REVERT JUMPDEST PUSH1 0x0 DUP2 SWAP1 POP SWAP2 SWAP1 POP JUMP JUMPDEST PUSH2 0xD42 DUP2 PUSH2 0xD2F JUMP JUMPDEST DUP2 EQ PUSH2 0xD4D JUMPI PUSH1 0x0 DUP1 REVERT JUMPDEST POP JUMP JUMPDEST PUSH1 0x0 DUP2 CALLDATALOAD SWAP1 POP PUSH2 0xD5F DUP2 PUSH2 0xD39 JUMP JUMPDEST SWAP3 SWAP2 POP POP JUMP JUMPDEST PUSH1 0x0 PUSH20 0xFFFFFFFFFFFFFFFFFFFFFFFFFFFFFFFFFFFFFFFF DUP3 AND SWAP1 POP SWAP2 SWAP1 POP JUMP JUMPDEST PUSH1 0x0 PUSH2 0xD90 DUP3 PUSH2 0xD65 JUMP JUMPDEST SWAP1 POP SWAP2 SWAP1 POP JUMP JUMPDEST PUSH2 0xDA0 DUP2 PUSH2 0xD85 JUMP JUMPDEST DUP2 EQ PUSH2 0xDAB JUMPI PUSH1 0x0 DUP1 REVERT JUMPDEST POP JUMP JUMPDEST PUSH1 0x0 DUP2 CALLDATALOAD SWAP1 POP PUSH2 0xDBD DUP2 PUSH2 0xD97 JUMP JUMPDEST SWAP3 SWAP2 POP POP JUMP JUMPDEST PUSH1 0x0 DUP1 PUSH1 0x40 DUP4 DUP6 SUB SLT ISZERO PUSH2 0xDDA JUMPI PUSH2 0xDD9 PUSH2 0xD25 JUMP JUMPDEST JUMPDEST PUSH1 0x0 PUSH2 0xDE8 DUP6 DUP3 DUP7 ADD PUSH2 0xD50 JUMP JUMPDEST SWAP3 POP POP PUSH1 0x20 PUSH2 0xDF9 DUP6 DUP3 DUP7 ADD PUSH2 0xDAE JUMP JUMPDEST SWAP2 POP POP SWAP3 POP SWAP3 SWAP1 POP JUMP JUMPDEST PUSH2 0xE0C DUP2 PUSH2 0xD2F JUMP JUMPDEST DUP3 MSTORE POP POP JUMP JUMPDEST PUSH1 0x0 PUSH1 0x20 DUP3 ADD SWAP1 POP PUSH2 0xE27 PUSH1 0x0 DUP4 ADD DUP5 PUSH2 0xE03 JUMP JUMPDEST SWAP3 SWAP2 POP POP JUMP JUMPDEST PUSH1 0x0 PUSH1 0x20 DUP3 DUP5 SUB SLT ISZERO PUSH2 0xE43 JUMPI PUSH2 0xE42 PUSH2 0xD25 JUMP JUMPDEST JUMPDEST PUSH1 0x0 PUSH2 0xE51 DUP5 DUP3 DUP6 ADD PUSH2 0xDAE JUMP JUMPDEST SWAP2 POP POP SWAP3 SWAP2 POP POP JUMP JUMPDEST PUSH1 0x0 DUP1 PUSH1 0x40 DUP4 DUP6 SUB SLT ISZERO PUSH2 0xE71 JUMPI PUSH2 0xE70 PUSH2 0xD25 JUMP JUMPDEST JUMPDEST PUSH1 0x0 PUSH2 0xE7F DUP6 DUP3 DUP7 ADD PUSH2 0xD50 JUMP JUMPDEST SWAP3 POP POP PUSH1 0x20 PUSH2 0xE90 DUP6 DUP3 DUP7 ADD PUSH2 0xD50 JUMP JUMPDEST SWAP2 POP POP SWAP3 POP SWAP3 SWAP1 POP JUMP JUMPDEST PUSH1 0x0 DUP2 MLOAD SWAP1 POP SWAP2 SWAP1 POP JUMP JUMPDEST PUSH1 0x0 DUP3 DUP3 MSTORE PUSH1 0x20 DUP3 ADD SWAP1 POP SWAP3 SWAP2 POP POP JUMP JUMPDEST PUSH1 0x0 JUMPDEST DUP4 DUP2 LT ISZERO PUSH2 0xED4 JUMPI DUP1 DUP3 ADD MLOAD DUP2 DUP5 ADD MSTORE PUSH1 0x20 DUP2 ADD SWAP1 POP PUSH2 0xEB9 JUMP JUMPDEST PUSH1 0x0 DUP5 DUP5 ADD MSTORE POP POP POP POP JUMP JUMPDEST PUSH1 0x0 PUSH1 0x1F NOT PUSH1 0x1F DUP4 ADD AND SWAP1 POP SWAP2 SWAP1 POP JUMP JUMPDEST PUSH1 0x0 PUSH2 0xEFC DUP3 PUSH2 0xE9A JUMP JUMPDEST PUSH2 0xF06 DUP2 DUP6 PUSH2 0xEA5 JUMP JUMPDEST SWAP4 POP PUSH2 0xF16 DUP2 DUP6 PUSH1 0x20 DUP7 ADD PUSH2 0xEB6 JUMP JUMPDEST PUSH2 0xF1F DUP2 PUSH2 0xEE0 JUMP JUMPDEST DUP5 ADD SWAP2 POP POP SWAP3 SWAP2 POP POP JUMP JUMPDEST PUSH2 0xF33 DUP2 PUSH2 0xD85 JUMP JUMPDEST DUP3 MSTORE POP POP JUMP JUMPDEST PUSH1 0x0 PUSH1 0x80 DUP3 ADD SWAP1 POP PUSH2 0xF4E PUSH1 0x0 DUP4 ADD DUP8 PUSH2 0xE03 JUMP JUMPDEST DUP2 DUP2 SUB PUSH1 0x20 DUP4 ADD MSTORE PUSH2 0xF60 DUP2 DUP7 PUSH2 0xEF1 JUMP JUMPDEST SWAP1 POP PUSH2 0xF6F PUSH1 0x40 DUP4 ADD DUP6 PUSH2 0xF2A JUMP JUMPDEST PUSH2 0xF7C PUSH1 0x60 DUP4 ADD DUP5 PUSH2 0xE03 JUMP JUMPDEST SWAP6 SWAP5 POP POP POP POP POP JUMP JUMPDEST PUSH1 0x0 DUP2 ISZERO ISZERO SWAP1 POP SWAP2 SWAP1 POP JUMP JUMPDEST PUSH2 0xF9A DUP2 PUSH2 0xF85 JUMP JUMPDEST DUP3 MSTORE POP POP JUMP JUMPDEST PUSH1 0x0 PUSH1 0x20 DUP3 ADD SWAP1 POP PUSH2 0xFB5 PUSH1 0x0 DUP4 ADD DUP5 PUSH2 0xF91 JUMP JUMPDEST SWAP3 SWAP2 POP POP JUMP JUMPDEST PUSH1 0x0 PUSH1 0x20 DUP3 DUP5 SUB SLT ISZERO PUSH2 0xFD1 JUMPI PUSH2 0xFD0 PUSH2 0xD25 JUMP JUMPDEST JUMPDEST PUSH1 0x0 PUSH2 0xFDF DUP5 DUP3 DUP6 ADD PUSH2 0xD50 JUMP JUMPDEST SWAP2 POP POP SWAP3 SWAP2 POP POP JUMP JUMPDEST PUSH1 0x0 PUSH1 0x60 DUP3 ADD SWAP1 POP PUSH2 0xFFD PUSH1 0x0 DUP4 ADD DUP7 PUSH2 0xE03 JUMP JUMPDEST PUSH2 0x100A PUSH1 0x20 DUP4 ADD DUP6 PUSH2 0xF2A JUMP JUMPDEST PUSH2 0x1017 PUSH1 0x40 DUP4 ADD DUP5 PUSH2 0xE03 JUMP JUMPDEST SWAP5 SWAP4 POP POP POP POP JUMP JUMPDEST PUSH1 0x0 PUSH1 0xA0 DUP3 ADD SWAP1 POP PUSH2 0x1034 PUSH1 0x0 DUP4 ADD DUP9 PUSH2 0xE03 JUMP JUMPDEST PUSH2 0x1041 PUSH1 0x20 DUP4 ADD DUP8 PUSH2 0xF2A JUMP JUMPDEST PUSH2 0x104E PUSH1 0x40 DUP4 ADD DUP7 PUSH2 0xE03 JUMP JUMPDEST PUSH2 0x105B PUSH1 0x60 DUP4 ADD DUP6 PUSH2 0xE03 JUMP JUMPDEST PUSH2 0x1068 PUSH1 0x80 DUP4 ADD DUP5 PUSH2 0xF91 JUMP JUMPDEST SWAP7 SWAP6 POP POP POP POP POP POP JUMP JUMPDEST PUSH1 0x0 DUP1 REVERT JUMPDEST PUSH32 0x4E487B7100000000000000000000000000000000000000000000000000000000 PUSH1 0x0 MSTORE PUSH1 0x41 PUSH1 0x4 MSTORE PUSH1 0x24 PUSH1 0x0 REVERT JUMPDEST PUSH2 0x10AF DUP3 PUSH2 0xEE0 JUMP JUMPDEST DUP2 ADD DUP2 DUP2 LT PUSH8 0xFFFFFFFFFFFFFFFF DUP3 GT OR ISZERO PUSH2 0x10CE JUMPI PUSH2 0x10CD PUSH2 0x1077 JUMP JUMPDEST JUMPDEST DUP1 PUSH1 0x40 MSTORE POP POP POP JUMP JUMPDEST PUSH1 0x0 PUSH2 0x10E1 PUSH2 0xD1B JUMP JUMPDEST SWAP1 POP PUSH2 0x10ED DUP3 DUP3 PUSH2 0x10A6 JUMP JUMPDEST SWAP2 SWAP1 POP JUMP JUMPDEST PUSH1 0x0 PUSH8 0xFFFFFFFFFFFFFFFF DUP3 GT ISZERO PUSH2 0x110D JUMPI PUSH2 0x110C PUSH2 0x1077 JUMP JUMPDEST JUMPDEST PUSH1 0x20 DUP3 MUL SWAP1 POP PUSH1 0x20 DUP2 ADD SWAP1 POP SWAP2 SWAP1 POP JUMP JUMPDEST PUSH1 0x0 DUP1 REVERT JUMPDEST PUSH1 0x0 DUP1 REVERT JUMPDEST PUSH1 0x0 PUSH8 0xFFFFFFFFFFFFFFFF DUP3 GT ISZERO PUSH2 0x1143 JUMPI PUSH2 0x1142 PUSH2 0x1077 JUMP JUMPDEST JUMPDEST PUSH2 0x114C DUP3 PUSH2 0xEE0 JUMP JUMPDEST SWAP1 POP PUSH1 0x20 DUP2 ADD SWAP1 POP SWAP2 SWAP1 POP JUMP JUMPDEST DUP3 DUP2 DUP4 CALLDATACOPY PUSH1 0x0 DUP4 DUP4 ADD MSTORE POP POP POP JUMP JUMPDEST PUSH1 0x0 PUSH2 0x117B PUSH2 0x1176 DUP5 PUSH2 0x1128 JUMP JUMPDEST PUSH2 0x10D7 JUMP JUMPDEST SWAP1 POP DUP3 DUP2 MSTORE PUSH1 0x20 DUP2 ADD DUP5 DUP5 DUP5 ADD GT ISZERO PUSH2 0x1197 JUMPI PUSH2 0x1196 PUSH2 0x1123 JUMP JUMPDEST JUMPDEST PUSH2 0x11A2 DUP5 DUP3 DUP6 PUSH2 0x1159 JUMP JUMPDEST POP SWAP4 SWAP3 POP POP POP JUMP JUMPDEST PUSH1 0x0 DUP3 PUSH1 0x1F DUP4 ADD SLT PUSH2 0x11BF JUMPI PUSH2 0x11BE PUSH2 0x1072 JUMP JUMPDEST JUMPDEST DUP2 CALLDATALOAD PUSH2 0x11CF DUP5 DUP3 PUSH1 0x20 DUP7 ADD PUSH2 0x1168 JUMP JUMPDEST SWAP2 POP POP SWAP3 SWAP2 POP POP JUMP JUMPDEST PUSH1 0x0 PUSH2 0x11EB PUSH2 0x11E6 DUP5 PUSH2 0x10F2 JUMP JUMPDEST PUSH2 0x10D7 JUMP JUMPDEST SWAP1 POP DUP1 DUP4 DUP3 MSTORE PUSH1 0x20 DUP3 ADD SWAP1 POP PUSH1 0x20 DUP5 MUL DUP4 ADD DUP6 DUP2 GT ISZERO PUSH2 0x120E JUMPI PUSH2 0x120D PUSH2 0x111E JUMP JUMPDEST JUMPDEST DUP4 JUMPDEST DUP2 DUP2 LT ISZERO PUSH2 0x1255 JUMPI DUP1 CALLDATALOAD PUSH8 0xFFFFFFFFFFFFFFFF DUP2 GT ISZERO PUSH2 0x1233 JUMPI PUSH2 0x1232 PUSH2 0x1072 JUMP JUMPDEST JUMPDEST DUP1 DUP7 ADD PUSH2 0x1240 DUP10 DUP3 PUSH2 0x11AA JUMP JUMPDEST DUP6 MSTORE PUSH1 0x20 DUP6 ADD SWAP5 POP POP POP PUSH1 0x20 DUP2 ADD SWAP1 POP PUSH2 0x1210 JUMP JUMPDEST POP POP POP SWAP4 SWAP3 POP POP POP JUMP JUMPDEST PUSH1 0x0 DUP3 PUSH1 0x1F DUP4 ADD SLT PUSH2 0x1274 JUMPI PUSH2 0x1273 PUSH2 0x1072 JUMP JUMPDEST JUMPDEST DUP2 CALLDATALOAD PUSH2 0x1284 DUP5 DUP3 PUSH1 0x20 DUP7 ADD PUSH2 0x11D8 JUMP JUMPDEST SWAP2 POP POP SWAP3 SWAP2 POP POP JUMP JUMPDEST PUSH1 0x0 DUP1 PUSH1 0x0 PUSH1 0x60 DUP5 DUP7 SUB SLT ISZERO PUSH2 0x12A6 JUMPI PUSH2 0x12A5 PUSH2 0xD25 JUMP JUMPDEST JUMPDEST PUSH1 0x0 PUSH2 0x12B4 DUP7 DUP3 DUP8 ADD PUSH2 0xD50 JUMP JUMPDEST SWAP4 POP POP PUSH1 0x20 PUSH2 0x12C5 DUP7 DUP3 DUP8 ADD PUSH2 0xD50 JUMP JUMPDEST SWAP3 POP POP PUSH1 0x40 DUP5 ADD CALLDATALOAD PUSH8 0xFFFFFFFFFFFFFFFF DUP2 GT ISZERO PUSH2 0x12E6 JUMPI PUSH2 0x12E5 PUSH2 0xD2A JUMP JUMPDEST JUMPDEST PUSH2 0x12F2 DUP7 DUP3 DUP8 ADD PUSH2 0x125F JUMP JUMPDEST SWAP2 POP POP SWAP3 POP SWAP3 POP SWAP3 JUMP JUMPDEST PUSH32 0x4E487B7100000000000000000000000000000000000000000000000000000000 PUSH1 0x0 MSTORE PUSH1 0x22 PUSH1 0x4 MSTORE PUSH1 0x24 PUSH1 0x0 REVERT JUMPDEST PUSH1 0x0 PUSH1 0x2 DUP3 DIV SWAP1 POP PUSH1 0x1 DUP3 AND DUP1 PUSH2 0x1343 JUMPI PUSH1 0x7F DUP3 AND SWAP2 POP JUMPDEST PUSH1 0x20 DUP3 LT DUP2 SUB PUSH2 0x1356 JUMPI PUSH2 0x1355 PUSH2 0x12FC JUMP JUMPDEST JUMPDEST POP SWAP2 SWAP1 POP JUMP JUMPDEST PUSH32 0x4E487B7100000000000000000000000000000000000000000000000000000000 PUSH1 0x0 MSTORE PUSH1 0x32 PUSH1 0x4 MSTORE PUSH1 0x24 PUSH1 0x0 REVERT JUMPDEST PUSH32 0x416C726561647920766F74656400000000000000000000000000000000000000 PUSH1 0x0 DUP3 ADD MSTORE POP JUMP JUMPDEST PUSH1 0x0 PUSH2 0x13C1 PUSH1 0xD DUP4 PUSH2 0xEA5 JUMP JUMPDEST SWAP2 POP PUSH2 0x13CC DUP3 PUSH2 0x138B JUMP JUMPDEST PUSH1 0x20 DUP3 ADD SWAP1 POP SWAP2 SWAP1 POP JUMP JUMPDEST PUSH1 0x0 PUSH1 0x20 DUP3 ADD SWAP1 POP DUP2 DUP2 SUB PUSH1 0x0 DUP4 ADD MSTORE PUSH2 0x13F0 DUP2 PUSH2 0x13B4 JUMP JUMPDEST SWAP1 POP SWAP2 SWAP1 POP JUMP JUMPDEST PUSH32 0x506F6C6C20697320636C6F736564000000000000000000000000000000000000 PUSH1 0x0 DUP3 ADD MSTORE POP JUMP JUMPDEST PUSH1 0x0 PUSH2 0x142D PUSH1 0xE DUP4 PUSH2 0xEA5 JUMP JUMPDEST SWAP2 POP PUSH2 0x1438 DUP3 PUSH2 0x13F7 JUMP JUMPDEST PUSH1 0x20 DUP3 ADD SWAP1 POP SWAP2 SWAP1 POP JUMP JUMPDEST PUSH1 0x0 PUSH1 0x20 DUP3 ADD SWAP1 POP DUP2 DUP2 SUB PUSH1 0x0 DUP4 ADD MSTORE PUSH2 0x145C DUP2 PUSH2 0x1420 JUMP JUMPDEST SWAP1 POP SWAP2 SWAP1 POP JUMP JUMPDEST PUSH32 0x506F6C6C206973206E6F74206163746976650000000000000000000000000000 PUSH1 0x0 DUP3 ADD MSTORE POP JUMP JUMPDEST PUSH1 0x0 PUSH2 0x1499 PUSH1 0x12 DUP4 PUSH2 0xEA5 JUMP JUMPDEST SWAP2 POP PUSH2 0x14A4 DUP3 PUSH2 0x1463 JUMP JUMPDEST PUSH1 0x20 DUP3 ADD SWAP1 POP SWAP2 SWAP1 POP JUMP JUMPDEST PUSH1 0x0 PUSH1 0x20 DUP3 ADD SWAP1 POP DUP2 DUP2 SUB PUSH1 0x0 DUP4 ADD MSTORE PUSH2 0x14C8 DUP2 PUSH2 0x148C JUMP JUMPDEST SWAP1 POP SWAP2 SWAP1 POP JUMP JUMPDEST PUSH32 0x496E76616C69642063686F696365000000000000000000000000000000000000 PUSH1 0x0 DUP3 ADD MSTORE POP JUMP JUMPDEST PUSH1 0x0 PUSH2 0x1505 PUSH1 0xE DUP4 PUSH2 0xEA5 JUMP JUMPDEST SWAP2 POP PUSH2 0x1510 DUP3 PUSH2 0x14CF JUMP JUMPDEST PUSH1 0x20 DUP3 ADD SWAP1 POP SWAP2 SWAP1 POP JUMP JUMPDEST PUSH1 0x0 PUSH1 0x20 DUP3 ADD SWAP1 POP DUP2 DUP2 SUB PUSH1 0x0 DUP4 ADD MSTORE PUSH2 0x1534 DUP2 PUSH2 0x14F8 JUMP JUMPDEST SWAP1 POP SWAP2 SWAP1 POP JUMP JUMPDEST PUSH32 0x506F6C6C20686173206E6F7420656E6465642079657400000000000000000000 PUSH1 0x0 DUP3 ADD MSTORE POP JUMP JUMPDEST PUSH1 0x0 PUSH2 0x1571 PUSH1 0x16 DUP4 PUSH2 0xEA5 JUMP JUMPDEST SWAP2 POP PUSH2 0x157C DUP3 PUSH2 0x153B JUMP JUMPDEST PUSH1 0x20 DUP3 ADD SWAP1 POP SWAP2 SWAP1 POP JUMP JUMPDEST PUSH1 0x0 PUSH1 0x20 DUP3 ADD SWAP1 POP DUP2 DUP2 SUB PUSH1 0x0 DUP4 ADD MSTORE PUSH2 0x15A0 DUP2 PUSH2 0x1564 JUMP JUMPDEST SWAP1 POP SWAP2 SWAP1 POP JUMP JUMPDEST PUSH32 0x496E76616C696420706F6C6C20656E642074696D650000000000000000000000 PUSH1 0x0 DUP3 ADD MSTORE POP JUMP JUMPDEST PUSH1 0x0 PUSH2 0x15DD PUSH1 0x15 DUP4 PUSH2 0xEA5 JUMP JUMPDEST SWAP2 POP PUSH2 0x15E8 DUP3 PUSH2 0x15A7 JUMP JUMPDEST PUSH1 0x20 DUP3 ADD SWAP1 POP SWAP2 SWAP1 POP JUMP JUMPDEST PUSH1 0x0 PUSH1 0x20 DUP3 ADD SWAP1 POP DUP2 DUP2 SUB PUSH1 0x0 DUP4 ADD MSTORE PUSH2 0x160C DUP2 PUSH2 0x15D0 JUMP JUMPDEST SWAP1 POP SWAP2 SWAP1 POP JUMP JUMPDEST PUSH32 0x4174206C656173742074776F206F7074696F6E73207265717569726564000000 PUSH1 0x0 DUP3 ADD MSTORE POP JUMP JUMPDEST PUSH1 0x0 PUSH2 0x1649 PUSH1 0x1D DUP4 PUSH2 0xEA5 JUMP JUMPDEST SWAP2 POP PUSH2 0x1654 DUP3 PUSH2 0x1613 JUMP JUMPDEST PUSH1 0x20 DUP3 ADD SWAP1 POP SWAP2 SWAP1 POP JUMP JUMPDEST PUSH1 0x0 PUSH1 0x20 DUP3 ADD SWAP1 POP DUP2 DUP2 SUB PUSH1 0x0 DUP4 ADD MSTORE PUSH2 0x1678 DUP2 PUSH2 0x163C JUMP JUMPDEST SWAP1 POP SWAP2 SWAP1 POP JUMP JUMPDEST PUSH32 0x4E487B7100000000000000000000000000000000000000000000000000000000 PUSH1 0x0 MSTORE PUSH1 0x11 PUSH1 0x4 MSTORE PUSH1 0x24 PUSH1 0x0 REVERT JUMPDEST PUSH1 0x0 PUSH2 0x16B9 DUP3 PUSH2 0xD2F JUMP JUMPDEST SWAP2 POP PUSH32 0xFFFFFFFFFFFFFFFFFFFFFFFFFFFFFFFFFFFFFFFFFFFFFFFFFFFFFFFFFFFFFFFF DUP3 SUB PUSH2 0x16EB JUMPI PUSH2 0x16EA PUSH2 0x167F JUMP JUMPDEST JUMPDEST PUSH1 0x1 DUP3 ADD SWAP1 POP SWAP2 SWAP1 POP JUMP JUMPDEST PUSH1 0x0 DUP2 MLOAD SWAP1 POP SWAP2 SWAP1 POP JUMP JUMPDEST PUSH1 0x0 DUP3 DUP3 MSTORE PUSH1 0x20 DUP3 ADD SWAP1 POP SWAP3 SWAP2 POP POP JUMP JUMPDEST PUSH1 0x0 DUP2 SWAP1 POP PUSH1 0x20 DUP3 ADD SWAP1 POP SWAP2 SWAP1 POP JUMP JUMPDEST PUSH1 0x0 DUP3 DUP3 MSTORE PUSH1 0x20 DUP3 ADD SWAP1 POP SWAP3 SWAP2 POP POP JUMP JUMPDEST PUSH1 0x0 PUSH2 0x173E DUP3 PUSH2 0xE9A JUMP JUMPDEST PUSH2 0x1748 DUP2 DUP6 PUSH2 0x1722 JUMP JUMPDEST SWAP4 POP PUSH2 0x1758 DUP2 DUP6 PUSH1 0x20 DUP7 ADD PUSH2 0xEB6 JUMP JUMPDEST PUSH2 0x1761 DUP2 PUSH2 0xEE0 JUMP JUMPDEST DUP5 ADD SWAP2 POP POP SWAP3 SWAP2 POP POP JUMP JUMPDEST PUSH1 0x0 PUSH2 0x1778 DUP4 DUP4 PUSH2 0x1733 JUMP JUMPDEST SWAP1 POP SWAP3 SWAP2 POP POP JUMP JUMPDEST PUSH1 0x0 PUSH1 0x20 DUP3 ADD SWAP1 POP SWAP2 SWAP1 POP JUMP JUMPDEST PUSH1 0x0 PUSH2 0x1798 DUP3 PUSH2 0x16F6 JUMP JUMPDEST PUSH2 0x17A2 DUP2 DUP6 PUSH2 0x1701 JUMP JUMPDEST SWAP4 POP DUP4 PUSH1 0x20 DUP3 MUL DUP6 ADD PUSH2 0x17B4 DUP6 PUSH2 0x1712 JUMP JUMPDEST DUP1 PUSH1 0x0 JUMPDEST DUP6 DUP2 LT ISZERO PUSH2 0x17F0 JUMPI DUP5 DUP5 SUB DUP10 MSTORE DUP2 MLOAD PUSH2 0x17D1 DUP6 DUP3 PUSH2 0x176C JUMP JUMPDEST SWAP5 POP PUSH2 0x17DC DUP4 PUSH2 0x1780 JUMP JUMPDEST SWAP3 POP PUSH1 0x20 DUP11 ADD SWAP10 POP POP PUSH1 0x1 DUP2 ADD SWAP1 POP PUSH2 0x17B8 JUMP JUMPDEST POP DUP3 SWAP8 POP DUP8 SWAP6 POP POP POP POP POP POP SWAP3 SWAP2 POP POP JUMP JUMPDEST PUSH1 0x0 PUSH1 0x60 DUP3 ADD SWAP1 POP PUSH2 0x1817 PUSH1 0x0 DUP4 ADD DUP7 PUSH2 0xE03 JUMP JUMPDEST PUSH2 0x1824 PUSH1 0x20 DUP4 ADD DUP6 PUSH2 0xE03 JUMP JUMPDEST DUP2 DUP2 SUB PUSH1 0x40 DUP4 ADD MSTORE PUSH2 0x1836 DUP2 DUP5 PUSH2 0x178D JUMP JUMPDEST SWAP1 POP SWAP5 SWAP4 POP POP POP POP JUMP JUMPDEST PUSH1 0x0 DUP2 SWAP1 POP DUP2 PUSH1 0x0 MSTORE PUSH1 0x20 PUSH1 0x0 KECCAK256 SWAP1 POP SWAP2 SWAP1 POP JUMP JUMPDEST PUSH1 0x0 PUSH1 0x20 PUSH1 0x1F DUP4 ADD DIV SWAP1 POP SWAP2 SWAP1 POP JUMP JUMPDEST PUSH1 0x0 DUP3 DUP3 SHL SWAP1 POP SWAP3 SWAP2 POP POP JUMP JUMPDEST PUSH1 0x0 PUSH1 0x8 DUP4 MUL PUSH2 0x18A2 PUSH32 0xFFFFFFFFFFFFFFFFFFFFFFFFFFFFFFFFFFFFFFFFFFFFFFFFFFFFFFFFFFFFFFFF DUP3 PUSH2 0x1865 JUMP JUMPDEST PUSH2 0x18AC DUP7 DUP4 PUSH2 0x1865 JUMP JUMPDEST SWAP6 POP DUP1 NOT DUP5 AND SWAP4 POP DUP1 DUP7 AND DUP5 OR SWAP3 POP POP POP SWAP4 SWAP3 POP POP POP JUMP JUMPDEST PUSH1 0x0 DUP2 SWAP1 POP SWAP2 SWAP1 POP JUMP JUMPDEST PUSH1 0x0 PUSH2 0x18E9 PUSH2 0x18E4 PUSH2 0x18DF DUP5 PUSH2 0xD2F JUMP JUMPDEST PUSH2 0x18C4 JUMP JUMPDEST PUSH2 0xD2F JUMP JUMPDEST SWAP1 POP SWAP2 SWAP1 POP JUMP JUMPDEST PUSH1 0x0 DUP2 SWAP1 POP SWAP2 SWAP1 POP JUMP JUMPDEST PUSH2 0x1903 DUP4 PUSH2 0x18CE JUMP JUMPDEST PUSH2 0x1917 PUSH2 0x190F DUP3 PUSH2 0x18F0 JUMP JUMPDEST DUP5 DUP5 SLOAD PUSH2 0x1872 JUMP JUMPDEST DUP3 SSTORE POP POP POP POP JUMP JUMPDEST PUSH1 0x0 SWAP1 JUMP JUMPDEST PUSH2 0x192C PUSH2 0x191F JUMP JUMPDEST PUSH2 0x1937 DUP2 DUP5 DUP5 PUSH2 0x18FA JUMP JUMPDEST POP POP POP JUMP JUMPDEST JUMPDEST DUP2 DUP2 LT ISZERO PUSH2 0x195B JUMPI PUSH2 0x1950 PUSH1 0x0 DUP3 PUSH2 0x1924 JUMP JUMPDEST PUSH1 0x1 DUP2 ADD SWAP1 POP PUSH2 0x193D JUMP JUMPDEST POP POP JUMP JUMPDEST PUSH1 0x1F DUP3 GT ISZERO PUSH2 0x19A0 JUMPI PUSH2 0x1971 DUP2 PUSH2 0x1840 JUMP JUMPDEST PUSH2 0x197A DUP5 PUSH2 0x1855 JUMP JUMPDEST DUP2 ADD PUSH1 0x20 DUP6 LT ISZERO PUSH2 0x1989 JUMPI DUP2 SWAP1 POP JUMPDEST PUSH2 0x199D PUSH2 0x1995 DUP6 PUSH2 0x1855 JUMP JUMPDEST DUP4 ADD DUP3 PUSH2 0x193C JUMP JUMPDEST POP POP JUMPDEST POP POP POP JUMP JUMPDEST PUSH1 0x0 DUP3 DUP3 SHR SWAP1 POP SWAP3 SWAP2 POP POP JUMP JUMPDEST PUSH1 0x0 PUSH2 0x19C3 PUSH1 0x0 NOT DUP5 PUSH1 0x8 MUL PUSH2 0x19A5 JUMP JUMPDEST NOT DUP1 DUP4 AND SWAP2 POP POP SWAP3 SWAP2 POP POP JUMP JUMPDEST PUSH1 0x0 PUSH2 0x19DC DUP4 DUP4 PUSH2 0x19B2 JUMP JUMPDEST SWAP2 POP DUP3 PUSH1 0x2 MUL DUP3 OR SWAP1 POP SWAP3 SWAP2 POP POP JUMP JUMPDEST PUSH2 0x19F5 DUP3 PUSH2 0xE9A JUMP JUMPDEST PUSH8 0xFFFFFFFFFFFFFFFF DUP2 GT ISZERO PUSH2 0x1A0E JUMPI PUSH2 0x1A0D PUSH2 0x1077 JUMP JUMPDEST JUMPDEST PUSH2 0x1A18 DUP3 SLOAD PUSH2 0x132B JUMP JUMPDEST PUSH2 0x1A23 DUP3 DUP3 DUP6 PUSH2 0x195F JUMP JUMPDEST PUSH1 0x0 PUSH1 0x20 SWAP1 POP PUSH1 0x1F DUP4 GT PUSH1 0x1 DUP2 EQ PUSH2 0x1A56 JUMPI PUSH1 0x0 DUP5 ISZERO PUSH2 0x1A44 JUMPI DUP3 DUP8 ADD MLOAD SWAP1 POP JUMPDEST PUSH2 0x1A4E DUP6 DUP3 PUSH2 0x19D0 JUMP JUMPDEST DUP7 SSTORE POP PUSH2 0x1AB6 JUMP JUMPDEST PUSH1 0x1F NOT DUP5 AND PUSH2 0x1A64 DUP7 PUSH2 0x1840 JUMP JUMPDEST PUSH1 0x0 JUMPDEST DUP3 DUP2 LT ISZERO PUSH2 0x1A8C JUMPI DUP5 DUP10 ADD MLOAD DUP3 SSTORE PUSH1 0x1 DUP3 ADD SWAP2 POP PUSH1 0x20 DUP6 ADD SWAP5 POP PUSH1 0x20 DUP2 ADD SWAP1 POP PUSH2 0x1A67 JUMP JUMPDEST DUP7 DUP4 LT ISZERO PUSH2 0x1AA9 JUMPI DUP5 DUP10 ADD MLOAD PUSH2 0x1AA5 PUSH1 0x1F DUP10 AND DUP3 PUSH2 0x19B2 JUMP JUMPDEST DUP4 SSTORE POP JUMPDEST PUSH1 0x1 PUSH1 0x2 DUP9 MUL ADD DUP9 SSTORE POP POP POP JUMPDEST POP POP POP POP POP POP JUMP INVALID LOG2 PUSH5 0x6970667358 0x22 SLT KECCAK256 0xA6 LOG1 PUSH18 0x34C8DC60A09D0088D9E224E50C776C2B0AC6 RETURNDATACOPY CODECOPY CHAINID DUP10 0xA5 PUSH25 0x474BFB2A964736F6C63430008120033000000000000000000 "
				},
				"gasEstimates": {
					"creation": {
						"codeDepositCost": "1380000",
						"executionCost": "1438",
						"totalCost": "1381438"
					},
					"external": {
						"balances(address)": "2860",
						"betCount()": "2473",
						"closePoll()": "254",
						"createPoll(uint256,uint256,string[])": "infinite",
						"distributeRewards()": "233",
						"getBetCount(uint256)": "infinite",
						"getOdds(uint256,uint256)": "infinite",
						"getPollVotes(uint256)": "infinite",
						"hasVoted(uint256,address)": "3177",
						"pollBetTotal(uint256)": "infinite",
						"pollBets(uint256,address)": "infinite",
						"pollBetsList(uint256,uint256)": "infinite",
						"pollCount()": "2474",
						"pollWinners(uint256,uint256)": "infinite",
						"polls(uint256)": "infinite",
						"voteOnPoll(uint256,uint256)": "infinite",
						"voters(uint256,address)": "infinite"
					}
				},
				"methodIdentifiers": {
					"balances(address)": "27e235e3",
					"betCount()": "cf094497",
					"closePoll()": "ed8c2aed",
					"createPoll(uint256,uint256,string[])": "d624d6fd",
					"distributeRewards()": "6f4a2cd0",
					"getBetCount(uint256)": "6b7128ec",
					"getOdds(uint256,uint256)": "e3eed5c9",
					"getPollVotes(uint256)": "bbff7166",
					"hasVoted(uint256,address)": "43859632",
					"pollBetTotal(uint256)": "46f86716",
					"pollBets(uint256,address)": "06455f5e",
					"pollBetsList(uint256,uint256)": "420700f6",
					"pollCount()": "9207891d",
					"pollWinners(uint256,uint256)": "91cbfb41",
					"polls(uint256)": "ac2f0074",
					"voteOnPoll(uint256,uint256)": "4c3c234f",
					"voters(uint256,address)": "9e319063"
				}
			},
			"storageLayout": {
				"storage": [
					{
						"astId": 80,
						"contract": "contracts/PollBetContract.sol:PollBetContract",
						"label": "pollCount",
						"offset": 0,
						"slot": "0",
						"type": "t_uint256"
					},
					{
						"astId": 82,
						"contract": "contracts/PollBetContract.sol:PollBetContract",
						"label": "betCount",
						"offset": 0,
						"slot": "1",
						"type": "t_uint256"
					},
					{
						"astId": 86,
						"contract": "contracts/PollBetContract.sol:PollBetContract",
						"label": "pollBetTotal",
						"offset": 0,
						"slot": "2",
						"type": "t_mapping(t_uint256,t_uint256)"
					},
					{
						"astId": 92,
						"contract": "contracts/PollBetContract.sol:PollBetContract",
						"label": "pollBets",
						"offset": 0,
						"slot": "3",
						"type": "t_mapping(t_uint256,t_mapping(t_address,t_uint256))"
					},
					{
						"astId": 97,
						"contract": "contracts/PollBetContract.sol:PollBetContract",
						"label": "pollWinners",
						"offset": 0,
						"slot": "4",
						"type": "t_mapping(t_uint256,t_array(t_uint256)dyn_storage)"
					},
					{
						"astId": 101,
						"contract": "contracts/PollBetContract.sol:PollBetContract",
						"label": "balances",
						"offset": 0,
						"slot": "5",
						"type": "t_mapping(t_address,t_uint256)"
					},
					{
						"astId": 107,
						"contract": "contracts/PollBetContract.sol:PollBetContract",
						"label": "pollBetsList",
						"offset": 0,
						"slot": "6",
						"type": "t_mapping(t_uint256,t_array(t_struct(Bet)31_storage)dyn_storage)"
					},
					{
						"astId": 113,
						"contract": "contracts/PollBetContract.sol:PollBetContract",
						"label": "hasVoted",
						"offset": 0,
						"slot": "7",
						"type": "t_mapping(t_uint256,t_mapping(t_address,t_bool))"
					},
					{
						"astId": 120,
						"contract": "contracts/PollBetContract.sol:PollBetContract",
						"label": "voters",
						"offset": 0,
						"slot": "8",
						"type": "t_mapping(t_uint256,t_mapping(t_address,t_struct(Voter)22_storage))"
					},
					{
						"astId": 124,
						"contract": "contracts/PollBetContract.sol:PollBetContract",
						"label": "polls",
						"offset": 0,
						"slot": "9",
						"type": "t_array(t_struct(Poll)15_storage)dyn_storage"
					}
				],
				"types": {
					"t_address": {
						"encoding": "inplace",
						"label": "address",
						"numberOfBytes": "20"
					},
					"t_array(t_string_storage)dyn_storage": {
						"base": "t_string_storage",
						"encoding": "dynamic_array",
						"label": "string[]",
						"numberOfBytes": "32"
					},
					"t_array(t_struct(Bet)31_storage)dyn_storage": {
						"base": "t_struct(Bet)31_storage",
						"encoding": "dynamic_array",
						"label": "struct PollBetContract.Bet[]",
						"numberOfBytes": "32"
					},
					"t_array(t_struct(Poll)15_storage)dyn_storage": {
						"base": "t_struct(Poll)15_storage",
						"encoding": "dynamic_array",
						"label": "struct PollBetContract.Poll[]",
						"numberOfBytes": "32"
					},
					"t_array(t_uint256)dyn_storage": {
						"base": "t_uint256",
						"encoding": "dynamic_array",
						"label": "uint256[]",
						"numberOfBytes": "32"
					},
					"t_bool": {
						"encoding": "inplace",
						"label": "bool",
						"numberOfBytes": "1"
					},
					"t_mapping(t_address,t_bool)": {
						"encoding": "mapping",
						"key": "t_address",
						"label": "mapping(address => bool)",
						"numberOfBytes": "32",
						"value": "t_bool"
					},
					"t_mapping(t_address,t_struct(Voter)22_storage)": {
						"encoding": "mapping",
						"key": "t_address",
						"label": "mapping(address => struct PollBetContract.Voter)",
						"numberOfBytes": "32",
						"value": "t_struct(Voter)22_storage"
					},
					"t_mapping(t_address,t_uint256)": {
						"encoding": "mapping",
						"key": "t_address",
						"label": "mapping(address => uint256)",
						"numberOfBytes": "32",
						"value": "t_uint256"
					},
					"t_mapping(t_uint256,t_array(t_struct(Bet)31_storage)dyn_storage)": {
						"encoding": "mapping",
						"key": "t_uint256",
						"label": "mapping(uint256 => struct PollBetContract.Bet[])",
						"numberOfBytes": "32",
						"value": "t_array(t_struct(Bet)31_storage)dyn_storage"
					},
					"t_mapping(t_uint256,t_array(t_uint256)dyn_storage)": {
						"encoding": "mapping",
						"key": "t_uint256",
						"label": "mapping(uint256 => uint256[])",
						"numberOfBytes": "32",
						"value": "t_array(t_uint256)dyn_storage"
					},
					"t_mapping(t_uint256,t_mapping(t_address,t_bool))": {
						"encoding": "mapping",
						"key": "t_uint256",
						"label": "mapping(uint256 => mapping(address => bool))",
						"numberOfBytes": "32",
						"value": "t_mapping(t_address,t_bool)"
					},
					"t_mapping(t_uint256,t_mapping(t_address,t_struct(Voter)22_storage))": {
						"encoding": "mapping",
						"key": "t_uint256",
						"label": "mapping(uint256 => mapping(address => struct PollBetContract.Voter))",
						"numberOfBytes": "32",
						"value": "t_mapping(t_address,t_struct(Voter)22_storage)"
					},
					"t_mapping(t_uint256,t_mapping(t_address,t_uint256))": {
						"encoding": "mapping",
						"key": "t_uint256",
						"label": "mapping(uint256 => mapping(address => uint256))",
						"numberOfBytes": "32",
						"value": "t_mapping(t_address,t_uint256)"
					},
					"t_mapping(t_uint256,t_uint256)": {
						"encoding": "mapping",
						"key": "t_uint256",
						"label": "mapping(uint256 => uint256)",
						"numberOfBytes": "32",
						"value": "t_uint256"
					},
					"t_string_storage": {
						"encoding": "bytes",
						"label": "string",
						"numberOfBytes": "32"
					},
					"t_struct(Bet)31_storage": {
						"encoding": "inplace",
						"label": "struct PollBetContract.Bet",
						"members": [
							{
								"astId": 24,
								"contract": "contracts/PollBetContract.sol:PollBetContract",
								"label": "pollId",
								"offset": 0,
								"slot": "0",
								"type": "t_uint256"
							},
							{
								"astId": 26,
								"contract": "contracts/PollBetContract.sol:PollBetContract",
								"label": "pollChoice",
								"offset": 0,
								"slot": "1",
								"type": "t_string_storage"
							},
							{
								"astId": 28,
								"contract": "contracts/PollBetContract.sol:PollBetContract",
								"label": "user",
								"offset": 0,
								"slot": "2",
								"type": "t_address"
							},
							{
								"astId": 30,
								"contract": "contracts/PollBetContract.sol:PollBetContract",
								"label": "amount",
								"offset": 0,
								"slot": "3",
								"type": "t_uint256"
							}
						],
						"numberOfBytes": "128"
					},
					"t_struct(Poll)15_storage": {
						"encoding": "inplace",
						"label": "struct PollBetContract.Poll",
						"members": [
							{
								"astId": 3,
								"contract": "contracts/PollBetContract.sol:PollBetContract",
								"label": "id",
								"offset": 0,
								"slot": "0",
								"type": "t_uint256"
							},
							{
								"astId": 5,
								"contract": "contracts/PollBetContract.sol:PollBetContract",
								"label": "creator",
								"offset": 0,
								"slot": "1",
								"type": "t_address"
							},
							{
								"astId": 7,
								"contract": "contracts/PollBetContract.sol:PollBetContract",
								"label": "startTime",
								"offset": 0,
								"slot": "2",
								"type": "t_uint256"
							},
							{
								"astId": 9,
								"contract": "contracts/PollBetContract.sol:PollBetContract",
								"label": "endTime",
								"offset": 0,
								"slot": "3",
								"type": "t_uint256"
							},
							{
								"astId": 12,
								"contract": "contracts/PollBetContract.sol:PollBetContract",
								"label": "choices",
								"offset": 0,
								"slot": "4",
								"type": "t_array(t_string_storage)dyn_storage"
							},
							{
								"astId": 14,
								"contract": "contracts/PollBetContract.sol:PollBetContract",
								"label": "isOpen",
								"offset": 0,
								"slot": "5",
								"type": "t_bool"
							}
						],
						"numberOfBytes": "192"
					},
					"t_struct(Voter)22_storage": {
						"encoding": "inplace",
						"label": "struct PollBetContract.Voter",
						"members": [
							{
								"astId": 17,
								"contract": "contracts/PollBetContract.sol:PollBetContract",
								"label": "pollId",
								"offset": 0,
								"slot": "0",
								"type": "t_uint256"
							},
							{
								"astId": 19,
								"contract": "contracts/PollBetContract.sol:PollBetContract",
								"label": "voterAddress",
								"offset": 0,
								"slot": "1",
								"type": "t_address"
							},
							{
								"astId": 21,
								"contract": "contracts/PollBetContract.sol:PollBetContract",
								"label": "choice",
								"offset": 0,
								"slot": "2",
								"type": "t_uint256"
							}
						],
						"numberOfBytes": "96"
					},
					"t_uint256": {
						"encoding": "inplace",
						"label": "uint256",
						"numberOfBytes": "32"
					}
				}
			},
			"userdoc": {
				"kind": "user",
				"methods": {},
				"version": 1
			}
		}
	}
}