{
	"contracts/PollBetContract.sol": {
		"PollBetContract": {
			"abi": [
				{
					"anonymous": false,
					"inputs": [
						{
							"indexed": true,
							"internalType": "uint256",
							"name": "pollId",
							"type": "uint256"
						},
						{
							"indexed": false,
							"internalType": "string",
							"name": "pollChoice",
							"type": "string"
						},
						{
							"indexed": true,
							"internalType": "address",
							"name": "user",
							"type": "address"
						},
						{
							"indexed": false,
							"internalType": "uint256",
							"name": "amount",
							"type": "uint256"
						}
					],
					"name": "BetPlaced",
					"type": "event"
				},
				{
					"anonymous": false,
					"inputs": [
						{
							"indexed": true,
							"internalType": "uint256",
							"name": "id",
							"type": "uint256"
						},
						{
							"indexed": true,
							"internalType": "address",
							"name": "winner",
							"type": "address"
						}
					],
					"name": "PollClosed",
					"type": "event"
				},
				{
					"anonymous": false,
					"inputs": [
						{
							"indexed": true,
							"internalType": "uint256",
							"name": "id",
							"type": "uint256"
						},
						{
							"indexed": true,
							"internalType": "address",
							"name": "creator",
							"type": "address"
						},
						{
							"indexed": false,
							"internalType": "uint256",
							"name": "startTime",
							"type": "uint256"
						},
						{
							"indexed": false,
							"internalType": "uint256",
							"name": "endTime",
							"type": "uint256"
						},
						{
							"indexed": false,
							"internalType": "string[]",
							"name": "options",
							"type": "string[]"
						}
					],
					"name": "PollCreated",
					"type": "event"
				},
				{
					"anonymous": false,
					"inputs": [
						{
							"indexed": true,
							"internalType": "uint256",
							"name": "pollId",
							"type": "uint256"
						},
						{
							"indexed": false,
							"internalType": "address[]",
							"name": "winners",
							"type": "address[]"
						},
						{
							"indexed": false,
							"internalType": "uint256[]",
							"name": "rewards",
							"type": "uint256[]"
						}
					],
					"name": "RewardsDistributed",
					"type": "event"
				},
				{
					"anonymous": false,
					"inputs": [
						{
							"indexed": true,
							"internalType": "uint256",
							"name": "pollId",
							"type": "uint256"
						},
						{
							"indexed": true,
							"internalType": "address",
							"name": "voter",
							"type": "address"
						},
						{
							"indexed": false,
							"internalType": "uint256",
							"name": "choice",
							"type": "uint256"
						}
					],
					"name": "VoteCasted",
					"type": "event"
				},
				{
					"inputs": [
						{
							"internalType": "address",
							"name": "",
							"type": "address"
						}
					],
					"name": "balances",
					"outputs": [
						{
							"internalType": "uint256",
							"name": "",
							"type": "uint256"
						}
					],
					"stateMutability": "view",
					"type": "function"
				},
				{
					"inputs": [],
					"name": "betCount",
					"outputs": [
						{
							"internalType": "uint256",
							"name": "",
							"type": "uint256"
						}
					],
					"stateMutability": "view",
					"type": "function"
				},
				{
					"inputs": [
						{
							"internalType": "uint256",
							"name": "_pollId",
							"type": "uint256"
						},
						{
							"internalType": "bytes32",
							"name": "_pollChoice",
							"type": "bytes32"
						}
					],
					"name": "betOnPoll",
					"outputs": [],
					"stateMutability": "payable",
					"type": "function"
				},
				{
					"inputs": [],
					"name": "closePoll",
					"outputs": [],
					"stateMutability": "nonpayable",
					"type": "function"
				},
				{
					"inputs": [
						{
							"internalType": "uint256",
							"name": "_startTime",
							"type": "uint256"
						},
						{
							"internalType": "uint256",
							"name": "_endTime",
							"type": "uint256"
						},
						{
							"internalType": "string[]",
							"name": "_options",
							"type": "string[]"
						}
					],
					"name": "createPoll",
					"outputs": [],
					"stateMutability": "nonpayable",
					"type": "function"
				},
				{
					"inputs": [],
					"name": "distributeRewards",
					"outputs": [],
					"stateMutability": "nonpayable",
					"type": "function"
				},
				{
					"inputs": [
						{
							"internalType": "uint256",
							"name": "_pollId",
							"type": "uint256"
						}
					],
					"name": "getBetCount",
					"outputs": [
						{
							"internalType": "uint256",
							"name": "",
							"type": "uint256"
						}
					],
					"stateMutability": "view",
					"type": "function"
				},
				{
					"inputs": [
						{
							"internalType": "uint256",
							"name": "_pollId",
							"type": "uint256"
						},
						{
							"internalType": "uint256",
							"name": "_pollChoice",
							"type": "uint256"
						}
					],
					"name": "getOdds",
					"outputs": [
						{
							"internalType": "uint256",
							"name": "",
							"type": "uint256"
						}
					],
					"stateMutability": "view",
					"type": "function"
				},
				{
					"inputs": [
						{
							"internalType": "uint256",
							"name": "_pollId",
							"type": "uint256"
						}
					],
					"name": "getPollVotersCount",
					"outputs": [
						{
							"internalType": "uint256",
							"name": "",
							"type": "uint256"
						}
					],
					"stateMutability": "view",
					"type": "function"
				},
				{
					"inputs": [
						{
							"internalType": "uint256",
							"name": "",
							"type": "uint256"
						},
						{
							"internalType": "address",
							"name": "",
							"type": "address"
						}
					],
					"name": "hasVoted",
					"outputs": [
						{
							"internalType": "bool",
							"name": "",
							"type": "bool"
						}
					],
					"stateMutability": "view",
					"type": "function"
				},
				{
					"inputs": [
						{
							"internalType": "uint256",
							"name": "",
							"type": "uint256"
						}
					],
					"name": "pollBetTotal",
					"outputs": [
						{
							"internalType": "uint256",
							"name": "",
							"type": "uint256"
						}
					],
					"stateMutability": "view",
					"type": "function"
				},
				{
					"inputs": [
						{
							"internalType": "uint256",
							"name": "",
							"type": "uint256"
						},
						{
							"internalType": "address",
							"name": "",
							"type": "address"
						}
					],
					"name": "pollBets",
					"outputs": [
						{
							"internalType": "uint256",
							"name": "",
							"type": "uint256"
						}
					],
					"stateMutability": "view",
					"type": "function"
				},
				{
					"inputs": [
						{
							"internalType": "uint256",
							"name": "",
							"type": "uint256"
						},
						{
							"internalType": "uint256",
							"name": "",
							"type": "uint256"
						}
					],
					"name": "pollBetsList",
					"outputs": [
						{
							"internalType": "uint256",
							"name": "pollId",
							"type": "uint256"
						},
						{
							"internalType": "string",
							"name": "pollChoice",
							"type": "string"
						},
						{
							"internalType": "address",
							"name": "user",
							"type": "address"
						},
						{
							"internalType": "uint256",
							"name": "amount",
							"type": "uint256"
						}
					],
					"stateMutability": "view",
					"type": "function"
				},
				{
					"inputs": [],
					"name": "pollCount",
					"outputs": [
						{
							"internalType": "uint256",
							"name": "",
							"type": "uint256"
						}
					],
					"stateMutability": "view",
					"type": "function"
				},
				{
					"inputs": [
						{
							"internalType": "uint256",
							"name": "",
							"type": "uint256"
						},
						{
							"internalType": "uint256",
							"name": "",
							"type": "uint256"
						}
					],
					"name": "pollWinners",
					"outputs": [
						{
							"internalType": "uint256",
							"name": "",
							"type": "uint256"
						}
					],
					"stateMutability": "view",
					"type": "function"
				},
				{
					"inputs": [
						{
							"internalType": "uint256",
							"name": "",
							"type": "uint256"
						}
					],
					"name": "polls",
					"outputs": [
						{
							"internalType": "uint256",
							"name": "id",
							"type": "uint256"
						},
						{
							"internalType": "address",
							"name": "creator",
							"type": "address"
						},
						{
							"internalType": "uint256",
							"name": "startTime",
							"type": "uint256"
						},
						{
							"internalType": "uint256",
							"name": "endTime",
							"type": "uint256"
						},
						{
							"internalType": "bool",
							"name": "isOpen",
							"type": "bool"
						}
					],
					"stateMutability": "view",
					"type": "function"
				},
				{
					"inputs": [
						{
							"internalType": "uint256",
							"name": "_pollId",
							"type": "uint256"
						},
						{
							"internalType": "uint256",
							"name": "_pollChoice",
							"type": "uint256"
						}
					],
					"name": "voteOnPoll",
					"outputs": [],
					"stateMutability": "nonpayable",
					"type": "function"
				},
				{
					"inputs": [
						{
							"internalType": "uint256",
							"name": "",
							"type": "uint256"
						},
						{
							"internalType": "address",
							"name": "",
							"type": "address"
						}
					],
					"name": "voters",
					"outputs": [
						{
							"internalType": "uint256",
							"name": "pollId",
							"type": "uint256"
						},
						{
							"internalType": "address",
							"name": "voterAddress",
							"type": "address"
						},
						{
							"internalType": "uint256",
							"name": "choice",
							"type": "uint256"
						}
					],
					"stateMutability": "view",
					"type": "function"
				}
			],
			"devdoc": {
				"kind": "dev",
				"methods": {},
				"version": 1
			},
			"evm": {
				"assembly": "    /* \"contracts/PollBetContract.sol\":158:5606  contract PollBetContract {... */\n  mstore(0x40, 0x80)\n  callvalue\n  dup1\n  iszero\n  tag_1\n  jumpi\n  0x00\n  dup1\n  revert\ntag_1:\n  pop\n  dataSize(sub_0)\n  dup1\n  dataOffset(sub_0)\n  0x00\n  codecopy\n  0x00\n  return\nstop\n\nsub_0: assembly {\n        /* \"contracts/PollBetContract.sol\":158:5606  contract PollBetContract {... */\n      mstore(0x40, 0x80)\n      jumpi(tag_1, lt(calldatasize, 0x04))\n      shr(0xe0, calldataload(0x00))\n      dup1\n      0x91cbfb41\n      gt\n      tag_20\n      jumpi\n      dup1\n      0xac2f0074\n      gt\n      tag_21\n      jumpi\n      dup1\n      0xac2f0074\n      eq\n      tag_15\n      jumpi\n      dup1\n      0xcf094497\n      eq\n      tag_16\n      jumpi\n      dup1\n      0xd624d6fd\n      eq\n      tag_17\n      jumpi\n      dup1\n      0xe3eed5c9\n      eq\n      tag_18\n      jumpi\n      dup1\n      0xed8c2aed\n      eq\n      tag_19\n      jumpi\n      jump(tag_1)\n    tag_21:\n      dup1\n      0x91cbfb41\n      eq\n      tag_11\n      jumpi\n      dup1\n      0x9207891d\n      eq\n      tag_12\n      jumpi\n      dup1\n      0x9b85e14f\n      eq\n      tag_13\n      jumpi\n      dup1\n      0x9e319063\n      eq\n      tag_14\n      jumpi\n      jump(tag_1)\n    tag_20:\n      dup1\n      0x46f86716\n      gt\n      tag_22\n      jumpi\n      dup1\n      0x46f86716\n      eq\n      tag_6\n      jumpi\n      dup1\n      0x4c3c234f\n      eq\n      tag_7\n      jumpi\n      dup1\n      0x6b7128ec\n      eq\n      tag_8\n      jumpi\n      dup1\n      0x6f4a2cd0\n      eq\n      tag_9\n      jumpi\n      dup1\n      0x8761ad0c\n      eq\n      tag_10\n      jumpi\n      jump(tag_1)\n    tag_22:\n      dup1\n      0x06455f5e\n      eq\n      tag_2\n      jumpi\n      dup1\n      0x27e235e3\n      eq\n      tag_3\n      jumpi\n      dup1\n      0x420700f6\n      eq\n      tag_4\n      jumpi\n      dup1\n      0x43859632\n      eq\n      tag_5\n      jumpi\n    tag_1:\n      0x00\n      dup1\n      revert\n        /* \"contracts/PollBetContract.sol\":1233:1290  mapping(uint => mapping(address => uint)) public pollBets */\n    tag_2:\n      callvalue\n      dup1\n      iszero\n      tag_23\n      jumpi\n      0x00\n      dup1\n      revert\n    tag_23:\n      pop\n      tag_24\n      0x04\n      dup1\n      calldatasize\n      sub\n      dup2\n      add\n      swap1\n      tag_25\n      swap2\n      swap1\n      tag_26\n      jump\t// in\n    tag_25:\n      tag_27\n      jump\t// in\n    tag_24:\n      mload(0x40)\n      tag_28\n      swap2\n      swap1\n      tag_29\n      jump\t// in\n    tag_28:\n      mload(0x40)\n      dup1\n      swap2\n      sub\n      swap1\n      return\n        /* \"contracts/PollBetContract.sol\":1344:1384  mapping(address => uint) public balances */\n    tag_3:\n      callvalue\n      dup1\n      iszero\n      tag_30\n      jumpi\n      0x00\n      dup1\n      revert\n    tag_30:\n      pop\n      tag_31\n      0x04\n      dup1\n      calldatasize\n      sub\n      dup2\n      add\n      swap1\n      tag_32\n      swap2\n      swap1\n      tag_33\n      jump\t// in\n    tag_32:\n      tag_34\n      jump\t// in\n    tag_31:\n      mload(0x40)\n      tag_35\n      swap2\n      swap1\n      tag_29\n      jump\t// in\n    tag_35:\n      mload(0x40)\n      dup1\n      swap2\n      sub\n      swap1\n      return\n        /* \"contracts/PollBetContract.sol\":1390:1432  mapping(uint => Bet[]) public pollBetsList */\n    tag_4:\n      callvalue\n      dup1\n      iszero\n      tag_36\n      jumpi\n      0x00\n      dup1\n      revert\n    tag_36:\n      pop\n      tag_37\n      0x04\n      dup1\n      calldatasize\n      sub\n      dup2\n      add\n      swap1\n      tag_38\n      swap2\n      swap1\n      tag_39\n      jump\t// in\n    tag_38:\n      tag_40\n      jump\t// in\n    tag_37:\n      mload(0x40)\n      tag_41\n      swap5\n      swap4\n      swap3\n      swap2\n      swap1\n      tag_42\n      jump\t// in\n    tag_41:\n      mload(0x40)\n      dup1\n      swap2\n      sub\n      swap1\n      return\n        /* \"contracts/PollBetContract.sol\":1438:1495  mapping(uint => mapping(address => bool)) public hasVoted */\n    tag_5:\n      callvalue\n      dup1\n      iszero\n      tag_43\n      jumpi\n      0x00\n      dup1\n      revert\n    tag_43:\n      pop\n      tag_44\n      0x04\n      dup1\n      calldatasize\n      sub\n      dup2\n      add\n      swap1\n      tag_45\n      swap2\n      swap1\n      tag_26\n      jump\t// in\n    tag_45:\n      tag_46\n      jump\t// in\n    tag_44:\n      mload(0x40)\n      tag_47\n      swap2\n      swap1\n      tag_48\n      jump\t// in\n    tag_47:\n      mload(0x40)\n      dup1\n      swap2\n      sub\n      swap1\n      return\n        /* \"contracts/PollBetContract.sol\":1186:1227  mapping(uint => uint) public pollBetTotal */\n    tag_6:\n      callvalue\n      dup1\n      iszero\n      tag_49\n      jumpi\n      0x00\n      dup1\n      revert\n    tag_49:\n      pop\n      tag_50\n      0x04\n      dup1\n      calldatasize\n      sub\n      dup2\n      add\n      swap1\n      tag_51\n      swap2\n      swap1\n      tag_52\n      jump\t// in\n    tag_51:\n      tag_53\n      jump\t// in\n    tag_50:\n      mload(0x40)\n      tag_54\n      swap2\n      swap1\n      tag_29\n      jump\t// in\n    tag_54:\n      mload(0x40)\n      dup1\n      swap2\n      sub\n      swap1\n      return\n        /* \"contracts/PollBetContract.sol\":2728:3515  function voteOnPoll(uint _pollId, uint _pollChoice) public {... */\n    tag_7:\n      callvalue\n      dup1\n      iszero\n      tag_55\n      jumpi\n      0x00\n      dup1\n      revert\n    tag_55:\n      pop\n      tag_56\n      0x04\n      dup1\n      calldatasize\n      sub\n      dup2\n      add\n      swap1\n      tag_57\n      swap2\n      swap1\n      tag_39\n      jump\t// in\n    tag_57:\n      tag_58\n      jump\t// in\n    tag_56:\n      stop\n        /* \"contracts/PollBetContract.sol\":4787:4900  function getBetCount(uint _pollId) public view returns(uint) {... */\n    tag_8:\n      callvalue\n      dup1\n      iszero\n      tag_59\n      jumpi\n      0x00\n      dup1\n      revert\n    tag_59:\n      pop\n      tag_60\n      0x04\n      dup1\n      calldatasize\n      sub\n      dup2\n      add\n      swap1\n      tag_61\n      swap2\n      swap1\n      tag_52\n      jump\t// in\n    tag_61:\n      tag_62\n      jump\t// in\n    tag_60:\n      mload(0x40)\n      tag_63\n      swap2\n      swap1\n      tag_29\n      jump\t// in\n    tag_63:\n      mload(0x40)\n      dup1\n      swap2\n      sub\n      swap1\n      return\n        /* \"contracts/PollBetContract.sol\":5056:5094  function distributeRewards() public {} */\n    tag_9:\n      callvalue\n      dup1\n      iszero\n      tag_64\n      jumpi\n      0x00\n      dup1\n      revert\n    tag_64:\n      pop\n      tag_65\n      tag_66\n      jump\t// in\n    tag_65:\n      stop\n        /* \"contracts/PollBetContract.sol\":2333:2721  function getPollVotersCount(uint _pollId) public view returns (uint) {... */\n    tag_10:\n      callvalue\n      dup1\n      iszero\n      tag_67\n      jumpi\n      0x00\n      dup1\n      revert\n    tag_67:\n      pop\n      tag_68\n      0x04\n      dup1\n      calldatasize\n      sub\n      dup2\n      add\n      swap1\n      tag_69\n      swap2\n      swap1\n      tag_52\n      jump\t// in\n    tag_69:\n      tag_70\n      jump\t// in\n    tag_68:\n      mload(0x40)\n      tag_71\n      swap2\n      swap1\n      tag_29\n      jump\t// in\n    tag_71:\n      mload(0x40)\n      dup1\n      swap2\n      sub\n      swap1\n      return\n        /* \"contracts/PollBetContract.sol\":1296:1338  mapping(uint => uint[]) public pollWinners */\n    tag_11:\n      callvalue\n      dup1\n      iszero\n      tag_72\n      jumpi\n      0x00\n      dup1\n      revert\n    tag_72:\n      pop\n      tag_73\n      0x04\n      dup1\n      calldatasize\n      sub\n      dup2\n      add\n      swap1\n      tag_74\n      swap2\n      swap1\n      tag_39\n      jump\t// in\n    tag_74:\n      tag_75\n      jump\t// in\n    tag_73:\n      mload(0x40)\n      tag_76\n      swap2\n      swap1\n      tag_29\n      jump\t// in\n    tag_76:\n      mload(0x40)\n      dup1\n      swap2\n      sub\n      swap1\n      return\n        /* \"contracts/PollBetContract.sol\":1088:1109  uint public pollCount */\n    tag_12:\n      callvalue\n      dup1\n      iszero\n      tag_77\n      jumpi\n      0x00\n      dup1\n      revert\n    tag_77:\n      pop\n      tag_78\n      tag_79\n      jump\t// in\n    tag_78:\n      mload(0x40)\n      tag_80\n      swap2\n      swap1\n      tag_29\n      jump\t// in\n    tag_80:\n      mload(0x40)\n      dup1\n      swap2\n      sub\n      swap1\n      return\n        /* \"contracts/PollBetContract.sol\":3521:4781  function betOnPoll(uint _pollId, bytes32 _pollChoice) public payable { // Data location must be \"memory\" or \"calldata\" for parameter in function, but none was given... */\n    tag_13:\n      tag_81\n      0x04\n      dup1\n      calldatasize\n      sub\n      dup2\n      add\n      swap1\n      tag_82\n      swap2\n      swap1\n      tag_83\n      jump\t// in\n    tag_82:\n      tag_84\n      jump\t// in\n    tag_81:\n      stop\n        /* \"contracts/PollBetContract.sol\":1501:1557  mapping(uint => mapping(address => Voter)) public voters */\n    tag_14:\n      callvalue\n      dup1\n      iszero\n      tag_85\n      jumpi\n      0x00\n      dup1\n      revert\n    tag_85:\n      pop\n      tag_86\n      0x04\n      dup1\n      calldatasize\n      sub\n      dup2\n      add\n      swap1\n      tag_87\n      swap2\n      swap1\n      tag_26\n      jump\t// in\n    tag_87:\n      tag_88\n      jump\t// in\n    tag_86:\n      mload(0x40)\n      tag_89\n      swap4\n      swap3\n      swap2\n      swap1\n      tag_90\n      jump\t// in\n    tag_89:\n      mload(0x40)\n      dup1\n      swap2\n      sub\n      swap1\n      return\n        /* \"contracts/PollBetContract.sol\":1637:1656  Poll[] public polls */\n    tag_15:\n      callvalue\n      dup1\n      iszero\n      tag_91\n      jumpi\n      0x00\n      dup1\n      revert\n    tag_91:\n      pop\n      tag_92\n      0x04\n      dup1\n      calldatasize\n      sub\n      dup2\n      add\n      swap1\n      tag_93\n      swap2\n      swap1\n      tag_52\n      jump\t// in\n    tag_93:\n      tag_94\n      jump\t// in\n    tag_92:\n      mload(0x40)\n      tag_95\n      swap6\n      swap5\n      swap4\n      swap3\n      swap2\n      swap1\n      tag_96\n      jump\t// in\n    tag_95:\n      mload(0x40)\n      dup1\n      swap2\n      sub\n      swap1\n      return\n        /* \"contracts/PollBetContract.sol\":1115:1135  uint public betCount */\n    tag_16:\n      callvalue\n      dup1\n      iszero\n      tag_97\n      jumpi\n      0x00\n      dup1\n      revert\n    tag_97:\n      pop\n      tag_98\n      tag_99\n      jump\t// in\n    tag_98:\n      mload(0x40)\n      tag_100\n      swap2\n      swap1\n      tag_29\n      jump\t// in\n    tag_100:\n      mload(0x40)\n      dup1\n      swap2\n      sub\n      swap1\n      return\n        /* \"contracts/PollBetContract.sol\":1726:2327  function createPoll(uint _startTime, uint _endTime, string[] memory _options) public {... */\n    tag_17:\n      callvalue\n      dup1\n      iszero\n      tag_101\n      jumpi\n      0x00\n      dup1\n      revert\n    tag_101:\n      pop\n      tag_102\n      0x04\n      dup1\n      calldatasize\n      sub\n      dup2\n      add\n      swap1\n      tag_103\n      swap2\n      swap1\n      tag_104\n      jump\t// in\n    tag_103:\n      tag_105\n      jump\t// in\n    tag_102:\n      stop\n        /* \"contracts/PollBetContract.sol\":4906:4982  function getOdds(uint _pollId, uint _pollChoice) public view returns(uint){} */\n    tag_18:\n      callvalue\n      dup1\n      iszero\n      tag_106\n      jumpi\n      0x00\n      dup1\n      revert\n    tag_106:\n      pop\n      tag_107\n      0x04\n      dup1\n      calldatasize\n      sub\n      dup2\n      add\n      swap1\n      tag_108\n      swap2\n      swap1\n      tag_39\n      jump\t// in\n    tag_108:\n      tag_109\n      jump\t// in\n    tag_107:\n      mload(0x40)\n      tag_110\n      swap2\n      swap1\n      tag_29\n      jump\t// in\n    tag_110:\n      mload(0x40)\n      dup1\n      swap2\n      sub\n      swap1\n      return\n        /* \"contracts/PollBetContract.sol\":4988:5018  function closePoll() public {} */\n    tag_19:\n      callvalue\n      dup1\n      iszero\n      tag_111\n      jumpi\n      0x00\n      dup1\n      revert\n    tag_111:\n      pop\n      tag_112\n      tag_113\n      jump\t// in\n    tag_112:\n      stop\n        /* \"contracts/PollBetContract.sol\":1233:1290  mapping(uint => mapping(address => uint)) public pollBets */\n    tag_27:\n      mstore(0x20, 0x03)\n      dup2\n      0x00\n      mstore\n      mstore(0x20, keccak256(0x00, 0x40))\n      dup1\n      0x00\n      mstore\n      keccak256(0x00, 0x40)\n      0x00\n      swap2\n      pop\n      swap2\n      pop\n      pop\n      sload\n      dup2\n      jump\t// out\n        /* \"contracts/PollBetContract.sol\":1344:1384  mapping(address => uint) public balances */\n    tag_34:\n      mstore(0x20, 0x05)\n      dup1\n      0x00\n      mstore\n      keccak256(0x00, 0x40)\n      0x00\n      swap2\n      pop\n      swap1\n      pop\n      sload\n      dup2\n      jump\t// out\n        /* \"contracts/PollBetContract.sol\":1390:1432  mapping(uint => Bet[]) public pollBetsList */\n    tag_40:\n      mstore(0x20, 0x06)\n      dup2\n      0x00\n      mstore\n      keccak256(0x00, 0x40)\n      dup2\n      dup2\n      sload\n      dup2\n      lt\n      tag_114\n      jumpi\n      0x00\n      dup1\n      revert\n    tag_114:\n      swap1\n      0x00\n      mstore\n      keccak256(0x00, 0x20)\n      swap1\n      0x04\n      mul\n      add\n      0x00\n      swap2\n      pop\n      swap2\n      pop\n      pop\n      dup1\n      0x00\n      add\n      sload\n      swap1\n      dup1\n      0x01\n      add\n      dup1\n      sload\n      tag_116\n      swap1\n      tag_117\n      jump\t// in\n    tag_116:\n      dup1\n      0x1f\n      add\n      0x20\n      dup1\n      swap2\n      div\n      mul\n      0x20\n      add\n      mload(0x40)\n      swap1\n      dup2\n      add\n      0x40\n      mstore\n      dup1\n      swap3\n      swap2\n      swap1\n      dup2\n      dup2\n      mstore\n      0x20\n      add\n      dup3\n      dup1\n      sload\n      tag_118\n      swap1\n      tag_117\n      jump\t// in\n    tag_118:\n      dup1\n      iszero\n      tag_119\n      jumpi\n      dup1\n      0x1f\n      lt\n      tag_120\n      jumpi\n      0x0100\n      dup1\n      dup4\n      sload\n      div\n      mul\n      dup4\n      mstore\n      swap2\n      0x20\n      add\n      swap2\n      jump(tag_119)\n    tag_120:\n      dup3\n      add\n      swap2\n      swap1\n      0x00\n      mstore\n      keccak256(0x00, 0x20)\n      swap1\n    tag_121:\n      dup2\n      sload\n      dup2\n      mstore\n      swap1\n      0x01\n      add\n      swap1\n      0x20\n      add\n      dup1\n      dup4\n      gt\n      tag_121\n      jumpi\n      dup3\n      swap1\n      sub\n      0x1f\n      and\n      dup3\n      add\n      swap2\n    tag_119:\n      pop\n      pop\n      pop\n      pop\n      pop\n      swap1\n      dup1\n      0x02\n      add\n      0x00\n      swap1\n      sload\n      swap1\n      0x0100\n      exp\n      swap1\n      div\n      0xffffffffffffffffffffffffffffffffffffffff\n      and\n      swap1\n      dup1\n      0x03\n      add\n      sload\n      swap1\n      pop\n      dup5\n      jump\t// out\n        /* \"contracts/PollBetContract.sol\":1438:1495  mapping(uint => mapping(address => bool)) public hasVoted */\n    tag_46:\n      mstore(0x20, 0x07)\n      dup2\n      0x00\n      mstore\n      mstore(0x20, keccak256(0x00, 0x40))\n      dup1\n      0x00\n      mstore\n      keccak256(0x00, 0x40)\n      0x00\n      swap2\n      pop\n      swap2\n      pop\n      swap1\n      sload\n      swap1\n      0x0100\n      exp\n      swap1\n      div\n      0xff\n      and\n      dup2\n      jump\t// out\n        /* \"contracts/PollBetContract.sol\":1186:1227  mapping(uint => uint) public pollBetTotal */\n    tag_53:\n      mstore(0x20, 0x02)\n      dup1\n      0x00\n      mstore\n      keccak256(0x00, 0x40)\n      0x00\n      swap2\n      pop\n      swap1\n      pop\n      sload\n      dup2\n      jump\t// out\n        /* \"contracts/PollBetContract.sol\":2728:3515  function voteOnPoll(uint _pollId, uint _pollChoice) public {... */\n    tag_58:\n        /* \"contracts/PollBetContract.sol\":2797:2814  Poll storage poll */\n      0x00\n        /* \"contracts/PollBetContract.sol\":2817:2822  polls */\n      0x0a\n        /* \"contracts/PollBetContract.sol\":2823:2830  _pollId */\n      dup4\n        /* \"contracts/PollBetContract.sol\":2817:2831  polls[_pollId] */\n      dup2\n      sload\n      dup2\n      lt\n      tag_123\n      jumpi\n      tag_124\n      tag_125\n      jump\t// in\n    tag_124:\n    tag_123:\n      swap1\n      0x00\n      mstore\n      keccak256(0x00, 0x20)\n      swap1\n      0x06\n      mul\n      add\n        /* \"contracts/PollBetContract.sol\":2797:2831  Poll storage poll = polls[_pollId] */\n      swap1\n      pop\n        /* \"contracts/PollBetContract.sol\":2859:2867  hasVoted */\n      0x07\n        /* \"contracts/PollBetContract.sol\":2859:2876  hasVoted[_pollId] */\n      0x00\n        /* \"contracts/PollBetContract.sol\":2868:2875  _pollId */\n      dup5\n        /* \"contracts/PollBetContract.sol\":2859:2876  hasVoted[_pollId] */\n      dup2\n      mstore\n      0x20\n      add\n      swap1\n      dup2\n      mstore\n      0x20\n      add\n      0x00\n      keccak256\n        /* \"contracts/PollBetContract.sol\":2859:2888  hasVoted[_pollId][msg.sender] */\n      0x00\n        /* \"contracts/PollBetContract.sol\":2877:2887  msg.sender */\n      caller\n        /* \"contracts/PollBetContract.sol\":2859:2888  hasVoted[_pollId][msg.sender] */\n      0xffffffffffffffffffffffffffffffffffffffff\n      and\n      0xffffffffffffffffffffffffffffffffffffffff\n      and\n      dup2\n      mstore\n      0x20\n      add\n      swap1\n      dup2\n      mstore\n      0x20\n      add\n      0x00\n      keccak256\n      0x00\n      swap1\n      sload\n      swap1\n      0x0100\n      exp\n      swap1\n      div\n      0xff\n      and\n        /* \"contracts/PollBetContract.sol\":2858:2888  !hasVoted[_pollId][msg.sender] */\n      iszero\n        /* \"contracts/PollBetContract.sol\":2850:2906  require(!hasVoted[_pollId][msg.sender], \"Already voted\") */\n      tag_127\n      jumpi\n      mload(0x40)\n      0x08c379a000000000000000000000000000000000000000000000000000000000\n      dup2\n      mstore\n      0x04\n      add\n      tag_128\n      swap1\n      tag_129\n      jump\t// in\n    tag_128:\n      mload(0x40)\n      dup1\n      swap2\n      sub\n      swap1\n      revert\n    tag_127:\n        /* \"contracts/PollBetContract.sol\":2924:2928  poll */\n      dup1\n        /* \"contracts/PollBetContract.sol\":2924:2935  poll.isOpen */\n      0x05\n      add\n      0x00\n      swap1\n      sload\n      swap1\n      0x0100\n      exp\n      swap1\n      div\n      0xff\n      and\n        /* \"contracts/PollBetContract.sol\":2916:2954  require(poll.isOpen, \"Poll is closed\") */\n      tag_130\n      jumpi\n      mload(0x40)\n      0x08c379a000000000000000000000000000000000000000000000000000000000\n      dup2\n      mstore\n      0x04\n      add\n      tag_131\n      swap1\n      tag_132\n      jump\t// in\n    tag_131:\n      mload(0x40)\n      dup1\n      swap2\n      sub\n      swap1\n      revert\n    tag_130:\n        /* \"contracts/PollBetContract.sol\":2991:2995  poll */\n      dup1\n        /* \"contracts/PollBetContract.sol\":2991:3005  poll.startTime */\n      0x02\n      add\n      sload\n        /* \"contracts/PollBetContract.sol\":2972:2987  block.timestamp */\n      timestamp\n        /* \"contracts/PollBetContract.sol\":2972:3005  block.timestamp >= poll.startTime */\n      lt\n      iszero\n        /* \"contracts/PollBetContract.sol\":2972:3040  block.timestamp >= poll.startTime && block.timestamp <= poll.endTime */\n      dup1\n      iszero\n      tag_133\n      jumpi\n      pop\n        /* \"contracts/PollBetContract.sol\":3028:3032  poll */\n      dup1\n        /* \"contracts/PollBetContract.sol\":3028:3040  poll.endTime */\n      0x03\n      add\n      sload\n        /* \"contracts/PollBetContract.sol\":3009:3024  block.timestamp */\n      timestamp\n        /* \"contracts/PollBetContract.sol\":3009:3040  block.timestamp <= poll.endTime */\n      gt\n      iszero\n        /* \"contracts/PollBetContract.sol\":2972:3040  block.timestamp >= poll.startTime && block.timestamp <= poll.endTime */\n    tag_133:\n        /* \"contracts/PollBetContract.sol\":2964:3063  require(block.timestamp >= poll.startTime && block.timestamp <= poll.endTime, \"Poll is not active\") */\n      tag_134\n      jumpi\n      mload(0x40)\n      0x08c379a000000000000000000000000000000000000000000000000000000000\n      dup2\n      mstore\n      0x04\n      add\n      tag_135\n      swap1\n      tag_136\n      jump\t// in\n    tag_135:\n      mload(0x40)\n      dup1\n      swap2\n      sub\n      swap1\n      revert\n    tag_134:\n        /* \"contracts/PollBetContract.sol\":3096:3097  0 */\n      0x00\n        /* \"contracts/PollBetContract.sol\":3081:3092  _pollChoice */\n      dup3\n        /* \"contracts/PollBetContract.sol\":3081:3097  _pollChoice >= 0 */\n      lt\n      iszero\n        /* \"contracts/PollBetContract.sol\":3081:3134  _pollChoice >= 0 && _pollChoice < poll.choices.length */\n      dup1\n      iszero\n      tag_137\n      jumpi\n      pop\n        /* \"contracts/PollBetContract.sol\":3115:3119  poll */\n      dup1\n        /* \"contracts/PollBetContract.sol\":3115:3127  poll.choices */\n      0x04\n      add\n        /* \"contracts/PollBetContract.sol\":3115:3134  poll.choices.length */\n      dup1\n      sload\n      swap1\n      pop\n        /* \"contracts/PollBetContract.sol\":3101:3112  _pollChoice */\n      dup3\n        /* \"contracts/PollBetContract.sol\":3101:3134  _pollChoice < poll.choices.length */\n      lt\n        /* \"contracts/PollBetContract.sol\":3081:3134  _pollChoice >= 0 && _pollChoice < poll.choices.length */\n    tag_137:\n        /* \"contracts/PollBetContract.sol\":3073:3153  require(_pollChoice >= 0 && _pollChoice < poll.choices.length, \"Invalid choice\") */\n      tag_138\n      jumpi\n      mload(0x40)\n      0x08c379a000000000000000000000000000000000000000000000000000000000\n      dup2\n      mstore\n      0x04\n      add\n      tag_139\n      swap1\n      tag_140\n      jump\t// in\n    tag_139:\n      mload(0x40)\n      dup1\n      swap2\n      sub\n      swap1\n      revert\n    tag_138:\n        /* \"contracts/PollBetContract.sol\":3196:3200  true */\n      0x01\n        /* \"contracts/PollBetContract.sol\":3164:3172  hasVoted */\n      0x07\n        /* \"contracts/PollBetContract.sol\":3164:3181  hasVoted[_pollId] */\n      0x00\n        /* \"contracts/PollBetContract.sol\":3173:3180  _pollId */\n      dup6\n        /* \"contracts/PollBetContract.sol\":3164:3181  hasVoted[_pollId] */\n      dup2\n      mstore\n      0x20\n      add\n      swap1\n      dup2\n      mstore\n      0x20\n      add\n      0x00\n      keccak256\n        /* \"contracts/PollBetContract.sol\":3164:3193  hasVoted[_pollId][msg.sender] */\n      0x00\n        /* \"contracts/PollBetContract.sol\":3182:3192  msg.sender */\n      caller\n        /* \"contracts/PollBetContract.sol\":3164:3193  hasVoted[_pollId][msg.sender] */\n      0xffffffffffffffffffffffffffffffffffffffff\n      and\n      0xffffffffffffffffffffffffffffffffffffffff\n      and\n      dup2\n      mstore\n      0x20\n      add\n      swap1\n      dup2\n      mstore\n      0x20\n      add\n      0x00\n      keccak256\n      0x00\n        /* \"contracts/PollBetContract.sol\":3164:3200  hasVoted[_pollId][msg.sender] = true */\n      0x0100\n      exp\n      dup2\n      sload\n      dup2\n      0xff\n      mul\n      not\n      and\n      swap1\n      dup4\n      iszero\n      iszero\n      mul\n      or\n      swap1\n      sstore\n      pop\n        /* \"contracts/PollBetContract.sol\":3211:3232  Voter memory newVoter */\n      0x00\n        /* \"contracts/PollBetContract.sol\":3235:3352  Voter({... */\n      mload(0x40)\n      dup1\n      0x60\n      add\n      0x40\n      mstore\n      dup1\n        /* \"contracts/PollBetContract.sol\":3263:3270  _pollId */\n      dup6\n        /* \"contracts/PollBetContract.sol\":3235:3352  Voter({... */\n      dup2\n      mstore\n      0x20\n      add\n        /* \"contracts/PollBetContract.sol\":3298:3308  msg.sender */\n      caller\n        /* \"contracts/PollBetContract.sol\":3235:3352  Voter({... */\n      0xffffffffffffffffffffffffffffffffffffffff\n      and\n      dup2\n      mstore\n      0x20\n      add\n        /* \"contracts/PollBetContract.sol\":3330:3341  _pollChoice */\n      dup5\n        /* \"contracts/PollBetContract.sol\":3235:3352  Voter({... */\n      dup2\n      mstore\n      pop\n        /* \"contracts/PollBetContract.sol\":3211:3352  Voter memory newVoter = Voter({... */\n      swap1\n      pop\n        /* \"contracts/PollBetContract.sol\":3392:3400  newVoter */\n      dup1\n        /* \"contracts/PollBetContract.sol\":3362:3368  voters */\n      0x08\n        /* \"contracts/PollBetContract.sol\":3362:3377  voters[_pollId] */\n      0x00\n        /* \"contracts/PollBetContract.sol\":3369:3376  _pollId */\n      dup7\n        /* \"contracts/PollBetContract.sol\":3362:3377  voters[_pollId] */\n      dup2\n      mstore\n      0x20\n      add\n      swap1\n      dup2\n      mstore\n      0x20\n      add\n      0x00\n      keccak256\n        /* \"contracts/PollBetContract.sol\":3362:3389  voters[_pollId][msg.sender] */\n      0x00\n        /* \"contracts/PollBetContract.sol\":3378:3388  msg.sender */\n      caller\n        /* \"contracts/PollBetContract.sol\":3362:3389  voters[_pollId][msg.sender] */\n      0xffffffffffffffffffffffffffffffffffffffff\n      and\n      0xffffffffffffffffffffffffffffffffffffffff\n      and\n      dup2\n      mstore\n      0x20\n      add\n      swap1\n      dup2\n      mstore\n      0x20\n      add\n      0x00\n      keccak256\n        /* \"contracts/PollBetContract.sol\":3362:3400  voters[_pollId][msg.sender] = newVoter */\n      0x00\n      dup3\n      add\n      mload\n      dup2\n      0x00\n      add\n      sstore\n      0x20\n      dup3\n      add\n      mload\n      dup2\n      0x01\n      add\n      exp(0x0100, 0x00)\n      dup2\n      sload\n      dup2\n      0xffffffffffffffffffffffffffffffffffffffff\n      mul\n      not\n      and\n      swap1\n      dup4\n      0xffffffffffffffffffffffffffffffffffffffff\n      and\n      mul\n      or\n      swap1\n      sstore\n      pop\n      0x40\n      dup3\n      add\n      mload\n      dup2\n      0x02\n      add\n      sstore\n      swap1\n      pop\n      pop\n        /* \"contracts/PollBetContract.sol\":3410:3448  addVoterAddressSet(_pollId,msg.sender) */\n      tag_141\n        /* \"contracts/PollBetContract.sol\":3429:3436  _pollId */\n      dup5\n        /* \"contracts/PollBetContract.sol\":3437:3447  msg.sender */\n      caller\n        /* \"contracts/PollBetContract.sol\":3410:3428  addVoterAddressSet */\n      tag_142\n        /* \"contracts/PollBetContract.sol\":3410:3448  addVoterAddressSet(_pollId,msg.sender) */\n      jump\t// in\n    tag_141:\n        /* \"contracts/PollBetContract.sol\":3484:3494  msg.sender */\n      caller\n        /* \"contracts/PollBetContract.sol\":3464:3508  VoteCasted(_pollId, msg.sender, _pollChoice) */\n      0xffffffffffffffffffffffffffffffffffffffff\n      and\n        /* \"contracts/PollBetContract.sol\":3475:3482  _pollId */\n      dup5\n        /* \"contracts/PollBetContract.sol\":3464:3508  VoteCasted(_pollId, msg.sender, _pollChoice) */\n      0xe7ee74ca1f4bb1b82b14f87794c45b3e59c39e372b862fb97a6316b43355b69e\n        /* \"contracts/PollBetContract.sol\":3496:3507  _pollChoice */\n      dup6\n        /* \"contracts/PollBetContract.sol\":3464:3508  VoteCasted(_pollId, msg.sender, _pollChoice) */\n      mload(0x40)\n      tag_143\n      swap2\n      swap1\n      tag_29\n      jump\t// in\n    tag_143:\n      mload(0x40)\n      dup1\n      swap2\n      sub\n      swap1\n      log3\n        /* \"contracts/PollBetContract.sol\":2787:3515  {... */\n      pop\n      pop\n        /* \"contracts/PollBetContract.sol\":2728:3515  function voteOnPoll(uint _pollId, uint _pollChoice) public {... */\n      pop\n      pop\n      jump\t// out\n        /* \"contracts/PollBetContract.sol\":4787:4900  function getBetCount(uint _pollId) public view returns(uint) {... */\n    tag_62:\n        /* \"contracts/PollBetContract.sol\":4842:4846  uint */\n      0x00\n        /* \"contracts/PollBetContract.sol\":4865:4877  pollBetsList */\n      0x06\n        /* \"contracts/PollBetContract.sol\":4865:4886  pollBetsList[_pollId] */\n      0x00\n        /* \"contracts/PollBetContract.sol\":4878:4885  _pollId */\n      dup4\n        /* \"contracts/PollBetContract.sol\":4865:4886  pollBetsList[_pollId] */\n      dup2\n      mstore\n      0x20\n      add\n      swap1\n      dup2\n      mstore\n      0x20\n      add\n      0x00\n      keccak256\n        /* \"contracts/PollBetContract.sol\":4865:4893  pollBetsList[_pollId].length */\n      dup1\n      sload\n      swap1\n      pop\n        /* \"contracts/PollBetContract.sol\":4858:4893  return pollBetsList[_pollId].length */\n      swap1\n      pop\n        /* \"contracts/PollBetContract.sol\":4787:4900  function getBetCount(uint _pollId) public view returns(uint) {... */\n      swap2\n      swap1\n      pop\n      jump\t// out\n        /* \"contracts/PollBetContract.sol\":5056:5094  function distributeRewards() public {} */\n    tag_66:\n      jump\t// out\n        /* \"contracts/PollBetContract.sol\":2333:2721  function getPollVotersCount(uint _pollId) public view returns (uint) {... */\n    tag_70:\n        /* \"contracts/PollBetContract.sol\":2396:2400  uint */\n      0x00\n        /* \"contracts/PollBetContract.sol\":2412:2422  uint count */\n      dup1\n        /* \"contracts/PollBetContract.sol\":2425:2426  0 */\n      0x00\n        /* \"contracts/PollBetContract.sol\":2412:2426  uint count = 0 */\n      swap1\n      pop\n        /* \"contracts/PollBetContract.sol\":2436:2483  EnumerableSet.AddressSet storage voterAddresses */\n      0x00\n        /* \"contracts/PollBetContract.sol\":2486:2502  voterAddressSets */\n      0x09\n        /* \"contracts/PollBetContract.sol\":2486:2511  voterAddressSets[_pollId] */\n      0x00\n        /* \"contracts/PollBetContract.sol\":2503:2510  _pollId */\n      dup6\n        /* \"contracts/PollBetContract.sol\":2486:2511  voterAddressSets[_pollId] */\n      dup2\n      mstore\n      0x20\n      add\n      swap1\n      dup2\n      mstore\n      0x20\n      add\n      0x00\n      keccak256\n        /* \"contracts/PollBetContract.sol\":2436:2511  EnumerableSet.AddressSet storage voterAddresses = voterAddressSets[_pollId] */\n      swap1\n      pop\n        /* \"contracts/PollBetContract.sol\":2527:2533  uint i */\n      0x00\n        /* \"contracts/PollBetContract.sol\":2522:2692  for (uint i = 0; i < EnumerableSet.length(voterAddresses); i++) {... */\n    tag_147:\n        /* \"contracts/PollBetContract.sol\":2543:2579  EnumerableSet.length(voterAddresses) */\n      tag_150\n        /* \"contracts/PollBetContract.sol\":2564:2578  voterAddresses */\n      dup3\n        /* \"contracts/PollBetContract.sol\":2543:2563  EnumerableSet.length */\n      tag_151\n        /* \"contracts/PollBetContract.sol\":2543:2579  EnumerableSet.length(voterAddresses) */\n      jump\t// in\n    tag_150:\n        /* \"contracts/PollBetContract.sol\":2539:2540  i */\n      dup2\n        /* \"contracts/PollBetContract.sol\":2539:2579  i < EnumerableSet.length(voterAddresses) */\n      lt\n        /* \"contracts/PollBetContract.sol\":2522:2692  for (uint i = 0; i < EnumerableSet.length(voterAddresses); i++) {... */\n      iszero\n      tag_148\n      jumpi\n        /* \"contracts/PollBetContract.sol\":2674:2681  count++ */\n      dup3\n      dup1\n      tag_152\n      swap1\n      tag_153\n      jump\t// in\n    tag_152:\n      swap4\n      pop\n      pop\n        /* \"contracts/PollBetContract.sol\":2581:2584  i++ */\n      dup1\n      dup1\n      tag_154\n      swap1\n      tag_153\n      jump\t// in\n    tag_154:\n      swap2\n      pop\n      pop\n        /* \"contracts/PollBetContract.sol\":2522:2692  for (uint i = 0; i < EnumerableSet.length(voterAddresses); i++) {... */\n      jump(tag_147)\n    tag_148:\n      pop\n        /* \"contracts/PollBetContract.sol\":2709:2714  count */\n      dup2\n        /* \"contracts/PollBetContract.sol\":2702:2714  return count */\n      swap3\n      pop\n      pop\n      pop\n        /* \"contracts/PollBetContract.sol\":2333:2721  function getPollVotersCount(uint _pollId) public view returns (uint) {... */\n      swap2\n      swap1\n      pop\n      jump\t// out\n        /* \"contracts/PollBetContract.sol\":1296:1338  mapping(uint => uint[]) public pollWinners */\n    tag_75:\n      mstore(0x20, 0x04)\n      dup2\n      0x00\n      mstore\n      keccak256(0x00, 0x40)\n      dup2\n      dup2\n      sload\n      dup2\n      lt\n      tag_155\n      jumpi\n      0x00\n      dup1\n      revert\n    tag_155:\n      swap1\n      0x00\n      mstore\n      keccak256(0x00, 0x20)\n      add\n      0x00\n      swap2\n      pop\n      swap2\n      pop\n      pop\n      sload\n      dup2\n      jump\t// out\n        /* \"contracts/PollBetContract.sol\":1088:1109  uint public pollCount */\n    tag_79:\n      sload(0x00)\n      dup2\n      jump\t// out\n        /* \"contracts/PollBetContract.sol\":3521:4781  function betOnPoll(uint _pollId, bytes32 _pollChoice) public payable { // Data location must be \"memory\" or \"calldata\" for parameter in function, but none was given... */\n    tag_84:\n        /* \"contracts/PollBetContract.sol\":3721:3726  polls */\n      0x0a\n        /* \"contracts/PollBetContract.sol\":3727:3734  _pollId */\n      dup3\n        /* \"contracts/PollBetContract.sol\":3721:3735  polls[_pollId] */\n      dup2\n      sload\n      dup2\n      lt\n      tag_158\n      jumpi\n      tag_159\n      tag_125\n      jump\t// in\n    tag_159:\n    tag_158:\n      swap1\n      0x00\n      mstore\n      keccak256(0x00, 0x20)\n      swap1\n      0x06\n      mul\n      add\n        /* \"contracts/PollBetContract.sol\":3721:3745  polls[_pollId].startTime */\n      0x02\n      add\n      sload\n        /* \"contracts/PollBetContract.sol\":3702:3717  block.timestamp */\n      timestamp\n        /* \"contracts/PollBetContract.sol\":3702:3745  block.timestamp >= polls[_pollId].startTime */\n      lt\n      iszero\n        /* \"contracts/PollBetContract.sol\":3694:3796  require(block.timestamp >= polls[_pollId].startTime, \"Poll has not started yet, you cannot bet on it\") */\n      tag_161\n      jumpi\n      mload(0x40)\n      0x08c379a000000000000000000000000000000000000000000000000000000000\n      dup2\n      mstore\n      0x04\n      add\n      tag_162\n      swap1\n      tag_163\n      jump\t// in\n    tag_162:\n      mload(0x40)\n      dup1\n      swap2\n      sub\n      swap1\n      revert\n    tag_161:\n        /* \"contracts/PollBetContract.sol\":3832:3837  polls */\n      0x0a\n        /* \"contracts/PollBetContract.sol\":3838:3845  _pollId */\n      dup3\n        /* \"contracts/PollBetContract.sol\":3832:3846  polls[_pollId] */\n      dup2\n      sload\n      dup2\n      lt\n      tag_164\n      jumpi\n      tag_165\n      tag_125\n      jump\t// in\n    tag_165:\n    tag_164:\n      swap1\n      0x00\n      mstore\n      keccak256(0x00, 0x20)\n      swap1\n      0x06\n      mul\n      add\n        /* \"contracts/PollBetContract.sol\":3832:3854  polls[_pollId].endTime */\n      0x03\n      add\n      sload\n        /* \"contracts/PollBetContract.sol\":3814:3829  block.timestamp */\n      timestamp\n        /* \"contracts/PollBetContract.sol\":3814:3854  block.timestamp < polls[_pollId].endTime */\n      lt\n        /* \"contracts/PollBetContract.sol\":3806:3903  require(block.timestamp < polls[_pollId].endTime, \"Poll has ended, you cannot bet on it anymore\") */\n      tag_167\n      jumpi\n      mload(0x40)\n      0x08c379a000000000000000000000000000000000000000000000000000000000\n      dup2\n      mstore\n      0x04\n      add\n      tag_168\n      swap1\n      tag_169\n      jump\t// in\n    tag_168:\n      mload(0x40)\n      dup1\n      swap2\n      sub\n      swap1\n      revert\n    tag_167:\n        /* \"contracts/PollBetContract.sol\":3933:3934  0 */\n      0x00\n        /* \"contracts/PollBetContract.sol\":3921:3930  msg.value */\n      callvalue\n        /* \"contracts/PollBetContract.sol\":3921:3934  msg.value > 0 */\n      gt\n        /* \"contracts/PollBetContract.sol\":3913:3969  require(msg.value > 0, \"Amount must be greater than 0!\") */\n      tag_170\n      jumpi\n      mload(0x40)\n      0x08c379a000000000000000000000000000000000000000000000000000000000\n      dup2\n      mstore\n      0x04\n      add\n      tag_171\n      swap1\n      tag_172\n      jump\t// in\n    tag_171:\n      mload(0x40)\n      dup1\n      swap2\n      sub\n      swap1\n      revert\n    tag_170:\n        /* \"contracts/PollBetContract.sol\":4019:4037  uint pollChoiceInt */\n      0x00\n        /* \"contracts/PollBetContract.sol\":4052:4058  uint i */\n      dup1\n        /* \"contracts/PollBetContract.sol\":4061:4062  0 */\n      0x00\n        /* \"contracts/PollBetContract.sol\":4052:4062  uint i = 0 */\n      swap1\n      pop\n        /* \"contracts/PollBetContract.sol\":4047:4265  for (uint i = 0; i < polls[_pollId].choices.length; i++) {... */\n    tag_173:\n        /* \"contracts/PollBetContract.sol\":4068:4073  polls */\n      0x0a\n        /* \"contracts/PollBetContract.sol\":4074:4081  _pollId */\n      dup5\n        /* \"contracts/PollBetContract.sol\":4068:4082  polls[_pollId] */\n      dup2\n      sload\n      dup2\n      lt\n      tag_176\n      jumpi\n      tag_177\n      tag_125\n      jump\t// in\n    tag_177:\n    tag_176:\n      swap1\n      0x00\n      mstore\n      keccak256(0x00, 0x20)\n      swap1\n      0x06\n      mul\n      add\n        /* \"contracts/PollBetContract.sol\":4068:4090  polls[_pollId].choices */\n      0x04\n      add\n        /* \"contracts/PollBetContract.sol\":4068:4097  polls[_pollId].choices.length */\n      dup1\n      sload\n      swap1\n      pop\n        /* \"contracts/PollBetContract.sol\":4064:4065  i */\n      dup2\n        /* \"contracts/PollBetContract.sol\":4064:4097  i < polls[_pollId].choices.length */\n      lt\n        /* \"contracts/PollBetContract.sol\":4047:4265  for (uint i = 0; i < polls[_pollId].choices.length; i++) {... */\n      iszero\n      tag_174\n      jumpi\n        /* \"contracts/PollBetContract.sol\":4169:4180  _pollChoice */\n      dup3\n        /* \"contracts/PollBetContract.sol\":4138:4143  polls */\n      0x0a\n        /* \"contracts/PollBetContract.sol\":4144:4151  _pollId */\n      dup6\n        /* \"contracts/PollBetContract.sol\":4138:4152  polls[_pollId] */\n      dup2\n      sload\n      dup2\n      lt\n      tag_179\n      jumpi\n      tag_180\n      tag_125\n      jump\t// in\n    tag_180:\n    tag_179:\n      swap1\n      0x00\n      mstore\n      keccak256(0x00, 0x20)\n      swap1\n      0x06\n      mul\n      add\n        /* \"contracts/PollBetContract.sol\":4138:4160  polls[_pollId].choices */\n      0x04\n      add\n        /* \"contracts/PollBetContract.sol\":4161:4162  i */\n      dup3\n        /* \"contracts/PollBetContract.sol\":4138:4163  polls[_pollId].choices[i] */\n      dup2\n      sload\n      dup2\n      lt\n      tag_182\n      jumpi\n      tag_183\n      tag_125\n      jump\t// in\n    tag_183:\n    tag_182:\n      swap1\n      0x00\n      mstore\n      keccak256(0x00, 0x20)\n      add\n        /* \"contracts/PollBetContract.sol\":4122:4165  keccak256(bytes(polls[_pollId].choices[i])) */\n      mload(0x40)\n      tag_185\n      swap2\n      swap1\n      tag_186\n      jump\t// in\n    tag_185:\n      mload(0x40)\n      dup1\n      swap2\n      sub\n      swap1\n      keccak256\n        /* \"contracts/PollBetContract.sol\":4122:4180  keccak256(bytes(polls[_pollId].choices[i])) == _pollChoice */\n      sub\n        /* \"contracts/PollBetContract.sol\":4118:4255  if (keccak256(bytes(polls[_pollId].choices[i])) == _pollChoice) {... */\n      tag_187\n      jumpi\n        /* \"contracts/PollBetContract.sol\":4216:4217  i */\n      dup1\n        /* \"contracts/PollBetContract.sol\":4200:4217  pollChoiceInt = i */\n      swap2\n      pop\n        /* \"contracts/PollBetContract.sol\":4235:4240  break */\n      jump(tag_174)\n        /* \"contracts/PollBetContract.sol\":4118:4255  if (keccak256(bytes(polls[_pollId].choices[i])) == _pollChoice) {... */\n    tag_187:\n        /* \"contracts/PollBetContract.sol\":4099:4102  i++ */\n      dup1\n      dup1\n      tag_188\n      swap1\n      tag_153\n      jump\t// in\n    tag_188:\n      swap2\n      pop\n      pop\n        /* \"contracts/PollBetContract.sol\":4047:4265  for (uint i = 0; i < polls[_pollId].choices.length; i++) {... */\n      jump(tag_173)\n    tag_174:\n      pop\n        /* \"contracts/PollBetContract.sol\":4298:4299  0 */\n      0x00\n        /* \"contracts/PollBetContract.sol\":4282:4295  pollChoiceInt */\n      dup2\n        /* \"contracts/PollBetContract.sol\":4282:4299  pollChoiceInt > 0 */\n      gt\n        /* \"contracts/PollBetContract.sol\":4274:4372  require(pollChoiceInt > 0, \"Invalid poll choice, please select one of the poll choices to bet on\") */\n      tag_189\n      jumpi\n      mload(0x40)\n      0x08c379a000000000000000000000000000000000000000000000000000000000\n      dup2\n      mstore\n      0x04\n      add\n      tag_190\n      swap1\n      tag_191\n      jump\t// in\n    tag_190:\n      mload(0x40)\n      dup1\n      swap2\n      sub\n      swap1\n      revert\n    tag_189:\n        /* \"contracts/PollBetContract.sol\":4408:4417  msg.value */\n      callvalue\n        /* \"contracts/PollBetContract.sol\":4383:4395  pollBetTotal */\n      0x02\n        /* \"contracts/PollBetContract.sol\":4383:4404  pollBetTotal[_pollId] */\n      0x00\n        /* \"contracts/PollBetContract.sol\":4396:4403  _pollId */\n      dup6\n        /* \"contracts/PollBetContract.sol\":4383:4404  pollBetTotal[_pollId] */\n      dup2\n      mstore\n      0x20\n      add\n      swap1\n      dup2\n      mstore\n      0x20\n      add\n      0x00\n      keccak256\n      0x00\n        /* \"contracts/PollBetContract.sol\":4383:4417  pollBetTotal[_pollId] += msg.value */\n      dup3\n      dup3\n      sload\n      tag_192\n      swap2\n      swap1\n      tag_193\n      jump\t// in\n    tag_192:\n      swap3\n      pop\n      pop\n      dup2\n      swap1\n      sstore\n      pop\n        /* \"contracts/PollBetContract.sol\":4460:4469  msg.value */\n      callvalue\n        /* \"contracts/PollBetContract.sol\":4427:4435  pollBets */\n      0x03\n        /* \"contracts/PollBetContract.sol\":4427:4444  pollBets[_pollId] */\n      0x00\n        /* \"contracts/PollBetContract.sol\":4436:4443  _pollId */\n      dup6\n        /* \"contracts/PollBetContract.sol\":4427:4444  pollBets[_pollId] */\n      dup2\n      mstore\n      0x20\n      add\n      swap1\n      dup2\n      mstore\n      0x20\n      add\n      0x00\n      keccak256\n        /* \"contracts/PollBetContract.sol\":4427:4456  pollBets[_pollId][msg.sender] */\n      0x00\n        /* \"contracts/PollBetContract.sol\":4445:4455  msg.sender */\n      caller\n        /* \"contracts/PollBetContract.sol\":4427:4456  pollBets[_pollId][msg.sender] */\n      0xffffffffffffffffffffffffffffffffffffffff\n      and\n      0xffffffffffffffffffffffffffffffffffffffff\n      and\n      dup2\n      mstore\n      0x20\n      add\n      swap1\n      dup2\n      mstore\n      0x20\n      add\n      0x00\n      keccak256\n      0x00\n        /* \"contracts/PollBetContract.sol\":4427:4469  pollBets[_pollId][msg.sender] += msg.value */\n      dup3\n      dup3\n      sload\n      tag_194\n      swap2\n      swap1\n      tag_193\n      jump\t// in\n    tag_194:\n      swap3\n      pop\n      pop\n      dup2\n      swap1\n      sstore\n      pop\n        /* \"contracts/PollBetContract.sol\":4479:4487  betCount */\n      0x01\n      0x00\n        /* \"contracts/PollBetContract.sol\":4479:4489  betCount++ */\n      dup2\n      sload\n      dup1\n      swap3\n      swap2\n      swap1\n      tag_195\n      swap1\n      tag_153\n      jump\t// in\n    tag_195:\n      swap2\n      swap1\n      pop\n      sstore\n      pop\n        /* \"contracts/PollBetContract.sol\":4500:4512  pollBetsList */\n      0x06\n        /* \"contracts/PollBetContract.sol\":4500:4521  pollBetsList[_pollId] */\n      0x00\n        /* \"contracts/PollBetContract.sol\":4513:4520  _pollId */\n      dup5\n        /* \"contracts/PollBetContract.sol\":4500:4521  pollBetsList[_pollId] */\n      dup2\n      mstore\n      0x20\n      add\n      swap1\n      dup2\n      mstore\n      0x20\n      add\n      0x00\n      keccak256\n        /* \"contracts/PollBetContract.sol\":4527:4686  Bet({... */\n      mload(0x40)\n      dup1\n      0x80\n      add\n      0x40\n      mstore\n      dup1\n        /* \"contracts/PollBetContract.sol\":4553:4560  _pollId */\n      dup6\n        /* \"contracts/PollBetContract.sol\":4527:4686  Bet({... */\n      dup2\n      mstore\n      0x20\n      add\n        /* \"contracts/PollBetContract.sol\":4586:4614  bytes32ToString(_pollChoice) */\n      tag_196\n        /* \"contracts/PollBetContract.sol\":4602:4613  _pollChoice */\n      dup6\n        /* \"contracts/PollBetContract.sol\":4586:4601  bytes32ToString */\n      tag_197\n        /* \"contracts/PollBetContract.sol\":4586:4614  bytes32ToString(_pollChoice) */\n      jump\t// in\n    tag_196:\n        /* \"contracts/PollBetContract.sol\":4527:4686  Bet({... */\n      dup2\n      mstore\n      0x20\n      add\n        /* \"contracts/PollBetContract.sol\":4634:4644  msg.sender */\n      caller\n        /* \"contracts/PollBetContract.sol\":4527:4686  Bet({... */\n      0xffffffffffffffffffffffffffffffffffffffff\n      and\n      dup2\n      mstore\n      0x20\n      add\n        /* \"contracts/PollBetContract.sol\":4666:4675  msg.value */\n      callvalue\n        /* \"contracts/PollBetContract.sol\":4527:4686  Bet({... */\n      dup2\n      mstore\n      pop\n        /* \"contracts/PollBetContract.sol\":4500:4687  pollBetsList[_pollId].push(Bet({... */\n      swap1\n      dup1\n      0x01\n      dup2\n      sload\n      add\n      dup1\n      dup3\n      sstore\n      dup1\n      swap2\n      pop\n      pop\n      0x01\n      swap1\n      sub\n      swap1\n      0x00\n      mstore\n      keccak256(0x00, 0x20)\n      swap1\n      0x04\n      mul\n      add\n      0x00\n      swap1\n      swap2\n      swap1\n      swap2\n      swap1\n      swap2\n      pop\n      0x00\n      dup3\n      add\n      mload\n      dup2\n      0x00\n      add\n      sstore\n      0x20\n      dup3\n      add\n      mload\n      dup2\n      0x01\n      add\n      swap1\n      dup2\n      tag_199\n      swap2\n      swap1\n      tag_200\n      jump\t// in\n    tag_199:\n      pop\n      0x40\n      dup3\n      add\n      mload\n      dup2\n      0x02\n      add\n      exp(0x0100, 0x00)\n      dup2\n      sload\n      dup2\n      0xffffffffffffffffffffffffffffffffffffffff\n      mul\n      not\n      and\n      swap1\n      dup4\n      0xffffffffffffffffffffffffffffffffffffffff\n      and\n      mul\n      or\n      swap1\n      sstore\n      pop\n      0x60\n      dup3\n      add\n      mload\n      dup2\n      0x03\n      add\n      sstore\n      pop\n      pop\n        /* \"contracts/PollBetContract.sol\":4752:4762  msg.sender */\n      caller\n        /* \"contracts/PollBetContract.sol\":4703:4774  BetPlaced(_pollId, bytes32ToString(_pollChoice), msg.sender, msg.value) */\n      0xffffffffffffffffffffffffffffffffffffffff\n      and\n        /* \"contracts/PollBetContract.sol\":4713:4720  _pollId */\n      dup4\n        /* \"contracts/PollBetContract.sol\":4703:4774  BetPlaced(_pollId, bytes32ToString(_pollChoice), msg.sender, msg.value) */\n      0xfa643037cee917ec3049f1ba2bfb5d4df493f0b6db3ed68f3716d11233494e7d\n        /* \"contracts/PollBetContract.sol\":4722:4750  bytes32ToString(_pollChoice) */\n      tag_201\n        /* \"contracts/PollBetContract.sol\":4738:4749  _pollChoice */\n      dup6\n        /* \"contracts/PollBetContract.sol\":4722:4737  bytes32ToString */\n      tag_197\n        /* \"contracts/PollBetContract.sol\":4722:4750  bytes32ToString(_pollChoice) */\n      jump\t// in\n    tag_201:\n        /* \"contracts/PollBetContract.sol\":4764:4773  msg.value */\n      callvalue\n        /* \"contracts/PollBetContract.sol\":4703:4774  BetPlaced(_pollId, bytes32ToString(_pollChoice), msg.sender, msg.value) */\n      mload(0x40)\n      tag_202\n      swap3\n      swap2\n      swap1\n      tag_203\n      jump\t// in\n    tag_202:\n      mload(0x40)\n      dup1\n      swap2\n      sub\n      swap1\n      log3\n        /* \"contracts/PollBetContract.sol\":3590:4781  { // Data location must be \"memory\" or \"calldata\" for parameter in function, but none was given... */\n      pop\n        /* \"contracts/PollBetContract.sol\":3521:4781  function betOnPoll(uint _pollId, bytes32 _pollChoice) public payable { // Data location must be \"memory\" or \"calldata\" for parameter in function, but none was given... */\n      pop\n      pop\n      jump\t// out\n        /* \"contracts/PollBetContract.sol\":1501:1557  mapping(uint => mapping(address => Voter)) public voters */\n    tag_88:\n      mstore(0x20, 0x08)\n      dup2\n      0x00\n      mstore\n      mstore(0x20, keccak256(0x00, 0x40))\n      dup1\n      0x00\n      mstore\n      keccak256(0x00, 0x40)\n      0x00\n      swap2\n      pop\n      swap2\n      pop\n      pop\n      dup1\n      0x00\n      add\n      sload\n      swap1\n      dup1\n      0x01\n      add\n      0x00\n      swap1\n      sload\n      swap1\n      0x0100\n      exp\n      swap1\n      div\n      0xffffffffffffffffffffffffffffffffffffffff\n      and\n      swap1\n      dup1\n      0x02\n      add\n      sload\n      swap1\n      pop\n      dup4\n      jump\t// out\n        /* \"contracts/PollBetContract.sol\":1637:1656  Poll[] public polls */\n    tag_94:\n      0x0a\n      dup2\n      dup2\n      sload\n      dup2\n      lt\n      tag_204\n      jumpi\n      0x00\n      dup1\n      revert\n    tag_204:\n      swap1\n      0x00\n      mstore\n      keccak256(0x00, 0x20)\n      swap1\n      0x06\n      mul\n      add\n      0x00\n      swap2\n      pop\n      swap1\n      pop\n      dup1\n      0x00\n      add\n      sload\n      swap1\n      dup1\n      0x01\n      add\n      0x00\n      swap1\n      sload\n      swap1\n      0x0100\n      exp\n      swap1\n      div\n      0xffffffffffffffffffffffffffffffffffffffff\n      and\n      swap1\n      dup1\n      0x02\n      add\n      sload\n      swap1\n      dup1\n      0x03\n      add\n      sload\n      swap1\n      dup1\n      0x05\n      add\n      0x00\n      swap1\n      sload\n      swap1\n      0x0100\n      exp\n      swap1\n      div\n      0xff\n      and\n      swap1\n      pop\n      dup6\n      jump\t// out\n        /* \"contracts/PollBetContract.sol\":1115:1135  uint public betCount */\n    tag_99:\n      sload(0x01)\n      dup2\n      jump\t// out\n        /* \"contracts/PollBetContract.sol\":1726:2327  function createPoll(uint _startTime, uint _endTime, string[] memory _options) public {... */\n    tag_105:\n        /* \"contracts/PollBetContract.sol\":1840:1850  _startTime */\n      dup3\n        /* \"contracts/PollBetContract.sol\":1829:1837  _endTime */\n      dup3\n        /* \"contracts/PollBetContract.sol\":1829:1850  _endTime > _startTime */\n      gt\n        /* \"contracts/PollBetContract.sol\":1821:1876  require(_endTime > _startTime, \"Invalid poll end time\") */\n      tag_207\n      jumpi\n      mload(0x40)\n      0x08c379a000000000000000000000000000000000000000000000000000000000\n      dup2\n      mstore\n      0x04\n      add\n      tag_208\n      swap1\n      tag_209\n      jump\t// in\n    tag_208:\n      mload(0x40)\n      dup1\n      swap2\n      sub\n      swap1\n      revert\n    tag_207:\n        /* \"contracts/PollBetContract.sol\":1912:1913  1 */\n      0x01\n        /* \"contracts/PollBetContract.sol\":1894:1902  _options */\n      dup2\n        /* \"contracts/PollBetContract.sol\":1894:1909  _options.length */\n      mload\n        /* \"contracts/PollBetContract.sol\":1894:1913  _options.length > 1 */\n      gt\n        /* \"contracts/PollBetContract.sol\":1886:1947  require(_options.length > 1, \"At least two options required\") */\n      tag_210\n      jumpi\n      mload(0x40)\n      0x08c379a000000000000000000000000000000000000000000000000000000000\n      dup2\n      mstore\n      0x04\n      add\n      tag_211\n      swap1\n      tag_212\n      jump\t// in\n    tag_211:\n      mload(0x40)\n      dup1\n      swap2\n      sub\n      swap1\n      revert\n    tag_210:\n        /* \"contracts/PollBetContract.sol\":1958:1967  pollCount */\n      0x00\n      dup1\n        /* \"contracts/PollBetContract.sol\":1958:1969  pollCount++ */\n      dup2\n      sload\n      dup1\n      swap3\n      swap2\n      swap1\n      tag_213\n      swap1\n      tag_153\n      jump\t// in\n    tag_213:\n      swap2\n      swap1\n      pop\n      sstore\n      pop\n        /* \"contracts/PollBetContract.sol\":1980:1999  Poll memory newPoll */\n      0x00\n        /* \"contracts/PollBetContract.sol\":2002:2201  Poll({... */\n      mload(0x40)\n      dup1\n      0xc0\n      add\n      0x40\n      mstore\n      dup1\n        /* \"contracts/PollBetContract.sol\":2025:2034  pollCount */\n      sload(0x00)\n        /* \"contracts/PollBetContract.sol\":2002:2201  Poll({... */\n      dup2\n      mstore\n      0x20\n      add\n        /* \"contracts/PollBetContract.sol\":2057:2067  msg.sender */\n      caller\n        /* \"contracts/PollBetContract.sol\":2002:2201  Poll({... */\n      0xffffffffffffffffffffffffffffffffffffffff\n      and\n      dup2\n      mstore\n      0x20\n      add\n        /* \"contracts/PollBetContract.sol\":2092:2102  _startTime */\n      dup6\n        /* \"contracts/PollBetContract.sol\":2002:2201  Poll({... */\n      dup2\n      mstore\n      0x20\n      add\n        /* \"contracts/PollBetContract.sol\":2125:2133  _endTime */\n      dup5\n        /* \"contracts/PollBetContract.sol\":2002:2201  Poll({... */\n      dup2\n      mstore\n      0x20\n      add\n        /* \"contracts/PollBetContract.sol\":2156:2164  _options */\n      dup4\n        /* \"contracts/PollBetContract.sol\":2002:2201  Poll({... */\n      dup2\n      mstore\n      0x20\n      add\n        /* \"contracts/PollBetContract.sol\":2186:2190  true */\n      0x01\n        /* \"contracts/PollBetContract.sol\":2002:2201  Poll({... */\n      iszero\n      iszero\n      dup2\n      mstore\n      pop\n        /* \"contracts/PollBetContract.sol\":1980:2201  Poll memory newPoll = Poll({... */\n      swap1\n      pop\n        /* \"contracts/PollBetContract.sol\":2231:2238  newPoll */\n      dup1\n        /* \"contracts/PollBetContract.sol\":2212:2217  polls */\n      0x0a\n        /* \"contracts/PollBetContract.sol\":2218:2227  pollCount */\n      sload(0x00)\n        /* \"contracts/PollBetContract.sol\":2212:2228  polls[pollCount] */\n      dup2\n      sload\n      dup2\n      lt\n      tag_214\n      jumpi\n      tag_215\n      tag_125\n      jump\t// in\n    tag_215:\n    tag_214:\n      swap1\n      0x00\n      mstore\n      keccak256(0x00, 0x20)\n      swap1\n      0x06\n      mul\n      add\n        /* \"contracts/PollBetContract.sol\":2212:2238  polls[pollCount] = newPoll */\n      0x00\n      dup3\n      add\n      mload\n      dup2\n      0x00\n      add\n      sstore\n      0x20\n      dup3\n      add\n      mload\n      dup2\n      0x01\n      add\n      exp(0x0100, 0x00)\n      dup2\n      sload\n      dup2\n      0xffffffffffffffffffffffffffffffffffffffff\n      mul\n      not\n      and\n      swap1\n      dup4\n      0xffffffffffffffffffffffffffffffffffffffff\n      and\n      mul\n      or\n      swap1\n      sstore\n      pop\n      0x40\n      dup3\n      add\n      mload\n      dup2\n      0x02\n      add\n      sstore\n      0x60\n      dup3\n      add\n      mload\n      dup2\n      0x03\n      add\n      sstore\n      0x80\n      dup3\n      add\n      mload\n      dup2\n      0x04\n      add\n      swap1\n      dup1\n      mload\n      swap1\n      0x20\n      add\n      swap1\n      tag_217\n      swap3\n      swap2\n      swap1\n      tag_218\n      jump\t// in\n    tag_217:\n      pop\n      0xa0\n      dup3\n      add\n      mload\n      dup2\n      0x05\n      add\n      exp(0x0100, 0x00)\n      dup2\n      sload\n      dup2\n      0xff\n      mul\n      not\n      and\n      swap1\n      dup4\n      iszero\n      iszero\n      mul\n      or\n      swap1\n      sstore\n      pop\n      swap1\n      pop\n      pop\n        /* \"contracts/PollBetContract.sol\":2277:2287  msg.sender */\n      caller\n        /* \"contracts/PollBetContract.sol\":2254:2320  PollCreated(pollCount, msg.sender, _startTime, _endTime, _options) */\n      0xffffffffffffffffffffffffffffffffffffffff\n      and\n        /* \"contracts/PollBetContract.sol\":2266:2275  pollCount */\n      sload(0x00)\n        /* \"contracts/PollBetContract.sol\":2254:2320  PollCreated(pollCount, msg.sender, _startTime, _endTime, _options) */\n      0x58d87e181e9ac91f8ccda34caaf4c15db2a9fc345a86ea48e378d6e4359dfdb9\n        /* \"contracts/PollBetContract.sol\":2289:2299  _startTime */\n      dup7\n        /* \"contracts/PollBetContract.sol\":2301:2309  _endTime */\n      dup7\n        /* \"contracts/PollBetContract.sol\":2311:2319  _options */\n      dup7\n        /* \"contracts/PollBetContract.sol\":2254:2320  PollCreated(pollCount, msg.sender, _startTime, _endTime, _options) */\n      mload(0x40)\n      tag_219\n      swap4\n      swap3\n      swap2\n      swap1\n      tag_220\n      jump\t// in\n    tag_219:\n      mload(0x40)\n      dup1\n      swap2\n      sub\n      swap1\n      log3\n        /* \"contracts/PollBetContract.sol\":1811:2327  {... */\n      pop\n        /* \"contracts/PollBetContract.sol\":1726:2327  function createPoll(uint _startTime, uint _endTime, string[] memory _options) public {... */\n      pop\n      pop\n      pop\n      jump\t// out\n        /* \"contracts/PollBetContract.sol\":4906:4982  function getOdds(uint _pollId, uint _pollChoice) public view returns(uint){} */\n    tag_109:\n        /* \"contracts/PollBetContract.sol\":4975:4979  uint */\n      0x00\n        /* \"contracts/PollBetContract.sol\":4906:4982  function getOdds(uint _pollId, uint _pollChoice) public view returns(uint){} */\n      swap3\n      swap2\n      pop\n      pop\n      jump\t// out\n        /* \"contracts/PollBetContract.sol\":4988:5018  function closePoll() public {} */\n    tag_113:\n      jump\t// out\n        /* \"contracts/PollBetContract.sol\":5469:5603  function addVoterAddressSet(uint _pollId, address _voterAddress) private {... */\n    tag_142:\n        /* \"contracts/PollBetContract.sol\":5552:5596  voterAddressSets[_pollId].add(_voterAddress) */\n      tag_224\n        /* \"contracts/PollBetContract.sol\":5582:5595  _voterAddress */\n      dup2\n        /* \"contracts/PollBetContract.sol\":5552:5568  voterAddressSets */\n      0x09\n        /* \"contracts/PollBetContract.sol\":5552:5577  voterAddressSets[_pollId] */\n      0x00\n        /* \"contracts/PollBetContract.sol\":5569:5576  _pollId */\n      dup6\n        /* \"contracts/PollBetContract.sol\":5552:5577  voterAddressSets[_pollId] */\n      dup2\n      mstore\n      0x20\n      add\n      swap1\n      dup2\n      mstore\n      0x20\n      add\n      0x00\n      keccak256\n        /* \"contracts/PollBetContract.sol\":5552:5581  voterAddressSets[_pollId].add */\n      tag_225\n      swap1\n        /* \"contracts/PollBetContract.sol\":5552:5596  voterAddressSets[_pollId].add(_voterAddress) */\n      swap2\n      swap1\n      0xffffffff\n      and\n      jump\t// in\n    tag_224:\n      pop\n        /* \"contracts/PollBetContract.sol\":5469:5603  function addVoterAddressSet(uint _pollId, address _voterAddress) private {... */\n      pop\n      pop\n      jump\t// out\n        /* \"@openzeppelin/contracts/utils/structs/EnumerableSet.sol\":9098:9213  function length(AddressSet storage set) internal view returns (uint256) {... */\n    tag_151:\n        /* \"@openzeppelin/contracts/utils/structs/EnumerableSet.sol\":9161:9168  uint256 */\n      0x00\n        /* \"@openzeppelin/contracts/utils/structs/EnumerableSet.sol\":9187:9206  _length(set._inner) */\n      tag_227\n        /* \"@openzeppelin/contracts/utils/structs/EnumerableSet.sol\":9195:9198  set */\n      dup3\n        /* \"@openzeppelin/contracts/utils/structs/EnumerableSet.sol\":9195:9205  set._inner */\n      0x00\n      add\n        /* \"@openzeppelin/contracts/utils/structs/EnumerableSet.sol\":9187:9194  _length */\n      tag_228\n        /* \"@openzeppelin/contracts/utils/structs/EnumerableSet.sol\":9187:9206  _length(set._inner) */\n      jump\t// in\n    tag_227:\n        /* \"@openzeppelin/contracts/utils/structs/EnumerableSet.sol\":9180:9206  return _length(set._inner) */\n      swap1\n      pop\n        /* \"@openzeppelin/contracts/utils/structs/EnumerableSet.sol\":9098:9213  function length(AddressSet storage set) internal view returns (uint256) {... */\n      swap2\n      swap1\n      pop\n      jump\t// out\n        /* \"contracts/PollBetContract.sol\":5100:5463  function bytes32ToString(bytes32 _bytes32) private pure returns (string memory) {... */\n    tag_197:\n        /* \"contracts/PollBetContract.sol\":5165:5178  string memory */\n      0x60\n        /* \"contracts/PollBetContract.sol\":5190:5197  uint8 i */\n      0x00\n        /* \"contracts/PollBetContract.sol\":5211:5273  while(i < 32 && _bytes32[i] != 0) {... */\n    tag_230:\n        /* \"contracts/PollBetContract.sol\":5221:5223  32 */\n      0x20\n        /* \"contracts/PollBetContract.sol\":5217:5218  i */\n      dup2\n        /* \"contracts/PollBetContract.sol\":5217:5223  i < 32 */\n      0xff\n      and\n      lt\n        /* \"contracts/PollBetContract.sol\":5217:5243  i < 32 && _bytes32[i] != 0 */\n      dup1\n      iszero\n      tag_232\n      jumpi\n      pop\n        /* \"contracts/PollBetContract.sol\":5242:5243  0 */\n      0x00\n        /* \"contracts/PollBetContract.sol\":5227:5243  _bytes32[i] != 0 */\n      0xf8\n      shl\n        /* \"contracts/PollBetContract.sol\":5227:5235  _bytes32 */\n      dup4\n        /* \"contracts/PollBetContract.sol\":5236:5237  i */\n      dup3\n        /* \"contracts/PollBetContract.sol\":5227:5238  _bytes32[i] */\n      0xff\n      and\n      0x20\n      dup2\n      lt\n      tag_233\n      jumpi\n      tag_234\n      tag_125\n      jump\t// in\n    tag_234:\n    tag_233:\n      byte\n      0xf8\n      shl\n        /* \"contracts/PollBetContract.sol\":5227:5243  _bytes32[i] != 0 */\n      not(0xffffffffffffffffffffffffffffffffffffffffffffffffffffffffffffff)\n      and\n      eq\n      iszero\n        /* \"contracts/PollBetContract.sol\":5217:5243  i < 32 && _bytes32[i] != 0 */\n    tag_232:\n        /* \"contracts/PollBetContract.sol\":5211:5273  while(i < 32 && _bytes32[i] != 0) {... */\n      iszero\n      tag_231\n      jumpi\n        /* \"contracts/PollBetContract.sol\":5259:5262  i++ */\n      dup1\n      dup1\n      tag_235\n      swap1\n      tag_236\n      jump\t// in\n    tag_235:\n      swap2\n      pop\n      pop\n        /* \"contracts/PollBetContract.sol\":5211:5273  while(i < 32 && _bytes32[i] != 0) {... */\n      jump(tag_230)\n    tag_231:\n        /* \"contracts/PollBetContract.sol\":5282:5305  bytes memory bytesArray */\n      0x00\n        /* \"contracts/PollBetContract.sol\":5318:5319  i */\n      dup2\n        /* \"contracts/PollBetContract.sol\":5308:5320  new bytes(i) */\n      0xff\n      and\n      0xffffffffffffffff\n      dup2\n      gt\n      iszero\n      tag_237\n      jumpi\n      tag_238\n      tag_239\n      jump\t// in\n    tag_238:\n    tag_237:\n      mload(0x40)\n      swap1\n      dup1\n      dup3\n      mstore\n      dup1\n      0x1f\n      add\n      not(0x1f)\n      and\n      0x20\n      add\n      dup3\n      add\n      0x40\n      mstore\n      dup1\n      iszero\n      tag_240\n      jumpi\n      dup2\n      0x20\n      add\n      0x01\n      dup3\n      mul\n      dup1\n      calldatasize\n      dup4\n      calldatacopy\n      dup1\n      dup3\n      add\n      swap2\n      pop\n      pop\n      swap1\n      pop\n    tag_240:\n      pop\n        /* \"contracts/PollBetContract.sol\":5282:5320  bytes memory bytesArray = new bytes(i) */\n      swap1\n      pop\n        /* \"contracts/PollBetContract.sol\":5339:5340  0 */\n      0x00\n        /* \"contracts/PollBetContract.sol\":5335:5340  i = 0 */\n      swap2\n      pop\n        /* \"contracts/PollBetContract.sol\":5330:5422  for (i = 0; i < bytesArray.length; i++) {... */\n    tag_241:\n        /* \"contracts/PollBetContract.sol\":5346:5356  bytesArray */\n      dup1\n        /* \"contracts/PollBetContract.sol\":5346:5363  bytesArray.length */\n      mload\n        /* \"contracts/PollBetContract.sol\":5342:5343  i */\n      dup3\n        /* \"contracts/PollBetContract.sol\":5342:5363  i < bytesArray.length */\n      0xff\n      and\n      lt\n        /* \"contracts/PollBetContract.sol\":5330:5422  for (i = 0; i < bytesArray.length; i++) {... */\n      iszero\n      tag_242\n      jumpi\n        /* \"contracts/PollBetContract.sol\":5400:5408  _bytes32 */\n      dup4\n        /* \"contracts/PollBetContract.sol\":5409:5410  i */\n      dup3\n        /* \"contracts/PollBetContract.sol\":5400:5411  _bytes32[i] */\n      0xff\n      and\n      0x20\n      dup2\n      lt\n      tag_244\n      jumpi\n      tag_245\n      tag_125\n      jump\t// in\n    tag_245:\n    tag_244:\n      byte\n      0xf8\n      shl\n        /* \"contracts/PollBetContract.sol\":5384:5394  bytesArray */\n      dup2\n        /* \"contracts/PollBetContract.sol\":5395:5396  i */\n      dup4\n        /* \"contracts/PollBetContract.sol\":5384:5397  bytesArray[i] */\n      0xff\n      and\n      dup2\n      mload\n      dup2\n      lt\n      tag_246\n      jumpi\n      tag_247\n      tag_125\n      jump\t// in\n    tag_247:\n    tag_246:\n      0x20\n      add\n      add\n        /* \"contracts/PollBetContract.sol\":5384:5411  bytesArray[i] = _bytes32[i] */\n      swap1\n      not(0xffffffffffffffffffffffffffffffffffffffffffffffffffffffffffffff)\n      and\n      swap1\n      dup2\n      0x00\n      byte\n      swap1\n      mstore8\n      pop\n        /* \"contracts/PollBetContract.sol\":5365:5368  i++ */\n      dup2\n      dup1\n      tag_248\n      swap1\n      tag_236\n      jump\t// in\n    tag_248:\n      swap3\n      pop\n      pop\n        /* \"contracts/PollBetContract.sol\":5330:5422  for (i = 0; i < bytesArray.length; i++) {... */\n      jump(tag_241)\n    tag_242:\n        /* \"contracts/PollBetContract.sol\":5445:5455  bytesArray */\n      dup1\n        /* \"contracts/PollBetContract.sol\":5431:5456  return string(bytesArray) */\n      swap3\n      pop\n      pop\n      pop\n        /* \"contracts/PollBetContract.sol\":5100:5463  function bytes32ToString(bytes32 _bytes32) private pure returns (string memory) {... */\n      swap2\n      swap1\n      pop\n      jump\t// out\n        /* \"@openzeppelin/contracts/utils/structs/EnumerableSet.sol\":8297:8447  function add(AddressSet storage set, address value) internal returns (bool) {... */\n    tag_225:\n        /* \"@openzeppelin/contracts/utils/structs/EnumerableSet.sol\":8367:8371  bool */\n      0x00\n        /* \"@openzeppelin/contracts/utils/structs/EnumerableSet.sol\":8390:8440  _add(set._inner, bytes32(uint256(uint160(value)))) */\n      tag_250\n        /* \"@openzeppelin/contracts/utils/structs/EnumerableSet.sol\":8395:8398  set */\n      dup4\n        /* \"@openzeppelin/contracts/utils/structs/EnumerableSet.sol\":8395:8405  set._inner */\n      0x00\n      add\n        /* \"@openzeppelin/contracts/utils/structs/EnumerableSet.sol\":8431:8436  value */\n      dup4\n        /* \"@openzeppelin/contracts/utils/structs/EnumerableSet.sol\":8415:8438  uint256(uint160(value)) */\n      0xffffffffffffffffffffffffffffffffffffffff\n      and\n        /* \"@openzeppelin/contracts/utils/structs/EnumerableSet.sol\":8407:8439  bytes32(uint256(uint160(value))) */\n      0x00\n      shl\n        /* \"@openzeppelin/contracts/utils/structs/EnumerableSet.sol\":8390:8394  _add */\n      tag_251\n        /* \"@openzeppelin/contracts/utils/structs/EnumerableSet.sol\":8390:8440  _add(set._inner, bytes32(uint256(uint160(value)))) */\n      jump\t// in\n    tag_250:\n        /* \"@openzeppelin/contracts/utils/structs/EnumerableSet.sol\":8383:8440  return _add(set._inner, bytes32(uint256(uint160(value)))) */\n      swap1\n      pop\n        /* \"@openzeppelin/contracts/utils/structs/EnumerableSet.sol\":8297:8447  function add(AddressSet storage set, address value) internal returns (bool) {... */\n      swap3\n      swap2\n      pop\n      pop\n      jump\t// out\n        /* \"@openzeppelin/contracts/utils/structs/EnumerableSet.sol\":4455:4562  function _length(Set storage set) private view returns (uint256) {... */\n    tag_228:\n        /* \"@openzeppelin/contracts/utils/structs/EnumerableSet.sol\":4511:4518  uint256 */\n      0x00\n        /* \"@openzeppelin/contracts/utils/structs/EnumerableSet.sol\":4537:4540  set */\n      dup2\n        /* \"@openzeppelin/contracts/utils/structs/EnumerableSet.sol\":4537:4548  set._values */\n      0x00\n      add\n        /* \"@openzeppelin/contracts/utils/structs/EnumerableSet.sol\":4537:4555  set._values.length */\n      dup1\n      sload\n      swap1\n      pop\n        /* \"@openzeppelin/contracts/utils/structs/EnumerableSet.sol\":4530:4555  return set._values.length */\n      swap1\n      pop\n        /* \"@openzeppelin/contracts/utils/structs/EnumerableSet.sol\":4455:4562  function _length(Set storage set) private view returns (uint256) {... */\n      swap2\n      swap1\n      pop\n      jump\t// out\n        /* \"@openzeppelin/contracts/utils/structs/EnumerableSet.sol\":2206:2610  function _add(Set storage set, bytes32 value) private returns (bool) {... */\n    tag_251:\n        /* \"@openzeppelin/contracts/utils/structs/EnumerableSet.sol\":2269:2273  bool */\n      0x00\n        /* \"@openzeppelin/contracts/utils/structs/EnumerableSet.sol\":2290:2311  _contains(set, value) */\n      tag_254\n        /* \"@openzeppelin/contracts/utils/structs/EnumerableSet.sol\":2300:2303  set */\n      dup4\n        /* \"@openzeppelin/contracts/utils/structs/EnumerableSet.sol\":2305:2310  value */\n      dup4\n        /* \"@openzeppelin/contracts/utils/structs/EnumerableSet.sol\":2290:2299  _contains */\n      tag_255\n        /* \"@openzeppelin/contracts/utils/structs/EnumerableSet.sol\":2290:2311  _contains(set, value) */\n      jump\t// in\n    tag_254:\n        /* \"@openzeppelin/contracts/utils/structs/EnumerableSet.sol\":2285:2604  if (!_contains(set, value)) {... */\n      tag_256\n      jumpi\n        /* \"@openzeppelin/contracts/utils/structs/EnumerableSet.sol\":2327:2330  set */\n      dup3\n        /* \"@openzeppelin/contracts/utils/structs/EnumerableSet.sol\":2327:2338  set._values */\n      0x00\n      add\n        /* \"@openzeppelin/contracts/utils/structs/EnumerableSet.sol\":2344:2349  value */\n      dup3\n        /* \"@openzeppelin/contracts/utils/structs/EnumerableSet.sol\":2327:2350  set._values.push(value) */\n      swap1\n      dup1\n      0x01\n      dup2\n      sload\n      add\n      dup1\n      dup3\n      sstore\n      dup1\n      swap2\n      pop\n      pop\n      0x01\n      swap1\n      sub\n      swap1\n      0x00\n      mstore\n      keccak256(0x00, 0x20)\n      add\n      0x00\n      swap1\n      swap2\n      swap1\n      swap2\n      swap1\n      swap2\n      pop\n      sstore\n        /* \"@openzeppelin/contracts/utils/structs/EnumerableSet.sol\":2507:2510  set */\n      dup3\n        /* \"@openzeppelin/contracts/utils/structs/EnumerableSet.sol\":2507:2518  set._values */\n      0x00\n      add\n        /* \"@openzeppelin/contracts/utils/structs/EnumerableSet.sol\":2507:2525  set._values.length */\n      dup1\n      sload\n      swap1\n      pop\n        /* \"@openzeppelin/contracts/utils/structs/EnumerableSet.sol\":2485:2488  set */\n      dup4\n        /* \"@openzeppelin/contracts/utils/structs/EnumerableSet.sol\":2485:2497  set._indexes */\n      0x01\n      add\n        /* \"@openzeppelin/contracts/utils/structs/EnumerableSet.sol\":2485:2504  set._indexes[value] */\n      0x00\n        /* \"@openzeppelin/contracts/utils/structs/EnumerableSet.sol\":2498:2503  value */\n      dup5\n        /* \"@openzeppelin/contracts/utils/structs/EnumerableSet.sol\":2485:2504  set._indexes[value] */\n      dup2\n      mstore\n      0x20\n      add\n      swap1\n      dup2\n      mstore\n      0x20\n      add\n      0x00\n      keccak256\n        /* \"@openzeppelin/contracts/utils/structs/EnumerableSet.sol\":2485:2525  set._indexes[value] = set._values.length */\n      dup2\n      swap1\n      sstore\n      pop\n        /* \"@openzeppelin/contracts/utils/structs/EnumerableSet.sol\":2546:2550  true */\n      0x01\n        /* \"@openzeppelin/contracts/utils/structs/EnumerableSet.sol\":2539:2550  return true */\n      swap1\n      pop\n      jump(tag_253)\n        /* \"@openzeppelin/contracts/utils/structs/EnumerableSet.sol\":2285:2604  if (!_contains(set, value)) {... */\n    tag_256:\n        /* \"@openzeppelin/contracts/utils/structs/EnumerableSet.sol\":2588:2593  false */\n      0x00\n        /* \"@openzeppelin/contracts/utils/structs/EnumerableSet.sol\":2581:2593  return false */\n      swap1\n      pop\n        /* \"@openzeppelin/contracts/utils/structs/EnumerableSet.sol\":2206:2610  function _add(Set storage set, bytes32 value) private returns (bool) {... */\n    tag_253:\n      swap3\n      swap2\n      pop\n      pop\n      jump\t// out\n        /* \"@openzeppelin/contracts/utils/structs/EnumerableSet.sol\":4247:4374  function _contains(Set storage set, bytes32 value) private view returns (bool) {... */\n    tag_255:\n        /* \"@openzeppelin/contracts/utils/structs/EnumerableSet.sol\":4320:4324  bool */\n      0x00\n        /* \"@openzeppelin/contracts/utils/structs/EnumerableSet.sol\":4366:4367  0 */\n      dup1\n        /* \"@openzeppelin/contracts/utils/structs/EnumerableSet.sol\":4343:4346  set */\n      dup4\n        /* \"@openzeppelin/contracts/utils/structs/EnumerableSet.sol\":4343:4355  set._indexes */\n      0x01\n      add\n        /* \"@openzeppelin/contracts/utils/structs/EnumerableSet.sol\":4343:4362  set._indexes[value] */\n      0x00\n        /* \"@openzeppelin/contracts/utils/structs/EnumerableSet.sol\":4356:4361  value */\n      dup5\n        /* \"@openzeppelin/contracts/utils/structs/EnumerableSet.sol\":4343:4362  set._indexes[value] */\n      dup2\n      mstore\n      0x20\n      add\n      swap1\n      dup2\n      mstore\n      0x20\n      add\n      0x00\n      keccak256\n      sload\n        /* \"@openzeppelin/contracts/utils/structs/EnumerableSet.sol\":4343:4367  set._indexes[value] != 0 */\n      eq\n      iszero\n        /* \"@openzeppelin/contracts/utils/structs/EnumerableSet.sol\":4336:4367  return set._indexes[value] != 0 */\n      swap1\n      pop\n        /* \"@openzeppelin/contracts/utils/structs/EnumerableSet.sol\":4247:4374  function _contains(Set storage set, bytes32 value) private view returns (bool) {... */\n      swap3\n      swap2\n      pop\n      pop\n      jump\t// out\n    tag_218:\n      dup3\n      dup1\n      sload\n      dup3\n      dup3\n      sstore\n      swap1\n      0x00\n      mstore\n      keccak256(0x00, 0x20)\n      swap1\n      dup2\n      add\n      swap3\n      dup3\n      iszero\n      tag_260\n      jumpi\n      swap2\n      0x20\n      mul\n      dup3\n      add\n    tag_261:\n      dup3\n      dup2\n      gt\n      iszero\n      tag_262\n      jumpi\n      dup3\n      mload\n      dup3\n      swap1\n      dup2\n      tag_263\n      swap2\n      swap1\n      tag_200\n      jump\t// in\n    tag_263:\n      pop\n      swap2\n      0x20\n      add\n      swap2\n      swap1\n      0x01\n      add\n      swap1\n      jump(tag_261)\n    tag_262:\n    tag_260:\n      pop\n      swap1\n      pop\n      tag_264\n      swap2\n      swap1\n      tag_265\n      jump\t// in\n    tag_264:\n      pop\n      swap1\n      jump\t// out\n    tag_265:\n    tag_266:\n      dup1\n      dup3\n      gt\n      iszero\n      tag_267\n      jumpi\n      0x00\n      dup2\n      dup2\n      tag_268\n      swap2\n      swap1\n      tag_269\n      jump\t// in\n    tag_268:\n      pop\n      0x01\n      add\n      jump(tag_266)\n    tag_267:\n      pop\n      swap1\n      jump\t// out\n    tag_269:\n      pop\n      dup1\n      sload\n      tag_270\n      swap1\n      tag_117\n      jump\t// in\n    tag_270:\n      0x00\n      dup3\n      sstore\n      dup1\n      0x1f\n      lt\n      tag_272\n      jumpi\n      pop\n      jump(tag_271)\n    tag_272:\n      0x1f\n      add\n      0x20\n      swap1\n      div\n      swap1\n      0x00\n      mstore\n      keccak256(0x00, 0x20)\n      swap1\n      dup2\n      add\n      swap1\n      tag_273\n      swap2\n      swap1\n      tag_274\n      jump\t// in\n    tag_273:\n    tag_271:\n      pop\n      jump\t// out\n    tag_274:\n    tag_275:\n      dup1\n      dup3\n      gt\n      iszero\n      tag_276\n      jumpi\n      0x00\n      dup2\n      0x00\n      swap1\n      sstore\n      pop\n      0x01\n      add\n      jump(tag_275)\n    tag_276:\n      pop\n      swap1\n      jump\t// out\n        /* \"#utility.yul\":7:82   */\n    tag_277:\n        /* \"#utility.yul\":40:46   */\n      0x00\n        /* \"#utility.yul\":73:75   */\n      0x40\n        /* \"#utility.yul\":67:76   */\n      mload\n        /* \"#utility.yul\":57:76   */\n      swap1\n      pop\n        /* \"#utility.yul\":7:82   */\n      swap1\n      jump\t// out\n        /* \"#utility.yul\":88:205   */\n    tag_278:\n        /* \"#utility.yul\":197:198   */\n      0x00\n        /* \"#utility.yul\":194:195   */\n      dup1\n        /* \"#utility.yul\":187:199   */\n      revert\n        /* \"#utility.yul\":211:328   */\n    tag_279:\n        /* \"#utility.yul\":320:321   */\n      0x00\n        /* \"#utility.yul\":317:318   */\n      dup1\n        /* \"#utility.yul\":310:322   */\n      revert\n        /* \"#utility.yul\":334:411   */\n    tag_280:\n        /* \"#utility.yul\":371:378   */\n      0x00\n        /* \"#utility.yul\":400:405   */\n      dup2\n        /* \"#utility.yul\":389:405   */\n      swap1\n      pop\n        /* \"#utility.yul\":334:411   */\n      swap2\n      swap1\n      pop\n      jump\t// out\n        /* \"#utility.yul\":417:539   */\n    tag_281:\n        /* \"#utility.yul\":490:514   */\n      tag_366\n        /* \"#utility.yul\":508:513   */\n      dup2\n        /* \"#utility.yul\":490:514   */\n      tag_280\n      jump\t// in\n    tag_366:\n        /* \"#utility.yul\":483:488   */\n      dup2\n        /* \"#utility.yul\":480:515   */\n      eq\n        /* \"#utility.yul\":470:533   */\n      tag_367\n      jumpi\n        /* \"#utility.yul\":529:530   */\n      0x00\n        /* \"#utility.yul\":526:527   */\n      dup1\n        /* \"#utility.yul\":519:531   */\n      revert\n        /* \"#utility.yul\":470:533   */\n    tag_367:\n        /* \"#utility.yul\":417:539   */\n      pop\n      jump\t// out\n        /* \"#utility.yul\":545:684   */\n    tag_282:\n        /* \"#utility.yul\":591:596   */\n      0x00\n        /* \"#utility.yul\":629:635   */\n      dup2\n        /* \"#utility.yul\":616:636   */\n      calldataload\n        /* \"#utility.yul\":607:636   */\n      swap1\n      pop\n        /* \"#utility.yul\":645:678   */\n      tag_369\n        /* \"#utility.yul\":672:677   */\n      dup2\n        /* \"#utility.yul\":645:678   */\n      tag_281\n      jump\t// in\n    tag_369:\n        /* \"#utility.yul\":545:684   */\n      swap3\n      swap2\n      pop\n      pop\n      jump\t// out\n        /* \"#utility.yul\":690:816   */\n    tag_283:\n        /* \"#utility.yul\":727:734   */\n      0x00\n        /* \"#utility.yul\":767:809   */\n      0xffffffffffffffffffffffffffffffffffffffff\n        /* \"#utility.yul\":760:765   */\n      dup3\n        /* \"#utility.yul\":756:810   */\n      and\n        /* \"#utility.yul\":745:810   */\n      swap1\n      pop\n        /* \"#utility.yul\":690:816   */\n      swap2\n      swap1\n      pop\n      jump\t// out\n        /* \"#utility.yul\":822:918   */\n    tag_284:\n        /* \"#utility.yul\":859:866   */\n      0x00\n        /* \"#utility.yul\":888:912   */\n      tag_372\n        /* \"#utility.yul\":906:911   */\n      dup3\n        /* \"#utility.yul\":888:912   */\n      tag_283\n      jump\t// in\n    tag_372:\n        /* \"#utility.yul\":877:912   */\n      swap1\n      pop\n        /* \"#utility.yul\":822:918   */\n      swap2\n      swap1\n      pop\n      jump\t// out\n        /* \"#utility.yul\":924:1046   */\n    tag_285:\n        /* \"#utility.yul\":997:1021   */\n      tag_374\n        /* \"#utility.yul\":1015:1020   */\n      dup2\n        /* \"#utility.yul\":997:1021   */\n      tag_284\n      jump\t// in\n    tag_374:\n        /* \"#utility.yul\":990:995   */\n      dup2\n        /* \"#utility.yul\":987:1022   */\n      eq\n        /* \"#utility.yul\":977:1040   */\n      tag_375\n      jumpi\n        /* \"#utility.yul\":1036:1037   */\n      0x00\n        /* \"#utility.yul\":1033:1034   */\n      dup1\n        /* \"#utility.yul\":1026:1038   */\n      revert\n        /* \"#utility.yul\":977:1040   */\n    tag_375:\n        /* \"#utility.yul\":924:1046   */\n      pop\n      jump\t// out\n        /* \"#utility.yul\":1052:1191   */\n    tag_286:\n        /* \"#utility.yul\":1098:1103   */\n      0x00\n        /* \"#utility.yul\":1136:1142   */\n      dup2\n        /* \"#utility.yul\":1123:1143   */\n      calldataload\n        /* \"#utility.yul\":1114:1143   */\n      swap1\n      pop\n        /* \"#utility.yul\":1152:1185   */\n      tag_377\n        /* \"#utility.yul\":1179:1184   */\n      dup2\n        /* \"#utility.yul\":1152:1185   */\n      tag_285\n      jump\t// in\n    tag_377:\n        /* \"#utility.yul\":1052:1191   */\n      swap3\n      swap2\n      pop\n      pop\n      jump\t// out\n        /* \"#utility.yul\":1197:1671   */\n    tag_26:\n        /* \"#utility.yul\":1265:1271   */\n      0x00\n        /* \"#utility.yul\":1273:1279   */\n      dup1\n        /* \"#utility.yul\":1322:1324   */\n      0x40\n        /* \"#utility.yul\":1310:1319   */\n      dup4\n        /* \"#utility.yul\":1301:1308   */\n      dup6\n        /* \"#utility.yul\":1297:1320   */\n      sub\n        /* \"#utility.yul\":1293:1325   */\n      slt\n        /* \"#utility.yul\":1290:1409   */\n      iszero\n      tag_379\n      jumpi\n        /* \"#utility.yul\":1328:1407   */\n      tag_380\n      tag_278\n      jump\t// in\n    tag_380:\n        /* \"#utility.yul\":1290:1409   */\n    tag_379:\n        /* \"#utility.yul\":1448:1449   */\n      0x00\n        /* \"#utility.yul\":1473:1526   */\n      tag_381\n        /* \"#utility.yul\":1518:1525   */\n      dup6\n        /* \"#utility.yul\":1509:1515   */\n      dup3\n        /* \"#utility.yul\":1498:1507   */\n      dup7\n        /* \"#utility.yul\":1494:1516   */\n      add\n        /* \"#utility.yul\":1473:1526   */\n      tag_282\n      jump\t// in\n    tag_381:\n        /* \"#utility.yul\":1463:1526   */\n      swap3\n      pop\n        /* \"#utility.yul\":1419:1536   */\n      pop\n        /* \"#utility.yul\":1575:1577   */\n      0x20\n        /* \"#utility.yul\":1601:1654   */\n      tag_382\n        /* \"#utility.yul\":1646:1653   */\n      dup6\n        /* \"#utility.yul\":1637:1643   */\n      dup3\n        /* \"#utility.yul\":1626:1635   */\n      dup7\n        /* \"#utility.yul\":1622:1644   */\n      add\n        /* \"#utility.yul\":1601:1654   */\n      tag_286\n      jump\t// in\n    tag_382:\n        /* \"#utility.yul\":1591:1654   */\n      swap2\n      pop\n        /* \"#utility.yul\":1546:1664   */\n      pop\n        /* \"#utility.yul\":1197:1671   */\n      swap3\n      pop\n      swap3\n      swap1\n      pop\n      jump\t// out\n        /* \"#utility.yul\":1677:1795   */\n    tag_287:\n        /* \"#utility.yul\":1764:1788   */\n      tag_384\n        /* \"#utility.yul\":1782:1787   */\n      dup2\n        /* \"#utility.yul\":1764:1788   */\n      tag_280\n      jump\t// in\n    tag_384:\n        /* \"#utility.yul\":1759:1762   */\n      dup3\n        /* \"#utility.yul\":1752:1789   */\n      mstore\n        /* \"#utility.yul\":1677:1795   */\n      pop\n      pop\n      jump\t// out\n        /* \"#utility.yul\":1801:2023   */\n    tag_29:\n        /* \"#utility.yul\":1894:1898   */\n      0x00\n        /* \"#utility.yul\":1932:1934   */\n      0x20\n        /* \"#utility.yul\":1921:1930   */\n      dup3\n        /* \"#utility.yul\":1917:1935   */\n      add\n        /* \"#utility.yul\":1909:1935   */\n      swap1\n      pop\n        /* \"#utility.yul\":1945:2016   */\n      tag_386\n        /* \"#utility.yul\":2013:2014   */\n      0x00\n        /* \"#utility.yul\":2002:2011   */\n      dup4\n        /* \"#utility.yul\":1998:2015   */\n      add\n        /* \"#utility.yul\":1989:1995   */\n      dup5\n        /* \"#utility.yul\":1945:2016   */\n      tag_287\n      jump\t// in\n    tag_386:\n        /* \"#utility.yul\":1801:2023   */\n      swap3\n      swap2\n      pop\n      pop\n      jump\t// out\n        /* \"#utility.yul\":2029:2358   */\n    tag_33:\n        /* \"#utility.yul\":2088:2094   */\n      0x00\n        /* \"#utility.yul\":2137:2139   */\n      0x20\n        /* \"#utility.yul\":2125:2134   */\n      dup3\n        /* \"#utility.yul\":2116:2123   */\n      dup5\n        /* \"#utility.yul\":2112:2135   */\n      sub\n        /* \"#utility.yul\":2108:2140   */\n      slt\n        /* \"#utility.yul\":2105:2224   */\n      iszero\n      tag_388\n      jumpi\n        /* \"#utility.yul\":2143:2222   */\n      tag_389\n      tag_278\n      jump\t// in\n    tag_389:\n        /* \"#utility.yul\":2105:2224   */\n    tag_388:\n        /* \"#utility.yul\":2263:2264   */\n      0x00\n        /* \"#utility.yul\":2288:2341   */\n      tag_390\n        /* \"#utility.yul\":2333:2340   */\n      dup5\n        /* \"#utility.yul\":2324:2330   */\n      dup3\n        /* \"#utility.yul\":2313:2322   */\n      dup6\n        /* \"#utility.yul\":2309:2331   */\n      add\n        /* \"#utility.yul\":2288:2341   */\n      tag_286\n      jump\t// in\n    tag_390:\n        /* \"#utility.yul\":2278:2341   */\n      swap2\n      pop\n        /* \"#utility.yul\":2234:2351   */\n      pop\n        /* \"#utility.yul\":2029:2358   */\n      swap3\n      swap2\n      pop\n      pop\n      jump\t// out\n        /* \"#utility.yul\":2364:2838   */\n    tag_39:\n        /* \"#utility.yul\":2432:2438   */\n      0x00\n        /* \"#utility.yul\":2440:2446   */\n      dup1\n        /* \"#utility.yul\":2489:2491   */\n      0x40\n        /* \"#utility.yul\":2477:2486   */\n      dup4\n        /* \"#utility.yul\":2468:2475   */\n      dup6\n        /* \"#utility.yul\":2464:2487   */\n      sub\n        /* \"#utility.yul\":2460:2492   */\n      slt\n        /* \"#utility.yul\":2457:2576   */\n      iszero\n      tag_392\n      jumpi\n        /* \"#utility.yul\":2495:2574   */\n      tag_393\n      tag_278\n      jump\t// in\n    tag_393:\n        /* \"#utility.yul\":2457:2576   */\n    tag_392:\n        /* \"#utility.yul\":2615:2616   */\n      0x00\n        /* \"#utility.yul\":2640:2693   */\n      tag_394\n        /* \"#utility.yul\":2685:2692   */\n      dup6\n        /* \"#utility.yul\":2676:2682   */\n      dup3\n        /* \"#utility.yul\":2665:2674   */\n      dup7\n        /* \"#utility.yul\":2661:2683   */\n      add\n        /* \"#utility.yul\":2640:2693   */\n      tag_282\n      jump\t// in\n    tag_394:\n        /* \"#utility.yul\":2630:2693   */\n      swap3\n      pop\n        /* \"#utility.yul\":2586:2703   */\n      pop\n        /* \"#utility.yul\":2742:2744   */\n      0x20\n        /* \"#utility.yul\":2768:2821   */\n      tag_395\n        /* \"#utility.yul\":2813:2820   */\n      dup6\n        /* \"#utility.yul\":2804:2810   */\n      dup3\n        /* \"#utility.yul\":2793:2802   */\n      dup7\n        /* \"#utility.yul\":2789:2811   */\n      add\n        /* \"#utility.yul\":2768:2821   */\n      tag_282\n      jump\t// in\n    tag_395:\n        /* \"#utility.yul\":2758:2821   */\n      swap2\n      pop\n        /* \"#utility.yul\":2713:2831   */\n      pop\n        /* \"#utility.yul\":2364:2838   */\n      swap3\n      pop\n      swap3\n      swap1\n      pop\n      jump\t// out\n        /* \"#utility.yul\":2844:2943   */\n    tag_288:\n        /* \"#utility.yul\":2896:2902   */\n      0x00\n        /* \"#utility.yul\":2930:2935   */\n      dup2\n        /* \"#utility.yul\":2924:2936   */\n      mload\n        /* \"#utility.yul\":2914:2936   */\n      swap1\n      pop\n        /* \"#utility.yul\":2844:2943   */\n      swap2\n      swap1\n      pop\n      jump\t// out\n        /* \"#utility.yul\":2949:3118   */\n    tag_289:\n        /* \"#utility.yul\":3033:3044   */\n      0x00\n        /* \"#utility.yul\":3067:3073   */\n      dup3\n        /* \"#utility.yul\":3062:3065   */\n      dup3\n        /* \"#utility.yul\":3055:3074   */\n      mstore\n        /* \"#utility.yul\":3107:3111   */\n      0x20\n        /* \"#utility.yul\":3102:3105   */\n      dup3\n        /* \"#utility.yul\":3098:3112   */\n      add\n        /* \"#utility.yul\":3083:3112   */\n      swap1\n      pop\n        /* \"#utility.yul\":2949:3118   */\n      swap3\n      swap2\n      pop\n      pop\n      jump\t// out\n        /* \"#utility.yul\":3124:3370   */\n    tag_290:\n        /* \"#utility.yul\":3205:3206   */\n      0x00\n        /* \"#utility.yul\":3215:3328   */\n    tag_399:\n        /* \"#utility.yul\":3229:3235   */\n      dup4\n        /* \"#utility.yul\":3226:3227   */\n      dup2\n        /* \"#utility.yul\":3223:3236   */\n      lt\n        /* \"#utility.yul\":3215:3328   */\n      iszero\n      tag_401\n      jumpi\n        /* \"#utility.yul\":3314:3315   */\n      dup1\n        /* \"#utility.yul\":3309:3312   */\n      dup3\n        /* \"#utility.yul\":3305:3316   */\n      add\n        /* \"#utility.yul\":3299:3317   */\n      mload\n        /* \"#utility.yul\":3295:3296   */\n      dup2\n        /* \"#utility.yul\":3290:3293   */\n      dup5\n        /* \"#utility.yul\":3286:3297   */\n      add\n        /* \"#utility.yul\":3279:3318   */\n      mstore\n        /* \"#utility.yul\":3251:3253   */\n      0x20\n        /* \"#utility.yul\":3248:3249   */\n      dup2\n        /* \"#utility.yul\":3244:3254   */\n      add\n        /* \"#utility.yul\":3239:3254   */\n      swap1\n      pop\n        /* \"#utility.yul\":3215:3328   */\n      jump(tag_399)\n    tag_401:\n        /* \"#utility.yul\":3362:3363   */\n      0x00\n        /* \"#utility.yul\":3353:3359   */\n      dup5\n        /* \"#utility.yul\":3348:3351   */\n      dup5\n        /* \"#utility.yul\":3344:3360   */\n      add\n        /* \"#utility.yul\":3337:3364   */\n      mstore\n        /* \"#utility.yul\":3186:3370   */\n      pop\n        /* \"#utility.yul\":3124:3370   */\n      pop\n      pop\n      pop\n      jump\t// out\n        /* \"#utility.yul\":3376:3478   */\n    tag_291:\n        /* \"#utility.yul\":3417:3423   */\n      0x00\n        /* \"#utility.yul\":3468:3470   */\n      0x1f\n        /* \"#utility.yul\":3464:3471   */\n      not\n        /* \"#utility.yul\":3459:3461   */\n      0x1f\n        /* \"#utility.yul\":3452:3457   */\n      dup4\n        /* \"#utility.yul\":3448:3462   */\n      add\n        /* \"#utility.yul\":3444:3472   */\n      and\n        /* \"#utility.yul\":3434:3472   */\n      swap1\n      pop\n        /* \"#utility.yul\":3376:3478   */\n      swap2\n      swap1\n      pop\n      jump\t// out\n        /* \"#utility.yul\":3484:3861   */\n    tag_292:\n        /* \"#utility.yul\":3572:3575   */\n      0x00\n        /* \"#utility.yul\":3600:3639   */\n      tag_404\n        /* \"#utility.yul\":3633:3638   */\n      dup3\n        /* \"#utility.yul\":3600:3639   */\n      tag_288\n      jump\t// in\n    tag_404:\n        /* \"#utility.yul\":3655:3726   */\n      tag_405\n        /* \"#utility.yul\":3719:3725   */\n      dup2\n        /* \"#utility.yul\":3714:3717   */\n      dup6\n        /* \"#utility.yul\":3655:3726   */\n      tag_289\n      jump\t// in\n    tag_405:\n        /* \"#utility.yul\":3648:3726   */\n      swap4\n      pop\n        /* \"#utility.yul\":3735:3800   */\n      tag_406\n        /* \"#utility.yul\":3793:3799   */\n      dup2\n        /* \"#utility.yul\":3788:3791   */\n      dup6\n        /* \"#utility.yul\":3781:3785   */\n      0x20\n        /* \"#utility.yul\":3774:3779   */\n      dup7\n        /* \"#utility.yul\":3770:3786   */\n      add\n        /* \"#utility.yul\":3735:3800   */\n      tag_290\n      jump\t// in\n    tag_406:\n        /* \"#utility.yul\":3825:3854   */\n      tag_407\n        /* \"#utility.yul\":3847:3853   */\n      dup2\n        /* \"#utility.yul\":3825:3854   */\n      tag_291\n      jump\t// in\n    tag_407:\n        /* \"#utility.yul\":3820:3823   */\n      dup5\n        /* \"#utility.yul\":3816:3855   */\n      add\n        /* \"#utility.yul\":3809:3855   */\n      swap2\n      pop\n        /* \"#utility.yul\":3576:3861   */\n      pop\n        /* \"#utility.yul\":3484:3861   */\n      swap3\n      swap2\n      pop\n      pop\n      jump\t// out\n        /* \"#utility.yul\":3867:3985   */\n    tag_293:\n        /* \"#utility.yul\":3954:3978   */\n      tag_409\n        /* \"#utility.yul\":3972:3977   */\n      dup2\n        /* \"#utility.yul\":3954:3978   */\n      tag_284\n      jump\t// in\n    tag_409:\n        /* \"#utility.yul\":3949:3952   */\n      dup3\n        /* \"#utility.yul\":3942:3979   */\n      mstore\n        /* \"#utility.yul\":3867:3985   */\n      pop\n      pop\n      jump\t// out\n        /* \"#utility.yul\":3991:4635   */\n    tag_42:\n        /* \"#utility.yul\":4188:4192   */\n      0x00\n        /* \"#utility.yul\":4226:4229   */\n      0x80\n        /* \"#utility.yul\":4215:4224   */\n      dup3\n        /* \"#utility.yul\":4211:4230   */\n      add\n        /* \"#utility.yul\":4203:4230   */\n      swap1\n      pop\n        /* \"#utility.yul\":4240:4311   */\n      tag_411\n        /* \"#utility.yul\":4308:4309   */\n      0x00\n        /* \"#utility.yul\":4297:4306   */\n      dup4\n        /* \"#utility.yul\":4293:4310   */\n      add\n        /* \"#utility.yul\":4284:4290   */\n      dup8\n        /* \"#utility.yul\":4240:4311   */\n      tag_287\n      jump\t// in\n    tag_411:\n        /* \"#utility.yul\":4358:4367   */\n      dup2\n        /* \"#utility.yul\":4352:4356   */\n      dup2\n        /* \"#utility.yul\":4348:4368   */\n      sub\n        /* \"#utility.yul\":4343:4345   */\n      0x20\n        /* \"#utility.yul\":4332:4341   */\n      dup4\n        /* \"#utility.yul\":4328:4346   */\n      add\n        /* \"#utility.yul\":4321:4369   */\n      mstore\n        /* \"#utility.yul\":4386:4464   */\n      tag_412\n        /* \"#utility.yul\":4459:4463   */\n      dup2\n        /* \"#utility.yul\":4450:4456   */\n      dup7\n        /* \"#utility.yul\":4386:4464   */\n      tag_292\n      jump\t// in\n    tag_412:\n        /* \"#utility.yul\":4378:4464   */\n      swap1\n      pop\n        /* \"#utility.yul\":4474:4546   */\n      tag_413\n        /* \"#utility.yul\":4542:4544   */\n      0x40\n        /* \"#utility.yul\":4531:4540   */\n      dup4\n        /* \"#utility.yul\":4527:4545   */\n      add\n        /* \"#utility.yul\":4518:4524   */\n      dup6\n        /* \"#utility.yul\":4474:4546   */\n      tag_293\n      jump\t// in\n    tag_413:\n        /* \"#utility.yul\":4556:4628   */\n      tag_414\n        /* \"#utility.yul\":4624:4626   */\n      0x60\n        /* \"#utility.yul\":4613:4622   */\n      dup4\n        /* \"#utility.yul\":4609:4627   */\n      add\n        /* \"#utility.yul\":4600:4606   */\n      dup5\n        /* \"#utility.yul\":4556:4628   */\n      tag_287\n      jump\t// in\n    tag_414:\n        /* \"#utility.yul\":3991:4635   */\n      swap6\n      swap5\n      pop\n      pop\n      pop\n      pop\n      pop\n      jump\t// out\n        /* \"#utility.yul\":4641:4731   */\n    tag_294:\n        /* \"#utility.yul\":4675:4682   */\n      0x00\n        /* \"#utility.yul\":4718:4723   */\n      dup2\n        /* \"#utility.yul\":4711:4724   */\n      iszero\n        /* \"#utility.yul\":4704:4725   */\n      iszero\n        /* \"#utility.yul\":4693:4725   */\n      swap1\n      pop\n        /* \"#utility.yul\":4641:4731   */\n      swap2\n      swap1\n      pop\n      jump\t// out\n        /* \"#utility.yul\":4737:4846   */\n    tag_295:\n        /* \"#utility.yul\":4818:4839   */\n      tag_417\n        /* \"#utility.yul\":4833:4838   */\n      dup2\n        /* \"#utility.yul\":4818:4839   */\n      tag_294\n      jump\t// in\n    tag_417:\n        /* \"#utility.yul\":4813:4816   */\n      dup3\n        /* \"#utility.yul\":4806:4840   */\n      mstore\n        /* \"#utility.yul\":4737:4846   */\n      pop\n      pop\n      jump\t// out\n        /* \"#utility.yul\":4852:5062   */\n    tag_48:\n        /* \"#utility.yul\":4939:4943   */\n      0x00\n        /* \"#utility.yul\":4977:4979   */\n      0x20\n        /* \"#utility.yul\":4966:4975   */\n      dup3\n        /* \"#utility.yul\":4962:4980   */\n      add\n        /* \"#utility.yul\":4954:4980   */\n      swap1\n      pop\n        /* \"#utility.yul\":4990:5055   */\n      tag_419\n        /* \"#utility.yul\":5052:5053   */\n      0x00\n        /* \"#utility.yul\":5041:5050   */\n      dup4\n        /* \"#utility.yul\":5037:5054   */\n      add\n        /* \"#utility.yul\":5028:5034   */\n      dup5\n        /* \"#utility.yul\":4990:5055   */\n      tag_295\n      jump\t// in\n    tag_419:\n        /* \"#utility.yul\":4852:5062   */\n      swap3\n      swap2\n      pop\n      pop\n      jump\t// out\n        /* \"#utility.yul\":5068:5397   */\n    tag_52:\n        /* \"#utility.yul\":5127:5133   */\n      0x00\n        /* \"#utility.yul\":5176:5178   */\n      0x20\n        /* \"#utility.yul\":5164:5173   */\n      dup3\n        /* \"#utility.yul\":5155:5162   */\n      dup5\n        /* \"#utility.yul\":5151:5174   */\n      sub\n        /* \"#utility.yul\":5147:5179   */\n      slt\n        /* \"#utility.yul\":5144:5263   */\n      iszero\n      tag_421\n      jumpi\n        /* \"#utility.yul\":5182:5261   */\n      tag_422\n      tag_278\n      jump\t// in\n    tag_422:\n        /* \"#utility.yul\":5144:5263   */\n    tag_421:\n        /* \"#utility.yul\":5302:5303   */\n      0x00\n        /* \"#utility.yul\":5327:5380   */\n      tag_423\n        /* \"#utility.yul\":5372:5379   */\n      dup5\n        /* \"#utility.yul\":5363:5369   */\n      dup3\n        /* \"#utility.yul\":5352:5361   */\n      dup6\n        /* \"#utility.yul\":5348:5370   */\n      add\n        /* \"#utility.yul\":5327:5380   */\n      tag_282\n      jump\t// in\n    tag_423:\n        /* \"#utility.yul\":5317:5380   */\n      swap2\n      pop\n        /* \"#utility.yul\":5273:5390   */\n      pop\n        /* \"#utility.yul\":5068:5397   */\n      swap3\n      swap2\n      pop\n      pop\n      jump\t// out\n        /* \"#utility.yul\":5403:5480   */\n    tag_296:\n        /* \"#utility.yul\":5440:5447   */\n      0x00\n        /* \"#utility.yul\":5469:5474   */\n      dup2\n        /* \"#utility.yul\":5458:5474   */\n      swap1\n      pop\n        /* \"#utility.yul\":5403:5480   */\n      swap2\n      swap1\n      pop\n      jump\t// out\n        /* \"#utility.yul\":5486:5608   */\n    tag_297:\n        /* \"#utility.yul\":5559:5583   */\n      tag_426\n        /* \"#utility.yul\":5577:5582   */\n      dup2\n        /* \"#utility.yul\":5559:5583   */\n      tag_296\n      jump\t// in\n    tag_426:\n        /* \"#utility.yul\":5552:5557   */\n      dup2\n        /* \"#utility.yul\":5549:5584   */\n      eq\n        /* \"#utility.yul\":5539:5602   */\n      tag_427\n      jumpi\n        /* \"#utility.yul\":5598:5599   */\n      0x00\n        /* \"#utility.yul\":5595:5596   */\n      dup1\n        /* \"#utility.yul\":5588:5600   */\n      revert\n        /* \"#utility.yul\":5539:5602   */\n    tag_427:\n        /* \"#utility.yul\":5486:5608   */\n      pop\n      jump\t// out\n        /* \"#utility.yul\":5614:5753   */\n    tag_298:\n        /* \"#utility.yul\":5660:5665   */\n      0x00\n        /* \"#utility.yul\":5698:5704   */\n      dup2\n        /* \"#utility.yul\":5685:5705   */\n      calldataload\n        /* \"#utility.yul\":5676:5705   */\n      swap1\n      pop\n        /* \"#utility.yul\":5714:5747   */\n      tag_429\n        /* \"#utility.yul\":5741:5746   */\n      dup2\n        /* \"#utility.yul\":5714:5747   */\n      tag_297\n      jump\t// in\n    tag_429:\n        /* \"#utility.yul\":5614:5753   */\n      swap3\n      swap2\n      pop\n      pop\n      jump\t// out\n        /* \"#utility.yul\":5759:6233   */\n    tag_83:\n        /* \"#utility.yul\":5827:5833   */\n      0x00\n        /* \"#utility.yul\":5835:5841   */\n      dup1\n        /* \"#utility.yul\":5884:5886   */\n      0x40\n        /* \"#utility.yul\":5872:5881   */\n      dup4\n        /* \"#utility.yul\":5863:5870   */\n      dup6\n        /* \"#utility.yul\":5859:5882   */\n      sub\n        /* \"#utility.yul\":5855:5887   */\n      slt\n        /* \"#utility.yul\":5852:5971   */\n      iszero\n      tag_431\n      jumpi\n        /* \"#utility.yul\":5890:5969   */\n      tag_432\n      tag_278\n      jump\t// in\n    tag_432:\n        /* \"#utility.yul\":5852:5971   */\n    tag_431:\n        /* \"#utility.yul\":6010:6011   */\n      0x00\n        /* \"#utility.yul\":6035:6088   */\n      tag_433\n        /* \"#utility.yul\":6080:6087   */\n      dup6\n        /* \"#utility.yul\":6071:6077   */\n      dup3\n        /* \"#utility.yul\":6060:6069   */\n      dup7\n        /* \"#utility.yul\":6056:6078   */\n      add\n        /* \"#utility.yul\":6035:6088   */\n      tag_282\n      jump\t// in\n    tag_433:\n        /* \"#utility.yul\":6025:6088   */\n      swap3\n      pop\n        /* \"#utility.yul\":5981:6098   */\n      pop\n        /* \"#utility.yul\":6137:6139   */\n      0x20\n        /* \"#utility.yul\":6163:6216   */\n      tag_434\n        /* \"#utility.yul\":6208:6215   */\n      dup6\n        /* \"#utility.yul\":6199:6205   */\n      dup3\n        /* \"#utility.yul\":6188:6197   */\n      dup7\n        /* \"#utility.yul\":6184:6206   */\n      add\n        /* \"#utility.yul\":6163:6216   */\n      tag_298\n      jump\t// in\n    tag_434:\n        /* \"#utility.yul\":6153:6216   */\n      swap2\n      pop\n        /* \"#utility.yul\":6108:6226   */\n      pop\n        /* \"#utility.yul\":5759:6233   */\n      swap3\n      pop\n      swap3\n      swap1\n      pop\n      jump\t// out\n        /* \"#utility.yul\":6239:6681   */\n    tag_90:\n        /* \"#utility.yul\":6388:6392   */\n      0x00\n        /* \"#utility.yul\":6426:6428   */\n      0x60\n        /* \"#utility.yul\":6415:6424   */\n      dup3\n        /* \"#utility.yul\":6411:6429   */\n      add\n        /* \"#utility.yul\":6403:6429   */\n      swap1\n      pop\n        /* \"#utility.yul\":6439:6510   */\n      tag_436\n        /* \"#utility.yul\":6507:6508   */\n      0x00\n        /* \"#utility.yul\":6496:6505   */\n      dup4\n        /* \"#utility.yul\":6492:6509   */\n      add\n        /* \"#utility.yul\":6483:6489   */\n      dup7\n        /* \"#utility.yul\":6439:6510   */\n      tag_287\n      jump\t// in\n    tag_436:\n        /* \"#utility.yul\":6520:6592   */\n      tag_437\n        /* \"#utility.yul\":6588:6590   */\n      0x20\n        /* \"#utility.yul\":6577:6586   */\n      dup4\n        /* \"#utility.yul\":6573:6591   */\n      add\n        /* \"#utility.yul\":6564:6570   */\n      dup6\n        /* \"#utility.yul\":6520:6592   */\n      tag_293\n      jump\t// in\n    tag_437:\n        /* \"#utility.yul\":6602:6674   */\n      tag_438\n        /* \"#utility.yul\":6670:6672   */\n      0x40\n        /* \"#utility.yul\":6659:6668   */\n      dup4\n        /* \"#utility.yul\":6655:6673   */\n      add\n        /* \"#utility.yul\":6646:6652   */\n      dup5\n        /* \"#utility.yul\":6602:6674   */\n      tag_287\n      jump\t// in\n    tag_438:\n        /* \"#utility.yul\":6239:6681   */\n      swap5\n      swap4\n      pop\n      pop\n      pop\n      pop\n      jump\t// out\n        /* \"#utility.yul\":6687:7339   */\n    tag_96:\n        /* \"#utility.yul\":6886:6890   */\n      0x00\n        /* \"#utility.yul\":6924:6927   */\n      0xa0\n        /* \"#utility.yul\":6913:6922   */\n      dup3\n        /* \"#utility.yul\":6909:6928   */\n      add\n        /* \"#utility.yul\":6901:6928   */\n      swap1\n      pop\n        /* \"#utility.yul\":6938:7009   */\n      tag_440\n        /* \"#utility.yul\":7006:7007   */\n      0x00\n        /* \"#utility.yul\":6995:7004   */\n      dup4\n        /* \"#utility.yul\":6991:7008   */\n      add\n        /* \"#utility.yul\":6982:6988   */\n      dup9\n        /* \"#utility.yul\":6938:7009   */\n      tag_287\n      jump\t// in\n    tag_440:\n        /* \"#utility.yul\":7019:7091   */\n      tag_441\n        /* \"#utility.yul\":7087:7089   */\n      0x20\n        /* \"#utility.yul\":7076:7085   */\n      dup4\n        /* \"#utility.yul\":7072:7090   */\n      add\n        /* \"#utility.yul\":7063:7069   */\n      dup8\n        /* \"#utility.yul\":7019:7091   */\n      tag_293\n      jump\t// in\n    tag_441:\n        /* \"#utility.yul\":7101:7173   */\n      tag_442\n        /* \"#utility.yul\":7169:7171   */\n      0x40\n        /* \"#utility.yul\":7158:7167   */\n      dup4\n        /* \"#utility.yul\":7154:7172   */\n      add\n        /* \"#utility.yul\":7145:7151   */\n      dup7\n        /* \"#utility.yul\":7101:7173   */\n      tag_287\n      jump\t// in\n    tag_442:\n        /* \"#utility.yul\":7183:7255   */\n      tag_443\n        /* \"#utility.yul\":7251:7253   */\n      0x60\n        /* \"#utility.yul\":7240:7249   */\n      dup4\n        /* \"#utility.yul\":7236:7254   */\n      add\n        /* \"#utility.yul\":7227:7233   */\n      dup6\n        /* \"#utility.yul\":7183:7255   */\n      tag_287\n      jump\t// in\n    tag_443:\n        /* \"#utility.yul\":7265:7332   */\n      tag_444\n        /* \"#utility.yul\":7327:7330   */\n      0x80\n        /* \"#utility.yul\":7316:7325   */\n      dup4\n        /* \"#utility.yul\":7312:7331   */\n      add\n        /* \"#utility.yul\":7303:7309   */\n      dup5\n        /* \"#utility.yul\":7265:7332   */\n      tag_295\n      jump\t// in\n    tag_444:\n        /* \"#utility.yul\":6687:7339   */\n      swap7\n      swap6\n      pop\n      pop\n      pop\n      pop\n      pop\n      pop\n      jump\t// out\n        /* \"#utility.yul\":7345:7462   */\n    tag_299:\n        /* \"#utility.yul\":7454:7455   */\n      0x00\n        /* \"#utility.yul\":7451:7452   */\n      dup1\n        /* \"#utility.yul\":7444:7456   */\n      revert\n        /* \"#utility.yul\":7468:7648   */\n    tag_239:\n        /* \"#utility.yul\":7516:7593   */\n      0x4e487b7100000000000000000000000000000000000000000000000000000000\n        /* \"#utility.yul\":7513:7514   */\n      0x00\n        /* \"#utility.yul\":7506:7594   */\n      mstore\n        /* \"#utility.yul\":7613:7617   */\n      0x41\n        /* \"#utility.yul\":7610:7611   */\n      0x04\n        /* \"#utility.yul\":7603:7618   */\n      mstore\n        /* \"#utility.yul\":7637:7641   */\n      0x24\n        /* \"#utility.yul\":7634:7635   */\n      0x00\n        /* \"#utility.yul\":7627:7642   */\n      revert\n        /* \"#utility.yul\":7654:7935   */\n    tag_300:\n        /* \"#utility.yul\":7737:7764   */\n      tag_448\n        /* \"#utility.yul\":7759:7763   */\n      dup3\n        /* \"#utility.yul\":7737:7764   */\n      tag_291\n      jump\t// in\n    tag_448:\n        /* \"#utility.yul\":7729:7735   */\n      dup2\n        /* \"#utility.yul\":7725:7765   */\n      add\n        /* \"#utility.yul\":7867:7873   */\n      dup2\n        /* \"#utility.yul\":7855:7865   */\n      dup2\n        /* \"#utility.yul\":7852:7874   */\n      lt\n        /* \"#utility.yul\":7831:7849   */\n      0xffffffffffffffff\n        /* \"#utility.yul\":7819:7829   */\n      dup3\n        /* \"#utility.yul\":7816:7850   */\n      gt\n        /* \"#utility.yul\":7813:7875   */\n      or\n        /* \"#utility.yul\":7810:7898   */\n      iszero\n      tag_449\n      jumpi\n        /* \"#utility.yul\":7878:7896   */\n      tag_450\n      tag_239\n      jump\t// in\n    tag_450:\n        /* \"#utility.yul\":7810:7898   */\n    tag_449:\n        /* \"#utility.yul\":7918:7928   */\n      dup1\n        /* \"#utility.yul\":7914:7916   */\n      0x40\n        /* \"#utility.yul\":7907:7929   */\n      mstore\n        /* \"#utility.yul\":7697:7935   */\n      pop\n        /* \"#utility.yul\":7654:7935   */\n      pop\n      pop\n      jump\t// out\n        /* \"#utility.yul\":7941:8070   */\n    tag_301:\n        /* \"#utility.yul\":7975:7981   */\n      0x00\n        /* \"#utility.yul\":8002:8022   */\n      tag_452\n      tag_277\n      jump\t// in\n    tag_452:\n        /* \"#utility.yul\":7992:8022   */\n      swap1\n      pop\n        /* \"#utility.yul\":8031:8064   */\n      tag_453\n        /* \"#utility.yul\":8059:8063   */\n      dup3\n        /* \"#utility.yul\":8051:8057   */\n      dup3\n        /* \"#utility.yul\":8031:8064   */\n      tag_300\n      jump\t// in\n    tag_453:\n        /* \"#utility.yul\":7941:8070   */\n      swap2\n      swap1\n      pop\n      jump\t// out\n        /* \"#utility.yul\":8076:8397   */\n    tag_302:\n        /* \"#utility.yul\":8163:8167   */\n      0x00\n        /* \"#utility.yul\":8253:8271   */\n      0xffffffffffffffff\n        /* \"#utility.yul\":8245:8251   */\n      dup3\n        /* \"#utility.yul\":8242:8272   */\n      gt\n        /* \"#utility.yul\":8239:8295   */\n      iszero\n      tag_455\n      jumpi\n        /* \"#utility.yul\":8275:8293   */\n      tag_456\n      tag_239\n      jump\t// in\n    tag_456:\n        /* \"#utility.yul\":8239:8295   */\n    tag_455:\n        /* \"#utility.yul\":8325:8329   */\n      0x20\n        /* \"#utility.yul\":8317:8323   */\n      dup3\n        /* \"#utility.yul\":8313:8330   */\n      mul\n        /* \"#utility.yul\":8305:8330   */\n      swap1\n      pop\n        /* \"#utility.yul\":8385:8389   */\n      0x20\n        /* \"#utility.yul\":8379:8383   */\n      dup2\n        /* \"#utility.yul\":8375:8390   */\n      add\n        /* \"#utility.yul\":8367:8390   */\n      swap1\n      pop\n        /* \"#utility.yul\":8076:8397   */\n      swap2\n      swap1\n      pop\n      jump\t// out\n        /* \"#utility.yul\":8403:8520   */\n    tag_303:\n        /* \"#utility.yul\":8512:8513   */\n      0x00\n        /* \"#utility.yul\":8509:8510   */\n      dup1\n        /* \"#utility.yul\":8502:8514   */\n      revert\n        /* \"#utility.yul\":8526:8643   */\n    tag_304:\n        /* \"#utility.yul\":8635:8636   */\n      0x00\n        /* \"#utility.yul\":8632:8633   */\n      dup1\n        /* \"#utility.yul\":8625:8637   */\n      revert\n        /* \"#utility.yul\":8649:8957   */\n    tag_305:\n        /* \"#utility.yul\":8711:8715   */\n      0x00\n        /* \"#utility.yul\":8801:8819   */\n      0xffffffffffffffff\n        /* \"#utility.yul\":8793:8799   */\n      dup3\n        /* \"#utility.yul\":8790:8820   */\n      gt\n        /* \"#utility.yul\":8787:8843   */\n      iszero\n      tag_460\n      jumpi\n        /* \"#utility.yul\":8823:8841   */\n      tag_461\n      tag_239\n      jump\t// in\n    tag_461:\n        /* \"#utility.yul\":8787:8843   */\n    tag_460:\n        /* \"#utility.yul\":8861:8890   */\n      tag_462\n        /* \"#utility.yul\":8883:8889   */\n      dup3\n        /* \"#utility.yul\":8861:8890   */\n      tag_291\n      jump\t// in\n    tag_462:\n        /* \"#utility.yul\":8853:8890   */\n      swap1\n      pop\n        /* \"#utility.yul\":8945:8949   */\n      0x20\n        /* \"#utility.yul\":8939:8943   */\n      dup2\n        /* \"#utility.yul\":8935:8950   */\n      add\n        /* \"#utility.yul\":8927:8950   */\n      swap1\n      pop\n        /* \"#utility.yul\":8649:8957   */\n      swap2\n      swap1\n      pop\n      jump\t// out\n        /* \"#utility.yul\":8963:9109   */\n    tag_306:\n        /* \"#utility.yul\":9060:9066   */\n      dup3\n        /* \"#utility.yul\":9055:9058   */\n      dup2\n        /* \"#utility.yul\":9050:9053   */\n      dup4\n        /* \"#utility.yul\":9037:9067   */\n      calldatacopy\n        /* \"#utility.yul\":9101:9102   */\n      0x00\n        /* \"#utility.yul\":9092:9098   */\n      dup4\n        /* \"#utility.yul\":9087:9090   */\n      dup4\n        /* \"#utility.yul\":9083:9099   */\n      add\n        /* \"#utility.yul\":9076:9103   */\n      mstore\n        /* \"#utility.yul\":8963:9109   */\n      pop\n      pop\n      pop\n      jump\t// out\n        /* \"#utility.yul\":9115:9540   */\n    tag_307:\n        /* \"#utility.yul\":9193:9198   */\n      0x00\n        /* \"#utility.yul\":9218:9284   */\n      tag_465\n        /* \"#utility.yul\":9234:9283   */\n      tag_466\n        /* \"#utility.yul\":9276:9282   */\n      dup5\n        /* \"#utility.yul\":9234:9283   */\n      tag_305\n      jump\t// in\n    tag_466:\n        /* \"#utility.yul\":9218:9284   */\n      tag_301\n      jump\t// in\n    tag_465:\n        /* \"#utility.yul\":9209:9284   */\n      swap1\n      pop\n        /* \"#utility.yul\":9307:9313   */\n      dup3\n        /* \"#utility.yul\":9300:9305   */\n      dup2\n        /* \"#utility.yul\":9293:9314   */\n      mstore\n        /* \"#utility.yul\":9345:9349   */\n      0x20\n        /* \"#utility.yul\":9338:9343   */\n      dup2\n        /* \"#utility.yul\":9334:9350   */\n      add\n        /* \"#utility.yul\":9383:9386   */\n      dup5\n        /* \"#utility.yul\":9374:9380   */\n      dup5\n        /* \"#utility.yul\":9369:9372   */\n      dup5\n        /* \"#utility.yul\":9365:9381   */\n      add\n        /* \"#utility.yul\":9362:9387   */\n      gt\n        /* \"#utility.yul\":9359:9471   */\n      iszero\n      tag_467\n      jumpi\n        /* \"#utility.yul\":9390:9469   */\n      tag_468\n      tag_304\n      jump\t// in\n    tag_468:\n        /* \"#utility.yul\":9359:9471   */\n    tag_467:\n        /* \"#utility.yul\":9480:9534   */\n      tag_469\n        /* \"#utility.yul\":9527:9533   */\n      dup5\n        /* \"#utility.yul\":9522:9525   */\n      dup3\n        /* \"#utility.yul\":9517:9520   */\n      dup6\n        /* \"#utility.yul\":9480:9534   */\n      tag_306\n      jump\t// in\n    tag_469:\n        /* \"#utility.yul\":9199:9540   */\n      pop\n        /* \"#utility.yul\":9115:9540   */\n      swap4\n      swap3\n      pop\n      pop\n      pop\n      jump\t// out\n        /* \"#utility.yul\":9560:9900   */\n    tag_308:\n        /* \"#utility.yul\":9616:9621   */\n      0x00\n        /* \"#utility.yul\":9665:9668   */\n      dup3\n        /* \"#utility.yul\":9658:9662   */\n      0x1f\n        /* \"#utility.yul\":9650:9656   */\n      dup4\n        /* \"#utility.yul\":9646:9663   */\n      add\n        /* \"#utility.yul\":9642:9669   */\n      slt\n        /* \"#utility.yul\":9632:9754   */\n      tag_471\n      jumpi\n        /* \"#utility.yul\":9673:9752   */\n      tag_472\n      tag_299\n      jump\t// in\n    tag_472:\n        /* \"#utility.yul\":9632:9754   */\n    tag_471:\n        /* \"#utility.yul\":9790:9796   */\n      dup2\n        /* \"#utility.yul\":9777:9797   */\n      calldataload\n        /* \"#utility.yul\":9815:9894   */\n      tag_473\n        /* \"#utility.yul\":9890:9893   */\n      dup5\n        /* \"#utility.yul\":9882:9888   */\n      dup3\n        /* \"#utility.yul\":9875:9879   */\n      0x20\n        /* \"#utility.yul\":9867:9873   */\n      dup7\n        /* \"#utility.yul\":9863:9880   */\n      add\n        /* \"#utility.yul\":9815:9894   */\n      tag_307\n      jump\t// in\n    tag_473:\n        /* \"#utility.yul\":9806:9894   */\n      swap2\n      pop\n        /* \"#utility.yul\":9622:9900   */\n      pop\n        /* \"#utility.yul\":9560:9900   */\n      swap3\n      swap2\n      pop\n      pop\n      jump\t// out\n        /* \"#utility.yul\":9922:10867   */\n    tag_309:\n        /* \"#utility.yul\":10028:10033   */\n      0x00\n        /* \"#utility.yul\":10053:10144   */\n      tag_475\n        /* \"#utility.yul\":10069:10143   */\n      tag_476\n        /* \"#utility.yul\":10136:10142   */\n      dup5\n        /* \"#utility.yul\":10069:10143   */\n      tag_302\n      jump\t// in\n    tag_476:\n        /* \"#utility.yul\":10053:10144   */\n      tag_301\n      jump\t// in\n    tag_475:\n        /* \"#utility.yul\":10044:10144   */\n      swap1\n      pop\n        /* \"#utility.yul\":10164:10169   */\n      dup1\n        /* \"#utility.yul\":10193:10199   */\n      dup4\n        /* \"#utility.yul\":10186:10191   */\n      dup3\n        /* \"#utility.yul\":10179:10200   */\n      mstore\n        /* \"#utility.yul\":10227:10231   */\n      0x20\n        /* \"#utility.yul\":10220:10225   */\n      dup3\n        /* \"#utility.yul\":10216:10232   */\n      add\n        /* \"#utility.yul\":10209:10232   */\n      swap1\n      pop\n        /* \"#utility.yul\":10280:10284   */\n      0x20\n        /* \"#utility.yul\":10272:10278   */\n      dup5\n        /* \"#utility.yul\":10268:10285   */\n      mul\n        /* \"#utility.yul\":10260:10266   */\n      dup4\n        /* \"#utility.yul\":10256:10286   */\n      add\n        /* \"#utility.yul\":10309:10312   */\n      dup6\n        /* \"#utility.yul\":10301:10307   */\n      dup2\n        /* \"#utility.yul\":10298:10313   */\n      gt\n        /* \"#utility.yul\":10295:10417   */\n      iszero\n      tag_477\n      jumpi\n        /* \"#utility.yul\":10328:10407   */\n      tag_478\n      tag_303\n      jump\t// in\n    tag_478:\n        /* \"#utility.yul\":10295:10417   */\n    tag_477:\n        /* \"#utility.yul\":10443:10449   */\n      dup4\n        /* \"#utility.yul\":10426:10861   */\n    tag_479:\n        /* \"#utility.yul\":10460:10466   */\n      dup2\n        /* \"#utility.yul\":10455:10458   */\n      dup2\n        /* \"#utility.yul\":10452:10467   */\n      lt\n        /* \"#utility.yul\":10426:10861   */\n      iszero\n      tag_481\n      jumpi\n        /* \"#utility.yul\":10549:10552   */\n      dup1\n        /* \"#utility.yul\":10536:10553   */\n      calldataload\n        /* \"#utility.yul\":10585:10603   */\n      0xffffffffffffffff\n        /* \"#utility.yul\":10572:10583   */\n      dup2\n        /* \"#utility.yul\":10569:10604   */\n      gt\n        /* \"#utility.yul\":10566:10688   */\n      iszero\n      tag_482\n      jumpi\n        /* \"#utility.yul\":10607:10686   */\n      tag_483\n      tag_299\n      jump\t// in\n    tag_483:\n        /* \"#utility.yul\":10566:10688   */\n    tag_482:\n        /* \"#utility.yul\":10731:10742   */\n      dup1\n        /* \"#utility.yul\":10723:10729   */\n      dup7\n        /* \"#utility.yul\":10719:10743   */\n      add\n        /* \"#utility.yul\":10769:10816   */\n      tag_484\n        /* \"#utility.yul\":10812:10815   */\n      dup10\n        /* \"#utility.yul\":10800:10810   */\n      dup3\n        /* \"#utility.yul\":10769:10816   */\n      tag_308\n      jump\t// in\n    tag_484:\n        /* \"#utility.yul\":10764:10767   */\n      dup6\n        /* \"#utility.yul\":10757:10817   */\n      mstore\n        /* \"#utility.yul\":10846:10850   */\n      0x20\n        /* \"#utility.yul\":10841:10844   */\n      dup6\n        /* \"#utility.yul\":10837:10851   */\n      add\n        /* \"#utility.yul\":10830:10851   */\n      swap5\n      pop\n        /* \"#utility.yul\":10502:10861   */\n      pop\n      pop\n        /* \"#utility.yul\":10486:10490   */\n      0x20\n        /* \"#utility.yul\":10481:10484   */\n      dup2\n        /* \"#utility.yul\":10477:10491   */\n      add\n        /* \"#utility.yul\":10470:10491   */\n      swap1\n      pop\n        /* \"#utility.yul\":10426:10861   */\n      jump(tag_479)\n    tag_481:\n        /* \"#utility.yul\":10430:10451   */\n      pop\n        /* \"#utility.yul\":10034:10867   */\n      pop\n      pop\n        /* \"#utility.yul\":9922:10867   */\n      swap4\n      swap3\n      pop\n      pop\n      pop\n      jump\t// out\n        /* \"#utility.yul\":10889:11279   */\n    tag_310:\n        /* \"#utility.yul\":10970:10975   */\n      0x00\n        /* \"#utility.yul\":11019:11022   */\n      dup3\n        /* \"#utility.yul\":11012:11016   */\n      0x1f\n        /* \"#utility.yul\":11004:11010   */\n      dup4\n        /* \"#utility.yul\":11000:11017   */\n      add\n        /* \"#utility.yul\":10996:11023   */\n      slt\n        /* \"#utility.yul\":10986:11108   */\n      tag_486\n      jumpi\n        /* \"#utility.yul\":11027:11106   */\n      tag_487\n      tag_299\n      jump\t// in\n    tag_487:\n        /* \"#utility.yul\":10986:11108   */\n    tag_486:\n        /* \"#utility.yul\":11144:11150   */\n      dup2\n        /* \"#utility.yul\":11131:11151   */\n      calldataload\n        /* \"#utility.yul\":11169:11273   */\n      tag_488\n        /* \"#utility.yul\":11269:11272   */\n      dup5\n        /* \"#utility.yul\":11261:11267   */\n      dup3\n        /* \"#utility.yul\":11254:11258   */\n      0x20\n        /* \"#utility.yul\":11246:11252   */\n      dup7\n        /* \"#utility.yul\":11242:11259   */\n      add\n        /* \"#utility.yul\":11169:11273   */\n      tag_309\n      jump\t// in\n    tag_488:\n        /* \"#utility.yul\":11160:11273   */\n      swap2\n      pop\n        /* \"#utility.yul\":10976:11279   */\n      pop\n        /* \"#utility.yul\":10889:11279   */\n      swap3\n      swap2\n      pop\n      pop\n      jump\t// out\n        /* \"#utility.yul\":11285:12134   */\n    tag_104:\n        /* \"#utility.yul\":11397:11403   */\n      0x00\n        /* \"#utility.yul\":11405:11411   */\n      dup1\n        /* \"#utility.yul\":11413:11419   */\n      0x00\n        /* \"#utility.yul\":11462:11464   */\n      0x60\n        /* \"#utility.yul\":11450:11459   */\n      dup5\n        /* \"#utility.yul\":11441:11448   */\n      dup7\n        /* \"#utility.yul\":11437:11460   */\n      sub\n        /* \"#utility.yul\":11433:11465   */\n      slt\n        /* \"#utility.yul\":11430:11549   */\n      iszero\n      tag_490\n      jumpi\n        /* \"#utility.yul\":11468:11547   */\n      tag_491\n      tag_278\n      jump\t// in\n    tag_491:\n        /* \"#utility.yul\":11430:11549   */\n    tag_490:\n        /* \"#utility.yul\":11588:11589   */\n      0x00\n        /* \"#utility.yul\":11613:11666   */\n      tag_492\n        /* \"#utility.yul\":11658:11665   */\n      dup7\n        /* \"#utility.yul\":11649:11655   */\n      dup3\n        /* \"#utility.yul\":11638:11647   */\n      dup8\n        /* \"#utility.yul\":11634:11656   */\n      add\n        /* \"#utility.yul\":11613:11666   */\n      tag_282\n      jump\t// in\n    tag_492:\n        /* \"#utility.yul\":11603:11666   */\n      swap4\n      pop\n        /* \"#utility.yul\":11559:11676   */\n      pop\n        /* \"#utility.yul\":11715:11717   */\n      0x20\n        /* \"#utility.yul\":11741:11794   */\n      tag_493\n        /* \"#utility.yul\":11786:11793   */\n      dup7\n        /* \"#utility.yul\":11777:11783   */\n      dup3\n        /* \"#utility.yul\":11766:11775   */\n      dup8\n        /* \"#utility.yul\":11762:11784   */\n      add\n        /* \"#utility.yul\":11741:11794   */\n      tag_282\n      jump\t// in\n    tag_493:\n        /* \"#utility.yul\":11731:11794   */\n      swap3\n      pop\n        /* \"#utility.yul\":11686:11804   */\n      pop\n        /* \"#utility.yul\":11871:11873   */\n      0x40\n        /* \"#utility.yul\":11860:11869   */\n      dup5\n        /* \"#utility.yul\":11856:11874   */\n      add\n        /* \"#utility.yul\":11843:11875   */\n      calldataload\n        /* \"#utility.yul\":11902:11920   */\n      0xffffffffffffffff\n        /* \"#utility.yul\":11894:11900   */\n      dup2\n        /* \"#utility.yul\":11891:11921   */\n      gt\n        /* \"#utility.yul\":11888:12005   */\n      iszero\n      tag_494\n      jumpi\n        /* \"#utility.yul\":11924:12003   */\n      tag_495\n      tag_279\n      jump\t// in\n    tag_495:\n        /* \"#utility.yul\":11888:12005   */\n    tag_494:\n        /* \"#utility.yul\":12029:12117   */\n      tag_496\n        /* \"#utility.yul\":12109:12116   */\n      dup7\n        /* \"#utility.yul\":12100:12106   */\n      dup3\n        /* \"#utility.yul\":12089:12098   */\n      dup8\n        /* \"#utility.yul\":12085:12107   */\n      add\n        /* \"#utility.yul\":12029:12117   */\n      tag_310\n      jump\t// in\n    tag_496:\n        /* \"#utility.yul\":12019:12117   */\n      swap2\n      pop\n        /* \"#utility.yul\":11814:12127   */\n      pop\n        /* \"#utility.yul\":11285:12134   */\n      swap3\n      pop\n      swap3\n      pop\n      swap3\n      jump\t// out\n        /* \"#utility.yul\":12140:12320   */\n    tag_311:\n        /* \"#utility.yul\":12188:12265   */\n      0x4e487b7100000000000000000000000000000000000000000000000000000000\n        /* \"#utility.yul\":12185:12186   */\n      0x00\n        /* \"#utility.yul\":12178:12266   */\n      mstore\n        /* \"#utility.yul\":12285:12289   */\n      0x22\n        /* \"#utility.yul\":12282:12283   */\n      0x04\n        /* \"#utility.yul\":12275:12290   */\n      mstore\n        /* \"#utility.yul\":12309:12313   */\n      0x24\n        /* \"#utility.yul\":12306:12307   */\n      0x00\n        /* \"#utility.yul\":12299:12314   */\n      revert\n        /* \"#utility.yul\":12326:12646   */\n    tag_117:\n        /* \"#utility.yul\":12370:12376   */\n      0x00\n        /* \"#utility.yul\":12407:12408   */\n      0x02\n        /* \"#utility.yul\":12401:12405   */\n      dup3\n        /* \"#utility.yul\":12397:12409   */\n      div\n        /* \"#utility.yul\":12387:12409   */\n      swap1\n      pop\n        /* \"#utility.yul\":12454:12455   */\n      0x01\n        /* \"#utility.yul\":12448:12452   */\n      dup3\n        /* \"#utility.yul\":12444:12456   */\n      and\n        /* \"#utility.yul\":12475:12493   */\n      dup1\n        /* \"#utility.yul\":12465:12546   */\n      tag_499\n      jumpi\n        /* \"#utility.yul\":12531:12535   */\n      0x7f\n        /* \"#utility.yul\":12523:12529   */\n      dup3\n        /* \"#utility.yul\":12519:12536   */\n      and\n        /* \"#utility.yul\":12509:12536   */\n      swap2\n      pop\n        /* \"#utility.yul\":12465:12546   */\n    tag_499:\n        /* \"#utility.yul\":12593:12595   */\n      0x20\n        /* \"#utility.yul\":12585:12591   */\n      dup3\n        /* \"#utility.yul\":12582:12596   */\n      lt\n        /* \"#utility.yul\":12562:12580   */\n      dup2\n        /* \"#utility.yul\":12559:12597   */\n      sub\n        /* \"#utility.yul\":12556:12640   */\n      tag_500\n      jumpi\n        /* \"#utility.yul\":12612:12630   */\n      tag_501\n      tag_311\n      jump\t// in\n    tag_501:\n        /* \"#utility.yul\":12556:12640   */\n    tag_500:\n        /* \"#utility.yul\":12377:12646   */\n      pop\n        /* \"#utility.yul\":12326:12646   */\n      swap2\n      swap1\n      pop\n      jump\t// out\n        /* \"#utility.yul\":12652:12832   */\n    tag_125:\n        /* \"#utility.yul\":12700:12777   */\n      0x4e487b7100000000000000000000000000000000000000000000000000000000\n        /* \"#utility.yul\":12697:12698   */\n      0x00\n        /* \"#utility.yul\":12690:12778   */\n      mstore\n        /* \"#utility.yul\":12797:12801   */\n      0x32\n        /* \"#utility.yul\":12794:12795   */\n      0x04\n        /* \"#utility.yul\":12787:12802   */\n      mstore\n        /* \"#utility.yul\":12821:12825   */\n      0x24\n        /* \"#utility.yul\":12818:12819   */\n      0x00\n        /* \"#utility.yul\":12811:12826   */\n      revert\n        /* \"#utility.yul\":12838:13001   */\n    tag_312:\n        /* \"#utility.yul\":12978:12993   */\n      0x416c726561647920766f74656400000000000000000000000000000000000000\n        /* \"#utility.yul\":12974:12975   */\n      0x00\n        /* \"#utility.yul\":12966:12972   */\n      dup3\n        /* \"#utility.yul\":12962:12976   */\n      add\n        /* \"#utility.yul\":12955:12994   */\n      mstore\n        /* \"#utility.yul\":12838:13001   */\n      pop\n      jump\t// out\n        /* \"#utility.yul\":13007:13373   */\n    tag_313:\n        /* \"#utility.yul\":13149:13152   */\n      0x00\n        /* \"#utility.yul\":13170:13237   */\n      tag_505\n        /* \"#utility.yul\":13234:13236   */\n      0x0d\n        /* \"#utility.yul\":13229:13232   */\n      dup4\n        /* \"#utility.yul\":13170:13237   */\n      tag_289\n      jump\t// in\n    tag_505:\n        /* \"#utility.yul\":13163:13237   */\n      swap2\n      pop\n        /* \"#utility.yul\":13246:13339   */\n      tag_506\n        /* \"#utility.yul\":13335:13338   */\n      dup3\n        /* \"#utility.yul\":13246:13339   */\n      tag_312\n      jump\t// in\n    tag_506:\n        /* \"#utility.yul\":13364:13366   */\n      0x20\n        /* \"#utility.yul\":13359:13362   */\n      dup3\n        /* \"#utility.yul\":13355:13367   */\n      add\n        /* \"#utility.yul\":13348:13367   */\n      swap1\n      pop\n        /* \"#utility.yul\":13007:13373   */\n      swap2\n      swap1\n      pop\n      jump\t// out\n        /* \"#utility.yul\":13379:13798   */\n    tag_129:\n        /* \"#utility.yul\":13545:13549   */\n      0x00\n        /* \"#utility.yul\":13583:13585   */\n      0x20\n        /* \"#utility.yul\":13572:13581   */\n      dup3\n        /* \"#utility.yul\":13568:13586   */\n      add\n        /* \"#utility.yul\":13560:13586   */\n      swap1\n      pop\n        /* \"#utility.yul\":13632:13641   */\n      dup2\n        /* \"#utility.yul\":13626:13630   */\n      dup2\n        /* \"#utility.yul\":13622:13642   */\n      sub\n        /* \"#utility.yul\":13618:13619   */\n      0x00\n        /* \"#utility.yul\":13607:13616   */\n      dup4\n        /* \"#utility.yul\":13603:13620   */\n      add\n        /* \"#utility.yul\":13596:13643   */\n      mstore\n        /* \"#utility.yul\":13660:13791   */\n      tag_508\n        /* \"#utility.yul\":13786:13790   */\n      dup2\n        /* \"#utility.yul\":13660:13791   */\n      tag_313\n      jump\t// in\n    tag_508:\n        /* \"#utility.yul\":13652:13791   */\n      swap1\n      pop\n        /* \"#utility.yul\":13379:13798   */\n      swap2\n      swap1\n      pop\n      jump\t// out\n        /* \"#utility.yul\":13804:13968   */\n    tag_314:\n        /* \"#utility.yul\":13944:13960   */\n      0x506f6c6c20697320636c6f736564000000000000000000000000000000000000\n        /* \"#utility.yul\":13940:13941   */\n      0x00\n        /* \"#utility.yul\":13932:13938   */\n      dup3\n        /* \"#utility.yul\":13928:13942   */\n      add\n        /* \"#utility.yul\":13921:13961   */\n      mstore\n        /* \"#utility.yul\":13804:13968   */\n      pop\n      jump\t// out\n        /* \"#utility.yul\":13974:14340   */\n    tag_315:\n        /* \"#utility.yul\":14116:14119   */\n      0x00\n        /* \"#utility.yul\":14137:14204   */\n      tag_511\n        /* \"#utility.yul\":14201:14203   */\n      0x0e\n        /* \"#utility.yul\":14196:14199   */\n      dup4\n        /* \"#utility.yul\":14137:14204   */\n      tag_289\n      jump\t// in\n    tag_511:\n        /* \"#utility.yul\":14130:14204   */\n      swap2\n      pop\n        /* \"#utility.yul\":14213:14306   */\n      tag_512\n        /* \"#utility.yul\":14302:14305   */\n      dup3\n        /* \"#utility.yul\":14213:14306   */\n      tag_314\n      jump\t// in\n    tag_512:\n        /* \"#utility.yul\":14331:14333   */\n      0x20\n        /* \"#utility.yul\":14326:14329   */\n      dup3\n        /* \"#utility.yul\":14322:14334   */\n      add\n        /* \"#utility.yul\":14315:14334   */\n      swap1\n      pop\n        /* \"#utility.yul\":13974:14340   */\n      swap2\n      swap1\n      pop\n      jump\t// out\n        /* \"#utility.yul\":14346:14765   */\n    tag_132:\n        /* \"#utility.yul\":14512:14516   */\n      0x00\n        /* \"#utility.yul\":14550:14552   */\n      0x20\n        /* \"#utility.yul\":14539:14548   */\n      dup3\n        /* \"#utility.yul\":14535:14553   */\n      add\n        /* \"#utility.yul\":14527:14553   */\n      swap1\n      pop\n        /* \"#utility.yul\":14599:14608   */\n      dup2\n        /* \"#utility.yul\":14593:14597   */\n      dup2\n        /* \"#utility.yul\":14589:14609   */\n      sub\n        /* \"#utility.yul\":14585:14586   */\n      0x00\n        /* \"#utility.yul\":14574:14583   */\n      dup4\n        /* \"#utility.yul\":14570:14587   */\n      add\n        /* \"#utility.yul\":14563:14610   */\n      mstore\n        /* \"#utility.yul\":14627:14758   */\n      tag_514\n        /* \"#utility.yul\":14753:14757   */\n      dup2\n        /* \"#utility.yul\":14627:14758   */\n      tag_315\n      jump\t// in\n    tag_514:\n        /* \"#utility.yul\":14619:14758   */\n      swap1\n      pop\n        /* \"#utility.yul\":14346:14765   */\n      swap2\n      swap1\n      pop\n      jump\t// out\n        /* \"#utility.yul\":14771:14939   */\n    tag_316:\n        /* \"#utility.yul\":14911:14931   */\n      0x506f6c6c206973206e6f74206163746976650000000000000000000000000000\n        /* \"#utility.yul\":14907:14908   */\n      0x00\n        /* \"#utility.yul\":14899:14905   */\n      dup3\n        /* \"#utility.yul\":14895:14909   */\n      add\n        /* \"#utility.yul\":14888:14932   */\n      mstore\n        /* \"#utility.yul\":14771:14939   */\n      pop\n      jump\t// out\n        /* \"#utility.yul\":14945:15311   */\n    tag_317:\n        /* \"#utility.yul\":15087:15090   */\n      0x00\n        /* \"#utility.yul\":15108:15175   */\n      tag_517\n        /* \"#utility.yul\":15172:15174   */\n      0x12\n        /* \"#utility.yul\":15167:15170   */\n      dup4\n        /* \"#utility.yul\":15108:15175   */\n      tag_289\n      jump\t// in\n    tag_517:\n        /* \"#utility.yul\":15101:15175   */\n      swap2\n      pop\n        /* \"#utility.yul\":15184:15277   */\n      tag_518\n        /* \"#utility.yul\":15273:15276   */\n      dup3\n        /* \"#utility.yul\":15184:15277   */\n      tag_316\n      jump\t// in\n    tag_518:\n        /* \"#utility.yul\":15302:15304   */\n      0x20\n        /* \"#utility.yul\":15297:15300   */\n      dup3\n        /* \"#utility.yul\":15293:15305   */\n      add\n        /* \"#utility.yul\":15286:15305   */\n      swap1\n      pop\n        /* \"#utility.yul\":14945:15311   */\n      swap2\n      swap1\n      pop\n      jump\t// out\n        /* \"#utility.yul\":15317:15736   */\n    tag_136:\n        /* \"#utility.yul\":15483:15487   */\n      0x00\n        /* \"#utility.yul\":15521:15523   */\n      0x20\n        /* \"#utility.yul\":15510:15519   */\n      dup3\n        /* \"#utility.yul\":15506:15524   */\n      add\n        /* \"#utility.yul\":15498:15524   */\n      swap1\n      pop\n        /* \"#utility.yul\":15570:15579   */\n      dup2\n        /* \"#utility.yul\":15564:15568   */\n      dup2\n        /* \"#utility.yul\":15560:15580   */\n      sub\n        /* \"#utility.yul\":15556:15557   */\n      0x00\n        /* \"#utility.yul\":15545:15554   */\n      dup4\n        /* \"#utility.yul\":15541:15558   */\n      add\n        /* \"#utility.yul\":15534:15581   */\n      mstore\n        /* \"#utility.yul\":15598:15729   */\n      tag_520\n        /* \"#utility.yul\":15724:15728   */\n      dup2\n        /* \"#utility.yul\":15598:15729   */\n      tag_317\n      jump\t// in\n    tag_520:\n        /* \"#utility.yul\":15590:15729   */\n      swap1\n      pop\n        /* \"#utility.yul\":15317:15736   */\n      swap2\n      swap1\n      pop\n      jump\t// out\n        /* \"#utility.yul\":15742:15906   */\n    tag_318:\n        /* \"#utility.yul\":15882:15898   */\n      0x496e76616c69642063686f696365000000000000000000000000000000000000\n        /* \"#utility.yul\":15878:15879   */\n      0x00\n        /* \"#utility.yul\":15870:15876   */\n      dup3\n        /* \"#utility.yul\":15866:15880   */\n      add\n        /* \"#utility.yul\":15859:15899   */\n      mstore\n        /* \"#utility.yul\":15742:15906   */\n      pop\n      jump\t// out\n        /* \"#utility.yul\":15912:16278   */\n    tag_319:\n        /* \"#utility.yul\":16054:16057   */\n      0x00\n        /* \"#utility.yul\":16075:16142   */\n      tag_523\n        /* \"#utility.yul\":16139:16141   */\n      0x0e\n        /* \"#utility.yul\":16134:16137   */\n      dup4\n        /* \"#utility.yul\":16075:16142   */\n      tag_289\n      jump\t// in\n    tag_523:\n        /* \"#utility.yul\":16068:16142   */\n      swap2\n      pop\n        /* \"#utility.yul\":16151:16244   */\n      tag_524\n        /* \"#utility.yul\":16240:16243   */\n      dup3\n        /* \"#utility.yul\":16151:16244   */\n      tag_318\n      jump\t// in\n    tag_524:\n        /* \"#utility.yul\":16269:16271   */\n      0x20\n        /* \"#utility.yul\":16264:16267   */\n      dup3\n        /* \"#utility.yul\":16260:16272   */\n      add\n        /* \"#utility.yul\":16253:16272   */\n      swap1\n      pop\n        /* \"#utility.yul\":15912:16278   */\n      swap2\n      swap1\n      pop\n      jump\t// out\n        /* \"#utility.yul\":16284:16703   */\n    tag_140:\n        /* \"#utility.yul\":16450:16454   */\n      0x00\n        /* \"#utility.yul\":16488:16490   */\n      0x20\n        /* \"#utility.yul\":16477:16486   */\n      dup3\n        /* \"#utility.yul\":16473:16491   */\n      add\n        /* \"#utility.yul\":16465:16491   */\n      swap1\n      pop\n        /* \"#utility.yul\":16537:16546   */\n      dup2\n        /* \"#utility.yul\":16531:16535   */\n      dup2\n        /* \"#utility.yul\":16527:16547   */\n      sub\n        /* \"#utility.yul\":16523:16524   */\n      0x00\n        /* \"#utility.yul\":16512:16521   */\n      dup4\n        /* \"#utility.yul\":16508:16525   */\n      add\n        /* \"#utility.yul\":16501:16548   */\n      mstore\n        /* \"#utility.yul\":16565:16696   */\n      tag_526\n        /* \"#utility.yul\":16691:16695   */\n      dup2\n        /* \"#utility.yul\":16565:16696   */\n      tag_319\n      jump\t// in\n    tag_526:\n        /* \"#utility.yul\":16557:16696   */\n      swap1\n      pop\n        /* \"#utility.yul\":16284:16703   */\n      swap2\n      swap1\n      pop\n      jump\t// out\n        /* \"#utility.yul\":16709:16889   */\n    tag_320:\n        /* \"#utility.yul\":16757:16834   */\n      0x4e487b7100000000000000000000000000000000000000000000000000000000\n        /* \"#utility.yul\":16754:16755   */\n      0x00\n        /* \"#utility.yul\":16747:16835   */\n      mstore\n        /* \"#utility.yul\":16854:16858   */\n      0x11\n        /* \"#utility.yul\":16851:16852   */\n      0x04\n        /* \"#utility.yul\":16844:16859   */\n      mstore\n        /* \"#utility.yul\":16878:16882   */\n      0x24\n        /* \"#utility.yul\":16875:16876   */\n      0x00\n        /* \"#utility.yul\":16868:16883   */\n      revert\n        /* \"#utility.yul\":16895:17128   */\n    tag_153:\n        /* \"#utility.yul\":16934:16937   */\n      0x00\n        /* \"#utility.yul\":16957:16981   */\n      tag_529\n        /* \"#utility.yul\":16975:16980   */\n      dup3\n        /* \"#utility.yul\":16957:16981   */\n      tag_280\n      jump\t// in\n    tag_529:\n        /* \"#utility.yul\":16948:16981   */\n      swap2\n      pop\n        /* \"#utility.yul\":17003:17069   */\n      0xffffffffffffffffffffffffffffffffffffffffffffffffffffffffffffffff\n        /* \"#utility.yul\":16996:17001   */\n      dup3\n        /* \"#utility.yul\":16993:17070   */\n      sub\n        /* \"#utility.yul\":16990:17093   */\n      tag_530\n      jumpi\n        /* \"#utility.yul\":17073:17091   */\n      tag_531\n      tag_320\n      jump\t// in\n    tag_531:\n        /* \"#utility.yul\":16990:17093   */\n    tag_530:\n        /* \"#utility.yul\":17120:17121   */\n      0x01\n        /* \"#utility.yul\":17113:17118   */\n      dup3\n        /* \"#utility.yul\":17109:17122   */\n      add\n        /* \"#utility.yul\":17102:17122   */\n      swap1\n      pop\n        /* \"#utility.yul\":16895:17128   */\n      swap2\n      swap1\n      pop\n      jump\t// out\n        /* \"#utility.yul\":17134:17367   */\n    tag_321:\n        /* \"#utility.yul\":17274:17308   */\n      0x506f6c6c20686173206e6f742073746172746564207965742c20796f75206361\n        /* \"#utility.yul\":17270:17271   */\n      0x00\n        /* \"#utility.yul\":17262:17268   */\n      dup3\n        /* \"#utility.yul\":17258:17272   */\n      add\n        /* \"#utility.yul\":17251:17309   */\n      mstore\n        /* \"#utility.yul\":17343:17359   */\n      0x6e6e6f7420626574206f6e206974000000000000000000000000000000000000\n        /* \"#utility.yul\":17338:17340   */\n      0x20\n        /* \"#utility.yul\":17330:17336   */\n      dup3\n        /* \"#utility.yul\":17326:17341   */\n      add\n        /* \"#utility.yul\":17319:17360   */\n      mstore\n        /* \"#utility.yul\":17134:17367   */\n      pop\n      jump\t// out\n        /* \"#utility.yul\":17373:17739   */\n    tag_322:\n        /* \"#utility.yul\":17515:17518   */\n      0x00\n        /* \"#utility.yul\":17536:17603   */\n      tag_534\n        /* \"#utility.yul\":17600:17602   */\n      0x2e\n        /* \"#utility.yul\":17595:17598   */\n      dup4\n        /* \"#utility.yul\":17536:17603   */\n      tag_289\n      jump\t// in\n    tag_534:\n        /* \"#utility.yul\":17529:17603   */\n      swap2\n      pop\n        /* \"#utility.yul\":17612:17705   */\n      tag_535\n        /* \"#utility.yul\":17701:17704   */\n      dup3\n        /* \"#utility.yul\":17612:17705   */\n      tag_321\n      jump\t// in\n    tag_535:\n        /* \"#utility.yul\":17730:17732   */\n      0x40\n        /* \"#utility.yul\":17725:17728   */\n      dup3\n        /* \"#utility.yul\":17721:17733   */\n      add\n        /* \"#utility.yul\":17714:17733   */\n      swap1\n      pop\n        /* \"#utility.yul\":17373:17739   */\n      swap2\n      swap1\n      pop\n      jump\t// out\n        /* \"#utility.yul\":17745:18164   */\n    tag_163:\n        /* \"#utility.yul\":17911:17915   */\n      0x00\n        /* \"#utility.yul\":17949:17951   */\n      0x20\n        /* \"#utility.yul\":17938:17947   */\n      dup3\n        /* \"#utility.yul\":17934:17952   */\n      add\n        /* \"#utility.yul\":17926:17952   */\n      swap1\n      pop\n        /* \"#utility.yul\":17998:18007   */\n      dup2\n        /* \"#utility.yul\":17992:17996   */\n      dup2\n        /* \"#utility.yul\":17988:18008   */\n      sub\n        /* \"#utility.yul\":17984:17985   */\n      0x00\n        /* \"#utility.yul\":17973:17982   */\n      dup4\n        /* \"#utility.yul\":17969:17986   */\n      add\n        /* \"#utility.yul\":17962:18009   */\n      mstore\n        /* \"#utility.yul\":18026:18157   */\n      tag_537\n        /* \"#utility.yul\":18152:18156   */\n      dup2\n        /* \"#utility.yul\":18026:18157   */\n      tag_322\n      jump\t// in\n    tag_537:\n        /* \"#utility.yul\":18018:18157   */\n      swap1\n      pop\n        /* \"#utility.yul\":17745:18164   */\n      swap2\n      swap1\n      pop\n      jump\t// out\n        /* \"#utility.yul\":18170:18401   */\n    tag_323:\n        /* \"#utility.yul\":18310:18344   */\n      0x506f6c6c2068617320656e6465642c20796f752063616e6e6f7420626574206f\n        /* \"#utility.yul\":18306:18307   */\n      0x00\n        /* \"#utility.yul\":18298:18304   */\n      dup3\n        /* \"#utility.yul\":18294:18308   */\n      add\n        /* \"#utility.yul\":18287:18345   */\n      mstore\n        /* \"#utility.yul\":18379:18393   */\n      0x6e20697420616e796d6f72650000000000000000000000000000000000000000\n        /* \"#utility.yul\":18374:18376   */\n      0x20\n        /* \"#utility.yul\":18366:18372   */\n      dup3\n        /* \"#utility.yul\":18362:18377   */\n      add\n        /* \"#utility.yul\":18355:18394   */\n      mstore\n        /* \"#utility.yul\":18170:18401   */\n      pop\n      jump\t// out\n        /* \"#utility.yul\":18407:18773   */\n    tag_324:\n        /* \"#utility.yul\":18549:18552   */\n      0x00\n        /* \"#utility.yul\":18570:18637   */\n      tag_540\n        /* \"#utility.yul\":18634:18636   */\n      0x2c\n        /* \"#utility.yul\":18629:18632   */\n      dup4\n        /* \"#utility.yul\":18570:18637   */\n      tag_289\n      jump\t// in\n    tag_540:\n        /* \"#utility.yul\":18563:18637   */\n      swap2\n      pop\n        /* \"#utility.yul\":18646:18739   */\n      tag_541\n        /* \"#utility.yul\":18735:18738   */\n      dup3\n        /* \"#utility.yul\":18646:18739   */\n      tag_323\n      jump\t// in\n    tag_541:\n        /* \"#utility.yul\":18764:18766   */\n      0x40\n        /* \"#utility.yul\":18759:18762   */\n      dup3\n        /* \"#utility.yul\":18755:18767   */\n      add\n        /* \"#utility.yul\":18748:18767   */\n      swap1\n      pop\n        /* \"#utility.yul\":18407:18773   */\n      swap2\n      swap1\n      pop\n      jump\t// out\n        /* \"#utility.yul\":18779:19198   */\n    tag_169:\n        /* \"#utility.yul\":18945:18949   */\n      0x00\n        /* \"#utility.yul\":18983:18985   */\n      0x20\n        /* \"#utility.yul\":18972:18981   */\n      dup3\n        /* \"#utility.yul\":18968:18986   */\n      add\n        /* \"#utility.yul\":18960:18986   */\n      swap1\n      pop\n        /* \"#utility.yul\":19032:19041   */\n      dup2\n        /* \"#utility.yul\":19026:19030   */\n      dup2\n        /* \"#utility.yul\":19022:19042   */\n      sub\n        /* \"#utility.yul\":19018:19019   */\n      0x00\n        /* \"#utility.yul\":19007:19016   */\n      dup4\n        /* \"#utility.yul\":19003:19020   */\n      add\n        /* \"#utility.yul\":18996:19043   */\n      mstore\n        /* \"#utility.yul\":19060:19191   */\n      tag_543\n        /* \"#utility.yul\":19186:19190   */\n      dup2\n        /* \"#utility.yul\":19060:19191   */\n      tag_324\n      jump\t// in\n    tag_543:\n        /* \"#utility.yul\":19052:19191   */\n      swap1\n      pop\n        /* \"#utility.yul\":18779:19198   */\n      swap2\n      swap1\n      pop\n      jump\t// out\n        /* \"#utility.yul\":19204:19384   */\n    tag_325:\n        /* \"#utility.yul\":19344:19376   */\n      0x416d6f756e74206d7573742062652067726561746572207468616e2030210000\n        /* \"#utility.yul\":19340:19341   */\n      0x00\n        /* \"#utility.yul\":19332:19338   */\n      dup3\n        /* \"#utility.yul\":19328:19342   */\n      add\n        /* \"#utility.yul\":19321:19377   */\n      mstore\n        /* \"#utility.yul\":19204:19384   */\n      pop\n      jump\t// out\n        /* \"#utility.yul\":19390:19756   */\n    tag_326:\n        /* \"#utility.yul\":19532:19535   */\n      0x00\n        /* \"#utility.yul\":19553:19620   */\n      tag_546\n        /* \"#utility.yul\":19617:19619   */\n      0x1e\n        /* \"#utility.yul\":19612:19615   */\n      dup4\n        /* \"#utility.yul\":19553:19620   */\n      tag_289\n      jump\t// in\n    tag_546:\n        /* \"#utility.yul\":19546:19620   */\n      swap2\n      pop\n        /* \"#utility.yul\":19629:19722   */\n      tag_547\n        /* \"#utility.yul\":19718:19721   */\n      dup3\n        /* \"#utility.yul\":19629:19722   */\n      tag_325\n      jump\t// in\n    tag_547:\n        /* \"#utility.yul\":19747:19749   */\n      0x20\n        /* \"#utility.yul\":19742:19745   */\n      dup3\n        /* \"#utility.yul\":19738:19750   */\n      add\n        /* \"#utility.yul\":19731:19750   */\n      swap1\n      pop\n        /* \"#utility.yul\":19390:19756   */\n      swap2\n      swap1\n      pop\n      jump\t// out\n        /* \"#utility.yul\":19762:20181   */\n    tag_172:\n        /* \"#utility.yul\":19928:19932   */\n      0x00\n        /* \"#utility.yul\":19966:19968   */\n      0x20\n        /* \"#utility.yul\":19955:19964   */\n      dup3\n        /* \"#utility.yul\":19951:19969   */\n      add\n        /* \"#utility.yul\":19943:19969   */\n      swap1\n      pop\n        /* \"#utility.yul\":20015:20024   */\n      dup2\n        /* \"#utility.yul\":20009:20013   */\n      dup2\n        /* \"#utility.yul\":20005:20025   */\n      sub\n        /* \"#utility.yul\":20001:20002   */\n      0x00\n        /* \"#utility.yul\":19990:19999   */\n      dup4\n        /* \"#utility.yul\":19986:20003   */\n      add\n        /* \"#utility.yul\":19979:20026   */\n      mstore\n        /* \"#utility.yul\":20043:20174   */\n      tag_549\n        /* \"#utility.yul\":20169:20173   */\n      dup2\n        /* \"#utility.yul\":20043:20174   */\n      tag_326\n      jump\t// in\n    tag_549:\n        /* \"#utility.yul\":20035:20174   */\n      swap1\n      pop\n        /* \"#utility.yul\":19762:20181   */\n      swap2\n      swap1\n      pop\n      jump\t// out\n        /* \"#utility.yul\":20187:20334   */\n    tag_327:\n        /* \"#utility.yul\":20288:20299   */\n      0x00\n        /* \"#utility.yul\":20325:20328   */\n      dup2\n        /* \"#utility.yul\":20310:20328   */\n      swap1\n      pop\n        /* \"#utility.yul\":20187:20334   */\n      swap3\n      swap2\n      pop\n      pop\n      jump\t// out\n        /* \"#utility.yul\":20340:20484   */\n    tag_328:\n        /* \"#utility.yul\":20392:20396   */\n      0x00\n        /* \"#utility.yul\":20415:20418   */\n      dup2\n        /* \"#utility.yul\":20407:20418   */\n      swap1\n      pop\n        /* \"#utility.yul\":20438:20441   */\n      dup2\n        /* \"#utility.yul\":20435:20436   */\n      0x00\n        /* \"#utility.yul\":20428:20442   */\n      mstore\n        /* \"#utility.yul\":20472:20476   */\n      0x20\n        /* \"#utility.yul\":20469:20470   */\n      0x00\n        /* \"#utility.yul\":20459:20477   */\n      keccak256\n        /* \"#utility.yul\":20451:20477   */\n      swap1\n      pop\n        /* \"#utility.yul\":20340:20484   */\n      swap2\n      swap1\n      pop\n      jump\t// out\n        /* \"#utility.yul\":20512:21390   */\n    tag_329:\n        /* \"#utility.yul\":20617:20620   */\n      0x00\n        /* \"#utility.yul\":20654:20659   */\n      dup2\n        /* \"#utility.yul\":20648:20660   */\n      sload\n        /* \"#utility.yul\":20683:20719   */\n      tag_553\n        /* \"#utility.yul\":20709:20718   */\n      dup2\n        /* \"#utility.yul\":20683:20719   */\n      tag_117\n      jump\t// in\n    tag_553:\n        /* \"#utility.yul\":20735:20823   */\n      tag_554\n        /* \"#utility.yul\":20816:20822   */\n      dup2\n        /* \"#utility.yul\":20811:20814   */\n      dup7\n        /* \"#utility.yul\":20735:20823   */\n      tag_327\n      jump\t// in\n    tag_554:\n        /* \"#utility.yul\":20728:20823   */\n      swap5\n      pop\n        /* \"#utility.yul\":20854:20855   */\n      0x01\n        /* \"#utility.yul\":20843:20852   */\n      dup3\n        /* \"#utility.yul\":20839:20856   */\n      and\n        /* \"#utility.yul\":20870:20871   */\n      0x00\n        /* \"#utility.yul\":20865:21031   */\n      dup2\n      eq\n      tag_556\n      jumpi\n        /* \"#utility.yul\":21045:21046   */\n      0x01\n        /* \"#utility.yul\":21040:21384   */\n      dup2\n      eq\n      tag_557\n      jumpi\n        /* \"#utility.yul\":20832:21384   */\n      jump(tag_555)\n        /* \"#utility.yul\":20865:21031   */\n    tag_556:\n        /* \"#utility.yul\":20949:20953   */\n      0xff\n        /* \"#utility.yul\":20945:20954   */\n      not\n        /* \"#utility.yul\":20934:20943   */\n      dup4\n        /* \"#utility.yul\":20930:20955   */\n      and\n        /* \"#utility.yul\":20925:20928   */\n      dup7\n        /* \"#utility.yul\":20918:20956   */\n      mstore\n        /* \"#utility.yul\":21011:21017   */\n      dup2\n        /* \"#utility.yul\":21004:21018   */\n      iszero\n        /* \"#utility.yul\":20997:21019   */\n      iszero\n        /* \"#utility.yul\":20989:20995   */\n      dup3\n        /* \"#utility.yul\":20985:21020   */\n      mul\n        /* \"#utility.yul\":20980:20983   */\n      dup7\n        /* \"#utility.yul\":20976:21021   */\n      add\n        /* \"#utility.yul\":20969:21021   */\n      swap4\n      pop\n        /* \"#utility.yul\":20865:21031   */\n      jump(tag_555)\n        /* \"#utility.yul\":21040:21384   */\n    tag_557:\n        /* \"#utility.yul\":21107:21148   */\n      tag_558\n        /* \"#utility.yul\":21142:21147   */\n      dup6\n        /* \"#utility.yul\":21107:21148   */\n      tag_328\n      jump\t// in\n    tag_558:\n        /* \"#utility.yul\":21170:21171   */\n      0x00\n        /* \"#utility.yul\":21184:21338   */\n    tag_559:\n        /* \"#utility.yul\":21198:21204   */\n      dup4\n        /* \"#utility.yul\":21195:21196   */\n      dup2\n        /* \"#utility.yul\":21192:21205   */\n      lt\n        /* \"#utility.yul\":21184:21338   */\n      iszero\n      tag_561\n      jumpi\n        /* \"#utility.yul\":21272:21279   */\n      dup2\n        /* \"#utility.yul\":21266:21280   */\n      sload\n        /* \"#utility.yul\":21262:21263   */\n      dup2\n        /* \"#utility.yul\":21257:21260   */\n      dup10\n        /* \"#utility.yul\":21253:21264   */\n      add\n        /* \"#utility.yul\":21246:21281   */\n      mstore\n        /* \"#utility.yul\":21322:21323   */\n      0x01\n        /* \"#utility.yul\":21313:21320   */\n      dup3\n        /* \"#utility.yul\":21309:21324   */\n      add\n        /* \"#utility.yul\":21298:21324   */\n      swap2\n      pop\n        /* \"#utility.yul\":21220:21224   */\n      0x20\n        /* \"#utility.yul\":21217:21218   */\n      dup2\n        /* \"#utility.yul\":21213:21225   */\n      add\n        /* \"#utility.yul\":21208:21225   */\n      swap1\n      pop\n        /* \"#utility.yul\":21184:21338   */\n      jump(tag_559)\n    tag_561:\n        /* \"#utility.yul\":21367:21373   */\n      dup4\n        /* \"#utility.yul\":21362:21365   */\n      dup9\n        /* \"#utility.yul\":21358:21374   */\n      add\n        /* \"#utility.yul\":21351:21374   */\n      swap6\n      pop\n        /* \"#utility.yul\":21047:21384   */\n      pop\n      pop\n        /* \"#utility.yul\":20832:21384   */\n    tag_555:\n      pop\n        /* \"#utility.yul\":20621:21390   */\n      pop\n      pop\n        /* \"#utility.yul\":20512:21390   */\n      swap3\n      swap2\n      pop\n      pop\n      jump\t// out\n        /* \"#utility.yul\":21396:21669   */\n    tag_186:\n        /* \"#utility.yul\":21527:21530   */\n      0x00\n        /* \"#utility.yul\":21549:21643   */\n      tag_563\n        /* \"#utility.yul\":21639:21642   */\n      dup3\n        /* \"#utility.yul\":21630:21636   */\n      dup5\n        /* \"#utility.yul\":21549:21643   */\n      tag_329\n      jump\t// in\n    tag_563:\n        /* \"#utility.yul\":21542:21643   */\n      swap2\n      pop\n        /* \"#utility.yul\":21660:21663   */\n      dup2\n        /* \"#utility.yul\":21653:21663   */\n      swap1\n      pop\n        /* \"#utility.yul\":21396:21669   */\n      swap3\n      swap2\n      pop\n      pop\n      jump\t// out\n        /* \"#utility.yul\":21675:21967   */\n    tag_330:\n        /* \"#utility.yul\":21815:21849   */\n      0x496e76616c696420706f6c6c2063686f6963652c20706c656173652073656c65\n        /* \"#utility.yul\":21811:21812   */\n      0x00\n        /* \"#utility.yul\":21803:21809   */\n      dup3\n        /* \"#utility.yul\":21799:21813   */\n      add\n        /* \"#utility.yul\":21792:21850   */\n      mstore\n        /* \"#utility.yul\":21884:21918   */\n      0x6374206f6e65206f662074686520706f6c6c2063686f6963657320746f206265\n        /* \"#utility.yul\":21879:21881   */\n      0x20\n        /* \"#utility.yul\":21871:21877   */\n      dup3\n        /* \"#utility.yul\":21867:21882   */\n      add\n        /* \"#utility.yul\":21860:21919   */\n      mstore\n        /* \"#utility.yul\":21953:21959   */\n      0x74206f6e00000000000000000000000000000000000000000000000000000000\n        /* \"#utility.yul\":21948:21950   */\n      0x40\n        /* \"#utility.yul\":21940:21946   */\n      dup3\n        /* \"#utility.yul\":21936:21951   */\n      add\n        /* \"#utility.yul\":21929:21960   */\n      mstore\n        /* \"#utility.yul\":21675:21967   */\n      pop\n      jump\t// out\n        /* \"#utility.yul\":21973:22339   */\n    tag_331:\n        /* \"#utility.yul\":22115:22118   */\n      0x00\n        /* \"#utility.yul\":22136:22203   */\n      tag_566\n        /* \"#utility.yul\":22200:22202   */\n      0x44\n        /* \"#utility.yul\":22195:22198   */\n      dup4\n        /* \"#utility.yul\":22136:22203   */\n      tag_289\n      jump\t// in\n    tag_566:\n        /* \"#utility.yul\":22129:22203   */\n      swap2\n      pop\n        /* \"#utility.yul\":22212:22305   */\n      tag_567\n        /* \"#utility.yul\":22301:22304   */\n      dup3\n        /* \"#utility.yul\":22212:22305   */\n      tag_330\n      jump\t// in\n    tag_567:\n        /* \"#utility.yul\":22330:22332   */\n      0x60\n        /* \"#utility.yul\":22325:22328   */\n      dup3\n        /* \"#utility.yul\":22321:22333   */\n      add\n        /* \"#utility.yul\":22314:22333   */\n      swap1\n      pop\n        /* \"#utility.yul\":21973:22339   */\n      swap2\n      swap1\n      pop\n      jump\t// out\n        /* \"#utility.yul\":22345:22764   */\n    tag_191:\n        /* \"#utility.yul\":22511:22515   */\n      0x00\n        /* \"#utility.yul\":22549:22551   */\n      0x20\n        /* \"#utility.yul\":22538:22547   */\n      dup3\n        /* \"#utility.yul\":22534:22552   */\n      add\n        /* \"#utility.yul\":22526:22552   */\n      swap1\n      pop\n        /* \"#utility.yul\":22598:22607   */\n      dup2\n        /* \"#utility.yul\":22592:22596   */\n      dup2\n        /* \"#utility.yul\":22588:22608   */\n      sub\n        /* \"#utility.yul\":22584:22585   */\n      0x00\n        /* \"#utility.yul\":22573:22582   */\n      dup4\n        /* \"#utility.yul\":22569:22586   */\n      add\n        /* \"#utility.yul\":22562:22609   */\n      mstore\n        /* \"#utility.yul\":22626:22757   */\n      tag_569\n        /* \"#utility.yul\":22752:22756   */\n      dup2\n        /* \"#utility.yul\":22626:22757   */\n      tag_331\n      jump\t// in\n    tag_569:\n        /* \"#utility.yul\":22618:22757   */\n      swap1\n      pop\n        /* \"#utility.yul\":22345:22764   */\n      swap2\n      swap1\n      pop\n      jump\t// out\n        /* \"#utility.yul\":22770:22961   */\n    tag_193:\n        /* \"#utility.yul\":22810:22813   */\n      0x00\n        /* \"#utility.yul\":22829:22849   */\n      tag_571\n        /* \"#utility.yul\":22847:22848   */\n      dup3\n        /* \"#utility.yul\":22829:22849   */\n      tag_280\n      jump\t// in\n    tag_571:\n        /* \"#utility.yul\":22824:22849   */\n      swap2\n      pop\n        /* \"#utility.yul\":22863:22883   */\n      tag_572\n        /* \"#utility.yul\":22881:22882   */\n      dup4\n        /* \"#utility.yul\":22863:22883   */\n      tag_280\n      jump\t// in\n    tag_572:\n        /* \"#utility.yul\":22858:22883   */\n      swap3\n      pop\n        /* \"#utility.yul\":22906:22907   */\n      dup3\n        /* \"#utility.yul\":22903:22904   */\n      dup3\n        /* \"#utility.yul\":22899:22908   */\n      add\n        /* \"#utility.yul\":22892:22908   */\n      swap1\n      pop\n        /* \"#utility.yul\":22927:22930   */\n      dup1\n        /* \"#utility.yul\":22924:22925   */\n      dup3\n        /* \"#utility.yul\":22921:22931   */\n      gt\n        /* \"#utility.yul\":22918:22954   */\n      iszero\n      tag_573\n      jumpi\n        /* \"#utility.yul\":22934:22952   */\n      tag_574\n      tag_320\n      jump\t// in\n    tag_574:\n        /* \"#utility.yul\":22918:22954   */\n    tag_573:\n        /* \"#utility.yul\":22770:22961   */\n      swap3\n      swap2\n      pop\n      pop\n      jump\t// out\n        /* \"#utility.yul\":22967:23108   */\n    tag_332:\n        /* \"#utility.yul\":23016:23020   */\n      0x00\n        /* \"#utility.yul\":23039:23042   */\n      dup2\n        /* \"#utility.yul\":23031:23042   */\n      swap1\n      pop\n        /* \"#utility.yul\":23062:23065   */\n      dup2\n        /* \"#utility.yul\":23059:23060   */\n      0x00\n        /* \"#utility.yul\":23052:23066   */\n      mstore\n        /* \"#utility.yul\":23096:23100   */\n      0x20\n        /* \"#utility.yul\":23093:23094   */\n      0x00\n        /* \"#utility.yul\":23083:23101   */\n      keccak256\n        /* \"#utility.yul\":23075:23101   */\n      swap1\n      pop\n        /* \"#utility.yul\":22967:23108   */\n      swap2\n      swap1\n      pop\n      jump\t// out\n        /* \"#utility.yul\":23114:23207   */\n    tag_333:\n        /* \"#utility.yul\":23151:23157   */\n      0x00\n        /* \"#utility.yul\":23198:23200   */\n      0x20\n        /* \"#utility.yul\":23193:23195   */\n      0x1f\n        /* \"#utility.yul\":23186:23191   */\n      dup4\n        /* \"#utility.yul\":23182:23196   */\n      add\n        /* \"#utility.yul\":23178:23201   */\n      div\n        /* \"#utility.yul\":23168:23201   */\n      swap1\n      pop\n        /* \"#utility.yul\":23114:23207   */\n      swap2\n      swap1\n      pop\n      jump\t// out\n        /* \"#utility.yul\":23213:23320   */\n    tag_334:\n        /* \"#utility.yul\":23257:23265   */\n      0x00\n        /* \"#utility.yul\":23307:23312   */\n      dup3\n        /* \"#utility.yul\":23301:23305   */\n      dup3\n        /* \"#utility.yul\":23297:23313   */\n      shl\n        /* \"#utility.yul\":23276:23313   */\n      swap1\n      pop\n        /* \"#utility.yul\":23213:23320   */\n      swap3\n      swap2\n      pop\n      pop\n      jump\t// out\n        /* \"#utility.yul\":23326:23719   */\n    tag_335:\n        /* \"#utility.yul\":23395:23401   */\n      0x00\n        /* \"#utility.yul\":23445:23446   */\n      0x08\n        /* \"#utility.yul\":23433:23443   */\n      dup4\n        /* \"#utility.yul\":23429:23447   */\n      mul\n        /* \"#utility.yul\":23468:23565   */\n      tag_579\n        /* \"#utility.yul\":23498:23564   */\n      0xffffffffffffffffffffffffffffffffffffffffffffffffffffffffffffffff\n        /* \"#utility.yul\":23487:23496   */\n      dup3\n        /* \"#utility.yul\":23468:23565   */\n      tag_334\n      jump\t// in\n    tag_579:\n        /* \"#utility.yul\":23586:23625   */\n      tag_580\n        /* \"#utility.yul\":23616:23624   */\n      dup7\n        /* \"#utility.yul\":23605:23614   */\n      dup4\n        /* \"#utility.yul\":23586:23625   */\n      tag_334\n      jump\t// in\n    tag_580:\n        /* \"#utility.yul\":23574:23625   */\n      swap6\n      pop\n        /* \"#utility.yul\":23658:23662   */\n      dup1\n        /* \"#utility.yul\":23654:23663   */\n      not\n        /* \"#utility.yul\":23647:23652   */\n      dup5\n        /* \"#utility.yul\":23643:23664   */\n      and\n        /* \"#utility.yul\":23634:23664   */\n      swap4\n      pop\n        /* \"#utility.yul\":23707:23711   */\n      dup1\n        /* \"#utility.yul\":23697:23705   */\n      dup7\n        /* \"#utility.yul\":23693:23712   */\n      and\n        /* \"#utility.yul\":23686:23691   */\n      dup5\n        /* \"#utility.yul\":23683:23713   */\n      or\n        /* \"#utility.yul\":23673:23713   */\n      swap3\n      pop\n        /* \"#utility.yul\":23402:23719   */\n      pop\n      pop\n        /* \"#utility.yul\":23326:23719   */\n      swap4\n      swap3\n      pop\n      pop\n      pop\n      jump\t// out\n        /* \"#utility.yul\":23725:23785   */\n    tag_336:\n        /* \"#utility.yul\":23753:23756   */\n      0x00\n        /* \"#utility.yul\":23774:23779   */\n      dup2\n        /* \"#utility.yul\":23767:23779   */\n      swap1\n      pop\n        /* \"#utility.yul\":23725:23785   */\n      swap2\n      swap1\n      pop\n      jump\t// out\n        /* \"#utility.yul\":23791:23933   */\n    tag_337:\n        /* \"#utility.yul\":23841:23850   */\n      0x00\n        /* \"#utility.yul\":23874:23927   */\n      tag_583\n        /* \"#utility.yul\":23892:23926   */\n      tag_584\n        /* \"#utility.yul\":23901:23925   */\n      tag_585\n        /* \"#utility.yul\":23919:23924   */\n      dup5\n        /* \"#utility.yul\":23901:23925   */\n      tag_280\n      jump\t// in\n    tag_585:\n        /* \"#utility.yul\":23892:23926   */\n      tag_336\n      jump\t// in\n    tag_584:\n        /* \"#utility.yul\":23874:23927   */\n      tag_280\n      jump\t// in\n    tag_583:\n        /* \"#utility.yul\":23861:23927   */\n      swap1\n      pop\n        /* \"#utility.yul\":23791:23933   */\n      swap2\n      swap1\n      pop\n      jump\t// out\n        /* \"#utility.yul\":23939:24014   */\n    tag_338:\n        /* \"#utility.yul\":23982:23985   */\n      0x00\n        /* \"#utility.yul\":24003:24008   */\n      dup2\n        /* \"#utility.yul\":23996:24008   */\n      swap1\n      pop\n        /* \"#utility.yul\":23939:24014   */\n      swap2\n      swap1\n      pop\n      jump\t// out\n        /* \"#utility.yul\":24020:24289   */\n    tag_339:\n        /* \"#utility.yul\":24130:24169   */\n      tag_588\n        /* \"#utility.yul\":24161:24168   */\n      dup4\n        /* \"#utility.yul\":24130:24169   */\n      tag_337\n      jump\t// in\n    tag_588:\n        /* \"#utility.yul\":24191:24282   */\n      tag_589\n        /* \"#utility.yul\":24240:24281   */\n      tag_590\n        /* \"#utility.yul\":24264:24280   */\n      dup3\n        /* \"#utility.yul\":24240:24281   */\n      tag_338\n      jump\t// in\n    tag_590:\n        /* \"#utility.yul\":24232:24238   */\n      dup5\n        /* \"#utility.yul\":24225:24229   */\n      dup5\n        /* \"#utility.yul\":24219:24230   */\n      sload\n        /* \"#utility.yul\":24191:24282   */\n      tag_335\n      jump\t// in\n    tag_589:\n        /* \"#utility.yul\":24185:24189   */\n      dup3\n        /* \"#utility.yul\":24178:24283   */\n      sstore\n        /* \"#utility.yul\":24096:24289   */\n      pop\n        /* \"#utility.yul\":24020:24289   */\n      pop\n      pop\n      pop\n      jump\t// out\n        /* \"#utility.yul\":24295:24368   */\n    tag_340:\n        /* \"#utility.yul\":24340:24343   */\n      0x00\n        /* \"#utility.yul\":24295:24368   */\n      swap1\n      jump\t// out\n        /* \"#utility.yul\":24374:24563   */\n    tag_341:\n        /* \"#utility.yul\":24451:24483   */\n      tag_593\n      tag_340\n      jump\t// in\n    tag_593:\n        /* \"#utility.yul\":24492:24557   */\n      tag_594\n        /* \"#utility.yul\":24550:24556   */\n      dup2\n        /* \"#utility.yul\":24542:24548   */\n      dup5\n        /* \"#utility.yul\":24536:24540   */\n      dup5\n        /* \"#utility.yul\":24492:24557   */\n      tag_339\n      jump\t// in\n    tag_594:\n        /* \"#utility.yul\":24427:24563   */\n      pop\n        /* \"#utility.yul\":24374:24563   */\n      pop\n      pop\n      jump\t// out\n        /* \"#utility.yul\":24569:24755   */\n    tag_342:\n        /* \"#utility.yul\":24629:24749   */\n    tag_596:\n        /* \"#utility.yul\":24646:24649   */\n      dup2\n        /* \"#utility.yul\":24639:24644   */\n      dup2\n        /* \"#utility.yul\":24636:24650   */\n      lt\n        /* \"#utility.yul\":24629:24749   */\n      iszero\n      tag_598\n      jumpi\n        /* \"#utility.yul\":24700:24739   */\n      tag_599\n        /* \"#utility.yul\":24737:24738   */\n      0x00\n        /* \"#utility.yul\":24730:24735   */\n      dup3\n        /* \"#utility.yul\":24700:24739   */\n      tag_341\n      jump\t// in\n    tag_599:\n        /* \"#utility.yul\":24673:24674   */\n      0x01\n        /* \"#utility.yul\":24666:24671   */\n      dup2\n        /* \"#utility.yul\":24662:24675   */\n      add\n        /* \"#utility.yul\":24653:24675   */\n      swap1\n      pop\n        /* \"#utility.yul\":24629:24749   */\n      jump(tag_596)\n    tag_598:\n        /* \"#utility.yul\":24569:24755   */\n      pop\n      pop\n      jump\t// out\n        /* \"#utility.yul\":24761:25304   */\n    tag_343:\n        /* \"#utility.yul\":24862:24864   */\n      0x1f\n        /* \"#utility.yul\":24857:24860   */\n      dup3\n        /* \"#utility.yul\":24854:24865   */\n      gt\n        /* \"#utility.yul\":24851:25297   */\n      iszero\n      tag_601\n      jumpi\n        /* \"#utility.yul\":24896:24934   */\n      tag_602\n        /* \"#utility.yul\":24928:24933   */\n      dup2\n        /* \"#utility.yul\":24896:24934   */\n      tag_332\n      jump\t// in\n    tag_602:\n        /* \"#utility.yul\":24980:25009   */\n      tag_603\n        /* \"#utility.yul\":24998:25008   */\n      dup5\n        /* \"#utility.yul\":24980:25009   */\n      tag_333\n      jump\t// in\n    tag_603:\n        /* \"#utility.yul\":24970:24978   */\n      dup2\n        /* \"#utility.yul\":24966:25010   */\n      add\n        /* \"#utility.yul\":25163:25165   */\n      0x20\n        /* \"#utility.yul\":25151:25161   */\n      dup6\n        /* \"#utility.yul\":25148:25166   */\n      lt\n        /* \"#utility.yul\":25145:25194   */\n      iszero\n      tag_604\n      jumpi\n        /* \"#utility.yul\":25184:25192   */\n      dup2\n        /* \"#utility.yul\":25169:25192   */\n      swap1\n      pop\n        /* \"#utility.yul\":25145:25194   */\n    tag_604:\n        /* \"#utility.yul\":25207:25287   */\n      tag_605\n        /* \"#utility.yul\":25263:25285   */\n      tag_606\n        /* \"#utility.yul\":25281:25284   */\n      dup6\n        /* \"#utility.yul\":25263:25285   */\n      tag_333\n      jump\t// in\n    tag_606:\n        /* \"#utility.yul\":25253:25261   */\n      dup4\n        /* \"#utility.yul\":25249:25286   */\n      add\n        /* \"#utility.yul\":25236:25247   */\n      dup3\n        /* \"#utility.yul\":25207:25287   */\n      tag_342\n      jump\t// in\n    tag_605:\n        /* \"#utility.yul\":24866:25297   */\n      pop\n      pop\n        /* \"#utility.yul\":24851:25297   */\n    tag_601:\n        /* \"#utility.yul\":24761:25304   */\n      pop\n      pop\n      pop\n      jump\t// out\n        /* \"#utility.yul\":25310:25427   */\n    tag_344:\n        /* \"#utility.yul\":25364:25372   */\n      0x00\n        /* \"#utility.yul\":25414:25419   */\n      dup3\n        /* \"#utility.yul\":25408:25412   */\n      dup3\n        /* \"#utility.yul\":25404:25420   */\n      shr\n        /* \"#utility.yul\":25383:25420   */\n      swap1\n      pop\n        /* \"#utility.yul\":25310:25427   */\n      swap3\n      swap2\n      pop\n      pop\n      jump\t// out\n        /* \"#utility.yul\":25433:25602   */\n    tag_345:\n        /* \"#utility.yul\":25477:25483   */\n      0x00\n        /* \"#utility.yul\":25510:25561   */\n      tag_609\n        /* \"#utility.yul\":25558:25559   */\n      0x00\n        /* \"#utility.yul\":25554:25560   */\n      not\n        /* \"#utility.yul\":25546:25551   */\n      dup5\n        /* \"#utility.yul\":25543:25544   */\n      0x08\n        /* \"#utility.yul\":25539:25552   */\n      mul\n        /* \"#utility.yul\":25510:25561   */\n      tag_344\n      jump\t// in\n    tag_609:\n        /* \"#utility.yul\":25506:25562   */\n      not\n        /* \"#utility.yul\":25591:25595   */\n      dup1\n        /* \"#utility.yul\":25585:25589   */\n      dup4\n        /* \"#utility.yul\":25581:25596   */\n      and\n        /* \"#utility.yul\":25571:25596   */\n      swap2\n      pop\n        /* \"#utility.yul\":25484:25602   */\n      pop\n        /* \"#utility.yul\":25433:25602   */\n      swap3\n      swap2\n      pop\n      pop\n      jump\t// out\n        /* \"#utility.yul\":25607:25902   */\n    tag_346:\n        /* \"#utility.yul\":25683:25687   */\n      0x00\n        /* \"#utility.yul\":25829:25858   */\n      tag_611\n        /* \"#utility.yul\":25854:25857   */\n      dup4\n        /* \"#utility.yul\":25848:25852   */\n      dup4\n        /* \"#utility.yul\":25829:25858   */\n      tag_345\n      jump\t// in\n    tag_611:\n        /* \"#utility.yul\":25821:25858   */\n      swap2\n      pop\n        /* \"#utility.yul\":25891:25894   */\n      dup3\n        /* \"#utility.yul\":25888:25889   */\n      0x02\n        /* \"#utility.yul\":25884:25895   */\n      mul\n        /* \"#utility.yul\":25878:25882   */\n      dup3\n        /* \"#utility.yul\":25875:25896   */\n      or\n        /* \"#utility.yul\":25867:25896   */\n      swap1\n      pop\n        /* \"#utility.yul\":25607:25902   */\n      swap3\n      swap2\n      pop\n      pop\n      jump\t// out\n        /* \"#utility.yul\":25907:27302   */\n    tag_200:\n        /* \"#utility.yul\":26024:26061   */\n      tag_613\n        /* \"#utility.yul\":26057:26060   */\n      dup3\n        /* \"#utility.yul\":26024:26061   */\n      tag_288\n      jump\t// in\n    tag_613:\n        /* \"#utility.yul\":26126:26144   */\n      0xffffffffffffffff\n        /* \"#utility.yul\":26118:26124   */\n      dup2\n        /* \"#utility.yul\":26115:26145   */\n      gt\n        /* \"#utility.yul\":26112:26168   */\n      iszero\n      tag_614\n      jumpi\n        /* \"#utility.yul\":26148:26166   */\n      tag_615\n      tag_239\n      jump\t// in\n    tag_615:\n        /* \"#utility.yul\":26112:26168   */\n    tag_614:\n        /* \"#utility.yul\":26192:26230   */\n      tag_616\n        /* \"#utility.yul\":26224:26228   */\n      dup3\n        /* \"#utility.yul\":26218:26229   */\n      sload\n        /* \"#utility.yul\":26192:26230   */\n      tag_117\n      jump\t// in\n    tag_616:\n        /* \"#utility.yul\":26277:26344   */\n      tag_617\n        /* \"#utility.yul\":26337:26343   */\n      dup3\n        /* \"#utility.yul\":26329:26335   */\n      dup3\n        /* \"#utility.yul\":26323:26327   */\n      dup6\n        /* \"#utility.yul\":26277:26344   */\n      tag_343\n      jump\t// in\n    tag_617:\n        /* \"#utility.yul\":26371:26372   */\n      0x00\n        /* \"#utility.yul\":26395:26399   */\n      0x20\n        /* \"#utility.yul\":26382:26399   */\n      swap1\n      pop\n        /* \"#utility.yul\":26427:26429   */\n      0x1f\n        /* \"#utility.yul\":26419:26425   */\n      dup4\n        /* \"#utility.yul\":26416:26430   */\n      gt\n        /* \"#utility.yul\":26444:26445   */\n      0x01\n        /* \"#utility.yul\":26439:27057   */\n      dup2\n      eq\n      tag_619\n      jumpi\n        /* \"#utility.yul\":27101:27102   */\n      0x00\n        /* \"#utility.yul\":27118:27124   */\n      dup5\n        /* \"#utility.yul\":27115:27192   */\n      iszero\n      tag_620\n      jumpi\n        /* \"#utility.yul\":27167:27176   */\n      dup3\n        /* \"#utility.yul\":27162:27165   */\n      dup8\n        /* \"#utility.yul\":27158:27177   */\n      add\n        /* \"#utility.yul\":27152:27178   */\n      mload\n        /* \"#utility.yul\":27143:27178   */\n      swap1\n      pop\n        /* \"#utility.yul\":27115:27192   */\n    tag_620:\n        /* \"#utility.yul\":27218:27285   */\n      tag_621\n        /* \"#utility.yul\":27278:27284   */\n      dup6\n        /* \"#utility.yul\":27271:27276   */\n      dup3\n        /* \"#utility.yul\":27218:27285   */\n      tag_346\n      jump\t// in\n    tag_621:\n        /* \"#utility.yul\":27212:27216   */\n      dup7\n        /* \"#utility.yul\":27205:27286   */\n      sstore\n        /* \"#utility.yul\":27074:27296   */\n      pop\n        /* \"#utility.yul\":26409:27296   */\n      jump(tag_618)\n        /* \"#utility.yul\":26439:27057   */\n    tag_619:\n        /* \"#utility.yul\":26491:26495   */\n      0x1f\n        /* \"#utility.yul\":26487:26496   */\n      not\n        /* \"#utility.yul\":26479:26485   */\n      dup5\n        /* \"#utility.yul\":26475:26497   */\n      and\n        /* \"#utility.yul\":26525:26562   */\n      tag_622\n        /* \"#utility.yul\":26557:26561   */\n      dup7\n        /* \"#utility.yul\":26525:26562   */\n      tag_332\n      jump\t// in\n    tag_622:\n        /* \"#utility.yul\":26584:26585   */\n      0x00\n        /* \"#utility.yul\":26598:26806   */\n    tag_623:\n        /* \"#utility.yul\":26612:26619   */\n      dup3\n        /* \"#utility.yul\":26609:26610   */\n      dup2\n        /* \"#utility.yul\":26606:26620   */\n      lt\n        /* \"#utility.yul\":26598:26806   */\n      iszero\n      tag_625\n      jumpi\n        /* \"#utility.yul\":26691:26700   */\n      dup5\n        /* \"#utility.yul\":26686:26689   */\n      dup10\n        /* \"#utility.yul\":26682:26701   */\n      add\n        /* \"#utility.yul\":26676:26702   */\n      mload\n        /* \"#utility.yul\":26668:26674   */\n      dup3\n        /* \"#utility.yul\":26661:26703   */\n      sstore\n        /* \"#utility.yul\":26742:26743   */\n      0x01\n        /* \"#utility.yul\":26734:26740   */\n      dup3\n        /* \"#utility.yul\":26730:26744   */\n      add\n        /* \"#utility.yul\":26720:26744   */\n      swap2\n      pop\n        /* \"#utility.yul\":26789:26791   */\n      0x20\n        /* \"#utility.yul\":26778:26787   */\n      dup6\n        /* \"#utility.yul\":26774:26792   */\n      add\n        /* \"#utility.yul\":26761:26792   */\n      swap5\n      pop\n        /* \"#utility.yul\":26635:26639   */\n      0x20\n        /* \"#utility.yul\":26632:26633   */\n      dup2\n        /* \"#utility.yul\":26628:26640   */\n      add\n        /* \"#utility.yul\":26623:26640   */\n      swap1\n      pop\n        /* \"#utility.yul\":26598:26806   */\n      jump(tag_623)\n    tag_625:\n        /* \"#utility.yul\":26834:26840   */\n      dup7\n        /* \"#utility.yul\":26825:26832   */\n      dup4\n        /* \"#utility.yul\":26822:26841   */\n      lt\n        /* \"#utility.yul\":26819:26998   */\n      iszero\n      tag_626\n      jumpi\n        /* \"#utility.yul\":26892:26901   */\n      dup5\n        /* \"#utility.yul\":26887:26890   */\n      dup10\n        /* \"#utility.yul\":26883:26902   */\n      add\n        /* \"#utility.yul\":26877:26903   */\n      mload\n        /* \"#utility.yul\":26935:26983   */\n      tag_627\n        /* \"#utility.yul\":26977:26981   */\n      0x1f\n        /* \"#utility.yul\":26969:26975   */\n      dup10\n        /* \"#utility.yul\":26965:26982   */\n      and\n        /* \"#utility.yul\":26954:26963   */\n      dup3\n        /* \"#utility.yul\":26935:26983   */\n      tag_345\n      jump\t// in\n    tag_627:\n        /* \"#utility.yul\":26927:26933   */\n      dup4\n        /* \"#utility.yul\":26920:26984   */\n      sstore\n        /* \"#utility.yul\":26842:26998   */\n      pop\n        /* \"#utility.yul\":26819:26998   */\n    tag_626:\n        /* \"#utility.yul\":27044:27045   */\n      0x01\n        /* \"#utility.yul\":27040:27041   */\n      0x02\n        /* \"#utility.yul\":27032:27038   */\n      dup9\n        /* \"#utility.yul\":27028:27042   */\n      mul\n        /* \"#utility.yul\":27024:27046   */\n      add\n        /* \"#utility.yul\":27018:27022   */\n      dup9\n        /* \"#utility.yul\":27011:27047   */\n      sstore\n        /* \"#utility.yul\":26446:27057   */\n      pop\n      pop\n      pop\n        /* \"#utility.yul\":26409:27296   */\n    tag_618:\n      pop\n        /* \"#utility.yul\":25999:27302   */\n      pop\n      pop\n      pop\n        /* \"#utility.yul\":25907:27302   */\n      pop\n      pop\n      jump\t// out\n        /* \"#utility.yul\":27308:27731   */\n    tag_203:\n        /* \"#utility.yul\":27449:27453   */\n      0x00\n        /* \"#utility.yul\":27487:27489   */\n      0x40\n        /* \"#utility.yul\":27476:27485   */\n      dup3\n        /* \"#utility.yul\":27472:27490   */\n      add\n        /* \"#utility.yul\":27464:27490   */\n      swap1\n      pop\n        /* \"#utility.yul\":27536:27545   */\n      dup2\n        /* \"#utility.yul\":27530:27534   */\n      dup2\n        /* \"#utility.yul\":27526:27546   */\n      sub\n        /* \"#utility.yul\":27522:27523   */\n      0x00\n        /* \"#utility.yul\":27511:27520   */\n      dup4\n        /* \"#utility.yul\":27507:27524   */\n      add\n        /* \"#utility.yul\":27500:27547   */\n      mstore\n        /* \"#utility.yul\":27564:27642   */\n      tag_629\n        /* \"#utility.yul\":27637:27641   */\n      dup2\n        /* \"#utility.yul\":27628:27634   */\n      dup6\n        /* \"#utility.yul\":27564:27642   */\n      tag_292\n      jump\t// in\n    tag_629:\n        /* \"#utility.yul\":27556:27642   */\n      swap1\n      pop\n        /* \"#utility.yul\":27652:27724   */\n      tag_630\n        /* \"#utility.yul\":27720:27722   */\n      0x20\n        /* \"#utility.yul\":27709:27718   */\n      dup4\n        /* \"#utility.yul\":27705:27723   */\n      add\n        /* \"#utility.yul\":27696:27702   */\n      dup5\n        /* \"#utility.yul\":27652:27724   */\n      tag_287\n      jump\t// in\n    tag_630:\n        /* \"#utility.yul\":27308:27731   */\n      swap4\n      swap3\n      pop\n      pop\n      pop\n      jump\t// out\n        /* \"#utility.yul\":27737:27908   */\n    tag_347:\n        /* \"#utility.yul\":27877:27900   */\n      0x496e76616c696420706f6c6c20656e642074696d650000000000000000000000\n        /* \"#utility.yul\":27873:27874   */\n      0x00\n        /* \"#utility.yul\":27865:27871   */\n      dup3\n        /* \"#utility.yul\":27861:27875   */\n      add\n        /* \"#utility.yul\":27854:27901   */\n      mstore\n        /* \"#utility.yul\":27737:27908   */\n      pop\n      jump\t// out\n        /* \"#utility.yul\":27914:28280   */\n    tag_348:\n        /* \"#utility.yul\":28056:28059   */\n      0x00\n        /* \"#utility.yul\":28077:28144   */\n      tag_633\n        /* \"#utility.yul\":28141:28143   */\n      0x15\n        /* \"#utility.yul\":28136:28139   */\n      dup4\n        /* \"#utility.yul\":28077:28144   */\n      tag_289\n      jump\t// in\n    tag_633:\n        /* \"#utility.yul\":28070:28144   */\n      swap2\n      pop\n        /* \"#utility.yul\":28153:28246   */\n      tag_634\n        /* \"#utility.yul\":28242:28245   */\n      dup3\n        /* \"#utility.yul\":28153:28246   */\n      tag_347\n      jump\t// in\n    tag_634:\n        /* \"#utility.yul\":28271:28273   */\n      0x20\n        /* \"#utility.yul\":28266:28269   */\n      dup3\n        /* \"#utility.yul\":28262:28274   */\n      add\n        /* \"#utility.yul\":28255:28274   */\n      swap1\n      pop\n        /* \"#utility.yul\":27914:28280   */\n      swap2\n      swap1\n      pop\n      jump\t// out\n        /* \"#utility.yul\":28286:28705   */\n    tag_209:\n        /* \"#utility.yul\":28452:28456   */\n      0x00\n        /* \"#utility.yul\":28490:28492   */\n      0x20\n        /* \"#utility.yul\":28479:28488   */\n      dup3\n        /* \"#utility.yul\":28475:28493   */\n      add\n        /* \"#utility.yul\":28467:28493   */\n      swap1\n      pop\n        /* \"#utility.yul\":28539:28548   */\n      dup2\n        /* \"#utility.yul\":28533:28537   */\n      dup2\n        /* \"#utility.yul\":28529:28549   */\n      sub\n        /* \"#utility.yul\":28525:28526   */\n      0x00\n        /* \"#utility.yul\":28514:28523   */\n      dup4\n        /* \"#utility.yul\":28510:28527   */\n      add\n        /* \"#utility.yul\":28503:28550   */\n      mstore\n        /* \"#utility.yul\":28567:28698   */\n      tag_636\n        /* \"#utility.yul\":28693:28697   */\n      dup2\n        /* \"#utility.yul\":28567:28698   */\n      tag_348\n      jump\t// in\n    tag_636:\n        /* \"#utility.yul\":28559:28698   */\n      swap1\n      pop\n        /* \"#utility.yul\":28286:28705   */\n      swap2\n      swap1\n      pop\n      jump\t// out\n        /* \"#utility.yul\":28711:28890   */\n    tag_349:\n        /* \"#utility.yul\":28851:28882   */\n      0x4174206c656173742074776f206f7074696f6e73207265717569726564000000\n        /* \"#utility.yul\":28847:28848   */\n      0x00\n        /* \"#utility.yul\":28839:28845   */\n      dup3\n        /* \"#utility.yul\":28835:28849   */\n      add\n        /* \"#utility.yul\":28828:28883   */\n      mstore\n        /* \"#utility.yul\":28711:28890   */\n      pop\n      jump\t// out\n        /* \"#utility.yul\":28896:29262   */\n    tag_350:\n        /* \"#utility.yul\":29038:29041   */\n      0x00\n        /* \"#utility.yul\":29059:29126   */\n      tag_639\n        /* \"#utility.yul\":29123:29125   */\n      0x1d\n        /* \"#utility.yul\":29118:29121   */\n      dup4\n        /* \"#utility.yul\":29059:29126   */\n      tag_289\n      jump\t// in\n    tag_639:\n        /* \"#utility.yul\":29052:29126   */\n      swap2\n      pop\n        /* \"#utility.yul\":29135:29228   */\n      tag_640\n        /* \"#utility.yul\":29224:29227   */\n      dup3\n        /* \"#utility.yul\":29135:29228   */\n      tag_349\n      jump\t// in\n    tag_640:\n        /* \"#utility.yul\":29253:29255   */\n      0x20\n        /* \"#utility.yul\":29248:29251   */\n      dup3\n        /* \"#utility.yul\":29244:29256   */\n      add\n        /* \"#utility.yul\":29237:29256   */\n      swap1\n      pop\n        /* \"#utility.yul\":28896:29262   */\n      swap2\n      swap1\n      pop\n      jump\t// out\n        /* \"#utility.yul\":29268:29687   */\n    tag_212:\n        /* \"#utility.yul\":29434:29438   */\n      0x00\n        /* \"#utility.yul\":29472:29474   */\n      0x20\n        /* \"#utility.yul\":29461:29470   */\n      dup3\n        /* \"#utility.yul\":29457:29475   */\n      add\n        /* \"#utility.yul\":29449:29475   */\n      swap1\n      pop\n        /* \"#utility.yul\":29521:29530   */\n      dup2\n        /* \"#utility.yul\":29515:29519   */\n      dup2\n        /* \"#utility.yul\":29511:29531   */\n      sub\n        /* \"#utility.yul\":29507:29508   */\n      0x00\n        /* \"#utility.yul\":29496:29505   */\n      dup4\n        /* \"#utility.yul\":29492:29509   */\n      add\n        /* \"#utility.yul\":29485:29532   */\n      mstore\n        /* \"#utility.yul\":29549:29680   */\n      tag_642\n        /* \"#utility.yul\":29675:29679   */\n      dup2\n        /* \"#utility.yul\":29549:29680   */\n      tag_350\n      jump\t// in\n    tag_642:\n        /* \"#utility.yul\":29541:29680   */\n      swap1\n      pop\n        /* \"#utility.yul\":29268:29687   */\n      swap2\n      swap1\n      pop\n      jump\t// out\n        /* \"#utility.yul\":29693:29817   */\n    tag_351:\n        /* \"#utility.yul\":29770:29776   */\n      0x00\n        /* \"#utility.yul\":29804:29809   */\n      dup2\n        /* \"#utility.yul\":29798:29810   */\n      mload\n        /* \"#utility.yul\":29788:29810   */\n      swap1\n      pop\n        /* \"#utility.yul\":29693:29817   */\n      swap2\n      swap1\n      pop\n      jump\t// out\n        /* \"#utility.yul\":29823:30017   */\n    tag_352:\n        /* \"#utility.yul\":29932:29943   */\n      0x00\n        /* \"#utility.yul\":29966:29972   */\n      dup3\n        /* \"#utility.yul\":29961:29964   */\n      dup3\n        /* \"#utility.yul\":29954:29973   */\n      mstore\n        /* \"#utility.yul\":30006:30010   */\n      0x20\n        /* \"#utility.yul\":30001:30004   */\n      dup3\n        /* \"#utility.yul\":29997:30011   */\n      add\n        /* \"#utility.yul\":29982:30011   */\n      swap1\n      pop\n        /* \"#utility.yul\":29823:30017   */\n      swap3\n      swap2\n      pop\n      pop\n      jump\t// out\n        /* \"#utility.yul\":30023:30165   */\n    tag_353:\n        /* \"#utility.yul\":30100:30104   */\n      0x00\n        /* \"#utility.yul\":30123:30126   */\n      dup2\n        /* \"#utility.yul\":30115:30126   */\n      swap1\n      pop\n        /* \"#utility.yul\":30153:30157   */\n      0x20\n        /* \"#utility.yul\":30148:30151   */\n      dup3\n        /* \"#utility.yul\":30144:30158   */\n      add\n        /* \"#utility.yul\":30136:30158   */\n      swap1\n      pop\n        /* \"#utility.yul\":30023:30165   */\n      swap2\n      swap1\n      pop\n      jump\t// out\n        /* \"#utility.yul\":30171:30330   */\n    tag_354:\n        /* \"#utility.yul\":30245:30256   */\n      0x00\n        /* \"#utility.yul\":30279:30285   */\n      dup3\n        /* \"#utility.yul\":30274:30277   */\n      dup3\n        /* \"#utility.yul\":30267:30286   */\n      mstore\n        /* \"#utility.yul\":30319:30323   */\n      0x20\n        /* \"#utility.yul\":30314:30317   */\n      dup3\n        /* \"#utility.yul\":30310:30324   */\n      add\n        /* \"#utility.yul\":30295:30324   */\n      swap1\n      pop\n        /* \"#utility.yul\":30171:30330   */\n      swap3\n      swap2\n      pop\n      pop\n      jump\t// out\n        /* \"#utility.yul\":30336:30693   */\n    tag_355:\n        /* \"#utility.yul\":30414:30417   */\n      0x00\n        /* \"#utility.yul\":30442:30481   */\n      tag_648\n        /* \"#utility.yul\":30475:30480   */\n      dup3\n        /* \"#utility.yul\":30442:30481   */\n      tag_288\n      jump\t// in\n    tag_648:\n        /* \"#utility.yul\":30497:30558   */\n      tag_649\n        /* \"#utility.yul\":30551:30557   */\n      dup2\n        /* \"#utility.yul\":30546:30549   */\n      dup6\n        /* \"#utility.yul\":30497:30558   */\n      tag_354\n      jump\t// in\n    tag_649:\n        /* \"#utility.yul\":30490:30558   */\n      swap4\n      pop\n        /* \"#utility.yul\":30567:30632   */\n      tag_650\n        /* \"#utility.yul\":30625:30631   */\n      dup2\n        /* \"#utility.yul\":30620:30623   */\n      dup6\n        /* \"#utility.yul\":30613:30617   */\n      0x20\n        /* \"#utility.yul\":30606:30611   */\n      dup7\n        /* \"#utility.yul\":30602:30618   */\n      add\n        /* \"#utility.yul\":30567:30632   */\n      tag_290\n      jump\t// in\n    tag_650:\n        /* \"#utility.yul\":30657:30686   */\n      tag_651\n        /* \"#utility.yul\":30679:30685   */\n      dup2\n        /* \"#utility.yul\":30657:30686   */\n      tag_291\n      jump\t// in\n    tag_651:\n        /* \"#utility.yul\":30652:30655   */\n      dup5\n        /* \"#utility.yul\":30648:30687   */\n      add\n        /* \"#utility.yul\":30641:30687   */\n      swap2\n      pop\n        /* \"#utility.yul\":30418:30693   */\n      pop\n        /* \"#utility.yul\":30336:30693   */\n      swap3\n      swap2\n      pop\n      pop\n      jump\t// out\n        /* \"#utility.yul\":30699:30895   */\n    tag_356:\n        /* \"#utility.yul\":30788:30798   */\n      0x00\n        /* \"#utility.yul\":30823:30889   */\n      tag_653\n        /* \"#utility.yul\":30885:30888   */\n      dup4\n        /* \"#utility.yul\":30877:30883   */\n      dup4\n        /* \"#utility.yul\":30823:30889   */\n      tag_355\n      jump\t// in\n    tag_653:\n        /* \"#utility.yul\":30809:30889   */\n      swap1\n      pop\n        /* \"#utility.yul\":30699:30895   */\n      swap3\n      swap2\n      pop\n      pop\n      jump\t// out\n        /* \"#utility.yul\":30901:31024   */\n    tag_357:\n        /* \"#utility.yul\":30981:30985   */\n      0x00\n        /* \"#utility.yul\":31013:31017   */\n      0x20\n        /* \"#utility.yul\":31008:31011   */\n      dup3\n        /* \"#utility.yul\":31004:31018   */\n      add\n        /* \"#utility.yul\":30996:31018   */\n      swap1\n      pop\n        /* \"#utility.yul\":30901:31024   */\n      swap2\n      swap1\n      pop\n      jump\t// out\n        /* \"#utility.yul\":31058:32049   */\n    tag_358:\n        /* \"#utility.yul\":31197:31200   */\n      0x00\n        /* \"#utility.yul\":31226:31290   */\n      tag_656\n        /* \"#utility.yul\":31284:31289   */\n      dup3\n        /* \"#utility.yul\":31226:31290   */\n      tag_351\n      jump\t// in\n    tag_656:\n        /* \"#utility.yul\":31306:31402   */\n      tag_657\n        /* \"#utility.yul\":31395:31401   */\n      dup2\n        /* \"#utility.yul\":31390:31393   */\n      dup6\n        /* \"#utility.yul\":31306:31402   */\n      tag_352\n      jump\t// in\n    tag_657:\n        /* \"#utility.yul\":31299:31402   */\n      swap4\n      pop\n        /* \"#utility.yul\":31428:31431   */\n      dup4\n        /* \"#utility.yul\":31473:31477   */\n      0x20\n        /* \"#utility.yul\":31465:31471   */\n      dup3\n        /* \"#utility.yul\":31461:31478   */\n      mul\n        /* \"#utility.yul\":31456:31459   */\n      dup6\n        /* \"#utility.yul\":31452:31479   */\n      add\n        /* \"#utility.yul\":31503:31569   */\n      tag_658\n        /* \"#utility.yul\":31563:31568   */\n      dup6\n        /* \"#utility.yul\":31503:31569   */\n      tag_353\n      jump\t// in\n    tag_658:\n        /* \"#utility.yul\":31592:31599   */\n      dup1\n        /* \"#utility.yul\":31623:31624   */\n      0x00\n        /* \"#utility.yul\":31608:32004   */\n    tag_659:\n        /* \"#utility.yul\":31633:31639   */\n      dup6\n        /* \"#utility.yul\":31630:31631   */\n      dup2\n        /* \"#utility.yul\":31627:31640   */\n      lt\n        /* \"#utility.yul\":31608:32004   */\n      iszero\n      tag_661\n      jumpi\n        /* \"#utility.yul\":31704:31713   */\n      dup5\n        /* \"#utility.yul\":31698:31702   */\n      dup5\n        /* \"#utility.yul\":31694:31714   */\n      sub\n        /* \"#utility.yul\":31689:31692   */\n      dup10\n        /* \"#utility.yul\":31682:31715   */\n      mstore\n        /* \"#utility.yul\":31755:31761   */\n      dup2\n        /* \"#utility.yul\":31749:31762   */\n      mload\n        /* \"#utility.yul\":31783:31867   */\n      tag_662\n        /* \"#utility.yul\":31862:31866   */\n      dup6\n        /* \"#utility.yul\":31847:31860   */\n      dup3\n        /* \"#utility.yul\":31783:31867   */\n      tag_356\n      jump\t// in\n    tag_662:\n        /* \"#utility.yul\":31775:31867   */\n      swap5\n      pop\n        /* \"#utility.yul\":31890:31960   */\n      tag_663\n        /* \"#utility.yul\":31953:31959   */\n      dup4\n        /* \"#utility.yul\":31890:31960   */\n      tag_357\n      jump\t// in\n    tag_663:\n        /* \"#utility.yul\":31880:31960   */\n      swap3\n      pop\n        /* \"#utility.yul\":31989:31993   */\n      0x20\n        /* \"#utility.yul\":31984:31987   */\n      dup11\n        /* \"#utility.yul\":31980:31994   */\n      add\n        /* \"#utility.yul\":31973:31994   */\n      swap10\n      pop\n        /* \"#utility.yul\":31668:32004   */\n      pop\n        /* \"#utility.yul\":31655:31656   */\n      0x01\n        /* \"#utility.yul\":31652:31653   */\n      dup2\n        /* \"#utility.yul\":31648:31657   */\n      add\n        /* \"#utility.yul\":31643:31657   */\n      swap1\n      pop\n        /* \"#utility.yul\":31608:32004   */\n      jump(tag_659)\n    tag_661:\n        /* \"#utility.yul\":31612:31626   */\n      pop\n        /* \"#utility.yul\":32020:32024   */\n      dup3\n        /* \"#utility.yul\":32013:32024   */\n      swap8\n      pop\n        /* \"#utility.yul\":32040:32043   */\n      dup8\n        /* \"#utility.yul\":32033:32043   */\n      swap6\n      pop\n        /* \"#utility.yul\":31202:32049   */\n      pop\n      pop\n      pop\n      pop\n      pop\n        /* \"#utility.yul\":31058:32049   */\n      swap3\n      swap2\n      pop\n      pop\n      jump\t// out\n        /* \"#utility.yul\":32055:32688   */\n    tag_220:\n        /* \"#utility.yul\":32274:32278   */\n      0x00\n        /* \"#utility.yul\":32312:32314   */\n      0x60\n        /* \"#utility.yul\":32301:32310   */\n      dup3\n        /* \"#utility.yul\":32297:32315   */\n      add\n        /* \"#utility.yul\":32289:32315   */\n      swap1\n      pop\n        /* \"#utility.yul\":32325:32396   */\n      tag_665\n        /* \"#utility.yul\":32393:32394   */\n      0x00\n        /* \"#utility.yul\":32382:32391   */\n      dup4\n        /* \"#utility.yul\":32378:32395   */\n      add\n        /* \"#utility.yul\":32369:32375   */\n      dup7\n        /* \"#utility.yul\":32325:32396   */\n      tag_287\n      jump\t// in\n    tag_665:\n        /* \"#utility.yul\":32406:32478   */\n      tag_666\n        /* \"#utility.yul\":32474:32476   */\n      0x20\n        /* \"#utility.yul\":32463:32472   */\n      dup4\n        /* \"#utility.yul\":32459:32477   */\n      add\n        /* \"#utility.yul\":32450:32456   */\n      dup6\n        /* \"#utility.yul\":32406:32478   */\n      tag_287\n      jump\t// in\n    tag_666:\n        /* \"#utility.yul\":32525:32534   */\n      dup2\n        /* \"#utility.yul\":32519:32523   */\n      dup2\n        /* \"#utility.yul\":32515:32535   */\n      sub\n        /* \"#utility.yul\":32510:32512   */\n      0x40\n        /* \"#utility.yul\":32499:32508   */\n      dup4\n        /* \"#utility.yul\":32495:32513   */\n      add\n        /* \"#utility.yul\":32488:32536   */\n      mstore\n        /* \"#utility.yul\":32553:32681   */\n      tag_667\n        /* \"#utility.yul\":32676:32680   */\n      dup2\n        /* \"#utility.yul\":32667:32673   */\n      dup5\n        /* \"#utility.yul\":32553:32681   */\n      tag_358\n      jump\t// in\n    tag_667:\n        /* \"#utility.yul\":32545:32681   */\n      swap1\n      pop\n        /* \"#utility.yul\":32055:32688   */\n      swap5\n      swap4\n      pop\n      pop\n      pop\n      pop\n      jump\t// out\n        /* \"#utility.yul\":32694:32780   */\n    tag_359:\n        /* \"#utility.yul\":32729:32736   */\n      0x00\n        /* \"#utility.yul\":32769:32773   */\n      0xff\n        /* \"#utility.yul\":32762:32767   */\n      dup3\n        /* \"#utility.yul\":32758:32774   */\n      and\n        /* \"#utility.yul\":32747:32774   */\n      swap1\n      pop\n        /* \"#utility.yul\":32694:32780   */\n      swap2\n      swap1\n      pop\n      jump\t// out\n        /* \"#utility.yul\":32786:32953   */\n    tag_236:\n        /* \"#utility.yul\":32823:32826   */\n      0x00\n        /* \"#utility.yul\":32846:32868   */\n      tag_670\n        /* \"#utility.yul\":32862:32867   */\n      dup3\n        /* \"#utility.yul\":32846:32868   */\n      tag_359\n      jump\t// in\n    tag_670:\n        /* \"#utility.yul\":32837:32868   */\n      swap2\n      pop\n        /* \"#utility.yul\":32890:32894   */\n      0xff\n        /* \"#utility.yul\":32883:32888   */\n      dup3\n        /* \"#utility.yul\":32880:32895   */\n      sub\n        /* \"#utility.yul\":32877:32918   */\n      tag_671\n      jumpi\n        /* \"#utility.yul\":32898:32916   */\n      tag_672\n      tag_320\n      jump\t// in\n    tag_672:\n        /* \"#utility.yul\":32877:32918   */\n    tag_671:\n        /* \"#utility.yul\":32945:32946   */\n      0x01\n        /* \"#utility.yul\":32938:32943   */\n      dup3\n        /* \"#utility.yul\":32934:32947   */\n      add\n        /* \"#utility.yul\":32927:32947   */\n      swap1\n      pop\n        /* \"#utility.yul\":32786:32953   */\n      swap2\n      swap1\n      pop\n      jump\t// out\n\n    auxdata: 0xa2646970667358221220bdb240c37eba1fa4e9b5da7e63640ae934f480319c9152fd73264e53313f623364736f6c63430008120033\n}\n",
				"bytecode": {
					"linkReferences": {},
					"object": "608060405234801561001057600080fd5b506125e3806100206000396000f3fe6080604052600436106101095760003560e01c806391cbfb4111610095578063ac2f007411610064578063ac2f0074146103bf578063cf09449714610400578063d624d6fd1461042b578063e3eed5c914610454578063ed8c2aed1461049157610109565b806391cbfb41146102fc5780639207891d146103395780639b85e14f146103645780639e3190631461038057610109565b806346f86716116100dc57806346f86716146102055780634c3c234f146102425780636b7128ec1461026b5780636f4a2cd0146102a85780638761ad0c146102bf57610109565b806306455f5e1461010e57806327e235e31461014b578063420700f61461018857806343859632146101c8575b600080fd5b34801561011a57600080fd5b506101356004803603810190610130919061150c565b6104a8565b604051610142919061155b565b60405180910390f35b34801561015757600080fd5b50610172600480360381019061016d9190611576565b6104cd565b60405161017f919061155b565b60405180910390f35b34801561019457600080fd5b506101af60048036038101906101aa91906115a3565b6104e5565b6040516101bf9493929190611682565b60405180910390f35b3480156101d457600080fd5b506101ef60048036038101906101ea919061150c565b6105da565b6040516101fc91906116e9565b60405180910390f35b34801561021157600080fd5b5061022c60048036038101906102279190611704565b610609565b604051610239919061155b565b60405180910390f35b34801561024e57600080fd5b50610269600480360381019061026491906115a3565b610621565b005b34801561027757600080fd5b50610292600480360381019061028d9190611704565b61098f565b60405161029f919061155b565b60405180910390f35b3480156102b457600080fd5b506102bd6109af565b005b3480156102cb57600080fd5b506102e660048036038101906102e19190611704565b6109b1565b6040516102f3919061155b565b60405180910390f35b34801561030857600080fd5b50610323600480360381019061031e91906115a3565b610a0e565b604051610330919061155b565b60405180910390f35b34801561034557600080fd5b5061034e610a3f565b60405161035b919061155b565b60405180910390f35b61037e60048036038101906103799190611767565b610a45565b005b34801561038c57600080fd5b506103a760048036038101906103a2919061150c565b610e3f565b6040516103b6939291906117a7565b60405180910390f35b3480156103cb57600080fd5b506103e660048036038101906103e19190611704565b610e96565b6040516103f79594939291906117de565b60405180910390f35b34801561040c57600080fd5b50610415610f09565b604051610422919061155b565b60405180910390f35b34801561043757600080fd5b50610452600480360381019061044d9190611a4c565b610f0f565b005b34801561046057600080fd5b5061047b600480360381019061047691906115a3565b61111d565b604051610488919061155b565b60405180910390f35b34801561049d57600080fd5b506104a6611125565b005b6003602052816000526040600020602052806000526040600020600091509150505481565b60056020528060005260406000206000915090505481565b6006602052816000526040600020818154811061050157600080fd5b90600052602060002090600402016000915091505080600001549080600101805461052b90611aea565b80601f016020809104026020016040519081016040528092919081815260200182805461055790611aea565b80156105a45780601f10610579576101008083540402835291602001916105a4565b820191906000526020600020905b81548152906001019060200180831161058757829003601f168201915b5050505050908060020160009054906101000a900473ffffffffffffffffffffffffffffffffffffffff16908060030154905084565b60076020528160005260406000206020528060005260406000206000915091509054906101000a900460ff1681565b60026020528060005260406000206000915090505481565b6000600a838154811061063757610636611b1b565b5b906000526020600020906006020190506007600084815260200190815260200160002060003373ffffffffffffffffffffffffffffffffffffffff1673ffffffffffffffffffffffffffffffffffffffff16815260200190815260200160002060009054906101000a900460ff16156106e5576040517f08c379a00000000000000000000000000000000000000000000000000000000081526004016106dc90611b96565b60405180910390fd5b8060050160009054906101000a900460ff16610736576040517f08c379a000000000000000000000000000000000000000000000000000000000815260040161072d90611c02565b60405180910390fd5b8060020154421015801561074e575080600301544211155b61078d576040517f08c379a000000000000000000000000000000000000000000000000000000000815260040161078490611c6e565b60405180910390fd5b600082101580156107a45750806004018054905082105b6107e3576040517f08c379a00000000000000000000000000000000000000000000000000000000081526004016107da90611cda565b60405180910390fd5b60016007600085815260200190815260200160002060003373ffffffffffffffffffffffffffffffffffffffff1673ffffffffffffffffffffffffffffffffffffffff16815260200190815260200160002060006101000a81548160ff021916908315150217905550600060405180606001604052808581526020013373ffffffffffffffffffffffffffffffffffffffff168152602001848152509050806008600086815260200190815260200160002060003373ffffffffffffffffffffffffffffffffffffffff1673ffffffffffffffffffffffffffffffffffffffff1681526020019081526020016000206000820151816000015560208201518160010160006101000a81548173ffffffffffffffffffffffffffffffffffffffff021916908373ffffffffffffffffffffffffffffffffffffffff1602179055506040820151816002015590505061093a8433611127565b3373ffffffffffffffffffffffffffffffffffffffff16847fe7ee74ca1f4bb1b82b14f87794c45b3e59c39e372b862fb97a6316b43355b69e85604051610981919061155b565b60405180910390a350505050565b600060066000838152602001908152602001600020805490509050919050565b565b60008060009050600060096000858152602001908152602001600020905060005b6109db82611151565b811015610a035782806109ed90611d29565b93505080806109fb90611d29565b9150506109d2565b508192505050919050565b60046020528160005260406000208181548110610a2a57600080fd5b90600052602060002001600091509150505481565b60005481565b600a8281548110610a5957610a58611b1b565b5b906000526020600020906006020160020154421015610aad576040517f08c379a0000000000000000000000000000000000000000000000000000000008152600401610aa490611de3565b60405180910390fd5b600a8281548110610ac157610ac0611b1b565b5b9060005260206000209060060201600301544210610b14576040517f08c379a0000000000000000000000000000000000000000000000000000000008152600401610b0b90611e75565b60405180910390fd5b60003411610b57576040517f08c379a0000000000000000000000000000000000000000000000000000000008152600401610b4e90611ee1565b60405180910390fd5b600080600090505b600a8481548110610b7357610b72611b1b565b5b906000526020600020906006020160040180549050811015610c065782600a8581548110610ba457610ba3611b1b565b5b90600052602060002090600602016004018281548110610bc757610bc6611b1b565b5b90600052602060002001604051610bde9190611fa4565b604051809103902003610bf357809150610c06565b8080610bfe90611d29565b915050610b5f565b5060008111610c4a576040517f08c379a0000000000000000000000000000000000000000000000000000000008152600401610c4190612053565b60405180910390fd5b34600260008581526020019081526020016000206000828254610c6d9190612073565b92505081905550346003600085815260200190815260200160002060003373ffffffffffffffffffffffffffffffffffffffff1673ffffffffffffffffffffffffffffffffffffffff1681526020019081526020016000206000828254610cd49190612073565b9250508190555060016000815480929190610cee90611d29565b9190505550600660008481526020019081526020016000206040518060800160405280858152602001610d2085611166565b81526020013373ffffffffffffffffffffffffffffffffffffffff168152602001348152509080600181540180825580915050600190039060005260206000209060040201600090919091909150600082015181600001556020820151816001019081610d8d9190612253565b5060408201518160020160006101000a81548173ffffffffffffffffffffffffffffffffffffffff021916908373ffffffffffffffffffffffffffffffffffffffff1602179055506060820151816003015550503373ffffffffffffffffffffffffffffffffffffffff16837ffa643037cee917ec3049f1ba2bfb5d4df493f0b6db3ed68f3716d11233494e7d610e2385611166565b34604051610e32929190612325565b60405180910390a3505050565b6008602052816000526040600020602052806000526040600020600091509150508060000154908060010160009054906101000a900473ffffffffffffffffffffffffffffffffffffffff16908060020154905083565b600a8181548110610ea657600080fd5b90600052602060002090600602016000915090508060000154908060010160009054906101000a900473ffffffffffffffffffffffffffffffffffffffff16908060020154908060030154908060050160009054906101000a900460ff16905085565b60015481565b828211610f51576040517f08c379a0000000000000000000000000000000000000000000000000000000008152600401610f48906123a1565b60405180910390fd5b6001815111610f95576040517f08c379a0000000000000000000000000000000000000000000000000000000008152600401610f8c9061240d565b60405180910390fd5b600080815480929190610fa790611d29565b919050555060006040518060c0016040528060005481526020013373ffffffffffffffffffffffffffffffffffffffff16815260200185815260200184815260200183815260200160011515815250905080600a6000548154811061100f5761100e611b1b565b5b90600052602060002090600602016000820151816000015560208201518160010160006101000a81548173ffffffffffffffffffffffffffffffffffffffff021916908373ffffffffffffffffffffffffffffffffffffffff1602179055506040820151816002015560608201518160030155608082015181600401908051906020019061109e92919061138a565b5060a08201518160050160006101000a81548160ff0219169083151502179055509050503373ffffffffffffffffffffffffffffffffffffffff166000547f58d87e181e9ac91f8ccda34caaf4c15db2a9fc345a86ea48e378d6e4359dfdb986868660405161110f93929190612539565b60405180910390a350505050565b600092915050565b565b61114c81600960008581526020019081526020016000206112b690919063ffffffff16565b505050565b600061115f826000016112e6565b9050919050565b606060005b60208160ff161080156111bd5750600060f81b838260ff166020811061119457611193611b1b565b5b1a60f81b7effffffffffffffffffffffffffffffffffffffffffffffffffffffffffffff191614155b156111d55780806111cd90612584565b91505061116b565b60008160ff1667ffffffffffffffff8111156111f4576111f3611836565b5b6040519080825280601f01601f1916602001820160405280156112265781602001600182028036833780820191505090505b509050600091505b80518260ff1610156112ac57838260ff16602081106112505761124f611b1b565b5b1a60f81b818360ff168151811061126a57611269611b1b565b5b60200101907effffffffffffffffffffffffffffffffffffffffffffffffffffffffffffff1916908160001a90535081806112a490612584565b92505061122e565b8092505050919050565b60006112de836000018373ffffffffffffffffffffffffffffffffffffffff1660001b6112f7565b905092915050565b600081600001805490509050919050565b60006113038383611367565b61135c578260000182908060018154018082558091505060019003906000526020600020016000909190919091505582600001805490508360010160008481526020019081526020016000208190555060019050611361565b600090505b92915050565b600080836001016000848152602001908152602001600020541415905092915050565b8280548282559060005260206000209081019282156113d2579160200282015b828111156113d15782518290816113c19190612253565b50916020019190600101906113aa565b5b5090506113df91906113e3565b5090565b5b8082111561140357600081816113fa9190611407565b506001016113e4565b5090565b50805461141390611aea565b6000825580601f106114255750611444565b601f0160209004906000526020600020908101906114439190611447565b5b50565b5b80821115611460576000816000905550600101611448565b5090565b6000604051905090565b600080fd5b600080fd5b6000819050919050565b61148b81611478565b811461149657600080fd5b50565b6000813590506114a881611482565b92915050565b600073ffffffffffffffffffffffffffffffffffffffff82169050919050565b60006114d9826114ae565b9050919050565b6114e9816114ce565b81146114f457600080fd5b50565b600081359050611506816114e0565b92915050565b600080604083850312156115235761152261146e565b5b600061153185828601611499565b9250506020611542858286016114f7565b9150509250929050565b61155581611478565b82525050565b6000602082019050611570600083018461154c565b92915050565b60006020828403121561158c5761158b61146e565b5b600061159a848285016114f7565b91505092915050565b600080604083850312156115ba576115b961146e565b5b60006115c885828601611499565b92505060206115d985828601611499565b9150509250929050565b600081519050919050565b600082825260208201905092915050565b60005b8381101561161d578082015181840152602081019050611602565b60008484015250505050565b6000601f19601f8301169050919050565b6000611645826115e3565b61164f81856115ee565b935061165f8185602086016115ff565b61166881611629565b840191505092915050565b61167c816114ce565b82525050565b6000608082019050611697600083018761154c565b81810360208301526116a9818661163a565b90506116b86040830185611673565b6116c5606083018461154c565b95945050505050565b60008115159050919050565b6116e3816116ce565b82525050565b60006020820190506116fe60008301846116da565b92915050565b60006020828403121561171a5761171961146e565b5b600061172884828501611499565b91505092915050565b6000819050919050565b61174481611731565b811461174f57600080fd5b50565b6000813590506117618161173b565b92915050565b6000806040838503121561177e5761177d61146e565b5b600061178c85828601611499565b925050602061179d85828601611752565b9150509250929050565b60006060820190506117bc600083018661154c565b6117c96020830185611673565b6117d6604083018461154c565b949350505050565b600060a0820190506117f3600083018861154c565b6118006020830187611673565b61180d604083018661154c565b61181a606083018561154c565b61182760808301846116da565b9695505050505050565b600080fd5b7f4e487b7100000000000000000000000000000000000000000000000000000000600052604160045260246000fd5b61186e82611629565b810181811067ffffffffffffffff8211171561188d5761188c611836565b5b80604052505050565b60006118a0611464565b90506118ac8282611865565b919050565b600067ffffffffffffffff8211156118cc576118cb611836565b5b602082029050602081019050919050565b600080fd5b600080fd5b600067ffffffffffffffff82111561190257611901611836565b5b61190b82611629565b9050602081019050919050565b82818337600083830152505050565b600061193a611935846118e7565b611896565b905082815260208101848484011115611956576119556118e2565b5b611961848285611918565b509392505050565b600082601f83011261197e5761197d611831565b5b813561198e848260208601611927565b91505092915050565b60006119aa6119a5846118b1565b611896565b905080838252602082019050602084028301858111156119cd576119cc6118dd565b5b835b81811015611a1457803567ffffffffffffffff8111156119f2576119f1611831565b5b8086016119ff8982611969565b855260208501945050506020810190506119cf565b5050509392505050565b600082601f830112611a3357611a32611831565b5b8135611a43848260208601611997565b91505092915050565b600080600060608486031215611a6557611a6461146e565b5b6000611a7386828701611499565b9350506020611a8486828701611499565b925050604084013567ffffffffffffffff811115611aa557611aa4611473565b5b611ab186828701611a1e565b9150509250925092565b7f4e487b7100000000000000000000000000000000000000000000000000000000600052602260045260246000fd5b60006002820490506001821680611b0257607f821691505b602082108103611b1557611b14611abb565b5b50919050565b7f4e487b7100000000000000000000000000000000000000000000000000000000600052603260045260246000fd5b7f416c726561647920766f74656400000000000000000000000000000000000000600082015250565b6000611b80600d836115ee565b9150611b8b82611b4a565b602082019050919050565b60006020820190508181036000830152611baf81611b73565b9050919050565b7f506f6c6c20697320636c6f736564000000000000000000000000000000000000600082015250565b6000611bec600e836115ee565b9150611bf782611bb6565b602082019050919050565b60006020820190508181036000830152611c1b81611bdf565b9050919050565b7f506f6c6c206973206e6f74206163746976650000000000000000000000000000600082015250565b6000611c586012836115ee565b9150611c6382611c22565b602082019050919050565b60006020820190508181036000830152611c8781611c4b565b9050919050565b7f496e76616c69642063686f696365000000000000000000000000000000000000600082015250565b6000611cc4600e836115ee565b9150611ccf82611c8e565b602082019050919050565b60006020820190508181036000830152611cf381611cb7565b9050919050565b7f4e487b7100000000000000000000000000000000000000000000000000000000600052601160045260246000fd5b6000611d3482611478565b91507fffffffffffffffffffffffffffffffffffffffffffffffffffffffffffffffff8203611d6657611d65611cfa565b5b600182019050919050565b7f506f6c6c20686173206e6f742073746172746564207965742c20796f7520636160008201527f6e6e6f7420626574206f6e206974000000000000000000000000000000000000602082015250565b6000611dcd602e836115ee565b9150611dd882611d71565b604082019050919050565b60006020820190508181036000830152611dfc81611dc0565b9050919050565b7f506f6c6c2068617320656e6465642c20796f752063616e6e6f7420626574206f60008201527f6e20697420616e796d6f72650000000000000000000000000000000000000000602082015250565b6000611e5f602c836115ee565b9150611e6a82611e03565b604082019050919050565b60006020820190508181036000830152611e8e81611e52565b9050919050565b7f416d6f756e74206d7573742062652067726561746572207468616e2030210000600082015250565b6000611ecb601e836115ee565b9150611ed682611e95565b602082019050919050565b60006020820190508181036000830152611efa81611ebe565b9050919050565b600081905092915050565b60008190508160005260206000209050919050565b60008154611f2e81611aea565b611f388186611f01565b94506001821660008114611f535760018114611f6857611f9b565b60ff1983168652811515820286019350611f9b565b611f7185611f0c565b60005b83811015611f9357815481890152600182019150602081019050611f74565b838801955050505b50505092915050565b6000611fb08284611f21565b915081905092915050565b7f496e76616c696420706f6c6c2063686f6963652c20706c656173652073656c6560008201527f6374206f6e65206f662074686520706f6c6c2063686f6963657320746f20626560208201527f74206f6e00000000000000000000000000000000000000000000000000000000604082015250565b600061203d6044836115ee565b915061204882611fbb565b606082019050919050565b6000602082019050818103600083015261206c81612030565b9050919050565b600061207e82611478565b915061208983611478565b92508282019050808211156120a1576120a0611cfa565b5b92915050565b60008190508160005260206000209050919050565b60006020601f8301049050919050565b600082821b905092915050565b6000600883026121097fffffffffffffffffffffffffffffffffffffffffffffffffffffffffffffffff826120cc565b61211386836120cc565b95508019841693508086168417925050509392505050565b6000819050919050565b600061215061214b61214684611478565b61212b565b611478565b9050919050565b6000819050919050565b61216a83612135565b61217e61217682612157565b8484546120d9565b825550505050565b600090565b612193612186565b61219e818484612161565b505050565b5b818110156121c2576121b760008261218b565b6001810190506121a4565b5050565b601f821115612207576121d8816120a7565b6121e1846120bc565b810160208510156121f0578190505b6122046121fc856120bc565b8301826121a3565b50505b505050565b600082821c905092915050565b600061222a6000198460080261220c565b1980831691505092915050565b60006122438383612219565b9150826002028217905092915050565b61225c826115e3565b67ffffffffffffffff81111561227557612274611836565b5b61227f8254611aea565b61228a8282856121c6565b600060209050601f8311600181146122bd57600084156122ab578287015190505b6122b58582612237565b86555061231d565b601f1984166122cb866120a7565b60005b828110156122f3578489015182556001820191506020850194506020810190506122ce565b86831015612310578489015161230c601f891682612219565b8355505b6001600288020188555050505b505050505050565b6000604082019050818103600083015261233f818561163a565b905061234e602083018461154c565b9392505050565b7f496e76616c696420706f6c6c20656e642074696d650000000000000000000000600082015250565b600061238b6015836115ee565b915061239682612355565b602082019050919050565b600060208201905081810360008301526123ba8161237e565b9050919050565b7f4174206c656173742074776f206f7074696f6e73207265717569726564000000600082015250565b60006123f7601d836115ee565b9150612402826123c1565b602082019050919050565b60006020820190508181036000830152612426816123ea565b9050919050565b600081519050919050565b600082825260208201905092915050565b6000819050602082019050919050565b600082825260208201905092915050565b6000612475826115e3565b61247f8185612459565b935061248f8185602086016115ff565b61249881611629565b840191505092915050565b60006124af838361246a565b905092915050565b6000602082019050919050565b60006124cf8261242d565b6124d98185612438565b9350836020820285016124eb85612449565b8060005b85811015612527578484038952815161250885826124a3565b9450612513836124b7565b925060208a019950506001810190506124ef565b50829750879550505050505092915050565b600060608201905061254e600083018661154c565b61255b602083018561154c565b818103604083015261256d81846124c4565b9050949350505050565b600060ff82169050919050565b600061258f82612577565b915060ff82036125a2576125a1611cfa565b5b60018201905091905056fea2646970667358221220bdb240c37eba1fa4e9b5da7e63640ae934f480319c9152fd73264e53313f623364736f6c63430008120033",
					"opcodes": "PUSH1 0x80 PUSH1 0x40 MSTORE CALLVALUE DUP1 ISZERO PUSH2 0x10 JUMPI PUSH1 0x0 DUP1 REVERT JUMPDEST POP PUSH2 0x25E3 DUP1 PUSH2 0x20 PUSH1 0x0 CODECOPY PUSH1 0x0 RETURN INVALID PUSH1 0x80 PUSH1 0x40 MSTORE PUSH1 0x4 CALLDATASIZE LT PUSH2 0x109 JUMPI PUSH1 0x0 CALLDATALOAD PUSH1 0xE0 SHR DUP1 PUSH4 0x91CBFB41 GT PUSH2 0x95 JUMPI DUP1 PUSH4 0xAC2F0074 GT PUSH2 0x64 JUMPI DUP1 PUSH4 0xAC2F0074 EQ PUSH2 0x3BF JUMPI DUP1 PUSH4 0xCF094497 EQ PUSH2 0x400 JUMPI DUP1 PUSH4 0xD624D6FD EQ PUSH2 0x42B JUMPI DUP1 PUSH4 0xE3EED5C9 EQ PUSH2 0x454 JUMPI DUP1 PUSH4 0xED8C2AED EQ PUSH2 0x491 JUMPI PUSH2 0x109 JUMP JUMPDEST DUP1 PUSH4 0x91CBFB41 EQ PUSH2 0x2FC JUMPI DUP1 PUSH4 0x9207891D EQ PUSH2 0x339 JUMPI DUP1 PUSH4 0x9B85E14F EQ PUSH2 0x364 JUMPI DUP1 PUSH4 0x9E319063 EQ PUSH2 0x380 JUMPI PUSH2 0x109 JUMP JUMPDEST DUP1 PUSH4 0x46F86716 GT PUSH2 0xDC JUMPI DUP1 PUSH4 0x46F86716 EQ PUSH2 0x205 JUMPI DUP1 PUSH4 0x4C3C234F EQ PUSH2 0x242 JUMPI DUP1 PUSH4 0x6B7128EC EQ PUSH2 0x26B JUMPI DUP1 PUSH4 0x6F4A2CD0 EQ PUSH2 0x2A8 JUMPI DUP1 PUSH4 0x8761AD0C EQ PUSH2 0x2BF JUMPI PUSH2 0x109 JUMP JUMPDEST DUP1 PUSH4 0x6455F5E EQ PUSH2 0x10E JUMPI DUP1 PUSH4 0x27E235E3 EQ PUSH2 0x14B JUMPI DUP1 PUSH4 0x420700F6 EQ PUSH2 0x188 JUMPI DUP1 PUSH4 0x43859632 EQ PUSH2 0x1C8 JUMPI JUMPDEST PUSH1 0x0 DUP1 REVERT JUMPDEST CALLVALUE DUP1 ISZERO PUSH2 0x11A JUMPI PUSH1 0x0 DUP1 REVERT JUMPDEST POP PUSH2 0x135 PUSH1 0x4 DUP1 CALLDATASIZE SUB DUP2 ADD SWAP1 PUSH2 0x130 SWAP2 SWAP1 PUSH2 0x150C JUMP JUMPDEST PUSH2 0x4A8 JUMP JUMPDEST PUSH1 0x40 MLOAD PUSH2 0x142 SWAP2 SWAP1 PUSH2 0x155B JUMP JUMPDEST PUSH1 0x40 MLOAD DUP1 SWAP2 SUB SWAP1 RETURN JUMPDEST CALLVALUE DUP1 ISZERO PUSH2 0x157 JUMPI PUSH1 0x0 DUP1 REVERT JUMPDEST POP PUSH2 0x172 PUSH1 0x4 DUP1 CALLDATASIZE SUB DUP2 ADD SWAP1 PUSH2 0x16D SWAP2 SWAP1 PUSH2 0x1576 JUMP JUMPDEST PUSH2 0x4CD JUMP JUMPDEST PUSH1 0x40 MLOAD PUSH2 0x17F SWAP2 SWAP1 PUSH2 0x155B JUMP JUMPDEST PUSH1 0x40 MLOAD DUP1 SWAP2 SUB SWAP1 RETURN JUMPDEST CALLVALUE DUP1 ISZERO PUSH2 0x194 JUMPI PUSH1 0x0 DUP1 REVERT JUMPDEST POP PUSH2 0x1AF PUSH1 0x4 DUP1 CALLDATASIZE SUB DUP2 ADD SWAP1 PUSH2 0x1AA SWAP2 SWAP1 PUSH2 0x15A3 JUMP JUMPDEST PUSH2 0x4E5 JUMP JUMPDEST PUSH1 0x40 MLOAD PUSH2 0x1BF SWAP5 SWAP4 SWAP3 SWAP2 SWAP1 PUSH2 0x1682 JUMP JUMPDEST PUSH1 0x40 MLOAD DUP1 SWAP2 SUB SWAP1 RETURN JUMPDEST CALLVALUE DUP1 ISZERO PUSH2 0x1D4 JUMPI PUSH1 0x0 DUP1 REVERT JUMPDEST POP PUSH2 0x1EF PUSH1 0x4 DUP1 CALLDATASIZE SUB DUP2 ADD SWAP1 PUSH2 0x1EA SWAP2 SWAP1 PUSH2 0x150C JUMP JUMPDEST PUSH2 0x5DA JUMP JUMPDEST PUSH1 0x40 MLOAD PUSH2 0x1FC SWAP2 SWAP1 PUSH2 0x16E9 JUMP JUMPDEST PUSH1 0x40 MLOAD DUP1 SWAP2 SUB SWAP1 RETURN JUMPDEST CALLVALUE DUP1 ISZERO PUSH2 0x211 JUMPI PUSH1 0x0 DUP1 REVERT JUMPDEST POP PUSH2 0x22C PUSH1 0x4 DUP1 CALLDATASIZE SUB DUP2 ADD SWAP1 PUSH2 0x227 SWAP2 SWAP1 PUSH2 0x1704 JUMP JUMPDEST PUSH2 0x609 JUMP JUMPDEST PUSH1 0x40 MLOAD PUSH2 0x239 SWAP2 SWAP1 PUSH2 0x155B JUMP JUMPDEST PUSH1 0x40 MLOAD DUP1 SWAP2 SUB SWAP1 RETURN JUMPDEST CALLVALUE DUP1 ISZERO PUSH2 0x24E JUMPI PUSH1 0x0 DUP1 REVERT JUMPDEST POP PUSH2 0x269 PUSH1 0x4 DUP1 CALLDATASIZE SUB DUP2 ADD SWAP1 PUSH2 0x264 SWAP2 SWAP1 PUSH2 0x15A3 JUMP JUMPDEST PUSH2 0x621 JUMP JUMPDEST STOP JUMPDEST CALLVALUE DUP1 ISZERO PUSH2 0x277 JUMPI PUSH1 0x0 DUP1 REVERT JUMPDEST POP PUSH2 0x292 PUSH1 0x4 DUP1 CALLDATASIZE SUB DUP2 ADD SWAP1 PUSH2 0x28D SWAP2 SWAP1 PUSH2 0x1704 JUMP JUMPDEST PUSH2 0x98F JUMP JUMPDEST PUSH1 0x40 MLOAD PUSH2 0x29F SWAP2 SWAP1 PUSH2 0x155B JUMP JUMPDEST PUSH1 0x40 MLOAD DUP1 SWAP2 SUB SWAP1 RETURN JUMPDEST CALLVALUE DUP1 ISZERO PUSH2 0x2B4 JUMPI PUSH1 0x0 DUP1 REVERT JUMPDEST POP PUSH2 0x2BD PUSH2 0x9AF JUMP JUMPDEST STOP JUMPDEST CALLVALUE DUP1 ISZERO PUSH2 0x2CB JUMPI PUSH1 0x0 DUP1 REVERT JUMPDEST POP PUSH2 0x2E6 PUSH1 0x4 DUP1 CALLDATASIZE SUB DUP2 ADD SWAP1 PUSH2 0x2E1 SWAP2 SWAP1 PUSH2 0x1704 JUMP JUMPDEST PUSH2 0x9B1 JUMP JUMPDEST PUSH1 0x40 MLOAD PUSH2 0x2F3 SWAP2 SWAP1 PUSH2 0x155B JUMP JUMPDEST PUSH1 0x40 MLOAD DUP1 SWAP2 SUB SWAP1 RETURN JUMPDEST CALLVALUE DUP1 ISZERO PUSH2 0x308 JUMPI PUSH1 0x0 DUP1 REVERT JUMPDEST POP PUSH2 0x323 PUSH1 0x4 DUP1 CALLDATASIZE SUB DUP2 ADD SWAP1 PUSH2 0x31E SWAP2 SWAP1 PUSH2 0x15A3 JUMP JUMPDEST PUSH2 0xA0E JUMP JUMPDEST PUSH1 0x40 MLOAD PUSH2 0x330 SWAP2 SWAP1 PUSH2 0x155B JUMP JUMPDEST PUSH1 0x40 MLOAD DUP1 SWAP2 SUB SWAP1 RETURN JUMPDEST CALLVALUE DUP1 ISZERO PUSH2 0x345 JUMPI PUSH1 0x0 DUP1 REVERT JUMPDEST POP PUSH2 0x34E PUSH2 0xA3F JUMP JUMPDEST PUSH1 0x40 MLOAD PUSH2 0x35B SWAP2 SWAP1 PUSH2 0x155B JUMP JUMPDEST PUSH1 0x40 MLOAD DUP1 SWAP2 SUB SWAP1 RETURN JUMPDEST PUSH2 0x37E PUSH1 0x4 DUP1 CALLDATASIZE SUB DUP2 ADD SWAP1 PUSH2 0x379 SWAP2 SWAP1 PUSH2 0x1767 JUMP JUMPDEST PUSH2 0xA45 JUMP JUMPDEST STOP JUMPDEST CALLVALUE DUP1 ISZERO PUSH2 0x38C JUMPI PUSH1 0x0 DUP1 REVERT JUMPDEST POP PUSH2 0x3A7 PUSH1 0x4 DUP1 CALLDATASIZE SUB DUP2 ADD SWAP1 PUSH2 0x3A2 SWAP2 SWAP1 PUSH2 0x150C JUMP JUMPDEST PUSH2 0xE3F JUMP JUMPDEST PUSH1 0x40 MLOAD PUSH2 0x3B6 SWAP4 SWAP3 SWAP2 SWAP1 PUSH2 0x17A7 JUMP JUMPDEST PUSH1 0x40 MLOAD DUP1 SWAP2 SUB SWAP1 RETURN JUMPDEST CALLVALUE DUP1 ISZERO PUSH2 0x3CB JUMPI PUSH1 0x0 DUP1 REVERT JUMPDEST POP PUSH2 0x3E6 PUSH1 0x4 DUP1 CALLDATASIZE SUB DUP2 ADD SWAP1 PUSH2 0x3E1 SWAP2 SWAP1 PUSH2 0x1704 JUMP JUMPDEST PUSH2 0xE96 JUMP JUMPDEST PUSH1 0x40 MLOAD PUSH2 0x3F7 SWAP6 SWAP5 SWAP4 SWAP3 SWAP2 SWAP1 PUSH2 0x17DE JUMP JUMPDEST PUSH1 0x40 MLOAD DUP1 SWAP2 SUB SWAP1 RETURN JUMPDEST CALLVALUE DUP1 ISZERO PUSH2 0x40C JUMPI PUSH1 0x0 DUP1 REVERT JUMPDEST POP PUSH2 0x415 PUSH2 0xF09 JUMP JUMPDEST PUSH1 0x40 MLOAD PUSH2 0x422 SWAP2 SWAP1 PUSH2 0x155B JUMP JUMPDEST PUSH1 0x40 MLOAD DUP1 SWAP2 SUB SWAP1 RETURN JUMPDEST CALLVALUE DUP1 ISZERO PUSH2 0x437 JUMPI PUSH1 0x0 DUP1 REVERT JUMPDEST POP PUSH2 0x452 PUSH1 0x4 DUP1 CALLDATASIZE SUB DUP2 ADD SWAP1 PUSH2 0x44D SWAP2 SWAP1 PUSH2 0x1A4C JUMP JUMPDEST PUSH2 0xF0F JUMP JUMPDEST STOP JUMPDEST CALLVALUE DUP1 ISZERO PUSH2 0x460 JUMPI PUSH1 0x0 DUP1 REVERT JUMPDEST POP PUSH2 0x47B PUSH1 0x4 DUP1 CALLDATASIZE SUB DUP2 ADD SWAP1 PUSH2 0x476 SWAP2 SWAP1 PUSH2 0x15A3 JUMP JUMPDEST PUSH2 0x111D JUMP JUMPDEST PUSH1 0x40 MLOAD PUSH2 0x488 SWAP2 SWAP1 PUSH2 0x155B JUMP JUMPDEST PUSH1 0x40 MLOAD DUP1 SWAP2 SUB SWAP1 RETURN JUMPDEST CALLVALUE DUP1 ISZERO PUSH2 0x49D JUMPI PUSH1 0x0 DUP1 REVERT JUMPDEST POP PUSH2 0x4A6 PUSH2 0x1125 JUMP JUMPDEST STOP JUMPDEST PUSH1 0x3 PUSH1 0x20 MSTORE DUP2 PUSH1 0x0 MSTORE PUSH1 0x40 PUSH1 0x0 KECCAK256 PUSH1 0x20 MSTORE DUP1 PUSH1 0x0 MSTORE PUSH1 0x40 PUSH1 0x0 KECCAK256 PUSH1 0x0 SWAP2 POP SWAP2 POP POP SLOAD DUP2 JUMP JUMPDEST PUSH1 0x5 PUSH1 0x20 MSTORE DUP1 PUSH1 0x0 MSTORE PUSH1 0x40 PUSH1 0x0 KECCAK256 PUSH1 0x0 SWAP2 POP SWAP1 POP SLOAD DUP2 JUMP JUMPDEST PUSH1 0x6 PUSH1 0x20 MSTORE DUP2 PUSH1 0x0 MSTORE PUSH1 0x40 PUSH1 0x0 KECCAK256 DUP2 DUP2 SLOAD DUP2 LT PUSH2 0x501 JUMPI PUSH1 0x0 DUP1 REVERT JUMPDEST SWAP1 PUSH1 0x0 MSTORE PUSH1 0x20 PUSH1 0x0 KECCAK256 SWAP1 PUSH1 0x4 MUL ADD PUSH1 0x0 SWAP2 POP SWAP2 POP POP DUP1 PUSH1 0x0 ADD SLOAD SWAP1 DUP1 PUSH1 0x1 ADD DUP1 SLOAD PUSH2 0x52B SWAP1 PUSH2 0x1AEA JUMP JUMPDEST DUP1 PUSH1 0x1F ADD PUSH1 0x20 DUP1 SWAP2 DIV MUL PUSH1 0x20 ADD PUSH1 0x40 MLOAD SWAP1 DUP2 ADD PUSH1 0x40 MSTORE DUP1 SWAP3 SWAP2 SWAP1 DUP2 DUP2 MSTORE PUSH1 0x20 ADD DUP3 DUP1 SLOAD PUSH2 0x557 SWAP1 PUSH2 0x1AEA JUMP JUMPDEST DUP1 ISZERO PUSH2 0x5A4 JUMPI DUP1 PUSH1 0x1F LT PUSH2 0x579 JUMPI PUSH2 0x100 DUP1 DUP4 SLOAD DIV MUL DUP4 MSTORE SWAP2 PUSH1 0x20 ADD SWAP2 PUSH2 0x5A4 JUMP JUMPDEST DUP3 ADD SWAP2 SWAP1 PUSH1 0x0 MSTORE PUSH1 0x20 PUSH1 0x0 KECCAK256 SWAP1 JUMPDEST DUP2 SLOAD DUP2 MSTORE SWAP1 PUSH1 0x1 ADD SWAP1 PUSH1 0x20 ADD DUP1 DUP4 GT PUSH2 0x587 JUMPI DUP3 SWAP1 SUB PUSH1 0x1F AND DUP3 ADD SWAP2 JUMPDEST POP POP POP POP POP SWAP1 DUP1 PUSH1 0x2 ADD PUSH1 0x0 SWAP1 SLOAD SWAP1 PUSH2 0x100 EXP SWAP1 DIV PUSH20 0xFFFFFFFFFFFFFFFFFFFFFFFFFFFFFFFFFFFFFFFF AND SWAP1 DUP1 PUSH1 0x3 ADD SLOAD SWAP1 POP DUP5 JUMP JUMPDEST PUSH1 0x7 PUSH1 0x20 MSTORE DUP2 PUSH1 0x0 MSTORE PUSH1 0x40 PUSH1 0x0 KECCAK256 PUSH1 0x20 MSTORE DUP1 PUSH1 0x0 MSTORE PUSH1 0x40 PUSH1 0x0 KECCAK256 PUSH1 0x0 SWAP2 POP SWAP2 POP SWAP1 SLOAD SWAP1 PUSH2 0x100 EXP SWAP1 DIV PUSH1 0xFF AND DUP2 JUMP JUMPDEST PUSH1 0x2 PUSH1 0x20 MSTORE DUP1 PUSH1 0x0 MSTORE PUSH1 0x40 PUSH1 0x0 KECCAK256 PUSH1 0x0 SWAP2 POP SWAP1 POP SLOAD DUP2 JUMP JUMPDEST PUSH1 0x0 PUSH1 0xA DUP4 DUP2 SLOAD DUP2 LT PUSH2 0x637 JUMPI PUSH2 0x636 PUSH2 0x1B1B JUMP JUMPDEST JUMPDEST SWAP1 PUSH1 0x0 MSTORE PUSH1 0x20 PUSH1 0x0 KECCAK256 SWAP1 PUSH1 0x6 MUL ADD SWAP1 POP PUSH1 0x7 PUSH1 0x0 DUP5 DUP2 MSTORE PUSH1 0x20 ADD SWAP1 DUP2 MSTORE PUSH1 0x20 ADD PUSH1 0x0 KECCAK256 PUSH1 0x0 CALLER PUSH20 0xFFFFFFFFFFFFFFFFFFFFFFFFFFFFFFFFFFFFFFFF AND PUSH20 0xFFFFFFFFFFFFFFFFFFFFFFFFFFFFFFFFFFFFFFFF AND DUP2 MSTORE PUSH1 0x20 ADD SWAP1 DUP2 MSTORE PUSH1 0x20 ADD PUSH1 0x0 KECCAK256 PUSH1 0x0 SWAP1 SLOAD SWAP1 PUSH2 0x100 EXP SWAP1 DIV PUSH1 0xFF AND ISZERO PUSH2 0x6E5 JUMPI PUSH1 0x40 MLOAD PUSH32 0x8C379A000000000000000000000000000000000000000000000000000000000 DUP2 MSTORE PUSH1 0x4 ADD PUSH2 0x6DC SWAP1 PUSH2 0x1B96 JUMP JUMPDEST PUSH1 0x40 MLOAD DUP1 SWAP2 SUB SWAP1 REVERT JUMPDEST DUP1 PUSH1 0x5 ADD PUSH1 0x0 SWAP1 SLOAD SWAP1 PUSH2 0x100 EXP SWAP1 DIV PUSH1 0xFF AND PUSH2 0x736 JUMPI PUSH1 0x40 MLOAD PUSH32 0x8C379A000000000000000000000000000000000000000000000000000000000 DUP2 MSTORE PUSH1 0x4 ADD PUSH2 0x72D SWAP1 PUSH2 0x1C02 JUMP JUMPDEST PUSH1 0x40 MLOAD DUP1 SWAP2 SUB SWAP1 REVERT JUMPDEST DUP1 PUSH1 0x2 ADD SLOAD TIMESTAMP LT ISZERO DUP1 ISZERO PUSH2 0x74E JUMPI POP DUP1 PUSH1 0x3 ADD SLOAD TIMESTAMP GT ISZERO JUMPDEST PUSH2 0x78D JUMPI PUSH1 0x40 MLOAD PUSH32 0x8C379A000000000000000000000000000000000000000000000000000000000 DUP2 MSTORE PUSH1 0x4 ADD PUSH2 0x784 SWAP1 PUSH2 0x1C6E JUMP JUMPDEST PUSH1 0x40 MLOAD DUP1 SWAP2 SUB SWAP1 REVERT JUMPDEST PUSH1 0x0 DUP3 LT ISZERO DUP1 ISZERO PUSH2 0x7A4 JUMPI POP DUP1 PUSH1 0x4 ADD DUP1 SLOAD SWAP1 POP DUP3 LT JUMPDEST PUSH2 0x7E3 JUMPI PUSH1 0x40 MLOAD PUSH32 0x8C379A000000000000000000000000000000000000000000000000000000000 DUP2 MSTORE PUSH1 0x4 ADD PUSH2 0x7DA SWAP1 PUSH2 0x1CDA JUMP JUMPDEST PUSH1 0x40 MLOAD DUP1 SWAP2 SUB SWAP1 REVERT JUMPDEST PUSH1 0x1 PUSH1 0x7 PUSH1 0x0 DUP6 DUP2 MSTORE PUSH1 0x20 ADD SWAP1 DUP2 MSTORE PUSH1 0x20 ADD PUSH1 0x0 KECCAK256 PUSH1 0x0 CALLER PUSH20 0xFFFFFFFFFFFFFFFFFFFFFFFFFFFFFFFFFFFFFFFF AND PUSH20 0xFFFFFFFFFFFFFFFFFFFFFFFFFFFFFFFFFFFFFFFF AND DUP2 MSTORE PUSH1 0x20 ADD SWAP1 DUP2 MSTORE PUSH1 0x20 ADD PUSH1 0x0 KECCAK256 PUSH1 0x0 PUSH2 0x100 EXP DUP2 SLOAD DUP2 PUSH1 0xFF MUL NOT AND SWAP1 DUP4 ISZERO ISZERO MUL OR SWAP1 SSTORE POP PUSH1 0x0 PUSH1 0x40 MLOAD DUP1 PUSH1 0x60 ADD PUSH1 0x40 MSTORE DUP1 DUP6 DUP2 MSTORE PUSH1 0x20 ADD CALLER PUSH20 0xFFFFFFFFFFFFFFFFFFFFFFFFFFFFFFFFFFFFFFFF AND DUP2 MSTORE PUSH1 0x20 ADD DUP5 DUP2 MSTORE POP SWAP1 POP DUP1 PUSH1 0x8 PUSH1 0x0 DUP7 DUP2 MSTORE PUSH1 0x20 ADD SWAP1 DUP2 MSTORE PUSH1 0x20 ADD PUSH1 0x0 KECCAK256 PUSH1 0x0 CALLER PUSH20 0xFFFFFFFFFFFFFFFFFFFFFFFFFFFFFFFFFFFFFFFF AND PUSH20 0xFFFFFFFFFFFFFFFFFFFFFFFFFFFFFFFFFFFFFFFF AND DUP2 MSTORE PUSH1 0x20 ADD SWAP1 DUP2 MSTORE PUSH1 0x20 ADD PUSH1 0x0 KECCAK256 PUSH1 0x0 DUP3 ADD MLOAD DUP2 PUSH1 0x0 ADD SSTORE PUSH1 0x20 DUP3 ADD MLOAD DUP2 PUSH1 0x1 ADD PUSH1 0x0 PUSH2 0x100 EXP DUP2 SLOAD DUP2 PUSH20 0xFFFFFFFFFFFFFFFFFFFFFFFFFFFFFFFFFFFFFFFF MUL NOT AND SWAP1 DUP4 PUSH20 0xFFFFFFFFFFFFFFFFFFFFFFFFFFFFFFFFFFFFFFFF AND MUL OR SWAP1 SSTORE POP PUSH1 0x40 DUP3 ADD MLOAD DUP2 PUSH1 0x2 ADD SSTORE SWAP1 POP POP PUSH2 0x93A DUP5 CALLER PUSH2 0x1127 JUMP JUMPDEST CALLER PUSH20 0xFFFFFFFFFFFFFFFFFFFFFFFFFFFFFFFFFFFFFFFF AND DUP5 PUSH32 0xE7EE74CA1F4BB1B82B14F87794C45B3E59C39E372B862FB97A6316B43355B69E DUP6 PUSH1 0x40 MLOAD PUSH2 0x981 SWAP2 SWAP1 PUSH2 0x155B JUMP JUMPDEST PUSH1 0x40 MLOAD DUP1 SWAP2 SUB SWAP1 LOG3 POP POP POP POP JUMP JUMPDEST PUSH1 0x0 PUSH1 0x6 PUSH1 0x0 DUP4 DUP2 MSTORE PUSH1 0x20 ADD SWAP1 DUP2 MSTORE PUSH1 0x20 ADD PUSH1 0x0 KECCAK256 DUP1 SLOAD SWAP1 POP SWAP1 POP SWAP2 SWAP1 POP JUMP JUMPDEST JUMP JUMPDEST PUSH1 0x0 DUP1 PUSH1 0x0 SWAP1 POP PUSH1 0x0 PUSH1 0x9 PUSH1 0x0 DUP6 DUP2 MSTORE PUSH1 0x20 ADD SWAP1 DUP2 MSTORE PUSH1 0x20 ADD PUSH1 0x0 KECCAK256 SWAP1 POP PUSH1 0x0 JUMPDEST PUSH2 0x9DB DUP3 PUSH2 0x1151 JUMP JUMPDEST DUP2 LT ISZERO PUSH2 0xA03 JUMPI DUP3 DUP1 PUSH2 0x9ED SWAP1 PUSH2 0x1D29 JUMP JUMPDEST SWAP4 POP POP DUP1 DUP1 PUSH2 0x9FB SWAP1 PUSH2 0x1D29 JUMP JUMPDEST SWAP2 POP POP PUSH2 0x9D2 JUMP JUMPDEST POP DUP2 SWAP3 POP POP POP SWAP2 SWAP1 POP JUMP JUMPDEST PUSH1 0x4 PUSH1 0x20 MSTORE DUP2 PUSH1 0x0 MSTORE PUSH1 0x40 PUSH1 0x0 KECCAK256 DUP2 DUP2 SLOAD DUP2 LT PUSH2 0xA2A JUMPI PUSH1 0x0 DUP1 REVERT JUMPDEST SWAP1 PUSH1 0x0 MSTORE PUSH1 0x20 PUSH1 0x0 KECCAK256 ADD PUSH1 0x0 SWAP2 POP SWAP2 POP POP SLOAD DUP2 JUMP JUMPDEST PUSH1 0x0 SLOAD DUP2 JUMP JUMPDEST PUSH1 0xA DUP3 DUP2 SLOAD DUP2 LT PUSH2 0xA59 JUMPI PUSH2 0xA58 PUSH2 0x1B1B JUMP JUMPDEST JUMPDEST SWAP1 PUSH1 0x0 MSTORE PUSH1 0x20 PUSH1 0x0 KECCAK256 SWAP1 PUSH1 0x6 MUL ADD PUSH1 0x2 ADD SLOAD TIMESTAMP LT ISZERO PUSH2 0xAAD JUMPI PUSH1 0x40 MLOAD PUSH32 0x8C379A000000000000000000000000000000000000000000000000000000000 DUP2 MSTORE PUSH1 0x4 ADD PUSH2 0xAA4 SWAP1 PUSH2 0x1DE3 JUMP JUMPDEST PUSH1 0x40 MLOAD DUP1 SWAP2 SUB SWAP1 REVERT JUMPDEST PUSH1 0xA DUP3 DUP2 SLOAD DUP2 LT PUSH2 0xAC1 JUMPI PUSH2 0xAC0 PUSH2 0x1B1B JUMP JUMPDEST JUMPDEST SWAP1 PUSH1 0x0 MSTORE PUSH1 0x20 PUSH1 0x0 KECCAK256 SWAP1 PUSH1 0x6 MUL ADD PUSH1 0x3 ADD SLOAD TIMESTAMP LT PUSH2 0xB14 JUMPI PUSH1 0x40 MLOAD PUSH32 0x8C379A000000000000000000000000000000000000000000000000000000000 DUP2 MSTORE PUSH1 0x4 ADD PUSH2 0xB0B SWAP1 PUSH2 0x1E75 JUMP JUMPDEST PUSH1 0x40 MLOAD DUP1 SWAP2 SUB SWAP1 REVERT JUMPDEST PUSH1 0x0 CALLVALUE GT PUSH2 0xB57 JUMPI PUSH1 0x40 MLOAD PUSH32 0x8C379A000000000000000000000000000000000000000000000000000000000 DUP2 MSTORE PUSH1 0x4 ADD PUSH2 0xB4E SWAP1 PUSH2 0x1EE1 JUMP JUMPDEST PUSH1 0x40 MLOAD DUP1 SWAP2 SUB SWAP1 REVERT JUMPDEST PUSH1 0x0 DUP1 PUSH1 0x0 SWAP1 POP JUMPDEST PUSH1 0xA DUP5 DUP2 SLOAD DUP2 LT PUSH2 0xB73 JUMPI PUSH2 0xB72 PUSH2 0x1B1B JUMP JUMPDEST JUMPDEST SWAP1 PUSH1 0x0 MSTORE PUSH1 0x20 PUSH1 0x0 KECCAK256 SWAP1 PUSH1 0x6 MUL ADD PUSH1 0x4 ADD DUP1 SLOAD SWAP1 POP DUP2 LT ISZERO PUSH2 0xC06 JUMPI DUP3 PUSH1 0xA DUP6 DUP2 SLOAD DUP2 LT PUSH2 0xBA4 JUMPI PUSH2 0xBA3 PUSH2 0x1B1B JUMP JUMPDEST JUMPDEST SWAP1 PUSH1 0x0 MSTORE PUSH1 0x20 PUSH1 0x0 KECCAK256 SWAP1 PUSH1 0x6 MUL ADD PUSH1 0x4 ADD DUP3 DUP2 SLOAD DUP2 LT PUSH2 0xBC7 JUMPI PUSH2 0xBC6 PUSH2 0x1B1B JUMP JUMPDEST JUMPDEST SWAP1 PUSH1 0x0 MSTORE PUSH1 0x20 PUSH1 0x0 KECCAK256 ADD PUSH1 0x40 MLOAD PUSH2 0xBDE SWAP2 SWAP1 PUSH2 0x1FA4 JUMP JUMPDEST PUSH1 0x40 MLOAD DUP1 SWAP2 SUB SWAP1 KECCAK256 SUB PUSH2 0xBF3 JUMPI DUP1 SWAP2 POP PUSH2 0xC06 JUMP JUMPDEST DUP1 DUP1 PUSH2 0xBFE SWAP1 PUSH2 0x1D29 JUMP JUMPDEST SWAP2 POP POP PUSH2 0xB5F JUMP JUMPDEST POP PUSH1 0x0 DUP2 GT PUSH2 0xC4A JUMPI PUSH1 0x40 MLOAD PUSH32 0x8C379A000000000000000000000000000000000000000000000000000000000 DUP2 MSTORE PUSH1 0x4 ADD PUSH2 0xC41 SWAP1 PUSH2 0x2053 JUMP JUMPDEST PUSH1 0x40 MLOAD DUP1 SWAP2 SUB SWAP1 REVERT JUMPDEST CALLVALUE PUSH1 0x2 PUSH1 0x0 DUP6 DUP2 MSTORE PUSH1 0x20 ADD SWAP1 DUP2 MSTORE PUSH1 0x20 ADD PUSH1 0x0 KECCAK256 PUSH1 0x0 DUP3 DUP3 SLOAD PUSH2 0xC6D SWAP2 SWAP1 PUSH2 0x2073 JUMP JUMPDEST SWAP3 POP POP DUP2 SWAP1 SSTORE POP CALLVALUE PUSH1 0x3 PUSH1 0x0 DUP6 DUP2 MSTORE PUSH1 0x20 ADD SWAP1 DUP2 MSTORE PUSH1 0x20 ADD PUSH1 0x0 KECCAK256 PUSH1 0x0 CALLER PUSH20 0xFFFFFFFFFFFFFFFFFFFFFFFFFFFFFFFFFFFFFFFF AND PUSH20 0xFFFFFFFFFFFFFFFFFFFFFFFFFFFFFFFFFFFFFFFF AND DUP2 MSTORE PUSH1 0x20 ADD SWAP1 DUP2 MSTORE PUSH1 0x20 ADD PUSH1 0x0 KECCAK256 PUSH1 0x0 DUP3 DUP3 SLOAD PUSH2 0xCD4 SWAP2 SWAP1 PUSH2 0x2073 JUMP JUMPDEST SWAP3 POP POP DUP2 SWAP1 SSTORE POP PUSH1 0x1 PUSH1 0x0 DUP2 SLOAD DUP1 SWAP3 SWAP2 SWAP1 PUSH2 0xCEE SWAP1 PUSH2 0x1D29 JUMP JUMPDEST SWAP2 SWAP1 POP SSTORE POP PUSH1 0x6 PUSH1 0x0 DUP5 DUP2 MSTORE PUSH1 0x20 ADD SWAP1 DUP2 MSTORE PUSH1 0x20 ADD PUSH1 0x0 KECCAK256 PUSH1 0x40 MLOAD DUP1 PUSH1 0x80 ADD PUSH1 0x40 MSTORE DUP1 DUP6 DUP2 MSTORE PUSH1 0x20 ADD PUSH2 0xD20 DUP6 PUSH2 0x1166 JUMP JUMPDEST DUP2 MSTORE PUSH1 0x20 ADD CALLER PUSH20 0xFFFFFFFFFFFFFFFFFFFFFFFFFFFFFFFFFFFFFFFF AND DUP2 MSTORE PUSH1 0x20 ADD CALLVALUE DUP2 MSTORE POP SWAP1 DUP1 PUSH1 0x1 DUP2 SLOAD ADD DUP1 DUP3 SSTORE DUP1 SWAP2 POP POP PUSH1 0x1 SWAP1 SUB SWAP1 PUSH1 0x0 MSTORE PUSH1 0x20 PUSH1 0x0 KECCAK256 SWAP1 PUSH1 0x4 MUL ADD PUSH1 0x0 SWAP1 SWAP2 SWAP1 SWAP2 SWAP1 SWAP2 POP PUSH1 0x0 DUP3 ADD MLOAD DUP2 PUSH1 0x0 ADD SSTORE PUSH1 0x20 DUP3 ADD MLOAD DUP2 PUSH1 0x1 ADD SWAP1 DUP2 PUSH2 0xD8D SWAP2 SWAP1 PUSH2 0x2253 JUMP JUMPDEST POP PUSH1 0x40 DUP3 ADD MLOAD DUP2 PUSH1 0x2 ADD PUSH1 0x0 PUSH2 0x100 EXP DUP2 SLOAD DUP2 PUSH20 0xFFFFFFFFFFFFFFFFFFFFFFFFFFFFFFFFFFFFFFFF MUL NOT AND SWAP1 DUP4 PUSH20 0xFFFFFFFFFFFFFFFFFFFFFFFFFFFFFFFFFFFFFFFF AND MUL OR SWAP1 SSTORE POP PUSH1 0x60 DUP3 ADD MLOAD DUP2 PUSH1 0x3 ADD SSTORE POP POP CALLER PUSH20 0xFFFFFFFFFFFFFFFFFFFFFFFFFFFFFFFFFFFFFFFF AND DUP4 PUSH32 0xFA643037CEE917EC3049F1BA2BFB5D4DF493F0B6DB3ED68F3716D11233494E7D PUSH2 0xE23 DUP6 PUSH2 0x1166 JUMP JUMPDEST CALLVALUE PUSH1 0x40 MLOAD PUSH2 0xE32 SWAP3 SWAP2 SWAP1 PUSH2 0x2325 JUMP JUMPDEST PUSH1 0x40 MLOAD DUP1 SWAP2 SUB SWAP1 LOG3 POP POP POP JUMP JUMPDEST PUSH1 0x8 PUSH1 0x20 MSTORE DUP2 PUSH1 0x0 MSTORE PUSH1 0x40 PUSH1 0x0 KECCAK256 PUSH1 0x20 MSTORE DUP1 PUSH1 0x0 MSTORE PUSH1 0x40 PUSH1 0x0 KECCAK256 PUSH1 0x0 SWAP2 POP SWAP2 POP POP DUP1 PUSH1 0x0 ADD SLOAD SWAP1 DUP1 PUSH1 0x1 ADD PUSH1 0x0 SWAP1 SLOAD SWAP1 PUSH2 0x100 EXP SWAP1 DIV PUSH20 0xFFFFFFFFFFFFFFFFFFFFFFFFFFFFFFFFFFFFFFFF AND SWAP1 DUP1 PUSH1 0x2 ADD SLOAD SWAP1 POP DUP4 JUMP JUMPDEST PUSH1 0xA DUP2 DUP2 SLOAD DUP2 LT PUSH2 0xEA6 JUMPI PUSH1 0x0 DUP1 REVERT JUMPDEST SWAP1 PUSH1 0x0 MSTORE PUSH1 0x20 PUSH1 0x0 KECCAK256 SWAP1 PUSH1 0x6 MUL ADD PUSH1 0x0 SWAP2 POP SWAP1 POP DUP1 PUSH1 0x0 ADD SLOAD SWAP1 DUP1 PUSH1 0x1 ADD PUSH1 0x0 SWAP1 SLOAD SWAP1 PUSH2 0x100 EXP SWAP1 DIV PUSH20 0xFFFFFFFFFFFFFFFFFFFFFFFFFFFFFFFFFFFFFFFF AND SWAP1 DUP1 PUSH1 0x2 ADD SLOAD SWAP1 DUP1 PUSH1 0x3 ADD SLOAD SWAP1 DUP1 PUSH1 0x5 ADD PUSH1 0x0 SWAP1 SLOAD SWAP1 PUSH2 0x100 EXP SWAP1 DIV PUSH1 0xFF AND SWAP1 POP DUP6 JUMP JUMPDEST PUSH1 0x1 SLOAD DUP2 JUMP JUMPDEST DUP3 DUP3 GT PUSH2 0xF51 JUMPI PUSH1 0x40 MLOAD PUSH32 0x8C379A000000000000000000000000000000000000000000000000000000000 DUP2 MSTORE PUSH1 0x4 ADD PUSH2 0xF48 SWAP1 PUSH2 0x23A1 JUMP JUMPDEST PUSH1 0x40 MLOAD DUP1 SWAP2 SUB SWAP1 REVERT JUMPDEST PUSH1 0x1 DUP2 MLOAD GT PUSH2 0xF95 JUMPI PUSH1 0x40 MLOAD PUSH32 0x8C379A000000000000000000000000000000000000000000000000000000000 DUP2 MSTORE PUSH1 0x4 ADD PUSH2 0xF8C SWAP1 PUSH2 0x240D JUMP JUMPDEST PUSH1 0x40 MLOAD DUP1 SWAP2 SUB SWAP1 REVERT JUMPDEST PUSH1 0x0 DUP1 DUP2 SLOAD DUP1 SWAP3 SWAP2 SWAP1 PUSH2 0xFA7 SWAP1 PUSH2 0x1D29 JUMP JUMPDEST SWAP2 SWAP1 POP SSTORE POP PUSH1 0x0 PUSH1 0x40 MLOAD DUP1 PUSH1 0xC0 ADD PUSH1 0x40 MSTORE DUP1 PUSH1 0x0 SLOAD DUP2 MSTORE PUSH1 0x20 ADD CALLER PUSH20 0xFFFFFFFFFFFFFFFFFFFFFFFFFFFFFFFFFFFFFFFF AND DUP2 MSTORE PUSH1 0x20 ADD DUP6 DUP2 MSTORE PUSH1 0x20 ADD DUP5 DUP2 MSTORE PUSH1 0x20 ADD DUP4 DUP2 MSTORE PUSH1 0x20 ADD PUSH1 0x1 ISZERO ISZERO DUP2 MSTORE POP SWAP1 POP DUP1 PUSH1 0xA PUSH1 0x0 SLOAD DUP2 SLOAD DUP2 LT PUSH2 0x100F JUMPI PUSH2 0x100E PUSH2 0x1B1B JUMP JUMPDEST JUMPDEST SWAP1 PUSH1 0x0 MSTORE PUSH1 0x20 PUSH1 0x0 KECCAK256 SWAP1 PUSH1 0x6 MUL ADD PUSH1 0x0 DUP3 ADD MLOAD DUP2 PUSH1 0x0 ADD SSTORE PUSH1 0x20 DUP3 ADD MLOAD DUP2 PUSH1 0x1 ADD PUSH1 0x0 PUSH2 0x100 EXP DUP2 SLOAD DUP2 PUSH20 0xFFFFFFFFFFFFFFFFFFFFFFFFFFFFFFFFFFFFFFFF MUL NOT AND SWAP1 DUP4 PUSH20 0xFFFFFFFFFFFFFFFFFFFFFFFFFFFFFFFFFFFFFFFF AND MUL OR SWAP1 SSTORE POP PUSH1 0x40 DUP3 ADD MLOAD DUP2 PUSH1 0x2 ADD SSTORE PUSH1 0x60 DUP3 ADD MLOAD DUP2 PUSH1 0x3 ADD SSTORE PUSH1 0x80 DUP3 ADD MLOAD DUP2 PUSH1 0x4 ADD SWAP1 DUP1 MLOAD SWAP1 PUSH1 0x20 ADD SWAP1 PUSH2 0x109E SWAP3 SWAP2 SWAP1 PUSH2 0x138A JUMP JUMPDEST POP PUSH1 0xA0 DUP3 ADD MLOAD DUP2 PUSH1 0x5 ADD PUSH1 0x0 PUSH2 0x100 EXP DUP2 SLOAD DUP2 PUSH1 0xFF MUL NOT AND SWAP1 DUP4 ISZERO ISZERO MUL OR SWAP1 SSTORE POP SWAP1 POP POP CALLER PUSH20 0xFFFFFFFFFFFFFFFFFFFFFFFFFFFFFFFFFFFFFFFF AND PUSH1 0x0 SLOAD PUSH32 0x58D87E181E9AC91F8CCDA34CAAF4C15DB2A9FC345A86EA48E378D6E4359DFDB9 DUP7 DUP7 DUP7 PUSH1 0x40 MLOAD PUSH2 0x110F SWAP4 SWAP3 SWAP2 SWAP1 PUSH2 0x2539 JUMP JUMPDEST PUSH1 0x40 MLOAD DUP1 SWAP2 SUB SWAP1 LOG3 POP POP POP POP JUMP JUMPDEST PUSH1 0x0 SWAP3 SWAP2 POP POP JUMP JUMPDEST JUMP JUMPDEST PUSH2 0x114C DUP2 PUSH1 0x9 PUSH1 0x0 DUP6 DUP2 MSTORE PUSH1 0x20 ADD SWAP1 DUP2 MSTORE PUSH1 0x20 ADD PUSH1 0x0 KECCAK256 PUSH2 0x12B6 SWAP1 SWAP2 SWAP1 PUSH4 0xFFFFFFFF AND JUMP JUMPDEST POP POP POP JUMP JUMPDEST PUSH1 0x0 PUSH2 0x115F DUP3 PUSH1 0x0 ADD PUSH2 0x12E6 JUMP JUMPDEST SWAP1 POP SWAP2 SWAP1 POP JUMP JUMPDEST PUSH1 0x60 PUSH1 0x0 JUMPDEST PUSH1 0x20 DUP2 PUSH1 0xFF AND LT DUP1 ISZERO PUSH2 0x11BD JUMPI POP PUSH1 0x0 PUSH1 0xF8 SHL DUP4 DUP3 PUSH1 0xFF AND PUSH1 0x20 DUP2 LT PUSH2 0x1194 JUMPI PUSH2 0x1193 PUSH2 0x1B1B JUMP JUMPDEST JUMPDEST BYTE PUSH1 0xF8 SHL PUSH31 0xFFFFFFFFFFFFFFFFFFFFFFFFFFFFFFFFFFFFFFFFFFFFFFFFFFFFFFFFFFFFFF NOT AND EQ ISZERO JUMPDEST ISZERO PUSH2 0x11D5 JUMPI DUP1 DUP1 PUSH2 0x11CD SWAP1 PUSH2 0x2584 JUMP JUMPDEST SWAP2 POP POP PUSH2 0x116B JUMP JUMPDEST PUSH1 0x0 DUP2 PUSH1 0xFF AND PUSH8 0xFFFFFFFFFFFFFFFF DUP2 GT ISZERO PUSH2 0x11F4 JUMPI PUSH2 0x11F3 PUSH2 0x1836 JUMP JUMPDEST JUMPDEST PUSH1 0x40 MLOAD SWAP1 DUP1 DUP3 MSTORE DUP1 PUSH1 0x1F ADD PUSH1 0x1F NOT AND PUSH1 0x20 ADD DUP3 ADD PUSH1 0x40 MSTORE DUP1 ISZERO PUSH2 0x1226 JUMPI DUP2 PUSH1 0x20 ADD PUSH1 0x1 DUP3 MUL DUP1 CALLDATASIZE DUP4 CALLDATACOPY DUP1 DUP3 ADD SWAP2 POP POP SWAP1 POP JUMPDEST POP SWAP1 POP PUSH1 0x0 SWAP2 POP JUMPDEST DUP1 MLOAD DUP3 PUSH1 0xFF AND LT ISZERO PUSH2 0x12AC JUMPI DUP4 DUP3 PUSH1 0xFF AND PUSH1 0x20 DUP2 LT PUSH2 0x1250 JUMPI PUSH2 0x124F PUSH2 0x1B1B JUMP JUMPDEST JUMPDEST BYTE PUSH1 0xF8 SHL DUP2 DUP4 PUSH1 0xFF AND DUP2 MLOAD DUP2 LT PUSH2 0x126A JUMPI PUSH2 0x1269 PUSH2 0x1B1B JUMP JUMPDEST JUMPDEST PUSH1 0x20 ADD ADD SWAP1 PUSH31 0xFFFFFFFFFFFFFFFFFFFFFFFFFFFFFFFFFFFFFFFFFFFFFFFFFFFFFFFFFFFFFF NOT AND SWAP1 DUP2 PUSH1 0x0 BYTE SWAP1 MSTORE8 POP DUP2 DUP1 PUSH2 0x12A4 SWAP1 PUSH2 0x2584 JUMP JUMPDEST SWAP3 POP POP PUSH2 0x122E JUMP JUMPDEST DUP1 SWAP3 POP POP POP SWAP2 SWAP1 POP JUMP JUMPDEST PUSH1 0x0 PUSH2 0x12DE DUP4 PUSH1 0x0 ADD DUP4 PUSH20 0xFFFFFFFFFFFFFFFFFFFFFFFFFFFFFFFFFFFFFFFF AND PUSH1 0x0 SHL PUSH2 0x12F7 JUMP JUMPDEST SWAP1 POP SWAP3 SWAP2 POP POP JUMP JUMPDEST PUSH1 0x0 DUP2 PUSH1 0x0 ADD DUP1 SLOAD SWAP1 POP SWAP1 POP SWAP2 SWAP1 POP JUMP JUMPDEST PUSH1 0x0 PUSH2 0x1303 DUP4 DUP4 PUSH2 0x1367 JUMP JUMPDEST PUSH2 0x135C JUMPI DUP3 PUSH1 0x0 ADD DUP3 SWAP1 DUP1 PUSH1 0x1 DUP2 SLOAD ADD DUP1 DUP3 SSTORE DUP1 SWAP2 POP POP PUSH1 0x1 SWAP1 SUB SWAP1 PUSH1 0x0 MSTORE PUSH1 0x20 PUSH1 0x0 KECCAK256 ADD PUSH1 0x0 SWAP1 SWAP2 SWAP1 SWAP2 SWAP1 SWAP2 POP SSTORE DUP3 PUSH1 0x0 ADD DUP1 SLOAD SWAP1 POP DUP4 PUSH1 0x1 ADD PUSH1 0x0 DUP5 DUP2 MSTORE PUSH1 0x20 ADD SWAP1 DUP2 MSTORE PUSH1 0x20 ADD PUSH1 0x0 KECCAK256 DUP2 SWAP1 SSTORE POP PUSH1 0x1 SWAP1 POP PUSH2 0x1361 JUMP JUMPDEST PUSH1 0x0 SWAP1 POP JUMPDEST SWAP3 SWAP2 POP POP JUMP JUMPDEST PUSH1 0x0 DUP1 DUP4 PUSH1 0x1 ADD PUSH1 0x0 DUP5 DUP2 MSTORE PUSH1 0x20 ADD SWAP1 DUP2 MSTORE PUSH1 0x20 ADD PUSH1 0x0 KECCAK256 SLOAD EQ ISZERO SWAP1 POP SWAP3 SWAP2 POP POP JUMP JUMPDEST DUP3 DUP1 SLOAD DUP3 DUP3 SSTORE SWAP1 PUSH1 0x0 MSTORE PUSH1 0x20 PUSH1 0x0 KECCAK256 SWAP1 DUP2 ADD SWAP3 DUP3 ISZERO PUSH2 0x13D2 JUMPI SWAP2 PUSH1 0x20 MUL DUP3 ADD JUMPDEST DUP3 DUP2 GT ISZERO PUSH2 0x13D1 JUMPI DUP3 MLOAD DUP3 SWAP1 DUP2 PUSH2 0x13C1 SWAP2 SWAP1 PUSH2 0x2253 JUMP JUMPDEST POP SWAP2 PUSH1 0x20 ADD SWAP2 SWAP1 PUSH1 0x1 ADD SWAP1 PUSH2 0x13AA JUMP JUMPDEST JUMPDEST POP SWAP1 POP PUSH2 0x13DF SWAP2 SWAP1 PUSH2 0x13E3 JUMP JUMPDEST POP SWAP1 JUMP JUMPDEST JUMPDEST DUP1 DUP3 GT ISZERO PUSH2 0x1403 JUMPI PUSH1 0x0 DUP2 DUP2 PUSH2 0x13FA SWAP2 SWAP1 PUSH2 0x1407 JUMP JUMPDEST POP PUSH1 0x1 ADD PUSH2 0x13E4 JUMP JUMPDEST POP SWAP1 JUMP JUMPDEST POP DUP1 SLOAD PUSH2 0x1413 SWAP1 PUSH2 0x1AEA JUMP JUMPDEST PUSH1 0x0 DUP3 SSTORE DUP1 PUSH1 0x1F LT PUSH2 0x1425 JUMPI POP PUSH2 0x1444 JUMP JUMPDEST PUSH1 0x1F ADD PUSH1 0x20 SWAP1 DIV SWAP1 PUSH1 0x0 MSTORE PUSH1 0x20 PUSH1 0x0 KECCAK256 SWAP1 DUP2 ADD SWAP1 PUSH2 0x1443 SWAP2 SWAP1 PUSH2 0x1447 JUMP JUMPDEST JUMPDEST POP JUMP JUMPDEST JUMPDEST DUP1 DUP3 GT ISZERO PUSH2 0x1460 JUMPI PUSH1 0x0 DUP2 PUSH1 0x0 SWAP1 SSTORE POP PUSH1 0x1 ADD PUSH2 0x1448 JUMP JUMPDEST POP SWAP1 JUMP JUMPDEST PUSH1 0x0 PUSH1 0x40 MLOAD SWAP1 POP SWAP1 JUMP JUMPDEST PUSH1 0x0 DUP1 REVERT JUMPDEST PUSH1 0x0 DUP1 REVERT JUMPDEST PUSH1 0x0 DUP2 SWAP1 POP SWAP2 SWAP1 POP JUMP JUMPDEST PUSH2 0x148B DUP2 PUSH2 0x1478 JUMP JUMPDEST DUP2 EQ PUSH2 0x1496 JUMPI PUSH1 0x0 DUP1 REVERT JUMPDEST POP JUMP JUMPDEST PUSH1 0x0 DUP2 CALLDATALOAD SWAP1 POP PUSH2 0x14A8 DUP2 PUSH2 0x1482 JUMP JUMPDEST SWAP3 SWAP2 POP POP JUMP JUMPDEST PUSH1 0x0 PUSH20 0xFFFFFFFFFFFFFFFFFFFFFFFFFFFFFFFFFFFFFFFF DUP3 AND SWAP1 POP SWAP2 SWAP1 POP JUMP JUMPDEST PUSH1 0x0 PUSH2 0x14D9 DUP3 PUSH2 0x14AE JUMP JUMPDEST SWAP1 POP SWAP2 SWAP1 POP JUMP JUMPDEST PUSH2 0x14E9 DUP2 PUSH2 0x14CE JUMP JUMPDEST DUP2 EQ PUSH2 0x14F4 JUMPI PUSH1 0x0 DUP1 REVERT JUMPDEST POP JUMP JUMPDEST PUSH1 0x0 DUP2 CALLDATALOAD SWAP1 POP PUSH2 0x1506 DUP2 PUSH2 0x14E0 JUMP JUMPDEST SWAP3 SWAP2 POP POP JUMP JUMPDEST PUSH1 0x0 DUP1 PUSH1 0x40 DUP4 DUP6 SUB SLT ISZERO PUSH2 0x1523 JUMPI PUSH2 0x1522 PUSH2 0x146E JUMP JUMPDEST JUMPDEST PUSH1 0x0 PUSH2 0x1531 DUP6 DUP3 DUP7 ADD PUSH2 0x1499 JUMP JUMPDEST SWAP3 POP POP PUSH1 0x20 PUSH2 0x1542 DUP6 DUP3 DUP7 ADD PUSH2 0x14F7 JUMP JUMPDEST SWAP2 POP POP SWAP3 POP SWAP3 SWAP1 POP JUMP JUMPDEST PUSH2 0x1555 DUP2 PUSH2 0x1478 JUMP JUMPDEST DUP3 MSTORE POP POP JUMP JUMPDEST PUSH1 0x0 PUSH1 0x20 DUP3 ADD SWAP1 POP PUSH2 0x1570 PUSH1 0x0 DUP4 ADD DUP5 PUSH2 0x154C JUMP JUMPDEST SWAP3 SWAP2 POP POP JUMP JUMPDEST PUSH1 0x0 PUSH1 0x20 DUP3 DUP5 SUB SLT ISZERO PUSH2 0x158C JUMPI PUSH2 0x158B PUSH2 0x146E JUMP JUMPDEST JUMPDEST PUSH1 0x0 PUSH2 0x159A DUP5 DUP3 DUP6 ADD PUSH2 0x14F7 JUMP JUMPDEST SWAP2 POP POP SWAP3 SWAP2 POP POP JUMP JUMPDEST PUSH1 0x0 DUP1 PUSH1 0x40 DUP4 DUP6 SUB SLT ISZERO PUSH2 0x15BA JUMPI PUSH2 0x15B9 PUSH2 0x146E JUMP JUMPDEST JUMPDEST PUSH1 0x0 PUSH2 0x15C8 DUP6 DUP3 DUP7 ADD PUSH2 0x1499 JUMP JUMPDEST SWAP3 POP POP PUSH1 0x20 PUSH2 0x15D9 DUP6 DUP3 DUP7 ADD PUSH2 0x1499 JUMP JUMPDEST SWAP2 POP POP SWAP3 POP SWAP3 SWAP1 POP JUMP JUMPDEST PUSH1 0x0 DUP2 MLOAD SWAP1 POP SWAP2 SWAP1 POP JUMP JUMPDEST PUSH1 0x0 DUP3 DUP3 MSTORE PUSH1 0x20 DUP3 ADD SWAP1 POP SWAP3 SWAP2 POP POP JUMP JUMPDEST PUSH1 0x0 JUMPDEST DUP4 DUP2 LT ISZERO PUSH2 0x161D JUMPI DUP1 DUP3 ADD MLOAD DUP2 DUP5 ADD MSTORE PUSH1 0x20 DUP2 ADD SWAP1 POP PUSH2 0x1602 JUMP JUMPDEST PUSH1 0x0 DUP5 DUP5 ADD MSTORE POP POP POP POP JUMP JUMPDEST PUSH1 0x0 PUSH1 0x1F NOT PUSH1 0x1F DUP4 ADD AND SWAP1 POP SWAP2 SWAP1 POP JUMP JUMPDEST PUSH1 0x0 PUSH2 0x1645 DUP3 PUSH2 0x15E3 JUMP JUMPDEST PUSH2 0x164F DUP2 DUP6 PUSH2 0x15EE JUMP JUMPDEST SWAP4 POP PUSH2 0x165F DUP2 DUP6 PUSH1 0x20 DUP7 ADD PUSH2 0x15FF JUMP JUMPDEST PUSH2 0x1668 DUP2 PUSH2 0x1629 JUMP JUMPDEST DUP5 ADD SWAP2 POP POP SWAP3 SWAP2 POP POP JUMP JUMPDEST PUSH2 0x167C DUP2 PUSH2 0x14CE JUMP JUMPDEST DUP3 MSTORE POP POP JUMP JUMPDEST PUSH1 0x0 PUSH1 0x80 DUP3 ADD SWAP1 POP PUSH2 0x1697 PUSH1 0x0 DUP4 ADD DUP8 PUSH2 0x154C JUMP JUMPDEST DUP2 DUP2 SUB PUSH1 0x20 DUP4 ADD MSTORE PUSH2 0x16A9 DUP2 DUP7 PUSH2 0x163A JUMP JUMPDEST SWAP1 POP PUSH2 0x16B8 PUSH1 0x40 DUP4 ADD DUP6 PUSH2 0x1673 JUMP JUMPDEST PUSH2 0x16C5 PUSH1 0x60 DUP4 ADD DUP5 PUSH2 0x154C JUMP JUMPDEST SWAP6 SWAP5 POP POP POP POP POP JUMP JUMPDEST PUSH1 0x0 DUP2 ISZERO ISZERO SWAP1 POP SWAP2 SWAP1 POP JUMP JUMPDEST PUSH2 0x16E3 DUP2 PUSH2 0x16CE JUMP JUMPDEST DUP3 MSTORE POP POP JUMP JUMPDEST PUSH1 0x0 PUSH1 0x20 DUP3 ADD SWAP1 POP PUSH2 0x16FE PUSH1 0x0 DUP4 ADD DUP5 PUSH2 0x16DA JUMP JUMPDEST SWAP3 SWAP2 POP POP JUMP JUMPDEST PUSH1 0x0 PUSH1 0x20 DUP3 DUP5 SUB SLT ISZERO PUSH2 0x171A JUMPI PUSH2 0x1719 PUSH2 0x146E JUMP JUMPDEST JUMPDEST PUSH1 0x0 PUSH2 0x1728 DUP5 DUP3 DUP6 ADD PUSH2 0x1499 JUMP JUMPDEST SWAP2 POP POP SWAP3 SWAP2 POP POP JUMP JUMPDEST PUSH1 0x0 DUP2 SWAP1 POP SWAP2 SWAP1 POP JUMP JUMPDEST PUSH2 0x1744 DUP2 PUSH2 0x1731 JUMP JUMPDEST DUP2 EQ PUSH2 0x174F JUMPI PUSH1 0x0 DUP1 REVERT JUMPDEST POP JUMP JUMPDEST PUSH1 0x0 DUP2 CALLDATALOAD SWAP1 POP PUSH2 0x1761 DUP2 PUSH2 0x173B JUMP JUMPDEST SWAP3 SWAP2 POP POP JUMP JUMPDEST PUSH1 0x0 DUP1 PUSH1 0x40 DUP4 DUP6 SUB SLT ISZERO PUSH2 0x177E JUMPI PUSH2 0x177D PUSH2 0x146E JUMP JUMPDEST JUMPDEST PUSH1 0x0 PUSH2 0x178C DUP6 DUP3 DUP7 ADD PUSH2 0x1499 JUMP JUMPDEST SWAP3 POP POP PUSH1 0x20 PUSH2 0x179D DUP6 DUP3 DUP7 ADD PUSH2 0x1752 JUMP JUMPDEST SWAP2 POP POP SWAP3 POP SWAP3 SWAP1 POP JUMP JUMPDEST PUSH1 0x0 PUSH1 0x60 DUP3 ADD SWAP1 POP PUSH2 0x17BC PUSH1 0x0 DUP4 ADD DUP7 PUSH2 0x154C JUMP JUMPDEST PUSH2 0x17C9 PUSH1 0x20 DUP4 ADD DUP6 PUSH2 0x1673 JUMP JUMPDEST PUSH2 0x17D6 PUSH1 0x40 DUP4 ADD DUP5 PUSH2 0x154C JUMP JUMPDEST SWAP5 SWAP4 POP POP POP POP JUMP JUMPDEST PUSH1 0x0 PUSH1 0xA0 DUP3 ADD SWAP1 POP PUSH2 0x17F3 PUSH1 0x0 DUP4 ADD DUP9 PUSH2 0x154C JUMP JUMPDEST PUSH2 0x1800 PUSH1 0x20 DUP4 ADD DUP8 PUSH2 0x1673 JUMP JUMPDEST PUSH2 0x180D PUSH1 0x40 DUP4 ADD DUP7 PUSH2 0x154C JUMP JUMPDEST PUSH2 0x181A PUSH1 0x60 DUP4 ADD DUP6 PUSH2 0x154C JUMP JUMPDEST PUSH2 0x1827 PUSH1 0x80 DUP4 ADD DUP5 PUSH2 0x16DA JUMP JUMPDEST SWAP7 SWAP6 POP POP POP POP POP POP JUMP JUMPDEST PUSH1 0x0 DUP1 REVERT JUMPDEST PUSH32 0x4E487B7100000000000000000000000000000000000000000000000000000000 PUSH1 0x0 MSTORE PUSH1 0x41 PUSH1 0x4 MSTORE PUSH1 0x24 PUSH1 0x0 REVERT JUMPDEST PUSH2 0x186E DUP3 PUSH2 0x1629 JUMP JUMPDEST DUP2 ADD DUP2 DUP2 LT PUSH8 0xFFFFFFFFFFFFFFFF DUP3 GT OR ISZERO PUSH2 0x188D JUMPI PUSH2 0x188C PUSH2 0x1836 JUMP JUMPDEST JUMPDEST DUP1 PUSH1 0x40 MSTORE POP POP POP JUMP JUMPDEST PUSH1 0x0 PUSH2 0x18A0 PUSH2 0x1464 JUMP JUMPDEST SWAP1 POP PUSH2 0x18AC DUP3 DUP3 PUSH2 0x1865 JUMP JUMPDEST SWAP2 SWAP1 POP JUMP JUMPDEST PUSH1 0x0 PUSH8 0xFFFFFFFFFFFFFFFF DUP3 GT ISZERO PUSH2 0x18CC JUMPI PUSH2 0x18CB PUSH2 0x1836 JUMP JUMPDEST JUMPDEST PUSH1 0x20 DUP3 MUL SWAP1 POP PUSH1 0x20 DUP2 ADD SWAP1 POP SWAP2 SWAP1 POP JUMP JUMPDEST PUSH1 0x0 DUP1 REVERT JUMPDEST PUSH1 0x0 DUP1 REVERT JUMPDEST PUSH1 0x0 PUSH8 0xFFFFFFFFFFFFFFFF DUP3 GT ISZERO PUSH2 0x1902 JUMPI PUSH2 0x1901 PUSH2 0x1836 JUMP JUMPDEST JUMPDEST PUSH2 0x190B DUP3 PUSH2 0x1629 JUMP JUMPDEST SWAP1 POP PUSH1 0x20 DUP2 ADD SWAP1 POP SWAP2 SWAP1 POP JUMP JUMPDEST DUP3 DUP2 DUP4 CALLDATACOPY PUSH1 0x0 DUP4 DUP4 ADD MSTORE POP POP POP JUMP JUMPDEST PUSH1 0x0 PUSH2 0x193A PUSH2 0x1935 DUP5 PUSH2 0x18E7 JUMP JUMPDEST PUSH2 0x1896 JUMP JUMPDEST SWAP1 POP DUP3 DUP2 MSTORE PUSH1 0x20 DUP2 ADD DUP5 DUP5 DUP5 ADD GT ISZERO PUSH2 0x1956 JUMPI PUSH2 0x1955 PUSH2 0x18E2 JUMP JUMPDEST JUMPDEST PUSH2 0x1961 DUP5 DUP3 DUP6 PUSH2 0x1918 JUMP JUMPDEST POP SWAP4 SWAP3 POP POP POP JUMP JUMPDEST PUSH1 0x0 DUP3 PUSH1 0x1F DUP4 ADD SLT PUSH2 0x197E JUMPI PUSH2 0x197D PUSH2 0x1831 JUMP JUMPDEST JUMPDEST DUP2 CALLDATALOAD PUSH2 0x198E DUP5 DUP3 PUSH1 0x20 DUP7 ADD PUSH2 0x1927 JUMP JUMPDEST SWAP2 POP POP SWAP3 SWAP2 POP POP JUMP JUMPDEST PUSH1 0x0 PUSH2 0x19AA PUSH2 0x19A5 DUP5 PUSH2 0x18B1 JUMP JUMPDEST PUSH2 0x1896 JUMP JUMPDEST SWAP1 POP DUP1 DUP4 DUP3 MSTORE PUSH1 0x20 DUP3 ADD SWAP1 POP PUSH1 0x20 DUP5 MUL DUP4 ADD DUP6 DUP2 GT ISZERO PUSH2 0x19CD JUMPI PUSH2 0x19CC PUSH2 0x18DD JUMP JUMPDEST JUMPDEST DUP4 JUMPDEST DUP2 DUP2 LT ISZERO PUSH2 0x1A14 JUMPI DUP1 CALLDATALOAD PUSH8 0xFFFFFFFFFFFFFFFF DUP2 GT ISZERO PUSH2 0x19F2 JUMPI PUSH2 0x19F1 PUSH2 0x1831 JUMP JUMPDEST JUMPDEST DUP1 DUP7 ADD PUSH2 0x19FF DUP10 DUP3 PUSH2 0x1969 JUMP JUMPDEST DUP6 MSTORE PUSH1 0x20 DUP6 ADD SWAP5 POP POP POP PUSH1 0x20 DUP2 ADD SWAP1 POP PUSH2 0x19CF JUMP JUMPDEST POP POP POP SWAP4 SWAP3 POP POP POP JUMP JUMPDEST PUSH1 0x0 DUP3 PUSH1 0x1F DUP4 ADD SLT PUSH2 0x1A33 JUMPI PUSH2 0x1A32 PUSH2 0x1831 JUMP JUMPDEST JUMPDEST DUP2 CALLDATALOAD PUSH2 0x1A43 DUP5 DUP3 PUSH1 0x20 DUP7 ADD PUSH2 0x1997 JUMP JUMPDEST SWAP2 POP POP SWAP3 SWAP2 POP POP JUMP JUMPDEST PUSH1 0x0 DUP1 PUSH1 0x0 PUSH1 0x60 DUP5 DUP7 SUB SLT ISZERO PUSH2 0x1A65 JUMPI PUSH2 0x1A64 PUSH2 0x146E JUMP JUMPDEST JUMPDEST PUSH1 0x0 PUSH2 0x1A73 DUP7 DUP3 DUP8 ADD PUSH2 0x1499 JUMP JUMPDEST SWAP4 POP POP PUSH1 0x20 PUSH2 0x1A84 DUP7 DUP3 DUP8 ADD PUSH2 0x1499 JUMP JUMPDEST SWAP3 POP POP PUSH1 0x40 DUP5 ADD CALLDATALOAD PUSH8 0xFFFFFFFFFFFFFFFF DUP2 GT ISZERO PUSH2 0x1AA5 JUMPI PUSH2 0x1AA4 PUSH2 0x1473 JUMP JUMPDEST JUMPDEST PUSH2 0x1AB1 DUP7 DUP3 DUP8 ADD PUSH2 0x1A1E JUMP JUMPDEST SWAP2 POP POP SWAP3 POP SWAP3 POP SWAP3 JUMP JUMPDEST PUSH32 0x4E487B7100000000000000000000000000000000000000000000000000000000 PUSH1 0x0 MSTORE PUSH1 0x22 PUSH1 0x4 MSTORE PUSH1 0x24 PUSH1 0x0 REVERT JUMPDEST PUSH1 0x0 PUSH1 0x2 DUP3 DIV SWAP1 POP PUSH1 0x1 DUP3 AND DUP1 PUSH2 0x1B02 JUMPI PUSH1 0x7F DUP3 AND SWAP2 POP JUMPDEST PUSH1 0x20 DUP3 LT DUP2 SUB PUSH2 0x1B15 JUMPI PUSH2 0x1B14 PUSH2 0x1ABB JUMP JUMPDEST JUMPDEST POP SWAP2 SWAP1 POP JUMP JUMPDEST PUSH32 0x4E487B7100000000000000000000000000000000000000000000000000000000 PUSH1 0x0 MSTORE PUSH1 0x32 PUSH1 0x4 MSTORE PUSH1 0x24 PUSH1 0x0 REVERT JUMPDEST PUSH32 0x416C726561647920766F74656400000000000000000000000000000000000000 PUSH1 0x0 DUP3 ADD MSTORE POP JUMP JUMPDEST PUSH1 0x0 PUSH2 0x1B80 PUSH1 0xD DUP4 PUSH2 0x15EE JUMP JUMPDEST SWAP2 POP PUSH2 0x1B8B DUP3 PUSH2 0x1B4A JUMP JUMPDEST PUSH1 0x20 DUP3 ADD SWAP1 POP SWAP2 SWAP1 POP JUMP JUMPDEST PUSH1 0x0 PUSH1 0x20 DUP3 ADD SWAP1 POP DUP2 DUP2 SUB PUSH1 0x0 DUP4 ADD MSTORE PUSH2 0x1BAF DUP2 PUSH2 0x1B73 JUMP JUMPDEST SWAP1 POP SWAP2 SWAP1 POP JUMP JUMPDEST PUSH32 0x506F6C6C20697320636C6F736564000000000000000000000000000000000000 PUSH1 0x0 DUP3 ADD MSTORE POP JUMP JUMPDEST PUSH1 0x0 PUSH2 0x1BEC PUSH1 0xE DUP4 PUSH2 0x15EE JUMP JUMPDEST SWAP2 POP PUSH2 0x1BF7 DUP3 PUSH2 0x1BB6 JUMP JUMPDEST PUSH1 0x20 DUP3 ADD SWAP1 POP SWAP2 SWAP1 POP JUMP JUMPDEST PUSH1 0x0 PUSH1 0x20 DUP3 ADD SWAP1 POP DUP2 DUP2 SUB PUSH1 0x0 DUP4 ADD MSTORE PUSH2 0x1C1B DUP2 PUSH2 0x1BDF JUMP JUMPDEST SWAP1 POP SWAP2 SWAP1 POP JUMP JUMPDEST PUSH32 0x506F6C6C206973206E6F74206163746976650000000000000000000000000000 PUSH1 0x0 DUP3 ADD MSTORE POP JUMP JUMPDEST PUSH1 0x0 PUSH2 0x1C58 PUSH1 0x12 DUP4 PUSH2 0x15EE JUMP JUMPDEST SWAP2 POP PUSH2 0x1C63 DUP3 PUSH2 0x1C22 JUMP JUMPDEST PUSH1 0x20 DUP3 ADD SWAP1 POP SWAP2 SWAP1 POP JUMP JUMPDEST PUSH1 0x0 PUSH1 0x20 DUP3 ADD SWAP1 POP DUP2 DUP2 SUB PUSH1 0x0 DUP4 ADD MSTORE PUSH2 0x1C87 DUP2 PUSH2 0x1C4B JUMP JUMPDEST SWAP1 POP SWAP2 SWAP1 POP JUMP JUMPDEST PUSH32 0x496E76616C69642063686F696365000000000000000000000000000000000000 PUSH1 0x0 DUP3 ADD MSTORE POP JUMP JUMPDEST PUSH1 0x0 PUSH2 0x1CC4 PUSH1 0xE DUP4 PUSH2 0x15EE JUMP JUMPDEST SWAP2 POP PUSH2 0x1CCF DUP3 PUSH2 0x1C8E JUMP JUMPDEST PUSH1 0x20 DUP3 ADD SWAP1 POP SWAP2 SWAP1 POP JUMP JUMPDEST PUSH1 0x0 PUSH1 0x20 DUP3 ADD SWAP1 POP DUP2 DUP2 SUB PUSH1 0x0 DUP4 ADD MSTORE PUSH2 0x1CF3 DUP2 PUSH2 0x1CB7 JUMP JUMPDEST SWAP1 POP SWAP2 SWAP1 POP JUMP JUMPDEST PUSH32 0x4E487B7100000000000000000000000000000000000000000000000000000000 PUSH1 0x0 MSTORE PUSH1 0x11 PUSH1 0x4 MSTORE PUSH1 0x24 PUSH1 0x0 REVERT JUMPDEST PUSH1 0x0 PUSH2 0x1D34 DUP3 PUSH2 0x1478 JUMP JUMPDEST SWAP2 POP PUSH32 0xFFFFFFFFFFFFFFFFFFFFFFFFFFFFFFFFFFFFFFFFFFFFFFFFFFFFFFFFFFFFFFFF DUP3 SUB PUSH2 0x1D66 JUMPI PUSH2 0x1D65 PUSH2 0x1CFA JUMP JUMPDEST JUMPDEST PUSH1 0x1 DUP3 ADD SWAP1 POP SWAP2 SWAP1 POP JUMP JUMPDEST PUSH32 0x506F6C6C20686173206E6F742073746172746564207965742C20796F75206361 PUSH1 0x0 DUP3 ADD MSTORE PUSH32 0x6E6E6F7420626574206F6E206974000000000000000000000000000000000000 PUSH1 0x20 DUP3 ADD MSTORE POP JUMP JUMPDEST PUSH1 0x0 PUSH2 0x1DCD PUSH1 0x2E DUP4 PUSH2 0x15EE JUMP JUMPDEST SWAP2 POP PUSH2 0x1DD8 DUP3 PUSH2 0x1D71 JUMP JUMPDEST PUSH1 0x40 DUP3 ADD SWAP1 POP SWAP2 SWAP1 POP JUMP JUMPDEST PUSH1 0x0 PUSH1 0x20 DUP3 ADD SWAP1 POP DUP2 DUP2 SUB PUSH1 0x0 DUP4 ADD MSTORE PUSH2 0x1DFC DUP2 PUSH2 0x1DC0 JUMP JUMPDEST SWAP1 POP SWAP2 SWAP1 POP JUMP JUMPDEST PUSH32 0x506F6C6C2068617320656E6465642C20796F752063616E6E6F7420626574206F PUSH1 0x0 DUP3 ADD MSTORE PUSH32 0x6E20697420616E796D6F72650000000000000000000000000000000000000000 PUSH1 0x20 DUP3 ADD MSTORE POP JUMP JUMPDEST PUSH1 0x0 PUSH2 0x1E5F PUSH1 0x2C DUP4 PUSH2 0x15EE JUMP JUMPDEST SWAP2 POP PUSH2 0x1E6A DUP3 PUSH2 0x1E03 JUMP JUMPDEST PUSH1 0x40 DUP3 ADD SWAP1 POP SWAP2 SWAP1 POP JUMP JUMPDEST PUSH1 0x0 PUSH1 0x20 DUP3 ADD SWAP1 POP DUP2 DUP2 SUB PUSH1 0x0 DUP4 ADD MSTORE PUSH2 0x1E8E DUP2 PUSH2 0x1E52 JUMP JUMPDEST SWAP1 POP SWAP2 SWAP1 POP JUMP JUMPDEST PUSH32 0x416D6F756E74206D7573742062652067726561746572207468616E2030210000 PUSH1 0x0 DUP3 ADD MSTORE POP JUMP JUMPDEST PUSH1 0x0 PUSH2 0x1ECB PUSH1 0x1E DUP4 PUSH2 0x15EE JUMP JUMPDEST SWAP2 POP PUSH2 0x1ED6 DUP3 PUSH2 0x1E95 JUMP JUMPDEST PUSH1 0x20 DUP3 ADD SWAP1 POP SWAP2 SWAP1 POP JUMP JUMPDEST PUSH1 0x0 PUSH1 0x20 DUP3 ADD SWAP1 POP DUP2 DUP2 SUB PUSH1 0x0 DUP4 ADD MSTORE PUSH2 0x1EFA DUP2 PUSH2 0x1EBE JUMP JUMPDEST SWAP1 POP SWAP2 SWAP1 POP JUMP JUMPDEST PUSH1 0x0 DUP2 SWAP1 POP SWAP3 SWAP2 POP POP JUMP JUMPDEST PUSH1 0x0 DUP2 SWAP1 POP DUP2 PUSH1 0x0 MSTORE PUSH1 0x20 PUSH1 0x0 KECCAK256 SWAP1 POP SWAP2 SWAP1 POP JUMP JUMPDEST PUSH1 0x0 DUP2 SLOAD PUSH2 0x1F2E DUP2 PUSH2 0x1AEA JUMP JUMPDEST PUSH2 0x1F38 DUP2 DUP7 PUSH2 0x1F01 JUMP JUMPDEST SWAP5 POP PUSH1 0x1 DUP3 AND PUSH1 0x0 DUP2 EQ PUSH2 0x1F53 JUMPI PUSH1 0x1 DUP2 EQ PUSH2 0x1F68 JUMPI PUSH2 0x1F9B JUMP JUMPDEST PUSH1 0xFF NOT DUP4 AND DUP7 MSTORE DUP2 ISZERO ISZERO DUP3 MUL DUP7 ADD SWAP4 POP PUSH2 0x1F9B JUMP JUMPDEST PUSH2 0x1F71 DUP6 PUSH2 0x1F0C JUMP JUMPDEST PUSH1 0x0 JUMPDEST DUP4 DUP2 LT ISZERO PUSH2 0x1F93 JUMPI DUP2 SLOAD DUP2 DUP10 ADD MSTORE PUSH1 0x1 DUP3 ADD SWAP2 POP PUSH1 0x20 DUP2 ADD SWAP1 POP PUSH2 0x1F74 JUMP JUMPDEST DUP4 DUP9 ADD SWAP6 POP POP POP JUMPDEST POP POP POP SWAP3 SWAP2 POP POP JUMP JUMPDEST PUSH1 0x0 PUSH2 0x1FB0 DUP3 DUP5 PUSH2 0x1F21 JUMP JUMPDEST SWAP2 POP DUP2 SWAP1 POP SWAP3 SWAP2 POP POP JUMP JUMPDEST PUSH32 0x496E76616C696420706F6C6C2063686F6963652C20706C656173652073656C65 PUSH1 0x0 DUP3 ADD MSTORE PUSH32 0x6374206F6E65206F662074686520706F6C6C2063686F6963657320746F206265 PUSH1 0x20 DUP3 ADD MSTORE PUSH32 0x74206F6E00000000000000000000000000000000000000000000000000000000 PUSH1 0x40 DUP3 ADD MSTORE POP JUMP JUMPDEST PUSH1 0x0 PUSH2 0x203D PUSH1 0x44 DUP4 PUSH2 0x15EE JUMP JUMPDEST SWAP2 POP PUSH2 0x2048 DUP3 PUSH2 0x1FBB JUMP JUMPDEST PUSH1 0x60 DUP3 ADD SWAP1 POP SWAP2 SWAP1 POP JUMP JUMPDEST PUSH1 0x0 PUSH1 0x20 DUP3 ADD SWAP1 POP DUP2 DUP2 SUB PUSH1 0x0 DUP4 ADD MSTORE PUSH2 0x206C DUP2 PUSH2 0x2030 JUMP JUMPDEST SWAP1 POP SWAP2 SWAP1 POP JUMP JUMPDEST PUSH1 0x0 PUSH2 0x207E DUP3 PUSH2 0x1478 JUMP JUMPDEST SWAP2 POP PUSH2 0x2089 DUP4 PUSH2 0x1478 JUMP JUMPDEST SWAP3 POP DUP3 DUP3 ADD SWAP1 POP DUP1 DUP3 GT ISZERO PUSH2 0x20A1 JUMPI PUSH2 0x20A0 PUSH2 0x1CFA JUMP JUMPDEST JUMPDEST SWAP3 SWAP2 POP POP JUMP JUMPDEST PUSH1 0x0 DUP2 SWAP1 POP DUP2 PUSH1 0x0 MSTORE PUSH1 0x20 PUSH1 0x0 KECCAK256 SWAP1 POP SWAP2 SWAP1 POP JUMP JUMPDEST PUSH1 0x0 PUSH1 0x20 PUSH1 0x1F DUP4 ADD DIV SWAP1 POP SWAP2 SWAP1 POP JUMP JUMPDEST PUSH1 0x0 DUP3 DUP3 SHL SWAP1 POP SWAP3 SWAP2 POP POP JUMP JUMPDEST PUSH1 0x0 PUSH1 0x8 DUP4 MUL PUSH2 0x2109 PUSH32 0xFFFFFFFFFFFFFFFFFFFFFFFFFFFFFFFFFFFFFFFFFFFFFFFFFFFFFFFFFFFFFFFF DUP3 PUSH2 0x20CC JUMP JUMPDEST PUSH2 0x2113 DUP7 DUP4 PUSH2 0x20CC JUMP JUMPDEST SWAP6 POP DUP1 NOT DUP5 AND SWAP4 POP DUP1 DUP7 AND DUP5 OR SWAP3 POP POP POP SWAP4 SWAP3 POP POP POP JUMP JUMPDEST PUSH1 0x0 DUP2 SWAP1 POP SWAP2 SWAP1 POP JUMP JUMPDEST PUSH1 0x0 PUSH2 0x2150 PUSH2 0x214B PUSH2 0x2146 DUP5 PUSH2 0x1478 JUMP JUMPDEST PUSH2 0x212B JUMP JUMPDEST PUSH2 0x1478 JUMP JUMPDEST SWAP1 POP SWAP2 SWAP1 POP JUMP JUMPDEST PUSH1 0x0 DUP2 SWAP1 POP SWAP2 SWAP1 POP JUMP JUMPDEST PUSH2 0x216A DUP4 PUSH2 0x2135 JUMP JUMPDEST PUSH2 0x217E PUSH2 0x2176 DUP3 PUSH2 0x2157 JUMP JUMPDEST DUP5 DUP5 SLOAD PUSH2 0x20D9 JUMP JUMPDEST DUP3 SSTORE POP POP POP POP JUMP JUMPDEST PUSH1 0x0 SWAP1 JUMP JUMPDEST PUSH2 0x2193 PUSH2 0x2186 JUMP JUMPDEST PUSH2 0x219E DUP2 DUP5 DUP5 PUSH2 0x2161 JUMP JUMPDEST POP POP POP JUMP JUMPDEST JUMPDEST DUP2 DUP2 LT ISZERO PUSH2 0x21C2 JUMPI PUSH2 0x21B7 PUSH1 0x0 DUP3 PUSH2 0x218B JUMP JUMPDEST PUSH1 0x1 DUP2 ADD SWAP1 POP PUSH2 0x21A4 JUMP JUMPDEST POP POP JUMP JUMPDEST PUSH1 0x1F DUP3 GT ISZERO PUSH2 0x2207 JUMPI PUSH2 0x21D8 DUP2 PUSH2 0x20A7 JUMP JUMPDEST PUSH2 0x21E1 DUP5 PUSH2 0x20BC JUMP JUMPDEST DUP2 ADD PUSH1 0x20 DUP6 LT ISZERO PUSH2 0x21F0 JUMPI DUP2 SWAP1 POP JUMPDEST PUSH2 0x2204 PUSH2 0x21FC DUP6 PUSH2 0x20BC JUMP JUMPDEST DUP4 ADD DUP3 PUSH2 0x21A3 JUMP JUMPDEST POP POP JUMPDEST POP POP POP JUMP JUMPDEST PUSH1 0x0 DUP3 DUP3 SHR SWAP1 POP SWAP3 SWAP2 POP POP JUMP JUMPDEST PUSH1 0x0 PUSH2 0x222A PUSH1 0x0 NOT DUP5 PUSH1 0x8 MUL PUSH2 0x220C JUMP JUMPDEST NOT DUP1 DUP4 AND SWAP2 POP POP SWAP3 SWAP2 POP POP JUMP JUMPDEST PUSH1 0x0 PUSH2 0x2243 DUP4 DUP4 PUSH2 0x2219 JUMP JUMPDEST SWAP2 POP DUP3 PUSH1 0x2 MUL DUP3 OR SWAP1 POP SWAP3 SWAP2 POP POP JUMP JUMPDEST PUSH2 0x225C DUP3 PUSH2 0x15E3 JUMP JUMPDEST PUSH8 0xFFFFFFFFFFFFFFFF DUP2 GT ISZERO PUSH2 0x2275 JUMPI PUSH2 0x2274 PUSH2 0x1836 JUMP JUMPDEST JUMPDEST PUSH2 0x227F DUP3 SLOAD PUSH2 0x1AEA JUMP JUMPDEST PUSH2 0x228A DUP3 DUP3 DUP6 PUSH2 0x21C6 JUMP JUMPDEST PUSH1 0x0 PUSH1 0x20 SWAP1 POP PUSH1 0x1F DUP4 GT PUSH1 0x1 DUP2 EQ PUSH2 0x22BD JUMPI PUSH1 0x0 DUP5 ISZERO PUSH2 0x22AB JUMPI DUP3 DUP8 ADD MLOAD SWAP1 POP JUMPDEST PUSH2 0x22B5 DUP6 DUP3 PUSH2 0x2237 JUMP JUMPDEST DUP7 SSTORE POP PUSH2 0x231D JUMP JUMPDEST PUSH1 0x1F NOT DUP5 AND PUSH2 0x22CB DUP7 PUSH2 0x20A7 JUMP JUMPDEST PUSH1 0x0 JUMPDEST DUP3 DUP2 LT ISZERO PUSH2 0x22F3 JUMPI DUP5 DUP10 ADD MLOAD DUP3 SSTORE PUSH1 0x1 DUP3 ADD SWAP2 POP PUSH1 0x20 DUP6 ADD SWAP5 POP PUSH1 0x20 DUP2 ADD SWAP1 POP PUSH2 0x22CE JUMP JUMPDEST DUP7 DUP4 LT ISZERO PUSH2 0x2310 JUMPI DUP5 DUP10 ADD MLOAD PUSH2 0x230C PUSH1 0x1F DUP10 AND DUP3 PUSH2 0x2219 JUMP JUMPDEST DUP4 SSTORE POP JUMPDEST PUSH1 0x1 PUSH1 0x2 DUP9 MUL ADD DUP9 SSTORE POP POP POP JUMPDEST POP POP POP POP POP POP JUMP JUMPDEST PUSH1 0x0 PUSH1 0x40 DUP3 ADD SWAP1 POP DUP2 DUP2 SUB PUSH1 0x0 DUP4 ADD MSTORE PUSH2 0x233F DUP2 DUP6 PUSH2 0x163A JUMP JUMPDEST SWAP1 POP PUSH2 0x234E PUSH1 0x20 DUP4 ADD DUP5 PUSH2 0x154C JUMP JUMPDEST SWAP4 SWAP3 POP POP POP JUMP JUMPDEST PUSH32 0x496E76616C696420706F6C6C20656E642074696D650000000000000000000000 PUSH1 0x0 DUP3 ADD MSTORE POP JUMP JUMPDEST PUSH1 0x0 PUSH2 0x238B PUSH1 0x15 DUP4 PUSH2 0x15EE JUMP JUMPDEST SWAP2 POP PUSH2 0x2396 DUP3 PUSH2 0x2355 JUMP JUMPDEST PUSH1 0x20 DUP3 ADD SWAP1 POP SWAP2 SWAP1 POP JUMP JUMPDEST PUSH1 0x0 PUSH1 0x20 DUP3 ADD SWAP1 POP DUP2 DUP2 SUB PUSH1 0x0 DUP4 ADD MSTORE PUSH2 0x23BA DUP2 PUSH2 0x237E JUMP JUMPDEST SWAP1 POP SWAP2 SWAP1 POP JUMP JUMPDEST PUSH32 0x4174206C656173742074776F206F7074696F6E73207265717569726564000000 PUSH1 0x0 DUP3 ADD MSTORE POP JUMP JUMPDEST PUSH1 0x0 PUSH2 0x23F7 PUSH1 0x1D DUP4 PUSH2 0x15EE JUMP JUMPDEST SWAP2 POP PUSH2 0x2402 DUP3 PUSH2 0x23C1 JUMP JUMPDEST PUSH1 0x20 DUP3 ADD SWAP1 POP SWAP2 SWAP1 POP JUMP JUMPDEST PUSH1 0x0 PUSH1 0x20 DUP3 ADD SWAP1 POP DUP2 DUP2 SUB PUSH1 0x0 DUP4 ADD MSTORE PUSH2 0x2426 DUP2 PUSH2 0x23EA JUMP JUMPDEST SWAP1 POP SWAP2 SWAP1 POP JUMP JUMPDEST PUSH1 0x0 DUP2 MLOAD SWAP1 POP SWAP2 SWAP1 POP JUMP JUMPDEST PUSH1 0x0 DUP3 DUP3 MSTORE PUSH1 0x20 DUP3 ADD SWAP1 POP SWAP3 SWAP2 POP POP JUMP JUMPDEST PUSH1 0x0 DUP2 SWAP1 POP PUSH1 0x20 DUP3 ADD SWAP1 POP SWAP2 SWAP1 POP JUMP JUMPDEST PUSH1 0x0 DUP3 DUP3 MSTORE PUSH1 0x20 DUP3 ADD SWAP1 POP SWAP3 SWAP2 POP POP JUMP JUMPDEST PUSH1 0x0 PUSH2 0x2475 DUP3 PUSH2 0x15E3 JUMP JUMPDEST PUSH2 0x247F DUP2 DUP6 PUSH2 0x2459 JUMP JUMPDEST SWAP4 POP PUSH2 0x248F DUP2 DUP6 PUSH1 0x20 DUP7 ADD PUSH2 0x15FF JUMP JUMPDEST PUSH2 0x2498 DUP2 PUSH2 0x1629 JUMP JUMPDEST DUP5 ADD SWAP2 POP POP SWAP3 SWAP2 POP POP JUMP JUMPDEST PUSH1 0x0 PUSH2 0x24AF DUP4 DUP4 PUSH2 0x246A JUMP JUMPDEST SWAP1 POP SWAP3 SWAP2 POP POP JUMP JUMPDEST PUSH1 0x0 PUSH1 0x20 DUP3 ADD SWAP1 POP SWAP2 SWAP1 POP JUMP JUMPDEST PUSH1 0x0 PUSH2 0x24CF DUP3 PUSH2 0x242D JUMP JUMPDEST PUSH2 0x24D9 DUP2 DUP6 PUSH2 0x2438 JUMP JUMPDEST SWAP4 POP DUP4 PUSH1 0x20 DUP3 MUL DUP6 ADD PUSH2 0x24EB DUP6 PUSH2 0x2449 JUMP JUMPDEST DUP1 PUSH1 0x0 JUMPDEST DUP6 DUP2 LT ISZERO PUSH2 0x2527 JUMPI DUP5 DUP5 SUB DUP10 MSTORE DUP2 MLOAD PUSH2 0x2508 DUP6 DUP3 PUSH2 0x24A3 JUMP JUMPDEST SWAP5 POP PUSH2 0x2513 DUP4 PUSH2 0x24B7 JUMP JUMPDEST SWAP3 POP PUSH1 0x20 DUP11 ADD SWAP10 POP POP PUSH1 0x1 DUP2 ADD SWAP1 POP PUSH2 0x24EF JUMP JUMPDEST POP DUP3 SWAP8 POP DUP8 SWAP6 POP POP POP POP POP POP SWAP3 SWAP2 POP POP JUMP JUMPDEST PUSH1 0x0 PUSH1 0x60 DUP3 ADD SWAP1 POP PUSH2 0x254E PUSH1 0x0 DUP4 ADD DUP7 PUSH2 0x154C JUMP JUMPDEST PUSH2 0x255B PUSH1 0x20 DUP4 ADD DUP6 PUSH2 0x154C JUMP JUMPDEST DUP2 DUP2 SUB PUSH1 0x40 DUP4 ADD MSTORE PUSH2 0x256D DUP2 DUP5 PUSH2 0x24C4 JUMP JUMPDEST SWAP1 POP SWAP5 SWAP4 POP POP POP POP JUMP JUMPDEST PUSH1 0x0 PUSH1 0xFF DUP3 AND SWAP1 POP SWAP2 SWAP1 POP JUMP JUMPDEST PUSH1 0x0 PUSH2 0x258F DUP3 PUSH2 0x2577 JUMP JUMPDEST SWAP2 POP PUSH1 0xFF DUP3 SUB PUSH2 0x25A2 JUMPI PUSH2 0x25A1 PUSH2 0x1CFA JUMP JUMPDEST JUMPDEST PUSH1 0x1 DUP3 ADD SWAP1 POP SWAP2 SWAP1 POP JUMP INVALID LOG2 PUSH5 0x6970667358 0x22 SLT KECCAK256 0xBD 0xB2 BLOCKHASH 0xC3 PUSH31 0xBA1FA4E9B5DA7E63640AE934F480319C9152FD73264E53313F623364736F6C PUSH4 0x43000812 STOP CALLER "
				},
				"gasEstimates": {
					"creation": {
						"codeDepositCost": "1939800",
						"executionCost": "2055",
						"totalCost": "1941855"
					},
					"external": {
						"balances(address)": "2860",
						"betCount()": "2473",
						"betOnPoll(uint256,bytes32)": "infinite",
						"closePoll()": "254",
						"createPoll(uint256,uint256,string[])": "infinite",
						"distributeRewards()": "233",
						"getBetCount(uint256)": "infinite",
						"getOdds(uint256,uint256)": "infinite",
						"getPollVotersCount(uint256)": "infinite",
						"hasVoted(uint256,address)": "3177",
						"pollBetTotal(uint256)": "infinite",
						"pollBets(uint256,address)": "infinite",
						"pollBetsList(uint256,uint256)": "infinite",
						"pollCount()": "2474",
						"pollWinners(uint256,uint256)": "infinite",
						"polls(uint256)": "infinite",
						"voteOnPoll(uint256,uint256)": "infinite",
						"voters(uint256,address)": "infinite"
					},
					"internal": {
						"addVoterAddressSet(uint256,address)": "infinite",
						"bytes32ToString(bytes32)": "infinite"
					}
				},
				"methodIdentifiers": {
					"balances(address)": "27e235e3",
					"betCount()": "cf094497",
					"betOnPoll(uint256,bytes32)": "9b85e14f",
					"closePoll()": "ed8c2aed",
					"createPoll(uint256,uint256,string[])": "d624d6fd",
					"distributeRewards()": "6f4a2cd0",
					"getBetCount(uint256)": "6b7128ec",
					"getOdds(uint256,uint256)": "e3eed5c9",
					"getPollVotersCount(uint256)": "8761ad0c",
					"hasVoted(uint256,address)": "43859632",
					"pollBetTotal(uint256)": "46f86716",
					"pollBets(uint256,address)": "06455f5e",
					"pollBetsList(uint256,uint256)": "420700f6",
					"pollCount()": "9207891d",
					"pollWinners(uint256,uint256)": "91cbfb41",
					"polls(uint256)": "ac2f0074",
					"voteOnPoll(uint256,uint256)": "4c3c234f",
					"voters(uint256,address)": "9e319063"
				}
			},
			"storageLayout": {
				"storage": [
					{
						"astId": 699,
						"contract": "contracts/PollBetContract.sol:PollBetContract",
						"label": "pollCount",
						"offset": 0,
						"slot": "0",
						"type": "t_uint256"
					},
					{
						"astId": 701,
						"contract": "contracts/PollBetContract.sol:PollBetContract",
						"label": "betCount",
						"offset": 0,
						"slot": "1",
						"type": "t_uint256"
					},
					{
						"astId": 705,
						"contract": "contracts/PollBetContract.sol:PollBetContract",
						"label": "pollBetTotal",
						"offset": 0,
						"slot": "2",
						"type": "t_mapping(t_uint256,t_uint256)"
					},
					{
						"astId": 711,
						"contract": "contracts/PollBetContract.sol:PollBetContract",
						"label": "pollBets",
						"offset": 0,
						"slot": "3",
						"type": "t_mapping(t_uint256,t_mapping(t_address,t_uint256))"
					},
					{
						"astId": 716,
						"contract": "contracts/PollBetContract.sol:PollBetContract",
						"label": "pollWinners",
						"offset": 0,
						"slot": "4",
						"type": "t_mapping(t_uint256,t_array(t_uint256)dyn_storage)"
					},
					{
						"astId": 720,
						"contract": "contracts/PollBetContract.sol:PollBetContract",
						"label": "balances",
						"offset": 0,
						"slot": "5",
						"type": "t_mapping(t_address,t_uint256)"
					},
					{
						"astId": 726,
						"contract": "contracts/PollBetContract.sol:PollBetContract",
						"label": "pollBetsList",
						"offset": 0,
						"slot": "6",
						"type": "t_mapping(t_uint256,t_array(t_struct(Bet)650_storage)dyn_storage)"
					},
					{
						"astId": 732,
						"contract": "contracts/PollBetContract.sol:PollBetContract",
						"label": "hasVoted",
						"offset": 0,
						"slot": "7",
						"type": "t_mapping(t_uint256,t_mapping(t_address,t_bool))"
					},
					{
						"astId": 739,
						"contract": "contracts/PollBetContract.sol:PollBetContract",
						"label": "voters",
						"offset": 0,
						"slot": "8",
						"type": "t_mapping(t_uint256,t_mapping(t_address,t_struct(Voter)641_storage))"
					},
					{
						"astId": 744,
						"contract": "contracts/PollBetContract.sol:PollBetContract",
						"label": "voterAddressSets",
						"offset": 0,
						"slot": "9",
						"type": "t_mapping(t_uint256,t_struct(AddressSet)325_storage)"
					},
					{
						"astId": 748,
						"contract": "contracts/PollBetContract.sol:PollBetContract",
						"label": "polls",
						"offset": 0,
						"slot": "10",
						"type": "t_array(t_struct(Poll)634_storage)dyn_storage"
					}
				],
				"types": {
					"t_address": {
						"encoding": "inplace",
						"label": "address",
						"numberOfBytes": "20"
					},
					"t_array(t_bytes32)dyn_storage": {
						"base": "t_bytes32",
						"encoding": "dynamic_array",
						"label": "bytes32[]",
						"numberOfBytes": "32"
					},
					"t_array(t_string_storage)dyn_storage": {
						"base": "t_string_storage",
						"encoding": "dynamic_array",
						"label": "string[]",
						"numberOfBytes": "32"
					},
					"t_array(t_struct(Bet)650_storage)dyn_storage": {
						"base": "t_struct(Bet)650_storage",
						"encoding": "dynamic_array",
						"label": "struct PollBetContract.Bet[]",
						"numberOfBytes": "32"
					},
					"t_array(t_struct(Poll)634_storage)dyn_storage": {
						"base": "t_struct(Poll)634_storage",
						"encoding": "dynamic_array",
						"label": "struct PollBetContract.Poll[]",
						"numberOfBytes": "32"
					},
					"t_array(t_uint256)dyn_storage": {
						"base": "t_uint256",
						"encoding": "dynamic_array",
						"label": "uint256[]",
						"numberOfBytes": "32"
					},
					"t_bool": {
						"encoding": "inplace",
						"label": "bool",
						"numberOfBytes": "1"
					},
					"t_bytes32": {
						"encoding": "inplace",
						"label": "bytes32",
						"numberOfBytes": "32"
					},
					"t_mapping(t_address,t_bool)": {
						"encoding": "mapping",
						"key": "t_address",
						"label": "mapping(address => bool)",
						"numberOfBytes": "32",
						"value": "t_bool"
					},
					"t_mapping(t_address,t_struct(Voter)641_storage)": {
						"encoding": "mapping",
						"key": "t_address",
						"label": "mapping(address => struct PollBetContract.Voter)",
						"numberOfBytes": "32",
						"value": "t_struct(Voter)641_storage"
					},
					"t_mapping(t_address,t_uint256)": {
						"encoding": "mapping",
						"key": "t_address",
						"label": "mapping(address => uint256)",
						"numberOfBytes": "32",
						"value": "t_uint256"
					},
					"t_mapping(t_bytes32,t_uint256)": {
						"encoding": "mapping",
						"key": "t_bytes32",
						"label": "mapping(bytes32 => uint256)",
						"numberOfBytes": "32",
						"value": "t_uint256"
					},
					"t_mapping(t_uint256,t_array(t_struct(Bet)650_storage)dyn_storage)": {
						"encoding": "mapping",
						"key": "t_uint256",
						"label": "mapping(uint256 => struct PollBetContract.Bet[])",
						"numberOfBytes": "32",
						"value": "t_array(t_struct(Bet)650_storage)dyn_storage"
					},
					"t_mapping(t_uint256,t_array(t_uint256)dyn_storage)": {
						"encoding": "mapping",
						"key": "t_uint256",
						"label": "mapping(uint256 => uint256[])",
						"numberOfBytes": "32",
						"value": "t_array(t_uint256)dyn_storage"
					},
					"t_mapping(t_uint256,t_mapping(t_address,t_bool))": {
						"encoding": "mapping",
						"key": "t_uint256",
						"label": "mapping(uint256 => mapping(address => bool))",
						"numberOfBytes": "32",
						"value": "t_mapping(t_address,t_bool)"
					},
					"t_mapping(t_uint256,t_mapping(t_address,t_struct(Voter)641_storage))": {
						"encoding": "mapping",
						"key": "t_uint256",
						"label": "mapping(uint256 => mapping(address => struct PollBetContract.Voter))",
						"numberOfBytes": "32",
						"value": "t_mapping(t_address,t_struct(Voter)641_storage)"
					},
					"t_mapping(t_uint256,t_mapping(t_address,t_uint256))": {
						"encoding": "mapping",
						"key": "t_uint256",
						"label": "mapping(uint256 => mapping(address => uint256))",
						"numberOfBytes": "32",
						"value": "t_mapping(t_address,t_uint256)"
					},
					"t_mapping(t_uint256,t_struct(AddressSet)325_storage)": {
						"encoding": "mapping",
						"key": "t_uint256",
						"label": "mapping(uint256 => struct EnumerableSet.AddressSet)",
						"numberOfBytes": "32",
						"value": "t_struct(AddressSet)325_storage"
					},
					"t_mapping(t_uint256,t_uint256)": {
						"encoding": "mapping",
						"key": "t_uint256",
						"label": "mapping(uint256 => uint256)",
						"numberOfBytes": "32",
						"value": "t_uint256"
					},
					"t_string_storage": {
						"encoding": "bytes",
						"label": "string",
						"numberOfBytes": "32"
					},
					"t_struct(AddressSet)325_storage": {
						"encoding": "inplace",
						"label": "struct EnumerableSet.AddressSet",
						"members": [
							{
								"astId": 324,
								"contract": "contracts/PollBetContract.sol:PollBetContract",
								"label": "_inner",
								"offset": 0,
								"slot": "0",
								"type": "t_struct(Set)10_storage"
							}
						],
						"numberOfBytes": "64"
					},
					"t_struct(Bet)650_storage": {
						"encoding": "inplace",
						"label": "struct PollBetContract.Bet",
						"members": [
							{
								"astId": 643,
								"contract": "contracts/PollBetContract.sol:PollBetContract",
								"label": "pollId",
								"offset": 0,
								"slot": "0",
								"type": "t_uint256"
							},
							{
								"astId": 645,
								"contract": "contracts/PollBetContract.sol:PollBetContract",
								"label": "pollChoice",
								"offset": 0,
								"slot": "1",
								"type": "t_string_storage"
							},
							{
								"astId": 647,
								"contract": "contracts/PollBetContract.sol:PollBetContract",
								"label": "user",
								"offset": 0,
								"slot": "2",
								"type": "t_address"
							},
							{
								"astId": 649,
								"contract": "contracts/PollBetContract.sol:PollBetContract",
								"label": "amount",
								"offset": 0,
								"slot": "3",
								"type": "t_uint256"
							}
						],
						"numberOfBytes": "128"
					},
					"t_struct(Poll)634_storage": {
						"encoding": "inplace",
						"label": "struct PollBetContract.Poll",
						"members": [
							{
								"astId": 622,
								"contract": "contracts/PollBetContract.sol:PollBetContract",
								"label": "id",
								"offset": 0,
								"slot": "0",
								"type": "t_uint256"
							},
							{
								"astId": 624,
								"contract": "contracts/PollBetContract.sol:PollBetContract",
								"label": "creator",
								"offset": 0,
								"slot": "1",
								"type": "t_address"
							},
							{
								"astId": 626,
								"contract": "contracts/PollBetContract.sol:PollBetContract",
								"label": "startTime",
								"offset": 0,
								"slot": "2",
								"type": "t_uint256"
							},
							{
								"astId": 628,
								"contract": "contracts/PollBetContract.sol:PollBetContract",
								"label": "endTime",
								"offset": 0,
								"slot": "3",
								"type": "t_uint256"
							},
							{
								"astId": 631,
								"contract": "contracts/PollBetContract.sol:PollBetContract",
								"label": "choices",
								"offset": 0,
								"slot": "4",
								"type": "t_array(t_string_storage)dyn_storage"
							},
							{
								"astId": 633,
								"contract": "contracts/PollBetContract.sol:PollBetContract",
								"label": "isOpen",
								"offset": 0,
								"slot": "5",
								"type": "t_bool"
							}
						],
						"numberOfBytes": "192"
					},
					"t_struct(Set)10_storage": {
						"encoding": "inplace",
						"label": "struct EnumerableSet.Set",
						"members": [
							{
								"astId": 5,
								"contract": "contracts/PollBetContract.sol:PollBetContract",
								"label": "_values",
								"offset": 0,
								"slot": "0",
								"type": "t_array(t_bytes32)dyn_storage"
							},
							{
								"astId": 9,
								"contract": "contracts/PollBetContract.sol:PollBetContract",
								"label": "_indexes",
								"offset": 0,
								"slot": "1",
								"type": "t_mapping(t_bytes32,t_uint256)"
							}
						],
						"numberOfBytes": "64"
					},
					"t_struct(Voter)641_storage": {
						"encoding": "inplace",
						"label": "struct PollBetContract.Voter",
						"members": [
							{
								"astId": 636,
								"contract": "contracts/PollBetContract.sol:PollBetContract",
								"label": "pollId",
								"offset": 0,
								"slot": "0",
								"type": "t_uint256"
							},
							{
								"astId": 638,
								"contract": "contracts/PollBetContract.sol:PollBetContract",
								"label": "voterAddress",
								"offset": 0,
								"slot": "1",
								"type": "t_address"
							},
							{
								"astId": 640,
								"contract": "contracts/PollBetContract.sol:PollBetContract",
								"label": "choice",
								"offset": 0,
								"slot": "2",
								"type": "t_uint256"
							}
						],
						"numberOfBytes": "96"
					},
					"t_uint256": {
						"encoding": "inplace",
						"label": "uint256",
						"numberOfBytes": "32"
					}
				}
			},
			"userdoc": {
				"kind": "user",
				"methods": {},
				"version": 1
			}
		}
	}
}