{
	"contracts/PollBetContract.sol": {
		"PollBetContract": {
			"abi": [
				{
					"anonymous": false,
					"inputs": [
						{
							"indexed": true,
							"internalType": "uint256",
							"name": "pollId",
							"type": "uint256"
						},
						{
							"indexed": false,
							"internalType": "string",
							"name": "pollChoice",
							"type": "string"
						},
						{
							"indexed": true,
							"internalType": "address",
							"name": "user",
							"type": "address"
						},
						{
							"indexed": false,
							"internalType": "uint256",
							"name": "amount",
							"type": "uint256"
						}
					],
					"name": "BetPlaced",
					"type": "event"
				},
				{
					"anonymous": false,
					"inputs": [
						{
							"indexed": false,
							"internalType": "string",
							"name": "message",
							"type": "string"
						}
					],
					"name": "Log",
					"type": "event"
				},
				{
					"anonymous": false,
					"inputs": [
						{
							"indexed": true,
							"internalType": "uint256",
							"name": "id",
							"type": "uint256"
						},
						{
							"indexed": true,
							"internalType": "address",
							"name": "winner",
							"type": "address"
						}
					],
					"name": "PollClosed",
					"type": "event"
				},
				{
					"anonymous": false,
					"inputs": [
						{
							"indexed": true,
							"internalType": "uint256",
							"name": "id",
							"type": "uint256"
						},
						{
							"indexed": true,
							"internalType": "address",
							"name": "creator",
							"type": "address"
						},
						{
							"indexed": false,
							"internalType": "uint256",
							"name": "startTime",
							"type": "uint256"
						},
						{
							"indexed": false,
							"internalType": "uint256",
							"name": "endTime",
							"type": "uint256"
						},
						{
							"indexed": false,
							"internalType": "string[]",
							"name": "options",
							"type": "string[]"
						}
					],
					"name": "PollCreated",
					"type": "event"
				},
				{
					"anonymous": false,
					"inputs": [
						{
							"indexed": true,
							"internalType": "uint256",
							"name": "pollId",
							"type": "uint256"
						},
						{
							"indexed": false,
							"internalType": "address[]",
							"name": "winners",
							"type": "address[]"
						},
						{
							"indexed": false,
							"internalType": "uint256[]",
							"name": "rewards",
							"type": "uint256[]"
						}
					],
					"name": "RewardsDistributed",
					"type": "event"
				},
				{
					"anonymous": false,
					"inputs": [
						{
							"indexed": true,
							"internalType": "uint256",
							"name": "pollId",
							"type": "uint256"
						},
						{
							"indexed": true,
							"internalType": "address",
							"name": "voter",
							"type": "address"
						},
						{
							"indexed": false,
							"internalType": "uint256",
							"name": "choice",
							"type": "uint256"
						}
					],
					"name": "VoteCasted",
					"type": "event"
				},
				{
					"inputs": [
						{
							"internalType": "address",
							"name": "",
							"type": "address"
						}
					],
					"name": "balances",
					"outputs": [
						{
							"internalType": "uint256",
							"name": "",
							"type": "uint256"
						}
					],
					"stateMutability": "view",
					"type": "function"
				},
				{
					"inputs": [],
					"name": "betCount",
					"outputs": [
						{
							"internalType": "uint256",
							"name": "",
							"type": "uint256"
						}
					],
					"stateMutability": "view",
					"type": "function"
				},
				{
					"inputs": [
						{
							"internalType": "uint256",
							"name": "_pollId",
							"type": "uint256"
						},
						{
							"internalType": "bytes32",
							"name": "_pollChoice",
							"type": "bytes32"
						}
					],
					"name": "betOnPoll",
					"outputs": [],
					"stateMutability": "payable",
					"type": "function"
				},
				{
					"inputs": [],
					"name": "closePoll",
					"outputs": [],
					"stateMutability": "nonpayable",
					"type": "function"
				},
				{
					"inputs": [
						{
							"internalType": "uint256",
							"name": "_startTime",
							"type": "uint256"
						},
						{
							"internalType": "uint256",
							"name": "_endTime",
							"type": "uint256"
						},
						{
							"internalType": "string[]",
							"name": "_options",
							"type": "string[]"
						}
					],
					"name": "createPoll",
					"outputs": [],
					"stateMutability": "nonpayable",
					"type": "function"
				},
				{
					"inputs": [],
					"name": "distributeRewards",
					"outputs": [],
					"stateMutability": "nonpayable",
					"type": "function"
				},
				{
					"inputs": [
						{
							"internalType": "uint256",
							"name": "_pollId",
							"type": "uint256"
						}
					],
					"name": "getBetCount",
					"outputs": [
						{
							"internalType": "uint256",
							"name": "",
							"type": "uint256"
						}
					],
					"stateMutability": "view",
					"type": "function"
				},
				{
					"inputs": [
						{
							"internalType": "uint256",
							"name": "_pollId",
							"type": "uint256"
						},
						{
							"internalType": "string",
							"name": "_pollChoice",
							"type": "string"
						}
					],
					"name": "getOdds",
					"outputs": [
						{
							"internalType": "uint256",
							"name": "",
							"type": "uint256"
						}
					],
					"stateMutability": "view",
					"type": "function"
				},
				{
					"inputs": [
						{
							"internalType": "uint256",
							"name": "_pollId",
							"type": "uint256"
						}
					],
					"name": "getPollInfo",
					"outputs": [
						{
							"components": [
								{
									"internalType": "uint256",
									"name": "id",
									"type": "uint256"
								},
								{
									"internalType": "address",
									"name": "creator",
									"type": "address"
								},
								{
									"internalType": "uint256",
									"name": "startTime",
									"type": "uint256"
								},
								{
									"internalType": "uint256",
									"name": "endTime",
									"type": "uint256"
								},
								{
									"internalType": "string[]",
									"name": "choices",
									"type": "string[]"
								},
								{
									"internalType": "uint256[]",
									"name": "choiceCounts",
									"type": "uint256[]"
								},
								{
									"internalType": "bool",
									"name": "isOpen",
									"type": "bool"
								}
							],
							"internalType": "struct PollBetContract.Poll",
							"name": "",
							"type": "tuple"
						}
					],
					"stateMutability": "view",
					"type": "function"
				},
				{
					"inputs": [
						{
							"internalType": "uint256",
							"name": "_pollId",
							"type": "uint256"
						}
					],
					"name": "getPollVotersCount",
					"outputs": [
						{
							"internalType": "uint256",
							"name": "",
							"type": "uint256"
						}
					],
					"stateMutability": "view",
					"type": "function"
				},
				{
					"inputs": [
						{
							"internalType": "uint256",
							"name": "_pollId",
							"type": "uint256"
						}
					],
					"name": "getTotalBetAmount",
					"outputs": [
						{
							"internalType": "uint256",
							"name": "",
							"type": "uint256"
						}
					],
					"stateMutability": "view",
					"type": "function"
				},
				{
					"inputs": [
						{
							"internalType": "uint256",
							"name": "",
							"type": "uint256"
						},
						{
							"internalType": "address",
							"name": "",
							"type": "address"
						}
					],
					"name": "hasVoted",
					"outputs": [
						{
							"internalType": "bool",
							"name": "",
							"type": "bool"
						}
					],
					"stateMutability": "view",
					"type": "function"
				},
				{
					"inputs": [
						{
							"internalType": "uint256",
							"name": "",
							"type": "uint256"
						}
					],
					"name": "pollBetTotal",
					"outputs": [
						{
							"internalType": "uint256",
							"name": "",
							"type": "uint256"
						}
					],
					"stateMutability": "view",
					"type": "function"
				},
				{
					"inputs": [
						{
							"internalType": "uint256",
							"name": "",
							"type": "uint256"
						},
						{
							"internalType": "address",
							"name": "",
							"type": "address"
						}
					],
					"name": "pollBets",
					"outputs": [
						{
							"internalType": "uint256",
							"name": "",
							"type": "uint256"
						}
					],
					"stateMutability": "view",
					"type": "function"
				},
				{
					"inputs": [
						{
							"internalType": "uint256",
							"name": "",
							"type": "uint256"
						},
						{
							"internalType": "uint256",
							"name": "",
							"type": "uint256"
						}
					],
					"name": "pollBetsList",
					"outputs": [
						{
							"internalType": "uint256",
							"name": "pollId",
							"type": "uint256"
						},
						{
							"internalType": "string",
							"name": "pollChoice",
							"type": "string"
						},
						{
							"internalType": "address",
							"name": "user",
							"type": "address"
						},
						{
							"internalType": "uint256",
							"name": "amount",
							"type": "uint256"
						}
					],
					"stateMutability": "view",
					"type": "function"
				},
				{
					"inputs": [],
					"name": "pollCount",
					"outputs": [
						{
							"internalType": "uint256",
							"name": "",
							"type": "uint256"
						}
					],
					"stateMutability": "view",
					"type": "function"
				},
				{
					"inputs": [
						{
							"internalType": "uint256",
							"name": "",
							"type": "uint256"
						}
					],
					"name": "pollCounts",
					"outputs": [
						{
							"internalType": "uint256",
							"name": "",
							"type": "uint256"
						}
					],
					"stateMutability": "view",
					"type": "function"
				},
				{
					"inputs": [
						{
							"internalType": "uint256",
							"name": "",
							"type": "uint256"
						},
						{
							"internalType": "uint256",
							"name": "",
							"type": "uint256"
						}
					],
					"name": "pollWinners",
					"outputs": [
						{
							"internalType": "uint256",
							"name": "",
							"type": "uint256"
						}
					],
					"stateMutability": "view",
					"type": "function"
				},
				{
					"inputs": [
						{
							"internalType": "uint256",
							"name": "_pollId",
							"type": "uint256"
						},
						{
							"internalType": "uint256",
							"name": "_pollChoice",
							"type": "uint256"
						}
					],
					"name": "voteOnPoll",
					"outputs": [],
					"stateMutability": "nonpayable",
					"type": "function"
				},
				{
					"inputs": [
						{
							"internalType": "uint256",
							"name": "",
							"type": "uint256"
						},
						{
							"internalType": "address",
							"name": "",
							"type": "address"
						}
					],
					"name": "voters",
					"outputs": [
						{
							"internalType": "uint256",
							"name": "pollId",
							"type": "uint256"
						},
						{
							"internalType": "address",
							"name": "voterAddress",
							"type": "address"
						},
						{
							"internalType": "uint256",
							"name": "choice",
							"type": "uint256"
						}
					],
					"stateMutability": "view",
					"type": "function"
				}
			],
			"devdoc": {
				"kind": "dev",
				"methods": {},
				"version": 1
			},
			"evm": {
				"assembly": "    /* \"contracts/PollBetContract.sol\":156:7572  contract PollBetContract {... */\n  mstore(0x40, 0x80)\n  callvalue\n  dup1\n  iszero\n  tag_1\n  jumpi\n  0x00\n  dup1\n  revert\ntag_1:\n  pop\n  dataSize(sub_0)\n  dup1\n  dataOffset(sub_0)\n  0x00\n  codecopy\n  0x00\n  return\nstop\n\nsub_0: assembly {\n        /* \"contracts/PollBetContract.sol\":156:7572  contract PollBetContract {... */\n      mstore(0x40, 0x80)\n      jumpi(tag_1, lt(calldatasize, 0x04))\n      shr(0xe0, calldataload(0x00))\n      dup1\n      0x8761ad0c\n      gt\n      tag_22\n      jumpi\n      dup1\n      0xa32bde6f\n      gt\n      tag_23\n      jumpi\n      dup1\n      0xa32bde6f\n      eq\n      tag_17\n      jumpi\n      dup1\n      0xa9549f0a\n      eq\n      tag_18\n      jumpi\n      dup1\n      0xcf094497\n      eq\n      tag_19\n      jumpi\n      dup1\n      0xd624d6fd\n      eq\n      tag_20\n      jumpi\n      dup1\n      0xed8c2aed\n      eq\n      tag_21\n      jumpi\n      jump(tag_1)\n    tag_23:\n      dup1\n      0x8761ad0c\n      eq\n      tag_12\n      jumpi\n      dup1\n      0x91cbfb41\n      eq\n      tag_13\n      jumpi\n      dup1\n      0x9207891d\n      eq\n      tag_14\n      jumpi\n      dup1\n      0x9b85e14f\n      eq\n      tag_15\n      jumpi\n      dup1\n      0x9e319063\n      eq\n      tag_16\n      jumpi\n      jump(tag_1)\n    tag_22:\n      dup1\n      0x43859632\n      gt\n      tag_24\n      jumpi\n      dup1\n      0x43859632\n      eq\n      tag_7\n      jumpi\n      dup1\n      0x46f86716\n      eq\n      tag_8\n      jumpi\n      dup1\n      0x4c3c234f\n      eq\n      tag_9\n      jumpi\n      dup1\n      0x6b7128ec\n      eq\n      tag_10\n      jumpi\n      dup1\n      0x6f4a2cd0\n      eq\n      tag_11\n      jumpi\n      jump(tag_1)\n    tag_24:\n      dup1\n      0x06455f5e\n      eq\n      tag_2\n      jumpi\n      dup1\n      0x0e89da56\n      eq\n      tag_3\n      jumpi\n      dup1\n      0x27e235e3\n      eq\n      tag_4\n      jumpi\n      dup1\n      0x29b8f44a\n      eq\n      tag_5\n      jumpi\n      dup1\n      0x420700f6\n      eq\n      tag_6\n      jumpi\n    tag_1:\n      0x00\n      dup1\n      revert\n        /* \"contracts/PollBetContract.sol\":1284:1341  mapping(uint => mapping(address => uint)) public pollBets */\n    tag_2:\n      callvalue\n      dup1\n      iszero\n      tag_25\n      jumpi\n      0x00\n      dup1\n      revert\n    tag_25:\n      pop\n      tag_26\n      0x04\n      dup1\n      calldatasize\n      sub\n      dup2\n      add\n      swap1\n      tag_27\n      swap2\n      swap1\n      tag_28\n      jump\t// in\n    tag_27:\n      tag_29\n      jump\t// in\n    tag_26:\n      mload(0x40)\n      tag_30\n      swap2\n      swap1\n      tag_31\n      jump\t// in\n    tag_30:\n      mload(0x40)\n      dup1\n      swap2\n      sub\n      swap1\n      return\n        /* \"contracts/PollBetContract.sol\":6142:6419  function getTotalBetAmount(uint _pollId) public view returns(uint) {... */\n    tag_3:\n      callvalue\n      dup1\n      iszero\n      tag_32\n      jumpi\n      0x00\n      dup1\n      revert\n    tag_32:\n      pop\n      tag_33\n      0x04\n      dup1\n      calldatasize\n      sub\n      dup2\n      add\n      swap1\n      tag_34\n      swap2\n      swap1\n      tag_35\n      jump\t// in\n    tag_34:\n      tag_36\n      jump\t// in\n    tag_33:\n      mload(0x40)\n      tag_37\n      swap2\n      swap1\n      tag_31\n      jump\t// in\n    tag_37:\n      mload(0x40)\n      dup1\n      swap2\n      sub\n      swap1\n      return\n        /* \"contracts/PollBetContract.sol\":1395:1435  mapping(address => uint) public balances */\n    tag_4:\n      callvalue\n      dup1\n      iszero\n      tag_38\n      jumpi\n      0x00\n      dup1\n      revert\n    tag_38:\n      pop\n      tag_39\n      0x04\n      dup1\n      calldatasize\n      sub\n      dup2\n      add\n      swap1\n      tag_40\n      swap2\n      swap1\n      tag_41\n      jump\t// in\n    tag_40:\n      tag_42\n      jump\t// in\n    tag_39:\n      mload(0x40)\n      tag_43\n      swap2\n      swap1\n      tag_31\n      jump\t// in\n    tag_43:\n      mload(0x40)\n      dup1\n      swap2\n      sub\n      swap1\n      return\n        /* \"contracts/PollBetContract.sol\":3657:3850  function getPollInfo(uint _pollId) public view returns (Poll memory) {... */\n    tag_5:\n      callvalue\n      dup1\n      iszero\n      tag_44\n      jumpi\n      0x00\n      dup1\n      revert\n    tag_44:\n      pop\n      tag_45\n      0x04\n      dup1\n      calldatasize\n      sub\n      dup2\n      add\n      swap1\n      tag_46\n      swap2\n      swap1\n      tag_35\n      jump\t// in\n    tag_46:\n      tag_47\n      jump\t// in\n    tag_45:\n      mload(0x40)\n      tag_48\n      swap2\n      swap1\n      tag_49\n      jump\t// in\n    tag_48:\n      mload(0x40)\n      dup1\n      swap2\n      sub\n      swap1\n      return\n        /* \"contracts/PollBetContract.sol\":1441:1483  mapping(uint => Bet[]) public pollBetsList */\n    tag_6:\n      callvalue\n      dup1\n      iszero\n      tag_50\n      jumpi\n      0x00\n      dup1\n      revert\n    tag_50:\n      pop\n      tag_51\n      0x04\n      dup1\n      calldatasize\n      sub\n      dup2\n      add\n      swap1\n      tag_52\n      swap2\n      swap1\n      tag_53\n      jump\t// in\n    tag_52:\n      tag_54\n      jump\t// in\n    tag_51:\n      mload(0x40)\n      tag_55\n      swap5\n      swap4\n      swap3\n      swap2\n      swap1\n      tag_56\n      jump\t// in\n    tag_55:\n      mload(0x40)\n      dup1\n      swap2\n      sub\n      swap1\n      return\n        /* \"contracts/PollBetContract.sol\":1489:1546  mapping(uint => mapping(address => bool)) public hasVoted */\n    tag_7:\n      callvalue\n      dup1\n      iszero\n      tag_57\n      jumpi\n      0x00\n      dup1\n      revert\n    tag_57:\n      pop\n      tag_58\n      0x04\n      dup1\n      calldatasize\n      sub\n      dup2\n      add\n      swap1\n      tag_59\n      swap2\n      swap1\n      tag_28\n      jump\t// in\n    tag_59:\n      tag_60\n      jump\t// in\n    tag_58:\n      mload(0x40)\n      tag_61\n      swap2\n      swap1\n      tag_62\n      jump\t// in\n    tag_61:\n      mload(0x40)\n      dup1\n      swap2\n      sub\n      swap1\n      return\n        /* \"contracts/PollBetContract.sol\":1237:1278  mapping(uint => uint) public pollBetTotal */\n    tag_8:\n      callvalue\n      dup1\n      iszero\n      tag_63\n      jumpi\n      0x00\n      dup1\n      revert\n    tag_63:\n      pop\n      tag_64\n      0x04\n      dup1\n      calldatasize\n      sub\n      dup2\n      add\n      swap1\n      tag_65\n      swap2\n      swap1\n      tag_35\n      jump\t// in\n    tag_65:\n      tag_66\n      jump\t// in\n    tag_64:\n      mload(0x40)\n      tag_67\n      swap2\n      swap1\n      tag_31\n      jump\t// in\n    tag_67:\n      mload(0x40)\n      dup1\n      swap2\n      sub\n      swap1\n      return\n        /* \"contracts/PollBetContract.sol\":3855:4758  function voteOnPoll(uint _pollId, uint _pollChoice) public {... */\n    tag_9:\n      callvalue\n      dup1\n      iszero\n      tag_68\n      jumpi\n      0x00\n      dup1\n      revert\n    tag_68:\n      pop\n      tag_69\n      0x04\n      dup1\n      calldatasize\n      sub\n      dup2\n      add\n      swap1\n      tag_70\n      swap2\n      swap1\n      tag_53\n      jump\t// in\n    tag_70:\n      tag_71\n      jump\t// in\n    tag_69:\n      stop\n        /* \"contracts/PollBetContract.sol\":6024:6137  function getBetCount(uint _pollId) public view returns(uint) {... */\n    tag_10:\n      callvalue\n      dup1\n      iszero\n      tag_72\n      jumpi\n      0x00\n      dup1\n      revert\n    tag_72:\n      pop\n      tag_73\n      0x04\n      dup1\n      calldatasize\n      sub\n      dup2\n      add\n      swap1\n      tag_74\n      swap2\n      swap1\n      tag_35\n      jump\t// in\n    tag_74:\n      tag_75\n      jump\t// in\n    tag_73:\n      mload(0x40)\n      tag_76\n      swap2\n      swap1\n      tag_31\n      jump\t// in\n    tag_76:\n      mload(0x40)\n      dup1\n      swap2\n      sub\n      swap1\n      return\n        /* \"contracts/PollBetContract.sol\":7025:7063  function distributeRewards() public {} */\n    tag_11:\n      callvalue\n      dup1\n      iszero\n      tag_77\n      jumpi\n      0x00\n      dup1\n      revert\n    tag_77:\n      pop\n      tag_78\n      tag_79\n      jump\t// in\n    tag_78:\n      stop\n        /* \"contracts/PollBetContract.sol\":3266:3652  function getPollVotersCount(uint _pollId) public view returns (uint) {... */\n    tag_12:\n      callvalue\n      dup1\n      iszero\n      tag_80\n      jumpi\n      0x00\n      dup1\n      revert\n    tag_80:\n      pop\n      tag_81\n      0x04\n      dup1\n      calldatasize\n      sub\n      dup2\n      add\n      swap1\n      tag_82\n      swap2\n      swap1\n      tag_35\n      jump\t// in\n    tag_82:\n      tag_83\n      jump\t// in\n    tag_81:\n      mload(0x40)\n      tag_84\n      swap2\n      swap1\n      tag_31\n      jump\t// in\n    tag_84:\n      mload(0x40)\n      dup1\n      swap2\n      sub\n      swap1\n      return\n        /* \"contracts/PollBetContract.sol\":1347:1389  mapping(uint => uint[]) public pollWinners */\n    tag_13:\n      callvalue\n      dup1\n      iszero\n      tag_85\n      jumpi\n      0x00\n      dup1\n      revert\n    tag_85:\n      pop\n      tag_86\n      0x04\n      dup1\n      calldatasize\n      sub\n      dup2\n      add\n      swap1\n      tag_87\n      swap2\n      swap1\n      tag_53\n      jump\t// in\n    tag_87:\n      tag_88\n      jump\t// in\n    tag_86:\n      mload(0x40)\n      tag_89\n      swap2\n      swap1\n      tag_31\n      jump\t// in\n    tag_89:\n      mload(0x40)\n      dup1\n      swap2\n      sub\n      swap1\n      return\n        /* \"contracts/PollBetContract.sol\":1139:1160  uint public pollCount */\n    tag_14:\n      callvalue\n      dup1\n      iszero\n      tag_90\n      jumpi\n      0x00\n      dup1\n      revert\n    tag_90:\n      pop\n      tag_91\n      tag_92\n      jump\t// in\n    tag_91:\n      mload(0x40)\n      tag_93\n      swap2\n      swap1\n      tag_31\n      jump\t// in\n    tag_93:\n      mload(0x40)\n      dup1\n      swap2\n      sub\n      swap1\n      return\n        /* \"contracts/PollBetContract.sol\":4763:6019  function betOnPoll(uint _pollId, bytes32 _pollChoice) public payable { // Data location must be \"memory\" or \"calldata\" for parameter in function, but none was given... */\n    tag_15:\n      tag_94\n      0x04\n      dup1\n      calldatasize\n      sub\n      dup2\n      add\n      swap1\n      tag_95\n      swap2\n      swap1\n      tag_96\n      jump\t// in\n    tag_95:\n      tag_97\n      jump\t// in\n    tag_94:\n      stop\n        /* \"contracts/PollBetContract.sol\":1552:1608  mapping(uint => mapping(address => Voter)) public voters */\n    tag_16:\n      callvalue\n      dup1\n      iszero\n      tag_98\n      jumpi\n      0x00\n      dup1\n      revert\n    tag_98:\n      pop\n      tag_99\n      0x04\n      dup1\n      calldatasize\n      sub\n      dup2\n      add\n      swap1\n      tag_100\n      swap2\n      swap1\n      tag_28\n      jump\t// in\n    tag_100:\n      tag_101\n      jump\t// in\n    tag_99:\n      mload(0x40)\n      tag_102\n      swap4\n      swap3\n      swap2\n      swap1\n      tag_103\n      jump\t// in\n    tag_102:\n      mload(0x40)\n      dup1\n      swap2\n      sub\n      swap1\n      return\n        /* \"contracts/PollBetContract.sol\":1768:1792  uint[] public pollCounts */\n    tag_17:\n      callvalue\n      dup1\n      iszero\n      tag_104\n      jumpi\n      0x00\n      dup1\n      revert\n    tag_104:\n      pop\n      tag_105\n      0x04\n      dup1\n      calldatasize\n      sub\n      dup2\n      add\n      swap1\n      tag_106\n      swap2\n      swap1\n      tag_35\n      jump\t// in\n    tag_106:\n      tag_107\n      jump\t// in\n    tag_105:\n      mload(0x40)\n      tag_108\n      swap2\n      swap1\n      tag_31\n      jump\t// in\n    tag_108:\n      mload(0x40)\n      dup1\n      swap2\n      sub\n      swap1\n      return\n        /* \"contracts/PollBetContract.sol\":6424:6953  function getOdds(uint _pollId, string calldata _pollChoice) public view returns(uint){... */\n    tag_18:\n      callvalue\n      dup1\n      iszero\n      tag_109\n      jumpi\n      0x00\n      dup1\n      revert\n    tag_109:\n      pop\n      tag_110\n      0x04\n      dup1\n      calldatasize\n      sub\n      dup2\n      add\n      swap1\n      tag_111\n      swap2\n      swap1\n      tag_112\n      jump\t// in\n    tag_111:\n      tag_113\n      jump\t// in\n    tag_110:\n      mload(0x40)\n      tag_114\n      swap2\n      swap1\n      tag_31\n      jump\t// in\n    tag_114:\n      mload(0x40)\n      dup1\n      swap2\n      sub\n      swap1\n      return\n        /* \"contracts/PollBetContract.sol\":1166:1186  uint public betCount */\n    tag_19:\n      callvalue\n      dup1\n      iszero\n      tag_115\n      jumpi\n      0x00\n      dup1\n      revert\n    tag_115:\n      pop\n      tag_116\n      tag_117\n      jump\t// in\n    tag_116:\n      mload(0x40)\n      tag_118\n      swap2\n      swap1\n      tag_31\n      jump\t// in\n    tag_118:\n      mload(0x40)\n      dup1\n      swap2\n      sub\n      swap1\n      return\n        /* \"contracts/PollBetContract.sol\":1798:3261  function createPoll(uint _startTime, uint _endTime, string[] memory _options) public {... */\n    tag_20:\n      callvalue\n      dup1\n      iszero\n      tag_119\n      jumpi\n      0x00\n      dup1\n      revert\n    tag_119:\n      pop\n      tag_120\n      0x04\n      dup1\n      calldatasize\n      sub\n      dup2\n      add\n      swap1\n      tag_121\n      swap2\n      swap1\n      tag_122\n      jump\t// in\n    tag_121:\n      tag_123\n      jump\t// in\n    tag_120:\n      stop\n        /* \"contracts/PollBetContract.sol\":6958:6988  function closePoll() public {} */\n    tag_21:\n      callvalue\n      dup1\n      iszero\n      tag_124\n      jumpi\n      0x00\n      dup1\n      revert\n    tag_124:\n      pop\n      tag_125\n      tag_126\n      jump\t// in\n    tag_125:\n      stop\n        /* \"contracts/PollBetContract.sol\":1284:1341  mapping(uint => mapping(address => uint)) public pollBets */\n    tag_29:\n      mstore(0x20, 0x03)\n      dup2\n      0x00\n      mstore\n      mstore(0x20, keccak256(0x00, 0x40))\n      dup1\n      0x00\n      mstore\n      keccak256(0x00, 0x40)\n      0x00\n      swap2\n      pop\n      swap2\n      pop\n      pop\n      sload\n      dup2\n      jump\t// out\n        /* \"contracts/PollBetContract.sol\":6142:6419  function getTotalBetAmount(uint _pollId) public view returns(uint) {... */\n    tag_36:\n        /* \"contracts/PollBetContract.sol\":6203:6207  uint */\n      0x00\n        /* \"contracts/PollBetContract.sol\":6219:6238  uint totalBetAmount */\n      dup1\n        /* \"contracts/PollBetContract.sol\":6241:6242  0 */\n      0x00\n        /* \"contracts/PollBetContract.sol\":6219:6242  uint totalBetAmount = 0 */\n      swap1\n      pop\n        /* \"contracts/PollBetContract.sol\":6257:6263  uint i */\n      0x00\n        /* \"contracts/PollBetContract.sol\":6252:6382  for (uint i = 0; i < pollBetsList[_pollId].length; i++) {... */\n    tag_128:\n        /* \"contracts/PollBetContract.sol\":6273:6285  pollBetsList */\n      0x06\n        /* \"contracts/PollBetContract.sol\":6273:6294  pollBetsList[_pollId] */\n      0x00\n        /* \"contracts/PollBetContract.sol\":6286:6293  _pollId */\n      dup6\n        /* \"contracts/PollBetContract.sol\":6273:6294  pollBetsList[_pollId] */\n      dup2\n      mstore\n      0x20\n      add\n      swap1\n      dup2\n      mstore\n      0x20\n      add\n      0x00\n      keccak256\n        /* \"contracts/PollBetContract.sol\":6273:6301  pollBetsList[_pollId].length */\n      dup1\n      sload\n      swap1\n      pop\n        /* \"contracts/PollBetContract.sol\":6269:6270  i */\n      dup2\n        /* \"contracts/PollBetContract.sol\":6269:6301  i < pollBetsList[_pollId].length */\n      lt\n        /* \"contracts/PollBetContract.sol\":6252:6382  for (uint i = 0; i < pollBetsList[_pollId].length; i++) {... */\n      iszero\n      tag_129\n      jumpi\n        /* \"contracts/PollBetContract.sol\":6340:6352  pollBetsList */\n      0x06\n        /* \"contracts/PollBetContract.sol\":6340:6361  pollBetsList[_pollId] */\n      0x00\n        /* \"contracts/PollBetContract.sol\":6353:6360  _pollId */\n      dup6\n        /* \"contracts/PollBetContract.sol\":6340:6361  pollBetsList[_pollId] */\n      dup2\n      mstore\n      0x20\n      add\n      swap1\n      dup2\n      mstore\n      0x20\n      add\n      0x00\n      keccak256\n        /* \"contracts/PollBetContract.sol\":6362:6363  i */\n      dup2\n        /* \"contracts/PollBetContract.sol\":6340:6364  pollBetsList[_pollId][i] */\n      dup2\n      sload\n      dup2\n      lt\n      tag_131\n      jumpi\n      tag_132\n      tag_133\n      jump\t// in\n    tag_132:\n    tag_131:\n      swap1\n      0x00\n      mstore\n      keccak256(0x00, 0x20)\n      swap1\n      0x04\n      mul\n      add\n        /* \"contracts/PollBetContract.sol\":6340:6371  pollBetsList[_pollId][i].amount */\n      0x03\n      add\n      sload\n        /* \"contracts/PollBetContract.sol\":6322:6371  totalBetAmount += pollBetsList[_pollId][i].amount */\n      dup3\n      tag_135\n      swap2\n      swap1\n      tag_136\n      jump\t// in\n    tag_135:\n      swap2\n      pop\n        /* \"contracts/PollBetContract.sol\":6303:6306  i++ */\n      dup1\n      dup1\n      tag_137\n      swap1\n      tag_138\n      jump\t// in\n    tag_137:\n      swap2\n      pop\n      pop\n        /* \"contracts/PollBetContract.sol\":6252:6382  for (uint i = 0; i < pollBetsList[_pollId].length; i++) {... */\n      jump(tag_128)\n    tag_129:\n      pop\n        /* \"contracts/PollBetContract.sol\":6398:6412  totalBetAmount */\n      dup1\n        /* \"contracts/PollBetContract.sol\":6391:6412  return totalBetAmount */\n      swap2\n      pop\n      pop\n        /* \"contracts/PollBetContract.sol\":6142:6419  function getTotalBetAmount(uint _pollId) public view returns(uint) {... */\n      swap2\n      swap1\n      pop\n      jump\t// out\n        /* \"contracts/PollBetContract.sol\":1395:1435  mapping(address => uint) public balances */\n    tag_42:\n      mstore(0x20, 0x05)\n      dup1\n      0x00\n      mstore\n      keccak256(0x00, 0x40)\n      0x00\n      swap2\n      pop\n      swap1\n      pop\n      sload\n      dup2\n      jump\t// out\n        /* \"contracts/PollBetContract.sol\":3657:3850  function getPollInfo(uint _pollId) public view returns (Poll memory) {... */\n    tag_47:\n        /* \"contracts/PollBetContract.sol\":3713:3724  Poll memory */\n      tag_139\n      tag_140\n      jump\t// in\n    tag_139:\n        /* \"contracts/PollBetContract.sol\":3736:3753  Poll storage poll */\n      0x00\n        /* \"contracts/PollBetContract.sol\":3756:3761  polls */\n      0x0a\n        /* \"contracts/PollBetContract.sol\":3756:3770  polls[_pollId] */\n      0x00\n        /* \"contracts/PollBetContract.sol\":3762:3769  _pollId */\n      dup5\n        /* \"contracts/PollBetContract.sol\":3756:3770  polls[_pollId] */\n      dup2\n      mstore\n      0x20\n      add\n      swap1\n      dup2\n      mstore\n      0x20\n      add\n      0x00\n      keccak256\n        /* \"contracts/PollBetContract.sol\":3736:3770  Poll storage poll = polls[_pollId] */\n      swap1\n      pop\n        /* \"contracts/PollBetContract.sol\":3787:3791  poll */\n      dup1\n        /* \"contracts/PollBetContract.sol\":3780:3791  return poll */\n      mload(0x40)\n      dup1\n      0xe0\n      add\n      0x40\n      mstore\n      swap1\n      dup2\n      0x00\n      dup3\n      add\n      sload\n      dup2\n      mstore\n      0x20\n      add\n      0x01\n      dup3\n      add\n      0x00\n      swap1\n      sload\n      swap1\n      0x0100\n      exp\n      swap1\n      div\n      0xffffffffffffffffffffffffffffffffffffffff\n      and\n      0xffffffffffffffffffffffffffffffffffffffff\n      and\n      0xffffffffffffffffffffffffffffffffffffffff\n      and\n      dup2\n      mstore\n      0x20\n      add\n      0x02\n      dup3\n      add\n      sload\n      dup2\n      mstore\n      0x20\n      add\n      0x03\n      dup3\n      add\n      sload\n      dup2\n      mstore\n      0x20\n      add\n      0x04\n      dup3\n      add\n      dup1\n      sload\n      dup1\n      0x20\n      mul\n      0x20\n      add\n      mload(0x40)\n      swap1\n      dup2\n      add\n      0x40\n      mstore\n      dup1\n      swap3\n      swap2\n      swap1\n      dup2\n      dup2\n      mstore\n      0x20\n      add\n      0x00\n      swap1\n    tag_142:\n      dup3\n      dup3\n      lt\n      iszero\n      tag_143\n      jumpi\n      dup4\n      dup3\n      swap1\n      0x00\n      mstore\n      keccak256(0x00, 0x20)\n      add\n      dup1\n      sload\n      tag_145\n      swap1\n      tag_146\n      jump\t// in\n    tag_145:\n      dup1\n      0x1f\n      add\n      0x20\n      dup1\n      swap2\n      div\n      mul\n      0x20\n      add\n      mload(0x40)\n      swap1\n      dup2\n      add\n      0x40\n      mstore\n      dup1\n      swap3\n      swap2\n      swap1\n      dup2\n      dup2\n      mstore\n      0x20\n      add\n      dup3\n      dup1\n      sload\n      tag_147\n      swap1\n      tag_146\n      jump\t// in\n    tag_147:\n      dup1\n      iszero\n      tag_148\n      jumpi\n      dup1\n      0x1f\n      lt\n      tag_149\n      jumpi\n      0x0100\n      dup1\n      dup4\n      sload\n      div\n      mul\n      dup4\n      mstore\n      swap2\n      0x20\n      add\n      swap2\n      jump(tag_148)\n    tag_149:\n      dup3\n      add\n      swap2\n      swap1\n      0x00\n      mstore\n      keccak256(0x00, 0x20)\n      swap1\n    tag_150:\n      dup2\n      sload\n      dup2\n      mstore\n      swap1\n      0x01\n      add\n      swap1\n      0x20\n      add\n      dup1\n      dup4\n      gt\n      tag_150\n      jumpi\n      dup3\n      swap1\n      sub\n      0x1f\n      and\n      dup3\n      add\n      swap2\n    tag_148:\n      pop\n      pop\n      pop\n      pop\n      pop\n      dup2\n      mstore\n      0x20\n      add\n      swap1\n      0x01\n      add\n      swap1\n      jump(tag_142)\n    tag_143:\n      pop\n      pop\n      pop\n      pop\n      dup2\n      mstore\n      0x20\n      add\n      0x05\n      dup3\n      add\n      dup1\n      sload\n      dup1\n      0x20\n      mul\n      0x20\n      add\n      mload(0x40)\n      swap1\n      dup2\n      add\n      0x40\n      mstore\n      dup1\n      swap3\n      swap2\n      swap1\n      dup2\n      dup2\n      mstore\n      0x20\n      add\n      dup3\n      dup1\n      sload\n      dup1\n      iszero\n      tag_151\n      jumpi\n      0x20\n      mul\n      dup3\n      add\n      swap2\n      swap1\n      0x00\n      mstore\n      keccak256(0x00, 0x20)\n      swap1\n    tag_152:\n      dup2\n      sload\n      dup2\n      mstore\n      0x20\n      add\n      swap1\n      0x01\n      add\n      swap1\n      dup1\n      dup4\n      gt\n      tag_152\n      jumpi\n    tag_151:\n      pop\n      pop\n      pop\n      pop\n      pop\n      dup2\n      mstore\n      0x20\n      add\n      0x06\n      dup3\n      add\n      0x00\n      swap1\n      sload\n      swap1\n      0x0100\n      exp\n      swap1\n      div\n      0xff\n      and\n      iszero\n      iszero\n      iszero\n      iszero\n      dup2\n      mstore\n      pop\n      pop\n      swap2\n      pop\n      pop\n        /* \"contracts/PollBetContract.sol\":3657:3850  function getPollInfo(uint _pollId) public view returns (Poll memory) {... */\n      swap2\n      swap1\n      pop\n      jump\t// out\n        /* \"contracts/PollBetContract.sol\":1441:1483  mapping(uint => Bet[]) public pollBetsList */\n    tag_54:\n      mstore(0x20, 0x06)\n      dup2\n      0x00\n      mstore\n      keccak256(0x00, 0x40)\n      dup2\n      dup2\n      sload\n      dup2\n      lt\n      tag_153\n      jumpi\n      0x00\n      dup1\n      revert\n    tag_153:\n      swap1\n      0x00\n      mstore\n      keccak256(0x00, 0x20)\n      swap1\n      0x04\n      mul\n      add\n      0x00\n      swap2\n      pop\n      swap2\n      pop\n      pop\n      dup1\n      0x00\n      add\n      sload\n      swap1\n      dup1\n      0x01\n      add\n      dup1\n      sload\n      tag_155\n      swap1\n      tag_146\n      jump\t// in\n    tag_155:\n      dup1\n      0x1f\n      add\n      0x20\n      dup1\n      swap2\n      div\n      mul\n      0x20\n      add\n      mload(0x40)\n      swap1\n      dup2\n      add\n      0x40\n      mstore\n      dup1\n      swap3\n      swap2\n      swap1\n      dup2\n      dup2\n      mstore\n      0x20\n      add\n      dup3\n      dup1\n      sload\n      tag_156\n      swap1\n      tag_146\n      jump\t// in\n    tag_156:\n      dup1\n      iszero\n      tag_157\n      jumpi\n      dup1\n      0x1f\n      lt\n      tag_158\n      jumpi\n      0x0100\n      dup1\n      dup4\n      sload\n      div\n      mul\n      dup4\n      mstore\n      swap2\n      0x20\n      add\n      swap2\n      jump(tag_157)\n    tag_158:\n      dup3\n      add\n      swap2\n      swap1\n      0x00\n      mstore\n      keccak256(0x00, 0x20)\n      swap1\n    tag_159:\n      dup2\n      sload\n      dup2\n      mstore\n      swap1\n      0x01\n      add\n      swap1\n      0x20\n      add\n      dup1\n      dup4\n      gt\n      tag_159\n      jumpi\n      dup3\n      swap1\n      sub\n      0x1f\n      and\n      dup3\n      add\n      swap2\n    tag_157:\n      pop\n      pop\n      pop\n      pop\n      pop\n      swap1\n      dup1\n      0x02\n      add\n      0x00\n      swap1\n      sload\n      swap1\n      0x0100\n      exp\n      swap1\n      div\n      0xffffffffffffffffffffffffffffffffffffffff\n      and\n      swap1\n      dup1\n      0x03\n      add\n      sload\n      swap1\n      pop\n      dup5\n      jump\t// out\n        /* \"contracts/PollBetContract.sol\":1489:1546  mapping(uint => mapping(address => bool)) public hasVoted */\n    tag_60:\n      mstore(0x20, 0x07)\n      dup2\n      0x00\n      mstore\n      mstore(0x20, keccak256(0x00, 0x40))\n      dup1\n      0x00\n      mstore\n      keccak256(0x00, 0x40)\n      0x00\n      swap2\n      pop\n      swap2\n      pop\n      swap1\n      sload\n      swap1\n      0x0100\n      exp\n      swap1\n      div\n      0xff\n      and\n      dup2\n      jump\t// out\n        /* \"contracts/PollBetContract.sol\":1237:1278  mapping(uint => uint) public pollBetTotal */\n    tag_66:\n      mstore(0x20, 0x02)\n      dup1\n      0x00\n      mstore\n      keccak256(0x00, 0x40)\n      0x00\n      swap2\n      pop\n      swap1\n      pop\n      sload\n      dup2\n      jump\t// out\n        /* \"contracts/PollBetContract.sol\":3855:4758  function voteOnPoll(uint _pollId, uint _pollChoice) public {... */\n    tag_71:\n        /* \"contracts/PollBetContract.sol\":3924:3941  Poll storage poll */\n      0x00\n        /* \"contracts/PollBetContract.sol\":3944:3949  polls */\n      0x0a\n        /* \"contracts/PollBetContract.sol\":3944:3958  polls[_pollId] */\n      0x00\n        /* \"contracts/PollBetContract.sol\":3950:3957  _pollId */\n      dup5\n        /* \"contracts/PollBetContract.sol\":3944:3958  polls[_pollId] */\n      dup2\n      mstore\n      0x20\n      add\n      swap1\n      dup2\n      mstore\n      0x20\n      add\n      0x00\n      keccak256\n        /* \"contracts/PollBetContract.sol\":3924:3958  Poll storage poll = polls[_pollId] */\n      swap1\n      pop\n        /* \"contracts/PollBetContract.sol\":3986:3994  hasVoted */\n      0x07\n        /* \"contracts/PollBetContract.sol\":3986:4003  hasVoted[_pollId] */\n      0x00\n        /* \"contracts/PollBetContract.sol\":3995:4002  _pollId */\n      dup5\n        /* \"contracts/PollBetContract.sol\":3986:4003  hasVoted[_pollId] */\n      dup2\n      mstore\n      0x20\n      add\n      swap1\n      dup2\n      mstore\n      0x20\n      add\n      0x00\n      keccak256\n        /* \"contracts/PollBetContract.sol\":3986:4015  hasVoted[_pollId][msg.sender] */\n      0x00\n        /* \"contracts/PollBetContract.sol\":4004:4014  msg.sender */\n      caller\n        /* \"contracts/PollBetContract.sol\":3986:4015  hasVoted[_pollId][msg.sender] */\n      0xffffffffffffffffffffffffffffffffffffffff\n      and\n      0xffffffffffffffffffffffffffffffffffffffff\n      and\n      dup2\n      mstore\n      0x20\n      add\n      swap1\n      dup2\n      mstore\n      0x20\n      add\n      0x00\n      keccak256\n      0x00\n      swap1\n      sload\n      swap1\n      0x0100\n      exp\n      swap1\n      div\n      0xff\n      and\n        /* \"contracts/PollBetContract.sol\":3985:4015  !hasVoted[_pollId][msg.sender] */\n      iszero\n        /* \"contracts/PollBetContract.sol\":3977:4033  require(!hasVoted[_pollId][msg.sender], \"Already voted\") */\n      tag_161\n      jumpi\n      mload(0x40)\n      0x08c379a000000000000000000000000000000000000000000000000000000000\n      dup2\n      mstore\n      0x04\n      add\n      tag_162\n      swap1\n      tag_163\n      jump\t// in\n    tag_162:\n      mload(0x40)\n      dup1\n      swap2\n      sub\n      swap1\n      revert\n    tag_161:\n        /* \"contracts/PollBetContract.sol\":4051:4055  poll */\n      dup1\n        /* \"contracts/PollBetContract.sol\":4051:4062  poll.isOpen */\n      0x06\n      add\n      0x00\n      swap1\n      sload\n      swap1\n      0x0100\n      exp\n      swap1\n      div\n      0xff\n      and\n        /* \"contracts/PollBetContract.sol\":4043:4081  require(poll.isOpen, \"Poll is closed\") */\n      tag_164\n      jumpi\n      mload(0x40)\n      0x08c379a000000000000000000000000000000000000000000000000000000000\n      dup2\n      mstore\n      0x04\n      add\n      tag_165\n      swap1\n      tag_166\n      jump\t// in\n    tag_165:\n      mload(0x40)\n      dup1\n      swap2\n      sub\n      swap1\n      revert\n    tag_164:\n        /* \"contracts/PollBetContract.sol\":4118:4122  poll */\n      dup1\n        /* \"contracts/PollBetContract.sol\":4118:4132  poll.startTime */\n      0x02\n      add\n      sload\n        /* \"contracts/PollBetContract.sol\":4099:4114  block.timestamp */\n      timestamp\n        /* \"contracts/PollBetContract.sol\":4099:4132  block.timestamp >= poll.startTime */\n      lt\n      iszero\n        /* \"contracts/PollBetContract.sol\":4099:4167  block.timestamp >= poll.startTime && block.timestamp <= poll.endTime */\n      dup1\n      iszero\n      tag_167\n      jumpi\n      pop\n        /* \"contracts/PollBetContract.sol\":4155:4159  poll */\n      dup1\n        /* \"contracts/PollBetContract.sol\":4155:4167  poll.endTime */\n      0x03\n      add\n      sload\n        /* \"contracts/PollBetContract.sol\":4136:4151  block.timestamp */\n      timestamp\n        /* \"contracts/PollBetContract.sol\":4136:4167  block.timestamp <= poll.endTime */\n      gt\n      iszero\n        /* \"contracts/PollBetContract.sol\":4099:4167  block.timestamp >= poll.startTime && block.timestamp <= poll.endTime */\n    tag_167:\n        /* \"contracts/PollBetContract.sol\":4091:4190  require(block.timestamp >= poll.startTime && block.timestamp <= poll.endTime, \"Poll is not active\") */\n      tag_168\n      jumpi\n      mload(0x40)\n      0x08c379a000000000000000000000000000000000000000000000000000000000\n      dup2\n      mstore\n      0x04\n      add\n      tag_169\n      swap1\n      tag_170\n      jump\t// in\n    tag_169:\n      mload(0x40)\n      dup1\n      swap2\n      sub\n      swap1\n      revert\n    tag_168:\n        /* \"contracts/PollBetContract.sol\":4222:4223  0 */\n      0x00\n        /* \"contracts/PollBetContract.sol\":4208:4219  _pollChoice */\n      dup3\n        /* \"contracts/PollBetContract.sol\":4208:4223  _pollChoice > 0 */\n      gt\n        /* \"contracts/PollBetContract.sol\":4208:4260  _pollChoice > 0 && _pollChoice < poll.choices.length */\n      dup1\n      iszero\n      tag_171\n      jumpi\n      pop\n        /* \"contracts/PollBetContract.sol\":4241:4245  poll */\n      dup1\n        /* \"contracts/PollBetContract.sol\":4241:4253  poll.choices */\n      0x04\n      add\n        /* \"contracts/PollBetContract.sol\":4241:4260  poll.choices.length */\n      dup1\n      sload\n      swap1\n      pop\n        /* \"contracts/PollBetContract.sol\":4227:4238  _pollChoice */\n      dup3\n        /* \"contracts/PollBetContract.sol\":4227:4260  _pollChoice < poll.choices.length */\n      lt\n        /* \"contracts/PollBetContract.sol\":4208:4260  _pollChoice > 0 && _pollChoice < poll.choices.length */\n    tag_171:\n        /* \"contracts/PollBetContract.sol\":4200:4279  require(_pollChoice > 0 && _pollChoice < poll.choices.length, \"Invalid choice\") */\n      tag_172\n      jumpi\n      mload(0x40)\n      0x08c379a000000000000000000000000000000000000000000000000000000000\n      dup2\n      mstore\n      0x04\n      add\n      tag_173\n      swap1\n      tag_174\n      jump\t// in\n    tag_173:\n      mload(0x40)\n      dup1\n      swap2\n      sub\n      swap1\n      revert\n    tag_172:\n        /* \"contracts/PollBetContract.sol\":4321:4325  true */\n      0x01\n        /* \"contracts/PollBetContract.sol\":4289:4297  hasVoted */\n      0x07\n        /* \"contracts/PollBetContract.sol\":4289:4306  hasVoted[_pollId] */\n      0x00\n        /* \"contracts/PollBetContract.sol\":4298:4305  _pollId */\n      dup6\n        /* \"contracts/PollBetContract.sol\":4289:4306  hasVoted[_pollId] */\n      dup2\n      mstore\n      0x20\n      add\n      swap1\n      dup2\n      mstore\n      0x20\n      add\n      0x00\n      keccak256\n        /* \"contracts/PollBetContract.sol\":4289:4318  hasVoted[_pollId][msg.sender] */\n      0x00\n        /* \"contracts/PollBetContract.sol\":4307:4317  msg.sender */\n      caller\n        /* \"contracts/PollBetContract.sol\":4289:4318  hasVoted[_pollId][msg.sender] */\n      0xffffffffffffffffffffffffffffffffffffffff\n      and\n      0xffffffffffffffffffffffffffffffffffffffff\n      and\n      dup2\n      mstore\n      0x20\n      add\n      swap1\n      dup2\n      mstore\n      0x20\n      add\n      0x00\n      keccak256\n      0x00\n        /* \"contracts/PollBetContract.sol\":4289:4325  hasVoted[_pollId][msg.sender] = true */\n      0x0100\n      exp\n      dup2\n      sload\n      dup2\n      0xff\n      mul\n      not\n      and\n      swap1\n      dup4\n      iszero\n      iszero\n      mul\n      or\n      swap1\n      sstore\n      pop\n        /* \"contracts/PollBetContract.sol\":4335:4356  Voter memory newVoter */\n      0x00\n        /* \"contracts/PollBetContract.sol\":4359:4476  Voter({... */\n      mload(0x40)\n      dup1\n      0x60\n      add\n      0x40\n      mstore\n      dup1\n        /* \"contracts/PollBetContract.sol\":4387:4394  _pollId */\n      dup6\n        /* \"contracts/PollBetContract.sol\":4359:4476  Voter({... */\n      dup2\n      mstore\n      0x20\n      add\n        /* \"contracts/PollBetContract.sol\":4422:4432  msg.sender */\n      caller\n        /* \"contracts/PollBetContract.sol\":4359:4476  Voter({... */\n      0xffffffffffffffffffffffffffffffffffffffff\n      and\n      dup2\n      mstore\n      0x20\n      add\n        /* \"contracts/PollBetContract.sol\":4454:4465  _pollChoice */\n      dup5\n        /* \"contracts/PollBetContract.sol\":4359:4476  Voter({... */\n      dup2\n      mstore\n      pop\n        /* \"contracts/PollBetContract.sol\":4335:4476  Voter memory newVoter = Voter({... */\n      swap1\n      pop\n        /* \"contracts/PollBetContract.sol\":4516:4524  newVoter */\n      dup1\n        /* \"contracts/PollBetContract.sol\":4486:4492  voters */\n      0x08\n        /* \"contracts/PollBetContract.sol\":4486:4501  voters[_pollId] */\n      0x00\n        /* \"contracts/PollBetContract.sol\":4493:4500  _pollId */\n      dup7\n        /* \"contracts/PollBetContract.sol\":4486:4501  voters[_pollId] */\n      dup2\n      mstore\n      0x20\n      add\n      swap1\n      dup2\n      mstore\n      0x20\n      add\n      0x00\n      keccak256\n        /* \"contracts/PollBetContract.sol\":4486:4513  voters[_pollId][msg.sender] */\n      0x00\n        /* \"contracts/PollBetContract.sol\":4502:4512  msg.sender */\n      caller\n        /* \"contracts/PollBetContract.sol\":4486:4513  voters[_pollId][msg.sender] */\n      0xffffffffffffffffffffffffffffffffffffffff\n      and\n      0xffffffffffffffffffffffffffffffffffffffff\n      and\n      dup2\n      mstore\n      0x20\n      add\n      swap1\n      dup2\n      mstore\n      0x20\n      add\n      0x00\n      keccak256\n        /* \"contracts/PollBetContract.sol\":4486:4524  voters[_pollId][msg.sender] = newVoter */\n      0x00\n      dup3\n      add\n      mload\n      dup2\n      0x00\n      add\n      sstore\n      0x20\n      dup3\n      add\n      mload\n      dup2\n      0x01\n      add\n      exp(0x0100, 0x00)\n      dup2\n      sload\n      dup2\n      0xffffffffffffffffffffffffffffffffffffffff\n      mul\n      not\n      and\n      swap1\n      dup4\n      0xffffffffffffffffffffffffffffffffffffffff\n      and\n      mul\n      or\n      swap1\n      sstore\n      pop\n      0x40\n      dup3\n      add\n      mload\n      dup2\n      0x02\n      add\n      sstore\n      swap1\n      pop\n      pop\n        /* \"contracts/PollBetContract.sol\":4534:4572  addVoterAddressSet(_pollId,msg.sender) */\n      tag_175\n        /* \"contracts/PollBetContract.sol\":4553:4560  _pollId */\n      dup5\n        /* \"contracts/PollBetContract.sol\":4561:4571  msg.sender */\n      caller\n        /* \"contracts/PollBetContract.sol\":4534:4552  addVoterAddressSet */\n      tag_176\n        /* \"contracts/PollBetContract.sol\":4534:4572  addVoterAddressSet(_pollId,msg.sender) */\n      jump\t// in\n    tag_175:\n        /* \"contracts/PollBetContract.sol\":4660:4664  poll */\n      dup2\n        /* \"contracts/PollBetContract.sol\":4660:4677  poll.choiceCounts */\n      0x05\n      add\n        /* \"contracts/PollBetContract.sol\":4678:4689  _pollChoice */\n      dup4\n        /* \"contracts/PollBetContract.sol\":4660:4690  poll.choiceCounts[_pollChoice] */\n      dup2\n      sload\n      dup2\n      lt\n      tag_177\n      jumpi\n      tag_178\n      tag_133\n      jump\t// in\n    tag_178:\n    tag_177:\n      swap1\n      0x00\n      mstore\n      keccak256(0x00, 0x20)\n      add\n      0x00\n        /* \"contracts/PollBetContract.sol\":4660:4692  poll.choiceCounts[_pollChoice]++ */\n      dup2\n      sload\n      dup1\n      swap3\n      swap2\n      swap1\n      tag_180\n      swap1\n      tag_138\n      jump\t// in\n    tag_180:\n      swap2\n      swap1\n      pop\n      sstore\n      pop\n        /* \"contracts/PollBetContract.sol\":4727:4737  msg.sender */\n      caller\n        /* \"contracts/PollBetContract.sol\":4707:4751  VoteCasted(_pollId, msg.sender, _pollChoice) */\n      0xffffffffffffffffffffffffffffffffffffffff\n      and\n        /* \"contracts/PollBetContract.sol\":4718:4725  _pollId */\n      dup5\n        /* \"contracts/PollBetContract.sol\":4707:4751  VoteCasted(_pollId, msg.sender, _pollChoice) */\n      0xe7ee74ca1f4bb1b82b14f87794c45b3e59c39e372b862fb97a6316b43355b69e\n        /* \"contracts/PollBetContract.sol\":4739:4750  _pollChoice */\n      dup6\n        /* \"contracts/PollBetContract.sol\":4707:4751  VoteCasted(_pollId, msg.sender, _pollChoice) */\n      mload(0x40)\n      tag_181\n      swap2\n      swap1\n      tag_31\n      jump\t// in\n    tag_181:\n      mload(0x40)\n      dup1\n      swap2\n      sub\n      swap1\n      log3\n        /* \"contracts/PollBetContract.sol\":3914:4758  {... */\n      pop\n      pop\n        /* \"contracts/PollBetContract.sol\":3855:4758  function voteOnPoll(uint _pollId, uint _pollChoice) public {... */\n      pop\n      pop\n      jump\t// out\n        /* \"contracts/PollBetContract.sol\":6024:6137  function getBetCount(uint _pollId) public view returns(uint) {... */\n    tag_75:\n        /* \"contracts/PollBetContract.sol\":6079:6083  uint */\n      0x00\n        /* \"contracts/PollBetContract.sol\":6102:6114  pollBetsList */\n      0x06\n        /* \"contracts/PollBetContract.sol\":6102:6123  pollBetsList[_pollId] */\n      0x00\n        /* \"contracts/PollBetContract.sol\":6115:6122  _pollId */\n      dup4\n        /* \"contracts/PollBetContract.sol\":6102:6123  pollBetsList[_pollId] */\n      dup2\n      mstore\n      0x20\n      add\n      swap1\n      dup2\n      mstore\n      0x20\n      add\n      0x00\n      keccak256\n        /* \"contracts/PollBetContract.sol\":6102:6130  pollBetsList[_pollId].length */\n      dup1\n      sload\n      swap1\n      pop\n        /* \"contracts/PollBetContract.sol\":6095:6130  return pollBetsList[_pollId].length */\n      swap1\n      pop\n        /* \"contracts/PollBetContract.sol\":6024:6137  function getBetCount(uint _pollId) public view returns(uint) {... */\n      swap2\n      swap1\n      pop\n      jump\t// out\n        /* \"contracts/PollBetContract.sol\":7025:7063  function distributeRewards() public {} */\n    tag_79:\n      jump\t// out\n        /* \"contracts/PollBetContract.sol\":3266:3652  function getPollVotersCount(uint _pollId) public view returns (uint) {... */\n    tag_83:\n        /* \"contracts/PollBetContract.sol\":3329:3333  uint */\n      0x00\n        /* \"contracts/PollBetContract.sol\":3345:3355  uint count */\n      dup1\n        /* \"contracts/PollBetContract.sol\":3358:3359  0 */\n      0x00\n        /* \"contracts/PollBetContract.sol\":3345:3359  uint count = 0 */\n      swap1\n      pop\n        /* \"contracts/PollBetContract.sol\":3369:3416  EnumerableSet.AddressSet storage voterAddresses */\n      0x00\n        /* \"contracts/PollBetContract.sol\":3419:3435  voterAddressSets */\n      0x09\n        /* \"contracts/PollBetContract.sol\":3419:3444  voterAddressSets[_pollId] */\n      0x00\n        /* \"contracts/PollBetContract.sol\":3436:3443  _pollId */\n      dup6\n        /* \"contracts/PollBetContract.sol\":3419:3444  voterAddressSets[_pollId] */\n      dup2\n      mstore\n      0x20\n      add\n      swap1\n      dup2\n      mstore\n      0x20\n      add\n      0x00\n      keccak256\n        /* \"contracts/PollBetContract.sol\":3369:3444  EnumerableSet.AddressSet storage voterAddresses = voterAddressSets[_pollId] */\n      swap1\n      pop\n        /* \"contracts/PollBetContract.sol\":3459:3465  uint i */\n      0x00\n        /* \"contracts/PollBetContract.sol\":3454:3624  for (uint i = 0; i < EnumerableSet.length(voterAddresses); i++) {... */\n    tag_185:\n        /* \"contracts/PollBetContract.sol\":3475:3511  EnumerableSet.length(voterAddresses) */\n      tag_188\n        /* \"contracts/PollBetContract.sol\":3496:3510  voterAddresses */\n      dup3\n        /* \"contracts/PollBetContract.sol\":3475:3495  EnumerableSet.length */\n      tag_189\n        /* \"contracts/PollBetContract.sol\":3475:3511  EnumerableSet.length(voterAddresses) */\n      jump\t// in\n    tag_188:\n        /* \"contracts/PollBetContract.sol\":3471:3472  i */\n      dup2\n        /* \"contracts/PollBetContract.sol\":3471:3511  i < EnumerableSet.length(voterAddresses) */\n      lt\n        /* \"contracts/PollBetContract.sol\":3454:3624  for (uint i = 0; i < EnumerableSet.length(voterAddresses); i++) {... */\n      iszero\n      tag_186\n      jumpi\n        /* \"contracts/PollBetContract.sol\":3606:3613  count++ */\n      dup3\n      dup1\n      tag_190\n      swap1\n      tag_138\n      jump\t// in\n    tag_190:\n      swap4\n      pop\n      pop\n        /* \"contracts/PollBetContract.sol\":3513:3516  i++ */\n      dup1\n      dup1\n      tag_191\n      swap1\n      tag_138\n      jump\t// in\n    tag_191:\n      swap2\n      pop\n      pop\n        /* \"contracts/PollBetContract.sol\":3454:3624  for (uint i = 0; i < EnumerableSet.length(voterAddresses); i++) {... */\n      jump(tag_185)\n    tag_186:\n      pop\n        /* \"contracts/PollBetContract.sol\":3640:3645  count */\n      dup2\n        /* \"contracts/PollBetContract.sol\":3633:3645  return count */\n      swap3\n      pop\n      pop\n      pop\n        /* \"contracts/PollBetContract.sol\":3266:3652  function getPollVotersCount(uint _pollId) public view returns (uint) {... */\n      swap2\n      swap1\n      pop\n      jump\t// out\n        /* \"contracts/PollBetContract.sol\":1347:1389  mapping(uint => uint[]) public pollWinners */\n    tag_88:\n      mstore(0x20, 0x04)\n      dup2\n      0x00\n      mstore\n      keccak256(0x00, 0x40)\n      dup2\n      dup2\n      sload\n      dup2\n      lt\n      tag_192\n      jumpi\n      0x00\n      dup1\n      revert\n    tag_192:\n      swap1\n      0x00\n      mstore\n      keccak256(0x00, 0x20)\n      add\n      0x00\n      swap2\n      pop\n      swap2\n      pop\n      pop\n      sload\n      dup2\n      jump\t// out\n        /* \"contracts/PollBetContract.sol\":1139:1160  uint public pollCount */\n    tag_92:\n      sload(0x00)\n      dup2\n      jump\t// out\n        /* \"contracts/PollBetContract.sol\":4763:6019  function betOnPoll(uint _pollId, bytes32 _pollChoice) public payable { // Data location must be \"memory\" or \"calldata\" for parameter in function, but none was given... */\n    tag_97:\n        /* \"contracts/PollBetContract.sol\":4963:4968  polls */\n      0x0a\n        /* \"contracts/PollBetContract.sol\":4963:4977  polls[_pollId] */\n      0x00\n        /* \"contracts/PollBetContract.sol\":4969:4976  _pollId */\n      dup4\n        /* \"contracts/PollBetContract.sol\":4963:4977  polls[_pollId] */\n      dup2\n      mstore\n      0x20\n      add\n      swap1\n      dup2\n      mstore\n      0x20\n      add\n      0x00\n      keccak256\n        /* \"contracts/PollBetContract.sol\":4963:4987  polls[_pollId].startTime */\n      0x02\n      add\n      sload\n        /* \"contracts/PollBetContract.sol\":4944:4959  block.timestamp */\n      timestamp\n        /* \"contracts/PollBetContract.sol\":4944:4987  block.timestamp >= polls[_pollId].startTime */\n      lt\n      iszero\n        /* \"contracts/PollBetContract.sol\":4936:5038  require(block.timestamp >= polls[_pollId].startTime, \"Poll has not started yet, you cannot bet on it\") */\n      tag_195\n      jumpi\n      mload(0x40)\n      0x08c379a000000000000000000000000000000000000000000000000000000000\n      dup2\n      mstore\n      0x04\n      add\n      tag_196\n      swap1\n      tag_197\n      jump\t// in\n    tag_196:\n      mload(0x40)\n      dup1\n      swap2\n      sub\n      swap1\n      revert\n    tag_195:\n        /* \"contracts/PollBetContract.sol\":5074:5079  polls */\n      0x0a\n        /* \"contracts/PollBetContract.sol\":5074:5088  polls[_pollId] */\n      0x00\n        /* \"contracts/PollBetContract.sol\":5080:5087  _pollId */\n      dup4\n        /* \"contracts/PollBetContract.sol\":5074:5088  polls[_pollId] */\n      dup2\n      mstore\n      0x20\n      add\n      swap1\n      dup2\n      mstore\n      0x20\n      add\n      0x00\n      keccak256\n        /* \"contracts/PollBetContract.sol\":5074:5096  polls[_pollId].endTime */\n      0x03\n      add\n      sload\n        /* \"contracts/PollBetContract.sol\":5056:5071  block.timestamp */\n      timestamp\n        /* \"contracts/PollBetContract.sol\":5056:5096  block.timestamp < polls[_pollId].endTime */\n      lt\n        /* \"contracts/PollBetContract.sol\":5048:5145  require(block.timestamp < polls[_pollId].endTime, \"Poll has ended, you cannot bet on it anymore\") */\n      tag_198\n      jumpi\n      mload(0x40)\n      0x08c379a000000000000000000000000000000000000000000000000000000000\n      dup2\n      mstore\n      0x04\n      add\n      tag_199\n      swap1\n      tag_200\n      jump\t// in\n    tag_199:\n      mload(0x40)\n      dup1\n      swap2\n      sub\n      swap1\n      revert\n    tag_198:\n        /* \"contracts/PollBetContract.sol\":5175:5176  0 */\n      0x00\n        /* \"contracts/PollBetContract.sol\":5163:5172  msg.value */\n      callvalue\n        /* \"contracts/PollBetContract.sol\":5163:5176  msg.value > 0 */\n      gt\n        /* \"contracts/PollBetContract.sol\":5155:5211  require(msg.value > 0, \"Amount must be greater than 0!\") */\n      tag_201\n      jumpi\n      mload(0x40)\n      0x08c379a000000000000000000000000000000000000000000000000000000000\n      dup2\n      mstore\n      0x04\n      add\n      tag_202\n      swap1\n      tag_203\n      jump\t// in\n    tag_202:\n      mload(0x40)\n      dup1\n      swap2\n      sub\n      swap1\n      revert\n    tag_201:\n        /* \"contracts/PollBetContract.sol\":5260:5278  uint pollChoiceInt */\n      0x00\n        /* \"contracts/PollBetContract.sol\":5293:5299  uint i */\n      dup1\n        /* \"contracts/PollBetContract.sol\":5302:5303  0 */\n      0x00\n        /* \"contracts/PollBetContract.sol\":5293:5303  uint i = 0 */\n      swap1\n      pop\n        /* \"contracts/PollBetContract.sol\":5288:5506  for (uint i = 0; i < polls[_pollId].choices.length; i++) {... */\n    tag_204:\n        /* \"contracts/PollBetContract.sol\":5309:5314  polls */\n      0x0a\n        /* \"contracts/PollBetContract.sol\":5309:5323  polls[_pollId] */\n      0x00\n        /* \"contracts/PollBetContract.sol\":5315:5322  _pollId */\n      dup6\n        /* \"contracts/PollBetContract.sol\":5309:5323  polls[_pollId] */\n      dup2\n      mstore\n      0x20\n      add\n      swap1\n      dup2\n      mstore\n      0x20\n      add\n      0x00\n      keccak256\n        /* \"contracts/PollBetContract.sol\":5309:5331  polls[_pollId].choices */\n      0x04\n      add\n        /* \"contracts/PollBetContract.sol\":5309:5338  polls[_pollId].choices.length */\n      dup1\n      sload\n      swap1\n      pop\n        /* \"contracts/PollBetContract.sol\":5305:5306  i */\n      dup2\n        /* \"contracts/PollBetContract.sol\":5305:5338  i < polls[_pollId].choices.length */\n      lt\n        /* \"contracts/PollBetContract.sol\":5288:5506  for (uint i = 0; i < polls[_pollId].choices.length; i++) {... */\n      iszero\n      tag_205\n      jumpi\n        /* \"contracts/PollBetContract.sol\":5410:5421  _pollChoice */\n      dup3\n        /* \"contracts/PollBetContract.sol\":5379:5384  polls */\n      0x0a\n        /* \"contracts/PollBetContract.sol\":5379:5393  polls[_pollId] */\n      0x00\n        /* \"contracts/PollBetContract.sol\":5385:5392  _pollId */\n      dup7\n        /* \"contracts/PollBetContract.sol\":5379:5393  polls[_pollId] */\n      dup2\n      mstore\n      0x20\n      add\n      swap1\n      dup2\n      mstore\n      0x20\n      add\n      0x00\n      keccak256\n        /* \"contracts/PollBetContract.sol\":5379:5401  polls[_pollId].choices */\n      0x04\n      add\n        /* \"contracts/PollBetContract.sol\":5402:5403  i */\n      dup3\n        /* \"contracts/PollBetContract.sol\":5379:5404  polls[_pollId].choices[i] */\n      dup2\n      sload\n      dup2\n      lt\n      tag_207\n      jumpi\n      tag_208\n      tag_133\n      jump\t// in\n    tag_208:\n    tag_207:\n      swap1\n      0x00\n      mstore\n      keccak256(0x00, 0x20)\n      add\n        /* \"contracts/PollBetContract.sol\":5363:5406  keccak256(bytes(polls[_pollId].choices[i])) */\n      mload(0x40)\n      tag_210\n      swap2\n      swap1\n      tag_211\n      jump\t// in\n    tag_210:\n      mload(0x40)\n      dup1\n      swap2\n      sub\n      swap1\n      keccak256\n        /* \"contracts/PollBetContract.sol\":5363:5421  keccak256(bytes(polls[_pollId].choices[i])) == _pollChoice */\n      sub\n        /* \"contracts/PollBetContract.sol\":5359:5496  if (keccak256(bytes(polls[_pollId].choices[i])) == _pollChoice) {... */\n      tag_212\n      jumpi\n        /* \"contracts/PollBetContract.sol\":5457:5458  i */\n      dup1\n        /* \"contracts/PollBetContract.sol\":5441:5458  pollChoiceInt = i */\n      swap2\n      pop\n        /* \"contracts/PollBetContract.sol\":5476:5481  break */\n      jump(tag_205)\n        /* \"contracts/PollBetContract.sol\":5359:5496  if (keccak256(bytes(polls[_pollId].choices[i])) == _pollChoice) {... */\n    tag_212:\n        /* \"contracts/PollBetContract.sol\":5340:5343  i++ */\n      dup1\n      dup1\n      tag_213\n      swap1\n      tag_138\n      jump\t// in\n    tag_213:\n      swap2\n      pop\n      pop\n        /* \"contracts/PollBetContract.sol\":5288:5506  for (uint i = 0; i < polls[_pollId].choices.length; i++) {... */\n      jump(tag_204)\n    tag_205:\n      pop\n        /* \"contracts/PollBetContract.sol\":5539:5540  0 */\n      0x00\n        /* \"contracts/PollBetContract.sol\":5523:5536  pollChoiceInt */\n      dup2\n        /* \"contracts/PollBetContract.sol\":5523:5540  pollChoiceInt > 0 */\n      gt\n        /* \"contracts/PollBetContract.sol\":5515:5613  require(pollChoiceInt > 0, \"Invalid poll choice, please select one of the poll choices to bet on\") */\n      tag_214\n      jumpi\n      mload(0x40)\n      0x08c379a000000000000000000000000000000000000000000000000000000000\n      dup2\n      mstore\n      0x04\n      add\n      tag_215\n      swap1\n      tag_216\n      jump\t// in\n    tag_215:\n      mload(0x40)\n      dup1\n      swap2\n      sub\n      swap1\n      revert\n    tag_214:\n        /* \"contracts/PollBetContract.sol\":5648:5657  msg.value */\n      callvalue\n        /* \"contracts/PollBetContract.sol\":5623:5635  pollBetTotal */\n      0x02\n        /* \"contracts/PollBetContract.sol\":5623:5644  pollBetTotal[_pollId] */\n      0x00\n        /* \"contracts/PollBetContract.sol\":5636:5643  _pollId */\n      dup6\n        /* \"contracts/PollBetContract.sol\":5623:5644  pollBetTotal[_pollId] */\n      dup2\n      mstore\n      0x20\n      add\n      swap1\n      dup2\n      mstore\n      0x20\n      add\n      0x00\n      keccak256\n      0x00\n        /* \"contracts/PollBetContract.sol\":5623:5657  pollBetTotal[_pollId] += msg.value */\n      dup3\n      dup3\n      sload\n      tag_217\n      swap2\n      swap1\n      tag_136\n      jump\t// in\n    tag_217:\n      swap3\n      pop\n      pop\n      dup2\n      swap1\n      sstore\n      pop\n        /* \"contracts/PollBetContract.sol\":5700:5709  msg.value */\n      callvalue\n        /* \"contracts/PollBetContract.sol\":5667:5675  pollBets */\n      0x03\n        /* \"contracts/PollBetContract.sol\":5667:5684  pollBets[_pollId] */\n      0x00\n        /* \"contracts/PollBetContract.sol\":5676:5683  _pollId */\n      dup6\n        /* \"contracts/PollBetContract.sol\":5667:5684  pollBets[_pollId] */\n      dup2\n      mstore\n      0x20\n      add\n      swap1\n      dup2\n      mstore\n      0x20\n      add\n      0x00\n      keccak256\n        /* \"contracts/PollBetContract.sol\":5667:5696  pollBets[_pollId][msg.sender] */\n      0x00\n        /* \"contracts/PollBetContract.sol\":5685:5695  msg.sender */\n      caller\n        /* \"contracts/PollBetContract.sol\":5667:5696  pollBets[_pollId][msg.sender] */\n      0xffffffffffffffffffffffffffffffffffffffff\n      and\n      0xffffffffffffffffffffffffffffffffffffffff\n      and\n      dup2\n      mstore\n      0x20\n      add\n      swap1\n      dup2\n      mstore\n      0x20\n      add\n      0x00\n      keccak256\n      0x00\n        /* \"contracts/PollBetContract.sol\":5667:5709  pollBets[_pollId][msg.sender] += msg.value */\n      dup3\n      dup3\n      sload\n      tag_218\n      swap2\n      swap1\n      tag_136\n      jump\t// in\n    tag_218:\n      swap3\n      pop\n      pop\n      dup2\n      swap1\n      sstore\n      pop\n        /* \"contracts/PollBetContract.sol\":5719:5727  betCount */\n      0x01\n      0x00\n        /* \"contracts/PollBetContract.sol\":5719:5729  betCount++ */\n      dup2\n      sload\n      dup1\n      swap3\n      swap2\n      swap1\n      tag_219\n      swap1\n      tag_138\n      jump\t// in\n    tag_219:\n      swap2\n      swap1\n      pop\n      sstore\n      pop\n        /* \"contracts/PollBetContract.sol\":5739:5751  pollBetsList */\n      0x06\n        /* \"contracts/PollBetContract.sol\":5739:5760  pollBetsList[_pollId] */\n      0x00\n        /* \"contracts/PollBetContract.sol\":5752:5759  _pollId */\n      dup5\n        /* \"contracts/PollBetContract.sol\":5739:5760  pollBetsList[_pollId] */\n      dup2\n      mstore\n      0x20\n      add\n      swap1\n      dup2\n      mstore\n      0x20\n      add\n      0x00\n      keccak256\n        /* \"contracts/PollBetContract.sol\":5766:5925  Bet({... */\n      mload(0x40)\n      dup1\n      0x80\n      add\n      0x40\n      mstore\n      dup1\n        /* \"contracts/PollBetContract.sol\":5792:5799  _pollId */\n      dup6\n        /* \"contracts/PollBetContract.sol\":5766:5925  Bet({... */\n      dup2\n      mstore\n      0x20\n      add\n        /* \"contracts/PollBetContract.sol\":5825:5853  bytes32ToString(_pollChoice) */\n      tag_220\n        /* \"contracts/PollBetContract.sol\":5841:5852  _pollChoice */\n      dup6\n        /* \"contracts/PollBetContract.sol\":5825:5840  bytes32ToString */\n      tag_221\n        /* \"contracts/PollBetContract.sol\":5825:5853  bytes32ToString(_pollChoice) */\n      jump\t// in\n    tag_220:\n        /* \"contracts/PollBetContract.sol\":5766:5925  Bet({... */\n      dup2\n      mstore\n      0x20\n      add\n        /* \"contracts/PollBetContract.sol\":5873:5883  msg.sender */\n      caller\n        /* \"contracts/PollBetContract.sol\":5766:5925  Bet({... */\n      0xffffffffffffffffffffffffffffffffffffffff\n      and\n      dup2\n      mstore\n      0x20\n      add\n        /* \"contracts/PollBetContract.sol\":5905:5914  msg.value */\n      callvalue\n        /* \"contracts/PollBetContract.sol\":5766:5925  Bet({... */\n      dup2\n      mstore\n      pop\n        /* \"contracts/PollBetContract.sol\":5739:5926  pollBetsList[_pollId].push(Bet({... */\n      swap1\n      dup1\n      0x01\n      dup2\n      sload\n      add\n      dup1\n      dup3\n      sstore\n      dup1\n      swap2\n      pop\n      pop\n      0x01\n      swap1\n      sub\n      swap1\n      0x00\n      mstore\n      keccak256(0x00, 0x20)\n      swap1\n      0x04\n      mul\n      add\n      0x00\n      swap1\n      swap2\n      swap1\n      swap2\n      swap1\n      swap2\n      pop\n      0x00\n      dup3\n      add\n      mload\n      dup2\n      0x00\n      add\n      sstore\n      0x20\n      dup3\n      add\n      mload\n      dup2\n      0x01\n      add\n      swap1\n      dup2\n      tag_223\n      swap2\n      swap1\n      tag_224\n      jump\t// in\n    tag_223:\n      pop\n      0x40\n      dup3\n      add\n      mload\n      dup2\n      0x02\n      add\n      exp(0x0100, 0x00)\n      dup2\n      sload\n      dup2\n      0xffffffffffffffffffffffffffffffffffffffff\n      mul\n      not\n      and\n      swap1\n      dup4\n      0xffffffffffffffffffffffffffffffffffffffff\n      and\n      mul\n      or\n      swap1\n      sstore\n      pop\n      0x60\n      dup3\n      add\n      mload\n      dup2\n      0x03\n      add\n      sstore\n      pop\n      pop\n        /* \"contracts/PollBetContract.sol\":5990:6000  msg.sender */\n      caller\n        /* \"contracts/PollBetContract.sol\":5941:6012  BetPlaced(_pollId, bytes32ToString(_pollChoice), msg.sender, msg.value) */\n      0xffffffffffffffffffffffffffffffffffffffff\n      and\n        /* \"contracts/PollBetContract.sol\":5951:5958  _pollId */\n      dup4\n        /* \"contracts/PollBetContract.sol\":5941:6012  BetPlaced(_pollId, bytes32ToString(_pollChoice), msg.sender, msg.value) */\n      0xfa643037cee917ec3049f1ba2bfb5d4df493f0b6db3ed68f3716d11233494e7d\n        /* \"contracts/PollBetContract.sol\":5960:5988  bytes32ToString(_pollChoice) */\n      tag_225\n        /* \"contracts/PollBetContract.sol\":5976:5987  _pollChoice */\n      dup6\n        /* \"contracts/PollBetContract.sol\":5960:5975  bytes32ToString */\n      tag_221\n        /* \"contracts/PollBetContract.sol\":5960:5988  bytes32ToString(_pollChoice) */\n      jump\t// in\n    tag_225:\n        /* \"contracts/PollBetContract.sol\":6002:6011  msg.value */\n      callvalue\n        /* \"contracts/PollBetContract.sol\":5941:6012  BetPlaced(_pollId, bytes32ToString(_pollChoice), msg.sender, msg.value) */\n      mload(0x40)\n      tag_226\n      swap3\n      swap2\n      swap1\n      tag_227\n      jump\t// in\n    tag_226:\n      mload(0x40)\n      dup1\n      swap2\n      sub\n      swap1\n      log3\n        /* \"contracts/PollBetContract.sol\":4832:6019  { // Data location must be \"memory\" or \"calldata\" for parameter in function, but none was given... */\n      pop\n        /* \"contracts/PollBetContract.sol\":4763:6019  function betOnPoll(uint _pollId, bytes32 _pollChoice) public payable { // Data location must be \"memory\" or \"calldata\" for parameter in function, but none was given... */\n      pop\n      pop\n      jump\t// out\n        /* \"contracts/PollBetContract.sol\":1552:1608  mapping(uint => mapping(address => Voter)) public voters */\n    tag_101:\n      mstore(0x20, 0x08)\n      dup2\n      0x00\n      mstore\n      mstore(0x20, keccak256(0x00, 0x40))\n      dup1\n      0x00\n      mstore\n      keccak256(0x00, 0x40)\n      0x00\n      swap2\n      pop\n      swap2\n      pop\n      pop\n      dup1\n      0x00\n      add\n      sload\n      swap1\n      dup1\n      0x01\n      add\n      0x00\n      swap1\n      sload\n      swap1\n      0x0100\n      exp\n      swap1\n      div\n      0xffffffffffffffffffffffffffffffffffffffff\n      and\n      swap1\n      dup1\n      0x02\n      add\n      sload\n      swap1\n      pop\n      dup4\n      jump\t// out\n        /* \"contracts/PollBetContract.sol\":1768:1792  uint[] public pollCounts */\n    tag_107:\n      0x0b\n      dup2\n      dup2\n      sload\n      dup2\n      lt\n      tag_228\n      jumpi\n      0x00\n      dup1\n      revert\n    tag_228:\n      swap1\n      0x00\n      mstore\n      keccak256(0x00, 0x20)\n      add\n      0x00\n      swap2\n      pop\n      swap1\n      pop\n      sload\n      dup2\n      jump\t// out\n        /* \"contracts/PollBetContract.sol\":6424:6953  function getOdds(uint _pollId, string calldata _pollChoice) public view returns(uint){... */\n    tag_113:\n        /* \"contracts/PollBetContract.sol\":6504:6508  uint */\n      0x00\n        /* \"contracts/PollBetContract.sol\":6519:6541  uint totalChoiceAmount */\n      dup1\n        /* \"contracts/PollBetContract.sol\":6544:6545  0 */\n      0x00\n        /* \"contracts/PollBetContract.sol\":6519:6545  uint totalChoiceAmount = 0 */\n      swap1\n      pop\n        /* \"contracts/PollBetContract.sol\":6555:6573  Bet[] storage bets */\n      0x00\n        /* \"contracts/PollBetContract.sol\":6576:6588  pollBetsList */\n      0x06\n        /* \"contracts/PollBetContract.sol\":6576:6597  pollBetsList[_pollId] */\n      0x00\n        /* \"contracts/PollBetContract.sol\":6589:6596  _pollId */\n      dup8\n        /* \"contracts/PollBetContract.sol\":6576:6597  pollBetsList[_pollId] */\n      dup2\n      mstore\n      0x20\n      add\n      swap1\n      dup2\n      mstore\n      0x20\n      add\n      0x00\n      keccak256\n        /* \"contracts/PollBetContract.sol\":6555:6597  Bet[] storage bets = pollBetsList[_pollId] */\n      swap1\n      pop\n        /* \"contracts/PollBetContract.sol\":6612:6618  uint i */\n      0x00\n        /* \"contracts/PollBetContract.sol\":6607:6813  for (uint i = 0; i < bets.length; i++) {... */\n    tag_231:\n        /* \"contracts/PollBetContract.sol\":6628:6632  bets */\n      dup2\n        /* \"contracts/PollBetContract.sol\":6628:6639  bets.length */\n      dup1\n      sload\n      swap1\n      pop\n        /* \"contracts/PollBetContract.sol\":6624:6625  i */\n      dup2\n        /* \"contracts/PollBetContract.sol\":6624:6639  i < bets.length */\n      lt\n        /* \"contracts/PollBetContract.sol\":6607:6813  for (uint i = 0; i < bets.length; i++) {... */\n      iszero\n      tag_232\n      jumpi\n        /* \"contracts/PollBetContract.sol\":6720:6731  _pollChoice */\n      dup6\n      dup6\n        /* \"contracts/PollBetContract.sol\":6704:6733  keccak256(bytes(_pollChoice)) */\n      mload(0x40)\n      tag_234\n      swap3\n      swap2\n      swap1\n      tag_235\n      jump\t// in\n    tag_234:\n      mload(0x40)\n      dup1\n      swap2\n      sub\n      swap1\n      keccak256\n        /* \"contracts/PollBetContract.sol\":6680:6684  bets */\n      dup3\n        /* \"contracts/PollBetContract.sol\":6685:6686  i */\n      dup3\n        /* \"contracts/PollBetContract.sol\":6680:6687  bets[i] */\n      dup2\n      sload\n      dup2\n      lt\n      tag_236\n      jumpi\n      tag_237\n      tag_133\n      jump\t// in\n    tag_237:\n    tag_236:\n      swap1\n      0x00\n      mstore\n      keccak256(0x00, 0x20)\n      swap1\n      0x04\n      mul\n      add\n        /* \"contracts/PollBetContract.sol\":6680:6698  bets[i].pollChoice */\n      0x01\n      add\n        /* \"contracts/PollBetContract.sol\":6664:6700  keccak256(bytes(bets[i].pollChoice)) */\n      mload(0x40)\n      tag_239\n      swap2\n      swap1\n      tag_211\n      jump\t// in\n    tag_239:\n      mload(0x40)\n      dup1\n      swap2\n      sub\n      swap1\n      keccak256\n        /* \"contracts/PollBetContract.sol\":6664:6733  keccak256(bytes(bets[i].pollChoice)) == keccak256(bytes(_pollChoice)) */\n      sub\n        /* \"contracts/PollBetContract.sol\":6660:6803  if (keccak256(bytes(bets[i].pollChoice)) == keccak256(bytes(_pollChoice))) {... */\n      tag_240\n      jumpi\n        /* \"contracts/PollBetContract.sol\":6774:6778  bets */\n      dup2\n        /* \"contracts/PollBetContract.sol\":6779:6780  i */\n      dup2\n        /* \"contracts/PollBetContract.sol\":6774:6781  bets[i] */\n      dup2\n      sload\n      dup2\n      lt\n      tag_241\n      jumpi\n      tag_242\n      tag_133\n      jump\t// in\n    tag_242:\n    tag_241:\n      swap1\n      0x00\n      mstore\n      keccak256(0x00, 0x20)\n      swap1\n      0x04\n      mul\n      add\n        /* \"contracts/PollBetContract.sol\":6774:6788  bets[i].amount */\n      0x03\n      add\n      sload\n        /* \"contracts/PollBetContract.sol\":6753:6788  totalChoiceAmount += bets[i].amount */\n      dup4\n      tag_244\n      swap2\n      swap1\n      tag_136\n      jump\t// in\n    tag_244:\n      swap3\n      pop\n        /* \"contracts/PollBetContract.sol\":6660:6803  if (keccak256(bytes(bets[i].pollChoice)) == keccak256(bytes(_pollChoice))) {... */\n    tag_240:\n        /* \"contracts/PollBetContract.sol\":6641:6644  i++ */\n      dup1\n      dup1\n      tag_245\n      swap1\n      tag_138\n      jump\t// in\n    tag_245:\n      swap2\n      pop\n      pop\n        /* \"contracts/PollBetContract.sol\":6607:6813  for (uint i = 0; i < bets.length; i++) {... */\n      jump(tag_231)\n    tag_232:\n      pop\n        /* \"contracts/PollBetContract.sol\":6822:6841  uint totalBetAmount */\n      0x00\n        /* \"contracts/PollBetContract.sol\":6844:6870  getTotalBetAmount(_pollId) */\n      tag_246\n        /* \"contracts/PollBetContract.sol\":6862:6869  _pollId */\n      dup8\n        /* \"contracts/PollBetContract.sol\":6844:6861  getTotalBetAmount */\n      tag_36\n        /* \"contracts/PollBetContract.sol\":6844:6870  getTotalBetAmount(_pollId) */\n      jump\t// in\n    tag_246:\n        /* \"contracts/PollBetContract.sol\":6822:6870  uint totalBetAmount = getTotalBetAmount(_pollId) */\n      swap1\n      pop\n        /* \"contracts/PollBetContract.sol\":6904:6905  0 */\n      0x00\n        /* \"contracts/PollBetContract.sol\":6887:6901  totalBetAmount */\n      dup2\n        /* \"contracts/PollBetContract.sol\":6887:6905  totalBetAmount > 0 */\n      gt\n        /* \"contracts/PollBetContract.sol\":6887:6946  totalBetAmount > 0 ? totalChoiceAmount / totalBetAmount : 0 */\n      tag_247\n      jumpi\n        /* \"contracts/PollBetContract.sol\":6945:6946  0 */\n      0x00\n        /* \"contracts/PollBetContract.sol\":6887:6946  totalBetAmount > 0 ? totalChoiceAmount / totalBetAmount : 0 */\n      jump(tag_248)\n    tag_247:\n        /* \"contracts/PollBetContract.sol\":6928:6942  totalBetAmount */\n      dup1\n        /* \"contracts/PollBetContract.sol\":6908:6925  totalChoiceAmount */\n      dup4\n        /* \"contracts/PollBetContract.sol\":6908:6942  totalChoiceAmount / totalBetAmount */\n      tag_249\n      swap2\n      swap1\n      tag_250\n      jump\t// in\n    tag_249:\n        /* \"contracts/PollBetContract.sol\":6887:6946  totalBetAmount > 0 ? totalChoiceAmount / totalBetAmount : 0 */\n    tag_248:\n        /* \"contracts/PollBetContract.sol\":6880:6946  return totalBetAmount > 0 ? totalChoiceAmount / totalBetAmount : 0 */\n      swap4\n      pop\n      pop\n      pop\n      pop\n        /* \"contracts/PollBetContract.sol\":6424:6953  function getOdds(uint _pollId, string calldata _pollChoice) public view returns(uint){... */\n      swap4\n      swap3\n      pop\n      pop\n      pop\n      jump\t// out\n        /* \"contracts/PollBetContract.sol\":1166:1186  uint public betCount */\n    tag_117:\n      sload(0x01)\n      dup2\n      jump\t// out\n        /* \"contracts/PollBetContract.sol\":1798:3261  function createPoll(uint _startTime, uint _endTime, string[] memory _options) public {... */\n    tag_123:\n        /* \"contracts/PollBetContract.sol\":1906:1921  block.timestamp */\n      timestamp\n        /* \"contracts/PollBetContract.sol\":1893:1921  _startTime = block.timestamp */\n      swap3\n      pop\n        /* \"contracts/PollBetContract.sol\":1960:1965  86400 */\n      0x015180\n        /* \"contracts/PollBetContract.sol\":1942:1957  block.timestamp */\n      timestamp\n        /* \"contracts/PollBetContract.sol\":1942:1965  block.timestamp + 86400 */\n      tag_252\n      swap2\n      swap1\n      tag_136\n      jump\t// in\n    tag_252:\n        /* \"contracts/PollBetContract.sol\":1931:1965  _endTime = block.timestamp + 86400 */\n      swap2\n      pop\n        /* \"contracts/PollBetContract.sol\":2003:2013  _startTime */\n      dup3\n        /* \"contracts/PollBetContract.sol\":1992:2000  _endTime */\n      dup3\n        /* \"contracts/PollBetContract.sol\":1992:2013  _endTime > _startTime */\n      gt\n        /* \"contracts/PollBetContract.sol\":1984:2039  require(_endTime > _startTime, \"Invalid poll end time\") */\n      tag_253\n      jumpi\n      mload(0x40)\n      0x08c379a000000000000000000000000000000000000000000000000000000000\n      dup2\n      mstore\n      0x04\n      add\n      tag_254\n      swap1\n      tag_255\n      jump\t// in\n    tag_254:\n      mload(0x40)\n      dup1\n      swap2\n      sub\n      swap1\n      revert\n    tag_253:\n        /* \"contracts/PollBetContract.sol\":2075:2076  1 */\n      0x01\n        /* \"contracts/PollBetContract.sol\":2057:2065  _options */\n      dup2\n        /* \"contracts/PollBetContract.sol\":2057:2072  _options.length */\n      mload\n        /* \"contracts/PollBetContract.sol\":2057:2076  _options.length > 1 */\n      gt\n        /* \"contracts/PollBetContract.sol\":2049:2110  require(_options.length > 1, \"At least two options required\") */\n      tag_256\n      jumpi\n      mload(0x40)\n      0x08c379a000000000000000000000000000000000000000000000000000000000\n      dup2\n      mstore\n      0x04\n      add\n      tag_257\n      swap1\n      tag_258\n      jump\t// in\n    tag_257:\n      mload(0x40)\n      dup1\n      swap2\n      sub\n      swap1\n      revert\n    tag_256:\n        /* \"contracts/PollBetContract.sol\":2120:2135  uint numChoices */\n      0x00\n        /* \"contracts/PollBetContract.sol\":2159:2167  _options */\n      dup2\n        /* \"contracts/PollBetContract.sol\":2159:2174  _options.length */\n      mload\n        /* \"contracts/PollBetContract.sol\":2146:2174  numChoices = _options.length */\n      swap1\n      pop\n        /* \"contracts/PollBetContract.sol\":2237:2268  uint[] memory choiceCountsArray */\n      0x00\n        /* \"contracts/PollBetContract.sol\":2282:2292  numChoices */\n      dup2\n        /* \"contracts/PollBetContract.sol\":2271:2293  new uint[](numChoices) */\n      0xffffffffffffffff\n      dup2\n      gt\n      iszero\n      tag_259\n      jumpi\n      tag_260\n      tag_261\n      jump\t// in\n    tag_260:\n    tag_259:\n      mload(0x40)\n      swap1\n      dup1\n      dup3\n      mstore\n      dup1\n      0x20\n      mul\n      0x20\n      add\n      dup3\n      add\n      0x40\n      mstore\n      dup1\n      iszero\n      tag_262\n      jumpi\n      dup2\n      0x20\n      add\n      0x20\n      dup3\n      mul\n      dup1\n      calldatasize\n      dup4\n      calldatacopy\n      dup1\n      dup3\n      add\n      swap2\n      pop\n      pop\n      swap1\n      pop\n    tag_262:\n      pop\n        /* \"contracts/PollBetContract.sol\":2237:2293  uint[] memory choiceCountsArray = new uint[](numChoices) */\n      swap1\n      pop\n        /* \"contracts/PollBetContract.sol\":2406:2426  Poll storage newPoll */\n      0x00\n        /* \"contracts/PollBetContract.sol\":2429:2434  polls */\n      0x0a\n        /* \"contracts/PollBetContract.sol\":2429:2445  polls[pollCount] */\n      0x00\n        /* \"contracts/PollBetContract.sol\":2435:2444  pollCount */\n      dup1\n      sload\n        /* \"contracts/PollBetContract.sol\":2429:2445  polls[pollCount] */\n      dup2\n      mstore\n      0x20\n      add\n      swap1\n      dup2\n      mstore\n      0x20\n      add\n      0x00\n      keccak256\n        /* \"contracts/PollBetContract.sol\":2406:2445  Poll storage newPoll = polls[pollCount] */\n      swap1\n      pop\n        /* \"contracts/PollBetContract.sol\":2473:2483  msg.sender */\n      caller\n        /* \"contracts/PollBetContract.sol\":2455:2462  newPoll */\n      dup2\n        /* \"contracts/PollBetContract.sol\":2455:2470  newPoll.creator */\n      0x01\n      add\n      0x00\n        /* \"contracts/PollBetContract.sol\":2455:2483  newPoll.creator = msg.sender */\n      0x0100\n      exp\n      dup2\n      sload\n      dup2\n      0xffffffffffffffffffffffffffffffffffffffff\n      mul\n      not\n      and\n      swap1\n      dup4\n      0xffffffffffffffffffffffffffffffffffffffff\n      and\n      mul\n      or\n      swap1\n      sstore\n      pop\n        /* \"contracts/PollBetContract.sol\":2513:2528  block.timestamp */\n      timestamp\n        /* \"contracts/PollBetContract.sol\":2493:2500  newPoll */\n      dup2\n        /* \"contracts/PollBetContract.sol\":2493:2510  newPoll.startTime */\n      0x02\n      add\n        /* \"contracts/PollBetContract.sol\":2493:2528  newPoll.startTime = block.timestamp */\n      dup2\n      swap1\n      sstore\n      pop\n        /* \"contracts/PollBetContract.sol\":2574:2579  86400 */\n      0x015180\n        /* \"contracts/PollBetContract.sol\":2556:2571  block.timestamp */\n      timestamp\n        /* \"contracts/PollBetContract.sol\":2556:2579  block.timestamp + 86400 */\n      tag_263\n      swap2\n      swap1\n      tag_136\n      jump\t// in\n    tag_263:\n        /* \"contracts/PollBetContract.sol\":2538:2545  newPoll */\n      dup2\n        /* \"contracts/PollBetContract.sol\":2538:2553  newPoll.endTime */\n      0x03\n      add\n        /* \"contracts/PollBetContract.sol\":2538:2579  newPoll.endTime = block.timestamp + 86400 */\n      dup2\n      swap1\n      sstore\n      pop\n        /* \"contracts/PollBetContract.sol\":2607:2615  _options */\n      dup4\n        /* \"contracts/PollBetContract.sol\":2589:2596  newPoll */\n      dup2\n        /* \"contracts/PollBetContract.sol\":2589:2604  newPoll.choices */\n      0x04\n      add\n        /* \"contracts/PollBetContract.sol\":2589:2615  newPoll.choices = _options */\n      swap1\n      dup1\n      mload\n      swap1\n      0x20\n      add\n      swap1\n      tag_264\n      swap3\n      swap2\n      swap1\n      tag_265\n      jump\t// in\n    tag_264:\n      pop\n        /* \"contracts/PollBetContract.sol\":2648:2665  choiceCountsArray */\n      dup2\n        /* \"contracts/PollBetContract.sol\":2625:2632  newPoll */\n      dup2\n        /* \"contracts/PollBetContract.sol\":2625:2645  newPoll.choiceCounts */\n      0x05\n      add\n        /* \"contracts/PollBetContract.sol\":2625:2665  newPoll.choiceCounts = choiceCountsArray */\n      swap1\n      dup1\n      mload\n      swap1\n      0x20\n      add\n      swap1\n      tag_266\n      swap3\n      swap2\n      swap1\n      tag_267\n      jump\t// in\n    tag_266:\n      pop\n        /* \"contracts/PollBetContract.sol\":2692:2696  true */\n      0x01\n        /* \"contracts/PollBetContract.sol\":2675:2682  newPoll */\n      dup2\n        /* \"contracts/PollBetContract.sol\":2675:2689  newPoll.isOpen */\n      0x06\n      add\n      0x00\n        /* \"contracts/PollBetContract.sol\":2675:2696  newPoll.isOpen = true */\n      0x0100\n      exp\n      dup2\n      sload\n      dup2\n      0xff\n      mul\n      not\n      and\n      swap1\n      dup4\n      iszero\n      iszero\n      mul\n      or\n      swap1\n      sstore\n      pop\n        /* \"contracts/PollBetContract.sol\":2706:2716  pollCounts */\n      0x0b\n        /* \"contracts/PollBetContract.sol\":2722:2731  pollCount */\n      sload(0x00)\n        /* \"contracts/PollBetContract.sol\":2706:2732  pollCounts.push(pollCount) */\n      swap1\n      dup1\n      0x01\n      dup2\n      sload\n      add\n      dup1\n      dup3\n      sstore\n      dup1\n      swap2\n      pop\n      pop\n      0x01\n      swap1\n      sub\n      swap1\n      0x00\n      mstore\n      keccak256(0x00, 0x20)\n      add\n      0x00\n      swap1\n      swap2\n      swap1\n      swap2\n      swap1\n      swap2\n      pop\n      sstore\n        /* \"contracts/PollBetContract.sol\":2770:2780  msg.sender */\n      caller\n        /* \"contracts/PollBetContract.sol\":2747:2813  PollCreated(pollCount, msg.sender, _startTime, _endTime, _options) */\n      0xffffffffffffffffffffffffffffffffffffffff\n      and\n        /* \"contracts/PollBetContract.sol\":2759:2768  pollCount */\n      sload(0x00)\n        /* \"contracts/PollBetContract.sol\":2747:2813  PollCreated(pollCount, msg.sender, _startTime, _endTime, _options) */\n      0x58d87e181e9ac91f8ccda34caaf4c15db2a9fc345a86ea48e378d6e4359dfdb9\n        /* \"contracts/PollBetContract.sol\":2782:2792  _startTime */\n      dup9\n        /* \"contracts/PollBetContract.sol\":2794:2802  _endTime */\n      dup9\n        /* \"contracts/PollBetContract.sol\":2804:2812  _options */\n      dup9\n        /* \"contracts/PollBetContract.sol\":2747:2813  PollCreated(pollCount, msg.sender, _startTime, _endTime, _options) */\n      mload(0x40)\n      tag_269\n      swap4\n      swap3\n      swap2\n      swap1\n      tag_270\n      jump\t// in\n    tag_269:\n      mload(0x40)\n      dup1\n      swap2\n      sub\n      swap1\n      log3\n        /* \"contracts/PollBetContract.sol\":2823:2832  pollCount */\n      0x00\n      dup1\n        /* \"contracts/PollBetContract.sol\":2823:2834  pollCount++ */\n      dup2\n      sload\n      dup1\n      swap3\n      swap2\n      swap1\n      tag_271\n      swap1\n      tag_138\n      jump\t// in\n    tag_271:\n      swap2\n      swap1\n      pop\n      sstore\n      pop\n        /* \"contracts/PollBetContract.sol\":1883:3261  {... */\n      pop\n      pop\n      pop\n        /* \"contracts/PollBetContract.sol\":1798:3261  function createPoll(uint _startTime, uint _endTime, string[] memory _options) public {... */\n      pop\n      pop\n      pop\n      jump\t// out\n        /* \"contracts/PollBetContract.sol\":6958:6988  function closePoll() public {} */\n    tag_126:\n      jump\t// out\n        /* \"contracts/PollBetContract.sol\":7436:7570  function addVoterAddressSet(uint _pollId, address _voterAddress) private {... */\n    tag_176:\n        /* \"contracts/PollBetContract.sol\":7519:7563  voterAddressSets[_pollId].add(_voterAddress) */\n      tag_274\n        /* \"contracts/PollBetContract.sol\":7549:7562  _voterAddress */\n      dup2\n        /* \"contracts/PollBetContract.sol\":7519:7535  voterAddressSets */\n      0x09\n        /* \"contracts/PollBetContract.sol\":7519:7544  voterAddressSets[_pollId] */\n      0x00\n        /* \"contracts/PollBetContract.sol\":7536:7543  _pollId */\n      dup6\n        /* \"contracts/PollBetContract.sol\":7519:7544  voterAddressSets[_pollId] */\n      dup2\n      mstore\n      0x20\n      add\n      swap1\n      dup2\n      mstore\n      0x20\n      add\n      0x00\n      keccak256\n        /* \"contracts/PollBetContract.sol\":7519:7548  voterAddressSets[_pollId].add */\n      tag_275\n      swap1\n        /* \"contracts/PollBetContract.sol\":7519:7563  voterAddressSets[_pollId].add(_voterAddress) */\n      swap2\n      swap1\n      0xffffffff\n      and\n      jump\t// in\n    tag_274:\n      pop\n        /* \"contracts/PollBetContract.sol\":7436:7570  function addVoterAddressSet(uint _pollId, address _voterAddress) private {... */\n      pop\n      pop\n      jump\t// out\n        /* \"@openzeppelin/contracts/utils/structs/EnumerableSet.sol\":9098:9213  function length(AddressSet storage set) internal view returns (uint256) {... */\n    tag_189:\n        /* \"@openzeppelin/contracts/utils/structs/EnumerableSet.sol\":9161:9168  uint256 */\n      0x00\n        /* \"@openzeppelin/contracts/utils/structs/EnumerableSet.sol\":9187:9206  _length(set._inner) */\n      tag_277\n        /* \"@openzeppelin/contracts/utils/structs/EnumerableSet.sol\":9195:9198  set */\n      dup3\n        /* \"@openzeppelin/contracts/utils/structs/EnumerableSet.sol\":9195:9205  set._inner */\n      0x00\n      add\n        /* \"@openzeppelin/contracts/utils/structs/EnumerableSet.sol\":9187:9194  _length */\n      tag_278\n        /* \"@openzeppelin/contracts/utils/structs/EnumerableSet.sol\":9187:9206  _length(set._inner) */\n      jump\t// in\n    tag_277:\n        /* \"@openzeppelin/contracts/utils/structs/EnumerableSet.sol\":9180:9206  return _length(set._inner) */\n      swap1\n      pop\n        /* \"@openzeppelin/contracts/utils/structs/EnumerableSet.sol\":9098:9213  function length(AddressSet storage set) internal view returns (uint256) {... */\n      swap2\n      swap1\n      pop\n      jump\t// out\n        /* \"contracts/PollBetContract.sol\":7068:7431  function bytes32ToString(bytes32 _bytes32) private pure returns (string memory) {... */\n    tag_221:\n        /* \"contracts/PollBetContract.sol\":7133:7146  string memory */\n      0x60\n        /* \"contracts/PollBetContract.sol\":7158:7165  uint8 i */\n      0x00\n        /* \"contracts/PollBetContract.sol\":7179:7241  while(i < 32 && _bytes32[i] != 0) {... */\n    tag_280:\n        /* \"contracts/PollBetContract.sol\":7189:7191  32 */\n      0x20\n        /* \"contracts/PollBetContract.sol\":7185:7186  i */\n      dup2\n        /* \"contracts/PollBetContract.sol\":7185:7191  i < 32 */\n      0xff\n      and\n      lt\n        /* \"contracts/PollBetContract.sol\":7185:7211  i < 32 && _bytes32[i] != 0 */\n      dup1\n      iszero\n      tag_282\n      jumpi\n      pop\n        /* \"contracts/PollBetContract.sol\":7210:7211  0 */\n      0x00\n        /* \"contracts/PollBetContract.sol\":7195:7211  _bytes32[i] != 0 */\n      0xf8\n      shl\n        /* \"contracts/PollBetContract.sol\":7195:7203  _bytes32 */\n      dup4\n        /* \"contracts/PollBetContract.sol\":7204:7205  i */\n      dup3\n        /* \"contracts/PollBetContract.sol\":7195:7206  _bytes32[i] */\n      0xff\n      and\n      0x20\n      dup2\n      lt\n      tag_283\n      jumpi\n      tag_284\n      tag_133\n      jump\t// in\n    tag_284:\n    tag_283:\n      byte\n      0xf8\n      shl\n        /* \"contracts/PollBetContract.sol\":7195:7211  _bytes32[i] != 0 */\n      not(0xffffffffffffffffffffffffffffffffffffffffffffffffffffffffffffff)\n      and\n      eq\n      iszero\n        /* \"contracts/PollBetContract.sol\":7185:7211  i < 32 && _bytes32[i] != 0 */\n    tag_282:\n        /* \"contracts/PollBetContract.sol\":7179:7241  while(i < 32 && _bytes32[i] != 0) {... */\n      iszero\n      tag_281\n      jumpi\n        /* \"contracts/PollBetContract.sol\":7227:7230  i++ */\n      dup1\n      dup1\n      tag_285\n      swap1\n      tag_286\n      jump\t// in\n    tag_285:\n      swap2\n      pop\n      pop\n        /* \"contracts/PollBetContract.sol\":7179:7241  while(i < 32 && _bytes32[i] != 0) {... */\n      jump(tag_280)\n    tag_281:\n        /* \"contracts/PollBetContract.sol\":7250:7273  bytes memory bytesArray */\n      0x00\n        /* \"contracts/PollBetContract.sol\":7286:7287  i */\n      dup2\n        /* \"contracts/PollBetContract.sol\":7276:7288  new bytes(i) */\n      0xff\n      and\n      0xffffffffffffffff\n      dup2\n      gt\n      iszero\n      tag_287\n      jumpi\n      tag_288\n      tag_261\n      jump\t// in\n    tag_288:\n    tag_287:\n      mload(0x40)\n      swap1\n      dup1\n      dup3\n      mstore\n      dup1\n      0x1f\n      add\n      not(0x1f)\n      and\n      0x20\n      add\n      dup3\n      add\n      0x40\n      mstore\n      dup1\n      iszero\n      tag_289\n      jumpi\n      dup2\n      0x20\n      add\n      0x01\n      dup3\n      mul\n      dup1\n      calldatasize\n      dup4\n      calldatacopy\n      dup1\n      dup3\n      add\n      swap2\n      pop\n      pop\n      swap1\n      pop\n    tag_289:\n      pop\n        /* \"contracts/PollBetContract.sol\":7250:7288  bytes memory bytesArray = new bytes(i) */\n      swap1\n      pop\n        /* \"contracts/PollBetContract.sol\":7307:7308  0 */\n      0x00\n        /* \"contracts/PollBetContract.sol\":7303:7308  i = 0 */\n      swap2\n      pop\n        /* \"contracts/PollBetContract.sol\":7298:7390  for (i = 0; i < bytesArray.length; i++) {... */\n    tag_290:\n        /* \"contracts/PollBetContract.sol\":7314:7324  bytesArray */\n      dup1\n        /* \"contracts/PollBetContract.sol\":7314:7331  bytesArray.length */\n      mload\n        /* \"contracts/PollBetContract.sol\":7310:7311  i */\n      dup3\n        /* \"contracts/PollBetContract.sol\":7310:7331  i < bytesArray.length */\n      0xff\n      and\n      lt\n        /* \"contracts/PollBetContract.sol\":7298:7390  for (i = 0; i < bytesArray.length; i++) {... */\n      iszero\n      tag_291\n      jumpi\n        /* \"contracts/PollBetContract.sol\":7368:7376  _bytes32 */\n      dup4\n        /* \"contracts/PollBetContract.sol\":7377:7378  i */\n      dup3\n        /* \"contracts/PollBetContract.sol\":7368:7379  _bytes32[i] */\n      0xff\n      and\n      0x20\n      dup2\n      lt\n      tag_293\n      jumpi\n      tag_294\n      tag_133\n      jump\t// in\n    tag_294:\n    tag_293:\n      byte\n      0xf8\n      shl\n        /* \"contracts/PollBetContract.sol\":7352:7362  bytesArray */\n      dup2\n        /* \"contracts/PollBetContract.sol\":7363:7364  i */\n      dup4\n        /* \"contracts/PollBetContract.sol\":7352:7365  bytesArray[i] */\n      0xff\n      and\n      dup2\n      mload\n      dup2\n      lt\n      tag_295\n      jumpi\n      tag_296\n      tag_133\n      jump\t// in\n    tag_296:\n    tag_295:\n      0x20\n      add\n      add\n        /* \"contracts/PollBetContract.sol\":7352:7379  bytesArray[i] = _bytes32[i] */\n      swap1\n      not(0xffffffffffffffffffffffffffffffffffffffffffffffffffffffffffffff)\n      and\n      swap1\n      dup2\n      0x00\n      byte\n      swap1\n      mstore8\n      pop\n        /* \"contracts/PollBetContract.sol\":7333:7336  i++ */\n      dup2\n      dup1\n      tag_297\n      swap1\n      tag_286\n      jump\t// in\n    tag_297:\n      swap3\n      pop\n      pop\n        /* \"contracts/PollBetContract.sol\":7298:7390  for (i = 0; i < bytesArray.length; i++) {... */\n      jump(tag_290)\n    tag_291:\n        /* \"contracts/PollBetContract.sol\":7413:7423  bytesArray */\n      dup1\n        /* \"contracts/PollBetContract.sol\":7399:7424  return string(bytesArray) */\n      swap3\n      pop\n      pop\n      pop\n        /* \"contracts/PollBetContract.sol\":7068:7431  function bytes32ToString(bytes32 _bytes32) private pure returns (string memory) {... */\n      swap2\n      swap1\n      pop\n      jump\t// out\n        /* \"@openzeppelin/contracts/utils/structs/EnumerableSet.sol\":8297:8447  function add(AddressSet storage set, address value) internal returns (bool) {... */\n    tag_275:\n        /* \"@openzeppelin/contracts/utils/structs/EnumerableSet.sol\":8367:8371  bool */\n      0x00\n        /* \"@openzeppelin/contracts/utils/structs/EnumerableSet.sol\":8390:8440  _add(set._inner, bytes32(uint256(uint160(value)))) */\n      tag_299\n        /* \"@openzeppelin/contracts/utils/structs/EnumerableSet.sol\":8395:8398  set */\n      dup4\n        /* \"@openzeppelin/contracts/utils/structs/EnumerableSet.sol\":8395:8405  set._inner */\n      0x00\n      add\n        /* \"@openzeppelin/contracts/utils/structs/EnumerableSet.sol\":8431:8436  value */\n      dup4\n        /* \"@openzeppelin/contracts/utils/structs/EnumerableSet.sol\":8415:8438  uint256(uint160(value)) */\n      0xffffffffffffffffffffffffffffffffffffffff\n      and\n        /* \"@openzeppelin/contracts/utils/structs/EnumerableSet.sol\":8407:8439  bytes32(uint256(uint160(value))) */\n      0x00\n      shl\n        /* \"@openzeppelin/contracts/utils/structs/EnumerableSet.sol\":8390:8394  _add */\n      tag_300\n        /* \"@openzeppelin/contracts/utils/structs/EnumerableSet.sol\":8390:8440  _add(set._inner, bytes32(uint256(uint160(value)))) */\n      jump\t// in\n    tag_299:\n        /* \"@openzeppelin/contracts/utils/structs/EnumerableSet.sol\":8383:8440  return _add(set._inner, bytes32(uint256(uint160(value)))) */\n      swap1\n      pop\n        /* \"@openzeppelin/contracts/utils/structs/EnumerableSet.sol\":8297:8447  function add(AddressSet storage set, address value) internal returns (bool) {... */\n      swap3\n      swap2\n      pop\n      pop\n      jump\t// out\n        /* \"@openzeppelin/contracts/utils/structs/EnumerableSet.sol\":4455:4562  function _length(Set storage set) private view returns (uint256) {... */\n    tag_278:\n        /* \"@openzeppelin/contracts/utils/structs/EnumerableSet.sol\":4511:4518  uint256 */\n      0x00\n        /* \"@openzeppelin/contracts/utils/structs/EnumerableSet.sol\":4537:4540  set */\n      dup2\n        /* \"@openzeppelin/contracts/utils/structs/EnumerableSet.sol\":4537:4548  set._values */\n      0x00\n      add\n        /* \"@openzeppelin/contracts/utils/structs/EnumerableSet.sol\":4537:4555  set._values.length */\n      dup1\n      sload\n      swap1\n      pop\n        /* \"@openzeppelin/contracts/utils/structs/EnumerableSet.sol\":4530:4555  return set._values.length */\n      swap1\n      pop\n        /* \"@openzeppelin/contracts/utils/structs/EnumerableSet.sol\":4455:4562  function _length(Set storage set) private view returns (uint256) {... */\n      swap2\n      swap1\n      pop\n      jump\t// out\n        /* \"@openzeppelin/contracts/utils/structs/EnumerableSet.sol\":2206:2610  function _add(Set storage set, bytes32 value) private returns (bool) {... */\n    tag_300:\n        /* \"@openzeppelin/contracts/utils/structs/EnumerableSet.sol\":2269:2273  bool */\n      0x00\n        /* \"@openzeppelin/contracts/utils/structs/EnumerableSet.sol\":2290:2311  _contains(set, value) */\n      tag_303\n        /* \"@openzeppelin/contracts/utils/structs/EnumerableSet.sol\":2300:2303  set */\n      dup4\n        /* \"@openzeppelin/contracts/utils/structs/EnumerableSet.sol\":2305:2310  value */\n      dup4\n        /* \"@openzeppelin/contracts/utils/structs/EnumerableSet.sol\":2290:2299  _contains */\n      tag_304\n        /* \"@openzeppelin/contracts/utils/structs/EnumerableSet.sol\":2290:2311  _contains(set, value) */\n      jump\t// in\n    tag_303:\n        /* \"@openzeppelin/contracts/utils/structs/EnumerableSet.sol\":2285:2604  if (!_contains(set, value)) {... */\n      tag_305\n      jumpi\n        /* \"@openzeppelin/contracts/utils/structs/EnumerableSet.sol\":2327:2330  set */\n      dup3\n        /* \"@openzeppelin/contracts/utils/structs/EnumerableSet.sol\":2327:2338  set._values */\n      0x00\n      add\n        /* \"@openzeppelin/contracts/utils/structs/EnumerableSet.sol\":2344:2349  value */\n      dup3\n        /* \"@openzeppelin/contracts/utils/structs/EnumerableSet.sol\":2327:2350  set._values.push(value) */\n      swap1\n      dup1\n      0x01\n      dup2\n      sload\n      add\n      dup1\n      dup3\n      sstore\n      dup1\n      swap2\n      pop\n      pop\n      0x01\n      swap1\n      sub\n      swap1\n      0x00\n      mstore\n      keccak256(0x00, 0x20)\n      add\n      0x00\n      swap1\n      swap2\n      swap1\n      swap2\n      swap1\n      swap2\n      pop\n      sstore\n        /* \"@openzeppelin/contracts/utils/structs/EnumerableSet.sol\":2507:2510  set */\n      dup3\n        /* \"@openzeppelin/contracts/utils/structs/EnumerableSet.sol\":2507:2518  set._values */\n      0x00\n      add\n        /* \"@openzeppelin/contracts/utils/structs/EnumerableSet.sol\":2507:2525  set._values.length */\n      dup1\n      sload\n      swap1\n      pop\n        /* \"@openzeppelin/contracts/utils/structs/EnumerableSet.sol\":2485:2488  set */\n      dup4\n        /* \"@openzeppelin/contracts/utils/structs/EnumerableSet.sol\":2485:2497  set._indexes */\n      0x01\n      add\n        /* \"@openzeppelin/contracts/utils/structs/EnumerableSet.sol\":2485:2504  set._indexes[value] */\n      0x00\n        /* \"@openzeppelin/contracts/utils/structs/EnumerableSet.sol\":2498:2503  value */\n      dup5\n        /* \"@openzeppelin/contracts/utils/structs/EnumerableSet.sol\":2485:2504  set._indexes[value] */\n      dup2\n      mstore\n      0x20\n      add\n      swap1\n      dup2\n      mstore\n      0x20\n      add\n      0x00\n      keccak256\n        /* \"@openzeppelin/contracts/utils/structs/EnumerableSet.sol\":2485:2525  set._indexes[value] = set._values.length */\n      dup2\n      swap1\n      sstore\n      pop\n        /* \"@openzeppelin/contracts/utils/structs/EnumerableSet.sol\":2546:2550  true */\n      0x01\n        /* \"@openzeppelin/contracts/utils/structs/EnumerableSet.sol\":2539:2550  return true */\n      swap1\n      pop\n      jump(tag_302)\n        /* \"@openzeppelin/contracts/utils/structs/EnumerableSet.sol\":2285:2604  if (!_contains(set, value)) {... */\n    tag_305:\n        /* \"@openzeppelin/contracts/utils/structs/EnumerableSet.sol\":2588:2593  false */\n      0x00\n        /* \"@openzeppelin/contracts/utils/structs/EnumerableSet.sol\":2581:2593  return false */\n      swap1\n      pop\n        /* \"@openzeppelin/contracts/utils/structs/EnumerableSet.sol\":2206:2610  function _add(Set storage set, bytes32 value) private returns (bool) {... */\n    tag_302:\n      swap3\n      swap2\n      pop\n      pop\n      jump\t// out\n        /* \"@openzeppelin/contracts/utils/structs/EnumerableSet.sol\":4247:4374  function _contains(Set storage set, bytes32 value) private view returns (bool) {... */\n    tag_304:\n        /* \"@openzeppelin/contracts/utils/structs/EnumerableSet.sol\":4320:4324  bool */\n      0x00\n        /* \"@openzeppelin/contracts/utils/structs/EnumerableSet.sol\":4366:4367  0 */\n      dup1\n        /* \"@openzeppelin/contracts/utils/structs/EnumerableSet.sol\":4343:4346  set */\n      dup4\n        /* \"@openzeppelin/contracts/utils/structs/EnumerableSet.sol\":4343:4355  set._indexes */\n      0x01\n      add\n        /* \"@openzeppelin/contracts/utils/structs/EnumerableSet.sol\":4343:4362  set._indexes[value] */\n      0x00\n        /* \"@openzeppelin/contracts/utils/structs/EnumerableSet.sol\":4356:4361  value */\n      dup5\n        /* \"@openzeppelin/contracts/utils/structs/EnumerableSet.sol\":4343:4362  set._indexes[value] */\n      dup2\n      mstore\n      0x20\n      add\n      swap1\n      dup2\n      mstore\n      0x20\n      add\n      0x00\n      keccak256\n      sload\n        /* \"@openzeppelin/contracts/utils/structs/EnumerableSet.sol\":4343:4367  set._indexes[value] != 0 */\n      eq\n      iszero\n        /* \"@openzeppelin/contracts/utils/structs/EnumerableSet.sol\":4336:4367  return set._indexes[value] != 0 */\n      swap1\n      pop\n        /* \"@openzeppelin/contracts/utils/structs/EnumerableSet.sol\":4247:4374  function _contains(Set storage set, bytes32 value) private view returns (bool) {... */\n      swap3\n      swap2\n      pop\n      pop\n      jump\t// out\n    tag_140:\n      mload(0x40)\n      dup1\n      0xe0\n      add\n      0x40\n      mstore\n      dup1\n      0x00\n      dup2\n      mstore\n      0x20\n      add\n      and(0xffffffffffffffffffffffffffffffffffffffff, 0x00)\n      dup2\n      mstore\n      0x20\n      add\n      0x00\n      dup2\n      mstore\n      0x20\n      add\n      0x00\n      dup2\n      mstore\n      0x20\n      add\n      0x60\n      dup2\n      mstore\n      0x20\n      add\n      0x60\n      dup2\n      mstore\n      0x20\n      add\n      iszero(iszero(0x00))\n      dup2\n      mstore\n      pop\n      swap1\n      jump\t// out\n    tag_265:\n      dup3\n      dup1\n      sload\n      dup3\n      dup3\n      sstore\n      swap1\n      0x00\n      mstore\n      keccak256(0x00, 0x20)\n      swap1\n      dup2\n      add\n      swap3\n      dup3\n      iszero\n      tag_309\n      jumpi\n      swap2\n      0x20\n      mul\n      dup3\n      add\n    tag_310:\n      dup3\n      dup2\n      gt\n      iszero\n      tag_311\n      jumpi\n      dup3\n      mload\n      dup3\n      swap1\n      dup2\n      tag_312\n      swap2\n      swap1\n      tag_224\n      jump\t// in\n    tag_312:\n      pop\n      swap2\n      0x20\n      add\n      swap2\n      swap1\n      0x01\n      add\n      swap1\n      jump(tag_310)\n    tag_311:\n    tag_309:\n      pop\n      swap1\n      pop\n      tag_313\n      swap2\n      swap1\n      tag_314\n      jump\t// in\n    tag_313:\n      pop\n      swap1\n      jump\t// out\n    tag_267:\n      dup3\n      dup1\n      sload\n      dup3\n      dup3\n      sstore\n      swap1\n      0x00\n      mstore\n      keccak256(0x00, 0x20)\n      swap1\n      dup2\n      add\n      swap3\n      dup3\n      iszero\n      tag_315\n      jumpi\n      swap2\n      0x20\n      mul\n      dup3\n      add\n    tag_316:\n      dup3\n      dup2\n      gt\n      iszero\n      tag_317\n      jumpi\n      dup3\n      mload\n      dup3\n      sstore\n      swap2\n      0x20\n      add\n      swap2\n      swap1\n      0x01\n      add\n      swap1\n      jump(tag_316)\n    tag_317:\n    tag_315:\n      pop\n      swap1\n      pop\n      tag_318\n      swap2\n      swap1\n      tag_319\n      jump\t// in\n    tag_318:\n      pop\n      swap1\n      jump\t// out\n    tag_314:\n    tag_320:\n      dup1\n      dup3\n      gt\n      iszero\n      tag_321\n      jumpi\n      0x00\n      dup2\n      dup2\n      tag_322\n      swap2\n      swap1\n      tag_323\n      jump\t// in\n    tag_322:\n      pop\n      0x01\n      add\n      jump(tag_320)\n    tag_321:\n      pop\n      swap1\n      jump\t// out\n    tag_319:\n    tag_324:\n      dup1\n      dup3\n      gt\n      iszero\n      tag_325\n      jumpi\n      0x00\n      dup2\n      0x00\n      swap1\n      sstore\n      pop\n      0x01\n      add\n      jump(tag_324)\n    tag_325:\n      pop\n      swap1\n      jump\t// out\n    tag_323:\n      pop\n      dup1\n      sload\n      tag_326\n      swap1\n      tag_146\n      jump\t// in\n    tag_326:\n      0x00\n      dup3\n      sstore\n      dup1\n      0x1f\n      lt\n      tag_328\n      jumpi\n      pop\n      jump(tag_327)\n    tag_328:\n      0x1f\n      add\n      0x20\n      swap1\n      div\n      swap1\n      0x00\n      mstore\n      keccak256(0x00, 0x20)\n      swap1\n      dup2\n      add\n      swap1\n      tag_329\n      swap2\n      swap1\n      tag_319\n      jump\t// in\n    tag_329:\n    tag_327:\n      pop\n      jump\t// out\n        /* \"#utility.yul\":7:82   */\n    tag_330:\n        /* \"#utility.yul\":40:46   */\n      0x00\n        /* \"#utility.yul\":73:75   */\n      0x40\n        /* \"#utility.yul\":67:76   */\n      mload\n        /* \"#utility.yul\":57:76   */\n      swap1\n      pop\n        /* \"#utility.yul\":7:82   */\n      swap1\n      jump\t// out\n        /* \"#utility.yul\":88:205   */\n    tag_331:\n        /* \"#utility.yul\":197:198   */\n      0x00\n        /* \"#utility.yul\":194:195   */\n      dup1\n        /* \"#utility.yul\":187:199   */\n      revert\n        /* \"#utility.yul\":211:328   */\n    tag_332:\n        /* \"#utility.yul\":320:321   */\n      0x00\n        /* \"#utility.yul\":317:318   */\n      dup1\n        /* \"#utility.yul\":310:322   */\n      revert\n        /* \"#utility.yul\":334:411   */\n    tag_333:\n        /* \"#utility.yul\":371:378   */\n      0x00\n        /* \"#utility.yul\":400:405   */\n      dup2\n        /* \"#utility.yul\":389:405   */\n      swap1\n      pop\n        /* \"#utility.yul\":334:411   */\n      swap2\n      swap1\n      pop\n      jump\t// out\n        /* \"#utility.yul\":417:539   */\n    tag_334:\n        /* \"#utility.yul\":490:514   */\n      tag_435\n        /* \"#utility.yul\":508:513   */\n      dup2\n        /* \"#utility.yul\":490:514   */\n      tag_333\n      jump\t// in\n    tag_435:\n        /* \"#utility.yul\":483:488   */\n      dup2\n        /* \"#utility.yul\":480:515   */\n      eq\n        /* \"#utility.yul\":470:533   */\n      tag_436\n      jumpi\n        /* \"#utility.yul\":529:530   */\n      0x00\n        /* \"#utility.yul\":526:527   */\n      dup1\n        /* \"#utility.yul\":519:531   */\n      revert\n        /* \"#utility.yul\":470:533   */\n    tag_436:\n        /* \"#utility.yul\":417:539   */\n      pop\n      jump\t// out\n        /* \"#utility.yul\":545:684   */\n    tag_335:\n        /* \"#utility.yul\":591:596   */\n      0x00\n        /* \"#utility.yul\":629:635   */\n      dup2\n        /* \"#utility.yul\":616:636   */\n      calldataload\n        /* \"#utility.yul\":607:636   */\n      swap1\n      pop\n        /* \"#utility.yul\":645:678   */\n      tag_438\n        /* \"#utility.yul\":672:677   */\n      dup2\n        /* \"#utility.yul\":645:678   */\n      tag_334\n      jump\t// in\n    tag_438:\n        /* \"#utility.yul\":545:684   */\n      swap3\n      swap2\n      pop\n      pop\n      jump\t// out\n        /* \"#utility.yul\":690:816   */\n    tag_336:\n        /* \"#utility.yul\":727:734   */\n      0x00\n        /* \"#utility.yul\":767:809   */\n      0xffffffffffffffffffffffffffffffffffffffff\n        /* \"#utility.yul\":760:765   */\n      dup3\n        /* \"#utility.yul\":756:810   */\n      and\n        /* \"#utility.yul\":745:810   */\n      swap1\n      pop\n        /* \"#utility.yul\":690:816   */\n      swap2\n      swap1\n      pop\n      jump\t// out\n        /* \"#utility.yul\":822:918   */\n    tag_337:\n        /* \"#utility.yul\":859:866   */\n      0x00\n        /* \"#utility.yul\":888:912   */\n      tag_441\n        /* \"#utility.yul\":906:911   */\n      dup3\n        /* \"#utility.yul\":888:912   */\n      tag_336\n      jump\t// in\n    tag_441:\n        /* \"#utility.yul\":877:912   */\n      swap1\n      pop\n        /* \"#utility.yul\":822:918   */\n      swap2\n      swap1\n      pop\n      jump\t// out\n        /* \"#utility.yul\":924:1046   */\n    tag_338:\n        /* \"#utility.yul\":997:1021   */\n      tag_443\n        /* \"#utility.yul\":1015:1020   */\n      dup2\n        /* \"#utility.yul\":997:1021   */\n      tag_337\n      jump\t// in\n    tag_443:\n        /* \"#utility.yul\":990:995   */\n      dup2\n        /* \"#utility.yul\":987:1022   */\n      eq\n        /* \"#utility.yul\":977:1040   */\n      tag_444\n      jumpi\n        /* \"#utility.yul\":1036:1037   */\n      0x00\n        /* \"#utility.yul\":1033:1034   */\n      dup1\n        /* \"#utility.yul\":1026:1038   */\n      revert\n        /* \"#utility.yul\":977:1040   */\n    tag_444:\n        /* \"#utility.yul\":924:1046   */\n      pop\n      jump\t// out\n        /* \"#utility.yul\":1052:1191   */\n    tag_339:\n        /* \"#utility.yul\":1098:1103   */\n      0x00\n        /* \"#utility.yul\":1136:1142   */\n      dup2\n        /* \"#utility.yul\":1123:1143   */\n      calldataload\n        /* \"#utility.yul\":1114:1143   */\n      swap1\n      pop\n        /* \"#utility.yul\":1152:1185   */\n      tag_446\n        /* \"#utility.yul\":1179:1184   */\n      dup2\n        /* \"#utility.yul\":1152:1185   */\n      tag_338\n      jump\t// in\n    tag_446:\n        /* \"#utility.yul\":1052:1191   */\n      swap3\n      swap2\n      pop\n      pop\n      jump\t// out\n        /* \"#utility.yul\":1197:1671   */\n    tag_28:\n        /* \"#utility.yul\":1265:1271   */\n      0x00\n        /* \"#utility.yul\":1273:1279   */\n      dup1\n        /* \"#utility.yul\":1322:1324   */\n      0x40\n        /* \"#utility.yul\":1310:1319   */\n      dup4\n        /* \"#utility.yul\":1301:1308   */\n      dup6\n        /* \"#utility.yul\":1297:1320   */\n      sub\n        /* \"#utility.yul\":1293:1325   */\n      slt\n        /* \"#utility.yul\":1290:1409   */\n      iszero\n      tag_448\n      jumpi\n        /* \"#utility.yul\":1328:1407   */\n      tag_449\n      tag_331\n      jump\t// in\n    tag_449:\n        /* \"#utility.yul\":1290:1409   */\n    tag_448:\n        /* \"#utility.yul\":1448:1449   */\n      0x00\n        /* \"#utility.yul\":1473:1526   */\n      tag_450\n        /* \"#utility.yul\":1518:1525   */\n      dup6\n        /* \"#utility.yul\":1509:1515   */\n      dup3\n        /* \"#utility.yul\":1498:1507   */\n      dup7\n        /* \"#utility.yul\":1494:1516   */\n      add\n        /* \"#utility.yul\":1473:1526   */\n      tag_335\n      jump\t// in\n    tag_450:\n        /* \"#utility.yul\":1463:1526   */\n      swap3\n      pop\n        /* \"#utility.yul\":1419:1536   */\n      pop\n        /* \"#utility.yul\":1575:1577   */\n      0x20\n        /* \"#utility.yul\":1601:1654   */\n      tag_451\n        /* \"#utility.yul\":1646:1653   */\n      dup6\n        /* \"#utility.yul\":1637:1643   */\n      dup3\n        /* \"#utility.yul\":1626:1635   */\n      dup7\n        /* \"#utility.yul\":1622:1644   */\n      add\n        /* \"#utility.yul\":1601:1654   */\n      tag_339\n      jump\t// in\n    tag_451:\n        /* \"#utility.yul\":1591:1654   */\n      swap2\n      pop\n        /* \"#utility.yul\":1546:1664   */\n      pop\n        /* \"#utility.yul\":1197:1671   */\n      swap3\n      pop\n      swap3\n      swap1\n      pop\n      jump\t// out\n        /* \"#utility.yul\":1677:1795   */\n    tag_340:\n        /* \"#utility.yul\":1764:1788   */\n      tag_453\n        /* \"#utility.yul\":1782:1787   */\n      dup2\n        /* \"#utility.yul\":1764:1788   */\n      tag_333\n      jump\t// in\n    tag_453:\n        /* \"#utility.yul\":1759:1762   */\n      dup3\n        /* \"#utility.yul\":1752:1789   */\n      mstore\n        /* \"#utility.yul\":1677:1795   */\n      pop\n      pop\n      jump\t// out\n        /* \"#utility.yul\":1801:2023   */\n    tag_31:\n        /* \"#utility.yul\":1894:1898   */\n      0x00\n        /* \"#utility.yul\":1932:1934   */\n      0x20\n        /* \"#utility.yul\":1921:1930   */\n      dup3\n        /* \"#utility.yul\":1917:1935   */\n      add\n        /* \"#utility.yul\":1909:1935   */\n      swap1\n      pop\n        /* \"#utility.yul\":1945:2016   */\n      tag_455\n        /* \"#utility.yul\":2013:2014   */\n      0x00\n        /* \"#utility.yul\":2002:2011   */\n      dup4\n        /* \"#utility.yul\":1998:2015   */\n      add\n        /* \"#utility.yul\":1989:1995   */\n      dup5\n        /* \"#utility.yul\":1945:2016   */\n      tag_340\n      jump\t// in\n    tag_455:\n        /* \"#utility.yul\":1801:2023   */\n      swap3\n      swap2\n      pop\n      pop\n      jump\t// out\n        /* \"#utility.yul\":2029:2358   */\n    tag_35:\n        /* \"#utility.yul\":2088:2094   */\n      0x00\n        /* \"#utility.yul\":2137:2139   */\n      0x20\n        /* \"#utility.yul\":2125:2134   */\n      dup3\n        /* \"#utility.yul\":2116:2123   */\n      dup5\n        /* \"#utility.yul\":2112:2135   */\n      sub\n        /* \"#utility.yul\":2108:2140   */\n      slt\n        /* \"#utility.yul\":2105:2224   */\n      iszero\n      tag_457\n      jumpi\n        /* \"#utility.yul\":2143:2222   */\n      tag_458\n      tag_331\n      jump\t// in\n    tag_458:\n        /* \"#utility.yul\":2105:2224   */\n    tag_457:\n        /* \"#utility.yul\":2263:2264   */\n      0x00\n        /* \"#utility.yul\":2288:2341   */\n      tag_459\n        /* \"#utility.yul\":2333:2340   */\n      dup5\n        /* \"#utility.yul\":2324:2330   */\n      dup3\n        /* \"#utility.yul\":2313:2322   */\n      dup6\n        /* \"#utility.yul\":2309:2331   */\n      add\n        /* \"#utility.yul\":2288:2341   */\n      tag_335\n      jump\t// in\n    tag_459:\n        /* \"#utility.yul\":2278:2341   */\n      swap2\n      pop\n        /* \"#utility.yul\":2234:2351   */\n      pop\n        /* \"#utility.yul\":2029:2358   */\n      swap3\n      swap2\n      pop\n      pop\n      jump\t// out\n        /* \"#utility.yul\":2364:2693   */\n    tag_41:\n        /* \"#utility.yul\":2423:2429   */\n      0x00\n        /* \"#utility.yul\":2472:2474   */\n      0x20\n        /* \"#utility.yul\":2460:2469   */\n      dup3\n        /* \"#utility.yul\":2451:2458   */\n      dup5\n        /* \"#utility.yul\":2447:2470   */\n      sub\n        /* \"#utility.yul\":2443:2475   */\n      slt\n        /* \"#utility.yul\":2440:2559   */\n      iszero\n      tag_461\n      jumpi\n        /* \"#utility.yul\":2478:2557   */\n      tag_462\n      tag_331\n      jump\t// in\n    tag_462:\n        /* \"#utility.yul\":2440:2559   */\n    tag_461:\n        /* \"#utility.yul\":2598:2599   */\n      0x00\n        /* \"#utility.yul\":2623:2676   */\n      tag_463\n        /* \"#utility.yul\":2668:2675   */\n      dup5\n        /* \"#utility.yul\":2659:2665   */\n      dup3\n        /* \"#utility.yul\":2648:2657   */\n      dup6\n        /* \"#utility.yul\":2644:2666   */\n      add\n        /* \"#utility.yul\":2623:2676   */\n      tag_339\n      jump\t// in\n    tag_463:\n        /* \"#utility.yul\":2613:2676   */\n      swap2\n      pop\n        /* \"#utility.yul\":2569:2686   */\n      pop\n        /* \"#utility.yul\":2364:2693   */\n      swap3\n      swap2\n      pop\n      pop\n      jump\t// out\n        /* \"#utility.yul\":2699:2807   */\n    tag_341:\n        /* \"#utility.yul\":2776:2800   */\n      tag_465\n        /* \"#utility.yul\":2794:2799   */\n      dup2\n        /* \"#utility.yul\":2776:2800   */\n      tag_333\n      jump\t// in\n    tag_465:\n        /* \"#utility.yul\":2771:2774   */\n      dup3\n        /* \"#utility.yul\":2764:2801   */\n      mstore\n        /* \"#utility.yul\":2699:2807   */\n      pop\n      pop\n      jump\t// out\n        /* \"#utility.yul\":2813:2921   */\n    tag_342:\n        /* \"#utility.yul\":2890:2914   */\n      tag_467\n        /* \"#utility.yul\":2908:2913   */\n      dup2\n        /* \"#utility.yul\":2890:2914   */\n      tag_337\n      jump\t// in\n    tag_467:\n        /* \"#utility.yul\":2885:2888   */\n      dup3\n        /* \"#utility.yul\":2878:2915   */\n      mstore\n        /* \"#utility.yul\":2813:2921   */\n      pop\n      pop\n      jump\t// out\n        /* \"#utility.yul\":2927:3051   */\n    tag_343:\n        /* \"#utility.yul\":3004:3010   */\n      0x00\n        /* \"#utility.yul\":3038:3043   */\n      dup2\n        /* \"#utility.yul\":3032:3044   */\n      mload\n        /* \"#utility.yul\":3022:3044   */\n      swap1\n      pop\n        /* \"#utility.yul\":2927:3051   */\n      swap2\n      swap1\n      pop\n      jump\t// out\n        /* \"#utility.yul\":3057:3241   */\n    tag_344:\n        /* \"#utility.yul\":3156:3167   */\n      0x00\n        /* \"#utility.yul\":3190:3196   */\n      dup3\n        /* \"#utility.yul\":3185:3188   */\n      dup3\n        /* \"#utility.yul\":3178:3197   */\n      mstore\n        /* \"#utility.yul\":3230:3234   */\n      0x20\n        /* \"#utility.yul\":3225:3228   */\n      dup3\n        /* \"#utility.yul\":3221:3235   */\n      add\n        /* \"#utility.yul\":3206:3235   */\n      swap1\n      pop\n        /* \"#utility.yul\":3057:3241   */\n      swap3\n      swap2\n      pop\n      pop\n      jump\t// out\n        /* \"#utility.yul\":3247:3389   */\n    tag_345:\n        /* \"#utility.yul\":3324:3328   */\n      0x00\n        /* \"#utility.yul\":3347:3350   */\n      dup2\n        /* \"#utility.yul\":3339:3350   */\n      swap1\n      pop\n        /* \"#utility.yul\":3377:3381   */\n      0x20\n        /* \"#utility.yul\":3372:3375   */\n      dup3\n        /* \"#utility.yul\":3368:3382   */\n      add\n        /* \"#utility.yul\":3360:3382   */\n      swap1\n      pop\n        /* \"#utility.yul\":3247:3389   */\n      swap2\n      swap1\n      pop\n      jump\t// out\n        /* \"#utility.yul\":3395:3494   */\n    tag_346:\n        /* \"#utility.yul\":3447:3453   */\n      0x00\n        /* \"#utility.yul\":3481:3486   */\n      dup2\n        /* \"#utility.yul\":3475:3487   */\n      mload\n        /* \"#utility.yul\":3465:3487   */\n      swap1\n      pop\n        /* \"#utility.yul\":3395:3494   */\n      swap2\n      swap1\n      pop\n      jump\t// out\n        /* \"#utility.yul\":3500:3659   */\n    tag_347:\n        /* \"#utility.yul\":3574:3585   */\n      0x00\n        /* \"#utility.yul\":3608:3614   */\n      dup3\n        /* \"#utility.yul\":3603:3606   */\n      dup3\n        /* \"#utility.yul\":3596:3615   */\n      mstore\n        /* \"#utility.yul\":3648:3652   */\n      0x20\n        /* \"#utility.yul\":3643:3646   */\n      dup3\n        /* \"#utility.yul\":3639:3653   */\n      add\n        /* \"#utility.yul\":3624:3653   */\n      swap1\n      pop\n        /* \"#utility.yul\":3500:3659   */\n      swap3\n      swap2\n      pop\n      pop\n      jump\t// out\n        /* \"#utility.yul\":3665:3911   */\n    tag_348:\n        /* \"#utility.yul\":3746:3747   */\n      0x00\n        /* \"#utility.yul\":3756:3869   */\n    tag_474:\n        /* \"#utility.yul\":3770:3776   */\n      dup4\n        /* \"#utility.yul\":3767:3768   */\n      dup2\n        /* \"#utility.yul\":3764:3777   */\n      lt\n        /* \"#utility.yul\":3756:3869   */\n      iszero\n      tag_476\n      jumpi\n        /* \"#utility.yul\":3855:3856   */\n      dup1\n        /* \"#utility.yul\":3850:3853   */\n      dup3\n        /* \"#utility.yul\":3846:3857   */\n      add\n        /* \"#utility.yul\":3840:3858   */\n      mload\n        /* \"#utility.yul\":3836:3837   */\n      dup2\n        /* \"#utility.yul\":3831:3834   */\n      dup5\n        /* \"#utility.yul\":3827:3838   */\n      add\n        /* \"#utility.yul\":3820:3859   */\n      mstore\n        /* \"#utility.yul\":3792:3794   */\n      0x20\n        /* \"#utility.yul\":3789:3790   */\n      dup2\n        /* \"#utility.yul\":3785:3795   */\n      add\n        /* \"#utility.yul\":3780:3795   */\n      swap1\n      pop\n        /* \"#utility.yul\":3756:3869   */\n      jump(tag_474)\n    tag_476:\n        /* \"#utility.yul\":3903:3904   */\n      0x00\n        /* \"#utility.yul\":3894:3900   */\n      dup5\n        /* \"#utility.yul\":3889:3892   */\n      dup5\n        /* \"#utility.yul\":3885:3901   */\n      add\n        /* \"#utility.yul\":3878:3905   */\n      mstore\n        /* \"#utility.yul\":3727:3911   */\n      pop\n        /* \"#utility.yul\":3665:3911   */\n      pop\n      pop\n      pop\n      jump\t// out\n        /* \"#utility.yul\":3917:4019   */\n    tag_349:\n        /* \"#utility.yul\":3958:3964   */\n      0x00\n        /* \"#utility.yul\":4009:4011   */\n      0x1f\n        /* \"#utility.yul\":4005:4012   */\n      not\n        /* \"#utility.yul\":4000:4002   */\n      0x1f\n        /* \"#utility.yul\":3993:3998   */\n      dup4\n        /* \"#utility.yul\":3989:4003   */\n      add\n        /* \"#utility.yul\":3985:4013   */\n      and\n        /* \"#utility.yul\":3975:4013   */\n      swap1\n      pop\n        /* \"#utility.yul\":3917:4019   */\n      swap2\n      swap1\n      pop\n      jump\t// out\n        /* \"#utility.yul\":4025:4382   */\n    tag_350:\n        /* \"#utility.yul\":4103:4106   */\n      0x00\n        /* \"#utility.yul\":4131:4170   */\n      tag_479\n        /* \"#utility.yul\":4164:4169   */\n      dup3\n        /* \"#utility.yul\":4131:4170   */\n      tag_346\n      jump\t// in\n    tag_479:\n        /* \"#utility.yul\":4186:4247   */\n      tag_480\n        /* \"#utility.yul\":4240:4246   */\n      dup2\n        /* \"#utility.yul\":4235:4238   */\n      dup6\n        /* \"#utility.yul\":4186:4247   */\n      tag_347\n      jump\t// in\n    tag_480:\n        /* \"#utility.yul\":4179:4247   */\n      swap4\n      pop\n        /* \"#utility.yul\":4256:4321   */\n      tag_481\n        /* \"#utility.yul\":4314:4320   */\n      dup2\n        /* \"#utility.yul\":4309:4312   */\n      dup6\n        /* \"#utility.yul\":4302:4306   */\n      0x20\n        /* \"#utility.yul\":4295:4300   */\n      dup7\n        /* \"#utility.yul\":4291:4307   */\n      add\n        /* \"#utility.yul\":4256:4321   */\n      tag_348\n      jump\t// in\n    tag_481:\n        /* \"#utility.yul\":4346:4375   */\n      tag_482\n        /* \"#utility.yul\":4368:4374   */\n      dup2\n        /* \"#utility.yul\":4346:4375   */\n      tag_349\n      jump\t// in\n    tag_482:\n        /* \"#utility.yul\":4341:4344   */\n      dup5\n        /* \"#utility.yul\":4337:4376   */\n      add\n        /* \"#utility.yul\":4330:4376   */\n      swap2\n      pop\n        /* \"#utility.yul\":4107:4382   */\n      pop\n        /* \"#utility.yul\":4025:4382   */\n      swap3\n      swap2\n      pop\n      pop\n      jump\t// out\n        /* \"#utility.yul\":4388:4584   */\n    tag_351:\n        /* \"#utility.yul\":4477:4487   */\n      0x00\n        /* \"#utility.yul\":4512:4578   */\n      tag_484\n        /* \"#utility.yul\":4574:4577   */\n      dup4\n        /* \"#utility.yul\":4566:4572   */\n      dup4\n        /* \"#utility.yul\":4512:4578   */\n      tag_350\n      jump\t// in\n    tag_484:\n        /* \"#utility.yul\":4498:4578   */\n      swap1\n      pop\n        /* \"#utility.yul\":4388:4584   */\n      swap3\n      swap2\n      pop\n      pop\n      jump\t// out\n        /* \"#utility.yul\":4590:4713   */\n    tag_352:\n        /* \"#utility.yul\":4670:4674   */\n      0x00\n        /* \"#utility.yul\":4702:4706   */\n      0x20\n        /* \"#utility.yul\":4697:4700   */\n      dup3\n        /* \"#utility.yul\":4693:4707   */\n      add\n        /* \"#utility.yul\":4685:4707   */\n      swap1\n      pop\n        /* \"#utility.yul\":4590:4713   */\n      swap2\n      swap1\n      pop\n      jump\t// out\n        /* \"#utility.yul\":4747:5718   */\n    tag_353:\n        /* \"#utility.yul\":4876:4879   */\n      0x00\n        /* \"#utility.yul\":4905:4969   */\n      tag_487\n        /* \"#utility.yul\":4963:4968   */\n      dup3\n        /* \"#utility.yul\":4905:4969   */\n      tag_343\n      jump\t// in\n    tag_487:\n        /* \"#utility.yul\":4985:5071   */\n      tag_488\n        /* \"#utility.yul\":5064:5070   */\n      dup2\n        /* \"#utility.yul\":5059:5062   */\n      dup6\n        /* \"#utility.yul\":4985:5071   */\n      tag_344\n      jump\t// in\n    tag_488:\n        /* \"#utility.yul\":4978:5071   */\n      swap4\n      pop\n        /* \"#utility.yul\":5097:5100   */\n      dup4\n        /* \"#utility.yul\":5142:5146   */\n      0x20\n        /* \"#utility.yul\":5134:5140   */\n      dup3\n        /* \"#utility.yul\":5130:5147   */\n      mul\n        /* \"#utility.yul\":5125:5128   */\n      dup6\n        /* \"#utility.yul\":5121:5148   */\n      add\n        /* \"#utility.yul\":5172:5238   */\n      tag_489\n        /* \"#utility.yul\":5232:5237   */\n      dup6\n        /* \"#utility.yul\":5172:5238   */\n      tag_345\n      jump\t// in\n    tag_489:\n        /* \"#utility.yul\":5261:5268   */\n      dup1\n        /* \"#utility.yul\":5292:5293   */\n      0x00\n        /* \"#utility.yul\":5277:5673   */\n    tag_490:\n        /* \"#utility.yul\":5302:5308   */\n      dup6\n        /* \"#utility.yul\":5299:5300   */\n      dup2\n        /* \"#utility.yul\":5296:5309   */\n      lt\n        /* \"#utility.yul\":5277:5673   */\n      iszero\n      tag_492\n      jumpi\n        /* \"#utility.yul\":5373:5382   */\n      dup5\n        /* \"#utility.yul\":5367:5371   */\n      dup5\n        /* \"#utility.yul\":5363:5383   */\n      sub\n        /* \"#utility.yul\":5358:5361   */\n      dup10\n        /* \"#utility.yul\":5351:5384   */\n      mstore\n        /* \"#utility.yul\":5424:5430   */\n      dup2\n        /* \"#utility.yul\":5418:5431   */\n      mload\n        /* \"#utility.yul\":5452:5536   */\n      tag_493\n        /* \"#utility.yul\":5531:5535   */\n      dup6\n        /* \"#utility.yul\":5516:5529   */\n      dup3\n        /* \"#utility.yul\":5452:5536   */\n      tag_351\n      jump\t// in\n    tag_493:\n        /* \"#utility.yul\":5444:5536   */\n      swap5\n      pop\n        /* \"#utility.yul\":5559:5629   */\n      tag_494\n        /* \"#utility.yul\":5622:5628   */\n      dup4\n        /* \"#utility.yul\":5559:5629   */\n      tag_352\n      jump\t// in\n    tag_494:\n        /* \"#utility.yul\":5549:5629   */\n      swap3\n      pop\n        /* \"#utility.yul\":5658:5662   */\n      0x20\n        /* \"#utility.yul\":5653:5656   */\n      dup11\n        /* \"#utility.yul\":5649:5663   */\n      add\n        /* \"#utility.yul\":5642:5663   */\n      swap10\n      pop\n        /* \"#utility.yul\":5337:5673   */\n      pop\n        /* \"#utility.yul\":5324:5325   */\n      0x01\n        /* \"#utility.yul\":5321:5322   */\n      dup2\n        /* \"#utility.yul\":5317:5326   */\n      add\n        /* \"#utility.yul\":5312:5326   */\n      swap1\n      pop\n        /* \"#utility.yul\":5277:5673   */\n      jump(tag_490)\n    tag_492:\n        /* \"#utility.yul\":5281:5295   */\n      pop\n        /* \"#utility.yul\":5689:5693   */\n      dup3\n        /* \"#utility.yul\":5682:5693   */\n      swap8\n      pop\n        /* \"#utility.yul\":5709:5712   */\n      dup8\n        /* \"#utility.yul\":5702:5712   */\n      swap6\n      pop\n        /* \"#utility.yul\":4881:5718   */\n      pop\n      pop\n      pop\n      pop\n      pop\n        /* \"#utility.yul\":4747:5718   */\n      swap3\n      swap2\n      pop\n      pop\n      jump\t// out\n        /* \"#utility.yul\":5724:5838   */\n    tag_354:\n        /* \"#utility.yul\":5791:5797   */\n      0x00\n        /* \"#utility.yul\":5825:5830   */\n      dup2\n        /* \"#utility.yul\":5819:5831   */\n      mload\n        /* \"#utility.yul\":5809:5831   */\n      swap1\n      pop\n        /* \"#utility.yul\":5724:5838   */\n      swap2\n      swap1\n      pop\n      jump\t// out\n        /* \"#utility.yul\":5844:6018   */\n    tag_355:\n        /* \"#utility.yul\":5933:5944   */\n      0x00\n        /* \"#utility.yul\":5967:5973   */\n      dup3\n        /* \"#utility.yul\":5962:5965   */\n      dup3\n        /* \"#utility.yul\":5955:5974   */\n      mstore\n        /* \"#utility.yul\":6007:6011   */\n      0x20\n        /* \"#utility.yul\":6002:6005   */\n      dup3\n        /* \"#utility.yul\":5998:6012   */\n      add\n        /* \"#utility.yul\":5983:6012   */\n      swap1\n      pop\n        /* \"#utility.yul\":5844:6018   */\n      swap3\n      swap2\n      pop\n      pop\n      jump\t// out\n        /* \"#utility.yul\":6024:6156   */\n    tag_356:\n        /* \"#utility.yul\":6091:6095   */\n      0x00\n        /* \"#utility.yul\":6114:6117   */\n      dup2\n        /* \"#utility.yul\":6106:6117   */\n      swap1\n      pop\n        /* \"#utility.yul\":6144:6148   */\n      0x20\n        /* \"#utility.yul\":6139:6142   */\n      dup3\n        /* \"#utility.yul\":6135:6149   */\n      add\n        /* \"#utility.yul\":6127:6149   */\n      swap1\n      pop\n        /* \"#utility.yul\":6024:6156   */\n      swap2\n      swap1\n      pop\n      jump\t// out\n        /* \"#utility.yul\":6162:6341   */\n    tag_357:\n        /* \"#utility.yul\":6231:6241   */\n      0x00\n        /* \"#utility.yul\":6252:6298   */\n      tag_499\n        /* \"#utility.yul\":6294:6297   */\n      dup4\n        /* \"#utility.yul\":6286:6292   */\n      dup4\n        /* \"#utility.yul\":6252:6298   */\n      tag_341\n      jump\t// in\n    tag_499:\n        /* \"#utility.yul\":6330:6334   */\n      0x20\n        /* \"#utility.yul\":6325:6328   */\n      dup4\n        /* \"#utility.yul\":6321:6335   */\n      add\n        /* \"#utility.yul\":6307:6335   */\n      swap1\n      pop\n        /* \"#utility.yul\":6162:6341   */\n      swap3\n      swap2\n      pop\n      pop\n      jump\t// out\n        /* \"#utility.yul\":6347:6460   */\n    tag_358:\n        /* \"#utility.yul\":6417:6421   */\n      0x00\n        /* \"#utility.yul\":6449:6453   */\n      0x20\n        /* \"#utility.yul\":6444:6447   */\n      dup3\n        /* \"#utility.yul\":6440:6454   */\n      add\n        /* \"#utility.yul\":6432:6454   */\n      swap1\n      pop\n        /* \"#utility.yul\":6347:6460   */\n      swap2\n      swap1\n      pop\n      jump\t// out\n        /* \"#utility.yul\":6496:7208   */\n    tag_359:\n        /* \"#utility.yul\":6605:6608   */\n      0x00\n        /* \"#utility.yul\":6634:6688   */\n      tag_502\n        /* \"#utility.yul\":6682:6687   */\n      dup3\n        /* \"#utility.yul\":6634:6688   */\n      tag_354\n      jump\t// in\n    tag_502:\n        /* \"#utility.yul\":6704:6780   */\n      tag_503\n        /* \"#utility.yul\":6773:6779   */\n      dup2\n        /* \"#utility.yul\":6768:6771   */\n      dup6\n        /* \"#utility.yul\":6704:6780   */\n      tag_355\n      jump\t// in\n    tag_503:\n        /* \"#utility.yul\":6697:6780   */\n      swap4\n      pop\n        /* \"#utility.yul\":6804:6860   */\n      tag_504\n        /* \"#utility.yul\":6854:6859   */\n      dup4\n        /* \"#utility.yul\":6804:6860   */\n      tag_356\n      jump\t// in\n    tag_504:\n        /* \"#utility.yul\":6883:6890   */\n      dup1\n        /* \"#utility.yul\":6914:6915   */\n      0x00\n        /* \"#utility.yul\":6899:7183   */\n    tag_505:\n        /* \"#utility.yul\":6924:6930   */\n      dup4\n        /* \"#utility.yul\":6921:6922   */\n      dup2\n        /* \"#utility.yul\":6918:6931   */\n      lt\n        /* \"#utility.yul\":6899:7183   */\n      iszero\n      tag_507\n      jumpi\n        /* \"#utility.yul\":7000:7006   */\n      dup2\n        /* \"#utility.yul\":6994:7007   */\n      mload\n        /* \"#utility.yul\":7027:7090   */\n      tag_508\n        /* \"#utility.yul\":7086:7089   */\n      dup9\n        /* \"#utility.yul\":7071:7084   */\n      dup3\n        /* \"#utility.yul\":7027:7090   */\n      tag_357\n      jump\t// in\n    tag_508:\n        /* \"#utility.yul\":7020:7090   */\n      swap8\n      pop\n        /* \"#utility.yul\":7113:7173   */\n      tag_509\n        /* \"#utility.yul\":7166:7172   */\n      dup4\n        /* \"#utility.yul\":7113:7173   */\n      tag_358\n      jump\t// in\n    tag_509:\n        /* \"#utility.yul\":7103:7173   */\n      swap3\n      pop\n        /* \"#utility.yul\":6959:7183   */\n      pop\n        /* \"#utility.yul\":6946:6947   */\n      0x01\n        /* \"#utility.yul\":6943:6944   */\n      dup2\n        /* \"#utility.yul\":6939:6948   */\n      add\n        /* \"#utility.yul\":6934:6948   */\n      swap1\n      pop\n        /* \"#utility.yul\":6899:7183   */\n      jump(tag_505)\n    tag_507:\n        /* \"#utility.yul\":6903:6917   */\n      pop\n        /* \"#utility.yul\":7199:7202   */\n      dup6\n        /* \"#utility.yul\":7192:7202   */\n      swap4\n      pop\n        /* \"#utility.yul\":6610:7208   */\n      pop\n      pop\n      pop\n        /* \"#utility.yul\":6496:7208   */\n      swap3\n      swap2\n      pop\n      pop\n      jump\t// out\n        /* \"#utility.yul\":7214:7304   */\n    tag_360:\n        /* \"#utility.yul\":7248:7255   */\n      0x00\n        /* \"#utility.yul\":7291:7296   */\n      dup2\n        /* \"#utility.yul\":7284:7297   */\n      iszero\n        /* \"#utility.yul\":7277:7298   */\n      iszero\n        /* \"#utility.yul\":7266:7298   */\n      swap1\n      pop\n        /* \"#utility.yul\":7214:7304   */\n      swap2\n      swap1\n      pop\n      jump\t// out\n        /* \"#utility.yul\":7310:7409   */\n    tag_361:\n        /* \"#utility.yul\":7381:7402   */\n      tag_512\n        /* \"#utility.yul\":7396:7401   */\n      dup2\n        /* \"#utility.yul\":7381:7402   */\n      tag_360\n      jump\t// in\n    tag_512:\n        /* \"#utility.yul\":7376:7379   */\n      dup3\n        /* \"#utility.yul\":7369:7403   */\n      mstore\n        /* \"#utility.yul\":7310:7409   */\n      pop\n      pop\n      jump\t// out\n        /* \"#utility.yul\":7481:9116   */\n    tag_362:\n        /* \"#utility.yul\":7592:7595   */\n      0x00\n        /* \"#utility.yul\":7628:7632   */\n      0xe0\n        /* \"#utility.yul\":7623:7626   */\n      dup4\n        /* \"#utility.yul\":7619:7633   */\n      add\n        /* \"#utility.yul\":7713:7717   */\n      0x00\n        /* \"#utility.yul\":7706:7711   */\n      dup4\n        /* \"#utility.yul\":7702:7718   */\n      add\n        /* \"#utility.yul\":7696:7719   */\n      mload\n        /* \"#utility.yul\":7732:7795   */\n      tag_514\n        /* \"#utility.yul\":7789:7793   */\n      0x00\n        /* \"#utility.yul\":7784:7787   */\n      dup7\n        /* \"#utility.yul\":7780:7794   */\n      add\n        /* \"#utility.yul\":7766:7778   */\n      dup3\n        /* \"#utility.yul\":7732:7795   */\n      tag_341\n      jump\t// in\n    tag_514:\n        /* \"#utility.yul\":7643:7805   */\n      pop\n        /* \"#utility.yul\":7890:7894   */\n      0x20\n        /* \"#utility.yul\":7883:7888   */\n      dup4\n        /* \"#utility.yul\":7879:7895   */\n      add\n        /* \"#utility.yul\":7873:7896   */\n      mload\n        /* \"#utility.yul\":7909:7972   */\n      tag_515\n        /* \"#utility.yul\":7966:7970   */\n      0x20\n        /* \"#utility.yul\":7961:7964   */\n      dup7\n        /* \"#utility.yul\":7957:7971   */\n      add\n        /* \"#utility.yul\":7943:7955   */\n      dup3\n        /* \"#utility.yul\":7909:7972   */\n      tag_342\n      jump\t// in\n    tag_515:\n        /* \"#utility.yul\":7815:7982   */\n      pop\n        /* \"#utility.yul\":8069:8073   */\n      0x40\n        /* \"#utility.yul\":8062:8067   */\n      dup4\n        /* \"#utility.yul\":8058:8074   */\n      add\n        /* \"#utility.yul\":8052:8075   */\n      mload\n        /* \"#utility.yul\":8088:8151   */\n      tag_516\n        /* \"#utility.yul\":8145:8149   */\n      0x40\n        /* \"#utility.yul\":8140:8143   */\n      dup7\n        /* \"#utility.yul\":8136:8150   */\n      add\n        /* \"#utility.yul\":8122:8134   */\n      dup3\n        /* \"#utility.yul\":8088:8151   */\n      tag_341\n      jump\t// in\n    tag_516:\n        /* \"#utility.yul\":7992:8161   */\n      pop\n        /* \"#utility.yul\":8246:8250   */\n      0x60\n        /* \"#utility.yul\":8239:8244   */\n      dup4\n        /* \"#utility.yul\":8235:8251   */\n      add\n        /* \"#utility.yul\":8229:8252   */\n      mload\n        /* \"#utility.yul\":8265:8328   */\n      tag_517\n        /* \"#utility.yul\":8322:8326   */\n      0x60\n        /* \"#utility.yul\":8317:8320   */\n      dup7\n        /* \"#utility.yul\":8313:8327   */\n      add\n        /* \"#utility.yul\":8299:8311   */\n      dup3\n        /* \"#utility.yul\":8265:8328   */\n      tag_341\n      jump\t// in\n    tag_517:\n        /* \"#utility.yul\":8171:8338   */\n      pop\n        /* \"#utility.yul\":8423:8427   */\n      0x80\n        /* \"#utility.yul\":8416:8421   */\n      dup4\n        /* \"#utility.yul\":8412:8428   */\n      add\n        /* \"#utility.yul\":8406:8429   */\n      mload\n        /* \"#utility.yul\":8476:8479   */\n      dup5\n        /* \"#utility.yul\":8470:8474   */\n      dup3\n        /* \"#utility.yul\":8466:8480   */\n      sub\n        /* \"#utility.yul\":8459:8463   */\n      0x80\n        /* \"#utility.yul\":8454:8457   */\n      dup7\n        /* \"#utility.yul\":8450:8464   */\n      add\n        /* \"#utility.yul\":8443:8481   */\n      mstore\n        /* \"#utility.yul\":8502:8625   */\n      tag_518\n        /* \"#utility.yul\":8620:8624   */\n      dup3\n        /* \"#utility.yul\":8606:8618   */\n      dup3\n        /* \"#utility.yul\":8502:8625   */\n      tag_353\n      jump\t// in\n    tag_518:\n        /* \"#utility.yul\":8494:8625   */\n      swap2\n      pop\n        /* \"#utility.yul\":8348:8636   */\n      pop\n        /* \"#utility.yul\":8726:8730   */\n      0xa0\n        /* \"#utility.yul\":8719:8724   */\n      dup4\n        /* \"#utility.yul\":8715:8731   */\n      add\n        /* \"#utility.yul\":8709:8732   */\n      mload\n        /* \"#utility.yul\":8779:8782   */\n      dup5\n        /* \"#utility.yul\":8773:8777   */\n      dup3\n        /* \"#utility.yul\":8769:8783   */\n      sub\n        /* \"#utility.yul\":8762:8766   */\n      0xa0\n        /* \"#utility.yul\":8757:8760   */\n      dup7\n        /* \"#utility.yul\":8753:8767   */\n      add\n        /* \"#utility.yul\":8746:8784   */\n      mstore\n        /* \"#utility.yul\":8805:8908   */\n      tag_519\n        /* \"#utility.yul\":8903:8907   */\n      dup3\n        /* \"#utility.yul\":8889:8901   */\n      dup3\n        /* \"#utility.yul\":8805:8908   */\n      tag_359\n      jump\t// in\n    tag_519:\n        /* \"#utility.yul\":8797:8908   */\n      swap2\n      pop\n        /* \"#utility.yul\":8646:8919   */\n      pop\n        /* \"#utility.yul\":9003:9007   */\n      0xc0\n        /* \"#utility.yul\":8996:9001   */\n      dup4\n        /* \"#utility.yul\":8992:9008   */\n      add\n        /* \"#utility.yul\":8986:9009   */\n      mload\n        /* \"#utility.yul\":9022:9079   */\n      tag_520\n        /* \"#utility.yul\":9073:9077   */\n      0xc0\n        /* \"#utility.yul\":9068:9071   */\n      dup7\n        /* \"#utility.yul\":9064:9078   */\n      add\n        /* \"#utility.yul\":9050:9062   */\n      dup3\n        /* \"#utility.yul\":9022:9079   */\n      tag_361\n      jump\t// in\n    tag_520:\n        /* \"#utility.yul\":8929:9089   */\n      pop\n        /* \"#utility.yul\":9106:9110   */\n      dup1\n        /* \"#utility.yul\":9099:9110   */\n      swap2\n      pop\n        /* \"#utility.yul\":7597:9116   */\n      pop\n        /* \"#utility.yul\":7481:9116   */\n      swap3\n      swap2\n      pop\n      pop\n      jump\t// out\n        /* \"#utility.yul\":9122:9479   */\n    tag_49:\n        /* \"#utility.yul\":9257:9261   */\n      0x00\n        /* \"#utility.yul\":9295:9297   */\n      0x20\n        /* \"#utility.yul\":9284:9293   */\n      dup3\n        /* \"#utility.yul\":9280:9298   */\n      add\n        /* \"#utility.yul\":9272:9298   */\n      swap1\n      pop\n        /* \"#utility.yul\":9344:9353   */\n      dup2\n        /* \"#utility.yul\":9338:9342   */\n      dup2\n        /* \"#utility.yul\":9334:9354   */\n      sub\n        /* \"#utility.yul\":9330:9331   */\n      0x00\n        /* \"#utility.yul\":9319:9328   */\n      dup4\n        /* \"#utility.yul\":9315:9332   */\n      add\n        /* \"#utility.yul\":9308:9355   */\n      mstore\n        /* \"#utility.yul\":9372:9472   */\n      tag_522\n        /* \"#utility.yul\":9467:9471   */\n      dup2\n        /* \"#utility.yul\":9458:9464   */\n      dup5\n        /* \"#utility.yul\":9372:9472   */\n      tag_362\n      jump\t// in\n    tag_522:\n        /* \"#utility.yul\":9364:9472   */\n      swap1\n      pop\n        /* \"#utility.yul\":9122:9479   */\n      swap3\n      swap2\n      pop\n      pop\n      jump\t// out\n        /* \"#utility.yul\":9485:9959   */\n    tag_53:\n        /* \"#utility.yul\":9553:9559   */\n      0x00\n        /* \"#utility.yul\":9561:9567   */\n      dup1\n        /* \"#utility.yul\":9610:9612   */\n      0x40\n        /* \"#utility.yul\":9598:9607   */\n      dup4\n        /* \"#utility.yul\":9589:9596   */\n      dup6\n        /* \"#utility.yul\":9585:9608   */\n      sub\n        /* \"#utility.yul\":9581:9613   */\n      slt\n        /* \"#utility.yul\":9578:9697   */\n      iszero\n      tag_524\n      jumpi\n        /* \"#utility.yul\":9616:9695   */\n      tag_525\n      tag_331\n      jump\t// in\n    tag_525:\n        /* \"#utility.yul\":9578:9697   */\n    tag_524:\n        /* \"#utility.yul\":9736:9737   */\n      0x00\n        /* \"#utility.yul\":9761:9814   */\n      tag_526\n        /* \"#utility.yul\":9806:9813   */\n      dup6\n        /* \"#utility.yul\":9797:9803   */\n      dup3\n        /* \"#utility.yul\":9786:9795   */\n      dup7\n        /* \"#utility.yul\":9782:9804   */\n      add\n        /* \"#utility.yul\":9761:9814   */\n      tag_335\n      jump\t// in\n    tag_526:\n        /* \"#utility.yul\":9751:9814   */\n      swap3\n      pop\n        /* \"#utility.yul\":9707:9824   */\n      pop\n        /* \"#utility.yul\":9863:9865   */\n      0x20\n        /* \"#utility.yul\":9889:9942   */\n      tag_527\n        /* \"#utility.yul\":9934:9941   */\n      dup6\n        /* \"#utility.yul\":9925:9931   */\n      dup3\n        /* \"#utility.yul\":9914:9923   */\n      dup7\n        /* \"#utility.yul\":9910:9932   */\n      add\n        /* \"#utility.yul\":9889:9942   */\n      tag_335\n      jump\t// in\n    tag_527:\n        /* \"#utility.yul\":9879:9942   */\n      swap2\n      pop\n        /* \"#utility.yul\":9834:9952   */\n      pop\n        /* \"#utility.yul\":9485:9959   */\n      swap3\n      pop\n      swap3\n      swap1\n      pop\n      jump\t// out\n        /* \"#utility.yul\":9965:10134   */\n    tag_363:\n        /* \"#utility.yul\":10049:10060   */\n      0x00\n        /* \"#utility.yul\":10083:10089   */\n      dup3\n        /* \"#utility.yul\":10078:10081   */\n      dup3\n        /* \"#utility.yul\":10071:10090   */\n      mstore\n        /* \"#utility.yul\":10123:10127   */\n      0x20\n        /* \"#utility.yul\":10118:10121   */\n      dup3\n        /* \"#utility.yul\":10114:10128   */\n      add\n        /* \"#utility.yul\":10099:10128   */\n      swap1\n      pop\n        /* \"#utility.yul\":9965:10134   */\n      swap3\n      swap2\n      pop\n      pop\n      jump\t// out\n        /* \"#utility.yul\":10140:10517   */\n    tag_364:\n        /* \"#utility.yul\":10228:10231   */\n      0x00\n        /* \"#utility.yul\":10256:10295   */\n      tag_530\n        /* \"#utility.yul\":10289:10294   */\n      dup3\n        /* \"#utility.yul\":10256:10295   */\n      tag_346\n      jump\t// in\n    tag_530:\n        /* \"#utility.yul\":10311:10382   */\n      tag_531\n        /* \"#utility.yul\":10375:10381   */\n      dup2\n        /* \"#utility.yul\":10370:10373   */\n      dup6\n        /* \"#utility.yul\":10311:10382   */\n      tag_363\n      jump\t// in\n    tag_531:\n        /* \"#utility.yul\":10304:10382   */\n      swap4\n      pop\n        /* \"#utility.yul\":10391:10456   */\n      tag_532\n        /* \"#utility.yul\":10449:10455   */\n      dup2\n        /* \"#utility.yul\":10444:10447   */\n      dup6\n        /* \"#utility.yul\":10437:10441   */\n      0x20\n        /* \"#utility.yul\":10430:10435   */\n      dup7\n        /* \"#utility.yul\":10426:10442   */\n      add\n        /* \"#utility.yul\":10391:10456   */\n      tag_348\n      jump\t// in\n    tag_532:\n        /* \"#utility.yul\":10481:10510   */\n      tag_533\n        /* \"#utility.yul\":10503:10509   */\n      dup2\n        /* \"#utility.yul\":10481:10510   */\n      tag_349\n      jump\t// in\n    tag_533:\n        /* \"#utility.yul\":10476:10479   */\n      dup5\n        /* \"#utility.yul\":10472:10511   */\n      add\n        /* \"#utility.yul\":10465:10511   */\n      swap2\n      pop\n        /* \"#utility.yul\":10232:10517   */\n      pop\n        /* \"#utility.yul\":10140:10517   */\n      swap3\n      swap2\n      pop\n      pop\n      jump\t// out\n        /* \"#utility.yul\":10523:10641   */\n    tag_365:\n        /* \"#utility.yul\":10610:10634   */\n      tag_535\n        /* \"#utility.yul\":10628:10633   */\n      dup2\n        /* \"#utility.yul\":10610:10634   */\n      tag_337\n      jump\t// in\n    tag_535:\n        /* \"#utility.yul\":10605:10608   */\n      dup3\n        /* \"#utility.yul\":10598:10635   */\n      mstore\n        /* \"#utility.yul\":10523:10641   */\n      pop\n      pop\n      jump\t// out\n        /* \"#utility.yul\":10647:11291   */\n    tag_56:\n        /* \"#utility.yul\":10844:10848   */\n      0x00\n        /* \"#utility.yul\":10882:10885   */\n      0x80\n        /* \"#utility.yul\":10871:10880   */\n      dup3\n        /* \"#utility.yul\":10867:10886   */\n      add\n        /* \"#utility.yul\":10859:10886   */\n      swap1\n      pop\n        /* \"#utility.yul\":10896:10967   */\n      tag_537\n        /* \"#utility.yul\":10964:10965   */\n      0x00\n        /* \"#utility.yul\":10953:10962   */\n      dup4\n        /* \"#utility.yul\":10949:10966   */\n      add\n        /* \"#utility.yul\":10940:10946   */\n      dup8\n        /* \"#utility.yul\":10896:10967   */\n      tag_340\n      jump\t// in\n    tag_537:\n        /* \"#utility.yul\":11014:11023   */\n      dup2\n        /* \"#utility.yul\":11008:11012   */\n      dup2\n        /* \"#utility.yul\":11004:11024   */\n      sub\n        /* \"#utility.yul\":10999:11001   */\n      0x20\n        /* \"#utility.yul\":10988:10997   */\n      dup4\n        /* \"#utility.yul\":10984:11002   */\n      add\n        /* \"#utility.yul\":10977:11025   */\n      mstore\n        /* \"#utility.yul\":11042:11120   */\n      tag_538\n        /* \"#utility.yul\":11115:11119   */\n      dup2\n        /* \"#utility.yul\":11106:11112   */\n      dup7\n        /* \"#utility.yul\":11042:11120   */\n      tag_364\n      jump\t// in\n    tag_538:\n        /* \"#utility.yul\":11034:11120   */\n      swap1\n      pop\n        /* \"#utility.yul\":11130:11202   */\n      tag_539\n        /* \"#utility.yul\":11198:11200   */\n      0x40\n        /* \"#utility.yul\":11187:11196   */\n      dup4\n        /* \"#utility.yul\":11183:11201   */\n      add\n        /* \"#utility.yul\":11174:11180   */\n      dup6\n        /* \"#utility.yul\":11130:11202   */\n      tag_365\n      jump\t// in\n    tag_539:\n        /* \"#utility.yul\":11212:11284   */\n      tag_540\n        /* \"#utility.yul\":11280:11282   */\n      0x60\n        /* \"#utility.yul\":11269:11278   */\n      dup4\n        /* \"#utility.yul\":11265:11283   */\n      add\n        /* \"#utility.yul\":11256:11262   */\n      dup5\n        /* \"#utility.yul\":11212:11284   */\n      tag_340\n      jump\t// in\n    tag_540:\n        /* \"#utility.yul\":10647:11291   */\n      swap6\n      swap5\n      pop\n      pop\n      pop\n      pop\n      pop\n      jump\t// out\n        /* \"#utility.yul\":11297:11406   */\n    tag_366:\n        /* \"#utility.yul\":11378:11399   */\n      tag_542\n        /* \"#utility.yul\":11393:11398   */\n      dup2\n        /* \"#utility.yul\":11378:11399   */\n      tag_360\n      jump\t// in\n    tag_542:\n        /* \"#utility.yul\":11373:11376   */\n      dup3\n        /* \"#utility.yul\":11366:11400   */\n      mstore\n        /* \"#utility.yul\":11297:11406   */\n      pop\n      pop\n      jump\t// out\n        /* \"#utility.yul\":11412:11622   */\n    tag_62:\n        /* \"#utility.yul\":11499:11503   */\n      0x00\n        /* \"#utility.yul\":11537:11539   */\n      0x20\n        /* \"#utility.yul\":11526:11535   */\n      dup3\n        /* \"#utility.yul\":11522:11540   */\n      add\n        /* \"#utility.yul\":11514:11540   */\n      swap1\n      pop\n        /* \"#utility.yul\":11550:11615   */\n      tag_544\n        /* \"#utility.yul\":11612:11613   */\n      0x00\n        /* \"#utility.yul\":11601:11610   */\n      dup4\n        /* \"#utility.yul\":11597:11614   */\n      add\n        /* \"#utility.yul\":11588:11594   */\n      dup5\n        /* \"#utility.yul\":11550:11615   */\n      tag_366\n      jump\t// in\n    tag_544:\n        /* \"#utility.yul\":11412:11622   */\n      swap3\n      swap2\n      pop\n      pop\n      jump\t// out\n        /* \"#utility.yul\":11628:11705   */\n    tag_367:\n        /* \"#utility.yul\":11665:11672   */\n      0x00\n        /* \"#utility.yul\":11694:11699   */\n      dup2\n        /* \"#utility.yul\":11683:11699   */\n      swap1\n      pop\n        /* \"#utility.yul\":11628:11705   */\n      swap2\n      swap1\n      pop\n      jump\t// out\n        /* \"#utility.yul\":11711:11833   */\n    tag_368:\n        /* \"#utility.yul\":11784:11808   */\n      tag_547\n        /* \"#utility.yul\":11802:11807   */\n      dup2\n        /* \"#utility.yul\":11784:11808   */\n      tag_367\n      jump\t// in\n    tag_547:\n        /* \"#utility.yul\":11777:11782   */\n      dup2\n        /* \"#utility.yul\":11774:11809   */\n      eq\n        /* \"#utility.yul\":11764:11827   */\n      tag_548\n      jumpi\n        /* \"#utility.yul\":11823:11824   */\n      0x00\n        /* \"#utility.yul\":11820:11821   */\n      dup1\n        /* \"#utility.yul\":11813:11825   */\n      revert\n        /* \"#utility.yul\":11764:11827   */\n    tag_548:\n        /* \"#utility.yul\":11711:11833   */\n      pop\n      jump\t// out\n        /* \"#utility.yul\":11839:11978   */\n    tag_369:\n        /* \"#utility.yul\":11885:11890   */\n      0x00\n        /* \"#utility.yul\":11923:11929   */\n      dup2\n        /* \"#utility.yul\":11910:11930   */\n      calldataload\n        /* \"#utility.yul\":11901:11930   */\n      swap1\n      pop\n        /* \"#utility.yul\":11939:11972   */\n      tag_550\n        /* \"#utility.yul\":11966:11971   */\n      dup2\n        /* \"#utility.yul\":11939:11972   */\n      tag_368\n      jump\t// in\n    tag_550:\n        /* \"#utility.yul\":11839:11978   */\n      swap3\n      swap2\n      pop\n      pop\n      jump\t// out\n        /* \"#utility.yul\":11984:12458   */\n    tag_96:\n        /* \"#utility.yul\":12052:12058   */\n      0x00\n        /* \"#utility.yul\":12060:12066   */\n      dup1\n        /* \"#utility.yul\":12109:12111   */\n      0x40\n        /* \"#utility.yul\":12097:12106   */\n      dup4\n        /* \"#utility.yul\":12088:12095   */\n      dup6\n        /* \"#utility.yul\":12084:12107   */\n      sub\n        /* \"#utility.yul\":12080:12112   */\n      slt\n        /* \"#utility.yul\":12077:12196   */\n      iszero\n      tag_552\n      jumpi\n        /* \"#utility.yul\":12115:12194   */\n      tag_553\n      tag_331\n      jump\t// in\n    tag_553:\n        /* \"#utility.yul\":12077:12196   */\n    tag_552:\n        /* \"#utility.yul\":12235:12236   */\n      0x00\n        /* \"#utility.yul\":12260:12313   */\n      tag_554\n        /* \"#utility.yul\":12305:12312   */\n      dup6\n        /* \"#utility.yul\":12296:12302   */\n      dup3\n        /* \"#utility.yul\":12285:12294   */\n      dup7\n        /* \"#utility.yul\":12281:12303   */\n      add\n        /* \"#utility.yul\":12260:12313   */\n      tag_335\n      jump\t// in\n    tag_554:\n        /* \"#utility.yul\":12250:12313   */\n      swap3\n      pop\n        /* \"#utility.yul\":12206:12323   */\n      pop\n        /* \"#utility.yul\":12362:12364   */\n      0x20\n        /* \"#utility.yul\":12388:12441   */\n      tag_555\n        /* \"#utility.yul\":12433:12440   */\n      dup6\n        /* \"#utility.yul\":12424:12430   */\n      dup3\n        /* \"#utility.yul\":12413:12422   */\n      dup7\n        /* \"#utility.yul\":12409:12431   */\n      add\n        /* \"#utility.yul\":12388:12441   */\n      tag_369\n      jump\t// in\n    tag_555:\n        /* \"#utility.yul\":12378:12441   */\n      swap2\n      pop\n        /* \"#utility.yul\":12333:12451   */\n      pop\n        /* \"#utility.yul\":11984:12458   */\n      swap3\n      pop\n      swap3\n      swap1\n      pop\n      jump\t// out\n        /* \"#utility.yul\":12464:12906   */\n    tag_103:\n        /* \"#utility.yul\":12613:12617   */\n      0x00\n        /* \"#utility.yul\":12651:12653   */\n      0x60\n        /* \"#utility.yul\":12640:12649   */\n      dup3\n        /* \"#utility.yul\":12636:12654   */\n      add\n        /* \"#utility.yul\":12628:12654   */\n      swap1\n      pop\n        /* \"#utility.yul\":12664:12735   */\n      tag_557\n        /* \"#utility.yul\":12732:12733   */\n      0x00\n        /* \"#utility.yul\":12721:12730   */\n      dup4\n        /* \"#utility.yul\":12717:12734   */\n      add\n        /* \"#utility.yul\":12708:12714   */\n      dup7\n        /* \"#utility.yul\":12664:12735   */\n      tag_340\n      jump\t// in\n    tag_557:\n        /* \"#utility.yul\":12745:12817   */\n      tag_558\n        /* \"#utility.yul\":12813:12815   */\n      0x20\n        /* \"#utility.yul\":12802:12811   */\n      dup4\n        /* \"#utility.yul\":12798:12816   */\n      add\n        /* \"#utility.yul\":12789:12795   */\n      dup6\n        /* \"#utility.yul\":12745:12817   */\n      tag_365\n      jump\t// in\n    tag_558:\n        /* \"#utility.yul\":12827:12899   */\n      tag_559\n        /* \"#utility.yul\":12895:12897   */\n      0x40\n        /* \"#utility.yul\":12884:12893   */\n      dup4\n        /* \"#utility.yul\":12880:12898   */\n      add\n        /* \"#utility.yul\":12871:12877   */\n      dup5\n        /* \"#utility.yul\":12827:12899   */\n      tag_340\n      jump\t// in\n    tag_559:\n        /* \"#utility.yul\":12464:12906   */\n      swap5\n      swap4\n      pop\n      pop\n      pop\n      pop\n      jump\t// out\n        /* \"#utility.yul\":12912:13029   */\n    tag_370:\n        /* \"#utility.yul\":13021:13022   */\n      0x00\n        /* \"#utility.yul\":13018:13019   */\n      dup1\n        /* \"#utility.yul\":13011:13023   */\n      revert\n        /* \"#utility.yul\":13035:13152   */\n    tag_371:\n        /* \"#utility.yul\":13144:13145   */\n      0x00\n        /* \"#utility.yul\":13141:13142   */\n      dup1\n        /* \"#utility.yul\":13134:13146   */\n      revert\n        /* \"#utility.yul\":13158:13275   */\n    tag_372:\n        /* \"#utility.yul\":13267:13268   */\n      0x00\n        /* \"#utility.yul\":13264:13265   */\n      dup1\n        /* \"#utility.yul\":13257:13269   */\n      revert\n        /* \"#utility.yul\":13295:13848   */\n    tag_373:\n        /* \"#utility.yul\":13353:13361   */\n      0x00\n        /* \"#utility.yul\":13363:13369   */\n      dup1\n        /* \"#utility.yul\":13413:13416   */\n      dup4\n        /* \"#utility.yul\":13406:13410   */\n      0x1f\n        /* \"#utility.yul\":13398:13404   */\n      dup5\n        /* \"#utility.yul\":13394:13411   */\n      add\n        /* \"#utility.yul\":13390:13417   */\n      slt\n        /* \"#utility.yul\":13380:13502   */\n      tag_564\n      jumpi\n        /* \"#utility.yul\":13421:13500   */\n      tag_565\n      tag_370\n      jump\t// in\n    tag_565:\n        /* \"#utility.yul\":13380:13502   */\n    tag_564:\n        /* \"#utility.yul\":13534:13540   */\n      dup3\n        /* \"#utility.yul\":13521:13541   */\n      calldataload\n        /* \"#utility.yul\":13511:13541   */\n      swap1\n      pop\n        /* \"#utility.yul\":13564:13582   */\n      0xffffffffffffffff\n        /* \"#utility.yul\":13556:13562   */\n      dup2\n        /* \"#utility.yul\":13553:13583   */\n      gt\n        /* \"#utility.yul\":13550:13667   */\n      iszero\n      tag_566\n      jumpi\n        /* \"#utility.yul\":13586:13665   */\n      tag_567\n      tag_371\n      jump\t// in\n    tag_567:\n        /* \"#utility.yul\":13550:13667   */\n    tag_566:\n        /* \"#utility.yul\":13700:13704   */\n      0x20\n        /* \"#utility.yul\":13692:13698   */\n      dup4\n        /* \"#utility.yul\":13688:13705   */\n      add\n        /* \"#utility.yul\":13676:13705   */\n      swap2\n      pop\n        /* \"#utility.yul\":13754:13757   */\n      dup4\n        /* \"#utility.yul\":13746:13750   */\n      0x01\n        /* \"#utility.yul\":13738:13744   */\n      dup3\n        /* \"#utility.yul\":13734:13751   */\n      mul\n        /* \"#utility.yul\":13724:13732   */\n      dup4\n        /* \"#utility.yul\":13720:13752   */\n      add\n        /* \"#utility.yul\":13717:13758   */\n      gt\n        /* \"#utility.yul\":13714:13842   */\n      iszero\n      tag_568\n      jumpi\n        /* \"#utility.yul\":13761:13840   */\n      tag_569\n      tag_372\n      jump\t// in\n    tag_569:\n        /* \"#utility.yul\":13714:13842   */\n    tag_568:\n        /* \"#utility.yul\":13295:13848   */\n      swap3\n      pop\n      swap3\n      swap1\n      pop\n      jump\t// out\n        /* \"#utility.yul\":13854:14528   */\n    tag_112:\n        /* \"#utility.yul\":13934:13940   */\n      0x00\n        /* \"#utility.yul\":13942:13948   */\n      dup1\n        /* \"#utility.yul\":13950:13956   */\n      0x00\n        /* \"#utility.yul\":13999:14001   */\n      0x40\n        /* \"#utility.yul\":13987:13996   */\n      dup5\n        /* \"#utility.yul\":13978:13985   */\n      dup7\n        /* \"#utility.yul\":13974:13997   */\n      sub\n        /* \"#utility.yul\":13970:14002   */\n      slt\n        /* \"#utility.yul\":13967:14086   */\n      iszero\n      tag_571\n      jumpi\n        /* \"#utility.yul\":14005:14084   */\n      tag_572\n      tag_331\n      jump\t// in\n    tag_572:\n        /* \"#utility.yul\":13967:14086   */\n    tag_571:\n        /* \"#utility.yul\":14125:14126   */\n      0x00\n        /* \"#utility.yul\":14150:14203   */\n      tag_573\n        /* \"#utility.yul\":14195:14202   */\n      dup7\n        /* \"#utility.yul\":14186:14192   */\n      dup3\n        /* \"#utility.yul\":14175:14184   */\n      dup8\n        /* \"#utility.yul\":14171:14193   */\n      add\n        /* \"#utility.yul\":14150:14203   */\n      tag_335\n      jump\t// in\n    tag_573:\n        /* \"#utility.yul\":14140:14203   */\n      swap4\n      pop\n        /* \"#utility.yul\":14096:14213   */\n      pop\n        /* \"#utility.yul\":14280:14282   */\n      0x20\n        /* \"#utility.yul\":14269:14278   */\n      dup5\n        /* \"#utility.yul\":14265:14283   */\n      add\n        /* \"#utility.yul\":14252:14284   */\n      calldataload\n        /* \"#utility.yul\":14311:14329   */\n      0xffffffffffffffff\n        /* \"#utility.yul\":14303:14309   */\n      dup2\n        /* \"#utility.yul\":14300:14330   */\n      gt\n        /* \"#utility.yul\":14297:14414   */\n      iszero\n      tag_574\n      jumpi\n        /* \"#utility.yul\":14333:14412   */\n      tag_575\n      tag_332\n      jump\t// in\n    tag_575:\n        /* \"#utility.yul\":14297:14414   */\n    tag_574:\n        /* \"#utility.yul\":14446:14511   */\n      tag_576\n        /* \"#utility.yul\":14503:14510   */\n      dup7\n        /* \"#utility.yul\":14494:14500   */\n      dup3\n        /* \"#utility.yul\":14483:14492   */\n      dup8\n        /* \"#utility.yul\":14479:14501   */\n      add\n        /* \"#utility.yul\":14446:14511   */\n      tag_373\n      jump\t// in\n    tag_576:\n        /* \"#utility.yul\":14428:14511   */\n      swap3\n      pop\n      swap3\n      pop\n        /* \"#utility.yul\":14223:14521   */\n      pop\n        /* \"#utility.yul\":13854:14528   */\n      swap3\n      pop\n      swap3\n      pop\n      swap3\n      jump\t// out\n        /* \"#utility.yul\":14534:14714   */\n    tag_261:\n        /* \"#utility.yul\":14582:14659   */\n      0x4e487b7100000000000000000000000000000000000000000000000000000000\n        /* \"#utility.yul\":14579:14580   */\n      0x00\n        /* \"#utility.yul\":14572:14660   */\n      mstore\n        /* \"#utility.yul\":14679:14683   */\n      0x41\n        /* \"#utility.yul\":14676:14677   */\n      0x04\n        /* \"#utility.yul\":14669:14684   */\n      mstore\n        /* \"#utility.yul\":14703:14707   */\n      0x24\n        /* \"#utility.yul\":14700:14701   */\n      0x00\n        /* \"#utility.yul\":14693:14708   */\n      revert\n        /* \"#utility.yul\":14720:15001   */\n    tag_374:\n        /* \"#utility.yul\":14803:14830   */\n      tag_579\n        /* \"#utility.yul\":14825:14829   */\n      dup3\n        /* \"#utility.yul\":14803:14830   */\n      tag_349\n      jump\t// in\n    tag_579:\n        /* \"#utility.yul\":14795:14801   */\n      dup2\n        /* \"#utility.yul\":14791:14831   */\n      add\n        /* \"#utility.yul\":14933:14939   */\n      dup2\n        /* \"#utility.yul\":14921:14931   */\n      dup2\n        /* \"#utility.yul\":14918:14940   */\n      lt\n        /* \"#utility.yul\":14897:14915   */\n      0xffffffffffffffff\n        /* \"#utility.yul\":14885:14895   */\n      dup3\n        /* \"#utility.yul\":14882:14916   */\n      gt\n        /* \"#utility.yul\":14879:14941   */\n      or\n        /* \"#utility.yul\":14876:14964   */\n      iszero\n      tag_580\n      jumpi\n        /* \"#utility.yul\":14944:14962   */\n      tag_581\n      tag_261\n      jump\t// in\n    tag_581:\n        /* \"#utility.yul\":14876:14964   */\n    tag_580:\n        /* \"#utility.yul\":14984:14994   */\n      dup1\n        /* \"#utility.yul\":14980:14982   */\n      0x40\n        /* \"#utility.yul\":14973:14995   */\n      mstore\n        /* \"#utility.yul\":14763:15001   */\n      pop\n        /* \"#utility.yul\":14720:15001   */\n      pop\n      pop\n      jump\t// out\n        /* \"#utility.yul\":15007:15136   */\n    tag_375:\n        /* \"#utility.yul\":15041:15047   */\n      0x00\n        /* \"#utility.yul\":15068:15088   */\n      tag_583\n      tag_330\n      jump\t// in\n    tag_583:\n        /* \"#utility.yul\":15058:15088   */\n      swap1\n      pop\n        /* \"#utility.yul\":15097:15130   */\n      tag_584\n        /* \"#utility.yul\":15125:15129   */\n      dup3\n        /* \"#utility.yul\":15117:15123   */\n      dup3\n        /* \"#utility.yul\":15097:15130   */\n      tag_374\n      jump\t// in\n    tag_584:\n        /* \"#utility.yul\":15007:15136   */\n      swap2\n      swap1\n      pop\n      jump\t// out\n        /* \"#utility.yul\":15142:15463   */\n    tag_376:\n        /* \"#utility.yul\":15229:15233   */\n      0x00\n        /* \"#utility.yul\":15319:15337   */\n      0xffffffffffffffff\n        /* \"#utility.yul\":15311:15317   */\n      dup3\n        /* \"#utility.yul\":15308:15338   */\n      gt\n        /* \"#utility.yul\":15305:15361   */\n      iszero\n      tag_586\n      jumpi\n        /* \"#utility.yul\":15341:15359   */\n      tag_587\n      tag_261\n      jump\t// in\n    tag_587:\n        /* \"#utility.yul\":15305:15361   */\n    tag_586:\n        /* \"#utility.yul\":15391:15395   */\n      0x20\n        /* \"#utility.yul\":15383:15389   */\n      dup3\n        /* \"#utility.yul\":15379:15396   */\n      mul\n        /* \"#utility.yul\":15371:15396   */\n      swap1\n      pop\n        /* \"#utility.yul\":15451:15455   */\n      0x20\n        /* \"#utility.yul\":15445:15449   */\n      dup2\n        /* \"#utility.yul\":15441:15456   */\n      add\n        /* \"#utility.yul\":15433:15456   */\n      swap1\n      pop\n        /* \"#utility.yul\":15142:15463   */\n      swap2\n      swap1\n      pop\n      jump\t// out\n        /* \"#utility.yul\":15469:15586   */\n    tag_377:\n        /* \"#utility.yul\":15578:15579   */\n      0x00\n        /* \"#utility.yul\":15575:15576   */\n      dup1\n        /* \"#utility.yul\":15568:15580   */\n      revert\n        /* \"#utility.yul\":15592:15900   */\n    tag_378:\n        /* \"#utility.yul\":15654:15658   */\n      0x00\n        /* \"#utility.yul\":15744:15762   */\n      0xffffffffffffffff\n        /* \"#utility.yul\":15736:15742   */\n      dup3\n        /* \"#utility.yul\":15733:15763   */\n      gt\n        /* \"#utility.yul\":15730:15786   */\n      iszero\n      tag_590\n      jumpi\n        /* \"#utility.yul\":15766:15784   */\n      tag_591\n      tag_261\n      jump\t// in\n    tag_591:\n        /* \"#utility.yul\":15730:15786   */\n    tag_590:\n        /* \"#utility.yul\":15804:15833   */\n      tag_592\n        /* \"#utility.yul\":15826:15832   */\n      dup3\n        /* \"#utility.yul\":15804:15833   */\n      tag_349\n      jump\t// in\n    tag_592:\n        /* \"#utility.yul\":15796:15833   */\n      swap1\n      pop\n        /* \"#utility.yul\":15888:15892   */\n      0x20\n        /* \"#utility.yul\":15882:15886   */\n      dup2\n        /* \"#utility.yul\":15878:15893   */\n      add\n        /* \"#utility.yul\":15870:15893   */\n      swap1\n      pop\n        /* \"#utility.yul\":15592:15900   */\n      swap2\n      swap1\n      pop\n      jump\t// out\n        /* \"#utility.yul\":15906:16052   */\n    tag_379:\n        /* \"#utility.yul\":16003:16009   */\n      dup3\n        /* \"#utility.yul\":15998:16001   */\n      dup2\n        /* \"#utility.yul\":15993:15996   */\n      dup4\n        /* \"#utility.yul\":15980:16010   */\n      calldatacopy\n        /* \"#utility.yul\":16044:16045   */\n      0x00\n        /* \"#utility.yul\":16035:16041   */\n      dup4\n        /* \"#utility.yul\":16030:16033   */\n      dup4\n        /* \"#utility.yul\":16026:16042   */\n      add\n        /* \"#utility.yul\":16019:16046   */\n      mstore\n        /* \"#utility.yul\":15906:16052   */\n      pop\n      pop\n      pop\n      jump\t// out\n        /* \"#utility.yul\":16058:16483   */\n    tag_380:\n        /* \"#utility.yul\":16136:16141   */\n      0x00\n        /* \"#utility.yul\":16161:16227   */\n      tag_595\n        /* \"#utility.yul\":16177:16226   */\n      tag_596\n        /* \"#utility.yul\":16219:16225   */\n      dup5\n        /* \"#utility.yul\":16177:16226   */\n      tag_378\n      jump\t// in\n    tag_596:\n        /* \"#utility.yul\":16161:16227   */\n      tag_375\n      jump\t// in\n    tag_595:\n        /* \"#utility.yul\":16152:16227   */\n      swap1\n      pop\n        /* \"#utility.yul\":16250:16256   */\n      dup3\n        /* \"#utility.yul\":16243:16248   */\n      dup2\n        /* \"#utility.yul\":16236:16257   */\n      mstore\n        /* \"#utility.yul\":16288:16292   */\n      0x20\n        /* \"#utility.yul\":16281:16286   */\n      dup2\n        /* \"#utility.yul\":16277:16293   */\n      add\n        /* \"#utility.yul\":16326:16329   */\n      dup5\n        /* \"#utility.yul\":16317:16323   */\n      dup5\n        /* \"#utility.yul\":16312:16315   */\n      dup5\n        /* \"#utility.yul\":16308:16324   */\n      add\n        /* \"#utility.yul\":16305:16330   */\n      gt\n        /* \"#utility.yul\":16302:16414   */\n      iszero\n      tag_597\n      jumpi\n        /* \"#utility.yul\":16333:16412   */\n      tag_598\n      tag_377\n      jump\t// in\n    tag_598:\n        /* \"#utility.yul\":16302:16414   */\n    tag_597:\n        /* \"#utility.yul\":16423:16477   */\n      tag_599\n        /* \"#utility.yul\":16470:16476   */\n      dup5\n        /* \"#utility.yul\":16465:16468   */\n      dup3\n        /* \"#utility.yul\":16460:16463   */\n      dup6\n        /* \"#utility.yul\":16423:16477   */\n      tag_379\n      jump\t// in\n    tag_599:\n        /* \"#utility.yul\":16142:16483   */\n      pop\n        /* \"#utility.yul\":16058:16483   */\n      swap4\n      swap3\n      pop\n      pop\n      pop\n      jump\t// out\n        /* \"#utility.yul\":16503:16843   */\n    tag_381:\n        /* \"#utility.yul\":16559:16564   */\n      0x00\n        /* \"#utility.yul\":16608:16611   */\n      dup3\n        /* \"#utility.yul\":16601:16605   */\n      0x1f\n        /* \"#utility.yul\":16593:16599   */\n      dup4\n        /* \"#utility.yul\":16589:16606   */\n      add\n        /* \"#utility.yul\":16585:16612   */\n      slt\n        /* \"#utility.yul\":16575:16697   */\n      tag_601\n      jumpi\n        /* \"#utility.yul\":16616:16695   */\n      tag_602\n      tag_370\n      jump\t// in\n    tag_602:\n        /* \"#utility.yul\":16575:16697   */\n    tag_601:\n        /* \"#utility.yul\":16733:16739   */\n      dup2\n        /* \"#utility.yul\":16720:16740   */\n      calldataload\n        /* \"#utility.yul\":16758:16837   */\n      tag_603\n        /* \"#utility.yul\":16833:16836   */\n      dup5\n        /* \"#utility.yul\":16825:16831   */\n      dup3\n        /* \"#utility.yul\":16818:16822   */\n      0x20\n        /* \"#utility.yul\":16810:16816   */\n      dup7\n        /* \"#utility.yul\":16806:16823   */\n      add\n        /* \"#utility.yul\":16758:16837   */\n      tag_380\n      jump\t// in\n    tag_603:\n        /* \"#utility.yul\":16749:16837   */\n      swap2\n      pop\n        /* \"#utility.yul\":16565:16843   */\n      pop\n        /* \"#utility.yul\":16503:16843   */\n      swap3\n      swap2\n      pop\n      pop\n      jump\t// out\n        /* \"#utility.yul\":16865:17810   */\n    tag_382:\n        /* \"#utility.yul\":16971:16976   */\n      0x00\n        /* \"#utility.yul\":16996:17087   */\n      tag_605\n        /* \"#utility.yul\":17012:17086   */\n      tag_606\n        /* \"#utility.yul\":17079:17085   */\n      dup5\n        /* \"#utility.yul\":17012:17086   */\n      tag_376\n      jump\t// in\n    tag_606:\n        /* \"#utility.yul\":16996:17087   */\n      tag_375\n      jump\t// in\n    tag_605:\n        /* \"#utility.yul\":16987:17087   */\n      swap1\n      pop\n        /* \"#utility.yul\":17107:17112   */\n      dup1\n        /* \"#utility.yul\":17136:17142   */\n      dup4\n        /* \"#utility.yul\":17129:17134   */\n      dup3\n        /* \"#utility.yul\":17122:17143   */\n      mstore\n        /* \"#utility.yul\":17170:17174   */\n      0x20\n        /* \"#utility.yul\":17163:17168   */\n      dup3\n        /* \"#utility.yul\":17159:17175   */\n      add\n        /* \"#utility.yul\":17152:17175   */\n      swap1\n      pop\n        /* \"#utility.yul\":17223:17227   */\n      0x20\n        /* \"#utility.yul\":17215:17221   */\n      dup5\n        /* \"#utility.yul\":17211:17228   */\n      mul\n        /* \"#utility.yul\":17203:17209   */\n      dup4\n        /* \"#utility.yul\":17199:17229   */\n      add\n        /* \"#utility.yul\":17252:17255   */\n      dup6\n        /* \"#utility.yul\":17244:17250   */\n      dup2\n        /* \"#utility.yul\":17241:17256   */\n      gt\n        /* \"#utility.yul\":17238:17360   */\n      iszero\n      tag_607\n      jumpi\n        /* \"#utility.yul\":17271:17350   */\n      tag_608\n      tag_372\n      jump\t// in\n    tag_608:\n        /* \"#utility.yul\":17238:17360   */\n    tag_607:\n        /* \"#utility.yul\":17386:17392   */\n      dup4\n        /* \"#utility.yul\":17369:17804   */\n    tag_609:\n        /* \"#utility.yul\":17403:17409   */\n      dup2\n        /* \"#utility.yul\":17398:17401   */\n      dup2\n        /* \"#utility.yul\":17395:17410   */\n      lt\n        /* \"#utility.yul\":17369:17804   */\n      iszero\n      tag_611\n      jumpi\n        /* \"#utility.yul\":17492:17495   */\n      dup1\n        /* \"#utility.yul\":17479:17496   */\n      calldataload\n        /* \"#utility.yul\":17528:17546   */\n      0xffffffffffffffff\n        /* \"#utility.yul\":17515:17526   */\n      dup2\n        /* \"#utility.yul\":17512:17547   */\n      gt\n        /* \"#utility.yul\":17509:17631   */\n      iszero\n      tag_612\n      jumpi\n        /* \"#utility.yul\":17550:17629   */\n      tag_613\n      tag_370\n      jump\t// in\n    tag_613:\n        /* \"#utility.yul\":17509:17631   */\n    tag_612:\n        /* \"#utility.yul\":17674:17685   */\n      dup1\n        /* \"#utility.yul\":17666:17672   */\n      dup7\n        /* \"#utility.yul\":17662:17686   */\n      add\n        /* \"#utility.yul\":17712:17759   */\n      tag_614\n        /* \"#utility.yul\":17755:17758   */\n      dup10\n        /* \"#utility.yul\":17743:17753   */\n      dup3\n        /* \"#utility.yul\":17712:17759   */\n      tag_381\n      jump\t// in\n    tag_614:\n        /* \"#utility.yul\":17707:17710   */\n      dup6\n        /* \"#utility.yul\":17700:17760   */\n      mstore\n        /* \"#utility.yul\":17789:17793   */\n      0x20\n        /* \"#utility.yul\":17784:17787   */\n      dup6\n        /* \"#utility.yul\":17780:17794   */\n      add\n        /* \"#utility.yul\":17773:17794   */\n      swap5\n      pop\n        /* \"#utility.yul\":17445:17804   */\n      pop\n      pop\n        /* \"#utility.yul\":17429:17433   */\n      0x20\n        /* \"#utility.yul\":17424:17427   */\n      dup2\n        /* \"#utility.yul\":17420:17434   */\n      add\n        /* \"#utility.yul\":17413:17434   */\n      swap1\n      pop\n        /* \"#utility.yul\":17369:17804   */\n      jump(tag_609)\n    tag_611:\n        /* \"#utility.yul\":17373:17394   */\n      pop\n        /* \"#utility.yul\":16977:17810   */\n      pop\n      pop\n        /* \"#utility.yul\":16865:17810   */\n      swap4\n      swap3\n      pop\n      pop\n      pop\n      jump\t// out\n        /* \"#utility.yul\":17832:18222   */\n    tag_383:\n        /* \"#utility.yul\":17913:17918   */\n      0x00\n        /* \"#utility.yul\":17962:17965   */\n      dup3\n        /* \"#utility.yul\":17955:17959   */\n      0x1f\n        /* \"#utility.yul\":17947:17953   */\n      dup4\n        /* \"#utility.yul\":17943:17960   */\n      add\n        /* \"#utility.yul\":17939:17966   */\n      slt\n        /* \"#utility.yul\":17929:18051   */\n      tag_616\n      jumpi\n        /* \"#utility.yul\":17970:18049   */\n      tag_617\n      tag_370\n      jump\t// in\n    tag_617:\n        /* \"#utility.yul\":17929:18051   */\n    tag_616:\n        /* \"#utility.yul\":18087:18093   */\n      dup2\n        /* \"#utility.yul\":18074:18094   */\n      calldataload\n        /* \"#utility.yul\":18112:18216   */\n      tag_618\n        /* \"#utility.yul\":18212:18215   */\n      dup5\n        /* \"#utility.yul\":18204:18210   */\n      dup3\n        /* \"#utility.yul\":18197:18201   */\n      0x20\n        /* \"#utility.yul\":18189:18195   */\n      dup7\n        /* \"#utility.yul\":18185:18202   */\n      add\n        /* \"#utility.yul\":18112:18216   */\n      tag_382\n      jump\t// in\n    tag_618:\n        /* \"#utility.yul\":18103:18216   */\n      swap2\n      pop\n        /* \"#utility.yul\":17919:18222   */\n      pop\n        /* \"#utility.yul\":17832:18222   */\n      swap3\n      swap2\n      pop\n      pop\n      jump\t// out\n        /* \"#utility.yul\":18228:19077   */\n    tag_122:\n        /* \"#utility.yul\":18340:18346   */\n      0x00\n        /* \"#utility.yul\":18348:18354   */\n      dup1\n        /* \"#utility.yul\":18356:18362   */\n      0x00\n        /* \"#utility.yul\":18405:18407   */\n      0x60\n        /* \"#utility.yul\":18393:18402   */\n      dup5\n        /* \"#utility.yul\":18384:18391   */\n      dup7\n        /* \"#utility.yul\":18380:18403   */\n      sub\n        /* \"#utility.yul\":18376:18408   */\n      slt\n        /* \"#utility.yul\":18373:18492   */\n      iszero\n      tag_620\n      jumpi\n        /* \"#utility.yul\":18411:18490   */\n      tag_621\n      tag_331\n      jump\t// in\n    tag_621:\n        /* \"#utility.yul\":18373:18492   */\n    tag_620:\n        /* \"#utility.yul\":18531:18532   */\n      0x00\n        /* \"#utility.yul\":18556:18609   */\n      tag_622\n        /* \"#utility.yul\":18601:18608   */\n      dup7\n        /* \"#utility.yul\":18592:18598   */\n      dup3\n        /* \"#utility.yul\":18581:18590   */\n      dup8\n        /* \"#utility.yul\":18577:18599   */\n      add\n        /* \"#utility.yul\":18556:18609   */\n      tag_335\n      jump\t// in\n    tag_622:\n        /* \"#utility.yul\":18546:18609   */\n      swap4\n      pop\n        /* \"#utility.yul\":18502:18619   */\n      pop\n        /* \"#utility.yul\":18658:18660   */\n      0x20\n        /* \"#utility.yul\":18684:18737   */\n      tag_623\n        /* \"#utility.yul\":18729:18736   */\n      dup7\n        /* \"#utility.yul\":18720:18726   */\n      dup3\n        /* \"#utility.yul\":18709:18718   */\n      dup8\n        /* \"#utility.yul\":18705:18727   */\n      add\n        /* \"#utility.yul\":18684:18737   */\n      tag_335\n      jump\t// in\n    tag_623:\n        /* \"#utility.yul\":18674:18737   */\n      swap3\n      pop\n        /* \"#utility.yul\":18629:18747   */\n      pop\n        /* \"#utility.yul\":18814:18816   */\n      0x40\n        /* \"#utility.yul\":18803:18812   */\n      dup5\n        /* \"#utility.yul\":18799:18817   */\n      add\n        /* \"#utility.yul\":18786:18818   */\n      calldataload\n        /* \"#utility.yul\":18845:18863   */\n      0xffffffffffffffff\n        /* \"#utility.yul\":18837:18843   */\n      dup2\n        /* \"#utility.yul\":18834:18864   */\n      gt\n        /* \"#utility.yul\":18831:18948   */\n      iszero\n      tag_624\n      jumpi\n        /* \"#utility.yul\":18867:18946   */\n      tag_625\n      tag_332\n      jump\t// in\n    tag_625:\n        /* \"#utility.yul\":18831:18948   */\n    tag_624:\n        /* \"#utility.yul\":18972:19060   */\n      tag_626\n        /* \"#utility.yul\":19052:19059   */\n      dup7\n        /* \"#utility.yul\":19043:19049   */\n      dup3\n        /* \"#utility.yul\":19032:19041   */\n      dup8\n        /* \"#utility.yul\":19028:19050   */\n      add\n        /* \"#utility.yul\":18972:19060   */\n      tag_383\n      jump\t// in\n    tag_626:\n        /* \"#utility.yul\":18962:19060   */\n      swap2\n      pop\n        /* \"#utility.yul\":18757:19070   */\n      pop\n        /* \"#utility.yul\":18228:19077   */\n      swap3\n      pop\n      swap3\n      pop\n      swap3\n      jump\t// out\n        /* \"#utility.yul\":19083:19263   */\n    tag_133:\n        /* \"#utility.yul\":19131:19208   */\n      0x4e487b7100000000000000000000000000000000000000000000000000000000\n        /* \"#utility.yul\":19128:19129   */\n      0x00\n        /* \"#utility.yul\":19121:19209   */\n      mstore\n        /* \"#utility.yul\":19228:19232   */\n      0x32\n        /* \"#utility.yul\":19225:19226   */\n      0x04\n        /* \"#utility.yul\":19218:19233   */\n      mstore\n        /* \"#utility.yul\":19252:19256   */\n      0x24\n        /* \"#utility.yul\":19249:19250   */\n      0x00\n        /* \"#utility.yul\":19242:19257   */\n      revert\n        /* \"#utility.yul\":19269:19449   */\n    tag_384:\n        /* \"#utility.yul\":19317:19394   */\n      0x4e487b7100000000000000000000000000000000000000000000000000000000\n        /* \"#utility.yul\":19314:19315   */\n      0x00\n        /* \"#utility.yul\":19307:19395   */\n      mstore\n        /* \"#utility.yul\":19414:19418   */\n      0x11\n        /* \"#utility.yul\":19411:19412   */\n      0x04\n        /* \"#utility.yul\":19404:19419   */\n      mstore\n        /* \"#utility.yul\":19438:19442   */\n      0x24\n        /* \"#utility.yul\":19435:19436   */\n      0x00\n        /* \"#utility.yul\":19428:19443   */\n      revert\n        /* \"#utility.yul\":19455:19646   */\n    tag_136:\n        /* \"#utility.yul\":19495:19498   */\n      0x00\n        /* \"#utility.yul\":19514:19534   */\n      tag_630\n        /* \"#utility.yul\":19532:19533   */\n      dup3\n        /* \"#utility.yul\":19514:19534   */\n      tag_333\n      jump\t// in\n    tag_630:\n        /* \"#utility.yul\":19509:19534   */\n      swap2\n      pop\n        /* \"#utility.yul\":19548:19568   */\n      tag_631\n        /* \"#utility.yul\":19566:19567   */\n      dup4\n        /* \"#utility.yul\":19548:19568   */\n      tag_333\n      jump\t// in\n    tag_631:\n        /* \"#utility.yul\":19543:19568   */\n      swap3\n      pop\n        /* \"#utility.yul\":19591:19592   */\n      dup3\n        /* \"#utility.yul\":19588:19589   */\n      dup3\n        /* \"#utility.yul\":19584:19593   */\n      add\n        /* \"#utility.yul\":19577:19593   */\n      swap1\n      pop\n        /* \"#utility.yul\":19612:19615   */\n      dup1\n        /* \"#utility.yul\":19609:19610   */\n      dup3\n        /* \"#utility.yul\":19606:19616   */\n      gt\n        /* \"#utility.yul\":19603:19639   */\n      iszero\n      tag_632\n      jumpi\n        /* \"#utility.yul\":19619:19637   */\n      tag_633\n      tag_384\n      jump\t// in\n    tag_633:\n        /* \"#utility.yul\":19603:19639   */\n    tag_632:\n        /* \"#utility.yul\":19455:19646   */\n      swap3\n      swap2\n      pop\n      pop\n      jump\t// out\n        /* \"#utility.yul\":19652:19885   */\n    tag_138:\n        /* \"#utility.yul\":19691:19694   */\n      0x00\n        /* \"#utility.yul\":19714:19738   */\n      tag_635\n        /* \"#utility.yul\":19732:19737   */\n      dup3\n        /* \"#utility.yul\":19714:19738   */\n      tag_333\n      jump\t// in\n    tag_635:\n        /* \"#utility.yul\":19705:19738   */\n      swap2\n      pop\n        /* \"#utility.yul\":19760:19826   */\n      0xffffffffffffffffffffffffffffffffffffffffffffffffffffffffffffffff\n        /* \"#utility.yul\":19753:19758   */\n      dup3\n        /* \"#utility.yul\":19750:19827   */\n      sub\n        /* \"#utility.yul\":19747:19850   */\n      tag_636\n      jumpi\n        /* \"#utility.yul\":19830:19848   */\n      tag_637\n      tag_384\n      jump\t// in\n    tag_637:\n        /* \"#utility.yul\":19747:19850   */\n    tag_636:\n        /* \"#utility.yul\":19877:19878   */\n      0x01\n        /* \"#utility.yul\":19870:19875   */\n      dup3\n        /* \"#utility.yul\":19866:19879   */\n      add\n        /* \"#utility.yul\":19859:19879   */\n      swap1\n      pop\n        /* \"#utility.yul\":19652:19885   */\n      swap2\n      swap1\n      pop\n      jump\t// out\n        /* \"#utility.yul\":19891:20071   */\n    tag_385:\n        /* \"#utility.yul\":19939:20016   */\n      0x4e487b7100000000000000000000000000000000000000000000000000000000\n        /* \"#utility.yul\":19936:19937   */\n      0x00\n        /* \"#utility.yul\":19929:20017   */\n      mstore\n        /* \"#utility.yul\":20036:20040   */\n      0x22\n        /* \"#utility.yul\":20033:20034   */\n      0x04\n        /* \"#utility.yul\":20026:20041   */\n      mstore\n        /* \"#utility.yul\":20060:20064   */\n      0x24\n        /* \"#utility.yul\":20057:20058   */\n      0x00\n        /* \"#utility.yul\":20050:20065   */\n      revert\n        /* \"#utility.yul\":20077:20397   */\n    tag_146:\n        /* \"#utility.yul\":20121:20127   */\n      0x00\n        /* \"#utility.yul\":20158:20159   */\n      0x02\n        /* \"#utility.yul\":20152:20156   */\n      dup3\n        /* \"#utility.yul\":20148:20160   */\n      div\n        /* \"#utility.yul\":20138:20160   */\n      swap1\n      pop\n        /* \"#utility.yul\":20205:20206   */\n      0x01\n        /* \"#utility.yul\":20199:20203   */\n      dup3\n        /* \"#utility.yul\":20195:20207   */\n      and\n        /* \"#utility.yul\":20226:20244   */\n      dup1\n        /* \"#utility.yul\":20216:20297   */\n      tag_640\n      jumpi\n        /* \"#utility.yul\":20282:20286   */\n      0x7f\n        /* \"#utility.yul\":20274:20280   */\n      dup3\n        /* \"#utility.yul\":20270:20287   */\n      and\n        /* \"#utility.yul\":20260:20287   */\n      swap2\n      pop\n        /* \"#utility.yul\":20216:20297   */\n    tag_640:\n        /* \"#utility.yul\":20344:20346   */\n      0x20\n        /* \"#utility.yul\":20336:20342   */\n      dup3\n        /* \"#utility.yul\":20333:20347   */\n      lt\n        /* \"#utility.yul\":20313:20331   */\n      dup2\n        /* \"#utility.yul\":20310:20348   */\n      sub\n        /* \"#utility.yul\":20307:20391   */\n      tag_641\n      jumpi\n        /* \"#utility.yul\":20363:20381   */\n      tag_642\n      tag_385\n      jump\t// in\n    tag_642:\n        /* \"#utility.yul\":20307:20391   */\n    tag_641:\n        /* \"#utility.yul\":20128:20397   */\n      pop\n        /* \"#utility.yul\":20077:20397   */\n      swap2\n      swap1\n      pop\n      jump\t// out\n        /* \"#utility.yul\":20403:20566   */\n    tag_386:\n        /* \"#utility.yul\":20543:20558   */\n      0x416c726561647920766f74656400000000000000000000000000000000000000\n        /* \"#utility.yul\":20539:20540   */\n      0x00\n        /* \"#utility.yul\":20531:20537   */\n      dup3\n        /* \"#utility.yul\":20527:20541   */\n      add\n        /* \"#utility.yul\":20520:20559   */\n      mstore\n        /* \"#utility.yul\":20403:20566   */\n      pop\n      jump\t// out\n        /* \"#utility.yul\":20572:20938   */\n    tag_387:\n        /* \"#utility.yul\":20714:20717   */\n      0x00\n        /* \"#utility.yul\":20735:20802   */\n      tag_645\n        /* \"#utility.yul\":20799:20801   */\n      0x0d\n        /* \"#utility.yul\":20794:20797   */\n      dup4\n        /* \"#utility.yul\":20735:20802   */\n      tag_363\n      jump\t// in\n    tag_645:\n        /* \"#utility.yul\":20728:20802   */\n      swap2\n      pop\n        /* \"#utility.yul\":20811:20904   */\n      tag_646\n        /* \"#utility.yul\":20900:20903   */\n      dup3\n        /* \"#utility.yul\":20811:20904   */\n      tag_386\n      jump\t// in\n    tag_646:\n        /* \"#utility.yul\":20929:20931   */\n      0x20\n        /* \"#utility.yul\":20924:20927   */\n      dup3\n        /* \"#utility.yul\":20920:20932   */\n      add\n        /* \"#utility.yul\":20913:20932   */\n      swap1\n      pop\n        /* \"#utility.yul\":20572:20938   */\n      swap2\n      swap1\n      pop\n      jump\t// out\n        /* \"#utility.yul\":20944:21363   */\n    tag_163:\n        /* \"#utility.yul\":21110:21114   */\n      0x00\n        /* \"#utility.yul\":21148:21150   */\n      0x20\n        /* \"#utility.yul\":21137:21146   */\n      dup3\n        /* \"#utility.yul\":21133:21151   */\n      add\n        /* \"#utility.yul\":21125:21151   */\n      swap1\n      pop\n        /* \"#utility.yul\":21197:21206   */\n      dup2\n        /* \"#utility.yul\":21191:21195   */\n      dup2\n        /* \"#utility.yul\":21187:21207   */\n      sub\n        /* \"#utility.yul\":21183:21184   */\n      0x00\n        /* \"#utility.yul\":21172:21181   */\n      dup4\n        /* \"#utility.yul\":21168:21185   */\n      add\n        /* \"#utility.yul\":21161:21208   */\n      mstore\n        /* \"#utility.yul\":21225:21356   */\n      tag_648\n        /* \"#utility.yul\":21351:21355   */\n      dup2\n        /* \"#utility.yul\":21225:21356   */\n      tag_387\n      jump\t// in\n    tag_648:\n        /* \"#utility.yul\":21217:21356   */\n      swap1\n      pop\n        /* \"#utility.yul\":20944:21363   */\n      swap2\n      swap1\n      pop\n      jump\t// out\n        /* \"#utility.yul\":21369:21533   */\n    tag_388:\n        /* \"#utility.yul\":21509:21525   */\n      0x506f6c6c20697320636c6f736564000000000000000000000000000000000000\n        /* \"#utility.yul\":21505:21506   */\n      0x00\n        /* \"#utility.yul\":21497:21503   */\n      dup3\n        /* \"#utility.yul\":21493:21507   */\n      add\n        /* \"#utility.yul\":21486:21526   */\n      mstore\n        /* \"#utility.yul\":21369:21533   */\n      pop\n      jump\t// out\n        /* \"#utility.yul\":21539:21905   */\n    tag_389:\n        /* \"#utility.yul\":21681:21684   */\n      0x00\n        /* \"#utility.yul\":21702:21769   */\n      tag_651\n        /* \"#utility.yul\":21766:21768   */\n      0x0e\n        /* \"#utility.yul\":21761:21764   */\n      dup4\n        /* \"#utility.yul\":21702:21769   */\n      tag_363\n      jump\t// in\n    tag_651:\n        /* \"#utility.yul\":21695:21769   */\n      swap2\n      pop\n        /* \"#utility.yul\":21778:21871   */\n      tag_652\n        /* \"#utility.yul\":21867:21870   */\n      dup3\n        /* \"#utility.yul\":21778:21871   */\n      tag_388\n      jump\t// in\n    tag_652:\n        /* \"#utility.yul\":21896:21898   */\n      0x20\n        /* \"#utility.yul\":21891:21894   */\n      dup3\n        /* \"#utility.yul\":21887:21899   */\n      add\n        /* \"#utility.yul\":21880:21899   */\n      swap1\n      pop\n        /* \"#utility.yul\":21539:21905   */\n      swap2\n      swap1\n      pop\n      jump\t// out\n        /* \"#utility.yul\":21911:22330   */\n    tag_166:\n        /* \"#utility.yul\":22077:22081   */\n      0x00\n        /* \"#utility.yul\":22115:22117   */\n      0x20\n        /* \"#utility.yul\":22104:22113   */\n      dup3\n        /* \"#utility.yul\":22100:22118   */\n      add\n        /* \"#utility.yul\":22092:22118   */\n      swap1\n      pop\n        /* \"#utility.yul\":22164:22173   */\n      dup2\n        /* \"#utility.yul\":22158:22162   */\n      dup2\n        /* \"#utility.yul\":22154:22174   */\n      sub\n        /* \"#utility.yul\":22150:22151   */\n      0x00\n        /* \"#utility.yul\":22139:22148   */\n      dup4\n        /* \"#utility.yul\":22135:22152   */\n      add\n        /* \"#utility.yul\":22128:22175   */\n      mstore\n        /* \"#utility.yul\":22192:22323   */\n      tag_654\n        /* \"#utility.yul\":22318:22322   */\n      dup2\n        /* \"#utility.yul\":22192:22323   */\n      tag_389\n      jump\t// in\n    tag_654:\n        /* \"#utility.yul\":22184:22323   */\n      swap1\n      pop\n        /* \"#utility.yul\":21911:22330   */\n      swap2\n      swap1\n      pop\n      jump\t// out\n        /* \"#utility.yul\":22336:22504   */\n    tag_390:\n        /* \"#utility.yul\":22476:22496   */\n      0x506f6c6c206973206e6f74206163746976650000000000000000000000000000\n        /* \"#utility.yul\":22472:22473   */\n      0x00\n        /* \"#utility.yul\":22464:22470   */\n      dup3\n        /* \"#utility.yul\":22460:22474   */\n      add\n        /* \"#utility.yul\":22453:22497   */\n      mstore\n        /* \"#utility.yul\":22336:22504   */\n      pop\n      jump\t// out\n        /* \"#utility.yul\":22510:22876   */\n    tag_391:\n        /* \"#utility.yul\":22652:22655   */\n      0x00\n        /* \"#utility.yul\":22673:22740   */\n      tag_657\n        /* \"#utility.yul\":22737:22739   */\n      0x12\n        /* \"#utility.yul\":22732:22735   */\n      dup4\n        /* \"#utility.yul\":22673:22740   */\n      tag_363\n      jump\t// in\n    tag_657:\n        /* \"#utility.yul\":22666:22740   */\n      swap2\n      pop\n        /* \"#utility.yul\":22749:22842   */\n      tag_658\n        /* \"#utility.yul\":22838:22841   */\n      dup3\n        /* \"#utility.yul\":22749:22842   */\n      tag_390\n      jump\t// in\n    tag_658:\n        /* \"#utility.yul\":22867:22869   */\n      0x20\n        /* \"#utility.yul\":22862:22865   */\n      dup3\n        /* \"#utility.yul\":22858:22870   */\n      add\n        /* \"#utility.yul\":22851:22870   */\n      swap1\n      pop\n        /* \"#utility.yul\":22510:22876   */\n      swap2\n      swap1\n      pop\n      jump\t// out\n        /* \"#utility.yul\":22882:23301   */\n    tag_170:\n        /* \"#utility.yul\":23048:23052   */\n      0x00\n        /* \"#utility.yul\":23086:23088   */\n      0x20\n        /* \"#utility.yul\":23075:23084   */\n      dup3\n        /* \"#utility.yul\":23071:23089   */\n      add\n        /* \"#utility.yul\":23063:23089   */\n      swap1\n      pop\n        /* \"#utility.yul\":23135:23144   */\n      dup2\n        /* \"#utility.yul\":23129:23133   */\n      dup2\n        /* \"#utility.yul\":23125:23145   */\n      sub\n        /* \"#utility.yul\":23121:23122   */\n      0x00\n        /* \"#utility.yul\":23110:23119   */\n      dup4\n        /* \"#utility.yul\":23106:23123   */\n      add\n        /* \"#utility.yul\":23099:23146   */\n      mstore\n        /* \"#utility.yul\":23163:23294   */\n      tag_660\n        /* \"#utility.yul\":23289:23293   */\n      dup2\n        /* \"#utility.yul\":23163:23294   */\n      tag_391\n      jump\t// in\n    tag_660:\n        /* \"#utility.yul\":23155:23294   */\n      swap1\n      pop\n        /* \"#utility.yul\":22882:23301   */\n      swap2\n      swap1\n      pop\n      jump\t// out\n        /* \"#utility.yul\":23307:23471   */\n    tag_392:\n        /* \"#utility.yul\":23447:23463   */\n      0x496e76616c69642063686f696365000000000000000000000000000000000000\n        /* \"#utility.yul\":23443:23444   */\n      0x00\n        /* \"#utility.yul\":23435:23441   */\n      dup3\n        /* \"#utility.yul\":23431:23445   */\n      add\n        /* \"#utility.yul\":23424:23464   */\n      mstore\n        /* \"#utility.yul\":23307:23471   */\n      pop\n      jump\t// out\n        /* \"#utility.yul\":23477:23843   */\n    tag_393:\n        /* \"#utility.yul\":23619:23622   */\n      0x00\n        /* \"#utility.yul\":23640:23707   */\n      tag_663\n        /* \"#utility.yul\":23704:23706   */\n      0x0e\n        /* \"#utility.yul\":23699:23702   */\n      dup4\n        /* \"#utility.yul\":23640:23707   */\n      tag_363\n      jump\t// in\n    tag_663:\n        /* \"#utility.yul\":23633:23707   */\n      swap2\n      pop\n        /* \"#utility.yul\":23716:23809   */\n      tag_664\n        /* \"#utility.yul\":23805:23808   */\n      dup3\n        /* \"#utility.yul\":23716:23809   */\n      tag_392\n      jump\t// in\n    tag_664:\n        /* \"#utility.yul\":23834:23836   */\n      0x20\n        /* \"#utility.yul\":23829:23832   */\n      dup3\n        /* \"#utility.yul\":23825:23837   */\n      add\n        /* \"#utility.yul\":23818:23837   */\n      swap1\n      pop\n        /* \"#utility.yul\":23477:23843   */\n      swap2\n      swap1\n      pop\n      jump\t// out\n        /* \"#utility.yul\":23849:24268   */\n    tag_174:\n        /* \"#utility.yul\":24015:24019   */\n      0x00\n        /* \"#utility.yul\":24053:24055   */\n      0x20\n        /* \"#utility.yul\":24042:24051   */\n      dup3\n        /* \"#utility.yul\":24038:24056   */\n      add\n        /* \"#utility.yul\":24030:24056   */\n      swap1\n      pop\n        /* \"#utility.yul\":24102:24111   */\n      dup2\n        /* \"#utility.yul\":24096:24100   */\n      dup2\n        /* \"#utility.yul\":24092:24112   */\n      sub\n        /* \"#utility.yul\":24088:24089   */\n      0x00\n        /* \"#utility.yul\":24077:24086   */\n      dup4\n        /* \"#utility.yul\":24073:24090   */\n      add\n        /* \"#utility.yul\":24066:24113   */\n      mstore\n        /* \"#utility.yul\":24130:24261   */\n      tag_666\n        /* \"#utility.yul\":24256:24260   */\n      dup2\n        /* \"#utility.yul\":24130:24261   */\n      tag_393\n      jump\t// in\n    tag_666:\n        /* \"#utility.yul\":24122:24261   */\n      swap1\n      pop\n        /* \"#utility.yul\":23849:24268   */\n      swap2\n      swap1\n      pop\n      jump\t// out\n        /* \"#utility.yul\":24274:24507   */\n    tag_394:\n        /* \"#utility.yul\":24414:24448   */\n      0x506f6c6c20686173206e6f742073746172746564207965742c20796f75206361\n        /* \"#utility.yul\":24410:24411   */\n      0x00\n        /* \"#utility.yul\":24402:24408   */\n      dup3\n        /* \"#utility.yul\":24398:24412   */\n      add\n        /* \"#utility.yul\":24391:24449   */\n      mstore\n        /* \"#utility.yul\":24483:24499   */\n      0x6e6e6f7420626574206f6e206974000000000000000000000000000000000000\n        /* \"#utility.yul\":24478:24480   */\n      0x20\n        /* \"#utility.yul\":24470:24476   */\n      dup3\n        /* \"#utility.yul\":24466:24481   */\n      add\n        /* \"#utility.yul\":24459:24500   */\n      mstore\n        /* \"#utility.yul\":24274:24507   */\n      pop\n      jump\t// out\n        /* \"#utility.yul\":24513:24879   */\n    tag_395:\n        /* \"#utility.yul\":24655:24658   */\n      0x00\n        /* \"#utility.yul\":24676:24743   */\n      tag_669\n        /* \"#utility.yul\":24740:24742   */\n      0x2e\n        /* \"#utility.yul\":24735:24738   */\n      dup4\n        /* \"#utility.yul\":24676:24743   */\n      tag_363\n      jump\t// in\n    tag_669:\n        /* \"#utility.yul\":24669:24743   */\n      swap2\n      pop\n        /* \"#utility.yul\":24752:24845   */\n      tag_670\n        /* \"#utility.yul\":24841:24844   */\n      dup3\n        /* \"#utility.yul\":24752:24845   */\n      tag_394\n      jump\t// in\n    tag_670:\n        /* \"#utility.yul\":24870:24872   */\n      0x40\n        /* \"#utility.yul\":24865:24868   */\n      dup3\n        /* \"#utility.yul\":24861:24873   */\n      add\n        /* \"#utility.yul\":24854:24873   */\n      swap1\n      pop\n        /* \"#utility.yul\":24513:24879   */\n      swap2\n      swap1\n      pop\n      jump\t// out\n        /* \"#utility.yul\":24885:25304   */\n    tag_197:\n        /* \"#utility.yul\":25051:25055   */\n      0x00\n        /* \"#utility.yul\":25089:25091   */\n      0x20\n        /* \"#utility.yul\":25078:25087   */\n      dup3\n        /* \"#utility.yul\":25074:25092   */\n      add\n        /* \"#utility.yul\":25066:25092   */\n      swap1\n      pop\n        /* \"#utility.yul\":25138:25147   */\n      dup2\n        /* \"#utility.yul\":25132:25136   */\n      dup2\n        /* \"#utility.yul\":25128:25148   */\n      sub\n        /* \"#utility.yul\":25124:25125   */\n      0x00\n        /* \"#utility.yul\":25113:25122   */\n      dup4\n        /* \"#utility.yul\":25109:25126   */\n      add\n        /* \"#utility.yul\":25102:25149   */\n      mstore\n        /* \"#utility.yul\":25166:25297   */\n      tag_672\n        /* \"#utility.yul\":25292:25296   */\n      dup2\n        /* \"#utility.yul\":25166:25297   */\n      tag_395\n      jump\t// in\n    tag_672:\n        /* \"#utility.yul\":25158:25297   */\n      swap1\n      pop\n        /* \"#utility.yul\":24885:25304   */\n      swap2\n      swap1\n      pop\n      jump\t// out\n        /* \"#utility.yul\":25310:25541   */\n    tag_396:\n        /* \"#utility.yul\":25450:25484   */\n      0x506f6c6c2068617320656e6465642c20796f752063616e6e6f7420626574206f\n        /* \"#utility.yul\":25446:25447   */\n      0x00\n        /* \"#utility.yul\":25438:25444   */\n      dup3\n        /* \"#utility.yul\":25434:25448   */\n      add\n        /* \"#utility.yul\":25427:25485   */\n      mstore\n        /* \"#utility.yul\":25519:25533   */\n      0x6e20697420616e796d6f72650000000000000000000000000000000000000000\n        /* \"#utility.yul\":25514:25516   */\n      0x20\n        /* \"#utility.yul\":25506:25512   */\n      dup3\n        /* \"#utility.yul\":25502:25517   */\n      add\n        /* \"#utility.yul\":25495:25534   */\n      mstore\n        /* \"#utility.yul\":25310:25541   */\n      pop\n      jump\t// out\n        /* \"#utility.yul\":25547:25913   */\n    tag_397:\n        /* \"#utility.yul\":25689:25692   */\n      0x00\n        /* \"#utility.yul\":25710:25777   */\n      tag_675\n        /* \"#utility.yul\":25774:25776   */\n      0x2c\n        /* \"#utility.yul\":25769:25772   */\n      dup4\n        /* \"#utility.yul\":25710:25777   */\n      tag_363\n      jump\t// in\n    tag_675:\n        /* \"#utility.yul\":25703:25777   */\n      swap2\n      pop\n        /* \"#utility.yul\":25786:25879   */\n      tag_676\n        /* \"#utility.yul\":25875:25878   */\n      dup3\n        /* \"#utility.yul\":25786:25879   */\n      tag_396\n      jump\t// in\n    tag_676:\n        /* \"#utility.yul\":25904:25906   */\n      0x40\n        /* \"#utility.yul\":25899:25902   */\n      dup3\n        /* \"#utility.yul\":25895:25907   */\n      add\n        /* \"#utility.yul\":25888:25907   */\n      swap1\n      pop\n        /* \"#utility.yul\":25547:25913   */\n      swap2\n      swap1\n      pop\n      jump\t// out\n        /* \"#utility.yul\":25919:26338   */\n    tag_200:\n        /* \"#utility.yul\":26085:26089   */\n      0x00\n        /* \"#utility.yul\":26123:26125   */\n      0x20\n        /* \"#utility.yul\":26112:26121   */\n      dup3\n        /* \"#utility.yul\":26108:26126   */\n      add\n        /* \"#utility.yul\":26100:26126   */\n      swap1\n      pop\n        /* \"#utility.yul\":26172:26181   */\n      dup2\n        /* \"#utility.yul\":26166:26170   */\n      dup2\n        /* \"#utility.yul\":26162:26182   */\n      sub\n        /* \"#utility.yul\":26158:26159   */\n      0x00\n        /* \"#utility.yul\":26147:26156   */\n      dup4\n        /* \"#utility.yul\":26143:26160   */\n      add\n        /* \"#utility.yul\":26136:26183   */\n      mstore\n        /* \"#utility.yul\":26200:26331   */\n      tag_678\n        /* \"#utility.yul\":26326:26330   */\n      dup2\n        /* \"#utility.yul\":26200:26331   */\n      tag_397\n      jump\t// in\n    tag_678:\n        /* \"#utility.yul\":26192:26331   */\n      swap1\n      pop\n        /* \"#utility.yul\":25919:26338   */\n      swap2\n      swap1\n      pop\n      jump\t// out\n        /* \"#utility.yul\":26344:26524   */\n    tag_398:\n        /* \"#utility.yul\":26484:26516   */\n      0x416d6f756e74206d7573742062652067726561746572207468616e2030210000\n        /* \"#utility.yul\":26480:26481   */\n      0x00\n        /* \"#utility.yul\":26472:26478   */\n      dup3\n        /* \"#utility.yul\":26468:26482   */\n      add\n        /* \"#utility.yul\":26461:26517   */\n      mstore\n        /* \"#utility.yul\":26344:26524   */\n      pop\n      jump\t// out\n        /* \"#utility.yul\":26530:26896   */\n    tag_399:\n        /* \"#utility.yul\":26672:26675   */\n      0x00\n        /* \"#utility.yul\":26693:26760   */\n      tag_681\n        /* \"#utility.yul\":26757:26759   */\n      0x1e\n        /* \"#utility.yul\":26752:26755   */\n      dup4\n        /* \"#utility.yul\":26693:26760   */\n      tag_363\n      jump\t// in\n    tag_681:\n        /* \"#utility.yul\":26686:26760   */\n      swap2\n      pop\n        /* \"#utility.yul\":26769:26862   */\n      tag_682\n        /* \"#utility.yul\":26858:26861   */\n      dup3\n        /* \"#utility.yul\":26769:26862   */\n      tag_398\n      jump\t// in\n    tag_682:\n        /* \"#utility.yul\":26887:26889   */\n      0x20\n        /* \"#utility.yul\":26882:26885   */\n      dup3\n        /* \"#utility.yul\":26878:26890   */\n      add\n        /* \"#utility.yul\":26871:26890   */\n      swap1\n      pop\n        /* \"#utility.yul\":26530:26896   */\n      swap2\n      swap1\n      pop\n      jump\t// out\n        /* \"#utility.yul\":26902:27321   */\n    tag_203:\n        /* \"#utility.yul\":27068:27072   */\n      0x00\n        /* \"#utility.yul\":27106:27108   */\n      0x20\n        /* \"#utility.yul\":27095:27104   */\n      dup3\n        /* \"#utility.yul\":27091:27109   */\n      add\n        /* \"#utility.yul\":27083:27109   */\n      swap1\n      pop\n        /* \"#utility.yul\":27155:27164   */\n      dup2\n        /* \"#utility.yul\":27149:27153   */\n      dup2\n        /* \"#utility.yul\":27145:27165   */\n      sub\n        /* \"#utility.yul\":27141:27142   */\n      0x00\n        /* \"#utility.yul\":27130:27139   */\n      dup4\n        /* \"#utility.yul\":27126:27143   */\n      add\n        /* \"#utility.yul\":27119:27166   */\n      mstore\n        /* \"#utility.yul\":27183:27314   */\n      tag_684\n        /* \"#utility.yul\":27309:27313   */\n      dup2\n        /* \"#utility.yul\":27183:27314   */\n      tag_399\n      jump\t// in\n    tag_684:\n        /* \"#utility.yul\":27175:27314   */\n      swap1\n      pop\n        /* \"#utility.yul\":26902:27321   */\n      swap2\n      swap1\n      pop\n      jump\t// out\n        /* \"#utility.yul\":27327:27474   */\n    tag_400:\n        /* \"#utility.yul\":27428:27439   */\n      0x00\n        /* \"#utility.yul\":27465:27468   */\n      dup2\n        /* \"#utility.yul\":27450:27468   */\n      swap1\n      pop\n        /* \"#utility.yul\":27327:27474   */\n      swap3\n      swap2\n      pop\n      pop\n      jump\t// out\n        /* \"#utility.yul\":27480:27624   */\n    tag_401:\n        /* \"#utility.yul\":27532:27536   */\n      0x00\n        /* \"#utility.yul\":27555:27558   */\n      dup2\n        /* \"#utility.yul\":27547:27558   */\n      swap1\n      pop\n        /* \"#utility.yul\":27578:27581   */\n      dup2\n        /* \"#utility.yul\":27575:27576   */\n      0x00\n        /* \"#utility.yul\":27568:27582   */\n      mstore\n        /* \"#utility.yul\":27612:27616   */\n      0x20\n        /* \"#utility.yul\":27609:27610   */\n      0x00\n        /* \"#utility.yul\":27599:27617   */\n      keccak256\n        /* \"#utility.yul\":27591:27617   */\n      swap1\n      pop\n        /* \"#utility.yul\":27480:27624   */\n      swap2\n      swap1\n      pop\n      jump\t// out\n        /* \"#utility.yul\":27652:28530   */\n    tag_402:\n        /* \"#utility.yul\":27757:27760   */\n      0x00\n        /* \"#utility.yul\":27794:27799   */\n      dup2\n        /* \"#utility.yul\":27788:27800   */\n      sload\n        /* \"#utility.yul\":27823:27859   */\n      tag_688\n        /* \"#utility.yul\":27849:27858   */\n      dup2\n        /* \"#utility.yul\":27823:27859   */\n      tag_146\n      jump\t// in\n    tag_688:\n        /* \"#utility.yul\":27875:27963   */\n      tag_689\n        /* \"#utility.yul\":27956:27962   */\n      dup2\n        /* \"#utility.yul\":27951:27954   */\n      dup7\n        /* \"#utility.yul\":27875:27963   */\n      tag_400\n      jump\t// in\n    tag_689:\n        /* \"#utility.yul\":27868:27963   */\n      swap5\n      pop\n        /* \"#utility.yul\":27994:27995   */\n      0x01\n        /* \"#utility.yul\":27983:27992   */\n      dup3\n        /* \"#utility.yul\":27979:27996   */\n      and\n        /* \"#utility.yul\":28010:28011   */\n      0x00\n        /* \"#utility.yul\":28005:28171   */\n      dup2\n      eq\n      tag_691\n      jumpi\n        /* \"#utility.yul\":28185:28186   */\n      0x01\n        /* \"#utility.yul\":28180:28524   */\n      dup2\n      eq\n      tag_692\n      jumpi\n        /* \"#utility.yul\":27972:28524   */\n      jump(tag_690)\n        /* \"#utility.yul\":28005:28171   */\n    tag_691:\n        /* \"#utility.yul\":28089:28093   */\n      0xff\n        /* \"#utility.yul\":28085:28094   */\n      not\n        /* \"#utility.yul\":28074:28083   */\n      dup4\n        /* \"#utility.yul\":28070:28095   */\n      and\n        /* \"#utility.yul\":28065:28068   */\n      dup7\n        /* \"#utility.yul\":28058:28096   */\n      mstore\n        /* \"#utility.yul\":28151:28157   */\n      dup2\n        /* \"#utility.yul\":28144:28158   */\n      iszero\n        /* \"#utility.yul\":28137:28159   */\n      iszero\n        /* \"#utility.yul\":28129:28135   */\n      dup3\n        /* \"#utility.yul\":28125:28160   */\n      mul\n        /* \"#utility.yul\":28120:28123   */\n      dup7\n        /* \"#utility.yul\":28116:28161   */\n      add\n        /* \"#utility.yul\":28109:28161   */\n      swap4\n      pop\n        /* \"#utility.yul\":28005:28171   */\n      jump(tag_690)\n        /* \"#utility.yul\":28180:28524   */\n    tag_692:\n        /* \"#utility.yul\":28247:28288   */\n      tag_693\n        /* \"#utility.yul\":28282:28287   */\n      dup6\n        /* \"#utility.yul\":28247:28288   */\n      tag_401\n      jump\t// in\n    tag_693:\n        /* \"#utility.yul\":28310:28311   */\n      0x00\n        /* \"#utility.yul\":28324:28478   */\n    tag_694:\n        /* \"#utility.yul\":28338:28344   */\n      dup4\n        /* \"#utility.yul\":28335:28336   */\n      dup2\n        /* \"#utility.yul\":28332:28345   */\n      lt\n        /* \"#utility.yul\":28324:28478   */\n      iszero\n      tag_696\n      jumpi\n        /* \"#utility.yul\":28412:28419   */\n      dup2\n        /* \"#utility.yul\":28406:28420   */\n      sload\n        /* \"#utility.yul\":28402:28403   */\n      dup2\n        /* \"#utility.yul\":28397:28400   */\n      dup10\n        /* \"#utility.yul\":28393:28404   */\n      add\n        /* \"#utility.yul\":28386:28421   */\n      mstore\n        /* \"#utility.yul\":28462:28463   */\n      0x01\n        /* \"#utility.yul\":28453:28460   */\n      dup3\n        /* \"#utility.yul\":28449:28464   */\n      add\n        /* \"#utility.yul\":28438:28464   */\n      swap2\n      pop\n        /* \"#utility.yul\":28360:28364   */\n      0x20\n        /* \"#utility.yul\":28357:28358   */\n      dup2\n        /* \"#utility.yul\":28353:28365   */\n      add\n        /* \"#utility.yul\":28348:28365   */\n      swap1\n      pop\n        /* \"#utility.yul\":28324:28478   */\n      jump(tag_694)\n    tag_696:\n        /* \"#utility.yul\":28507:28513   */\n      dup4\n        /* \"#utility.yul\":28502:28505   */\n      dup9\n        /* \"#utility.yul\":28498:28514   */\n      add\n        /* \"#utility.yul\":28491:28514   */\n      swap6\n      pop\n        /* \"#utility.yul\":28187:28524   */\n      pop\n      pop\n        /* \"#utility.yul\":27972:28524   */\n    tag_690:\n      pop\n        /* \"#utility.yul\":27761:28530   */\n      pop\n      pop\n        /* \"#utility.yul\":27652:28530   */\n      swap3\n      swap2\n      pop\n      pop\n      jump\t// out\n        /* \"#utility.yul\":28536:28809   */\n    tag_211:\n        /* \"#utility.yul\":28667:28670   */\n      0x00\n        /* \"#utility.yul\":28689:28783   */\n      tag_698\n        /* \"#utility.yul\":28779:28782   */\n      dup3\n        /* \"#utility.yul\":28770:28776   */\n      dup5\n        /* \"#utility.yul\":28689:28783   */\n      tag_402\n      jump\t// in\n    tag_698:\n        /* \"#utility.yul\":28682:28783   */\n      swap2\n      pop\n        /* \"#utility.yul\":28800:28803   */\n      dup2\n        /* \"#utility.yul\":28793:28803   */\n      swap1\n      pop\n        /* \"#utility.yul\":28536:28809   */\n      swap3\n      swap2\n      pop\n      pop\n      jump\t// out\n        /* \"#utility.yul\":28815:29107   */\n    tag_403:\n        /* \"#utility.yul\":28955:28989   */\n      0x496e76616c696420706f6c6c2063686f6963652c20706c656173652073656c65\n        /* \"#utility.yul\":28951:28952   */\n      0x00\n        /* \"#utility.yul\":28943:28949   */\n      dup3\n        /* \"#utility.yul\":28939:28953   */\n      add\n        /* \"#utility.yul\":28932:28990   */\n      mstore\n        /* \"#utility.yul\":29024:29058   */\n      0x6374206f6e65206f662074686520706f6c6c2063686f6963657320746f206265\n        /* \"#utility.yul\":29019:29021   */\n      0x20\n        /* \"#utility.yul\":29011:29017   */\n      dup3\n        /* \"#utility.yul\":29007:29022   */\n      add\n        /* \"#utility.yul\":29000:29059   */\n      mstore\n        /* \"#utility.yul\":29093:29099   */\n      0x74206f6e00000000000000000000000000000000000000000000000000000000\n        /* \"#utility.yul\":29088:29090   */\n      0x40\n        /* \"#utility.yul\":29080:29086   */\n      dup3\n        /* \"#utility.yul\":29076:29091   */\n      add\n        /* \"#utility.yul\":29069:29100   */\n      mstore\n        /* \"#utility.yul\":28815:29107   */\n      pop\n      jump\t// out\n        /* \"#utility.yul\":29113:29479   */\n    tag_404:\n        /* \"#utility.yul\":29255:29258   */\n      0x00\n        /* \"#utility.yul\":29276:29343   */\n      tag_701\n        /* \"#utility.yul\":29340:29342   */\n      0x44\n        /* \"#utility.yul\":29335:29338   */\n      dup4\n        /* \"#utility.yul\":29276:29343   */\n      tag_363\n      jump\t// in\n    tag_701:\n        /* \"#utility.yul\":29269:29343   */\n      swap2\n      pop\n        /* \"#utility.yul\":29352:29445   */\n      tag_702\n        /* \"#utility.yul\":29441:29444   */\n      dup3\n        /* \"#utility.yul\":29352:29445   */\n      tag_403\n      jump\t// in\n    tag_702:\n        /* \"#utility.yul\":29470:29472   */\n      0x60\n        /* \"#utility.yul\":29465:29468   */\n      dup3\n        /* \"#utility.yul\":29461:29473   */\n      add\n        /* \"#utility.yul\":29454:29473   */\n      swap1\n      pop\n        /* \"#utility.yul\":29113:29479   */\n      swap2\n      swap1\n      pop\n      jump\t// out\n        /* \"#utility.yul\":29485:29904   */\n    tag_216:\n        /* \"#utility.yul\":29651:29655   */\n      0x00\n        /* \"#utility.yul\":29689:29691   */\n      0x20\n        /* \"#utility.yul\":29678:29687   */\n      dup3\n        /* \"#utility.yul\":29674:29692   */\n      add\n        /* \"#utility.yul\":29666:29692   */\n      swap1\n      pop\n        /* \"#utility.yul\":29738:29747   */\n      dup2\n        /* \"#utility.yul\":29732:29736   */\n      dup2\n        /* \"#utility.yul\":29728:29748   */\n      sub\n        /* \"#utility.yul\":29724:29725   */\n      0x00\n        /* \"#utility.yul\":29713:29722   */\n      dup4\n        /* \"#utility.yul\":29709:29726   */\n      add\n        /* \"#utility.yul\":29702:29749   */\n      mstore\n        /* \"#utility.yul\":29766:29897   */\n      tag_704\n        /* \"#utility.yul\":29892:29896   */\n      dup2\n        /* \"#utility.yul\":29766:29897   */\n      tag_404\n      jump\t// in\n    tag_704:\n        /* \"#utility.yul\":29758:29897   */\n      swap1\n      pop\n        /* \"#utility.yul\":29485:29904   */\n      swap2\n      swap1\n      pop\n      jump\t// out\n        /* \"#utility.yul\":29910:30051   */\n    tag_405:\n        /* \"#utility.yul\":29959:29963   */\n      0x00\n        /* \"#utility.yul\":29982:29985   */\n      dup2\n        /* \"#utility.yul\":29974:29985   */\n      swap1\n      pop\n        /* \"#utility.yul\":30005:30008   */\n      dup2\n        /* \"#utility.yul\":30002:30003   */\n      0x00\n        /* \"#utility.yul\":29995:30009   */\n      mstore\n        /* \"#utility.yul\":30039:30043   */\n      0x20\n        /* \"#utility.yul\":30036:30037   */\n      0x00\n        /* \"#utility.yul\":30026:30044   */\n      keccak256\n        /* \"#utility.yul\":30018:30044   */\n      swap1\n      pop\n        /* \"#utility.yul\":29910:30051   */\n      swap2\n      swap1\n      pop\n      jump\t// out\n        /* \"#utility.yul\":30057:30150   */\n    tag_406:\n        /* \"#utility.yul\":30094:30100   */\n      0x00\n        /* \"#utility.yul\":30141:30143   */\n      0x20\n        /* \"#utility.yul\":30136:30138   */\n      0x1f\n        /* \"#utility.yul\":30129:30134   */\n      dup4\n        /* \"#utility.yul\":30125:30139   */\n      add\n        /* \"#utility.yul\":30121:30144   */\n      div\n        /* \"#utility.yul\":30111:30144   */\n      swap1\n      pop\n        /* \"#utility.yul\":30057:30150   */\n      swap2\n      swap1\n      pop\n      jump\t// out\n        /* \"#utility.yul\":30156:30263   */\n    tag_407:\n        /* \"#utility.yul\":30200:30208   */\n      0x00\n        /* \"#utility.yul\":30250:30255   */\n      dup3\n        /* \"#utility.yul\":30244:30248   */\n      dup3\n        /* \"#utility.yul\":30240:30256   */\n      shl\n        /* \"#utility.yul\":30219:30256   */\n      swap1\n      pop\n        /* \"#utility.yul\":30156:30263   */\n      swap3\n      swap2\n      pop\n      pop\n      jump\t// out\n        /* \"#utility.yul\":30269:30662   */\n    tag_408:\n        /* \"#utility.yul\":30338:30344   */\n      0x00\n        /* \"#utility.yul\":30388:30389   */\n      0x08\n        /* \"#utility.yul\":30376:30386   */\n      dup4\n        /* \"#utility.yul\":30372:30390   */\n      mul\n        /* \"#utility.yul\":30411:30508   */\n      tag_709\n        /* \"#utility.yul\":30441:30507   */\n      0xffffffffffffffffffffffffffffffffffffffffffffffffffffffffffffffff\n        /* \"#utility.yul\":30430:30439   */\n      dup3\n        /* \"#utility.yul\":30411:30508   */\n      tag_407\n      jump\t// in\n    tag_709:\n        /* \"#utility.yul\":30529:30568   */\n      tag_710\n        /* \"#utility.yul\":30559:30567   */\n      dup7\n        /* \"#utility.yul\":30548:30557   */\n      dup4\n        /* \"#utility.yul\":30529:30568   */\n      tag_407\n      jump\t// in\n    tag_710:\n        /* \"#utility.yul\":30517:30568   */\n      swap6\n      pop\n        /* \"#utility.yul\":30601:30605   */\n      dup1\n        /* \"#utility.yul\":30597:30606   */\n      not\n        /* \"#utility.yul\":30590:30595   */\n      dup5\n        /* \"#utility.yul\":30586:30607   */\n      and\n        /* \"#utility.yul\":30577:30607   */\n      swap4\n      pop\n        /* \"#utility.yul\":30650:30654   */\n      dup1\n        /* \"#utility.yul\":30640:30648   */\n      dup7\n        /* \"#utility.yul\":30636:30655   */\n      and\n        /* \"#utility.yul\":30629:30634   */\n      dup5\n        /* \"#utility.yul\":30626:30656   */\n      or\n        /* \"#utility.yul\":30616:30656   */\n      swap3\n      pop\n        /* \"#utility.yul\":30345:30662   */\n      pop\n      pop\n        /* \"#utility.yul\":30269:30662   */\n      swap4\n      swap3\n      pop\n      pop\n      pop\n      jump\t// out\n        /* \"#utility.yul\":30668:30728   */\n    tag_409:\n        /* \"#utility.yul\":30696:30699   */\n      0x00\n        /* \"#utility.yul\":30717:30722   */\n      dup2\n        /* \"#utility.yul\":30710:30722   */\n      swap1\n      pop\n        /* \"#utility.yul\":30668:30728   */\n      swap2\n      swap1\n      pop\n      jump\t// out\n        /* \"#utility.yul\":30734:30876   */\n    tag_410:\n        /* \"#utility.yul\":30784:30793   */\n      0x00\n        /* \"#utility.yul\":30817:30870   */\n      tag_713\n        /* \"#utility.yul\":30835:30869   */\n      tag_714\n        /* \"#utility.yul\":30844:30868   */\n      tag_715\n        /* \"#utility.yul\":30862:30867   */\n      dup5\n        /* \"#utility.yul\":30844:30868   */\n      tag_333\n      jump\t// in\n    tag_715:\n        /* \"#utility.yul\":30835:30869   */\n      tag_409\n      jump\t// in\n    tag_714:\n        /* \"#utility.yul\":30817:30870   */\n      tag_333\n      jump\t// in\n    tag_713:\n        /* \"#utility.yul\":30804:30870   */\n      swap1\n      pop\n        /* \"#utility.yul\":30734:30876   */\n      swap2\n      swap1\n      pop\n      jump\t// out\n        /* \"#utility.yul\":30882:30957   */\n    tag_411:\n        /* \"#utility.yul\":30925:30928   */\n      0x00\n        /* \"#utility.yul\":30946:30951   */\n      dup2\n        /* \"#utility.yul\":30939:30951   */\n      swap1\n      pop\n        /* \"#utility.yul\":30882:30957   */\n      swap2\n      swap1\n      pop\n      jump\t// out\n        /* \"#utility.yul\":30963:31232   */\n    tag_412:\n        /* \"#utility.yul\":31073:31112   */\n      tag_718\n        /* \"#utility.yul\":31104:31111   */\n      dup4\n        /* \"#utility.yul\":31073:31112   */\n      tag_410\n      jump\t// in\n    tag_718:\n        /* \"#utility.yul\":31134:31225   */\n      tag_719\n        /* \"#utility.yul\":31183:31224   */\n      tag_720\n        /* \"#utility.yul\":31207:31223   */\n      dup3\n        /* \"#utility.yul\":31183:31224   */\n      tag_411\n      jump\t// in\n    tag_720:\n        /* \"#utility.yul\":31175:31181   */\n      dup5\n        /* \"#utility.yul\":31168:31172   */\n      dup5\n        /* \"#utility.yul\":31162:31173   */\n      sload\n        /* \"#utility.yul\":31134:31225   */\n      tag_408\n      jump\t// in\n    tag_719:\n        /* \"#utility.yul\":31128:31132   */\n      dup3\n        /* \"#utility.yul\":31121:31226   */\n      sstore\n        /* \"#utility.yul\":31039:31232   */\n      pop\n        /* \"#utility.yul\":30963:31232   */\n      pop\n      pop\n      pop\n      jump\t// out\n        /* \"#utility.yul\":31238:31311   */\n    tag_413:\n        /* \"#utility.yul\":31283:31286   */\n      0x00\n        /* \"#utility.yul\":31238:31311   */\n      swap1\n      jump\t// out\n        /* \"#utility.yul\":31317:31506   */\n    tag_414:\n        /* \"#utility.yul\":31394:31426   */\n      tag_723\n      tag_413\n      jump\t// in\n    tag_723:\n        /* \"#utility.yul\":31435:31500   */\n      tag_724\n        /* \"#utility.yul\":31493:31499   */\n      dup2\n        /* \"#utility.yul\":31485:31491   */\n      dup5\n        /* \"#utility.yul\":31479:31483   */\n      dup5\n        /* \"#utility.yul\":31435:31500   */\n      tag_412\n      jump\t// in\n    tag_724:\n        /* \"#utility.yul\":31370:31506   */\n      pop\n        /* \"#utility.yul\":31317:31506   */\n      pop\n      pop\n      jump\t// out\n        /* \"#utility.yul\":31512:31698   */\n    tag_415:\n        /* \"#utility.yul\":31572:31692   */\n    tag_726:\n        /* \"#utility.yul\":31589:31592   */\n      dup2\n        /* \"#utility.yul\":31582:31587   */\n      dup2\n        /* \"#utility.yul\":31579:31593   */\n      lt\n        /* \"#utility.yul\":31572:31692   */\n      iszero\n      tag_728\n      jumpi\n        /* \"#utility.yul\":31643:31682   */\n      tag_729\n        /* \"#utility.yul\":31680:31681   */\n      0x00\n        /* \"#utility.yul\":31673:31678   */\n      dup3\n        /* \"#utility.yul\":31643:31682   */\n      tag_414\n      jump\t// in\n    tag_729:\n        /* \"#utility.yul\":31616:31617   */\n      0x01\n        /* \"#utility.yul\":31609:31614   */\n      dup2\n        /* \"#utility.yul\":31605:31618   */\n      add\n        /* \"#utility.yul\":31596:31618   */\n      swap1\n      pop\n        /* \"#utility.yul\":31572:31692   */\n      jump(tag_726)\n    tag_728:\n        /* \"#utility.yul\":31512:31698   */\n      pop\n      pop\n      jump\t// out\n        /* \"#utility.yul\":31704:32247   */\n    tag_416:\n        /* \"#utility.yul\":31805:31807   */\n      0x1f\n        /* \"#utility.yul\":31800:31803   */\n      dup3\n        /* \"#utility.yul\":31797:31808   */\n      gt\n        /* \"#utility.yul\":31794:32240   */\n      iszero\n      tag_731\n      jumpi\n        /* \"#utility.yul\":31839:31877   */\n      tag_732\n        /* \"#utility.yul\":31871:31876   */\n      dup2\n        /* \"#utility.yul\":31839:31877   */\n      tag_405\n      jump\t// in\n    tag_732:\n        /* \"#utility.yul\":31923:31952   */\n      tag_733\n        /* \"#utility.yul\":31941:31951   */\n      dup5\n        /* \"#utility.yul\":31923:31952   */\n      tag_406\n      jump\t// in\n    tag_733:\n        /* \"#utility.yul\":31913:31921   */\n      dup2\n        /* \"#utility.yul\":31909:31953   */\n      add\n        /* \"#utility.yul\":32106:32108   */\n      0x20\n        /* \"#utility.yul\":32094:32104   */\n      dup6\n        /* \"#utility.yul\":32091:32109   */\n      lt\n        /* \"#utility.yul\":32088:32137   */\n      iszero\n      tag_734\n      jumpi\n        /* \"#utility.yul\":32127:32135   */\n      dup2\n        /* \"#utility.yul\":32112:32135   */\n      swap1\n      pop\n        /* \"#utility.yul\":32088:32137   */\n    tag_734:\n        /* \"#utility.yul\":32150:32230   */\n      tag_735\n        /* \"#utility.yul\":32206:32228   */\n      tag_736\n        /* \"#utility.yul\":32224:32227   */\n      dup6\n        /* \"#utility.yul\":32206:32228   */\n      tag_406\n      jump\t// in\n    tag_736:\n        /* \"#utility.yul\":32196:32204   */\n      dup4\n        /* \"#utility.yul\":32192:32229   */\n      add\n        /* \"#utility.yul\":32179:32190   */\n      dup3\n        /* \"#utility.yul\":32150:32230   */\n      tag_415\n      jump\t// in\n    tag_735:\n        /* \"#utility.yul\":31809:32240   */\n      pop\n      pop\n        /* \"#utility.yul\":31794:32240   */\n    tag_731:\n        /* \"#utility.yul\":31704:32247   */\n      pop\n      pop\n      pop\n      jump\t// out\n        /* \"#utility.yul\":32253:32370   */\n    tag_417:\n        /* \"#utility.yul\":32307:32315   */\n      0x00\n        /* \"#utility.yul\":32357:32362   */\n      dup3\n        /* \"#utility.yul\":32351:32355   */\n      dup3\n        /* \"#utility.yul\":32347:32363   */\n      shr\n        /* \"#utility.yul\":32326:32363   */\n      swap1\n      pop\n        /* \"#utility.yul\":32253:32370   */\n      swap3\n      swap2\n      pop\n      pop\n      jump\t// out\n        /* \"#utility.yul\":32376:32545   */\n    tag_418:\n        /* \"#utility.yul\":32420:32426   */\n      0x00\n        /* \"#utility.yul\":32453:32504   */\n      tag_739\n        /* \"#utility.yul\":32501:32502   */\n      0x00\n        /* \"#utility.yul\":32497:32503   */\n      not\n        /* \"#utility.yul\":32489:32494   */\n      dup5\n        /* \"#utility.yul\":32486:32487   */\n      0x08\n        /* \"#utility.yul\":32482:32495   */\n      mul\n        /* \"#utility.yul\":32453:32504   */\n      tag_417\n      jump\t// in\n    tag_739:\n        /* \"#utility.yul\":32449:32505   */\n      not\n        /* \"#utility.yul\":32534:32538   */\n      dup1\n        /* \"#utility.yul\":32528:32532   */\n      dup4\n        /* \"#utility.yul\":32524:32539   */\n      and\n        /* \"#utility.yul\":32514:32539   */\n      swap2\n      pop\n        /* \"#utility.yul\":32427:32545   */\n      pop\n        /* \"#utility.yul\":32376:32545   */\n      swap3\n      swap2\n      pop\n      pop\n      jump\t// out\n        /* \"#utility.yul\":32550:32845   */\n    tag_419:\n        /* \"#utility.yul\":32626:32630   */\n      0x00\n        /* \"#utility.yul\":32772:32801   */\n      tag_741\n        /* \"#utility.yul\":32797:32800   */\n      dup4\n        /* \"#utility.yul\":32791:32795   */\n      dup4\n        /* \"#utility.yul\":32772:32801   */\n      tag_418\n      jump\t// in\n    tag_741:\n        /* \"#utility.yul\":32764:32801   */\n      swap2\n      pop\n        /* \"#utility.yul\":32834:32837   */\n      dup3\n        /* \"#utility.yul\":32831:32832   */\n      0x02\n        /* \"#utility.yul\":32827:32838   */\n      mul\n        /* \"#utility.yul\":32821:32825   */\n      dup3\n        /* \"#utility.yul\":32818:32839   */\n      or\n        /* \"#utility.yul\":32810:32839   */\n      swap1\n      pop\n        /* \"#utility.yul\":32550:32845   */\n      swap3\n      swap2\n      pop\n      pop\n      jump\t// out\n        /* \"#utility.yul\":32850:34245   */\n    tag_224:\n        /* \"#utility.yul\":32967:33004   */\n      tag_743\n        /* \"#utility.yul\":33000:33003   */\n      dup3\n        /* \"#utility.yul\":32967:33004   */\n      tag_346\n      jump\t// in\n    tag_743:\n        /* \"#utility.yul\":33069:33087   */\n      0xffffffffffffffff\n        /* \"#utility.yul\":33061:33067   */\n      dup2\n        /* \"#utility.yul\":33058:33088   */\n      gt\n        /* \"#utility.yul\":33055:33111   */\n      iszero\n      tag_744\n      jumpi\n        /* \"#utility.yul\":33091:33109   */\n      tag_745\n      tag_261\n      jump\t// in\n    tag_745:\n        /* \"#utility.yul\":33055:33111   */\n    tag_744:\n        /* \"#utility.yul\":33135:33173   */\n      tag_746\n        /* \"#utility.yul\":33167:33171   */\n      dup3\n        /* \"#utility.yul\":33161:33172   */\n      sload\n        /* \"#utility.yul\":33135:33173   */\n      tag_146\n      jump\t// in\n    tag_746:\n        /* \"#utility.yul\":33220:33287   */\n      tag_747\n        /* \"#utility.yul\":33280:33286   */\n      dup3\n        /* \"#utility.yul\":33272:33278   */\n      dup3\n        /* \"#utility.yul\":33266:33270   */\n      dup6\n        /* \"#utility.yul\":33220:33287   */\n      tag_416\n      jump\t// in\n    tag_747:\n        /* \"#utility.yul\":33314:33315   */\n      0x00\n        /* \"#utility.yul\":33338:33342   */\n      0x20\n        /* \"#utility.yul\":33325:33342   */\n      swap1\n      pop\n        /* \"#utility.yul\":33370:33372   */\n      0x1f\n        /* \"#utility.yul\":33362:33368   */\n      dup4\n        /* \"#utility.yul\":33359:33373   */\n      gt\n        /* \"#utility.yul\":33387:33388   */\n      0x01\n        /* \"#utility.yul\":33382:34000   */\n      dup2\n      eq\n      tag_749\n      jumpi\n        /* \"#utility.yul\":34044:34045   */\n      0x00\n        /* \"#utility.yul\":34061:34067   */\n      dup5\n        /* \"#utility.yul\":34058:34135   */\n      iszero\n      tag_750\n      jumpi\n        /* \"#utility.yul\":34110:34119   */\n      dup3\n        /* \"#utility.yul\":34105:34108   */\n      dup8\n        /* \"#utility.yul\":34101:34120   */\n      add\n        /* \"#utility.yul\":34095:34121   */\n      mload\n        /* \"#utility.yul\":34086:34121   */\n      swap1\n      pop\n        /* \"#utility.yul\":34058:34135   */\n    tag_750:\n        /* \"#utility.yul\":34161:34228   */\n      tag_751\n        /* \"#utility.yul\":34221:34227   */\n      dup6\n        /* \"#utility.yul\":34214:34219   */\n      dup3\n        /* \"#utility.yul\":34161:34228   */\n      tag_419\n      jump\t// in\n    tag_751:\n        /* \"#utility.yul\":34155:34159   */\n      dup7\n        /* \"#utility.yul\":34148:34229   */\n      sstore\n        /* \"#utility.yul\":34017:34239   */\n      pop\n        /* \"#utility.yul\":33352:34239   */\n      jump(tag_748)\n        /* \"#utility.yul\":33382:34000   */\n    tag_749:\n        /* \"#utility.yul\":33434:33438   */\n      0x1f\n        /* \"#utility.yul\":33430:33439   */\n      not\n        /* \"#utility.yul\":33422:33428   */\n      dup5\n        /* \"#utility.yul\":33418:33440   */\n      and\n        /* \"#utility.yul\":33468:33505   */\n      tag_752\n        /* \"#utility.yul\":33500:33504   */\n      dup7\n        /* \"#utility.yul\":33468:33505   */\n      tag_405\n      jump\t// in\n    tag_752:\n        /* \"#utility.yul\":33527:33528   */\n      0x00\n        /* \"#utility.yul\":33541:33749   */\n    tag_753:\n        /* \"#utility.yul\":33555:33562   */\n      dup3\n        /* \"#utility.yul\":33552:33553   */\n      dup2\n        /* \"#utility.yul\":33549:33563   */\n      lt\n        /* \"#utility.yul\":33541:33749   */\n      iszero\n      tag_755\n      jumpi\n        /* \"#utility.yul\":33634:33643   */\n      dup5\n        /* \"#utility.yul\":33629:33632   */\n      dup10\n        /* \"#utility.yul\":33625:33644   */\n      add\n        /* \"#utility.yul\":33619:33645   */\n      mload\n        /* \"#utility.yul\":33611:33617   */\n      dup3\n        /* \"#utility.yul\":33604:33646   */\n      sstore\n        /* \"#utility.yul\":33685:33686   */\n      0x01\n        /* \"#utility.yul\":33677:33683   */\n      dup3\n        /* \"#utility.yul\":33673:33687   */\n      add\n        /* \"#utility.yul\":33663:33687   */\n      swap2\n      pop\n        /* \"#utility.yul\":33732:33734   */\n      0x20\n        /* \"#utility.yul\":33721:33730   */\n      dup6\n        /* \"#utility.yul\":33717:33735   */\n      add\n        /* \"#utility.yul\":33704:33735   */\n      swap5\n      pop\n        /* \"#utility.yul\":33578:33582   */\n      0x20\n        /* \"#utility.yul\":33575:33576   */\n      dup2\n        /* \"#utility.yul\":33571:33583   */\n      add\n        /* \"#utility.yul\":33566:33583   */\n      swap1\n      pop\n        /* \"#utility.yul\":33541:33749   */\n      jump(tag_753)\n    tag_755:\n        /* \"#utility.yul\":33777:33783   */\n      dup7\n        /* \"#utility.yul\":33768:33775   */\n      dup4\n        /* \"#utility.yul\":33765:33784   */\n      lt\n        /* \"#utility.yul\":33762:33941   */\n      iszero\n      tag_756\n      jumpi\n        /* \"#utility.yul\":33835:33844   */\n      dup5\n        /* \"#utility.yul\":33830:33833   */\n      dup10\n        /* \"#utility.yul\":33826:33845   */\n      add\n        /* \"#utility.yul\":33820:33846   */\n      mload\n        /* \"#utility.yul\":33878:33926   */\n      tag_757\n        /* \"#utility.yul\":33920:33924   */\n      0x1f\n        /* \"#utility.yul\":33912:33918   */\n      dup10\n        /* \"#utility.yul\":33908:33925   */\n      and\n        /* \"#utility.yul\":33897:33906   */\n      dup3\n        /* \"#utility.yul\":33878:33926   */\n      tag_418\n      jump\t// in\n    tag_757:\n        /* \"#utility.yul\":33870:33876   */\n      dup4\n        /* \"#utility.yul\":33863:33927   */\n      sstore\n        /* \"#utility.yul\":33785:33941   */\n      pop\n        /* \"#utility.yul\":33762:33941   */\n    tag_756:\n        /* \"#utility.yul\":33987:33988   */\n      0x01\n        /* \"#utility.yul\":33983:33984   */\n      0x02\n        /* \"#utility.yul\":33975:33981   */\n      dup9\n        /* \"#utility.yul\":33971:33985   */\n      mul\n        /* \"#utility.yul\":33967:33989   */\n      add\n        /* \"#utility.yul\":33961:33965   */\n      dup9\n        /* \"#utility.yul\":33954:33990   */\n      sstore\n        /* \"#utility.yul\":33389:34000   */\n      pop\n      pop\n      pop\n        /* \"#utility.yul\":33352:34239   */\n    tag_748:\n      pop\n        /* \"#utility.yul\":32942:34245   */\n      pop\n      pop\n      pop\n        /* \"#utility.yul\":32850:34245   */\n      pop\n      pop\n      jump\t// out\n        /* \"#utility.yul\":34251:34674   */\n    tag_227:\n        /* \"#utility.yul\":34392:34396   */\n      0x00\n        /* \"#utility.yul\":34430:34432   */\n      0x40\n        /* \"#utility.yul\":34419:34428   */\n      dup3\n        /* \"#utility.yul\":34415:34433   */\n      add\n        /* \"#utility.yul\":34407:34433   */\n      swap1\n      pop\n        /* \"#utility.yul\":34479:34488   */\n      dup2\n        /* \"#utility.yul\":34473:34477   */\n      dup2\n        /* \"#utility.yul\":34469:34489   */\n      sub\n        /* \"#utility.yul\":34465:34466   */\n      0x00\n        /* \"#utility.yul\":34454:34463   */\n      dup4\n        /* \"#utility.yul\":34450:34467   */\n      add\n        /* \"#utility.yul\":34443:34490   */\n      mstore\n        /* \"#utility.yul\":34507:34585   */\n      tag_759\n        /* \"#utility.yul\":34580:34584   */\n      dup2\n        /* \"#utility.yul\":34571:34577   */\n      dup6\n        /* \"#utility.yul\":34507:34585   */\n      tag_364\n      jump\t// in\n    tag_759:\n        /* \"#utility.yul\":34499:34585   */\n      swap1\n      pop\n        /* \"#utility.yul\":34595:34667   */\n      tag_760\n        /* \"#utility.yul\":34663:34665   */\n      0x20\n        /* \"#utility.yul\":34652:34661   */\n      dup4\n        /* \"#utility.yul\":34648:34666   */\n      add\n        /* \"#utility.yul\":34639:34645   */\n      dup5\n        /* \"#utility.yul\":34595:34667   */\n      tag_340\n      jump\t// in\n    tag_760:\n        /* \"#utility.yul\":34251:34674   */\n      swap4\n      swap3\n      pop\n      pop\n      pop\n      jump\t// out\n        /* \"#utility.yul\":34702:35029   */\n    tag_420:\n        /* \"#utility.yul\":34816:34819   */\n      0x00\n        /* \"#utility.yul\":34837:34925   */\n      tag_762\n        /* \"#utility.yul\":34918:34924   */\n      dup4\n        /* \"#utility.yul\":34913:34916   */\n      dup6\n        /* \"#utility.yul\":34837:34925   */\n      tag_400\n      jump\t// in\n    tag_762:\n        /* \"#utility.yul\":34830:34925   */\n      swap4\n      pop\n        /* \"#utility.yul\":34935:34991   */\n      tag_763\n        /* \"#utility.yul\":34984:34990   */\n      dup4\n        /* \"#utility.yul\":34979:34982   */\n      dup6\n        /* \"#utility.yul\":34972:34977   */\n      dup5\n        /* \"#utility.yul\":34935:34991   */\n      tag_379\n      jump\t// in\n    tag_763:\n        /* \"#utility.yul\":35016:35022   */\n      dup3\n        /* \"#utility.yul\":35011:35014   */\n      dup5\n        /* \"#utility.yul\":35007:35023   */\n      add\n        /* \"#utility.yul\":35000:35023   */\n      swap1\n      pop\n        /* \"#utility.yul\":34702:35029   */\n      swap4\n      swap3\n      pop\n      pop\n      pop\n      jump\t// out\n        /* \"#utility.yul\":35035:35326   */\n    tag_235:\n        /* \"#utility.yul\":35175:35178   */\n      0x00\n        /* \"#utility.yul\":35197:35300   */\n      tag_765\n        /* \"#utility.yul\":35296:35299   */\n      dup3\n        /* \"#utility.yul\":35287:35293   */\n      dup5\n        /* \"#utility.yul\":35279:35285   */\n      dup7\n        /* \"#utility.yul\":35197:35300   */\n      tag_420\n      jump\t// in\n    tag_765:\n        /* \"#utility.yul\":35190:35300   */\n      swap2\n      pop\n        /* \"#utility.yul\":35317:35320   */\n      dup2\n        /* \"#utility.yul\":35310:35320   */\n      swap1\n      pop\n        /* \"#utility.yul\":35035:35326   */\n      swap4\n      swap3\n      pop\n      pop\n      pop\n      jump\t// out\n        /* \"#utility.yul\":35332:35512   */\n    tag_421:\n        /* \"#utility.yul\":35380:35457   */\n      0x4e487b7100000000000000000000000000000000000000000000000000000000\n        /* \"#utility.yul\":35377:35378   */\n      0x00\n        /* \"#utility.yul\":35370:35458   */\n      mstore\n        /* \"#utility.yul\":35477:35481   */\n      0x12\n        /* \"#utility.yul\":35474:35475   */\n      0x04\n        /* \"#utility.yul\":35467:35482   */\n      mstore\n        /* \"#utility.yul\":35501:35505   */\n      0x24\n        /* \"#utility.yul\":35498:35499   */\n      0x00\n        /* \"#utility.yul\":35491:35506   */\n      revert\n        /* \"#utility.yul\":35518:35703   */\n    tag_250:\n        /* \"#utility.yul\":35558:35559   */\n      0x00\n        /* \"#utility.yul\":35575:35595   */\n      tag_768\n        /* \"#utility.yul\":35593:35594   */\n      dup3\n        /* \"#utility.yul\":35575:35595   */\n      tag_333\n      jump\t// in\n    tag_768:\n        /* \"#utility.yul\":35570:35595   */\n      swap2\n      pop\n        /* \"#utility.yul\":35609:35629   */\n      tag_769\n        /* \"#utility.yul\":35627:35628   */\n      dup4\n        /* \"#utility.yul\":35609:35629   */\n      tag_333\n      jump\t// in\n    tag_769:\n        /* \"#utility.yul\":35604:35629   */\n      swap3\n      pop\n        /* \"#utility.yul\":35648:35649   */\n      dup3\n        /* \"#utility.yul\":35638:35673   */\n      tag_770\n      jumpi\n        /* \"#utility.yul\":35653:35671   */\n      tag_771\n      tag_421\n      jump\t// in\n    tag_771:\n        /* \"#utility.yul\":35638:35673   */\n    tag_770:\n        /* \"#utility.yul\":35695:35696   */\n      dup3\n        /* \"#utility.yul\":35692:35693   */\n      dup3\n        /* \"#utility.yul\":35688:35697   */\n      div\n        /* \"#utility.yul\":35683:35697   */\n      swap1\n      pop\n        /* \"#utility.yul\":35518:35703   */\n      swap3\n      swap2\n      pop\n      pop\n      jump\t// out\n        /* \"#utility.yul\":35709:35880   */\n    tag_422:\n        /* \"#utility.yul\":35849:35872   */\n      0x496e76616c696420706f6c6c20656e642074696d650000000000000000000000\n        /* \"#utility.yul\":35845:35846   */\n      0x00\n        /* \"#utility.yul\":35837:35843   */\n      dup3\n        /* \"#utility.yul\":35833:35847   */\n      add\n        /* \"#utility.yul\":35826:35873   */\n      mstore\n        /* \"#utility.yul\":35709:35880   */\n      pop\n      jump\t// out\n        /* \"#utility.yul\":35886:36252   */\n    tag_423:\n        /* \"#utility.yul\":36028:36031   */\n      0x00\n        /* \"#utility.yul\":36049:36116   */\n      tag_774\n        /* \"#utility.yul\":36113:36115   */\n      0x15\n        /* \"#utility.yul\":36108:36111   */\n      dup4\n        /* \"#utility.yul\":36049:36116   */\n      tag_363\n      jump\t// in\n    tag_774:\n        /* \"#utility.yul\":36042:36116   */\n      swap2\n      pop\n        /* \"#utility.yul\":36125:36218   */\n      tag_775\n        /* \"#utility.yul\":36214:36217   */\n      dup3\n        /* \"#utility.yul\":36125:36218   */\n      tag_422\n      jump\t// in\n    tag_775:\n        /* \"#utility.yul\":36243:36245   */\n      0x20\n        /* \"#utility.yul\":36238:36241   */\n      dup3\n        /* \"#utility.yul\":36234:36246   */\n      add\n        /* \"#utility.yul\":36227:36246   */\n      swap1\n      pop\n        /* \"#utility.yul\":35886:36252   */\n      swap2\n      swap1\n      pop\n      jump\t// out\n        /* \"#utility.yul\":36258:36677   */\n    tag_255:\n        /* \"#utility.yul\":36424:36428   */\n      0x00\n        /* \"#utility.yul\":36462:36464   */\n      0x20\n        /* \"#utility.yul\":36451:36460   */\n      dup3\n        /* \"#utility.yul\":36447:36465   */\n      add\n        /* \"#utility.yul\":36439:36465   */\n      swap1\n      pop\n        /* \"#utility.yul\":36511:36520   */\n      dup2\n        /* \"#utility.yul\":36505:36509   */\n      dup2\n        /* \"#utility.yul\":36501:36521   */\n      sub\n        /* \"#utility.yul\":36497:36498   */\n      0x00\n        /* \"#utility.yul\":36486:36495   */\n      dup4\n        /* \"#utility.yul\":36482:36499   */\n      add\n        /* \"#utility.yul\":36475:36522   */\n      mstore\n        /* \"#utility.yul\":36539:36670   */\n      tag_777\n        /* \"#utility.yul\":36665:36669   */\n      dup2\n        /* \"#utility.yul\":36539:36670   */\n      tag_423\n      jump\t// in\n    tag_777:\n        /* \"#utility.yul\":36531:36670   */\n      swap1\n      pop\n        /* \"#utility.yul\":36258:36677   */\n      swap2\n      swap1\n      pop\n      jump\t// out\n        /* \"#utility.yul\":36683:36862   */\n    tag_424:\n        /* \"#utility.yul\":36823:36854   */\n      0x4174206c656173742074776f206f7074696f6e73207265717569726564000000\n        /* \"#utility.yul\":36819:36820   */\n      0x00\n        /* \"#utility.yul\":36811:36817   */\n      dup3\n        /* \"#utility.yul\":36807:36821   */\n      add\n        /* \"#utility.yul\":36800:36855   */\n      mstore\n        /* \"#utility.yul\":36683:36862   */\n      pop\n      jump\t// out\n        /* \"#utility.yul\":36868:37234   */\n    tag_425:\n        /* \"#utility.yul\":37010:37013   */\n      0x00\n        /* \"#utility.yul\":37031:37098   */\n      tag_780\n        /* \"#utility.yul\":37095:37097   */\n      0x1d\n        /* \"#utility.yul\":37090:37093   */\n      dup4\n        /* \"#utility.yul\":37031:37098   */\n      tag_363\n      jump\t// in\n    tag_780:\n        /* \"#utility.yul\":37024:37098   */\n      swap2\n      pop\n        /* \"#utility.yul\":37107:37200   */\n      tag_781\n        /* \"#utility.yul\":37196:37199   */\n      dup3\n        /* \"#utility.yul\":37107:37200   */\n      tag_424\n      jump\t// in\n    tag_781:\n        /* \"#utility.yul\":37225:37227   */\n      0x20\n        /* \"#utility.yul\":37220:37223   */\n      dup3\n        /* \"#utility.yul\":37216:37228   */\n      add\n        /* \"#utility.yul\":37209:37228   */\n      swap1\n      pop\n        /* \"#utility.yul\":36868:37234   */\n      swap2\n      swap1\n      pop\n      jump\t// out\n        /* \"#utility.yul\":37240:37659   */\n    tag_258:\n        /* \"#utility.yul\":37406:37410   */\n      0x00\n        /* \"#utility.yul\":37444:37446   */\n      0x20\n        /* \"#utility.yul\":37433:37442   */\n      dup3\n        /* \"#utility.yul\":37429:37447   */\n      add\n        /* \"#utility.yul\":37421:37447   */\n      swap1\n      pop\n        /* \"#utility.yul\":37493:37502   */\n      dup2\n        /* \"#utility.yul\":37487:37491   */\n      dup2\n        /* \"#utility.yul\":37483:37503   */\n      sub\n        /* \"#utility.yul\":37479:37480   */\n      0x00\n        /* \"#utility.yul\":37468:37477   */\n      dup4\n        /* \"#utility.yul\":37464:37481   */\n      add\n        /* \"#utility.yul\":37457:37504   */\n      mstore\n        /* \"#utility.yul\":37521:37652   */\n      tag_783\n        /* \"#utility.yul\":37647:37651   */\n      dup2\n        /* \"#utility.yul\":37521:37652   */\n      tag_425\n      jump\t// in\n    tag_783:\n        /* \"#utility.yul\":37513:37652   */\n      swap1\n      pop\n        /* \"#utility.yul\":37240:37659   */\n      swap2\n      swap1\n      pop\n      jump\t// out\n        /* \"#utility.yul\":37665:37859   */\n    tag_426:\n        /* \"#utility.yul\":37774:37785   */\n      0x00\n        /* \"#utility.yul\":37808:37814   */\n      dup3\n        /* \"#utility.yul\":37803:37806   */\n      dup3\n        /* \"#utility.yul\":37796:37815   */\n      mstore\n        /* \"#utility.yul\":37848:37852   */\n      0x20\n        /* \"#utility.yul\":37843:37846   */\n      dup3\n        /* \"#utility.yul\":37839:37853   */\n      add\n        /* \"#utility.yul\":37824:37853   */\n      swap1\n      pop\n        /* \"#utility.yul\":37665:37859   */\n      swap3\n      swap2\n      pop\n      pop\n      jump\t// out\n        /* \"#utility.yul\":37893:38884   */\n    tag_427:\n        /* \"#utility.yul\":38032:38035   */\n      0x00\n        /* \"#utility.yul\":38061:38125   */\n      tag_786\n        /* \"#utility.yul\":38119:38124   */\n      dup3\n        /* \"#utility.yul\":38061:38125   */\n      tag_343\n      jump\t// in\n    tag_786:\n        /* \"#utility.yul\":38141:38237   */\n      tag_787\n        /* \"#utility.yul\":38230:38236   */\n      dup2\n        /* \"#utility.yul\":38225:38228   */\n      dup6\n        /* \"#utility.yul\":38141:38237   */\n      tag_426\n      jump\t// in\n    tag_787:\n        /* \"#utility.yul\":38134:38237   */\n      swap4\n      pop\n        /* \"#utility.yul\":38263:38266   */\n      dup4\n        /* \"#utility.yul\":38308:38312   */\n      0x20\n        /* \"#utility.yul\":38300:38306   */\n      dup3\n        /* \"#utility.yul\":38296:38313   */\n      mul\n        /* \"#utility.yul\":38291:38294   */\n      dup6\n        /* \"#utility.yul\":38287:38314   */\n      add\n        /* \"#utility.yul\":38338:38404   */\n      tag_788\n        /* \"#utility.yul\":38398:38403   */\n      dup6\n        /* \"#utility.yul\":38338:38404   */\n      tag_345\n      jump\t// in\n    tag_788:\n        /* \"#utility.yul\":38427:38434   */\n      dup1\n        /* \"#utility.yul\":38458:38459   */\n      0x00\n        /* \"#utility.yul\":38443:38839   */\n    tag_789:\n        /* \"#utility.yul\":38468:38474   */\n      dup6\n        /* \"#utility.yul\":38465:38466   */\n      dup2\n        /* \"#utility.yul\":38462:38475   */\n      lt\n        /* \"#utility.yul\":38443:38839   */\n      iszero\n      tag_791\n      jumpi\n        /* \"#utility.yul\":38539:38548   */\n      dup5\n        /* \"#utility.yul\":38533:38537   */\n      dup5\n        /* \"#utility.yul\":38529:38549   */\n      sub\n        /* \"#utility.yul\":38524:38527   */\n      dup10\n        /* \"#utility.yul\":38517:38550   */\n      mstore\n        /* \"#utility.yul\":38590:38596   */\n      dup2\n        /* \"#utility.yul\":38584:38597   */\n      mload\n        /* \"#utility.yul\":38618:38702   */\n      tag_792\n        /* \"#utility.yul\":38697:38701   */\n      dup6\n        /* \"#utility.yul\":38682:38695   */\n      dup3\n        /* \"#utility.yul\":38618:38702   */\n      tag_351\n      jump\t// in\n    tag_792:\n        /* \"#utility.yul\":38610:38702   */\n      swap5\n      pop\n        /* \"#utility.yul\":38725:38795   */\n      tag_793\n        /* \"#utility.yul\":38788:38794   */\n      dup4\n        /* \"#utility.yul\":38725:38795   */\n      tag_352\n      jump\t// in\n    tag_793:\n        /* \"#utility.yul\":38715:38795   */\n      swap3\n      pop\n        /* \"#utility.yul\":38824:38828   */\n      0x20\n        /* \"#utility.yul\":38819:38822   */\n      dup11\n        /* \"#utility.yul\":38815:38829   */\n      add\n        /* \"#utility.yul\":38808:38829   */\n      swap10\n      pop\n        /* \"#utility.yul\":38503:38839   */\n      pop\n        /* \"#utility.yul\":38490:38491   */\n      0x01\n        /* \"#utility.yul\":38487:38488   */\n      dup2\n        /* \"#utility.yul\":38483:38492   */\n      add\n        /* \"#utility.yul\":38478:38492   */\n      swap1\n      pop\n        /* \"#utility.yul\":38443:38839   */\n      jump(tag_789)\n    tag_791:\n        /* \"#utility.yul\":38447:38461   */\n      pop\n        /* \"#utility.yul\":38855:38859   */\n      dup3\n        /* \"#utility.yul\":38848:38859   */\n      swap8\n      pop\n        /* \"#utility.yul\":38875:38878   */\n      dup8\n        /* \"#utility.yul\":38868:38878   */\n      swap6\n      pop\n        /* \"#utility.yul\":38037:38884   */\n      pop\n      pop\n      pop\n      pop\n      pop\n        /* \"#utility.yul\":37893:38884   */\n      swap3\n      swap2\n      pop\n      pop\n      jump\t// out\n        /* \"#utility.yul\":38890:39523   */\n    tag_270:\n        /* \"#utility.yul\":39109:39113   */\n      0x00\n        /* \"#utility.yul\":39147:39149   */\n      0x60\n        /* \"#utility.yul\":39136:39145   */\n      dup3\n        /* \"#utility.yul\":39132:39150   */\n      add\n        /* \"#utility.yul\":39124:39150   */\n      swap1\n      pop\n        /* \"#utility.yul\":39160:39231   */\n      tag_795\n        /* \"#utility.yul\":39228:39229   */\n      0x00\n        /* \"#utility.yul\":39217:39226   */\n      dup4\n        /* \"#utility.yul\":39213:39230   */\n      add\n        /* \"#utility.yul\":39204:39210   */\n      dup7\n        /* \"#utility.yul\":39160:39231   */\n      tag_340\n      jump\t// in\n    tag_795:\n        /* \"#utility.yul\":39241:39313   */\n      tag_796\n        /* \"#utility.yul\":39309:39311   */\n      0x20\n        /* \"#utility.yul\":39298:39307   */\n      dup4\n        /* \"#utility.yul\":39294:39312   */\n      add\n        /* \"#utility.yul\":39285:39291   */\n      dup6\n        /* \"#utility.yul\":39241:39313   */\n      tag_340\n      jump\t// in\n    tag_796:\n        /* \"#utility.yul\":39360:39369   */\n      dup2\n        /* \"#utility.yul\":39354:39358   */\n      dup2\n        /* \"#utility.yul\":39350:39370   */\n      sub\n        /* \"#utility.yul\":39345:39347   */\n      0x40\n        /* \"#utility.yul\":39334:39343   */\n      dup4\n        /* \"#utility.yul\":39330:39348   */\n      add\n        /* \"#utility.yul\":39323:39371   */\n      mstore\n        /* \"#utility.yul\":39388:39516   */\n      tag_797\n        /* \"#utility.yul\":39511:39515   */\n      dup2\n        /* \"#utility.yul\":39502:39508   */\n      dup5\n        /* \"#utility.yul\":39388:39516   */\n      tag_427\n      jump\t// in\n    tag_797:\n        /* \"#utility.yul\":39380:39516   */\n      swap1\n      pop\n        /* \"#utility.yul\":38890:39523   */\n      swap5\n      swap4\n      pop\n      pop\n      pop\n      pop\n      jump\t// out\n        /* \"#utility.yul\":39529:39615   */\n    tag_428:\n        /* \"#utility.yul\":39564:39571   */\n      0x00\n        /* \"#utility.yul\":39604:39608   */\n      0xff\n        /* \"#utility.yul\":39597:39602   */\n      dup3\n        /* \"#utility.yul\":39593:39609   */\n      and\n        /* \"#utility.yul\":39582:39609   */\n      swap1\n      pop\n        /* \"#utility.yul\":39529:39615   */\n      swap2\n      swap1\n      pop\n      jump\t// out\n        /* \"#utility.yul\":39621:39788   */\n    tag_286:\n        /* \"#utility.yul\":39658:39661   */\n      0x00\n        /* \"#utility.yul\":39681:39703   */\n      tag_800\n        /* \"#utility.yul\":39697:39702   */\n      dup3\n        /* \"#utility.yul\":39681:39703   */\n      tag_428\n      jump\t// in\n    tag_800:\n        /* \"#utility.yul\":39672:39703   */\n      swap2\n      pop\n        /* \"#utility.yul\":39725:39729   */\n      0xff\n        /* \"#utility.yul\":39718:39723   */\n      dup3\n        /* \"#utility.yul\":39715:39730   */\n      sub\n        /* \"#utility.yul\":39712:39753   */\n      tag_801\n      jumpi\n        /* \"#utility.yul\":39733:39751   */\n      tag_802\n      tag_384\n      jump\t// in\n    tag_802:\n        /* \"#utility.yul\":39712:39753   */\n    tag_801:\n        /* \"#utility.yul\":39780:39781   */\n      0x01\n        /* \"#utility.yul\":39773:39778   */\n      dup3\n        /* \"#utility.yul\":39769:39782   */\n      add\n        /* \"#utility.yul\":39762:39782   */\n      swap1\n      pop\n        /* \"#utility.yul\":39621:39788   */\n      swap2\n      swap1\n      pop\n      jump\t// out\n\n    auxdata: 0xa2646970667358221220f9fc816144e23081da9dc5621e0a2274062a50f8134700932ac9a5920ae6468d64736f6c63430008120033\n}\n",
				"bytecode": {
					"linkReferences": {},
					"object": "608060405234801561001057600080fd5b50612d94806100206000396000f3fe60806040526004361061011f5760003560e01c80638761ad0c116100a0578063a32bde6f11610064578063a32bde6f1461044f578063a9549f0a1461048c578063cf094497146104c9578063d624d6fd146104f4578063ed8c2aed1461051d5761011f565b80638761ad0c1461034f57806391cbfb411461038c5780639207891d146103c95780639b85e14f146103f45780639e319063146104105761011f565b806343859632116100e7578063438596321461025857806346f86716146102955780634c3c234f146102d25780636b7128ec146102fb5780636f4a2cd0146103385761011f565b806306455f5e146101245780630e89da561461016157806327e235e31461019e57806329b8f44a146101db578063420700f614610218575b600080fd5b34801561013057600080fd5b5061014b60048036038101906101469190611990565b610534565b60405161015891906119df565b60405180910390f35b34801561016d57600080fd5b50610188600480360381019061018391906119fa565b610559565b60405161019591906119df565b60405180910390f35b3480156101aa57600080fd5b506101c560048036038101906101c09190611a27565b6105e2565b6040516101d291906119df565b60405180910390f35b3480156101e757600080fd5b5061020260048036038101906101fd91906119fa565b6105fa565b60405161020f9190611d31565b60405180910390f35b34801561022457600080fd5b5061023f600480360381019061023a9190611d53565b6107ed565b60405161024f9493929190611dec565b60405180910390f35b34801561026457600080fd5b5061027f600480360381019061027a9190611990565b6108e2565b60405161028c9190611e47565b60405180910390f35b3480156102a157600080fd5b506102bc60048036038101906102b791906119fa565b610911565b6040516102c991906119df565b60405180910390f35b3480156102de57600080fd5b506102f960048036038101906102f49190611d53565b610929565b005b34801561030757600080fd5b50610322600480360381019061031d91906119fa565b610cbd565b60405161032f91906119df565b60405180910390f35b34801561034457600080fd5b5061034d610cdd565b005b34801561035b57600080fd5b50610376600480360381019061037191906119fa565b610cdf565b60405161038391906119df565b60405180910390f35b34801561039857600080fd5b506103b360048036038101906103ae9190611d53565b610d3c565b6040516103c091906119df565b60405180910390f35b3480156103d557600080fd5b506103de610d6d565b6040516103eb91906119df565b60405180910390f35b61040e60048036038101906104099190611e98565b610d73565b005b34801561041c57600080fd5b5061043760048036038101906104329190611990565b611131565b60405161044693929190611ed8565b60405180910390f35b34801561045b57600080fd5b50610476600480360381019061047191906119fa565b611188565b60405161048391906119df565b60405180910390f35b34801561049857600080fd5b506104b360048036038101906104ae9190611f74565b6111ac565b6040516104c091906119df565b60405180910390f35b3480156104d557600080fd5b506104de6112ab565b6040516104eb91906119df565b60405180910390f35b34801561050057600080fd5b5061051b600480360381019061051691906121e5565b6112b1565b005b34801561052957600080fd5b50610532611507565b005b6003602052816000526040600020602052806000526040600020600091509150505481565b6000806000905060005b60066000858152602001908152602001600020805490508110156105d8576006600085815260200190815260200160002081815481106105a6576105a5612254565b5b906000526020600020906004020160030154826105c391906122b2565b915080806105d0906122e6565b915050610563565b5080915050919050565b60056020528060005260406000206000915090505481565b61060261176c565b6000600a60008481526020019081526020016000209050806040518060e0016040529081600082015481526020016001820160009054906101000a900473ffffffffffffffffffffffffffffffffffffffff1673ffffffffffffffffffffffffffffffffffffffff1673ffffffffffffffffffffffffffffffffffffffff168152602001600282015481526020016003820154815260200160048201805480602002602001604051908101604052809291908181526020016000905b8282101561076a5783829060005260206000200180546106dd9061235d565b80601f01602080910402602001604051908101604052809291908181526020018280546107099061235d565b80156107565780601f1061072b57610100808354040283529160200191610756565b820191906000526020600020905b81548152906001019060200180831161073957829003601f168201915b5050505050815260200190600101906106be565b505050508152602001600582018054806020026020016040519081016040528092919081815260200182805480156107c157602002820191906000526020600020905b8154815260200190600101908083116107ad575b505050505081526020016006820160009054906101000a900460ff161515151581525050915050919050565b6006602052816000526040600020818154811061080957600080fd5b9060005260206000209060040201600091509150508060000154908060010180546108339061235d565b80601f016020809104026020016040519081016040528092919081815260200182805461085f9061235d565b80156108ac5780601f10610881576101008083540402835291602001916108ac565b820191906000526020600020905b81548152906001019060200180831161088f57829003601f168201915b5050505050908060020160009054906101000a900473ffffffffffffffffffffffffffffffffffffffff16908060030154905084565b60076020528160005260406000206020528060005260406000206000915091509054906101000a900460ff1681565b60026020528060005260406000206000915090505481565b6000600a600084815260200190815260200160002090506007600084815260200190815260200160002060003373ffffffffffffffffffffffffffffffffffffffff1673ffffffffffffffffffffffffffffffffffffffff16815260200190815260200160002060009054906101000a900460ff16156109de576040517f08c379a00000000000000000000000000000000000000000000000000000000081526004016109d5906123da565b60405180910390fd5b8060060160009054906101000a900460ff16610a2f576040517f08c379a0000000000000000000000000000000000000000000000000000000008152600401610a2690612446565b60405180910390fd5b80600201544210158015610a47575080600301544211155b610a86576040517f08c379a0000000000000000000000000000000000000000000000000000000008152600401610a7d906124b2565b60405180910390fd5b600082118015610a9c5750806004018054905082105b610adb576040517f08c379a0000000000000000000000000000000000000000000000000000000008152600401610ad29061251e565b60405180910390fd5b60016007600085815260200190815260200160002060003373ffffffffffffffffffffffffffffffffffffffff1673ffffffffffffffffffffffffffffffffffffffff16815260200190815260200160002060006101000a81548160ff021916908315150217905550600060405180606001604052808581526020013373ffffffffffffffffffffffffffffffffffffffff168152602001848152509050806008600086815260200190815260200160002060003373ffffffffffffffffffffffffffffffffffffffff1673ffffffffffffffffffffffffffffffffffffffff1681526020019081526020016000206000820151816000015560208201518160010160006101000a81548173ffffffffffffffffffffffffffffffffffffffff021916908373ffffffffffffffffffffffffffffffffffffffff16021790555060408201518160020155905050610c328433611509565b816005018381548110610c4857610c47612254565b5b906000526020600020016000815480929190610c63906122e6565b91905055503373ffffffffffffffffffffffffffffffffffffffff16847fe7ee74ca1f4bb1b82b14f87794c45b3e59c39e372b862fb97a6316b43355b69e85604051610caf91906119df565b60405180910390a350505050565b600060066000838152602001908152602001600020805490509050919050565b565b60008060009050600060096000858152602001908152602001600020905060005b610d0982611533565b811015610d31578280610d1b906122e6565b9350508080610d29906122e6565b915050610d00565b508192505050919050565b60046020528160005260406000208181548110610d5857600080fd5b90600052602060002001600091509150505481565b60005481565b600a600083815260200190815260200160002060020154421015610dcc576040517f08c379a0000000000000000000000000000000000000000000000000000000008152600401610dc3906125b0565b60405180910390fd5b600a6000838152602001908152602001600020600301544210610e24576040517f08c379a0000000000000000000000000000000000000000000000000000000008152600401610e1b90612642565b60405180910390fd5b60003411610e67576040517f08c379a0000000000000000000000000000000000000000000000000000000008152600401610e5e906126ae565b60405180910390fd5b600080600090505b600a600085815260200190815260200160002060040180549050811015610ef85782600a60008681526020019081526020016000206004018281548110610eb957610eb8612254565b5b90600052602060002001604051610ed09190612771565b604051809103902003610ee557809150610ef8565b8080610ef0906122e6565b915050610e6f565b5060008111610f3c576040517f08c379a0000000000000000000000000000000000000000000000000000000008152600401610f3390612820565b60405180910390fd5b34600260008581526020019081526020016000206000828254610f5f91906122b2565b92505081905550346003600085815260200190815260200160002060003373ffffffffffffffffffffffffffffffffffffffff1673ffffffffffffffffffffffffffffffffffffffff1681526020019081526020016000206000828254610fc691906122b2565b9250508190555060016000815480929190610fe0906122e6565b919050555060066000848152602001908152602001600020604051806080016040528085815260200161101285611548565b81526020013373ffffffffffffffffffffffffffffffffffffffff16815260200134815250908060018154018082558091505060019003906000526020600020906004020160009091909190915060008201518160000155602082015181600101908161107f91906129ec565b5060408201518160020160006101000a81548173ffffffffffffffffffffffffffffffffffffffff021916908373ffffffffffffffffffffffffffffffffffffffff1602179055506060820151816003015550503373ffffffffffffffffffffffffffffffffffffffff16837ffa643037cee917ec3049f1ba2bfb5d4df493f0b6db3ed68f3716d11233494e7d61111585611548565b34604051611124929190612abe565b60405180910390a3505050565b6008602052816000526040600020602052806000526040600020600091509150508060000154908060010160009054906101000a900473ffffffffffffffffffffffffffffffffffffffff16908060020154905083565b600b818154811061119857600080fd5b906000526020600020016000915090505481565b60008060009050600060066000878152602001908152602001600020905060005b81805490508110156112755785856040516111e9929190612b13565b604051809103902082828154811061120457611203612254565b5b90600052602060002090600402016001016040516112229190612771565b6040518091039020036112625781818154811061124257611241612254565b5b9060005260206000209060040201600301548361125f91906122b2565b92505b808061126d906122e6565b9150506111cd565b50600061128187610559565b90506000811161129257600061129f565b808361129e9190612b5b565b5b93505050509392505050565b60015481565b42925062015180426112c391906122b2565b9150828211611307576040517f08c379a00000000000000000000000000000000000000000000000000000000081526004016112fe90612bd8565b60405180910390fd5b600181511161134b576040517f08c379a000000000000000000000000000000000000000000000000000000000815260040161134290612c44565b60405180910390fd5b60008151905060008167ffffffffffffffff81111561136d5761136c611fd4565b5b60405190808252806020026020018201604052801561139b5781602001602082028036833780820191505090505b5090506000600a6000805481526020019081526020016000209050338160010160006101000a81548173ffffffffffffffffffffffffffffffffffffffff021916908373ffffffffffffffffffffffffffffffffffffffff160217905550428160020181905550620151804261141191906122b2565b8160030181905550838160040190805190602001906114319291906117c1565b508181600501908051906020019061144a92919061181a565b5060018160060160006101000a81548160ff021916908315150217905550600b60005490806001815401808255809150506001900390600052602060002001600090919091909150553373ffffffffffffffffffffffffffffffffffffffff166000547f58d87e181e9ac91f8ccda34caaf4c15db2a9fc345a86ea48e378d6e4359dfdb98888886040516114e093929190612cea565b60405180910390a36000808154809291906114fa906122e6565b9190505550505050505050565b565b61152e816009600085815260200190815260200160002061169890919063ffffffff16565b505050565b6000611541826000016116c8565b9050919050565b606060005b60208160ff1610801561159f5750600060f81b838260ff166020811061157657611575612254565b5b1a60f81b7effffffffffffffffffffffffffffffffffffffffffffffffffffffffffffff191614155b156115b75780806115af90612d35565b91505061154d565b60008160ff1667ffffffffffffffff8111156115d6576115d5611fd4565b5b6040519080825280601f01601f1916602001820160405280156116085781602001600182028036833780820191505090505b509050600091505b80518260ff16101561168e57838260ff166020811061163257611631612254565b5b1a60f81b818360ff168151811061164c5761164b612254565b5b60200101907effffffffffffffffffffffffffffffffffffffffffffffffffffffffffffff1916908160001a905350818061168690612d35565b925050611610565b8092505050919050565b60006116c0836000018373ffffffffffffffffffffffffffffffffffffffff1660001b6116d9565b905092915050565b600081600001805490509050919050565b60006116e58383611749565b61173e578260000182908060018154018082558091505060019003906000526020600020016000909190919091505582600001805490508360010160008481526020019081526020016000208190555060019050611743565b600090505b92915050565b600080836001016000848152602001908152602001600020541415905092915050565b6040518060e0016040528060008152602001600073ffffffffffffffffffffffffffffffffffffffff168152602001600081526020016000815260200160608152602001606081526020016000151581525090565b828054828255906000526020600020908101928215611809579160200282015b828111156118085782518290816117f891906129ec565b50916020019190600101906117e1565b5b5090506118169190611867565b5090565b828054828255906000526020600020908101928215611856579160200282015b8281111561185557825182559160200191906001019061183a565b5b509050611863919061188b565b5090565b5b80821115611887576000818161187e91906118a8565b50600101611868565b5090565b5b808211156118a457600081600090555060010161188c565b5090565b5080546118b49061235d565b6000825580601f106118c657506118e5565b601f0160209004906000526020600020908101906118e4919061188b565b5b50565b6000604051905090565b600080fd5b600080fd5b6000819050919050565b61190f816118fc565b811461191a57600080fd5b50565b60008135905061192c81611906565b92915050565b600073ffffffffffffffffffffffffffffffffffffffff82169050919050565b600061195d82611932565b9050919050565b61196d81611952565b811461197857600080fd5b50565b60008135905061198a81611964565b92915050565b600080604083850312156119a7576119a66118f2565b5b60006119b58582860161191d565b92505060206119c68582860161197b565b9150509250929050565b6119d9816118fc565b82525050565b60006020820190506119f460008301846119d0565b92915050565b600060208284031215611a1057611a0f6118f2565b5b6000611a1e8482850161191d565b91505092915050565b600060208284031215611a3d57611a3c6118f2565b5b6000611a4b8482850161197b565b91505092915050565b611a5d816118fc565b82525050565b611a6c81611952565b82525050565b600081519050919050565b600082825260208201905092915050565b6000819050602082019050919050565b600081519050919050565b600082825260208201905092915050565b60005b83811015611ad8578082015181840152602081019050611abd565b60008484015250505050565b6000601f19601f8301169050919050565b6000611b0082611a9e565b611b0a8185611aa9565b9350611b1a818560208601611aba565b611b2381611ae4565b840191505092915050565b6000611b3a8383611af5565b905092915050565b6000602082019050919050565b6000611b5a82611a72565b611b648185611a7d565b935083602082028501611b7685611a8e565b8060005b85811015611bb25784840389528151611b938582611b2e565b9450611b9e83611b42565b925060208a01995050600181019050611b7a565b50829750879550505050505092915050565b600081519050919050565b600082825260208201905092915050565b6000819050602082019050919050565b6000611bfc8383611a54565b60208301905092915050565b6000602082019050919050565b6000611c2082611bc4565b611c2a8185611bcf565b9350611c3583611be0565b8060005b83811015611c66578151611c4d8882611bf0565b9750611c5883611c08565b925050600181019050611c39565b5085935050505092915050565b60008115159050919050565b611c8881611c73565b82525050565b600060e083016000830151611ca66000860182611a54565b506020830151611cb96020860182611a63565b506040830151611ccc6040860182611a54565b506060830151611cdf6060860182611a54565b5060808301518482036080860152611cf78282611b4f565b91505060a083015184820360a0860152611d118282611c15565b91505060c0830151611d2660c0860182611c7f565b508091505092915050565b60006020820190508181036000830152611d4b8184611c8e565b905092915050565b60008060408385031215611d6a57611d696118f2565b5b6000611d788582860161191d565b9250506020611d898582860161191d565b9150509250929050565b600082825260208201905092915050565b6000611daf82611a9e565b611db98185611d93565b9350611dc9818560208601611aba565b611dd281611ae4565b840191505092915050565b611de681611952565b82525050565b6000608082019050611e0160008301876119d0565b8181036020830152611e138186611da4565b9050611e226040830185611ddd565b611e2f60608301846119d0565b95945050505050565b611e4181611c73565b82525050565b6000602082019050611e5c6000830184611e38565b92915050565b6000819050919050565b611e7581611e62565b8114611e8057600080fd5b50565b600081359050611e9281611e6c565b92915050565b60008060408385031215611eaf57611eae6118f2565b5b6000611ebd8582860161191d565b9250506020611ece85828601611e83565b9150509250929050565b6000606082019050611eed60008301866119d0565b611efa6020830185611ddd565b611f0760408301846119d0565b949350505050565b600080fd5b600080fd5b600080fd5b60008083601f840112611f3457611f33611f0f565b5b8235905067ffffffffffffffff811115611f5157611f50611f14565b5b602083019150836001820283011115611f6d57611f6c611f19565b5b9250929050565b600080600060408486031215611f8d57611f8c6118f2565b5b6000611f9b8682870161191d565b935050602084013567ffffffffffffffff811115611fbc57611fbb6118f7565b5b611fc886828701611f1e565b92509250509250925092565b7f4e487b7100000000000000000000000000000000000000000000000000000000600052604160045260246000fd5b61200c82611ae4565b810181811067ffffffffffffffff8211171561202b5761202a611fd4565b5b80604052505050565b600061203e6118e8565b905061204a8282612003565b919050565b600067ffffffffffffffff82111561206a57612069611fd4565b5b602082029050602081019050919050565b600080fd5b600067ffffffffffffffff82111561209b5761209a611fd4565b5b6120a482611ae4565b9050602081019050919050565b82818337600083830152505050565b60006120d36120ce84612080565b612034565b9050828152602081018484840111156120ef576120ee61207b565b5b6120fa8482856120b1565b509392505050565b600082601f83011261211757612116611f0f565b5b81356121278482602086016120c0565b91505092915050565b600061214361213e8461204f565b612034565b9050808382526020820190506020840283018581111561216657612165611f19565b5b835b818110156121ad57803567ffffffffffffffff81111561218b5761218a611f0f565b5b8086016121988982612102565b85526020850194505050602081019050612168565b5050509392505050565b600082601f8301126121cc576121cb611f0f565b5b81356121dc848260208601612130565b91505092915050565b6000806000606084860312156121fe576121fd6118f2565b5b600061220c8682870161191d565b935050602061221d8682870161191d565b925050604084013567ffffffffffffffff81111561223e5761223d6118f7565b5b61224a868287016121b7565b9150509250925092565b7f4e487b7100000000000000000000000000000000000000000000000000000000600052603260045260246000fd5b7f4e487b7100000000000000000000000000000000000000000000000000000000600052601160045260246000fd5b60006122bd826118fc565b91506122c8836118fc565b92508282019050808211156122e0576122df612283565b5b92915050565b60006122f1826118fc565b91507fffffffffffffffffffffffffffffffffffffffffffffffffffffffffffffffff820361232357612322612283565b5b600182019050919050565b7f4e487b7100000000000000000000000000000000000000000000000000000000600052602260045260246000fd5b6000600282049050600182168061237557607f821691505b6020821081036123885761238761232e565b5b50919050565b7f416c726561647920766f74656400000000000000000000000000000000000000600082015250565b60006123c4600d83611d93565b91506123cf8261238e565b602082019050919050565b600060208201905081810360008301526123f3816123b7565b9050919050565b7f506f6c6c20697320636c6f736564000000000000000000000000000000000000600082015250565b6000612430600e83611d93565b915061243b826123fa565b602082019050919050565b6000602082019050818103600083015261245f81612423565b9050919050565b7f506f6c6c206973206e6f74206163746976650000000000000000000000000000600082015250565b600061249c601283611d93565b91506124a782612466565b602082019050919050565b600060208201905081810360008301526124cb8161248f565b9050919050565b7f496e76616c69642063686f696365000000000000000000000000000000000000600082015250565b6000612508600e83611d93565b9150612513826124d2565b602082019050919050565b60006020820190508181036000830152612537816124fb565b9050919050565b7f506f6c6c20686173206e6f742073746172746564207965742c20796f7520636160008201527f6e6e6f7420626574206f6e206974000000000000000000000000000000000000602082015250565b600061259a602e83611d93565b91506125a58261253e565b604082019050919050565b600060208201905081810360008301526125c98161258d565b9050919050565b7f506f6c6c2068617320656e6465642c20796f752063616e6e6f7420626574206f60008201527f6e20697420616e796d6f72650000000000000000000000000000000000000000602082015250565b600061262c602c83611d93565b9150612637826125d0565b604082019050919050565b6000602082019050818103600083015261265b8161261f565b9050919050565b7f416d6f756e74206d7573742062652067726561746572207468616e2030210000600082015250565b6000612698601e83611d93565b91506126a382612662565b602082019050919050565b600060208201905081810360008301526126c78161268b565b9050919050565b600081905092915050565b60008190508160005260206000209050919050565b600081546126fb8161235d565b61270581866126ce565b94506001821660008114612720576001811461273557612768565b60ff1983168652811515820286019350612768565b61273e856126d9565b60005b8381101561276057815481890152600182019150602081019050612741565b838801955050505b50505092915050565b600061277d82846126ee565b915081905092915050565b7f496e76616c696420706f6c6c2063686f6963652c20706c656173652073656c6560008201527f6374206f6e65206f662074686520706f6c6c2063686f6963657320746f20626560208201527f74206f6e00000000000000000000000000000000000000000000000000000000604082015250565b600061280a604483611d93565b915061281582612788565b606082019050919050565b60006020820190508181036000830152612839816127fd565b9050919050565b60008190508160005260206000209050919050565b60006020601f8301049050919050565b600082821b905092915050565b6000600883026128a27fffffffffffffffffffffffffffffffffffffffffffffffffffffffffffffffff82612865565b6128ac8683612865565b95508019841693508086168417925050509392505050565b6000819050919050565b60006128e96128e46128df846118fc565b6128c4565b6118fc565b9050919050565b6000819050919050565b612903836128ce565b61291761290f826128f0565b848454612872565b825550505050565b600090565b61292c61291f565b6129378184846128fa565b505050565b5b8181101561295b57612950600082612924565b60018101905061293d565b5050565b601f8211156129a05761297181612840565b61297a84612855565b81016020851015612989578190505b61299d61299585612855565b83018261293c565b50505b505050565b600082821c905092915050565b60006129c3600019846008026129a5565b1980831691505092915050565b60006129dc83836129b2565b9150826002028217905092915050565b6129f582611a9e565b67ffffffffffffffff811115612a0e57612a0d611fd4565b5b612a18825461235d565b612a2382828561295f565b600060209050601f831160018114612a565760008415612a44578287015190505b612a4e85826129d0565b865550612ab6565b601f198416612a6486612840565b60005b82811015612a8c57848901518255600182019150602085019450602081019050612a67565b86831015612aa95784890151612aa5601f8916826129b2565b8355505b6001600288020188555050505b505050505050565b60006040820190508181036000830152612ad88185611da4565b9050612ae760208301846119d0565b9392505050565b6000612afa83856126ce565b9350612b078385846120b1565b82840190509392505050565b6000612b20828486612aee565b91508190509392505050565b7f4e487b7100000000000000000000000000000000000000000000000000000000600052601260045260246000fd5b6000612b66826118fc565b9150612b71836118fc565b925082612b8157612b80612b2c565b5b828204905092915050565b7f496e76616c696420706f6c6c20656e642074696d650000000000000000000000600082015250565b6000612bc2601583611d93565b9150612bcd82612b8c565b602082019050919050565b60006020820190508181036000830152612bf181612bb5565b9050919050565b7f4174206c656173742074776f206f7074696f6e73207265717569726564000000600082015250565b6000612c2e601d83611d93565b9150612c3982612bf8565b602082019050919050565b60006020820190508181036000830152612c5d81612c21565b9050919050565b600082825260208201905092915050565b6000612c8082611a72565b612c8a8185612c64565b935083602082028501612c9c85611a8e565b8060005b85811015612cd85784840389528151612cb98582611b2e565b9450612cc483611b42565b925060208a01995050600181019050612ca0565b50829750879550505050505092915050565b6000606082019050612cff60008301866119d0565b612d0c60208301856119d0565b8181036040830152612d1e8184612c75565b9050949350505050565b600060ff82169050919050565b6000612d4082612d28565b915060ff8203612d5357612d52612283565b5b60018201905091905056fea2646970667358221220f9fc816144e23081da9dc5621e0a2274062a50f8134700932ac9a5920ae6468d64736f6c63430008120033",
					"opcodes": "PUSH1 0x80 PUSH1 0x40 MSTORE CALLVALUE DUP1 ISZERO PUSH2 0x10 JUMPI PUSH1 0x0 DUP1 REVERT JUMPDEST POP PUSH2 0x2D94 DUP1 PUSH2 0x20 PUSH1 0x0 CODECOPY PUSH1 0x0 RETURN INVALID PUSH1 0x80 PUSH1 0x40 MSTORE PUSH1 0x4 CALLDATASIZE LT PUSH2 0x11F JUMPI PUSH1 0x0 CALLDATALOAD PUSH1 0xE0 SHR DUP1 PUSH4 0x8761AD0C GT PUSH2 0xA0 JUMPI DUP1 PUSH4 0xA32BDE6F GT PUSH2 0x64 JUMPI DUP1 PUSH4 0xA32BDE6F EQ PUSH2 0x44F JUMPI DUP1 PUSH4 0xA9549F0A EQ PUSH2 0x48C JUMPI DUP1 PUSH4 0xCF094497 EQ PUSH2 0x4C9 JUMPI DUP1 PUSH4 0xD624D6FD EQ PUSH2 0x4F4 JUMPI DUP1 PUSH4 0xED8C2AED EQ PUSH2 0x51D JUMPI PUSH2 0x11F JUMP JUMPDEST DUP1 PUSH4 0x8761AD0C EQ PUSH2 0x34F JUMPI DUP1 PUSH4 0x91CBFB41 EQ PUSH2 0x38C JUMPI DUP1 PUSH4 0x9207891D EQ PUSH2 0x3C9 JUMPI DUP1 PUSH4 0x9B85E14F EQ PUSH2 0x3F4 JUMPI DUP1 PUSH4 0x9E319063 EQ PUSH2 0x410 JUMPI PUSH2 0x11F JUMP JUMPDEST DUP1 PUSH4 0x43859632 GT PUSH2 0xE7 JUMPI DUP1 PUSH4 0x43859632 EQ PUSH2 0x258 JUMPI DUP1 PUSH4 0x46F86716 EQ PUSH2 0x295 JUMPI DUP1 PUSH4 0x4C3C234F EQ PUSH2 0x2D2 JUMPI DUP1 PUSH4 0x6B7128EC EQ PUSH2 0x2FB JUMPI DUP1 PUSH4 0x6F4A2CD0 EQ PUSH2 0x338 JUMPI PUSH2 0x11F JUMP JUMPDEST DUP1 PUSH4 0x6455F5E EQ PUSH2 0x124 JUMPI DUP1 PUSH4 0xE89DA56 EQ PUSH2 0x161 JUMPI DUP1 PUSH4 0x27E235E3 EQ PUSH2 0x19E JUMPI DUP1 PUSH4 0x29B8F44A EQ PUSH2 0x1DB JUMPI DUP1 PUSH4 0x420700F6 EQ PUSH2 0x218 JUMPI JUMPDEST PUSH1 0x0 DUP1 REVERT JUMPDEST CALLVALUE DUP1 ISZERO PUSH2 0x130 JUMPI PUSH1 0x0 DUP1 REVERT JUMPDEST POP PUSH2 0x14B PUSH1 0x4 DUP1 CALLDATASIZE SUB DUP2 ADD SWAP1 PUSH2 0x146 SWAP2 SWAP1 PUSH2 0x1990 JUMP JUMPDEST PUSH2 0x534 JUMP JUMPDEST PUSH1 0x40 MLOAD PUSH2 0x158 SWAP2 SWAP1 PUSH2 0x19DF JUMP JUMPDEST PUSH1 0x40 MLOAD DUP1 SWAP2 SUB SWAP1 RETURN JUMPDEST CALLVALUE DUP1 ISZERO PUSH2 0x16D JUMPI PUSH1 0x0 DUP1 REVERT JUMPDEST POP PUSH2 0x188 PUSH1 0x4 DUP1 CALLDATASIZE SUB DUP2 ADD SWAP1 PUSH2 0x183 SWAP2 SWAP1 PUSH2 0x19FA JUMP JUMPDEST PUSH2 0x559 JUMP JUMPDEST PUSH1 0x40 MLOAD PUSH2 0x195 SWAP2 SWAP1 PUSH2 0x19DF JUMP JUMPDEST PUSH1 0x40 MLOAD DUP1 SWAP2 SUB SWAP1 RETURN JUMPDEST CALLVALUE DUP1 ISZERO PUSH2 0x1AA JUMPI PUSH1 0x0 DUP1 REVERT JUMPDEST POP PUSH2 0x1C5 PUSH1 0x4 DUP1 CALLDATASIZE SUB DUP2 ADD SWAP1 PUSH2 0x1C0 SWAP2 SWAP1 PUSH2 0x1A27 JUMP JUMPDEST PUSH2 0x5E2 JUMP JUMPDEST PUSH1 0x40 MLOAD PUSH2 0x1D2 SWAP2 SWAP1 PUSH2 0x19DF JUMP JUMPDEST PUSH1 0x40 MLOAD DUP1 SWAP2 SUB SWAP1 RETURN JUMPDEST CALLVALUE DUP1 ISZERO PUSH2 0x1E7 JUMPI PUSH1 0x0 DUP1 REVERT JUMPDEST POP PUSH2 0x202 PUSH1 0x4 DUP1 CALLDATASIZE SUB DUP2 ADD SWAP1 PUSH2 0x1FD SWAP2 SWAP1 PUSH2 0x19FA JUMP JUMPDEST PUSH2 0x5FA JUMP JUMPDEST PUSH1 0x40 MLOAD PUSH2 0x20F SWAP2 SWAP1 PUSH2 0x1D31 JUMP JUMPDEST PUSH1 0x40 MLOAD DUP1 SWAP2 SUB SWAP1 RETURN JUMPDEST CALLVALUE DUP1 ISZERO PUSH2 0x224 JUMPI PUSH1 0x0 DUP1 REVERT JUMPDEST POP PUSH2 0x23F PUSH1 0x4 DUP1 CALLDATASIZE SUB DUP2 ADD SWAP1 PUSH2 0x23A SWAP2 SWAP1 PUSH2 0x1D53 JUMP JUMPDEST PUSH2 0x7ED JUMP JUMPDEST PUSH1 0x40 MLOAD PUSH2 0x24F SWAP5 SWAP4 SWAP3 SWAP2 SWAP1 PUSH2 0x1DEC JUMP JUMPDEST PUSH1 0x40 MLOAD DUP1 SWAP2 SUB SWAP1 RETURN JUMPDEST CALLVALUE DUP1 ISZERO PUSH2 0x264 JUMPI PUSH1 0x0 DUP1 REVERT JUMPDEST POP PUSH2 0x27F PUSH1 0x4 DUP1 CALLDATASIZE SUB DUP2 ADD SWAP1 PUSH2 0x27A SWAP2 SWAP1 PUSH2 0x1990 JUMP JUMPDEST PUSH2 0x8E2 JUMP JUMPDEST PUSH1 0x40 MLOAD PUSH2 0x28C SWAP2 SWAP1 PUSH2 0x1E47 JUMP JUMPDEST PUSH1 0x40 MLOAD DUP1 SWAP2 SUB SWAP1 RETURN JUMPDEST CALLVALUE DUP1 ISZERO PUSH2 0x2A1 JUMPI PUSH1 0x0 DUP1 REVERT JUMPDEST POP PUSH2 0x2BC PUSH1 0x4 DUP1 CALLDATASIZE SUB DUP2 ADD SWAP1 PUSH2 0x2B7 SWAP2 SWAP1 PUSH2 0x19FA JUMP JUMPDEST PUSH2 0x911 JUMP JUMPDEST PUSH1 0x40 MLOAD PUSH2 0x2C9 SWAP2 SWAP1 PUSH2 0x19DF JUMP JUMPDEST PUSH1 0x40 MLOAD DUP1 SWAP2 SUB SWAP1 RETURN JUMPDEST CALLVALUE DUP1 ISZERO PUSH2 0x2DE JUMPI PUSH1 0x0 DUP1 REVERT JUMPDEST POP PUSH2 0x2F9 PUSH1 0x4 DUP1 CALLDATASIZE SUB DUP2 ADD SWAP1 PUSH2 0x2F4 SWAP2 SWAP1 PUSH2 0x1D53 JUMP JUMPDEST PUSH2 0x929 JUMP JUMPDEST STOP JUMPDEST CALLVALUE DUP1 ISZERO PUSH2 0x307 JUMPI PUSH1 0x0 DUP1 REVERT JUMPDEST POP PUSH2 0x322 PUSH1 0x4 DUP1 CALLDATASIZE SUB DUP2 ADD SWAP1 PUSH2 0x31D SWAP2 SWAP1 PUSH2 0x19FA JUMP JUMPDEST PUSH2 0xCBD JUMP JUMPDEST PUSH1 0x40 MLOAD PUSH2 0x32F SWAP2 SWAP1 PUSH2 0x19DF JUMP JUMPDEST PUSH1 0x40 MLOAD DUP1 SWAP2 SUB SWAP1 RETURN JUMPDEST CALLVALUE DUP1 ISZERO PUSH2 0x344 JUMPI PUSH1 0x0 DUP1 REVERT JUMPDEST POP PUSH2 0x34D PUSH2 0xCDD JUMP JUMPDEST STOP JUMPDEST CALLVALUE DUP1 ISZERO PUSH2 0x35B JUMPI PUSH1 0x0 DUP1 REVERT JUMPDEST POP PUSH2 0x376 PUSH1 0x4 DUP1 CALLDATASIZE SUB DUP2 ADD SWAP1 PUSH2 0x371 SWAP2 SWAP1 PUSH2 0x19FA JUMP JUMPDEST PUSH2 0xCDF JUMP JUMPDEST PUSH1 0x40 MLOAD PUSH2 0x383 SWAP2 SWAP1 PUSH2 0x19DF JUMP JUMPDEST PUSH1 0x40 MLOAD DUP1 SWAP2 SUB SWAP1 RETURN JUMPDEST CALLVALUE DUP1 ISZERO PUSH2 0x398 JUMPI PUSH1 0x0 DUP1 REVERT JUMPDEST POP PUSH2 0x3B3 PUSH1 0x4 DUP1 CALLDATASIZE SUB DUP2 ADD SWAP1 PUSH2 0x3AE SWAP2 SWAP1 PUSH2 0x1D53 JUMP JUMPDEST PUSH2 0xD3C JUMP JUMPDEST PUSH1 0x40 MLOAD PUSH2 0x3C0 SWAP2 SWAP1 PUSH2 0x19DF JUMP JUMPDEST PUSH1 0x40 MLOAD DUP1 SWAP2 SUB SWAP1 RETURN JUMPDEST CALLVALUE DUP1 ISZERO PUSH2 0x3D5 JUMPI PUSH1 0x0 DUP1 REVERT JUMPDEST POP PUSH2 0x3DE PUSH2 0xD6D JUMP JUMPDEST PUSH1 0x40 MLOAD PUSH2 0x3EB SWAP2 SWAP1 PUSH2 0x19DF JUMP JUMPDEST PUSH1 0x40 MLOAD DUP1 SWAP2 SUB SWAP1 RETURN JUMPDEST PUSH2 0x40E PUSH1 0x4 DUP1 CALLDATASIZE SUB DUP2 ADD SWAP1 PUSH2 0x409 SWAP2 SWAP1 PUSH2 0x1E98 JUMP JUMPDEST PUSH2 0xD73 JUMP JUMPDEST STOP JUMPDEST CALLVALUE DUP1 ISZERO PUSH2 0x41C JUMPI PUSH1 0x0 DUP1 REVERT JUMPDEST POP PUSH2 0x437 PUSH1 0x4 DUP1 CALLDATASIZE SUB DUP2 ADD SWAP1 PUSH2 0x432 SWAP2 SWAP1 PUSH2 0x1990 JUMP JUMPDEST PUSH2 0x1131 JUMP JUMPDEST PUSH1 0x40 MLOAD PUSH2 0x446 SWAP4 SWAP3 SWAP2 SWAP1 PUSH2 0x1ED8 JUMP JUMPDEST PUSH1 0x40 MLOAD DUP1 SWAP2 SUB SWAP1 RETURN JUMPDEST CALLVALUE DUP1 ISZERO PUSH2 0x45B JUMPI PUSH1 0x0 DUP1 REVERT JUMPDEST POP PUSH2 0x476 PUSH1 0x4 DUP1 CALLDATASIZE SUB DUP2 ADD SWAP1 PUSH2 0x471 SWAP2 SWAP1 PUSH2 0x19FA JUMP JUMPDEST PUSH2 0x1188 JUMP JUMPDEST PUSH1 0x40 MLOAD PUSH2 0x483 SWAP2 SWAP1 PUSH2 0x19DF JUMP JUMPDEST PUSH1 0x40 MLOAD DUP1 SWAP2 SUB SWAP1 RETURN JUMPDEST CALLVALUE DUP1 ISZERO PUSH2 0x498 JUMPI PUSH1 0x0 DUP1 REVERT JUMPDEST POP PUSH2 0x4B3 PUSH1 0x4 DUP1 CALLDATASIZE SUB DUP2 ADD SWAP1 PUSH2 0x4AE SWAP2 SWAP1 PUSH2 0x1F74 JUMP JUMPDEST PUSH2 0x11AC JUMP JUMPDEST PUSH1 0x40 MLOAD PUSH2 0x4C0 SWAP2 SWAP1 PUSH2 0x19DF JUMP JUMPDEST PUSH1 0x40 MLOAD DUP1 SWAP2 SUB SWAP1 RETURN JUMPDEST CALLVALUE DUP1 ISZERO PUSH2 0x4D5 JUMPI PUSH1 0x0 DUP1 REVERT JUMPDEST POP PUSH2 0x4DE PUSH2 0x12AB JUMP JUMPDEST PUSH1 0x40 MLOAD PUSH2 0x4EB SWAP2 SWAP1 PUSH2 0x19DF JUMP JUMPDEST PUSH1 0x40 MLOAD DUP1 SWAP2 SUB SWAP1 RETURN JUMPDEST CALLVALUE DUP1 ISZERO PUSH2 0x500 JUMPI PUSH1 0x0 DUP1 REVERT JUMPDEST POP PUSH2 0x51B PUSH1 0x4 DUP1 CALLDATASIZE SUB DUP2 ADD SWAP1 PUSH2 0x516 SWAP2 SWAP1 PUSH2 0x21E5 JUMP JUMPDEST PUSH2 0x12B1 JUMP JUMPDEST STOP JUMPDEST CALLVALUE DUP1 ISZERO PUSH2 0x529 JUMPI PUSH1 0x0 DUP1 REVERT JUMPDEST POP PUSH2 0x532 PUSH2 0x1507 JUMP JUMPDEST STOP JUMPDEST PUSH1 0x3 PUSH1 0x20 MSTORE DUP2 PUSH1 0x0 MSTORE PUSH1 0x40 PUSH1 0x0 KECCAK256 PUSH1 0x20 MSTORE DUP1 PUSH1 0x0 MSTORE PUSH1 0x40 PUSH1 0x0 KECCAK256 PUSH1 0x0 SWAP2 POP SWAP2 POP POP SLOAD DUP2 JUMP JUMPDEST PUSH1 0x0 DUP1 PUSH1 0x0 SWAP1 POP PUSH1 0x0 JUMPDEST PUSH1 0x6 PUSH1 0x0 DUP6 DUP2 MSTORE PUSH1 0x20 ADD SWAP1 DUP2 MSTORE PUSH1 0x20 ADD PUSH1 0x0 KECCAK256 DUP1 SLOAD SWAP1 POP DUP2 LT ISZERO PUSH2 0x5D8 JUMPI PUSH1 0x6 PUSH1 0x0 DUP6 DUP2 MSTORE PUSH1 0x20 ADD SWAP1 DUP2 MSTORE PUSH1 0x20 ADD PUSH1 0x0 KECCAK256 DUP2 DUP2 SLOAD DUP2 LT PUSH2 0x5A6 JUMPI PUSH2 0x5A5 PUSH2 0x2254 JUMP JUMPDEST JUMPDEST SWAP1 PUSH1 0x0 MSTORE PUSH1 0x20 PUSH1 0x0 KECCAK256 SWAP1 PUSH1 0x4 MUL ADD PUSH1 0x3 ADD SLOAD DUP3 PUSH2 0x5C3 SWAP2 SWAP1 PUSH2 0x22B2 JUMP JUMPDEST SWAP2 POP DUP1 DUP1 PUSH2 0x5D0 SWAP1 PUSH2 0x22E6 JUMP JUMPDEST SWAP2 POP POP PUSH2 0x563 JUMP JUMPDEST POP DUP1 SWAP2 POP POP SWAP2 SWAP1 POP JUMP JUMPDEST PUSH1 0x5 PUSH1 0x20 MSTORE DUP1 PUSH1 0x0 MSTORE PUSH1 0x40 PUSH1 0x0 KECCAK256 PUSH1 0x0 SWAP2 POP SWAP1 POP SLOAD DUP2 JUMP JUMPDEST PUSH2 0x602 PUSH2 0x176C JUMP JUMPDEST PUSH1 0x0 PUSH1 0xA PUSH1 0x0 DUP5 DUP2 MSTORE PUSH1 0x20 ADD SWAP1 DUP2 MSTORE PUSH1 0x20 ADD PUSH1 0x0 KECCAK256 SWAP1 POP DUP1 PUSH1 0x40 MLOAD DUP1 PUSH1 0xE0 ADD PUSH1 0x40 MSTORE SWAP1 DUP2 PUSH1 0x0 DUP3 ADD SLOAD DUP2 MSTORE PUSH1 0x20 ADD PUSH1 0x1 DUP3 ADD PUSH1 0x0 SWAP1 SLOAD SWAP1 PUSH2 0x100 EXP SWAP1 DIV PUSH20 0xFFFFFFFFFFFFFFFFFFFFFFFFFFFFFFFFFFFFFFFF AND PUSH20 0xFFFFFFFFFFFFFFFFFFFFFFFFFFFFFFFFFFFFFFFF AND PUSH20 0xFFFFFFFFFFFFFFFFFFFFFFFFFFFFFFFFFFFFFFFF AND DUP2 MSTORE PUSH1 0x20 ADD PUSH1 0x2 DUP3 ADD SLOAD DUP2 MSTORE PUSH1 0x20 ADD PUSH1 0x3 DUP3 ADD SLOAD DUP2 MSTORE PUSH1 0x20 ADD PUSH1 0x4 DUP3 ADD DUP1 SLOAD DUP1 PUSH1 0x20 MUL PUSH1 0x20 ADD PUSH1 0x40 MLOAD SWAP1 DUP2 ADD PUSH1 0x40 MSTORE DUP1 SWAP3 SWAP2 SWAP1 DUP2 DUP2 MSTORE PUSH1 0x20 ADD PUSH1 0x0 SWAP1 JUMPDEST DUP3 DUP3 LT ISZERO PUSH2 0x76A JUMPI DUP4 DUP3 SWAP1 PUSH1 0x0 MSTORE PUSH1 0x20 PUSH1 0x0 KECCAK256 ADD DUP1 SLOAD PUSH2 0x6DD SWAP1 PUSH2 0x235D JUMP JUMPDEST DUP1 PUSH1 0x1F ADD PUSH1 0x20 DUP1 SWAP2 DIV MUL PUSH1 0x20 ADD PUSH1 0x40 MLOAD SWAP1 DUP2 ADD PUSH1 0x40 MSTORE DUP1 SWAP3 SWAP2 SWAP1 DUP2 DUP2 MSTORE PUSH1 0x20 ADD DUP3 DUP1 SLOAD PUSH2 0x709 SWAP1 PUSH2 0x235D JUMP JUMPDEST DUP1 ISZERO PUSH2 0x756 JUMPI DUP1 PUSH1 0x1F LT PUSH2 0x72B JUMPI PUSH2 0x100 DUP1 DUP4 SLOAD DIV MUL DUP4 MSTORE SWAP2 PUSH1 0x20 ADD SWAP2 PUSH2 0x756 JUMP JUMPDEST DUP3 ADD SWAP2 SWAP1 PUSH1 0x0 MSTORE PUSH1 0x20 PUSH1 0x0 KECCAK256 SWAP1 JUMPDEST DUP2 SLOAD DUP2 MSTORE SWAP1 PUSH1 0x1 ADD SWAP1 PUSH1 0x20 ADD DUP1 DUP4 GT PUSH2 0x739 JUMPI DUP3 SWAP1 SUB PUSH1 0x1F AND DUP3 ADD SWAP2 JUMPDEST POP POP POP POP POP DUP2 MSTORE PUSH1 0x20 ADD SWAP1 PUSH1 0x1 ADD SWAP1 PUSH2 0x6BE JUMP JUMPDEST POP POP POP POP DUP2 MSTORE PUSH1 0x20 ADD PUSH1 0x5 DUP3 ADD DUP1 SLOAD DUP1 PUSH1 0x20 MUL PUSH1 0x20 ADD PUSH1 0x40 MLOAD SWAP1 DUP2 ADD PUSH1 0x40 MSTORE DUP1 SWAP3 SWAP2 SWAP1 DUP2 DUP2 MSTORE PUSH1 0x20 ADD DUP3 DUP1 SLOAD DUP1 ISZERO PUSH2 0x7C1 JUMPI PUSH1 0x20 MUL DUP3 ADD SWAP2 SWAP1 PUSH1 0x0 MSTORE PUSH1 0x20 PUSH1 0x0 KECCAK256 SWAP1 JUMPDEST DUP2 SLOAD DUP2 MSTORE PUSH1 0x20 ADD SWAP1 PUSH1 0x1 ADD SWAP1 DUP1 DUP4 GT PUSH2 0x7AD JUMPI JUMPDEST POP POP POP POP POP DUP2 MSTORE PUSH1 0x20 ADD PUSH1 0x6 DUP3 ADD PUSH1 0x0 SWAP1 SLOAD SWAP1 PUSH2 0x100 EXP SWAP1 DIV PUSH1 0xFF AND ISZERO ISZERO ISZERO ISZERO DUP2 MSTORE POP POP SWAP2 POP POP SWAP2 SWAP1 POP JUMP JUMPDEST PUSH1 0x6 PUSH1 0x20 MSTORE DUP2 PUSH1 0x0 MSTORE PUSH1 0x40 PUSH1 0x0 KECCAK256 DUP2 DUP2 SLOAD DUP2 LT PUSH2 0x809 JUMPI PUSH1 0x0 DUP1 REVERT JUMPDEST SWAP1 PUSH1 0x0 MSTORE PUSH1 0x20 PUSH1 0x0 KECCAK256 SWAP1 PUSH1 0x4 MUL ADD PUSH1 0x0 SWAP2 POP SWAP2 POP POP DUP1 PUSH1 0x0 ADD SLOAD SWAP1 DUP1 PUSH1 0x1 ADD DUP1 SLOAD PUSH2 0x833 SWAP1 PUSH2 0x235D JUMP JUMPDEST DUP1 PUSH1 0x1F ADD PUSH1 0x20 DUP1 SWAP2 DIV MUL PUSH1 0x20 ADD PUSH1 0x40 MLOAD SWAP1 DUP2 ADD PUSH1 0x40 MSTORE DUP1 SWAP3 SWAP2 SWAP1 DUP2 DUP2 MSTORE PUSH1 0x20 ADD DUP3 DUP1 SLOAD PUSH2 0x85F SWAP1 PUSH2 0x235D JUMP JUMPDEST DUP1 ISZERO PUSH2 0x8AC JUMPI DUP1 PUSH1 0x1F LT PUSH2 0x881 JUMPI PUSH2 0x100 DUP1 DUP4 SLOAD DIV MUL DUP4 MSTORE SWAP2 PUSH1 0x20 ADD SWAP2 PUSH2 0x8AC JUMP JUMPDEST DUP3 ADD SWAP2 SWAP1 PUSH1 0x0 MSTORE PUSH1 0x20 PUSH1 0x0 KECCAK256 SWAP1 JUMPDEST DUP2 SLOAD DUP2 MSTORE SWAP1 PUSH1 0x1 ADD SWAP1 PUSH1 0x20 ADD DUP1 DUP4 GT PUSH2 0x88F JUMPI DUP3 SWAP1 SUB PUSH1 0x1F AND DUP3 ADD SWAP2 JUMPDEST POP POP POP POP POP SWAP1 DUP1 PUSH1 0x2 ADD PUSH1 0x0 SWAP1 SLOAD SWAP1 PUSH2 0x100 EXP SWAP1 DIV PUSH20 0xFFFFFFFFFFFFFFFFFFFFFFFFFFFFFFFFFFFFFFFF AND SWAP1 DUP1 PUSH1 0x3 ADD SLOAD SWAP1 POP DUP5 JUMP JUMPDEST PUSH1 0x7 PUSH1 0x20 MSTORE DUP2 PUSH1 0x0 MSTORE PUSH1 0x40 PUSH1 0x0 KECCAK256 PUSH1 0x20 MSTORE DUP1 PUSH1 0x0 MSTORE PUSH1 0x40 PUSH1 0x0 KECCAK256 PUSH1 0x0 SWAP2 POP SWAP2 POP SWAP1 SLOAD SWAP1 PUSH2 0x100 EXP SWAP1 DIV PUSH1 0xFF AND DUP2 JUMP JUMPDEST PUSH1 0x2 PUSH1 0x20 MSTORE DUP1 PUSH1 0x0 MSTORE PUSH1 0x40 PUSH1 0x0 KECCAK256 PUSH1 0x0 SWAP2 POP SWAP1 POP SLOAD DUP2 JUMP JUMPDEST PUSH1 0x0 PUSH1 0xA PUSH1 0x0 DUP5 DUP2 MSTORE PUSH1 0x20 ADD SWAP1 DUP2 MSTORE PUSH1 0x20 ADD PUSH1 0x0 KECCAK256 SWAP1 POP PUSH1 0x7 PUSH1 0x0 DUP5 DUP2 MSTORE PUSH1 0x20 ADD SWAP1 DUP2 MSTORE PUSH1 0x20 ADD PUSH1 0x0 KECCAK256 PUSH1 0x0 CALLER PUSH20 0xFFFFFFFFFFFFFFFFFFFFFFFFFFFFFFFFFFFFFFFF AND PUSH20 0xFFFFFFFFFFFFFFFFFFFFFFFFFFFFFFFFFFFFFFFF AND DUP2 MSTORE PUSH1 0x20 ADD SWAP1 DUP2 MSTORE PUSH1 0x20 ADD PUSH1 0x0 KECCAK256 PUSH1 0x0 SWAP1 SLOAD SWAP1 PUSH2 0x100 EXP SWAP1 DIV PUSH1 0xFF AND ISZERO PUSH2 0x9DE JUMPI PUSH1 0x40 MLOAD PUSH32 0x8C379A000000000000000000000000000000000000000000000000000000000 DUP2 MSTORE PUSH1 0x4 ADD PUSH2 0x9D5 SWAP1 PUSH2 0x23DA JUMP JUMPDEST PUSH1 0x40 MLOAD DUP1 SWAP2 SUB SWAP1 REVERT JUMPDEST DUP1 PUSH1 0x6 ADD PUSH1 0x0 SWAP1 SLOAD SWAP1 PUSH2 0x100 EXP SWAP1 DIV PUSH1 0xFF AND PUSH2 0xA2F JUMPI PUSH1 0x40 MLOAD PUSH32 0x8C379A000000000000000000000000000000000000000000000000000000000 DUP2 MSTORE PUSH1 0x4 ADD PUSH2 0xA26 SWAP1 PUSH2 0x2446 JUMP JUMPDEST PUSH1 0x40 MLOAD DUP1 SWAP2 SUB SWAP1 REVERT JUMPDEST DUP1 PUSH1 0x2 ADD SLOAD TIMESTAMP LT ISZERO DUP1 ISZERO PUSH2 0xA47 JUMPI POP DUP1 PUSH1 0x3 ADD SLOAD TIMESTAMP GT ISZERO JUMPDEST PUSH2 0xA86 JUMPI PUSH1 0x40 MLOAD PUSH32 0x8C379A000000000000000000000000000000000000000000000000000000000 DUP2 MSTORE PUSH1 0x4 ADD PUSH2 0xA7D SWAP1 PUSH2 0x24B2 JUMP JUMPDEST PUSH1 0x40 MLOAD DUP1 SWAP2 SUB SWAP1 REVERT JUMPDEST PUSH1 0x0 DUP3 GT DUP1 ISZERO PUSH2 0xA9C JUMPI POP DUP1 PUSH1 0x4 ADD DUP1 SLOAD SWAP1 POP DUP3 LT JUMPDEST PUSH2 0xADB JUMPI PUSH1 0x40 MLOAD PUSH32 0x8C379A000000000000000000000000000000000000000000000000000000000 DUP2 MSTORE PUSH1 0x4 ADD PUSH2 0xAD2 SWAP1 PUSH2 0x251E JUMP JUMPDEST PUSH1 0x40 MLOAD DUP1 SWAP2 SUB SWAP1 REVERT JUMPDEST PUSH1 0x1 PUSH1 0x7 PUSH1 0x0 DUP6 DUP2 MSTORE PUSH1 0x20 ADD SWAP1 DUP2 MSTORE PUSH1 0x20 ADD PUSH1 0x0 KECCAK256 PUSH1 0x0 CALLER PUSH20 0xFFFFFFFFFFFFFFFFFFFFFFFFFFFFFFFFFFFFFFFF AND PUSH20 0xFFFFFFFFFFFFFFFFFFFFFFFFFFFFFFFFFFFFFFFF AND DUP2 MSTORE PUSH1 0x20 ADD SWAP1 DUP2 MSTORE PUSH1 0x20 ADD PUSH1 0x0 KECCAK256 PUSH1 0x0 PUSH2 0x100 EXP DUP2 SLOAD DUP2 PUSH1 0xFF MUL NOT AND SWAP1 DUP4 ISZERO ISZERO MUL OR SWAP1 SSTORE POP PUSH1 0x0 PUSH1 0x40 MLOAD DUP1 PUSH1 0x60 ADD PUSH1 0x40 MSTORE DUP1 DUP6 DUP2 MSTORE PUSH1 0x20 ADD CALLER PUSH20 0xFFFFFFFFFFFFFFFFFFFFFFFFFFFFFFFFFFFFFFFF AND DUP2 MSTORE PUSH1 0x20 ADD DUP5 DUP2 MSTORE POP SWAP1 POP DUP1 PUSH1 0x8 PUSH1 0x0 DUP7 DUP2 MSTORE PUSH1 0x20 ADD SWAP1 DUP2 MSTORE PUSH1 0x20 ADD PUSH1 0x0 KECCAK256 PUSH1 0x0 CALLER PUSH20 0xFFFFFFFFFFFFFFFFFFFFFFFFFFFFFFFFFFFFFFFF AND PUSH20 0xFFFFFFFFFFFFFFFFFFFFFFFFFFFFFFFFFFFFFFFF AND DUP2 MSTORE PUSH1 0x20 ADD SWAP1 DUP2 MSTORE PUSH1 0x20 ADD PUSH1 0x0 KECCAK256 PUSH1 0x0 DUP3 ADD MLOAD DUP2 PUSH1 0x0 ADD SSTORE PUSH1 0x20 DUP3 ADD MLOAD DUP2 PUSH1 0x1 ADD PUSH1 0x0 PUSH2 0x100 EXP DUP2 SLOAD DUP2 PUSH20 0xFFFFFFFFFFFFFFFFFFFFFFFFFFFFFFFFFFFFFFFF MUL NOT AND SWAP1 DUP4 PUSH20 0xFFFFFFFFFFFFFFFFFFFFFFFFFFFFFFFFFFFFFFFF AND MUL OR SWAP1 SSTORE POP PUSH1 0x40 DUP3 ADD MLOAD DUP2 PUSH1 0x2 ADD SSTORE SWAP1 POP POP PUSH2 0xC32 DUP5 CALLER PUSH2 0x1509 JUMP JUMPDEST DUP2 PUSH1 0x5 ADD DUP4 DUP2 SLOAD DUP2 LT PUSH2 0xC48 JUMPI PUSH2 0xC47 PUSH2 0x2254 JUMP JUMPDEST JUMPDEST SWAP1 PUSH1 0x0 MSTORE PUSH1 0x20 PUSH1 0x0 KECCAK256 ADD PUSH1 0x0 DUP2 SLOAD DUP1 SWAP3 SWAP2 SWAP1 PUSH2 0xC63 SWAP1 PUSH2 0x22E6 JUMP JUMPDEST SWAP2 SWAP1 POP SSTORE POP CALLER PUSH20 0xFFFFFFFFFFFFFFFFFFFFFFFFFFFFFFFFFFFFFFFF AND DUP5 PUSH32 0xE7EE74CA1F4BB1B82B14F87794C45B3E59C39E372B862FB97A6316B43355B69E DUP6 PUSH1 0x40 MLOAD PUSH2 0xCAF SWAP2 SWAP1 PUSH2 0x19DF JUMP JUMPDEST PUSH1 0x40 MLOAD DUP1 SWAP2 SUB SWAP1 LOG3 POP POP POP POP JUMP JUMPDEST PUSH1 0x0 PUSH1 0x6 PUSH1 0x0 DUP4 DUP2 MSTORE PUSH1 0x20 ADD SWAP1 DUP2 MSTORE PUSH1 0x20 ADD PUSH1 0x0 KECCAK256 DUP1 SLOAD SWAP1 POP SWAP1 POP SWAP2 SWAP1 POP JUMP JUMPDEST JUMP JUMPDEST PUSH1 0x0 DUP1 PUSH1 0x0 SWAP1 POP PUSH1 0x0 PUSH1 0x9 PUSH1 0x0 DUP6 DUP2 MSTORE PUSH1 0x20 ADD SWAP1 DUP2 MSTORE PUSH1 0x20 ADD PUSH1 0x0 KECCAK256 SWAP1 POP PUSH1 0x0 JUMPDEST PUSH2 0xD09 DUP3 PUSH2 0x1533 JUMP JUMPDEST DUP2 LT ISZERO PUSH2 0xD31 JUMPI DUP3 DUP1 PUSH2 0xD1B SWAP1 PUSH2 0x22E6 JUMP JUMPDEST SWAP4 POP POP DUP1 DUP1 PUSH2 0xD29 SWAP1 PUSH2 0x22E6 JUMP JUMPDEST SWAP2 POP POP PUSH2 0xD00 JUMP JUMPDEST POP DUP2 SWAP3 POP POP POP SWAP2 SWAP1 POP JUMP JUMPDEST PUSH1 0x4 PUSH1 0x20 MSTORE DUP2 PUSH1 0x0 MSTORE PUSH1 0x40 PUSH1 0x0 KECCAK256 DUP2 DUP2 SLOAD DUP2 LT PUSH2 0xD58 JUMPI PUSH1 0x0 DUP1 REVERT JUMPDEST SWAP1 PUSH1 0x0 MSTORE PUSH1 0x20 PUSH1 0x0 KECCAK256 ADD PUSH1 0x0 SWAP2 POP SWAP2 POP POP SLOAD DUP2 JUMP JUMPDEST PUSH1 0x0 SLOAD DUP2 JUMP JUMPDEST PUSH1 0xA PUSH1 0x0 DUP4 DUP2 MSTORE PUSH1 0x20 ADD SWAP1 DUP2 MSTORE PUSH1 0x20 ADD PUSH1 0x0 KECCAK256 PUSH1 0x2 ADD SLOAD TIMESTAMP LT ISZERO PUSH2 0xDCC JUMPI PUSH1 0x40 MLOAD PUSH32 0x8C379A000000000000000000000000000000000000000000000000000000000 DUP2 MSTORE PUSH1 0x4 ADD PUSH2 0xDC3 SWAP1 PUSH2 0x25B0 JUMP JUMPDEST PUSH1 0x40 MLOAD DUP1 SWAP2 SUB SWAP1 REVERT JUMPDEST PUSH1 0xA PUSH1 0x0 DUP4 DUP2 MSTORE PUSH1 0x20 ADD SWAP1 DUP2 MSTORE PUSH1 0x20 ADD PUSH1 0x0 KECCAK256 PUSH1 0x3 ADD SLOAD TIMESTAMP LT PUSH2 0xE24 JUMPI PUSH1 0x40 MLOAD PUSH32 0x8C379A000000000000000000000000000000000000000000000000000000000 DUP2 MSTORE PUSH1 0x4 ADD PUSH2 0xE1B SWAP1 PUSH2 0x2642 JUMP JUMPDEST PUSH1 0x40 MLOAD DUP1 SWAP2 SUB SWAP1 REVERT JUMPDEST PUSH1 0x0 CALLVALUE GT PUSH2 0xE67 JUMPI PUSH1 0x40 MLOAD PUSH32 0x8C379A000000000000000000000000000000000000000000000000000000000 DUP2 MSTORE PUSH1 0x4 ADD PUSH2 0xE5E SWAP1 PUSH2 0x26AE JUMP JUMPDEST PUSH1 0x40 MLOAD DUP1 SWAP2 SUB SWAP1 REVERT JUMPDEST PUSH1 0x0 DUP1 PUSH1 0x0 SWAP1 POP JUMPDEST PUSH1 0xA PUSH1 0x0 DUP6 DUP2 MSTORE PUSH1 0x20 ADD SWAP1 DUP2 MSTORE PUSH1 0x20 ADD PUSH1 0x0 KECCAK256 PUSH1 0x4 ADD DUP1 SLOAD SWAP1 POP DUP2 LT ISZERO PUSH2 0xEF8 JUMPI DUP3 PUSH1 0xA PUSH1 0x0 DUP7 DUP2 MSTORE PUSH1 0x20 ADD SWAP1 DUP2 MSTORE PUSH1 0x20 ADD PUSH1 0x0 KECCAK256 PUSH1 0x4 ADD DUP3 DUP2 SLOAD DUP2 LT PUSH2 0xEB9 JUMPI PUSH2 0xEB8 PUSH2 0x2254 JUMP JUMPDEST JUMPDEST SWAP1 PUSH1 0x0 MSTORE PUSH1 0x20 PUSH1 0x0 KECCAK256 ADD PUSH1 0x40 MLOAD PUSH2 0xED0 SWAP2 SWAP1 PUSH2 0x2771 JUMP JUMPDEST PUSH1 0x40 MLOAD DUP1 SWAP2 SUB SWAP1 KECCAK256 SUB PUSH2 0xEE5 JUMPI DUP1 SWAP2 POP PUSH2 0xEF8 JUMP JUMPDEST DUP1 DUP1 PUSH2 0xEF0 SWAP1 PUSH2 0x22E6 JUMP JUMPDEST SWAP2 POP POP PUSH2 0xE6F JUMP JUMPDEST POP PUSH1 0x0 DUP2 GT PUSH2 0xF3C JUMPI PUSH1 0x40 MLOAD PUSH32 0x8C379A000000000000000000000000000000000000000000000000000000000 DUP2 MSTORE PUSH1 0x4 ADD PUSH2 0xF33 SWAP1 PUSH2 0x2820 JUMP JUMPDEST PUSH1 0x40 MLOAD DUP1 SWAP2 SUB SWAP1 REVERT JUMPDEST CALLVALUE PUSH1 0x2 PUSH1 0x0 DUP6 DUP2 MSTORE PUSH1 0x20 ADD SWAP1 DUP2 MSTORE PUSH1 0x20 ADD PUSH1 0x0 KECCAK256 PUSH1 0x0 DUP3 DUP3 SLOAD PUSH2 0xF5F SWAP2 SWAP1 PUSH2 0x22B2 JUMP JUMPDEST SWAP3 POP POP DUP2 SWAP1 SSTORE POP CALLVALUE PUSH1 0x3 PUSH1 0x0 DUP6 DUP2 MSTORE PUSH1 0x20 ADD SWAP1 DUP2 MSTORE PUSH1 0x20 ADD PUSH1 0x0 KECCAK256 PUSH1 0x0 CALLER PUSH20 0xFFFFFFFFFFFFFFFFFFFFFFFFFFFFFFFFFFFFFFFF AND PUSH20 0xFFFFFFFFFFFFFFFFFFFFFFFFFFFFFFFFFFFFFFFF AND DUP2 MSTORE PUSH1 0x20 ADD SWAP1 DUP2 MSTORE PUSH1 0x20 ADD PUSH1 0x0 KECCAK256 PUSH1 0x0 DUP3 DUP3 SLOAD PUSH2 0xFC6 SWAP2 SWAP1 PUSH2 0x22B2 JUMP JUMPDEST SWAP3 POP POP DUP2 SWAP1 SSTORE POP PUSH1 0x1 PUSH1 0x0 DUP2 SLOAD DUP1 SWAP3 SWAP2 SWAP1 PUSH2 0xFE0 SWAP1 PUSH2 0x22E6 JUMP JUMPDEST SWAP2 SWAP1 POP SSTORE POP PUSH1 0x6 PUSH1 0x0 DUP5 DUP2 MSTORE PUSH1 0x20 ADD SWAP1 DUP2 MSTORE PUSH1 0x20 ADD PUSH1 0x0 KECCAK256 PUSH1 0x40 MLOAD DUP1 PUSH1 0x80 ADD PUSH1 0x40 MSTORE DUP1 DUP6 DUP2 MSTORE PUSH1 0x20 ADD PUSH2 0x1012 DUP6 PUSH2 0x1548 JUMP JUMPDEST DUP2 MSTORE PUSH1 0x20 ADD CALLER PUSH20 0xFFFFFFFFFFFFFFFFFFFFFFFFFFFFFFFFFFFFFFFF AND DUP2 MSTORE PUSH1 0x20 ADD CALLVALUE DUP2 MSTORE POP SWAP1 DUP1 PUSH1 0x1 DUP2 SLOAD ADD DUP1 DUP3 SSTORE DUP1 SWAP2 POP POP PUSH1 0x1 SWAP1 SUB SWAP1 PUSH1 0x0 MSTORE PUSH1 0x20 PUSH1 0x0 KECCAK256 SWAP1 PUSH1 0x4 MUL ADD PUSH1 0x0 SWAP1 SWAP2 SWAP1 SWAP2 SWAP1 SWAP2 POP PUSH1 0x0 DUP3 ADD MLOAD DUP2 PUSH1 0x0 ADD SSTORE PUSH1 0x20 DUP3 ADD MLOAD DUP2 PUSH1 0x1 ADD SWAP1 DUP2 PUSH2 0x107F SWAP2 SWAP1 PUSH2 0x29EC JUMP JUMPDEST POP PUSH1 0x40 DUP3 ADD MLOAD DUP2 PUSH1 0x2 ADD PUSH1 0x0 PUSH2 0x100 EXP DUP2 SLOAD DUP2 PUSH20 0xFFFFFFFFFFFFFFFFFFFFFFFFFFFFFFFFFFFFFFFF MUL NOT AND SWAP1 DUP4 PUSH20 0xFFFFFFFFFFFFFFFFFFFFFFFFFFFFFFFFFFFFFFFF AND MUL OR SWAP1 SSTORE POP PUSH1 0x60 DUP3 ADD MLOAD DUP2 PUSH1 0x3 ADD SSTORE POP POP CALLER PUSH20 0xFFFFFFFFFFFFFFFFFFFFFFFFFFFFFFFFFFFFFFFF AND DUP4 PUSH32 0xFA643037CEE917EC3049F1BA2BFB5D4DF493F0B6DB3ED68F3716D11233494E7D PUSH2 0x1115 DUP6 PUSH2 0x1548 JUMP JUMPDEST CALLVALUE PUSH1 0x40 MLOAD PUSH2 0x1124 SWAP3 SWAP2 SWAP1 PUSH2 0x2ABE JUMP JUMPDEST PUSH1 0x40 MLOAD DUP1 SWAP2 SUB SWAP1 LOG3 POP POP POP JUMP JUMPDEST PUSH1 0x8 PUSH1 0x20 MSTORE DUP2 PUSH1 0x0 MSTORE PUSH1 0x40 PUSH1 0x0 KECCAK256 PUSH1 0x20 MSTORE DUP1 PUSH1 0x0 MSTORE PUSH1 0x40 PUSH1 0x0 KECCAK256 PUSH1 0x0 SWAP2 POP SWAP2 POP POP DUP1 PUSH1 0x0 ADD SLOAD SWAP1 DUP1 PUSH1 0x1 ADD PUSH1 0x0 SWAP1 SLOAD SWAP1 PUSH2 0x100 EXP SWAP1 DIV PUSH20 0xFFFFFFFFFFFFFFFFFFFFFFFFFFFFFFFFFFFFFFFF AND SWAP1 DUP1 PUSH1 0x2 ADD SLOAD SWAP1 POP DUP4 JUMP JUMPDEST PUSH1 0xB DUP2 DUP2 SLOAD DUP2 LT PUSH2 0x1198 JUMPI PUSH1 0x0 DUP1 REVERT JUMPDEST SWAP1 PUSH1 0x0 MSTORE PUSH1 0x20 PUSH1 0x0 KECCAK256 ADD PUSH1 0x0 SWAP2 POP SWAP1 POP SLOAD DUP2 JUMP JUMPDEST PUSH1 0x0 DUP1 PUSH1 0x0 SWAP1 POP PUSH1 0x0 PUSH1 0x6 PUSH1 0x0 DUP8 DUP2 MSTORE PUSH1 0x20 ADD SWAP1 DUP2 MSTORE PUSH1 0x20 ADD PUSH1 0x0 KECCAK256 SWAP1 POP PUSH1 0x0 JUMPDEST DUP2 DUP1 SLOAD SWAP1 POP DUP2 LT ISZERO PUSH2 0x1275 JUMPI DUP6 DUP6 PUSH1 0x40 MLOAD PUSH2 0x11E9 SWAP3 SWAP2 SWAP1 PUSH2 0x2B13 JUMP JUMPDEST PUSH1 0x40 MLOAD DUP1 SWAP2 SUB SWAP1 KECCAK256 DUP3 DUP3 DUP2 SLOAD DUP2 LT PUSH2 0x1204 JUMPI PUSH2 0x1203 PUSH2 0x2254 JUMP JUMPDEST JUMPDEST SWAP1 PUSH1 0x0 MSTORE PUSH1 0x20 PUSH1 0x0 KECCAK256 SWAP1 PUSH1 0x4 MUL ADD PUSH1 0x1 ADD PUSH1 0x40 MLOAD PUSH2 0x1222 SWAP2 SWAP1 PUSH2 0x2771 JUMP JUMPDEST PUSH1 0x40 MLOAD DUP1 SWAP2 SUB SWAP1 KECCAK256 SUB PUSH2 0x1262 JUMPI DUP2 DUP2 DUP2 SLOAD DUP2 LT PUSH2 0x1242 JUMPI PUSH2 0x1241 PUSH2 0x2254 JUMP JUMPDEST JUMPDEST SWAP1 PUSH1 0x0 MSTORE PUSH1 0x20 PUSH1 0x0 KECCAK256 SWAP1 PUSH1 0x4 MUL ADD PUSH1 0x3 ADD SLOAD DUP4 PUSH2 0x125F SWAP2 SWAP1 PUSH2 0x22B2 JUMP JUMPDEST SWAP3 POP JUMPDEST DUP1 DUP1 PUSH2 0x126D SWAP1 PUSH2 0x22E6 JUMP JUMPDEST SWAP2 POP POP PUSH2 0x11CD JUMP JUMPDEST POP PUSH1 0x0 PUSH2 0x1281 DUP8 PUSH2 0x559 JUMP JUMPDEST SWAP1 POP PUSH1 0x0 DUP2 GT PUSH2 0x1292 JUMPI PUSH1 0x0 PUSH2 0x129F JUMP JUMPDEST DUP1 DUP4 PUSH2 0x129E SWAP2 SWAP1 PUSH2 0x2B5B JUMP JUMPDEST JUMPDEST SWAP4 POP POP POP POP SWAP4 SWAP3 POP POP POP JUMP JUMPDEST PUSH1 0x1 SLOAD DUP2 JUMP JUMPDEST TIMESTAMP SWAP3 POP PUSH3 0x15180 TIMESTAMP PUSH2 0x12C3 SWAP2 SWAP1 PUSH2 0x22B2 JUMP JUMPDEST SWAP2 POP DUP3 DUP3 GT PUSH2 0x1307 JUMPI PUSH1 0x40 MLOAD PUSH32 0x8C379A000000000000000000000000000000000000000000000000000000000 DUP2 MSTORE PUSH1 0x4 ADD PUSH2 0x12FE SWAP1 PUSH2 0x2BD8 JUMP JUMPDEST PUSH1 0x40 MLOAD DUP1 SWAP2 SUB SWAP1 REVERT JUMPDEST PUSH1 0x1 DUP2 MLOAD GT PUSH2 0x134B JUMPI PUSH1 0x40 MLOAD PUSH32 0x8C379A000000000000000000000000000000000000000000000000000000000 DUP2 MSTORE PUSH1 0x4 ADD PUSH2 0x1342 SWAP1 PUSH2 0x2C44 JUMP JUMPDEST PUSH1 0x40 MLOAD DUP1 SWAP2 SUB SWAP1 REVERT JUMPDEST PUSH1 0x0 DUP2 MLOAD SWAP1 POP PUSH1 0x0 DUP2 PUSH8 0xFFFFFFFFFFFFFFFF DUP2 GT ISZERO PUSH2 0x136D JUMPI PUSH2 0x136C PUSH2 0x1FD4 JUMP JUMPDEST JUMPDEST PUSH1 0x40 MLOAD SWAP1 DUP1 DUP3 MSTORE DUP1 PUSH1 0x20 MUL PUSH1 0x20 ADD DUP3 ADD PUSH1 0x40 MSTORE DUP1 ISZERO PUSH2 0x139B JUMPI DUP2 PUSH1 0x20 ADD PUSH1 0x20 DUP3 MUL DUP1 CALLDATASIZE DUP4 CALLDATACOPY DUP1 DUP3 ADD SWAP2 POP POP SWAP1 POP JUMPDEST POP SWAP1 POP PUSH1 0x0 PUSH1 0xA PUSH1 0x0 DUP1 SLOAD DUP2 MSTORE PUSH1 0x20 ADD SWAP1 DUP2 MSTORE PUSH1 0x20 ADD PUSH1 0x0 KECCAK256 SWAP1 POP CALLER DUP2 PUSH1 0x1 ADD PUSH1 0x0 PUSH2 0x100 EXP DUP2 SLOAD DUP2 PUSH20 0xFFFFFFFFFFFFFFFFFFFFFFFFFFFFFFFFFFFFFFFF MUL NOT AND SWAP1 DUP4 PUSH20 0xFFFFFFFFFFFFFFFFFFFFFFFFFFFFFFFFFFFFFFFF AND MUL OR SWAP1 SSTORE POP TIMESTAMP DUP2 PUSH1 0x2 ADD DUP2 SWAP1 SSTORE POP PUSH3 0x15180 TIMESTAMP PUSH2 0x1411 SWAP2 SWAP1 PUSH2 0x22B2 JUMP JUMPDEST DUP2 PUSH1 0x3 ADD DUP2 SWAP1 SSTORE POP DUP4 DUP2 PUSH1 0x4 ADD SWAP1 DUP1 MLOAD SWAP1 PUSH1 0x20 ADD SWAP1 PUSH2 0x1431 SWAP3 SWAP2 SWAP1 PUSH2 0x17C1 JUMP JUMPDEST POP DUP2 DUP2 PUSH1 0x5 ADD SWAP1 DUP1 MLOAD SWAP1 PUSH1 0x20 ADD SWAP1 PUSH2 0x144A SWAP3 SWAP2 SWAP1 PUSH2 0x181A JUMP JUMPDEST POP PUSH1 0x1 DUP2 PUSH1 0x6 ADD PUSH1 0x0 PUSH2 0x100 EXP DUP2 SLOAD DUP2 PUSH1 0xFF MUL NOT AND SWAP1 DUP4 ISZERO ISZERO MUL OR SWAP1 SSTORE POP PUSH1 0xB PUSH1 0x0 SLOAD SWAP1 DUP1 PUSH1 0x1 DUP2 SLOAD ADD DUP1 DUP3 SSTORE DUP1 SWAP2 POP POP PUSH1 0x1 SWAP1 SUB SWAP1 PUSH1 0x0 MSTORE PUSH1 0x20 PUSH1 0x0 KECCAK256 ADD PUSH1 0x0 SWAP1 SWAP2 SWAP1 SWAP2 SWAP1 SWAP2 POP SSTORE CALLER PUSH20 0xFFFFFFFFFFFFFFFFFFFFFFFFFFFFFFFFFFFFFFFF AND PUSH1 0x0 SLOAD PUSH32 0x58D87E181E9AC91F8CCDA34CAAF4C15DB2A9FC345A86EA48E378D6E4359DFDB9 DUP9 DUP9 DUP9 PUSH1 0x40 MLOAD PUSH2 0x14E0 SWAP4 SWAP3 SWAP2 SWAP1 PUSH2 0x2CEA JUMP JUMPDEST PUSH1 0x40 MLOAD DUP1 SWAP2 SUB SWAP1 LOG3 PUSH1 0x0 DUP1 DUP2 SLOAD DUP1 SWAP3 SWAP2 SWAP1 PUSH2 0x14FA SWAP1 PUSH2 0x22E6 JUMP JUMPDEST SWAP2 SWAP1 POP SSTORE POP POP POP POP POP POP POP JUMP JUMPDEST JUMP JUMPDEST PUSH2 0x152E DUP2 PUSH1 0x9 PUSH1 0x0 DUP6 DUP2 MSTORE PUSH1 0x20 ADD SWAP1 DUP2 MSTORE PUSH1 0x20 ADD PUSH1 0x0 KECCAK256 PUSH2 0x1698 SWAP1 SWAP2 SWAP1 PUSH4 0xFFFFFFFF AND JUMP JUMPDEST POP POP POP JUMP JUMPDEST PUSH1 0x0 PUSH2 0x1541 DUP3 PUSH1 0x0 ADD PUSH2 0x16C8 JUMP JUMPDEST SWAP1 POP SWAP2 SWAP1 POP JUMP JUMPDEST PUSH1 0x60 PUSH1 0x0 JUMPDEST PUSH1 0x20 DUP2 PUSH1 0xFF AND LT DUP1 ISZERO PUSH2 0x159F JUMPI POP PUSH1 0x0 PUSH1 0xF8 SHL DUP4 DUP3 PUSH1 0xFF AND PUSH1 0x20 DUP2 LT PUSH2 0x1576 JUMPI PUSH2 0x1575 PUSH2 0x2254 JUMP JUMPDEST JUMPDEST BYTE PUSH1 0xF8 SHL PUSH31 0xFFFFFFFFFFFFFFFFFFFFFFFFFFFFFFFFFFFFFFFFFFFFFFFFFFFFFFFFFFFFFF NOT AND EQ ISZERO JUMPDEST ISZERO PUSH2 0x15B7 JUMPI DUP1 DUP1 PUSH2 0x15AF SWAP1 PUSH2 0x2D35 JUMP JUMPDEST SWAP2 POP POP PUSH2 0x154D JUMP JUMPDEST PUSH1 0x0 DUP2 PUSH1 0xFF AND PUSH8 0xFFFFFFFFFFFFFFFF DUP2 GT ISZERO PUSH2 0x15D6 JUMPI PUSH2 0x15D5 PUSH2 0x1FD4 JUMP JUMPDEST JUMPDEST PUSH1 0x40 MLOAD SWAP1 DUP1 DUP3 MSTORE DUP1 PUSH1 0x1F ADD PUSH1 0x1F NOT AND PUSH1 0x20 ADD DUP3 ADD PUSH1 0x40 MSTORE DUP1 ISZERO PUSH2 0x1608 JUMPI DUP2 PUSH1 0x20 ADD PUSH1 0x1 DUP3 MUL DUP1 CALLDATASIZE DUP4 CALLDATACOPY DUP1 DUP3 ADD SWAP2 POP POP SWAP1 POP JUMPDEST POP SWAP1 POP PUSH1 0x0 SWAP2 POP JUMPDEST DUP1 MLOAD DUP3 PUSH1 0xFF AND LT ISZERO PUSH2 0x168E JUMPI DUP4 DUP3 PUSH1 0xFF AND PUSH1 0x20 DUP2 LT PUSH2 0x1632 JUMPI PUSH2 0x1631 PUSH2 0x2254 JUMP JUMPDEST JUMPDEST BYTE PUSH1 0xF8 SHL DUP2 DUP4 PUSH1 0xFF AND DUP2 MLOAD DUP2 LT PUSH2 0x164C JUMPI PUSH2 0x164B PUSH2 0x2254 JUMP JUMPDEST JUMPDEST PUSH1 0x20 ADD ADD SWAP1 PUSH31 0xFFFFFFFFFFFFFFFFFFFFFFFFFFFFFFFFFFFFFFFFFFFFFFFFFFFFFFFFFFFFFF NOT AND SWAP1 DUP2 PUSH1 0x0 BYTE SWAP1 MSTORE8 POP DUP2 DUP1 PUSH2 0x1686 SWAP1 PUSH2 0x2D35 JUMP JUMPDEST SWAP3 POP POP PUSH2 0x1610 JUMP JUMPDEST DUP1 SWAP3 POP POP POP SWAP2 SWAP1 POP JUMP JUMPDEST PUSH1 0x0 PUSH2 0x16C0 DUP4 PUSH1 0x0 ADD DUP4 PUSH20 0xFFFFFFFFFFFFFFFFFFFFFFFFFFFFFFFFFFFFFFFF AND PUSH1 0x0 SHL PUSH2 0x16D9 JUMP JUMPDEST SWAP1 POP SWAP3 SWAP2 POP POP JUMP JUMPDEST PUSH1 0x0 DUP2 PUSH1 0x0 ADD DUP1 SLOAD SWAP1 POP SWAP1 POP SWAP2 SWAP1 POP JUMP JUMPDEST PUSH1 0x0 PUSH2 0x16E5 DUP4 DUP4 PUSH2 0x1749 JUMP JUMPDEST PUSH2 0x173E JUMPI DUP3 PUSH1 0x0 ADD DUP3 SWAP1 DUP1 PUSH1 0x1 DUP2 SLOAD ADD DUP1 DUP3 SSTORE DUP1 SWAP2 POP POP PUSH1 0x1 SWAP1 SUB SWAP1 PUSH1 0x0 MSTORE PUSH1 0x20 PUSH1 0x0 KECCAK256 ADD PUSH1 0x0 SWAP1 SWAP2 SWAP1 SWAP2 SWAP1 SWAP2 POP SSTORE DUP3 PUSH1 0x0 ADD DUP1 SLOAD SWAP1 POP DUP4 PUSH1 0x1 ADD PUSH1 0x0 DUP5 DUP2 MSTORE PUSH1 0x20 ADD SWAP1 DUP2 MSTORE PUSH1 0x20 ADD PUSH1 0x0 KECCAK256 DUP2 SWAP1 SSTORE POP PUSH1 0x1 SWAP1 POP PUSH2 0x1743 JUMP JUMPDEST PUSH1 0x0 SWAP1 POP JUMPDEST SWAP3 SWAP2 POP POP JUMP JUMPDEST PUSH1 0x0 DUP1 DUP4 PUSH1 0x1 ADD PUSH1 0x0 DUP5 DUP2 MSTORE PUSH1 0x20 ADD SWAP1 DUP2 MSTORE PUSH1 0x20 ADD PUSH1 0x0 KECCAK256 SLOAD EQ ISZERO SWAP1 POP SWAP3 SWAP2 POP POP JUMP JUMPDEST PUSH1 0x40 MLOAD DUP1 PUSH1 0xE0 ADD PUSH1 0x40 MSTORE DUP1 PUSH1 0x0 DUP2 MSTORE PUSH1 0x20 ADD PUSH1 0x0 PUSH20 0xFFFFFFFFFFFFFFFFFFFFFFFFFFFFFFFFFFFFFFFF AND DUP2 MSTORE PUSH1 0x20 ADD PUSH1 0x0 DUP2 MSTORE PUSH1 0x20 ADD PUSH1 0x0 DUP2 MSTORE PUSH1 0x20 ADD PUSH1 0x60 DUP2 MSTORE PUSH1 0x20 ADD PUSH1 0x60 DUP2 MSTORE PUSH1 0x20 ADD PUSH1 0x0 ISZERO ISZERO DUP2 MSTORE POP SWAP1 JUMP JUMPDEST DUP3 DUP1 SLOAD DUP3 DUP3 SSTORE SWAP1 PUSH1 0x0 MSTORE PUSH1 0x20 PUSH1 0x0 KECCAK256 SWAP1 DUP2 ADD SWAP3 DUP3 ISZERO PUSH2 0x1809 JUMPI SWAP2 PUSH1 0x20 MUL DUP3 ADD JUMPDEST DUP3 DUP2 GT ISZERO PUSH2 0x1808 JUMPI DUP3 MLOAD DUP3 SWAP1 DUP2 PUSH2 0x17F8 SWAP2 SWAP1 PUSH2 0x29EC JUMP JUMPDEST POP SWAP2 PUSH1 0x20 ADD SWAP2 SWAP1 PUSH1 0x1 ADD SWAP1 PUSH2 0x17E1 JUMP JUMPDEST JUMPDEST POP SWAP1 POP PUSH2 0x1816 SWAP2 SWAP1 PUSH2 0x1867 JUMP JUMPDEST POP SWAP1 JUMP JUMPDEST DUP3 DUP1 SLOAD DUP3 DUP3 SSTORE SWAP1 PUSH1 0x0 MSTORE PUSH1 0x20 PUSH1 0x0 KECCAK256 SWAP1 DUP2 ADD SWAP3 DUP3 ISZERO PUSH2 0x1856 JUMPI SWAP2 PUSH1 0x20 MUL DUP3 ADD JUMPDEST DUP3 DUP2 GT ISZERO PUSH2 0x1855 JUMPI DUP3 MLOAD DUP3 SSTORE SWAP2 PUSH1 0x20 ADD SWAP2 SWAP1 PUSH1 0x1 ADD SWAP1 PUSH2 0x183A JUMP JUMPDEST JUMPDEST POP SWAP1 POP PUSH2 0x1863 SWAP2 SWAP1 PUSH2 0x188B JUMP JUMPDEST POP SWAP1 JUMP JUMPDEST JUMPDEST DUP1 DUP3 GT ISZERO PUSH2 0x1887 JUMPI PUSH1 0x0 DUP2 DUP2 PUSH2 0x187E SWAP2 SWAP1 PUSH2 0x18A8 JUMP JUMPDEST POP PUSH1 0x1 ADD PUSH2 0x1868 JUMP JUMPDEST POP SWAP1 JUMP JUMPDEST JUMPDEST DUP1 DUP3 GT ISZERO PUSH2 0x18A4 JUMPI PUSH1 0x0 DUP2 PUSH1 0x0 SWAP1 SSTORE POP PUSH1 0x1 ADD PUSH2 0x188C JUMP JUMPDEST POP SWAP1 JUMP JUMPDEST POP DUP1 SLOAD PUSH2 0x18B4 SWAP1 PUSH2 0x235D JUMP JUMPDEST PUSH1 0x0 DUP3 SSTORE DUP1 PUSH1 0x1F LT PUSH2 0x18C6 JUMPI POP PUSH2 0x18E5 JUMP JUMPDEST PUSH1 0x1F ADD PUSH1 0x20 SWAP1 DIV SWAP1 PUSH1 0x0 MSTORE PUSH1 0x20 PUSH1 0x0 KECCAK256 SWAP1 DUP2 ADD SWAP1 PUSH2 0x18E4 SWAP2 SWAP1 PUSH2 0x188B JUMP JUMPDEST JUMPDEST POP JUMP JUMPDEST PUSH1 0x0 PUSH1 0x40 MLOAD SWAP1 POP SWAP1 JUMP JUMPDEST PUSH1 0x0 DUP1 REVERT JUMPDEST PUSH1 0x0 DUP1 REVERT JUMPDEST PUSH1 0x0 DUP2 SWAP1 POP SWAP2 SWAP1 POP JUMP JUMPDEST PUSH2 0x190F DUP2 PUSH2 0x18FC JUMP JUMPDEST DUP2 EQ PUSH2 0x191A JUMPI PUSH1 0x0 DUP1 REVERT JUMPDEST POP JUMP JUMPDEST PUSH1 0x0 DUP2 CALLDATALOAD SWAP1 POP PUSH2 0x192C DUP2 PUSH2 0x1906 JUMP JUMPDEST SWAP3 SWAP2 POP POP JUMP JUMPDEST PUSH1 0x0 PUSH20 0xFFFFFFFFFFFFFFFFFFFFFFFFFFFFFFFFFFFFFFFF DUP3 AND SWAP1 POP SWAP2 SWAP1 POP JUMP JUMPDEST PUSH1 0x0 PUSH2 0x195D DUP3 PUSH2 0x1932 JUMP JUMPDEST SWAP1 POP SWAP2 SWAP1 POP JUMP JUMPDEST PUSH2 0x196D DUP2 PUSH2 0x1952 JUMP JUMPDEST DUP2 EQ PUSH2 0x1978 JUMPI PUSH1 0x0 DUP1 REVERT JUMPDEST POP JUMP JUMPDEST PUSH1 0x0 DUP2 CALLDATALOAD SWAP1 POP PUSH2 0x198A DUP2 PUSH2 0x1964 JUMP JUMPDEST SWAP3 SWAP2 POP POP JUMP JUMPDEST PUSH1 0x0 DUP1 PUSH1 0x40 DUP4 DUP6 SUB SLT ISZERO PUSH2 0x19A7 JUMPI PUSH2 0x19A6 PUSH2 0x18F2 JUMP JUMPDEST JUMPDEST PUSH1 0x0 PUSH2 0x19B5 DUP6 DUP3 DUP7 ADD PUSH2 0x191D JUMP JUMPDEST SWAP3 POP POP PUSH1 0x20 PUSH2 0x19C6 DUP6 DUP3 DUP7 ADD PUSH2 0x197B JUMP JUMPDEST SWAP2 POP POP SWAP3 POP SWAP3 SWAP1 POP JUMP JUMPDEST PUSH2 0x19D9 DUP2 PUSH2 0x18FC JUMP JUMPDEST DUP3 MSTORE POP POP JUMP JUMPDEST PUSH1 0x0 PUSH1 0x20 DUP3 ADD SWAP1 POP PUSH2 0x19F4 PUSH1 0x0 DUP4 ADD DUP5 PUSH2 0x19D0 JUMP JUMPDEST SWAP3 SWAP2 POP POP JUMP JUMPDEST PUSH1 0x0 PUSH1 0x20 DUP3 DUP5 SUB SLT ISZERO PUSH2 0x1A10 JUMPI PUSH2 0x1A0F PUSH2 0x18F2 JUMP JUMPDEST JUMPDEST PUSH1 0x0 PUSH2 0x1A1E DUP5 DUP3 DUP6 ADD PUSH2 0x191D JUMP JUMPDEST SWAP2 POP POP SWAP3 SWAP2 POP POP JUMP JUMPDEST PUSH1 0x0 PUSH1 0x20 DUP3 DUP5 SUB SLT ISZERO PUSH2 0x1A3D JUMPI PUSH2 0x1A3C PUSH2 0x18F2 JUMP JUMPDEST JUMPDEST PUSH1 0x0 PUSH2 0x1A4B DUP5 DUP3 DUP6 ADD PUSH2 0x197B JUMP JUMPDEST SWAP2 POP POP SWAP3 SWAP2 POP POP JUMP JUMPDEST PUSH2 0x1A5D DUP2 PUSH2 0x18FC JUMP JUMPDEST DUP3 MSTORE POP POP JUMP JUMPDEST PUSH2 0x1A6C DUP2 PUSH2 0x1952 JUMP JUMPDEST DUP3 MSTORE POP POP JUMP JUMPDEST PUSH1 0x0 DUP2 MLOAD SWAP1 POP SWAP2 SWAP1 POP JUMP JUMPDEST PUSH1 0x0 DUP3 DUP3 MSTORE PUSH1 0x20 DUP3 ADD SWAP1 POP SWAP3 SWAP2 POP POP JUMP JUMPDEST PUSH1 0x0 DUP2 SWAP1 POP PUSH1 0x20 DUP3 ADD SWAP1 POP SWAP2 SWAP1 POP JUMP JUMPDEST PUSH1 0x0 DUP2 MLOAD SWAP1 POP SWAP2 SWAP1 POP JUMP JUMPDEST PUSH1 0x0 DUP3 DUP3 MSTORE PUSH1 0x20 DUP3 ADD SWAP1 POP SWAP3 SWAP2 POP POP JUMP JUMPDEST PUSH1 0x0 JUMPDEST DUP4 DUP2 LT ISZERO PUSH2 0x1AD8 JUMPI DUP1 DUP3 ADD MLOAD DUP2 DUP5 ADD MSTORE PUSH1 0x20 DUP2 ADD SWAP1 POP PUSH2 0x1ABD JUMP JUMPDEST PUSH1 0x0 DUP5 DUP5 ADD MSTORE POP POP POP POP JUMP JUMPDEST PUSH1 0x0 PUSH1 0x1F NOT PUSH1 0x1F DUP4 ADD AND SWAP1 POP SWAP2 SWAP1 POP JUMP JUMPDEST PUSH1 0x0 PUSH2 0x1B00 DUP3 PUSH2 0x1A9E JUMP JUMPDEST PUSH2 0x1B0A DUP2 DUP6 PUSH2 0x1AA9 JUMP JUMPDEST SWAP4 POP PUSH2 0x1B1A DUP2 DUP6 PUSH1 0x20 DUP7 ADD PUSH2 0x1ABA JUMP JUMPDEST PUSH2 0x1B23 DUP2 PUSH2 0x1AE4 JUMP JUMPDEST DUP5 ADD SWAP2 POP POP SWAP3 SWAP2 POP POP JUMP JUMPDEST PUSH1 0x0 PUSH2 0x1B3A DUP4 DUP4 PUSH2 0x1AF5 JUMP JUMPDEST SWAP1 POP SWAP3 SWAP2 POP POP JUMP JUMPDEST PUSH1 0x0 PUSH1 0x20 DUP3 ADD SWAP1 POP SWAP2 SWAP1 POP JUMP JUMPDEST PUSH1 0x0 PUSH2 0x1B5A DUP3 PUSH2 0x1A72 JUMP JUMPDEST PUSH2 0x1B64 DUP2 DUP6 PUSH2 0x1A7D JUMP JUMPDEST SWAP4 POP DUP4 PUSH1 0x20 DUP3 MUL DUP6 ADD PUSH2 0x1B76 DUP6 PUSH2 0x1A8E JUMP JUMPDEST DUP1 PUSH1 0x0 JUMPDEST DUP6 DUP2 LT ISZERO PUSH2 0x1BB2 JUMPI DUP5 DUP5 SUB DUP10 MSTORE DUP2 MLOAD PUSH2 0x1B93 DUP6 DUP3 PUSH2 0x1B2E JUMP JUMPDEST SWAP5 POP PUSH2 0x1B9E DUP4 PUSH2 0x1B42 JUMP JUMPDEST SWAP3 POP PUSH1 0x20 DUP11 ADD SWAP10 POP POP PUSH1 0x1 DUP2 ADD SWAP1 POP PUSH2 0x1B7A JUMP JUMPDEST POP DUP3 SWAP8 POP DUP8 SWAP6 POP POP POP POP POP POP SWAP3 SWAP2 POP POP JUMP JUMPDEST PUSH1 0x0 DUP2 MLOAD SWAP1 POP SWAP2 SWAP1 POP JUMP JUMPDEST PUSH1 0x0 DUP3 DUP3 MSTORE PUSH1 0x20 DUP3 ADD SWAP1 POP SWAP3 SWAP2 POP POP JUMP JUMPDEST PUSH1 0x0 DUP2 SWAP1 POP PUSH1 0x20 DUP3 ADD SWAP1 POP SWAP2 SWAP1 POP JUMP JUMPDEST PUSH1 0x0 PUSH2 0x1BFC DUP4 DUP4 PUSH2 0x1A54 JUMP JUMPDEST PUSH1 0x20 DUP4 ADD SWAP1 POP SWAP3 SWAP2 POP POP JUMP JUMPDEST PUSH1 0x0 PUSH1 0x20 DUP3 ADD SWAP1 POP SWAP2 SWAP1 POP JUMP JUMPDEST PUSH1 0x0 PUSH2 0x1C20 DUP3 PUSH2 0x1BC4 JUMP JUMPDEST PUSH2 0x1C2A DUP2 DUP6 PUSH2 0x1BCF JUMP JUMPDEST SWAP4 POP PUSH2 0x1C35 DUP4 PUSH2 0x1BE0 JUMP JUMPDEST DUP1 PUSH1 0x0 JUMPDEST DUP4 DUP2 LT ISZERO PUSH2 0x1C66 JUMPI DUP2 MLOAD PUSH2 0x1C4D DUP9 DUP3 PUSH2 0x1BF0 JUMP JUMPDEST SWAP8 POP PUSH2 0x1C58 DUP4 PUSH2 0x1C08 JUMP JUMPDEST SWAP3 POP POP PUSH1 0x1 DUP2 ADD SWAP1 POP PUSH2 0x1C39 JUMP JUMPDEST POP DUP6 SWAP4 POP POP POP POP SWAP3 SWAP2 POP POP JUMP JUMPDEST PUSH1 0x0 DUP2 ISZERO ISZERO SWAP1 POP SWAP2 SWAP1 POP JUMP JUMPDEST PUSH2 0x1C88 DUP2 PUSH2 0x1C73 JUMP JUMPDEST DUP3 MSTORE POP POP JUMP JUMPDEST PUSH1 0x0 PUSH1 0xE0 DUP4 ADD PUSH1 0x0 DUP4 ADD MLOAD PUSH2 0x1CA6 PUSH1 0x0 DUP7 ADD DUP3 PUSH2 0x1A54 JUMP JUMPDEST POP PUSH1 0x20 DUP4 ADD MLOAD PUSH2 0x1CB9 PUSH1 0x20 DUP7 ADD DUP3 PUSH2 0x1A63 JUMP JUMPDEST POP PUSH1 0x40 DUP4 ADD MLOAD PUSH2 0x1CCC PUSH1 0x40 DUP7 ADD DUP3 PUSH2 0x1A54 JUMP JUMPDEST POP PUSH1 0x60 DUP4 ADD MLOAD PUSH2 0x1CDF PUSH1 0x60 DUP7 ADD DUP3 PUSH2 0x1A54 JUMP JUMPDEST POP PUSH1 0x80 DUP4 ADD MLOAD DUP5 DUP3 SUB PUSH1 0x80 DUP7 ADD MSTORE PUSH2 0x1CF7 DUP3 DUP3 PUSH2 0x1B4F JUMP JUMPDEST SWAP2 POP POP PUSH1 0xA0 DUP4 ADD MLOAD DUP5 DUP3 SUB PUSH1 0xA0 DUP7 ADD MSTORE PUSH2 0x1D11 DUP3 DUP3 PUSH2 0x1C15 JUMP JUMPDEST SWAP2 POP POP PUSH1 0xC0 DUP4 ADD MLOAD PUSH2 0x1D26 PUSH1 0xC0 DUP7 ADD DUP3 PUSH2 0x1C7F JUMP JUMPDEST POP DUP1 SWAP2 POP POP SWAP3 SWAP2 POP POP JUMP JUMPDEST PUSH1 0x0 PUSH1 0x20 DUP3 ADD SWAP1 POP DUP2 DUP2 SUB PUSH1 0x0 DUP4 ADD MSTORE PUSH2 0x1D4B DUP2 DUP5 PUSH2 0x1C8E JUMP JUMPDEST SWAP1 POP SWAP3 SWAP2 POP POP JUMP JUMPDEST PUSH1 0x0 DUP1 PUSH1 0x40 DUP4 DUP6 SUB SLT ISZERO PUSH2 0x1D6A JUMPI PUSH2 0x1D69 PUSH2 0x18F2 JUMP JUMPDEST JUMPDEST PUSH1 0x0 PUSH2 0x1D78 DUP6 DUP3 DUP7 ADD PUSH2 0x191D JUMP JUMPDEST SWAP3 POP POP PUSH1 0x20 PUSH2 0x1D89 DUP6 DUP3 DUP7 ADD PUSH2 0x191D JUMP JUMPDEST SWAP2 POP POP SWAP3 POP SWAP3 SWAP1 POP JUMP JUMPDEST PUSH1 0x0 DUP3 DUP3 MSTORE PUSH1 0x20 DUP3 ADD SWAP1 POP SWAP3 SWAP2 POP POP JUMP JUMPDEST PUSH1 0x0 PUSH2 0x1DAF DUP3 PUSH2 0x1A9E JUMP JUMPDEST PUSH2 0x1DB9 DUP2 DUP6 PUSH2 0x1D93 JUMP JUMPDEST SWAP4 POP PUSH2 0x1DC9 DUP2 DUP6 PUSH1 0x20 DUP7 ADD PUSH2 0x1ABA JUMP JUMPDEST PUSH2 0x1DD2 DUP2 PUSH2 0x1AE4 JUMP JUMPDEST DUP5 ADD SWAP2 POP POP SWAP3 SWAP2 POP POP JUMP JUMPDEST PUSH2 0x1DE6 DUP2 PUSH2 0x1952 JUMP JUMPDEST DUP3 MSTORE POP POP JUMP JUMPDEST PUSH1 0x0 PUSH1 0x80 DUP3 ADD SWAP1 POP PUSH2 0x1E01 PUSH1 0x0 DUP4 ADD DUP8 PUSH2 0x19D0 JUMP JUMPDEST DUP2 DUP2 SUB PUSH1 0x20 DUP4 ADD MSTORE PUSH2 0x1E13 DUP2 DUP7 PUSH2 0x1DA4 JUMP JUMPDEST SWAP1 POP PUSH2 0x1E22 PUSH1 0x40 DUP4 ADD DUP6 PUSH2 0x1DDD JUMP JUMPDEST PUSH2 0x1E2F PUSH1 0x60 DUP4 ADD DUP5 PUSH2 0x19D0 JUMP JUMPDEST SWAP6 SWAP5 POP POP POP POP POP JUMP JUMPDEST PUSH2 0x1E41 DUP2 PUSH2 0x1C73 JUMP JUMPDEST DUP3 MSTORE POP POP JUMP JUMPDEST PUSH1 0x0 PUSH1 0x20 DUP3 ADD SWAP1 POP PUSH2 0x1E5C PUSH1 0x0 DUP4 ADD DUP5 PUSH2 0x1E38 JUMP JUMPDEST SWAP3 SWAP2 POP POP JUMP JUMPDEST PUSH1 0x0 DUP2 SWAP1 POP SWAP2 SWAP1 POP JUMP JUMPDEST PUSH2 0x1E75 DUP2 PUSH2 0x1E62 JUMP JUMPDEST DUP2 EQ PUSH2 0x1E80 JUMPI PUSH1 0x0 DUP1 REVERT JUMPDEST POP JUMP JUMPDEST PUSH1 0x0 DUP2 CALLDATALOAD SWAP1 POP PUSH2 0x1E92 DUP2 PUSH2 0x1E6C JUMP JUMPDEST SWAP3 SWAP2 POP POP JUMP JUMPDEST PUSH1 0x0 DUP1 PUSH1 0x40 DUP4 DUP6 SUB SLT ISZERO PUSH2 0x1EAF JUMPI PUSH2 0x1EAE PUSH2 0x18F2 JUMP JUMPDEST JUMPDEST PUSH1 0x0 PUSH2 0x1EBD DUP6 DUP3 DUP7 ADD PUSH2 0x191D JUMP JUMPDEST SWAP3 POP POP PUSH1 0x20 PUSH2 0x1ECE DUP6 DUP3 DUP7 ADD PUSH2 0x1E83 JUMP JUMPDEST SWAP2 POP POP SWAP3 POP SWAP3 SWAP1 POP JUMP JUMPDEST PUSH1 0x0 PUSH1 0x60 DUP3 ADD SWAP1 POP PUSH2 0x1EED PUSH1 0x0 DUP4 ADD DUP7 PUSH2 0x19D0 JUMP JUMPDEST PUSH2 0x1EFA PUSH1 0x20 DUP4 ADD DUP6 PUSH2 0x1DDD JUMP JUMPDEST PUSH2 0x1F07 PUSH1 0x40 DUP4 ADD DUP5 PUSH2 0x19D0 JUMP JUMPDEST SWAP5 SWAP4 POP POP POP POP JUMP JUMPDEST PUSH1 0x0 DUP1 REVERT JUMPDEST PUSH1 0x0 DUP1 REVERT JUMPDEST PUSH1 0x0 DUP1 REVERT JUMPDEST PUSH1 0x0 DUP1 DUP4 PUSH1 0x1F DUP5 ADD SLT PUSH2 0x1F34 JUMPI PUSH2 0x1F33 PUSH2 0x1F0F JUMP JUMPDEST JUMPDEST DUP3 CALLDATALOAD SWAP1 POP PUSH8 0xFFFFFFFFFFFFFFFF DUP2 GT ISZERO PUSH2 0x1F51 JUMPI PUSH2 0x1F50 PUSH2 0x1F14 JUMP JUMPDEST JUMPDEST PUSH1 0x20 DUP4 ADD SWAP2 POP DUP4 PUSH1 0x1 DUP3 MUL DUP4 ADD GT ISZERO PUSH2 0x1F6D JUMPI PUSH2 0x1F6C PUSH2 0x1F19 JUMP JUMPDEST JUMPDEST SWAP3 POP SWAP3 SWAP1 POP JUMP JUMPDEST PUSH1 0x0 DUP1 PUSH1 0x0 PUSH1 0x40 DUP5 DUP7 SUB SLT ISZERO PUSH2 0x1F8D JUMPI PUSH2 0x1F8C PUSH2 0x18F2 JUMP JUMPDEST JUMPDEST PUSH1 0x0 PUSH2 0x1F9B DUP7 DUP3 DUP8 ADD PUSH2 0x191D JUMP JUMPDEST SWAP4 POP POP PUSH1 0x20 DUP5 ADD CALLDATALOAD PUSH8 0xFFFFFFFFFFFFFFFF DUP2 GT ISZERO PUSH2 0x1FBC JUMPI PUSH2 0x1FBB PUSH2 0x18F7 JUMP JUMPDEST JUMPDEST PUSH2 0x1FC8 DUP7 DUP3 DUP8 ADD PUSH2 0x1F1E JUMP JUMPDEST SWAP3 POP SWAP3 POP POP SWAP3 POP SWAP3 POP SWAP3 JUMP JUMPDEST PUSH32 0x4E487B7100000000000000000000000000000000000000000000000000000000 PUSH1 0x0 MSTORE PUSH1 0x41 PUSH1 0x4 MSTORE PUSH1 0x24 PUSH1 0x0 REVERT JUMPDEST PUSH2 0x200C DUP3 PUSH2 0x1AE4 JUMP JUMPDEST DUP2 ADD DUP2 DUP2 LT PUSH8 0xFFFFFFFFFFFFFFFF DUP3 GT OR ISZERO PUSH2 0x202B JUMPI PUSH2 0x202A PUSH2 0x1FD4 JUMP JUMPDEST JUMPDEST DUP1 PUSH1 0x40 MSTORE POP POP POP JUMP JUMPDEST PUSH1 0x0 PUSH2 0x203E PUSH2 0x18E8 JUMP JUMPDEST SWAP1 POP PUSH2 0x204A DUP3 DUP3 PUSH2 0x2003 JUMP JUMPDEST SWAP2 SWAP1 POP JUMP JUMPDEST PUSH1 0x0 PUSH8 0xFFFFFFFFFFFFFFFF DUP3 GT ISZERO PUSH2 0x206A JUMPI PUSH2 0x2069 PUSH2 0x1FD4 JUMP JUMPDEST JUMPDEST PUSH1 0x20 DUP3 MUL SWAP1 POP PUSH1 0x20 DUP2 ADD SWAP1 POP SWAP2 SWAP1 POP JUMP JUMPDEST PUSH1 0x0 DUP1 REVERT JUMPDEST PUSH1 0x0 PUSH8 0xFFFFFFFFFFFFFFFF DUP3 GT ISZERO PUSH2 0x209B JUMPI PUSH2 0x209A PUSH2 0x1FD4 JUMP JUMPDEST JUMPDEST PUSH2 0x20A4 DUP3 PUSH2 0x1AE4 JUMP JUMPDEST SWAP1 POP PUSH1 0x20 DUP2 ADD SWAP1 POP SWAP2 SWAP1 POP JUMP JUMPDEST DUP3 DUP2 DUP4 CALLDATACOPY PUSH1 0x0 DUP4 DUP4 ADD MSTORE POP POP POP JUMP JUMPDEST PUSH1 0x0 PUSH2 0x20D3 PUSH2 0x20CE DUP5 PUSH2 0x2080 JUMP JUMPDEST PUSH2 0x2034 JUMP JUMPDEST SWAP1 POP DUP3 DUP2 MSTORE PUSH1 0x20 DUP2 ADD DUP5 DUP5 DUP5 ADD GT ISZERO PUSH2 0x20EF JUMPI PUSH2 0x20EE PUSH2 0x207B JUMP JUMPDEST JUMPDEST PUSH2 0x20FA DUP5 DUP3 DUP6 PUSH2 0x20B1 JUMP JUMPDEST POP SWAP4 SWAP3 POP POP POP JUMP JUMPDEST PUSH1 0x0 DUP3 PUSH1 0x1F DUP4 ADD SLT PUSH2 0x2117 JUMPI PUSH2 0x2116 PUSH2 0x1F0F JUMP JUMPDEST JUMPDEST DUP2 CALLDATALOAD PUSH2 0x2127 DUP5 DUP3 PUSH1 0x20 DUP7 ADD PUSH2 0x20C0 JUMP JUMPDEST SWAP2 POP POP SWAP3 SWAP2 POP POP JUMP JUMPDEST PUSH1 0x0 PUSH2 0x2143 PUSH2 0x213E DUP5 PUSH2 0x204F JUMP JUMPDEST PUSH2 0x2034 JUMP JUMPDEST SWAP1 POP DUP1 DUP4 DUP3 MSTORE PUSH1 0x20 DUP3 ADD SWAP1 POP PUSH1 0x20 DUP5 MUL DUP4 ADD DUP6 DUP2 GT ISZERO PUSH2 0x2166 JUMPI PUSH2 0x2165 PUSH2 0x1F19 JUMP JUMPDEST JUMPDEST DUP4 JUMPDEST DUP2 DUP2 LT ISZERO PUSH2 0x21AD JUMPI DUP1 CALLDATALOAD PUSH8 0xFFFFFFFFFFFFFFFF DUP2 GT ISZERO PUSH2 0x218B JUMPI PUSH2 0x218A PUSH2 0x1F0F JUMP JUMPDEST JUMPDEST DUP1 DUP7 ADD PUSH2 0x2198 DUP10 DUP3 PUSH2 0x2102 JUMP JUMPDEST DUP6 MSTORE PUSH1 0x20 DUP6 ADD SWAP5 POP POP POP PUSH1 0x20 DUP2 ADD SWAP1 POP PUSH2 0x2168 JUMP JUMPDEST POP POP POP SWAP4 SWAP3 POP POP POP JUMP JUMPDEST PUSH1 0x0 DUP3 PUSH1 0x1F DUP4 ADD SLT PUSH2 0x21CC JUMPI PUSH2 0x21CB PUSH2 0x1F0F JUMP JUMPDEST JUMPDEST DUP2 CALLDATALOAD PUSH2 0x21DC DUP5 DUP3 PUSH1 0x20 DUP7 ADD PUSH2 0x2130 JUMP JUMPDEST SWAP2 POP POP SWAP3 SWAP2 POP POP JUMP JUMPDEST PUSH1 0x0 DUP1 PUSH1 0x0 PUSH1 0x60 DUP5 DUP7 SUB SLT ISZERO PUSH2 0x21FE JUMPI PUSH2 0x21FD PUSH2 0x18F2 JUMP JUMPDEST JUMPDEST PUSH1 0x0 PUSH2 0x220C DUP7 DUP3 DUP8 ADD PUSH2 0x191D JUMP JUMPDEST SWAP4 POP POP PUSH1 0x20 PUSH2 0x221D DUP7 DUP3 DUP8 ADD PUSH2 0x191D JUMP JUMPDEST SWAP3 POP POP PUSH1 0x40 DUP5 ADD CALLDATALOAD PUSH8 0xFFFFFFFFFFFFFFFF DUP2 GT ISZERO PUSH2 0x223E JUMPI PUSH2 0x223D PUSH2 0x18F7 JUMP JUMPDEST JUMPDEST PUSH2 0x224A DUP7 DUP3 DUP8 ADD PUSH2 0x21B7 JUMP JUMPDEST SWAP2 POP POP SWAP3 POP SWAP3 POP SWAP3 JUMP JUMPDEST PUSH32 0x4E487B7100000000000000000000000000000000000000000000000000000000 PUSH1 0x0 MSTORE PUSH1 0x32 PUSH1 0x4 MSTORE PUSH1 0x24 PUSH1 0x0 REVERT JUMPDEST PUSH32 0x4E487B7100000000000000000000000000000000000000000000000000000000 PUSH1 0x0 MSTORE PUSH1 0x11 PUSH1 0x4 MSTORE PUSH1 0x24 PUSH1 0x0 REVERT JUMPDEST PUSH1 0x0 PUSH2 0x22BD DUP3 PUSH2 0x18FC JUMP JUMPDEST SWAP2 POP PUSH2 0x22C8 DUP4 PUSH2 0x18FC JUMP JUMPDEST SWAP3 POP DUP3 DUP3 ADD SWAP1 POP DUP1 DUP3 GT ISZERO PUSH2 0x22E0 JUMPI PUSH2 0x22DF PUSH2 0x2283 JUMP JUMPDEST JUMPDEST SWAP3 SWAP2 POP POP JUMP JUMPDEST PUSH1 0x0 PUSH2 0x22F1 DUP3 PUSH2 0x18FC JUMP JUMPDEST SWAP2 POP PUSH32 0xFFFFFFFFFFFFFFFFFFFFFFFFFFFFFFFFFFFFFFFFFFFFFFFFFFFFFFFFFFFFFFFF DUP3 SUB PUSH2 0x2323 JUMPI PUSH2 0x2322 PUSH2 0x2283 JUMP JUMPDEST JUMPDEST PUSH1 0x1 DUP3 ADD SWAP1 POP SWAP2 SWAP1 POP JUMP JUMPDEST PUSH32 0x4E487B7100000000000000000000000000000000000000000000000000000000 PUSH1 0x0 MSTORE PUSH1 0x22 PUSH1 0x4 MSTORE PUSH1 0x24 PUSH1 0x0 REVERT JUMPDEST PUSH1 0x0 PUSH1 0x2 DUP3 DIV SWAP1 POP PUSH1 0x1 DUP3 AND DUP1 PUSH2 0x2375 JUMPI PUSH1 0x7F DUP3 AND SWAP2 POP JUMPDEST PUSH1 0x20 DUP3 LT DUP2 SUB PUSH2 0x2388 JUMPI PUSH2 0x2387 PUSH2 0x232E JUMP JUMPDEST JUMPDEST POP SWAP2 SWAP1 POP JUMP JUMPDEST PUSH32 0x416C726561647920766F74656400000000000000000000000000000000000000 PUSH1 0x0 DUP3 ADD MSTORE POP JUMP JUMPDEST PUSH1 0x0 PUSH2 0x23C4 PUSH1 0xD DUP4 PUSH2 0x1D93 JUMP JUMPDEST SWAP2 POP PUSH2 0x23CF DUP3 PUSH2 0x238E JUMP JUMPDEST PUSH1 0x20 DUP3 ADD SWAP1 POP SWAP2 SWAP1 POP JUMP JUMPDEST PUSH1 0x0 PUSH1 0x20 DUP3 ADD SWAP1 POP DUP2 DUP2 SUB PUSH1 0x0 DUP4 ADD MSTORE PUSH2 0x23F3 DUP2 PUSH2 0x23B7 JUMP JUMPDEST SWAP1 POP SWAP2 SWAP1 POP JUMP JUMPDEST PUSH32 0x506F6C6C20697320636C6F736564000000000000000000000000000000000000 PUSH1 0x0 DUP3 ADD MSTORE POP JUMP JUMPDEST PUSH1 0x0 PUSH2 0x2430 PUSH1 0xE DUP4 PUSH2 0x1D93 JUMP JUMPDEST SWAP2 POP PUSH2 0x243B DUP3 PUSH2 0x23FA JUMP JUMPDEST PUSH1 0x20 DUP3 ADD SWAP1 POP SWAP2 SWAP1 POP JUMP JUMPDEST PUSH1 0x0 PUSH1 0x20 DUP3 ADD SWAP1 POP DUP2 DUP2 SUB PUSH1 0x0 DUP4 ADD MSTORE PUSH2 0x245F DUP2 PUSH2 0x2423 JUMP JUMPDEST SWAP1 POP SWAP2 SWAP1 POP JUMP JUMPDEST PUSH32 0x506F6C6C206973206E6F74206163746976650000000000000000000000000000 PUSH1 0x0 DUP3 ADD MSTORE POP JUMP JUMPDEST PUSH1 0x0 PUSH2 0x249C PUSH1 0x12 DUP4 PUSH2 0x1D93 JUMP JUMPDEST SWAP2 POP PUSH2 0x24A7 DUP3 PUSH2 0x2466 JUMP JUMPDEST PUSH1 0x20 DUP3 ADD SWAP1 POP SWAP2 SWAP1 POP JUMP JUMPDEST PUSH1 0x0 PUSH1 0x20 DUP3 ADD SWAP1 POP DUP2 DUP2 SUB PUSH1 0x0 DUP4 ADD MSTORE PUSH2 0x24CB DUP2 PUSH2 0x248F JUMP JUMPDEST SWAP1 POP SWAP2 SWAP1 POP JUMP JUMPDEST PUSH32 0x496E76616C69642063686F696365000000000000000000000000000000000000 PUSH1 0x0 DUP3 ADD MSTORE POP JUMP JUMPDEST PUSH1 0x0 PUSH2 0x2508 PUSH1 0xE DUP4 PUSH2 0x1D93 JUMP JUMPDEST SWAP2 POP PUSH2 0x2513 DUP3 PUSH2 0x24D2 JUMP JUMPDEST PUSH1 0x20 DUP3 ADD SWAP1 POP SWAP2 SWAP1 POP JUMP JUMPDEST PUSH1 0x0 PUSH1 0x20 DUP3 ADD SWAP1 POP DUP2 DUP2 SUB PUSH1 0x0 DUP4 ADD MSTORE PUSH2 0x2537 DUP2 PUSH2 0x24FB JUMP JUMPDEST SWAP1 POP SWAP2 SWAP1 POP JUMP JUMPDEST PUSH32 0x506F6C6C20686173206E6F742073746172746564207965742C20796F75206361 PUSH1 0x0 DUP3 ADD MSTORE PUSH32 0x6E6E6F7420626574206F6E206974000000000000000000000000000000000000 PUSH1 0x20 DUP3 ADD MSTORE POP JUMP JUMPDEST PUSH1 0x0 PUSH2 0x259A PUSH1 0x2E DUP4 PUSH2 0x1D93 JUMP JUMPDEST SWAP2 POP PUSH2 0x25A5 DUP3 PUSH2 0x253E JUMP JUMPDEST PUSH1 0x40 DUP3 ADD SWAP1 POP SWAP2 SWAP1 POP JUMP JUMPDEST PUSH1 0x0 PUSH1 0x20 DUP3 ADD SWAP1 POP DUP2 DUP2 SUB PUSH1 0x0 DUP4 ADD MSTORE PUSH2 0x25C9 DUP2 PUSH2 0x258D JUMP JUMPDEST SWAP1 POP SWAP2 SWAP1 POP JUMP JUMPDEST PUSH32 0x506F6C6C2068617320656E6465642C20796F752063616E6E6F7420626574206F PUSH1 0x0 DUP3 ADD MSTORE PUSH32 0x6E20697420616E796D6F72650000000000000000000000000000000000000000 PUSH1 0x20 DUP3 ADD MSTORE POP JUMP JUMPDEST PUSH1 0x0 PUSH2 0x262C PUSH1 0x2C DUP4 PUSH2 0x1D93 JUMP JUMPDEST SWAP2 POP PUSH2 0x2637 DUP3 PUSH2 0x25D0 JUMP JUMPDEST PUSH1 0x40 DUP3 ADD SWAP1 POP SWAP2 SWAP1 POP JUMP JUMPDEST PUSH1 0x0 PUSH1 0x20 DUP3 ADD SWAP1 POP DUP2 DUP2 SUB PUSH1 0x0 DUP4 ADD MSTORE PUSH2 0x265B DUP2 PUSH2 0x261F JUMP JUMPDEST SWAP1 POP SWAP2 SWAP1 POP JUMP JUMPDEST PUSH32 0x416D6F756E74206D7573742062652067726561746572207468616E2030210000 PUSH1 0x0 DUP3 ADD MSTORE POP JUMP JUMPDEST PUSH1 0x0 PUSH2 0x2698 PUSH1 0x1E DUP4 PUSH2 0x1D93 JUMP JUMPDEST SWAP2 POP PUSH2 0x26A3 DUP3 PUSH2 0x2662 JUMP JUMPDEST PUSH1 0x20 DUP3 ADD SWAP1 POP SWAP2 SWAP1 POP JUMP JUMPDEST PUSH1 0x0 PUSH1 0x20 DUP3 ADD SWAP1 POP DUP2 DUP2 SUB PUSH1 0x0 DUP4 ADD MSTORE PUSH2 0x26C7 DUP2 PUSH2 0x268B JUMP JUMPDEST SWAP1 POP SWAP2 SWAP1 POP JUMP JUMPDEST PUSH1 0x0 DUP2 SWAP1 POP SWAP3 SWAP2 POP POP JUMP JUMPDEST PUSH1 0x0 DUP2 SWAP1 POP DUP2 PUSH1 0x0 MSTORE PUSH1 0x20 PUSH1 0x0 KECCAK256 SWAP1 POP SWAP2 SWAP1 POP JUMP JUMPDEST PUSH1 0x0 DUP2 SLOAD PUSH2 0x26FB DUP2 PUSH2 0x235D JUMP JUMPDEST PUSH2 0x2705 DUP2 DUP7 PUSH2 0x26CE JUMP JUMPDEST SWAP5 POP PUSH1 0x1 DUP3 AND PUSH1 0x0 DUP2 EQ PUSH2 0x2720 JUMPI PUSH1 0x1 DUP2 EQ PUSH2 0x2735 JUMPI PUSH2 0x2768 JUMP JUMPDEST PUSH1 0xFF NOT DUP4 AND DUP7 MSTORE DUP2 ISZERO ISZERO DUP3 MUL DUP7 ADD SWAP4 POP PUSH2 0x2768 JUMP JUMPDEST PUSH2 0x273E DUP6 PUSH2 0x26D9 JUMP JUMPDEST PUSH1 0x0 JUMPDEST DUP4 DUP2 LT ISZERO PUSH2 0x2760 JUMPI DUP2 SLOAD DUP2 DUP10 ADD MSTORE PUSH1 0x1 DUP3 ADD SWAP2 POP PUSH1 0x20 DUP2 ADD SWAP1 POP PUSH2 0x2741 JUMP JUMPDEST DUP4 DUP9 ADD SWAP6 POP POP POP JUMPDEST POP POP POP SWAP3 SWAP2 POP POP JUMP JUMPDEST PUSH1 0x0 PUSH2 0x277D DUP3 DUP5 PUSH2 0x26EE JUMP JUMPDEST SWAP2 POP DUP2 SWAP1 POP SWAP3 SWAP2 POP POP JUMP JUMPDEST PUSH32 0x496E76616C696420706F6C6C2063686F6963652C20706C656173652073656C65 PUSH1 0x0 DUP3 ADD MSTORE PUSH32 0x6374206F6E65206F662074686520706F6C6C2063686F6963657320746F206265 PUSH1 0x20 DUP3 ADD MSTORE PUSH32 0x74206F6E00000000000000000000000000000000000000000000000000000000 PUSH1 0x40 DUP3 ADD MSTORE POP JUMP JUMPDEST PUSH1 0x0 PUSH2 0x280A PUSH1 0x44 DUP4 PUSH2 0x1D93 JUMP JUMPDEST SWAP2 POP PUSH2 0x2815 DUP3 PUSH2 0x2788 JUMP JUMPDEST PUSH1 0x60 DUP3 ADD SWAP1 POP SWAP2 SWAP1 POP JUMP JUMPDEST PUSH1 0x0 PUSH1 0x20 DUP3 ADD SWAP1 POP DUP2 DUP2 SUB PUSH1 0x0 DUP4 ADD MSTORE PUSH2 0x2839 DUP2 PUSH2 0x27FD JUMP JUMPDEST SWAP1 POP SWAP2 SWAP1 POP JUMP JUMPDEST PUSH1 0x0 DUP2 SWAP1 POP DUP2 PUSH1 0x0 MSTORE PUSH1 0x20 PUSH1 0x0 KECCAK256 SWAP1 POP SWAP2 SWAP1 POP JUMP JUMPDEST PUSH1 0x0 PUSH1 0x20 PUSH1 0x1F DUP4 ADD DIV SWAP1 POP SWAP2 SWAP1 POP JUMP JUMPDEST PUSH1 0x0 DUP3 DUP3 SHL SWAP1 POP SWAP3 SWAP2 POP POP JUMP JUMPDEST PUSH1 0x0 PUSH1 0x8 DUP4 MUL PUSH2 0x28A2 PUSH32 0xFFFFFFFFFFFFFFFFFFFFFFFFFFFFFFFFFFFFFFFFFFFFFFFFFFFFFFFFFFFFFFFF DUP3 PUSH2 0x2865 JUMP JUMPDEST PUSH2 0x28AC DUP7 DUP4 PUSH2 0x2865 JUMP JUMPDEST SWAP6 POP DUP1 NOT DUP5 AND SWAP4 POP DUP1 DUP7 AND DUP5 OR SWAP3 POP POP POP SWAP4 SWAP3 POP POP POP JUMP JUMPDEST PUSH1 0x0 DUP2 SWAP1 POP SWAP2 SWAP1 POP JUMP JUMPDEST PUSH1 0x0 PUSH2 0x28E9 PUSH2 0x28E4 PUSH2 0x28DF DUP5 PUSH2 0x18FC JUMP JUMPDEST PUSH2 0x28C4 JUMP JUMPDEST PUSH2 0x18FC JUMP JUMPDEST SWAP1 POP SWAP2 SWAP1 POP JUMP JUMPDEST PUSH1 0x0 DUP2 SWAP1 POP SWAP2 SWAP1 POP JUMP JUMPDEST PUSH2 0x2903 DUP4 PUSH2 0x28CE JUMP JUMPDEST PUSH2 0x2917 PUSH2 0x290F DUP3 PUSH2 0x28F0 JUMP JUMPDEST DUP5 DUP5 SLOAD PUSH2 0x2872 JUMP JUMPDEST DUP3 SSTORE POP POP POP POP JUMP JUMPDEST PUSH1 0x0 SWAP1 JUMP JUMPDEST PUSH2 0x292C PUSH2 0x291F JUMP JUMPDEST PUSH2 0x2937 DUP2 DUP5 DUP5 PUSH2 0x28FA JUMP JUMPDEST POP POP POP JUMP JUMPDEST JUMPDEST DUP2 DUP2 LT ISZERO PUSH2 0x295B JUMPI PUSH2 0x2950 PUSH1 0x0 DUP3 PUSH2 0x2924 JUMP JUMPDEST PUSH1 0x1 DUP2 ADD SWAP1 POP PUSH2 0x293D JUMP JUMPDEST POP POP JUMP JUMPDEST PUSH1 0x1F DUP3 GT ISZERO PUSH2 0x29A0 JUMPI PUSH2 0x2971 DUP2 PUSH2 0x2840 JUMP JUMPDEST PUSH2 0x297A DUP5 PUSH2 0x2855 JUMP JUMPDEST DUP2 ADD PUSH1 0x20 DUP6 LT ISZERO PUSH2 0x2989 JUMPI DUP2 SWAP1 POP JUMPDEST PUSH2 0x299D PUSH2 0x2995 DUP6 PUSH2 0x2855 JUMP JUMPDEST DUP4 ADD DUP3 PUSH2 0x293C JUMP JUMPDEST POP POP JUMPDEST POP POP POP JUMP JUMPDEST PUSH1 0x0 DUP3 DUP3 SHR SWAP1 POP SWAP3 SWAP2 POP POP JUMP JUMPDEST PUSH1 0x0 PUSH2 0x29C3 PUSH1 0x0 NOT DUP5 PUSH1 0x8 MUL PUSH2 0x29A5 JUMP JUMPDEST NOT DUP1 DUP4 AND SWAP2 POP POP SWAP3 SWAP2 POP POP JUMP JUMPDEST PUSH1 0x0 PUSH2 0x29DC DUP4 DUP4 PUSH2 0x29B2 JUMP JUMPDEST SWAP2 POP DUP3 PUSH1 0x2 MUL DUP3 OR SWAP1 POP SWAP3 SWAP2 POP POP JUMP JUMPDEST PUSH2 0x29F5 DUP3 PUSH2 0x1A9E JUMP JUMPDEST PUSH8 0xFFFFFFFFFFFFFFFF DUP2 GT ISZERO PUSH2 0x2A0E JUMPI PUSH2 0x2A0D PUSH2 0x1FD4 JUMP JUMPDEST JUMPDEST PUSH2 0x2A18 DUP3 SLOAD PUSH2 0x235D JUMP JUMPDEST PUSH2 0x2A23 DUP3 DUP3 DUP6 PUSH2 0x295F JUMP JUMPDEST PUSH1 0x0 PUSH1 0x20 SWAP1 POP PUSH1 0x1F DUP4 GT PUSH1 0x1 DUP2 EQ PUSH2 0x2A56 JUMPI PUSH1 0x0 DUP5 ISZERO PUSH2 0x2A44 JUMPI DUP3 DUP8 ADD MLOAD SWAP1 POP JUMPDEST PUSH2 0x2A4E DUP6 DUP3 PUSH2 0x29D0 JUMP JUMPDEST DUP7 SSTORE POP PUSH2 0x2AB6 JUMP JUMPDEST PUSH1 0x1F NOT DUP5 AND PUSH2 0x2A64 DUP7 PUSH2 0x2840 JUMP JUMPDEST PUSH1 0x0 JUMPDEST DUP3 DUP2 LT ISZERO PUSH2 0x2A8C JUMPI DUP5 DUP10 ADD MLOAD DUP3 SSTORE PUSH1 0x1 DUP3 ADD SWAP2 POP PUSH1 0x20 DUP6 ADD SWAP5 POP PUSH1 0x20 DUP2 ADD SWAP1 POP PUSH2 0x2A67 JUMP JUMPDEST DUP7 DUP4 LT ISZERO PUSH2 0x2AA9 JUMPI DUP5 DUP10 ADD MLOAD PUSH2 0x2AA5 PUSH1 0x1F DUP10 AND DUP3 PUSH2 0x29B2 JUMP JUMPDEST DUP4 SSTORE POP JUMPDEST PUSH1 0x1 PUSH1 0x2 DUP9 MUL ADD DUP9 SSTORE POP POP POP JUMPDEST POP POP POP POP POP POP JUMP JUMPDEST PUSH1 0x0 PUSH1 0x40 DUP3 ADD SWAP1 POP DUP2 DUP2 SUB PUSH1 0x0 DUP4 ADD MSTORE PUSH2 0x2AD8 DUP2 DUP6 PUSH2 0x1DA4 JUMP JUMPDEST SWAP1 POP PUSH2 0x2AE7 PUSH1 0x20 DUP4 ADD DUP5 PUSH2 0x19D0 JUMP JUMPDEST SWAP4 SWAP3 POP POP POP JUMP JUMPDEST PUSH1 0x0 PUSH2 0x2AFA DUP4 DUP6 PUSH2 0x26CE JUMP JUMPDEST SWAP4 POP PUSH2 0x2B07 DUP4 DUP6 DUP5 PUSH2 0x20B1 JUMP JUMPDEST DUP3 DUP5 ADD SWAP1 POP SWAP4 SWAP3 POP POP POP JUMP JUMPDEST PUSH1 0x0 PUSH2 0x2B20 DUP3 DUP5 DUP7 PUSH2 0x2AEE JUMP JUMPDEST SWAP2 POP DUP2 SWAP1 POP SWAP4 SWAP3 POP POP POP JUMP JUMPDEST PUSH32 0x4E487B7100000000000000000000000000000000000000000000000000000000 PUSH1 0x0 MSTORE PUSH1 0x12 PUSH1 0x4 MSTORE PUSH1 0x24 PUSH1 0x0 REVERT JUMPDEST PUSH1 0x0 PUSH2 0x2B66 DUP3 PUSH2 0x18FC JUMP JUMPDEST SWAP2 POP PUSH2 0x2B71 DUP4 PUSH2 0x18FC JUMP JUMPDEST SWAP3 POP DUP3 PUSH2 0x2B81 JUMPI PUSH2 0x2B80 PUSH2 0x2B2C JUMP JUMPDEST JUMPDEST DUP3 DUP3 DIV SWAP1 POP SWAP3 SWAP2 POP POP JUMP JUMPDEST PUSH32 0x496E76616C696420706F6C6C20656E642074696D650000000000000000000000 PUSH1 0x0 DUP3 ADD MSTORE POP JUMP JUMPDEST PUSH1 0x0 PUSH2 0x2BC2 PUSH1 0x15 DUP4 PUSH2 0x1D93 JUMP JUMPDEST SWAP2 POP PUSH2 0x2BCD DUP3 PUSH2 0x2B8C JUMP JUMPDEST PUSH1 0x20 DUP3 ADD SWAP1 POP SWAP2 SWAP1 POP JUMP JUMPDEST PUSH1 0x0 PUSH1 0x20 DUP3 ADD SWAP1 POP DUP2 DUP2 SUB PUSH1 0x0 DUP4 ADD MSTORE PUSH2 0x2BF1 DUP2 PUSH2 0x2BB5 JUMP JUMPDEST SWAP1 POP SWAP2 SWAP1 POP JUMP JUMPDEST PUSH32 0x4174206C656173742074776F206F7074696F6E73207265717569726564000000 PUSH1 0x0 DUP3 ADD MSTORE POP JUMP JUMPDEST PUSH1 0x0 PUSH2 0x2C2E PUSH1 0x1D DUP4 PUSH2 0x1D93 JUMP JUMPDEST SWAP2 POP PUSH2 0x2C39 DUP3 PUSH2 0x2BF8 JUMP JUMPDEST PUSH1 0x20 DUP3 ADD SWAP1 POP SWAP2 SWAP1 POP JUMP JUMPDEST PUSH1 0x0 PUSH1 0x20 DUP3 ADD SWAP1 POP DUP2 DUP2 SUB PUSH1 0x0 DUP4 ADD MSTORE PUSH2 0x2C5D DUP2 PUSH2 0x2C21 JUMP JUMPDEST SWAP1 POP SWAP2 SWAP1 POP JUMP JUMPDEST PUSH1 0x0 DUP3 DUP3 MSTORE PUSH1 0x20 DUP3 ADD SWAP1 POP SWAP3 SWAP2 POP POP JUMP JUMPDEST PUSH1 0x0 PUSH2 0x2C80 DUP3 PUSH2 0x1A72 JUMP JUMPDEST PUSH2 0x2C8A DUP2 DUP6 PUSH2 0x2C64 JUMP JUMPDEST SWAP4 POP DUP4 PUSH1 0x20 DUP3 MUL DUP6 ADD PUSH2 0x2C9C DUP6 PUSH2 0x1A8E JUMP JUMPDEST DUP1 PUSH1 0x0 JUMPDEST DUP6 DUP2 LT ISZERO PUSH2 0x2CD8 JUMPI DUP5 DUP5 SUB DUP10 MSTORE DUP2 MLOAD PUSH2 0x2CB9 DUP6 DUP3 PUSH2 0x1B2E JUMP JUMPDEST SWAP5 POP PUSH2 0x2CC4 DUP4 PUSH2 0x1B42 JUMP JUMPDEST SWAP3 POP PUSH1 0x20 DUP11 ADD SWAP10 POP POP PUSH1 0x1 DUP2 ADD SWAP1 POP PUSH2 0x2CA0 JUMP JUMPDEST POP DUP3 SWAP8 POP DUP8 SWAP6 POP POP POP POP POP POP SWAP3 SWAP2 POP POP JUMP JUMPDEST PUSH1 0x0 PUSH1 0x60 DUP3 ADD SWAP1 POP PUSH2 0x2CFF PUSH1 0x0 DUP4 ADD DUP7 PUSH2 0x19D0 JUMP JUMPDEST PUSH2 0x2D0C PUSH1 0x20 DUP4 ADD DUP6 PUSH2 0x19D0 JUMP JUMPDEST DUP2 DUP2 SUB PUSH1 0x40 DUP4 ADD MSTORE PUSH2 0x2D1E DUP2 DUP5 PUSH2 0x2C75 JUMP JUMPDEST SWAP1 POP SWAP5 SWAP4 POP POP POP POP JUMP JUMPDEST PUSH1 0x0 PUSH1 0xFF DUP3 AND SWAP1 POP SWAP2 SWAP1 POP JUMP JUMPDEST PUSH1 0x0 PUSH2 0x2D40 DUP3 PUSH2 0x2D28 JUMP JUMPDEST SWAP2 POP PUSH1 0xFF DUP3 SUB PUSH2 0x2D53 JUMPI PUSH2 0x2D52 PUSH2 0x2283 JUMP JUMPDEST JUMPDEST PUSH1 0x1 DUP3 ADD SWAP1 POP SWAP2 SWAP1 POP JUMP INVALID LOG2 PUSH5 0x6970667358 0x22 SLT KECCAK256 0xF9 0xFC DUP2 PUSH2 0x44E2 ADDRESS DUP2 0xDA SWAP14 0xC5 PUSH3 0x1E0A22 PUSH21 0x62A50F8134700932AC9A5920AE6468D64736F6C63 NUMBER STOP ADDMOD SLT STOP CALLER "
				},
				"gasEstimates": {
					"creation": {
						"codeDepositCost": "2333600",
						"executionCost": "2501",
						"totalCost": "2336101"
					},
					"external": {
						"balances(address)": "2882",
						"betCount()": "2495",
						"betOnPoll(uint256,bytes32)": "infinite",
						"closePoll()": "254",
						"createPoll(uint256,uint256,string[])": "infinite",
						"distributeRewards()": "255",
						"getBetCount(uint256)": "infinite",
						"getOdds(uint256,string)": "infinite",
						"getPollInfo(uint256)": "infinite",
						"getPollVotersCount(uint256)": "infinite",
						"getTotalBetAmount(uint256)": "infinite",
						"hasVoted(uint256,address)": "3110",
						"pollBetTotal(uint256)": "infinite",
						"pollBets(uint256,address)": "infinite",
						"pollBetsList(uint256,uint256)": "infinite",
						"pollCount()": "2496",
						"pollCounts(uint256)": "infinite",
						"pollWinners(uint256,uint256)": "infinite",
						"voteOnPoll(uint256,uint256)": "infinite",
						"voters(uint256,address)": "infinite"
					},
					"internal": {
						"addVoterAddressSet(uint256,address)": "infinite",
						"bytes32ToString(bytes32)": "infinite"
					}
				},
				"methodIdentifiers": {
					"balances(address)": "27e235e3",
					"betCount()": "cf094497",
					"betOnPoll(uint256,bytes32)": "9b85e14f",
					"closePoll()": "ed8c2aed",
					"createPoll(uint256,uint256,string[])": "d624d6fd",
					"distributeRewards()": "6f4a2cd0",
					"getBetCount(uint256)": "6b7128ec",
					"getOdds(uint256,string)": "a9549f0a",
					"getPollInfo(uint256)": "29b8f44a",
					"getPollVotersCount(uint256)": "8761ad0c",
					"getTotalBetAmount(uint256)": "0e89da56",
					"hasVoted(uint256,address)": "43859632",
					"pollBetTotal(uint256)": "46f86716",
					"pollBets(uint256,address)": "06455f5e",
					"pollBetsList(uint256,uint256)": "420700f6",
					"pollCount()": "9207891d",
					"pollCounts(uint256)": "a32bde6f",
					"pollWinners(uint256,uint256)": "91cbfb41",
					"voteOnPoll(uint256,uint256)": "4c3c234f",
					"voters(uint256,address)": "9e319063"
				}
			},
			"storageLayout": {
				"storage": [
					{
						"astId": 706,
						"contract": "contracts/PollBetContract.sol:PollBetContract",
						"label": "pollCount",
						"offset": 0,
						"slot": "0",
						"type": "t_uint256"
					},
					{
						"astId": 708,
						"contract": "contracts/PollBetContract.sol:PollBetContract",
						"label": "betCount",
						"offset": 0,
						"slot": "1",
						"type": "t_uint256"
					},
					{
						"astId": 712,
						"contract": "contracts/PollBetContract.sol:PollBetContract",
						"label": "pollBetTotal",
						"offset": 0,
						"slot": "2",
						"type": "t_mapping(t_uint256,t_uint256)"
					},
					{
						"astId": 718,
						"contract": "contracts/PollBetContract.sol:PollBetContract",
						"label": "pollBets",
						"offset": 0,
						"slot": "3",
						"type": "t_mapping(t_uint256,t_mapping(t_address,t_uint256))"
					},
					{
						"astId": 723,
						"contract": "contracts/PollBetContract.sol:PollBetContract",
						"label": "pollWinners",
						"offset": 0,
						"slot": "4",
						"type": "t_mapping(t_uint256,t_array(t_uint256)dyn_storage)"
					},
					{
						"astId": 727,
						"contract": "contracts/PollBetContract.sol:PollBetContract",
						"label": "balances",
						"offset": 0,
						"slot": "5",
						"type": "t_mapping(t_address,t_uint256)"
					},
					{
						"astId": 733,
						"contract": "contracts/PollBetContract.sol:PollBetContract",
						"label": "pollBetsList",
						"offset": 0,
						"slot": "6",
						"type": "t_mapping(t_uint256,t_array(t_struct(Bet)653_storage)dyn_storage)"
					},
					{
						"astId": 739,
						"contract": "contracts/PollBetContract.sol:PollBetContract",
						"label": "hasVoted",
						"offset": 0,
						"slot": "7",
						"type": "t_mapping(t_uint256,t_mapping(t_address,t_bool))"
					},
					{
						"astId": 746,
						"contract": "contracts/PollBetContract.sol:PollBetContract",
						"label": "voters",
						"offset": 0,
						"slot": "8",
						"type": "t_mapping(t_uint256,t_mapping(t_address,t_struct(Voter)644_storage))"
					},
					{
						"astId": 751,
						"contract": "contracts/PollBetContract.sol:PollBetContract",
						"label": "voterAddressSets",
						"offset": 0,
						"slot": "9",
						"type": "t_mapping(t_uint256,t_struct(AddressSet)325_storage)"
					},
					{
						"astId": 756,
						"contract": "contracts/PollBetContract.sol:PollBetContract",
						"label": "polls",
						"offset": 0,
						"slot": "10",
						"type": "t_mapping(t_uint256,t_struct(Poll)637_storage)"
					},
					{
						"astId": 759,
						"contract": "contracts/PollBetContract.sol:PollBetContract",
						"label": "pollCounts",
						"offset": 0,
						"slot": "11",
						"type": "t_array(t_uint256)dyn_storage"
					}
				],
				"types": {
					"t_address": {
						"encoding": "inplace",
						"label": "address",
						"numberOfBytes": "20"
					},
					"t_array(t_bytes32)dyn_storage": {
						"base": "t_bytes32",
						"encoding": "dynamic_array",
						"label": "bytes32[]",
						"numberOfBytes": "32"
					},
					"t_array(t_string_storage)dyn_storage": {
						"base": "t_string_storage",
						"encoding": "dynamic_array",
						"label": "string[]",
						"numberOfBytes": "32"
					},
					"t_array(t_struct(Bet)653_storage)dyn_storage": {
						"base": "t_struct(Bet)653_storage",
						"encoding": "dynamic_array",
						"label": "struct PollBetContract.Bet[]",
						"numberOfBytes": "32"
					},
					"t_array(t_uint256)dyn_storage": {
						"base": "t_uint256",
						"encoding": "dynamic_array",
						"label": "uint256[]",
						"numberOfBytes": "32"
					},
					"t_bool": {
						"encoding": "inplace",
						"label": "bool",
						"numberOfBytes": "1"
					},
					"t_bytes32": {
						"encoding": "inplace",
						"label": "bytes32",
						"numberOfBytes": "32"
					},
					"t_mapping(t_address,t_bool)": {
						"encoding": "mapping",
						"key": "t_address",
						"label": "mapping(address => bool)",
						"numberOfBytes": "32",
						"value": "t_bool"
					},
					"t_mapping(t_address,t_struct(Voter)644_storage)": {
						"encoding": "mapping",
						"key": "t_address",
						"label": "mapping(address => struct PollBetContract.Voter)",
						"numberOfBytes": "32",
						"value": "t_struct(Voter)644_storage"
					},
					"t_mapping(t_address,t_uint256)": {
						"encoding": "mapping",
						"key": "t_address",
						"label": "mapping(address => uint256)",
						"numberOfBytes": "32",
						"value": "t_uint256"
					},
					"t_mapping(t_bytes32,t_uint256)": {
						"encoding": "mapping",
						"key": "t_bytes32",
						"label": "mapping(bytes32 => uint256)",
						"numberOfBytes": "32",
						"value": "t_uint256"
					},
					"t_mapping(t_uint256,t_array(t_struct(Bet)653_storage)dyn_storage)": {
						"encoding": "mapping",
						"key": "t_uint256",
						"label": "mapping(uint256 => struct PollBetContract.Bet[])",
						"numberOfBytes": "32",
						"value": "t_array(t_struct(Bet)653_storage)dyn_storage"
					},
					"t_mapping(t_uint256,t_array(t_uint256)dyn_storage)": {
						"encoding": "mapping",
						"key": "t_uint256",
						"label": "mapping(uint256 => uint256[])",
						"numberOfBytes": "32",
						"value": "t_array(t_uint256)dyn_storage"
					},
					"t_mapping(t_uint256,t_mapping(t_address,t_bool))": {
						"encoding": "mapping",
						"key": "t_uint256",
						"label": "mapping(uint256 => mapping(address => bool))",
						"numberOfBytes": "32",
						"value": "t_mapping(t_address,t_bool)"
					},
					"t_mapping(t_uint256,t_mapping(t_address,t_struct(Voter)644_storage))": {
						"encoding": "mapping",
						"key": "t_uint256",
						"label": "mapping(uint256 => mapping(address => struct PollBetContract.Voter))",
						"numberOfBytes": "32",
						"value": "t_mapping(t_address,t_struct(Voter)644_storage)"
					},
					"t_mapping(t_uint256,t_mapping(t_address,t_uint256))": {
						"encoding": "mapping",
						"key": "t_uint256",
						"label": "mapping(uint256 => mapping(address => uint256))",
						"numberOfBytes": "32",
						"value": "t_mapping(t_address,t_uint256)"
					},
					"t_mapping(t_uint256,t_struct(AddressSet)325_storage)": {
						"encoding": "mapping",
						"key": "t_uint256",
						"label": "mapping(uint256 => struct EnumerableSet.AddressSet)",
						"numberOfBytes": "32",
						"value": "t_struct(AddressSet)325_storage"
					},
					"t_mapping(t_uint256,t_struct(Poll)637_storage)": {
						"encoding": "mapping",
						"key": "t_uint256",
						"label": "mapping(uint256 => struct PollBetContract.Poll)",
						"numberOfBytes": "32",
						"value": "t_struct(Poll)637_storage"
					},
					"t_mapping(t_uint256,t_uint256)": {
						"encoding": "mapping",
						"key": "t_uint256",
						"label": "mapping(uint256 => uint256)",
						"numberOfBytes": "32",
						"value": "t_uint256"
					},
					"t_string_storage": {
						"encoding": "bytes",
						"label": "string",
						"numberOfBytes": "32"
					},
					"t_struct(AddressSet)325_storage": {
						"encoding": "inplace",
						"label": "struct EnumerableSet.AddressSet",
						"members": [
							{
								"astId": 324,
								"contract": "contracts/PollBetContract.sol:PollBetContract",
								"label": "_inner",
								"offset": 0,
								"slot": "0",
								"type": "t_struct(Set)10_storage"
							}
						],
						"numberOfBytes": "64"
					},
					"t_struct(Bet)653_storage": {
						"encoding": "inplace",
						"label": "struct PollBetContract.Bet",
						"members": [
							{
								"astId": 646,
								"contract": "contracts/PollBetContract.sol:PollBetContract",
								"label": "pollId",
								"offset": 0,
								"slot": "0",
								"type": "t_uint256"
							},
							{
								"astId": 648,
								"contract": "contracts/PollBetContract.sol:PollBetContract",
								"label": "pollChoice",
								"offset": 0,
								"slot": "1",
								"type": "t_string_storage"
							},
							{
								"astId": 650,
								"contract": "contracts/PollBetContract.sol:PollBetContract",
								"label": "user",
								"offset": 0,
								"slot": "2",
								"type": "t_address"
							},
							{
								"astId": 652,
								"contract": "contracts/PollBetContract.sol:PollBetContract",
								"label": "amount",
								"offset": 0,
								"slot": "3",
								"type": "t_uint256"
							}
						],
						"numberOfBytes": "128"
					},
					"t_struct(Poll)637_storage": {
						"encoding": "inplace",
						"label": "struct PollBetContract.Poll",
						"members": [
							{
								"astId": 622,
								"contract": "contracts/PollBetContract.sol:PollBetContract",
								"label": "id",
								"offset": 0,
								"slot": "0",
								"type": "t_uint256"
							},
							{
								"astId": 624,
								"contract": "contracts/PollBetContract.sol:PollBetContract",
								"label": "creator",
								"offset": 0,
								"slot": "1",
								"type": "t_address"
							},
							{
								"astId": 626,
								"contract": "contracts/PollBetContract.sol:PollBetContract",
								"label": "startTime",
								"offset": 0,
								"slot": "2",
								"type": "t_uint256"
							},
							{
								"astId": 628,
								"contract": "contracts/PollBetContract.sol:PollBetContract",
								"label": "endTime",
								"offset": 0,
								"slot": "3",
								"type": "t_uint256"
							},
							{
								"astId": 631,
								"contract": "contracts/PollBetContract.sol:PollBetContract",
								"label": "choices",
								"offset": 0,
								"slot": "4",
								"type": "t_array(t_string_storage)dyn_storage"
							},
							{
								"astId": 634,
								"contract": "contracts/PollBetContract.sol:PollBetContract",
								"label": "choiceCounts",
								"offset": 0,
								"slot": "5",
								"type": "t_array(t_uint256)dyn_storage"
							},
							{
								"astId": 636,
								"contract": "contracts/PollBetContract.sol:PollBetContract",
								"label": "isOpen",
								"offset": 0,
								"slot": "6",
								"type": "t_bool"
							}
						],
						"numberOfBytes": "224"
					},
					"t_struct(Set)10_storage": {
						"encoding": "inplace",
						"label": "struct EnumerableSet.Set",
						"members": [
							{
								"astId": 5,
								"contract": "contracts/PollBetContract.sol:PollBetContract",
								"label": "_values",
								"offset": 0,
								"slot": "0",
								"type": "t_array(t_bytes32)dyn_storage"
							},
							{
								"astId": 9,
								"contract": "contracts/PollBetContract.sol:PollBetContract",
								"label": "_indexes",
								"offset": 0,
								"slot": "1",
								"type": "t_mapping(t_bytes32,t_uint256)"
							}
						],
						"numberOfBytes": "64"
					},
					"t_struct(Voter)644_storage": {
						"encoding": "inplace",
						"label": "struct PollBetContract.Voter",
						"members": [
							{
								"astId": 639,
								"contract": "contracts/PollBetContract.sol:PollBetContract",
								"label": "pollId",
								"offset": 0,
								"slot": "0",
								"type": "t_uint256"
							},
							{
								"astId": 641,
								"contract": "contracts/PollBetContract.sol:PollBetContract",
								"label": "voterAddress",
								"offset": 0,
								"slot": "1",
								"type": "t_address"
							},
							{
								"astId": 643,
								"contract": "contracts/PollBetContract.sol:PollBetContract",
								"label": "choice",
								"offset": 0,
								"slot": "2",
								"type": "t_uint256"
							}
						],
						"numberOfBytes": "96"
					},
					"t_uint256": {
						"encoding": "inplace",
						"label": "uint256",
						"numberOfBytes": "32"
					}
				}
			},
			"userdoc": {
				"kind": "user",
				"methods": {},
				"version": 1
			}
		}
	}
}