{
	"contracts/PollBetContract.sol": {
		"PollBetContract": {
			"abi": [
				{
					"anonymous": false,
					"inputs": [
						{
							"indexed": true,
							"internalType": "uint256",
							"name": "pollId",
							"type": "uint256"
						},
						{
							"indexed": false,
							"internalType": "string",
							"name": "pollChoice",
							"type": "string"
						},
						{
							"indexed": true,
							"internalType": "address",
							"name": "user",
							"type": "address"
						},
						{
							"indexed": false,
							"internalType": "uint256",
							"name": "amount",
							"type": "uint256"
						}
					],
					"name": "BetPlaced",
					"type": "event"
				},
				{
					"anonymous": false,
					"inputs": [
						{
							"indexed": true,
							"internalType": "uint256",
							"name": "id",
							"type": "uint256"
						},
						{
							"indexed": true,
							"internalType": "address",
							"name": "winner",
							"type": "address"
						}
					],
					"name": "PollClosed",
					"type": "event"
				},
				{
					"anonymous": false,
					"inputs": [
						{
							"indexed": true,
							"internalType": "uint256",
							"name": "id",
							"type": "uint256"
						},
						{
							"indexed": true,
							"internalType": "address",
							"name": "creator",
							"type": "address"
						},
						{
							"indexed": false,
							"internalType": "uint256",
							"name": "startTime",
							"type": "uint256"
						},
						{
							"indexed": false,
							"internalType": "uint256",
							"name": "endTime",
							"type": "uint256"
						},
						{
							"indexed": false,
							"internalType": "string[]",
							"name": "options",
							"type": "string[]"
						}
					],
					"name": "PollCreated",
					"type": "event"
				},
				{
					"anonymous": false,
					"inputs": [
						{
							"indexed": true,
							"internalType": "uint256",
							"name": "pollId",
							"type": "uint256"
						},
						{
							"indexed": false,
							"internalType": "address[]",
							"name": "winners",
							"type": "address[]"
						},
						{
							"indexed": false,
							"internalType": "uint256[]",
							"name": "rewards",
							"type": "uint256[]"
						}
					],
					"name": "RewardsDistributed",
					"type": "event"
				},
				{
					"anonymous": false,
					"inputs": [
						{
							"indexed": true,
							"internalType": "uint256",
							"name": "pollId",
							"type": "uint256"
						},
						{
							"indexed": true,
							"internalType": "address",
							"name": "voter",
							"type": "address"
						},
						{
							"indexed": false,
							"internalType": "uint256",
							"name": "choice",
							"type": "uint256"
						}
					],
					"name": "VoteCasted",
					"type": "event"
				},
				{
					"inputs": [
						{
							"internalType": "address",
							"name": "",
							"type": "address"
						}
					],
					"name": "balances",
					"outputs": [
						{
							"internalType": "uint256",
							"name": "",
							"type": "uint256"
						}
					],
					"stateMutability": "view",
					"type": "function"
				},
				{
					"inputs": [],
					"name": "betCount",
					"outputs": [
						{
							"internalType": "uint256",
							"name": "",
							"type": "uint256"
						}
					],
					"stateMutability": "view",
					"type": "function"
				},
				{
					"inputs": [
						{
							"internalType": "uint256",
							"name": "_pollId",
							"type": "uint256"
						},
						{
							"internalType": "bytes32",
							"name": "_pollChoice",
							"type": "bytes32"
						}
					],
					"name": "betOnPoll",
					"outputs": [],
					"stateMutability": "payable",
					"type": "function"
				},
				{
					"inputs": [],
					"name": "closePoll",
					"outputs": [],
					"stateMutability": "nonpayable",
					"type": "function"
				},
				{
					"inputs": [
						{
							"internalType": "uint256",
							"name": "_startTime",
							"type": "uint256"
						},
						{
							"internalType": "uint256",
							"name": "_endTime",
							"type": "uint256"
						},
						{
							"internalType": "string[]",
							"name": "_options",
							"type": "string[]"
						}
					],
					"name": "createPoll",
					"outputs": [],
					"stateMutability": "nonpayable",
					"type": "function"
				},
				{
					"inputs": [],
					"name": "distributeRewards",
					"outputs": [],
					"stateMutability": "nonpayable",
					"type": "function"
				},
				{
					"inputs": [
						{
							"internalType": "uint256",
							"name": "_pollId",
							"type": "uint256"
						}
					],
					"name": "getBetCount",
					"outputs": [
						{
							"internalType": "uint256",
							"name": "",
							"type": "uint256"
						}
					],
					"stateMutability": "view",
					"type": "function"
				},
				{
					"inputs": [
						{
							"internalType": "uint256",
							"name": "_pollId",
							"type": "uint256"
						},
						{
							"internalType": "uint256",
							"name": "_pollChoice",
							"type": "uint256"
						}
					],
					"name": "getOdds",
					"outputs": [
						{
							"internalType": "uint256",
							"name": "",
							"type": "uint256"
						}
					],
					"stateMutability": "view",
					"type": "function"
				},
				{
					"inputs": [
						{
							"internalType": "uint256",
							"name": "_pollId",
							"type": "uint256"
						}
					],
					"name": "getPollVotes",
					"outputs": [
						{
							"internalType": "uint256",
							"name": "",
							"type": "uint256"
						}
					],
					"stateMutability": "view",
					"type": "function"
				},
				{
					"inputs": [
						{
							"internalType": "uint256",
							"name": "",
							"type": "uint256"
						},
						{
							"internalType": "address",
							"name": "",
							"type": "address"
						}
					],
					"name": "hasVoted",
					"outputs": [
						{
							"internalType": "bool",
							"name": "",
							"type": "bool"
						}
					],
					"stateMutability": "view",
					"type": "function"
				},
				{
					"inputs": [
						{
							"internalType": "uint256",
							"name": "",
							"type": "uint256"
						}
					],
					"name": "pollBetTotal",
					"outputs": [
						{
							"internalType": "uint256",
							"name": "",
							"type": "uint256"
						}
					],
					"stateMutability": "view",
					"type": "function"
				},
				{
					"inputs": [
						{
							"internalType": "uint256",
							"name": "",
							"type": "uint256"
						},
						{
							"internalType": "address",
							"name": "",
							"type": "address"
						}
					],
					"name": "pollBets",
					"outputs": [
						{
							"internalType": "uint256",
							"name": "",
							"type": "uint256"
						}
					],
					"stateMutability": "view",
					"type": "function"
				},
				{
					"inputs": [
						{
							"internalType": "uint256",
							"name": "",
							"type": "uint256"
						},
						{
							"internalType": "uint256",
							"name": "",
							"type": "uint256"
						}
					],
					"name": "pollBetsList",
					"outputs": [
						{
							"internalType": "uint256",
							"name": "pollId",
							"type": "uint256"
						},
						{
							"internalType": "string",
							"name": "pollChoice",
							"type": "string"
						},
						{
							"internalType": "address",
							"name": "user",
							"type": "address"
						},
						{
							"internalType": "uint256",
							"name": "amount",
							"type": "uint256"
						}
					],
					"stateMutability": "view",
					"type": "function"
				},
				{
					"inputs": [],
					"name": "pollCount",
					"outputs": [
						{
							"internalType": "uint256",
							"name": "",
							"type": "uint256"
						}
					],
					"stateMutability": "view",
					"type": "function"
				},
				{
					"inputs": [
						{
							"internalType": "uint256",
							"name": "",
							"type": "uint256"
						},
						{
							"internalType": "uint256",
							"name": "",
							"type": "uint256"
						}
					],
					"name": "pollWinners",
					"outputs": [
						{
							"internalType": "uint256",
							"name": "",
							"type": "uint256"
						}
					],
					"stateMutability": "view",
					"type": "function"
				},
				{
					"inputs": [
						{
							"internalType": "uint256",
							"name": "",
							"type": "uint256"
						}
					],
					"name": "polls",
					"outputs": [
						{
							"internalType": "uint256",
							"name": "id",
							"type": "uint256"
						},
						{
							"internalType": "address",
							"name": "creator",
							"type": "address"
						},
						{
							"internalType": "uint256",
							"name": "startTime",
							"type": "uint256"
						},
						{
							"internalType": "uint256",
							"name": "endTime",
							"type": "uint256"
						},
						{
							"internalType": "bool",
							"name": "isOpen",
							"type": "bool"
						}
					],
					"stateMutability": "view",
					"type": "function"
				},
				{
					"inputs": [
						{
							"internalType": "uint256",
							"name": "_pollId",
							"type": "uint256"
						},
						{
							"internalType": "uint256",
							"name": "_pollChoice",
							"type": "uint256"
						}
					],
					"name": "voteOnPoll",
					"outputs": [],
					"stateMutability": "nonpayable",
					"type": "function"
				},
				{
					"inputs": [
						{
							"internalType": "uint256",
							"name": "",
							"type": "uint256"
						},
						{
							"internalType": "address",
							"name": "",
							"type": "address"
						}
					],
					"name": "voters",
					"outputs": [
						{
							"internalType": "uint256",
							"name": "pollId",
							"type": "uint256"
						},
						{
							"internalType": "address",
							"name": "voterAddress",
							"type": "address"
						},
						{
							"internalType": "uint256",
							"name": "choice",
							"type": "uint256"
						}
					],
					"stateMutability": "view",
					"type": "function"
				}
			],
			"devdoc": {
				"kind": "dev",
				"methods": {},
				"version": 1
			},
			"evm": {
				"assembly": "    /* \"contracts/PollBetContract.sol\":57:5244  contract PollBetContract {... */\n  mstore(0x40, 0x80)\n  callvalue\n  dup1\n  iszero\n  tag_1\n  jumpi\n  0x00\n  dup1\n  revert\ntag_1:\n  pop\n  dataSize(sub_0)\n  dup1\n  dataOffset(sub_0)\n  0x00\n  codecopy\n  0x00\n  return\nstop\n\nsub_0: assembly {\n        /* \"contracts/PollBetContract.sol\":57:5244  contract PollBetContract {... */\n      mstore(0x40, 0x80)\n      jumpi(tag_1, lt(calldatasize, 0x04))\n      shr(0xe0, calldataload(0x00))\n      dup1\n      0x9207891d\n      gt\n      tag_20\n      jumpi\n      dup1\n      0xbbff7166\n      gt\n      tag_21\n      jumpi\n      dup1\n      0xbbff7166\n      eq\n      tag_15\n      jumpi\n      dup1\n      0xcf094497\n      eq\n      tag_16\n      jumpi\n      dup1\n      0xd624d6fd\n      eq\n      tag_17\n      jumpi\n      dup1\n      0xe3eed5c9\n      eq\n      tag_18\n      jumpi\n      dup1\n      0xed8c2aed\n      eq\n      tag_19\n      jumpi\n      jump(tag_1)\n    tag_21:\n      dup1\n      0x9207891d\n      eq\n      tag_11\n      jumpi\n      dup1\n      0x9b85e14f\n      eq\n      tag_12\n      jumpi\n      dup1\n      0x9e319063\n      eq\n      tag_13\n      jumpi\n      dup1\n      0xac2f0074\n      eq\n      tag_14\n      jumpi\n      jump(tag_1)\n    tag_20:\n      dup1\n      0x46f86716\n      gt\n      tag_22\n      jumpi\n      dup1\n      0x46f86716\n      eq\n      tag_6\n      jumpi\n      dup1\n      0x4c3c234f\n      eq\n      tag_7\n      jumpi\n      dup1\n      0x6b7128ec\n      eq\n      tag_8\n      jumpi\n      dup1\n      0x6f4a2cd0\n      eq\n      tag_9\n      jumpi\n      dup1\n      0x91cbfb41\n      eq\n      tag_10\n      jumpi\n      jump(tag_1)\n    tag_22:\n      dup1\n      0x06455f5e\n      eq\n      tag_2\n      jumpi\n      dup1\n      0x27e235e3\n      eq\n      tag_3\n      jumpi\n      dup1\n      0x420700f6\n      eq\n      tag_4\n      jumpi\n      dup1\n      0x43859632\n      eq\n      tag_5\n      jumpi\n    tag_1:\n      0x00\n      dup1\n      revert\n        /* \"contracts/PollBetContract.sol\":1077:1134  mapping(uint => mapping(address => uint)) public pollBets */\n    tag_2:\n      callvalue\n      dup1\n      iszero\n      tag_23\n      jumpi\n      0x00\n      dup1\n      revert\n    tag_23:\n      pop\n      tag_24\n      0x04\n      dup1\n      calldatasize\n      sub\n      dup2\n      add\n      swap1\n      tag_25\n      swap2\n      swap1\n      tag_26\n      jump\t// in\n    tag_25:\n      tag_27\n      jump\t// in\n    tag_24:\n      mload(0x40)\n      tag_28\n      swap2\n      swap1\n      tag_29\n      jump\t// in\n    tag_28:\n      mload(0x40)\n      dup1\n      swap2\n      sub\n      swap1\n      return\n        /* \"contracts/PollBetContract.sol\":1188:1228  mapping(address => uint) public balances */\n    tag_3:\n      callvalue\n      dup1\n      iszero\n      tag_30\n      jumpi\n      0x00\n      dup1\n      revert\n    tag_30:\n      pop\n      tag_31\n      0x04\n      dup1\n      calldatasize\n      sub\n      dup2\n      add\n      swap1\n      tag_32\n      swap2\n      swap1\n      tag_33\n      jump\t// in\n    tag_32:\n      tag_34\n      jump\t// in\n    tag_31:\n      mload(0x40)\n      tag_35\n      swap2\n      swap1\n      tag_29\n      jump\t// in\n    tag_35:\n      mload(0x40)\n      dup1\n      swap2\n      sub\n      swap1\n      return\n        /* \"contracts/PollBetContract.sol\":1234:1276  mapping(uint => Bet[]) public pollBetsList */\n    tag_4:\n      callvalue\n      dup1\n      iszero\n      tag_36\n      jumpi\n      0x00\n      dup1\n      revert\n    tag_36:\n      pop\n      tag_37\n      0x04\n      dup1\n      calldatasize\n      sub\n      dup2\n      add\n      swap1\n      tag_38\n      swap2\n      swap1\n      tag_39\n      jump\t// in\n    tag_38:\n      tag_40\n      jump\t// in\n    tag_37:\n      mload(0x40)\n      tag_41\n      swap5\n      swap4\n      swap3\n      swap2\n      swap1\n      tag_42\n      jump\t// in\n    tag_41:\n      mload(0x40)\n      dup1\n      swap2\n      sub\n      swap1\n      return\n        /* \"contracts/PollBetContract.sol\":1282:1339  mapping(uint => mapping(address => bool)) public hasVoted */\n    tag_5:\n      callvalue\n      dup1\n      iszero\n      tag_43\n      jumpi\n      0x00\n      dup1\n      revert\n    tag_43:\n      pop\n      tag_44\n      0x04\n      dup1\n      calldatasize\n      sub\n      dup2\n      add\n      swap1\n      tag_45\n      swap2\n      swap1\n      tag_26\n      jump\t// in\n    tag_45:\n      tag_46\n      jump\t// in\n    tag_44:\n      mload(0x40)\n      tag_47\n      swap2\n      swap1\n      tag_48\n      jump\t// in\n    tag_47:\n      mload(0x40)\n      dup1\n      swap2\n      sub\n      swap1\n      return\n        /* \"contracts/PollBetContract.sol\":1030:1071  mapping(uint => uint) public pollBetTotal */\n    tag_6:\n      callvalue\n      dup1\n      iszero\n      tag_49\n      jumpi\n      0x00\n      dup1\n      revert\n    tag_49:\n      pop\n      tag_50\n      0x04\n      dup1\n      calldatasize\n      sub\n      dup2\n      add\n      swap1\n      tag_51\n      swap2\n      swap1\n      tag_52\n      jump\t// in\n    tag_51:\n      tag_53\n      jump\t// in\n    tag_50:\n      mload(0x40)\n      tag_54\n      swap2\n      swap1\n      tag_29\n      jump\t// in\n    tag_54:\n      mload(0x40)\n      dup1\n      swap2\n      sub\n      swap1\n      return\n        /* \"contracts/PollBetContract.sol\":2554:3293  function voteOnPoll(uint _pollId, uint _pollChoice) public {... */\n    tag_7:\n      callvalue\n      dup1\n      iszero\n      tag_55\n      jumpi\n      0x00\n      dup1\n      revert\n    tag_55:\n      pop\n      tag_56\n      0x04\n      dup1\n      calldatasize\n      sub\n      dup2\n      add\n      swap1\n      tag_57\n      swap2\n      swap1\n      tag_39\n      jump\t// in\n    tag_57:\n      tag_58\n      jump\t// in\n    tag_56:\n      stop\n        /* \"contracts/PollBetContract.sol\":4565:4678  function getBetCount(uint _pollId) public view returns(uint) {... */\n    tag_8:\n      callvalue\n      dup1\n      iszero\n      tag_59\n      jumpi\n      0x00\n      dup1\n      revert\n    tag_59:\n      pop\n      tag_60\n      0x04\n      dup1\n      calldatasize\n      sub\n      dup2\n      add\n      swap1\n      tag_61\n      swap2\n      swap1\n      tag_52\n      jump\t// in\n    tag_61:\n      tag_62\n      jump\t// in\n    tag_60:\n      mload(0x40)\n      tag_63\n      swap2\n      swap1\n      tag_29\n      jump\t// in\n    tag_63:\n      mload(0x40)\n      dup1\n      swap2\n      sub\n      swap1\n      return\n        /* \"contracts/PollBetContract.sol\":4834:4872  function distributeRewards() public {} */\n    tag_9:\n      callvalue\n      dup1\n      iszero\n      tag_64\n      jumpi\n      0x00\n      dup1\n      revert\n    tag_64:\n      pop\n      tag_65\n      tag_66\n      jump\t// in\n    tag_65:\n      stop\n        /* \"contracts/PollBetContract.sol\":1140:1182  mapping(uint => uint[]) public pollWinners */\n    tag_10:\n      callvalue\n      dup1\n      iszero\n      tag_67\n      jumpi\n      0x00\n      dup1\n      revert\n    tag_67:\n      pop\n      tag_68\n      0x04\n      dup1\n      calldatasize\n      sub\n      dup2\n      add\n      swap1\n      tag_69\n      swap2\n      swap1\n      tag_39\n      jump\t// in\n    tag_69:\n      tag_70\n      jump\t// in\n    tag_68:\n      mload(0x40)\n      tag_71\n      swap2\n      swap1\n      tag_29\n      jump\t// in\n    tag_71:\n      mload(0x40)\n      dup1\n      swap2\n      sub\n      swap1\n      return\n        /* \"contracts/PollBetContract.sol\":932:953  uint public pollCount */\n    tag_11:\n      callvalue\n      dup1\n      iszero\n      tag_72\n      jumpi\n      0x00\n      dup1\n      revert\n    tag_72:\n      pop\n      tag_73\n      tag_74\n      jump\t// in\n    tag_73:\n      mload(0x40)\n      tag_75\n      swap2\n      swap1\n      tag_29\n      jump\t// in\n    tag_75:\n      mload(0x40)\n      dup1\n      swap2\n      sub\n      swap1\n      return\n        /* \"contracts/PollBetContract.sol\":3299:4559  function betOnPoll(uint _pollId, bytes32 _pollChoice) public payable { // Data location must be \"memory\" or \"calldata\" for parameter in function, but none was given... */\n    tag_12:\n      tag_76\n      0x04\n      dup1\n      calldatasize\n      sub\n      dup2\n      add\n      swap1\n      tag_77\n      swap2\n      swap1\n      tag_78\n      jump\t// in\n    tag_77:\n      tag_79\n      jump\t// in\n    tag_76:\n      stop\n        /* \"contracts/PollBetContract.sol\":1345:1401  mapping(uint => mapping(address => Voter)) public voters */\n    tag_13:\n      callvalue\n      dup1\n      iszero\n      tag_80\n      jumpi\n      0x00\n      dup1\n      revert\n    tag_80:\n      pop\n      tag_81\n      0x04\n      dup1\n      calldatasize\n      sub\n      dup2\n      add\n      swap1\n      tag_82\n      swap2\n      swap1\n      tag_26\n      jump\t// in\n    tag_82:\n      tag_83\n      jump\t// in\n    tag_81:\n      mload(0x40)\n      tag_84\n      swap4\n      swap3\n      swap2\n      swap1\n      tag_85\n      jump\t// in\n    tag_84:\n      mload(0x40)\n      dup1\n      swap2\n      sub\n      swap1\n      return\n        /* \"contracts/PollBetContract.sol\":1408:1427  Poll[] public polls */\n    tag_14:\n      callvalue\n      dup1\n      iszero\n      tag_86\n      jumpi\n      0x00\n      dup1\n      revert\n    tag_86:\n      pop\n      tag_87\n      0x04\n      dup1\n      calldatasize\n      sub\n      dup2\n      add\n      swap1\n      tag_88\n      swap2\n      swap1\n      tag_52\n      jump\t// in\n    tag_88:\n      tag_89\n      jump\t// in\n    tag_87:\n      mload(0x40)\n      tag_90\n      swap6\n      swap5\n      swap4\n      swap3\n      swap2\n      swap1\n      tag_91\n      jump\t// in\n    tag_90:\n      mload(0x40)\n      dup1\n      swap2\n      sub\n      swap1\n      return\n        /* \"contracts/PollBetContract.sol\":2104:2548  function getPollVotes(uint _pollId) public view returns (uint) { // should this be public, we have used the requuire statement... */\n    tag_15:\n      callvalue\n      dup1\n      iszero\n      tag_92\n      jumpi\n      0x00\n      dup1\n      revert\n    tag_92:\n      pop\n      tag_93\n      0x04\n      dup1\n      calldatasize\n      sub\n      dup2\n      add\n      swap1\n      tag_94\n      swap2\n      swap1\n      tag_52\n      jump\t// in\n    tag_94:\n      tag_95\n      jump\t// in\n    tag_93:\n      mload(0x40)\n      tag_96\n      swap2\n      swap1\n      tag_29\n      jump\t// in\n    tag_96:\n      mload(0x40)\n      dup1\n      swap2\n      sub\n      swap1\n      return\n        /* \"contracts/PollBetContract.sol\":959:979  uint public betCount */\n    tag_16:\n      callvalue\n      dup1\n      iszero\n      tag_97\n      jumpi\n      0x00\n      dup1\n      revert\n    tag_97:\n      pop\n      tag_98\n      tag_99\n      jump\t// in\n    tag_98:\n      mload(0x40)\n      tag_100\n      swap2\n      swap1\n      tag_29\n      jump\t// in\n    tag_100:\n      mload(0x40)\n      dup1\n      swap2\n      sub\n      swap1\n      return\n        /* \"contracts/PollBetContract.sol\":1497:2098  function createPoll(uint _startTime, uint _endTime, string[] memory _options) public {... */\n    tag_17:\n      callvalue\n      dup1\n      iszero\n      tag_101\n      jumpi\n      0x00\n      dup1\n      revert\n    tag_101:\n      pop\n      tag_102\n      0x04\n      dup1\n      calldatasize\n      sub\n      dup2\n      add\n      swap1\n      tag_103\n      swap2\n      swap1\n      tag_104\n      jump\t// in\n    tag_103:\n      tag_105\n      jump\t// in\n    tag_102:\n      stop\n        /* \"contracts/PollBetContract.sol\":4684:4760  function getOdds(uint _pollId, uint _pollChoice) public view returns(uint){} */\n    tag_18:\n      callvalue\n      dup1\n      iszero\n      tag_106\n      jumpi\n      0x00\n      dup1\n      revert\n    tag_106:\n      pop\n      tag_107\n      0x04\n      dup1\n      calldatasize\n      sub\n      dup2\n      add\n      swap1\n      tag_108\n      swap2\n      swap1\n      tag_39\n      jump\t// in\n    tag_108:\n      tag_109\n      jump\t// in\n    tag_107:\n      mload(0x40)\n      tag_110\n      swap2\n      swap1\n      tag_29\n      jump\t// in\n    tag_110:\n      mload(0x40)\n      dup1\n      swap2\n      sub\n      swap1\n      return\n        /* \"contracts/PollBetContract.sol\":4766:4796  function closePoll() public {} */\n    tag_19:\n      callvalue\n      dup1\n      iszero\n      tag_111\n      jumpi\n      0x00\n      dup1\n      revert\n    tag_111:\n      pop\n      tag_112\n      tag_113\n      jump\t// in\n    tag_112:\n      stop\n        /* \"contracts/PollBetContract.sol\":1077:1134  mapping(uint => mapping(address => uint)) public pollBets */\n    tag_27:\n      mstore(0x20, 0x03)\n      dup2\n      0x00\n      mstore\n      mstore(0x20, keccak256(0x00, 0x40))\n      dup1\n      0x00\n      mstore\n      keccak256(0x00, 0x40)\n      0x00\n      swap2\n      pop\n      swap2\n      pop\n      pop\n      sload\n      dup2\n      jump\t// out\n        /* \"contracts/PollBetContract.sol\":1188:1228  mapping(address => uint) public balances */\n    tag_34:\n      mstore(0x20, 0x05)\n      dup1\n      0x00\n      mstore\n      keccak256(0x00, 0x40)\n      0x00\n      swap2\n      pop\n      swap1\n      pop\n      sload\n      dup2\n      jump\t// out\n        /* \"contracts/PollBetContract.sol\":1234:1276  mapping(uint => Bet[]) public pollBetsList */\n    tag_40:\n      mstore(0x20, 0x06)\n      dup2\n      0x00\n      mstore\n      keccak256(0x00, 0x40)\n      dup2\n      dup2\n      sload\n      dup2\n      lt\n      tag_114\n      jumpi\n      0x00\n      dup1\n      revert\n    tag_114:\n      swap1\n      0x00\n      mstore\n      keccak256(0x00, 0x20)\n      swap1\n      0x04\n      mul\n      add\n      0x00\n      swap2\n      pop\n      swap2\n      pop\n      pop\n      dup1\n      0x00\n      add\n      sload\n      swap1\n      dup1\n      0x01\n      add\n      dup1\n      sload\n      tag_116\n      swap1\n      tag_117\n      jump\t// in\n    tag_116:\n      dup1\n      0x1f\n      add\n      0x20\n      dup1\n      swap2\n      div\n      mul\n      0x20\n      add\n      mload(0x40)\n      swap1\n      dup2\n      add\n      0x40\n      mstore\n      dup1\n      swap3\n      swap2\n      swap1\n      dup2\n      dup2\n      mstore\n      0x20\n      add\n      dup3\n      dup1\n      sload\n      tag_118\n      swap1\n      tag_117\n      jump\t// in\n    tag_118:\n      dup1\n      iszero\n      tag_119\n      jumpi\n      dup1\n      0x1f\n      lt\n      tag_120\n      jumpi\n      0x0100\n      dup1\n      dup4\n      sload\n      div\n      mul\n      dup4\n      mstore\n      swap2\n      0x20\n      add\n      swap2\n      jump(tag_119)\n    tag_120:\n      dup3\n      add\n      swap2\n      swap1\n      0x00\n      mstore\n      keccak256(0x00, 0x20)\n      swap1\n    tag_121:\n      dup2\n      sload\n      dup2\n      mstore\n      swap1\n      0x01\n      add\n      swap1\n      0x20\n      add\n      dup1\n      dup4\n      gt\n      tag_121\n      jumpi\n      dup3\n      swap1\n      sub\n      0x1f\n      and\n      dup3\n      add\n      swap2\n    tag_119:\n      pop\n      pop\n      pop\n      pop\n      pop\n      swap1\n      dup1\n      0x02\n      add\n      0x00\n      swap1\n      sload\n      swap1\n      0x0100\n      exp\n      swap1\n      div\n      0xffffffffffffffffffffffffffffffffffffffff\n      and\n      swap1\n      dup1\n      0x03\n      add\n      sload\n      swap1\n      pop\n      dup5\n      jump\t// out\n        /* \"contracts/PollBetContract.sol\":1282:1339  mapping(uint => mapping(address => bool)) public hasVoted */\n    tag_46:\n      mstore(0x20, 0x07)\n      dup2\n      0x00\n      mstore\n      mstore(0x20, keccak256(0x00, 0x40))\n      dup1\n      0x00\n      mstore\n      keccak256(0x00, 0x40)\n      0x00\n      swap2\n      pop\n      swap2\n      pop\n      swap1\n      sload\n      swap1\n      0x0100\n      exp\n      swap1\n      div\n      0xff\n      and\n      dup2\n      jump\t// out\n        /* \"contracts/PollBetContract.sol\":1030:1071  mapping(uint => uint) public pollBetTotal */\n    tag_53:\n      mstore(0x20, 0x02)\n      dup1\n      0x00\n      mstore\n      keccak256(0x00, 0x40)\n      0x00\n      swap2\n      pop\n      swap1\n      pop\n      sload\n      dup2\n      jump\t// out\n        /* \"contracts/PollBetContract.sol\":2554:3293  function voteOnPoll(uint _pollId, uint _pollChoice) public {... */\n    tag_58:\n        /* \"contracts/PollBetContract.sol\":2623:2640  Poll storage poll */\n      0x00\n        /* \"contracts/PollBetContract.sol\":2643:2648  polls */\n      0x09\n        /* \"contracts/PollBetContract.sol\":2649:2656  _pollId */\n      dup4\n        /* \"contracts/PollBetContract.sol\":2643:2657  polls[_pollId] */\n      dup2\n      sload\n      dup2\n      lt\n      tag_123\n      jumpi\n      tag_124\n      tag_125\n      jump\t// in\n    tag_124:\n    tag_123:\n      swap1\n      0x00\n      mstore\n      keccak256(0x00, 0x20)\n      swap1\n      0x06\n      mul\n      add\n        /* \"contracts/PollBetContract.sol\":2623:2657  Poll storage poll = polls[_pollId] */\n      swap1\n      pop\n        /* \"contracts/PollBetContract.sol\":2685:2693  hasVoted */\n      0x07\n        /* \"contracts/PollBetContract.sol\":2685:2702  hasVoted[_pollId] */\n      0x00\n        /* \"contracts/PollBetContract.sol\":2694:2701  _pollId */\n      dup5\n        /* \"contracts/PollBetContract.sol\":2685:2702  hasVoted[_pollId] */\n      dup2\n      mstore\n      0x20\n      add\n      swap1\n      dup2\n      mstore\n      0x20\n      add\n      0x00\n      keccak256\n        /* \"contracts/PollBetContract.sol\":2685:2714  hasVoted[_pollId][msg.sender] */\n      0x00\n        /* \"contracts/PollBetContract.sol\":2703:2713  msg.sender */\n      caller\n        /* \"contracts/PollBetContract.sol\":2685:2714  hasVoted[_pollId][msg.sender] */\n      0xffffffffffffffffffffffffffffffffffffffff\n      and\n      0xffffffffffffffffffffffffffffffffffffffff\n      and\n      dup2\n      mstore\n      0x20\n      add\n      swap1\n      dup2\n      mstore\n      0x20\n      add\n      0x00\n      keccak256\n      0x00\n      swap1\n      sload\n      swap1\n      0x0100\n      exp\n      swap1\n      div\n      0xff\n      and\n        /* \"contracts/PollBetContract.sol\":2684:2714  !hasVoted[_pollId][msg.sender] */\n      iszero\n        /* \"contracts/PollBetContract.sol\":2676:2732  require(!hasVoted[_pollId][msg.sender], \"Already voted\") */\n      tag_127\n      jumpi\n      mload(0x40)\n      0x08c379a000000000000000000000000000000000000000000000000000000000\n      dup2\n      mstore\n      0x04\n      add\n      tag_128\n      swap1\n      tag_129\n      jump\t// in\n    tag_128:\n      mload(0x40)\n      dup1\n      swap2\n      sub\n      swap1\n      revert\n    tag_127:\n        /* \"contracts/PollBetContract.sol\":2750:2754  poll */\n      dup1\n        /* \"contracts/PollBetContract.sol\":2750:2761  poll.isOpen */\n      0x05\n      add\n      0x00\n      swap1\n      sload\n      swap1\n      0x0100\n      exp\n      swap1\n      div\n      0xff\n      and\n        /* \"contracts/PollBetContract.sol\":2742:2780  require(poll.isOpen, \"Poll is closed\") */\n      tag_130\n      jumpi\n      mload(0x40)\n      0x08c379a000000000000000000000000000000000000000000000000000000000\n      dup2\n      mstore\n      0x04\n      add\n      tag_131\n      swap1\n      tag_132\n      jump\t// in\n    tag_131:\n      mload(0x40)\n      dup1\n      swap2\n      sub\n      swap1\n      revert\n    tag_130:\n        /* \"contracts/PollBetContract.sol\":2817:2821  poll */\n      dup1\n        /* \"contracts/PollBetContract.sol\":2817:2831  poll.startTime */\n      0x02\n      add\n      sload\n        /* \"contracts/PollBetContract.sol\":2798:2813  block.timestamp */\n      timestamp\n        /* \"contracts/PollBetContract.sol\":2798:2831  block.timestamp >= poll.startTime */\n      lt\n      iszero\n        /* \"contracts/PollBetContract.sol\":2798:2866  block.timestamp >= poll.startTime && block.timestamp <= poll.endTime */\n      dup1\n      iszero\n      tag_133\n      jumpi\n      pop\n        /* \"contracts/PollBetContract.sol\":2854:2858  poll */\n      dup1\n        /* \"contracts/PollBetContract.sol\":2854:2866  poll.endTime */\n      0x03\n      add\n      sload\n        /* \"contracts/PollBetContract.sol\":2835:2850  block.timestamp */\n      timestamp\n        /* \"contracts/PollBetContract.sol\":2835:2866  block.timestamp <= poll.endTime */\n      gt\n      iszero\n        /* \"contracts/PollBetContract.sol\":2798:2866  block.timestamp >= poll.startTime && block.timestamp <= poll.endTime */\n    tag_133:\n        /* \"contracts/PollBetContract.sol\":2790:2889  require(block.timestamp >= poll.startTime && block.timestamp <= poll.endTime, \"Poll is not active\") */\n      tag_134\n      jumpi\n      mload(0x40)\n      0x08c379a000000000000000000000000000000000000000000000000000000000\n      dup2\n      mstore\n      0x04\n      add\n      tag_135\n      swap1\n      tag_136\n      jump\t// in\n    tag_135:\n      mload(0x40)\n      dup1\n      swap2\n      sub\n      swap1\n      revert\n    tag_134:\n        /* \"contracts/PollBetContract.sol\":2922:2923  0 */\n      0x00\n        /* \"contracts/PollBetContract.sol\":2907:2918  _pollChoice */\n      dup3\n        /* \"contracts/PollBetContract.sol\":2907:2923  _pollChoice >= 0 */\n      lt\n      iszero\n        /* \"contracts/PollBetContract.sol\":2907:2960  _pollChoice >= 0 && _pollChoice < poll.choices.length */\n      dup1\n      iszero\n      tag_137\n      jumpi\n      pop\n        /* \"contracts/PollBetContract.sol\":2941:2945  poll */\n      dup1\n        /* \"contracts/PollBetContract.sol\":2941:2953  poll.choices */\n      0x04\n      add\n        /* \"contracts/PollBetContract.sol\":2941:2960  poll.choices.length */\n      dup1\n      sload\n      swap1\n      pop\n        /* \"contracts/PollBetContract.sol\":2927:2938  _pollChoice */\n      dup3\n        /* \"contracts/PollBetContract.sol\":2927:2960  _pollChoice < poll.choices.length */\n      lt\n        /* \"contracts/PollBetContract.sol\":2907:2960  _pollChoice >= 0 && _pollChoice < poll.choices.length */\n    tag_137:\n        /* \"contracts/PollBetContract.sol\":2899:2979  require(_pollChoice >= 0 && _pollChoice < poll.choices.length, \"Invalid choice\") */\n      tag_138\n      jumpi\n      mload(0x40)\n      0x08c379a000000000000000000000000000000000000000000000000000000000\n      dup2\n      mstore\n      0x04\n      add\n      tag_139\n      swap1\n      tag_140\n      jump\t// in\n    tag_139:\n      mload(0x40)\n      dup1\n      swap2\n      sub\n      swap1\n      revert\n    tag_138:\n        /* \"contracts/PollBetContract.sol\":3022:3026  true */\n      0x01\n        /* \"contracts/PollBetContract.sol\":2990:2998  hasVoted */\n      0x07\n        /* \"contracts/PollBetContract.sol\":2990:3007  hasVoted[_pollId] */\n      0x00\n        /* \"contracts/PollBetContract.sol\":2999:3006  _pollId */\n      dup6\n        /* \"contracts/PollBetContract.sol\":2990:3007  hasVoted[_pollId] */\n      dup2\n      mstore\n      0x20\n      add\n      swap1\n      dup2\n      mstore\n      0x20\n      add\n      0x00\n      keccak256\n        /* \"contracts/PollBetContract.sol\":2990:3019  hasVoted[_pollId][msg.sender] */\n      0x00\n        /* \"contracts/PollBetContract.sol\":3008:3018  msg.sender */\n      caller\n        /* \"contracts/PollBetContract.sol\":2990:3019  hasVoted[_pollId][msg.sender] */\n      0xffffffffffffffffffffffffffffffffffffffff\n      and\n      0xffffffffffffffffffffffffffffffffffffffff\n      and\n      dup2\n      mstore\n      0x20\n      add\n      swap1\n      dup2\n      mstore\n      0x20\n      add\n      0x00\n      keccak256\n      0x00\n        /* \"contracts/PollBetContract.sol\":2990:3026  hasVoted[_pollId][msg.sender] = true */\n      0x0100\n      exp\n      dup2\n      sload\n      dup2\n      0xff\n      mul\n      not\n      and\n      swap1\n      dup4\n      iszero\n      iszero\n      mul\n      or\n      swap1\n      sstore\n      pop\n        /* \"contracts/PollBetContract.sol\":3037:3058  Voter memory newVoter */\n      0x00\n        /* \"contracts/PollBetContract.sol\":3061:3178  Voter({... */\n      mload(0x40)\n      dup1\n      0x60\n      add\n      0x40\n      mstore\n      dup1\n        /* \"contracts/PollBetContract.sol\":3089:3096  _pollId */\n      dup6\n        /* \"contracts/PollBetContract.sol\":3061:3178  Voter({... */\n      dup2\n      mstore\n      0x20\n      add\n        /* \"contracts/PollBetContract.sol\":3124:3134  msg.sender */\n      caller\n        /* \"contracts/PollBetContract.sol\":3061:3178  Voter({... */\n      0xffffffffffffffffffffffffffffffffffffffff\n      and\n      dup2\n      mstore\n      0x20\n      add\n        /* \"contracts/PollBetContract.sol\":3156:3167  _pollChoice */\n      dup5\n        /* \"contracts/PollBetContract.sol\":3061:3178  Voter({... */\n      dup2\n      mstore\n      pop\n        /* \"contracts/PollBetContract.sol\":3037:3178  Voter memory newVoter = Voter({... */\n      swap1\n      pop\n        /* \"contracts/PollBetContract.sol\":3218:3226  newVoter */\n      dup1\n        /* \"contracts/PollBetContract.sol\":3188:3194  voters */\n      0x08\n        /* \"contracts/PollBetContract.sol\":3188:3203  voters[_pollId] */\n      0x00\n        /* \"contracts/PollBetContract.sol\":3195:3202  _pollId */\n      dup7\n        /* \"contracts/PollBetContract.sol\":3188:3203  voters[_pollId] */\n      dup2\n      mstore\n      0x20\n      add\n      swap1\n      dup2\n      mstore\n      0x20\n      add\n      0x00\n      keccak256\n        /* \"contracts/PollBetContract.sol\":3188:3215  voters[_pollId][msg.sender] */\n      0x00\n        /* \"contracts/PollBetContract.sol\":3204:3214  msg.sender */\n      caller\n        /* \"contracts/PollBetContract.sol\":3188:3215  voters[_pollId][msg.sender] */\n      0xffffffffffffffffffffffffffffffffffffffff\n      and\n      0xffffffffffffffffffffffffffffffffffffffff\n      and\n      dup2\n      mstore\n      0x20\n      add\n      swap1\n      dup2\n      mstore\n      0x20\n      add\n      0x00\n      keccak256\n        /* \"contracts/PollBetContract.sol\":3188:3226  voters[_pollId][msg.sender] = newVoter */\n      0x00\n      dup3\n      add\n      mload\n      dup2\n      0x00\n      add\n      sstore\n      0x20\n      dup3\n      add\n      mload\n      dup2\n      0x01\n      add\n      exp(0x0100, 0x00)\n      dup2\n      sload\n      dup2\n      0xffffffffffffffffffffffffffffffffffffffff\n      mul\n      not\n      and\n      swap1\n      dup4\n      0xffffffffffffffffffffffffffffffffffffffff\n      and\n      mul\n      or\n      swap1\n      sstore\n      pop\n      0x40\n      dup3\n      add\n      mload\n      dup2\n      0x02\n      add\n      sstore\n      swap1\n      pop\n      pop\n        /* \"contracts/PollBetContract.sol\":3262:3272  msg.sender */\n      caller\n        /* \"contracts/PollBetContract.sol\":3242:3286  VoteCasted(_pollId, msg.sender, _pollChoice) */\n      0xffffffffffffffffffffffffffffffffffffffff\n      and\n        /* \"contracts/PollBetContract.sol\":3253:3260  _pollId */\n      dup5\n        /* \"contracts/PollBetContract.sol\":3242:3286  VoteCasted(_pollId, msg.sender, _pollChoice) */\n      0xe7ee74ca1f4bb1b82b14f87794c45b3e59c39e372b862fb97a6316b43355b69e\n        /* \"contracts/PollBetContract.sol\":3274:3285  _pollChoice */\n      dup6\n        /* \"contracts/PollBetContract.sol\":3242:3286  VoteCasted(_pollId, msg.sender, _pollChoice) */\n      mload(0x40)\n      tag_141\n      swap2\n      swap1\n      tag_29\n      jump\t// in\n    tag_141:\n      mload(0x40)\n      dup1\n      swap2\n      sub\n      swap1\n      log3\n        /* \"contracts/PollBetContract.sol\":2613:3293  {... */\n      pop\n      pop\n        /* \"contracts/PollBetContract.sol\":2554:3293  function voteOnPoll(uint _pollId, uint _pollChoice) public {... */\n      pop\n      pop\n      jump\t// out\n        /* \"contracts/PollBetContract.sol\":4565:4678  function getBetCount(uint _pollId) public view returns(uint) {... */\n    tag_62:\n        /* \"contracts/PollBetContract.sol\":4620:4624  uint */\n      0x00\n        /* \"contracts/PollBetContract.sol\":4643:4655  pollBetsList */\n      0x06\n        /* \"contracts/PollBetContract.sol\":4643:4664  pollBetsList[_pollId] */\n      0x00\n        /* \"contracts/PollBetContract.sol\":4656:4663  _pollId */\n      dup4\n        /* \"contracts/PollBetContract.sol\":4643:4664  pollBetsList[_pollId] */\n      dup2\n      mstore\n      0x20\n      add\n      swap1\n      dup2\n      mstore\n      0x20\n      add\n      0x00\n      keccak256\n        /* \"contracts/PollBetContract.sol\":4643:4671  pollBetsList[_pollId].length */\n      dup1\n      sload\n      swap1\n      pop\n        /* \"contracts/PollBetContract.sol\":4636:4671  return pollBetsList[_pollId].length */\n      swap1\n      pop\n        /* \"contracts/PollBetContract.sol\":4565:4678  function getBetCount(uint _pollId) public view returns(uint) {... */\n      swap2\n      swap1\n      pop\n      jump\t// out\n        /* \"contracts/PollBetContract.sol\":4834:4872  function distributeRewards() public {} */\n    tag_66:\n      jump\t// out\n        /* \"contracts/PollBetContract.sol\":1140:1182  mapping(uint => uint[]) public pollWinners */\n    tag_70:\n      mstore(0x20, 0x04)\n      dup2\n      0x00\n      mstore\n      keccak256(0x00, 0x40)\n      dup2\n      dup2\n      sload\n      dup2\n      lt\n      tag_144\n      jumpi\n      0x00\n      dup1\n      revert\n    tag_144:\n      swap1\n      0x00\n      mstore\n      keccak256(0x00, 0x20)\n      add\n      0x00\n      swap2\n      pop\n      swap2\n      pop\n      pop\n      sload\n      dup2\n      jump\t// out\n        /* \"contracts/PollBetContract.sol\":932:953  uint public pollCount */\n    tag_74:\n      sload(0x00)\n      dup2\n      jump\t// out\n        /* \"contracts/PollBetContract.sol\":3299:4559  function betOnPoll(uint _pollId, bytes32 _pollChoice) public payable { // Data location must be \"memory\" or \"calldata\" for parameter in function, but none was given... */\n    tag_79:\n        /* \"contracts/PollBetContract.sol\":3499:3504  polls */\n      0x09\n        /* \"contracts/PollBetContract.sol\":3505:3512  _pollId */\n      dup3\n        /* \"contracts/PollBetContract.sol\":3499:3513  polls[_pollId] */\n      dup2\n      sload\n      dup2\n      lt\n      tag_147\n      jumpi\n      tag_148\n      tag_125\n      jump\t// in\n    tag_148:\n    tag_147:\n      swap1\n      0x00\n      mstore\n      keccak256(0x00, 0x20)\n      swap1\n      0x06\n      mul\n      add\n        /* \"contracts/PollBetContract.sol\":3499:3523  polls[_pollId].startTime */\n      0x02\n      add\n      sload\n        /* \"contracts/PollBetContract.sol\":3480:3495  block.timestamp */\n      timestamp\n        /* \"contracts/PollBetContract.sol\":3480:3523  block.timestamp >= polls[_pollId].startTime */\n      lt\n      iszero\n        /* \"contracts/PollBetContract.sol\":3472:3574  require(block.timestamp >= polls[_pollId].startTime, \"Poll has not started yet, you cannot bet on it\") */\n      tag_150\n      jumpi\n      mload(0x40)\n      0x08c379a000000000000000000000000000000000000000000000000000000000\n      dup2\n      mstore\n      0x04\n      add\n      tag_151\n      swap1\n      tag_152\n      jump\t// in\n    tag_151:\n      mload(0x40)\n      dup1\n      swap2\n      sub\n      swap1\n      revert\n    tag_150:\n        /* \"contracts/PollBetContract.sol\":3610:3615  polls */\n      0x09\n        /* \"contracts/PollBetContract.sol\":3616:3623  _pollId */\n      dup3\n        /* \"contracts/PollBetContract.sol\":3610:3624  polls[_pollId] */\n      dup2\n      sload\n      dup2\n      lt\n      tag_153\n      jumpi\n      tag_154\n      tag_125\n      jump\t// in\n    tag_154:\n    tag_153:\n      swap1\n      0x00\n      mstore\n      keccak256(0x00, 0x20)\n      swap1\n      0x06\n      mul\n      add\n        /* \"contracts/PollBetContract.sol\":3610:3632  polls[_pollId].endTime */\n      0x03\n      add\n      sload\n        /* \"contracts/PollBetContract.sol\":3592:3607  block.timestamp */\n      timestamp\n        /* \"contracts/PollBetContract.sol\":3592:3632  block.timestamp < polls[_pollId].endTime */\n      lt\n        /* \"contracts/PollBetContract.sol\":3584:3681  require(block.timestamp < polls[_pollId].endTime, \"Poll has ended, you cannot bet on it anymore\") */\n      tag_156\n      jumpi\n      mload(0x40)\n      0x08c379a000000000000000000000000000000000000000000000000000000000\n      dup2\n      mstore\n      0x04\n      add\n      tag_157\n      swap1\n      tag_158\n      jump\t// in\n    tag_157:\n      mload(0x40)\n      dup1\n      swap2\n      sub\n      swap1\n      revert\n    tag_156:\n        /* \"contracts/PollBetContract.sol\":3711:3712  0 */\n      0x00\n        /* \"contracts/PollBetContract.sol\":3699:3708  msg.value */\n      callvalue\n        /* \"contracts/PollBetContract.sol\":3699:3712  msg.value > 0 */\n      gt\n        /* \"contracts/PollBetContract.sol\":3691:3747  require(msg.value > 0, \"Amount must be greater than 0!\") */\n      tag_159\n      jumpi\n      mload(0x40)\n      0x08c379a000000000000000000000000000000000000000000000000000000000\n      dup2\n      mstore\n      0x04\n      add\n      tag_160\n      swap1\n      tag_161\n      jump\t// in\n    tag_160:\n      mload(0x40)\n      dup1\n      swap2\n      sub\n      swap1\n      revert\n    tag_159:\n        /* \"contracts/PollBetContract.sol\":3797:3815  uint pollChoiceInt */\n      0x00\n        /* \"contracts/PollBetContract.sol\":3830:3836  uint i */\n      dup1\n        /* \"contracts/PollBetContract.sol\":3839:3840  0 */\n      0x00\n        /* \"contracts/PollBetContract.sol\":3830:3840  uint i = 0 */\n      swap1\n      pop\n        /* \"contracts/PollBetContract.sol\":3825:4043  for (uint i = 0; i < polls[_pollId].choices.length; i++) {... */\n    tag_162:\n        /* \"contracts/PollBetContract.sol\":3846:3851  polls */\n      0x09\n        /* \"contracts/PollBetContract.sol\":3852:3859  _pollId */\n      dup5\n        /* \"contracts/PollBetContract.sol\":3846:3860  polls[_pollId] */\n      dup2\n      sload\n      dup2\n      lt\n      tag_165\n      jumpi\n      tag_166\n      tag_125\n      jump\t// in\n    tag_166:\n    tag_165:\n      swap1\n      0x00\n      mstore\n      keccak256(0x00, 0x20)\n      swap1\n      0x06\n      mul\n      add\n        /* \"contracts/PollBetContract.sol\":3846:3868  polls[_pollId].choices */\n      0x04\n      add\n        /* \"contracts/PollBetContract.sol\":3846:3875  polls[_pollId].choices.length */\n      dup1\n      sload\n      swap1\n      pop\n        /* \"contracts/PollBetContract.sol\":3842:3843  i */\n      dup2\n        /* \"contracts/PollBetContract.sol\":3842:3875  i < polls[_pollId].choices.length */\n      lt\n        /* \"contracts/PollBetContract.sol\":3825:4043  for (uint i = 0; i < polls[_pollId].choices.length; i++) {... */\n      iszero\n      tag_163\n      jumpi\n        /* \"contracts/PollBetContract.sol\":3947:3958  _pollChoice */\n      dup3\n        /* \"contracts/PollBetContract.sol\":3916:3921  polls */\n      0x09\n        /* \"contracts/PollBetContract.sol\":3922:3929  _pollId */\n      dup6\n        /* \"contracts/PollBetContract.sol\":3916:3930  polls[_pollId] */\n      dup2\n      sload\n      dup2\n      lt\n      tag_168\n      jumpi\n      tag_169\n      tag_125\n      jump\t// in\n    tag_169:\n    tag_168:\n      swap1\n      0x00\n      mstore\n      keccak256(0x00, 0x20)\n      swap1\n      0x06\n      mul\n      add\n        /* \"contracts/PollBetContract.sol\":3916:3938  polls[_pollId].choices */\n      0x04\n      add\n        /* \"contracts/PollBetContract.sol\":3939:3940  i */\n      dup3\n        /* \"contracts/PollBetContract.sol\":3916:3941  polls[_pollId].choices[i] */\n      dup2\n      sload\n      dup2\n      lt\n      tag_171\n      jumpi\n      tag_172\n      tag_125\n      jump\t// in\n    tag_172:\n    tag_171:\n      swap1\n      0x00\n      mstore\n      keccak256(0x00, 0x20)\n      add\n        /* \"contracts/PollBetContract.sol\":3900:3943  keccak256(bytes(polls[_pollId].choices[i])) */\n      mload(0x40)\n      tag_174\n      swap2\n      swap1\n      tag_175\n      jump\t// in\n    tag_174:\n      mload(0x40)\n      dup1\n      swap2\n      sub\n      swap1\n      keccak256\n        /* \"contracts/PollBetContract.sol\":3900:3958  keccak256(bytes(polls[_pollId].choices[i])) == _pollChoice */\n      sub\n        /* \"contracts/PollBetContract.sol\":3896:4033  if (keccak256(bytes(polls[_pollId].choices[i])) == _pollChoice) {... */\n      tag_176\n      jumpi\n        /* \"contracts/PollBetContract.sol\":3994:3995  i */\n      dup1\n        /* \"contracts/PollBetContract.sol\":3978:3995  pollChoiceInt = i */\n      swap2\n      pop\n        /* \"contracts/PollBetContract.sol\":4013:4018  break */\n      jump(tag_163)\n        /* \"contracts/PollBetContract.sol\":3896:4033  if (keccak256(bytes(polls[_pollId].choices[i])) == _pollChoice) {... */\n    tag_176:\n        /* \"contracts/PollBetContract.sol\":3877:3880  i++ */\n      dup1\n      dup1\n      tag_177\n      swap1\n      tag_178\n      jump\t// in\n    tag_177:\n      swap2\n      pop\n      pop\n        /* \"contracts/PollBetContract.sol\":3825:4043  for (uint i = 0; i < polls[_pollId].choices.length; i++) {... */\n      jump(tag_162)\n    tag_163:\n      pop\n        /* \"contracts/PollBetContract.sol\":4076:4077  0 */\n      0x00\n        /* \"contracts/PollBetContract.sol\":4060:4073  pollChoiceInt */\n      dup2\n        /* \"contracts/PollBetContract.sol\":4060:4077  pollChoiceInt > 0 */\n      gt\n        /* \"contracts/PollBetContract.sol\":4052:4150  require(pollChoiceInt > 0, \"Invalid poll choice, please select one of the poll choices to bet on\") */\n      tag_179\n      jumpi\n      mload(0x40)\n      0x08c379a000000000000000000000000000000000000000000000000000000000\n      dup2\n      mstore\n      0x04\n      add\n      tag_180\n      swap1\n      tag_181\n      jump\t// in\n    tag_180:\n      mload(0x40)\n      dup1\n      swap2\n      sub\n      swap1\n      revert\n    tag_179:\n        /* \"contracts/PollBetContract.sol\":4186:4195  msg.value */\n      callvalue\n        /* \"contracts/PollBetContract.sol\":4161:4173  pollBetTotal */\n      0x02\n        /* \"contracts/PollBetContract.sol\":4161:4182  pollBetTotal[_pollId] */\n      0x00\n        /* \"contracts/PollBetContract.sol\":4174:4181  _pollId */\n      dup6\n        /* \"contracts/PollBetContract.sol\":4161:4182  pollBetTotal[_pollId] */\n      dup2\n      mstore\n      0x20\n      add\n      swap1\n      dup2\n      mstore\n      0x20\n      add\n      0x00\n      keccak256\n      0x00\n        /* \"contracts/PollBetContract.sol\":4161:4195  pollBetTotal[_pollId] += msg.value */\n      dup3\n      dup3\n      sload\n      tag_182\n      swap2\n      swap1\n      tag_183\n      jump\t// in\n    tag_182:\n      swap3\n      pop\n      pop\n      dup2\n      swap1\n      sstore\n      pop\n        /* \"contracts/PollBetContract.sol\":4238:4247  msg.value */\n      callvalue\n        /* \"contracts/PollBetContract.sol\":4205:4213  pollBets */\n      0x03\n        /* \"contracts/PollBetContract.sol\":4205:4222  pollBets[_pollId] */\n      0x00\n        /* \"contracts/PollBetContract.sol\":4214:4221  _pollId */\n      dup6\n        /* \"contracts/PollBetContract.sol\":4205:4222  pollBets[_pollId] */\n      dup2\n      mstore\n      0x20\n      add\n      swap1\n      dup2\n      mstore\n      0x20\n      add\n      0x00\n      keccak256\n        /* \"contracts/PollBetContract.sol\":4205:4234  pollBets[_pollId][msg.sender] */\n      0x00\n        /* \"contracts/PollBetContract.sol\":4223:4233  msg.sender */\n      caller\n        /* \"contracts/PollBetContract.sol\":4205:4234  pollBets[_pollId][msg.sender] */\n      0xffffffffffffffffffffffffffffffffffffffff\n      and\n      0xffffffffffffffffffffffffffffffffffffffff\n      and\n      dup2\n      mstore\n      0x20\n      add\n      swap1\n      dup2\n      mstore\n      0x20\n      add\n      0x00\n      keccak256\n      0x00\n        /* \"contracts/PollBetContract.sol\":4205:4247  pollBets[_pollId][msg.sender] += msg.value */\n      dup3\n      dup3\n      sload\n      tag_184\n      swap2\n      swap1\n      tag_183\n      jump\t// in\n    tag_184:\n      swap3\n      pop\n      pop\n      dup2\n      swap1\n      sstore\n      pop\n        /* \"contracts/PollBetContract.sol\":4257:4265  betCount */\n      0x01\n      0x00\n        /* \"contracts/PollBetContract.sol\":4257:4267  betCount++ */\n      dup2\n      sload\n      dup1\n      swap3\n      swap2\n      swap1\n      tag_185\n      swap1\n      tag_178\n      jump\t// in\n    tag_185:\n      swap2\n      swap1\n      pop\n      sstore\n      pop\n        /* \"contracts/PollBetContract.sol\":4278:4290  pollBetsList */\n      0x06\n        /* \"contracts/PollBetContract.sol\":4278:4299  pollBetsList[_pollId] */\n      0x00\n        /* \"contracts/PollBetContract.sol\":4291:4298  _pollId */\n      dup5\n        /* \"contracts/PollBetContract.sol\":4278:4299  pollBetsList[_pollId] */\n      dup2\n      mstore\n      0x20\n      add\n      swap1\n      dup2\n      mstore\n      0x20\n      add\n      0x00\n      keccak256\n        /* \"contracts/PollBetContract.sol\":4305:4464  Bet({... */\n      mload(0x40)\n      dup1\n      0x80\n      add\n      0x40\n      mstore\n      dup1\n        /* \"contracts/PollBetContract.sol\":4331:4338  _pollId */\n      dup6\n        /* \"contracts/PollBetContract.sol\":4305:4464  Bet({... */\n      dup2\n      mstore\n      0x20\n      add\n        /* \"contracts/PollBetContract.sol\":4364:4392  bytes32ToString(_pollChoice) */\n      tag_186\n        /* \"contracts/PollBetContract.sol\":4380:4391  _pollChoice */\n      dup6\n        /* \"contracts/PollBetContract.sol\":4364:4379  bytes32ToString */\n      tag_187\n        /* \"contracts/PollBetContract.sol\":4364:4392  bytes32ToString(_pollChoice) */\n      jump\t// in\n    tag_186:\n        /* \"contracts/PollBetContract.sol\":4305:4464  Bet({... */\n      dup2\n      mstore\n      0x20\n      add\n        /* \"contracts/PollBetContract.sol\":4412:4422  msg.sender */\n      caller\n        /* \"contracts/PollBetContract.sol\":4305:4464  Bet({... */\n      0xffffffffffffffffffffffffffffffffffffffff\n      and\n      dup2\n      mstore\n      0x20\n      add\n        /* \"contracts/PollBetContract.sol\":4444:4453  msg.value */\n      callvalue\n        /* \"contracts/PollBetContract.sol\":4305:4464  Bet({... */\n      dup2\n      mstore\n      pop\n        /* \"contracts/PollBetContract.sol\":4278:4465  pollBetsList[_pollId].push(Bet({... */\n      swap1\n      dup1\n      0x01\n      dup2\n      sload\n      add\n      dup1\n      dup3\n      sstore\n      dup1\n      swap2\n      pop\n      pop\n      0x01\n      swap1\n      sub\n      swap1\n      0x00\n      mstore\n      keccak256(0x00, 0x20)\n      swap1\n      0x04\n      mul\n      add\n      0x00\n      swap1\n      swap2\n      swap1\n      swap2\n      swap1\n      swap2\n      pop\n      0x00\n      dup3\n      add\n      mload\n      dup2\n      0x00\n      add\n      sstore\n      0x20\n      dup3\n      add\n      mload\n      dup2\n      0x01\n      add\n      swap1\n      dup2\n      tag_189\n      swap2\n      swap1\n      tag_190\n      jump\t// in\n    tag_189:\n      pop\n      0x40\n      dup3\n      add\n      mload\n      dup2\n      0x02\n      add\n      exp(0x0100, 0x00)\n      dup2\n      sload\n      dup2\n      0xffffffffffffffffffffffffffffffffffffffff\n      mul\n      not\n      and\n      swap1\n      dup4\n      0xffffffffffffffffffffffffffffffffffffffff\n      and\n      mul\n      or\n      swap1\n      sstore\n      pop\n      0x60\n      dup3\n      add\n      mload\n      dup2\n      0x03\n      add\n      sstore\n      pop\n      pop\n        /* \"contracts/PollBetContract.sol\":4530:4540  msg.sender */\n      caller\n        /* \"contracts/PollBetContract.sol\":4481:4552  BetPlaced(_pollId, bytes32ToString(_pollChoice), msg.sender, msg.value) */\n      0xffffffffffffffffffffffffffffffffffffffff\n      and\n        /* \"contracts/PollBetContract.sol\":4491:4498  _pollId */\n      dup4\n        /* \"contracts/PollBetContract.sol\":4481:4552  BetPlaced(_pollId, bytes32ToString(_pollChoice), msg.sender, msg.value) */\n      0xfa643037cee917ec3049f1ba2bfb5d4df493f0b6db3ed68f3716d11233494e7d\n        /* \"contracts/PollBetContract.sol\":4500:4528  bytes32ToString(_pollChoice) */\n      tag_191\n        /* \"contracts/PollBetContract.sol\":4516:4527  _pollChoice */\n      dup6\n        /* \"contracts/PollBetContract.sol\":4500:4515  bytes32ToString */\n      tag_187\n        /* \"contracts/PollBetContract.sol\":4500:4528  bytes32ToString(_pollChoice) */\n      jump\t// in\n    tag_191:\n        /* \"contracts/PollBetContract.sol\":4542:4551  msg.value */\n      callvalue\n        /* \"contracts/PollBetContract.sol\":4481:4552  BetPlaced(_pollId, bytes32ToString(_pollChoice), msg.sender, msg.value) */\n      mload(0x40)\n      tag_192\n      swap3\n      swap2\n      swap1\n      tag_193\n      jump\t// in\n    tag_192:\n      mload(0x40)\n      dup1\n      swap2\n      sub\n      swap1\n      log3\n        /* \"contracts/PollBetContract.sol\":3368:4559  { // Data location must be \"memory\" or \"calldata\" for parameter in function, but none was given... */\n      pop\n        /* \"contracts/PollBetContract.sol\":3299:4559  function betOnPoll(uint _pollId, bytes32 _pollChoice) public payable { // Data location must be \"memory\" or \"calldata\" for parameter in function, but none was given... */\n      pop\n      pop\n      jump\t// out\n        /* \"contracts/PollBetContract.sol\":1345:1401  mapping(uint => mapping(address => Voter)) public voters */\n    tag_83:\n      mstore(0x20, 0x08)\n      dup2\n      0x00\n      mstore\n      mstore(0x20, keccak256(0x00, 0x40))\n      dup1\n      0x00\n      mstore\n      keccak256(0x00, 0x40)\n      0x00\n      swap2\n      pop\n      swap2\n      pop\n      pop\n      dup1\n      0x00\n      add\n      sload\n      swap1\n      dup1\n      0x01\n      add\n      0x00\n      swap1\n      sload\n      swap1\n      0x0100\n      exp\n      swap1\n      div\n      0xffffffffffffffffffffffffffffffffffffffff\n      and\n      swap1\n      dup1\n      0x02\n      add\n      sload\n      swap1\n      pop\n      dup4\n      jump\t// out\n        /* \"contracts/PollBetContract.sol\":1408:1427  Poll[] public polls */\n    tag_89:\n      0x09\n      dup2\n      dup2\n      sload\n      dup2\n      lt\n      tag_194\n      jumpi\n      0x00\n      dup1\n      revert\n    tag_194:\n      swap1\n      0x00\n      mstore\n      keccak256(0x00, 0x20)\n      swap1\n      0x06\n      mul\n      add\n      0x00\n      swap2\n      pop\n      swap1\n      pop\n      dup1\n      0x00\n      add\n      sload\n      swap1\n      dup1\n      0x01\n      add\n      0x00\n      swap1\n      sload\n      swap1\n      0x0100\n      exp\n      swap1\n      div\n      0xffffffffffffffffffffffffffffffffffffffff\n      and\n      swap1\n      dup1\n      0x02\n      add\n      sload\n      swap1\n      dup1\n      0x03\n      add\n      sload\n      swap1\n      dup1\n      0x05\n      add\n      0x00\n      swap1\n      sload\n      swap1\n      0x0100\n      exp\n      swap1\n      div\n      0xff\n      and\n      swap1\n      pop\n      dup6\n      jump\t// out\n        /* \"contracts/PollBetContract.sol\":2104:2548  function getPollVotes(uint _pollId) public view returns (uint) { // should this be public, we have used the requuire statement... */\n    tag_95:\n        /* \"contracts/PollBetContract.sol\":2161:2165  uint */\n      0x00\n        /* \"contracts/PollBetContract.sol\":2265:2270  polls */\n      0x09\n        /* \"contracts/PollBetContract.sol\":2271:2278  _pollId */\n      dup3\n        /* \"contracts/PollBetContract.sol\":2265:2279  polls[_pollId] */\n      dup2\n      sload\n      dup2\n      lt\n      tag_197\n      jumpi\n      tag_198\n      tag_125\n      jump\t// in\n    tag_198:\n    tag_197:\n      swap1\n      0x00\n      mstore\n      keccak256(0x00, 0x20)\n      swap1\n      0x06\n      mul\n      add\n        /* \"contracts/PollBetContract.sol\":2265:2287  polls[_pollId].endTime */\n      0x03\n      add\n      sload\n        /* \"contracts/PollBetContract.sol\":2247:2262  block.timestamp */\n      timestamp\n        /* \"contracts/PollBetContract.sol\":2247:2287  block.timestamp > polls[_pollId].endTime */\n      gt\n        /* \"contracts/PollBetContract.sol\":2239:2314  require(block.timestamp > polls[_pollId].endTime, \"Poll has not ended yet\") */\n      tag_200\n      jumpi\n      mload(0x40)\n      0x08c379a000000000000000000000000000000000000000000000000000000000\n      dup2\n      mstore\n      0x04\n      add\n      tag_201\n      swap1\n      tag_202\n      jump\t// in\n    tag_201:\n      mload(0x40)\n      dup1\n      swap2\n      sub\n      swap1\n      revert\n    tag_200:\n        /* \"contracts/PollBetContract.sol\":2540:2541  0 */\n      0x00\n        /* \"contracts/PollBetContract.sol\":2533:2541  return 0 */\n      swap1\n      pop\n        /* \"contracts/PollBetContract.sol\":2104:2548  function getPollVotes(uint _pollId) public view returns (uint) { // should this be public, we have used the requuire statement... */\n      swap2\n      swap1\n      pop\n      jump\t// out\n        /* \"contracts/PollBetContract.sol\":959:979  uint public betCount */\n    tag_99:\n      sload(0x01)\n      dup2\n      jump\t// out\n        /* \"contracts/PollBetContract.sol\":1497:2098  function createPoll(uint _startTime, uint _endTime, string[] memory _options) public {... */\n    tag_105:\n        /* \"contracts/PollBetContract.sol\":1611:1621  _startTime */\n      dup3\n        /* \"contracts/PollBetContract.sol\":1600:1608  _endTime */\n      dup3\n        /* \"contracts/PollBetContract.sol\":1600:1621  _endTime > _startTime */\n      gt\n        /* \"contracts/PollBetContract.sol\":1592:1647  require(_endTime > _startTime, \"Invalid poll end time\") */\n      tag_204\n      jumpi\n      mload(0x40)\n      0x08c379a000000000000000000000000000000000000000000000000000000000\n      dup2\n      mstore\n      0x04\n      add\n      tag_205\n      swap1\n      tag_206\n      jump\t// in\n    tag_205:\n      mload(0x40)\n      dup1\n      swap2\n      sub\n      swap1\n      revert\n    tag_204:\n        /* \"contracts/PollBetContract.sol\":1683:1684  1 */\n      0x01\n        /* \"contracts/PollBetContract.sol\":1665:1673  _options */\n      dup2\n        /* \"contracts/PollBetContract.sol\":1665:1680  _options.length */\n      mload\n        /* \"contracts/PollBetContract.sol\":1665:1684  _options.length > 1 */\n      gt\n        /* \"contracts/PollBetContract.sol\":1657:1718  require(_options.length > 1, \"At least two options required\") */\n      tag_207\n      jumpi\n      mload(0x40)\n      0x08c379a000000000000000000000000000000000000000000000000000000000\n      dup2\n      mstore\n      0x04\n      add\n      tag_208\n      swap1\n      tag_209\n      jump\t// in\n    tag_208:\n      mload(0x40)\n      dup1\n      swap2\n      sub\n      swap1\n      revert\n    tag_207:\n        /* \"contracts/PollBetContract.sol\":1729:1738  pollCount */\n      0x00\n      dup1\n        /* \"contracts/PollBetContract.sol\":1729:1740  pollCount++ */\n      dup2\n      sload\n      dup1\n      swap3\n      swap2\n      swap1\n      tag_210\n      swap1\n      tag_178\n      jump\t// in\n    tag_210:\n      swap2\n      swap1\n      pop\n      sstore\n      pop\n        /* \"contracts/PollBetContract.sol\":1751:1770  Poll memory newPoll */\n      0x00\n        /* \"contracts/PollBetContract.sol\":1773:1972  Poll({... */\n      mload(0x40)\n      dup1\n      0xc0\n      add\n      0x40\n      mstore\n      dup1\n        /* \"contracts/PollBetContract.sol\":1796:1805  pollCount */\n      sload(0x00)\n        /* \"contracts/PollBetContract.sol\":1773:1972  Poll({... */\n      dup2\n      mstore\n      0x20\n      add\n        /* \"contracts/PollBetContract.sol\":1828:1838  msg.sender */\n      caller\n        /* \"contracts/PollBetContract.sol\":1773:1972  Poll({... */\n      0xffffffffffffffffffffffffffffffffffffffff\n      and\n      dup2\n      mstore\n      0x20\n      add\n        /* \"contracts/PollBetContract.sol\":1863:1873  _startTime */\n      dup6\n        /* \"contracts/PollBetContract.sol\":1773:1972  Poll({... */\n      dup2\n      mstore\n      0x20\n      add\n        /* \"contracts/PollBetContract.sol\":1896:1904  _endTime */\n      dup5\n        /* \"contracts/PollBetContract.sol\":1773:1972  Poll({... */\n      dup2\n      mstore\n      0x20\n      add\n        /* \"contracts/PollBetContract.sol\":1927:1935  _options */\n      dup4\n        /* \"contracts/PollBetContract.sol\":1773:1972  Poll({... */\n      dup2\n      mstore\n      0x20\n      add\n        /* \"contracts/PollBetContract.sol\":1957:1961  true */\n      0x01\n        /* \"contracts/PollBetContract.sol\":1773:1972  Poll({... */\n      iszero\n      iszero\n      dup2\n      mstore\n      pop\n        /* \"contracts/PollBetContract.sol\":1751:1972  Poll memory newPoll = Poll({... */\n      swap1\n      pop\n        /* \"contracts/PollBetContract.sol\":2002:2009  newPoll */\n      dup1\n        /* \"contracts/PollBetContract.sol\":1983:1988  polls */\n      0x09\n        /* \"contracts/PollBetContract.sol\":1989:1998  pollCount */\n      sload(0x00)\n        /* \"contracts/PollBetContract.sol\":1983:1999  polls[pollCount] */\n      dup2\n      sload\n      dup2\n      lt\n      tag_211\n      jumpi\n      tag_212\n      tag_125\n      jump\t// in\n    tag_212:\n    tag_211:\n      swap1\n      0x00\n      mstore\n      keccak256(0x00, 0x20)\n      swap1\n      0x06\n      mul\n      add\n        /* \"contracts/PollBetContract.sol\":1983:2009  polls[pollCount] = newPoll */\n      0x00\n      dup3\n      add\n      mload\n      dup2\n      0x00\n      add\n      sstore\n      0x20\n      dup3\n      add\n      mload\n      dup2\n      0x01\n      add\n      exp(0x0100, 0x00)\n      dup2\n      sload\n      dup2\n      0xffffffffffffffffffffffffffffffffffffffff\n      mul\n      not\n      and\n      swap1\n      dup4\n      0xffffffffffffffffffffffffffffffffffffffff\n      and\n      mul\n      or\n      swap1\n      sstore\n      pop\n      0x40\n      dup3\n      add\n      mload\n      dup2\n      0x02\n      add\n      sstore\n      0x60\n      dup3\n      add\n      mload\n      dup2\n      0x03\n      add\n      sstore\n      0x80\n      dup3\n      add\n      mload\n      dup2\n      0x04\n      add\n      swap1\n      dup1\n      mload\n      swap1\n      0x20\n      add\n      swap1\n      tag_214\n      swap3\n      swap2\n      swap1\n      tag_215\n      jump\t// in\n    tag_214:\n      pop\n      0xa0\n      dup3\n      add\n      mload\n      dup2\n      0x05\n      add\n      exp(0x0100, 0x00)\n      dup2\n      sload\n      dup2\n      0xff\n      mul\n      not\n      and\n      swap1\n      dup4\n      iszero\n      iszero\n      mul\n      or\n      swap1\n      sstore\n      pop\n      swap1\n      pop\n      pop\n        /* \"contracts/PollBetContract.sol\":2048:2058  msg.sender */\n      caller\n        /* \"contracts/PollBetContract.sol\":2025:2091  PollCreated(pollCount, msg.sender, _startTime, _endTime, _options) */\n      0xffffffffffffffffffffffffffffffffffffffff\n      and\n        /* \"contracts/PollBetContract.sol\":2037:2046  pollCount */\n      sload(0x00)\n        /* \"contracts/PollBetContract.sol\":2025:2091  PollCreated(pollCount, msg.sender, _startTime, _endTime, _options) */\n      0x58d87e181e9ac91f8ccda34caaf4c15db2a9fc345a86ea48e378d6e4359dfdb9\n        /* \"contracts/PollBetContract.sol\":2060:2070  _startTime */\n      dup7\n        /* \"contracts/PollBetContract.sol\":2072:2080  _endTime */\n      dup7\n        /* \"contracts/PollBetContract.sol\":2082:2090  _options */\n      dup7\n        /* \"contracts/PollBetContract.sol\":2025:2091  PollCreated(pollCount, msg.sender, _startTime, _endTime, _options) */\n      mload(0x40)\n      tag_216\n      swap4\n      swap3\n      swap2\n      swap1\n      tag_217\n      jump\t// in\n    tag_216:\n      mload(0x40)\n      dup1\n      swap2\n      sub\n      swap1\n      log3\n        /* \"contracts/PollBetContract.sol\":1582:2098  {... */\n      pop\n        /* \"contracts/PollBetContract.sol\":1497:2098  function createPoll(uint _startTime, uint _endTime, string[] memory _options) public {... */\n      pop\n      pop\n      pop\n      jump\t// out\n        /* \"contracts/PollBetContract.sol\":4684:4760  function getOdds(uint _pollId, uint _pollChoice) public view returns(uint){} */\n    tag_109:\n        /* \"contracts/PollBetContract.sol\":4753:4757  uint */\n      0x00\n        /* \"contracts/PollBetContract.sol\":4684:4760  function getOdds(uint _pollId, uint _pollChoice) public view returns(uint){} */\n      swap3\n      swap2\n      pop\n      pop\n      jump\t// out\n        /* \"contracts/PollBetContract.sol\":4766:4796  function closePoll() public {} */\n    tag_113:\n      jump\t// out\n        /* \"contracts/PollBetContract.sol\":4878:5241  function bytes32ToString(bytes32 _bytes32) private pure returns (string memory) {... */\n    tag_187:\n        /* \"contracts/PollBetContract.sol\":4943:4956  string memory */\n      0x60\n        /* \"contracts/PollBetContract.sol\":4968:4975  uint8 i */\n      0x00\n        /* \"contracts/PollBetContract.sol\":4989:5051  while(i < 32 && _bytes32[i] != 0) {... */\n    tag_221:\n        /* \"contracts/PollBetContract.sol\":4999:5001  32 */\n      0x20\n        /* \"contracts/PollBetContract.sol\":4995:4996  i */\n      dup2\n        /* \"contracts/PollBetContract.sol\":4995:5001  i < 32 */\n      0xff\n      and\n      lt\n        /* \"contracts/PollBetContract.sol\":4995:5021  i < 32 && _bytes32[i] != 0 */\n      dup1\n      iszero\n      tag_223\n      jumpi\n      pop\n        /* \"contracts/PollBetContract.sol\":5020:5021  0 */\n      0x00\n        /* \"contracts/PollBetContract.sol\":5005:5021  _bytes32[i] != 0 */\n      0xf8\n      shl\n        /* \"contracts/PollBetContract.sol\":5005:5013  _bytes32 */\n      dup4\n        /* \"contracts/PollBetContract.sol\":5014:5015  i */\n      dup3\n        /* \"contracts/PollBetContract.sol\":5005:5016  _bytes32[i] */\n      0xff\n      and\n      0x20\n      dup2\n      lt\n      tag_224\n      jumpi\n      tag_225\n      tag_125\n      jump\t// in\n    tag_225:\n    tag_224:\n      byte\n      0xf8\n      shl\n        /* \"contracts/PollBetContract.sol\":5005:5021  _bytes32[i] != 0 */\n      not(0xffffffffffffffffffffffffffffffffffffffffffffffffffffffffffffff)\n      and\n      eq\n      iszero\n        /* \"contracts/PollBetContract.sol\":4995:5021  i < 32 && _bytes32[i] != 0 */\n    tag_223:\n        /* \"contracts/PollBetContract.sol\":4989:5051  while(i < 32 && _bytes32[i] != 0) {... */\n      iszero\n      tag_222\n      jumpi\n        /* \"contracts/PollBetContract.sol\":5037:5040  i++ */\n      dup1\n      dup1\n      tag_226\n      swap1\n      tag_227\n      jump\t// in\n    tag_226:\n      swap2\n      pop\n      pop\n        /* \"contracts/PollBetContract.sol\":4989:5051  while(i < 32 && _bytes32[i] != 0) {... */\n      jump(tag_221)\n    tag_222:\n        /* \"contracts/PollBetContract.sol\":5060:5083  bytes memory bytesArray */\n      0x00\n        /* \"contracts/PollBetContract.sol\":5096:5097  i */\n      dup2\n        /* \"contracts/PollBetContract.sol\":5086:5098  new bytes(i) */\n      0xff\n      and\n      0xffffffffffffffff\n      dup2\n      gt\n      iszero\n      tag_228\n      jumpi\n      tag_229\n      tag_230\n      jump\t// in\n    tag_229:\n    tag_228:\n      mload(0x40)\n      swap1\n      dup1\n      dup3\n      mstore\n      dup1\n      0x1f\n      add\n      not(0x1f)\n      and\n      0x20\n      add\n      dup3\n      add\n      0x40\n      mstore\n      dup1\n      iszero\n      tag_231\n      jumpi\n      dup2\n      0x20\n      add\n      0x01\n      dup3\n      mul\n      dup1\n      calldatasize\n      dup4\n      calldatacopy\n      dup1\n      dup3\n      add\n      swap2\n      pop\n      pop\n      swap1\n      pop\n    tag_231:\n      pop\n        /* \"contracts/PollBetContract.sol\":5060:5098  bytes memory bytesArray = new bytes(i) */\n      swap1\n      pop\n        /* \"contracts/PollBetContract.sol\":5117:5118  0 */\n      0x00\n        /* \"contracts/PollBetContract.sol\":5113:5118  i = 0 */\n      swap2\n      pop\n        /* \"contracts/PollBetContract.sol\":5108:5200  for (i = 0; i < bytesArray.length; i++) {... */\n    tag_232:\n        /* \"contracts/PollBetContract.sol\":5124:5134  bytesArray */\n      dup1\n        /* \"contracts/PollBetContract.sol\":5124:5141  bytesArray.length */\n      mload\n        /* \"contracts/PollBetContract.sol\":5120:5121  i */\n      dup3\n        /* \"contracts/PollBetContract.sol\":5120:5141  i < bytesArray.length */\n      0xff\n      and\n      lt\n        /* \"contracts/PollBetContract.sol\":5108:5200  for (i = 0; i < bytesArray.length; i++) {... */\n      iszero\n      tag_233\n      jumpi\n        /* \"contracts/PollBetContract.sol\":5178:5186  _bytes32 */\n      dup4\n        /* \"contracts/PollBetContract.sol\":5187:5188  i */\n      dup3\n        /* \"contracts/PollBetContract.sol\":5178:5189  _bytes32[i] */\n      0xff\n      and\n      0x20\n      dup2\n      lt\n      tag_235\n      jumpi\n      tag_236\n      tag_125\n      jump\t// in\n    tag_236:\n    tag_235:\n      byte\n      0xf8\n      shl\n        /* \"contracts/PollBetContract.sol\":5162:5172  bytesArray */\n      dup2\n        /* \"contracts/PollBetContract.sol\":5173:5174  i */\n      dup4\n        /* \"contracts/PollBetContract.sol\":5162:5175  bytesArray[i] */\n      0xff\n      and\n      dup2\n      mload\n      dup2\n      lt\n      tag_237\n      jumpi\n      tag_238\n      tag_125\n      jump\t// in\n    tag_238:\n    tag_237:\n      0x20\n      add\n      add\n        /* \"contracts/PollBetContract.sol\":5162:5189  bytesArray[i] = _bytes32[i] */\n      swap1\n      not(0xffffffffffffffffffffffffffffffffffffffffffffffffffffffffffffff)\n      and\n      swap1\n      dup2\n      0x00\n      byte\n      swap1\n      mstore8\n      pop\n        /* \"contracts/PollBetContract.sol\":5143:5146  i++ */\n      dup2\n      dup1\n      tag_239\n      swap1\n      tag_227\n      jump\t// in\n    tag_239:\n      swap3\n      pop\n      pop\n        /* \"contracts/PollBetContract.sol\":5108:5200  for (i = 0; i < bytesArray.length; i++) {... */\n      jump(tag_232)\n    tag_233:\n        /* \"contracts/PollBetContract.sol\":5223:5233  bytesArray */\n      dup1\n        /* \"contracts/PollBetContract.sol\":5209:5234  return string(bytesArray) */\n      swap3\n      pop\n      pop\n      pop\n        /* \"contracts/PollBetContract.sol\":4878:5241  function bytes32ToString(bytes32 _bytes32) private pure returns (string memory) {... */\n      swap2\n      swap1\n      pop\n      jump\t// out\n    tag_215:\n      dup3\n      dup1\n      sload\n      dup3\n      dup3\n      sstore\n      swap1\n      0x00\n      mstore\n      keccak256(0x00, 0x20)\n      swap1\n      dup2\n      add\n      swap3\n      dup3\n      iszero\n      tag_240\n      jumpi\n      swap2\n      0x20\n      mul\n      dup3\n      add\n    tag_241:\n      dup3\n      dup2\n      gt\n      iszero\n      tag_242\n      jumpi\n      dup3\n      mload\n      dup3\n      swap1\n      dup2\n      tag_243\n      swap2\n      swap1\n      tag_190\n      jump\t// in\n    tag_243:\n      pop\n      swap2\n      0x20\n      add\n      swap2\n      swap1\n      0x01\n      add\n      swap1\n      jump(tag_241)\n    tag_242:\n    tag_240:\n      pop\n      swap1\n      pop\n      tag_244\n      swap2\n      swap1\n      tag_245\n      jump\t// in\n    tag_244:\n      pop\n      swap1\n      jump\t// out\n    tag_245:\n    tag_246:\n      dup1\n      dup3\n      gt\n      iszero\n      tag_247\n      jumpi\n      0x00\n      dup2\n      dup2\n      tag_248\n      swap2\n      swap1\n      tag_249\n      jump\t// in\n    tag_248:\n      pop\n      0x01\n      add\n      jump(tag_246)\n    tag_247:\n      pop\n      swap1\n      jump\t// out\n    tag_249:\n      pop\n      dup1\n      sload\n      tag_250\n      swap1\n      tag_117\n      jump\t// in\n    tag_250:\n      0x00\n      dup3\n      sstore\n      dup1\n      0x1f\n      lt\n      tag_252\n      jumpi\n      pop\n      jump(tag_251)\n    tag_252:\n      0x1f\n      add\n      0x20\n      swap1\n      div\n      swap1\n      0x00\n      mstore\n      keccak256(0x00, 0x20)\n      swap1\n      dup2\n      add\n      swap1\n      tag_253\n      swap2\n      swap1\n      tag_254\n      jump\t// in\n    tag_253:\n    tag_251:\n      pop\n      jump\t// out\n    tag_254:\n    tag_255:\n      dup1\n      dup3\n      gt\n      iszero\n      tag_256\n      jumpi\n      0x00\n      dup2\n      0x00\n      swap1\n      sstore\n      pop\n      0x01\n      add\n      jump(tag_255)\n    tag_256:\n      pop\n      swap1\n      jump\t// out\n        /* \"#utility.yul\":7:82   */\n    tag_257:\n        /* \"#utility.yul\":40:46   */\n      0x00\n        /* \"#utility.yul\":73:75   */\n      0x40\n        /* \"#utility.yul\":67:76   */\n      mload\n        /* \"#utility.yul\":57:76   */\n      swap1\n      pop\n        /* \"#utility.yul\":7:82   */\n      swap1\n      jump\t// out\n        /* \"#utility.yul\":88:205   */\n    tag_258:\n        /* \"#utility.yul\":197:198   */\n      0x00\n        /* \"#utility.yul\":194:195   */\n      dup1\n        /* \"#utility.yul\":187:199   */\n      revert\n        /* \"#utility.yul\":211:328   */\n    tag_259:\n        /* \"#utility.yul\":320:321   */\n      0x00\n        /* \"#utility.yul\":317:318   */\n      dup1\n        /* \"#utility.yul\":310:322   */\n      revert\n        /* \"#utility.yul\":334:411   */\n    tag_260:\n        /* \"#utility.yul\":371:378   */\n      0x00\n        /* \"#utility.yul\":400:405   */\n      dup2\n        /* \"#utility.yul\":389:405   */\n      swap1\n      pop\n        /* \"#utility.yul\":334:411   */\n      swap2\n      swap1\n      pop\n      jump\t// out\n        /* \"#utility.yul\":417:539   */\n    tag_261:\n        /* \"#utility.yul\":490:514   */\n      tag_348\n        /* \"#utility.yul\":508:513   */\n      dup2\n        /* \"#utility.yul\":490:514   */\n      tag_260\n      jump\t// in\n    tag_348:\n        /* \"#utility.yul\":483:488   */\n      dup2\n        /* \"#utility.yul\":480:515   */\n      eq\n        /* \"#utility.yul\":470:533   */\n      tag_349\n      jumpi\n        /* \"#utility.yul\":529:530   */\n      0x00\n        /* \"#utility.yul\":526:527   */\n      dup1\n        /* \"#utility.yul\":519:531   */\n      revert\n        /* \"#utility.yul\":470:533   */\n    tag_349:\n        /* \"#utility.yul\":417:539   */\n      pop\n      jump\t// out\n        /* \"#utility.yul\":545:684   */\n    tag_262:\n        /* \"#utility.yul\":591:596   */\n      0x00\n        /* \"#utility.yul\":629:635   */\n      dup2\n        /* \"#utility.yul\":616:636   */\n      calldataload\n        /* \"#utility.yul\":607:636   */\n      swap1\n      pop\n        /* \"#utility.yul\":645:678   */\n      tag_351\n        /* \"#utility.yul\":672:677   */\n      dup2\n        /* \"#utility.yul\":645:678   */\n      tag_261\n      jump\t// in\n    tag_351:\n        /* \"#utility.yul\":545:684   */\n      swap3\n      swap2\n      pop\n      pop\n      jump\t// out\n        /* \"#utility.yul\":690:816   */\n    tag_263:\n        /* \"#utility.yul\":727:734   */\n      0x00\n        /* \"#utility.yul\":767:809   */\n      0xffffffffffffffffffffffffffffffffffffffff\n        /* \"#utility.yul\":760:765   */\n      dup3\n        /* \"#utility.yul\":756:810   */\n      and\n        /* \"#utility.yul\":745:810   */\n      swap1\n      pop\n        /* \"#utility.yul\":690:816   */\n      swap2\n      swap1\n      pop\n      jump\t// out\n        /* \"#utility.yul\":822:918   */\n    tag_264:\n        /* \"#utility.yul\":859:866   */\n      0x00\n        /* \"#utility.yul\":888:912   */\n      tag_354\n        /* \"#utility.yul\":906:911   */\n      dup3\n        /* \"#utility.yul\":888:912   */\n      tag_263\n      jump\t// in\n    tag_354:\n        /* \"#utility.yul\":877:912   */\n      swap1\n      pop\n        /* \"#utility.yul\":822:918   */\n      swap2\n      swap1\n      pop\n      jump\t// out\n        /* \"#utility.yul\":924:1046   */\n    tag_265:\n        /* \"#utility.yul\":997:1021   */\n      tag_356\n        /* \"#utility.yul\":1015:1020   */\n      dup2\n        /* \"#utility.yul\":997:1021   */\n      tag_264\n      jump\t// in\n    tag_356:\n        /* \"#utility.yul\":990:995   */\n      dup2\n        /* \"#utility.yul\":987:1022   */\n      eq\n        /* \"#utility.yul\":977:1040   */\n      tag_357\n      jumpi\n        /* \"#utility.yul\":1036:1037   */\n      0x00\n        /* \"#utility.yul\":1033:1034   */\n      dup1\n        /* \"#utility.yul\":1026:1038   */\n      revert\n        /* \"#utility.yul\":977:1040   */\n    tag_357:\n        /* \"#utility.yul\":924:1046   */\n      pop\n      jump\t// out\n        /* \"#utility.yul\":1052:1191   */\n    tag_266:\n        /* \"#utility.yul\":1098:1103   */\n      0x00\n        /* \"#utility.yul\":1136:1142   */\n      dup2\n        /* \"#utility.yul\":1123:1143   */\n      calldataload\n        /* \"#utility.yul\":1114:1143   */\n      swap1\n      pop\n        /* \"#utility.yul\":1152:1185   */\n      tag_359\n        /* \"#utility.yul\":1179:1184   */\n      dup2\n        /* \"#utility.yul\":1152:1185   */\n      tag_265\n      jump\t// in\n    tag_359:\n        /* \"#utility.yul\":1052:1191   */\n      swap3\n      swap2\n      pop\n      pop\n      jump\t// out\n        /* \"#utility.yul\":1197:1671   */\n    tag_26:\n        /* \"#utility.yul\":1265:1271   */\n      0x00\n        /* \"#utility.yul\":1273:1279   */\n      dup1\n        /* \"#utility.yul\":1322:1324   */\n      0x40\n        /* \"#utility.yul\":1310:1319   */\n      dup4\n        /* \"#utility.yul\":1301:1308   */\n      dup6\n        /* \"#utility.yul\":1297:1320   */\n      sub\n        /* \"#utility.yul\":1293:1325   */\n      slt\n        /* \"#utility.yul\":1290:1409   */\n      iszero\n      tag_361\n      jumpi\n        /* \"#utility.yul\":1328:1407   */\n      tag_362\n      tag_258\n      jump\t// in\n    tag_362:\n        /* \"#utility.yul\":1290:1409   */\n    tag_361:\n        /* \"#utility.yul\":1448:1449   */\n      0x00\n        /* \"#utility.yul\":1473:1526   */\n      tag_363\n        /* \"#utility.yul\":1518:1525   */\n      dup6\n        /* \"#utility.yul\":1509:1515   */\n      dup3\n        /* \"#utility.yul\":1498:1507   */\n      dup7\n        /* \"#utility.yul\":1494:1516   */\n      add\n        /* \"#utility.yul\":1473:1526   */\n      tag_262\n      jump\t// in\n    tag_363:\n        /* \"#utility.yul\":1463:1526   */\n      swap3\n      pop\n        /* \"#utility.yul\":1419:1536   */\n      pop\n        /* \"#utility.yul\":1575:1577   */\n      0x20\n        /* \"#utility.yul\":1601:1654   */\n      tag_364\n        /* \"#utility.yul\":1646:1653   */\n      dup6\n        /* \"#utility.yul\":1637:1643   */\n      dup3\n        /* \"#utility.yul\":1626:1635   */\n      dup7\n        /* \"#utility.yul\":1622:1644   */\n      add\n        /* \"#utility.yul\":1601:1654   */\n      tag_266\n      jump\t// in\n    tag_364:\n        /* \"#utility.yul\":1591:1654   */\n      swap2\n      pop\n        /* \"#utility.yul\":1546:1664   */\n      pop\n        /* \"#utility.yul\":1197:1671   */\n      swap3\n      pop\n      swap3\n      swap1\n      pop\n      jump\t// out\n        /* \"#utility.yul\":1677:1795   */\n    tag_267:\n        /* \"#utility.yul\":1764:1788   */\n      tag_366\n        /* \"#utility.yul\":1782:1787   */\n      dup2\n        /* \"#utility.yul\":1764:1788   */\n      tag_260\n      jump\t// in\n    tag_366:\n        /* \"#utility.yul\":1759:1762   */\n      dup3\n        /* \"#utility.yul\":1752:1789   */\n      mstore\n        /* \"#utility.yul\":1677:1795   */\n      pop\n      pop\n      jump\t// out\n        /* \"#utility.yul\":1801:2023   */\n    tag_29:\n        /* \"#utility.yul\":1894:1898   */\n      0x00\n        /* \"#utility.yul\":1932:1934   */\n      0x20\n        /* \"#utility.yul\":1921:1930   */\n      dup3\n        /* \"#utility.yul\":1917:1935   */\n      add\n        /* \"#utility.yul\":1909:1935   */\n      swap1\n      pop\n        /* \"#utility.yul\":1945:2016   */\n      tag_368\n        /* \"#utility.yul\":2013:2014   */\n      0x00\n        /* \"#utility.yul\":2002:2011   */\n      dup4\n        /* \"#utility.yul\":1998:2015   */\n      add\n        /* \"#utility.yul\":1989:1995   */\n      dup5\n        /* \"#utility.yul\":1945:2016   */\n      tag_267\n      jump\t// in\n    tag_368:\n        /* \"#utility.yul\":1801:2023   */\n      swap3\n      swap2\n      pop\n      pop\n      jump\t// out\n        /* \"#utility.yul\":2029:2358   */\n    tag_33:\n        /* \"#utility.yul\":2088:2094   */\n      0x00\n        /* \"#utility.yul\":2137:2139   */\n      0x20\n        /* \"#utility.yul\":2125:2134   */\n      dup3\n        /* \"#utility.yul\":2116:2123   */\n      dup5\n        /* \"#utility.yul\":2112:2135   */\n      sub\n        /* \"#utility.yul\":2108:2140   */\n      slt\n        /* \"#utility.yul\":2105:2224   */\n      iszero\n      tag_370\n      jumpi\n        /* \"#utility.yul\":2143:2222   */\n      tag_371\n      tag_258\n      jump\t// in\n    tag_371:\n        /* \"#utility.yul\":2105:2224   */\n    tag_370:\n        /* \"#utility.yul\":2263:2264   */\n      0x00\n        /* \"#utility.yul\":2288:2341   */\n      tag_372\n        /* \"#utility.yul\":2333:2340   */\n      dup5\n        /* \"#utility.yul\":2324:2330   */\n      dup3\n        /* \"#utility.yul\":2313:2322   */\n      dup6\n        /* \"#utility.yul\":2309:2331   */\n      add\n        /* \"#utility.yul\":2288:2341   */\n      tag_266\n      jump\t// in\n    tag_372:\n        /* \"#utility.yul\":2278:2341   */\n      swap2\n      pop\n        /* \"#utility.yul\":2234:2351   */\n      pop\n        /* \"#utility.yul\":2029:2358   */\n      swap3\n      swap2\n      pop\n      pop\n      jump\t// out\n        /* \"#utility.yul\":2364:2838   */\n    tag_39:\n        /* \"#utility.yul\":2432:2438   */\n      0x00\n        /* \"#utility.yul\":2440:2446   */\n      dup1\n        /* \"#utility.yul\":2489:2491   */\n      0x40\n        /* \"#utility.yul\":2477:2486   */\n      dup4\n        /* \"#utility.yul\":2468:2475   */\n      dup6\n        /* \"#utility.yul\":2464:2487   */\n      sub\n        /* \"#utility.yul\":2460:2492   */\n      slt\n        /* \"#utility.yul\":2457:2576   */\n      iszero\n      tag_374\n      jumpi\n        /* \"#utility.yul\":2495:2574   */\n      tag_375\n      tag_258\n      jump\t// in\n    tag_375:\n        /* \"#utility.yul\":2457:2576   */\n    tag_374:\n        /* \"#utility.yul\":2615:2616   */\n      0x00\n        /* \"#utility.yul\":2640:2693   */\n      tag_376\n        /* \"#utility.yul\":2685:2692   */\n      dup6\n        /* \"#utility.yul\":2676:2682   */\n      dup3\n        /* \"#utility.yul\":2665:2674   */\n      dup7\n        /* \"#utility.yul\":2661:2683   */\n      add\n        /* \"#utility.yul\":2640:2693   */\n      tag_262\n      jump\t// in\n    tag_376:\n        /* \"#utility.yul\":2630:2693   */\n      swap3\n      pop\n        /* \"#utility.yul\":2586:2703   */\n      pop\n        /* \"#utility.yul\":2742:2744   */\n      0x20\n        /* \"#utility.yul\":2768:2821   */\n      tag_377\n        /* \"#utility.yul\":2813:2820   */\n      dup6\n        /* \"#utility.yul\":2804:2810   */\n      dup3\n        /* \"#utility.yul\":2793:2802   */\n      dup7\n        /* \"#utility.yul\":2789:2811   */\n      add\n        /* \"#utility.yul\":2768:2821   */\n      tag_262\n      jump\t// in\n    tag_377:\n        /* \"#utility.yul\":2758:2821   */\n      swap2\n      pop\n        /* \"#utility.yul\":2713:2831   */\n      pop\n        /* \"#utility.yul\":2364:2838   */\n      swap3\n      pop\n      swap3\n      swap1\n      pop\n      jump\t// out\n        /* \"#utility.yul\":2844:2943   */\n    tag_268:\n        /* \"#utility.yul\":2896:2902   */\n      0x00\n        /* \"#utility.yul\":2930:2935   */\n      dup2\n        /* \"#utility.yul\":2924:2936   */\n      mload\n        /* \"#utility.yul\":2914:2936   */\n      swap1\n      pop\n        /* \"#utility.yul\":2844:2943   */\n      swap2\n      swap1\n      pop\n      jump\t// out\n        /* \"#utility.yul\":2949:3118   */\n    tag_269:\n        /* \"#utility.yul\":3033:3044   */\n      0x00\n        /* \"#utility.yul\":3067:3073   */\n      dup3\n        /* \"#utility.yul\":3062:3065   */\n      dup3\n        /* \"#utility.yul\":3055:3074   */\n      mstore\n        /* \"#utility.yul\":3107:3111   */\n      0x20\n        /* \"#utility.yul\":3102:3105   */\n      dup3\n        /* \"#utility.yul\":3098:3112   */\n      add\n        /* \"#utility.yul\":3083:3112   */\n      swap1\n      pop\n        /* \"#utility.yul\":2949:3118   */\n      swap3\n      swap2\n      pop\n      pop\n      jump\t// out\n        /* \"#utility.yul\":3124:3370   */\n    tag_270:\n        /* \"#utility.yul\":3205:3206   */\n      0x00\n        /* \"#utility.yul\":3215:3328   */\n    tag_381:\n        /* \"#utility.yul\":3229:3235   */\n      dup4\n        /* \"#utility.yul\":3226:3227   */\n      dup2\n        /* \"#utility.yul\":3223:3236   */\n      lt\n        /* \"#utility.yul\":3215:3328   */\n      iszero\n      tag_383\n      jumpi\n        /* \"#utility.yul\":3314:3315   */\n      dup1\n        /* \"#utility.yul\":3309:3312   */\n      dup3\n        /* \"#utility.yul\":3305:3316   */\n      add\n        /* \"#utility.yul\":3299:3317   */\n      mload\n        /* \"#utility.yul\":3295:3296   */\n      dup2\n        /* \"#utility.yul\":3290:3293   */\n      dup5\n        /* \"#utility.yul\":3286:3297   */\n      add\n        /* \"#utility.yul\":3279:3318   */\n      mstore\n        /* \"#utility.yul\":3251:3253   */\n      0x20\n        /* \"#utility.yul\":3248:3249   */\n      dup2\n        /* \"#utility.yul\":3244:3254   */\n      add\n        /* \"#utility.yul\":3239:3254   */\n      swap1\n      pop\n        /* \"#utility.yul\":3215:3328   */\n      jump(tag_381)\n    tag_383:\n        /* \"#utility.yul\":3362:3363   */\n      0x00\n        /* \"#utility.yul\":3353:3359   */\n      dup5\n        /* \"#utility.yul\":3348:3351   */\n      dup5\n        /* \"#utility.yul\":3344:3360   */\n      add\n        /* \"#utility.yul\":3337:3364   */\n      mstore\n        /* \"#utility.yul\":3186:3370   */\n      pop\n        /* \"#utility.yul\":3124:3370   */\n      pop\n      pop\n      pop\n      jump\t// out\n        /* \"#utility.yul\":3376:3478   */\n    tag_271:\n        /* \"#utility.yul\":3417:3423   */\n      0x00\n        /* \"#utility.yul\":3468:3470   */\n      0x1f\n        /* \"#utility.yul\":3464:3471   */\n      not\n        /* \"#utility.yul\":3459:3461   */\n      0x1f\n        /* \"#utility.yul\":3452:3457   */\n      dup4\n        /* \"#utility.yul\":3448:3462   */\n      add\n        /* \"#utility.yul\":3444:3472   */\n      and\n        /* \"#utility.yul\":3434:3472   */\n      swap1\n      pop\n        /* \"#utility.yul\":3376:3478   */\n      swap2\n      swap1\n      pop\n      jump\t// out\n        /* \"#utility.yul\":3484:3861   */\n    tag_272:\n        /* \"#utility.yul\":3572:3575   */\n      0x00\n        /* \"#utility.yul\":3600:3639   */\n      tag_386\n        /* \"#utility.yul\":3633:3638   */\n      dup3\n        /* \"#utility.yul\":3600:3639   */\n      tag_268\n      jump\t// in\n    tag_386:\n        /* \"#utility.yul\":3655:3726   */\n      tag_387\n        /* \"#utility.yul\":3719:3725   */\n      dup2\n        /* \"#utility.yul\":3714:3717   */\n      dup6\n        /* \"#utility.yul\":3655:3726   */\n      tag_269\n      jump\t// in\n    tag_387:\n        /* \"#utility.yul\":3648:3726   */\n      swap4\n      pop\n        /* \"#utility.yul\":3735:3800   */\n      tag_388\n        /* \"#utility.yul\":3793:3799   */\n      dup2\n        /* \"#utility.yul\":3788:3791   */\n      dup6\n        /* \"#utility.yul\":3781:3785   */\n      0x20\n        /* \"#utility.yul\":3774:3779   */\n      dup7\n        /* \"#utility.yul\":3770:3786   */\n      add\n        /* \"#utility.yul\":3735:3800   */\n      tag_270\n      jump\t// in\n    tag_388:\n        /* \"#utility.yul\":3825:3854   */\n      tag_389\n        /* \"#utility.yul\":3847:3853   */\n      dup2\n        /* \"#utility.yul\":3825:3854   */\n      tag_271\n      jump\t// in\n    tag_389:\n        /* \"#utility.yul\":3820:3823   */\n      dup5\n        /* \"#utility.yul\":3816:3855   */\n      add\n        /* \"#utility.yul\":3809:3855   */\n      swap2\n      pop\n        /* \"#utility.yul\":3576:3861   */\n      pop\n        /* \"#utility.yul\":3484:3861   */\n      swap3\n      swap2\n      pop\n      pop\n      jump\t// out\n        /* \"#utility.yul\":3867:3985   */\n    tag_273:\n        /* \"#utility.yul\":3954:3978   */\n      tag_391\n        /* \"#utility.yul\":3972:3977   */\n      dup2\n        /* \"#utility.yul\":3954:3978   */\n      tag_264\n      jump\t// in\n    tag_391:\n        /* \"#utility.yul\":3949:3952   */\n      dup3\n        /* \"#utility.yul\":3942:3979   */\n      mstore\n        /* \"#utility.yul\":3867:3985   */\n      pop\n      pop\n      jump\t// out\n        /* \"#utility.yul\":3991:4635   */\n    tag_42:\n        /* \"#utility.yul\":4188:4192   */\n      0x00\n        /* \"#utility.yul\":4226:4229   */\n      0x80\n        /* \"#utility.yul\":4215:4224   */\n      dup3\n        /* \"#utility.yul\":4211:4230   */\n      add\n        /* \"#utility.yul\":4203:4230   */\n      swap1\n      pop\n        /* \"#utility.yul\":4240:4311   */\n      tag_393\n        /* \"#utility.yul\":4308:4309   */\n      0x00\n        /* \"#utility.yul\":4297:4306   */\n      dup4\n        /* \"#utility.yul\":4293:4310   */\n      add\n        /* \"#utility.yul\":4284:4290   */\n      dup8\n        /* \"#utility.yul\":4240:4311   */\n      tag_267\n      jump\t// in\n    tag_393:\n        /* \"#utility.yul\":4358:4367   */\n      dup2\n        /* \"#utility.yul\":4352:4356   */\n      dup2\n        /* \"#utility.yul\":4348:4368   */\n      sub\n        /* \"#utility.yul\":4343:4345   */\n      0x20\n        /* \"#utility.yul\":4332:4341   */\n      dup4\n        /* \"#utility.yul\":4328:4346   */\n      add\n        /* \"#utility.yul\":4321:4369   */\n      mstore\n        /* \"#utility.yul\":4386:4464   */\n      tag_394\n        /* \"#utility.yul\":4459:4463   */\n      dup2\n        /* \"#utility.yul\":4450:4456   */\n      dup7\n        /* \"#utility.yul\":4386:4464   */\n      tag_272\n      jump\t// in\n    tag_394:\n        /* \"#utility.yul\":4378:4464   */\n      swap1\n      pop\n        /* \"#utility.yul\":4474:4546   */\n      tag_395\n        /* \"#utility.yul\":4542:4544   */\n      0x40\n        /* \"#utility.yul\":4531:4540   */\n      dup4\n        /* \"#utility.yul\":4527:4545   */\n      add\n        /* \"#utility.yul\":4518:4524   */\n      dup6\n        /* \"#utility.yul\":4474:4546   */\n      tag_273\n      jump\t// in\n    tag_395:\n        /* \"#utility.yul\":4556:4628   */\n      tag_396\n        /* \"#utility.yul\":4624:4626   */\n      0x60\n        /* \"#utility.yul\":4613:4622   */\n      dup4\n        /* \"#utility.yul\":4609:4627   */\n      add\n        /* \"#utility.yul\":4600:4606   */\n      dup5\n        /* \"#utility.yul\":4556:4628   */\n      tag_267\n      jump\t// in\n    tag_396:\n        /* \"#utility.yul\":3991:4635   */\n      swap6\n      swap5\n      pop\n      pop\n      pop\n      pop\n      pop\n      jump\t// out\n        /* \"#utility.yul\":4641:4731   */\n    tag_274:\n        /* \"#utility.yul\":4675:4682   */\n      0x00\n        /* \"#utility.yul\":4718:4723   */\n      dup2\n        /* \"#utility.yul\":4711:4724   */\n      iszero\n        /* \"#utility.yul\":4704:4725   */\n      iszero\n        /* \"#utility.yul\":4693:4725   */\n      swap1\n      pop\n        /* \"#utility.yul\":4641:4731   */\n      swap2\n      swap1\n      pop\n      jump\t// out\n        /* \"#utility.yul\":4737:4846   */\n    tag_275:\n        /* \"#utility.yul\":4818:4839   */\n      tag_399\n        /* \"#utility.yul\":4833:4838   */\n      dup2\n        /* \"#utility.yul\":4818:4839   */\n      tag_274\n      jump\t// in\n    tag_399:\n        /* \"#utility.yul\":4813:4816   */\n      dup3\n        /* \"#utility.yul\":4806:4840   */\n      mstore\n        /* \"#utility.yul\":4737:4846   */\n      pop\n      pop\n      jump\t// out\n        /* \"#utility.yul\":4852:5062   */\n    tag_48:\n        /* \"#utility.yul\":4939:4943   */\n      0x00\n        /* \"#utility.yul\":4977:4979   */\n      0x20\n        /* \"#utility.yul\":4966:4975   */\n      dup3\n        /* \"#utility.yul\":4962:4980   */\n      add\n        /* \"#utility.yul\":4954:4980   */\n      swap1\n      pop\n        /* \"#utility.yul\":4990:5055   */\n      tag_401\n        /* \"#utility.yul\":5052:5053   */\n      0x00\n        /* \"#utility.yul\":5041:5050   */\n      dup4\n        /* \"#utility.yul\":5037:5054   */\n      add\n        /* \"#utility.yul\":5028:5034   */\n      dup5\n        /* \"#utility.yul\":4990:5055   */\n      tag_275\n      jump\t// in\n    tag_401:\n        /* \"#utility.yul\":4852:5062   */\n      swap3\n      swap2\n      pop\n      pop\n      jump\t// out\n        /* \"#utility.yul\":5068:5397   */\n    tag_52:\n        /* \"#utility.yul\":5127:5133   */\n      0x00\n        /* \"#utility.yul\":5176:5178   */\n      0x20\n        /* \"#utility.yul\":5164:5173   */\n      dup3\n        /* \"#utility.yul\":5155:5162   */\n      dup5\n        /* \"#utility.yul\":5151:5174   */\n      sub\n        /* \"#utility.yul\":5147:5179   */\n      slt\n        /* \"#utility.yul\":5144:5263   */\n      iszero\n      tag_403\n      jumpi\n        /* \"#utility.yul\":5182:5261   */\n      tag_404\n      tag_258\n      jump\t// in\n    tag_404:\n        /* \"#utility.yul\":5144:5263   */\n    tag_403:\n        /* \"#utility.yul\":5302:5303   */\n      0x00\n        /* \"#utility.yul\":5327:5380   */\n      tag_405\n        /* \"#utility.yul\":5372:5379   */\n      dup5\n        /* \"#utility.yul\":5363:5369   */\n      dup3\n        /* \"#utility.yul\":5352:5361   */\n      dup6\n        /* \"#utility.yul\":5348:5370   */\n      add\n        /* \"#utility.yul\":5327:5380   */\n      tag_262\n      jump\t// in\n    tag_405:\n        /* \"#utility.yul\":5317:5380   */\n      swap2\n      pop\n        /* \"#utility.yul\":5273:5390   */\n      pop\n        /* \"#utility.yul\":5068:5397   */\n      swap3\n      swap2\n      pop\n      pop\n      jump\t// out\n        /* \"#utility.yul\":5403:5480   */\n    tag_276:\n        /* \"#utility.yul\":5440:5447   */\n      0x00\n        /* \"#utility.yul\":5469:5474   */\n      dup2\n        /* \"#utility.yul\":5458:5474   */\n      swap1\n      pop\n        /* \"#utility.yul\":5403:5480   */\n      swap2\n      swap1\n      pop\n      jump\t// out\n        /* \"#utility.yul\":5486:5608   */\n    tag_277:\n        /* \"#utility.yul\":5559:5583   */\n      tag_408\n        /* \"#utility.yul\":5577:5582   */\n      dup2\n        /* \"#utility.yul\":5559:5583   */\n      tag_276\n      jump\t// in\n    tag_408:\n        /* \"#utility.yul\":5552:5557   */\n      dup2\n        /* \"#utility.yul\":5549:5584   */\n      eq\n        /* \"#utility.yul\":5539:5602   */\n      tag_409\n      jumpi\n        /* \"#utility.yul\":5598:5599   */\n      0x00\n        /* \"#utility.yul\":5595:5596   */\n      dup1\n        /* \"#utility.yul\":5588:5600   */\n      revert\n        /* \"#utility.yul\":5539:5602   */\n    tag_409:\n        /* \"#utility.yul\":5486:5608   */\n      pop\n      jump\t// out\n        /* \"#utility.yul\":5614:5753   */\n    tag_278:\n        /* \"#utility.yul\":5660:5665   */\n      0x00\n        /* \"#utility.yul\":5698:5704   */\n      dup2\n        /* \"#utility.yul\":5685:5705   */\n      calldataload\n        /* \"#utility.yul\":5676:5705   */\n      swap1\n      pop\n        /* \"#utility.yul\":5714:5747   */\n      tag_411\n        /* \"#utility.yul\":5741:5746   */\n      dup2\n        /* \"#utility.yul\":5714:5747   */\n      tag_277\n      jump\t// in\n    tag_411:\n        /* \"#utility.yul\":5614:5753   */\n      swap3\n      swap2\n      pop\n      pop\n      jump\t// out\n        /* \"#utility.yul\":5759:6233   */\n    tag_78:\n        /* \"#utility.yul\":5827:5833   */\n      0x00\n        /* \"#utility.yul\":5835:5841   */\n      dup1\n        /* \"#utility.yul\":5884:5886   */\n      0x40\n        /* \"#utility.yul\":5872:5881   */\n      dup4\n        /* \"#utility.yul\":5863:5870   */\n      dup6\n        /* \"#utility.yul\":5859:5882   */\n      sub\n        /* \"#utility.yul\":5855:5887   */\n      slt\n        /* \"#utility.yul\":5852:5971   */\n      iszero\n      tag_413\n      jumpi\n        /* \"#utility.yul\":5890:5969   */\n      tag_414\n      tag_258\n      jump\t// in\n    tag_414:\n        /* \"#utility.yul\":5852:5971   */\n    tag_413:\n        /* \"#utility.yul\":6010:6011   */\n      0x00\n        /* \"#utility.yul\":6035:6088   */\n      tag_415\n        /* \"#utility.yul\":6080:6087   */\n      dup6\n        /* \"#utility.yul\":6071:6077   */\n      dup3\n        /* \"#utility.yul\":6060:6069   */\n      dup7\n        /* \"#utility.yul\":6056:6078   */\n      add\n        /* \"#utility.yul\":6035:6088   */\n      tag_262\n      jump\t// in\n    tag_415:\n        /* \"#utility.yul\":6025:6088   */\n      swap3\n      pop\n        /* \"#utility.yul\":5981:6098   */\n      pop\n        /* \"#utility.yul\":6137:6139   */\n      0x20\n        /* \"#utility.yul\":6163:6216   */\n      tag_416\n        /* \"#utility.yul\":6208:6215   */\n      dup6\n        /* \"#utility.yul\":6199:6205   */\n      dup3\n        /* \"#utility.yul\":6188:6197   */\n      dup7\n        /* \"#utility.yul\":6184:6206   */\n      add\n        /* \"#utility.yul\":6163:6216   */\n      tag_278\n      jump\t// in\n    tag_416:\n        /* \"#utility.yul\":6153:6216   */\n      swap2\n      pop\n        /* \"#utility.yul\":6108:6226   */\n      pop\n        /* \"#utility.yul\":5759:6233   */\n      swap3\n      pop\n      swap3\n      swap1\n      pop\n      jump\t// out\n        /* \"#utility.yul\":6239:6681   */\n    tag_85:\n        /* \"#utility.yul\":6388:6392   */\n      0x00\n        /* \"#utility.yul\":6426:6428   */\n      0x60\n        /* \"#utility.yul\":6415:6424   */\n      dup3\n        /* \"#utility.yul\":6411:6429   */\n      add\n        /* \"#utility.yul\":6403:6429   */\n      swap1\n      pop\n        /* \"#utility.yul\":6439:6510   */\n      tag_418\n        /* \"#utility.yul\":6507:6508   */\n      0x00\n        /* \"#utility.yul\":6496:6505   */\n      dup4\n        /* \"#utility.yul\":6492:6509   */\n      add\n        /* \"#utility.yul\":6483:6489   */\n      dup7\n        /* \"#utility.yul\":6439:6510   */\n      tag_267\n      jump\t// in\n    tag_418:\n        /* \"#utility.yul\":6520:6592   */\n      tag_419\n        /* \"#utility.yul\":6588:6590   */\n      0x20\n        /* \"#utility.yul\":6577:6586   */\n      dup4\n        /* \"#utility.yul\":6573:6591   */\n      add\n        /* \"#utility.yul\":6564:6570   */\n      dup6\n        /* \"#utility.yul\":6520:6592   */\n      tag_273\n      jump\t// in\n    tag_419:\n        /* \"#utility.yul\":6602:6674   */\n      tag_420\n        /* \"#utility.yul\":6670:6672   */\n      0x40\n        /* \"#utility.yul\":6659:6668   */\n      dup4\n        /* \"#utility.yul\":6655:6673   */\n      add\n        /* \"#utility.yul\":6646:6652   */\n      dup5\n        /* \"#utility.yul\":6602:6674   */\n      tag_267\n      jump\t// in\n    tag_420:\n        /* \"#utility.yul\":6239:6681   */\n      swap5\n      swap4\n      pop\n      pop\n      pop\n      pop\n      jump\t// out\n        /* \"#utility.yul\":6687:7339   */\n    tag_91:\n        /* \"#utility.yul\":6886:6890   */\n      0x00\n        /* \"#utility.yul\":6924:6927   */\n      0xa0\n        /* \"#utility.yul\":6913:6922   */\n      dup3\n        /* \"#utility.yul\":6909:6928   */\n      add\n        /* \"#utility.yul\":6901:6928   */\n      swap1\n      pop\n        /* \"#utility.yul\":6938:7009   */\n      tag_422\n        /* \"#utility.yul\":7006:7007   */\n      0x00\n        /* \"#utility.yul\":6995:7004   */\n      dup4\n        /* \"#utility.yul\":6991:7008   */\n      add\n        /* \"#utility.yul\":6982:6988   */\n      dup9\n        /* \"#utility.yul\":6938:7009   */\n      tag_267\n      jump\t// in\n    tag_422:\n        /* \"#utility.yul\":7019:7091   */\n      tag_423\n        /* \"#utility.yul\":7087:7089   */\n      0x20\n        /* \"#utility.yul\":7076:7085   */\n      dup4\n        /* \"#utility.yul\":7072:7090   */\n      add\n        /* \"#utility.yul\":7063:7069   */\n      dup8\n        /* \"#utility.yul\":7019:7091   */\n      tag_273\n      jump\t// in\n    tag_423:\n        /* \"#utility.yul\":7101:7173   */\n      tag_424\n        /* \"#utility.yul\":7169:7171   */\n      0x40\n        /* \"#utility.yul\":7158:7167   */\n      dup4\n        /* \"#utility.yul\":7154:7172   */\n      add\n        /* \"#utility.yul\":7145:7151   */\n      dup7\n        /* \"#utility.yul\":7101:7173   */\n      tag_267\n      jump\t// in\n    tag_424:\n        /* \"#utility.yul\":7183:7255   */\n      tag_425\n        /* \"#utility.yul\":7251:7253   */\n      0x60\n        /* \"#utility.yul\":7240:7249   */\n      dup4\n        /* \"#utility.yul\":7236:7254   */\n      add\n        /* \"#utility.yul\":7227:7233   */\n      dup6\n        /* \"#utility.yul\":7183:7255   */\n      tag_267\n      jump\t// in\n    tag_425:\n        /* \"#utility.yul\":7265:7332   */\n      tag_426\n        /* \"#utility.yul\":7327:7330   */\n      0x80\n        /* \"#utility.yul\":7316:7325   */\n      dup4\n        /* \"#utility.yul\":7312:7331   */\n      add\n        /* \"#utility.yul\":7303:7309   */\n      dup5\n        /* \"#utility.yul\":7265:7332   */\n      tag_275\n      jump\t// in\n    tag_426:\n        /* \"#utility.yul\":6687:7339   */\n      swap7\n      swap6\n      pop\n      pop\n      pop\n      pop\n      pop\n      pop\n      jump\t// out\n        /* \"#utility.yul\":7345:7462   */\n    tag_279:\n        /* \"#utility.yul\":7454:7455   */\n      0x00\n        /* \"#utility.yul\":7451:7452   */\n      dup1\n        /* \"#utility.yul\":7444:7456   */\n      revert\n        /* \"#utility.yul\":7468:7648   */\n    tag_230:\n        /* \"#utility.yul\":7516:7593   */\n      0x4e487b7100000000000000000000000000000000000000000000000000000000\n        /* \"#utility.yul\":7513:7514   */\n      0x00\n        /* \"#utility.yul\":7506:7594   */\n      mstore\n        /* \"#utility.yul\":7613:7617   */\n      0x41\n        /* \"#utility.yul\":7610:7611   */\n      0x04\n        /* \"#utility.yul\":7603:7618   */\n      mstore\n        /* \"#utility.yul\":7637:7641   */\n      0x24\n        /* \"#utility.yul\":7634:7635   */\n      0x00\n        /* \"#utility.yul\":7627:7642   */\n      revert\n        /* \"#utility.yul\":7654:7935   */\n    tag_280:\n        /* \"#utility.yul\":7737:7764   */\n      tag_430\n        /* \"#utility.yul\":7759:7763   */\n      dup3\n        /* \"#utility.yul\":7737:7764   */\n      tag_271\n      jump\t// in\n    tag_430:\n        /* \"#utility.yul\":7729:7735   */\n      dup2\n        /* \"#utility.yul\":7725:7765   */\n      add\n        /* \"#utility.yul\":7867:7873   */\n      dup2\n        /* \"#utility.yul\":7855:7865   */\n      dup2\n        /* \"#utility.yul\":7852:7874   */\n      lt\n        /* \"#utility.yul\":7831:7849   */\n      0xffffffffffffffff\n        /* \"#utility.yul\":7819:7829   */\n      dup3\n        /* \"#utility.yul\":7816:7850   */\n      gt\n        /* \"#utility.yul\":7813:7875   */\n      or\n        /* \"#utility.yul\":7810:7898   */\n      iszero\n      tag_431\n      jumpi\n        /* \"#utility.yul\":7878:7896   */\n      tag_432\n      tag_230\n      jump\t// in\n    tag_432:\n        /* \"#utility.yul\":7810:7898   */\n    tag_431:\n        /* \"#utility.yul\":7918:7928   */\n      dup1\n        /* \"#utility.yul\":7914:7916   */\n      0x40\n        /* \"#utility.yul\":7907:7929   */\n      mstore\n        /* \"#utility.yul\":7697:7935   */\n      pop\n        /* \"#utility.yul\":7654:7935   */\n      pop\n      pop\n      jump\t// out\n        /* \"#utility.yul\":7941:8070   */\n    tag_281:\n        /* \"#utility.yul\":7975:7981   */\n      0x00\n        /* \"#utility.yul\":8002:8022   */\n      tag_434\n      tag_257\n      jump\t// in\n    tag_434:\n        /* \"#utility.yul\":7992:8022   */\n      swap1\n      pop\n        /* \"#utility.yul\":8031:8064   */\n      tag_435\n        /* \"#utility.yul\":8059:8063   */\n      dup3\n        /* \"#utility.yul\":8051:8057   */\n      dup3\n        /* \"#utility.yul\":8031:8064   */\n      tag_280\n      jump\t// in\n    tag_435:\n        /* \"#utility.yul\":7941:8070   */\n      swap2\n      swap1\n      pop\n      jump\t// out\n        /* \"#utility.yul\":8076:8397   */\n    tag_282:\n        /* \"#utility.yul\":8163:8167   */\n      0x00\n        /* \"#utility.yul\":8253:8271   */\n      0xffffffffffffffff\n        /* \"#utility.yul\":8245:8251   */\n      dup3\n        /* \"#utility.yul\":8242:8272   */\n      gt\n        /* \"#utility.yul\":8239:8295   */\n      iszero\n      tag_437\n      jumpi\n        /* \"#utility.yul\":8275:8293   */\n      tag_438\n      tag_230\n      jump\t// in\n    tag_438:\n        /* \"#utility.yul\":8239:8295   */\n    tag_437:\n        /* \"#utility.yul\":8325:8329   */\n      0x20\n        /* \"#utility.yul\":8317:8323   */\n      dup3\n        /* \"#utility.yul\":8313:8330   */\n      mul\n        /* \"#utility.yul\":8305:8330   */\n      swap1\n      pop\n        /* \"#utility.yul\":8385:8389   */\n      0x20\n        /* \"#utility.yul\":8379:8383   */\n      dup2\n        /* \"#utility.yul\":8375:8390   */\n      add\n        /* \"#utility.yul\":8367:8390   */\n      swap1\n      pop\n        /* \"#utility.yul\":8076:8397   */\n      swap2\n      swap1\n      pop\n      jump\t// out\n        /* \"#utility.yul\":8403:8520   */\n    tag_283:\n        /* \"#utility.yul\":8512:8513   */\n      0x00\n        /* \"#utility.yul\":8509:8510   */\n      dup1\n        /* \"#utility.yul\":8502:8514   */\n      revert\n        /* \"#utility.yul\":8526:8643   */\n    tag_284:\n        /* \"#utility.yul\":8635:8636   */\n      0x00\n        /* \"#utility.yul\":8632:8633   */\n      dup1\n        /* \"#utility.yul\":8625:8637   */\n      revert\n        /* \"#utility.yul\":8649:8957   */\n    tag_285:\n        /* \"#utility.yul\":8711:8715   */\n      0x00\n        /* \"#utility.yul\":8801:8819   */\n      0xffffffffffffffff\n        /* \"#utility.yul\":8793:8799   */\n      dup3\n        /* \"#utility.yul\":8790:8820   */\n      gt\n        /* \"#utility.yul\":8787:8843   */\n      iszero\n      tag_442\n      jumpi\n        /* \"#utility.yul\":8823:8841   */\n      tag_443\n      tag_230\n      jump\t// in\n    tag_443:\n        /* \"#utility.yul\":8787:8843   */\n    tag_442:\n        /* \"#utility.yul\":8861:8890   */\n      tag_444\n        /* \"#utility.yul\":8883:8889   */\n      dup3\n        /* \"#utility.yul\":8861:8890   */\n      tag_271\n      jump\t// in\n    tag_444:\n        /* \"#utility.yul\":8853:8890   */\n      swap1\n      pop\n        /* \"#utility.yul\":8945:8949   */\n      0x20\n        /* \"#utility.yul\":8939:8943   */\n      dup2\n        /* \"#utility.yul\":8935:8950   */\n      add\n        /* \"#utility.yul\":8927:8950   */\n      swap1\n      pop\n        /* \"#utility.yul\":8649:8957   */\n      swap2\n      swap1\n      pop\n      jump\t// out\n        /* \"#utility.yul\":8963:9109   */\n    tag_286:\n        /* \"#utility.yul\":9060:9066   */\n      dup3\n        /* \"#utility.yul\":9055:9058   */\n      dup2\n        /* \"#utility.yul\":9050:9053   */\n      dup4\n        /* \"#utility.yul\":9037:9067   */\n      calldatacopy\n        /* \"#utility.yul\":9101:9102   */\n      0x00\n        /* \"#utility.yul\":9092:9098   */\n      dup4\n        /* \"#utility.yul\":9087:9090   */\n      dup4\n        /* \"#utility.yul\":9083:9099   */\n      add\n        /* \"#utility.yul\":9076:9103   */\n      mstore\n        /* \"#utility.yul\":8963:9109   */\n      pop\n      pop\n      pop\n      jump\t// out\n        /* \"#utility.yul\":9115:9540   */\n    tag_287:\n        /* \"#utility.yul\":9193:9198   */\n      0x00\n        /* \"#utility.yul\":9218:9284   */\n      tag_447\n        /* \"#utility.yul\":9234:9283   */\n      tag_448\n        /* \"#utility.yul\":9276:9282   */\n      dup5\n        /* \"#utility.yul\":9234:9283   */\n      tag_285\n      jump\t// in\n    tag_448:\n        /* \"#utility.yul\":9218:9284   */\n      tag_281\n      jump\t// in\n    tag_447:\n        /* \"#utility.yul\":9209:9284   */\n      swap1\n      pop\n        /* \"#utility.yul\":9307:9313   */\n      dup3\n        /* \"#utility.yul\":9300:9305   */\n      dup2\n        /* \"#utility.yul\":9293:9314   */\n      mstore\n        /* \"#utility.yul\":9345:9349   */\n      0x20\n        /* \"#utility.yul\":9338:9343   */\n      dup2\n        /* \"#utility.yul\":9334:9350   */\n      add\n        /* \"#utility.yul\":9383:9386   */\n      dup5\n        /* \"#utility.yul\":9374:9380   */\n      dup5\n        /* \"#utility.yul\":9369:9372   */\n      dup5\n        /* \"#utility.yul\":9365:9381   */\n      add\n        /* \"#utility.yul\":9362:9387   */\n      gt\n        /* \"#utility.yul\":9359:9471   */\n      iszero\n      tag_449\n      jumpi\n        /* \"#utility.yul\":9390:9469   */\n      tag_450\n      tag_284\n      jump\t// in\n    tag_450:\n        /* \"#utility.yul\":9359:9471   */\n    tag_449:\n        /* \"#utility.yul\":9480:9534   */\n      tag_451\n        /* \"#utility.yul\":9527:9533   */\n      dup5\n        /* \"#utility.yul\":9522:9525   */\n      dup3\n        /* \"#utility.yul\":9517:9520   */\n      dup6\n        /* \"#utility.yul\":9480:9534   */\n      tag_286\n      jump\t// in\n    tag_451:\n        /* \"#utility.yul\":9199:9540   */\n      pop\n        /* \"#utility.yul\":9115:9540   */\n      swap4\n      swap3\n      pop\n      pop\n      pop\n      jump\t// out\n        /* \"#utility.yul\":9560:9900   */\n    tag_288:\n        /* \"#utility.yul\":9616:9621   */\n      0x00\n        /* \"#utility.yul\":9665:9668   */\n      dup3\n        /* \"#utility.yul\":9658:9662   */\n      0x1f\n        /* \"#utility.yul\":9650:9656   */\n      dup4\n        /* \"#utility.yul\":9646:9663   */\n      add\n        /* \"#utility.yul\":9642:9669   */\n      slt\n        /* \"#utility.yul\":9632:9754   */\n      tag_453\n      jumpi\n        /* \"#utility.yul\":9673:9752   */\n      tag_454\n      tag_279\n      jump\t// in\n    tag_454:\n        /* \"#utility.yul\":9632:9754   */\n    tag_453:\n        /* \"#utility.yul\":9790:9796   */\n      dup2\n        /* \"#utility.yul\":9777:9797   */\n      calldataload\n        /* \"#utility.yul\":9815:9894   */\n      tag_455\n        /* \"#utility.yul\":9890:9893   */\n      dup5\n        /* \"#utility.yul\":9882:9888   */\n      dup3\n        /* \"#utility.yul\":9875:9879   */\n      0x20\n        /* \"#utility.yul\":9867:9873   */\n      dup7\n        /* \"#utility.yul\":9863:9880   */\n      add\n        /* \"#utility.yul\":9815:9894   */\n      tag_287\n      jump\t// in\n    tag_455:\n        /* \"#utility.yul\":9806:9894   */\n      swap2\n      pop\n        /* \"#utility.yul\":9622:9900   */\n      pop\n        /* \"#utility.yul\":9560:9900   */\n      swap3\n      swap2\n      pop\n      pop\n      jump\t// out\n        /* \"#utility.yul\":9922:10867   */\n    tag_289:\n        /* \"#utility.yul\":10028:10033   */\n      0x00\n        /* \"#utility.yul\":10053:10144   */\n      tag_457\n        /* \"#utility.yul\":10069:10143   */\n      tag_458\n        /* \"#utility.yul\":10136:10142   */\n      dup5\n        /* \"#utility.yul\":10069:10143   */\n      tag_282\n      jump\t// in\n    tag_458:\n        /* \"#utility.yul\":10053:10144   */\n      tag_281\n      jump\t// in\n    tag_457:\n        /* \"#utility.yul\":10044:10144   */\n      swap1\n      pop\n        /* \"#utility.yul\":10164:10169   */\n      dup1\n        /* \"#utility.yul\":10193:10199   */\n      dup4\n        /* \"#utility.yul\":10186:10191   */\n      dup3\n        /* \"#utility.yul\":10179:10200   */\n      mstore\n        /* \"#utility.yul\":10227:10231   */\n      0x20\n        /* \"#utility.yul\":10220:10225   */\n      dup3\n        /* \"#utility.yul\":10216:10232   */\n      add\n        /* \"#utility.yul\":10209:10232   */\n      swap1\n      pop\n        /* \"#utility.yul\":10280:10284   */\n      0x20\n        /* \"#utility.yul\":10272:10278   */\n      dup5\n        /* \"#utility.yul\":10268:10285   */\n      mul\n        /* \"#utility.yul\":10260:10266   */\n      dup4\n        /* \"#utility.yul\":10256:10286   */\n      add\n        /* \"#utility.yul\":10309:10312   */\n      dup6\n        /* \"#utility.yul\":10301:10307   */\n      dup2\n        /* \"#utility.yul\":10298:10313   */\n      gt\n        /* \"#utility.yul\":10295:10417   */\n      iszero\n      tag_459\n      jumpi\n        /* \"#utility.yul\":10328:10407   */\n      tag_460\n      tag_283\n      jump\t// in\n    tag_460:\n        /* \"#utility.yul\":10295:10417   */\n    tag_459:\n        /* \"#utility.yul\":10443:10449   */\n      dup4\n        /* \"#utility.yul\":10426:10861   */\n    tag_461:\n        /* \"#utility.yul\":10460:10466   */\n      dup2\n        /* \"#utility.yul\":10455:10458   */\n      dup2\n        /* \"#utility.yul\":10452:10467   */\n      lt\n        /* \"#utility.yul\":10426:10861   */\n      iszero\n      tag_463\n      jumpi\n        /* \"#utility.yul\":10549:10552   */\n      dup1\n        /* \"#utility.yul\":10536:10553   */\n      calldataload\n        /* \"#utility.yul\":10585:10603   */\n      0xffffffffffffffff\n        /* \"#utility.yul\":10572:10583   */\n      dup2\n        /* \"#utility.yul\":10569:10604   */\n      gt\n        /* \"#utility.yul\":10566:10688   */\n      iszero\n      tag_464\n      jumpi\n        /* \"#utility.yul\":10607:10686   */\n      tag_465\n      tag_279\n      jump\t// in\n    tag_465:\n        /* \"#utility.yul\":10566:10688   */\n    tag_464:\n        /* \"#utility.yul\":10731:10742   */\n      dup1\n        /* \"#utility.yul\":10723:10729   */\n      dup7\n        /* \"#utility.yul\":10719:10743   */\n      add\n        /* \"#utility.yul\":10769:10816   */\n      tag_466\n        /* \"#utility.yul\":10812:10815   */\n      dup10\n        /* \"#utility.yul\":10800:10810   */\n      dup3\n        /* \"#utility.yul\":10769:10816   */\n      tag_288\n      jump\t// in\n    tag_466:\n        /* \"#utility.yul\":10764:10767   */\n      dup6\n        /* \"#utility.yul\":10757:10817   */\n      mstore\n        /* \"#utility.yul\":10846:10850   */\n      0x20\n        /* \"#utility.yul\":10841:10844   */\n      dup6\n        /* \"#utility.yul\":10837:10851   */\n      add\n        /* \"#utility.yul\":10830:10851   */\n      swap5\n      pop\n        /* \"#utility.yul\":10502:10861   */\n      pop\n      pop\n        /* \"#utility.yul\":10486:10490   */\n      0x20\n        /* \"#utility.yul\":10481:10484   */\n      dup2\n        /* \"#utility.yul\":10477:10491   */\n      add\n        /* \"#utility.yul\":10470:10491   */\n      swap1\n      pop\n        /* \"#utility.yul\":10426:10861   */\n      jump(tag_461)\n    tag_463:\n        /* \"#utility.yul\":10430:10451   */\n      pop\n        /* \"#utility.yul\":10034:10867   */\n      pop\n      pop\n        /* \"#utility.yul\":9922:10867   */\n      swap4\n      swap3\n      pop\n      pop\n      pop\n      jump\t// out\n        /* \"#utility.yul\":10889:11279   */\n    tag_290:\n        /* \"#utility.yul\":10970:10975   */\n      0x00\n        /* \"#utility.yul\":11019:11022   */\n      dup3\n        /* \"#utility.yul\":11012:11016   */\n      0x1f\n        /* \"#utility.yul\":11004:11010   */\n      dup4\n        /* \"#utility.yul\":11000:11017   */\n      add\n        /* \"#utility.yul\":10996:11023   */\n      slt\n        /* \"#utility.yul\":10986:11108   */\n      tag_468\n      jumpi\n        /* \"#utility.yul\":11027:11106   */\n      tag_469\n      tag_279\n      jump\t// in\n    tag_469:\n        /* \"#utility.yul\":10986:11108   */\n    tag_468:\n        /* \"#utility.yul\":11144:11150   */\n      dup2\n        /* \"#utility.yul\":11131:11151   */\n      calldataload\n        /* \"#utility.yul\":11169:11273   */\n      tag_470\n        /* \"#utility.yul\":11269:11272   */\n      dup5\n        /* \"#utility.yul\":11261:11267   */\n      dup3\n        /* \"#utility.yul\":11254:11258   */\n      0x20\n        /* \"#utility.yul\":11246:11252   */\n      dup7\n        /* \"#utility.yul\":11242:11259   */\n      add\n        /* \"#utility.yul\":11169:11273   */\n      tag_289\n      jump\t// in\n    tag_470:\n        /* \"#utility.yul\":11160:11273   */\n      swap2\n      pop\n        /* \"#utility.yul\":10976:11279   */\n      pop\n        /* \"#utility.yul\":10889:11279   */\n      swap3\n      swap2\n      pop\n      pop\n      jump\t// out\n        /* \"#utility.yul\":11285:12134   */\n    tag_104:\n        /* \"#utility.yul\":11397:11403   */\n      0x00\n        /* \"#utility.yul\":11405:11411   */\n      dup1\n        /* \"#utility.yul\":11413:11419   */\n      0x00\n        /* \"#utility.yul\":11462:11464   */\n      0x60\n        /* \"#utility.yul\":11450:11459   */\n      dup5\n        /* \"#utility.yul\":11441:11448   */\n      dup7\n        /* \"#utility.yul\":11437:11460   */\n      sub\n        /* \"#utility.yul\":11433:11465   */\n      slt\n        /* \"#utility.yul\":11430:11549   */\n      iszero\n      tag_472\n      jumpi\n        /* \"#utility.yul\":11468:11547   */\n      tag_473\n      tag_258\n      jump\t// in\n    tag_473:\n        /* \"#utility.yul\":11430:11549   */\n    tag_472:\n        /* \"#utility.yul\":11588:11589   */\n      0x00\n        /* \"#utility.yul\":11613:11666   */\n      tag_474\n        /* \"#utility.yul\":11658:11665   */\n      dup7\n        /* \"#utility.yul\":11649:11655   */\n      dup3\n        /* \"#utility.yul\":11638:11647   */\n      dup8\n        /* \"#utility.yul\":11634:11656   */\n      add\n        /* \"#utility.yul\":11613:11666   */\n      tag_262\n      jump\t// in\n    tag_474:\n        /* \"#utility.yul\":11603:11666   */\n      swap4\n      pop\n        /* \"#utility.yul\":11559:11676   */\n      pop\n        /* \"#utility.yul\":11715:11717   */\n      0x20\n        /* \"#utility.yul\":11741:11794   */\n      tag_475\n        /* \"#utility.yul\":11786:11793   */\n      dup7\n        /* \"#utility.yul\":11777:11783   */\n      dup3\n        /* \"#utility.yul\":11766:11775   */\n      dup8\n        /* \"#utility.yul\":11762:11784   */\n      add\n        /* \"#utility.yul\":11741:11794   */\n      tag_262\n      jump\t// in\n    tag_475:\n        /* \"#utility.yul\":11731:11794   */\n      swap3\n      pop\n        /* \"#utility.yul\":11686:11804   */\n      pop\n        /* \"#utility.yul\":11871:11873   */\n      0x40\n        /* \"#utility.yul\":11860:11869   */\n      dup5\n        /* \"#utility.yul\":11856:11874   */\n      add\n        /* \"#utility.yul\":11843:11875   */\n      calldataload\n        /* \"#utility.yul\":11902:11920   */\n      0xffffffffffffffff\n        /* \"#utility.yul\":11894:11900   */\n      dup2\n        /* \"#utility.yul\":11891:11921   */\n      gt\n        /* \"#utility.yul\":11888:12005   */\n      iszero\n      tag_476\n      jumpi\n        /* \"#utility.yul\":11924:12003   */\n      tag_477\n      tag_259\n      jump\t// in\n    tag_477:\n        /* \"#utility.yul\":11888:12005   */\n    tag_476:\n        /* \"#utility.yul\":12029:12117   */\n      tag_478\n        /* \"#utility.yul\":12109:12116   */\n      dup7\n        /* \"#utility.yul\":12100:12106   */\n      dup3\n        /* \"#utility.yul\":12089:12098   */\n      dup8\n        /* \"#utility.yul\":12085:12107   */\n      add\n        /* \"#utility.yul\":12029:12117   */\n      tag_290\n      jump\t// in\n    tag_478:\n        /* \"#utility.yul\":12019:12117   */\n      swap2\n      pop\n        /* \"#utility.yul\":11814:12127   */\n      pop\n        /* \"#utility.yul\":11285:12134   */\n      swap3\n      pop\n      swap3\n      pop\n      swap3\n      jump\t// out\n        /* \"#utility.yul\":12140:12320   */\n    tag_291:\n        /* \"#utility.yul\":12188:12265   */\n      0x4e487b7100000000000000000000000000000000000000000000000000000000\n        /* \"#utility.yul\":12185:12186   */\n      0x00\n        /* \"#utility.yul\":12178:12266   */\n      mstore\n        /* \"#utility.yul\":12285:12289   */\n      0x22\n        /* \"#utility.yul\":12282:12283   */\n      0x04\n        /* \"#utility.yul\":12275:12290   */\n      mstore\n        /* \"#utility.yul\":12309:12313   */\n      0x24\n        /* \"#utility.yul\":12306:12307   */\n      0x00\n        /* \"#utility.yul\":12299:12314   */\n      revert\n        /* \"#utility.yul\":12326:12646   */\n    tag_117:\n        /* \"#utility.yul\":12370:12376   */\n      0x00\n        /* \"#utility.yul\":12407:12408   */\n      0x02\n        /* \"#utility.yul\":12401:12405   */\n      dup3\n        /* \"#utility.yul\":12397:12409   */\n      div\n        /* \"#utility.yul\":12387:12409   */\n      swap1\n      pop\n        /* \"#utility.yul\":12454:12455   */\n      0x01\n        /* \"#utility.yul\":12448:12452   */\n      dup3\n        /* \"#utility.yul\":12444:12456   */\n      and\n        /* \"#utility.yul\":12475:12493   */\n      dup1\n        /* \"#utility.yul\":12465:12546   */\n      tag_481\n      jumpi\n        /* \"#utility.yul\":12531:12535   */\n      0x7f\n        /* \"#utility.yul\":12523:12529   */\n      dup3\n        /* \"#utility.yul\":12519:12536   */\n      and\n        /* \"#utility.yul\":12509:12536   */\n      swap2\n      pop\n        /* \"#utility.yul\":12465:12546   */\n    tag_481:\n        /* \"#utility.yul\":12593:12595   */\n      0x20\n        /* \"#utility.yul\":12585:12591   */\n      dup3\n        /* \"#utility.yul\":12582:12596   */\n      lt\n        /* \"#utility.yul\":12562:12580   */\n      dup2\n        /* \"#utility.yul\":12559:12597   */\n      sub\n        /* \"#utility.yul\":12556:12640   */\n      tag_482\n      jumpi\n        /* \"#utility.yul\":12612:12630   */\n      tag_483\n      tag_291\n      jump\t// in\n    tag_483:\n        /* \"#utility.yul\":12556:12640   */\n    tag_482:\n        /* \"#utility.yul\":12377:12646   */\n      pop\n        /* \"#utility.yul\":12326:12646   */\n      swap2\n      swap1\n      pop\n      jump\t// out\n        /* \"#utility.yul\":12652:12832   */\n    tag_125:\n        /* \"#utility.yul\":12700:12777   */\n      0x4e487b7100000000000000000000000000000000000000000000000000000000\n        /* \"#utility.yul\":12697:12698   */\n      0x00\n        /* \"#utility.yul\":12690:12778   */\n      mstore\n        /* \"#utility.yul\":12797:12801   */\n      0x32\n        /* \"#utility.yul\":12794:12795   */\n      0x04\n        /* \"#utility.yul\":12787:12802   */\n      mstore\n        /* \"#utility.yul\":12821:12825   */\n      0x24\n        /* \"#utility.yul\":12818:12819   */\n      0x00\n        /* \"#utility.yul\":12811:12826   */\n      revert\n        /* \"#utility.yul\":12838:13001   */\n    tag_292:\n        /* \"#utility.yul\":12978:12993   */\n      0x416c726561647920766f74656400000000000000000000000000000000000000\n        /* \"#utility.yul\":12974:12975   */\n      0x00\n        /* \"#utility.yul\":12966:12972   */\n      dup3\n        /* \"#utility.yul\":12962:12976   */\n      add\n        /* \"#utility.yul\":12955:12994   */\n      mstore\n        /* \"#utility.yul\":12838:13001   */\n      pop\n      jump\t// out\n        /* \"#utility.yul\":13007:13373   */\n    tag_293:\n        /* \"#utility.yul\":13149:13152   */\n      0x00\n        /* \"#utility.yul\":13170:13237   */\n      tag_487\n        /* \"#utility.yul\":13234:13236   */\n      0x0d\n        /* \"#utility.yul\":13229:13232   */\n      dup4\n        /* \"#utility.yul\":13170:13237   */\n      tag_269\n      jump\t// in\n    tag_487:\n        /* \"#utility.yul\":13163:13237   */\n      swap2\n      pop\n        /* \"#utility.yul\":13246:13339   */\n      tag_488\n        /* \"#utility.yul\":13335:13338   */\n      dup3\n        /* \"#utility.yul\":13246:13339   */\n      tag_292\n      jump\t// in\n    tag_488:\n        /* \"#utility.yul\":13364:13366   */\n      0x20\n        /* \"#utility.yul\":13359:13362   */\n      dup3\n        /* \"#utility.yul\":13355:13367   */\n      add\n        /* \"#utility.yul\":13348:13367   */\n      swap1\n      pop\n        /* \"#utility.yul\":13007:13373   */\n      swap2\n      swap1\n      pop\n      jump\t// out\n        /* \"#utility.yul\":13379:13798   */\n    tag_129:\n        /* \"#utility.yul\":13545:13549   */\n      0x00\n        /* \"#utility.yul\":13583:13585   */\n      0x20\n        /* \"#utility.yul\":13572:13581   */\n      dup3\n        /* \"#utility.yul\":13568:13586   */\n      add\n        /* \"#utility.yul\":13560:13586   */\n      swap1\n      pop\n        /* \"#utility.yul\":13632:13641   */\n      dup2\n        /* \"#utility.yul\":13626:13630   */\n      dup2\n        /* \"#utility.yul\":13622:13642   */\n      sub\n        /* \"#utility.yul\":13618:13619   */\n      0x00\n        /* \"#utility.yul\":13607:13616   */\n      dup4\n        /* \"#utility.yul\":13603:13620   */\n      add\n        /* \"#utility.yul\":13596:13643   */\n      mstore\n        /* \"#utility.yul\":13660:13791   */\n      tag_490\n        /* \"#utility.yul\":13786:13790   */\n      dup2\n        /* \"#utility.yul\":13660:13791   */\n      tag_293\n      jump\t// in\n    tag_490:\n        /* \"#utility.yul\":13652:13791   */\n      swap1\n      pop\n        /* \"#utility.yul\":13379:13798   */\n      swap2\n      swap1\n      pop\n      jump\t// out\n        /* \"#utility.yul\":13804:13968   */\n    tag_294:\n        /* \"#utility.yul\":13944:13960   */\n      0x506f6c6c20697320636c6f736564000000000000000000000000000000000000\n        /* \"#utility.yul\":13940:13941   */\n      0x00\n        /* \"#utility.yul\":13932:13938   */\n      dup3\n        /* \"#utility.yul\":13928:13942   */\n      add\n        /* \"#utility.yul\":13921:13961   */\n      mstore\n        /* \"#utility.yul\":13804:13968   */\n      pop\n      jump\t// out\n        /* \"#utility.yul\":13974:14340   */\n    tag_295:\n        /* \"#utility.yul\":14116:14119   */\n      0x00\n        /* \"#utility.yul\":14137:14204   */\n      tag_493\n        /* \"#utility.yul\":14201:14203   */\n      0x0e\n        /* \"#utility.yul\":14196:14199   */\n      dup4\n        /* \"#utility.yul\":14137:14204   */\n      tag_269\n      jump\t// in\n    tag_493:\n        /* \"#utility.yul\":14130:14204   */\n      swap2\n      pop\n        /* \"#utility.yul\":14213:14306   */\n      tag_494\n        /* \"#utility.yul\":14302:14305   */\n      dup3\n        /* \"#utility.yul\":14213:14306   */\n      tag_294\n      jump\t// in\n    tag_494:\n        /* \"#utility.yul\":14331:14333   */\n      0x20\n        /* \"#utility.yul\":14326:14329   */\n      dup3\n        /* \"#utility.yul\":14322:14334   */\n      add\n        /* \"#utility.yul\":14315:14334   */\n      swap1\n      pop\n        /* \"#utility.yul\":13974:14340   */\n      swap2\n      swap1\n      pop\n      jump\t// out\n        /* \"#utility.yul\":14346:14765   */\n    tag_132:\n        /* \"#utility.yul\":14512:14516   */\n      0x00\n        /* \"#utility.yul\":14550:14552   */\n      0x20\n        /* \"#utility.yul\":14539:14548   */\n      dup3\n        /* \"#utility.yul\":14535:14553   */\n      add\n        /* \"#utility.yul\":14527:14553   */\n      swap1\n      pop\n        /* \"#utility.yul\":14599:14608   */\n      dup2\n        /* \"#utility.yul\":14593:14597   */\n      dup2\n        /* \"#utility.yul\":14589:14609   */\n      sub\n        /* \"#utility.yul\":14585:14586   */\n      0x00\n        /* \"#utility.yul\":14574:14583   */\n      dup4\n        /* \"#utility.yul\":14570:14587   */\n      add\n        /* \"#utility.yul\":14563:14610   */\n      mstore\n        /* \"#utility.yul\":14627:14758   */\n      tag_496\n        /* \"#utility.yul\":14753:14757   */\n      dup2\n        /* \"#utility.yul\":14627:14758   */\n      tag_295\n      jump\t// in\n    tag_496:\n        /* \"#utility.yul\":14619:14758   */\n      swap1\n      pop\n        /* \"#utility.yul\":14346:14765   */\n      swap2\n      swap1\n      pop\n      jump\t// out\n        /* \"#utility.yul\":14771:14939   */\n    tag_296:\n        /* \"#utility.yul\":14911:14931   */\n      0x506f6c6c206973206e6f74206163746976650000000000000000000000000000\n        /* \"#utility.yul\":14907:14908   */\n      0x00\n        /* \"#utility.yul\":14899:14905   */\n      dup3\n        /* \"#utility.yul\":14895:14909   */\n      add\n        /* \"#utility.yul\":14888:14932   */\n      mstore\n        /* \"#utility.yul\":14771:14939   */\n      pop\n      jump\t// out\n        /* \"#utility.yul\":14945:15311   */\n    tag_297:\n        /* \"#utility.yul\":15087:15090   */\n      0x00\n        /* \"#utility.yul\":15108:15175   */\n      tag_499\n        /* \"#utility.yul\":15172:15174   */\n      0x12\n        /* \"#utility.yul\":15167:15170   */\n      dup4\n        /* \"#utility.yul\":15108:15175   */\n      tag_269\n      jump\t// in\n    tag_499:\n        /* \"#utility.yul\":15101:15175   */\n      swap2\n      pop\n        /* \"#utility.yul\":15184:15277   */\n      tag_500\n        /* \"#utility.yul\":15273:15276   */\n      dup3\n        /* \"#utility.yul\":15184:15277   */\n      tag_296\n      jump\t// in\n    tag_500:\n        /* \"#utility.yul\":15302:15304   */\n      0x20\n        /* \"#utility.yul\":15297:15300   */\n      dup3\n        /* \"#utility.yul\":15293:15305   */\n      add\n        /* \"#utility.yul\":15286:15305   */\n      swap1\n      pop\n        /* \"#utility.yul\":14945:15311   */\n      swap2\n      swap1\n      pop\n      jump\t// out\n        /* \"#utility.yul\":15317:15736   */\n    tag_136:\n        /* \"#utility.yul\":15483:15487   */\n      0x00\n        /* \"#utility.yul\":15521:15523   */\n      0x20\n        /* \"#utility.yul\":15510:15519   */\n      dup3\n        /* \"#utility.yul\":15506:15524   */\n      add\n        /* \"#utility.yul\":15498:15524   */\n      swap1\n      pop\n        /* \"#utility.yul\":15570:15579   */\n      dup2\n        /* \"#utility.yul\":15564:15568   */\n      dup2\n        /* \"#utility.yul\":15560:15580   */\n      sub\n        /* \"#utility.yul\":15556:15557   */\n      0x00\n        /* \"#utility.yul\":15545:15554   */\n      dup4\n        /* \"#utility.yul\":15541:15558   */\n      add\n        /* \"#utility.yul\":15534:15581   */\n      mstore\n        /* \"#utility.yul\":15598:15729   */\n      tag_502\n        /* \"#utility.yul\":15724:15728   */\n      dup2\n        /* \"#utility.yul\":15598:15729   */\n      tag_297\n      jump\t// in\n    tag_502:\n        /* \"#utility.yul\":15590:15729   */\n      swap1\n      pop\n        /* \"#utility.yul\":15317:15736   */\n      swap2\n      swap1\n      pop\n      jump\t// out\n        /* \"#utility.yul\":15742:15906   */\n    tag_298:\n        /* \"#utility.yul\":15882:15898   */\n      0x496e76616c69642063686f696365000000000000000000000000000000000000\n        /* \"#utility.yul\":15878:15879   */\n      0x00\n        /* \"#utility.yul\":15870:15876   */\n      dup3\n        /* \"#utility.yul\":15866:15880   */\n      add\n        /* \"#utility.yul\":15859:15899   */\n      mstore\n        /* \"#utility.yul\":15742:15906   */\n      pop\n      jump\t// out\n        /* \"#utility.yul\":15912:16278   */\n    tag_299:\n        /* \"#utility.yul\":16054:16057   */\n      0x00\n        /* \"#utility.yul\":16075:16142   */\n      tag_505\n        /* \"#utility.yul\":16139:16141   */\n      0x0e\n        /* \"#utility.yul\":16134:16137   */\n      dup4\n        /* \"#utility.yul\":16075:16142   */\n      tag_269\n      jump\t// in\n    tag_505:\n        /* \"#utility.yul\":16068:16142   */\n      swap2\n      pop\n        /* \"#utility.yul\":16151:16244   */\n      tag_506\n        /* \"#utility.yul\":16240:16243   */\n      dup3\n        /* \"#utility.yul\":16151:16244   */\n      tag_298\n      jump\t// in\n    tag_506:\n        /* \"#utility.yul\":16269:16271   */\n      0x20\n        /* \"#utility.yul\":16264:16267   */\n      dup3\n        /* \"#utility.yul\":16260:16272   */\n      add\n        /* \"#utility.yul\":16253:16272   */\n      swap1\n      pop\n        /* \"#utility.yul\":15912:16278   */\n      swap2\n      swap1\n      pop\n      jump\t// out\n        /* \"#utility.yul\":16284:16703   */\n    tag_140:\n        /* \"#utility.yul\":16450:16454   */\n      0x00\n        /* \"#utility.yul\":16488:16490   */\n      0x20\n        /* \"#utility.yul\":16477:16486   */\n      dup3\n        /* \"#utility.yul\":16473:16491   */\n      add\n        /* \"#utility.yul\":16465:16491   */\n      swap1\n      pop\n        /* \"#utility.yul\":16537:16546   */\n      dup2\n        /* \"#utility.yul\":16531:16535   */\n      dup2\n        /* \"#utility.yul\":16527:16547   */\n      sub\n        /* \"#utility.yul\":16523:16524   */\n      0x00\n        /* \"#utility.yul\":16512:16521   */\n      dup4\n        /* \"#utility.yul\":16508:16525   */\n      add\n        /* \"#utility.yul\":16501:16548   */\n      mstore\n        /* \"#utility.yul\":16565:16696   */\n      tag_508\n        /* \"#utility.yul\":16691:16695   */\n      dup2\n        /* \"#utility.yul\":16565:16696   */\n      tag_299\n      jump\t// in\n    tag_508:\n        /* \"#utility.yul\":16557:16696   */\n      swap1\n      pop\n        /* \"#utility.yul\":16284:16703   */\n      swap2\n      swap1\n      pop\n      jump\t// out\n        /* \"#utility.yul\":16709:16942   */\n    tag_300:\n        /* \"#utility.yul\":16849:16883   */\n      0x506f6c6c20686173206e6f742073746172746564207965742c20796f75206361\n        /* \"#utility.yul\":16845:16846   */\n      0x00\n        /* \"#utility.yul\":16837:16843   */\n      dup3\n        /* \"#utility.yul\":16833:16847   */\n      add\n        /* \"#utility.yul\":16826:16884   */\n      mstore\n        /* \"#utility.yul\":16918:16934   */\n      0x6e6e6f7420626574206f6e206974000000000000000000000000000000000000\n        /* \"#utility.yul\":16913:16915   */\n      0x20\n        /* \"#utility.yul\":16905:16911   */\n      dup3\n        /* \"#utility.yul\":16901:16916   */\n      add\n        /* \"#utility.yul\":16894:16935   */\n      mstore\n        /* \"#utility.yul\":16709:16942   */\n      pop\n      jump\t// out\n        /* \"#utility.yul\":16948:17314   */\n    tag_301:\n        /* \"#utility.yul\":17090:17093   */\n      0x00\n        /* \"#utility.yul\":17111:17178   */\n      tag_511\n        /* \"#utility.yul\":17175:17177   */\n      0x2e\n        /* \"#utility.yul\":17170:17173   */\n      dup4\n        /* \"#utility.yul\":17111:17178   */\n      tag_269\n      jump\t// in\n    tag_511:\n        /* \"#utility.yul\":17104:17178   */\n      swap2\n      pop\n        /* \"#utility.yul\":17187:17280   */\n      tag_512\n        /* \"#utility.yul\":17276:17279   */\n      dup3\n        /* \"#utility.yul\":17187:17280   */\n      tag_300\n      jump\t// in\n    tag_512:\n        /* \"#utility.yul\":17305:17307   */\n      0x40\n        /* \"#utility.yul\":17300:17303   */\n      dup3\n        /* \"#utility.yul\":17296:17308   */\n      add\n        /* \"#utility.yul\":17289:17308   */\n      swap1\n      pop\n        /* \"#utility.yul\":16948:17314   */\n      swap2\n      swap1\n      pop\n      jump\t// out\n        /* \"#utility.yul\":17320:17739   */\n    tag_152:\n        /* \"#utility.yul\":17486:17490   */\n      0x00\n        /* \"#utility.yul\":17524:17526   */\n      0x20\n        /* \"#utility.yul\":17513:17522   */\n      dup3\n        /* \"#utility.yul\":17509:17527   */\n      add\n        /* \"#utility.yul\":17501:17527   */\n      swap1\n      pop\n        /* \"#utility.yul\":17573:17582   */\n      dup2\n        /* \"#utility.yul\":17567:17571   */\n      dup2\n        /* \"#utility.yul\":17563:17583   */\n      sub\n        /* \"#utility.yul\":17559:17560   */\n      0x00\n        /* \"#utility.yul\":17548:17557   */\n      dup4\n        /* \"#utility.yul\":17544:17561   */\n      add\n        /* \"#utility.yul\":17537:17584   */\n      mstore\n        /* \"#utility.yul\":17601:17732   */\n      tag_514\n        /* \"#utility.yul\":17727:17731   */\n      dup2\n        /* \"#utility.yul\":17601:17732   */\n      tag_301\n      jump\t// in\n    tag_514:\n        /* \"#utility.yul\":17593:17732   */\n      swap1\n      pop\n        /* \"#utility.yul\":17320:17739   */\n      swap2\n      swap1\n      pop\n      jump\t// out\n        /* \"#utility.yul\":17745:17976   */\n    tag_302:\n        /* \"#utility.yul\":17885:17919   */\n      0x506f6c6c2068617320656e6465642c20796f752063616e6e6f7420626574206f\n        /* \"#utility.yul\":17881:17882   */\n      0x00\n        /* \"#utility.yul\":17873:17879   */\n      dup3\n        /* \"#utility.yul\":17869:17883   */\n      add\n        /* \"#utility.yul\":17862:17920   */\n      mstore\n        /* \"#utility.yul\":17954:17968   */\n      0x6e20697420616e796d6f72650000000000000000000000000000000000000000\n        /* \"#utility.yul\":17949:17951   */\n      0x20\n        /* \"#utility.yul\":17941:17947   */\n      dup3\n        /* \"#utility.yul\":17937:17952   */\n      add\n        /* \"#utility.yul\":17930:17969   */\n      mstore\n        /* \"#utility.yul\":17745:17976   */\n      pop\n      jump\t// out\n        /* \"#utility.yul\":17982:18348   */\n    tag_303:\n        /* \"#utility.yul\":18124:18127   */\n      0x00\n        /* \"#utility.yul\":18145:18212   */\n      tag_517\n        /* \"#utility.yul\":18209:18211   */\n      0x2c\n        /* \"#utility.yul\":18204:18207   */\n      dup4\n        /* \"#utility.yul\":18145:18212   */\n      tag_269\n      jump\t// in\n    tag_517:\n        /* \"#utility.yul\":18138:18212   */\n      swap2\n      pop\n        /* \"#utility.yul\":18221:18314   */\n      tag_518\n        /* \"#utility.yul\":18310:18313   */\n      dup3\n        /* \"#utility.yul\":18221:18314   */\n      tag_302\n      jump\t// in\n    tag_518:\n        /* \"#utility.yul\":18339:18341   */\n      0x40\n        /* \"#utility.yul\":18334:18337   */\n      dup3\n        /* \"#utility.yul\":18330:18342   */\n      add\n        /* \"#utility.yul\":18323:18342   */\n      swap1\n      pop\n        /* \"#utility.yul\":17982:18348   */\n      swap2\n      swap1\n      pop\n      jump\t// out\n        /* \"#utility.yul\":18354:18773   */\n    tag_158:\n        /* \"#utility.yul\":18520:18524   */\n      0x00\n        /* \"#utility.yul\":18558:18560   */\n      0x20\n        /* \"#utility.yul\":18547:18556   */\n      dup3\n        /* \"#utility.yul\":18543:18561   */\n      add\n        /* \"#utility.yul\":18535:18561   */\n      swap1\n      pop\n        /* \"#utility.yul\":18607:18616   */\n      dup2\n        /* \"#utility.yul\":18601:18605   */\n      dup2\n        /* \"#utility.yul\":18597:18617   */\n      sub\n        /* \"#utility.yul\":18593:18594   */\n      0x00\n        /* \"#utility.yul\":18582:18591   */\n      dup4\n        /* \"#utility.yul\":18578:18595   */\n      add\n        /* \"#utility.yul\":18571:18618   */\n      mstore\n        /* \"#utility.yul\":18635:18766   */\n      tag_520\n        /* \"#utility.yul\":18761:18765   */\n      dup2\n        /* \"#utility.yul\":18635:18766   */\n      tag_303\n      jump\t// in\n    tag_520:\n        /* \"#utility.yul\":18627:18766   */\n      swap1\n      pop\n        /* \"#utility.yul\":18354:18773   */\n      swap2\n      swap1\n      pop\n      jump\t// out\n        /* \"#utility.yul\":18779:18959   */\n    tag_304:\n        /* \"#utility.yul\":18919:18951   */\n      0x416d6f756e74206d7573742062652067726561746572207468616e2030210000\n        /* \"#utility.yul\":18915:18916   */\n      0x00\n        /* \"#utility.yul\":18907:18913   */\n      dup3\n        /* \"#utility.yul\":18903:18917   */\n      add\n        /* \"#utility.yul\":18896:18952   */\n      mstore\n        /* \"#utility.yul\":18779:18959   */\n      pop\n      jump\t// out\n        /* \"#utility.yul\":18965:19331   */\n    tag_305:\n        /* \"#utility.yul\":19107:19110   */\n      0x00\n        /* \"#utility.yul\":19128:19195   */\n      tag_523\n        /* \"#utility.yul\":19192:19194   */\n      0x1e\n        /* \"#utility.yul\":19187:19190   */\n      dup4\n        /* \"#utility.yul\":19128:19195   */\n      tag_269\n      jump\t// in\n    tag_523:\n        /* \"#utility.yul\":19121:19195   */\n      swap2\n      pop\n        /* \"#utility.yul\":19204:19297   */\n      tag_524\n        /* \"#utility.yul\":19293:19296   */\n      dup3\n        /* \"#utility.yul\":19204:19297   */\n      tag_304\n      jump\t// in\n    tag_524:\n        /* \"#utility.yul\":19322:19324   */\n      0x20\n        /* \"#utility.yul\":19317:19320   */\n      dup3\n        /* \"#utility.yul\":19313:19325   */\n      add\n        /* \"#utility.yul\":19306:19325   */\n      swap1\n      pop\n        /* \"#utility.yul\":18965:19331   */\n      swap2\n      swap1\n      pop\n      jump\t// out\n        /* \"#utility.yul\":19337:19756   */\n    tag_161:\n        /* \"#utility.yul\":19503:19507   */\n      0x00\n        /* \"#utility.yul\":19541:19543   */\n      0x20\n        /* \"#utility.yul\":19530:19539   */\n      dup3\n        /* \"#utility.yul\":19526:19544   */\n      add\n        /* \"#utility.yul\":19518:19544   */\n      swap1\n      pop\n        /* \"#utility.yul\":19590:19599   */\n      dup2\n        /* \"#utility.yul\":19584:19588   */\n      dup2\n        /* \"#utility.yul\":19580:19600   */\n      sub\n        /* \"#utility.yul\":19576:19577   */\n      0x00\n        /* \"#utility.yul\":19565:19574   */\n      dup4\n        /* \"#utility.yul\":19561:19578   */\n      add\n        /* \"#utility.yul\":19554:19601   */\n      mstore\n        /* \"#utility.yul\":19618:19749   */\n      tag_526\n        /* \"#utility.yul\":19744:19748   */\n      dup2\n        /* \"#utility.yul\":19618:19749   */\n      tag_305\n      jump\t// in\n    tag_526:\n        /* \"#utility.yul\":19610:19749   */\n      swap1\n      pop\n        /* \"#utility.yul\":19337:19756   */\n      swap2\n      swap1\n      pop\n      jump\t// out\n        /* \"#utility.yul\":19762:19909   */\n    tag_306:\n        /* \"#utility.yul\":19863:19874   */\n      0x00\n        /* \"#utility.yul\":19900:19903   */\n      dup2\n        /* \"#utility.yul\":19885:19903   */\n      swap1\n      pop\n        /* \"#utility.yul\":19762:19909   */\n      swap3\n      swap2\n      pop\n      pop\n      jump\t// out\n        /* \"#utility.yul\":19915:20059   */\n    tag_307:\n        /* \"#utility.yul\":19967:19971   */\n      0x00\n        /* \"#utility.yul\":19990:19993   */\n      dup2\n        /* \"#utility.yul\":19982:19993   */\n      swap1\n      pop\n        /* \"#utility.yul\":20013:20016   */\n      dup2\n        /* \"#utility.yul\":20010:20011   */\n      0x00\n        /* \"#utility.yul\":20003:20017   */\n      mstore\n        /* \"#utility.yul\":20047:20051   */\n      0x20\n        /* \"#utility.yul\":20044:20045   */\n      0x00\n        /* \"#utility.yul\":20034:20052   */\n      keccak256\n        /* \"#utility.yul\":20026:20052   */\n      swap1\n      pop\n        /* \"#utility.yul\":19915:20059   */\n      swap2\n      swap1\n      pop\n      jump\t// out\n        /* \"#utility.yul\":20087:20965   */\n    tag_308:\n        /* \"#utility.yul\":20192:20195   */\n      0x00\n        /* \"#utility.yul\":20229:20234   */\n      dup2\n        /* \"#utility.yul\":20223:20235   */\n      sload\n        /* \"#utility.yul\":20258:20294   */\n      tag_530\n        /* \"#utility.yul\":20284:20293   */\n      dup2\n        /* \"#utility.yul\":20258:20294   */\n      tag_117\n      jump\t// in\n    tag_530:\n        /* \"#utility.yul\":20310:20398   */\n      tag_531\n        /* \"#utility.yul\":20391:20397   */\n      dup2\n        /* \"#utility.yul\":20386:20389   */\n      dup7\n        /* \"#utility.yul\":20310:20398   */\n      tag_306\n      jump\t// in\n    tag_531:\n        /* \"#utility.yul\":20303:20398   */\n      swap5\n      pop\n        /* \"#utility.yul\":20429:20430   */\n      0x01\n        /* \"#utility.yul\":20418:20427   */\n      dup3\n        /* \"#utility.yul\":20414:20431   */\n      and\n        /* \"#utility.yul\":20445:20446   */\n      0x00\n        /* \"#utility.yul\":20440:20606   */\n      dup2\n      eq\n      tag_533\n      jumpi\n        /* \"#utility.yul\":20620:20621   */\n      0x01\n        /* \"#utility.yul\":20615:20959   */\n      dup2\n      eq\n      tag_534\n      jumpi\n        /* \"#utility.yul\":20407:20959   */\n      jump(tag_532)\n        /* \"#utility.yul\":20440:20606   */\n    tag_533:\n        /* \"#utility.yul\":20524:20528   */\n      0xff\n        /* \"#utility.yul\":20520:20529   */\n      not\n        /* \"#utility.yul\":20509:20518   */\n      dup4\n        /* \"#utility.yul\":20505:20530   */\n      and\n        /* \"#utility.yul\":20500:20503   */\n      dup7\n        /* \"#utility.yul\":20493:20531   */\n      mstore\n        /* \"#utility.yul\":20586:20592   */\n      dup2\n        /* \"#utility.yul\":20579:20593   */\n      iszero\n        /* \"#utility.yul\":20572:20594   */\n      iszero\n        /* \"#utility.yul\":20564:20570   */\n      dup3\n        /* \"#utility.yul\":20560:20595   */\n      mul\n        /* \"#utility.yul\":20555:20558   */\n      dup7\n        /* \"#utility.yul\":20551:20596   */\n      add\n        /* \"#utility.yul\":20544:20596   */\n      swap4\n      pop\n        /* \"#utility.yul\":20440:20606   */\n      jump(tag_532)\n        /* \"#utility.yul\":20615:20959   */\n    tag_534:\n        /* \"#utility.yul\":20682:20723   */\n      tag_535\n        /* \"#utility.yul\":20717:20722   */\n      dup6\n        /* \"#utility.yul\":20682:20723   */\n      tag_307\n      jump\t// in\n    tag_535:\n        /* \"#utility.yul\":20745:20746   */\n      0x00\n        /* \"#utility.yul\":20759:20913   */\n    tag_536:\n        /* \"#utility.yul\":20773:20779   */\n      dup4\n        /* \"#utility.yul\":20770:20771   */\n      dup2\n        /* \"#utility.yul\":20767:20780   */\n      lt\n        /* \"#utility.yul\":20759:20913   */\n      iszero\n      tag_538\n      jumpi\n        /* \"#utility.yul\":20847:20854   */\n      dup2\n        /* \"#utility.yul\":20841:20855   */\n      sload\n        /* \"#utility.yul\":20837:20838   */\n      dup2\n        /* \"#utility.yul\":20832:20835   */\n      dup10\n        /* \"#utility.yul\":20828:20839   */\n      add\n        /* \"#utility.yul\":20821:20856   */\n      mstore\n        /* \"#utility.yul\":20897:20898   */\n      0x01\n        /* \"#utility.yul\":20888:20895   */\n      dup3\n        /* \"#utility.yul\":20884:20899   */\n      add\n        /* \"#utility.yul\":20873:20899   */\n      swap2\n      pop\n        /* \"#utility.yul\":20795:20799   */\n      0x20\n        /* \"#utility.yul\":20792:20793   */\n      dup2\n        /* \"#utility.yul\":20788:20800   */\n      add\n        /* \"#utility.yul\":20783:20800   */\n      swap1\n      pop\n        /* \"#utility.yul\":20759:20913   */\n      jump(tag_536)\n    tag_538:\n        /* \"#utility.yul\":20942:20948   */\n      dup4\n        /* \"#utility.yul\":20937:20940   */\n      dup9\n        /* \"#utility.yul\":20933:20949   */\n      add\n        /* \"#utility.yul\":20926:20949   */\n      swap6\n      pop\n        /* \"#utility.yul\":20622:20959   */\n      pop\n      pop\n        /* \"#utility.yul\":20407:20959   */\n    tag_532:\n      pop\n        /* \"#utility.yul\":20196:20965   */\n      pop\n      pop\n        /* \"#utility.yul\":20087:20965   */\n      swap3\n      swap2\n      pop\n      pop\n      jump\t// out\n        /* \"#utility.yul\":20971:21244   */\n    tag_175:\n        /* \"#utility.yul\":21102:21105   */\n      0x00\n        /* \"#utility.yul\":21124:21218   */\n      tag_540\n        /* \"#utility.yul\":21214:21217   */\n      dup3\n        /* \"#utility.yul\":21205:21211   */\n      dup5\n        /* \"#utility.yul\":21124:21218   */\n      tag_308\n      jump\t// in\n    tag_540:\n        /* \"#utility.yul\":21117:21218   */\n      swap2\n      pop\n        /* \"#utility.yul\":21235:21238   */\n      dup2\n        /* \"#utility.yul\":21228:21238   */\n      swap1\n      pop\n        /* \"#utility.yul\":20971:21244   */\n      swap3\n      swap2\n      pop\n      pop\n      jump\t// out\n        /* \"#utility.yul\":21250:21430   */\n    tag_309:\n        /* \"#utility.yul\":21298:21375   */\n      0x4e487b7100000000000000000000000000000000000000000000000000000000\n        /* \"#utility.yul\":21295:21296   */\n      0x00\n        /* \"#utility.yul\":21288:21376   */\n      mstore\n        /* \"#utility.yul\":21395:21399   */\n      0x11\n        /* \"#utility.yul\":21392:21393   */\n      0x04\n        /* \"#utility.yul\":21385:21400   */\n      mstore\n        /* \"#utility.yul\":21419:21423   */\n      0x24\n        /* \"#utility.yul\":21416:21417   */\n      0x00\n        /* \"#utility.yul\":21409:21424   */\n      revert\n        /* \"#utility.yul\":21436:21669   */\n    tag_178:\n        /* \"#utility.yul\":21475:21478   */\n      0x00\n        /* \"#utility.yul\":21498:21522   */\n      tag_543\n        /* \"#utility.yul\":21516:21521   */\n      dup3\n        /* \"#utility.yul\":21498:21522   */\n      tag_260\n      jump\t// in\n    tag_543:\n        /* \"#utility.yul\":21489:21522   */\n      swap2\n      pop\n        /* \"#utility.yul\":21544:21610   */\n      0xffffffffffffffffffffffffffffffffffffffffffffffffffffffffffffffff\n        /* \"#utility.yul\":21537:21542   */\n      dup3\n        /* \"#utility.yul\":21534:21611   */\n      sub\n        /* \"#utility.yul\":21531:21634   */\n      tag_544\n      jumpi\n        /* \"#utility.yul\":21614:21632   */\n      tag_545\n      tag_309\n      jump\t// in\n    tag_545:\n        /* \"#utility.yul\":21531:21634   */\n    tag_544:\n        /* \"#utility.yul\":21661:21662   */\n      0x01\n        /* \"#utility.yul\":21654:21659   */\n      dup3\n        /* \"#utility.yul\":21650:21663   */\n      add\n        /* \"#utility.yul\":21643:21663   */\n      swap1\n      pop\n        /* \"#utility.yul\":21436:21669   */\n      swap2\n      swap1\n      pop\n      jump\t// out\n        /* \"#utility.yul\":21675:21967   */\n    tag_310:\n        /* \"#utility.yul\":21815:21849   */\n      0x496e76616c696420706f6c6c2063686f6963652c20706c656173652073656c65\n        /* \"#utility.yul\":21811:21812   */\n      0x00\n        /* \"#utility.yul\":21803:21809   */\n      dup3\n        /* \"#utility.yul\":21799:21813   */\n      add\n        /* \"#utility.yul\":21792:21850   */\n      mstore\n        /* \"#utility.yul\":21884:21918   */\n      0x6374206f6e65206f662074686520706f6c6c2063686f6963657320746f206265\n        /* \"#utility.yul\":21879:21881   */\n      0x20\n        /* \"#utility.yul\":21871:21877   */\n      dup3\n        /* \"#utility.yul\":21867:21882   */\n      add\n        /* \"#utility.yul\":21860:21919   */\n      mstore\n        /* \"#utility.yul\":21953:21959   */\n      0x74206f6e00000000000000000000000000000000000000000000000000000000\n        /* \"#utility.yul\":21948:21950   */\n      0x40\n        /* \"#utility.yul\":21940:21946   */\n      dup3\n        /* \"#utility.yul\":21936:21951   */\n      add\n        /* \"#utility.yul\":21929:21960   */\n      mstore\n        /* \"#utility.yul\":21675:21967   */\n      pop\n      jump\t// out\n        /* \"#utility.yul\":21973:22339   */\n    tag_311:\n        /* \"#utility.yul\":22115:22118   */\n      0x00\n        /* \"#utility.yul\":22136:22203   */\n      tag_548\n        /* \"#utility.yul\":22200:22202   */\n      0x44\n        /* \"#utility.yul\":22195:22198   */\n      dup4\n        /* \"#utility.yul\":22136:22203   */\n      tag_269\n      jump\t// in\n    tag_548:\n        /* \"#utility.yul\":22129:22203   */\n      swap2\n      pop\n        /* \"#utility.yul\":22212:22305   */\n      tag_549\n        /* \"#utility.yul\":22301:22304   */\n      dup3\n        /* \"#utility.yul\":22212:22305   */\n      tag_310\n      jump\t// in\n    tag_549:\n        /* \"#utility.yul\":22330:22332   */\n      0x60\n        /* \"#utility.yul\":22325:22328   */\n      dup3\n        /* \"#utility.yul\":22321:22333   */\n      add\n        /* \"#utility.yul\":22314:22333   */\n      swap1\n      pop\n        /* \"#utility.yul\":21973:22339   */\n      swap2\n      swap1\n      pop\n      jump\t// out\n        /* \"#utility.yul\":22345:22764   */\n    tag_181:\n        /* \"#utility.yul\":22511:22515   */\n      0x00\n        /* \"#utility.yul\":22549:22551   */\n      0x20\n        /* \"#utility.yul\":22538:22547   */\n      dup3\n        /* \"#utility.yul\":22534:22552   */\n      add\n        /* \"#utility.yul\":22526:22552   */\n      swap1\n      pop\n        /* \"#utility.yul\":22598:22607   */\n      dup2\n        /* \"#utility.yul\":22592:22596   */\n      dup2\n        /* \"#utility.yul\":22588:22608   */\n      sub\n        /* \"#utility.yul\":22584:22585   */\n      0x00\n        /* \"#utility.yul\":22573:22582   */\n      dup4\n        /* \"#utility.yul\":22569:22586   */\n      add\n        /* \"#utility.yul\":22562:22609   */\n      mstore\n        /* \"#utility.yul\":22626:22757   */\n      tag_551\n        /* \"#utility.yul\":22752:22756   */\n      dup2\n        /* \"#utility.yul\":22626:22757   */\n      tag_311\n      jump\t// in\n    tag_551:\n        /* \"#utility.yul\":22618:22757   */\n      swap1\n      pop\n        /* \"#utility.yul\":22345:22764   */\n      swap2\n      swap1\n      pop\n      jump\t// out\n        /* \"#utility.yul\":22770:22961   */\n    tag_183:\n        /* \"#utility.yul\":22810:22813   */\n      0x00\n        /* \"#utility.yul\":22829:22849   */\n      tag_553\n        /* \"#utility.yul\":22847:22848   */\n      dup3\n        /* \"#utility.yul\":22829:22849   */\n      tag_260\n      jump\t// in\n    tag_553:\n        /* \"#utility.yul\":22824:22849   */\n      swap2\n      pop\n        /* \"#utility.yul\":22863:22883   */\n      tag_554\n        /* \"#utility.yul\":22881:22882   */\n      dup4\n        /* \"#utility.yul\":22863:22883   */\n      tag_260\n      jump\t// in\n    tag_554:\n        /* \"#utility.yul\":22858:22883   */\n      swap3\n      pop\n        /* \"#utility.yul\":22906:22907   */\n      dup3\n        /* \"#utility.yul\":22903:22904   */\n      dup3\n        /* \"#utility.yul\":22899:22908   */\n      add\n        /* \"#utility.yul\":22892:22908   */\n      swap1\n      pop\n        /* \"#utility.yul\":22927:22930   */\n      dup1\n        /* \"#utility.yul\":22924:22925   */\n      dup3\n        /* \"#utility.yul\":22921:22931   */\n      gt\n        /* \"#utility.yul\":22918:22954   */\n      iszero\n      tag_555\n      jumpi\n        /* \"#utility.yul\":22934:22952   */\n      tag_556\n      tag_309\n      jump\t// in\n    tag_556:\n        /* \"#utility.yul\":22918:22954   */\n    tag_555:\n        /* \"#utility.yul\":22770:22961   */\n      swap3\n      swap2\n      pop\n      pop\n      jump\t// out\n        /* \"#utility.yul\":22967:23108   */\n    tag_312:\n        /* \"#utility.yul\":23016:23020   */\n      0x00\n        /* \"#utility.yul\":23039:23042   */\n      dup2\n        /* \"#utility.yul\":23031:23042   */\n      swap1\n      pop\n        /* \"#utility.yul\":23062:23065   */\n      dup2\n        /* \"#utility.yul\":23059:23060   */\n      0x00\n        /* \"#utility.yul\":23052:23066   */\n      mstore\n        /* \"#utility.yul\":23096:23100   */\n      0x20\n        /* \"#utility.yul\":23093:23094   */\n      0x00\n        /* \"#utility.yul\":23083:23101   */\n      keccak256\n        /* \"#utility.yul\":23075:23101   */\n      swap1\n      pop\n        /* \"#utility.yul\":22967:23108   */\n      swap2\n      swap1\n      pop\n      jump\t// out\n        /* \"#utility.yul\":23114:23207   */\n    tag_313:\n        /* \"#utility.yul\":23151:23157   */\n      0x00\n        /* \"#utility.yul\":23198:23200   */\n      0x20\n        /* \"#utility.yul\":23193:23195   */\n      0x1f\n        /* \"#utility.yul\":23186:23191   */\n      dup4\n        /* \"#utility.yul\":23182:23196   */\n      add\n        /* \"#utility.yul\":23178:23201   */\n      div\n        /* \"#utility.yul\":23168:23201   */\n      swap1\n      pop\n        /* \"#utility.yul\":23114:23207   */\n      swap2\n      swap1\n      pop\n      jump\t// out\n        /* \"#utility.yul\":23213:23320   */\n    tag_314:\n        /* \"#utility.yul\":23257:23265   */\n      0x00\n        /* \"#utility.yul\":23307:23312   */\n      dup3\n        /* \"#utility.yul\":23301:23305   */\n      dup3\n        /* \"#utility.yul\":23297:23313   */\n      shl\n        /* \"#utility.yul\":23276:23313   */\n      swap1\n      pop\n        /* \"#utility.yul\":23213:23320   */\n      swap3\n      swap2\n      pop\n      pop\n      jump\t// out\n        /* \"#utility.yul\":23326:23719   */\n    tag_315:\n        /* \"#utility.yul\":23395:23401   */\n      0x00\n        /* \"#utility.yul\":23445:23446   */\n      0x08\n        /* \"#utility.yul\":23433:23443   */\n      dup4\n        /* \"#utility.yul\":23429:23447   */\n      mul\n        /* \"#utility.yul\":23468:23565   */\n      tag_561\n        /* \"#utility.yul\":23498:23564   */\n      0xffffffffffffffffffffffffffffffffffffffffffffffffffffffffffffffff\n        /* \"#utility.yul\":23487:23496   */\n      dup3\n        /* \"#utility.yul\":23468:23565   */\n      tag_314\n      jump\t// in\n    tag_561:\n        /* \"#utility.yul\":23586:23625   */\n      tag_562\n        /* \"#utility.yul\":23616:23624   */\n      dup7\n        /* \"#utility.yul\":23605:23614   */\n      dup4\n        /* \"#utility.yul\":23586:23625   */\n      tag_314\n      jump\t// in\n    tag_562:\n        /* \"#utility.yul\":23574:23625   */\n      swap6\n      pop\n        /* \"#utility.yul\":23658:23662   */\n      dup1\n        /* \"#utility.yul\":23654:23663   */\n      not\n        /* \"#utility.yul\":23647:23652   */\n      dup5\n        /* \"#utility.yul\":23643:23664   */\n      and\n        /* \"#utility.yul\":23634:23664   */\n      swap4\n      pop\n        /* \"#utility.yul\":23707:23711   */\n      dup1\n        /* \"#utility.yul\":23697:23705   */\n      dup7\n        /* \"#utility.yul\":23693:23712   */\n      and\n        /* \"#utility.yul\":23686:23691   */\n      dup5\n        /* \"#utility.yul\":23683:23713   */\n      or\n        /* \"#utility.yul\":23673:23713   */\n      swap3\n      pop\n        /* \"#utility.yul\":23402:23719   */\n      pop\n      pop\n        /* \"#utility.yul\":23326:23719   */\n      swap4\n      swap3\n      pop\n      pop\n      pop\n      jump\t// out\n        /* \"#utility.yul\":23725:23785   */\n    tag_316:\n        /* \"#utility.yul\":23753:23756   */\n      0x00\n        /* \"#utility.yul\":23774:23779   */\n      dup2\n        /* \"#utility.yul\":23767:23779   */\n      swap1\n      pop\n        /* \"#utility.yul\":23725:23785   */\n      swap2\n      swap1\n      pop\n      jump\t// out\n        /* \"#utility.yul\":23791:23933   */\n    tag_317:\n        /* \"#utility.yul\":23841:23850   */\n      0x00\n        /* \"#utility.yul\":23874:23927   */\n      tag_565\n        /* \"#utility.yul\":23892:23926   */\n      tag_566\n        /* \"#utility.yul\":23901:23925   */\n      tag_567\n        /* \"#utility.yul\":23919:23924   */\n      dup5\n        /* \"#utility.yul\":23901:23925   */\n      tag_260\n      jump\t// in\n    tag_567:\n        /* \"#utility.yul\":23892:23926   */\n      tag_316\n      jump\t// in\n    tag_566:\n        /* \"#utility.yul\":23874:23927   */\n      tag_260\n      jump\t// in\n    tag_565:\n        /* \"#utility.yul\":23861:23927   */\n      swap1\n      pop\n        /* \"#utility.yul\":23791:23933   */\n      swap2\n      swap1\n      pop\n      jump\t// out\n        /* \"#utility.yul\":23939:24014   */\n    tag_318:\n        /* \"#utility.yul\":23982:23985   */\n      0x00\n        /* \"#utility.yul\":24003:24008   */\n      dup2\n        /* \"#utility.yul\":23996:24008   */\n      swap1\n      pop\n        /* \"#utility.yul\":23939:24014   */\n      swap2\n      swap1\n      pop\n      jump\t// out\n        /* \"#utility.yul\":24020:24289   */\n    tag_319:\n        /* \"#utility.yul\":24130:24169   */\n      tag_570\n        /* \"#utility.yul\":24161:24168   */\n      dup4\n        /* \"#utility.yul\":24130:24169   */\n      tag_317\n      jump\t// in\n    tag_570:\n        /* \"#utility.yul\":24191:24282   */\n      tag_571\n        /* \"#utility.yul\":24240:24281   */\n      tag_572\n        /* \"#utility.yul\":24264:24280   */\n      dup3\n        /* \"#utility.yul\":24240:24281   */\n      tag_318\n      jump\t// in\n    tag_572:\n        /* \"#utility.yul\":24232:24238   */\n      dup5\n        /* \"#utility.yul\":24225:24229   */\n      dup5\n        /* \"#utility.yul\":24219:24230   */\n      sload\n        /* \"#utility.yul\":24191:24282   */\n      tag_315\n      jump\t// in\n    tag_571:\n        /* \"#utility.yul\":24185:24189   */\n      dup3\n        /* \"#utility.yul\":24178:24283   */\n      sstore\n        /* \"#utility.yul\":24096:24289   */\n      pop\n        /* \"#utility.yul\":24020:24289   */\n      pop\n      pop\n      pop\n      jump\t// out\n        /* \"#utility.yul\":24295:24368   */\n    tag_320:\n        /* \"#utility.yul\":24340:24343   */\n      0x00\n        /* \"#utility.yul\":24295:24368   */\n      swap1\n      jump\t// out\n        /* \"#utility.yul\":24374:24563   */\n    tag_321:\n        /* \"#utility.yul\":24451:24483   */\n      tag_575\n      tag_320\n      jump\t// in\n    tag_575:\n        /* \"#utility.yul\":24492:24557   */\n      tag_576\n        /* \"#utility.yul\":24550:24556   */\n      dup2\n        /* \"#utility.yul\":24542:24548   */\n      dup5\n        /* \"#utility.yul\":24536:24540   */\n      dup5\n        /* \"#utility.yul\":24492:24557   */\n      tag_319\n      jump\t// in\n    tag_576:\n        /* \"#utility.yul\":24427:24563   */\n      pop\n        /* \"#utility.yul\":24374:24563   */\n      pop\n      pop\n      jump\t// out\n        /* \"#utility.yul\":24569:24755   */\n    tag_322:\n        /* \"#utility.yul\":24629:24749   */\n    tag_578:\n        /* \"#utility.yul\":24646:24649   */\n      dup2\n        /* \"#utility.yul\":24639:24644   */\n      dup2\n        /* \"#utility.yul\":24636:24650   */\n      lt\n        /* \"#utility.yul\":24629:24749   */\n      iszero\n      tag_580\n      jumpi\n        /* \"#utility.yul\":24700:24739   */\n      tag_581\n        /* \"#utility.yul\":24737:24738   */\n      0x00\n        /* \"#utility.yul\":24730:24735   */\n      dup3\n        /* \"#utility.yul\":24700:24739   */\n      tag_321\n      jump\t// in\n    tag_581:\n        /* \"#utility.yul\":24673:24674   */\n      0x01\n        /* \"#utility.yul\":24666:24671   */\n      dup2\n        /* \"#utility.yul\":24662:24675   */\n      add\n        /* \"#utility.yul\":24653:24675   */\n      swap1\n      pop\n        /* \"#utility.yul\":24629:24749   */\n      jump(tag_578)\n    tag_580:\n        /* \"#utility.yul\":24569:24755   */\n      pop\n      pop\n      jump\t// out\n        /* \"#utility.yul\":24761:25304   */\n    tag_323:\n        /* \"#utility.yul\":24862:24864   */\n      0x1f\n        /* \"#utility.yul\":24857:24860   */\n      dup3\n        /* \"#utility.yul\":24854:24865   */\n      gt\n        /* \"#utility.yul\":24851:25297   */\n      iszero\n      tag_583\n      jumpi\n        /* \"#utility.yul\":24896:24934   */\n      tag_584\n        /* \"#utility.yul\":24928:24933   */\n      dup2\n        /* \"#utility.yul\":24896:24934   */\n      tag_312\n      jump\t// in\n    tag_584:\n        /* \"#utility.yul\":24980:25009   */\n      tag_585\n        /* \"#utility.yul\":24998:25008   */\n      dup5\n        /* \"#utility.yul\":24980:25009   */\n      tag_313\n      jump\t// in\n    tag_585:\n        /* \"#utility.yul\":24970:24978   */\n      dup2\n        /* \"#utility.yul\":24966:25010   */\n      add\n        /* \"#utility.yul\":25163:25165   */\n      0x20\n        /* \"#utility.yul\":25151:25161   */\n      dup6\n        /* \"#utility.yul\":25148:25166   */\n      lt\n        /* \"#utility.yul\":25145:25194   */\n      iszero\n      tag_586\n      jumpi\n        /* \"#utility.yul\":25184:25192   */\n      dup2\n        /* \"#utility.yul\":25169:25192   */\n      swap1\n      pop\n        /* \"#utility.yul\":25145:25194   */\n    tag_586:\n        /* \"#utility.yul\":25207:25287   */\n      tag_587\n        /* \"#utility.yul\":25263:25285   */\n      tag_588\n        /* \"#utility.yul\":25281:25284   */\n      dup6\n        /* \"#utility.yul\":25263:25285   */\n      tag_313\n      jump\t// in\n    tag_588:\n        /* \"#utility.yul\":25253:25261   */\n      dup4\n        /* \"#utility.yul\":25249:25286   */\n      add\n        /* \"#utility.yul\":25236:25247   */\n      dup3\n        /* \"#utility.yul\":25207:25287   */\n      tag_322\n      jump\t// in\n    tag_587:\n        /* \"#utility.yul\":24866:25297   */\n      pop\n      pop\n        /* \"#utility.yul\":24851:25297   */\n    tag_583:\n        /* \"#utility.yul\":24761:25304   */\n      pop\n      pop\n      pop\n      jump\t// out\n        /* \"#utility.yul\":25310:25427   */\n    tag_324:\n        /* \"#utility.yul\":25364:25372   */\n      0x00\n        /* \"#utility.yul\":25414:25419   */\n      dup3\n        /* \"#utility.yul\":25408:25412   */\n      dup3\n        /* \"#utility.yul\":25404:25420   */\n      shr\n        /* \"#utility.yul\":25383:25420   */\n      swap1\n      pop\n        /* \"#utility.yul\":25310:25427   */\n      swap3\n      swap2\n      pop\n      pop\n      jump\t// out\n        /* \"#utility.yul\":25433:25602   */\n    tag_325:\n        /* \"#utility.yul\":25477:25483   */\n      0x00\n        /* \"#utility.yul\":25510:25561   */\n      tag_591\n        /* \"#utility.yul\":25558:25559   */\n      0x00\n        /* \"#utility.yul\":25554:25560   */\n      not\n        /* \"#utility.yul\":25546:25551   */\n      dup5\n        /* \"#utility.yul\":25543:25544   */\n      0x08\n        /* \"#utility.yul\":25539:25552   */\n      mul\n        /* \"#utility.yul\":25510:25561   */\n      tag_324\n      jump\t// in\n    tag_591:\n        /* \"#utility.yul\":25506:25562   */\n      not\n        /* \"#utility.yul\":25591:25595   */\n      dup1\n        /* \"#utility.yul\":25585:25589   */\n      dup4\n        /* \"#utility.yul\":25581:25596   */\n      and\n        /* \"#utility.yul\":25571:25596   */\n      swap2\n      pop\n        /* \"#utility.yul\":25484:25602   */\n      pop\n        /* \"#utility.yul\":25433:25602   */\n      swap3\n      swap2\n      pop\n      pop\n      jump\t// out\n        /* \"#utility.yul\":25607:25902   */\n    tag_326:\n        /* \"#utility.yul\":25683:25687   */\n      0x00\n        /* \"#utility.yul\":25829:25858   */\n      tag_593\n        /* \"#utility.yul\":25854:25857   */\n      dup4\n        /* \"#utility.yul\":25848:25852   */\n      dup4\n        /* \"#utility.yul\":25829:25858   */\n      tag_325\n      jump\t// in\n    tag_593:\n        /* \"#utility.yul\":25821:25858   */\n      swap2\n      pop\n        /* \"#utility.yul\":25891:25894   */\n      dup3\n        /* \"#utility.yul\":25888:25889   */\n      0x02\n        /* \"#utility.yul\":25884:25895   */\n      mul\n        /* \"#utility.yul\":25878:25882   */\n      dup3\n        /* \"#utility.yul\":25875:25896   */\n      or\n        /* \"#utility.yul\":25867:25896   */\n      swap1\n      pop\n        /* \"#utility.yul\":25607:25902   */\n      swap3\n      swap2\n      pop\n      pop\n      jump\t// out\n        /* \"#utility.yul\":25907:27302   */\n    tag_190:\n        /* \"#utility.yul\":26024:26061   */\n      tag_595\n        /* \"#utility.yul\":26057:26060   */\n      dup3\n        /* \"#utility.yul\":26024:26061   */\n      tag_268\n      jump\t// in\n    tag_595:\n        /* \"#utility.yul\":26126:26144   */\n      0xffffffffffffffff\n        /* \"#utility.yul\":26118:26124   */\n      dup2\n        /* \"#utility.yul\":26115:26145   */\n      gt\n        /* \"#utility.yul\":26112:26168   */\n      iszero\n      tag_596\n      jumpi\n        /* \"#utility.yul\":26148:26166   */\n      tag_597\n      tag_230\n      jump\t// in\n    tag_597:\n        /* \"#utility.yul\":26112:26168   */\n    tag_596:\n        /* \"#utility.yul\":26192:26230   */\n      tag_598\n        /* \"#utility.yul\":26224:26228   */\n      dup3\n        /* \"#utility.yul\":26218:26229   */\n      sload\n        /* \"#utility.yul\":26192:26230   */\n      tag_117\n      jump\t// in\n    tag_598:\n        /* \"#utility.yul\":26277:26344   */\n      tag_599\n        /* \"#utility.yul\":26337:26343   */\n      dup3\n        /* \"#utility.yul\":26329:26335   */\n      dup3\n        /* \"#utility.yul\":26323:26327   */\n      dup6\n        /* \"#utility.yul\":26277:26344   */\n      tag_323\n      jump\t// in\n    tag_599:\n        /* \"#utility.yul\":26371:26372   */\n      0x00\n        /* \"#utility.yul\":26395:26399   */\n      0x20\n        /* \"#utility.yul\":26382:26399   */\n      swap1\n      pop\n        /* \"#utility.yul\":26427:26429   */\n      0x1f\n        /* \"#utility.yul\":26419:26425   */\n      dup4\n        /* \"#utility.yul\":26416:26430   */\n      gt\n        /* \"#utility.yul\":26444:26445   */\n      0x01\n        /* \"#utility.yul\":26439:27057   */\n      dup2\n      eq\n      tag_601\n      jumpi\n        /* \"#utility.yul\":27101:27102   */\n      0x00\n        /* \"#utility.yul\":27118:27124   */\n      dup5\n        /* \"#utility.yul\":27115:27192   */\n      iszero\n      tag_602\n      jumpi\n        /* \"#utility.yul\":27167:27176   */\n      dup3\n        /* \"#utility.yul\":27162:27165   */\n      dup8\n        /* \"#utility.yul\":27158:27177   */\n      add\n        /* \"#utility.yul\":27152:27178   */\n      mload\n        /* \"#utility.yul\":27143:27178   */\n      swap1\n      pop\n        /* \"#utility.yul\":27115:27192   */\n    tag_602:\n        /* \"#utility.yul\":27218:27285   */\n      tag_603\n        /* \"#utility.yul\":27278:27284   */\n      dup6\n        /* \"#utility.yul\":27271:27276   */\n      dup3\n        /* \"#utility.yul\":27218:27285   */\n      tag_326\n      jump\t// in\n    tag_603:\n        /* \"#utility.yul\":27212:27216   */\n      dup7\n        /* \"#utility.yul\":27205:27286   */\n      sstore\n        /* \"#utility.yul\":27074:27296   */\n      pop\n        /* \"#utility.yul\":26409:27296   */\n      jump(tag_600)\n        /* \"#utility.yul\":26439:27057   */\n    tag_601:\n        /* \"#utility.yul\":26491:26495   */\n      0x1f\n        /* \"#utility.yul\":26487:26496   */\n      not\n        /* \"#utility.yul\":26479:26485   */\n      dup5\n        /* \"#utility.yul\":26475:26497   */\n      and\n        /* \"#utility.yul\":26525:26562   */\n      tag_604\n        /* \"#utility.yul\":26557:26561   */\n      dup7\n        /* \"#utility.yul\":26525:26562   */\n      tag_312\n      jump\t// in\n    tag_604:\n        /* \"#utility.yul\":26584:26585   */\n      0x00\n        /* \"#utility.yul\":26598:26806   */\n    tag_605:\n        /* \"#utility.yul\":26612:26619   */\n      dup3\n        /* \"#utility.yul\":26609:26610   */\n      dup2\n        /* \"#utility.yul\":26606:26620   */\n      lt\n        /* \"#utility.yul\":26598:26806   */\n      iszero\n      tag_607\n      jumpi\n        /* \"#utility.yul\":26691:26700   */\n      dup5\n        /* \"#utility.yul\":26686:26689   */\n      dup10\n        /* \"#utility.yul\":26682:26701   */\n      add\n        /* \"#utility.yul\":26676:26702   */\n      mload\n        /* \"#utility.yul\":26668:26674   */\n      dup3\n        /* \"#utility.yul\":26661:26703   */\n      sstore\n        /* \"#utility.yul\":26742:26743   */\n      0x01\n        /* \"#utility.yul\":26734:26740   */\n      dup3\n        /* \"#utility.yul\":26730:26744   */\n      add\n        /* \"#utility.yul\":26720:26744   */\n      swap2\n      pop\n        /* \"#utility.yul\":26789:26791   */\n      0x20\n        /* \"#utility.yul\":26778:26787   */\n      dup6\n        /* \"#utility.yul\":26774:26792   */\n      add\n        /* \"#utility.yul\":26761:26792   */\n      swap5\n      pop\n        /* \"#utility.yul\":26635:26639   */\n      0x20\n        /* \"#utility.yul\":26632:26633   */\n      dup2\n        /* \"#utility.yul\":26628:26640   */\n      add\n        /* \"#utility.yul\":26623:26640   */\n      swap1\n      pop\n        /* \"#utility.yul\":26598:26806   */\n      jump(tag_605)\n    tag_607:\n        /* \"#utility.yul\":26834:26840   */\n      dup7\n        /* \"#utility.yul\":26825:26832   */\n      dup4\n        /* \"#utility.yul\":26822:26841   */\n      lt\n        /* \"#utility.yul\":26819:26998   */\n      iszero\n      tag_608\n      jumpi\n        /* \"#utility.yul\":26892:26901   */\n      dup5\n        /* \"#utility.yul\":26887:26890   */\n      dup10\n        /* \"#utility.yul\":26883:26902   */\n      add\n        /* \"#utility.yul\":26877:26903   */\n      mload\n        /* \"#utility.yul\":26935:26983   */\n      tag_609\n        /* \"#utility.yul\":26977:26981   */\n      0x1f\n        /* \"#utility.yul\":26969:26975   */\n      dup10\n        /* \"#utility.yul\":26965:26982   */\n      and\n        /* \"#utility.yul\":26954:26963   */\n      dup3\n        /* \"#utility.yul\":26935:26983   */\n      tag_325\n      jump\t// in\n    tag_609:\n        /* \"#utility.yul\":26927:26933   */\n      dup4\n        /* \"#utility.yul\":26920:26984   */\n      sstore\n        /* \"#utility.yul\":26842:26998   */\n      pop\n        /* \"#utility.yul\":26819:26998   */\n    tag_608:\n        /* \"#utility.yul\":27044:27045   */\n      0x01\n        /* \"#utility.yul\":27040:27041   */\n      0x02\n        /* \"#utility.yul\":27032:27038   */\n      dup9\n        /* \"#utility.yul\":27028:27042   */\n      mul\n        /* \"#utility.yul\":27024:27046   */\n      add\n        /* \"#utility.yul\":27018:27022   */\n      dup9\n        /* \"#utility.yul\":27011:27047   */\n      sstore\n        /* \"#utility.yul\":26446:27057   */\n      pop\n      pop\n      pop\n        /* \"#utility.yul\":26409:27296   */\n    tag_600:\n      pop\n        /* \"#utility.yul\":25999:27302   */\n      pop\n      pop\n      pop\n        /* \"#utility.yul\":25907:27302   */\n      pop\n      pop\n      jump\t// out\n        /* \"#utility.yul\":27308:27731   */\n    tag_193:\n        /* \"#utility.yul\":27449:27453   */\n      0x00\n        /* \"#utility.yul\":27487:27489   */\n      0x40\n        /* \"#utility.yul\":27476:27485   */\n      dup3\n        /* \"#utility.yul\":27472:27490   */\n      add\n        /* \"#utility.yul\":27464:27490   */\n      swap1\n      pop\n        /* \"#utility.yul\":27536:27545   */\n      dup2\n        /* \"#utility.yul\":27530:27534   */\n      dup2\n        /* \"#utility.yul\":27526:27546   */\n      sub\n        /* \"#utility.yul\":27522:27523   */\n      0x00\n        /* \"#utility.yul\":27511:27520   */\n      dup4\n        /* \"#utility.yul\":27507:27524   */\n      add\n        /* \"#utility.yul\":27500:27547   */\n      mstore\n        /* \"#utility.yul\":27564:27642   */\n      tag_611\n        /* \"#utility.yul\":27637:27641   */\n      dup2\n        /* \"#utility.yul\":27628:27634   */\n      dup6\n        /* \"#utility.yul\":27564:27642   */\n      tag_272\n      jump\t// in\n    tag_611:\n        /* \"#utility.yul\":27556:27642   */\n      swap1\n      pop\n        /* \"#utility.yul\":27652:27724   */\n      tag_612\n        /* \"#utility.yul\":27720:27722   */\n      0x20\n        /* \"#utility.yul\":27709:27718   */\n      dup4\n        /* \"#utility.yul\":27705:27723   */\n      add\n        /* \"#utility.yul\":27696:27702   */\n      dup5\n        /* \"#utility.yul\":27652:27724   */\n      tag_267\n      jump\t// in\n    tag_612:\n        /* \"#utility.yul\":27308:27731   */\n      swap4\n      swap3\n      pop\n      pop\n      pop\n      jump\t// out\n        /* \"#utility.yul\":27737:27909   */\n    tag_327:\n        /* \"#utility.yul\":27877:27901   */\n      0x506f6c6c20686173206e6f7420656e6465642079657400000000000000000000\n        /* \"#utility.yul\":27873:27874   */\n      0x00\n        /* \"#utility.yul\":27865:27871   */\n      dup3\n        /* \"#utility.yul\":27861:27875   */\n      add\n        /* \"#utility.yul\":27854:27902   */\n      mstore\n        /* \"#utility.yul\":27737:27909   */\n      pop\n      jump\t// out\n        /* \"#utility.yul\":27915:28281   */\n    tag_328:\n        /* \"#utility.yul\":28057:28060   */\n      0x00\n        /* \"#utility.yul\":28078:28145   */\n      tag_615\n        /* \"#utility.yul\":28142:28144   */\n      0x16\n        /* \"#utility.yul\":28137:28140   */\n      dup4\n        /* \"#utility.yul\":28078:28145   */\n      tag_269\n      jump\t// in\n    tag_615:\n        /* \"#utility.yul\":28071:28145   */\n      swap2\n      pop\n        /* \"#utility.yul\":28154:28247   */\n      tag_616\n        /* \"#utility.yul\":28243:28246   */\n      dup3\n        /* \"#utility.yul\":28154:28247   */\n      tag_327\n      jump\t// in\n    tag_616:\n        /* \"#utility.yul\":28272:28274   */\n      0x20\n        /* \"#utility.yul\":28267:28270   */\n      dup3\n        /* \"#utility.yul\":28263:28275   */\n      add\n        /* \"#utility.yul\":28256:28275   */\n      swap1\n      pop\n        /* \"#utility.yul\":27915:28281   */\n      swap2\n      swap1\n      pop\n      jump\t// out\n        /* \"#utility.yul\":28287:28706   */\n    tag_202:\n        /* \"#utility.yul\":28453:28457   */\n      0x00\n        /* \"#utility.yul\":28491:28493   */\n      0x20\n        /* \"#utility.yul\":28480:28489   */\n      dup3\n        /* \"#utility.yul\":28476:28494   */\n      add\n        /* \"#utility.yul\":28468:28494   */\n      swap1\n      pop\n        /* \"#utility.yul\":28540:28549   */\n      dup2\n        /* \"#utility.yul\":28534:28538   */\n      dup2\n        /* \"#utility.yul\":28530:28550   */\n      sub\n        /* \"#utility.yul\":28526:28527   */\n      0x00\n        /* \"#utility.yul\":28515:28524   */\n      dup4\n        /* \"#utility.yul\":28511:28528   */\n      add\n        /* \"#utility.yul\":28504:28551   */\n      mstore\n        /* \"#utility.yul\":28568:28699   */\n      tag_618\n        /* \"#utility.yul\":28694:28698   */\n      dup2\n        /* \"#utility.yul\":28568:28699   */\n      tag_328\n      jump\t// in\n    tag_618:\n        /* \"#utility.yul\":28560:28699   */\n      swap1\n      pop\n        /* \"#utility.yul\":28287:28706   */\n      swap2\n      swap1\n      pop\n      jump\t// out\n        /* \"#utility.yul\":28712:28883   */\n    tag_329:\n        /* \"#utility.yul\":28852:28875   */\n      0x496e76616c696420706f6c6c20656e642074696d650000000000000000000000\n        /* \"#utility.yul\":28848:28849   */\n      0x00\n        /* \"#utility.yul\":28840:28846   */\n      dup3\n        /* \"#utility.yul\":28836:28850   */\n      add\n        /* \"#utility.yul\":28829:28876   */\n      mstore\n        /* \"#utility.yul\":28712:28883   */\n      pop\n      jump\t// out\n        /* \"#utility.yul\":28889:29255   */\n    tag_330:\n        /* \"#utility.yul\":29031:29034   */\n      0x00\n        /* \"#utility.yul\":29052:29119   */\n      tag_621\n        /* \"#utility.yul\":29116:29118   */\n      0x15\n        /* \"#utility.yul\":29111:29114   */\n      dup4\n        /* \"#utility.yul\":29052:29119   */\n      tag_269\n      jump\t// in\n    tag_621:\n        /* \"#utility.yul\":29045:29119   */\n      swap2\n      pop\n        /* \"#utility.yul\":29128:29221   */\n      tag_622\n        /* \"#utility.yul\":29217:29220   */\n      dup3\n        /* \"#utility.yul\":29128:29221   */\n      tag_329\n      jump\t// in\n    tag_622:\n        /* \"#utility.yul\":29246:29248   */\n      0x20\n        /* \"#utility.yul\":29241:29244   */\n      dup3\n        /* \"#utility.yul\":29237:29249   */\n      add\n        /* \"#utility.yul\":29230:29249   */\n      swap1\n      pop\n        /* \"#utility.yul\":28889:29255   */\n      swap2\n      swap1\n      pop\n      jump\t// out\n        /* \"#utility.yul\":29261:29680   */\n    tag_206:\n        /* \"#utility.yul\":29427:29431   */\n      0x00\n        /* \"#utility.yul\":29465:29467   */\n      0x20\n        /* \"#utility.yul\":29454:29463   */\n      dup3\n        /* \"#utility.yul\":29450:29468   */\n      add\n        /* \"#utility.yul\":29442:29468   */\n      swap1\n      pop\n        /* \"#utility.yul\":29514:29523   */\n      dup2\n        /* \"#utility.yul\":29508:29512   */\n      dup2\n        /* \"#utility.yul\":29504:29524   */\n      sub\n        /* \"#utility.yul\":29500:29501   */\n      0x00\n        /* \"#utility.yul\":29489:29498   */\n      dup4\n        /* \"#utility.yul\":29485:29502   */\n      add\n        /* \"#utility.yul\":29478:29525   */\n      mstore\n        /* \"#utility.yul\":29542:29673   */\n      tag_624\n        /* \"#utility.yul\":29668:29672   */\n      dup2\n        /* \"#utility.yul\":29542:29673   */\n      tag_330\n      jump\t// in\n    tag_624:\n        /* \"#utility.yul\":29534:29673   */\n      swap1\n      pop\n        /* \"#utility.yul\":29261:29680   */\n      swap2\n      swap1\n      pop\n      jump\t// out\n        /* \"#utility.yul\":29686:29865   */\n    tag_331:\n        /* \"#utility.yul\":29826:29857   */\n      0x4174206c656173742074776f206f7074696f6e73207265717569726564000000\n        /* \"#utility.yul\":29822:29823   */\n      0x00\n        /* \"#utility.yul\":29814:29820   */\n      dup3\n        /* \"#utility.yul\":29810:29824   */\n      add\n        /* \"#utility.yul\":29803:29858   */\n      mstore\n        /* \"#utility.yul\":29686:29865   */\n      pop\n      jump\t// out\n        /* \"#utility.yul\":29871:30237   */\n    tag_332:\n        /* \"#utility.yul\":30013:30016   */\n      0x00\n        /* \"#utility.yul\":30034:30101   */\n      tag_627\n        /* \"#utility.yul\":30098:30100   */\n      0x1d\n        /* \"#utility.yul\":30093:30096   */\n      dup4\n        /* \"#utility.yul\":30034:30101   */\n      tag_269\n      jump\t// in\n    tag_627:\n        /* \"#utility.yul\":30027:30101   */\n      swap2\n      pop\n        /* \"#utility.yul\":30110:30203   */\n      tag_628\n        /* \"#utility.yul\":30199:30202   */\n      dup3\n        /* \"#utility.yul\":30110:30203   */\n      tag_331\n      jump\t// in\n    tag_628:\n        /* \"#utility.yul\":30228:30230   */\n      0x20\n        /* \"#utility.yul\":30223:30226   */\n      dup3\n        /* \"#utility.yul\":30219:30231   */\n      add\n        /* \"#utility.yul\":30212:30231   */\n      swap1\n      pop\n        /* \"#utility.yul\":29871:30237   */\n      swap2\n      swap1\n      pop\n      jump\t// out\n        /* \"#utility.yul\":30243:30662   */\n    tag_209:\n        /* \"#utility.yul\":30409:30413   */\n      0x00\n        /* \"#utility.yul\":30447:30449   */\n      0x20\n        /* \"#utility.yul\":30436:30445   */\n      dup3\n        /* \"#utility.yul\":30432:30450   */\n      add\n        /* \"#utility.yul\":30424:30450   */\n      swap1\n      pop\n        /* \"#utility.yul\":30496:30505   */\n      dup2\n        /* \"#utility.yul\":30490:30494   */\n      dup2\n        /* \"#utility.yul\":30486:30506   */\n      sub\n        /* \"#utility.yul\":30482:30483   */\n      0x00\n        /* \"#utility.yul\":30471:30480   */\n      dup4\n        /* \"#utility.yul\":30467:30484   */\n      add\n        /* \"#utility.yul\":30460:30507   */\n      mstore\n        /* \"#utility.yul\":30524:30655   */\n      tag_630\n        /* \"#utility.yul\":30650:30654   */\n      dup2\n        /* \"#utility.yul\":30524:30655   */\n      tag_332\n      jump\t// in\n    tag_630:\n        /* \"#utility.yul\":30516:30655   */\n      swap1\n      pop\n        /* \"#utility.yul\":30243:30662   */\n      swap2\n      swap1\n      pop\n      jump\t// out\n        /* \"#utility.yul\":30668:30792   */\n    tag_333:\n        /* \"#utility.yul\":30745:30751   */\n      0x00\n        /* \"#utility.yul\":30779:30784   */\n      dup2\n        /* \"#utility.yul\":30773:30785   */\n      mload\n        /* \"#utility.yul\":30763:30785   */\n      swap1\n      pop\n        /* \"#utility.yul\":30668:30792   */\n      swap2\n      swap1\n      pop\n      jump\t// out\n        /* \"#utility.yul\":30798:30992   */\n    tag_334:\n        /* \"#utility.yul\":30907:30918   */\n      0x00\n        /* \"#utility.yul\":30941:30947   */\n      dup3\n        /* \"#utility.yul\":30936:30939   */\n      dup3\n        /* \"#utility.yul\":30929:30948   */\n      mstore\n        /* \"#utility.yul\":30981:30985   */\n      0x20\n        /* \"#utility.yul\":30976:30979   */\n      dup3\n        /* \"#utility.yul\":30972:30986   */\n      add\n        /* \"#utility.yul\":30957:30986   */\n      swap1\n      pop\n        /* \"#utility.yul\":30798:30992   */\n      swap3\n      swap2\n      pop\n      pop\n      jump\t// out\n        /* \"#utility.yul\":30998:31140   */\n    tag_335:\n        /* \"#utility.yul\":31075:31079   */\n      0x00\n        /* \"#utility.yul\":31098:31101   */\n      dup2\n        /* \"#utility.yul\":31090:31101   */\n      swap1\n      pop\n        /* \"#utility.yul\":31128:31132   */\n      0x20\n        /* \"#utility.yul\":31123:31126   */\n      dup3\n        /* \"#utility.yul\":31119:31133   */\n      add\n        /* \"#utility.yul\":31111:31133   */\n      swap1\n      pop\n        /* \"#utility.yul\":30998:31140   */\n      swap2\n      swap1\n      pop\n      jump\t// out\n        /* \"#utility.yul\":31146:31305   */\n    tag_336:\n        /* \"#utility.yul\":31220:31231   */\n      0x00\n        /* \"#utility.yul\":31254:31260   */\n      dup3\n        /* \"#utility.yul\":31249:31252   */\n      dup3\n        /* \"#utility.yul\":31242:31261   */\n      mstore\n        /* \"#utility.yul\":31294:31298   */\n      0x20\n        /* \"#utility.yul\":31289:31292   */\n      dup3\n        /* \"#utility.yul\":31285:31299   */\n      add\n        /* \"#utility.yul\":31270:31299   */\n      swap1\n      pop\n        /* \"#utility.yul\":31146:31305   */\n      swap3\n      swap2\n      pop\n      pop\n      jump\t// out\n        /* \"#utility.yul\":31311:31668   */\n    tag_337:\n        /* \"#utility.yul\":31389:31392   */\n      0x00\n        /* \"#utility.yul\":31417:31456   */\n      tag_636\n        /* \"#utility.yul\":31450:31455   */\n      dup3\n        /* \"#utility.yul\":31417:31456   */\n      tag_268\n      jump\t// in\n    tag_636:\n        /* \"#utility.yul\":31472:31533   */\n      tag_637\n        /* \"#utility.yul\":31526:31532   */\n      dup2\n        /* \"#utility.yul\":31521:31524   */\n      dup6\n        /* \"#utility.yul\":31472:31533   */\n      tag_336\n      jump\t// in\n    tag_637:\n        /* \"#utility.yul\":31465:31533   */\n      swap4\n      pop\n        /* \"#utility.yul\":31542:31607   */\n      tag_638\n        /* \"#utility.yul\":31600:31606   */\n      dup2\n        /* \"#utility.yul\":31595:31598   */\n      dup6\n        /* \"#utility.yul\":31588:31592   */\n      0x20\n        /* \"#utility.yul\":31581:31586   */\n      dup7\n        /* \"#utility.yul\":31577:31593   */\n      add\n        /* \"#utility.yul\":31542:31607   */\n      tag_270\n      jump\t// in\n    tag_638:\n        /* \"#utility.yul\":31632:31661   */\n      tag_639\n        /* \"#utility.yul\":31654:31660   */\n      dup2\n        /* \"#utility.yul\":31632:31661   */\n      tag_271\n      jump\t// in\n    tag_639:\n        /* \"#utility.yul\":31627:31630   */\n      dup5\n        /* \"#utility.yul\":31623:31662   */\n      add\n        /* \"#utility.yul\":31616:31662   */\n      swap2\n      pop\n        /* \"#utility.yul\":31393:31668   */\n      pop\n        /* \"#utility.yul\":31311:31668   */\n      swap3\n      swap2\n      pop\n      pop\n      jump\t// out\n        /* \"#utility.yul\":31674:31870   */\n    tag_338:\n        /* \"#utility.yul\":31763:31773   */\n      0x00\n        /* \"#utility.yul\":31798:31864   */\n      tag_641\n        /* \"#utility.yul\":31860:31863   */\n      dup4\n        /* \"#utility.yul\":31852:31858   */\n      dup4\n        /* \"#utility.yul\":31798:31864   */\n      tag_337\n      jump\t// in\n    tag_641:\n        /* \"#utility.yul\":31784:31864   */\n      swap1\n      pop\n        /* \"#utility.yul\":31674:31870   */\n      swap3\n      swap2\n      pop\n      pop\n      jump\t// out\n        /* \"#utility.yul\":31876:31999   */\n    tag_339:\n        /* \"#utility.yul\":31956:31960   */\n      0x00\n        /* \"#utility.yul\":31988:31992   */\n      0x20\n        /* \"#utility.yul\":31983:31986   */\n      dup3\n        /* \"#utility.yul\":31979:31993   */\n      add\n        /* \"#utility.yul\":31971:31993   */\n      swap1\n      pop\n        /* \"#utility.yul\":31876:31999   */\n      swap2\n      swap1\n      pop\n      jump\t// out\n        /* \"#utility.yul\":32033:33024   */\n    tag_340:\n        /* \"#utility.yul\":32172:32175   */\n      0x00\n        /* \"#utility.yul\":32201:32265   */\n      tag_644\n        /* \"#utility.yul\":32259:32264   */\n      dup3\n        /* \"#utility.yul\":32201:32265   */\n      tag_333\n      jump\t// in\n    tag_644:\n        /* \"#utility.yul\":32281:32377   */\n      tag_645\n        /* \"#utility.yul\":32370:32376   */\n      dup2\n        /* \"#utility.yul\":32365:32368   */\n      dup6\n        /* \"#utility.yul\":32281:32377   */\n      tag_334\n      jump\t// in\n    tag_645:\n        /* \"#utility.yul\":32274:32377   */\n      swap4\n      pop\n        /* \"#utility.yul\":32403:32406   */\n      dup4\n        /* \"#utility.yul\":32448:32452   */\n      0x20\n        /* \"#utility.yul\":32440:32446   */\n      dup3\n        /* \"#utility.yul\":32436:32453   */\n      mul\n        /* \"#utility.yul\":32431:32434   */\n      dup6\n        /* \"#utility.yul\":32427:32454   */\n      add\n        /* \"#utility.yul\":32478:32544   */\n      tag_646\n        /* \"#utility.yul\":32538:32543   */\n      dup6\n        /* \"#utility.yul\":32478:32544   */\n      tag_335\n      jump\t// in\n    tag_646:\n        /* \"#utility.yul\":32567:32574   */\n      dup1\n        /* \"#utility.yul\":32598:32599   */\n      0x00\n        /* \"#utility.yul\":32583:32979   */\n    tag_647:\n        /* \"#utility.yul\":32608:32614   */\n      dup6\n        /* \"#utility.yul\":32605:32606   */\n      dup2\n        /* \"#utility.yul\":32602:32615   */\n      lt\n        /* \"#utility.yul\":32583:32979   */\n      iszero\n      tag_649\n      jumpi\n        /* \"#utility.yul\":32679:32688   */\n      dup5\n        /* \"#utility.yul\":32673:32677   */\n      dup5\n        /* \"#utility.yul\":32669:32689   */\n      sub\n        /* \"#utility.yul\":32664:32667   */\n      dup10\n        /* \"#utility.yul\":32657:32690   */\n      mstore\n        /* \"#utility.yul\":32730:32736   */\n      dup2\n        /* \"#utility.yul\":32724:32737   */\n      mload\n        /* \"#utility.yul\":32758:32842   */\n      tag_650\n        /* \"#utility.yul\":32837:32841   */\n      dup6\n        /* \"#utility.yul\":32822:32835   */\n      dup3\n        /* \"#utility.yul\":32758:32842   */\n      tag_338\n      jump\t// in\n    tag_650:\n        /* \"#utility.yul\":32750:32842   */\n      swap5\n      pop\n        /* \"#utility.yul\":32865:32935   */\n      tag_651\n        /* \"#utility.yul\":32928:32934   */\n      dup4\n        /* \"#utility.yul\":32865:32935   */\n      tag_339\n      jump\t// in\n    tag_651:\n        /* \"#utility.yul\":32855:32935   */\n      swap3\n      pop\n        /* \"#utility.yul\":32964:32968   */\n      0x20\n        /* \"#utility.yul\":32959:32962   */\n      dup11\n        /* \"#utility.yul\":32955:32969   */\n      add\n        /* \"#utility.yul\":32948:32969   */\n      swap10\n      pop\n        /* \"#utility.yul\":32643:32979   */\n      pop\n        /* \"#utility.yul\":32630:32631   */\n      0x01\n        /* \"#utility.yul\":32627:32628   */\n      dup2\n        /* \"#utility.yul\":32623:32632   */\n      add\n        /* \"#utility.yul\":32618:32632   */\n      swap1\n      pop\n        /* \"#utility.yul\":32583:32979   */\n      jump(tag_647)\n    tag_649:\n        /* \"#utility.yul\":32587:32601   */\n      pop\n        /* \"#utility.yul\":32995:32999   */\n      dup3\n        /* \"#utility.yul\":32988:32999   */\n      swap8\n      pop\n        /* \"#utility.yul\":33015:33018   */\n      dup8\n        /* \"#utility.yul\":33008:33018   */\n      swap6\n      pop\n        /* \"#utility.yul\":32177:33024   */\n      pop\n      pop\n      pop\n      pop\n      pop\n        /* \"#utility.yul\":32033:33024   */\n      swap3\n      swap2\n      pop\n      pop\n      jump\t// out\n        /* \"#utility.yul\":33030:33663   */\n    tag_217:\n        /* \"#utility.yul\":33249:33253   */\n      0x00\n        /* \"#utility.yul\":33287:33289   */\n      0x60\n        /* \"#utility.yul\":33276:33285   */\n      dup3\n        /* \"#utility.yul\":33272:33290   */\n      add\n        /* \"#utility.yul\":33264:33290   */\n      swap1\n      pop\n        /* \"#utility.yul\":33300:33371   */\n      tag_653\n        /* \"#utility.yul\":33368:33369   */\n      0x00\n        /* \"#utility.yul\":33357:33366   */\n      dup4\n        /* \"#utility.yul\":33353:33370   */\n      add\n        /* \"#utility.yul\":33344:33350   */\n      dup7\n        /* \"#utility.yul\":33300:33371   */\n      tag_267\n      jump\t// in\n    tag_653:\n        /* \"#utility.yul\":33381:33453   */\n      tag_654\n        /* \"#utility.yul\":33449:33451   */\n      0x20\n        /* \"#utility.yul\":33438:33447   */\n      dup4\n        /* \"#utility.yul\":33434:33452   */\n      add\n        /* \"#utility.yul\":33425:33431   */\n      dup6\n        /* \"#utility.yul\":33381:33453   */\n      tag_267\n      jump\t// in\n    tag_654:\n        /* \"#utility.yul\":33500:33509   */\n      dup2\n        /* \"#utility.yul\":33494:33498   */\n      dup2\n        /* \"#utility.yul\":33490:33510   */\n      sub\n        /* \"#utility.yul\":33485:33487   */\n      0x40\n        /* \"#utility.yul\":33474:33483   */\n      dup4\n        /* \"#utility.yul\":33470:33488   */\n      add\n        /* \"#utility.yul\":33463:33511   */\n      mstore\n        /* \"#utility.yul\":33528:33656   */\n      tag_655\n        /* \"#utility.yul\":33651:33655   */\n      dup2\n        /* \"#utility.yul\":33642:33648   */\n      dup5\n        /* \"#utility.yul\":33528:33656   */\n      tag_340\n      jump\t// in\n    tag_655:\n        /* \"#utility.yul\":33520:33656   */\n      swap1\n      pop\n        /* \"#utility.yul\":33030:33663   */\n      swap5\n      swap4\n      pop\n      pop\n      pop\n      pop\n      jump\t// out\n        /* \"#utility.yul\":33669:33755   */\n    tag_341:\n        /* \"#utility.yul\":33704:33711   */\n      0x00\n        /* \"#utility.yul\":33744:33748   */\n      0xff\n        /* \"#utility.yul\":33737:33742   */\n      dup3\n        /* \"#utility.yul\":33733:33749   */\n      and\n        /* \"#utility.yul\":33722:33749   */\n      swap1\n      pop\n        /* \"#utility.yul\":33669:33755   */\n      swap2\n      swap1\n      pop\n      jump\t// out\n        /* \"#utility.yul\":33761:33928   */\n    tag_227:\n        /* \"#utility.yul\":33798:33801   */\n      0x00\n        /* \"#utility.yul\":33821:33843   */\n      tag_658\n        /* \"#utility.yul\":33837:33842   */\n      dup3\n        /* \"#utility.yul\":33821:33843   */\n      tag_341\n      jump\t// in\n    tag_658:\n        /* \"#utility.yul\":33812:33843   */\n      swap2\n      pop\n        /* \"#utility.yul\":33865:33869   */\n      0xff\n        /* \"#utility.yul\":33858:33863   */\n      dup3\n        /* \"#utility.yul\":33855:33870   */\n      sub\n        /* \"#utility.yul\":33852:33893   */\n      tag_659\n      jumpi\n        /* \"#utility.yul\":33873:33891   */\n      tag_660\n      tag_309\n      jump\t// in\n    tag_660:\n        /* \"#utility.yul\":33852:33893   */\n    tag_659:\n        /* \"#utility.yul\":33920:33921   */\n      0x01\n        /* \"#utility.yul\":33913:33918   */\n      dup3\n        /* \"#utility.yul\":33909:33922   */\n      add\n        /* \"#utility.yul\":33902:33922   */\n      swap1\n      pop\n        /* \"#utility.yul\":33761:33928   */\n      swap2\n      swap1\n      pop\n      jump\t// out\n\n    auxdata: 0xa2646970667358221220a6ac771ca9081762c3eb07c044c7bb12c6256fe45d6d3be18827f9467b3303a764736f6c63430008120033\n}\n",
				"bytecode": {
					"linkReferences": {},
					"object": "608060405234801561001057600080fd5b50612547806100206000396000f3fe6080604052600436106101095760003560e01c80639207891d11610095578063bbff716611610064578063bbff7166146103c3578063cf09449714610400578063d624d6fd1461042b578063e3eed5c914610454578063ed8c2aed1461049157610109565b80639207891d146102fc5780639b85e14f146103275780639e31906314610343578063ac2f00741461038257610109565b806346f86716116100dc57806346f86716146102055780634c3c234f146102425780636b7128ec1461026b5780636f4a2cd0146102a857806391cbfb41146102bf57610109565b806306455f5e1461010e57806327e235e31461014b578063420700f61461018857806343859632146101c8575b600080fd5b34801561011a57600080fd5b5061013560048036038101906101309190611404565b6104a8565b6040516101429190611453565b60405180910390f35b34801561015757600080fd5b50610172600480360381019061016d919061146e565b6104cd565b60405161017f9190611453565b60405180910390f35b34801561019457600080fd5b506101af60048036038101906101aa919061149b565b6104e5565b6040516101bf949392919061157a565b60405180910390f35b3480156101d457600080fd5b506101ef60048036038101906101ea9190611404565b6105da565b6040516101fc91906115e1565b60405180910390f35b34801561021157600080fd5b5061022c600480360381019061022791906115fc565b610609565b6040516102399190611453565b60405180910390f35b34801561024e57600080fd5b506102696004803603810190610264919061149b565b610621565b005b34801561027757600080fd5b50610292600480360381019061028d91906115fc565b610985565b60405161029f9190611453565b60405180910390f35b3480156102b457600080fd5b506102bd6109a5565b005b3480156102cb57600080fd5b506102e660048036038101906102e1919061149b565b6109a7565b6040516102f39190611453565b60405180910390f35b34801561030857600080fd5b506103116109d8565b60405161031e9190611453565b60405180910390f35b610341600480360381019061033c919061165f565b6109de565b005b34801561034f57600080fd5b5061036a60048036038101906103659190611404565b610dd8565b6040516103799392919061169f565b60405180910390f35b34801561038e57600080fd5b506103a960048036038101906103a491906115fc565b610e2f565b6040516103ba9594939291906116d6565b60405180910390f35b3480156103cf57600080fd5b506103ea60048036038101906103e591906115fc565b610ea2565b6040516103f79190611453565b60405180910390f35b34801561040c57600080fd5b50610415610f14565b6040516104229190611453565b60405180910390f35b34801561043757600080fd5b50610452600480360381019061044d9190611944565b610f1a565b005b34801561046057600080fd5b5061047b6004803603810190610476919061149b565b611128565b6040516104889190611453565b60405180910390f35b34801561049d57600080fd5b506104a6611130565b005b6003602052816000526040600020602052806000526040600020600091509150505481565b60056020528060005260406000206000915090505481565b6006602052816000526040600020818154811061050157600080fd5b90600052602060002090600402016000915091505080600001549080600101805461052b906119e2565b80601f0160208091040260200160405190810160405280929190818152602001828054610557906119e2565b80156105a45780601f10610579576101008083540402835291602001916105a4565b820191906000526020600020905b81548152906001019060200180831161058757829003601f168201915b5050505050908060020160009054906101000a900473ffffffffffffffffffffffffffffffffffffffff16908060030154905084565b60076020528160005260406000206020528060005260406000206000915091509054906101000a900460ff1681565b60026020528060005260406000206000915090505481565b60006009838154811061063757610636611a13565b5b906000526020600020906006020190506007600084815260200190815260200160002060003373ffffffffffffffffffffffffffffffffffffffff1673ffffffffffffffffffffffffffffffffffffffff16815260200190815260200160002060009054906101000a900460ff16156106e5576040517f08c379a00000000000000000000000000000000000000000000000000000000081526004016106dc90611a8e565b60405180910390fd5b8060050160009054906101000a900460ff16610736576040517f08c379a000000000000000000000000000000000000000000000000000000000815260040161072d90611afa565b60405180910390fd5b8060020154421015801561074e575080600301544211155b61078d576040517f08c379a000000000000000000000000000000000000000000000000000000000815260040161078490611b66565b60405180910390fd5b600082101580156107a45750806004018054905082105b6107e3576040517f08c379a00000000000000000000000000000000000000000000000000000000081526004016107da90611bd2565b60405180910390fd5b60016007600085815260200190815260200160002060003373ffffffffffffffffffffffffffffffffffffffff1673ffffffffffffffffffffffffffffffffffffffff16815260200190815260200160002060006101000a81548160ff021916908315150217905550600060405180606001604052808581526020013373ffffffffffffffffffffffffffffffffffffffff168152602001848152509050806008600086815260200190815260200160002060003373ffffffffffffffffffffffffffffffffffffffff1673ffffffffffffffffffffffffffffffffffffffff1681526020019081526020016000206000820151816000015560208201518160010160006101000a81548173ffffffffffffffffffffffffffffffffffffffff021916908373ffffffffffffffffffffffffffffffffffffffff160217905550604082015181600201559050503373ffffffffffffffffffffffffffffffffffffffff16847fe7ee74ca1f4bb1b82b14f87794c45b3e59c39e372b862fb97a6316b43355b69e856040516109779190611453565b60405180910390a350505050565b600060066000838152602001908152602001600020805490509050919050565b565b600460205281600052604060002081815481106109c357600080fd5b90600052602060002001600091509150505481565b60005481565b600982815481106109f2576109f1611a13565b5b906000526020600020906006020160020154421015610a46576040517f08c379a0000000000000000000000000000000000000000000000000000000008152600401610a3d90611c64565b60405180910390fd5b60098281548110610a5a57610a59611a13565b5b9060005260206000209060060201600301544210610aad576040517f08c379a0000000000000000000000000000000000000000000000000000000008152600401610aa490611cf6565b60405180910390fd5b60003411610af0576040517f08c379a0000000000000000000000000000000000000000000000000000000008152600401610ae790611d62565b60405180910390fd5b600080600090505b60098481548110610b0c57610b0b611a13565b5b906000526020600020906006020160040180549050811015610b9f578260098581548110610b3d57610b3c611a13565b5b90600052602060002090600602016004018281548110610b6057610b5f611a13565b5b90600052602060002001604051610b779190611e25565b604051809103902003610b8c57809150610b9f565b8080610b9790611e6b565b915050610af8565b5060008111610be3576040517f08c379a0000000000000000000000000000000000000000000000000000000008152600401610bda90611f4b565b60405180910390fd5b34600260008581526020019081526020016000206000828254610c069190611f6b565b92505081905550346003600085815260200190815260200160002060003373ffffffffffffffffffffffffffffffffffffffff1673ffffffffffffffffffffffffffffffffffffffff1681526020019081526020016000206000828254610c6d9190611f6b565b9250508190555060016000815480929190610c8790611e6b565b9190505550600660008481526020019081526020016000206040518060800160405280858152602001610cb985611132565b81526020013373ffffffffffffffffffffffffffffffffffffffff168152602001348152509080600181540180825580915050600190039060005260206000209060040201600090919091909150600082015181600001556020820151816001019081610d26919061214b565b5060408201518160020160006101000a81548173ffffffffffffffffffffffffffffffffffffffff021916908373ffffffffffffffffffffffffffffffffffffffff1602179055506060820151816003015550503373ffffffffffffffffffffffffffffffffffffffff16837ffa643037cee917ec3049f1ba2bfb5d4df493f0b6db3ed68f3716d11233494e7d610dbc85611132565b34604051610dcb92919061221d565b60405180910390a3505050565b6008602052816000526040600020602052806000526040600020600091509150508060000154908060010160009054906101000a900473ffffffffffffffffffffffffffffffffffffffff16908060020154905083565b60098181548110610e3f57600080fd5b90600052602060002090600602016000915090508060000154908060010160009054906101000a900473ffffffffffffffffffffffffffffffffffffffff16908060020154908060030154908060050160009054906101000a900460ff16905085565b600060098281548110610eb857610eb7611a13565b5b9060005260206000209060060201600301544211610f0b576040517f08c379a0000000000000000000000000000000000000000000000000000000008152600401610f0290612299565b60405180910390fd5b60009050919050565b60015481565b828211610f5c576040517f08c379a0000000000000000000000000000000000000000000000000000000008152600401610f5390612305565b60405180910390fd5b6001815111610fa0576040517f08c379a0000000000000000000000000000000000000000000000000000000008152600401610f9790612371565b60405180910390fd5b600080815480929190610fb290611e6b565b919050555060006040518060c0016040528060005481526020013373ffffffffffffffffffffffffffffffffffffffff1681526020018581526020018481526020018381526020016001151581525090508060096000548154811061101a57611019611a13565b5b90600052602060002090600602016000820151816000015560208201518160010160006101000a81548173ffffffffffffffffffffffffffffffffffffffff021916908373ffffffffffffffffffffffffffffffffffffffff160217905550604082015181600201556060820151816003015560808201518160040190805190602001906110a9929190611282565b5060a08201518160050160006101000a81548160ff0219169083151502179055509050503373ffffffffffffffffffffffffffffffffffffffff166000547f58d87e181e9ac91f8ccda34caaf4c15db2a9fc345a86ea48e378d6e4359dfdb986868660405161111a9392919061249d565b60405180910390a350505050565b600092915050565b565b606060005b60208160ff161080156111895750600060f81b838260ff16602081106111605761115f611a13565b5b1a60f81b7effffffffffffffffffffffffffffffffffffffffffffffffffffffffffffff191614155b156111a1578080611199906124e8565b915050611137565b60008160ff1667ffffffffffffffff8111156111c0576111bf61172e565b5b6040519080825280601f01601f1916602001820160405280156111f25781602001600182028036833780820191505090505b509050600091505b80518260ff16101561127857838260ff166020811061121c5761121b611a13565b5b1a60f81b818360ff168151811061123657611235611a13565b5b60200101907effffffffffffffffffffffffffffffffffffffffffffffffffffffffffffff1916908160001a9053508180611270906124e8565b9250506111fa565b8092505050919050565b8280548282559060005260206000209081019282156112ca579160200282015b828111156112c95782518290816112b9919061214b565b50916020019190600101906112a2565b5b5090506112d791906112db565b5090565b5b808211156112fb57600081816112f291906112ff565b506001016112dc565b5090565b50805461130b906119e2565b6000825580601f1061131d575061133c565b601f01602090049060005260206000209081019061133b919061133f565b5b50565b5b80821115611358576000816000905550600101611340565b5090565b6000604051905090565b600080fd5b600080fd5b6000819050919050565b61138381611370565b811461138e57600080fd5b50565b6000813590506113a08161137a565b92915050565b600073ffffffffffffffffffffffffffffffffffffffff82169050919050565b60006113d1826113a6565b9050919050565b6113e1816113c6565b81146113ec57600080fd5b50565b6000813590506113fe816113d8565b92915050565b6000806040838503121561141b5761141a611366565b5b600061142985828601611391565b925050602061143a858286016113ef565b9150509250929050565b61144d81611370565b82525050565b60006020820190506114686000830184611444565b92915050565b60006020828403121561148457611483611366565b5b6000611492848285016113ef565b91505092915050565b600080604083850312156114b2576114b1611366565b5b60006114c085828601611391565b92505060206114d185828601611391565b9150509250929050565b600081519050919050565b600082825260208201905092915050565b60005b838110156115155780820151818401526020810190506114fa565b60008484015250505050565b6000601f19601f8301169050919050565b600061153d826114db565b61154781856114e6565b93506115578185602086016114f7565b61156081611521565b840191505092915050565b611574816113c6565b82525050565b600060808201905061158f6000830187611444565b81810360208301526115a18186611532565b90506115b0604083018561156b565b6115bd6060830184611444565b95945050505050565b60008115159050919050565b6115db816115c6565b82525050565b60006020820190506115f660008301846115d2565b92915050565b60006020828403121561161257611611611366565b5b600061162084828501611391565b91505092915050565b6000819050919050565b61163c81611629565b811461164757600080fd5b50565b60008135905061165981611633565b92915050565b6000806040838503121561167657611675611366565b5b600061168485828601611391565b92505060206116958582860161164a565b9150509250929050565b60006060820190506116b46000830186611444565b6116c1602083018561156b565b6116ce6040830184611444565b949350505050565b600060a0820190506116eb6000830188611444565b6116f8602083018761156b565b6117056040830186611444565b6117126060830185611444565b61171f60808301846115d2565b9695505050505050565b600080fd5b7f4e487b7100000000000000000000000000000000000000000000000000000000600052604160045260246000fd5b61176682611521565b810181811067ffffffffffffffff821117156117855761178461172e565b5b80604052505050565b600061179861135c565b90506117a4828261175d565b919050565b600067ffffffffffffffff8211156117c4576117c361172e565b5b602082029050602081019050919050565b600080fd5b600080fd5b600067ffffffffffffffff8211156117fa576117f961172e565b5b61180382611521565b9050602081019050919050565b82818337600083830152505050565b600061183261182d846117df565b61178e565b90508281526020810184848401111561184e5761184d6117da565b5b611859848285611810565b509392505050565b600082601f83011261187657611875611729565b5b813561188684826020860161181f565b91505092915050565b60006118a261189d846117a9565b61178e565b905080838252602082019050602084028301858111156118c5576118c46117d5565b5b835b8181101561190c57803567ffffffffffffffff8111156118ea576118e9611729565b5b8086016118f78982611861565b855260208501945050506020810190506118c7565b5050509392505050565b600082601f83011261192b5761192a611729565b5b813561193b84826020860161188f565b91505092915050565b60008060006060848603121561195d5761195c611366565b5b600061196b86828701611391565b935050602061197c86828701611391565b925050604084013567ffffffffffffffff81111561199d5761199c61136b565b5b6119a986828701611916565b9150509250925092565b7f4e487b7100000000000000000000000000000000000000000000000000000000600052602260045260246000fd5b600060028204905060018216806119fa57607f821691505b602082108103611a0d57611a0c6119b3565b5b50919050565b7f4e487b7100000000000000000000000000000000000000000000000000000000600052603260045260246000fd5b7f416c726561647920766f74656400000000000000000000000000000000000000600082015250565b6000611a78600d836114e6565b9150611a8382611a42565b602082019050919050565b60006020820190508181036000830152611aa781611a6b565b9050919050565b7f506f6c6c20697320636c6f736564000000000000000000000000000000000000600082015250565b6000611ae4600e836114e6565b9150611aef82611aae565b602082019050919050565b60006020820190508181036000830152611b1381611ad7565b9050919050565b7f506f6c6c206973206e6f74206163746976650000000000000000000000000000600082015250565b6000611b506012836114e6565b9150611b5b82611b1a565b602082019050919050565b60006020820190508181036000830152611b7f81611b43565b9050919050565b7f496e76616c69642063686f696365000000000000000000000000000000000000600082015250565b6000611bbc600e836114e6565b9150611bc782611b86565b602082019050919050565b60006020820190508181036000830152611beb81611baf565b9050919050565b7f506f6c6c20686173206e6f742073746172746564207965742c20796f7520636160008201527f6e6e6f7420626574206f6e206974000000000000000000000000000000000000602082015250565b6000611c4e602e836114e6565b9150611c5982611bf2565b604082019050919050565b60006020820190508181036000830152611c7d81611c41565b9050919050565b7f506f6c6c2068617320656e6465642c20796f752063616e6e6f7420626574206f60008201527f6e20697420616e796d6f72650000000000000000000000000000000000000000602082015250565b6000611ce0602c836114e6565b9150611ceb82611c84565b604082019050919050565b60006020820190508181036000830152611d0f81611cd3565b9050919050565b7f416d6f756e74206d7573742062652067726561746572207468616e2030210000600082015250565b6000611d4c601e836114e6565b9150611d5782611d16565b602082019050919050565b60006020820190508181036000830152611d7b81611d3f565b9050919050565b600081905092915050565b60008190508160005260206000209050919050565b60008154611daf816119e2565b611db98186611d82565b94506001821660008114611dd45760018114611de957611e1c565b60ff1983168652811515820286019350611e1c565b611df285611d8d565b60005b83811015611e1457815481890152600182019150602081019050611df5565b838801955050505b50505092915050565b6000611e318284611da2565b915081905092915050565b7f4e487b7100000000000000000000000000000000000000000000000000000000600052601160045260246000fd5b6000611e7682611370565b91507fffffffffffffffffffffffffffffffffffffffffffffffffffffffffffffffff8203611ea857611ea7611e3c565b5b600182019050919050565b7f496e76616c696420706f6c6c2063686f6963652c20706c656173652073656c6560008201527f6374206f6e65206f662074686520706f6c6c2063686f6963657320746f20626560208201527f74206f6e00000000000000000000000000000000000000000000000000000000604082015250565b6000611f356044836114e6565b9150611f4082611eb3565b606082019050919050565b60006020820190508181036000830152611f6481611f28565b9050919050565b6000611f7682611370565b9150611f8183611370565b9250828201905080821115611f9957611f98611e3c565b5b92915050565b60008190508160005260206000209050919050565b60006020601f8301049050919050565b600082821b905092915050565b6000600883026120017fffffffffffffffffffffffffffffffffffffffffffffffffffffffffffffffff82611fc4565b61200b8683611fc4565b95508019841693508086168417925050509392505050565b6000819050919050565b600061204861204361203e84611370565b612023565b611370565b9050919050565b6000819050919050565b6120628361202d565b61207661206e8261204f565b848454611fd1565b825550505050565b600090565b61208b61207e565b612096818484612059565b505050565b5b818110156120ba576120af600082612083565b60018101905061209c565b5050565b601f8211156120ff576120d081611f9f565b6120d984611fb4565b810160208510156120e8578190505b6120fc6120f485611fb4565b83018261209b565b50505b505050565b600082821c905092915050565b600061212260001984600802612104565b1980831691505092915050565b600061213b8383612111565b9150826002028217905092915050565b612154826114db565b67ffffffffffffffff81111561216d5761216c61172e565b5b61217782546119e2565b6121828282856120be565b600060209050601f8311600181146121b557600084156121a3578287015190505b6121ad858261212f565b865550612215565b601f1984166121c386611f9f565b60005b828110156121eb578489015182556001820191506020850194506020810190506121c6565b868310156122085784890151612204601f891682612111565b8355505b6001600288020188555050505b505050505050565b600060408201905081810360008301526122378185611532565b90506122466020830184611444565b9392505050565b7f506f6c6c20686173206e6f7420656e6465642079657400000000000000000000600082015250565b60006122836016836114e6565b915061228e8261224d565b602082019050919050565b600060208201905081810360008301526122b281612276565b9050919050565b7f496e76616c696420706f6c6c20656e642074696d650000000000000000000000600082015250565b60006122ef6015836114e6565b91506122fa826122b9565b602082019050919050565b6000602082019050818103600083015261231e816122e2565b9050919050565b7f4174206c656173742074776f206f7074696f6e73207265717569726564000000600082015250565b600061235b601d836114e6565b915061236682612325565b602082019050919050565b6000602082019050818103600083015261238a8161234e565b9050919050565b600081519050919050565b600082825260208201905092915050565b6000819050602082019050919050565b600082825260208201905092915050565b60006123d9826114db565b6123e381856123bd565b93506123f38185602086016114f7565b6123fc81611521565b840191505092915050565b600061241383836123ce565b905092915050565b6000602082019050919050565b600061243382612391565b61243d818561239c565b93508360208202850161244f856123ad565b8060005b8581101561248b578484038952815161246c8582612407565b94506124778361241b565b925060208a01995050600181019050612453565b50829750879550505050505092915050565b60006060820190506124b26000830186611444565b6124bf6020830185611444565b81810360408301526124d18184612428565b9050949350505050565b600060ff82169050919050565b60006124f3826124db565b915060ff820361250657612505611e3c565b5b60018201905091905056fea2646970667358221220a6ac771ca9081762c3eb07c044c7bb12c6256fe45d6d3be18827f9467b3303a764736f6c63430008120033",
					"opcodes": "PUSH1 0x80 PUSH1 0x40 MSTORE CALLVALUE DUP1 ISZERO PUSH2 0x10 JUMPI PUSH1 0x0 DUP1 REVERT JUMPDEST POP PUSH2 0x2547 DUP1 PUSH2 0x20 PUSH1 0x0 CODECOPY PUSH1 0x0 RETURN INVALID PUSH1 0x80 PUSH1 0x40 MSTORE PUSH1 0x4 CALLDATASIZE LT PUSH2 0x109 JUMPI PUSH1 0x0 CALLDATALOAD PUSH1 0xE0 SHR DUP1 PUSH4 0x9207891D GT PUSH2 0x95 JUMPI DUP1 PUSH4 0xBBFF7166 GT PUSH2 0x64 JUMPI DUP1 PUSH4 0xBBFF7166 EQ PUSH2 0x3C3 JUMPI DUP1 PUSH4 0xCF094497 EQ PUSH2 0x400 JUMPI DUP1 PUSH4 0xD624D6FD EQ PUSH2 0x42B JUMPI DUP1 PUSH4 0xE3EED5C9 EQ PUSH2 0x454 JUMPI DUP1 PUSH4 0xED8C2AED EQ PUSH2 0x491 JUMPI PUSH2 0x109 JUMP JUMPDEST DUP1 PUSH4 0x9207891D EQ PUSH2 0x2FC JUMPI DUP1 PUSH4 0x9B85E14F EQ PUSH2 0x327 JUMPI DUP1 PUSH4 0x9E319063 EQ PUSH2 0x343 JUMPI DUP1 PUSH4 0xAC2F0074 EQ PUSH2 0x382 JUMPI PUSH2 0x109 JUMP JUMPDEST DUP1 PUSH4 0x46F86716 GT PUSH2 0xDC JUMPI DUP1 PUSH4 0x46F86716 EQ PUSH2 0x205 JUMPI DUP1 PUSH4 0x4C3C234F EQ PUSH2 0x242 JUMPI DUP1 PUSH4 0x6B7128EC EQ PUSH2 0x26B JUMPI DUP1 PUSH4 0x6F4A2CD0 EQ PUSH2 0x2A8 JUMPI DUP1 PUSH4 0x91CBFB41 EQ PUSH2 0x2BF JUMPI PUSH2 0x109 JUMP JUMPDEST DUP1 PUSH4 0x6455F5E EQ PUSH2 0x10E JUMPI DUP1 PUSH4 0x27E235E3 EQ PUSH2 0x14B JUMPI DUP1 PUSH4 0x420700F6 EQ PUSH2 0x188 JUMPI DUP1 PUSH4 0x43859632 EQ PUSH2 0x1C8 JUMPI JUMPDEST PUSH1 0x0 DUP1 REVERT JUMPDEST CALLVALUE DUP1 ISZERO PUSH2 0x11A JUMPI PUSH1 0x0 DUP1 REVERT JUMPDEST POP PUSH2 0x135 PUSH1 0x4 DUP1 CALLDATASIZE SUB DUP2 ADD SWAP1 PUSH2 0x130 SWAP2 SWAP1 PUSH2 0x1404 JUMP JUMPDEST PUSH2 0x4A8 JUMP JUMPDEST PUSH1 0x40 MLOAD PUSH2 0x142 SWAP2 SWAP1 PUSH2 0x1453 JUMP JUMPDEST PUSH1 0x40 MLOAD DUP1 SWAP2 SUB SWAP1 RETURN JUMPDEST CALLVALUE DUP1 ISZERO PUSH2 0x157 JUMPI PUSH1 0x0 DUP1 REVERT JUMPDEST POP PUSH2 0x172 PUSH1 0x4 DUP1 CALLDATASIZE SUB DUP2 ADD SWAP1 PUSH2 0x16D SWAP2 SWAP1 PUSH2 0x146E JUMP JUMPDEST PUSH2 0x4CD JUMP JUMPDEST PUSH1 0x40 MLOAD PUSH2 0x17F SWAP2 SWAP1 PUSH2 0x1453 JUMP JUMPDEST PUSH1 0x40 MLOAD DUP1 SWAP2 SUB SWAP1 RETURN JUMPDEST CALLVALUE DUP1 ISZERO PUSH2 0x194 JUMPI PUSH1 0x0 DUP1 REVERT JUMPDEST POP PUSH2 0x1AF PUSH1 0x4 DUP1 CALLDATASIZE SUB DUP2 ADD SWAP1 PUSH2 0x1AA SWAP2 SWAP1 PUSH2 0x149B JUMP JUMPDEST PUSH2 0x4E5 JUMP JUMPDEST PUSH1 0x40 MLOAD PUSH2 0x1BF SWAP5 SWAP4 SWAP3 SWAP2 SWAP1 PUSH2 0x157A JUMP JUMPDEST PUSH1 0x40 MLOAD DUP1 SWAP2 SUB SWAP1 RETURN JUMPDEST CALLVALUE DUP1 ISZERO PUSH2 0x1D4 JUMPI PUSH1 0x0 DUP1 REVERT JUMPDEST POP PUSH2 0x1EF PUSH1 0x4 DUP1 CALLDATASIZE SUB DUP2 ADD SWAP1 PUSH2 0x1EA SWAP2 SWAP1 PUSH2 0x1404 JUMP JUMPDEST PUSH2 0x5DA JUMP JUMPDEST PUSH1 0x40 MLOAD PUSH2 0x1FC SWAP2 SWAP1 PUSH2 0x15E1 JUMP JUMPDEST PUSH1 0x40 MLOAD DUP1 SWAP2 SUB SWAP1 RETURN JUMPDEST CALLVALUE DUP1 ISZERO PUSH2 0x211 JUMPI PUSH1 0x0 DUP1 REVERT JUMPDEST POP PUSH2 0x22C PUSH1 0x4 DUP1 CALLDATASIZE SUB DUP2 ADD SWAP1 PUSH2 0x227 SWAP2 SWAP1 PUSH2 0x15FC JUMP JUMPDEST PUSH2 0x609 JUMP JUMPDEST PUSH1 0x40 MLOAD PUSH2 0x239 SWAP2 SWAP1 PUSH2 0x1453 JUMP JUMPDEST PUSH1 0x40 MLOAD DUP1 SWAP2 SUB SWAP1 RETURN JUMPDEST CALLVALUE DUP1 ISZERO PUSH2 0x24E JUMPI PUSH1 0x0 DUP1 REVERT JUMPDEST POP PUSH2 0x269 PUSH1 0x4 DUP1 CALLDATASIZE SUB DUP2 ADD SWAP1 PUSH2 0x264 SWAP2 SWAP1 PUSH2 0x149B JUMP JUMPDEST PUSH2 0x621 JUMP JUMPDEST STOP JUMPDEST CALLVALUE DUP1 ISZERO PUSH2 0x277 JUMPI PUSH1 0x0 DUP1 REVERT JUMPDEST POP PUSH2 0x292 PUSH1 0x4 DUP1 CALLDATASIZE SUB DUP2 ADD SWAP1 PUSH2 0x28D SWAP2 SWAP1 PUSH2 0x15FC JUMP JUMPDEST PUSH2 0x985 JUMP JUMPDEST PUSH1 0x40 MLOAD PUSH2 0x29F SWAP2 SWAP1 PUSH2 0x1453 JUMP JUMPDEST PUSH1 0x40 MLOAD DUP1 SWAP2 SUB SWAP1 RETURN JUMPDEST CALLVALUE DUP1 ISZERO PUSH2 0x2B4 JUMPI PUSH1 0x0 DUP1 REVERT JUMPDEST POP PUSH2 0x2BD PUSH2 0x9A5 JUMP JUMPDEST STOP JUMPDEST CALLVALUE DUP1 ISZERO PUSH2 0x2CB JUMPI PUSH1 0x0 DUP1 REVERT JUMPDEST POP PUSH2 0x2E6 PUSH1 0x4 DUP1 CALLDATASIZE SUB DUP2 ADD SWAP1 PUSH2 0x2E1 SWAP2 SWAP1 PUSH2 0x149B JUMP JUMPDEST PUSH2 0x9A7 JUMP JUMPDEST PUSH1 0x40 MLOAD PUSH2 0x2F3 SWAP2 SWAP1 PUSH2 0x1453 JUMP JUMPDEST PUSH1 0x40 MLOAD DUP1 SWAP2 SUB SWAP1 RETURN JUMPDEST CALLVALUE DUP1 ISZERO PUSH2 0x308 JUMPI PUSH1 0x0 DUP1 REVERT JUMPDEST POP PUSH2 0x311 PUSH2 0x9D8 JUMP JUMPDEST PUSH1 0x40 MLOAD PUSH2 0x31E SWAP2 SWAP1 PUSH2 0x1453 JUMP JUMPDEST PUSH1 0x40 MLOAD DUP1 SWAP2 SUB SWAP1 RETURN JUMPDEST PUSH2 0x341 PUSH1 0x4 DUP1 CALLDATASIZE SUB DUP2 ADD SWAP1 PUSH2 0x33C SWAP2 SWAP1 PUSH2 0x165F JUMP JUMPDEST PUSH2 0x9DE JUMP JUMPDEST STOP JUMPDEST CALLVALUE DUP1 ISZERO PUSH2 0x34F JUMPI PUSH1 0x0 DUP1 REVERT JUMPDEST POP PUSH2 0x36A PUSH1 0x4 DUP1 CALLDATASIZE SUB DUP2 ADD SWAP1 PUSH2 0x365 SWAP2 SWAP1 PUSH2 0x1404 JUMP JUMPDEST PUSH2 0xDD8 JUMP JUMPDEST PUSH1 0x40 MLOAD PUSH2 0x379 SWAP4 SWAP3 SWAP2 SWAP1 PUSH2 0x169F JUMP JUMPDEST PUSH1 0x40 MLOAD DUP1 SWAP2 SUB SWAP1 RETURN JUMPDEST CALLVALUE DUP1 ISZERO PUSH2 0x38E JUMPI PUSH1 0x0 DUP1 REVERT JUMPDEST POP PUSH2 0x3A9 PUSH1 0x4 DUP1 CALLDATASIZE SUB DUP2 ADD SWAP1 PUSH2 0x3A4 SWAP2 SWAP1 PUSH2 0x15FC JUMP JUMPDEST PUSH2 0xE2F JUMP JUMPDEST PUSH1 0x40 MLOAD PUSH2 0x3BA SWAP6 SWAP5 SWAP4 SWAP3 SWAP2 SWAP1 PUSH2 0x16D6 JUMP JUMPDEST PUSH1 0x40 MLOAD DUP1 SWAP2 SUB SWAP1 RETURN JUMPDEST CALLVALUE DUP1 ISZERO PUSH2 0x3CF JUMPI PUSH1 0x0 DUP1 REVERT JUMPDEST POP PUSH2 0x3EA PUSH1 0x4 DUP1 CALLDATASIZE SUB DUP2 ADD SWAP1 PUSH2 0x3E5 SWAP2 SWAP1 PUSH2 0x15FC JUMP JUMPDEST PUSH2 0xEA2 JUMP JUMPDEST PUSH1 0x40 MLOAD PUSH2 0x3F7 SWAP2 SWAP1 PUSH2 0x1453 JUMP JUMPDEST PUSH1 0x40 MLOAD DUP1 SWAP2 SUB SWAP1 RETURN JUMPDEST CALLVALUE DUP1 ISZERO PUSH2 0x40C JUMPI PUSH1 0x0 DUP1 REVERT JUMPDEST POP PUSH2 0x415 PUSH2 0xF14 JUMP JUMPDEST PUSH1 0x40 MLOAD PUSH2 0x422 SWAP2 SWAP1 PUSH2 0x1453 JUMP JUMPDEST PUSH1 0x40 MLOAD DUP1 SWAP2 SUB SWAP1 RETURN JUMPDEST CALLVALUE DUP1 ISZERO PUSH2 0x437 JUMPI PUSH1 0x0 DUP1 REVERT JUMPDEST POP PUSH2 0x452 PUSH1 0x4 DUP1 CALLDATASIZE SUB DUP2 ADD SWAP1 PUSH2 0x44D SWAP2 SWAP1 PUSH2 0x1944 JUMP JUMPDEST PUSH2 0xF1A JUMP JUMPDEST STOP JUMPDEST CALLVALUE DUP1 ISZERO PUSH2 0x460 JUMPI PUSH1 0x0 DUP1 REVERT JUMPDEST POP PUSH2 0x47B PUSH1 0x4 DUP1 CALLDATASIZE SUB DUP2 ADD SWAP1 PUSH2 0x476 SWAP2 SWAP1 PUSH2 0x149B JUMP JUMPDEST PUSH2 0x1128 JUMP JUMPDEST PUSH1 0x40 MLOAD PUSH2 0x488 SWAP2 SWAP1 PUSH2 0x1453 JUMP JUMPDEST PUSH1 0x40 MLOAD DUP1 SWAP2 SUB SWAP1 RETURN JUMPDEST CALLVALUE DUP1 ISZERO PUSH2 0x49D JUMPI PUSH1 0x0 DUP1 REVERT JUMPDEST POP PUSH2 0x4A6 PUSH2 0x1130 JUMP JUMPDEST STOP JUMPDEST PUSH1 0x3 PUSH1 0x20 MSTORE DUP2 PUSH1 0x0 MSTORE PUSH1 0x40 PUSH1 0x0 KECCAK256 PUSH1 0x20 MSTORE DUP1 PUSH1 0x0 MSTORE PUSH1 0x40 PUSH1 0x0 KECCAK256 PUSH1 0x0 SWAP2 POP SWAP2 POP POP SLOAD DUP2 JUMP JUMPDEST PUSH1 0x5 PUSH1 0x20 MSTORE DUP1 PUSH1 0x0 MSTORE PUSH1 0x40 PUSH1 0x0 KECCAK256 PUSH1 0x0 SWAP2 POP SWAP1 POP SLOAD DUP2 JUMP JUMPDEST PUSH1 0x6 PUSH1 0x20 MSTORE DUP2 PUSH1 0x0 MSTORE PUSH1 0x40 PUSH1 0x0 KECCAK256 DUP2 DUP2 SLOAD DUP2 LT PUSH2 0x501 JUMPI PUSH1 0x0 DUP1 REVERT JUMPDEST SWAP1 PUSH1 0x0 MSTORE PUSH1 0x20 PUSH1 0x0 KECCAK256 SWAP1 PUSH1 0x4 MUL ADD PUSH1 0x0 SWAP2 POP SWAP2 POP POP DUP1 PUSH1 0x0 ADD SLOAD SWAP1 DUP1 PUSH1 0x1 ADD DUP1 SLOAD PUSH2 0x52B SWAP1 PUSH2 0x19E2 JUMP JUMPDEST DUP1 PUSH1 0x1F ADD PUSH1 0x20 DUP1 SWAP2 DIV MUL PUSH1 0x20 ADD PUSH1 0x40 MLOAD SWAP1 DUP2 ADD PUSH1 0x40 MSTORE DUP1 SWAP3 SWAP2 SWAP1 DUP2 DUP2 MSTORE PUSH1 0x20 ADD DUP3 DUP1 SLOAD PUSH2 0x557 SWAP1 PUSH2 0x19E2 JUMP JUMPDEST DUP1 ISZERO PUSH2 0x5A4 JUMPI DUP1 PUSH1 0x1F LT PUSH2 0x579 JUMPI PUSH2 0x100 DUP1 DUP4 SLOAD DIV MUL DUP4 MSTORE SWAP2 PUSH1 0x20 ADD SWAP2 PUSH2 0x5A4 JUMP JUMPDEST DUP3 ADD SWAP2 SWAP1 PUSH1 0x0 MSTORE PUSH1 0x20 PUSH1 0x0 KECCAK256 SWAP1 JUMPDEST DUP2 SLOAD DUP2 MSTORE SWAP1 PUSH1 0x1 ADD SWAP1 PUSH1 0x20 ADD DUP1 DUP4 GT PUSH2 0x587 JUMPI DUP3 SWAP1 SUB PUSH1 0x1F AND DUP3 ADD SWAP2 JUMPDEST POP POP POP POP POP SWAP1 DUP1 PUSH1 0x2 ADD PUSH1 0x0 SWAP1 SLOAD SWAP1 PUSH2 0x100 EXP SWAP1 DIV PUSH20 0xFFFFFFFFFFFFFFFFFFFFFFFFFFFFFFFFFFFFFFFF AND SWAP1 DUP1 PUSH1 0x3 ADD SLOAD SWAP1 POP DUP5 JUMP JUMPDEST PUSH1 0x7 PUSH1 0x20 MSTORE DUP2 PUSH1 0x0 MSTORE PUSH1 0x40 PUSH1 0x0 KECCAK256 PUSH1 0x20 MSTORE DUP1 PUSH1 0x0 MSTORE PUSH1 0x40 PUSH1 0x0 KECCAK256 PUSH1 0x0 SWAP2 POP SWAP2 POP SWAP1 SLOAD SWAP1 PUSH2 0x100 EXP SWAP1 DIV PUSH1 0xFF AND DUP2 JUMP JUMPDEST PUSH1 0x2 PUSH1 0x20 MSTORE DUP1 PUSH1 0x0 MSTORE PUSH1 0x40 PUSH1 0x0 KECCAK256 PUSH1 0x0 SWAP2 POP SWAP1 POP SLOAD DUP2 JUMP JUMPDEST PUSH1 0x0 PUSH1 0x9 DUP4 DUP2 SLOAD DUP2 LT PUSH2 0x637 JUMPI PUSH2 0x636 PUSH2 0x1A13 JUMP JUMPDEST JUMPDEST SWAP1 PUSH1 0x0 MSTORE PUSH1 0x20 PUSH1 0x0 KECCAK256 SWAP1 PUSH1 0x6 MUL ADD SWAP1 POP PUSH1 0x7 PUSH1 0x0 DUP5 DUP2 MSTORE PUSH1 0x20 ADD SWAP1 DUP2 MSTORE PUSH1 0x20 ADD PUSH1 0x0 KECCAK256 PUSH1 0x0 CALLER PUSH20 0xFFFFFFFFFFFFFFFFFFFFFFFFFFFFFFFFFFFFFFFF AND PUSH20 0xFFFFFFFFFFFFFFFFFFFFFFFFFFFFFFFFFFFFFFFF AND DUP2 MSTORE PUSH1 0x20 ADD SWAP1 DUP2 MSTORE PUSH1 0x20 ADD PUSH1 0x0 KECCAK256 PUSH1 0x0 SWAP1 SLOAD SWAP1 PUSH2 0x100 EXP SWAP1 DIV PUSH1 0xFF AND ISZERO PUSH2 0x6E5 JUMPI PUSH1 0x40 MLOAD PUSH32 0x8C379A000000000000000000000000000000000000000000000000000000000 DUP2 MSTORE PUSH1 0x4 ADD PUSH2 0x6DC SWAP1 PUSH2 0x1A8E JUMP JUMPDEST PUSH1 0x40 MLOAD DUP1 SWAP2 SUB SWAP1 REVERT JUMPDEST DUP1 PUSH1 0x5 ADD PUSH1 0x0 SWAP1 SLOAD SWAP1 PUSH2 0x100 EXP SWAP1 DIV PUSH1 0xFF AND PUSH2 0x736 JUMPI PUSH1 0x40 MLOAD PUSH32 0x8C379A000000000000000000000000000000000000000000000000000000000 DUP2 MSTORE PUSH1 0x4 ADD PUSH2 0x72D SWAP1 PUSH2 0x1AFA JUMP JUMPDEST PUSH1 0x40 MLOAD DUP1 SWAP2 SUB SWAP1 REVERT JUMPDEST DUP1 PUSH1 0x2 ADD SLOAD TIMESTAMP LT ISZERO DUP1 ISZERO PUSH2 0x74E JUMPI POP DUP1 PUSH1 0x3 ADD SLOAD TIMESTAMP GT ISZERO JUMPDEST PUSH2 0x78D JUMPI PUSH1 0x40 MLOAD PUSH32 0x8C379A000000000000000000000000000000000000000000000000000000000 DUP2 MSTORE PUSH1 0x4 ADD PUSH2 0x784 SWAP1 PUSH2 0x1B66 JUMP JUMPDEST PUSH1 0x40 MLOAD DUP1 SWAP2 SUB SWAP1 REVERT JUMPDEST PUSH1 0x0 DUP3 LT ISZERO DUP1 ISZERO PUSH2 0x7A4 JUMPI POP DUP1 PUSH1 0x4 ADD DUP1 SLOAD SWAP1 POP DUP3 LT JUMPDEST PUSH2 0x7E3 JUMPI PUSH1 0x40 MLOAD PUSH32 0x8C379A000000000000000000000000000000000000000000000000000000000 DUP2 MSTORE PUSH1 0x4 ADD PUSH2 0x7DA SWAP1 PUSH2 0x1BD2 JUMP JUMPDEST PUSH1 0x40 MLOAD DUP1 SWAP2 SUB SWAP1 REVERT JUMPDEST PUSH1 0x1 PUSH1 0x7 PUSH1 0x0 DUP6 DUP2 MSTORE PUSH1 0x20 ADD SWAP1 DUP2 MSTORE PUSH1 0x20 ADD PUSH1 0x0 KECCAK256 PUSH1 0x0 CALLER PUSH20 0xFFFFFFFFFFFFFFFFFFFFFFFFFFFFFFFFFFFFFFFF AND PUSH20 0xFFFFFFFFFFFFFFFFFFFFFFFFFFFFFFFFFFFFFFFF AND DUP2 MSTORE PUSH1 0x20 ADD SWAP1 DUP2 MSTORE PUSH1 0x20 ADD PUSH1 0x0 KECCAK256 PUSH1 0x0 PUSH2 0x100 EXP DUP2 SLOAD DUP2 PUSH1 0xFF MUL NOT AND SWAP1 DUP4 ISZERO ISZERO MUL OR SWAP1 SSTORE POP PUSH1 0x0 PUSH1 0x40 MLOAD DUP1 PUSH1 0x60 ADD PUSH1 0x40 MSTORE DUP1 DUP6 DUP2 MSTORE PUSH1 0x20 ADD CALLER PUSH20 0xFFFFFFFFFFFFFFFFFFFFFFFFFFFFFFFFFFFFFFFF AND DUP2 MSTORE PUSH1 0x20 ADD DUP5 DUP2 MSTORE POP SWAP1 POP DUP1 PUSH1 0x8 PUSH1 0x0 DUP7 DUP2 MSTORE PUSH1 0x20 ADD SWAP1 DUP2 MSTORE PUSH1 0x20 ADD PUSH1 0x0 KECCAK256 PUSH1 0x0 CALLER PUSH20 0xFFFFFFFFFFFFFFFFFFFFFFFFFFFFFFFFFFFFFFFF AND PUSH20 0xFFFFFFFFFFFFFFFFFFFFFFFFFFFFFFFFFFFFFFFF AND DUP2 MSTORE PUSH1 0x20 ADD SWAP1 DUP2 MSTORE PUSH1 0x20 ADD PUSH1 0x0 KECCAK256 PUSH1 0x0 DUP3 ADD MLOAD DUP2 PUSH1 0x0 ADD SSTORE PUSH1 0x20 DUP3 ADD MLOAD DUP2 PUSH1 0x1 ADD PUSH1 0x0 PUSH2 0x100 EXP DUP2 SLOAD DUP2 PUSH20 0xFFFFFFFFFFFFFFFFFFFFFFFFFFFFFFFFFFFFFFFF MUL NOT AND SWAP1 DUP4 PUSH20 0xFFFFFFFFFFFFFFFFFFFFFFFFFFFFFFFFFFFFFFFF AND MUL OR SWAP1 SSTORE POP PUSH1 0x40 DUP3 ADD MLOAD DUP2 PUSH1 0x2 ADD SSTORE SWAP1 POP POP CALLER PUSH20 0xFFFFFFFFFFFFFFFFFFFFFFFFFFFFFFFFFFFFFFFF AND DUP5 PUSH32 0xE7EE74CA1F4BB1B82B14F87794C45B3E59C39E372B862FB97A6316B43355B69E DUP6 PUSH1 0x40 MLOAD PUSH2 0x977 SWAP2 SWAP1 PUSH2 0x1453 JUMP JUMPDEST PUSH1 0x40 MLOAD DUP1 SWAP2 SUB SWAP1 LOG3 POP POP POP POP JUMP JUMPDEST PUSH1 0x0 PUSH1 0x6 PUSH1 0x0 DUP4 DUP2 MSTORE PUSH1 0x20 ADD SWAP1 DUP2 MSTORE PUSH1 0x20 ADD PUSH1 0x0 KECCAK256 DUP1 SLOAD SWAP1 POP SWAP1 POP SWAP2 SWAP1 POP JUMP JUMPDEST JUMP JUMPDEST PUSH1 0x4 PUSH1 0x20 MSTORE DUP2 PUSH1 0x0 MSTORE PUSH1 0x40 PUSH1 0x0 KECCAK256 DUP2 DUP2 SLOAD DUP2 LT PUSH2 0x9C3 JUMPI PUSH1 0x0 DUP1 REVERT JUMPDEST SWAP1 PUSH1 0x0 MSTORE PUSH1 0x20 PUSH1 0x0 KECCAK256 ADD PUSH1 0x0 SWAP2 POP SWAP2 POP POP SLOAD DUP2 JUMP JUMPDEST PUSH1 0x0 SLOAD DUP2 JUMP JUMPDEST PUSH1 0x9 DUP3 DUP2 SLOAD DUP2 LT PUSH2 0x9F2 JUMPI PUSH2 0x9F1 PUSH2 0x1A13 JUMP JUMPDEST JUMPDEST SWAP1 PUSH1 0x0 MSTORE PUSH1 0x20 PUSH1 0x0 KECCAK256 SWAP1 PUSH1 0x6 MUL ADD PUSH1 0x2 ADD SLOAD TIMESTAMP LT ISZERO PUSH2 0xA46 JUMPI PUSH1 0x40 MLOAD PUSH32 0x8C379A000000000000000000000000000000000000000000000000000000000 DUP2 MSTORE PUSH1 0x4 ADD PUSH2 0xA3D SWAP1 PUSH2 0x1C64 JUMP JUMPDEST PUSH1 0x40 MLOAD DUP1 SWAP2 SUB SWAP1 REVERT JUMPDEST PUSH1 0x9 DUP3 DUP2 SLOAD DUP2 LT PUSH2 0xA5A JUMPI PUSH2 0xA59 PUSH2 0x1A13 JUMP JUMPDEST JUMPDEST SWAP1 PUSH1 0x0 MSTORE PUSH1 0x20 PUSH1 0x0 KECCAK256 SWAP1 PUSH1 0x6 MUL ADD PUSH1 0x3 ADD SLOAD TIMESTAMP LT PUSH2 0xAAD JUMPI PUSH1 0x40 MLOAD PUSH32 0x8C379A000000000000000000000000000000000000000000000000000000000 DUP2 MSTORE PUSH1 0x4 ADD PUSH2 0xAA4 SWAP1 PUSH2 0x1CF6 JUMP JUMPDEST PUSH1 0x40 MLOAD DUP1 SWAP2 SUB SWAP1 REVERT JUMPDEST PUSH1 0x0 CALLVALUE GT PUSH2 0xAF0 JUMPI PUSH1 0x40 MLOAD PUSH32 0x8C379A000000000000000000000000000000000000000000000000000000000 DUP2 MSTORE PUSH1 0x4 ADD PUSH2 0xAE7 SWAP1 PUSH2 0x1D62 JUMP JUMPDEST PUSH1 0x40 MLOAD DUP1 SWAP2 SUB SWAP1 REVERT JUMPDEST PUSH1 0x0 DUP1 PUSH1 0x0 SWAP1 POP JUMPDEST PUSH1 0x9 DUP5 DUP2 SLOAD DUP2 LT PUSH2 0xB0C JUMPI PUSH2 0xB0B PUSH2 0x1A13 JUMP JUMPDEST JUMPDEST SWAP1 PUSH1 0x0 MSTORE PUSH1 0x20 PUSH1 0x0 KECCAK256 SWAP1 PUSH1 0x6 MUL ADD PUSH1 0x4 ADD DUP1 SLOAD SWAP1 POP DUP2 LT ISZERO PUSH2 0xB9F JUMPI DUP3 PUSH1 0x9 DUP6 DUP2 SLOAD DUP2 LT PUSH2 0xB3D JUMPI PUSH2 0xB3C PUSH2 0x1A13 JUMP JUMPDEST JUMPDEST SWAP1 PUSH1 0x0 MSTORE PUSH1 0x20 PUSH1 0x0 KECCAK256 SWAP1 PUSH1 0x6 MUL ADD PUSH1 0x4 ADD DUP3 DUP2 SLOAD DUP2 LT PUSH2 0xB60 JUMPI PUSH2 0xB5F PUSH2 0x1A13 JUMP JUMPDEST JUMPDEST SWAP1 PUSH1 0x0 MSTORE PUSH1 0x20 PUSH1 0x0 KECCAK256 ADD PUSH1 0x40 MLOAD PUSH2 0xB77 SWAP2 SWAP1 PUSH2 0x1E25 JUMP JUMPDEST PUSH1 0x40 MLOAD DUP1 SWAP2 SUB SWAP1 KECCAK256 SUB PUSH2 0xB8C JUMPI DUP1 SWAP2 POP PUSH2 0xB9F JUMP JUMPDEST DUP1 DUP1 PUSH2 0xB97 SWAP1 PUSH2 0x1E6B JUMP JUMPDEST SWAP2 POP POP PUSH2 0xAF8 JUMP JUMPDEST POP PUSH1 0x0 DUP2 GT PUSH2 0xBE3 JUMPI PUSH1 0x40 MLOAD PUSH32 0x8C379A000000000000000000000000000000000000000000000000000000000 DUP2 MSTORE PUSH1 0x4 ADD PUSH2 0xBDA SWAP1 PUSH2 0x1F4B JUMP JUMPDEST PUSH1 0x40 MLOAD DUP1 SWAP2 SUB SWAP1 REVERT JUMPDEST CALLVALUE PUSH1 0x2 PUSH1 0x0 DUP6 DUP2 MSTORE PUSH1 0x20 ADD SWAP1 DUP2 MSTORE PUSH1 0x20 ADD PUSH1 0x0 KECCAK256 PUSH1 0x0 DUP3 DUP3 SLOAD PUSH2 0xC06 SWAP2 SWAP1 PUSH2 0x1F6B JUMP JUMPDEST SWAP3 POP POP DUP2 SWAP1 SSTORE POP CALLVALUE PUSH1 0x3 PUSH1 0x0 DUP6 DUP2 MSTORE PUSH1 0x20 ADD SWAP1 DUP2 MSTORE PUSH1 0x20 ADD PUSH1 0x0 KECCAK256 PUSH1 0x0 CALLER PUSH20 0xFFFFFFFFFFFFFFFFFFFFFFFFFFFFFFFFFFFFFFFF AND PUSH20 0xFFFFFFFFFFFFFFFFFFFFFFFFFFFFFFFFFFFFFFFF AND DUP2 MSTORE PUSH1 0x20 ADD SWAP1 DUP2 MSTORE PUSH1 0x20 ADD PUSH1 0x0 KECCAK256 PUSH1 0x0 DUP3 DUP3 SLOAD PUSH2 0xC6D SWAP2 SWAP1 PUSH2 0x1F6B JUMP JUMPDEST SWAP3 POP POP DUP2 SWAP1 SSTORE POP PUSH1 0x1 PUSH1 0x0 DUP2 SLOAD DUP1 SWAP3 SWAP2 SWAP1 PUSH2 0xC87 SWAP1 PUSH2 0x1E6B JUMP JUMPDEST SWAP2 SWAP1 POP SSTORE POP PUSH1 0x6 PUSH1 0x0 DUP5 DUP2 MSTORE PUSH1 0x20 ADD SWAP1 DUP2 MSTORE PUSH1 0x20 ADD PUSH1 0x0 KECCAK256 PUSH1 0x40 MLOAD DUP1 PUSH1 0x80 ADD PUSH1 0x40 MSTORE DUP1 DUP6 DUP2 MSTORE PUSH1 0x20 ADD PUSH2 0xCB9 DUP6 PUSH2 0x1132 JUMP JUMPDEST DUP2 MSTORE PUSH1 0x20 ADD CALLER PUSH20 0xFFFFFFFFFFFFFFFFFFFFFFFFFFFFFFFFFFFFFFFF AND DUP2 MSTORE PUSH1 0x20 ADD CALLVALUE DUP2 MSTORE POP SWAP1 DUP1 PUSH1 0x1 DUP2 SLOAD ADD DUP1 DUP3 SSTORE DUP1 SWAP2 POP POP PUSH1 0x1 SWAP1 SUB SWAP1 PUSH1 0x0 MSTORE PUSH1 0x20 PUSH1 0x0 KECCAK256 SWAP1 PUSH1 0x4 MUL ADD PUSH1 0x0 SWAP1 SWAP2 SWAP1 SWAP2 SWAP1 SWAP2 POP PUSH1 0x0 DUP3 ADD MLOAD DUP2 PUSH1 0x0 ADD SSTORE PUSH1 0x20 DUP3 ADD MLOAD DUP2 PUSH1 0x1 ADD SWAP1 DUP2 PUSH2 0xD26 SWAP2 SWAP1 PUSH2 0x214B JUMP JUMPDEST POP PUSH1 0x40 DUP3 ADD MLOAD DUP2 PUSH1 0x2 ADD PUSH1 0x0 PUSH2 0x100 EXP DUP2 SLOAD DUP2 PUSH20 0xFFFFFFFFFFFFFFFFFFFFFFFFFFFFFFFFFFFFFFFF MUL NOT AND SWAP1 DUP4 PUSH20 0xFFFFFFFFFFFFFFFFFFFFFFFFFFFFFFFFFFFFFFFF AND MUL OR SWAP1 SSTORE POP PUSH1 0x60 DUP3 ADD MLOAD DUP2 PUSH1 0x3 ADD SSTORE POP POP CALLER PUSH20 0xFFFFFFFFFFFFFFFFFFFFFFFFFFFFFFFFFFFFFFFF AND DUP4 PUSH32 0xFA643037CEE917EC3049F1BA2BFB5D4DF493F0B6DB3ED68F3716D11233494E7D PUSH2 0xDBC DUP6 PUSH2 0x1132 JUMP JUMPDEST CALLVALUE PUSH1 0x40 MLOAD PUSH2 0xDCB SWAP3 SWAP2 SWAP1 PUSH2 0x221D JUMP JUMPDEST PUSH1 0x40 MLOAD DUP1 SWAP2 SUB SWAP1 LOG3 POP POP POP JUMP JUMPDEST PUSH1 0x8 PUSH1 0x20 MSTORE DUP2 PUSH1 0x0 MSTORE PUSH1 0x40 PUSH1 0x0 KECCAK256 PUSH1 0x20 MSTORE DUP1 PUSH1 0x0 MSTORE PUSH1 0x40 PUSH1 0x0 KECCAK256 PUSH1 0x0 SWAP2 POP SWAP2 POP POP DUP1 PUSH1 0x0 ADD SLOAD SWAP1 DUP1 PUSH1 0x1 ADD PUSH1 0x0 SWAP1 SLOAD SWAP1 PUSH2 0x100 EXP SWAP1 DIV PUSH20 0xFFFFFFFFFFFFFFFFFFFFFFFFFFFFFFFFFFFFFFFF AND SWAP1 DUP1 PUSH1 0x2 ADD SLOAD SWAP1 POP DUP4 JUMP JUMPDEST PUSH1 0x9 DUP2 DUP2 SLOAD DUP2 LT PUSH2 0xE3F JUMPI PUSH1 0x0 DUP1 REVERT JUMPDEST SWAP1 PUSH1 0x0 MSTORE PUSH1 0x20 PUSH1 0x0 KECCAK256 SWAP1 PUSH1 0x6 MUL ADD PUSH1 0x0 SWAP2 POP SWAP1 POP DUP1 PUSH1 0x0 ADD SLOAD SWAP1 DUP1 PUSH1 0x1 ADD PUSH1 0x0 SWAP1 SLOAD SWAP1 PUSH2 0x100 EXP SWAP1 DIV PUSH20 0xFFFFFFFFFFFFFFFFFFFFFFFFFFFFFFFFFFFFFFFF AND SWAP1 DUP1 PUSH1 0x2 ADD SLOAD SWAP1 DUP1 PUSH1 0x3 ADD SLOAD SWAP1 DUP1 PUSH1 0x5 ADD PUSH1 0x0 SWAP1 SLOAD SWAP1 PUSH2 0x100 EXP SWAP1 DIV PUSH1 0xFF AND SWAP1 POP DUP6 JUMP JUMPDEST PUSH1 0x0 PUSH1 0x9 DUP3 DUP2 SLOAD DUP2 LT PUSH2 0xEB8 JUMPI PUSH2 0xEB7 PUSH2 0x1A13 JUMP JUMPDEST JUMPDEST SWAP1 PUSH1 0x0 MSTORE PUSH1 0x20 PUSH1 0x0 KECCAK256 SWAP1 PUSH1 0x6 MUL ADD PUSH1 0x3 ADD SLOAD TIMESTAMP GT PUSH2 0xF0B JUMPI PUSH1 0x40 MLOAD PUSH32 0x8C379A000000000000000000000000000000000000000000000000000000000 DUP2 MSTORE PUSH1 0x4 ADD PUSH2 0xF02 SWAP1 PUSH2 0x2299 JUMP JUMPDEST PUSH1 0x40 MLOAD DUP1 SWAP2 SUB SWAP1 REVERT JUMPDEST PUSH1 0x0 SWAP1 POP SWAP2 SWAP1 POP JUMP JUMPDEST PUSH1 0x1 SLOAD DUP2 JUMP JUMPDEST DUP3 DUP3 GT PUSH2 0xF5C JUMPI PUSH1 0x40 MLOAD PUSH32 0x8C379A000000000000000000000000000000000000000000000000000000000 DUP2 MSTORE PUSH1 0x4 ADD PUSH2 0xF53 SWAP1 PUSH2 0x2305 JUMP JUMPDEST PUSH1 0x40 MLOAD DUP1 SWAP2 SUB SWAP1 REVERT JUMPDEST PUSH1 0x1 DUP2 MLOAD GT PUSH2 0xFA0 JUMPI PUSH1 0x40 MLOAD PUSH32 0x8C379A000000000000000000000000000000000000000000000000000000000 DUP2 MSTORE PUSH1 0x4 ADD PUSH2 0xF97 SWAP1 PUSH2 0x2371 JUMP JUMPDEST PUSH1 0x40 MLOAD DUP1 SWAP2 SUB SWAP1 REVERT JUMPDEST PUSH1 0x0 DUP1 DUP2 SLOAD DUP1 SWAP3 SWAP2 SWAP1 PUSH2 0xFB2 SWAP1 PUSH2 0x1E6B JUMP JUMPDEST SWAP2 SWAP1 POP SSTORE POP PUSH1 0x0 PUSH1 0x40 MLOAD DUP1 PUSH1 0xC0 ADD PUSH1 0x40 MSTORE DUP1 PUSH1 0x0 SLOAD DUP2 MSTORE PUSH1 0x20 ADD CALLER PUSH20 0xFFFFFFFFFFFFFFFFFFFFFFFFFFFFFFFFFFFFFFFF AND DUP2 MSTORE PUSH1 0x20 ADD DUP6 DUP2 MSTORE PUSH1 0x20 ADD DUP5 DUP2 MSTORE PUSH1 0x20 ADD DUP4 DUP2 MSTORE PUSH1 0x20 ADD PUSH1 0x1 ISZERO ISZERO DUP2 MSTORE POP SWAP1 POP DUP1 PUSH1 0x9 PUSH1 0x0 SLOAD DUP2 SLOAD DUP2 LT PUSH2 0x101A JUMPI PUSH2 0x1019 PUSH2 0x1A13 JUMP JUMPDEST JUMPDEST SWAP1 PUSH1 0x0 MSTORE PUSH1 0x20 PUSH1 0x0 KECCAK256 SWAP1 PUSH1 0x6 MUL ADD PUSH1 0x0 DUP3 ADD MLOAD DUP2 PUSH1 0x0 ADD SSTORE PUSH1 0x20 DUP3 ADD MLOAD DUP2 PUSH1 0x1 ADD PUSH1 0x0 PUSH2 0x100 EXP DUP2 SLOAD DUP2 PUSH20 0xFFFFFFFFFFFFFFFFFFFFFFFFFFFFFFFFFFFFFFFF MUL NOT AND SWAP1 DUP4 PUSH20 0xFFFFFFFFFFFFFFFFFFFFFFFFFFFFFFFFFFFFFFFF AND MUL OR SWAP1 SSTORE POP PUSH1 0x40 DUP3 ADD MLOAD DUP2 PUSH1 0x2 ADD SSTORE PUSH1 0x60 DUP3 ADD MLOAD DUP2 PUSH1 0x3 ADD SSTORE PUSH1 0x80 DUP3 ADD MLOAD DUP2 PUSH1 0x4 ADD SWAP1 DUP1 MLOAD SWAP1 PUSH1 0x20 ADD SWAP1 PUSH2 0x10A9 SWAP3 SWAP2 SWAP1 PUSH2 0x1282 JUMP JUMPDEST POP PUSH1 0xA0 DUP3 ADD MLOAD DUP2 PUSH1 0x5 ADD PUSH1 0x0 PUSH2 0x100 EXP DUP2 SLOAD DUP2 PUSH1 0xFF MUL NOT AND SWAP1 DUP4 ISZERO ISZERO MUL OR SWAP1 SSTORE POP SWAP1 POP POP CALLER PUSH20 0xFFFFFFFFFFFFFFFFFFFFFFFFFFFFFFFFFFFFFFFF AND PUSH1 0x0 SLOAD PUSH32 0x58D87E181E9AC91F8CCDA34CAAF4C15DB2A9FC345A86EA48E378D6E4359DFDB9 DUP7 DUP7 DUP7 PUSH1 0x40 MLOAD PUSH2 0x111A SWAP4 SWAP3 SWAP2 SWAP1 PUSH2 0x249D JUMP JUMPDEST PUSH1 0x40 MLOAD DUP1 SWAP2 SUB SWAP1 LOG3 POP POP POP POP JUMP JUMPDEST PUSH1 0x0 SWAP3 SWAP2 POP POP JUMP JUMPDEST JUMP JUMPDEST PUSH1 0x60 PUSH1 0x0 JUMPDEST PUSH1 0x20 DUP2 PUSH1 0xFF AND LT DUP1 ISZERO PUSH2 0x1189 JUMPI POP PUSH1 0x0 PUSH1 0xF8 SHL DUP4 DUP3 PUSH1 0xFF AND PUSH1 0x20 DUP2 LT PUSH2 0x1160 JUMPI PUSH2 0x115F PUSH2 0x1A13 JUMP JUMPDEST JUMPDEST BYTE PUSH1 0xF8 SHL PUSH31 0xFFFFFFFFFFFFFFFFFFFFFFFFFFFFFFFFFFFFFFFFFFFFFFFFFFFFFFFFFFFFFF NOT AND EQ ISZERO JUMPDEST ISZERO PUSH2 0x11A1 JUMPI DUP1 DUP1 PUSH2 0x1199 SWAP1 PUSH2 0x24E8 JUMP JUMPDEST SWAP2 POP POP PUSH2 0x1137 JUMP JUMPDEST PUSH1 0x0 DUP2 PUSH1 0xFF AND PUSH8 0xFFFFFFFFFFFFFFFF DUP2 GT ISZERO PUSH2 0x11C0 JUMPI PUSH2 0x11BF PUSH2 0x172E JUMP JUMPDEST JUMPDEST PUSH1 0x40 MLOAD SWAP1 DUP1 DUP3 MSTORE DUP1 PUSH1 0x1F ADD PUSH1 0x1F NOT AND PUSH1 0x20 ADD DUP3 ADD PUSH1 0x40 MSTORE DUP1 ISZERO PUSH2 0x11F2 JUMPI DUP2 PUSH1 0x20 ADD PUSH1 0x1 DUP3 MUL DUP1 CALLDATASIZE DUP4 CALLDATACOPY DUP1 DUP3 ADD SWAP2 POP POP SWAP1 POP JUMPDEST POP SWAP1 POP PUSH1 0x0 SWAP2 POP JUMPDEST DUP1 MLOAD DUP3 PUSH1 0xFF AND LT ISZERO PUSH2 0x1278 JUMPI DUP4 DUP3 PUSH1 0xFF AND PUSH1 0x20 DUP2 LT PUSH2 0x121C JUMPI PUSH2 0x121B PUSH2 0x1A13 JUMP JUMPDEST JUMPDEST BYTE PUSH1 0xF8 SHL DUP2 DUP4 PUSH1 0xFF AND DUP2 MLOAD DUP2 LT PUSH2 0x1236 JUMPI PUSH2 0x1235 PUSH2 0x1A13 JUMP JUMPDEST JUMPDEST PUSH1 0x20 ADD ADD SWAP1 PUSH31 0xFFFFFFFFFFFFFFFFFFFFFFFFFFFFFFFFFFFFFFFFFFFFFFFFFFFFFFFFFFFFFF NOT AND SWAP1 DUP2 PUSH1 0x0 BYTE SWAP1 MSTORE8 POP DUP2 DUP1 PUSH2 0x1270 SWAP1 PUSH2 0x24E8 JUMP JUMPDEST SWAP3 POP POP PUSH2 0x11FA JUMP JUMPDEST DUP1 SWAP3 POP POP POP SWAP2 SWAP1 POP JUMP JUMPDEST DUP3 DUP1 SLOAD DUP3 DUP3 SSTORE SWAP1 PUSH1 0x0 MSTORE PUSH1 0x20 PUSH1 0x0 KECCAK256 SWAP1 DUP2 ADD SWAP3 DUP3 ISZERO PUSH2 0x12CA JUMPI SWAP2 PUSH1 0x20 MUL DUP3 ADD JUMPDEST DUP3 DUP2 GT ISZERO PUSH2 0x12C9 JUMPI DUP3 MLOAD DUP3 SWAP1 DUP2 PUSH2 0x12B9 SWAP2 SWAP1 PUSH2 0x214B JUMP JUMPDEST POP SWAP2 PUSH1 0x20 ADD SWAP2 SWAP1 PUSH1 0x1 ADD SWAP1 PUSH2 0x12A2 JUMP JUMPDEST JUMPDEST POP SWAP1 POP PUSH2 0x12D7 SWAP2 SWAP1 PUSH2 0x12DB JUMP JUMPDEST POP SWAP1 JUMP JUMPDEST JUMPDEST DUP1 DUP3 GT ISZERO PUSH2 0x12FB JUMPI PUSH1 0x0 DUP2 DUP2 PUSH2 0x12F2 SWAP2 SWAP1 PUSH2 0x12FF JUMP JUMPDEST POP PUSH1 0x1 ADD PUSH2 0x12DC JUMP JUMPDEST POP SWAP1 JUMP JUMPDEST POP DUP1 SLOAD PUSH2 0x130B SWAP1 PUSH2 0x19E2 JUMP JUMPDEST PUSH1 0x0 DUP3 SSTORE DUP1 PUSH1 0x1F LT PUSH2 0x131D JUMPI POP PUSH2 0x133C JUMP JUMPDEST PUSH1 0x1F ADD PUSH1 0x20 SWAP1 DIV SWAP1 PUSH1 0x0 MSTORE PUSH1 0x20 PUSH1 0x0 KECCAK256 SWAP1 DUP2 ADD SWAP1 PUSH2 0x133B SWAP2 SWAP1 PUSH2 0x133F JUMP JUMPDEST JUMPDEST POP JUMP JUMPDEST JUMPDEST DUP1 DUP3 GT ISZERO PUSH2 0x1358 JUMPI PUSH1 0x0 DUP2 PUSH1 0x0 SWAP1 SSTORE POP PUSH1 0x1 ADD PUSH2 0x1340 JUMP JUMPDEST POP SWAP1 JUMP JUMPDEST PUSH1 0x0 PUSH1 0x40 MLOAD SWAP1 POP SWAP1 JUMP JUMPDEST PUSH1 0x0 DUP1 REVERT JUMPDEST PUSH1 0x0 DUP1 REVERT JUMPDEST PUSH1 0x0 DUP2 SWAP1 POP SWAP2 SWAP1 POP JUMP JUMPDEST PUSH2 0x1383 DUP2 PUSH2 0x1370 JUMP JUMPDEST DUP2 EQ PUSH2 0x138E JUMPI PUSH1 0x0 DUP1 REVERT JUMPDEST POP JUMP JUMPDEST PUSH1 0x0 DUP2 CALLDATALOAD SWAP1 POP PUSH2 0x13A0 DUP2 PUSH2 0x137A JUMP JUMPDEST SWAP3 SWAP2 POP POP JUMP JUMPDEST PUSH1 0x0 PUSH20 0xFFFFFFFFFFFFFFFFFFFFFFFFFFFFFFFFFFFFFFFF DUP3 AND SWAP1 POP SWAP2 SWAP1 POP JUMP JUMPDEST PUSH1 0x0 PUSH2 0x13D1 DUP3 PUSH2 0x13A6 JUMP JUMPDEST SWAP1 POP SWAP2 SWAP1 POP JUMP JUMPDEST PUSH2 0x13E1 DUP2 PUSH2 0x13C6 JUMP JUMPDEST DUP2 EQ PUSH2 0x13EC JUMPI PUSH1 0x0 DUP1 REVERT JUMPDEST POP JUMP JUMPDEST PUSH1 0x0 DUP2 CALLDATALOAD SWAP1 POP PUSH2 0x13FE DUP2 PUSH2 0x13D8 JUMP JUMPDEST SWAP3 SWAP2 POP POP JUMP JUMPDEST PUSH1 0x0 DUP1 PUSH1 0x40 DUP4 DUP6 SUB SLT ISZERO PUSH2 0x141B JUMPI PUSH2 0x141A PUSH2 0x1366 JUMP JUMPDEST JUMPDEST PUSH1 0x0 PUSH2 0x1429 DUP6 DUP3 DUP7 ADD PUSH2 0x1391 JUMP JUMPDEST SWAP3 POP POP PUSH1 0x20 PUSH2 0x143A DUP6 DUP3 DUP7 ADD PUSH2 0x13EF JUMP JUMPDEST SWAP2 POP POP SWAP3 POP SWAP3 SWAP1 POP JUMP JUMPDEST PUSH2 0x144D DUP2 PUSH2 0x1370 JUMP JUMPDEST DUP3 MSTORE POP POP JUMP JUMPDEST PUSH1 0x0 PUSH1 0x20 DUP3 ADD SWAP1 POP PUSH2 0x1468 PUSH1 0x0 DUP4 ADD DUP5 PUSH2 0x1444 JUMP JUMPDEST SWAP3 SWAP2 POP POP JUMP JUMPDEST PUSH1 0x0 PUSH1 0x20 DUP3 DUP5 SUB SLT ISZERO PUSH2 0x1484 JUMPI PUSH2 0x1483 PUSH2 0x1366 JUMP JUMPDEST JUMPDEST PUSH1 0x0 PUSH2 0x1492 DUP5 DUP3 DUP6 ADD PUSH2 0x13EF JUMP JUMPDEST SWAP2 POP POP SWAP3 SWAP2 POP POP JUMP JUMPDEST PUSH1 0x0 DUP1 PUSH1 0x40 DUP4 DUP6 SUB SLT ISZERO PUSH2 0x14B2 JUMPI PUSH2 0x14B1 PUSH2 0x1366 JUMP JUMPDEST JUMPDEST PUSH1 0x0 PUSH2 0x14C0 DUP6 DUP3 DUP7 ADD PUSH2 0x1391 JUMP JUMPDEST SWAP3 POP POP PUSH1 0x20 PUSH2 0x14D1 DUP6 DUP3 DUP7 ADD PUSH2 0x1391 JUMP JUMPDEST SWAP2 POP POP SWAP3 POP SWAP3 SWAP1 POP JUMP JUMPDEST PUSH1 0x0 DUP2 MLOAD SWAP1 POP SWAP2 SWAP1 POP JUMP JUMPDEST PUSH1 0x0 DUP3 DUP3 MSTORE PUSH1 0x20 DUP3 ADD SWAP1 POP SWAP3 SWAP2 POP POP JUMP JUMPDEST PUSH1 0x0 JUMPDEST DUP4 DUP2 LT ISZERO PUSH2 0x1515 JUMPI DUP1 DUP3 ADD MLOAD DUP2 DUP5 ADD MSTORE PUSH1 0x20 DUP2 ADD SWAP1 POP PUSH2 0x14FA JUMP JUMPDEST PUSH1 0x0 DUP5 DUP5 ADD MSTORE POP POP POP POP JUMP JUMPDEST PUSH1 0x0 PUSH1 0x1F NOT PUSH1 0x1F DUP4 ADD AND SWAP1 POP SWAP2 SWAP1 POP JUMP JUMPDEST PUSH1 0x0 PUSH2 0x153D DUP3 PUSH2 0x14DB JUMP JUMPDEST PUSH2 0x1547 DUP2 DUP6 PUSH2 0x14E6 JUMP JUMPDEST SWAP4 POP PUSH2 0x1557 DUP2 DUP6 PUSH1 0x20 DUP7 ADD PUSH2 0x14F7 JUMP JUMPDEST PUSH2 0x1560 DUP2 PUSH2 0x1521 JUMP JUMPDEST DUP5 ADD SWAP2 POP POP SWAP3 SWAP2 POP POP JUMP JUMPDEST PUSH2 0x1574 DUP2 PUSH2 0x13C6 JUMP JUMPDEST DUP3 MSTORE POP POP JUMP JUMPDEST PUSH1 0x0 PUSH1 0x80 DUP3 ADD SWAP1 POP PUSH2 0x158F PUSH1 0x0 DUP4 ADD DUP8 PUSH2 0x1444 JUMP JUMPDEST DUP2 DUP2 SUB PUSH1 0x20 DUP4 ADD MSTORE PUSH2 0x15A1 DUP2 DUP7 PUSH2 0x1532 JUMP JUMPDEST SWAP1 POP PUSH2 0x15B0 PUSH1 0x40 DUP4 ADD DUP6 PUSH2 0x156B JUMP JUMPDEST PUSH2 0x15BD PUSH1 0x60 DUP4 ADD DUP5 PUSH2 0x1444 JUMP JUMPDEST SWAP6 SWAP5 POP POP POP POP POP JUMP JUMPDEST PUSH1 0x0 DUP2 ISZERO ISZERO SWAP1 POP SWAP2 SWAP1 POP JUMP JUMPDEST PUSH2 0x15DB DUP2 PUSH2 0x15C6 JUMP JUMPDEST DUP3 MSTORE POP POP JUMP JUMPDEST PUSH1 0x0 PUSH1 0x20 DUP3 ADD SWAP1 POP PUSH2 0x15F6 PUSH1 0x0 DUP4 ADD DUP5 PUSH2 0x15D2 JUMP JUMPDEST SWAP3 SWAP2 POP POP JUMP JUMPDEST PUSH1 0x0 PUSH1 0x20 DUP3 DUP5 SUB SLT ISZERO PUSH2 0x1612 JUMPI PUSH2 0x1611 PUSH2 0x1366 JUMP JUMPDEST JUMPDEST PUSH1 0x0 PUSH2 0x1620 DUP5 DUP3 DUP6 ADD PUSH2 0x1391 JUMP JUMPDEST SWAP2 POP POP SWAP3 SWAP2 POP POP JUMP JUMPDEST PUSH1 0x0 DUP2 SWAP1 POP SWAP2 SWAP1 POP JUMP JUMPDEST PUSH2 0x163C DUP2 PUSH2 0x1629 JUMP JUMPDEST DUP2 EQ PUSH2 0x1647 JUMPI PUSH1 0x0 DUP1 REVERT JUMPDEST POP JUMP JUMPDEST PUSH1 0x0 DUP2 CALLDATALOAD SWAP1 POP PUSH2 0x1659 DUP2 PUSH2 0x1633 JUMP JUMPDEST SWAP3 SWAP2 POP POP JUMP JUMPDEST PUSH1 0x0 DUP1 PUSH1 0x40 DUP4 DUP6 SUB SLT ISZERO PUSH2 0x1676 JUMPI PUSH2 0x1675 PUSH2 0x1366 JUMP JUMPDEST JUMPDEST PUSH1 0x0 PUSH2 0x1684 DUP6 DUP3 DUP7 ADD PUSH2 0x1391 JUMP JUMPDEST SWAP3 POP POP PUSH1 0x20 PUSH2 0x1695 DUP6 DUP3 DUP7 ADD PUSH2 0x164A JUMP JUMPDEST SWAP2 POP POP SWAP3 POP SWAP3 SWAP1 POP JUMP JUMPDEST PUSH1 0x0 PUSH1 0x60 DUP3 ADD SWAP1 POP PUSH2 0x16B4 PUSH1 0x0 DUP4 ADD DUP7 PUSH2 0x1444 JUMP JUMPDEST PUSH2 0x16C1 PUSH1 0x20 DUP4 ADD DUP6 PUSH2 0x156B JUMP JUMPDEST PUSH2 0x16CE PUSH1 0x40 DUP4 ADD DUP5 PUSH2 0x1444 JUMP JUMPDEST SWAP5 SWAP4 POP POP POP POP JUMP JUMPDEST PUSH1 0x0 PUSH1 0xA0 DUP3 ADD SWAP1 POP PUSH2 0x16EB PUSH1 0x0 DUP4 ADD DUP9 PUSH2 0x1444 JUMP JUMPDEST PUSH2 0x16F8 PUSH1 0x20 DUP4 ADD DUP8 PUSH2 0x156B JUMP JUMPDEST PUSH2 0x1705 PUSH1 0x40 DUP4 ADD DUP7 PUSH2 0x1444 JUMP JUMPDEST PUSH2 0x1712 PUSH1 0x60 DUP4 ADD DUP6 PUSH2 0x1444 JUMP JUMPDEST PUSH2 0x171F PUSH1 0x80 DUP4 ADD DUP5 PUSH2 0x15D2 JUMP JUMPDEST SWAP7 SWAP6 POP POP POP POP POP POP JUMP JUMPDEST PUSH1 0x0 DUP1 REVERT JUMPDEST PUSH32 0x4E487B7100000000000000000000000000000000000000000000000000000000 PUSH1 0x0 MSTORE PUSH1 0x41 PUSH1 0x4 MSTORE PUSH1 0x24 PUSH1 0x0 REVERT JUMPDEST PUSH2 0x1766 DUP3 PUSH2 0x1521 JUMP JUMPDEST DUP2 ADD DUP2 DUP2 LT PUSH8 0xFFFFFFFFFFFFFFFF DUP3 GT OR ISZERO PUSH2 0x1785 JUMPI PUSH2 0x1784 PUSH2 0x172E JUMP JUMPDEST JUMPDEST DUP1 PUSH1 0x40 MSTORE POP POP POP JUMP JUMPDEST PUSH1 0x0 PUSH2 0x1798 PUSH2 0x135C JUMP JUMPDEST SWAP1 POP PUSH2 0x17A4 DUP3 DUP3 PUSH2 0x175D JUMP JUMPDEST SWAP2 SWAP1 POP JUMP JUMPDEST PUSH1 0x0 PUSH8 0xFFFFFFFFFFFFFFFF DUP3 GT ISZERO PUSH2 0x17C4 JUMPI PUSH2 0x17C3 PUSH2 0x172E JUMP JUMPDEST JUMPDEST PUSH1 0x20 DUP3 MUL SWAP1 POP PUSH1 0x20 DUP2 ADD SWAP1 POP SWAP2 SWAP1 POP JUMP JUMPDEST PUSH1 0x0 DUP1 REVERT JUMPDEST PUSH1 0x0 DUP1 REVERT JUMPDEST PUSH1 0x0 PUSH8 0xFFFFFFFFFFFFFFFF DUP3 GT ISZERO PUSH2 0x17FA JUMPI PUSH2 0x17F9 PUSH2 0x172E JUMP JUMPDEST JUMPDEST PUSH2 0x1803 DUP3 PUSH2 0x1521 JUMP JUMPDEST SWAP1 POP PUSH1 0x20 DUP2 ADD SWAP1 POP SWAP2 SWAP1 POP JUMP JUMPDEST DUP3 DUP2 DUP4 CALLDATACOPY PUSH1 0x0 DUP4 DUP4 ADD MSTORE POP POP POP JUMP JUMPDEST PUSH1 0x0 PUSH2 0x1832 PUSH2 0x182D DUP5 PUSH2 0x17DF JUMP JUMPDEST PUSH2 0x178E JUMP JUMPDEST SWAP1 POP DUP3 DUP2 MSTORE PUSH1 0x20 DUP2 ADD DUP5 DUP5 DUP5 ADD GT ISZERO PUSH2 0x184E JUMPI PUSH2 0x184D PUSH2 0x17DA JUMP JUMPDEST JUMPDEST PUSH2 0x1859 DUP5 DUP3 DUP6 PUSH2 0x1810 JUMP JUMPDEST POP SWAP4 SWAP3 POP POP POP JUMP JUMPDEST PUSH1 0x0 DUP3 PUSH1 0x1F DUP4 ADD SLT PUSH2 0x1876 JUMPI PUSH2 0x1875 PUSH2 0x1729 JUMP JUMPDEST JUMPDEST DUP2 CALLDATALOAD PUSH2 0x1886 DUP5 DUP3 PUSH1 0x20 DUP7 ADD PUSH2 0x181F JUMP JUMPDEST SWAP2 POP POP SWAP3 SWAP2 POP POP JUMP JUMPDEST PUSH1 0x0 PUSH2 0x18A2 PUSH2 0x189D DUP5 PUSH2 0x17A9 JUMP JUMPDEST PUSH2 0x178E JUMP JUMPDEST SWAP1 POP DUP1 DUP4 DUP3 MSTORE PUSH1 0x20 DUP3 ADD SWAP1 POP PUSH1 0x20 DUP5 MUL DUP4 ADD DUP6 DUP2 GT ISZERO PUSH2 0x18C5 JUMPI PUSH2 0x18C4 PUSH2 0x17D5 JUMP JUMPDEST JUMPDEST DUP4 JUMPDEST DUP2 DUP2 LT ISZERO PUSH2 0x190C JUMPI DUP1 CALLDATALOAD PUSH8 0xFFFFFFFFFFFFFFFF DUP2 GT ISZERO PUSH2 0x18EA JUMPI PUSH2 0x18E9 PUSH2 0x1729 JUMP JUMPDEST JUMPDEST DUP1 DUP7 ADD PUSH2 0x18F7 DUP10 DUP3 PUSH2 0x1861 JUMP JUMPDEST DUP6 MSTORE PUSH1 0x20 DUP6 ADD SWAP5 POP POP POP PUSH1 0x20 DUP2 ADD SWAP1 POP PUSH2 0x18C7 JUMP JUMPDEST POP POP POP SWAP4 SWAP3 POP POP POP JUMP JUMPDEST PUSH1 0x0 DUP3 PUSH1 0x1F DUP4 ADD SLT PUSH2 0x192B JUMPI PUSH2 0x192A PUSH2 0x1729 JUMP JUMPDEST JUMPDEST DUP2 CALLDATALOAD PUSH2 0x193B DUP5 DUP3 PUSH1 0x20 DUP7 ADD PUSH2 0x188F JUMP JUMPDEST SWAP2 POP POP SWAP3 SWAP2 POP POP JUMP JUMPDEST PUSH1 0x0 DUP1 PUSH1 0x0 PUSH1 0x60 DUP5 DUP7 SUB SLT ISZERO PUSH2 0x195D JUMPI PUSH2 0x195C PUSH2 0x1366 JUMP JUMPDEST JUMPDEST PUSH1 0x0 PUSH2 0x196B DUP7 DUP3 DUP8 ADD PUSH2 0x1391 JUMP JUMPDEST SWAP4 POP POP PUSH1 0x20 PUSH2 0x197C DUP7 DUP3 DUP8 ADD PUSH2 0x1391 JUMP JUMPDEST SWAP3 POP POP PUSH1 0x40 DUP5 ADD CALLDATALOAD PUSH8 0xFFFFFFFFFFFFFFFF DUP2 GT ISZERO PUSH2 0x199D JUMPI PUSH2 0x199C PUSH2 0x136B JUMP JUMPDEST JUMPDEST PUSH2 0x19A9 DUP7 DUP3 DUP8 ADD PUSH2 0x1916 JUMP JUMPDEST SWAP2 POP POP SWAP3 POP SWAP3 POP SWAP3 JUMP JUMPDEST PUSH32 0x4E487B7100000000000000000000000000000000000000000000000000000000 PUSH1 0x0 MSTORE PUSH1 0x22 PUSH1 0x4 MSTORE PUSH1 0x24 PUSH1 0x0 REVERT JUMPDEST PUSH1 0x0 PUSH1 0x2 DUP3 DIV SWAP1 POP PUSH1 0x1 DUP3 AND DUP1 PUSH2 0x19FA JUMPI PUSH1 0x7F DUP3 AND SWAP2 POP JUMPDEST PUSH1 0x20 DUP3 LT DUP2 SUB PUSH2 0x1A0D JUMPI PUSH2 0x1A0C PUSH2 0x19B3 JUMP JUMPDEST JUMPDEST POP SWAP2 SWAP1 POP JUMP JUMPDEST PUSH32 0x4E487B7100000000000000000000000000000000000000000000000000000000 PUSH1 0x0 MSTORE PUSH1 0x32 PUSH1 0x4 MSTORE PUSH1 0x24 PUSH1 0x0 REVERT JUMPDEST PUSH32 0x416C726561647920766F74656400000000000000000000000000000000000000 PUSH1 0x0 DUP3 ADD MSTORE POP JUMP JUMPDEST PUSH1 0x0 PUSH2 0x1A78 PUSH1 0xD DUP4 PUSH2 0x14E6 JUMP JUMPDEST SWAP2 POP PUSH2 0x1A83 DUP3 PUSH2 0x1A42 JUMP JUMPDEST PUSH1 0x20 DUP3 ADD SWAP1 POP SWAP2 SWAP1 POP JUMP JUMPDEST PUSH1 0x0 PUSH1 0x20 DUP3 ADD SWAP1 POP DUP2 DUP2 SUB PUSH1 0x0 DUP4 ADD MSTORE PUSH2 0x1AA7 DUP2 PUSH2 0x1A6B JUMP JUMPDEST SWAP1 POP SWAP2 SWAP1 POP JUMP JUMPDEST PUSH32 0x506F6C6C20697320636C6F736564000000000000000000000000000000000000 PUSH1 0x0 DUP3 ADD MSTORE POP JUMP JUMPDEST PUSH1 0x0 PUSH2 0x1AE4 PUSH1 0xE DUP4 PUSH2 0x14E6 JUMP JUMPDEST SWAP2 POP PUSH2 0x1AEF DUP3 PUSH2 0x1AAE JUMP JUMPDEST PUSH1 0x20 DUP3 ADD SWAP1 POP SWAP2 SWAP1 POP JUMP JUMPDEST PUSH1 0x0 PUSH1 0x20 DUP3 ADD SWAP1 POP DUP2 DUP2 SUB PUSH1 0x0 DUP4 ADD MSTORE PUSH2 0x1B13 DUP2 PUSH2 0x1AD7 JUMP JUMPDEST SWAP1 POP SWAP2 SWAP1 POP JUMP JUMPDEST PUSH32 0x506F6C6C206973206E6F74206163746976650000000000000000000000000000 PUSH1 0x0 DUP3 ADD MSTORE POP JUMP JUMPDEST PUSH1 0x0 PUSH2 0x1B50 PUSH1 0x12 DUP4 PUSH2 0x14E6 JUMP JUMPDEST SWAP2 POP PUSH2 0x1B5B DUP3 PUSH2 0x1B1A JUMP JUMPDEST PUSH1 0x20 DUP3 ADD SWAP1 POP SWAP2 SWAP1 POP JUMP JUMPDEST PUSH1 0x0 PUSH1 0x20 DUP3 ADD SWAP1 POP DUP2 DUP2 SUB PUSH1 0x0 DUP4 ADD MSTORE PUSH2 0x1B7F DUP2 PUSH2 0x1B43 JUMP JUMPDEST SWAP1 POP SWAP2 SWAP1 POP JUMP JUMPDEST PUSH32 0x496E76616C69642063686F696365000000000000000000000000000000000000 PUSH1 0x0 DUP3 ADD MSTORE POP JUMP JUMPDEST PUSH1 0x0 PUSH2 0x1BBC PUSH1 0xE DUP4 PUSH2 0x14E6 JUMP JUMPDEST SWAP2 POP PUSH2 0x1BC7 DUP3 PUSH2 0x1B86 JUMP JUMPDEST PUSH1 0x20 DUP3 ADD SWAP1 POP SWAP2 SWAP1 POP JUMP JUMPDEST PUSH1 0x0 PUSH1 0x20 DUP3 ADD SWAP1 POP DUP2 DUP2 SUB PUSH1 0x0 DUP4 ADD MSTORE PUSH2 0x1BEB DUP2 PUSH2 0x1BAF JUMP JUMPDEST SWAP1 POP SWAP2 SWAP1 POP JUMP JUMPDEST PUSH32 0x506F6C6C20686173206E6F742073746172746564207965742C20796F75206361 PUSH1 0x0 DUP3 ADD MSTORE PUSH32 0x6E6E6F7420626574206F6E206974000000000000000000000000000000000000 PUSH1 0x20 DUP3 ADD MSTORE POP JUMP JUMPDEST PUSH1 0x0 PUSH2 0x1C4E PUSH1 0x2E DUP4 PUSH2 0x14E6 JUMP JUMPDEST SWAP2 POP PUSH2 0x1C59 DUP3 PUSH2 0x1BF2 JUMP JUMPDEST PUSH1 0x40 DUP3 ADD SWAP1 POP SWAP2 SWAP1 POP JUMP JUMPDEST PUSH1 0x0 PUSH1 0x20 DUP3 ADD SWAP1 POP DUP2 DUP2 SUB PUSH1 0x0 DUP4 ADD MSTORE PUSH2 0x1C7D DUP2 PUSH2 0x1C41 JUMP JUMPDEST SWAP1 POP SWAP2 SWAP1 POP JUMP JUMPDEST PUSH32 0x506F6C6C2068617320656E6465642C20796F752063616E6E6F7420626574206F PUSH1 0x0 DUP3 ADD MSTORE PUSH32 0x6E20697420616E796D6F72650000000000000000000000000000000000000000 PUSH1 0x20 DUP3 ADD MSTORE POP JUMP JUMPDEST PUSH1 0x0 PUSH2 0x1CE0 PUSH1 0x2C DUP4 PUSH2 0x14E6 JUMP JUMPDEST SWAP2 POP PUSH2 0x1CEB DUP3 PUSH2 0x1C84 JUMP JUMPDEST PUSH1 0x40 DUP3 ADD SWAP1 POP SWAP2 SWAP1 POP JUMP JUMPDEST PUSH1 0x0 PUSH1 0x20 DUP3 ADD SWAP1 POP DUP2 DUP2 SUB PUSH1 0x0 DUP4 ADD MSTORE PUSH2 0x1D0F DUP2 PUSH2 0x1CD3 JUMP JUMPDEST SWAP1 POP SWAP2 SWAP1 POP JUMP JUMPDEST PUSH32 0x416D6F756E74206D7573742062652067726561746572207468616E2030210000 PUSH1 0x0 DUP3 ADD MSTORE POP JUMP JUMPDEST PUSH1 0x0 PUSH2 0x1D4C PUSH1 0x1E DUP4 PUSH2 0x14E6 JUMP JUMPDEST SWAP2 POP PUSH2 0x1D57 DUP3 PUSH2 0x1D16 JUMP JUMPDEST PUSH1 0x20 DUP3 ADD SWAP1 POP SWAP2 SWAP1 POP JUMP JUMPDEST PUSH1 0x0 PUSH1 0x20 DUP3 ADD SWAP1 POP DUP2 DUP2 SUB PUSH1 0x0 DUP4 ADD MSTORE PUSH2 0x1D7B DUP2 PUSH2 0x1D3F JUMP JUMPDEST SWAP1 POP SWAP2 SWAP1 POP JUMP JUMPDEST PUSH1 0x0 DUP2 SWAP1 POP SWAP3 SWAP2 POP POP JUMP JUMPDEST PUSH1 0x0 DUP2 SWAP1 POP DUP2 PUSH1 0x0 MSTORE PUSH1 0x20 PUSH1 0x0 KECCAK256 SWAP1 POP SWAP2 SWAP1 POP JUMP JUMPDEST PUSH1 0x0 DUP2 SLOAD PUSH2 0x1DAF DUP2 PUSH2 0x19E2 JUMP JUMPDEST PUSH2 0x1DB9 DUP2 DUP7 PUSH2 0x1D82 JUMP JUMPDEST SWAP5 POP PUSH1 0x1 DUP3 AND PUSH1 0x0 DUP2 EQ PUSH2 0x1DD4 JUMPI PUSH1 0x1 DUP2 EQ PUSH2 0x1DE9 JUMPI PUSH2 0x1E1C JUMP JUMPDEST PUSH1 0xFF NOT DUP4 AND DUP7 MSTORE DUP2 ISZERO ISZERO DUP3 MUL DUP7 ADD SWAP4 POP PUSH2 0x1E1C JUMP JUMPDEST PUSH2 0x1DF2 DUP6 PUSH2 0x1D8D JUMP JUMPDEST PUSH1 0x0 JUMPDEST DUP4 DUP2 LT ISZERO PUSH2 0x1E14 JUMPI DUP2 SLOAD DUP2 DUP10 ADD MSTORE PUSH1 0x1 DUP3 ADD SWAP2 POP PUSH1 0x20 DUP2 ADD SWAP1 POP PUSH2 0x1DF5 JUMP JUMPDEST DUP4 DUP9 ADD SWAP6 POP POP POP JUMPDEST POP POP POP SWAP3 SWAP2 POP POP JUMP JUMPDEST PUSH1 0x0 PUSH2 0x1E31 DUP3 DUP5 PUSH2 0x1DA2 JUMP JUMPDEST SWAP2 POP DUP2 SWAP1 POP SWAP3 SWAP2 POP POP JUMP JUMPDEST PUSH32 0x4E487B7100000000000000000000000000000000000000000000000000000000 PUSH1 0x0 MSTORE PUSH1 0x11 PUSH1 0x4 MSTORE PUSH1 0x24 PUSH1 0x0 REVERT JUMPDEST PUSH1 0x0 PUSH2 0x1E76 DUP3 PUSH2 0x1370 JUMP JUMPDEST SWAP2 POP PUSH32 0xFFFFFFFFFFFFFFFFFFFFFFFFFFFFFFFFFFFFFFFFFFFFFFFFFFFFFFFFFFFFFFFF DUP3 SUB PUSH2 0x1EA8 JUMPI PUSH2 0x1EA7 PUSH2 0x1E3C JUMP JUMPDEST JUMPDEST PUSH1 0x1 DUP3 ADD SWAP1 POP SWAP2 SWAP1 POP JUMP JUMPDEST PUSH32 0x496E76616C696420706F6C6C2063686F6963652C20706C656173652073656C65 PUSH1 0x0 DUP3 ADD MSTORE PUSH32 0x6374206F6E65206F662074686520706F6C6C2063686F6963657320746F206265 PUSH1 0x20 DUP3 ADD MSTORE PUSH32 0x74206F6E00000000000000000000000000000000000000000000000000000000 PUSH1 0x40 DUP3 ADD MSTORE POP JUMP JUMPDEST PUSH1 0x0 PUSH2 0x1F35 PUSH1 0x44 DUP4 PUSH2 0x14E6 JUMP JUMPDEST SWAP2 POP PUSH2 0x1F40 DUP3 PUSH2 0x1EB3 JUMP JUMPDEST PUSH1 0x60 DUP3 ADD SWAP1 POP SWAP2 SWAP1 POP JUMP JUMPDEST PUSH1 0x0 PUSH1 0x20 DUP3 ADD SWAP1 POP DUP2 DUP2 SUB PUSH1 0x0 DUP4 ADD MSTORE PUSH2 0x1F64 DUP2 PUSH2 0x1F28 JUMP JUMPDEST SWAP1 POP SWAP2 SWAP1 POP JUMP JUMPDEST PUSH1 0x0 PUSH2 0x1F76 DUP3 PUSH2 0x1370 JUMP JUMPDEST SWAP2 POP PUSH2 0x1F81 DUP4 PUSH2 0x1370 JUMP JUMPDEST SWAP3 POP DUP3 DUP3 ADD SWAP1 POP DUP1 DUP3 GT ISZERO PUSH2 0x1F99 JUMPI PUSH2 0x1F98 PUSH2 0x1E3C JUMP JUMPDEST JUMPDEST SWAP3 SWAP2 POP POP JUMP JUMPDEST PUSH1 0x0 DUP2 SWAP1 POP DUP2 PUSH1 0x0 MSTORE PUSH1 0x20 PUSH1 0x0 KECCAK256 SWAP1 POP SWAP2 SWAP1 POP JUMP JUMPDEST PUSH1 0x0 PUSH1 0x20 PUSH1 0x1F DUP4 ADD DIV SWAP1 POP SWAP2 SWAP1 POP JUMP JUMPDEST PUSH1 0x0 DUP3 DUP3 SHL SWAP1 POP SWAP3 SWAP2 POP POP JUMP JUMPDEST PUSH1 0x0 PUSH1 0x8 DUP4 MUL PUSH2 0x2001 PUSH32 0xFFFFFFFFFFFFFFFFFFFFFFFFFFFFFFFFFFFFFFFFFFFFFFFFFFFFFFFFFFFFFFFF DUP3 PUSH2 0x1FC4 JUMP JUMPDEST PUSH2 0x200B DUP7 DUP4 PUSH2 0x1FC4 JUMP JUMPDEST SWAP6 POP DUP1 NOT DUP5 AND SWAP4 POP DUP1 DUP7 AND DUP5 OR SWAP3 POP POP POP SWAP4 SWAP3 POP POP POP JUMP JUMPDEST PUSH1 0x0 DUP2 SWAP1 POP SWAP2 SWAP1 POP JUMP JUMPDEST PUSH1 0x0 PUSH2 0x2048 PUSH2 0x2043 PUSH2 0x203E DUP5 PUSH2 0x1370 JUMP JUMPDEST PUSH2 0x2023 JUMP JUMPDEST PUSH2 0x1370 JUMP JUMPDEST SWAP1 POP SWAP2 SWAP1 POP JUMP JUMPDEST PUSH1 0x0 DUP2 SWAP1 POP SWAP2 SWAP1 POP JUMP JUMPDEST PUSH2 0x2062 DUP4 PUSH2 0x202D JUMP JUMPDEST PUSH2 0x2076 PUSH2 0x206E DUP3 PUSH2 0x204F JUMP JUMPDEST DUP5 DUP5 SLOAD PUSH2 0x1FD1 JUMP JUMPDEST DUP3 SSTORE POP POP POP POP JUMP JUMPDEST PUSH1 0x0 SWAP1 JUMP JUMPDEST PUSH2 0x208B PUSH2 0x207E JUMP JUMPDEST PUSH2 0x2096 DUP2 DUP5 DUP5 PUSH2 0x2059 JUMP JUMPDEST POP POP POP JUMP JUMPDEST JUMPDEST DUP2 DUP2 LT ISZERO PUSH2 0x20BA JUMPI PUSH2 0x20AF PUSH1 0x0 DUP3 PUSH2 0x2083 JUMP JUMPDEST PUSH1 0x1 DUP2 ADD SWAP1 POP PUSH2 0x209C JUMP JUMPDEST POP POP JUMP JUMPDEST PUSH1 0x1F DUP3 GT ISZERO PUSH2 0x20FF JUMPI PUSH2 0x20D0 DUP2 PUSH2 0x1F9F JUMP JUMPDEST PUSH2 0x20D9 DUP5 PUSH2 0x1FB4 JUMP JUMPDEST DUP2 ADD PUSH1 0x20 DUP6 LT ISZERO PUSH2 0x20E8 JUMPI DUP2 SWAP1 POP JUMPDEST PUSH2 0x20FC PUSH2 0x20F4 DUP6 PUSH2 0x1FB4 JUMP JUMPDEST DUP4 ADD DUP3 PUSH2 0x209B JUMP JUMPDEST POP POP JUMPDEST POP POP POP JUMP JUMPDEST PUSH1 0x0 DUP3 DUP3 SHR SWAP1 POP SWAP3 SWAP2 POP POP JUMP JUMPDEST PUSH1 0x0 PUSH2 0x2122 PUSH1 0x0 NOT DUP5 PUSH1 0x8 MUL PUSH2 0x2104 JUMP JUMPDEST NOT DUP1 DUP4 AND SWAP2 POP POP SWAP3 SWAP2 POP POP JUMP JUMPDEST PUSH1 0x0 PUSH2 0x213B DUP4 DUP4 PUSH2 0x2111 JUMP JUMPDEST SWAP2 POP DUP3 PUSH1 0x2 MUL DUP3 OR SWAP1 POP SWAP3 SWAP2 POP POP JUMP JUMPDEST PUSH2 0x2154 DUP3 PUSH2 0x14DB JUMP JUMPDEST PUSH8 0xFFFFFFFFFFFFFFFF DUP2 GT ISZERO PUSH2 0x216D JUMPI PUSH2 0x216C PUSH2 0x172E JUMP JUMPDEST JUMPDEST PUSH2 0x2177 DUP3 SLOAD PUSH2 0x19E2 JUMP JUMPDEST PUSH2 0x2182 DUP3 DUP3 DUP6 PUSH2 0x20BE JUMP JUMPDEST PUSH1 0x0 PUSH1 0x20 SWAP1 POP PUSH1 0x1F DUP4 GT PUSH1 0x1 DUP2 EQ PUSH2 0x21B5 JUMPI PUSH1 0x0 DUP5 ISZERO PUSH2 0x21A3 JUMPI DUP3 DUP8 ADD MLOAD SWAP1 POP JUMPDEST PUSH2 0x21AD DUP6 DUP3 PUSH2 0x212F JUMP JUMPDEST DUP7 SSTORE POP PUSH2 0x2215 JUMP JUMPDEST PUSH1 0x1F NOT DUP5 AND PUSH2 0x21C3 DUP7 PUSH2 0x1F9F JUMP JUMPDEST PUSH1 0x0 JUMPDEST DUP3 DUP2 LT ISZERO PUSH2 0x21EB JUMPI DUP5 DUP10 ADD MLOAD DUP3 SSTORE PUSH1 0x1 DUP3 ADD SWAP2 POP PUSH1 0x20 DUP6 ADD SWAP5 POP PUSH1 0x20 DUP2 ADD SWAP1 POP PUSH2 0x21C6 JUMP JUMPDEST DUP7 DUP4 LT ISZERO PUSH2 0x2208 JUMPI DUP5 DUP10 ADD MLOAD PUSH2 0x2204 PUSH1 0x1F DUP10 AND DUP3 PUSH2 0x2111 JUMP JUMPDEST DUP4 SSTORE POP JUMPDEST PUSH1 0x1 PUSH1 0x2 DUP9 MUL ADD DUP9 SSTORE POP POP POP JUMPDEST POP POP POP POP POP POP JUMP JUMPDEST PUSH1 0x0 PUSH1 0x40 DUP3 ADD SWAP1 POP DUP2 DUP2 SUB PUSH1 0x0 DUP4 ADD MSTORE PUSH2 0x2237 DUP2 DUP6 PUSH2 0x1532 JUMP JUMPDEST SWAP1 POP PUSH2 0x2246 PUSH1 0x20 DUP4 ADD DUP5 PUSH2 0x1444 JUMP JUMPDEST SWAP4 SWAP3 POP POP POP JUMP JUMPDEST PUSH32 0x506F6C6C20686173206E6F7420656E6465642079657400000000000000000000 PUSH1 0x0 DUP3 ADD MSTORE POP JUMP JUMPDEST PUSH1 0x0 PUSH2 0x2283 PUSH1 0x16 DUP4 PUSH2 0x14E6 JUMP JUMPDEST SWAP2 POP PUSH2 0x228E DUP3 PUSH2 0x224D JUMP JUMPDEST PUSH1 0x20 DUP3 ADD SWAP1 POP SWAP2 SWAP1 POP JUMP JUMPDEST PUSH1 0x0 PUSH1 0x20 DUP3 ADD SWAP1 POP DUP2 DUP2 SUB PUSH1 0x0 DUP4 ADD MSTORE PUSH2 0x22B2 DUP2 PUSH2 0x2276 JUMP JUMPDEST SWAP1 POP SWAP2 SWAP1 POP JUMP JUMPDEST PUSH32 0x496E76616C696420706F6C6C20656E642074696D650000000000000000000000 PUSH1 0x0 DUP3 ADD MSTORE POP JUMP JUMPDEST PUSH1 0x0 PUSH2 0x22EF PUSH1 0x15 DUP4 PUSH2 0x14E6 JUMP JUMPDEST SWAP2 POP PUSH2 0x22FA DUP3 PUSH2 0x22B9 JUMP JUMPDEST PUSH1 0x20 DUP3 ADD SWAP1 POP SWAP2 SWAP1 POP JUMP JUMPDEST PUSH1 0x0 PUSH1 0x20 DUP3 ADD SWAP1 POP DUP2 DUP2 SUB PUSH1 0x0 DUP4 ADD MSTORE PUSH2 0x231E DUP2 PUSH2 0x22E2 JUMP JUMPDEST SWAP1 POP SWAP2 SWAP1 POP JUMP JUMPDEST PUSH32 0x4174206C656173742074776F206F7074696F6E73207265717569726564000000 PUSH1 0x0 DUP3 ADD MSTORE POP JUMP JUMPDEST PUSH1 0x0 PUSH2 0x235B PUSH1 0x1D DUP4 PUSH2 0x14E6 JUMP JUMPDEST SWAP2 POP PUSH2 0x2366 DUP3 PUSH2 0x2325 JUMP JUMPDEST PUSH1 0x20 DUP3 ADD SWAP1 POP SWAP2 SWAP1 POP JUMP JUMPDEST PUSH1 0x0 PUSH1 0x20 DUP3 ADD SWAP1 POP DUP2 DUP2 SUB PUSH1 0x0 DUP4 ADD MSTORE PUSH2 0x238A DUP2 PUSH2 0x234E JUMP JUMPDEST SWAP1 POP SWAP2 SWAP1 POP JUMP JUMPDEST PUSH1 0x0 DUP2 MLOAD SWAP1 POP SWAP2 SWAP1 POP JUMP JUMPDEST PUSH1 0x0 DUP3 DUP3 MSTORE PUSH1 0x20 DUP3 ADD SWAP1 POP SWAP3 SWAP2 POP POP JUMP JUMPDEST PUSH1 0x0 DUP2 SWAP1 POP PUSH1 0x20 DUP3 ADD SWAP1 POP SWAP2 SWAP1 POP JUMP JUMPDEST PUSH1 0x0 DUP3 DUP3 MSTORE PUSH1 0x20 DUP3 ADD SWAP1 POP SWAP3 SWAP2 POP POP JUMP JUMPDEST PUSH1 0x0 PUSH2 0x23D9 DUP3 PUSH2 0x14DB JUMP JUMPDEST PUSH2 0x23E3 DUP2 DUP6 PUSH2 0x23BD JUMP JUMPDEST SWAP4 POP PUSH2 0x23F3 DUP2 DUP6 PUSH1 0x20 DUP7 ADD PUSH2 0x14F7 JUMP JUMPDEST PUSH2 0x23FC DUP2 PUSH2 0x1521 JUMP JUMPDEST DUP5 ADD SWAP2 POP POP SWAP3 SWAP2 POP POP JUMP JUMPDEST PUSH1 0x0 PUSH2 0x2413 DUP4 DUP4 PUSH2 0x23CE JUMP JUMPDEST SWAP1 POP SWAP3 SWAP2 POP POP JUMP JUMPDEST PUSH1 0x0 PUSH1 0x20 DUP3 ADD SWAP1 POP SWAP2 SWAP1 POP JUMP JUMPDEST PUSH1 0x0 PUSH2 0x2433 DUP3 PUSH2 0x2391 JUMP JUMPDEST PUSH2 0x243D DUP2 DUP6 PUSH2 0x239C JUMP JUMPDEST SWAP4 POP DUP4 PUSH1 0x20 DUP3 MUL DUP6 ADD PUSH2 0x244F DUP6 PUSH2 0x23AD JUMP JUMPDEST DUP1 PUSH1 0x0 JUMPDEST DUP6 DUP2 LT ISZERO PUSH2 0x248B JUMPI DUP5 DUP5 SUB DUP10 MSTORE DUP2 MLOAD PUSH2 0x246C DUP6 DUP3 PUSH2 0x2407 JUMP JUMPDEST SWAP5 POP PUSH2 0x2477 DUP4 PUSH2 0x241B JUMP JUMPDEST SWAP3 POP PUSH1 0x20 DUP11 ADD SWAP10 POP POP PUSH1 0x1 DUP2 ADD SWAP1 POP PUSH2 0x2453 JUMP JUMPDEST POP DUP3 SWAP8 POP DUP8 SWAP6 POP POP POP POP POP POP SWAP3 SWAP2 POP POP JUMP JUMPDEST PUSH1 0x0 PUSH1 0x60 DUP3 ADD SWAP1 POP PUSH2 0x24B2 PUSH1 0x0 DUP4 ADD DUP7 PUSH2 0x1444 JUMP JUMPDEST PUSH2 0x24BF PUSH1 0x20 DUP4 ADD DUP6 PUSH2 0x1444 JUMP JUMPDEST DUP2 DUP2 SUB PUSH1 0x40 DUP4 ADD MSTORE PUSH2 0x24D1 DUP2 DUP5 PUSH2 0x2428 JUMP JUMPDEST SWAP1 POP SWAP5 SWAP4 POP POP POP POP JUMP JUMPDEST PUSH1 0x0 PUSH1 0xFF DUP3 AND SWAP1 POP SWAP2 SWAP1 POP JUMP JUMPDEST PUSH1 0x0 PUSH2 0x24F3 DUP3 PUSH2 0x24DB JUMP JUMPDEST SWAP2 POP PUSH1 0xFF DUP3 SUB PUSH2 0x2506 JUMPI PUSH2 0x2505 PUSH2 0x1E3C JUMP JUMPDEST JUMPDEST PUSH1 0x1 DUP3 ADD SWAP1 POP SWAP2 SWAP1 POP JUMP INVALID LOG2 PUSH5 0x6970667358 0x22 SLT KECCAK256 0xA6 0xAC PUSH24 0x1CA9081762C3EB07C044C7BB12C6256FE45D6D3BE18827F9 CHAINID PUSH28 0x3303A764736F6C634300081200330000000000000000000000000000 "
				},
				"gasEstimates": {
					"creation": {
						"codeDepositCost": "1908600",
						"executionCost": "2019",
						"totalCost": "1910619"
					},
					"external": {
						"balances(address)": "2860",
						"betCount()": "2473",
						"betOnPoll(uint256,bytes32)": "infinite",
						"closePoll()": "254",
						"createPoll(uint256,uint256,string[])": "infinite",
						"distributeRewards()": "233",
						"getBetCount(uint256)": "infinite",
						"getOdds(uint256,uint256)": "infinite",
						"getPollVotes(uint256)": "infinite",
						"hasVoted(uint256,address)": "3177",
						"pollBetTotal(uint256)": "infinite",
						"pollBets(uint256,address)": "infinite",
						"pollBetsList(uint256,uint256)": "infinite",
						"pollCount()": "2452",
						"pollWinners(uint256,uint256)": "infinite",
						"polls(uint256)": "infinite",
						"voteOnPoll(uint256,uint256)": "infinite",
						"voters(uint256,address)": "infinite"
					},
					"internal": {
						"bytes32ToString(bytes32)": "infinite"
					}
				},
				"methodIdentifiers": {
					"balances(address)": "27e235e3",
					"betCount()": "cf094497",
					"betOnPoll(uint256,bytes32)": "9b85e14f",
					"closePoll()": "ed8c2aed",
					"createPoll(uint256,uint256,string[])": "d624d6fd",
					"distributeRewards()": "6f4a2cd0",
					"getBetCount(uint256)": "6b7128ec",
					"getOdds(uint256,uint256)": "e3eed5c9",
					"getPollVotes(uint256)": "bbff7166",
					"hasVoted(uint256,address)": "43859632",
					"pollBetTotal(uint256)": "46f86716",
					"pollBets(uint256,address)": "06455f5e",
					"pollBetsList(uint256,uint256)": "420700f6",
					"pollCount()": "9207891d",
					"pollWinners(uint256,uint256)": "91cbfb41",
					"polls(uint256)": "ac2f0074",
					"voteOnPoll(uint256,uint256)": "4c3c234f",
					"voters(uint256,address)": "9e319063"
				}
			},
			"storageLayout": {
				"storage": [
					{
						"astId": 80,
						"contract": "contracts/PollBetContract.sol:PollBetContract",
						"label": "pollCount",
						"offset": 0,
						"slot": "0",
						"type": "t_uint256"
					},
					{
						"astId": 82,
						"contract": "contracts/PollBetContract.sol:PollBetContract",
						"label": "betCount",
						"offset": 0,
						"slot": "1",
						"type": "t_uint256"
					},
					{
						"astId": 86,
						"contract": "contracts/PollBetContract.sol:PollBetContract",
						"label": "pollBetTotal",
						"offset": 0,
						"slot": "2",
						"type": "t_mapping(t_uint256,t_uint256)"
					},
					{
						"astId": 92,
						"contract": "contracts/PollBetContract.sol:PollBetContract",
						"label": "pollBets",
						"offset": 0,
						"slot": "3",
						"type": "t_mapping(t_uint256,t_mapping(t_address,t_uint256))"
					},
					{
						"astId": 97,
						"contract": "contracts/PollBetContract.sol:PollBetContract",
						"label": "pollWinners",
						"offset": 0,
						"slot": "4",
						"type": "t_mapping(t_uint256,t_array(t_uint256)dyn_storage)"
					},
					{
						"astId": 101,
						"contract": "contracts/PollBetContract.sol:PollBetContract",
						"label": "balances",
						"offset": 0,
						"slot": "5",
						"type": "t_mapping(t_address,t_uint256)"
					},
					{
						"astId": 107,
						"contract": "contracts/PollBetContract.sol:PollBetContract",
						"label": "pollBetsList",
						"offset": 0,
						"slot": "6",
						"type": "t_mapping(t_uint256,t_array(t_struct(Bet)31_storage)dyn_storage)"
					},
					{
						"astId": 113,
						"contract": "contracts/PollBetContract.sol:PollBetContract",
						"label": "hasVoted",
						"offset": 0,
						"slot": "7",
						"type": "t_mapping(t_uint256,t_mapping(t_address,t_bool))"
					},
					{
						"astId": 120,
						"contract": "contracts/PollBetContract.sol:PollBetContract",
						"label": "voters",
						"offset": 0,
						"slot": "8",
						"type": "t_mapping(t_uint256,t_mapping(t_address,t_struct(Voter)22_storage))"
					},
					{
						"astId": 124,
						"contract": "contracts/PollBetContract.sol:PollBetContract",
						"label": "polls",
						"offset": 0,
						"slot": "9",
						"type": "t_array(t_struct(Poll)15_storage)dyn_storage"
					}
				],
				"types": {
					"t_address": {
						"encoding": "inplace",
						"label": "address",
						"numberOfBytes": "20"
					},
					"t_array(t_string_storage)dyn_storage": {
						"base": "t_string_storage",
						"encoding": "dynamic_array",
						"label": "string[]",
						"numberOfBytes": "32"
					},
					"t_array(t_struct(Bet)31_storage)dyn_storage": {
						"base": "t_struct(Bet)31_storage",
						"encoding": "dynamic_array",
						"label": "struct PollBetContract.Bet[]",
						"numberOfBytes": "32"
					},
					"t_array(t_struct(Poll)15_storage)dyn_storage": {
						"base": "t_struct(Poll)15_storage",
						"encoding": "dynamic_array",
						"label": "struct PollBetContract.Poll[]",
						"numberOfBytes": "32"
					},
					"t_array(t_uint256)dyn_storage": {
						"base": "t_uint256",
						"encoding": "dynamic_array",
						"label": "uint256[]",
						"numberOfBytes": "32"
					},
					"t_bool": {
						"encoding": "inplace",
						"label": "bool",
						"numberOfBytes": "1"
					},
					"t_mapping(t_address,t_bool)": {
						"encoding": "mapping",
						"key": "t_address",
						"label": "mapping(address => bool)",
						"numberOfBytes": "32",
						"value": "t_bool"
					},
					"t_mapping(t_address,t_struct(Voter)22_storage)": {
						"encoding": "mapping",
						"key": "t_address",
						"label": "mapping(address => struct PollBetContract.Voter)",
						"numberOfBytes": "32",
						"value": "t_struct(Voter)22_storage"
					},
					"t_mapping(t_address,t_uint256)": {
						"encoding": "mapping",
						"key": "t_address",
						"label": "mapping(address => uint256)",
						"numberOfBytes": "32",
						"value": "t_uint256"
					},
					"t_mapping(t_uint256,t_array(t_struct(Bet)31_storage)dyn_storage)": {
						"encoding": "mapping",
						"key": "t_uint256",
						"label": "mapping(uint256 => struct PollBetContract.Bet[])",
						"numberOfBytes": "32",
						"value": "t_array(t_struct(Bet)31_storage)dyn_storage"
					},
					"t_mapping(t_uint256,t_array(t_uint256)dyn_storage)": {
						"encoding": "mapping",
						"key": "t_uint256",
						"label": "mapping(uint256 => uint256[])",
						"numberOfBytes": "32",
						"value": "t_array(t_uint256)dyn_storage"
					},
					"t_mapping(t_uint256,t_mapping(t_address,t_bool))": {
						"encoding": "mapping",
						"key": "t_uint256",
						"label": "mapping(uint256 => mapping(address => bool))",
						"numberOfBytes": "32",
						"value": "t_mapping(t_address,t_bool)"
					},
					"t_mapping(t_uint256,t_mapping(t_address,t_struct(Voter)22_storage))": {
						"encoding": "mapping",
						"key": "t_uint256",
						"label": "mapping(uint256 => mapping(address => struct PollBetContract.Voter))",
						"numberOfBytes": "32",
						"value": "t_mapping(t_address,t_struct(Voter)22_storage)"
					},
					"t_mapping(t_uint256,t_mapping(t_address,t_uint256))": {
						"encoding": "mapping",
						"key": "t_uint256",
						"label": "mapping(uint256 => mapping(address => uint256))",
						"numberOfBytes": "32",
						"value": "t_mapping(t_address,t_uint256)"
					},
					"t_mapping(t_uint256,t_uint256)": {
						"encoding": "mapping",
						"key": "t_uint256",
						"label": "mapping(uint256 => uint256)",
						"numberOfBytes": "32",
						"value": "t_uint256"
					},
					"t_string_storage": {
						"encoding": "bytes",
						"label": "string",
						"numberOfBytes": "32"
					},
					"t_struct(Bet)31_storage": {
						"encoding": "inplace",
						"label": "struct PollBetContract.Bet",
						"members": [
							{
								"astId": 24,
								"contract": "contracts/PollBetContract.sol:PollBetContract",
								"label": "pollId",
								"offset": 0,
								"slot": "0",
								"type": "t_uint256"
							},
							{
								"astId": 26,
								"contract": "contracts/PollBetContract.sol:PollBetContract",
								"label": "pollChoice",
								"offset": 0,
								"slot": "1",
								"type": "t_string_storage"
							},
							{
								"astId": 28,
								"contract": "contracts/PollBetContract.sol:PollBetContract",
								"label": "user",
								"offset": 0,
								"slot": "2",
								"type": "t_address"
							},
							{
								"astId": 30,
								"contract": "contracts/PollBetContract.sol:PollBetContract",
								"label": "amount",
								"offset": 0,
								"slot": "3",
								"type": "t_uint256"
							}
						],
						"numberOfBytes": "128"
					},
					"t_struct(Poll)15_storage": {
						"encoding": "inplace",
						"label": "struct PollBetContract.Poll",
						"members": [
							{
								"astId": 3,
								"contract": "contracts/PollBetContract.sol:PollBetContract",
								"label": "id",
								"offset": 0,
								"slot": "0",
								"type": "t_uint256"
							},
							{
								"astId": 5,
								"contract": "contracts/PollBetContract.sol:PollBetContract",
								"label": "creator",
								"offset": 0,
								"slot": "1",
								"type": "t_address"
							},
							{
								"astId": 7,
								"contract": "contracts/PollBetContract.sol:PollBetContract",
								"label": "startTime",
								"offset": 0,
								"slot": "2",
								"type": "t_uint256"
							},
							{
								"astId": 9,
								"contract": "contracts/PollBetContract.sol:PollBetContract",
								"label": "endTime",
								"offset": 0,
								"slot": "3",
								"type": "t_uint256"
							},
							{
								"astId": 12,
								"contract": "contracts/PollBetContract.sol:PollBetContract",
								"label": "choices",
								"offset": 0,
								"slot": "4",
								"type": "t_array(t_string_storage)dyn_storage"
							},
							{
								"astId": 14,
								"contract": "contracts/PollBetContract.sol:PollBetContract",
								"label": "isOpen",
								"offset": 0,
								"slot": "5",
								"type": "t_bool"
							}
						],
						"numberOfBytes": "192"
					},
					"t_struct(Voter)22_storage": {
						"encoding": "inplace",
						"label": "struct PollBetContract.Voter",
						"members": [
							{
								"astId": 17,
								"contract": "contracts/PollBetContract.sol:PollBetContract",
								"label": "pollId",
								"offset": 0,
								"slot": "0",
								"type": "t_uint256"
							},
							{
								"astId": 19,
								"contract": "contracts/PollBetContract.sol:PollBetContract",
								"label": "voterAddress",
								"offset": 0,
								"slot": "1",
								"type": "t_address"
							},
							{
								"astId": 21,
								"contract": "contracts/PollBetContract.sol:PollBetContract",
								"label": "choice",
								"offset": 0,
								"slot": "2",
								"type": "t_uint256"
							}
						],
						"numberOfBytes": "96"
					},
					"t_uint256": {
						"encoding": "inplace",
						"label": "uint256",
						"numberOfBytes": "32"
					}
				}
			},
			"userdoc": {
				"kind": "user",
				"methods": {},
				"version": 1
			}
		}
	}
}